{
  "_format": "hh-sol-artifact-1",
  "contractName": "LsLMSR",
  "sourceName": "contracts/LmLSMR.sol",
  "abi": [
    {
      "inputs": [
        {
          "internalType": "address",
          "name": "_ct",
          "type": "address"
        },
        {
          "internalType": "address",
          "name": "_token",
          "type": "address"
        },
        {
          "internalType": "address",
          "name": "initialOwner",
          "type": "address"
        }
      ],
      "stateMutability": "nonpayable",
      "type": "constructor"
    },
    {
      "inputs": [
        {
          "internalType": "address",
          "name": "owner",
          "type": "address"
        }
      ],
      "name": "OwnableInvalidOwner",
      "type": "error"
    },
    {
      "inputs": [
        {
          "internalType": "address",
          "name": "account",
          "type": "address"
        }
      ],
      "name": "OwnableUnauthorizedAccount",
      "type": "error"
    },
    {
      "inputs": [
        {
          "internalType": "address",
          "name": "token",
          "type": "address"
        }
      ],
      "name": "SafeERC20FailedOperation",
      "type": "error"
    },
    {
      "anonymous": false,
      "inputs": [
        {
          "indexed": false,
          "internalType": "uint256",
          "name": "tokenCost",
          "type": "uint256"
        },
        {
          "indexed": false,
          "internalType": "int128",
          "name": "price_",
          "type": "int128"
        }
      ],
      "name": "BuyTokenCost",
      "type": "event"
    },
    {
      "anonymous": false,
      "inputs": [
        {
          "indexed": false,
          "internalType": "uint256",
          "name": "balance",
          "type": "uint256"
        }
      ],
      "name": "DebugBalanceAfter",
      "type": "event"
    },
    {
      "anonymous": false,
      "inputs": [
        {
          "indexed": false,
          "internalType": "uint256",
          "name": "balance",
          "type": "uint256"
        }
      ],
      "name": "DebugBalanceBefore",
      "type": "event"
    },
    {
      "anonymous": false,
      "inputs": [
        {
          "indexed": true,
          "internalType": "address",
          "name": "to",
          "type": "address"
        },
        {
          "indexed": false,
          "internalType": "uint256",
          "name": "amount",
          "type": "uint256"
        }
      ],
      "name": "FeesWithdrawn",
      "type": "event"
    },
    {
      "anonymous": false,
      "inputs": [
        {
          "indexed": true,
          "internalType": "address",
          "name": "user",
          "type": "address"
        },
        {
          "indexed": false,
          "internalType": "uint256",
          "name": "amount",
          "type": "uint256"
        }
      ],
      "name": "LiquidityAdded",
      "type": "event"
    },
    {
      "anonymous": false,
      "inputs": [
        {
          "indexed": true,
          "internalType": "address",
          "name": "previousOwner",
          "type": "address"
        },
        {
          "indexed": true,
          "internalType": "address",
          "name": "newOwner",
          "type": "address"
        }
      ],
      "name": "OwnershipTransferred",
      "type": "event"
    },
    {
      "inputs": [
        {
          "internalType": "uint256",
          "name": "_amount",
          "type": "uint256"
        }
      ],
      "name": "addLiquidity",
      "outputs": [],
      "stateMutability": "nonpayable",
      "type": "function"
    },
    {
      "inputs": [
        {
          "internalType": "uint256",
          "name": "_outcome",
          "type": "uint256"
        },
        {
          "internalType": "int128",
          "name": "_amount",
          "type": "int128"
        }
      ],
      "name": "buy",
      "outputs": [
        {
          "internalType": "int128",
          "name": "_price",
          "type": "int128"
        }
      ],
      "stateMutability": "nonpayable",
      "type": "function"
    },
    {
      "inputs": [],
      "name": "condition",
      "outputs": [
        {
          "internalType": "bytes32",
          "name": "",
          "type": "bytes32"
        }
      ],
      "stateMutability": "view",
      "type": "function"
    },
    {
      "inputs": [],
      "name": "cost",
      "outputs": [
        {
          "internalType": "int128",
          "name": "",
          "type": "int128"
        }
      ],
      "stateMutability": "view",
      "type": "function"
    },
    {
      "inputs": [
        {
          "internalType": "uint256",
          "name": "_outcome",
          "type": "uint256"
        },
        {
          "internalType": "int128",
          "name": "_amount",
          "type": "int128"
        }
      ],
      "name": "cost_after_buy",
      "outputs": [
        {
          "internalType": "int128",
          "name": "",
          "type": "int128"
        }
      ],
      "stateMutability": "view",
      "type": "function"
    },
    {
      "inputs": [],
      "name": "debugFees",
      "outputs": [
        {
          "internalType": "uint256",
          "name": "contractBalance",
          "type": "uint256"
        },
        {
          "internalType": "uint256",
          "name": "theoreticalCost",
          "type": "uint256"
        }
      ],
      "stateMutability": "view",
      "type": "function"
    },
    {
      "inputs": [],
      "name": "dummyVar",
      "outputs": [
        {
          "internalType": "uint256",
          "name": "",
          "type": "uint256"
        }
      ],
      "stateMutability": "view",
      "type": "function"
    },
    {
      "inputs": [
        {
          "internalType": "string",
          "name": "uniqueString",
          "type": "string"
        }
      ],
      "name": "generateQuestionId",
      "outputs": [
        {
          "internalType": "bytes32",
          "name": "",
          "type": "bytes32"
        }
      ],
      "stateMutability": "pure",
      "type": "function"
    },
    {
      "inputs": [],
      "name": "getAccumulatedFees",
      "outputs": [
        {
          "internalType": "uint256",
          "name": "",
          "type": "uint256"
        }
      ],
      "stateMutability": "view",
      "type": "function"
    },
    {
      "inputs": [],
      "name": "getLiquidityParameter",
      "outputs": [
        {
          "internalType": "int128",
          "name": "",
          "type": "int128"
        }
      ],
      "stateMutability": "view",
      "type": "function"
    },
    {
      "inputs": [
        {
          "internalType": "uint256",
          "name": "_outcome",
          "type": "uint256"
        }
      ],
      "name": "getOutcomeSharesPurchased",
      "outputs": [
        {
          "internalType": "int128",
          "name": "",
          "type": "int128"
        }
      ],
      "stateMutability": "view",
      "type": "function"
    },
    {
      "inputs": [
        {
          "internalType": "uint256",
          "name": "_outcome",
          "type": "uint256"
        }
      ],
      "name": "getPositionAndDustPositions",
      "outputs": [
        {
          "internalType": "uint256[]",
          "name": "",
          "type": "uint256[]"
        }
      ],
      "stateMutability": "view",
      "type": "function"
    },
    {
      "inputs": [
        {
          "internalType": "address",
          "name": "_token",
          "type": "address"
        },
        {
          "internalType": "uint256",
          "name": "_amount",
          "type": "uint256"
        }
      ],
      "name": "getTokenEth",
      "outputs": [
        {
          "internalType": "int128",
          "name": "",
          "type": "int128"
        }
      ],
      "stateMutability": "view",
      "type": "function"
    },
    {
      "inputs": [
        {
          "internalType": "address",
          "name": "_token",
          "type": "address"
        },
        {
          "internalType": "int128",
          "name": "_amount",
          "type": "int128"
        }
      ],
      "name": "getTokenWei",
      "outputs": [
        {
          "internalType": "uint256",
          "name": "",
          "type": "uint256"
        }
      ],
      "stateMutability": "view",
      "type": "function"
    },
    {
      "inputs": [
        {
          "internalType": "address",
          "name": "_token",
          "type": "address"
        },
        {
          "internalType": "int128",
          "name": "_amount",
          "type": "int128"
        }
      ],
      "name": "getTokenWeiDown",
      "outputs": [
        {
          "internalType": "uint256",
          "name": "",
          "type": "uint256"
        }
      ],
      "stateMutability": "view",
      "type": "function"
    },
    {
      "inputs": [
        {
          "internalType": "address",
          "name": "_token",
          "type": "address"
        },
        {
          "internalType": "int128",
          "name": "_amount",
          "type": "int128"
        }
      ],
      "name": "getTokenWeiUp",
      "outputs": [
        {
          "internalType": "uint256",
          "name": "",
          "type": "uint256"
        }
      ],
      "stateMutability": "view",
      "type": "function"
    },
    {
      "inputs": [],
      "name": "initial_subsidy",
      "outputs": [
        {
          "internalType": "int128",
          "name": "",
          "type": "int128"
        }
      ],
      "stateMutability": "view",
      "type": "function"
    },
    {
      "inputs": [],
      "name": "numOutcomes",
      "outputs": [
        {
          "internalType": "uint256",
          "name": "",
          "type": "uint256"
        }
      ],
      "stateMutability": "view",
      "type": "function"
    },
    {
      "inputs": [
        {
          "internalType": "uint256",
          "name": "_outcome",
          "type": "uint256"
        }
      ],
      "name": "odds",
      "outputs": [
        {
          "internalType": "int128",
          "name": "",
          "type": "int128"
        }
      ],
      "stateMutability": "view",
      "type": "function"
    },
    {
      "inputs": [
        {
          "internalType": "address",
          "name": "",
          "type": "address"
        },
        {
          "internalType": "address",
          "name": "",
          "type": "address"
        },
        {
          "internalType": "uint256[]",
          "name": "",
          "type": "uint256[]"
        },
        {
          "internalType": "uint256[]",
          "name": "",
          "type": "uint256[]"
        },
        {
          "internalType": "bytes",
          "name": "",
          "type": "bytes"
        }
      ],
      "name": "onERC1155BatchReceived",
      "outputs": [
        {
          "internalType": "bytes4",
          "name": "",
          "type": "bytes4"
        }
      ],
      "stateMutability": "pure",
      "type": "function"
    },
    {
      "inputs": [
        {
          "internalType": "address",
          "name": "",
          "type": "address"
        },
        {
          "internalType": "address",
          "name": "",
          "type": "address"
        },
        {
          "internalType": "uint256",
          "name": "",
          "type": "uint256"
        },
        {
          "internalType": "uint256",
          "name": "",
          "type": "uint256"
        },
        {
          "internalType": "bytes",
          "name": "",
          "type": "bytes"
        }
      ],
      "name": "onERC1155Received",
      "outputs": [
        {
          "internalType": "bytes4",
          "name": "",
          "type": "bytes4"
        }
      ],
      "stateMutability": "pure",
      "type": "function"
    },
    {
      "inputs": [],
      "name": "overround",
      "outputs": [
        {
          "internalType": "int128",
          "name": "",
          "type": "int128"
        }
      ],
      "stateMutability": "view",
      "type": "function"
    },
    {
      "inputs": [],
      "name": "owner",
      "outputs": [
        {
          "internalType": "address",
          "name": "",
          "type": "address"
        }
      ],
      "stateMutability": "view",
      "type": "function"
    },
    {
      "inputs": [
        {
          "internalType": "uint256",
          "name": "_outcome",
          "type": "uint256"
        },
        {
          "internalType": "int128",
          "name": "_amount",
          "type": "int128"
        }
      ],
      "name": "price",
      "outputs": [
        {
          "internalType": "int128",
          "name": "",
          "type": "int128"
        }
      ],
      "stateMutability": "view",
      "type": "function"
    },
    {
      "inputs": [],
      "name": "renounceOwnership",
      "outputs": [],
      "stateMutability": "nonpayable",
      "type": "function"
    },
    {
      "inputs": [
        {
          "internalType": "uint256",
          "name": "_outcome",
          "type": "uint256"
        },
        {
          "internalType": "int128",
          "name": "_amount",
          "type": "int128"
        }
      ],
      "name": "sell",
      "outputs": [
        {
          "internalType": "int128",
          "name": "refund",
          "type": "int128"
        }
      ],
      "stateMutability": "nonpayable",
      "type": "function"
    },
    {
      "inputs": [
        {
          "internalType": "uint256",
          "name": "_outcome",
          "type": "uint256"
        },
        {
          "internalType": "int128",
          "name": "_amount",
          "type": "int128"
        }
      ],
      "name": "sellingPrice",
      "outputs": [
        {
          "internalType": "int128",
          "name": "",
          "type": "int128"
        }
      ],
      "stateMutability": "view",
      "type": "function"
    },
    {
      "inputs": [
        {
          "internalType": "address",
          "name": "_oracle",
          "type": "address"
        },
        {
          "internalType": "bytes32",
          "name": "_questionId",
          "type": "bytes32"
        },
        {
          "internalType": "uint256",
          "name": "_numOutcomes",
          "type": "uint256"
        },
        {
          "internalType": "uint256",
          "name": "_subsidy",
          "type": "uint256"
        },
        {
          "internalType": "uint256",
          "name": "_overround",
          "type": "uint256"
        }
      ],
      "name": "setup",
      "outputs": [],
      "stateMutability": "nonpayable",
      "type": "function"
    },
    {
      "inputs": [
        {
          "internalType": "bytes4",
          "name": "interfaceId",
          "type": "bytes4"
        }
      ],
      "name": "supportsInterface",
      "outputs": [
        {
          "internalType": "bool",
          "name": "",
          "type": "bool"
        }
      ],
      "stateMutability": "view",
      "type": "function"
    },
    {
      "inputs": [],
      "name": "token",
      "outputs": [
        {
          "internalType": "address",
          "name": "",
          "type": "address"
        }
      ],
      "stateMutability": "view",
      "type": "function"
    },
    {
      "inputs": [
        {
          "internalType": "address",
          "name": "newOwner",
          "type": "address"
        }
      ],
      "name": "transferOwnership",
      "outputs": [],
      "stateMutability": "nonpayable",
      "type": "function"
    },
    {
      "inputs": [],
      "name": "withdraw",
      "outputs": [],
      "stateMutability": "nonpayable",
      "type": "function"
    },
    {
      "inputs": [],
      "name": "withdrawFees",
      "outputs": [],
      "stateMutability": "nonpayable",
      "type": "function"
    }
  ],
  "bytecode": "0x6080604052602a60095534801561001557600080fd5b506040516143413803806143418339810160408190526100349161010b565b806001600160a01b03811661006357604051631e4fbdf760e01b81526000600482015260240160405180910390fd5b61006c8161009f565b5050600780546001600160a01b039384166001600160a01b0319918216179091556008805492909316911617905561014e565b600080546001600160a01b038381166001600160a01b0319831681178455604051919092169283917f8be0079c531659141344cd1fd0a4f28419497f9722a3daafe3b4186f6b6457e09190a35050565b80516001600160a01b038116811461010657600080fd5b919050565b60008060006060848603121561012057600080fd5b610129846100ef565b9250610137602085016100ef565b9150610145604085016100ef565b90509250925092565b6141e48061015d6000396000f3fe608060405234801561001057600080fd5b506004361061020b5760003560e01c80638ac407921161012a578063c5031331116100bd578063e1fc23051161008c578063f2fde38b11610071578063f2fde38b1461047f578063f76da1d914610492578063fc0c546a146104a557600080fd5b8063e1fc230514610442578063f23a6e611461045f57600080fd5b8063c503133114610405578063cd6bd6db1461040e578063d8fdb3861461041b578063df7bd8fc1461042f57600080fd5b80638f54f2ae116100f95780638f54f2ae14610391578063ae92a93d146103a4578063bb6f593e146103b7578063bc197c81146103ca57600080fd5b80638ac40792146103305780638d0a6cff146103395780638d36627b146103595780638da5cb5b1461036c57600080fd5b80634c395cc4116101a2578063715018a611610171578063715018a6146103015780638062dd93146103095780638364dfef1461031c5780638767d64e1461032757600080fd5b80634c395cc4146102c057806351c6590a146102d357806352fdfecc146102e65780635df45a37146102f957600080fd5b80633ccfd60b116101de5780633ccfd60b1461028857806340088ee11461029257806346156ea0146102a5578063476343ee146102b857600080fd5b806301ffc9a714610210578063054454051461023957806310f8625a1461025a57806313faede614610280575b600080fd5b61022461021e366004613aa5565b50600090565b60405190151581526020015b60405180910390f35b61024c610247366004613af8565b6104b8565b604051908152602001610230565b61026d610268366004613b2b565b6105d0565b604051600f9190910b8152602001610230565b61026d610656565b610290610700565b005b61024c6102a0366004613af8565b61095f565b61026d6102b3366004613b55565b610a38565b610290610ae0565b61024c6102ce366004613b84565b610c51565b6102906102e1366004613b55565b610c81565b61026d6102f4366004613c3d565b610e35565b61024c610e5b565b610290610f12565b61026d610317366004613c3d565b610f26565b600354600f0b61026d565b61024c60015481565b61024c60095481565b61034c610347366004613b55565b6110ee565b6040516102309190613c9c565b61024c610367366004613af8565b6111eb565b6000546001600160a01b03165b6040516001600160a01b039091168152602001610230565b61029061039f366004613caf565b6112c2565b61026d6103b2366004613c3d565b611669565b61026d6103c5366004613b55565b611c24565b6103ec6103d8366004613d7f565b63bc197c8160e01b98975050505050505050565b6040516001600160e01b03199091168152602001610230565b61024c60065481565b60055461026d90600f0b81565b60055461026d90600160801b9004600f0b81565b61026d61043d366004613c3d565b611cb3565b61044a611cd0565b60408051928352602083019190915201610230565b6103ec61046d366004613e46565b63f23a6e6160e01b9695505050505050565b61029061048d366004613ebe565b611d68565b61026d6104a0366004613c3d565b611da3565b600854610379906001600160a01b031681565b600080836001600160a01b031663313ce5676040518163ffffffff1660e01b8152600401602060405180830381865afa1580156104f9573d6000803e3d6000fd5b505050506040513d601f19601f8201168201806040525081019061051d9190613ed9565b60ff169050600061052f82600a613ff9565b9050600084600f0b121561058a5760405162461bcd60e51b815260206004820152601b60248201527f416d6f756e74206d757374206265206e6f6e2d6e65676174697665000000000060448201526064015b60405180910390fd5b6000610596858361233a565b905060006105a486846123b6565b67ffffffffffffffff16600f0b13156105c5576105c2600182614005565b90505b925050505b92915050565b600080836001600160a01b031663313ce5676040518163ffffffff1660e01b8152600401602060405180830381865afa158015610611573d6000803e3d6000fd5b505050506040513d601f19601f820116820180604052508101906106359190613ed9565b60ff16905061064e8361064983600a613ff9565b6123f6565b949350505050565b600854600090600160a01b900460ff16151560011461067457600080fd5b6000805b6001548110156106e1576106d7826106d26106cd6002858154811061069f5761069f614018565b6000918252602090912060028204015460035460019092166010026101000a9004600f90810b91900b612430565b612490565b6124ea565b9150600101610678565b506003546106fa90600f0b6106f583612526565b6123b6565b91505090565b600854600160a01b900460ff16151560011461071b57600080fd5b610723612560565b60075460065460405163dd34de6760e01b81526001600160a01b039092169163dd34de67916107589160040190815260200190565b602060405180830381865afa158015610775573d6000803e3d6000fd5b505050506040513d601f19601f82011682018060405250810190610799919061402e565b6000036107e85760405162461bcd60e51b815260206004820152601b60248201527f4d61726b6574206e6565647320746f206265207265736f6c76656400000000006044820152606401610581565b600060015467ffffffffffffffff81111561080557610805613b6e565b60405190808252806020026020018201604052801561082e578160200160208202803683370190505b50905060005b60015481101561086857806001901b82828151811061085557610855614018565b6020908102919091010152600101610834565b50600754600854600654604051626dc0df60e21b81526001600160a01b03938416936301b7037c936108a593911691600091908790600401614047565b600060405180830381600087803b1580156108bf57600080fd5b505af11580156108d3573d6000803e3d6000fd5b50506008546040516370a0823160e01b815230600482015261095c93503392506001600160a01b03909116906370a0823190602401602060405180830381865afa158015610925573d6000803e3d6000fd5b505050506040513d601f19601f82011682018060405250810190610949919061402e565b6008546001600160a01b0316919061258d565b50565b600080836001600160a01b031663313ce5676040518163ffffffff1660e01b8152600401602060405180830381865afa1580156109a0573d6000803e3d6000fd5b505050506040513d601f19601f820116820180604052508101906109c49190613ed9565b60ff16905060006109d682600a613ff9565b9050600084600f0b1215610a2c5760405162461bcd60e51b815260206004820152601b60248201527f416d6f756e74206d757374206265206e6f6e2d6e6567617469766500000000006044820152606401610581565b60006105c2858361233a565b60006001548210610a835760405162461bcd60e51b8152602060048201526015602482015274092dcecc2d8d2c840deeae8c6dedaca40d2dcc8caf605b1b6044820152606401610581565b6000610a9e6106cd6002858154811061069f5761069f614018565b90506000805b600154811015610ad557610acb826106d26106cd6002858154811061069f5761069f614018565b9150600101610aa4565b5061064e8282612430565b610ae8612560565b6008546040516370a0823160e01b81523060048201526000916001600160a01b0316906370a0823190602401602060405180830381865afa158015610b31573d6000803e3d6000fd5b505050506040513d601f19601f82011682018060405250810190610b55919061402e565b600854600454919250600091610b77916001600160a01b031690600f0b61095f565b9050808211610bc85760405162461bcd60e51b815260206004820152601360248201527f4e6f206665657320746f207769746864726177000000000000000000000000006044820152606401610581565b6000610bd4828461407f565b9050610bfe610beb6000546001600160a01b031690565b6008546001600160a01b0316908361258d565b6000546001600160a01b03166001600160a01b03167fc0819c13be868895eb93e40eaceb96de976442fa1d404e5c55f14bb65a8c489a82604051610c4491815260200190565b60405180910390a2505050565b600081604051602001610c649190614092565b604051602081830303815290604052805190602001209050919050565b610c89612560565b600854610ca1906001600160a01b0316333084612606565b600854600090610cba906001600160a01b0316836105d0565b905060005b600154811015610d5757610d0860028281548110610cdf57610cdf614018565b90600052602060002090600291828204019190066010029054906101000a9004600f0b836124ea565b60028281548110610d1b57610d1b614018565b60009182526020909120600282040180546001600160801b0393841660106001948516026101000a908102940219169290921790915501610cbf565b50610d7a600460109054906101000a9004600f0b6106d2836106f5600154612645565b600480546001600160801b03908116600160801b9390911683021790819055600354610db49291829004600f90810b92909104900b6123b6565b600380546001600160801b0319166001600160801b0392909216919091179055610ddc610656565b600480546001600160801b0319166001600160801b039290921691909117905560405182815233907fc17cea59c2955cb181b03393209566960365771dbba9dc3d510180e7cb3120889060200160405180910390a25050565b6000610e4483610317846140c1565b600454610e549190600f0b6140e7565b9392505050565b6008546040516370a0823160e01b815230600482015260009182916001600160a01b03909116906370a0823190602401602060405180830381865afa158015610ea8573d6000803e3d6000fd5b505050506040513d601f19601f82011682018060405250810190610ecc919061402e565b600854600454919250600091610eee916001600160a01b031690600f0b61095f565b905080821115610f0957610f02818361407f565b9250505090565b60009250505090565b610f1a612560565b610f246000612663565b565b600080600060028054905067ffffffffffffffff811115610f4957610f49613b6e565b604051908082528060200260200182016040528015610f72578160200160208202803683370190505b50600454909150600160801b9004600f0b60005b600154811015611076576001811b87161561101157610fda60028281548110610fb157610fb1614018565b90600052602060002090600291828204019190066010029054906101000a9004600f0b876124ea565b838281518110610fec57610fec614018565b6020026020010190600f0b9081600f0b8152505061100a82876124ea565b915061106e565b6002818154811061102457611024614018565b90600052602060002090600291828204019190066010029054906101000a9004600f0b83828151811061105957611059614018565b6020026020010190600f0b9081600f0b815250505b600101610f86565b50600354600090611092908390600160801b9004600f0b6123b6565b905060005b6001548110156110d5576110cb856106d26106cd8785815181106110bd576110bd614018565b602002602001015186612430565b9450600101611097565b506110e3816106f586612526565b979650505050505050565b60606000600180546001901b611104919061407f565b90506001831b81186000611117826126cb565b611122906001614005565b67ffffffffffffffff81111561113a5761113a613b6e565b604051908082528060200260200182016040528015611163578160200160208202803683370190505b509050600060019050856001901b8260008151811061118457611184614018565b60200260200101818152505060005b6001548110156111e0576001811b8416156111d857806001901b8383815181106111bf576111bf614018565b6020908102919091010152816111d48161411d565b9250505b600101611193565b509095945050505050565b600080836001600160a01b031663313ce5676040518163ffffffff1660e01b8152600401602060405180830381865afa15801561122c573d6000803e3d6000fd5b505050506040513d601f19601f820116820180604052508101906112509190613ed9565b60ff169050600061126282600a613ff9565b9050600084600f0b12156112b85760405162461bcd60e51b815260206004820152601b60248201527f416d6f756e74206d757374206265206e6f6e2d6e6567617469766500000000006044820152606401610581565b6105c5848261233a565b6112ca612560565b600854600160a01b900460ff16156113245760405162461bcd60e51b815260206004820152600c60248201527f416c726561647920696e697400000000000000000000000000000000000000006044820152606401610581565b600081116113745760405162461bcd60e51b815260206004820152601760248201527f43616e6e6f7420686176652030206f766572726f756e640000000000000000006044820152606401610581565b60075460405163365bb9d560e21b81526001600160a01b03878116600483015260248201879052604482018690529091169063d96ee75490606401600060405180830381600087803b1580156113c957600080fd5b505af11580156113dd573d6000803e3d6000fd5b5050600754604051634296357160e11b81526001600160a01b0389811660048301526024820189905260448201889052909116925063852c6ae29150606401602060405180830381865afa158015611439573d6000803e3d6000fd5b505050506040513d601f19601f8201168201806040525081019061145d919061402e565b600655600854611478906001600160a01b0316333085612606565b6001839055600061148884612645565b6008549091506114a1906001600160a01b0316846105d0565b600580546001600160801b0319166001600160801b03929092169190911790556114cd826127106123f6565b600580546001600160801b03908116600160801b9390911683021790819055611507919004600f0b611502836106f581612526565b612430565b600380546001600160801b03928316600160801b02921691909117905560055461154a9061153890600f0b836123b6565b600354600160801b9004600f0b6123b6565b600380546001600160801b0319166001600160801b039290921691909117905560005b848110156115dd57600554600280546001808201835560008390527f405787fa12a823e0f2b7631cc41b3ba8828b3321ca811111fa75cd3aa3bb5ace9282049290920180549183166010026101000a6001600160801b03818102199093169290941693909302179091550161156d565b50600880547fffffffffffffffffffffff00ffffffffffffffffffffffffffffffffffffffff16600160a01b17905560055461161c90600f0b826123b6565b600480546001600160801b03928316600160801b029216919091179055611641610656565b600480546001600160801b0319166001600160801b0392909216919091179055505050505050565b600854600090600160a01b900460ff16151560011461168757600080fd5b60015483106116d05760405162461bcd60e51b8152602060048201526015602482015274092dcecc2d8d2c840deeae8c6dedaca40d2dcc8caf605b1b6044820152606401610581565b600082600f0b136117235760405162461bcd60e51b815260206004820152601760248201527f416d6f756e74206d75737420626520706f7369746976650000000000000000006044820152606401610581565b60075460065460405163dd34de6760e01b81526001600160a01b039092169163dd34de67916117589160040190815260200190565b602060405180830381865afa158015611775573d6000803e3d6000fd5b505050506040513d601f19601f82011682018060405250810190611799919061402e565b156117e65760405162461bcd60e51b815260206004820152601760248201527f4d61726b657420616c7265616479207265736f6c7665640000000000000000006044820152606401610581565b81600f0b600284815481106117fd576117fd614018565b6000918252602090912060028204015460019091166010026101000a9004600f0b121561186c5760405162461bcd60e51b815260206004820152601960248201527f4e6f7420656e6f7567682073686172657320746f2073656c6c000000000000006044820152606401610581565b60008060008061191260028054806020026020016040519081016040528092919081815260200182805480156118e457602002820191906000526020600020906000905b825461010083900a9004600f0b81526020601f83018190049384019360010360109093019290920291018084116118b05790505b50506004546003546001548e95508d9450600160801b808404600f90810b95509204820b9290910b906126fa565b60085493975091955093509150600090611935906001600160a01b0316886111eb565b60075460085460065460405163856296f760e01b8152600060048201819052602482019290925260018d1b6044820152939450926001600160a01b03928316926339dd7530921690839063856296f790606401602060405180830381865afa1580156119a5573d6000803e3d6000fd5b505050506040513d601f19601f820116820180604052508101906119c9919061402e565b6040516001600160e01b031960e085901b1681526001600160a01b0390921660048301526024820152604401602060405180830381865afa158015611a12573d6000803e3d6000fd5b505050506040513d601f19601f82011682018060405250810190611a36919061402e565b600754604051637921219560e11b8152336004820152306024820152604481018390526064810185905260a06084820152600060a48201529192506001600160a01b03169063f242432a9060c401600060405180830381600087803b158015611a9e57600080fd5b505af1158015611ab2573d6000803e3d6000fd5b50506007546008546006546001600160a01b039283169450639e7212ad9350911690600090611ae08e6110ee565b876040518663ffffffff1660e01b8152600401611b01959493929190614136565b600060405180830381600087803b158015611b1b57600080fd5b505af1158015611b2f573d6000803e3d6000fd5b50505050611b7260028a81548110611b4957611b49614018565b90600052602060002090600291828204019190066010029054906101000a9004600f0b89612867565b60028a81548110611b8557611b85614018565b6000918252602082206002820401805460019092166010026101000a6001600160801b03818102199093169483160293909317909255600380546001600160801b031990811687851617909155600160801b878416021691881691909117600455600854611bfc906001600160a01b0316876111eb565b600854909150611c16906001600160a01b0316338361258d565b509398975050505050505050565b60006001548210611c6f5760405162461bcd60e51b8152602060048201526015602482015274092dcecc2d8d2c840deeae8c6dedaca40d2dcc8caf605b1b6044820152606401610581565b6105ca60028381548110611c8557611c85614018565b6000918252602090912060028204015460055460019092166010026101000a9004600f90810b91900b612867565b600454600090600f0b611cc68484610f26565b610e5491906140e7565b6008546040516370a0823160e01b815230600482015260009182916001600160a01b03909116906370a0823190602401602060405180830381865afa158015611d1d573d6000803e3d6000fd5b505050506040513d601f19601f82011682018060405250810190611d41919061402e565b600854600454919350611d62916001600160a01b0390911690600f0b61095f565b90509091565b611d70612560565b6001600160a01b038116611d9a57604051631e4fbdf760e01b815260006004820152602401610581565b61095c81612663565b600854600090600160a01b900460ff161515600114611dc157600080fd5b6001548310611e0a5760405162461bcd60e51b8152602060048201526015602482015274092dcecc2d8d2c840deeae8c6dedaca40d2dcc8caf605b1b6044820152606401610581565b600082600f0b13611e5d5760405162461bcd60e51b815260206004820152601760248201527f416d6f756e74206d75737420626520706f7369746976650000000000000000006044820152606401610581565b60075460065460405163dd34de6760e01b81526001600160a01b039092169163dd34de6791611e929160040190815260200190565b602060405180830381865afa158015611eaf573d6000803e3d6000fd5b505050506040513d601f19601f82011682018060405250810190611ed3919061402e565b15611f205760405162461bcd60e51b815260206004820152601760248201527f4d61726b657420616c7265616479207265736f6c7665640000000000000000006044820152606401610581565b600080600080611fc66002805480602002602001604051908101604052809291908181526020018280548015611f9857602002820191906000526020600020906000905b825461010083900a9004600f0b81526020601f8301819004938401936001036010909301929092029101808411611f645790505b50506004546003546001548e95508d9450600160801b808404600f90810b95509204820b9290910b906128a3565b93509350935093506000611fef611fdd6001612645565b600554600160801b9004600f0b6124ea565b90506000611ffd85836123b6565b600854909150600090612019906001600160a01b0316836104b8565b60408051828152600f85900b60208201529192507fbd58a27f98d614697f8a2d66c4c15779b5c06324bdc1f23994d9e5f93a537a4d910160405180910390a16008546040516370a0823160e01b81523060048201526000916001600160a01b0316906370a0823190602401602060405180830381865afa1580156120a1573d6000803e3d6000fd5b505050506040513d601f19601f820116820180604052508101906120c5919061402e565b90507f5399a3798e256ef861ea157d94c1f65d252a2f7e8e3a39020217ddbcba1f00aa816040516120f891815260200190565b60405180910390a16008546040516323b872dd60e01b8152336004820152306024820152604481018490526001600160a01b03909116906323b872dd906064016020604051808303816000875af1158015612157573d6000803e3d6000fd5b505050506040513d601f19601f8201168201806040525081019061217b9190614176565b6121c75760405162461bcd60e51b815260206004820152601960248201527f4572726f72207472616e7366657272696e6720746f6b656e73000000000000006044820152606401610581565b6008546040516370a0823160e01b81523060048201526000916001600160a01b0316906370a0823190602401602060405180830381865afa158015612210573d6000803e3d6000fd5b505050506040513d601f19601f82011682018060405250810190612234919061402e565b90507fb2813f3b9bdb2145860dd676eaf75e91f6fb2c4f19a01c1c9183a4fb41c066688160405161226791815260200190565b60405180910390a16122ae60028d8154811061228557612285614018565b90600052602060002090600291828204019190066010029054906101000a9004600f0b8c6124ea565b60028d815481106122c1576122c1614018565b600091825260209091206002820401805460019092166010026101000a6001600160801b03818102199093169383160292909217909155600380546001600160801b031990811689841617909155600160801b8983160216908a161760045561232a8c8c6129f0565b50919a9950505050505050505050565b60008160000361234c575060006105ca565b600083600f0b121561235d57600080fd5b600f83900b6001600160801b038316810260401c90608084901c0277ffffffffffffffffffffffffffffffffffffffffffffffff81111561239d57600080fd5b60401b81198111156123ae57600080fd5b019392505050565b6000600f83810b9083900b0260401d6f7fffffffffffffffffffffffffffffff1981128015906123ed575060016001607f1b038113155b610e5457600080fd5b60008160000361240557600080fd5b60006124118484612d1b565b905060016001607f1b036001600160801b0382161115610e5457600080fd5b600081600f0b60000361244257600080fd5b600082600f0b604085600f0b901b8161245d5761245d614198565b0590506f7fffffffffffffffffffffffffffffff1981128015906123ed575060016001607f1b03811315610e5457600080fd5b60006840000000000000000082600f0b126124aa57600080fd5b683fffffffffffffffff1982600f0b12156124c757506000919050565b6105ca608083600f0b700171547652b82fe1777d0ffda0d23a7d1202901d612e91565b6000600f83810b9083900b016f7fffffffffffffffffffffffffffffff1981128015906123ed575060016001607f1b03811315610e5457600080fd5b60008082600f0b1361253757600080fd5b60806125428361395b565b600f0b6fb17217f7d1cf79abc9e3b39803f2f6af02901c9050919050565b6000546001600160a01b03163314610f245760405163118cdaa760e01b8152336004820152602401610581565b6040516001600160a01b0383811660248301526044820183905261260191859182169063a9059cbb906064015b604051602081830303815290604052915060e01b6020820180517bffffffffffffffffffffffffffffffffffffffffffffffffffffffff8381831617835250505050613a34565b505050565b6040516001600160a01b03848116602483015283811660448301526064820183905261263f9186918216906323b872dd906084016125ba565b50505050565b6000677fffffffffffffff82111561265c57600080fd5b5060401b90565b600080546001600160a01b038381167fffffffffffffffffffffffff0000000000000000000000000000000000000000831681178455604051919092169283917f8be0079c531659141344cd1fd0a4f28419497f9722a3daafe3b4186f6b6457e09190a35050565b60005b81156126f5576126df60018361407f565b90911690806126ed8161411d565b9150506126ce565b919050565b60008060008060008567ffffffffffffffff81111561271b5761271b613b6e565b604051908082528060200260200182016040528015612744578160200160208202803683370190505b50905060005b86811015612799578c818151811061276457612764614018565b602002602001015182828151811061277e5761277e614018565b600f9290920b6020928302919091019091015260010161274a565b506127bd818c815181106127af576127af614018565b60200260200101518b612867565b818c815181106127cf576127cf614018565b6020026020010190600f0b9081600f0b815250506127ed898b612867565b92506127f983896123b6565b91506000805b8781101561283b57612831826106d26106cd86858151811061282357612823614018565b602002602001015188612430565b91506001016127ff565b50612849836106f583612526565b95506128558887612867565b94505050975097509750979350505050565b6000600f82810b9084900b036f7fffffffffffffffffffffffffffffff1981128015906123ed575060016001607f1b03811315610e5457600080fd5b60008060008060008567ffffffffffffffff8111156128c4576128c4613b6e565b6040519080825280602002602001820160405280156128ed578160200160208202803683370190505b50905060005b86811015612942578c818151811061290d5761290d614018565b602002602001015182828151811061292757612927614018565b600f9290920b602092830291909101909101526001016128f3565b50612966818c8151811061295857612958614018565b60200260200101518b6124ea565b818c8151811061297857612978614018565b6020026020010190600f0b9081600f0b81525050612996898b6124ea565b92506129a283896123b6565b91506000805b878110156129d6576129cc826106d26106cd86858151811061282357612823614018565b91506001016129a8565b506129e4836106f583612526565b95506128558689612867565b600854600090612a09906001600160a01b0316836104b8565b60075460085460065460405163856296f760e01b815260006004820181905260248201929092526001881b6044820152939450926001600160a01b03928316926339dd7530921690839063856296f790606401602060405180830381865afa158015612a79573d6000803e3d6000fd5b505050506040513d601f19601f82011682018060405250810190612a9d919061402e565b6040516001600160e01b031960e085901b1681526001600160a01b0390921660048301526024820152604401602060405180830381865afa158015612ae6573d6000803e3d6000fd5b505050506040513d601f19601f82011682018060405250810190612b0a919061402e565b600754604051627eeac760e11b81523060048201526024810183905291925083916001600160a01b039091169062fdd58e90604401602060405180830381865afa158015612b5c573d6000803e3d6000fd5b505050506040513d601f19601f82011682018060405250810190612b80919061402e565b1015612c96576008546007546001600160a01b039182169163095ea7b39116612ba983876104b8565b6040516001600160e01b031960e085901b1681526001600160a01b03909216600483015260248201526044016020604051808303816000875af1158015612bf4573d6000803e3d6000fd5b505050506040513d601f19601f82011682018060405250810190612c189190614176565b506007546008546006546001600160a01b03928316926372ce4275921690600090612c42896110ee565b876040518663ffffffff1660e01b8152600401612c63959493929190614136565b600060405180830381600087803b158015612c7d57600080fd5b505af1158015612c91573d6000803e3d6000fd5b505050505b600754604051637921219560e11b8152306004820152336024820152604481018390526064810184905260a06084820152600060a48201526001600160a01b039091169063f242432a9060c401600060405180830381600087803b158015612cfd57600080fd5b505af1158015612d11573d6000803e3d6000fd5b5050505050505050565b600081600003612d2a57600080fd5b600077ffffffffffffffffffffffffffffffffffffffffffffffff8411612d665782604085901b81612d5e57612d5e614198565b049050612e7d565b60c084811c6401000000008110612d7f576020918201911c5b620100008110612d91576010918201911c5b6101008110612da2576008918201911c5b60108110612db2576004918201911c5b60048110612dc2576002918201911c5b60028110612dd1576001820191505b60bf820360018603901c6001018260ff0387901b81612df257612df2614198565b0492506001600160801b03831115612e0957600080fd5b608085901c83026001600160801b038616840260c088901c604089901b82811015612e35576001820391505b608084901b92900382811015612e4c576001820391505b829003608084901c8214612e61576001612e72565b888181612e7057612e70614198565b045b870196505050505050505b6001600160801b03811115610e5457600080fd5b60006840000000000000000082600f0b12612eab57600080fd5b683fffffffffffffffff1982600f0b1215612ec857506000919050565b6f8000000000000000000000000000000060006780000000000000008416600f0b1315612f065770016a09e667f3bcc908b2fb1366ea957d3e0260801c5b60008367400000000000000016600f0b1315612f33577001306fe0a31b7152de8d5a46305c85edec0260801c5b60008367200000000000000016600f0b1315612f60577001172b83c7d517adcdf7c8c50eb14a791f0260801c5b60008367100000000000000016600f0b1315612f8d5770010b5586cf9890f6298b92b71842a983630260801c5b60008367080000000000000016600f0b1315612fba577001059b0d31585743ae7c548eb68ca417fd0260801c5b60008367040000000000000016600f0b1315612fe757700102c9a3e778060ee6f7caca4f7a29bde80260801c5b60008367020000000000000016600f0b13156130145770010163da9fb33356d84a66ae336dcdfa3f0260801c5b60008367010000000000000016600f0b131561304157700100b1afa5abcbed6129ab13ec11dc95430260801c5b600083668000000000000016600f0b131561306d5770010058c86da1c09ea1ff19d294cf2f679b0260801c5b600083664000000000000016600f0b1315613099577001002c605e2e8cec506d21bfc89a23a00f0260801c5b600083662000000000000016600f0b13156130c557700100162f3904051fa128bca9c55c31e5df0260801c5b600083661000000000000016600f0b13156130f1577001000b175effdc76ba38e31671ca9397250260801c5b600083660800000000000016600f0b131561311d57700100058ba01fb9f96d6cacd4b180917c3d0260801c5b600083660400000000000016600f0b13156131495770010002c5cc37da9491d0985c348c68e7b30260801c5b600083660200000000000016600f0b1315613175577001000162e525ee054754457d59952920260260801c5b600083660100000000000016600f0b13156131a15770010000b17255775c040618bf4a4ade83fc0260801c5b6000836580000000000016600f0b13156131cc577001000058b91b5bc9ae2eed81e9b7d4cfab0260801c5b6000836540000000000016600f0b13156131f757700100002c5c89d5ec6ca4d7c8acc017b7c90260801c5b6000836520000000000016600f0b13156132225770010000162e43f4f831060e02d839a9d16d0260801c5b6000836510000000000016600f0b131561324d57700100000b1721bcfc99d9f890ea069117630260801c5b6000836508000000000016600f0b13156132785770010000058b90cf1e6d97f9ca14dbcc16280260801c5b6000836504000000000016600f0b13156132a3577001000002c5c863b73f016468f6bac5ca2b0260801c5b6000836502000000000016600f0b13156132ce57700100000162e430e5a18f6119e3c02282a50260801c5b6000836501000000000016600f0b13156132f9577001000000b1721835514b86e6d96efd1bfe0260801c5b60008364800000000016600f0b131561332357700100000058b90c0b48c6be5df846c5b2ef0260801c5b60008364400000000016600f0b131561334d5770010000002c5c8601cc6b9e94213c72737a0260801c5b60008364200000000016600f0b1315613377577001000000162e42fff037df38aa2b219f060260801c5b60008364100000000016600f0b13156133a15770010000000b17217fba9c739aa5819f44f90260801c5b60008364080000000016600f0b13156133cb577001000000058b90bfcdee5acd3c1cedc8230260801c5b60008364040000000016600f0b13156133f557700100000002c5c85fe31f35a6a30da1be500260801c5b60008364020000000016600f0b131561341f5770010000000162e42ff0999ce3541b9fffcf0260801c5b60008364010000000016600f0b131561344957700100000000b17217f80f4ef5aadda455540260801c5b600083638000000016600f0b13156134725770010000000058b90bfbf8479bd5a81b51ad0260801c5b600083634000000016600f0b131561349b577001000000002c5c85fdf84bd62ae30a74cc0260801c5b600083632000000016600f0b13156134c457700100000000162e42fefb2fed257559bdaa0260801c5b600083631000000016600f0b13156134ed577001000000000b17217f7d5a7716bba4a9ae0260801c5b600083630800000016600f0b131561351657700100000000058b90bfbe9ddbac5e109cce0260801c5b600083630400000016600f0b131561353f5770010000000002c5c85fdf4b15de6f17eb0d0260801c5b600083630200000016600f0b1315613568577001000000000162e42fefa494f1478fde050260801c5b600083630100000016600f0b13156135915770010000000000b17217f7d20cf927c8e94c0260801c5b6000836280000016600f0b13156135b9577001000000000058b90bfbe8f71cb4e4b33d0260801c5b6000836240000016600f0b13156135e157700100000000002c5c85fdf477b662b269450260801c5b6000836220000016600f0b13156136095770010000000000162e42fefa3ae53369388c0260801c5b6000836210000016600f0b131561363157700100000000000b17217f7d1d351a389d400260801c5b6000836208000016600f0b13156136595770010000000000058b90bfbe8e8b2d3d4ede0260801c5b6000836204000016600f0b1315613681577001000000000002c5c85fdf4741bea6e77e0260801c5b6000836202000016600f0b13156136a957700100000000000162e42fefa39fe95583c20260801c5b6000836201000016600f0b13156136d1577001000000000000b17217f7d1cfb72b45e10260801c5b60008361800016600f0b13156136f857700100000000000058b90bfbe8e7cc35c3f00260801c5b60008361400016600f0b131561371f5770010000000000002c5c85fdf473e242ea380260801c5b60008361200016600f0b1315613746577001000000000000162e42fefa39f02b772c0260801c5b60008361100016600f0b131561376d5770010000000000000b17217f7d1cf7d83c1a0260801c5b60008361080016600f0b1315613794577001000000000000058b90bfbe8e7bdcbe2e0260801c5b60008361040016600f0b13156137bb57700100000000000002c5c85fdf473dea871f0260801c5b60008361020016600f0b13156137e25770010000000000000162e42fefa39ef44d910260801c5b60008361010016600f0b131561380957700100000000000000b17217f7d1cf79e9490260801c5b600083608016600f0b131561382f5770010000000000000058b90bfbe8e7bce5440260801c5b600083604016600f0b1315613855577001000000000000002c5c85fdf473de6eca0260801c5b600083602016600f0b131561387b57700100000000000000162e42fefa39ef366f0260801c5b600083601016600f0b13156138a1577001000000000000000b17217f7d1cf79afa0260801c5b600083600816600f0b13156138c757700100000000000000058b90bfbe8e7bcd6d0260801c5b600083600416600f0b13156138ed5770010000000000000002c5c85fdf473de6b20260801c5b600083600216600f0b1315613913577001000000000000000162e42fefa39ef3580260801c5b600083600116600f0b13156139395770010000000000000000b17217f7d1cf79ab0260801c5b600f83810b60401d603f03900b1c60016001607f1b038111156105ca57600080fd5b60008082600f0b1361396c57600080fd5b6000600f83900b68010000000000000000811261398b576040918201911d5b640100000000811261399f576020918201911d5b6201000081126139b1576010918201911d5b61010081126139c2576008918201911d5b601081126139d2576004918201911d5b600481126139e2576002918201911d5b600281126139f1576001820191505b603f19820160401b600f85900b607f8490031b6780000000000000005b60008113156111e05790800260ff81901c8281029390930192607f011c9060011d613a0e565b600080602060008451602086016000885af180613a57576040513d6000823e3d81fd5b50506000513d91508115613a6f578060011415613a7c565b6001600160a01b0384163b155b1561263f57604051635274afe760e01b81526001600160a01b0385166004820152602401610581565b600060208284031215613ab757600080fd5b81356001600160e01b031981168114610e5457600080fd5b80356001600160a01b03811681146126f557600080fd5b8035600f81900b81146126f557600080fd5b60008060408385031215613b0b57600080fd5b613b1483613acf565b9150613b2260208401613ae6565b90509250929050565b60008060408385031215613b3e57600080fd5b613b4783613acf565b946020939093013593505050565b600060208284031215613b6757600080fd5b5035919050565b634e487b7160e01b600052604160045260246000fd5b600060208284031215613b9657600080fd5b813567ffffffffffffffff811115613bad57600080fd5b8201601f81018413613bbe57600080fd5b803567ffffffffffffffff811115613bd857613bd8613b6e565b604051601f8201601f19908116603f0116810167ffffffffffffffff81118282101715613c0757613c07613b6e565b604052818152828201602001861015613c1f57600080fd5b81602084016020830137600091810160200191909152949350505050565b60008060408385031215613c5057600080fd5b82359150613b2260208401613ae6565b600081518084526020840193506020830160005b82811015613c92578151865260209586019590910190600101613c74565b5093949350505050565b602081526000610e546020830184613c60565b600080600080600060a08688031215613cc757600080fd5b613cd086613acf565b97602087013597506040870135966060810135965060800135945092505050565b60008083601f840112613d0357600080fd5b50813567ffffffffffffffff811115613d1b57600080fd5b6020830191508360208260051b8501011115613d3657600080fd5b9250929050565b60008083601f840112613d4f57600080fd5b50813567ffffffffffffffff811115613d6757600080fd5b602083019150836020828501011115613d3657600080fd5b60008060008060008060008060a0898b031215613d9b57600080fd5b613da489613acf565b9750613db260208a01613acf565b9650604089013567ffffffffffffffff811115613dce57600080fd5b613dda8b828c01613cf1565b909750955050606089013567ffffffffffffffff811115613dfa57600080fd5b613e068b828c01613cf1565b909550935050608089013567ffffffffffffffff811115613e2657600080fd5b613e328b828c01613d3d565b999c989b5096995094979396929594505050565b60008060008060008060a08789031215613e5f57600080fd5b613e6887613acf565b9550613e7660208801613acf565b94506040870135935060608701359250608087013567ffffffffffffffff811115613ea057600080fd5b613eac89828a01613d3d565b979a9699509497509295939492505050565b600060208284031215613ed057600080fd5b610e5482613acf565b600060208284031215613eeb57600080fd5b815160ff81168114610e5457600080fd5b634e487b7160e01b600052601160045260246000fd5b6001815b6001841115613f4d57808504811115613f3157613f31613efc565b6001841615613f3f57908102905b60019390931c928002613f16565b935093915050565b600082613f64575060016105ca565b81613f71575060006105ca565b8160018114613f875760028114613f9157613fad565b60019150506105ca565b60ff841115613fa257613fa2613efc565b50506001821b6105ca565b5060208310610133831016604e8410600b8410161715613fd0575081810a6105ca565b613fdd6000198484613f12565b8060001904821115613ff157613ff1613efc565b029392505050565b6000610e548383613f55565b808201808211156105ca576105ca613efc565b634e487b7160e01b600052603260045260246000fd5b60006020828403121561404057600080fd5b5051919050565b6001600160a01b03851681528360208201528260408201526080606082015260006140756080830184613c60565b9695505050505050565b818103818111156105ca576105ca613efc565b6000825160005b818110156140b35760208186018101518583015201614099565b506000920191825250919050565b600081600f0b60016001607f1b031981036140de576140de613efc565b60000392915050565b600f82810b9082900b036f7fffffffffffffffffffffffffffffff19811260016001607f1b03821317156105ca576105ca613efc565b60006001820161412f5761412f613efc565b5060010190565b6001600160a01b038616815284602082015283604082015260a06060820152600061416460a0830185613c60565b90508260808301529695505050505050565b60006020828403121561418857600080fd5b81518015158114610e5457600080fd5b634e487b7160e01b600052601260045260246000fdfea2646970667358221220841a77ace1b9e9a09f3154ec4209351cb425fe2e5a07ae8a5f1876dcdbaab01264736f6c634300081e0033",
  "linkReferences": {},
  "deployedLinkReferences": {}
}