{
  "_format": "hh-sol-artifact-1",
  "contractName": "ConditionalTokens",
  "sourceName": "contracts/ConditionalTokens.sol",
  "abi": [
    {
      "inputs": [],
      "stateMutability": "nonpayable",
      "type": "constructor"
    },
    {
      "inputs": [
        {
          "internalType": "address",
          "name": "sender",
          "type": "address"
        },
        {
          "internalType": "uint256",
          "name": "balance",
          "type": "uint256"
        },
        {
          "internalType": "uint256",
          "name": "needed",
          "type": "uint256"
        },
        {
          "internalType": "uint256",
          "name": "tokenId",
          "type": "uint256"
        }
      ],
      "name": "ERC1155InsufficientBalance",
      "type": "error"
    },
    {
      "inputs": [
        {
          "internalType": "address",
          "name": "approver",
          "type": "address"
        }
      ],
      "name": "ERC1155InvalidApprover",
      "type": "error"
    },
    {
      "inputs": [
        {
          "internalType": "uint256",
          "name": "idsLength",
          "type": "uint256"
        },
        {
          "internalType": "uint256",
          "name": "valuesLength",
          "type": "uint256"
        }
      ],
      "name": "ERC1155InvalidArrayLength",
      "type": "error"
    },
    {
      "inputs": [
        {
          "internalType": "address",
          "name": "operator",
          "type": "address"
        }
      ],
      "name": "ERC1155InvalidOperator",
      "type": "error"
    },
    {
      "inputs": [
        {
          "internalType": "address",
          "name": "receiver",
          "type": "address"
        }
      ],
      "name": "ERC1155InvalidReceiver",
      "type": "error"
    },
    {
      "inputs": [
        {
          "internalType": "address",
          "name": "sender",
          "type": "address"
        }
      ],
      "name": "ERC1155InvalidSender",
      "type": "error"
    },
    {
      "inputs": [
        {
          "internalType": "address",
          "name": "operator",
          "type": "address"
        },
        {
          "internalType": "address",
          "name": "owner",
          "type": "address"
        }
      ],
      "name": "ERC1155MissingApprovalForAll",
      "type": "error"
    },
    {
      "anonymous": false,
      "inputs": [
        {
          "indexed": true,
          "internalType": "address",
          "name": "account",
          "type": "address"
        },
        {
          "indexed": true,
          "internalType": "address",
          "name": "operator",
          "type": "address"
        },
        {
          "indexed": false,
          "internalType": "bool",
          "name": "approved",
          "type": "bool"
        }
      ],
      "name": "ApprovalForAll",
      "type": "event"
    },
    {
      "anonymous": false,
      "inputs": [
        {
          "indexed": true,
          "internalType": "bytes32",
          "name": "conditionId",
          "type": "bytes32"
        },
        {
          "indexed": true,
          "internalType": "address",
          "name": "oracle",
          "type": "address"
        },
        {
          "indexed": true,
          "internalType": "bytes32",
          "name": "questionId",
          "type": "bytes32"
        },
        {
          "indexed": false,
          "internalType": "uint256",
          "name": "outcomeSlotCount",
          "type": "uint256"
        }
      ],
      "name": "ConditionPreparation",
      "type": "event"
    },
    {
      "anonymous": false,
      "inputs": [
        {
          "indexed": true,
          "internalType": "bytes32",
          "name": "conditionId",
          "type": "bytes32"
        },
        {
          "indexed": true,
          "internalType": "address",
          "name": "oracle",
          "type": "address"
        },
        {
          "indexed": true,
          "internalType": "bytes32",
          "name": "questionId",
          "type": "bytes32"
        },
        {
          "indexed": false,
          "internalType": "uint256",
          "name": "outcomeSlotCount",
          "type": "uint256"
        },
        {
          "indexed": false,
          "internalType": "uint256[]",
          "name": "payoutNumerators",
          "type": "uint256[]"
        }
      ],
      "name": "ConditionResolution",
      "type": "event"
    },
    {
      "anonymous": false,
      "inputs": [
        {
          "indexed": true,
          "internalType": "address",
          "name": "redeemer",
          "type": "address"
        },
        {
          "indexed": true,
          "internalType": "contract IERC20",
          "name": "collateralToken",
          "type": "address"
        },
        {
          "indexed": true,
          "internalType": "bytes32",
          "name": "parentCollectionId",
          "type": "bytes32"
        },
        {
          "indexed": false,
          "internalType": "bytes32",
          "name": "conditionId",
          "type": "bytes32"
        },
        {
          "indexed": false,
          "internalType": "uint256[]",
          "name": "indexSets",
          "type": "uint256[]"
        },
        {
          "indexed": false,
          "internalType": "uint256",
          "name": "payout",
          "type": "uint256"
        }
      ],
      "name": "PayoutRedemption",
      "type": "event"
    },
    {
      "anonymous": false,
      "inputs": [
        {
          "indexed": true,
          "internalType": "address",
          "name": "stakeholder",
          "type": "address"
        },
        {
          "indexed": false,
          "internalType": "contract IERC20",
          "name": "collateralToken",
          "type": "address"
        },
        {
          "indexed": true,
          "internalType": "bytes32",
          "name": "parentCollectionId",
          "type": "bytes32"
        },
        {
          "indexed": true,
          "internalType": "bytes32",
          "name": "conditionId",
          "type": "bytes32"
        },
        {
          "indexed": false,
          "internalType": "uint256[]",
          "name": "partition",
          "type": "uint256[]"
        },
        {
          "indexed": false,
          "internalType": "uint256",
          "name": "amount",
          "type": "uint256"
        }
      ],
      "name": "PositionSplit",
      "type": "event"
    },
    {
      "anonymous": false,
      "inputs": [
        {
          "indexed": true,
          "internalType": "address",
          "name": "stakeholder",
          "type": "address"
        },
        {
          "indexed": false,
          "internalType": "contract IERC20",
          "name": "collateralToken",
          "type": "address"
        },
        {
          "indexed": true,
          "internalType": "bytes32",
          "name": "parentCollectionId",
          "type": "bytes32"
        },
        {
          "indexed": true,
          "internalType": "bytes32",
          "name": "conditionId",
          "type": "bytes32"
        },
        {
          "indexed": false,
          "internalType": "uint256[]",
          "name": "partition",
          "type": "uint256[]"
        },
        {
          "indexed": false,
          "internalType": "uint256",
          "name": "amount",
          "type": "uint256"
        }
      ],
      "name": "PositionsMerge",
      "type": "event"
    },
    {
      "anonymous": false,
      "inputs": [
        {
          "indexed": true,
          "internalType": "address",
          "name": "operator",
          "type": "address"
        },
        {
          "indexed": true,
          "internalType": "address",
          "name": "from",
          "type": "address"
        },
        {
          "indexed": true,
          "internalType": "address",
          "name": "to",
          "type": "address"
        },
        {
          "indexed": false,
          "internalType": "uint256[]",
          "name": "ids",
          "type": "uint256[]"
        },
        {
          "indexed": false,
          "internalType": "uint256[]",
          "name": "values",
          "type": "uint256[]"
        }
      ],
      "name": "TransferBatch",
      "type": "event"
    },
    {
      "anonymous": false,
      "inputs": [
        {
          "indexed": true,
          "internalType": "address",
          "name": "operator",
          "type": "address"
        },
        {
          "indexed": true,
          "internalType": "address",
          "name": "from",
          "type": "address"
        },
        {
          "indexed": true,
          "internalType": "address",
          "name": "to",
          "type": "address"
        },
        {
          "indexed": false,
          "internalType": "uint256",
          "name": "id",
          "type": "uint256"
        },
        {
          "indexed": false,
          "internalType": "uint256",
          "name": "value",
          "type": "uint256"
        }
      ],
      "name": "TransferSingle",
      "type": "event"
    },
    {
      "anonymous": false,
      "inputs": [
        {
          "indexed": false,
          "internalType": "string",
          "name": "value",
          "type": "string"
        },
        {
          "indexed": true,
          "internalType": "uint256",
          "name": "id",
          "type": "uint256"
        }
      ],
      "name": "URI",
      "type": "event"
    },
    {
      "inputs": [
        {
          "internalType": "address",
          "name": "account",
          "type": "address"
        },
        {
          "internalType": "uint256",
          "name": "id",
          "type": "uint256"
        }
      ],
      "name": "balanceOf",
      "outputs": [
        {
          "internalType": "uint256",
          "name": "",
          "type": "uint256"
        }
      ],
      "stateMutability": "view",
      "type": "function"
    },
    {
      "inputs": [
        {
          "internalType": "address[]",
          "name": "accounts",
          "type": "address[]"
        },
        {
          "internalType": "uint256[]",
          "name": "ids",
          "type": "uint256[]"
        }
      ],
      "name": "balanceOfBatch",
      "outputs": [
        {
          "internalType": "uint256[]",
          "name": "",
          "type": "uint256[]"
        }
      ],
      "stateMutability": "view",
      "type": "function"
    },
    {
      "inputs": [
        {
          "internalType": "bytes32",
          "name": "parentCollectionId",
          "type": "bytes32"
        },
        {
          "internalType": "bytes32",
          "name": "conditionId",
          "type": "bytes32"
        },
        {
          "internalType": "uint256",
          "name": "indexSet",
          "type": "uint256"
        }
      ],
      "name": "getCollectionId",
      "outputs": [
        {
          "internalType": "bytes32",
          "name": "",
          "type": "bytes32"
        }
      ],
      "stateMutability": "view",
      "type": "function"
    },
    {
      "inputs": [
        {
          "internalType": "address",
          "name": "oracle",
          "type": "address"
        },
        {
          "internalType": "bytes32",
          "name": "questionId",
          "type": "bytes32"
        },
        {
          "internalType": "uint256",
          "name": "outcomeSlotCount",
          "type": "uint256"
        }
      ],
      "name": "getConditionId",
      "outputs": [
        {
          "internalType": "bytes32",
          "name": "",
          "type": "bytes32"
        }
      ],
      "stateMutability": "pure",
      "type": "function"
    },
    {
      "inputs": [
        {
          "internalType": "bytes32",
          "name": "conditionId",
          "type": "bytes32"
        }
      ],
      "name": "getOutcomeSlotCount",
      "outputs": [
        {
          "internalType": "uint256",
          "name": "",
          "type": "uint256"
        }
      ],
      "stateMutability": "view",
      "type": "function"
    },
    {
      "inputs": [
        {
          "internalType": "contract IERC20",
          "name": "collateralToken",
          "type": "address"
        },
        {
          "internalType": "bytes32",
          "name": "collectionId",
          "type": "bytes32"
        }
      ],
      "name": "getPositionId",
      "outputs": [
        {
          "internalType": "uint256",
          "name": "",
          "type": "uint256"
        }
      ],
      "stateMutability": "pure",
      "type": "function"
    },
    {
      "inputs": [
        {
          "internalType": "address",
          "name": "account",
          "type": "address"
        },
        {
          "internalType": "address",
          "name": "operator",
          "type": "address"
        }
      ],
      "name": "isApprovedForAll",
      "outputs": [
        {
          "internalType": "bool",
          "name": "",
          "type": "bool"
        }
      ],
      "stateMutability": "view",
      "type": "function"
    },
    {
      "inputs": [
        {
          "internalType": "contract IERC20",
          "name": "collateralToken",
          "type": "address"
        },
        {
          "internalType": "bytes32",
          "name": "parentCollectionId",
          "type": "bytes32"
        },
        {
          "internalType": "bytes32",
          "name": "conditionId",
          "type": "bytes32"
        },
        {
          "internalType": "uint256[]",
          "name": "partition",
          "type": "uint256[]"
        },
        {
          "internalType": "uint256",
          "name": "amount",
          "type": "uint256"
        }
      ],
      "name": "mergePositions",
      "outputs": [],
      "stateMutability": "nonpayable",
      "type": "function"
    },
    {
      "inputs": [
        {
          "internalType": "bytes32",
          "name": "",
          "type": "bytes32"
        }
      ],
      "name": "payoutDenominator",
      "outputs": [
        {
          "internalType": "uint256",
          "name": "",
          "type": "uint256"
        }
      ],
      "stateMutability": "view",
      "type": "function"
    },
    {
      "inputs": [
        {
          "internalType": "bytes32",
          "name": "",
          "type": "bytes32"
        },
        {
          "internalType": "uint256",
          "name": "",
          "type": "uint256"
        }
      ],
      "name": "payoutNumerators",
      "outputs": [
        {
          "internalType": "uint256",
          "name": "",
          "type": "uint256"
        }
      ],
      "stateMutability": "view",
      "type": "function"
    },
    {
      "inputs": [
        {
          "internalType": "address",
          "name": "oracle",
          "type": "address"
        },
        {
          "internalType": "bytes32",
          "name": "questionId",
          "type": "bytes32"
        },
        {
          "internalType": "uint256",
          "name": "outcomeSlotCount",
          "type": "uint256"
        }
      ],
      "name": "prepareCondition",
      "outputs": [],
      "stateMutability": "nonpayable",
      "type": "function"
    },
    {
      "inputs": [
        {
          "internalType": "contract IERC20",
          "name": "collateralToken",
          "type": "address"
        },
        {
          "internalType": "bytes32",
          "name": "parentCollectionId",
          "type": "bytes32"
        },
        {
          "internalType": "bytes32",
          "name": "conditionId",
          "type": "bytes32"
        },
        {
          "internalType": "uint256[]",
          "name": "indexSets",
          "type": "uint256[]"
        }
      ],
      "name": "redeemPositions",
      "outputs": [],
      "stateMutability": "nonpayable",
      "type": "function"
    },
    {
      "inputs": [
        {
          "internalType": "bytes32",
          "name": "questionId",
          "type": "bytes32"
        },
        {
          "internalType": "uint256[]",
          "name": "payouts",
          "type": "uint256[]"
        }
      ],
      "name": "reportPayouts",
      "outputs": [],
      "stateMutability": "nonpayable",
      "type": "function"
    },
    {
      "inputs": [
        {
          "internalType": "address",
          "name": "from",
          "type": "address"
        },
        {
          "internalType": "address",
          "name": "to",
          "type": "address"
        },
        {
          "internalType": "uint256[]",
          "name": "ids",
          "type": "uint256[]"
        },
        {
          "internalType": "uint256[]",
          "name": "values",
          "type": "uint256[]"
        },
        {
          "internalType": "bytes",
          "name": "data",
          "type": "bytes"
        }
      ],
      "name": "safeBatchTransferFrom",
      "outputs": [],
      "stateMutability": "nonpayable",
      "type": "function"
    },
    {
      "inputs": [
        {
          "internalType": "address",
          "name": "from",
          "type": "address"
        },
        {
          "internalType": "address",
          "name": "to",
          "type": "address"
        },
        {
          "internalType": "uint256",
          "name": "id",
          "type": "uint256"
        },
        {
          "internalType": "uint256",
          "name": "value",
          "type": "uint256"
        },
        {
          "internalType": "bytes",
          "name": "data",
          "type": "bytes"
        }
      ],
      "name": "safeTransferFrom",
      "outputs": [],
      "stateMutability": "nonpayable",
      "type": "function"
    },
    {
      "inputs": [
        {
          "internalType": "address",
          "name": "operator",
          "type": "address"
        },
        {
          "internalType": "bool",
          "name": "approved",
          "type": "bool"
        }
      ],
      "name": "setApprovalForAll",
      "outputs": [],
      "stateMutability": "nonpayable",
      "type": "function"
    },
    {
      "inputs": [
        {
          "internalType": "contract IERC20",
          "name": "collateralToken",
          "type": "address"
        },
        {
          "internalType": "bytes32",
          "name": "parentCollectionId",
          "type": "bytes32"
        },
        {
          "internalType": "bytes32",
          "name": "conditionId",
          "type": "bytes32"
        },
        {
          "internalType": "uint256[]",
          "name": "partition",
          "type": "uint256[]"
        },
        {
          "internalType": "uint256",
          "name": "amount",
          "type": "uint256"
        }
      ],
      "name": "splitPosition",
      "outputs": [],
      "stateMutability": "nonpayable",
      "type": "function"
    },
    {
      "inputs": [
        {
          "internalType": "bytes4",
          "name": "interfaceId",
          "type": "bytes4"
        }
      ],
      "name": "supportsInterface",
      "outputs": [
        {
          "internalType": "bool",
          "name": "",
          "type": "bool"
        }
      ],
      "stateMutability": "view",
      "type": "function"
    },
    {
      "inputs": [
        {
          "internalType": "uint256",
          "name": "",
          "type": "uint256"
        }
      ],
      "name": "uri",
      "outputs": [
        {
          "internalType": "string",
          "name": "",
          "type": "string"
        }
      ],
      "stateMutability": "view",
      "type": "function"
    }
  ],
  "bytecode": "0x608060405234801561001057600080fd5b506040805160208101909152600081526100298161002f565b5061019c565b600261003b82826100de565b5050565b634e487b7160e01b600052604160045260246000fd5b600181811c9082168061006957607f821691505b60208210810361008957634e487b7160e01b600052602260045260246000fd5b50919050565b601f8211156100d957806000526020600020601f840160051c810160208510156100b65750805b601f840160051c820191505b818110156100d657600081556001016100c2565b50505b505050565b81516001600160401b038111156100f7576100f761003f565b61010b816101058454610055565b8461008f565b6020601f82116001811461013f57600083156101275750848201515b600019600385901b1c1916600184901b1784556100d6565b600084815260208120601f198516915b8281101561016f578785015182556020948501946001909201910161014f565b508482101561018d5786840151600019600387901b60f8161c191681555b50505050600190811b01905550565b613542806101ab6000396000f3fe608060405234801561001057600080fd5b50600436106101505760003560e01c8063852c6ae2116100cd578063d42dc0c211610081578063dd34de6711610066578063dd34de67146102d1578063e985e9c5146102f1578063f242432a1461032d57600080fd5b8063d42dc0c21461029e578063d96ee754146102be57600080fd5b80639e7212ad116100b25780639e7212ad14610265578063a22cb46514610278578063c49298ac1461028b57600080fd5b8063852c6ae21461023f578063856296f71461025257600080fd5b80630e89341c1161012457806339dd75301161010957806339dd7530146101f95780634e1273f41461020c57806372ce42751461022c57600080fd5b80630e89341c146101c65780632eb2c2d6146101e657600080fd5b8062fdd58e1461015557806301b7037c1461017b57806301ffc9a7146101905780630504c814146101b3575b600080fd5b610168610163366004612b0b565b610340565b6040519081526020015b60405180910390f35b61018e610189366004612b83565b610368565b005b6101a361019e366004612c03565b610790565b6040519015158152602001610172565b6101686101c1366004612c20565b6107e0565b6101d96101d4366004612c42565b610811565b6040516101729190612cab565b61018e6101f4366004612e06565b6108a5565b610168610207366004612b0b565b61092b565b61021f61021a366004612ec0565b610976565b6040516101729190612fc7565b61018e61023a366004612fda565b610a43565b61016861024d36600461304c565b610e70565b610168610260366004613081565b610ec3565b61018e610273366004612fda565b610ed0565b61018e6102863660046130bb565b6112d6565b61018e6102993660046130f4565b6112e5565b6101686102ac366004612c42565b60009081526004602052604090205490565b61018e6102cc36600461304c565b6115e8565b6101686102df366004612c42565b60036020526000908152604090205481565b6101a36102ff366004613140565b6001600160a01b03918216600090815260016020908152604080832093909416825291909152205460ff1690565b61018e61033b36600461316e565b6117f4565b6000818152602081815260408083206001600160a01b03861684529091529020545b92915050565b600083815260036020526040902054806103ef5760405162461bcd60e51b815260206004820152602560248201527f726573756c7420666f7220636f6e646974696f6e206e6f74207265636569766560448201527f642079657400000000000000000000000000000000000000000000000000000060648201526084015b60405180910390fd5b6000848152600460205260409020548061044b5760405162461bcd60e51b815260206004820152601a60248201527f636f6e646974696f6e206e6f742070726570617265642079657400000000000060448201526064016103e6565b60008061045b600180851b6131e1565b905060005b858110156105e357600087878381811061047c5761047c6131f4565b90506020020135905060008111801561049457508281105b6104e05760405162461bcd60e51b815260206004820152601760248201527f676f7420696e76616c696420696e64657820736574203300000000000000000060448201526064016103e6565b60006105398c6104f18d8d86611872565b6040516bffffffffffffffffffffffff19606084901b1660208201526034810182905260009060540160408051601f1981840301815291905280516020909101209392505050565b90506000805b87811015610593576001811b84161561058b5760008c8152600460205260409020805482908110610572576105726131f4565b906000526020600020015482610588919061320a565b91505b60010161053f565b5060006105a03384610340565b905080156105d3576105b28983613233565b6105bc9082613247565b6105c6908861320a565b96506105d3338483611ba1565b5050600190920191506104609050565b50811561073357876106d75760405163a9059cbb60e01b8152336004820152602481018390526001600160a01b038a169063a9059cbb906044016020604051808303816000875af115801561063c573d6000803e3d6000fd5b505050506040513d601f19601f82011682018060405250810190610660919061325e565b6106d25760405162461bcd60e51b815260206004820152602b60248201527f636f756c64206e6f74207472616e73666572207061796f757420746f206d657360448201527f736167652073656e64657200000000000000000000000000000000000000000060648201526084016103e6565b610733565b6040805160608b901b6bffffffffffffffffffffffff191660208083019190915260348083018c905283518084039091018152605490920190925280519101206107339033908460405180602001604052806000815250611c10565b87896001600160a01b0316336001600160a01b03167f2682012a4a4f1973119f1c9b90745d1bd91fa2bab387344f044cb3586864d18d8a8a8a8860405161077d94939291906132c6565b60405180910390a4505050505050505050565b60006001600160e01b03198216636cdb3d1360e11b14806107c157506001600160e01b031982166303a24d0760e21b145b8061036257506301ffc9a760e01b6001600160e01b0319831614610362565b600460205281600052604060002081815481106107fc57600080fd5b90600052602060002001600091509150505481565b606060028054610820906132f1565b80601f016020809104026020016040519081016040528092919081815260200182805461084c906132f1565b80156108995780601f1061086e57610100808354040283529160200191610899565b820191906000526020600020905b81548152906001019060200180831161087c57829003601f168201915b50505050509050919050565b336001600160a01b03861681148015906108e557506001600160a01b0380871660009081526001602090815260408083209385168352929052205460ff16155b156109165760405163711bec9160e11b81526001600160a01b038083166004830152871660248201526044016103e6565b6109238686868686611c6d565b505050505050565b60408051606084901b6bffffffffffffffffffffffff1916602080830191909152603480830185905283518084039091018152605490920190925280519101206000905b9392505050565b606081518351146109a75781518351604051635b05999160e01b8152600481019290925260248201526044016103e6565b6000835167ffffffffffffffff8111156109c3576109c3612cbe565b6040519080825280602002602001820160405280156109ec578160200160208202803683370190505b50905060005b8451811015610a3b57602080820286010151610a1690602080840287010151610340565b828281518110610a2857610a286131f4565b60209081029190910101526001016109f2565b509392505050565b60018211610a935760405162461bcd60e51b815260206004820181905260248201527f676f7420656d707479206f722073696e676c65746f6e20706172746974696f6e60448201526064016103e6565b60008481526004602052604090205480610aef5760405162461bcd60e51b815260206004820152601a60248201527f636f6e646974696f6e206e6f742070726570617265642079657400000000000060448201526064016103e6565b6000610afe600180841b6131e1565b90508060008567ffffffffffffffff811115610b1c57610b1c612cbe565b604051908082528060200260200182016040528015610b45578160200160208202803683370190505b50905060008667ffffffffffffffff811115610b6357610b63612cbe565b604051908082528060200260200182016040528015610b8c578160200160208202803683370190505b50905060005b87811015610cbb576000898983818110610bae57610bae6131f4565b905060200201359050600081118015610bc657508581105b610c125760405162461bcd60e51b815260206004820152601760248201527f676f7420696e76616c696420696e64657820736574203200000000000000000060448201526064016103e6565b8085821614610c635760405162461bcd60e51b815260206004820152601660248201527f706172746974696f6e206e6f74206469736a6f696e740000000000000000000060448201526064016103e6565b93841893610c768d6104f18e8e85611872565b848381518110610c8857610c886131f4565b60200260200101818152505087838381518110610ca757610ca76131f4565b602090810291909101015250600101610b92565b5082600003610dea5789610d9d576040516323b872dd60e01b8152336004820152306024820152604481018790526001600160a01b038c16906323b872dd906064016020604051808303816000875af1158015610d1c573d6000803e3d6000fd5b505050506040513d601f19601f82011682018060405250810190610d40919061325e565b610d985760405162461bcd60e51b815260206004820152602360248201527f636f756c64206e6f74207265636569766520636f6c6c61746572616c20746f6b604482015262656e7360e81b60648201526084016103e6565b610dff565b6040805160608d901b6bffffffffffffffffffffffff191660208083019190915260348083018e90528351808403909101815260549092019092528051910120610d989033905b88611ba1565b610dff33610de48d6104f18e8e898b18611872565b610e1a33838360405180602001604052806000815250611ccd565b888a336001600160a01b03167f2e6bb91f8cbcda0c93623c54d0403a43514fabc40084ec96b6d5379a747862988e8c8c8c604051610e5b949392919061332b565b60405180910390a45050505050505050505050565b60408051606085901b6bffffffffffffffffffffffff191660208083019190915260348201859052605480830185905283518084039091018152607490920190925280519101206000905b949350505050565b6000610ebb848484611872565b60018211610f205760405162461bcd60e51b815260206004820181905260248201527f676f7420656d707479206f722073696e676c65746f6e20706172746974696f6e60448201526064016103e6565b60008481526004602052604090205480610f7c5760405162461bcd60e51b815260206004820152601a60248201527f636f6e646974696f6e206e6f742070726570617265642079657400000000000060448201526064016103e6565b6000610f8b600180841b6131e1565b90508060008567ffffffffffffffff811115610fa957610fa9612cbe565b604051908082528060200260200182016040528015610fd2578160200160208202803683370190505b50905060008667ffffffffffffffff811115610ff057610ff0612cbe565b604051908082528060200260200182016040528015611019578160200160208202803683370190505b50905060005b8781101561114857600089898381811061103b5761103b6131f4565b90506020020135905060008111801561105357508581105b61109f5760405162461bcd60e51b815260206004820152601760248201527f676f7420696e76616c696420696e64657820736574203100000000000000000060448201526064016103e6565b80858216146110f05760405162461bcd60e51b815260206004820152601660248201527f706172746974696f6e206e6f74206469736a6f696e740000000000000000000060448201526064016103e6565b938418936111038d6104f18e8e85611872565b848381518110611115576111156131f4565b60200260200101818152505087838381518110611134576111346131f4565b60209081029190910101525060010161101f565b50611154338383611d0b565b8260000361128057896112235760405163a9059cbb60e01b8152336004820152602481018790526001600160a01b038c169063a9059cbb906044016020604051808303816000875af11580156111ae573d6000803e3d6000fd5b505050506040513d601f19601f820116820180604052508101906111d2919061325e565b61121e5760405162461bcd60e51b815260206004820181905260248201527f636f756c64206e6f742073656e6420636f6c6c61746572616c20746f6b656e7360448201526064016103e6565b611295565b6040805160608d901b6bffffffffffffffffffffffff191660208083019190915260348083018e9052835180840390910181526054909201909252805191012061121e9033905b8860405180602001604052806000815250611c10565b6112953361126a8d6104f18e8e898b18611872565b888a336001600160a01b03167f6f13ca62553fcc2bcd2372180a43949c1e4cebba603901ede2f4e14f36b282ca8e8c8c8c604051610e5b949392919061332b565b6112e1338383611d56565b5050565b80600181116113495760405162461bcd60e51b815260206004820152602a60248201527f74686572652073686f756c64206265206d6f7265207468616e206f6e65206f756044820152691d18dbdb59481cdb1bdd60b21b60648201526084016103e6565b604080516bffffffffffffffffffffffff193360601b166020808301919091526034820187905260548083018590528351808403909101815260749092018352815191810191909120600081815260049092529190205482146113ee5760405162461bcd60e51b815260206004820152601f60248201527f636f6e646974696f6e206e6f74207072657061726564206f7220666f756e640060448201526064016103e6565b6000818152600360205260409020541561144a5760405162461bcd60e51b815260206004820152601e60248201527f7061796f75742064656e6f6d696e61746f7220616c726561647920736574000060448201526064016103e6565b6000805b8381101561153557600086868381811061146a5761146a6131f4565b905060200201359050808361147f919061320a565b6000858152600460205260409020805491945090839081106114a3576114a36131f4565b90600052602060002001546000146114fd5760405162461bcd60e51b815260206004820152601c60248201527f7061796f7574206e756d657261746f7220616c7265616479207365740000000060448201526064016103e6565b6000848152600460205260409020805482919084908110611520576115206131f4565b6000918252602090912001555060010161144e565b50600081116115865760405162461bcd60e51b815260206004820152601460248201527f7061796f757420697320616c6c207a65726f657300000000000000000000000060448201526064016103e6565b600082815260036020908152604080832084905560049091529081902090518791339185917fb44d84d3289691f71497564b85d4233648d9dbae8cbdbb4329f301c3a0185894916115d891899161334e565b60405180910390a4505050505050565b61010081111561163a5760405162461bcd60e51b815260206004820152601660248201527f746f6f206d616e79206f7574636f6d6520736c6f74730000000000000000000060448201526064016103e6565b6001811161169d5760405162461bcd60e51b815260206004820152602a60248201527f74686572652073686f756c64206265206d6f7265207468616e206f6e65206f756044820152691d18dbdb59481cdb1bdd60b21b60648201526084016103e6565b604080516bffffffffffffffffffffffff19606086901b1660208083019190915260348201859052605480830185905283518084039091018152607490920183528151918101919091206000818152600490925291902054156117425760405162461bcd60e51b815260206004820152601a60248201527f636f6e646974696f6e20616c726561647920707265706172656400000000000060448201526064016103e6565b8167ffffffffffffffff81111561175b5761175b612cbe565b604051908082528060200260200182016040528015611784578160200160208202803683370190505b50600082815260046020908152604090912082516117a89391929190910190612a93565b5082846001600160a01b0316827fab3760c3bd2bb38b5bcf54dc79802ed67338b4cf29f3054ded67ed24661e4177856040516117e691815260200190565b60405180910390a450505050565b336001600160a01b038616811480159061183457506001600160a01b0380871660009081526001602090815260408083209385168352929052205460ff16155b156118655760405163711bec9160e11b81526001600160a01b038083166004830152871660248201526044016103e6565b6109238686868686611dec565b6000808383604051602001611891929190918252602082015260400190565b60408051601f198184030181529190528051602090910120905060ff81901c15156000805b6000805160206134ed8339815191526001850893506000805160206134ed83398151915260036000805160206134ed8339815191528087880987090890506118fd81611e7a565b9150806000805160206134ed833981519152838409036118b65782801561192c575061192a6002836133a2565b155b8061194a57508215801561194a57506119466002836133a2565b6001145b1561196a57611967826000805160206134ed8339815191526131e1565b91505b878015611b785760fe81901c151593507f3fffffffffffffffffffffffffffffffffffffffffffffffffffffffffffffff166000805160206134ed83398151915260036000805160206134ed83398151915280848509840908915060006119d083611e7a565b90508480156119e757506119e56002826133a2565b155b80611a05575084158015611a055750611a016002826133a2565b6001145b15611a2557611a22816000805160206134ed8339815191526131e1565b90505b826000805160206134ed83398151915282830914611a855760405162461bcd60e51b815260206004820152601c60248201527f696e76616c696420706172656e7420636f6c6c656374696f6e2049440000000060448201526064016103e6565b60408051602081018890529081018590526060810183905260808101829052600090819060069060a00160408051601f1981840301815290829052611ac9916133b6565b600060405180830381855afa9150503d8060008114611b04576040519150601f19603f3d011682016040523d82523d6000602084013e611b09565b606091505b509150915081611b5b5760405162461bcd60e51b815260206004820152600c60248201527f6563616464206661696c6564000000000000000000000000000000000000000060448201526064016103e6565b80806020019051810190611b6f91906133d2565b90985095505050505b611b836002846133a2565b600103611b9457600160fe1b851894505b5092979650505050505050565b6001600160a01b038316611bca57604051626a0d4560e21b8152600060048201526024016103e6565b604080516001808252602082018590528183019081526060820184905260a08201909252600060808201818152919291611c099187918590859061261f565b5050505050565b6001600160a01b038416611c3a57604051632bfa23e760e11b8152600060048201526024016103e6565b6040805160018082526020820186905281830190815260608201859052608082019092529061092360008784848761261f565b6001600160a01b038416611c9757604051632bfa23e760e11b8152600060048201526024016103e6565b6001600160a01b038516611cc057604051626a0d4560e21b8152600060048201526024016103e6565b611c09858585858561261f565b6001600160a01b038416611cf757604051632bfa23e760e11b8152600060048201526024016103e6565b611d0560008585858561261f565b50505050565b6001600160a01b038316611d3457604051626a0d4560e21b8152600060048201526024016103e6565b611d5183600084846040518060200160405280600081525061261f565b505050565b6001600160a01b038216611d7f5760405162ced3e160e81b8152600060048201526024016103e6565b6001600160a01b03838116600081815260016020908152604080832094871680845294825291829020805460ff191686151590811790915591519182527f17307eab39ab6107e8899845ad3d59bd9653f200f220920489ca2b5937696c31910160405180910390a3505050565b6001600160a01b038416611e1657604051632bfa23e760e11b8152600060048201526024016103e6565b6001600160a01b038516611e3f57604051626a0d4560e21b8152600060048201526024016103e6565b60408051600180825260208201869052818301908152606082018590526080820190925290611e71878784848761261f565b50505050505050565b60006000805160206134ed833981519152808380099150808283098181820990508181840992508183850993508184840992508183840990508181820982818309905082818209905082818209905082818309915082828609945082858609915082828309915082828509935082848509915082828309915082828309915082828509915082828609945082858609915082828309915082828309915082828609915082828509935082848609945082858609915082828309915082828509935082848509915082828309905082818209905082818209905082818309915082828609945082858509935082848509915082828309915082828309915082828609945082858609915082828309915082828609915082828309915082828309915082828609915082828509935082848509915082828309905082818209905082818309905082818509905082818209905082818209905082818209905082818209905082818309915082828609945082858609915082828609915082828509935082848509915082828509915082828309915082828309905082818309905082818209838182099050838182099050838182099050838182099050838183099150508281830991508282860994508285850993508284850991508282860994508285850993508284860994508285850993508284860994508285860991508282860991508282830991508282850993508284850991508282830991508282860994508285850993508284850991508282850991508282860994508285850993508284860994508285850993508284850991508282830991508282850991508282860994508285860991508282860991508282850993508284860994508285850993508284860994508285850993508284850991508282850991508282830991508282860994508285850993508284850991508282850991508282830991508282860994508285860991508282830990508281820990508281830990508281860990508281820990508281820990508281820990508281820990508281830991508282850993508284860994508285850993508284860994508285860991508282860991508282830991508282830991508282830991508282860991508282850993508284850991508282850991508282830991508282860994508285860991508282860991508282850993508284860994508285860991508282830991508282850993508284860994508285860991508282850993508284860994508285850993508284850991508282850991508282860994508285850993508284850991508282850991508282830991508282830991508282860994508285860991508282830991508282830991508282860991508282850993508284860994508285860991508282860990508281820990508281820990508281830991508282850993508284850991508282860994508285850993508284860994508285850993508284860994508285850993508284850991508282850990508281850991508282830991508282830991508282820991505081818509935081848409925081838509935081848409925081838509935081848509905081818509905081818409925050808284099250808384099250808384099250808384099250808384099250808384099250808384099250808384099250808384099250808384099250808384099250808384099250808384099250808384099250808384099250808384099250808384099250808384099250808384099250808384099250808384099250808384099250808384099250808384099250808384099250808384099250808384099250808384099250808384099250808384099250808384099250808384099250808384099250808384099250808384099250808384099250808384099250808384099250808384099250808384099250808384099250808384099250808384099250808384099250808384099250808384099250808384099250808384099250808384099250808384099250808384099250808384099250808384099250808384099250808384099250808384099250808384099250808384099250808384099250808384099250808384099250808384099250808384099250808384099250808384099250808384099250808384099250808384099250808384099250808384099250808384099250808384099250808384099250808384099250808384099250808384099250808384099250808384099250808384099250808384099250808384099250808384099250808384099250808384099250808384099250808384099250808384099250808384099250808384099250808384099250808384099250808384099250808384099250808384099250808384099250808384099250808384099250808384099250808384099250808384099250808384099250808384099250808384099250808384099250808384099250808384099250808384099250808384099250808384099250808384099250808384099250808384099250808384099250808384099250808384099250808384099250808384099250808384099250808384099250808384099250808384099250808384099250808384099250808384099250808384099250808384099250808384099250808383099392505050565b61262b85858585612672565b6001600160a01b03841615611c095782513390600103612664576020848101519084015161265d838989858589612886565b5050610923565b6109238187878787876129aa565b80518251146126a15781518151604051635b05999160e01b8152600481019290925260248201526044016103e6565b3360005b83518110156127a7576020818102858101820151908501909101516001600160a01b03881615612758576000828152602081815260408083206001600160a01b038c16845290915290205481811015612731576040516303dee4c560e01b81526001600160a01b038a1660048201526024810182905260448101839052606481018490526084016103e6565b6000838152602081815260408083206001600160a01b038d16845290915290209082900390555b6001600160a01b0387161561279d576000828152602081815260408083206001600160a01b038b1684529091528120805483929061279790849061320a565b90915550505b50506001016126a5565b5082516001036128285760208301516000906020840151909150856001600160a01b0316876001600160a01b0316846001600160a01b03167fc3d58168c5ae7397731d063d5bbf3d657854427343f4c083240f7aacaa2d0f628585604051612819929190918252602082015260400190565b60405180910390a45050611c09565b836001600160a01b0316856001600160a01b0316826001600160a01b03167f4a39dc06d4c0dbc64b70af90fd698a233a518aa5d07e595d983b8c0526c8f7fb86866040516128779291906133f6565b60405180910390a45050505050565b6001600160a01b0384163b156109235760405163f23a6e6160e01b81526001600160a01b0385169063f23a6e61906128ca9089908990889088908890600401613424565b6020604051808303816000875af1925050508015612905575060408051601f3d908101601f191682019092526129029181019061346c565b60015b61296e573d808015612933576040519150601f19603f3d011682016040523d82523d6000602084013e612938565b606091505b50805160000361296657604051632bfa23e760e11b81526001600160a01b03861660048201526024016103e6565b805181602001fd5b6001600160e01b0319811663f23a6e6160e01b14611e7157604051632bfa23e760e11b81526001600160a01b03861660048201526024016103e6565b6001600160a01b0384163b156109235760405163bc197c8160e01b81526001600160a01b0385169063bc197c81906129ee9089908990889088908890600401613489565b6020604051808303816000875af1925050508015612a29575060408051601f3d908101601f19168201909252612a269181019061346c565b60015b612a57573d808015612933576040519150601f19603f3d011682016040523d82523d6000602084013e612938565b6001600160e01b0319811663bc197c8160e01b14611e7157604051632bfa23e760e11b81526001600160a01b03861660048201526024016103e6565b828054828255906000526020600020908101928215612ace579160200282015b82811115612ace578251825591602001919060010190612ab3565b50612ada929150612ade565b5090565b5b80821115612ada5760008155600101612adf565b6001600160a01b0381168114612b0857600080fd5b50565b60008060408385031215612b1e57600080fd5b8235612b2981612af3565b946020939093013593505050565b60008083601f840112612b4957600080fd5b50813567ffffffffffffffff811115612b6157600080fd5b6020830191508360208260051b8501011115612b7c57600080fd5b9250929050565b600080600080600060808688031215612b9b57600080fd5b8535612ba681612af3565b94506020860135935060408601359250606086013567ffffffffffffffff811115612bd057600080fd5b612bdc88828901612b37565b969995985093965092949392505050565b6001600160e01b031981168114612b0857600080fd5b600060208284031215612c1557600080fd5b813561096f81612bed565b60008060408385031215612c3357600080fd5b50508035926020909101359150565b600060208284031215612c5457600080fd5b5035919050565b60005b83811015612c76578181015183820152602001612c5e565b50506000910152565b60008151808452612c97816020860160208601612c5b565b601f01601f19169290920160200192915050565b60208152600061096f6020830184612c7f565b634e487b7160e01b600052604160045260246000fd5b604051601f8201601f1916810167ffffffffffffffff81118282101715612cfd57612cfd612cbe565b604052919050565b600067ffffffffffffffff821115612d1f57612d1f612cbe565b5060051b60200190565b600082601f830112612d3a57600080fd5b8135612d4d612d4882612d05565b612cd4565b8082825260208201915060208360051b860101925085831115612d6f57600080fd5b602085015b83811015612d8c578035835260209283019201612d74565b5095945050505050565b600082601f830112612da757600080fd5b813567ffffffffffffffff811115612dc157612dc1612cbe565b612dd4601f8201601f1916602001612cd4565b818152846020838601011115612de957600080fd5b816020850160208301376000918101602001919091529392505050565b600080600080600060a08688031215612e1e57600080fd5b8535612e2981612af3565b94506020860135612e3981612af3565b9350604086013567ffffffffffffffff811115612e5557600080fd5b612e6188828901612d29565b935050606086013567ffffffffffffffff811115612e7e57600080fd5b612e8a88828901612d29565b925050608086013567ffffffffffffffff811115612ea757600080fd5b612eb388828901612d96565b9150509295509295909350565b60008060408385031215612ed357600080fd5b823567ffffffffffffffff811115612eea57600080fd5b8301601f81018513612efb57600080fd5b8035612f09612d4882612d05565b8082825260208201915060208360051b850101925087831115612f2b57600080fd5b6020840193505b82841015612f56578335612f4581612af3565b825260209384019390910190612f32565b9450505050602083013567ffffffffffffffff811115612f7557600080fd5b612f8185828601612d29565b9150509250929050565b600081518084526020840193506020830160005b82811015612fbd578151865260209586019590910190600101612f9f565b5093949350505050565b60208152600061096f6020830184612f8b565b60008060008060008060a08789031215612ff357600080fd5b8635612ffe81612af3565b95506020870135945060408701359350606087013567ffffffffffffffff81111561302857600080fd5b61303489828a01612b37565b979a9699509497949695608090950135949350505050565b60008060006060848603121561306157600080fd5b833561306c81612af3565b95602085013595506040909401359392505050565b60008060006060848603121561309657600080fd5b505081359360208301359350604090920135919050565b8015158114612b0857600080fd5b600080604083850312156130ce57600080fd5b82356130d981612af3565b915060208301356130e9816130ad565b809150509250929050565b60008060006040848603121561310957600080fd5b83359250602084013567ffffffffffffffff81111561312757600080fd5b61313386828701612b37565b9497909650939450505050565b6000806040838503121561315357600080fd5b823561315e81612af3565b915060208301356130e981612af3565b600080600080600060a0868803121561318657600080fd5b853561319181612af3565b945060208601356131a181612af3565b93506040860135925060608601359150608086013567ffffffffffffffff811115612ea757600080fd5b634e487b7160e01b600052601160045260246000fd5b81810381811115610362576103626131cb565b634e487b7160e01b600052603260045260246000fd5b80820180821115610362576103626131cb565b634e487b7160e01b600052601260045260246000fd5b6000826132425761324261321d565b500490565b8082028115828204841417610362576103626131cb565b60006020828403121561327057600080fd5b815161096f816130ad565b81835260007f07ffffffffffffffffffffffffffffffffffffffffffffffffffffffffffffff8311156132ad57600080fd5b8260051b80836020870137939093016020019392505050565b8481526060602082015260006132e060608301858761327b565b905082604083015295945050505050565b600181811c9082168061330557607f821691505b60208210810361332557634e487b7160e01b600052602260045260246000fd5b50919050565b6001600160a01b03851681526060602082015260006132e060608301858761327b565b60006040820184835260406020840152808454808352606085019150856000526020600020925060005b81811015613396578354835260019384019360209093019201613378565b50909695505050505050565b6000826133b1576133b161321d565b500690565b600082516133c8818460208701612c5b565b9190910192915050565b600080604083850312156133e557600080fd5b505080516020909101519092909150565b6040815260006134096040830185612f8b565b828103602084015261341b8185612f8b565b95945050505050565b6001600160a01b03861681526001600160a01b038516602082015283604082015282606082015260a06080820152600061346160a0830184612c7f565b979650505050505050565b60006020828403121561347e57600080fd5b815161096f81612bed565b6001600160a01b03861681526001600160a01b038516602082015260a0604082015260006134ba60a0830186612f8b565b82810360608401526134cc8186612f8b565b905082810360808401526134e08185612c7f565b9897505050505050505056fe30644e72e131a029b85045b68181585d97816a916871ca8d3c208c16d87cfd47a2646970667358221220eac3c4f8f196c48d3185224e659bedec71577d6ba162afa74e08cdc2e5c028e364736f6c634300081e0033",
  "linkReferences": {},
  "deployedLinkReferences": {}
}