{
  "_format": "hh-sol-artifact-1",
  "contractName": "ConditionalTokens",
  "sourceName": "contracts/ConditionalTokens.sol",
  "abi": [
    {
      "inputs": [],
      "stateMutability": "nonpayable",
      "type": "constructor"
    },
    {
      "inputs": [
        {
          "internalType": "address",
          "name": "sender",
          "type": "address"
        },
        {
          "internalType": "uint256",
          "name": "balance",
          "type": "uint256"
        },
        {
          "internalType": "uint256",
          "name": "needed",
          "type": "uint256"
        },
        {
          "internalType": "uint256",
          "name": "tokenId",
          "type": "uint256"
        }
      ],
      "name": "ERC1155InsufficientBalance",
      "type": "error"
    },
    {
      "inputs": [
        {
          "internalType": "address",
          "name": "approver",
          "type": "address"
        }
      ],
      "name": "ERC1155InvalidApprover",
      "type": "error"
    },
    {
      "inputs": [
        {
          "internalType": "uint256",
          "name": "idsLength",
          "type": "uint256"
        },
        {
          "internalType": "uint256",
          "name": "valuesLength",
          "type": "uint256"
        }
      ],
      "name": "ERC1155InvalidArrayLength",
      "type": "error"
    },
    {
      "inputs": [
        {
          "internalType": "address",
          "name": "operator",
          "type": "address"
        }
      ],
      "name": "ERC1155InvalidOperator",
      "type": "error"
    },
    {
      "inputs": [
        {
          "internalType": "address",
          "name": "receiver",
          "type": "address"
        }
      ],
      "name": "ERC1155InvalidReceiver",
      "type": "error"
    },
    {
      "inputs": [
        {
          "internalType": "address",
          "name": "sender",
          "type": "address"
        }
      ],
      "name": "ERC1155InvalidSender",
      "type": "error"
    },
    {
      "inputs": [
        {
          "internalType": "address",
          "name": "operator",
          "type": "address"
        },
        {
          "internalType": "address",
          "name": "owner",
          "type": "address"
        }
      ],
      "name": "ERC1155MissingApprovalForAll",
      "type": "error"
    },
    {
      "anonymous": false,
      "inputs": [
        {
          "indexed": true,
          "internalType": "address",
          "name": "account",
          "type": "address"
        },
        {
          "indexed": true,
          "internalType": "address",
          "name": "operator",
          "type": "address"
        },
        {
          "indexed": false,
          "internalType": "bool",
          "name": "approved",
          "type": "bool"
        }
      ],
      "name": "ApprovalForAll",
      "type": "event"
    },
    {
      "anonymous": false,
      "inputs": [
        {
          "indexed": true,
          "internalType": "bytes32",
          "name": "conditionId",
          "type": "bytes32"
        },
        {
          "indexed": true,
          "internalType": "address",
          "name": "oracle",
          "type": "address"
        },
        {
          "indexed": true,
          "internalType": "bytes32",
          "name": "questionId",
          "type": "bytes32"
        },
        {
          "indexed": false,
          "internalType": "uint256",
          "name": "outcomeSlotCount",
          "type": "uint256"
        }
      ],
      "name": "ConditionPreparation",
      "type": "event"
    },
    {
      "anonymous": false,
      "inputs": [
        {
          "indexed": true,
          "internalType": "bytes32",
          "name": "conditionId",
          "type": "bytes32"
        },
        {
          "indexed": true,
          "internalType": "address",
          "name": "oracle",
          "type": "address"
        },
        {
          "indexed": true,
          "internalType": "bytes32",
          "name": "questionId",
          "type": "bytes32"
        },
        {
          "indexed": false,
          "internalType": "uint256",
          "name": "outcomeSlotCount",
          "type": "uint256"
        },
        {
          "indexed": false,
          "internalType": "uint256[]",
          "name": "payoutNumerators",
          "type": "uint256[]"
        }
      ],
      "name": "ConditionResolution",
      "type": "event"
    },
    {
      "anonymous": false,
      "inputs": [
        {
          "indexed": true,
          "internalType": "address",
          "name": "redeemer",
          "type": "address"
        },
        {
          "indexed": true,
          "internalType": "contract IERC20",
          "name": "collateralToken",
          "type": "address"
        },
        {
          "indexed": true,
          "internalType": "bytes32",
          "name": "parentCollectionId",
          "type": "bytes32"
        },
        {
          "indexed": false,
          "internalType": "bytes32",
          "name": "conditionId",
          "type": "bytes32"
        },
        {
          "indexed": false,
          "internalType": "uint256[]",
          "name": "indexSets",
          "type": "uint256[]"
        },
        {
          "indexed": false,
          "internalType": "uint256",
          "name": "payout",
          "type": "uint256"
        }
      ],
      "name": "PayoutRedemption",
      "type": "event"
    },
    {
      "anonymous": false,
      "inputs": [
        {
          "indexed": true,
          "internalType": "address",
          "name": "stakeholder",
          "type": "address"
        },
        {
          "indexed": false,
          "internalType": "contract IERC20",
          "name": "collateralToken",
          "type": "address"
        },
        {
          "indexed": true,
          "internalType": "bytes32",
          "name": "parentCollectionId",
          "type": "bytes32"
        },
        {
          "indexed": true,
          "internalType": "bytes32",
          "name": "conditionId",
          "type": "bytes32"
        },
        {
          "indexed": false,
          "internalType": "uint256[]",
          "name": "partition",
          "type": "uint256[]"
        },
        {
          "indexed": false,
          "internalType": "uint256",
          "name": "amount",
          "type": "uint256"
        }
      ],
      "name": "PositionSplit",
      "type": "event"
    },
    {
      "anonymous": false,
      "inputs": [
        {
          "indexed": true,
          "internalType": "address",
          "name": "stakeholder",
          "type": "address"
        },
        {
          "indexed": false,
          "internalType": "contract IERC20",
          "name": "collateralToken",
          "type": "address"
        },
        {
          "indexed": true,
          "internalType": "bytes32",
          "name": "parentCollectionId",
          "type": "bytes32"
        },
        {
          "indexed": true,
          "internalType": "bytes32",
          "name": "conditionId",
          "type": "bytes32"
        },
        {
          "indexed": false,
          "internalType": "uint256[]",
          "name": "partition",
          "type": "uint256[]"
        },
        {
          "indexed": false,
          "internalType": "uint256",
          "name": "amount",
          "type": "uint256"
        }
      ],
      "name": "PositionsMerge",
      "type": "event"
    },
    {
      "anonymous": false,
      "inputs": [
        {
          "indexed": true,
          "internalType": "address",
          "name": "operator",
          "type": "address"
        },
        {
          "indexed": true,
          "internalType": "address",
          "name": "from",
          "type": "address"
        },
        {
          "indexed": true,
          "internalType": "address",
          "name": "to",
          "type": "address"
        },
        {
          "indexed": false,
          "internalType": "uint256[]",
          "name": "ids",
          "type": "uint256[]"
        },
        {
          "indexed": false,
          "internalType": "uint256[]",
          "name": "values",
          "type": "uint256[]"
        }
      ],
      "name": "TransferBatch",
      "type": "event"
    },
    {
      "anonymous": false,
      "inputs": [
        {
          "indexed": true,
          "internalType": "address",
          "name": "operator",
          "type": "address"
        },
        {
          "indexed": true,
          "internalType": "address",
          "name": "from",
          "type": "address"
        },
        {
          "indexed": true,
          "internalType": "address",
          "name": "to",
          "type": "address"
        },
        {
          "indexed": false,
          "internalType": "uint256",
          "name": "id",
          "type": "uint256"
        },
        {
          "indexed": false,
          "internalType": "uint256",
          "name": "value",
          "type": "uint256"
        }
      ],
      "name": "TransferSingle",
      "type": "event"
    },
    {
      "anonymous": false,
      "inputs": [
        {
          "indexed": false,
          "internalType": "string",
          "name": "value",
          "type": "string"
        },
        {
          "indexed": true,
          "internalType": "uint256",
          "name": "id",
          "type": "uint256"
        }
      ],
      "name": "URI",
      "type": "event"
    },
    {
      "inputs": [
        {
          "internalType": "address",
          "name": "account",
          "type": "address"
        },
        {
          "internalType": "uint256",
          "name": "id",
          "type": "uint256"
        }
      ],
      "name": "balanceOf",
      "outputs": [
        {
          "internalType": "uint256",
          "name": "",
          "type": "uint256"
        }
      ],
      "stateMutability": "view",
      "type": "function"
    },
    {
      "inputs": [
        {
          "internalType": "address[]",
          "name": "accounts",
          "type": "address[]"
        },
        {
          "internalType": "uint256[]",
          "name": "ids",
          "type": "uint256[]"
        }
      ],
      "name": "balanceOfBatch",
      "outputs": [
        {
          "internalType": "uint256[]",
          "name": "",
          "type": "uint256[]"
        }
      ],
      "stateMutability": "view",
      "type": "function"
    },
    {
      "inputs": [
        {
          "internalType": "contract IERC20",
          "name": "collateralToken",
          "type": "address"
        },
        {
          "internalType": "bytes32",
          "name": "parentCollectionId",
          "type": "bytes32"
        },
        {
          "internalType": "bytes32",
          "name": "conditionId",
          "type": "bytes32"
        },
        {
          "internalType": "uint256[]",
          "name": "indexSets",
          "type": "uint256[]"
        },
        {
          "internalType": "address",
          "name": "user",
          "type": "address"
        }
      ],
      "name": "debugRedeemPositions",
      "outputs": [
        {
          "internalType": "uint256",
          "name": "totalPayout",
          "type": "uint256"
        },
        {
          "internalType": "uint256[]",
          "name": "userBalances",
          "type": "uint256[]"
        },
        {
          "internalType": "uint256[]",
          "name": "debugPayoutNumerators",
          "type": "uint256[]"
        },
        {
          "internalType": "uint256",
          "name": "debugPayoutDenominator",
          "type": "uint256"
        },
        {
          "internalType": "uint256",
          "name": "debugOutcomeSlotCount",
          "type": "uint256"
        }
      ],
      "stateMutability": "view",
      "type": "function"
    },
    {
      "inputs": [
        {
          "internalType": "bytes32",
          "name": "parentCollectionId",
          "type": "bytes32"
        },
        {
          "internalType": "bytes32",
          "name": "conditionId",
          "type": "bytes32"
        },
        {
          "internalType": "uint256",
          "name": "indexSet",
          "type": "uint256"
        }
      ],
      "name": "getCollectionId",
      "outputs": [
        {
          "internalType": "bytes32",
          "name": "",
          "type": "bytes32"
        }
      ],
      "stateMutability": "view",
      "type": "function"
    },
    {
      "inputs": [
        {
          "internalType": "address",
          "name": "oracle",
          "type": "address"
        },
        {
          "internalType": "bytes32",
          "name": "questionId",
          "type": "bytes32"
        },
        {
          "internalType": "uint256",
          "name": "outcomeSlotCount",
          "type": "uint256"
        }
      ],
      "name": "getConditionId",
      "outputs": [
        {
          "internalType": "bytes32",
          "name": "",
          "type": "bytes32"
        }
      ],
      "stateMutability": "pure",
      "type": "function"
    },
    {
      "inputs": [
        {
          "internalType": "bytes32",
          "name": "conditionId",
          "type": "bytes32"
        }
      ],
      "name": "getOutcomeSlotCount",
      "outputs": [
        {
          "internalType": "uint256",
          "name": "",
          "type": "uint256"
        }
      ],
      "stateMutability": "view",
      "type": "function"
    },
    {
      "inputs": [
        {
          "internalType": "contract IERC20",
          "name": "collateralToken",
          "type": "address"
        },
        {
          "internalType": "bytes32",
          "name": "collectionId",
          "type": "bytes32"
        }
      ],
      "name": "getPositionId",
      "outputs": [
        {
          "internalType": "uint256",
          "name": "",
          "type": "uint256"
        }
      ],
      "stateMutability": "pure",
      "type": "function"
    },
    {
      "inputs": [
        {
          "internalType": "address",
          "name": "account",
          "type": "address"
        },
        {
          "internalType": "address",
          "name": "operator",
          "type": "address"
        }
      ],
      "name": "isApprovedForAll",
      "outputs": [
        {
          "internalType": "bool",
          "name": "",
          "type": "bool"
        }
      ],
      "stateMutability": "view",
      "type": "function"
    },
    {
      "inputs": [
        {
          "internalType": "contract IERC20",
          "name": "collateralToken",
          "type": "address"
        },
        {
          "internalType": "bytes32",
          "name": "parentCollectionId",
          "type": "bytes32"
        },
        {
          "internalType": "bytes32",
          "name": "conditionId",
          "type": "bytes32"
        },
        {
          "internalType": "uint256[]",
          "name": "partition",
          "type": "uint256[]"
        },
        {
          "internalType": "uint256",
          "name": "amount",
          "type": "uint256"
        }
      ],
      "name": "mergePositions",
      "outputs": [],
      "stateMutability": "nonpayable",
      "type": "function"
    },
    {
      "inputs": [
        {
          "internalType": "bytes32",
          "name": "",
          "type": "bytes32"
        }
      ],
      "name": "payoutDenominator",
      "outputs": [
        {
          "internalType": "uint256",
          "name": "",
          "type": "uint256"
        }
      ],
      "stateMutability": "view",
      "type": "function"
    },
    {
      "inputs": [
        {
          "internalType": "bytes32",
          "name": "",
          "type": "bytes32"
        },
        {
          "internalType": "uint256",
          "name": "",
          "type": "uint256"
        }
      ],
      "name": "payoutNumerators",
      "outputs": [
        {
          "internalType": "uint256",
          "name": "",
          "type": "uint256"
        }
      ],
      "stateMutability": "view",
      "type": "function"
    },
    {
      "inputs": [
        {
          "internalType": "address",
          "name": "oracle",
          "type": "address"
        },
        {
          "internalType": "bytes32",
          "name": "questionId",
          "type": "bytes32"
        },
        {
          "internalType": "uint256",
          "name": "outcomeSlotCount",
          "type": "uint256"
        }
      ],
      "name": "prepareCondition",
      "outputs": [],
      "stateMutability": "nonpayable",
      "type": "function"
    },
    {
      "inputs": [
        {
          "internalType": "contract IERC20",
          "name": "collateralToken",
          "type": "address"
        },
        {
          "internalType": "bytes32",
          "name": "parentCollectionId",
          "type": "bytes32"
        },
        {
          "internalType": "bytes32",
          "name": "conditionId",
          "type": "bytes32"
        },
        {
          "internalType": "uint256[]",
          "name": "indexSets",
          "type": "uint256[]"
        }
      ],
      "name": "redeemPositions",
      "outputs": [],
      "stateMutability": "nonpayable",
      "type": "function"
    },
    {
      "inputs": [
        {
          "internalType": "bytes32",
          "name": "questionId",
          "type": "bytes32"
        },
        {
          "internalType": "uint256[]",
          "name": "payouts",
          "type": "uint256[]"
        }
      ],
      "name": "reportPayouts",
      "outputs": [],
      "stateMutability": "nonpayable",
      "type": "function"
    },
    {
      "inputs": [
        {
          "internalType": "address",
          "name": "from",
          "type": "address"
        },
        {
          "internalType": "address",
          "name": "to",
          "type": "address"
        },
        {
          "internalType": "uint256[]",
          "name": "ids",
          "type": "uint256[]"
        },
        {
          "internalType": "uint256[]",
          "name": "values",
          "type": "uint256[]"
        },
        {
          "internalType": "bytes",
          "name": "data",
          "type": "bytes"
        }
      ],
      "name": "safeBatchTransferFrom",
      "outputs": [],
      "stateMutability": "nonpayable",
      "type": "function"
    },
    {
      "inputs": [
        {
          "internalType": "address",
          "name": "from",
          "type": "address"
        },
        {
          "internalType": "address",
          "name": "to",
          "type": "address"
        },
        {
          "internalType": "uint256",
          "name": "id",
          "type": "uint256"
        },
        {
          "internalType": "uint256",
          "name": "value",
          "type": "uint256"
        },
        {
          "internalType": "bytes",
          "name": "data",
          "type": "bytes"
        }
      ],
      "name": "safeTransferFrom",
      "outputs": [],
      "stateMutability": "nonpayable",
      "type": "function"
    },
    {
      "inputs": [
        {
          "internalType": "address",
          "name": "operator",
          "type": "address"
        },
        {
          "internalType": "bool",
          "name": "approved",
          "type": "bool"
        }
      ],
      "name": "setApprovalForAll",
      "outputs": [],
      "stateMutability": "nonpayable",
      "type": "function"
    },
    {
      "inputs": [
        {
          "internalType": "contract IERC20",
          "name": "collateralToken",
          "type": "address"
        },
        {
          "internalType": "bytes32",
          "name": "parentCollectionId",
          "type": "bytes32"
        },
        {
          "internalType": "bytes32",
          "name": "conditionId",
          "type": "bytes32"
        },
        {
          "internalType": "uint256[]",
          "name": "partition",
          "type": "uint256[]"
        },
        {
          "internalType": "uint256",
          "name": "amount",
          "type": "uint256"
        }
      ],
      "name": "splitPosition",
      "outputs": [],
      "stateMutability": "nonpayable",
      "type": "function"
    },
    {
      "inputs": [
        {
          "internalType": "bytes4",
          "name": "interfaceId",
          "type": "bytes4"
        }
      ],
      "name": "supportsInterface",
      "outputs": [
        {
          "internalType": "bool",
          "name": "",
          "type": "bool"
        }
      ],
      "stateMutability": "view",
      "type": "function"
    },
    {
      "inputs": [
        {
          "internalType": "uint256",
          "name": "",
          "type": "uint256"
        }
      ],
      "name": "uri",
      "outputs": [
        {
          "internalType": "string",
          "name": "",
          "type": "string"
        }
      ],
      "stateMutability": "view",
      "type": "function"
    }
  ],
  "bytecode": "0x60803460d25760208101906001600160401b0382118183101760bc5760009160405252600254600181811c9116801560b3575b6020821014609d57601f81116056575b60006002556040516141b490816100d88239f35b6002600052601f0160051c7f405787fa12a823e0f2b7631cc41b3ba8828b3321ca811111fa75cd3aa3bb5ace908101905b818110609257506042565b600081556001016087565b634e487b7160e01b600052602260045260246000fd5b90607f16906032565b634e487b7160e01b600052604160045260246000fd5b600080fdfe6080604052600436101561001257600080fd5b60003560e01c8062fdd58e1461015657806301b7037c1461015157806301ffc9a71461014c5780630504c814146101475780630e89341c146101425780632eb2c2d61461013d57806339dd7530146101385780634e1273f41461013357806372ce42751461012e578063852c6ae214610129578063856296f7146101245780639e7212ad1461011f578063a22cb4651461011a578063c49298ac14610115578063d42dc0c214610110578063d96ee7541461010b578063dd34de6714610106578063df550eea14610101578063e985e9c5146100fc5763f242432a146100f757600080fd5b6114da565b611470565b6112ac565b611245565b611151565b611125565b610fae565b610ee8565b610cfc565b610cd8565b610cbf565b610a7a565b61096e565b6108f6565b61085f565b610654565b6105b6565b610515565b6101f4565b610171565b6001600160a01b0381160361016c57565b600080fd5b3461016c57604036600319011261016c5760206101ba6004356101938161015b565b602435600052600083526040600020906001600160a01b0316600052602052604060002090565b54604051908152f35b9181601f8401121561016c5782359167ffffffffffffffff831161016c576020808501948460051b01011161016c57565b3461016c57608036600319011261016c576004356102118161015b565b6024359060443560643567ffffffffffffffff811161016c576102389036906004016101c3565b61024f839492946000526003602052604060002090565b549061025c821515611630565b610270846000526004602052604060002090565b5461027c8115156116a2565b60009261028b6001831b611704565b91845b87858a8c8285106103f357918a8a8592816102e8575b916102e36001600160a01b03927f2682012a4a4f1973119f1c9b90745d1bd91fa2bab387344f044cb3586864d18d9460405194859416973397856118c6565b0390a4005b91856103a35760405163a9059cbb60e01b8152336004820152602481018390529160208360448160006001600160a01b0387165af190811561039e577f2682012a4a4f1973119f1c9b90745d1bd91fa2bab387344f044cb3586864d18d946103646102e3936001600160a01b039660009161036f575b50611817565b9294509250506102a4565b610391915060203d602011610397575b6103898183610760565b8101906117f6565b8b61035e565b503d61037f565b61180b565b6102e36001600160a01b03927f2682012a4a4f1973119f1c9b90745d1bd91fa2bab387344f044cb3586864d18d946103ee6103de8a86612245565b836103e76117e1565b91336122d2565b610364565b610404856104259461041f94611740565b35938491821515806104fa575b61041a90611750565b611ffa565b89612245565b90600090815b8581106104ab5750506104643361044c846000526000602052604060002090565b906001600160a01b0316600052602052604060002090565b549081610477575b50505060010161028e565b9061049c6001949399610496886104916104a396866117a9565b6117d2565b9061179c565b983361227e565b90388061046c565b8b6001821b83166104c0575b5060010161042b565b81936104966104e76001946104e26104f1956000526004602052604060002090565b610599565b90549060031b1c90565b9290508b6104b7565b50898310610411565b6001600160e01b031981160361016c57565b3461016c57602036600319011261016c57602060043561053481610503565b63ffffffff60e01b16636cdb3d1360e11b8114908115610572575b8115610561575b506040519015158152f35b6301ffc9a760e01b14905038610556565b6303a24d0760e21b8114915061054f565b634e487b7160e01b600052603260045260246000fd5b80548210156105b15760005260206000200190600090565b610583565b3461016c57604036600319011261016c576004356024359060005260046020526040600020805482101561016c576020916105f091610599565b90549060031b1c604051908152f35b919082519283825260005b84811061062b575050826000602080949584010152601f8019910116010190565b8060208092840101518282860101520161060a565b9060206106519281815201906105ff565b90565b3461016c57602036600319011261016c5760405160006002548060011c9060018116908115610740575b60208310821461072c57828552602085019190811561071357506001146106c0575b6106bc846106b081860382610760565b60405191829182610640565b0390f35b600260009081529250907f405787fa12a823e0f2b7631cc41b3ba8828b3321ca811111fa75cd3aa3bb5ace5b8184106106ff575050016106b0826106a0565b8054848401526020909301926001016106ec565b60ff191682525090151560051b0190506106b0826106a0565b634e487b7160e01b84526022600452602484fd5b91607f169161067e565b634e487b7160e01b600052604160045260246000fd5b90601f8019910116810190811067ffffffffffffffff82111761078257604052565b61074a565b67ffffffffffffffff81116107825760051b60200190565b9080601f8301121561016c5781356107b681610787565b926107c46040519485610760565b81845260208085019260051b82010192831161016c57602001905b8282106107ec5750505090565b81358152602091820191016107df565b67ffffffffffffffff811161078257601f01601f191660200190565b81601f8201121561016c5780359061082f826107fc565b9261083d6040519485610760565b8284526020838301011161016c57816000926020809301838601378301015290565b3461016c5760a036600319011261016c5760043561087c8161015b565b602435906108898261015b565b60443567ffffffffffffffff811161016c576108a990369060040161079f565b60643567ffffffffffffffff811161016c576108c990369060040161079f565b906084359367ffffffffffffffff851161016c576108ee6108f4953690600401610818565b936118e9565b005b3461016c57604036600319011261016c5760206109216004356109188161015b565b60243590612245565b604051908152f35b906020808351928381520192019060005b8181106109475750505090565b825184526020938401939092019160010161093a565b906020610651928181520190610929565b3461016c57604036600319011261016c5760043567ffffffffffffffff811161016c573660238201121561016c578060040135906109ab82610787565b916109b96040519384610760565b8083526024602084019160051b8301019136831161016c57602401905b828210610a17578360243567ffffffffffffffff811161016c576106bc91610a05610a0b92369060040161079f565b9061199f565b6040519182918261095d565b602080918335610a268161015b565b8152019101906109d6565b9060a060031983011261016c57600435610a4a8161015b565b9160243591604435916064359067ffffffffffffffff821161016c57610a72916004016101c3565b909160843590565b3461016c57610a8836610a31565b91610a9860018397959711611a12565b610ac36001610ab1886000526004602052604060002090565b54610abd8115156116a2565b1b611704565b80938688610ad086611959565b93610ada87611959565b9760005b888110610c2b575081610be757505050610ba5576040516323b872dd60e01b8152336004820152306024820152604481018290529160208360648160006001600160a01b038c165af190811561039e577f2e6bb91f8cbcda0c93623c54d0403a43514fabc40084ec96b6d5379a7478629896610b69610b78936102e396600091610b86575b50611af5565b610b716117e1565b9133612316565b604051938493339785611b4d565b610b9f915060203d602011610397576103898183610760565b38610b63565b610b786102e3927f2e6bb91f8cbcda0c93623c54d0403a43514fabc40084ec96b6d5379a7478629896610be284610bdc8c8c612245565b3361227e565b610b69565b84610bdc610c25610b78966102e399967f2e6bb91f8cbcda0c93623c54d0403a43514fabc40084ec96b6d5379a747862989d96610be2961891611ffa565b8c612245565b9092610c6b600193610c7192610c42858d8d611740565b35809281151580610c93575b610c5790611a5d565b610c648282811614611aa9565b1897611ffa565b8b612245565b610c7b828861198b565b5284610c87828b61198b565b5201918a918a93610ade565b50888210610c4e565b606090600319011261016c57600435610cb48161015b565b906024359060443590565b3461016c576020610921610cd236610c9c565b91612331565b3461016c57606036600319011261016c576020610921604435602435600435611ffa565b3461016c57610d0a36610a31565b91610d1a60018397959711611a12565b610d336001610ab1886000526004602052604060002090565b80610d3d84611959565b610d4685611959565b908860005b8b888210610e775750505090610d619133612369565b81610e3957505084610df95760405163a9059cbb60e01b8152336004820152602481018490529260208460448160006001600160a01b038a165af190811561039e57610b786102e3927f6f13ca62553fcc2bcd2372180a43949c1e4cebba603901ede2f4e14f36b282ca96600091610dda575b50611bc0565b610df3915060203d602011610397576103898183610760565b38610dd4565b6102e37f6f13ca62553fcc2bcd2372180a43949c1e4cebba603901ede2f4e14f36b282ca93610e34610e2b8888612245565b826103e76117e1565b610b78565b93610e34610e2b610e716102e3947f6f13ca62553fcc2bcd2372180a43949c1e4cebba603901ede2f4e14f36b282ca98188b8b611ffa565b88612245565b610c6b60019397610eb692610e8d858d8d611740565b35809281151580610ed5575b610ea290611b74565b610eaf8282811614611aa9565b1899611ffa565b610ec0828561198b565b5288610ecc828661198b565b52018990610d4b565b508a8210610e99565b8015150361016c57565b3461016c57604036600319011261016c57600435610f058161015b565b602435610f1181610ede565b6001600160a01b038216918215610f9957610f4c903360005260016020526040600020906001600160a01b0316600052602052604060002090565b60ff1981541660ff831515161790557f17307eab39ab6107e8899845ad3d59bd9653f200f220920489ca2b5937696c3160405180610f94339482919091602081019215159052565b0390a3005b62ced3e160e81b600052600060045260246000fd5b3461016c57604036600319011261016c5760043560243567ffffffffffffffff811161016c57610fe29036906004016101c3565b90610fef60018311611c0b565b610ffa828433612331565b9061101a83611013846000526004602052604060002090565b5414611c7d565b611038611031836000526003602052604060002090565b5415611cc9565b60009060005b8481106110ad575050611052811515611d61565b611066826000526003602052604060002090565b557fb44d84d3289691f71497564b85d4233648d9dbae8cbdbb4329f301c3a01858946102e361109f836000526004602052604060002090565b604051918291339683611dad565b8061111f6110c96110c16001948987611740565b35809661179c565b946110ee6110e86104e7856104e28b6000526004602052604060002090565b15611d15565b611106836104e2896000526004602052604060002090565b90919082549060031b91821b91600019901b1916179055565b0161103e565b3461016c57602036600319011261016c5760043560005260046020526020604060002054604051908152f35b3461016c5761115f36610c9c565b909161010082116112005761117660018311611c0b565b7fab3760c3bd2bb38b5bcf54dc79802ed67338b4cf29f3054ded67ed24661e41776001600160a01b036111aa848685612331565b926111c96111c2856000526004602052604060002090565b5415611df4565b6111ee6111d586611959565b6111e9866000526004602052604060002090565b611e40565b604051948552169280602081016102e3565b60405162461bcd60e51b815260206004820152601660248201527f746f6f206d616e79206f7574636f6d6520736c6f7473000000000000000000006044820152606490fd5b3461016c57602036600319011261016c5760043560005260036020526020604060002054604051908152f35b91926112946080946112a29398979698855260a0602086015260a0850190610929565b908382036040850152610929565b9460608201520152565b3461016c5760a036600319011261016c576004356112c98161015b565b6024359060443560643567ffffffffffffffff811161016c576112f09036906004016101c3565b939091608435916113008361015b565b600093611317836000526003602052604060002090565b549261132d816000526004602052604060002090565b549461133889611959565b976113428a611959565b9461134f6001891b611704565b9a60005b81811061136e578b8b6106bc8c8c8c60405195869586611271565b8c61138f61137d83858b611740565b35918215159081611466575b50611ed0565b8c6113b7836113b16113ab6113a5868d8b611ffa565b8a612245565b8a611603565b9261198b565b52600090815b8c8110611426575050806113d1838b61198b565b528c6113dd838261198b565b5115158061141d575b6113f5575b5050600101611353565b9b6104968b610491859f9461140f6001976114159761198b565b516117a9565b9a908c6113eb565b508a15156113e6565b886001821b831661143b575b506001016113bd565b81936104966104e76001946104e261145d956000526004602052604060002090565b92905088611432565b905082108f611389565b3461016c57604036600319011261016c57602060ff6114ce6004356114948161015b565b6001600160a01b03602435916114a98361015b565b16600052600184526040600020906001600160a01b0316600052602052604060002090565b54166040519015158152f35b3461016c5760a036600319011261016c576004356114f78161015b565b6024356115038161015b565b604435906064359260843567ffffffffffffffff811161016c5761152b903690600401610818565b926001600160a01b03821633811415806115ce575b6115b6576001600160a01b038416156115a0571561158b576108f49461158360405192600184526020840152604083019160018352606084015260808301604052565b929091613d20565b626a0d4560e21b600052600060045260246000fd5b632bfa23e760e11b600052600060045260246000fd5b63711bec9160e11b6000523360045260245260446000fd5b5080600052600160205260ff6115fb336040600020906001600160a01b0316600052602052604060002090565b541615611540565b61162c9160005260006020526040600020906001600160a01b0316600052602052604060002090565b5490565b1561163757565b60405162461bcd60e51b815260206004820152602560248201527f726573756c7420666f7220636f6e646974696f6e206e6f74207265636569766560448201527f64207965740000000000000000000000000000000000000000000000000000006064820152608490fd5b156116a957565b60405162461bcd60e51b815260206004820152601a60248201527f636f6e646974696f6e206e6f74207072657061726564207965740000000000006044820152606490fd5b634e487b7160e01b600052601160045260246000fd5b60001981019190821161171357565b6116ee565b60008051602061415f833981519152039060008051602061415f833981519152821161171357565b91908110156105b15760051b0190565b1561175757565b60405162461bcd60e51b815260206004820152601760248201527f676f7420696e76616c696420696e6465782073657420330000000000000000006044820152606490fd5b9190820180921161171357565b8181029291811591840414171561171357565b634e487b7160e01b600052601260045260246000fd5b81156117dc570490565b6117bc565b604051906117f0602083610760565b60008252565b9081602091031261016c575161065181610ede565b6040513d6000823e3d90fd5b1561181e57565b60405162461bcd60e51b815260206004820152602b60248201527f636f756c64206e6f74207472616e73666572207061796f757420746f206d657360448201527f736167652073656e6465720000000000000000000000000000000000000000006064820152608490fd5b90918281527f07ffffffffffffffffffffffffffffffffffffffffffffffffffffffffffffff831161016c5760209260051b809284830137010190565b949392916040926118e4928752606060208801526060870191611889565b930152565b939291906001600160a01b0385163381141580611924575b6115b6576001600160a01b038216156115a0571561158b5761192294613d20565b565b5080600052600160205260ff611951336040600020906001600160a01b0316600052602052604060002090565b541615611901565b9061196382610787565b6119706040519182610760565b8281528092611981601f1991610787565b0190602036910137565b80518210156105b15760209160051b010190565b919091805183518082036119fb5750506119b98151611959565b9060005b81518110156119f457806119e360019260051b6020808287010151918901015190611603565b6119ed828661198b565b52016119bd565b5090925050565b635b05999160e01b60005260045260245260446000fd5b15611a1957565b606460405162461bcd60e51b815260206004820152602060248201527f676f7420656d707479206f722073696e676c65746f6e20706172746974696f6e6044820152fd5b15611a6457565b60405162461bcd60e51b815260206004820152601760248201527f676f7420696e76616c696420696e6465782073657420320000000000000000006044820152606490fd5b15611ab057565b60405162461bcd60e51b815260206004820152601660248201527f706172746974696f6e206e6f74206469736a6f696e74000000000000000000006044820152606490fd5b15611afc57565b60405162461bcd60e51b815260206004820152602360248201527f636f756c64206e6f74207265636569766520636f6c6c61746572616c20746f6b604482015262656e7360e81b6064820152608490fd5b949392916040926001600160a01b036118e493168752606060208801526060870191611889565b15611b7b57565b60405162461bcd60e51b815260206004820152601760248201527f676f7420696e76616c696420696e6465782073657420310000000000000000006044820152606490fd5b15611bc757565b606460405162461bcd60e51b815260206004820152602060248201527f636f756c64206e6f742073656e6420636f6c6c61746572616c20746f6b656e736044820152fd5b15611c1257565b60405162461bcd60e51b815260206004820152602a60248201527f74686572652073686f756c64206265206d6f7265207468616e206f6e65206f7560448201527f74636f6d6520736c6f74000000000000000000000000000000000000000000006064820152608490fd5b15611c8457565b60405162461bcd60e51b815260206004820152601f60248201527f636f6e646974696f6e206e6f74207072657061726564206f7220666f756e64006044820152606490fd5b15611cd057565b60405162461bcd60e51b815260206004820152601e60248201527f7061796f75742064656e6f6d696e61746f7220616c72656164792073657400006044820152606490fd5b15611d1c57565b60405162461bcd60e51b815260206004820152601c60248201527f7061796f7574206e756d657261746f7220616c726561647920736574000000006044820152606490fd5b15611d6857565b60405162461bcd60e51b815260206004820152601460248201527f7061796f757420697320616c6c207a65726f65730000000000000000000000006044820152606490fd5b60609060408101928152604060208201528354809352019160005260206000209060005b818110611dde5750505090565b8254845260209093019260019283019201611dd1565b15611dfb57565b60405162461bcd60e51b815260206004820152601a60248201527f636f6e646974696f6e20616c72656164792070726570617265640000000000006044820152606490fd5b81519167ffffffffffffffff831161078257680100000000000000008311610782578154838355808410611ea7575b506020611e83910191600052602060002090565b60005b838110611e935750505050565b600190602084519401938184015501611e86565b8260005283602060002091820191015b818110611ec45750611e6f565b60008155600101611eb7565b15611ed757565b60405162461bcd60e51b815260206004820152601560248201527f676f7420696e76616c696420696e6465782073657400000000000000000000006044820152606490fd5b15611f2357565b60405162461bcd60e51b815260206004820152601c60248201527f696e76616c696420706172656e7420636f6c6c656374696f6e204944000000006044820152606490fd5b3d15611f93573d90611f79826107fc565b91611f876040519384610760565b82523d6000602084013e565b606090565b15611f9f57565b60405162461bcd60e51b815260206004820152600c60248201527f6563616464206661696c656400000000000000000000000000000000000000006044820152606490fd5b919082604091031261016c576020825192015190565b6040805160208101938452908101939093529161202481606081015b03601f198101835282610760565b519020916120328360ff1c90565b159283159260009182808060015b15612094575b5050506000926117dc57600160008051602061415f833981519152910893829560008051602061415f83398151915260038180898009890908876120898261238d565b929893979395612040565b6117dc5760008051602061415f833981519152828009146120b6578084612046565b939594909481612239575b811561221f575b5061220f575b806120f3575b50506120e260019160011690565b146120ea5790565b600160fe1b1890565b90916120ff8260fe1c90565b159161211661211084159260021b90565b60021c90565b936117dc576120e294846121ac612184946120166121d29760008051602061415f833981519152600381808860019e09880908966121538861238d565b9181612203575b81156121e9575b506121db575b600097889760008051602061415f83398151915283800914611f1c565b6040519485936020850197889094939260609260808301968352602083015260408201520152565b519060065afa6121c36121bd611f68565b91611f98565b60208082518301019101611fe4565b929092916120d4565b6121e490611718565b612167565b9050806121f7575b38612161565b508960018216146121f1565b6001831615915061215a565b9161221990611718565b916120ce565b90508061222d575b386120c8565b50600183811614612227565b600185161591506120c1565b906040519060208201926bffffffffffffffffffffffff199060601b168352603482015260348152612278605482610760565b51902090565b906001600160a01b0382161561158b57611922926122b960405192600184526020840152604083019160018352606084015260808301604052565b90604051926122c9602085610760565b60008452613a61565b909291926001600160a01b038216156115a0576119229361231060405192600184526020840152604083019160018352606084015260808301604052565b91613bd0565b9291906001600160a01b038416156115a05761192293613bd0565b916040519160208301936bffffffffffffffffffffffff199060601b1684526034830152605482015260548152612278607482610760565b90916001600160a01b0382161561158b5761192292604051926122c9602085610760565b60008051602061415f83398151915281800960008051602061415f8339815191528180098060008051602061415f833981519152910960008051602061415f8339815191529109908160008051602061415f8339815191529109908160008051602061415f83398151915291099060008051602061415f83398151915282800960008051602061415f83398151915281800960008051602061415f8339815191529082098060008051602061415f83398151915291098060008051602061415f833981519152910960008051602061415f833981519152910960008051602061415f83398151915291099060008051602061415f8339815191528280098060008051602061415f833981519152910960008051602061415f83398151915291099060008051602061415f8339815191528280098060008051602061415f83398151915291098060008051602061415f833981519152910960008051602061415f83398151915290830960008051602061415f83398151915291099060008051602061415f8339815191528280098060008051602061415f83398151915291098060008051602061415f833981519152910960008051602061415f83398151915290830960008051602061415f8339815191529109908160008051602061415f83398151915291099060008051602061415f8339815191528280098060008051602061415f833981519152910960008051602061415f83398151915291099060008051602061415f83398151915282800960008051602061415f8339815191528180098060008051602061415f83398151915291098060008051602061415f833981519152910960008051602061415f833981519152910960008051602061415f8339815191529109908160008051602061415f83398151915291099060008051602061415f8339815191528280098060008051602061415f83398151915291098060008051602061415f833981519152910960008051602061415f83398151915291099060008051602061415f8339815191528280098060008051602061415f833981519152910960008051602061415f8339815191529083098060008051602061415f83398151915291098060008051602061415f833981519152910960008051602061415f83398151915290830960008051602061415f83398151915291099060008051602061415f83398151915282800960008051602061415f8339815191528180098060008051602061415f833981519152910960008051602061415f83398151915290820960008051602061415f8339815191529084098060008051602061415f83398151915291098060008051602061415f83398151915291098060008051602061415f83398151915291098060008051602061415f833981519152910960008051602061415f833981519152910960008051602061415f83398151915291099060008051602061415f83398151915282800960008051602061415f83398151915290830960008051602061415f83398151915291099060008051602061415f83398151915282800960008051602061415f8339815191529083098060008051602061415f833981519152910960008051602061415f83398151915281800960008051602061415f83398151915290820960008051602061415f8339815191528180098060008051602061415f83398151915291098060008051602061415f83398151915291098060008051602061415f83398151915291098060008051602061415f833981519152910960008051602061415f833981519152910960008051602061415f833981519152910960008051602061415f8339815191529109908160008051602061415f83398151915291099060008051602061415f83398151915282800960008051602061415f8339815191529109908160008051602061415f8339815191529109908160008051602061415f8339815191529109908160008051602061415f8339815191529109908160008051602061415f83398151915291099060008051602061415f83398151915282800960008051602061415f8339815191529083098060008051602061415f833981519152910960008051602061415f83398151915291099060008051602061415f8339815191528280098060008051602061415f833981519152910960008051602061415f8339815191529109908160008051602061415f83398151915291099060008051602061415f83398151915282800960008051602061415f83398151915290830960008051602061415f8339815191529109908160008051602061415f8339815191529109908160008051602061415f8339815191529109908160008051602061415f83398151915291099060008051602061415f8339815191528280098060008051602061415f833981519152910960008051602061415f83398151915290830960008051602061415f83398151915291099060008051602061415f83398151915282800960008051602061415f83398151915290830960008051602061415f8339815191529109908160008051602061415f8339815191529109908160008051602061415f8339815191529109908160008051602061415f8339815191529109908160008051602061415f83398151915291099060008051602061415f83398151915282800960008051602061415f8339815191529083098060008051602061415f833981519152910960008051602061415f8339815191529109908160008051602061415f83398151915291099060008051602061415f83398151915282800960008051602061415f8339815191529083098060008051602061415f833981519152910960008051602061415f83398151915291099060008051602061415f83398151915282800960008051602061415f8339815191528180098060008051602061415f833981519152910960008051602061415f83398151915290820960008051602061415f8339815191529084098060008051602061415f83398151915291098060008051602061415f83398151915291098060008051602061415f83398151915291098060008051602061415f833981519152910960008051602061415f833981519152910960008051602061415f8339815191529109908160008051602061415f8339815191529109908160008051602061415f8339815191529109908160008051602061415f83398151915291099060008051602061415f83398151915282800960008051602061415f8339815191529083098060008051602061415f83398151915291098060008051602061415f83398151915291098060008051602061415f833981519152910960008051602061415f83398151915290830960008051602061415f83398151915291099060008051602061415f83398151915282800960008051602061415f8339815191529083098060008051602061415f833981519152910960008051602061415f83398151915291099060008051602061415f83398151915282800960008051602061415f83398151915290830960008051602061415f8339815191529109908160008051602061415f83398151915291099060008051602061415f8339815191528280098060008051602061415f833981519152910960008051602061415f8339815191529109908160008051602061415f83398151915291099060008051602061415f83398151915282800960008051602061415f8339815191529109908160008051602061415f8339815191529109908160008051602061415f83398151915291099060008051602061415f83398151915282800960008051602061415f83398151915290830960008051602061415f8339815191529109908160008051602061415f83398151915291099060008051602061415f83398151915282800960008051602061415f8339815191529083098060008051602061415f83398151915291098060008051602061415f833981519152910960008051602061415f83398151915291099060008051602061415f8339815191528280098060008051602061415f83398151915291098060008051602061415f833981519152910960008051602061415f83398151915290830960008051602061415f8339815191529109908160008051602061415f83398151915291099060008051602061415f83398151915282800960008051602061415f8339815191528184098060008051602061415f83398151915291098060008051602061415f833981519152910960008051602061415f833981519152910960008051602061415f83398151915291099060008051602061415f83398151915282800960008051602061415f8339815191529109908160008051602061415f8339815191529109908160008051602061415f8339815191529109908160008051602061415f8339815191529109908160008051602061415f8339815191529109908160008051602061415f83398151915291099060008051602061415f83398151915282800960008051602061415f83398151915290830960008051602061415f8339815191528184098060008051602061415f83398151915291098060008051602061415f833981519152910960008051602061415f833981519152910960008051602061415f8339815191529109908160008051602061415f8339815191529109908160008051602061415f8339815191529109908160008051602061415f8339815191529109908160008051602061415f83398151915291099060008051602061415f83398151915282800960008051602061415f83398151915290830960008051602061415f8339815191529109908160008051602061415f83398151915291098060008051602061415f83398151915291098060008051602061415f83398151915291098060008051602061415f83398151915291098060008051602061415f83398151915291098060008051602061415f83398151915291098060008051602061415f83398151915291098060008051602061415f83398151915291098060008051602061415f83398151915291098060008051602061415f83398151915291098060008051602061415f83398151915291098060008051602061415f83398151915291098060008051602061415f83398151915291098060008051602061415f83398151915291098060008051602061415f83398151915291098060008051602061415f83398151915291098060008051602061415f83398151915291098060008051602061415f83398151915291098060008051602061415f83398151915291098060008051602061415f83398151915291098060008051602061415f83398151915291098060008051602061415f83398151915291098060008051602061415f83398151915291098060008051602061415f83398151915291098060008051602061415f83398151915291098060008051602061415f83398151915291098060008051602061415f83398151915291098060008051602061415f83398151915291098060008051602061415f83398151915291098060008051602061415f83398151915291098060008051602061415f83398151915291098060008051602061415f83398151915291098060008051602061415f83398151915291098060008051602061415f83398151915291098060008051602061415f83398151915291098060008051602061415f83398151915291098060008051602061415f83398151915291098060008051602061415f83398151915291098060008051602061415f83398151915291098060008051602061415f83398151915291098060008051602061415f83398151915291098060008051602061415f83398151915291098060008051602061415f83398151915291098060008051602061415f83398151915291098060008051602061415f83398151915291098060008051602061415f83398151915291098060008051602061415f83398151915291098060008051602061415f83398151915291098060008051602061415f83398151915291098060008051602061415f83398151915291098060008051602061415f83398151915291098060008051602061415f83398151915291098060008051602061415f83398151915291098060008051602061415f83398151915291098060008051602061415f83398151915291098060008051602061415f83398151915291098060008051602061415f83398151915291098060008051602061415f83398151915291098060008051602061415f83398151915291098060008051602061415f83398151915291098060008051602061415f83398151915291098060008051602061415f83398151915291098060008051602061415f83398151915291098060008051602061415f83398151915291098060008051602061415f83398151915291098060008051602061415f83398151915291098060008051602061415f83398151915291098060008051602061415f83398151915291098060008051602061415f83398151915291098060008051602061415f83398151915291098060008051602061415f83398151915291098060008051602061415f83398151915291098060008051602061415f83398151915291098060008051602061415f83398151915291098060008051602061415f83398151915291098060008051602061415f83398151915291098060008051602061415f83398151915291098060008051602061415f83398151915291098060008051602061415f83398151915291098060008051602061415f83398151915291098060008051602061415f83398151915291098060008051602061415f83398151915291098060008051602061415f83398151915291098060008051602061415f83398151915291098060008051602061415f83398151915291098060008051602061415f83398151915291098060008051602061415f83398151915291098060008051602061415f83398151915291098060008051602061415f83398151915291098060008051602061415f83398151915291098060008051602061415f83398151915291098060008051602061415f83398151915291098060008051602061415f83398151915291098060008051602061415f83398151915291098060008051602061415f83398151915291098060008051602061415f83398151915291098060008051602061415f83398151915291098060008051602061415f83398151915291098060008051602061415f83398151915291098060008051602061415f83398151915291098060008051602061415f83398151915291098060008051602061415f83398151915291098060008051602061415f83398151915291098060008051602061415f83398151915291098060008051602061415f83398151915291098060008051602061415f83398151915291098060008051602061415f83398151915291098060008051602061415f83398151915291098060008051602061415f83398151915291098060008051602061415f83398151915291098060008051602061415f83398151915291098060008051602061415f83398151915291098060008051602061415f83398151915291098060008051602061415f83398151915291098060008051602061415f83398151915291098060008051602061415f83398151915291098060008051602061415f83398151915291098060008051602061415f83398151915291098060008051602061415f83398151915291098060008051602061415f83398151915291098060008051602061415f83398151915291098060008051602061415f83398151915291098060008051602061415f83398151915291098060008051602061415f83398151915291098060008051602061415f83398151915291098060008051602061415f83398151915291098060008051602061415f833981519152910960008051602061415f833981519152910990565b9092508251825190818103613bb9575050600093926001600160a01b03821693841515955b8251811015613b2f578060051b876020808387010151928801015190613ab1575b5050600101613a86565b613ac98661044c846000526000602052604060002090565b54818110613af8578661044c6001959493613af09303936000526000602052604060002090565b559038613aa7565b6040516303dee4c560e01b81526001600160a01b038816600482015260248101919091526044810182905260648101839052608490fd5b50945060009392915060018151148414613b865760209081015191810151604080519384529183015233917fc3d58168c5ae7397731d063d5bbf3d657854427343f4c083240f7aacaa2d0f6291819081015b0390a4565b60405133927f4a39dc06d4c0dbc64b70af90fd698a233a518aa5d07e595d983b8c0526c8f7fb928291613b819183613f06565b635b05999160e01b60005260045260245260446000fd5b939291908051825190818103613bb95750506001600160a01b038516938415159360005b8351811015613c4f5780868960019360051b602080828a010151918a01015192613c22575b50505001613bf4565b613c459161044c613c3d926000526000602052604060002090565b91825461179c565b9055388981613c19565b50939095946001835114600014613ce45760208381015185820151604080519283529282015260009133917fc3d58168c5ae7397731d063d5bbf3d657854427343f4c083240f7aacaa2d0f629190a45b613caa575b50505050565b8051600103613cd35790602080613cca95930151910151916000336140be565b38808080613ca4565b613cdf93600033613f8e565b613cca565b60006040517f4a39dc06d4c0dbc64b70af90fd698a233a518aa5d07e595d983b8c0526c8f7fb339180613d18898983613f06565b0390a4613c9f565b9493929091938451825190818103613bb9575050936000906001600160a01b03871695861515956001600160a01b038616801515945b8451811015613e38578060051b90898988602080868b010151958c01015192613db1575b93600194613d8c575b50505001613d56565b613da79161044c613c3d926000526000602052604060002090565b9055388981613d83565b50509091613dcd8d61044c836000526000602052604060002090565b54828110613e01578291898f613df8600197968f95039161044c856000526000602052604060002090565b55909450613d7a565b6040516303dee4c560e01b81526001600160a01b038f16600482015260248101919091526044810183905260648101829052608490fd5b509198959392979096506001885114600014613ecc5760208881015186820151604080519283529282015233917fc3d58168c5ae7397731d063d5bbf3d657854427343f4c083240f7aacaa2d0f6291a45b613e95575b5050505050565b8451600103613ebb57602080613eb196015192015192336140be565b3880808080613e8e565b613ec794919233613f8e565b613eb1565b6040517f4a39dc06d4c0dbc64b70af90fd698a233a518aa5d07e595d983b8c0526c8f7fb339180613efe898d83613f06565b0390a4613e89565b9091613f1d61065193604084526040840190610929565b916020818403910152610929565b9081602091031261016c575161065181610503565b939061065195936001600160a01b03613f809481613f729416885216602087015260a0604087015260a0860190610929565b908482036060860152610929565b9160808184039101526105ff565b9091949293853b613fa2575b505050505050565b602093613fc491604051968795869563bc197c8160e01b875260048701613f40565b038160006001600160a01b0387165af160009181614059575b506140195750613feb611f68565b805191908261401257632bfa23e760e11b6000526001600160a01b03821660045260246000fd5b9050602001fd5b6001600160e01b0319166343e6837f60e01b0161403c5750388080808080613f9a565b632bfa23e760e11b6000526001600160a01b031660045260246000fd5b61407c91925060203d602011614083575b6140748183610760565b810190613f2b565b9038613fdd565b503d61406a565b91926001600160a01b0360a094816106519897941685521660208401526040830152606082015281608082015201906105ff565b9091949293853b6140d157505050505050565b6020936140f391604051968795869563f23a6e6160e01b87526004870161408a565b038160006001600160a01b0387165af16000918161413d575b5061411a5750613feb611f68565b6001600160e01b031916630dc5919f60e01b0161403c5750388080808080613f9a565b61415791925060203d602011614083576140748183610760565b903861410c56fe30644e72e131a029b85045b68181585d97816a916871ca8d3c208c16d87cfd47a264697066735822122063dd465d48ffa7ccd2b91f98c4b9cf83b77fe9f2de075577aa1f07ee23e0baa464736f6c634300081e0033",
  "linkReferences": {},
  "deployedLinkReferences": {}
}