{
  "_format": "hh-sol-artifact-1",
  "contractName": "LsLMSR",
  "sourceName": "contracts/NoB.sol",
  "abi": [
    {
      "inputs": [
        {
          "internalType": "address",
          "name": "_ct",
          "type": "address"
        },
        {
          "internalType": "address",
          "name": "_token",
          "type": "address"
        },
        {
          "internalType": "address",
          "name": "initialOwner",
          "type": "address"
        }
      ],
      "stateMutability": "nonpayable",
      "type": "constructor"
    },
    {
      "inputs": [
        {
          "internalType": "address",
          "name": "owner",
          "type": "address"
        }
      ],
      "name": "OwnableInvalidOwner",
      "type": "error"
    },
    {
      "inputs": [
        {
          "internalType": "address",
          "name": "account",
          "type": "address"
        }
      ],
      "name": "OwnableUnauthorizedAccount",
      "type": "error"
    },
    {
      "inputs": [
        {
          "internalType": "address",
          "name": "token",
          "type": "address"
        }
      ],
      "name": "SafeERC20FailedOperation",
      "type": "error"
    },
    {
      "anonymous": false,
      "inputs": [
        {
          "indexed": false,
          "internalType": "uint256",
          "name": "tokenCost",
          "type": "uint256"
        },
        {
          "indexed": false,
          "internalType": "int128",
          "name": "price_",
          "type": "int128"
        }
      ],
      "name": "BuyTokenCost",
      "type": "event"
    },
    {
      "anonymous": false,
      "inputs": [
        {
          "indexed": false,
          "internalType": "uint256",
          "name": "balance",
          "type": "uint256"
        }
      ],
      "name": "DebugBalanceAfter",
      "type": "event"
    },
    {
      "anonymous": false,
      "inputs": [
        {
          "indexed": false,
          "internalType": "uint256",
          "name": "balance",
          "type": "uint256"
        }
      ],
      "name": "DebugBalanceBefore",
      "type": "event"
    },
    {
      "anonymous": false,
      "inputs": [
        {
          "indexed": true,
          "internalType": "address",
          "name": "to",
          "type": "address"
        },
        {
          "indexed": false,
          "internalType": "uint256",
          "name": "amount",
          "type": "uint256"
        }
      ],
      "name": "FeesWithdrawn",
      "type": "event"
    },
    {
      "anonymous": false,
      "inputs": [
        {
          "indexed": true,
          "internalType": "address",
          "name": "user",
          "type": "address"
        },
        {
          "indexed": false,
          "internalType": "uint256",
          "name": "amount",
          "type": "uint256"
        }
      ],
      "name": "LiquidityAdded",
      "type": "event"
    },
    {
      "anonymous": false,
      "inputs": [
        {
          "indexed": true,
          "internalType": "address",
          "name": "previousOwner",
          "type": "address"
        },
        {
          "indexed": true,
          "internalType": "address",
          "name": "newOwner",
          "type": "address"
        }
      ],
      "name": "OwnershipTransferred",
      "type": "event"
    },
    {
      "inputs": [
        {
          "internalType": "uint256",
          "name": "_amount",
          "type": "uint256"
        }
      ],
      "name": "addLiquidity",
      "outputs": [],
      "stateMutability": "nonpayable",
      "type": "function"
    },
    {
      "inputs": [
        {
          "internalType": "uint256",
          "name": "_outcome",
          "type": "uint256"
        },
        {
          "internalType": "int128",
          "name": "_amount",
          "type": "int128"
        }
      ],
      "name": "buy",
      "outputs": [
        {
          "internalType": "int128",
          "name": "_price",
          "type": "int128"
        }
      ],
      "stateMutability": "nonpayable",
      "type": "function"
    },
    {
      "inputs": [],
      "name": "condition",
      "outputs": [
        {
          "internalType": "bytes32",
          "name": "",
          "type": "bytes32"
        }
      ],
      "stateMutability": "view",
      "type": "function"
    },
    {
      "inputs": [],
      "name": "cost",
      "outputs": [
        {
          "internalType": "int128",
          "name": "",
          "type": "int128"
        }
      ],
      "stateMutability": "view",
      "type": "function"
    },
    {
      "inputs": [
        {
          "internalType": "uint256",
          "name": "_outcome",
          "type": "uint256"
        },
        {
          "internalType": "int128",
          "name": "_amount",
          "type": "int128"
        }
      ],
      "name": "cost_after_buy",
      "outputs": [
        {
          "internalType": "int128",
          "name": "",
          "type": "int128"
        }
      ],
      "stateMutability": "view",
      "type": "function"
    },
    {
      "inputs": [],
      "name": "debugFees",
      "outputs": [
        {
          "internalType": "uint256",
          "name": "contractBalance",
          "type": "uint256"
        },
        {
          "internalType": "uint256",
          "name": "theoreticalCost",
          "type": "uint256"
        }
      ],
      "stateMutability": "view",
      "type": "function"
    },
    {
      "inputs": [],
      "name": "dummyVar",
      "outputs": [
        {
          "internalType": "uint256",
          "name": "",
          "type": "uint256"
        }
      ],
      "stateMutability": "view",
      "type": "function"
    },
    {
      "inputs": [
        {
          "internalType": "string",
          "name": "uniqueString",
          "type": "string"
        }
      ],
      "name": "generateQuestionId",
      "outputs": [
        {
          "internalType": "bytes32",
          "name": "",
          "type": "bytes32"
        }
      ],
      "stateMutability": "pure",
      "type": "function"
    },
    {
      "inputs": [],
      "name": "getAccumulatedFees",
      "outputs": [
        {
          "internalType": "uint256",
          "name": "",
          "type": "uint256"
        }
      ],
      "stateMutability": "view",
      "type": "function"
    },
    {
      "inputs": [],
      "name": "getLiquidityParameter",
      "outputs": [
        {
          "internalType": "int128",
          "name": "",
          "type": "int128"
        }
      ],
      "stateMutability": "view",
      "type": "function"
    },
    {
      "inputs": [
        {
          "internalType": "uint256",
          "name": "_outcome",
          "type": "uint256"
        }
      ],
      "name": "getOutcomeSharesPurchased",
      "outputs": [
        {
          "internalType": "int128",
          "name": "",
          "type": "int128"
        }
      ],
      "stateMutability": "view",
      "type": "function"
    },
    {
      "inputs": [
        {
          "internalType": "uint256",
          "name": "_outcome",
          "type": "uint256"
        }
      ],
      "name": "getPositionAndDustPositions",
      "outputs": [
        {
          "internalType": "uint256[]",
          "name": "",
          "type": "uint256[]"
        }
      ],
      "stateMutability": "view",
      "type": "function"
    },
    {
      "inputs": [
        {
          "internalType": "address",
          "name": "_token",
          "type": "address"
        },
        {
          "internalType": "uint256",
          "name": "_amount",
          "type": "uint256"
        }
      ],
      "name": "getTokenEth",
      "outputs": [
        {
          "internalType": "int128",
          "name": "",
          "type": "int128"
        }
      ],
      "stateMutability": "view",
      "type": "function"
    },
    {
      "inputs": [
        {
          "internalType": "address",
          "name": "_token",
          "type": "address"
        },
        {
          "internalType": "int128",
          "name": "_amount",
          "type": "int128"
        }
      ],
      "name": "getTokenWei",
      "outputs": [
        {
          "internalType": "uint256",
          "name": "",
          "type": "uint256"
        }
      ],
      "stateMutability": "view",
      "type": "function"
    },
    {
      "inputs": [
        {
          "internalType": "address",
          "name": "_token",
          "type": "address"
        },
        {
          "internalType": "int128",
          "name": "_amount",
          "type": "int128"
        }
      ],
      "name": "getTokenWeiDown",
      "outputs": [
        {
          "internalType": "uint256",
          "name": "",
          "type": "uint256"
        }
      ],
      "stateMutability": "view",
      "type": "function"
    },
    {
      "inputs": [
        {
          "internalType": "address",
          "name": "_token",
          "type": "address"
        },
        {
          "internalType": "int128",
          "name": "_amount",
          "type": "int128"
        }
      ],
      "name": "getTokenWeiUp",
      "outputs": [
        {
          "internalType": "uint256",
          "name": "",
          "type": "uint256"
        }
      ],
      "stateMutability": "view",
      "type": "function"
    },
    {
      "inputs": [],
      "name": "initial_subsidy",
      "outputs": [
        {
          "internalType": "int128",
          "name": "",
          "type": "int128"
        }
      ],
      "stateMutability": "view",
      "type": "function"
    },
    {
      "inputs": [],
      "name": "numOutcomes",
      "outputs": [
        {
          "internalType": "uint256",
          "name": "",
          "type": "uint256"
        }
      ],
      "stateMutability": "view",
      "type": "function"
    },
    {
      "inputs": [
        {
          "internalType": "uint256",
          "name": "_outcome",
          "type": "uint256"
        }
      ],
      "name": "odds",
      "outputs": [
        {
          "internalType": "int128",
          "name": "",
          "type": "int128"
        }
      ],
      "stateMutability": "view",
      "type": "function"
    },
    {
      "inputs": [
        {
          "internalType": "address",
          "name": "",
          "type": "address"
        },
        {
          "internalType": "address",
          "name": "",
          "type": "address"
        },
        {
          "internalType": "uint256[]",
          "name": "",
          "type": "uint256[]"
        },
        {
          "internalType": "uint256[]",
          "name": "",
          "type": "uint256[]"
        },
        {
          "internalType": "bytes",
          "name": "",
          "type": "bytes"
        }
      ],
      "name": "onERC1155BatchReceived",
      "outputs": [
        {
          "internalType": "bytes4",
          "name": "",
          "type": "bytes4"
        }
      ],
      "stateMutability": "pure",
      "type": "function"
    },
    {
      "inputs": [
        {
          "internalType": "address",
          "name": "",
          "type": "address"
        },
        {
          "internalType": "address",
          "name": "",
          "type": "address"
        },
        {
          "internalType": "uint256",
          "name": "",
          "type": "uint256"
        },
        {
          "internalType": "uint256",
          "name": "",
          "type": "uint256"
        },
        {
          "internalType": "bytes",
          "name": "",
          "type": "bytes"
        }
      ],
      "name": "onERC1155Received",
      "outputs": [
        {
          "internalType": "bytes4",
          "name": "",
          "type": "bytes4"
        }
      ],
      "stateMutability": "pure",
      "type": "function"
    },
    {
      "inputs": [],
      "name": "overround",
      "outputs": [
        {
          "internalType": "int128",
          "name": "",
          "type": "int128"
        }
      ],
      "stateMutability": "view",
      "type": "function"
    },
    {
      "inputs": [],
      "name": "owner",
      "outputs": [
        {
          "internalType": "address",
          "name": "",
          "type": "address"
        }
      ],
      "stateMutability": "view",
      "type": "function"
    },
    {
      "inputs": [
        {
          "internalType": "uint256",
          "name": "_outcome",
          "type": "uint256"
        },
        {
          "internalType": "int128",
          "name": "_amount",
          "type": "int128"
        }
      ],
      "name": "price",
      "outputs": [
        {
          "internalType": "int128",
          "name": "",
          "type": "int128"
        }
      ],
      "stateMutability": "view",
      "type": "function"
    },
    {
      "inputs": [],
      "name": "renounceOwnership",
      "outputs": [],
      "stateMutability": "nonpayable",
      "type": "function"
    },
    {
      "inputs": [
        {
          "internalType": "uint256",
          "name": "_outcome",
          "type": "uint256"
        },
        {
          "internalType": "int128",
          "name": "_amount",
          "type": "int128"
        }
      ],
      "name": "sell",
      "outputs": [
        {
          "internalType": "int128",
          "name": "refund",
          "type": "int128"
        }
      ],
      "stateMutability": "nonpayable",
      "type": "function"
    },
    {
      "inputs": [
        {
          "internalType": "uint256",
          "name": "_outcome",
          "type": "uint256"
        },
        {
          "internalType": "int128",
          "name": "_amount",
          "type": "int128"
        }
      ],
      "name": "sellingPrice",
      "outputs": [
        {
          "internalType": "int128",
          "name": "",
          "type": "int128"
        }
      ],
      "stateMutability": "view",
      "type": "function"
    },
    {
      "inputs": [
        {
          "internalType": "address",
          "name": "_oracle",
          "type": "address"
        },
        {
          "internalType": "bytes32",
          "name": "_questionId",
          "type": "bytes32"
        },
        {
          "internalType": "uint256",
          "name": "_numOutcomes",
          "type": "uint256"
        },
        {
          "internalType": "uint256",
          "name": "_subsidy",
          "type": "uint256"
        },
        {
          "internalType": "uint256",
          "name": "_overround",
          "type": "uint256"
        }
      ],
      "name": "setup",
      "outputs": [],
      "stateMutability": "nonpayable",
      "type": "function"
    },
    {
      "inputs": [
        {
          "internalType": "bytes4",
          "name": "interfaceId",
          "type": "bytes4"
        }
      ],
      "name": "supportsInterface",
      "outputs": [
        {
          "internalType": "bool",
          "name": "",
          "type": "bool"
        }
      ],
      "stateMutability": "view",
      "type": "function"
    },
    {
      "inputs": [],
      "name": "token",
      "outputs": [
        {
          "internalType": "address",
          "name": "",
          "type": "address"
        }
      ],
      "stateMutability": "view",
      "type": "function"
    },
    {
      "inputs": [
        {
          "internalType": "address",
          "name": "newOwner",
          "type": "address"
        }
      ],
      "name": "transferOwnership",
      "outputs": [],
      "stateMutability": "nonpayable",
      "type": "function"
    },
    {
      "inputs": [],
      "name": "withdraw",
      "outputs": [],
      "stateMutability": "nonpayable",
      "type": "function"
    },
    {
      "inputs": [],
      "name": "withdrawFees",
      "outputs": [],
      "stateMutability": "nonpayable",
      "type": "function"
    }
  ],
  "bytecode": "0x6080604052602a60095534801561001557600080fd5b506040516142e33803806142e38339810160408190526100349161010b565b806001600160a01b03811661006357604051631e4fbdf760e01b81526000600482015260240160405180910390fd5b61006c8161009f565b5050600780546001600160a01b039384166001600160a01b0319918216179091556008805492909316911617905561014e565b600080546001600160a01b038381166001600160a01b0319831681178455604051919092169283917f8be0079c531659141344cd1fd0a4f28419497f9722a3daafe3b4186f6b6457e09190a35050565b80516001600160a01b038116811461010657600080fd5b919050565b60008060006060848603121561012057600080fd5b610129846100ef565b9250610137602085016100ef565b9150610145604085016100ef565b90509250925092565b6141868061015d6000396000f3fe608060405234801561001057600080fd5b506004361061020b5760003560e01c80638ac407921161012a578063c5031331116100bd578063e1fc23051161008c578063f2fde38b11610071578063f2fde38b1461047f578063f76da1d914610492578063fc0c546a146104a557600080fd5b8063e1fc230514610442578063f23a6e611461045f57600080fd5b8063c503133114610405578063cd6bd6db1461040e578063d8fdb38614610422578063df7bd8fc1461042f57600080fd5b80638f54f2ae116100f95780638f54f2ae14610391578063ae92a93d146103a4578063bb6f593e146103b7578063bc197c81146103ca57600080fd5b80638ac40792146103305780638d0a6cff146103395780638d36627b146103595780638da5cb5b1461036c57600080fd5b80634c395cc4116101a2578063715018a611610171578063715018a6146103015780638062dd93146103095780638364dfef1461031c5780638767d64e1461032757600080fd5b80634c395cc4146102c057806351c6590a146102d357806352fdfecc146102e65780635df45a37146102f957600080fd5b80633ccfd60b116101de5780633ccfd60b1461028857806340088ee11461029257806346156ea0146102a5578063476343ee146102b857600080fd5b806301ffc9a714610210578063054454051461023957806310f8625a1461025a57806313faede614610280575b600080fd5b61022461021e366004613a47565b50600090565b60405190151581526020015b60405180910390f35b61024c610247366004613a9a565b6104b8565b604051908152602001610230565b61026d610268366004613acd565b6105d0565b604051600f9190910b8152602001610230565b61026d610656565b610290610700565b005b61024c6102a0366004613a9a565b61095f565b61026d6102b3366004613af7565b610a38565b610290610ae0565b61024c6102ce366004613b26565b610c58565b6102906102e1366004613af7565b610c88565b61026d6102f4366004613bdf565b610e34565b61024c610e61565b610290610f1f565b61026d610317366004613bdf565b610f33565b600354600f0b61026d565b61024c60015481565b61024c60095481565b61034c610347366004613af7565b6110d8565b6040516102309190613c3e565b61024c610367366004613a9a565b6111d5565b6000546001600160a01b03165b6040516001600160a01b039091168152602001610230565b61029061039f366004613c51565b6112ac565b61026d6103b2366004613bdf565b611615565b61026d6103c5366004613af7565b611bc9565b6103ec6103d8366004613d21565b63bc197c8160e01b98975050505050505050565b6040516001600160e01b03199091168152602001610230565b61024c60065481565b60045461026d90600160801b9004600f0b81565b60055461026d90600f0b81565b61026d61043d366004613bdf565b611c62565b61044a611c86565b60408051928352602083019190915201610230565b6103ec61046d366004613de8565b63f23a6e6160e01b9695505050505050565b61029061048d366004613e60565b611d25565b61026d6104a0366004613bdf565b611d60565b600854610379906001600160a01b031681565b600080836001600160a01b031663313ce5676040518163ffffffff1660e01b8152600401602060405180830381865afa1580156104f9573d6000803e3d6000fd5b505050506040513d601f19601f8201168201806040525081019061051d9190613e7b565b60ff169050600061052f82600a613f9b565b9050600084600f0b121561058a5760405162461bcd60e51b815260206004820152601b60248201527f416d6f756e74206d757374206265206e6f6e2d6e65676174697665000000000060448201526064015b60405180910390fd5b600061059685836122eb565b905060006105a48684612367565b67ffffffffffffffff16600f0b13156105c5576105c2600182613fa7565b90505b925050505b92915050565b600080836001600160a01b031663313ce5676040518163ffffffff1660e01b8152600401602060405180830381865afa158015610611573d6000803e3d6000fd5b505050506040513d601f19601f820116820180604052508101906106359190613e7b565b60ff16905061064e8361064983600a613f9b565b6123a7565b949350505050565b600854600090600160a01b900460ff16151560011461067457600080fd5b6000805b6001548110156106e1576106d7826106d26106cd6002858154811061069f5761069f613fba565b6000918252602090912060028204015460035460019092166010026101000a9004600f90810b91900b6123e1565b612441565b61249b565b9150600101610678565b506003546106fa90600f0b6106f5836124d7565b612367565b91505090565b600854600160a01b900460ff16151560011461071b57600080fd5b610723612511565b60075460065460405163dd34de6760e01b81526001600160a01b039092169163dd34de67916107589160040190815260200190565b602060405180830381865afa158015610775573d6000803e3d6000fd5b505050506040513d601f19601f820116820180604052508101906107999190613fd0565b6000036107e85760405162461bcd60e51b815260206004820152601b60248201527f4d61726b6574206e6565647320746f206265207265736f6c76656400000000006044820152606401610581565b600060015467ffffffffffffffff81111561080557610805613b10565b60405190808252806020026020018201604052801561082e578160200160208202803683370190505b50905060005b60015481101561086857806001901b82828151811061085557610855613fba565b6020908102919091010152600101610834565b50600754600854600654604051626dc0df60e21b81526001600160a01b03938416936301b7037c936108a593911691600091908790600401613fe9565b600060405180830381600087803b1580156108bf57600080fd5b505af11580156108d3573d6000803e3d6000fd5b50506008546040516370a0823160e01b815230600482015261095c93503392506001600160a01b03909116906370a0823190602401602060405180830381865afa158015610925573d6000803e3d6000fd5b505050506040513d601f19601f820116820180604052508101906109499190613fd0565b6008546001600160a01b0316919061253e565b50565b600080836001600160a01b031663313ce5676040518163ffffffff1660e01b8152600401602060405180830381865afa1580156109a0573d6000803e3d6000fd5b505050506040513d601f19601f820116820180604052508101906109c49190613e7b565b60ff16905060006109d682600a613f9b565b9050600084600f0b1215610a2c5760405162461bcd60e51b815260206004820152601b60248201527f416d6f756e74206d757374206265206e6f6e2d6e6567617469766500000000006044820152606401610581565b60006105c285836122eb565b60006001548210610a835760405162461bcd60e51b8152602060048201526015602482015274092dcecc2d8d2c840deeae8c6dedaca40d2dcc8caf605b1b6044820152606401610581565b6000610a9e6106cd6002858154811061069f5761069f613fba565b90506000805b600154811015610ad557610acb826106d26106cd6002858154811061069f5761069f613fba565b9150600101610aa4565b5061064e82826123e1565b610ae8612511565b6008546040516370a0823160e01b81523060048201526000916001600160a01b0316906370a0823190602401602060405180830381865afa158015610b31573d6000803e3d6000fd5b505050506040513d601f19601f82011682018060405250810190610b559190613fd0565b600854600354919250600091610b7e916001600160a01b031690600160801b9004600f0b61095f565b9050808211610bcf5760405162461bcd60e51b815260206004820152601360248201527f4e6f206665657320746f207769746864726177000000000000000000000000006044820152606401610581565b6000610bdb8284614021565b9050610c05610bf26000546001600160a01b031690565b6008546001600160a01b0316908361253e565b6000546001600160a01b03166001600160a01b03167fc0819c13be868895eb93e40eaceb96de976442fa1d404e5c55f14bb65a8c489a82604051610c4b91815260200190565b60405180910390a2505050565b600081604051602001610c6b9190614034565b604051602081830303815290604052805190602001209050919050565b610c90612511565b600854610ca8906001600160a01b03163330846125b7565b600854600090610cc1906001600160a01b0316836105d0565b905060005b600154811015610d5e57610d0f60028281548110610ce657610ce6613fba565b90600052602060002090600291828204019190066010029054906101000a9004600f0b8361249b565b60028281548110610d2257610d22613fba565b60009182526020909120600282040180546001600160801b0393841660106001948516026101000a908102940219169290921790915501610cc6565b50600454600154610d7c91600f0b906106d29084906106f5906125f6565b600480546001600160801b0319166001600160801b03929092169190911790819055610daf90600f0b6106f560016125f6565b600380546001600160801b0319166001600160801b0392909216919091179055610dd7610656565b600380546001600160801b03928316600160801b02921691909117905560405133907fc17cea59c2955cb181b03393209566960365771dbba9dc3d510180e7cb31208890610e289085815260200190565b60405180910390a25050565b6000610e438361031784614063565b600354610e5a9190600160801b9004600f0b614089565b9392505050565b6008546040516370a0823160e01b815230600482015260009182916001600160a01b03909116906370a0823190602401602060405180830381865afa158015610eae573d6000803e3d6000fd5b505050506040513d601f19601f82011682018060405250810190610ed29190613fd0565b600854600354919250600091610efb916001600160a01b031690600160801b9004600f0b61095f565b905080821115610f1657610f0f8183614021565b9250505090565b60009250505090565b610f27612511565b610f316000612614565b565b600080600060028054905067ffffffffffffffff811115610f5657610f56613b10565b604051908082528060200260200182016040528015610f7f578160200160208202803683370190505b50600454909150600f0b60005b60015481101561107c576001811b87161561101757610fe060028281548110610fb757610fb7613fba565b90600052602060002090600291828204019190066010029054906101000a9004600f0b8761249b565b838281518110610ff257610ff2613fba565b6020026020010190600f0b9081600f0b81525050611010828761249b565b9150611074565b6002818154811061102a5761102a613fba565b90600052602060002090600291828204019190066010029054906101000a9004600f0b83828151811061105f5761105f613fba565b6020026020010190600f0b9081600f0b815250505b600101610f8c565b508060005b6001548110156110bf576110b5856106d26106cd8785815181106110a7576110a7613fba565b6020026020010151866123e1565b9450600101611081565b506110cd816106f5866124d7565b979650505050505050565b60606000600180546001901b6110ee9190614021565b90506001831b811860006111018261267c565b61110c906001613fa7565b67ffffffffffffffff81111561112457611124613b10565b60405190808252806020026020018201604052801561114d578160200160208202803683370190505b509050600060019050856001901b8260008151811061116e5761116e613fba565b60200260200101818152505060005b6001548110156111ca576001811b8416156111c257806001901b8383815181106111a9576111a9613fba565b6020908102919091010152816111be816140bf565b9250505b60010161117d565b509095945050505050565b600080836001600160a01b031663313ce5676040518163ffffffff1660e01b8152600401602060405180830381865afa158015611216573d6000803e3d6000fd5b505050506040513d601f19601f8201168201806040525081019061123a9190613e7b565b60ff169050600061124c82600a613f9b565b9050600084600f0b12156112a25760405162461bcd60e51b815260206004820152601b60248201527f416d6f756e74206d757374206265206e6f6e2d6e6567617469766500000000006044820152606401610581565b6105c584826122eb565b6112b4612511565b600854600160a01b900460ff161561130e5760405162461bcd60e51b815260206004820152600c60248201527f416c726561647920696e697400000000000000000000000000000000000000006044820152606401610581565b6000811161135e5760405162461bcd60e51b815260206004820152601760248201527f43616e6e6f7420686176652030206f766572726f756e640000000000000000006044820152606401610581565b60075460405163365bb9d560e21b81526001600160a01b03878116600483015260248201879052604482018690529091169063d96ee75490606401600060405180830381600087803b1580156113b357600080fd5b505af11580156113c7573d6000803e3d6000fd5b5050600754604051634296357160e11b81526001600160a01b0389811660048301526024820189905260448201889052909116925063852c6ae29150606401602060405180830381865afa158015611423573d6000803e3d6000fd5b505050506040513d601f19601f820116820180604052508101906114479190613fd0565b600655600854611462906001600160a01b03163330856125b7565b60018390556000611472846125f6565b60085490915061148b906001600160a01b0316846105d0565b600480546001600160801b03928316600160801b0292169190911790556114b260016125f6565b600380546001600160801b0319166001600160801b03929092169190911790556004546114e990600160801b9004600f0b82612367565b600380546001600160801b0319166001600160801b039290921691909117905560005b8481101561158257600454600280546001818101835560008390529181047f405787fa12a823e0f2b7631cc41b3ba8828b3321ca811111fa75cd3aa3bb5ace0180546001600160801b03600160801b90950485169284166010026101000a9283029490920219909116929092179091550161150c565b50600880547fffffffffffffffffffffff00ffffffffffffffffffffffffffffffffffffffff16600160a01b1790556004546115c890600160801b9004600f0b82612367565b600480546001600160801b0319166001600160801b03929092169190911790556115f0610656565b600380546001600160801b03928316600160801b029216919091179055505050505050565b600854600090600160a01b900460ff16151560011461163357600080fd5b600154831061167c5760405162461bcd60e51b8152602060048201526015602482015274092dcecc2d8d2c840deeae8c6dedaca40d2dcc8caf605b1b6044820152606401610581565b600082600f0b136116cf5760405162461bcd60e51b815260206004820152601760248201527f416d6f756e74206d75737420626520706f7369746976650000000000000000006044820152606401610581565b60075460065460405163dd34de6760e01b81526001600160a01b039092169163dd34de67916117049160040190815260200190565b602060405180830381865afa158015611721573d6000803e3d6000fd5b505050506040513d601f19601f820116820180604052508101906117459190613fd0565b156117925760405162461bcd60e51b815260206004820152601760248201527f4d61726b657420616c7265616479207265736f6c7665640000000000000000006044820152606401610581565b81600f0b600284815481106117a9576117a9613fba565b6000918252602090912060028204015460019091166010026101000a9004600f0b12156118185760405162461bcd60e51b815260206004820152601960248201527f4e6f7420656e6f7567682073686172657320746f2073656c6c000000000000006044820152606401610581565b60008060006118b8600280548060200260200160405190810160405280929190818152602001828054801561188f57602002820191906000526020600020906000905b825461010083900a9004600f0b81526020601f830181900493840193600103601090930192909202910180841161185b5790505b50506004546003546001548d95508c9450600f92830b9350600160801b90910490910b906126ab565b60085492955090935091506000906118d9906001600160a01b0316876111d5565b60075460085460065460405163856296f760e01b8152600060048201819052602482019290925260018c1b6044820152939450926001600160a01b03928316926339dd7530921690839063856296f790606401602060405180830381865afa158015611949573d6000803e3d6000fd5b505050506040513d601f19601f8201168201806040525081019061196d9190613fd0565b6040516001600160e01b031960e085901b1681526001600160a01b0390921660048301526024820152604401602060405180830381865afa1580156119b6573d6000803e3d6000fd5b505050506040513d601f19601f820116820180604052508101906119da9190613fd0565b600754604051637921219560e11b8152336004820152306024820152604481018390526064810185905260a06084820152600060a48201529192506001600160a01b03169063f242432a9060c401600060405180830381600087803b158015611a4257600080fd5b505af1158015611a56573d6000803e3d6000fd5b50506007546008546006546001600160a01b039283169450639e7212ad9350911690600090611a848d6110d8565b876040518663ffffffff1660e01b8152600401611aa59594939291906140d8565b600060405180830381600087803b158015611abf57600080fd5b505af1158015611ad3573d6000803e3d6000fd5b50505050611b1660028981548110611aed57611aed613fba565b90600052602060002090600291828204019190066010029054906101000a9004600f0b88612810565b60028981548110611b2957611b29613fba565b6000918252602082206002820401805460019092166010026101000a6001600160801b03818102199093169483160293909317909255600480546001600160801b031916868416179055600380548316600160801b9389169390930292909217909155600854611ba2906001600160a01b0316866111d5565b600854909150611bbc906001600160a01b0316338361253e565b5092979650505050505050565b60006001548210611c145760405162461bcd60e51b8152602060048201526015602482015274092dcecc2d8d2c840deeae8c6dedaca40d2dcc8caf605b1b6044820152606401610581565b6105ca60028381548110611c2a57611c2a613fba565b90600052602060002090600291828204019190066010029054906101000a9004600f0b600460109054906101000a9004600f0b612810565b600354600090600160801b9004600f0b611c7c8484610f33565b610e5a9190614089565b6008546040516370a0823160e01b815230600482015260009182916001600160a01b03909116906370a0823190602401602060405180830381865afa158015611cd3573d6000803e3d6000fd5b505050506040513d601f19601f82011682018060405250810190611cf79190613fd0565b600854600354919350611d1f916001600160a01b0390911690600160801b9004600f0b61095f565b90509091565b611d2d612511565b6001600160a01b038116611d5757604051631e4fbdf760e01b815260006004820152602401610581565b61095c81612614565b600854600090600160a01b900460ff161515600114611d7e57600080fd5b6001548310611dc75760405162461bcd60e51b8152602060048201526015602482015274092dcecc2d8d2c840deeae8c6dedaca40d2dcc8caf605b1b6044820152606401610581565b600082600f0b13611e1a5760405162461bcd60e51b815260206004820152601760248201527f416d6f756e74206d75737420626520706f7369746976650000000000000000006044820152606401610581565b60075460065460405163dd34de6760e01b81526001600160a01b039092169163dd34de6791611e4f9160040190815260200190565b602060405180830381865afa158015611e6c573d6000803e3d6000fd5b505050506040513d601f19601f82011682018060405250810190611e909190613fd0565b15611edd5760405162461bcd60e51b815260206004820152601760248201527f4d61726b657420616c7265616479207265736f6c7665640000000000000000006044820152606401610581565b6000806000611f7d6002805480602002602001604051908101604052809291908181526020018280548015611f5457602002820191906000526020600020906000905b825461010083900a9004600f0b81526020601f8301819004938401936001036010909301929092029101808411611f205790505b50506004546003546001548d95508c9450600f92830b9350600160801b90910490910b9061284c565b9250925092506000611f9d611f9260016125f6565b600554600f0b61249b565b90506000611fab8483612367565b600854909150600090611fc7906001600160a01b0316836104b8565b60408051828152600f85900b60208201529192507fbd58a27f98d614697f8a2d66c4c15779b5c06324bdc1f23994d9e5f93a537a4d910160405180910390a16008546040516370a0823160e01b81523060048201526000916001600160a01b0316906370a0823190602401602060405180830381865afa15801561204f573d6000803e3d6000fd5b505050506040513d601f19601f820116820180604052508101906120739190613fd0565b90507f5399a3798e256ef861ea157d94c1f65d252a2f7e8e3a39020217ddbcba1f00aa816040516120a691815260200190565b60405180910390a16008546040516323b872dd60e01b8152336004820152306024820152604481018490526001600160a01b03909116906323b872dd906064016020604051808303816000875af1158015612105573d6000803e3d6000fd5b505050506040513d601f19601f820116820180604052508101906121299190614118565b6121755760405162461bcd60e51b815260206004820152601960248201527f4572726f72207472616e7366657272696e6720746f6b656e73000000000000006044820152606401610581565b6008546040516370a0823160e01b81523060048201526000916001600160a01b0316906370a0823190602401602060405180830381865afa1580156121be573d6000803e3d6000fd5b505050506040513d601f19601f820116820180604052508101906121e29190613fd0565b90507fb2813f3b9bdb2145860dd676eaf75e91f6fb2c4f19a01c1c9183a4fb41c066688160405161221591815260200190565b60405180910390a161225c60028c8154811061223357612233613fba565b90600052602060002090600291828204019190066010029054906101000a9004600f0b8b61249b565b60028c8154811061226f5761226f613fba565b600091825260209091206002820401805460019092166010026101000a6001600160801b03818102199093169383160292909217909155600480546001600160801b031916888316179055600380548216600160801b928b16929092029190911790556122dc8b8b612992565b50919998505050505050505050565b6000816000036122fd575060006105ca565b600083600f0b121561230e57600080fd5b600f83900b6001600160801b038316810260401c90608084901c0277ffffffffffffffffffffffffffffffffffffffffffffffff81111561234e57600080fd5b60401b811981111561235f57600080fd5b019392505050565b6000600f83810b9083900b0260401d6f7fffffffffffffffffffffffffffffff19811280159061239e575060016001607f1b038113155b610e5a57600080fd5b6000816000036123b657600080fd5b60006123c28484612cbd565b905060016001607f1b036001600160801b0382161115610e5a57600080fd5b600081600f0b6000036123f357600080fd5b600082600f0b604085600f0b901b8161240e5761240e61413a565b0590506f7fffffffffffffffffffffffffffffff19811280159061239e575060016001607f1b03811315610e5a57600080fd5b60006840000000000000000082600f0b1261245b57600080fd5b683fffffffffffffffff1982600f0b121561247857506000919050565b6105ca608083600f0b700171547652b82fe1777d0ffda0d23a7d1202901d612e33565b6000600f83810b9083900b016f7fffffffffffffffffffffffffffffff19811280159061239e575060016001607f1b03811315610e5a57600080fd5b60008082600f0b136124e857600080fd5b60806124f3836138fd565b600f0b6fb17217f7d1cf79abc9e3b39803f2f6af02901c9050919050565b6000546001600160a01b03163314610f315760405163118cdaa760e01b8152336004820152602401610581565b6040516001600160a01b038381166024830152604482018390526125b291859182169063a9059cbb906064015b604051602081830303815290604052915060e01b6020820180517bffffffffffffffffffffffffffffffffffffffffffffffffffffffff83818316178352505050506139d6565b505050565b6040516001600160a01b0384811660248301528381166044830152606482018390526125f09186918216906323b872dd9060840161256b565b50505050565b6000677fffffffffffffff82111561260d57600080fd5b5060401b90565b600080546001600160a01b038381167fffffffffffffffffffffffff0000000000000000000000000000000000000000831681178455604051919092169283917f8be0079c531659141344cd1fd0a4f28419497f9722a3daafe3b4186f6b6457e09190a35050565b60005b81156126a657612690600183614021565b909116908061269e816140bf565b91505061267f565b919050565b6000806000808467ffffffffffffffff8111156126ca576126ca613b10565b6040519080825280602002602001820160405280156126f3578160200160208202803683370190505b50905060005b85811015612748578a818151811061271357612713613fba565b602002602001015182828151811061272d5761272d613fba565b600f9290920b602092830291909101909101526001016126f9565b5061276c818a8151811061275e5761275e613fba565b602002602001015189612810565b818a8151811061277e5761277e613fba565b6020026020010190600f0b9081600f0b8152505061279c8789612810565b600354909250600f0b6000805b878110156127e5576127db826106d26106cd8785815181106127cd576127cd613fba565b6020026020010151876123e1565b91506001016127a9565b506127f3826106f5836124d7565b95506127ff8887612810565b945050505096509650969350505050565b6000600f82810b9084900b036f7fffffffffffffffffffffffffffffff19811280159061239e575060016001607f1b03811315610e5a57600080fd5b6000806000808467ffffffffffffffff81111561286b5761286b613b10565b604051908082528060200260200182016040528015612894578160200160208202803683370190505b50905060005b858110156128e9578a81815181106128b4576128b4613fba565b60200260200101518282815181106128ce576128ce613fba565b600f9290920b6020928302919091019091015260010161289a565b5061290d818a815181106128ff576128ff613fba565b60200260200101518961249b565b818a8151811061291f5761291f613fba565b6020026020010190600f0b9081600f0b8152505061293d878961249b565b600354909250600f0b6000805b878110156129785761296e826106d26106cd8785815181106127cd576127cd613fba565b915060010161294a565b50612986826106f5836124d7565b95506127ff8689612810565b6008546000906129ab906001600160a01b0316836104b8565b60075460085460065460405163856296f760e01b815260006004820181905260248201929092526001881b6044820152939450926001600160a01b03928316926339dd7530921690839063856296f790606401602060405180830381865afa158015612a1b573d6000803e3d6000fd5b505050506040513d601f19601f82011682018060405250810190612a3f9190613fd0565b6040516001600160e01b031960e085901b1681526001600160a01b0390921660048301526024820152604401602060405180830381865afa158015612a88573d6000803e3d6000fd5b505050506040513d601f19601f82011682018060405250810190612aac9190613fd0565b600754604051627eeac760e11b81523060048201526024810183905291925083916001600160a01b039091169062fdd58e90604401602060405180830381865afa158015612afe573d6000803e3d6000fd5b505050506040513d601f19601f82011682018060405250810190612b229190613fd0565b1015612c38576008546007546001600160a01b039182169163095ea7b39116612b4b83876104b8565b6040516001600160e01b031960e085901b1681526001600160a01b03909216600483015260248201526044016020604051808303816000875af1158015612b96573d6000803e3d6000fd5b505050506040513d601f19601f82011682018060405250810190612bba9190614118565b506007546008546006546001600160a01b03928316926372ce4275921690600090612be4896110d8565b876040518663ffffffff1660e01b8152600401612c059594939291906140d8565b600060405180830381600087803b158015612c1f57600080fd5b505af1158015612c33573d6000803e3d6000fd5b505050505b600754604051637921219560e11b8152306004820152336024820152604481018390526064810184905260a06084820152600060a48201526001600160a01b039091169063f242432a9060c401600060405180830381600087803b158015612c9f57600080fd5b505af1158015612cb3573d6000803e3d6000fd5b5050505050505050565b600081600003612ccc57600080fd5b600077ffffffffffffffffffffffffffffffffffffffffffffffff8411612d085782604085901b81612d0057612d0061413a565b049050612e1f565b60c084811c6401000000008110612d21576020918201911c5b620100008110612d33576010918201911c5b6101008110612d44576008918201911c5b60108110612d54576004918201911c5b60048110612d64576002918201911c5b60028110612d73576001820191505b60bf820360018603901c6001018260ff0387901b81612d9457612d9461413a565b0492506001600160801b03831115612dab57600080fd5b608085901c83026001600160801b038616840260c088901c604089901b82811015612dd7576001820391505b608084901b92900382811015612dee576001820391505b829003608084901c8214612e03576001612e14565b888181612e1257612e1261413a565b045b870196505050505050505b6001600160801b03811115610e5a57600080fd5b60006840000000000000000082600f0b12612e4d57600080fd5b683fffffffffffffffff1982600f0b1215612e6a57506000919050565b6f8000000000000000000000000000000060006780000000000000008416600f0b1315612ea85770016a09e667f3bcc908b2fb1366ea957d3e0260801c5b60008367400000000000000016600f0b1315612ed5577001306fe0a31b7152de8d5a46305c85edec0260801c5b60008367200000000000000016600f0b1315612f02577001172b83c7d517adcdf7c8c50eb14a791f0260801c5b60008367100000000000000016600f0b1315612f2f5770010b5586cf9890f6298b92b71842a983630260801c5b60008367080000000000000016600f0b1315612f5c577001059b0d31585743ae7c548eb68ca417fd0260801c5b60008367040000000000000016600f0b1315612f8957700102c9a3e778060ee6f7caca4f7a29bde80260801c5b60008367020000000000000016600f0b1315612fb65770010163da9fb33356d84a66ae336dcdfa3f0260801c5b60008367010000000000000016600f0b1315612fe357700100b1afa5abcbed6129ab13ec11dc95430260801c5b600083668000000000000016600f0b131561300f5770010058c86da1c09ea1ff19d294cf2f679b0260801c5b600083664000000000000016600f0b131561303b577001002c605e2e8cec506d21bfc89a23a00f0260801c5b600083662000000000000016600f0b131561306757700100162f3904051fa128bca9c55c31e5df0260801c5b600083661000000000000016600f0b1315613093577001000b175effdc76ba38e31671ca9397250260801c5b600083660800000000000016600f0b13156130bf57700100058ba01fb9f96d6cacd4b180917c3d0260801c5b600083660400000000000016600f0b13156130eb5770010002c5cc37da9491d0985c348c68e7b30260801c5b600083660200000000000016600f0b1315613117577001000162e525ee054754457d59952920260260801c5b600083660100000000000016600f0b13156131435770010000b17255775c040618bf4a4ade83fc0260801c5b6000836580000000000016600f0b131561316e577001000058b91b5bc9ae2eed81e9b7d4cfab0260801c5b6000836540000000000016600f0b131561319957700100002c5c89d5ec6ca4d7c8acc017b7c90260801c5b6000836520000000000016600f0b13156131c45770010000162e43f4f831060e02d839a9d16d0260801c5b6000836510000000000016600f0b13156131ef57700100000b1721bcfc99d9f890ea069117630260801c5b6000836508000000000016600f0b131561321a5770010000058b90cf1e6d97f9ca14dbcc16280260801c5b6000836504000000000016600f0b1315613245577001000002c5c863b73f016468f6bac5ca2b0260801c5b6000836502000000000016600f0b131561327057700100000162e430e5a18f6119e3c02282a50260801c5b6000836501000000000016600f0b131561329b577001000000b1721835514b86e6d96efd1bfe0260801c5b60008364800000000016600f0b13156132c557700100000058b90c0b48c6be5df846c5b2ef0260801c5b60008364400000000016600f0b13156132ef5770010000002c5c8601cc6b9e94213c72737a0260801c5b60008364200000000016600f0b1315613319577001000000162e42fff037df38aa2b219f060260801c5b60008364100000000016600f0b13156133435770010000000b17217fba9c739aa5819f44f90260801c5b60008364080000000016600f0b131561336d577001000000058b90bfcdee5acd3c1cedc8230260801c5b60008364040000000016600f0b131561339757700100000002c5c85fe31f35a6a30da1be500260801c5b60008364020000000016600f0b13156133c15770010000000162e42ff0999ce3541b9fffcf0260801c5b60008364010000000016600f0b13156133eb57700100000000b17217f80f4ef5aadda455540260801c5b600083638000000016600f0b13156134145770010000000058b90bfbf8479bd5a81b51ad0260801c5b600083634000000016600f0b131561343d577001000000002c5c85fdf84bd62ae30a74cc0260801c5b600083632000000016600f0b131561346657700100000000162e42fefb2fed257559bdaa0260801c5b600083631000000016600f0b131561348f577001000000000b17217f7d5a7716bba4a9ae0260801c5b600083630800000016600f0b13156134b857700100000000058b90bfbe9ddbac5e109cce0260801c5b600083630400000016600f0b13156134e15770010000000002c5c85fdf4b15de6f17eb0d0260801c5b600083630200000016600f0b131561350a577001000000000162e42fefa494f1478fde050260801c5b600083630100000016600f0b13156135335770010000000000b17217f7d20cf927c8e94c0260801c5b6000836280000016600f0b131561355b577001000000000058b90bfbe8f71cb4e4b33d0260801c5b6000836240000016600f0b131561358357700100000000002c5c85fdf477b662b269450260801c5b6000836220000016600f0b13156135ab5770010000000000162e42fefa3ae53369388c0260801c5b6000836210000016600f0b13156135d357700100000000000b17217f7d1d351a389d400260801c5b6000836208000016600f0b13156135fb5770010000000000058b90bfbe8e8b2d3d4ede0260801c5b6000836204000016600f0b1315613623577001000000000002c5c85fdf4741bea6e77e0260801c5b6000836202000016600f0b131561364b57700100000000000162e42fefa39fe95583c20260801c5b6000836201000016600f0b1315613673577001000000000000b17217f7d1cfb72b45e10260801c5b60008361800016600f0b131561369a57700100000000000058b90bfbe8e7cc35c3f00260801c5b60008361400016600f0b13156136c15770010000000000002c5c85fdf473e242ea380260801c5b60008361200016600f0b13156136e8577001000000000000162e42fefa39f02b772c0260801c5b60008361100016600f0b131561370f5770010000000000000b17217f7d1cf7d83c1a0260801c5b60008361080016600f0b1315613736577001000000000000058b90bfbe8e7bdcbe2e0260801c5b60008361040016600f0b131561375d57700100000000000002c5c85fdf473dea871f0260801c5b60008361020016600f0b13156137845770010000000000000162e42fefa39ef44d910260801c5b60008361010016600f0b13156137ab57700100000000000000b17217f7d1cf79e9490260801c5b600083608016600f0b13156137d15770010000000000000058b90bfbe8e7bce5440260801c5b600083604016600f0b13156137f7577001000000000000002c5c85fdf473de6eca0260801c5b600083602016600f0b131561381d57700100000000000000162e42fefa39ef366f0260801c5b600083601016600f0b1315613843577001000000000000000b17217f7d1cf79afa0260801c5b600083600816600f0b131561386957700100000000000000058b90bfbe8e7bcd6d0260801c5b600083600416600f0b131561388f5770010000000000000002c5c85fdf473de6b20260801c5b600083600216600f0b13156138b5577001000000000000000162e42fefa39ef3580260801c5b600083600116600f0b13156138db5770010000000000000000b17217f7d1cf79ab0260801c5b600f83810b60401d603f03900b1c60016001607f1b038111156105ca57600080fd5b60008082600f0b1361390e57600080fd5b6000600f83900b68010000000000000000811261392d576040918201911d5b6401000000008112613941576020918201911d5b620100008112613953576010918201911d5b6101008112613964576008918201911d5b60108112613974576004918201911d5b60048112613984576002918201911d5b60028112613993576001820191505b603f19820160401b600f85900b607f8490031b6780000000000000005b60008113156111ca5790800260ff81901c8281029390930192607f011c9060011d6139b0565b600080602060008451602086016000885af1806139f9576040513d6000823e3d81fd5b50506000513d91508115613a11578060011415613a1e565b6001600160a01b0384163b155b156125f057604051635274afe760e01b81526001600160a01b0385166004820152602401610581565b600060208284031215613a5957600080fd5b81356001600160e01b031981168114610e5a57600080fd5b80356001600160a01b03811681146126a657600080fd5b8035600f81900b81146126a657600080fd5b60008060408385031215613aad57600080fd5b613ab683613a71565b9150613ac460208401613a88565b90509250929050565b60008060408385031215613ae057600080fd5b613ae983613a71565b946020939093013593505050565b600060208284031215613b0957600080fd5b5035919050565b634e487b7160e01b600052604160045260246000fd5b600060208284031215613b3857600080fd5b813567ffffffffffffffff811115613b4f57600080fd5b8201601f81018413613b6057600080fd5b803567ffffffffffffffff811115613b7a57613b7a613b10565b604051601f8201601f19908116603f0116810167ffffffffffffffff81118282101715613ba957613ba9613b10565b604052818152828201602001861015613bc157600080fd5b81602084016020830137600091810160200191909152949350505050565b60008060408385031215613bf257600080fd5b82359150613ac460208401613a88565b600081518084526020840193506020830160005b82811015613c34578151865260209586019590910190600101613c16565b5093949350505050565b602081526000610e5a6020830184613c02565b600080600080600060a08688031215613c6957600080fd5b613c7286613a71565b97602087013597506040870135966060810135965060800135945092505050565b60008083601f840112613ca557600080fd5b50813567ffffffffffffffff811115613cbd57600080fd5b6020830191508360208260051b8501011115613cd857600080fd5b9250929050565b60008083601f840112613cf157600080fd5b50813567ffffffffffffffff811115613d0957600080fd5b602083019150836020828501011115613cd857600080fd5b60008060008060008060008060a0898b031215613d3d57600080fd5b613d4689613a71565b9750613d5460208a01613a71565b9650604089013567ffffffffffffffff811115613d7057600080fd5b613d7c8b828c01613c93565b909750955050606089013567ffffffffffffffff811115613d9c57600080fd5b613da88b828c01613c93565b909550935050608089013567ffffffffffffffff811115613dc857600080fd5b613dd48b828c01613cdf565b999c989b5096995094979396929594505050565b60008060008060008060a08789031215613e0157600080fd5b613e0a87613a71565b9550613e1860208801613a71565b94506040870135935060608701359250608087013567ffffffffffffffff811115613e4257600080fd5b613e4e89828a01613cdf565b979a9699509497509295939492505050565b600060208284031215613e7257600080fd5b610e5a82613a71565b600060208284031215613e8d57600080fd5b815160ff81168114610e5a57600080fd5b634e487b7160e01b600052601160045260246000fd5b6001815b6001841115613eef57808504811115613ed357613ed3613e9e565b6001841615613ee157908102905b60019390931c928002613eb8565b935093915050565b600082613f06575060016105ca565b81613f13575060006105ca565b8160018114613f295760028114613f3357613f4f565b60019150506105ca565b60ff841115613f4457613f44613e9e565b50506001821b6105ca565b5060208310610133831016604e8410600b8410161715613f72575081810a6105ca565b613f7f6000198484613eb4565b8060001904821115613f9357613f93613e9e565b029392505050565b6000610e5a8383613ef7565b808201808211156105ca576105ca613e9e565b634e487b7160e01b600052603260045260246000fd5b600060208284031215613fe257600080fd5b5051919050565b6001600160a01b03851681528360208201528260408201526080606082015260006140176080830184613c02565b9695505050505050565b818103818111156105ca576105ca613e9e565b6000825160005b81811015614055576020818601810151858301520161403b565b506000920191825250919050565b600081600f0b60016001607f1b0319810361408057614080613e9e565b60000392915050565b600f82810b9082900b036f7fffffffffffffffffffffffffffffff19811260016001607f1b03821317156105ca576105ca613e9e565b6000600182016140d1576140d1613e9e565b5060010190565b6001600160a01b038616815284602082015283604082015260a06060820152600061410660a0830185613c02565b90508260808301529695505050505050565b60006020828403121561412a57600080fd5b81518015158114610e5a57600080fd5b634e487b7160e01b600052601260045260246000fdfea26469706673582212208890fb74b20cd994d335d094b5d64f4aaada050291d9dc33427a374f93644e1b64736f6c634300081e0033",
  "linkReferences": {},
  "deployedLinkReferences": {}
}