{
  "abi": [
    {
      "inputs": [
        {
          "internalType": "address",
          "name": "_ct",
          "type": "address"
        },
        {
          "internalType": "address",
          "name": "_token",
          "type": "address"
        },
        {
          "internalType": "address",
          "name": "initialOwner",
          "type": "address"
        }
      ],
      "stateMutability": "nonpayable",
      "type": "constructor"
    },
    {
      "inputs": [
        {
          "internalType": "address",
          "name": "owner",
          "type": "address"
        }
      ],
      "name": "OwnableInvalidOwner",
      "type": "error"
    },
    {
      "inputs": [
        {
          "internalType": "address",
          "name": "account",
          "type": "address"
        }
      ],
      "name": "OwnableUnauthorizedAccount",
      "type": "error"
    },
    {
      "inputs": [
        {
          "internalType": "address",
          "name": "token",
          "type": "address"
        }
      ],
      "name": "SafeERC20FailedOperation",
      "type": "error"
    },
    {
      "anonymous": false,
      "inputs": [
        {
          "indexed": false,
          "internalType": "uint256",
          "name": "tokenCost",
          "type": "uint256"
        },
        {
          "indexed": false,
          "internalType": "int128",
          "name": "price_",
          "type": "int128"
        }
      ],
      "name": "BuyTokenCost",
      "type": "event"
    },
    {
      "anonymous": false,
      "inputs": [
        {
          "indexed": false,
          "internalType": "uint256",
          "name": "balance",
          "type": "uint256"
        }
      ],
      "name": "DebugBalanceAfter",
      "type": "event"
    },
    {
      "anonymous": false,
      "inputs": [
        {
          "indexed": false,
          "internalType": "uint256",
          "name": "balance",
          "type": "uint256"
        }
      ],
      "name": "DebugBalanceBefore",
      "type": "event"
    },
    {
      "anonymous": false,
      "inputs": [
        {
          "indexed": false,
          "internalType": "uint256",
          "name": "userPayment",
          "type": "uint256"
        },
        {
          "indexed": false,
          "internalType": "uint256",
          "name": "outcomeTokens",
          "type": "uint256"
        },
        {
          "indexed": false,
          "internalType": "uint256",
          "name": "contractBalance",
          "type": "uint256"
        },
        {
          "indexed": false,
          "internalType": "uint256",
          "name": "requiredCollateral",
          "type": "uint256"
        }
      ],
      "name": "DebugCollateralization",
      "type": "event"
    },
    {
      "anonymous": false,
      "inputs": [
        {
          "indexed": false,
          "internalType": "uint256",
          "name": "outcomeTokens",
          "type": "uint256"
        },
        {
          "indexed": false,
          "internalType": "uint256",
          "name": "balanceBefore",
          "type": "uint256"
        },
        {
          "indexed": false,
          "internalType": "uint256",
          "name": "balanceAfter",
          "type": "uint256"
        },
        {
          "indexed": false,
          "internalType": "int128",
          "name": "refund",
          "type": "int128"
        }
      ],
      "name": "DebugMergePositions",
      "type": "event"
    },
    {
      "anonymous": false,
      "inputs": [
        {
          "indexed": false,
          "internalType": "uint256",
          "name": "outcome",
          "type": "uint256"
        },
        {
          "indexed": false,
          "internalType": "uint256",
          "name": "contractBalance",
          "type": "uint256"
        },
        {
          "indexed": false,
          "internalType": "uint256",
          "name": "neededTokens",
          "type": "uint256"
        },
        {
          "indexed": false,
          "internalType": "bool",
          "name": "willMint",
          "type": "bool"
        }
      ],
      "name": "DebugMinting",
      "type": "event"
    },
    {
      "anonymous": false,
      "inputs": [
        {
          "indexed": false,
          "internalType": "uint256",
          "name": "userBalance",
          "type": "uint256"
        },
        {
          "indexed": false,
          "internalType": "uint256",
          "name": "requestedAmount",
          "type": "uint256"
        },
        {
          "indexed": false,
          "internalType": "uint256",
          "name": "outcomeTokens",
          "type": "uint256"
        },
        {
          "indexed": false,
          "internalType": "int128",
          "name": "refund",
          "type": "int128"
        }
      ],
      "name": "DebugSellAttempt",
      "type": "event"
    },
    {
      "anonymous": false,
      "inputs": [
        {
          "indexed": true,
          "internalType": "address",
          "name": "to",
          "type": "address"
        },
        {
          "indexed": false,
          "internalType": "uint256",
          "name": "amount",
          "type": "uint256"
        }
      ],
      "name": "FeesWithdrawn",
      "type": "event"
    },
    {
      "anonymous": false,
      "inputs": [
        {
          "indexed": true,
          "internalType": "address",
          "name": "user",
          "type": "address"
        },
        {
          "indexed": false,
          "internalType": "uint256",
          "name": "amount",
          "type": "uint256"
        }
      ],
      "name": "LiquidityAdded",
      "type": "event"
    },
    {
      "anonymous": false,
      "inputs": [
        {
          "indexed": true,
          "internalType": "address",
          "name": "previousOwner",
          "type": "address"
        },
        {
          "indexed": true,
          "internalType": "address",
          "name": "newOwner",
          "type": "address"
        }
      ],
      "name": "OwnershipTransferred",
      "type": "event"
    },
    {
      "anonymous": false,
      "inputs": [
        {
          "indexed": false,
          "internalType": "string",
          "name": "context",
          "type": "string"
        },
        {
          "indexed": false,
          "internalType": "string",
          "name": "reason",
          "type": "string"
        }
      ],
      "name": "SplitPositionError",
      "type": "event"
    },
    {
      "inputs": [
        {
          "internalType": "uint256",
          "name": "_amount",
          "type": "uint256"
        }
      ],
      "name": "addLiquidity",
      "outputs": [],
      "stateMutability": "nonpayable",
      "type": "function"
    },
    {
      "inputs": [
        {
          "internalType": "uint256",
          "name": "_outcome",
          "type": "uint256"
        },
        {
          "internalType": "int128",
          "name": "_amount",
          "type": "int128"
        }
      ],
      "name": "buy",
      "outputs": [
        {
          "internalType": "int128",
          "name": "_price",
          "type": "int128"
        }
      ],
      "stateMutability": "nonpayable",
      "type": "function"
    },
    {
      "inputs": [
        {
          "internalType": "uint256",
          "name": "_outcome",
          "type": "uint256"
        },
        {
          "internalType": "uint256",
          "name": "_betAmount",
          "type": "uint256"
        }
      ],
      "name": "calculateSharesFromBetAmount",
      "outputs": [
        {
          "internalType": "uint256",
          "name": "shares",
          "type": "uint256"
        }
      ],
      "stateMutability": "view",
      "type": "function"
    },
    {
      "inputs": [],
      "name": "condition",
      "outputs": [
        {
          "internalType": "bytes32",
          "name": "",
          "type": "bytes32"
        }
      ],
      "stateMutability": "view",
      "type": "function"
    },
    {
      "inputs": [],
      "name": "cost",
      "outputs": [
        {
          "internalType": "int128",
          "name": "",
          "type": "int128"
        }
      ],
      "stateMutability": "view",
      "type": "function"
    },
    {
      "inputs": [
        {
          "internalType": "uint256",
          "name": "_outcome",
          "type": "uint256"
        },
        {
          "internalType": "int128",
          "name": "_amount",
          "type": "int128"
        }
      ],
      "name": "cost_after_buy",
      "outputs": [
        {
          "internalType": "int128",
          "name": "",
          "type": "int128"
        }
      ],
      "stateMutability": "view",
      "type": "function"
    },
    {
      "inputs": [],
      "name": "debugFees",
      "outputs": [
        {
          "internalType": "uint256",
          "name": "contractBalance",
          "type": "uint256"
        },
        {
          "internalType": "uint256",
          "name": "theoreticalCost",
          "type": "uint256"
        }
      ],
      "stateMutability": "view",
      "type": "function"
    },
    {
      "inputs": [],
      "name": "dummyVar",
      "outputs": [
        {
          "internalType": "uint256",
          "name": "",
          "type": "uint256"
        }
      ],
      "stateMutability": "view",
      "type": "function"
    },
    {
      "inputs": [
        {
          "internalType": "bytes32",
          "name": "_questionId",
          "type": "bytes32"
        }
      ],
      "name": "freezeMarket",
      "outputs": [],
      "stateMutability": "nonpayable",
      "type": "function"
    },
    {
      "inputs": [
        {
          "internalType": "string",
          "name": "uniqueString",
          "type": "string"
        }
      ],
      "name": "generateQuestionId",
      "outputs": [
        {
          "internalType": "bytes32",
          "name": "",
          "type": "bytes32"
        }
      ],
      "stateMutability": "pure",
      "type": "function"
    },
    {
      "inputs": [],
      "name": "getAccumulatedFees",
      "outputs": [
        {
          "internalType": "uint256",
          "name": "",
          "type": "uint256"
        }
      ],
      "stateMutability": "view",
      "type": "function"
    },
    {
      "inputs": [],
      "name": "getLiquidityParameter",
      "outputs": [
        {
          "internalType": "int128",
          "name": "",
          "type": "int128"
        }
      ],
      "stateMutability": "view",
      "type": "function"
    },
    {
      "inputs": [
        {
          "internalType": "uint256",
          "name": "_outcome",
          "type": "uint256"
        }
      ],
      "name": "getOutcomeSharesPurchased",
      "outputs": [
        {
          "internalType": "int128",
          "name": "",
          "type": "int128"
        }
      ],
      "stateMutability": "view",
      "type": "function"
    },
    {
      "inputs": [
        {
          "internalType": "uint256",
          "name": "_outcome",
          "type": "uint256"
        }
      ],
      "name": "getPositionAndDustPositions",
      "outputs": [
        {
          "internalType": "uint256[]",
          "name": "",
          "type": "uint256[]"
        }
      ],
      "stateMutability": "view",
      "type": "function"
    },
    {
      "inputs": [],
      "name": "getPositionIds",
      "outputs": [
        {
          "internalType": "uint256",
          "name": "positionId0",
          "type": "uint256"
        },
        {
          "internalType": "uint256",
          "name": "positionId1",
          "type": "uint256"
        }
      ],
      "stateMutability": "view",
      "type": "function"
    },
    {
      "inputs": [
        {
          "internalType": "uint256",
          "name": "_outcome",
          "type": "uint256"
        }
      ],
      "name": "getPositionInfo",
      "outputs": [
        {
          "internalType": "uint256",
          "name": "positionId",
          "type": "uint256"
        },
        {
          "internalType": "uint256",
          "name": "balance",
          "type": "uint256"
        }
      ],
      "stateMutability": "view",
      "type": "function"
    },
    {
      "inputs": [
        {
          "internalType": "address",
          "name": "_token",
          "type": "address"
        },
        {
          "internalType": "uint256",
          "name": "_amount",
          "type": "uint256"
        }
      ],
      "name": "getTokenEth",
      "outputs": [
        {
          "internalType": "int128",
          "name": "",
          "type": "int128"
        }
      ],
      "stateMutability": "view",
      "type": "function"
    },
    {
      "inputs": [
        {
          "internalType": "address",
          "name": "_token",
          "type": "address"
        },
        {
          "internalType": "int128",
          "name": "_amount",
          "type": "int128"
        }
      ],
      "name": "getTokenWei",
      "outputs": [
        {
          "internalType": "uint256",
          "name": "",
          "type": "uint256"
        }
      ],
      "stateMutability": "view",
      "type": "function"
    },
    {
      "inputs": [
        {
          "internalType": "address",
          "name": "_token",
          "type": "address"
        },
        {
          "internalType": "int128",
          "name": "_amount",
          "type": "int128"
        }
      ],
      "name": "getTokenWeiDown",
      "outputs": [
        {
          "internalType": "uint256",
          "name": "",
          "type": "uint256"
        }
      ],
      "stateMutability": "view",
      "type": "function"
    },
    {
      "inputs": [
        {
          "internalType": "address",
          "name": "_token",
          "type": "address"
        },
        {
          "internalType": "int128",
          "name": "_amount",
          "type": "int128"
        }
      ],
      "name": "getTokenWeiUp",
      "outputs": [
        {
          "internalType": "uint256",
          "name": "",
          "type": "uint256"
        }
      ],
      "stateMutability": "view",
      "type": "function"
    },
    {
      "inputs": [],
      "name": "initial_subsidy",
      "outputs": [
        {
          "internalType": "int128",
          "name": "",
          "type": "int128"
        }
      ],
      "stateMutability": "view",
      "type": "function"
    },
    {
      "inputs": [],
      "name": "numOutcomes",
      "outputs": [
        {
          "internalType": "uint256",
          "name": "",
          "type": "uint256"
        }
      ],
      "stateMutability": "view",
      "type": "function"
    },
    {
      "inputs": [
        {
          "internalType": "uint256",
          "name": "_outcome",
          "type": "uint256"
        }
      ],
      "name": "odds",
      "outputs": [
        {
          "internalType": "int128",
          "name": "",
          "type": "int128"
        }
      ],
      "stateMutability": "view",
      "type": "function"
    },
    {
      "inputs": [
        {
          "internalType": "address",
          "name": "",
          "type": "address"
        },
        {
          "internalType": "address",
          "name": "",
          "type": "address"
        },
        {
          "internalType": "uint256[]",
          "name": "",
          "type": "uint256[]"
        },
        {
          "internalType": "uint256[]",
          "name": "",
          "type": "uint256[]"
        },
        {
          "internalType": "bytes",
          "name": "",
          "type": "bytes"
        }
      ],
      "name": "onERC1155BatchReceived",
      "outputs": [
        {
          "internalType": "bytes4",
          "name": "",
          "type": "bytes4"
        }
      ],
      "stateMutability": "pure",
      "type": "function"
    },
    {
      "inputs": [
        {
          "internalType": "address",
          "name": "",
          "type": "address"
        },
        {
          "internalType": "address",
          "name": "",
          "type": "address"
        },
        {
          "internalType": "uint256",
          "name": "",
          "type": "uint256"
        },
        {
          "internalType": "uint256",
          "name": "",
          "type": "uint256"
        },
        {
          "internalType": "bytes",
          "name": "",
          "type": "bytes"
        }
      ],
      "name": "onERC1155Received",
      "outputs": [
        {
          "internalType": "bytes4",
          "name": "",
          "type": "bytes4"
        }
      ],
      "stateMutability": "pure",
      "type": "function"
    },
    {
      "inputs": [],
      "name": "overround",
      "outputs": [
        {
          "internalType": "int128",
          "name": "",
          "type": "int128"
        }
      ],
      "stateMutability": "view",
      "type": "function"
    },
    {
      "inputs": [],
      "name": "owner",
      "outputs": [
        {
          "internalType": "address",
          "name": "",
          "type": "address"
        }
      ],
      "stateMutability": "view",
      "type": "function"
    },
    {
      "inputs": [
        {
          "internalType": "uint256",
          "name": "_outcome",
          "type": "uint256"
        },
        {
          "internalType": "int128",
          "name": "_amount",
          "type": "int128"
        }
      ],
      "name": "price",
      "outputs": [
        {
          "internalType": "int128",
          "name": "",
          "type": "int128"
        }
      ],
      "stateMutability": "view",
      "type": "function"
    },
    {
      "inputs": [],
      "name": "renounceOwnership",
      "outputs": [],
      "stateMutability": "nonpayable",
      "type": "function"
    },
    {
      "inputs": [
        {
          "internalType": "uint256",
          "name": "_outcome",
          "type": "uint256"
        },
        {
          "internalType": "int128",
          "name": "_amount",
          "type": "int128"
        }
      ],
      "name": "sell",
      "outputs": [
        {
          "internalType": "int128",
          "name": "refund",
          "type": "int128"
        }
      ],
      "stateMutability": "nonpayable",
      "type": "function"
    },
    {
      "inputs": [
        {
          "internalType": "uint256",
          "name": "_outcome",
          "type": "uint256"
        },
        {
          "internalType": "int128",
          "name": "_amount",
          "type": "int128"
        }
      ],
      "name": "sellingPrice",
      "outputs": [
        {
          "internalType": "int128",
          "name": "",
          "type": "int128"
        }
      ],
      "stateMutability": "view",
      "type": "function"
    },
    {
      "inputs": [
        {
          "internalType": "address",
          "name": "_oracle",
          "type": "address"
        },
        {
          "internalType": "bytes32",
          "name": "_questionId",
          "type": "bytes32"
        },
        {
          "internalType": "uint256",
          "name": "_numOutcomes",
          "type": "uint256"
        },
        {
          "internalType": "uint256",
          "name": "bInput",
          "type": "uint256"
        },
        {
          "internalType": "uint256",
          "name": "_initialSubsidy",
          "type": "uint256"
        },
        {
          "internalType": "uint256",
          "name": "_overround",
          "type": "uint256"
        }
      ],
      "name": "setup",
      "outputs": [],
      "stateMutability": "nonpayable",
      "type": "function"
    },
    {
      "inputs": [
        {
          "internalType": "bytes4",
          "name": "interfaceId",
          "type": "bytes4"
        }
      ],
      "name": "supportsInterface",
      "outputs": [
        {
          "internalType": "bool",
          "name": "",
          "type": "bool"
        }
      ],
      "stateMutability": "view",
      "type": "function"
    },
    {
      "inputs": [],
      "name": "token",
      "outputs": [
        {
          "internalType": "address",
          "name": "",
          "type": "address"
        }
      ],
      "stateMutability": "view",
      "type": "function"
    },
    {
      "inputs": [
        {
          "internalType": "address",
          "name": "newOwner",
          "type": "address"
        }
      ],
      "name": "transferOwnership",
      "outputs": [],
      "stateMutability": "nonpayable",
      "type": "function"
    },
    {
      "inputs": [],
      "name": "withdraw",
      "outputs": [],
      "stateMutability": "nonpayable",
      "type": "function"
    },
    {
      "inputs": [],
      "name": "withdrawFees",
      "outputs": [],
      "stateMutability": "nonpayable",
      "type": "function"
    }
  ],
  "devdoc": {
    "errors": {
      "OwnableInvalidOwner(address)": [
        {
          "details": "The owner is not a valid owner account. (eg. `address(0)`)"
        }
      ],
      "OwnableUnauthorizedAccount(address)": [
        {
          "details": "The caller account is not authorized to perform an operation."
        }
      ],
      "SafeERC20FailedOperation(address)": [
        {
          "details": "An operation with an ERC-20 token failed."
        }
      ]
    },
    "kind": "dev",
    "methods": {
      "calculateSharesFromBetAmount(uint256,uint256)": {
        "params": {
          "_betAmount": "The DAI amount the user wants to spend",
          "_outcome": "The outcome to buy shares for"
        },
        "returns": {
          "shares": "The exact number of shares that can be bought"
        }
      },
      "constructor": {
        "params": {
          "_ct": "The address for the deployed conditional tokens contract",
          "_token": "Which ERC-20 token will be used to purchase and redeem outcome tokens for this condition"
        }
      },
      "owner()": {
        "details": "Returns the address of the current owner."
      },
      "renounceOwnership()": {
        "details": "Leaves the contract without owner. It will not be possible to call `onlyOwner` functions. Can only be called by the current owner. NOTE: Renouncing ownership will leave the contract without an owner, thereby disabling any functionality that is only available to the owner."
      },
      "setup(address,bytes32,uint256,uint256,uint256,uint256)": {
        "params": {
          "_initialSubsidy": "The initial DAI subsidy to deposit in the contract",
          "_numOutcomes": "The number of different outcomes available",
          "_oracle": "The address for the EOA/contract which will act as the oracle for this condition",
          "_overround": "How much 'profit' does the AMM claim? Note that this is represented in bips. Therefore inputting 300 represents 0.30%",
          "_questionId": "The question ID (needs to be unique)",
          "bInput": "The liquidity parameter b for the LMSR market maker"
        }
      },
      "supportsInterface(bytes4)": {
        "details": "Returns true if this contract implements the interface defined by `interfaceId`. See the corresponding https://eips.ethereum.org/EIPS/eip-165#how-interfaces-are-identified[ERC section] to learn more about how these ids are created. This function call must use less than 30 000 gas."
      },
      "transferOwnership(address)": {
        "details": "Transfers ownership of the contract to a new account (`newOwner`). Can only be called by the current owner."
      }
    },
    "version": 1
  },
  "evm": {
    "assembly": "    /* \"NoBOverround.sol\":615:21780  contract LsLMSR is IERC1155Receiver, Ownable{... */\n  mstore(0x40, 0x80)\n    /* \"NoBOverround.sol\":1490:1492  42 */\n  0x2a\n    /* \"NoBOverround.sol\":1464:1492  uint256 public dummyVar = 42 */\n  0x09\n  sstore\n    /* \"NoBOverround.sol\":2408:2567  constructor(... */\n  callvalue\n  dup1\n  iszero\n  tag_1\n  jumpi\n  0x00\n  dup1\n  revert\ntag_1:\n  pop\n  mload(0x40)\n  sub(codesize, bytecodeSize)\n  dup1\n  bytecodeSize\n  dup4\n  codecopy\n  dup2\n  add\n  0x40\n  dup2\n  swap1\n  mstore\n  tag_2\n  swap2\n  tag_3\n  jump\t// in\ntag_2:\n    /* \"NoBOverround.sol\":2495:2507  initialOwner */\n  dup1\n  sub(shl(0xa0, 0x01), 0x01)\n    /* \"@openzeppelin/contracts/access/Ownable.sol\":1273:1299   */\n  dup2\n  and\n    /* \"@openzeppelin/contracts/access/Ownable.sol\":1269:1364   */\n  tag_7\n  jumpi\n    /* \"@openzeppelin/contracts/access/Ownable.sol\":1322:1353   */\n  mload(0x40)\n  shl(0xe0, 0x1e4fbdf7)\n  dup2\n  mstore\n    /* \"@openzeppelin/contracts/access/Ownable.sol\":1350:1351   */\n  0x00\n    /* \"@openzeppelin/contracts/access/Ownable.sol\":1322:1353   */\n  0x04\n  dup3\n  add\n    /* \"#utility.yul\":725:776   */\n  mstore\n    /* \"#utility.yul\":698:716   */\n  0x24\n  add\n    /* \"@openzeppelin/contracts/access/Ownable.sol\":1322:1353   */\n  mload(0x40)\n  dup1\n  swap2\n  sub\n  swap1\n  revert\n    /* \"@openzeppelin/contracts/access/Ownable.sol\":1269:1364   */\ntag_7:\n    /* \"@openzeppelin/contracts/access/Ownable.sol\":1373:1405   */\n  tag_10\n    /* \"@openzeppelin/contracts/access/Ownable.sol\":1392:1404   */\n  dup2\n    /* \"@openzeppelin/contracts/access/Ownable.sol\":1373:1391   */\n  tag_11\n    /* \"@openzeppelin/contracts/access/Ownable.sol\":1373:1405   */\n  jump\t// in\ntag_10:\n  pop\n  pop\n    /* \"NoBOverround.sol\":2515:2517  CT */\n  0x07\n    /* \"NoBOverround.sol\":2515:2542  CT = ConditionalTokens(_ct) */\n  dup1\n  sload\n  sub(shl(0xa0, 0x01), 0x01)\n  swap4\n  dup5\n  and\n  not(sub(shl(0xa0, 0x01), 0x01))\n  swap2\n  dup3\n  and\n  or\n  swap1\n  swap2\n  sstore\n    /* \"NoBOverround.sol\":2548:2553  token */\n  0x08\n    /* \"NoBOverround.sol\":2548:2562  token = _token */\n  dup1\n  sload\n  swap3\n  swap1\n  swap4\n  and\n  swap2\n  and\n  or\n  swap1\n  sstore\n    /* \"NoBOverround.sol\":615:21780  contract LsLMSR is IERC1155Receiver, Ownable{... */\n  jump(tag_16)\n    /* \"@openzeppelin/contracts/access/Ownable.sol\":2912:3099   */\ntag_11:\n    /* \"@openzeppelin/contracts/access/Ownable.sol\":2985:3001   */\n  0x00\n    /* \"@openzeppelin/contracts/access/Ownable.sol\":3004:3010   */\n  dup1\n  sload\n  sub(shl(0xa0, 0x01), 0x01)\n    /* \"@openzeppelin/contracts/access/Ownable.sol\":3020:3037   */\n  dup4\n  dup2\n  and\n  not(sub(shl(0xa0, 0x01), 0x01))\n  dup4\n  and\n  dup2\n  or\n  dup5\n  sstore\n    /* \"@openzeppelin/contracts/access/Ownable.sol\":3052:3092   */\n  mload(0x40)\n    /* \"@openzeppelin/contracts/access/Ownable.sol\":3004:3010   */\n  swap2\n  swap1\n  swap3\n  and\n  swap3\n  dup4\n  swap2\n    /* \"@openzeppelin/contracts/access/Ownable.sol\":3052:3092   */\n  0x8be0079c531659141344cd1fd0a4f28419497f9722a3daafe3b4186f6b6457e0\n  swap2\n    /* \"@openzeppelin/contracts/access/Ownable.sol\":2985:3001   */\n  swap1\n    /* \"@openzeppelin/contracts/access/Ownable.sol\":3052:3092   */\n  log3\n    /* \"@openzeppelin/contracts/access/Ownable.sol\":2975:3099   */\n  pop\n    /* \"@openzeppelin/contracts/access/Ownable.sol\":2912:3099   */\n  pop\n  jump\t// out\n    /* \"#utility.yul\":14:191   */\ntag_15:\n    /* \"#utility.yul\":93:106   */\n  dup1\n  mload\n  sub(shl(0xa0, 0x01), 0x01)\n    /* \"#utility.yul\":135:166   */\n  dup2\n  and\n    /* \"#utility.yul\":125:167   */\n  dup2\n  eq\n    /* \"#utility.yul\":115:185   */\n  tag_18\n  jumpi\n    /* \"#utility.yul\":181:182   */\n  0x00\n    /* \"#utility.yul\":178:179   */\n  dup1\n    /* \"#utility.yul\":171:183   */\n  revert\n    /* \"#utility.yul\":115:185   */\ntag_18:\n    /* \"#utility.yul\":14:191   */\n  swap2\n  swap1\n  pop\n  jump\t// out\n    /* \"#utility.yul\":196:574   */\ntag_3:\n    /* \"#utility.yul\":284:290   */\n  0x00\n    /* \"#utility.yul\":292:298   */\n  dup1\n    /* \"#utility.yul\":300:306   */\n  0x00\n    /* \"#utility.yul\":353:355   */\n  0x60\n    /* \"#utility.yul\":341:350   */\n  dup5\n    /* \"#utility.yul\":332:339   */\n  dup7\n    /* \"#utility.yul\":328:351   */\n  sub\n    /* \"#utility.yul\":324:356   */\n  slt\n    /* \"#utility.yul\":321:373   */\n  iszero\n  tag_20\n  jumpi\n    /* \"#utility.yul\":369:370   */\n  0x00\n    /* \"#utility.yul\":366:367   */\n  dup1\n    /* \"#utility.yul\":359:371   */\n  revert\n    /* \"#utility.yul\":321:373   */\ntag_20:\n    /* \"#utility.yul\":392:432   */\n  tag_21\n    /* \"#utility.yul\":422:431   */\n  dup5\n    /* \"#utility.yul\":392:432   */\n  tag_15\n  jump\t// in\ntag_21:\n    /* \"#utility.yul\":382:432   */\n  swap3\n  pop\n    /* \"#utility.yul\":451:500   */\n  tag_22\n    /* \"#utility.yul\":496:498   */\n  0x20\n    /* \"#utility.yul\":485:494   */\n  dup6\n    /* \"#utility.yul\":481:499   */\n  add\n    /* \"#utility.yul\":451:500   */\n  tag_15\n  jump\t// in\ntag_22:\n    /* \"#utility.yul\":441:500   */\n  swap2\n  pop\n    /* \"#utility.yul\":519:568   */\n  tag_23\n    /* \"#utility.yul\":564:566   */\n  0x40\n    /* \"#utility.yul\":553:562   */\n  dup6\n    /* \"#utility.yul\":549:567   */\n  add\n    /* \"#utility.yul\":519:568   */\n  tag_15\n  jump\t// in\ntag_23:\n    /* \"#utility.yul\":509:568   */\n  swap1\n  pop\n    /* \"#utility.yul\":196:574   */\n  swap3\n  pop\n  swap3\n  pop\n  swap3\n  jump\t// out\n    /* \"#utility.yul\":579:782   */\ntag_16:\n    /* \"NoBOverround.sol\":615:21780  contract LsLMSR is IERC1155Receiver, Ownable{... */\n  dataSize(sub_0)\n  dup1\n  dataOffset(sub_0)\n  0x00\n  codecopy\n  0x00\n  return\nstop\n\nsub_0: assembly {\n        /* \"NoBOverround.sol\":615:21780  contract LsLMSR is IERC1155Receiver, Ownable{... */\n      mstore(0x40, 0x80)\n      callvalue\n      dup1\n      iszero\n      tag_1\n      jumpi\n      0x00\n      dup1\n      revert\n    tag_1:\n      pop\n      jumpi(tag_2, lt(calldatasize, 0x04))\n      shr(0xe0, calldataload(0x00))\n      dup1\n      0x8062dd93\n      gt\n      tag_40\n      jumpi\n      dup1\n      0xbc197c81\n      gt\n      tag_41\n      jumpi\n      dup1\n      0xe1fc2305\n      gt\n      tag_42\n      jumpi\n      dup1\n      0xf2fde38b\n      gt\n      tag_43\n      jumpi\n      dup1\n      0xf2fde38b\n      eq\n      tag_37\n      jumpi\n      dup1\n      0xf76da1d9\n      eq\n      tag_38\n      jumpi\n      dup1\n      0xfc0c546a\n      eq\n      tag_39\n      jumpi\n      0x00\n      dup1\n      revert\n    tag_43:\n      dup1\n      0xe1fc2305\n      eq\n      tag_35\n      jumpi\n      dup1\n      0xf23a6e61\n      eq\n      tag_36\n      jumpi\n      0x00\n      dup1\n      revert\n    tag_42:\n      dup1\n      0xcd6bd6db\n      gt\n      tag_44\n      jumpi\n      dup1\n      0xcd6bd6db\n      eq\n      tag_32\n      jumpi\n      dup1\n      0xd8fdb386\n      eq\n      tag_33\n      jumpi\n      dup1\n      0xdf7bd8fc\n      eq\n      tag_34\n      jumpi\n      0x00\n      dup1\n      revert\n    tag_44:\n      dup1\n      0xbc197c81\n      eq\n      tag_30\n      jumpi\n      dup1\n      0xc5031331\n      eq\n      tag_31\n      jumpi\n      0x00\n      dup1\n      revert\n    tag_41:\n      dup1\n      0x8d0a6cff\n      gt\n      tag_45\n      jumpi\n      dup1\n      0x8da5cb5b\n      gt\n      tag_46\n      jumpi\n      dup1\n      0x8da5cb5b\n      eq\n      tag_27\n      jumpi\n      dup1\n      0xae92a93d\n      eq\n      tag_28\n      jumpi\n      dup1\n      0xbb6f593e\n      eq\n      tag_29\n      jumpi\n      0x00\n      dup1\n      revert\n    tag_46:\n      dup1\n      0x8d0a6cff\n      eq\n      tag_25\n      jumpi\n      dup1\n      0x8d36627b\n      eq\n      tag_26\n      jumpi\n      0x00\n      dup1\n      revert\n    tag_45:\n      dup1\n      0x8062dd93\n      eq\n      tag_21\n      jumpi\n      dup1\n      0x8364dfef\n      eq\n      tag_22\n      jumpi\n      dup1\n      0x8767d64e\n      eq\n      tag_23\n      jumpi\n      dup1\n      0x8ac40792\n      eq\n      tag_24\n      jumpi\n      0x00\n      dup1\n      revert\n    tag_40:\n      dup1\n      0x46156ea0\n      gt\n      tag_47\n      jumpi\n      dup1\n      0x519f5099\n      gt\n      tag_48\n      jumpi\n      dup1\n      0x52fdfecc\n      gt\n      tag_49\n      jumpi\n      dup1\n      0x52fdfecc\n      eq\n      tag_18\n      jumpi\n      dup1\n      0x5df45a37\n      eq\n      tag_19\n      jumpi\n      dup1\n      0x715018a6\n      eq\n      tag_20\n      jumpi\n      0x00\n      dup1\n      revert\n    tag_49:\n      dup1\n      0x519f5099\n      eq\n      tag_16\n      jumpi\n      dup1\n      0x51c6590a\n      eq\n      tag_17\n      jumpi\n      0x00\n      dup1\n      revert\n    tag_48:\n      dup1\n      0x46156ea0\n      eq\n      tag_12\n      jumpi\n      dup1\n      0x476343ee\n      eq\n      tag_13\n      jumpi\n      dup1\n      0x4a4f72e1\n      eq\n      tag_14\n      jumpi\n      dup1\n      0x4c395cc4\n      eq\n      tag_15\n      jumpi\n      0x00\n      dup1\n      revert\n    tag_47:\n      dup1\n      0x13faede6\n      gt\n      tag_50\n      jumpi\n      dup1\n      0x39131906\n      gt\n      tag_51\n      jumpi\n      dup1\n      0x39131906\n      eq\n      tag_9\n      jumpi\n      dup1\n      0x3ccfd60b\n      eq\n      tag_10\n      jumpi\n      dup1\n      0x40088ee1\n      eq\n      tag_11\n      jumpi\n      0x00\n      dup1\n      revert\n    tag_51:\n      dup1\n      0x13faede6\n      eq\n      tag_7\n      jumpi\n      dup1\n      0x34aa4e61\n      eq\n      tag_8\n      jumpi\n      0x00\n      dup1\n      revert\n    tag_50:\n      dup1\n      0x01ffc9a7\n      eq\n      tag_3\n      jumpi\n      dup1\n      0x05445405\n      eq\n      tag_4\n      jumpi\n      dup1\n      0x0794cb8c\n      eq\n      tag_5\n      jumpi\n      dup1\n      0x10f8625a\n      eq\n      tag_6\n      jumpi\n    tag_2:\n      0x00\n      dup1\n      revert\n        /* \"NoBOverround.sol\":14513:14609  function supportsInterface(... */\n    tag_3:\n      tag_52\n      tag_53\n      calldatasize\n      0x04\n      tag_54\n      jump\t// in\n    tag_53:\n      pop\n        /* \"NoBOverround.sol\":14601:14605  bool */\n      0x00\n      swap1\n        /* \"NoBOverround.sol\":14513:14609  function supportsInterface(... */\n      jump\n    tag_52:\n      mload(0x40)\n        /* \"#utility.yul\":470:484   */\n      swap1\n      iszero\n        /* \"#utility.yul\":463:485   */\n      iszero\n        /* \"#utility.yul\":445:486   */\n      dup2\n      mstore\n        /* \"#utility.yul\":433:435   */\n      0x20\n        /* \"#utility.yul\":418:436   */\n      add\n        /* \"NoBOverround.sol\":14513:14609  function supportsInterface(... */\n    tag_56:\n      mload(0x40)\n      dup1\n      swap2\n      sub\n      swap1\n      return\n        /* \"NoBOverround.sol\":12869:13493  function getTokenWeiUp(address _token, int128 _amount) public view returns (uint) {... */\n    tag_4:\n      tag_58\n      tag_59\n      calldatasize\n      0x04\n      tag_60\n      jump\t// in\n    tag_59:\n      tag_61\n      jump\t// in\n    tag_58:\n      mload(0x40)\n        /* \"#utility.yul\":1274:1299   */\n      swap1\n      dup2\n      mstore\n        /* \"#utility.yul\":1262:1264   */\n      0x20\n        /* \"#utility.yul\":1247:1265   */\n      add\n        /* \"NoBOverround.sol\":12869:13493  function getTokenWeiUp(address _token, int128 _amount) public view returns (uint) {... */\n      tag_56\n        /* \"#utility.yul\":1128:1305   */\n      jump\n        /* \"NoBOverround.sol\":8727:10630  function calculateSharesFromBetAmount(... */\n    tag_5:\n      tag_58\n      tag_65\n      calldatasize\n      0x04\n      tag_66\n      jump\t// in\n    tag_65:\n      tag_67\n      jump\t// in\n        /* \"NoBOverround.sol\":13788:13968  function getTokenEth(... */\n    tag_6:\n      tag_69\n      tag_70\n      calldatasize\n      0x04\n      tag_71\n      jump\t// in\n    tag_70:\n      tag_72\n      jump\t// in\n    tag_69:\n      mload(0x40)\n        /* \"#utility.yul\":1995:1997   */\n      0x0f\n        /* \"#utility.yul\":1984:2006   */\n      swap2\n      swap1\n      swap2\n      signextend\n        /* \"#utility.yul\":1966:2007   */\n      dup2\n      mstore\n        /* \"#utility.yul\":1954:1956   */\n      0x20\n        /* \"#utility.yul\":1939:1957   */\n      add\n        /* \"NoBOverround.sol\":13788:13968  function getTokenEth(... */\n      tag_56\n        /* \"#utility.yul\":1822:2013   */\n      jump\n        /* \"NoBOverround.sol\":8186:8453  function cost() public view onlyAfterInit() returns (int128) {... */\n    tag_7:\n      tag_69\n      tag_76\n      jump\t// in\n        /* \"NoBOverround.sol\":21001:21773  function freezeMarket(bytes32 _questionId) external onlyOwner {... */\n    tag_8:\n      tag_78\n      tag_79\n      calldatasize\n      0x04\n      tag_80\n      jump\t// in\n    tag_79:\n      tag_81\n      jump\t// in\n    tag_78:\n      stop\n        /* \"NoBOverround.sol\":20463:20999  function getPositionIds() public view returns (uint256 positionId0, uint256 positionId1) {... */\n    tag_9:\n      tag_82\n      tag_83\n      jump\t// in\n    tag_82:\n      0x40\n      dup1\n      mload\n        /* \"#utility.yul\":2377:2402   */\n      swap3\n      dup4\n      mstore\n        /* \"#utility.yul\":2433:2435   */\n      0x20\n        /* \"#utility.yul\":2418:2436   */\n      dup4\n      add\n        /* \"#utility.yul\":2411:2445   */\n      swap2\n      swap1\n      swap2\n      mstore\n        /* \"#utility.yul\":2350:2368   */\n      add\n        /* \"NoBOverround.sol\":20463:20999  function getPositionIds() public view returns (uint256 positionId0, uint256 positionId1) {... */\n      tag_56\n        /* \"#utility.yul\":2203:2451   */\n      jump\n        /* \"NoBOverround.sol\":6955:7390  function withdraw() public onlyAfterInit() onlyOwner() {... */\n    tag_10:\n      tag_78\n      tag_87\n      jump\t// in\n        /* \"NoBOverround.sol\":12485:12865  function getTokenWei(address _token, int128 _amount) public view returns (uint) {... */\n    tag_11:\n      tag_58\n      tag_89\n      calldatasize\n      0x04\n      tag_60\n      jump\t// in\n    tag_89:\n      tag_90\n      jump\t// in\n        /* \"NoBOverround.sol\":11602:12153  function odds(... */\n    tag_12:\n      tag_69\n      tag_93\n      calldatasize\n      0x04\n      tag_80\n      jump\t// in\n    tag_93:\n      tag_95\n      jump\t// in\n        /* \"NoBOverround.sol\":19506:19880  function withdrawFees() public onlyOwner {... */\n    tag_13:\n      tag_78\n      tag_98\n      jump\t// in\n        /* \"NoBOverround.sol\":3178:4121  function setup(... */\n    tag_14:\n      tag_78\n      tag_100\n      calldatasize\n      0x04\n      tag_101\n      jump\t// in\n    tag_100:\n      tag_102\n      jump\t// in\n        /* \"NoBOverround.sol\":14745:14896  function generateQuestionId(string memory uniqueString) public pure returns (bytes32) {... */\n    tag_15:\n      tag_58\n      tag_104\n      calldatasize\n      0x04\n      tag_105\n      jump\t// in\n    tag_104:\n      tag_106\n      jump\t// in\n        /* \"NoBOverround.sol\":20091:20461  function getPositionInfo(uint256 _outcome) public view returns (uint256 positionId, uint256 balance) {... */\n    tag_16:\n      tag_82\n      tag_110\n      calldatasize\n      0x04\n      tag_80\n      jump\t// in\n    tag_110:\n      tag_111\n      jump\t// in\n        /* \"NoBOverround.sol\":18361:19124  function addLiquidity(uint _amount) public onlyOwner {... */\n    tag_17:\n      tag_78\n      tag_114\n      calldatasize\n      0x04\n      tag_80\n      jump\t// in\n    tag_114:\n      tag_115\n      jump\t// in\n        /* \"NoBOverround.sol\":12319:12481  function sellingPrice(... */\n    tag_18:\n      tag_69\n      tag_117\n      calldatasize\n      0x04\n      tag_118\n      jump\t// in\n    tag_117:\n      tag_119\n      jump\t// in\n        /* \"NoBOverround.sol\":19126:19446  function getAccumulatedFees() public view returns (uint) {... */\n    tag_19:\n      tag_58\n      tag_122\n      jump\t// in\n        /* \"@openzeppelin/contracts/access/Ownable.sol\":2293:2394   */\n    tag_20:\n      tag_78\n      tag_125\n      jump\t// in\n        /* \"NoBOverround.sol\":10744:11389  function cost_after_buy(... */\n    tag_21:\n      tag_69\n      tag_127\n      calldatasize\n      0x04\n      tag_118\n      jump\t// in\n    tag_127:\n      tag_128\n      jump\t// in\n        /* \"NoBOverround.sol\":18007:18088  function getLiquidityParameter() public view returns (int128) {... */\n    tag_22:\n        /* \"NoBOverround.sol\":18082:18083  b */\n      signextend(0x0f, sload(0x03))\n        /* \"NoBOverround.sol\":18007:18088  function getLiquidityParameter() public view returns (int128) {... */\n      jump(tag_69)\n        /* \"NoBOverround.sol\":943:966  uint public numOutcomes */\n    tag_23:\n      tag_58\n      sload(0x01)\n      dup2\n      jump\n        /* \"NoBOverround.sol\":1464:1492  uint256 public dummyVar = 42 */\n    tag_24:\n      tag_58\n      sload(0x09)\n      dup2\n      jump\n        /* \"NoBOverround.sol\":7394:7819  function getPositionAndDustPositions(... */\n    tag_25:\n      tag_139\n      tag_140\n      calldatasize\n      0x04\n      tag_80\n      jump\t// in\n    tag_140:\n      tag_141\n      jump\t// in\n    tag_139:\n      mload(0x40)\n      tag_56\n      swap2\n      swap1\n      tag_143\n      jump\t// in\n        /* \"NoBOverround.sol\":13497:13784  function getTokenWeiDown(address _token, int128 _amount) public view returns (uint) {... */\n    tag_26:\n      tag_58\n      tag_145\n      calldatasize\n      0x04\n      tag_60\n      jump\t// in\n    tag_145:\n      tag_146\n      jump\t// in\n        /* \"@openzeppelin/contracts/access/Ownable.sol\":1638:1723   */\n    tag_27:\n        /* \"@openzeppelin/contracts/access/Ownable.sol\":1684:1691   */\n      0x00\n        /* \"@openzeppelin/contracts/access/Ownable.sol\":1710:1716   */\n      sload\n      sub(shl(0xa0, 0x01), 0x01)\n      and\n        /* \"@openzeppelin/contracts/access/Ownable.sol\":1638:1723   */\n    tag_148:\n      mload(0x40)\n      sub(shl(0xa0, 0x01), 0x01)\n        /* \"#utility.yul\":5678:5733   */\n      swap1\n      swap2\n      and\n        /* \"#utility.yul\":5660:5734   */\n      dup2\n      mstore\n        /* \"#utility.yul\":5648:5650   */\n      0x20\n        /* \"#utility.yul\":5633:5651   */\n      add\n        /* \"@openzeppelin/contracts/access/Ownable.sol\":1638:1723   */\n      tag_56\n        /* \"#utility.yul\":5514:5740   */\n      jump\n        /* \"NoBOverround.sol\":15785:18003  function sell(uint256 _outcome, int128 _amount) public onlyAfterInit returns (int128 refund) {... */\n    tag_28:\n      tag_69\n      tag_153\n      calldatasize\n      0x04\n      tag_118\n      jump\t// in\n    tag_153:\n      tag_154\n      jump\t// in\n        /* \"NoBOverround.sol\":18092:18294  function getOutcomeSharesPurchased(uint256 _outcome) public view returns (int128) {... */\n    tag_29:\n      tag_69\n      tag_157\n      calldatasize\n      0x04\n      tag_80\n      jump\t// in\n    tag_157:\n      tag_158\n      jump\t// in\n        /* \"NoBOverround.sol\":14225:14508  function onERC1155BatchReceived(... */\n    tag_30:\n      tag_160\n      tag_161\n      calldatasize\n      0x04\n      tag_162\n      jump\t// in\n    tag_161:\n      shl(0xe0, 0xbc197c81)\n      swap9\n      swap8\n      pop\n      pop\n      pop\n      pop\n      pop\n      pop\n      pop\n      pop\n      jump\n    tag_160:\n      mload(0x40)\n      not(sub(shl(0xe0, 0x01), 0x01))\n        /* \"#utility.yul\":7846:7879   */\n      swap1\n      swap2\n      and\n        /* \"#utility.yul\":7828:7880   */\n      dup2\n      mstore\n        /* \"#utility.yul\":7816:7818   */\n      0x20\n        /* \"#utility.yul\":7801:7819   */\n      add\n        /* \"NoBOverround.sol\":14225:14508  function onERC1155BatchReceived(... */\n      tag_56\n        /* \"#utility.yul\":7684:7886   */\n      jump\n        /* \"NoBOverround.sol\":1175:1199  bytes32 public condition */\n    tag_31:\n      tag_58\n      sload(0x06)\n      dup2\n      jump\n        /* \"NoBOverround.sol\":1074:1103  int128 public initial_subsidy */\n    tag_32:\n      sload(0x04)\n      tag_69\n      swap1\n      shl(0x80, 0x01)\n      swap1\n      div\n      0x0f\n      signextend\n      dup2\n      jump\n        /* \"NoBOverround.sol\":1107:1130  int128 public overround */\n    tag_33:\n      sload(0x05)\n      tag_69\n      swap1\n      0x0f\n      signextend\n      dup2\n      jump\n        /* \"NoBOverround.sol\":12159:12315  function price(... */\n    tag_34:\n      tag_69\n      tag_176\n      calldatasize\n      0x04\n      tag_118\n      jump\t// in\n    tag_176:\n      tag_177\n      jump\t// in\n        /* \"NoBOverround.sol\":19882:20089  function debugFees() public view returns (uint contractBalance, uint theoreticalCost) {... */\n    tag_35:\n      tag_82\n      tag_180\n      jump\t// in\n        /* \"NoBOverround.sol\":13972:14221  function onERC1155Received(... */\n    tag_36:\n      tag_160\n      tag_183\n      calldatasize\n      0x04\n      tag_184\n      jump\t// in\n    tag_183:\n      shl(0xe0, 0xf23a6e61)\n      swap7\n      swap6\n      pop\n      pop\n      pop\n      pop\n      pop\n      pop\n      jump\n        /* \"@openzeppelin/contracts/access/Ownable.sol\":2543:2758   */\n    tag_37:\n      tag_78\n      tag_188\n      calldatasize\n      0x04\n      tag_189\n      jump\t// in\n    tag_188:\n      tag_190\n      jump\t// in\n        /* \"NoBOverround.sol\":5836:6740  function buy(... */\n    tag_38:\n      tag_69\n      tag_192\n      calldatasize\n      0x04\n      tag_118\n      jump\t// in\n    tag_192:\n      tag_193\n      jump\t// in\n        /* \"NoBOverround.sol\":1235:1255  address public token */\n    tag_39:\n      sload(0x08)\n      tag_148\n      swap1\n      sub(shl(0xa0, 0x01), 0x01)\n      and\n      dup2\n      jump\n        /* \"NoBOverround.sol\":12869:13493  function getTokenWeiUp(address _token, int128 _amount) public view returns (uint) {... */\n    tag_61:\n        /* \"NoBOverround.sol\":12945:12949  uint */\n      0x00\n        /* \"NoBOverround.sol\":12957:12963  uint d */\n      dup1\n        /* \"NoBOverround.sol\":12972:12978  _token */\n      dup4\n      sub(shl(0xa0, 0x01), 0x01)\n        /* \"NoBOverround.sol\":12966:12988  ERC20(_token).decimals */\n      and\n      0x313ce567\n        /* \"NoBOverround.sol\":12966:12990  ERC20(_token).decimals() */\n      mload(0x40)\n      dup2\n      0xffffffff\n      and\n      0xe0\n      shl\n      dup2\n      mstore\n      0x04\n      add\n      0x20\n      mload(0x40)\n      dup1\n      dup4\n      sub\n      dup2\n      dup7\n      gas\n      staticcall\n      iszero\n      dup1\n      iszero\n      tag_201\n      jumpi\n      returndatasize\n      0x00\n      dup1\n      returndatacopy\n      revert(0x00, returndatasize)\n    tag_201:\n      pop\n      pop\n      pop\n      pop\n      mload(0x40)\n      returndatasize\n      not(0x1f)\n      0x1f\n      dup3\n      add\n      and\n      dup3\n      add\n      dup1\n      0x40\n      mstore\n      pop\n      dup2\n      add\n      swap1\n      tag_202\n      swap2\n      swap1\n      tag_203\n      jump\t// in\n    tag_202:\n        /* \"NoBOverround.sol\":12957:12990  uint d = ERC20(_token).decimals() */\n      0xff\n      and\n      swap1\n      pop\n        /* \"NoBOverround.sol\":12996:13011  uint multiplier */\n      0x00\n        /* \"NoBOverround.sol\":13014:13021  10 ** d */\n      tag_204\n        /* \"NoBOverround.sol\":12957:12990  uint d = ERC20(_token).decimals() */\n      dup3\n        /* \"NoBOverround.sol\":13014:13016  10 */\n      0x0a\n        /* \"NoBOverround.sol\":13014:13021  10 ** d */\n      tag_205\n      jump\t// in\n    tag_204:\n        /* \"NoBOverround.sol\":12996:13021  uint multiplier = 10 ** d */\n      swap1\n      pop\n        /* \"NoBOverround.sol\":13046:13047  0 */\n      0x00\n        /* \"NoBOverround.sol\":13035:13042  _amount */\n      dup5\n        /* \"NoBOverround.sol\":13035:13047  _amount >= 0 */\n      0x0f\n      signextend\n      slt\n      iszero\n        /* \"NoBOverround.sol\":13027:13079  require(_amount >= 0, \"Amount must be non-negative\") */\n      tag_206\n      jumpi\n      mload(0x40)\n      shl(0xe5, 0x461bcd)\n      dup2\n      mstore\n        /* \"#utility.yul\":10762:10764   */\n      0x20\n        /* \"NoBOverround.sol\":13027:13079  require(_amount >= 0, \"Amount must be non-negative\") */\n      0x04\n      dup3\n      add\n        /* \"#utility.yul\":10744:10765   */\n      mstore\n        /* \"#utility.yul\":10801:10803   */\n      0x1b\n        /* \"#utility.yul\":10781:10799   */\n      0x24\n      dup3\n      add\n        /* \"#utility.yul\":10774:10804   */\n      mstore\n        /* \"#utility.yul\":10840:10869   */\n      0x416d6f756e74206d757374206265206e6f6e2d6e656761746976650000000000\n        /* \"#utility.yul\":10820:10838   */\n      0x44\n      dup3\n      add\n        /* \"#utility.yul\":10813:10870   */\n      mstore\n        /* \"#utility.yul\":10887:10905   */\n      0x64\n      add\n        /* \"NoBOverround.sol\":13027:13079  require(_amount >= 0, \"Amount must be non-negative\") */\n    tag_207:\n      mload(0x40)\n      dup1\n      swap2\n      sub\n      swap1\n      revert\n    tag_206:\n        /* \"NoBOverround.sol\":13131:13142  uint result */\n      0x00\n        /* \"NoBOverround.sol\":13145:13179  ABDKMath.mulu(_amount, multiplier) */\n      tag_209\n        /* \"NoBOverround.sol\":13159:13166  _amount */\n      dup6\n        /* \"NoBOverround.sol\":13168:13178  multiplier */\n      dup4\n        /* \"NoBOverround.sol\":13145:13158  ABDKMath.mulu */\n      tag_210\n        /* \"NoBOverround.sol\":13145:13179  ABDKMath.mulu(_amount, multiplier) */\n      jump\t// in\n    tag_209:\n        /* \"NoBOverround.sol\":13131:13179  uint result = ABDKMath.mulu(_amount, multiplier) */\n      swap1\n      pop\n        /* \"NoBOverround.sol\":13441:13442  0 */\n      0x00\n        /* \"NoBOverround.sol\":13368:13417  ABDKMath.mul(_amount, int128(int256(multiplier))) */\n      tag_211\n        /* \"NoBOverround.sol\":13381:13388  _amount */\n      dup7\n        /* \"NoBOverround.sol\":13404:13414  multiplier */\n      dup5\n        /* \"NoBOverround.sol\":13368:13380  ABDKMath.mul */\n      tag_212\n        /* \"NoBOverround.sol\":13368:13417  ABDKMath.mul(_amount, int128(int256(multiplier))) */\n      jump\t// in\n    tag_211:\n        /* \"NoBOverround.sol\":13420:13438  0xFFFFFFFFFFFFFFFF */\n      0xffffffffffffffff\n        /* \"NoBOverround.sol\":13368:13438  ABDKMath.mul(_amount, int128(int256(multiplier))) & 0xFFFFFFFFFFFFFFFF */\n      and\n        /* \"NoBOverround.sol\":13368:13442  ABDKMath.mul(_amount, int128(int256(multiplier))) & 0xFFFFFFFFFFFFFFFF > 0 */\n      0x0f\n      signextend\n      sgt\n        /* \"NoBOverround.sol\":13364:13472  if (ABDKMath.mul(_amount, int128(int256(multiplier))) & 0xFFFFFFFFFFFFFFFF > 0) {... */\n      iszero\n      tag_213\n      jumpi\n        /* \"NoBOverround.sol\":13454:13465  result += 1 */\n      tag_214\n        /* \"NoBOverround.sol\":13464:13465  1 */\n      0x01\n        /* \"NoBOverround.sol\":13454:13465  result += 1 */\n      dup3\n      tag_215\n      jump\t// in\n    tag_214:\n      swap1\n      pop\n        /* \"NoBOverround.sol\":13364:13472  if (ABDKMath.mul(_amount, int128(int256(multiplier))) & 0xFFFFFFFFFFFFFFFF > 0) {... */\n    tag_213:\n        /* \"NoBOverround.sol\":13484:13490  result */\n      swap3\n      pop\n      pop\n      pop\n        /* \"NoBOverround.sol\":12869:13493  function getTokenWeiUp(address _token, int128 _amount) public view returns (uint) {... */\n    tag_199:\n      swap3\n      swap2\n      pop\n      pop\n      jump\t// out\n        /* \"NoBOverround.sol\":8727:10630  function calculateSharesFromBetAmount(... */\n    tag_67:\n        /* \"NoBOverround.sol\":14654:14658  init */\n      sload(0x08)\n        /* \"NoBOverround.sol\":8850:8864  uint256 shares */\n      0x00\n      swap1\n      shl(0xa0, 0x01)\n        /* \"NoBOverround.sol\":14654:14658  init */\n      swap1\n      div\n      0xff\n      and\n        /* \"NoBOverround.sol\":14654:14666  init == true */\n      iszero\n      iszero\n        /* \"NoBOverround.sol\":14662:14666  true */\n      0x01\n        /* \"NoBOverround.sol\":14654:14666  init == true */\n      eq\n        /* \"NoBOverround.sol\":14646:14667  require(init == true) */\n      tag_217\n      jumpi\n      0x00\n      dup1\n      revert\n    tag_217:\n        /* \"NoBOverround.sol\":8891:8902  numOutcomes */\n      sload(0x01)\n        /* \"NoBOverround.sol\":8880:8888  _outcome */\n      dup4\n        /* \"NoBOverround.sol\":8880:8902  _outcome < numOutcomes */\n      lt\n        /* \"NoBOverround.sol\":8872:8928  require(_outcome < numOutcomes, \"Invalid outcome index\") */\n      tag_219\n      jumpi\n      mload(0x40)\n      shl(0xe5, 0x461bcd)\n      dup2\n      mstore\n        /* \"#utility.yul\":11248:11250   */\n      0x20\n        /* \"NoBOverround.sol\":8872:8928  require(_outcome < numOutcomes, \"Invalid outcome index\") */\n      0x04\n      dup3\n      add\n        /* \"#utility.yul\":11230:11251   */\n      mstore\n        /* \"#utility.yul\":11287:11289   */\n      0x15\n        /* \"#utility.yul\":11267:11285   */\n      0x24\n      dup3\n      add\n        /* \"#utility.yul\":11260:11290   */\n      mstore\n      shl(0x5b, 0x092dcecc2d8d2c840deeae8c6dedaca40d2dcc8caf)\n        /* \"#utility.yul\":11306:11324   */\n      0x44\n      dup3\n      add\n        /* \"#utility.yul\":11299:11350   */\n      mstore\n        /* \"#utility.yul\":11367:11385   */\n      0x64\n      add\n        /* \"NoBOverround.sol\":8872:8928  require(_outcome < numOutcomes, \"Invalid outcome index\") */\n      tag_207\n        /* \"#utility.yul\":11046:11391   */\n      jump\n        /* \"NoBOverround.sol\":8872:8928  require(_outcome < numOutcomes, \"Invalid outcome index\") */\n    tag_219:\n        /* \"NoBOverround.sol\":8955:8956  0 */\n      0x00\n        /* \"NoBOverround.sol\":8942:8952  _betAmount */\n      dup3\n        /* \"NoBOverround.sol\":8942:8956  _betAmount > 0 */\n      gt\n        /* \"NoBOverround.sol\":8934:8988  require(_betAmount > 0, \"Bet amount must be positive\") */\n      tag_222\n      jumpi\n      mload(0x40)\n      shl(0xe5, 0x461bcd)\n      dup2\n      mstore\n        /* \"#utility.yul\":11598:11600   */\n      0x20\n        /* \"NoBOverround.sol\":8934:8988  require(_betAmount > 0, \"Bet amount must be positive\") */\n      0x04\n      dup3\n      add\n        /* \"#utility.yul\":11580:11601   */\n      mstore\n        /* \"#utility.yul\":11637:11639   */\n      0x1b\n        /* \"#utility.yul\":11617:11635   */\n      0x24\n      dup3\n      add\n        /* \"#utility.yul\":11610:11640   */\n      mstore\n        /* \"#utility.yul\":11676:11705   */\n      0x42657420616d6f756e74206d75737420626520706f7369746976650000000000\n        /* \"#utility.yul\":11656:11674   */\n      0x44\n      dup3\n      add\n        /* \"#utility.yul\":11649:11706   */\n      mstore\n        /* \"#utility.yul\":11723:11741   */\n      0x64\n      add\n        /* \"NoBOverround.sol\":8934:8988  require(_betAmount > 0, \"Bet amount must be positive\") */\n      tag_207\n        /* \"#utility.yul\":11396:11747   */\n      jump\n        /* \"NoBOverround.sol\":8934:8988  require(_betAmount > 0, \"Bet amount must be positive\") */\n    tag_222:\n        /* \"NoBOverround.sol\":9072:9077  token */\n      sload(0x08)\n        /* \"NoBOverround.sol\":9036:9057  int128 betAmountFixed */\n      0x00\n      swap1\n        /* \"NoBOverround.sol\":9060:9090  getTokenEth(token, _betAmount) */\n      tag_225\n      swap1\n      sub(shl(0xa0, 0x01), 0x01)\n        /* \"NoBOverround.sol\":9072:9077  token */\n      and\n        /* \"NoBOverround.sol\":9079:9089  _betAmount */\n      dup5\n        /* \"NoBOverround.sol\":9060:9071  getTokenEth */\n      tag_72\n        /* \"NoBOverround.sol\":9060:9090  getTokenEth(token, _betAmount) */\n      jump\t// in\n    tag_225:\n        /* \"NoBOverround.sol\":9036:9090  int128 betAmountFixed = getTokenEth(token, _betAmount) */\n      swap1\n      pop\n        /* \"NoBOverround.sol\":9474:9491  int128 targetCost */\n      0x00\n        /* \"NoBOverround.sol\":9494:9536  ABDKMath.add(betAmountFixed, current_cost) */\n      tag_226\n        /* \"NoBOverround.sol\":9507:9521  betAmountFixed */\n      dup3\n        /* \"NoBOverround.sol\":9523:9535  current_cost */\n      0x03\n      0x10\n      swap1\n      sload\n      swap1\n      0x0100\n      exp\n      swap1\n      div\n      0x0f\n      signextend\n        /* \"NoBOverround.sol\":9494:9506  ABDKMath.add */\n      tag_227\n        /* \"NoBOverround.sol\":9494:9536  ABDKMath.add(betAmountFixed, current_cost) */\n      jump\t// in\n    tag_226:\n        /* \"NoBOverround.sol\":9608:9609  b */\n      sload(0x03)\n        /* \"NoBOverround.sol\":9474:9536  int128 targetCost = ABDKMath.add(betAmountFixed, current_cost) */\n      swap1\n      swap2\n      pop\n        /* \"NoBOverround.sol\":9542:9567  int128 expTargetCostOverB */\n      0x00\n      swap1\n        /* \"NoBOverround.sol\":9570:9611  ABDKMath.exp(ABDKMath.div(targetCost, b)) */\n      tag_228\n      swap1\n        /* \"NoBOverround.sol\":9583:9610  ABDKMath.div(targetCost, b) */\n      tag_229\n      swap1\n        /* \"NoBOverround.sol\":9474:9536  int128 targetCost = ABDKMath.add(betAmountFixed, current_cost) */\n      dup5\n      swap1\n        /* \"NoBOverround.sol\":9608:9609  b */\n      0x0f\n      signextend\n        /* \"NoBOverround.sol\":9583:9595  ABDKMath.div */\n      tag_230\n        /* \"NoBOverround.sol\":9583:9610  ABDKMath.div(targetCost, b) */\n      jump\t// in\n    tag_229:\n        /* \"NoBOverround.sol\":9570:9582  ABDKMath.exp */\n      tag_231\n        /* \"NoBOverround.sol\":9570:9611  ABDKMath.exp(ABDKMath.div(targetCost, b)) */\n      jump\t// in\n    tag_228:\n        /* \"NoBOverround.sol\":9542:9611  int128 expTargetCostOverB = ABDKMath.exp(ABDKMath.div(targetCost, b)) */\n      swap1\n      pop\n        /* \"NoBOverround.sol\":9683:9706  int128 sumOtherOutcomes */\n      0x00\n        /* \"NoBOverround.sol\":9709:9729  ABDKMath.fromUInt(0) */\n      tag_232\n        /* \"NoBOverround.sol\":9727:9728  0 */\n      0x00\n        /* \"NoBOverround.sol\":9709:9726  ABDKMath.fromUInt */\n      tag_233\n        /* \"NoBOverround.sol\":9709:9729  ABDKMath.fromUInt(0) */\n      jump\t// in\n    tag_232:\n        /* \"NoBOverround.sol\":9683:9729  int128 sumOtherOutcomes = ABDKMath.fromUInt(0) */\n      swap1\n      pop\n        /* \"NoBOverround.sol\":9740:9746  uint i */\n      0x00\n        /* \"NoBOverround.sol\":9735:9912  for (uint i = 0; i < numOutcomes; i++) {... */\n    tag_234:\n        /* \"NoBOverround.sol\":9756:9767  numOutcomes */\n      sload(0x01)\n        /* \"NoBOverround.sol\":9752:9753  i */\n      dup2\n        /* \"NoBOverround.sol\":9752:9767  i < numOutcomes */\n      lt\n        /* \"NoBOverround.sol\":9735:9912  for (uint i = 0; i < numOutcomes; i++) {... */\n      iszero\n      tag_235\n      jumpi\n        /* \"NoBOverround.sol\":9791:9799  _outcome */\n      dup8\n        /* \"NoBOverround.sol\":9786:9787  i */\n      dup2\n        /* \"NoBOverround.sol\":9786:9799  i != _outcome */\n      eq\n        /* \"NoBOverround.sol\":9782:9906  if (i != _outcome) {... */\n      tag_237\n      jumpi\n        /* \"NoBOverround.sol\":9830:9897  ABDKMath.add(sumOtherOutcomes, ABDKMath.exp(ABDKMath.div(q[i], b))) */\n      tag_238\n        /* \"NoBOverround.sol\":9843:9859  sumOtherOutcomes */\n      dup3\n        /* \"NoBOverround.sol\":9861:9896  ABDKMath.exp(ABDKMath.div(q[i], b)) */\n      tag_239\n        /* \"NoBOverround.sol\":9874:9895  ABDKMath.div(q[i], b) */\n      tag_229\n        /* \"NoBOverround.sol\":9887:9888  q */\n      0x02\n        /* \"NoBOverround.sol\":9889:9890  i */\n      dup6\n        /* \"NoBOverround.sol\":9887:9891  q[i] */\n      dup2\n      sload\n      dup2\n      lt\n      tag_242\n      jumpi\n      tag_242\n      tag_243\n      jump\t// in\n    tag_242:\n      0x00\n      swap2\n      dup3\n      mstore\n      0x20\n      swap1\n      swap2\n      keccak256\n      0x02\n      dup3\n      div\n      add\n      sload\n        /* \"NoBOverround.sol\":9893:9894  b */\n      sload(0x03)\n        /* \"NoBOverround.sol\":9887:9891  q[i] */\n      0x01\n      swap1\n      swap3\n      and\n      0x10\n      mul\n      0x0100\n      exp\n      swap1\n      div\n      0x0f\n      swap1\n      dup2\n      signextend\n      swap2\n        /* \"NoBOverround.sol\":9893:9894  b */\n      swap1\n      signextend\n        /* \"NoBOverround.sol\":9874:9886  ABDKMath.div */\n      tag_230\n        /* \"NoBOverround.sol\":9874:9895  ABDKMath.div(q[i], b) */\n      jump\t// in\n        /* \"NoBOverround.sol\":9861:9896  ABDKMath.exp(ABDKMath.div(q[i], b)) */\n    tag_239:\n        /* \"NoBOverround.sol\":9830:9842  ABDKMath.add */\n      tag_227\n        /* \"NoBOverround.sol\":9830:9897  ABDKMath.add(sumOtherOutcomes, ABDKMath.exp(ABDKMath.div(q[i], b))) */\n      jump\t// in\n    tag_238:\n        /* \"NoBOverround.sol\":9811:9897  sumOtherOutcomes = ABDKMath.add(sumOtherOutcomes, ABDKMath.exp(ABDKMath.div(q[i], b))) */\n      swap2\n      pop\n        /* \"NoBOverround.sol\":9782:9906  if (i != _outcome) {... */\n    tag_237:\n        /* \"NoBOverround.sol\":9769:9772  i++ */\n      0x01\n      add\n        /* \"NoBOverround.sol\":9735:9912  for (uint i = 0; i < numOutcomes; i++) {... */\n      jump(tag_234)\n    tag_235:\n      pop\n        /* \"NoBOverround.sol\":10022:10049  int128 expOutcomePlusXOverB */\n      0x00\n        /* \"NoBOverround.sol\":10052:10102  ABDKMath.sub(expTargetCostOverB, sumOtherOutcomes) */\n      tag_245\n        /* \"NoBOverround.sol\":10065:10083  expTargetCostOverB */\n      dup4\n        /* \"NoBOverround.sol\":10085:10101  sumOtherOutcomes */\n      dup4\n        /* \"NoBOverround.sol\":10052:10064  ABDKMath.sub */\n      tag_246\n        /* \"NoBOverround.sol\":10052:10102  ABDKMath.sub(expTargetCostOverB, sumOtherOutcomes) */\n      jump\t// in\n    tag_245:\n        /* \"NoBOverround.sol\":10022:10102  int128 expOutcomePlusXOverB = ABDKMath.sub(expTargetCostOverB, sumOtherOutcomes) */\n      swap1\n      pop\n        /* \"NoBOverround.sol\":10181:10201  ABDKMath.fromUInt(0) */\n      tag_247\n        /* \"NoBOverround.sol\":10199:10200  0 */\n      0x00\n        /* \"NoBOverround.sol\":10181:10198  ABDKMath.fromUInt */\n      tag_233\n        /* \"NoBOverround.sol\":10181:10201  ABDKMath.fromUInt(0) */\n      jump\t// in\n    tag_247:\n        /* \"NoBOverround.sol\":10158:10201  expOutcomePlusXOverB > ABDKMath.fromUInt(0) */\n      0x0f\n      signextend\n        /* \"NoBOverround.sol\":10158:10178  expOutcomePlusXOverB */\n      dup2\n        /* \"NoBOverround.sol\":10158:10201  expOutcomePlusXOverB > ABDKMath.fromUInt(0) */\n      0x0f\n      signextend\n      sgt\n        /* \"NoBOverround.sol\":10150:10251  require(expOutcomePlusXOverB > ABDKMath.fromUInt(0), \"Bet amount too large for current market state\") */\n      tag_248\n      jumpi\n      mload(0x40)\n      shl(0xe5, 0x461bcd)\n      dup2\n      mstore\n        /* \"#utility.yul\":12086:12088   */\n      0x20\n        /* \"NoBOverround.sol\":10150:10251  require(expOutcomePlusXOverB > ABDKMath.fromUInt(0), \"Bet amount too large for current market state\") */\n      0x04\n      dup3\n      add\n        /* \"#utility.yul\":12068:12089   */\n      mstore\n        /* \"#utility.yul\":12125:12127   */\n      0x2d\n        /* \"#utility.yul\":12105:12123   */\n      0x24\n      dup3\n      add\n        /* \"#utility.yul\":12098:12128   */\n      mstore\n        /* \"#utility.yul\":12164:12198   */\n      0x42657420616d6f756e7420746f6f206c6172676520666f722063757272656e74\n        /* \"#utility.yul\":12144:12162   */\n      0x44\n      dup3\n      add\n        /* \"#utility.yul\":12137:12199   */\n      mstore\n        /* \"#utility.yul\":12235:12250   */\n      0x206d61726b657420737461746500000000000000000000000000000000000000\n        /* \"#utility.yul\":12215:12233   */\n      0x64\n      dup3\n      add\n        /* \"#utility.yul\":12208:12251   */\n      mstore\n        /* \"#utility.yul\":12268:12287   */\n      0x84\n      add\n        /* \"NoBOverround.sol\":10150:10251  require(expOutcomePlusXOverB > ABDKMath.fromUInt(0), \"Bet amount too large for current market state\") */\n      tag_207\n        /* \"#utility.yul\":11884:12293   */\n      jump\n        /* \"NoBOverround.sol\":10150:10251  require(expOutcomePlusXOverB > ABDKMath.fromUInt(0), \"Bet amount too large for current market state\") */\n    tag_248:\n        /* \"NoBOverround.sol\":10372:10373  b */\n      sload(0x03)\n        /* \"NoBOverround.sol\":10328:10336  int128 x */\n      0x00\n      swap1\n        /* \"NoBOverround.sol\":10339:10434  ABDKMath.sub(... */\n      tag_251\n      swap1\n        /* \"NoBOverround.sol\":10359:10409  ABDKMath.mul(b, ABDKMath.ln(expOutcomePlusXOverB)) */\n      tag_252\n      swap1\n        /* \"NoBOverround.sol\":10372:10373  b */\n      0x0f\n      signextend\n        /* \"NoBOverround.sol\":10375:10408  ABDKMath.ln(expOutcomePlusXOverB) */\n      tag_253\n        /* \"NoBOverround.sol\":10387:10407  expOutcomePlusXOverB */\n      dup6\n        /* \"NoBOverround.sol\":10375:10386  ABDKMath.ln */\n      tag_254\n        /* \"NoBOverround.sol\":10375:10408  ABDKMath.ln(expOutcomePlusXOverB) */\n      jump\t// in\n    tag_253:\n        /* \"NoBOverround.sol\":10359:10371  ABDKMath.mul */\n      tag_212\n        /* \"NoBOverround.sol\":10359:10409  ABDKMath.mul(b, ABDKMath.ln(expOutcomePlusXOverB)) */\n      jump\t// in\n    tag_252:\n        /* \"NoBOverround.sol\":10417:10418  q */\n      0x02\n        /* \"NoBOverround.sol\":10419:10427  _outcome */\n      dup12\n        /* \"NoBOverround.sol\":10417:10428  q[_outcome] */\n      dup2\n      sload\n      dup2\n      lt\n      tag_256\n      jumpi\n      tag_256\n      tag_243\n      jump\t// in\n    tag_256:\n      swap1\n      0x00\n      mstore\n      keccak256(0x00, 0x20)\n      swap1\n      0x02\n      swap2\n      dup3\n      dup3\n      div\n      add\n      swap2\n      swap1\n      mod\n      0x10\n      mul\n      swap1\n      sload\n      swap1\n      0x0100\n      exp\n      swap1\n      div\n      0x0f\n      signextend\n        /* \"NoBOverround.sol\":10339:10351  ABDKMath.sub */\n      tag_246\n        /* \"NoBOverround.sol\":10339:10434  ABDKMath.sub(... */\n      jump\t// in\n    tag_251:\n        /* \"NoBOverround.sol\":10328:10434  int128 x = ABDKMath.sub(... */\n      swap1\n      pop\n        /* \"NoBOverround.sol\":10490:10510  ABDKMath.fromUInt(0) */\n      tag_258\n        /* \"NoBOverround.sol\":10508:10509  0 */\n      0x00\n        /* \"NoBOverround.sol\":10490:10507  ABDKMath.fromUInt */\n      tag_233\n        /* \"NoBOverround.sol\":10490:10510  ABDKMath.fromUInt(0) */\n      jump\t// in\n    tag_258:\n        /* \"NoBOverround.sol\":10485:10510  x >= ABDKMath.fromUInt(0) */\n      0x0f\n      signextend\n        /* \"NoBOverround.sol\":10485:10486  x */\n      dup2\n        /* \"NoBOverround.sol\":10485:10510  x >= ABDKMath.fromUInt(0) */\n      0x0f\n      signextend\n      slt\n      iszero\n        /* \"NoBOverround.sol\":10477:10540  require(x >= ABDKMath.fromUInt(0), \"Invalid share calculation\") */\n      tag_259\n      jumpi\n      mload(0x40)\n      shl(0xe5, 0x461bcd)\n      dup2\n      mstore\n        /* \"#utility.yul\":12500:12502   */\n      0x20\n        /* \"NoBOverround.sol\":10477:10540  require(x >= ABDKMath.fromUInt(0), \"Invalid share calculation\") */\n      0x04\n      dup3\n      add\n        /* \"#utility.yul\":12482:12503   */\n      mstore\n        /* \"#utility.yul\":12539:12541   */\n      0x19\n        /* \"#utility.yul\":12519:12537   */\n      0x24\n      dup3\n      add\n        /* \"#utility.yul\":12512:12542   */\n      mstore\n        /* \"#utility.yul\":12578:12605   */\n      0x496e76616c69642073686172652063616c63756c6174696f6e00000000000000\n        /* \"#utility.yul\":12558:12576   */\n      0x44\n      dup3\n      add\n        /* \"#utility.yul\":12551:12606   */\n      mstore\n        /* \"#utility.yul\":12623:12641   */\n      0x64\n      add\n        /* \"NoBOverround.sol\":10477:10540  require(x >= ABDKMath.fromUInt(0), \"Invalid share calculation\") */\n      tag_207\n        /* \"#utility.yul\":12298:12647   */\n      jump\n        /* \"NoBOverround.sol\":10477:10540  require(x >= ABDKMath.fromUInt(0), \"Invalid share calculation\") */\n    tag_259:\n        /* \"NoBOverround.sol\":10616:10621  token */\n      sload(0x08)\n        /* \"NoBOverround.sol\":10600:10625  getTokenWeiDown(token, x) */\n      tag_262\n      swap1\n      sub(shl(0xa0, 0x01), 0x01)\n        /* \"NoBOverround.sol\":10616:10621  token */\n      and\n        /* \"NoBOverround.sol\":10623:10624  x */\n      dup3\n        /* \"NoBOverround.sol\":10600:10615  getTokenWeiDown */\n      tag_146\n        /* \"NoBOverround.sol\":10600:10625  getTokenWeiDown(token, x) */\n      jump\t// in\n    tag_262:\n        /* \"NoBOverround.sol\":10593:10625  return getTokenWeiDown(token, x) */\n      swap10\n        /* \"NoBOverround.sol\":8727:10630  function calculateSharesFromBetAmount(... */\n      swap9\n      pop\n      pop\n      pop\n      pop\n      pop\n      pop\n      pop\n      pop\n      pop\n      jump\t// out\n        /* \"NoBOverround.sol\":13788:13968  function getTokenEth(... */\n    tag_72:\n        /* \"NoBOverround.sol\":13872:13878  int128 */\n      0x00\n        /* \"NoBOverround.sol\":13886:13892  uint d */\n      dup1\n        /* \"NoBOverround.sol\":13901:13907  _token */\n      dup4\n      sub(shl(0xa0, 0x01), 0x01)\n        /* \"NoBOverround.sol\":13895:13917  ERC20(_token).decimals */\n      and\n      0x313ce567\n        /* \"NoBOverround.sol\":13895:13919  ERC20(_token).decimals() */\n      mload(0x40)\n      dup2\n      0xffffffff\n      and\n      0xe0\n      shl\n      dup2\n      mstore\n      0x04\n      add\n      0x20\n      mload(0x40)\n      dup1\n      dup4\n      sub\n      dup2\n      dup7\n      gas\n      staticcall\n      iszero\n      dup1\n      iszero\n      tag_265\n      jumpi\n      returndatasize\n      0x00\n      dup1\n      returndatacopy\n      revert(0x00, returndatasize)\n    tag_265:\n      pop\n      pop\n      pop\n      pop\n      mload(0x40)\n      returndatasize\n      not(0x1f)\n      0x1f\n      dup3\n      add\n      and\n      dup3\n      add\n      dup1\n      0x40\n      mstore\n      pop\n      dup2\n      add\n      swap1\n      tag_266\n      swap2\n      swap1\n      tag_203\n      jump\t// in\n    tag_266:\n        /* \"NoBOverround.sol\":13886:13919  uint d = ERC20(_token).decimals() */\n      0xff\n      and\n      swap1\n      pop\n        /* \"NoBOverround.sol\":13932:13963  ABDKMath.divu(_amount, 10 ** d) */\n      tag_267\n        /* \"NoBOverround.sol\":13946:13953  _amount */\n      dup4\n        /* \"NoBOverround.sol\":13955:13962  10 ** d */\n      tag_268\n        /* \"NoBOverround.sol\":13886:13919  uint d = ERC20(_token).decimals() */\n      dup4\n        /* \"NoBOverround.sol\":13955:13957  10 */\n      0x0a\n        /* \"NoBOverround.sol\":13955:13962  10 ** d */\n      tag_205\n      jump\t// in\n    tag_268:\n        /* \"NoBOverround.sol\":13932:13945  ABDKMath.divu */\n      tag_269\n        /* \"NoBOverround.sol\":13932:13963  ABDKMath.divu(_amount, 10 ** d) */\n      jump\t// in\n    tag_267:\n        /* \"NoBOverround.sol\":13925:13963  return ABDKMath.divu(_amount, 10 ** d) */\n      swap5\n        /* \"NoBOverround.sol\":13788:13968  function getTokenEth(... */\n      swap4\n      pop\n      pop\n      pop\n      pop\n      jump\t// out\n        /* \"NoBOverround.sol\":8186:8453  function cost() public view onlyAfterInit() returns (int128) {... */\n    tag_76:\n        /* \"NoBOverround.sol\":14654:14658  init */\n      sload(0x08)\n        /* \"NoBOverround.sol\":8239:8245  int128 */\n      0x00\n      swap1\n      shl(0xa0, 0x01)\n        /* \"NoBOverround.sol\":14654:14658  init */\n      swap1\n      div\n      0xff\n      and\n        /* \"NoBOverround.sol\":14654:14666  init == true */\n      iszero\n      iszero\n        /* \"NoBOverround.sol\":14662:14666  true */\n      0x01\n        /* \"NoBOverround.sol\":14654:14666  init == true */\n      eq\n        /* \"NoBOverround.sol\":14646:14667  require(init == true) */\n      tag_271\n      jumpi\n      0x00\n      dup1\n      revert\n    tag_271:\n        /* \"NoBOverround.sol\":8253:8269  int128 sum_total */\n      0x00\n      dup1\n        /* \"NoBOverround.sol\":8275:8397  for(uint i=0; i< numOutcomes; i++) {... */\n    tag_273:\n        /* \"NoBOverround.sol\":8292:8303  numOutcomes */\n      sload(0x01)\n        /* \"NoBOverround.sol\":8289:8290  i */\n      dup2\n        /* \"NoBOverround.sol\":8289:8303  i< numOutcomes */\n      lt\n        /* \"NoBOverround.sol\":8275:8397  for(uint i=0; i< numOutcomes; i++) {... */\n      iszero\n      tag_274\n      jumpi\n        /* \"NoBOverround.sol\":8330:8390  ABDKMath.add(sum_total, ABDKMath.exp(ABDKMath.div(q[i], b))) */\n      tag_276\n        /* \"NoBOverround.sol\":8343:8352  sum_total */\n      dup3\n        /* \"NoBOverround.sol\":8354:8389  ABDKMath.exp(ABDKMath.div(q[i], b)) */\n      tag_239\n        /* \"NoBOverround.sol\":8367:8388  ABDKMath.div(q[i], b) */\n      tag_229\n        /* \"NoBOverround.sol\":8380:8381  q */\n      0x02\n        /* \"NoBOverround.sol\":8382:8383  i */\n      dup6\n        /* \"NoBOverround.sol\":8380:8384  q[i] */\n      dup2\n      sload\n      dup2\n      lt\n      tag_242\n      jumpi\n      tag_242\n      tag_243\n      jump\t// in\n        /* \"NoBOverround.sol\":8330:8390  ABDKMath.add(sum_total, ABDKMath.exp(ABDKMath.div(q[i], b))) */\n    tag_276:\n        /* \"NoBOverround.sol\":8318:8390  sum_total = ABDKMath.add(sum_total, ABDKMath.exp(ABDKMath.div(q[i], b))) */\n      swap2\n      pop\n        /* \"NoBOverround.sol\":8305:8308  i++ */\n      0x01\n      add\n        /* \"NoBOverround.sol\":8275:8397  for(uint i=0; i< numOutcomes; i++) {... */\n      jump(tag_273)\n    tag_274:\n      pop\n        /* \"NoBOverround.sol\":8422:8423  b */\n      sload(0x03)\n        /* \"NoBOverround.sol\":8409:8448  ABDKMath.mul(b, ABDKMath.ln(sum_total)) */\n      tag_282\n      swap1\n        /* \"NoBOverround.sol\":8422:8423  b */\n      0x0f\n      signextend\n        /* \"NoBOverround.sol\":8425:8447  ABDKMath.ln(sum_total) */\n      tag_253\n        /* \"NoBOverround.sol\":8437:8446  sum_total */\n      dup4\n        /* \"NoBOverround.sol\":8425:8436  ABDKMath.ln */\n      tag_254\n        /* \"NoBOverround.sol\":8425:8447  ABDKMath.ln(sum_total) */\n      jump\t// in\n        /* \"NoBOverround.sol\":8409:8448  ABDKMath.mul(b, ABDKMath.ln(sum_total)) */\n    tag_282:\n        /* \"NoBOverround.sol\":8402:8448  return ABDKMath.mul(b, ABDKMath.ln(sum_total)) */\n      swap2\n      pop\n      pop\n        /* \"NoBOverround.sol\":14675:14676  _ */\n    tag_272:\n        /* \"NoBOverround.sol\":8186:8453  function cost() public view onlyAfterInit() returns (int128) {... */\n      swap1\n      jump\t// out\n        /* \"NoBOverround.sol\":21001:21773  function freezeMarket(bytes32 _questionId) external onlyOwner {... */\n    tag_81:\n        /* \"@openzeppelin/contracts/access/Ownable.sol\":1531:1544   */\n      tag_285\n        /* \"@openzeppelin/contracts/access/Ownable.sol\":1531:1542   */\n      tag_286\n        /* \"@openzeppelin/contracts/access/Ownable.sol\":1531:1544   */\n      jump\t// in\n    tag_285:\n        /* \"NoBOverround.sol\":21077:21079  CT */\n      sload(0x07)\n        /* \"NoBOverround.sol\":21098:21107  condition */\n      sload(0x06)\n        /* \"NoBOverround.sol\":21077:21108  CT.payoutDenominator(condition) */\n      mload(0x40)\n      shl(0xe0, 0xdd34de67)\n      dup2\n      mstore\n      sub(shl(0xa0, 0x01), 0x01)\n        /* \"NoBOverround.sol\":21077:21079  CT */\n      swap1\n      swap3\n      and\n      swap2\n        /* \"NoBOverround.sol\":21077:21097  CT.payoutDenominator */\n      0xdd34de67\n      swap2\n        /* \"NoBOverround.sol\":21077:21108  CT.payoutDenominator(condition) */\n      tag_288\n      swap2\n      0x04\n      add\n        /* \"#utility.yul\":1274:1299   */\n      swap1\n      dup2\n      mstore\n        /* \"#utility.yul\":1262:1264   */\n      0x20\n        /* \"#utility.yul\":1247:1265   */\n      add\n      swap1\n        /* \"#utility.yul\":1128:1305   */\n      jump\n        /* \"NoBOverround.sol\":21077:21108  CT.payoutDenominator(condition) */\n    tag_288:\n      0x20\n      mload(0x40)\n      dup1\n      dup4\n      sub\n      dup2\n      dup7\n      gas\n      staticcall\n      iszero\n      dup1\n      iszero\n      tag_290\n      jumpi\n      returndatasize\n      0x00\n      dup1\n      returndatacopy\n      revert(0x00, returndatasize)\n    tag_290:\n      pop\n      pop\n      pop\n      pop\n      mload(0x40)\n      returndatasize\n      not(0x1f)\n      0x1f\n      dup3\n      add\n      and\n      dup3\n      add\n      dup1\n      0x40\n      mstore\n      pop\n      dup2\n      add\n      swap1\n      tag_291\n      swap2\n      swap1\n      tag_292\n      jump\t// in\n    tag_291:\n        /* \"NoBOverround.sol\":21077:21113  CT.payoutDenominator(condition) == 0 */\n      iszero\n        /* \"NoBOverround.sol\":21069:21141  require(CT.payoutDenominator(condition) == 0, \"Market already resolved\") */\n      tag_293\n      jumpi\n      mload(0x40)\n      shl(0xe5, 0x461bcd)\n      dup2\n      mstore\n        /* \"#utility.yul\":13043:13045   */\n      0x20\n        /* \"NoBOverround.sol\":21069:21141  require(CT.payoutDenominator(condition) == 0, \"Market already resolved\") */\n      0x04\n      dup3\n      add\n        /* \"#utility.yul\":13025:13046   */\n      mstore\n        /* \"#utility.yul\":13082:13084   */\n      0x17\n        /* \"#utility.yul\":13062:13080   */\n      0x24\n      dup3\n      add\n        /* \"#utility.yul\":13055:13085   */\n      mstore\n        /* \"#utility.yul\":13121:13146   */\n      0x4d61726b657420616c7265616479207265736f6c766564000000000000000000\n        /* \"#utility.yul\":13101:13119   */\n      0x44\n      dup3\n      add\n        /* \"#utility.yul\":13094:13147   */\n      mstore\n        /* \"#utility.yul\":13164:13182   */\n      0x64\n      add\n        /* \"NoBOverround.sol\":21069:21141  require(CT.payoutDenominator(condition) == 0, \"Market already resolved\") */\n      tag_207\n        /* \"#utility.yul\":12841:13188   */\n      jump\n        /* \"NoBOverround.sol\":21069:21141  require(CT.payoutDenominator(condition) == 0, \"Market already resolved\") */\n    tag_293:\n        /* \"NoBOverround.sol\":21155:21166  numOutcomes */\n      sload(0x01)\n        /* \"NoBOverround.sol\":21170:21171  2 */\n      0x02\n        /* \"NoBOverround.sol\":21155:21171  numOutcomes == 2 */\n      eq\n        /* \"NoBOverround.sol\":21147:21219  require(numOutcomes == 2, \"This function only works for binary markets\") */\n      tag_296\n      jumpi\n      mload(0x40)\n      shl(0xe5, 0x461bcd)\n      dup2\n      mstore\n        /* \"#utility.yul\":13395:13397   */\n      0x20\n        /* \"NoBOverround.sol\":21147:21219  require(numOutcomes == 2, \"This function only works for binary markets\") */\n      0x04\n      dup3\n      add\n        /* \"#utility.yul\":13377:13398   */\n      mstore\n        /* \"#utility.yul\":13434:13436   */\n      0x2b\n        /* \"#utility.yul\":13414:13432   */\n      0x24\n      dup3\n      add\n        /* \"#utility.yul\":13407:13437   */\n      mstore\n        /* \"#utility.yul\":13473:13507   */\n      0x546869732066756e6374696f6e206f6e6c7920776f726b7320666f722062696e\n        /* \"#utility.yul\":13453:13471   */\n      0x44\n      dup3\n      add\n        /* \"#utility.yul\":13446:13508   */\n      mstore\n      shl(0xa8, 0x617279206d61726b657473)\n        /* \"#utility.yul\":13524:13542   */\n      0x64\n      dup3\n      add\n        /* \"#utility.yul\":13517:13558   */\n      mstore\n        /* \"#utility.yul\":13575:13594   */\n      0x84\n      add\n        /* \"NoBOverround.sol\":21147:21219  require(numOutcomes == 2, \"This function only works for binary markets\") */\n      tag_207\n        /* \"#utility.yul\":13193:13600   */\n      jump\n        /* \"NoBOverround.sol\":21147:21219  require(numOutcomes == 2, \"This function only works for binary markets\") */\n    tag_296:\n        /* \"NoBOverround.sol\":21261:21273  int128 prob0 */\n      0x00\n        /* \"NoBOverround.sol\":21276:21283  odds(0) */\n      tag_299\n        /* \"NoBOverround.sol\":21281:21282  0 */\n      0x00\n        /* \"NoBOverround.sol\":21276:21280  odds */\n      tag_95\n        /* \"NoBOverround.sol\":21276:21283  odds(0) */\n      jump\t// in\n    tag_299:\n        /* \"NoBOverround.sol\":21261:21283  int128 prob0 = odds(0) */\n      swap1\n      pop\n        /* \"NoBOverround.sol\":21315:21327  int128 prob1 */\n      0x00\n        /* \"NoBOverround.sol\":21330:21337  odds(1) */\n      tag_300\n        /* \"NoBOverround.sol\":21335:21336  1 */\n      0x01\n        /* \"NoBOverround.sol\":21330:21334  odds */\n      tag_95\n        /* \"NoBOverround.sol\":21330:21337  odds(1) */\n      jump\t// in\n    tag_300:\n        /* \"NoBOverround.sol\":21315:21337  int128 prob1 = odds(1) */\n      swap1\n      pop\n        /* \"NoBOverround.sol\":21443:21455  uint payout0 */\n      0x00\n        /* \"NoBOverround.sol\":21458:21484  ABDKMath.mulu(prob0, 1000) */\n      tag_301\n        /* \"NoBOverround.sol\":21472:21477  prob0 */\n      dup4\n        /* \"NoBOverround.sol\":21479:21483  1000 */\n      0x03e8\n        /* \"NoBOverround.sol\":21458:21471  ABDKMath.mulu */\n      tag_210\n        /* \"NoBOverround.sol\":21458:21484  ABDKMath.mulu(prob0, 1000) */\n      jump\t// in\n    tag_301:\n        /* \"NoBOverround.sol\":21443:21484  uint payout0 = ABDKMath.mulu(prob0, 1000) */\n      swap1\n      pop\n        /* \"NoBOverround.sol\":21490:21502  uint payout1 */\n      0x00\n        /* \"NoBOverround.sol\":21505:21531  ABDKMath.mulu(prob1, 1000) */\n      tag_302\n        /* \"NoBOverround.sol\":21519:21524  prob1 */\n      dup4\n        /* \"NoBOverround.sol\":21526:21530  1000 */\n      0x03e8\n        /* \"NoBOverround.sol\":21505:21518  ABDKMath.mulu */\n      tag_210\n        /* \"NoBOverround.sol\":21505:21531  ABDKMath.mulu(prob1, 1000) */\n      jump\t// in\n    tag_302:\n        /* \"NoBOverround.sol\":21606:21619  new uint[](2) */\n      0x40\n      dup1\n      mload\n        /* \"NoBOverround.sol\":21617:21618  2 */\n      0x02\n        /* \"NoBOverround.sol\":21606:21619  new uint[](2) */\n      dup1\n      dup3\n      mstore\n      0x60\n      dup3\n      add\n      dup4\n      mstore\n        /* \"NoBOverround.sol\":21490:21531  uint payout1 = ABDKMath.mulu(prob1, 1000) */\n      swap3\n      swap4\n      pop\n        /* \"NoBOverround.sol\":21582:21603  uint[] memory payouts */\n      0x00\n      swap3\n        /* \"NoBOverround.sol\":21606:21619  new uint[](2) */\n      swap1\n      swap2\n      0x20\n      dup4\n      add\n      swap1\n      dup1\n      calldatasize\n      dup4\n      calldatacopy\n      add\n      swap1\n      pop\n      pop\n        /* \"NoBOverround.sol\":21582:21619  uint[] memory payouts = new uint[](2) */\n      swap1\n      pop\n        /* \"NoBOverround.sol\":21638:21645  payout0 */\n      dup3\n        /* \"NoBOverround.sol\":21625:21632  payouts */\n      dup2\n        /* \"NoBOverround.sol\":21633:21634  0 */\n      0x00\n        /* \"NoBOverround.sol\":21625:21635  payouts[0] */\n      dup2\n      mload\n      dup2\n      lt\n      tag_308\n      jumpi\n      tag_308\n      tag_243\n      jump\t// in\n    tag_308:\n      0x20\n      mul\n      0x20\n      add\n      add\n        /* \"NoBOverround.sol\":21625:21645  payouts[0] = payout0 */\n      dup2\n      dup2\n      mstore\n      pop\n      pop\n        /* \"NoBOverround.sol\":21664:21671  payout1 */\n      dup2\n        /* \"NoBOverround.sol\":21651:21658  payouts */\n      dup2\n        /* \"NoBOverround.sol\":21659:21660  1 */\n      0x01\n        /* \"NoBOverround.sol\":21651:21661  payouts[1] */\n      dup2\n      mload\n      dup2\n      lt\n      tag_310\n      jumpi\n      tag_310\n      tag_243\n      jump\t// in\n    tag_310:\n      0x20\n      swap1\n      dup2\n      mul\n      swap2\n      swap1\n      swap2\n      add\n      add\n        /* \"NoBOverround.sol\":21651:21671  payouts[1] = payout1 */\n      mstore\n        /* \"NoBOverround.sol\":21732:21734  CT */\n      sload(0x07)\n        /* \"NoBOverround.sol\":21732:21770  CT.reportPayouts(_questionId, payouts) */\n      mload(0x40)\n      shl(0xe2, 0x3124a62b)\n      dup2\n      mstore\n      sub(shl(0xa0, 0x01), 0x01)\n        /* \"NoBOverround.sol\":21732:21734  CT */\n      swap1\n      swap2\n      and\n      swap1\n        /* \"NoBOverround.sol\":21732:21748  CT.reportPayouts */\n      0xc49298ac\n      swap1\n        /* \"NoBOverround.sol\":21732:21770  CT.reportPayouts(_questionId, payouts) */\n      tag_311\n      swap1\n        /* \"NoBOverround.sol\":21749:21760  _questionId */\n      dup10\n      swap1\n        /* \"NoBOverround.sol\":21762:21769  payouts */\n      dup6\n      swap1\n        /* \"NoBOverround.sol\":21732:21770  CT.reportPayouts(_questionId, payouts) */\n      0x04\n      add\n      tag_312\n      jump\t// in\n    tag_311:\n      0x00\n      mload(0x40)\n      dup1\n      dup4\n      sub\n      dup2\n      0x00\n      dup8\n      dup1\n      extcodesize\n      iszero\n      dup1\n      iszero\n      tag_313\n      jumpi\n      0x00\n      dup1\n      revert\n    tag_313:\n      pop\n      gas\n      call\n      iszero\n      dup1\n      iszero\n      tag_315\n      jumpi\n      returndatasize\n      0x00\n      dup1\n      returndatacopy\n      revert(0x00, returndatasize)\n    tag_315:\n      pop\n      pop\n      pop\n      pop\n        /* \"NoBOverround.sol\":21063:21773  {... */\n      pop\n      pop\n      pop\n      pop\n      pop\n        /* \"NoBOverround.sol\":21001:21773  function freezeMarket(bytes32 _questionId) external onlyOwner {... */\n      pop\n      jump\t// out\n        /* \"NoBOverround.sol\":20463:20999  function getPositionIds() public view returns (uint256 positionId0, uint256 positionId1) {... */\n    tag_83:\n        /* \"NoBOverround.sol\":20510:20529  uint256 positionId0 */\n      0x00\n        /* \"NoBOverround.sol\":20531:20550  uint256 positionId1 */\n      dup1\n        /* \"NoBOverround.sol\":20566:20577  numOutcomes */\n      sload(0x01)\n        /* \"NoBOverround.sol\":20581:20582  2 */\n      0x02\n        /* \"NoBOverround.sol\":20566:20582  numOutcomes == 2 */\n      eq\n        /* \"NoBOverround.sol\":20558:20630  require(numOutcomes == 2, \"This function only works for binary markets\") */\n      tag_317\n      jumpi\n      mload(0x40)\n      shl(0xe5, 0x461bcd)\n      dup2\n      mstore\n        /* \"#utility.yul\":13395:13397   */\n      0x20\n        /* \"NoBOverround.sol\":20558:20630  require(numOutcomes == 2, \"This function only works for binary markets\") */\n      0x04\n      dup3\n      add\n        /* \"#utility.yul\":13377:13398   */\n      mstore\n        /* \"#utility.yul\":13434:13436   */\n      0x2b\n        /* \"#utility.yul\":13414:13432   */\n      0x24\n      dup3\n      add\n        /* \"#utility.yul\":13407:13437   */\n      mstore\n        /* \"#utility.yul\":13473:13507   */\n      0x546869732066756e6374696f6e206f6e6c7920776f726b7320666f722062696e\n        /* \"#utility.yul\":13453:13471   */\n      0x44\n      dup3\n      add\n        /* \"#utility.yul\":13446:13508   */\n      mstore\n      shl(0xa8, 0x617279206d61726b657473)\n        /* \"#utility.yul\":13524:13542   */\n      0x64\n      dup3\n      add\n        /* \"#utility.yul\":13517:13558   */\n      mstore\n        /* \"#utility.yul\":13575:13594   */\n      0x84\n      add\n        /* \"NoBOverround.sol\":20558:20630  require(numOutcomes == 2, \"This function only works for binary markets\") */\n      tag_207\n        /* \"#utility.yul\":13193:13600   */\n      jump\n        /* \"NoBOverround.sol\":20558:20630  require(numOutcomes == 2, \"This function only works for binary markets\") */\n    tag_317:\n        /* \"NoBOverround.sol\":20698:20700  CT */\n      sload(0x07)\n        /* \"NoBOverround.sol\":20729:20738  condition */\n      sload(0x06)\n        /* \"NoBOverround.sol\":20698:20747  CT.getCollectionId(bytes32(0), condition, 1 << 0) */\n      mload(0x40)\n      shl(0xe0, 0x856296f7)\n      dup2\n      mstore\n        /* \"NoBOverround.sol\":20674:20695  bytes32 collectionId0 */\n      0x00\n        /* \"NoBOverround.sol\":20698:20747  CT.getCollectionId(bytes32(0), condition, 1 << 0) */\n      0x04\n      dup3\n      add\n        /* \"#utility.yul\":14152:14177   */\n      dup2\n      swap1\n      mstore\n        /* \"#utility.yul\":14193:14211   */\n      0x24\n      dup3\n      add\n        /* \"#utility.yul\":14186:14220   */\n      swap3\n      swap1\n      swap3\n      mstore\n        /* \"NoBOverround.sol\":20698:20700  CT */\n      0x01\n        /* \"#utility.yul\":14236:14254   */\n      0x44\n      dup3\n      add\n        /* \"#utility.yul\":14229:14263   */\n      mstore\n        /* \"NoBOverround.sol\":20674:20695  bytes32 collectionId0 */\n      swap1\n      swap2\n      sub(shl(0xa0, 0x01), 0x01)\n        /* \"NoBOverround.sol\":20698:20700  CT */\n      and\n      swap1\n        /* \"NoBOverround.sol\":20698:20716  CT.getCollectionId */\n      0x856296f7\n      swap1\n        /* \"#utility.yul\":14125:14143   */\n      0x64\n      add\n        /* \"NoBOverround.sol\":20698:20747  CT.getCollectionId(bytes32(0), condition, 1 << 0) */\n      0x20\n      mload(0x40)\n      dup1\n      dup4\n      sub\n      dup2\n      dup7\n      gas\n      staticcall\n      iszero\n      dup1\n      iszero\n      tag_322\n      jumpi\n      returndatasize\n      0x00\n      dup1\n      returndatacopy\n      revert(0x00, returndatasize)\n    tag_322:\n      pop\n      pop\n      pop\n      pop\n      mload(0x40)\n      returndatasize\n      not(0x1f)\n      0x1f\n      dup3\n      add\n      and\n      dup3\n      add\n      dup1\n      0x40\n      mstore\n      pop\n      dup2\n      add\n      swap1\n      tag_323\n      swap2\n      swap1\n      tag_292\n      jump\t// in\n    tag_323:\n        /* \"NoBOverround.sol\":20767:20769  CT */\n      sload(0x07)\n        /* \"NoBOverround.sol\":20791:20796  token */\n      sload(0x08)\n        /* \"NoBOverround.sol\":20767:20813  CT.getPositionId(IERC20(token), collectionId0) */\n      mload(0x40)\n      shl(0xe4, 0x039dd753)\n      dup2\n      mstore\n      sub(shl(0xa0, 0x01), 0x01)\n        /* \"NoBOverround.sol\":20791:20796  token */\n      swap2\n      dup3\n      and\n        /* \"NoBOverround.sol\":20767:20813  CT.getPositionId(IERC20(token), collectionId0) */\n      0x04\n      dup3\n      add\n        /* \"#utility.yul\":14653:14727   */\n      mstore\n        /* \"#utility.yul\":14743:14761   */\n      0x24\n      dup2\n      add\n        /* \"#utility.yul\":14736:14770   */\n      dup5\n      swap1\n      mstore\n        /* \"NoBOverround.sol\":20674:20747  bytes32 collectionId0 = CT.getCollectionId(bytes32(0), condition, 1 << 0) */\n      swap3\n      swap4\n      pop\n        /* \"NoBOverround.sol\":20767:20769  CT */\n      and\n      swap1\n        /* \"NoBOverround.sol\":20767:20783  CT.getPositionId */\n      0x39dd7530\n      swap1\n        /* \"#utility.yul\":14626:14644   */\n      0x44\n      add\n        /* \"NoBOverround.sol\":20767:20813  CT.getPositionId(IERC20(token), collectionId0) */\n      0x20\n      mload(0x40)\n      dup1\n      dup4\n      sub\n      dup2\n      dup7\n      gas\n      staticcall\n      iszero\n      dup1\n      iszero\n      tag_328\n      jumpi\n      returndatasize\n      0x00\n      dup1\n      returndatacopy\n      revert(0x00, returndatasize)\n    tag_328:\n      pop\n      pop\n      pop\n      pop\n      mload(0x40)\n      returndatasize\n      not(0x1f)\n      0x1f\n      dup3\n      add\n      and\n      dup3\n      add\n      dup1\n      0x40\n      mstore\n      pop\n      dup2\n      add\n      swap1\n      tag_329\n      swap2\n      swap1\n      tag_292\n      jump\t// in\n    tag_329:\n        /* \"NoBOverround.sol\":20881:20883  CT */\n      sload(0x07)\n        /* \"NoBOverround.sol\":20912:20921  condition */\n      sload(0x06)\n        /* \"NoBOverround.sol\":20881:20930  CT.getCollectionId(bytes32(0), condition, 1 << 1) */\n      mload(0x40)\n      shl(0xe0, 0x856296f7)\n      dup2\n      mstore\n        /* \"NoBOverround.sol\":20857:20878  bytes32 collectionId1 */\n      0x00\n        /* \"NoBOverround.sol\":20881:20930  CT.getCollectionId(bytes32(0), condition, 1 << 1) */\n      0x04\n      dup3\n      add\n        /* \"#utility.yul\":14152:14177   */\n      dup2\n      swap1\n      mstore\n        /* \"#utility.yul\":14193:14211   */\n      0x24\n      dup3\n      add\n        /* \"#utility.yul\":14186:14220   */\n      swap3\n      swap1\n      swap3\n      mstore\n        /* \"NoBOverround.sol\":20923:20929  1 << 1 */\n      0x02\n        /* \"#utility.yul\":14236:14254   */\n      0x44\n      dup3\n      add\n        /* \"#utility.yul\":14229:14263   */\n      mstore\n        /* \"NoBOverround.sol\":20753:20813  positionId0 = CT.getPositionId(IERC20(token), collectionId0) */\n      swap3\n      swap6\n      pop\n        /* \"NoBOverround.sol\":20857:20878  bytes32 collectionId1 */\n      swap2\n      sub(shl(0xa0, 0x01), 0x01)\n        /* \"NoBOverround.sol\":20881:20883  CT */\n      swap1\n      swap2\n      and\n      swap1\n        /* \"NoBOverround.sol\":20881:20899  CT.getCollectionId */\n      0x856296f7\n      swap1\n        /* \"#utility.yul\":14125:14143   */\n      0x64\n      add\n        /* \"NoBOverround.sol\":20881:20930  CT.getCollectionId(bytes32(0), condition, 1 << 1) */\n      0x20\n      mload(0x40)\n      dup1\n      dup4\n      sub\n      dup2\n      dup7\n      gas\n      staticcall\n      iszero\n      dup1\n      iszero\n      tag_333\n      jumpi\n      returndatasize\n      0x00\n      dup1\n      returndatacopy\n      revert(0x00, returndatasize)\n    tag_333:\n      pop\n      pop\n      pop\n      pop\n      mload(0x40)\n      returndatasize\n      not(0x1f)\n      0x1f\n      dup3\n      add\n      and\n      dup3\n      add\n      dup1\n      0x40\n      mstore\n      pop\n      dup2\n      add\n      swap1\n      tag_334\n      swap2\n      swap1\n      tag_292\n      jump\t// in\n    tag_334:\n        /* \"NoBOverround.sol\":20950:20952  CT */\n      sload(0x07)\n        /* \"NoBOverround.sol\":20974:20979  token */\n      sload(0x08)\n        /* \"NoBOverround.sol\":20950:20996  CT.getPositionId(IERC20(token), collectionId1) */\n      mload(0x40)\n      shl(0xe4, 0x039dd753)\n      dup2\n      mstore\n      sub(shl(0xa0, 0x01), 0x01)\n        /* \"NoBOverround.sol\":20974:20979  token */\n      swap2\n      dup3\n      and\n        /* \"NoBOverround.sol\":20950:20996  CT.getPositionId(IERC20(token), collectionId1) */\n      0x04\n      dup3\n      add\n        /* \"#utility.yul\":14653:14727   */\n      mstore\n        /* \"#utility.yul\":14743:14761   */\n      0x24\n      dup2\n      add\n        /* \"#utility.yul\":14736:14770   */\n      dup5\n      swap1\n      mstore\n        /* \"NoBOverround.sol\":20857:20930  bytes32 collectionId1 = CT.getCollectionId(bytes32(0), condition, 1 << 1) */\n      swap3\n      swap4\n      pop\n        /* \"NoBOverround.sol\":20950:20952  CT */\n      and\n      swap1\n        /* \"NoBOverround.sol\":20950:20966  CT.getPositionId */\n      0x39dd7530\n      swap1\n        /* \"#utility.yul\":14626:14644   */\n      0x44\n      add\n        /* \"NoBOverround.sol\":20950:20996  CT.getPositionId(IERC20(token), collectionId1) */\n      0x20\n      mload(0x40)\n      dup1\n      dup4\n      sub\n      dup2\n      dup7\n      gas\n      staticcall\n      iszero\n      dup1\n      iszero\n      tag_337\n      jumpi\n      returndatasize\n      0x00\n      dup1\n      returndatacopy\n      revert(0x00, returndatasize)\n    tag_337:\n      pop\n      pop\n      pop\n      pop\n      mload(0x40)\n      returndatasize\n      not(0x1f)\n      0x1f\n      dup3\n      add\n      and\n      dup3\n      add\n      dup1\n      0x40\n      mstore\n      pop\n      dup2\n      add\n      swap1\n      tag_338\n      swap2\n      swap1\n      tag_292\n      jump\t// in\n    tag_338:\n        /* \"NoBOverround.sol\":20936:20996  positionId1 = CT.getPositionId(IERC20(token), collectionId1) */\n      swap3\n      pop\n        /* \"NoBOverround.sol\":20552:20999  {... */\n      pop\n      pop\n        /* \"NoBOverround.sol\":20463:20999  function getPositionIds() public view returns (uint256 positionId0, uint256 positionId1) {... */\n      swap1\n      swap2\n      jump\t// out\n        /* \"NoBOverround.sol\":6955:7390  function withdraw() public onlyAfterInit() onlyOwner() {... */\n    tag_87:\n        /* \"NoBOverround.sol\":14654:14658  init */\n      sload(0x08)\n      shl(0xa0, 0x01)\n      swap1\n      div\n      0xff\n      and\n        /* \"NoBOverround.sol\":14654:14666  init == true */\n      iszero\n      iszero\n        /* \"NoBOverround.sol\":14662:14666  true */\n      0x01\n        /* \"NoBOverround.sol\":14654:14666  init == true */\n      eq\n        /* \"NoBOverround.sol\":14646:14667  require(init == true) */\n      tag_340\n      jumpi\n      0x00\n      dup1\n      revert\n    tag_340:\n        /* \"@openzeppelin/contracts/access/Ownable.sol\":1531:1544   */\n      tag_342\n        /* \"@openzeppelin/contracts/access/Ownable.sol\":1531:1542   */\n      tag_286\n        /* \"@openzeppelin/contracts/access/Ownable.sol\":1531:1544   */\n      jump\t// in\n    tag_342:\n        /* \"NoBOverround.sol\":7024:7026  CT */\n      sload(0x07)\n        /* \"NoBOverround.sol\":7045:7054  condition */\n      sload(0x06)\n        /* \"NoBOverround.sol\":7024:7055  CT.payoutDenominator(condition) */\n      mload(0x40)\n      shl(0xe0, 0xdd34de67)\n      dup2\n      mstore\n      sub(shl(0xa0, 0x01), 0x01)\n        /* \"NoBOverround.sol\":7024:7026  CT */\n      swap1\n      swap3\n      and\n      swap2\n        /* \"NoBOverround.sol\":7024:7044  CT.payoutDenominator */\n      0xdd34de67\n      swap2\n        /* \"NoBOverround.sol\":7024:7055  CT.payoutDenominator(condition) */\n      tag_344\n      swap2\n      0x04\n      add\n        /* \"#utility.yul\":1274:1299   */\n      swap1\n      dup2\n      mstore\n        /* \"#utility.yul\":1262:1264   */\n      0x20\n        /* \"#utility.yul\":1247:1265   */\n      add\n      swap1\n        /* \"#utility.yul\":1128:1305   */\n      jump\n        /* \"NoBOverround.sol\":7024:7055  CT.payoutDenominator(condition) */\n    tag_344:\n      0x20\n      mload(0x40)\n      dup1\n      dup4\n      sub\n      dup2\n      dup7\n      gas\n      staticcall\n      iszero\n      dup1\n      iszero\n      tag_346\n      jumpi\n      returndatasize\n      0x00\n      dup1\n      returndatacopy\n      revert(0x00, returndatasize)\n    tag_346:\n      pop\n      pop\n      pop\n      pop\n      mload(0x40)\n      returndatasize\n      not(0x1f)\n      0x1f\n      dup3\n      add\n      and\n      dup3\n      add\n      dup1\n      0x40\n      mstore\n      pop\n      dup2\n      add\n      swap1\n      tag_347\n      swap2\n      swap1\n      tag_292\n      jump\t// in\n    tag_347:\n        /* \"NoBOverround.sol\":7059:7060  0 */\n      0x00\n        /* \"NoBOverround.sol\":7024:7060  CT.payoutDenominator(condition) != 0 */\n      sub\n        /* \"NoBOverround.sol\":7016:7092  require(CT.payoutDenominator(condition) != 0, 'Market needs to be resolved') */\n      tag_348\n      jumpi\n      mload(0x40)\n      shl(0xe5, 0x461bcd)\n      dup2\n      mstore\n        /* \"#utility.yul\":15315:15317   */\n      0x20\n        /* \"NoBOverround.sol\":7016:7092  require(CT.payoutDenominator(condition) != 0, 'Market needs to be resolved') */\n      0x04\n      dup3\n      add\n        /* \"#utility.yul\":15297:15318   */\n      mstore\n        /* \"#utility.yul\":15354:15356   */\n      0x1b\n        /* \"#utility.yul\":15334:15352   */\n      0x24\n      dup3\n      add\n        /* \"#utility.yul\":15327:15357   */\n      mstore\n        /* \"#utility.yul\":15393:15422   */\n      0x4d61726b6574206e6565647320746f206265207265736f6c7665640000000000\n        /* \"#utility.yul\":15373:15391   */\n      0x44\n      dup3\n      add\n        /* \"#utility.yul\":15366:15423   */\n      mstore\n        /* \"#utility.yul\":15440:15458   */\n      0x64\n      add\n        /* \"NoBOverround.sol\":7016:7092  require(CT.payoutDenominator(condition) != 0, 'Market needs to be resolved') */\n      tag_207\n        /* \"#utility.yul\":15113:15464   */\n      jump\n        /* \"NoBOverround.sol\":7016:7092  require(CT.payoutDenominator(condition) != 0, 'Market needs to be resolved') */\n    tag_348:\n        /* \"NoBOverround.sol\":7098:7116  uint[] memory dust */\n      0x00\n        /* \"NoBOverround.sol\":7133:7144  numOutcomes */\n      sload(0x01)\n        /* \"NoBOverround.sol\":7119:7145  new uint256[](numOutcomes) */\n      0xffffffffffffffff\n      dup2\n      gt\n      iszero\n      tag_352\n      jumpi\n      tag_352\n      tag_305\n      jump\t// in\n    tag_352:\n      mload(0x40)\n      swap1\n      dup1\n      dup3\n      mstore\n      dup1\n      0x20\n      mul\n      0x20\n      add\n      dup3\n      add\n      0x40\n      mstore\n      dup1\n      iszero\n      tag_353\n      jumpi\n      dup2\n      0x20\n      add\n      0x20\n      dup3\n      mul\n      dup1\n      calldatasize\n      dup4\n      calldatacopy\n      add\n      swap1\n      pop\n    tag_353:\n      pop\n        /* \"NoBOverround.sol\":7098:7145  uint[] memory dust = new uint256[](numOutcomes) */\n      swap1\n      pop\n        /* \"NoBOverround.sol\":7175:7181  uint i */\n      0x00\n        /* \"NoBOverround.sol\":7170:7234  for (uint i=0; i<numOutcomes; i++) {... */\n    tag_354:\n        /* \"NoBOverround.sol\":7187:7198  numOutcomes */\n      sload(0x01)\n        /* \"NoBOverround.sol\":7185:7186  i */\n      dup2\n        /* \"NoBOverround.sol\":7185:7198  i<numOutcomes */\n      lt\n        /* \"NoBOverround.sol\":7170:7234  for (uint i=0; i<numOutcomes; i++) {... */\n      iszero\n      tag_355\n      jumpi\n        /* \"NoBOverround.sol\":7226:7227  i */\n      dup1\n        /* \"NoBOverround.sol\":7223:7224  1 */\n      0x01\n        /* \"NoBOverround.sol\":7223:7227  1<<i */\n      swap1\n      shl\n        /* \"NoBOverround.sol\":7213:7217  dust */\n      dup3\n        /* \"NoBOverround.sol\":7218:7219  i */\n      dup3\n        /* \"NoBOverround.sol\":7213:7220  dust[i] */\n      dup2\n      mload\n      dup2\n      lt\n      tag_358\n      jumpi\n      tag_358\n      tag_243\n      jump\t// in\n    tag_358:\n      0x20\n      swap1\n      dup2\n      mul\n      swap2\n      swap1\n      swap2\n      add\n      add\n        /* \"NoBOverround.sol\":7213:7227  dust[i] = 1<<i */\n      mstore\n        /* \"NoBOverround.sol\":7200:7203  i++ */\n      0x01\n      add\n        /* \"NoBOverround.sol\":7170:7234  for (uint i=0; i<numOutcomes; i++) {... */\n      jump(tag_354)\n    tag_355:\n      pop\n        /* \"NoBOverround.sol\":7239:7241  CT */\n      sload(0x07)\n        /* \"NoBOverround.sol\":7265:7270  token */\n      sload(0x08)\n        /* \"NoBOverround.sol\":7285:7294  condition */\n      sload(0x06)\n        /* \"NoBOverround.sol\":7239:7301  CT.redeemPositions(IERC20(token), bytes32(0), condition, dust) */\n      mload(0x40)\n      shl(0xe2, 0x6dc0df)\n      dup2\n      mstore\n      sub(shl(0xa0, 0x01), 0x01)\n        /* \"NoBOverround.sol\":7239:7241  CT */\n      swap4\n      dup5\n      and\n      swap4\n        /* \"NoBOverround.sol\":7239:7257  CT.redeemPositions */\n      0x01b7037c\n      swap4\n        /* \"NoBOverround.sol\":7239:7301  CT.redeemPositions(IERC20(token), bytes32(0), condition, dust) */\n      tag_359\n      swap4\n        /* \"NoBOverround.sol\":7265:7270  token */\n      swap2\n      and\n      swap2\n        /* \"NoBOverround.sol\":7239:7241  CT */\n      0x00\n      swap2\n        /* \"NoBOverround.sol\":7285:7294  condition */\n      swap1\n        /* \"NoBOverround.sol\":7296:7300  dust */\n      dup8\n      swap1\n        /* \"NoBOverround.sol\":7239:7301  CT.redeemPositions(IERC20(token), bytes32(0), condition, dust) */\n      0x04\n      add\n      tag_360\n      jump\t// in\n    tag_359:\n      0x00\n      mload(0x40)\n      dup1\n      dup4\n      sub\n      dup2\n      0x00\n      dup8\n      dup1\n      extcodesize\n      iszero\n      dup1\n      iszero\n      tag_361\n      jumpi\n      0x00\n      dup1\n      revert\n    tag_361:\n      pop\n      gas\n      call\n      iszero\n      dup1\n      iszero\n      tag_363\n      jumpi\n      returndatasize\n      0x00\n      dup1\n      returndatacopy\n      revert(0x00, returndatasize)\n    tag_363:\n      pop\n      pop\n        /* \"NoBOverround.sol\":7353:7358  token */\n      sload(0x08)\n        /* \"NoBOverround.sol\":7346:7384  IERC20(token).balanceOf(address(this)) */\n      mload(0x40)\n      shl(0xe0, 0x70a08231)\n      dup2\n      mstore\n        /* \"NoBOverround.sol\":7378:7382  this */\n      address\n        /* \"NoBOverround.sol\":7346:7384  IERC20(token).balanceOf(address(this)) */\n      0x04\n      dup3\n      add\n        /* \"#utility.yul\":5660:5734   */\n      mstore\n        /* \"NoBOverround.sol\":7307:7385  IERC20(token).safeTransfer(msg.sender, IERC20(token).balanceOf(address(this))) */\n      tag_364\n      swap4\n      pop\n        /* \"NoBOverround.sol\":7334:7344  msg.sender */\n      caller\n      swap3\n      pop\n      sub(shl(0xa0, 0x01), 0x01)\n        /* \"NoBOverround.sol\":7353:7358  token */\n      swap1\n      swap2\n      and\n      swap1\n        /* \"NoBOverround.sol\":7346:7369  IERC20(token).balanceOf */\n      0x70a08231\n      swap1\n        /* \"#utility.yul\":5633:5651   */\n      0x24\n      add\n        /* \"NoBOverround.sol\":7346:7384  IERC20(token).balanceOf(address(this)) */\n      0x20\n      mload(0x40)\n      dup1\n      dup4\n      sub\n      dup2\n      dup7\n      gas\n      staticcall\n      iszero\n      dup1\n      iszero\n      tag_367\n      jumpi\n      returndatasize\n      0x00\n      dup1\n      returndatacopy\n      revert(0x00, returndatasize)\n    tag_367:\n      pop\n      pop\n      pop\n      pop\n      mload(0x40)\n      returndatasize\n      not(0x1f)\n      0x1f\n      dup3\n      add\n      and\n      dup3\n      add\n      dup1\n      0x40\n      mstore\n      pop\n      dup2\n      add\n      swap1\n      tag_368\n      swap2\n      swap1\n      tag_292\n      jump\t// in\n    tag_368:\n        /* \"NoBOverround.sol\":7314:7319  token */\n      and(sub(shl(0xa0, 0x01), 0x01), sload(0x08))\n      swap2\n        /* \"NoBOverround.sol\":7307:7385  IERC20(token).safeTransfer(msg.sender, IERC20(token).balanceOf(address(this))) */\n      swap1\n        /* \"NoBOverround.sol\":7307:7333  IERC20(token).safeTransfer */\n      tag_369\n        /* \"NoBOverround.sol\":7307:7385  IERC20(token).safeTransfer(msg.sender, IERC20(token).balanceOf(address(this))) */\n      jump\t// in\n    tag_364:\n        /* \"NoBOverround.sol\":7010:7390  {... */\n      pop\n        /* \"NoBOverround.sol\":6955:7390  function withdraw() public onlyAfterInit() onlyOwner() {... */\n      jump\t// out\n        /* \"NoBOverround.sol\":12485:12865  function getTokenWei(address _token, int128 _amount) public view returns (uint) {... */\n    tag_90:\n        /* \"NoBOverround.sol\":12559:12563  uint */\n      0x00\n        /* \"NoBOverround.sol\":12571:12577  uint d */\n      dup1\n        /* \"NoBOverround.sol\":12586:12592  _token */\n      dup4\n      sub(shl(0xa0, 0x01), 0x01)\n        /* \"NoBOverround.sol\":12580:12602  ERC20(_token).decimals */\n      and\n      0x313ce567\n        /* \"NoBOverround.sol\":12580:12604  ERC20(_token).decimals() */\n      mload(0x40)\n      dup2\n      0xffffffff\n      and\n      0xe0\n      shl\n      dup2\n      mstore\n      0x04\n      add\n      0x20\n      mload(0x40)\n      dup1\n      dup4\n      sub\n      dup2\n      dup7\n      gas\n      staticcall\n      iszero\n      dup1\n      iszero\n      tag_372\n      jumpi\n      returndatasize\n      0x00\n      dup1\n      returndatacopy\n      revert(0x00, returndatasize)\n    tag_372:\n      pop\n      pop\n      pop\n      pop\n      mload(0x40)\n      returndatasize\n      not(0x1f)\n      0x1f\n      dup3\n      add\n      and\n      dup3\n      add\n      dup1\n      0x40\n      mstore\n      pop\n      dup2\n      add\n      swap1\n      tag_373\n      swap2\n      swap1\n      tag_203\n      jump\t// in\n    tag_373:\n        /* \"NoBOverround.sol\":12571:12604  uint d = ERC20(_token).decimals() */\n      0xff\n      and\n      swap1\n      pop\n        /* \"NoBOverround.sol\":12610:12625  uint multiplier */\n      0x00\n        /* \"NoBOverround.sol\":12628:12635  10 ** d */\n      tag_374\n        /* \"NoBOverround.sol\":12571:12604  uint d = ERC20(_token).decimals() */\n      dup3\n        /* \"NoBOverround.sol\":12628:12630  10 */\n      0x0a\n        /* \"NoBOverround.sol\":12628:12635  10 ** d */\n      tag_205\n      jump\t// in\n    tag_374:\n        /* \"NoBOverround.sol\":12610:12635  uint multiplier = 10 ** d */\n      swap1\n      pop\n        /* \"NoBOverround.sol\":12660:12661  0 */\n      0x00\n        /* \"NoBOverround.sol\":12649:12656  _amount */\n      dup5\n        /* \"NoBOverround.sol\":12649:12661  _amount >= 0 */\n      0x0f\n      signextend\n      slt\n      iszero\n        /* \"NoBOverround.sol\":12641:12693  require(_amount >= 0, \"Amount must be non-negative\") */\n      tag_375\n      jumpi\n      mload(0x40)\n      shl(0xe5, 0x461bcd)\n      dup2\n      mstore\n        /* \"#utility.yul\":10762:10764   */\n      0x20\n        /* \"NoBOverround.sol\":12641:12693  require(_amount >= 0, \"Amount must be non-negative\") */\n      0x04\n      dup3\n      add\n        /* \"#utility.yul\":10744:10765   */\n      mstore\n        /* \"#utility.yul\":10801:10803   */\n      0x1b\n        /* \"#utility.yul\":10781:10799   */\n      0x24\n      dup3\n      add\n        /* \"#utility.yul\":10774:10804   */\n      mstore\n        /* \"#utility.yul\":10840:10869   */\n      0x416d6f756e74206d757374206265206e6f6e2d6e656761746976650000000000\n        /* \"#utility.yul\":10820:10838   */\n      0x44\n      dup3\n      add\n        /* \"#utility.yul\":10813:10870   */\n      mstore\n        /* \"#utility.yul\":10887:10905   */\n      0x64\n      add\n        /* \"NoBOverround.sol\":12641:12693  require(_amount >= 0, \"Amount must be non-negative\") */\n      tag_207\n        /* \"#utility.yul\":10560:10911   */\n      jump\n        /* \"NoBOverround.sol\":12641:12693  require(_amount >= 0, \"Amount must be non-negative\") */\n    tag_375:\n        /* \"NoBOverround.sol\":12743:12754  uint result */\n      0x00\n        /* \"NoBOverround.sol\":12757:12791  ABDKMath.mulu(_amount, multiplier) */\n      tag_214\n        /* \"NoBOverround.sol\":12771:12778  _amount */\n      dup6\n        /* \"NoBOverround.sol\":12780:12790  multiplier */\n      dup4\n        /* \"NoBOverround.sol\":12757:12770  ABDKMath.mulu */\n      tag_210\n        /* \"NoBOverround.sol\":12757:12791  ABDKMath.mulu(_amount, multiplier) */\n      jump\t// in\n        /* \"NoBOverround.sol\":11602:12153  function odds(... */\n    tag_95:\n        /* \"NoBOverround.sol\":11663:11669  int128 */\n      0x00\n        /* \"NoBOverround.sol\":11696:11707  numOutcomes */\n      sload(0x01)\n        /* \"NoBOverround.sol\":11685:11693  _outcome */\n      dup3\n        /* \"NoBOverround.sol\":11685:11707  _outcome < numOutcomes */\n      lt\n        /* \"NoBOverround.sol\":11677:11733  require(_outcome < numOutcomes, \"Invalid outcome index\") */\n      tag_379\n      jumpi\n      mload(0x40)\n      shl(0xe5, 0x461bcd)\n      dup2\n      mstore\n        /* \"#utility.yul\":11248:11250   */\n      0x20\n        /* \"NoBOverround.sol\":11677:11733  require(_outcome < numOutcomes, \"Invalid outcome index\") */\n      0x04\n      dup3\n      add\n        /* \"#utility.yul\":11230:11251   */\n      mstore\n        /* \"#utility.yul\":11287:11289   */\n      0x15\n        /* \"#utility.yul\":11267:11285   */\n      0x24\n      dup3\n      add\n        /* \"#utility.yul\":11260:11290   */\n      mstore\n      shl(0x5b, 0x092dcecc2d8d2c840deeae8c6dedaca40d2dcc8caf)\n        /* \"#utility.yul\":11306:11324   */\n      0x44\n      dup3\n      add\n        /* \"#utility.yul\":11299:11350   */\n      mstore\n        /* \"#utility.yul\":11367:11385   */\n      0x64\n      add\n        /* \"NoBOverround.sol\":11677:11733  require(_outcome < numOutcomes, \"Invalid outcome index\") */\n      tag_207\n        /* \"#utility.yul\":11046:11391   */\n      jump\n        /* \"NoBOverround.sol\":11677:11733  require(_outcome < numOutcomes, \"Invalid outcome index\") */\n    tag_379:\n        /* \"NoBOverround.sol\":11785:11801  int128 numerator */\n      0x00\n        /* \"NoBOverround.sol\":11804:11846  ABDKMath.exp(ABDKMath.div(q[_outcome], b)) */\n      tag_381\n        /* \"NoBOverround.sol\":11817:11845  ABDKMath.div(q[_outcome], b) */\n      tag_229\n        /* \"NoBOverround.sol\":11830:11831  q */\n      0x02\n        /* \"NoBOverround.sol\":11832:11840  _outcome */\n      dup6\n        /* \"NoBOverround.sol\":11830:11841  q[_outcome] */\n      dup2\n      sload\n      dup2\n      lt\n      tag_242\n      jumpi\n      tag_242\n      tag_243\n      jump\t// in\n        /* \"NoBOverround.sol\":11804:11846  ABDKMath.exp(ABDKMath.div(q[_outcome], b)) */\n    tag_381:\n        /* \"NoBOverround.sol\":11785:11846  int128 numerator = ABDKMath.exp(ABDKMath.div(q[_outcome], b)) */\n      swap1\n      pop\n        /* \"NoBOverround.sol\":11899:11917  int128 denominator */\n      0x00\n      dup1\n        /* \"NoBOverround.sol\":11923:12053  for (uint i = 0; i < numOutcomes; i++) {... */\n    tag_386:\n        /* \"NoBOverround.sol\":11944:11955  numOutcomes */\n      sload(0x01)\n        /* \"NoBOverround.sol\":11940:11941  i */\n      dup2\n        /* \"NoBOverround.sol\":11940:11955  i < numOutcomes */\n      lt\n        /* \"NoBOverround.sol\":11923:12053  for (uint i = 0; i < numOutcomes; i++) {... */\n      iszero\n      tag_387\n      jumpi\n        /* \"NoBOverround.sol\":11984:12046  ABDKMath.add(denominator, ABDKMath.exp(ABDKMath.div(q[i], b))) */\n      tag_389\n        /* \"NoBOverround.sol\":11997:12008  denominator */\n      dup3\n        /* \"NoBOverround.sol\":12010:12045  ABDKMath.exp(ABDKMath.div(q[i], b)) */\n      tag_239\n        /* \"NoBOverround.sol\":12023:12044  ABDKMath.div(q[i], b) */\n      tag_229\n        /* \"NoBOverround.sol\":12036:12037  q */\n      0x02\n        /* \"NoBOverround.sol\":12038:12039  i */\n      dup6\n        /* \"NoBOverround.sol\":12036:12040  q[i] */\n      dup2\n      sload\n      dup2\n      lt\n      tag_242\n      jumpi\n      tag_242\n      tag_243\n      jump\t// in\n        /* \"NoBOverround.sol\":11984:12046  ABDKMath.add(denominator, ABDKMath.exp(ABDKMath.div(q[i], b))) */\n    tag_389:\n        /* \"NoBOverround.sol\":11970:12046  denominator = ABDKMath.add(denominator, ABDKMath.exp(ABDKMath.div(q[i], b))) */\n      swap2\n      pop\n        /* \"NoBOverround.sol\":11957:11960  i++ */\n      0x01\n      add\n        /* \"NoBOverround.sol\":11923:12053  for (uint i = 0; i < numOutcomes; i++) {... */\n      jump(tag_386)\n    tag_387:\n      pop\n        /* \"NoBOverround.sol\":12112:12148  ABDKMath.div(numerator, denominator) */\n      tag_267\n        /* \"NoBOverround.sol\":12125:12134  numerator */\n      dup3\n        /* \"NoBOverround.sol\":12136:12147  denominator */\n      dup3\n        /* \"NoBOverround.sol\":12112:12124  ABDKMath.div */\n      tag_230\n        /* \"NoBOverround.sol\":12112:12148  ABDKMath.div(numerator, denominator) */\n      jump\t// in\n        /* \"NoBOverround.sol\":19506:19880  function withdrawFees() public onlyOwner {... */\n    tag_98:\n        /* \"@openzeppelin/contracts/access/Ownable.sol\":1531:1544   */\n      tag_397\n        /* \"@openzeppelin/contracts/access/Ownable.sol\":1531:1542   */\n      tag_286\n        /* \"@openzeppelin/contracts/access/Ownable.sol\":1531:1544   */\n      jump\t// in\n    tag_397:\n        /* \"NoBOverround.sol\":19581:19586  token */\n      sload(0x08)\n        /* \"NoBOverround.sol\":19574:19612  IERC20(token).balanceOf(address(this)) */\n      mload(0x40)\n      shl(0xe0, 0x70a08231)\n      dup2\n      mstore\n        /* \"NoBOverround.sol\":19606:19610  this */\n      address\n        /* \"NoBOverround.sol\":19574:19612  IERC20(token).balanceOf(address(this)) */\n      0x04\n      dup3\n      add\n        /* \"#utility.yul\":5660:5734   */\n      mstore\n        /* \"NoBOverround.sol\":19553:19571  uint actualBalance */\n      0x00\n      swap2\n      sub(shl(0xa0, 0x01), 0x01)\n        /* \"NoBOverround.sol\":19581:19586  token */\n      and\n      swap1\n        /* \"NoBOverround.sol\":19574:19597  IERC20(token).balanceOf */\n      0x70a08231\n      swap1\n        /* \"#utility.yul\":5633:5651   */\n      0x24\n      add\n        /* \"NoBOverround.sol\":19574:19612  IERC20(token).balanceOf(address(this)) */\n      0x20\n      mload(0x40)\n      dup1\n      dup4\n      sub\n      dup2\n      dup7\n      gas\n      staticcall\n      iszero\n      dup1\n      iszero\n      tag_401\n      jumpi\n      returndatasize\n      0x00\n      dup1\n      returndatacopy\n      revert(0x00, returndatasize)\n    tag_401:\n      pop\n      pop\n      pop\n      pop\n      mload(0x40)\n      returndatasize\n      not(0x1f)\n      0x1f\n      dup3\n      add\n      and\n      dup3\n      add\n      dup1\n      0x40\n      mstore\n      pop\n      dup2\n      add\n      swap1\n      tag_402\n      swap2\n      swap1\n      tag_292\n      jump\t// in\n    tag_402:\n        /* \"NoBOverround.sol\":19653:19658  token */\n      sload(0x08)\n        /* \"NoBOverround.sol\":19660:19672  current_cost */\n      sload(0x03)\n        /* \"NoBOverround.sol\":19553:19612  uint actualBalance = IERC20(token).balanceOf(address(this)) */\n      swap2\n      swap3\n      pop\n        /* \"NoBOverround.sol\":19618:19638  uint theoreticalCost */\n      0x00\n      swap2\n        /* \"NoBOverround.sol\":19641:19673  getTokenWei(token, current_cost) */\n      tag_403\n      swap2\n      sub(shl(0xa0, 0x01), 0x01)\n        /* \"NoBOverround.sol\":19653:19658  token */\n      and\n      swap1\n      shl(0x80, 0x01)\n        /* \"NoBOverround.sol\":19660:19672  current_cost */\n      swap1\n      div\n      0x0f\n      signextend\n        /* \"NoBOverround.sol\":19641:19652  getTokenWei */\n      tag_90\n        /* \"NoBOverround.sol\":19641:19673  getTokenWei(token, current_cost) */\n      jump\t// in\n    tag_403:\n        /* \"NoBOverround.sol\":19618:19673  uint theoreticalCost = getTokenWei(token, current_cost) */\n      swap1\n      pop\n        /* \"NoBOverround.sol\":19703:19718  theoreticalCost */\n      dup1\n        /* \"NoBOverround.sol\":19687:19700  actualBalance */\n      dup3\n        /* \"NoBOverround.sol\":19687:19718  actualBalance > theoreticalCost */\n      gt\n        /* \"NoBOverround.sol\":19679:19742  require(actualBalance > theoreticalCost, \"No fees to withdraw\") */\n      tag_404\n      jumpi\n      mload(0x40)\n      shl(0xe5, 0x461bcd)\n      dup2\n      mstore\n        /* \"#utility.yul\":16217:16219   */\n      0x20\n        /* \"NoBOverround.sol\":19679:19742  require(actualBalance > theoreticalCost, \"No fees to withdraw\") */\n      0x04\n      dup3\n      add\n        /* \"#utility.yul\":16199:16220   */\n      mstore\n        /* \"#utility.yul\":16256:16258   */\n      0x13\n        /* \"#utility.yul\":16236:16254   */\n      0x24\n      dup3\n      add\n        /* \"#utility.yul\":16229:16259   */\n      mstore\n        /* \"#utility.yul\":16295:16316   */\n      0x4e6f206665657320746f20776974686472617700000000000000000000000000\n        /* \"#utility.yul\":16275:16293   */\n      0x44\n      dup3\n      add\n        /* \"#utility.yul\":16268:16317   */\n      mstore\n        /* \"#utility.yul\":16334:16352   */\n      0x64\n      add\n        /* \"NoBOverround.sol\":19679:19742  require(actualBalance > theoreticalCost, \"No fees to withdraw\") */\n      tag_207\n        /* \"#utility.yul\":16015:16358   */\n      jump\n        /* \"NoBOverround.sol\":19679:19742  require(actualBalance > theoreticalCost, \"No fees to withdraw\") */\n    tag_404:\n        /* \"NoBOverround.sol\":19748:19757  uint fees */\n      0x00\n        /* \"NoBOverround.sol\":19760:19791  actualBalance - theoreticalCost */\n      tag_407\n        /* \"NoBOverround.sol\":19776:19791  theoreticalCost */\n      dup3\n        /* \"NoBOverround.sol\":19760:19773  actualBalance */\n      dup5\n        /* \"NoBOverround.sol\":19760:19791  actualBalance - theoreticalCost */\n      tag_408\n      jump\t// in\n    tag_407:\n        /* \"NoBOverround.sol\":19748:19791  uint fees = actualBalance - theoreticalCost */\n      swap1\n      pop\n        /* \"NoBOverround.sol\":19797:19838  IERC20(token).safeTransfer(owner(), fees) */\n      tag_409\n        /* \"NoBOverround.sol\":19824:19831  owner() */\n      tag_410\n        /* \"@openzeppelin/contracts/access/Ownable.sol\":1684:1691   */\n      0x00\n        /* \"@openzeppelin/contracts/access/Ownable.sol\":1710:1716   */\n      sload\n      sub(shl(0xa0, 0x01), 0x01)\n      and\n      swap1\n        /* \"@openzeppelin/contracts/access/Ownable.sol\":1638:1723   */\n      jump\n        /* \"NoBOverround.sol\":19824:19831  owner() */\n    tag_410:\n        /* \"NoBOverround.sol\":19804:19809  token */\n      and(sub(shl(0xa0, 0x01), 0x01), sload(0x08))\n      swap1\n        /* \"NoBOverround.sol\":19833:19837  fees */\n      dup4\n        /* \"NoBOverround.sol\":19797:19823  IERC20(token).safeTransfer */\n      tag_369\n        /* \"NoBOverround.sol\":19797:19838  IERC20(token).safeTransfer(owner(), fees) */\n      jump\t// in\n    tag_409:\n        /* \"@openzeppelin/contracts/access/Ownable.sol\":1684:1691   */\n      0x00\n        /* \"@openzeppelin/contracts/access/Ownable.sol\":1710:1716   */\n      sload\n      sub(shl(0xa0, 0x01), 0x01)\n      and\n      sub(shl(0xa0, 0x01), 0x01)\n        /* \"NoBOverround.sol\":19849:19877  FeesWithdrawn(owner(), fees) */\n      and\n      0xc0819c13be868895eb93e40eaceb96de976442fa1d404e5c55f14bb65a8c489a\n        /* \"NoBOverround.sol\":19872:19876  fees */\n      dup3\n        /* \"NoBOverround.sol\":19849:19877  FeesWithdrawn(owner(), fees) */\n      mload(0x40)\n      tag_412\n      swap2\n        /* \"#utility.yul\":1274:1299   */\n      dup2\n      mstore\n        /* \"#utility.yul\":1262:1264   */\n      0x20\n        /* \"#utility.yul\":1247:1265   */\n      add\n      swap1\n        /* \"#utility.yul\":1128:1305   */\n      jump\n        /* \"NoBOverround.sol\":19849:19877  FeesWithdrawn(owner(), fees) */\n    tag_412:\n      mload(0x40)\n      dup1\n      swap2\n      sub\n      swap1\n      log2\n        /* \"NoBOverround.sol\":19547:19880  {... */\n      pop\n      pop\n      pop\n        /* \"NoBOverround.sol\":19506:19880  function withdrawFees() public onlyOwner {... */\n      jump\t// out\n        /* \"NoBOverround.sol\":3178:4121  function setup(... */\n    tag_102:\n        /* \"@openzeppelin/contracts/access/Ownable.sol\":1531:1544   */\n      tag_414\n        /* \"@openzeppelin/contracts/access/Ownable.sol\":1531:1542   */\n      tag_286\n        /* \"@openzeppelin/contracts/access/Ownable.sol\":1531:1544   */\n      jump\t// in\n    tag_414:\n        /* \"NoBOverround.sol\":3363:3367  init */\n      sload(0x08)\n      shl(0xa0, 0x01)\n      swap1\n      div\n      0xff\n      and\n        /* \"NoBOverround.sol\":3363:3376  init == false */\n      iszero\n        /* \"NoBOverround.sol\":3355:3392  require(init == false,'Already init') */\n      tag_416\n      jumpi\n      mload(0x40)\n      shl(0xe5, 0x461bcd)\n      dup2\n      mstore\n        /* \"#utility.yul\":16698:16700   */\n      0x20\n        /* \"NoBOverround.sol\":3355:3392  require(init == false,'Already init') */\n      0x04\n      dup3\n      add\n        /* \"#utility.yul\":16680:16701   */\n      mstore\n        /* \"#utility.yul\":16737:16739   */\n      0x0c\n        /* \"#utility.yul\":16717:16735   */\n      0x24\n      dup3\n      add\n        /* \"#utility.yul\":16710:16740   */\n      mstore\n        /* \"#utility.yul\":16776:16790   */\n      0x416c726561647920696e69740000000000000000000000000000000000000000\n        /* \"#utility.yul\":16756:16774   */\n      0x44\n      dup3\n      add\n        /* \"#utility.yul\":16749:16791   */\n      mstore\n        /* \"#utility.yul\":16808:16826   */\n      0x64\n      add\n        /* \"NoBOverround.sol\":3355:3392  require(init == false,'Already init') */\n      tag_207\n        /* \"#utility.yul\":16496:16832   */\n      jump\n        /* \"NoBOverround.sol\":3355:3392  require(init == false,'Already init') */\n    tag_416:\n        /* \"NoBOverround.sol\":3419:3420  0 */\n      0x00\n        /* \"NoBOverround.sol\":3406:3416  _overround */\n      dup2\n        /* \"NoBOverround.sol\":3406:3420  _overround > 0 */\n      gt\n        /* \"NoBOverround.sol\":3398:3447  require(_overround > 0,'Cannot have 0 overround') */\n      tag_419\n      jumpi\n      mload(0x40)\n      shl(0xe5, 0x461bcd)\n      dup2\n      mstore\n        /* \"#utility.yul\":17039:17041   */\n      0x20\n        /* \"NoBOverround.sol\":3398:3447  require(_overround > 0,'Cannot have 0 overround') */\n      0x04\n      dup3\n      add\n        /* \"#utility.yul\":17021:17042   */\n      mstore\n        /* \"#utility.yul\":17078:17080   */\n      0x17\n        /* \"#utility.yul\":17058:17076   */\n      0x24\n      dup3\n      add\n        /* \"#utility.yul\":17051:17081   */\n      mstore\n        /* \"#utility.yul\":17117:17142   */\n      0x43616e6e6f7420686176652030206f766572726f756e64000000000000000000\n        /* \"#utility.yul\":17097:17115   */\n      0x44\n      dup3\n      add\n        /* \"#utility.yul\":17090:17143   */\n      mstore\n        /* \"#utility.yul\":17160:17178   */\n      0x64\n      add\n        /* \"NoBOverround.sol\":3398:3447  require(_overround > 0,'Cannot have 0 overround') */\n      tag_207\n        /* \"#utility.yul\":16837:17184   */\n      jump\n        /* \"NoBOverround.sol\":3398:3447  require(_overround > 0,'Cannot have 0 overround') */\n    tag_419:\n        /* \"NoBOverround.sol\":3453:3455  CT */\n      sload(0x07)\n        /* \"NoBOverround.sol\":3453:3508  CT.prepareCondition(_oracle, _questionId, _numOutcomes) */\n      mload(0x40)\n      shl(0xe2, 0x365bb9d5)\n      dup2\n      mstore\n      sub(shl(0xa0, 0x01), 0x01)\n        /* \"#utility.yul\":17409:17464   */\n      dup9\n      dup2\n      and\n        /* \"NoBOverround.sol\":3453:3508  CT.prepareCondition(_oracle, _questionId, _numOutcomes) */\n      0x04\n      dup4\n      add\n        /* \"#utility.yul\":17391:17465   */\n      mstore\n        /* \"#utility.yul\":17481:17499   */\n      0x24\n      dup3\n      add\n        /* \"#utility.yul\":17474:17508   */\n      dup9\n      swap1\n      mstore\n        /* \"#utility.yul\":17524:17542   */\n      0x44\n      dup3\n      add\n        /* \"#utility.yul\":17517:17551   */\n      dup8\n      swap1\n      mstore\n        /* \"NoBOverround.sol\":3453:3455  CT */\n      swap1\n      swap2\n      and\n      swap1\n        /* \"NoBOverround.sol\":3453:3472  CT.prepareCondition */\n      0xd96ee754\n      swap1\n        /* \"#utility.yul\":17364:17382   */\n      0x64\n      add\n        /* \"NoBOverround.sol\":3453:3508  CT.prepareCondition(_oracle, _questionId, _numOutcomes) */\n      0x00\n      mload(0x40)\n      dup1\n      dup4\n      sub\n      dup2\n      0x00\n      dup8\n      dup1\n      extcodesize\n      iszero\n      dup1\n      iszero\n      tag_424\n      jumpi\n      0x00\n      dup1\n      revert\n    tag_424:\n      pop\n      gas\n      call\n      iszero\n      dup1\n      iszero\n      tag_426\n      jumpi\n      returndatasize\n      0x00\n      dup1\n      returndatacopy\n      revert(0x00, returndatasize)\n    tag_426:\n      pop\n      pop\n        /* \"NoBOverround.sol\":3526:3528  CT */\n      sload(0x07)\n        /* \"NoBOverround.sol\":3526:3579  CT.getConditionId(_oracle, _questionId, _numOutcomes) */\n      mload(0x40)\n      shl(0xe1, 0x42963571)\n      dup2\n      mstore\n      sub(shl(0xa0, 0x01), 0x01)\n        /* \"#utility.yul\":17409:17464   */\n      dup11\n      dup2\n      and\n        /* \"NoBOverround.sol\":3526:3579  CT.getConditionId(_oracle, _questionId, _numOutcomes) */\n      0x04\n      dup4\n      add\n        /* \"#utility.yul\":17391:17465   */\n      mstore\n        /* \"#utility.yul\":17481:17499   */\n      0x24\n      dup3\n      add\n        /* \"#utility.yul\":17474:17508   */\n      dup11\n      swap1\n      mstore\n        /* \"#utility.yul\":17524:17542   */\n      0x44\n      dup3\n      add\n        /* \"#utility.yul\":17517:17551   */\n      dup10\n      swap1\n      mstore\n        /* \"NoBOverround.sol\":3526:3528  CT */\n      swap1\n      swap2\n      and\n      swap3\n      pop\n        /* \"NoBOverround.sol\":3526:3543  CT.getConditionId */\n      0x852c6ae2\n      swap2\n      pop\n        /* \"#utility.yul\":17364:17382   */\n      0x64\n      add\n        /* \"NoBOverround.sol\":3526:3579  CT.getConditionId(_oracle, _questionId, _numOutcomes) */\n      0x20\n      mload(0x40)\n      dup1\n      dup4\n      sub\n      dup2\n      dup7\n      gas\n      staticcall\n      iszero\n      dup1\n      iszero\n      tag_429\n      jumpi\n      returndatasize\n      0x00\n      dup1\n      returndatacopy\n      revert(0x00, returndatasize)\n    tag_429:\n      pop\n      pop\n      pop\n      pop\n      mload(0x40)\n      returndatasize\n      not(0x1f)\n      0x1f\n      dup3\n      add\n      and\n      dup3\n      add\n      dup1\n      0x40\n      mstore\n      pop\n      dup2\n      add\n      swap1\n      tag_430\n      swap2\n      swap1\n      tag_292\n      jump\t// in\n    tag_430:\n        /* \"NoBOverround.sol\":3514:3523  condition */\n      0x06\n        /* \"NoBOverround.sol\":3514:3579  condition = CT.getConditionId(_oracle, _questionId, _numOutcomes) */\n      sstore\n        /* \"NoBOverround.sol\":3586:3597  numOutcomes */\n      0x01\n        /* \"NoBOverround.sol\":3586:3612  numOutcomes = _numOutcomes */\n      dup5\n      swap1\n      sstore\n      0x00\n        /* \"NoBOverround.sol\":3629:3660  ABDKMath.fromUInt(_numOutcomes) */\n      tag_431\n        /* \"NoBOverround.sol\":3600:3612  _numOutcomes */\n      dup6\n        /* \"NoBOverround.sol\":3629:3646  ABDKMath.fromUInt */\n      tag_233\n        /* \"NoBOverround.sol\":3629:3660  ABDKMath.fromUInt(_numOutcomes) */\n      jump\t// in\n    tag_431:\n        /* \"NoBOverround.sol\":3697:3702  token */\n      sload(0x08)\n        /* \"NoBOverround.sol\":3618:3660  int128 n = ABDKMath.fromUInt(_numOutcomes) */\n      swap1\n      swap2\n      pop\n        /* \"NoBOverround.sol\":3666:3682  int128 initial_b */\n      0x00\n      swap1\n        /* \"NoBOverround.sol\":3685:3711  getTokenEth(token, bInput) */\n      tag_432\n      swap1\n      sub(shl(0xa0, 0x01), 0x01)\n        /* \"NoBOverround.sol\":3697:3702  token */\n      and\n        /* \"NoBOverround.sol\":3704:3710  bInput */\n      dup7\n        /* \"NoBOverround.sol\":3685:3696  getTokenEth */\n      tag_72\n        /* \"NoBOverround.sol\":3685:3711  getTokenEth(token, bInput) */\n      jump\t// in\n    tag_432:\n        /* \"NoBOverround.sol\":3717:3718  b */\n      0x03\n        /* \"NoBOverround.sol\":3717:3730  b = initial_b */\n      dup1\n      sload\n      not(sub(shl(0x80, 0x01), 0x01))\n      and\n      sub(shl(0x80, 0x01), 0x01)\n      dup4\n      and\n      or\n      swap1\n      sstore\n        /* \"NoBOverround.sol\":3796:3801  token */\n      sload(0x08)\n        /* \"NoBOverround.sol\":3717:3730  b = initial_b */\n      swap1\n      swap2\n      pop\n        /* \"NoBOverround.sol\":3789:3863  IERC20(token).safeTransferFrom(msg.sender, address(this), _initialSubsidy) */\n      tag_433\n      swap1\n      sub(shl(0xa0, 0x01), 0x01)\n        /* \"NoBOverround.sol\":3796:3801  token */\n      and\n        /* \"NoBOverround.sol\":3820:3830  msg.sender */\n      caller\n        /* \"NoBOverround.sol\":3840:3844  this */\n      address\n        /* \"NoBOverround.sol\":3847:3862  _initialSubsidy */\n      dup8\n        /* \"NoBOverround.sol\":3789:3819  IERC20(token).safeTransferFrom */\n      tag_434\n        /* \"NoBOverround.sol\":3789:3863  IERC20(token).safeTransferFrom(msg.sender, address(this), _initialSubsidy) */\n      jump\t// in\n    tag_433:\n        /* \"NoBOverround.sol\":3874:3880  uint i */\n      0x00\n        /* \"NoBOverround.sol\":3870:3968  for(uint i=0; i<_numOutcomes; i++) {... */\n    tag_435:\n        /* \"NoBOverround.sol\":3886:3898  _numOutcomes */\n      dup7\n        /* \"NoBOverround.sol\":3884:3885  i */\n      dup2\n        /* \"NoBOverround.sol\":3884:3898  i<_numOutcomes */\n      lt\n        /* \"NoBOverround.sol\":3870:3968  for(uint i=0; i<_numOutcomes; i++) {... */\n      iszero\n      tag_436\n      jumpi\n        /* \"NoBOverround.sol\":3913:3914  q */\n      0x02\n        /* \"NoBOverround.sol\":3913:3922  q.push(0) */\n      dup1\n      sload\n      0x01\n      dup1\n      dup3\n      add\n      dup4\n      sstore\n      0x00\n      dup4\n      swap1\n      mstore\n      0x405787fa12a823e0f2b7631cc41b3ba8828b3321ca811111fa75cd3aa3bb5ace\n      swap3\n      dup3\n      div\n      swap3\n      swap1\n      swap3\n      add\n      dup1\n      sload\n      swap2\n      dup4\n      and\n      0x10\n      mul\n      0x0100\n      exp\n      sub(shl(0x80, 0x01), 0x01)\n      mul\n      not\n      swap1\n      swap2\n      and\n      swap1\n      sstore\n        /* \"NoBOverround.sol\":3900:3903  i++ */\n      add\n        /* \"NoBOverround.sol\":3870:3968  for(uint i=0; i<_numOutcomes; i++) {... */\n      jump(tag_435)\n    tag_436:\n      pop\n        /* \"NoBOverround.sol\":3974:3978  init */\n      0x08\n        /* \"NoBOverround.sol\":3974:3985  init = true */\n      dup1\n      sload\n      0xffffffffffffffffffffff00ffffffffffffffffffffffffffffffffffffffff\n      and\n      shl(0xa0, 0x01)\n      or\n      swap1\n      sstore\n        /* \"NoBOverround.sol\":4020:4035  initial_subsidy */\n      sload(0x04)\n        /* \"NoBOverround.sol\":4007:4039  ABDKMath.mul(initial_subsidy, n) */\n      tag_439\n      swap1\n      shl(0x80, 0x01)\n        /* \"NoBOverround.sol\":4020:4035  initial_subsidy */\n      swap1\n      div\n      0x0f\n      signextend\n        /* \"NoBOverround.sol\":4037:4038  n */\n      dup4\n        /* \"NoBOverround.sol\":4007:4019  ABDKMath.mul */\n      tag_212\n        /* \"NoBOverround.sol\":4007:4039  ABDKMath.mul(initial_subsidy, n) */\n      jump\t// in\n    tag_439:\n        /* \"NoBOverround.sol\":3992:4004  total_shares */\n      0x04\n        /* \"NoBOverround.sol\":3992:4039  total_shares = ABDKMath.mul(initial_subsidy, n) */\n      dup1\n      sload\n      not(sub(shl(0x80, 0x01), 0x01))\n      and\n      sub(shl(0x80, 0x01), 0x01)\n      swap3\n      swap1\n      swap3\n      and\n      swap2\n      swap1\n      swap2\n      or\n      swap1\n      sstore\n        /* \"NoBOverround.sol\":4060:4066  cost() */\n      tag_440\n        /* \"NoBOverround.sol\":4060:4064  cost */\n      tag_76\n        /* \"NoBOverround.sol\":4060:4066  cost() */\n      jump\t// in\n    tag_440:\n        /* \"NoBOverround.sol\":4045:4057  current_cost */\n      0x03\n        /* \"NoBOverround.sol\":4045:4066  current_cost = cost() */\n      dup1\n      sload\n      sub(shl(0x80, 0x01), 0x01)\n      swap3\n      dup4\n      and\n      shl(0x80, 0x01)\n      mul\n      swap3\n      and\n      swap2\n      swap1\n      swap2\n      or\n      swap1\n      sstore\n        /* \"NoBOverround.sol\":4084:4116  ABDKMath.divu(_overround, 10000) */\n      tag_441\n        /* \"NoBOverround.sol\":4098:4108  _overround */\n      dup4\n        /* \"NoBOverround.sol\":4110:4115  10000 */\n      0x2710\n        /* \"NoBOverround.sol\":4084:4097  ABDKMath.divu */\n      tag_269\n        /* \"NoBOverround.sol\":4084:4116  ABDKMath.divu(_overround, 10000) */\n      jump\t// in\n    tag_441:\n        /* \"NoBOverround.sol\":4072:4081  overround */\n      0x05\n        /* \"NoBOverround.sol\":4072:4116  overround = ABDKMath.divu(_overround, 10000) */\n      dup1\n      sload\n      not(sub(shl(0x80, 0x01), 0x01))\n      and\n      sub(shl(0x80, 0x01), 0x01)\n      swap3\n      swap1\n      swap3\n      and\n      swap2\n      swap1\n      swap2\n      or\n      swap1\n      sstore\n      pop\n      pop\n      pop\n      pop\n      pop\n      pop\n      pop\n      pop\n        /* \"NoBOverround.sol\":3178:4121  function setup(... */\n      jump\t// out\n        /* \"NoBOverround.sol\":14745:14896  function generateQuestionId(string memory uniqueString) public pure returns (bytes32) {... */\n    tag_106:\n        /* \"NoBOverround.sol\":14822:14829  bytes32 */\n      0x00\n        /* \"NoBOverround.sol\":14875:14887  uniqueString */\n      dup2\n        /* \"NoBOverround.sol\":14858:14888  abi.encodePacked(uniqueString) */\n      add(0x20, mload(0x40))\n      tag_443\n      swap2\n      swap1\n      tag_444\n      jump\t// in\n    tag_443:\n      mload(0x40)\n      0x20\n      dup2\n      dup4\n      sub\n      sub\n      dup2\n      mstore\n      swap1\n      0x40\n      mstore\n        /* \"NoBOverround.sol\":14848:14889  keccak256(abi.encodePacked(uniqueString)) */\n      dup1\n      mload\n      swap1\n      0x20\n      add\n      keccak256\n        /* \"NoBOverround.sol\":14841:14889  return keccak256(abi.encodePacked(uniqueString)) */\n      swap1\n      pop\n        /* \"NoBOverround.sol\":14745:14896  function generateQuestionId(string memory uniqueString) public pure returns (bytes32) {... */\n      swap2\n      swap1\n      pop\n      jump\t// out\n        /* \"NoBOverround.sol\":20091:20461  function getPositionInfo(uint256 _outcome) public view returns (uint256 positionId, uint256 balance) {... */\n    tag_111:\n        /* \"NoBOverround.sol\":20155:20173  uint256 positionId */\n      0x00\n        /* \"NoBOverround.sol\":20175:20190  uint256 balance */\n      dup1\n        /* \"NoBOverround.sol\":20217:20228  numOutcomes */\n      sload(0x01)\n        /* \"NoBOverround.sol\":20206:20214  _outcome */\n      dup4\n        /* \"NoBOverround.sol\":20206:20228  _outcome < numOutcomes */\n      lt\n        /* \"NoBOverround.sol\":20198:20254  require(_outcome < numOutcomes, \"Invalid outcome index\") */\n      tag_446\n      jumpi\n      mload(0x40)\n      shl(0xe5, 0x461bcd)\n      dup2\n      mstore\n        /* \"#utility.yul\":11248:11250   */\n      0x20\n        /* \"NoBOverround.sol\":20198:20254  require(_outcome < numOutcomes, \"Invalid outcome index\") */\n      0x04\n      dup3\n      add\n        /* \"#utility.yul\":11230:11251   */\n      mstore\n        /* \"#utility.yul\":11287:11289   */\n      0x15\n        /* \"#utility.yul\":11267:11285   */\n      0x24\n      dup3\n      add\n        /* \"#utility.yul\":11260:11290   */\n      mstore\n      shl(0x5b, 0x092dcecc2d8d2c840deeae8c6dedaca40d2dcc8caf)\n        /* \"#utility.yul\":11306:11324   */\n      0x44\n      dup3\n      add\n        /* \"#utility.yul\":11299:11350   */\n      mstore\n        /* \"#utility.yul\":11367:11385   */\n      0x64\n      add\n        /* \"NoBOverround.sol\":20198:20254  require(_outcome < numOutcomes, \"Invalid outcome index\") */\n      tag_207\n        /* \"#utility.yul\":11046:11391   */\n      jump\n        /* \"NoBOverround.sol\":20198:20254  require(_outcome < numOutcomes, \"Invalid outcome index\") */\n    tag_446:\n        /* \"NoBOverround.sol\":20283:20285  CT */\n      sload(0x07)\n        /* \"NoBOverround.sol\":20314:20323  condition */\n      sload(0x06)\n        /* \"NoBOverround.sol\":20283:20339  CT.getCollectionId(bytes32(0), condition, 1 << _outcome) */\n      mload(0x40)\n      shl(0xe0, 0x856296f7)\n      dup2\n      mstore\n        /* \"NoBOverround.sol\":20260:20280  bytes32 collectionId */\n      0x00\n        /* \"NoBOverround.sol\":20283:20339  CT.getCollectionId(bytes32(0), condition, 1 << _outcome) */\n      0x04\n      dup3\n      add\n        /* \"#utility.yul\":14152:14177   */\n      dup2\n      swap1\n      mstore\n        /* \"#utility.yul\":14193:14211   */\n      0x24\n      dup3\n      add\n        /* \"#utility.yul\":14186:14220   */\n      swap3\n      swap1\n      swap3\n      mstore\n        /* \"NoBOverround.sol\":20283:20285  CT */\n      0x01\n        /* \"NoBOverround.sol\":20325:20338  1 << _outcome */\n      dup7\n      shl\n        /* \"#utility.yul\":14236:14254   */\n      0x44\n      dup3\n      add\n        /* \"#utility.yul\":14229:14263   */\n      mstore\n        /* \"NoBOverround.sol\":20260:20280  bytes32 collectionId */\n      swap1\n      swap2\n      sub(shl(0xa0, 0x01), 0x01)\n        /* \"NoBOverround.sol\":20283:20285  CT */\n      and\n      swap1\n        /* \"NoBOverround.sol\":20283:20301  CT.getCollectionId */\n      0x856296f7\n      swap1\n        /* \"#utility.yul\":14125:14143   */\n      0x64\n      add\n        /* \"NoBOverround.sol\":20283:20339  CT.getCollectionId(bytes32(0), condition, 1 << _outcome) */\n      0x20\n      mload(0x40)\n      dup1\n      dup4\n      sub\n      dup2\n      dup7\n      gas\n      staticcall\n      iszero\n      dup1\n      iszero\n      tag_451\n      jumpi\n      returndatasize\n      0x00\n      dup1\n      returndatacopy\n      revert(0x00, returndatasize)\n    tag_451:\n      pop\n      pop\n      pop\n      pop\n      mload(0x40)\n      returndatasize\n      not(0x1f)\n      0x1f\n      dup3\n      add\n      and\n      dup3\n      add\n      dup1\n      0x40\n      mstore\n      pop\n      dup2\n      add\n      swap1\n      tag_452\n      swap2\n      swap1\n      tag_292\n      jump\t// in\n    tag_452:\n        /* \"NoBOverround.sol\":20358:20360  CT */\n      sload(0x07)\n        /* \"NoBOverround.sol\":20382:20387  token */\n      sload(0x08)\n        /* \"NoBOverround.sol\":20358:20403  CT.getPositionId(IERC20(token), collectionId) */\n      mload(0x40)\n      shl(0xe4, 0x039dd753)\n      dup2\n      mstore\n      sub(shl(0xa0, 0x01), 0x01)\n        /* \"NoBOverround.sol\":20382:20387  token */\n      swap2\n      dup3\n      and\n        /* \"NoBOverround.sol\":20358:20403  CT.getPositionId(IERC20(token), collectionId) */\n      0x04\n      dup3\n      add\n        /* \"#utility.yul\":14653:14727   */\n      mstore\n        /* \"#utility.yul\":14743:14761   */\n      0x24\n      dup2\n      add\n        /* \"#utility.yul\":14736:14770   */\n      dup5\n      swap1\n      mstore\n        /* \"NoBOverround.sol\":20260:20339  bytes32 collectionId = CT.getCollectionId(bytes32(0), condition, 1 << _outcome) */\n      swap3\n      swap4\n      pop\n        /* \"NoBOverround.sol\":20358:20360  CT */\n      and\n      swap1\n        /* \"NoBOverround.sol\":20358:20374  CT.getPositionId */\n      0x39dd7530\n      swap1\n        /* \"#utility.yul\":14626:14644   */\n      0x44\n      add\n        /* \"NoBOverround.sol\":20358:20403  CT.getPositionId(IERC20(token), collectionId) */\n      0x20\n      mload(0x40)\n      dup1\n      dup4\n      sub\n      dup2\n      dup7\n      gas\n      staticcall\n      iszero\n      dup1\n      iszero\n      tag_455\n      jumpi\n      returndatasize\n      0x00\n      dup1\n      returndatacopy\n      revert(0x00, returndatasize)\n    tag_455:\n      pop\n      pop\n      pop\n      pop\n      mload(0x40)\n      returndatasize\n      not(0x1f)\n      0x1f\n      dup3\n      add\n      and\n      dup3\n      add\n      dup1\n      0x40\n      mstore\n      pop\n      dup2\n      add\n      swap1\n      tag_456\n      swap2\n      swap1\n      tag_292\n      jump\t// in\n    tag_456:\n        /* \"NoBOverround.sol\":20419:20421  CT */\n      sload(0x07)\n        /* \"NoBOverround.sol\":20419:20458  CT.balanceOf(address(this), positionId) */\n      mload(0x40)\n      shl(0xe1, 0x7eeac7)\n      dup2\n      mstore\n        /* \"NoBOverround.sol\":20440:20444  this */\n      address\n        /* \"NoBOverround.sol\":20419:20458  CT.balanceOf(address(this), positionId) */\n      0x04\n      dup3\n      add\n        /* \"#utility.yul\":14653:14727   */\n      mstore\n        /* \"#utility.yul\":14743:14761   */\n      0x24\n      dup2\n      add\n        /* \"#utility.yul\":14736:14770   */\n      dup4\n      swap1\n      mstore\n        /* \"NoBOverround.sol\":20345:20403  positionId = CT.getPositionId(IERC20(token), collectionId) */\n      swap2\n      swap5\n      pop\n      sub(shl(0xa0, 0x01), 0x01)\n        /* \"NoBOverround.sol\":20419:20421  CT */\n      and\n      swap1\n        /* \"NoBOverround.sol\":20419:20431  CT.balanceOf */\n      0xfdd58e\n      swap1\n        /* \"#utility.yul\":14626:14644   */\n      0x44\n      add\n        /* \"NoBOverround.sol\":20419:20458  CT.balanceOf(address(this), positionId) */\n      0x20\n      mload(0x40)\n      dup1\n      dup4\n      sub\n      dup2\n      dup7\n      gas\n      staticcall\n      iszero\n      dup1\n      iszero\n      tag_460\n      jumpi\n      returndatasize\n      0x00\n      dup1\n      returndatacopy\n      revert(0x00, returndatasize)\n    tag_460:\n      pop\n      pop\n      pop\n      pop\n      mload(0x40)\n      returndatasize\n      not(0x1f)\n      0x1f\n      dup3\n      add\n      and\n      dup3\n      add\n      dup1\n      0x40\n      mstore\n      pop\n      dup2\n      add\n      swap1\n      tag_461\n      swap2\n      swap1\n      tag_292\n      jump\t// in\n    tag_461:\n        /* \"NoBOverround.sol\":20409:20458  balance = CT.balanceOf(address(this), positionId) */\n      swap2\n      pop\n        /* \"NoBOverround.sol\":20192:20461  {... */\n      pop\n        /* \"NoBOverround.sol\":20091:20461  function getPositionInfo(uint256 _outcome) public view returns (uint256 positionId, uint256 balance) {... */\n      swap2\n      pop\n      swap2\n      jump\t// out\n        /* \"NoBOverround.sol\":18361:19124  function addLiquidity(uint _amount) public onlyOwner {... */\n    tag_115:\n        /* \"@openzeppelin/contracts/access/Ownable.sol\":1531:1544   */\n      tag_463\n        /* \"@openzeppelin/contracts/access/Ownable.sol\":1531:1542   */\n      tag_286\n        /* \"@openzeppelin/contracts/access/Ownable.sol\":1531:1544   */\n      jump\t// in\n    tag_463:\n        /* \"NoBOverround.sol\":18477:18482  token */\n      sload(0x08)\n        /* \"NoBOverround.sol\":18470:18536  IERC20(token).safeTransferFrom(msg.sender, address(this), _amount) */\n      tag_465\n      swap1\n      sub(shl(0xa0, 0x01), 0x01)\n        /* \"NoBOverround.sol\":18477:18482  token */\n      and\n        /* \"NoBOverround.sol\":18501:18511  msg.sender */\n      caller\n        /* \"NoBOverround.sol\":18521:18525  this */\n      address\n        /* \"NoBOverround.sol\":18528:18535  _amount */\n      dup5\n        /* \"NoBOverround.sol\":18470:18500  IERC20(token).safeTransferFrom */\n      tag_434\n        /* \"NoBOverround.sol\":18470:18536  IERC20(token).safeTransferFrom(msg.sender, address(this), _amount) */\n      jump\t// in\n    tag_465:\n        /* \"NoBOverround.sol\":18611:18616  token */\n      sload(0x08)\n        /* \"NoBOverround.sol\":18582:18596  int128 subsidy */\n      0x00\n      swap1\n        /* \"NoBOverround.sol\":18599:18626  getTokenEth(token, _amount) */\n      tag_466\n      swap1\n      sub(shl(0xa0, 0x01), 0x01)\n        /* \"NoBOverround.sol\":18611:18616  token */\n      and\n        /* \"NoBOverround.sol\":18618:18625  _amount */\n      dup4\n        /* \"NoBOverround.sol\":18599:18610  getTokenEth */\n      tag_72\n        /* \"NoBOverround.sol\":18599:18626  getTokenEth(token, _amount) */\n      jump\t// in\n    tag_466:\n        /* \"NoBOverround.sol\":18582:18626  int128 subsidy = getTokenEth(token, _amount) */\n      swap1\n      pop\n        /* \"NoBOverround.sol\":18676:18682  uint i */\n      0x00\n        /* \"NoBOverround.sol\":18671:18761  for (uint i = 0; i < numOutcomes; i++) {... */\n    tag_467:\n        /* \"NoBOverround.sol\":18692:18703  numOutcomes */\n      sload(0x01)\n        /* \"NoBOverround.sol\":18688:18689  i */\n      dup2\n        /* \"NoBOverround.sol\":18688:18703  i < numOutcomes */\n      lt\n        /* \"NoBOverround.sol\":18671:18761  for (uint i = 0; i < numOutcomes; i++) {... */\n      iszero\n      tag_468\n      jumpi\n        /* \"NoBOverround.sol\":18727:18754  ABDKMath.add(q[i], subsidy) */\n      tag_470\n        /* \"NoBOverround.sol\":18740:18741  q */\n      0x02\n        /* \"NoBOverround.sol\":18742:18743  i */\n      dup3\n        /* \"NoBOverround.sol\":18740:18744  q[i] */\n      dup2\n      sload\n      dup2\n      lt\n      tag_472\n      jumpi\n      tag_472\n      tag_243\n      jump\t// in\n    tag_472:\n      swap1\n      0x00\n      mstore\n      keccak256(0x00, 0x20)\n      swap1\n      0x02\n      swap2\n      dup3\n      dup3\n      div\n      add\n      swap2\n      swap1\n      mod\n      0x10\n      mul\n      swap1\n      sload\n      swap1\n      0x0100\n      exp\n      swap1\n      div\n      0x0f\n      signextend\n        /* \"NoBOverround.sol\":18746:18753  subsidy */\n      dup4\n        /* \"NoBOverround.sol\":18727:18739  ABDKMath.add */\n      tag_227\n        /* \"NoBOverround.sol\":18727:18754  ABDKMath.add(q[i], subsidy) */\n      jump\t// in\n    tag_470:\n        /* \"NoBOverround.sol\":18720:18721  q */\n      0x02\n        /* \"NoBOverround.sol\":18722:18723  i */\n      dup3\n        /* \"NoBOverround.sol\":18720:18724  q[i] */\n      dup2\n      sload\n      dup2\n      lt\n      tag_475\n      jumpi\n      tag_475\n      tag_243\n      jump\t// in\n    tag_475:\n      0x00\n      swap2\n      dup3\n      mstore\n      0x20\n      swap1\n      swap2\n      keccak256\n      0x02\n      dup3\n      div\n      add\n        /* \"NoBOverround.sol\":18720:18754  q[i] = ABDKMath.add(q[i], subsidy) */\n      dup1\n      sload\n      sub(shl(0x80, 0x01), 0x01)\n      swap4\n      dup5\n      and\n        /* \"NoBOverround.sol\":18720:18724  q[i] */\n      0x10\n      0x01\n      swap5\n      dup6\n      and\n      mul\n        /* \"NoBOverround.sol\":18720:18754  q[i] = ABDKMath.add(q[i], subsidy) */\n      0x0100\n      exp\n      swap1\n      dup2\n      mul\n      swap5\n      mul\n      not\n      and\n      swap3\n      swap1\n      swap3\n      or\n      swap1\n      swap2\n      sstore\n        /* \"NoBOverround.sol\":18705:18708  i++ */\n      add\n        /* \"NoBOverround.sol\":18671:18761  for (uint i = 0; i < numOutcomes; i++) {... */\n      jump(tag_467)\n    tag_468:\n      pop\n        /* \"NoBOverround.sol\":18825:18837  total_shares */\n      sload(0x04)\n      0x01\n        /* \"NoBOverround.sol\":18879:18890  numOutcomes */\n      sload\n        /* \"NoBOverround.sol\":18812:18893  ABDKMath.add(total_shares, ABDKMath.mul(subsidy, ABDKMath.fromUInt(numOutcomes))) */\n      tag_477\n      swap2\n        /* \"NoBOverround.sol\":18825:18837  total_shares */\n      0x0f\n      signextend\n      swap1\n        /* \"NoBOverround.sol\":18839:18892  ABDKMath.mul(subsidy, ABDKMath.fromUInt(numOutcomes)) */\n      tag_239\n      swap1\n        /* \"NoBOverround.sol\":18852:18859  subsidy */\n      dup5\n      swap1\n        /* \"NoBOverround.sol\":18861:18891  ABDKMath.fromUInt(numOutcomes) */\n      tag_253\n      swap1\n        /* \"NoBOverround.sol\":18861:18878  ABDKMath.fromUInt */\n      tag_233\n        /* \"NoBOverround.sol\":18861:18891  ABDKMath.fromUInt(numOutcomes) */\n      jump\t// in\n        /* \"NoBOverround.sol\":18812:18893  ABDKMath.add(total_shares, ABDKMath.mul(subsidy, ABDKMath.fromUInt(numOutcomes))) */\n    tag_477:\n        /* \"NoBOverround.sol\":18797:18809  total_shares */\n      0x04\n        /* \"NoBOverround.sol\":18797:18893  total_shares = ABDKMath.add(total_shares, ABDKMath.mul(subsidy, ABDKMath.fromUInt(numOutcomes))) */\n      dup1\n      sload\n      not(sub(shl(0x80, 0x01), 0x01))\n      and\n      sub(shl(0x80, 0x01), 0x01)\n      swap3\n      swap1\n      swap3\n      and\n      swap2\n      swap1\n      swap2\n      or\n      swap1\n      sstore\n        /* \"NoBOverround.sol\":19047:19053  cost() */\n      tag_480\n        /* \"NoBOverround.sol\":19047:19051  cost */\n      tag_76\n        /* \"NoBOverround.sol\":19047:19053  cost() */\n      jump\t// in\n    tag_480:\n        /* \"NoBOverround.sol\":19032:19044  current_cost */\n      0x03\n        /* \"NoBOverround.sol\":19032:19053  current_cost = cost() */\n      dup1\n      sload\n      sub(shl(0x80, 0x01), 0x01)\n      swap3\n      dup4\n      and\n      shl(0x80, 0x01)\n      mul\n      swap3\n      and\n      swap2\n      swap1\n      swap2\n      or\n      swap1\n      sstore\n        /* \"NoBOverround.sol\":19086:19121  LiquidityAdded(msg.sender, _amount) */\n      mload(0x40)\n        /* \"NoBOverround.sol\":19101:19111  msg.sender */\n      caller\n      swap1\n        /* \"NoBOverround.sol\":19086:19121  LiquidityAdded(msg.sender, _amount) */\n      0xc17cea59c2955cb181b03393209566960365771dbba9dc3d510180e7cb312088\n      swap1\n      tag_481\n      swap1\n        /* \"NoBOverround.sol\":19113:19120  _amount */\n      dup6\n        /* \"#utility.yul\":1274:1299   */\n      dup2\n      mstore\n        /* \"#utility.yul\":1262:1264   */\n      0x20\n        /* \"#utility.yul\":1247:1265   */\n      add\n      swap1\n        /* \"#utility.yul\":1128:1305   */\n      jump\n        /* \"NoBOverround.sol\":19086:19121  LiquidityAdded(msg.sender, _amount) */\n    tag_481:\n      mload(0x40)\n      dup1\n      swap2\n      sub\n      swap1\n      log2\n        /* \"NoBOverround.sol\":18414:19124  {... */\n      pop\n        /* \"NoBOverround.sol\":18361:19124  function addLiquidity(uint _amount) public onlyOwner {... */\n      pop\n      jump\t// out\n        /* \"NoBOverround.sol\":12319:12481  function sellingPrice(... */\n    tag_119:\n        /* \"NoBOverround.sol\":12408:12414  int128 */\n      0x00\n        /* \"NoBOverround.sol\":12444:12478  cost_after_buy(_outcome, -_amount) */\n      tag_483\n        /* \"NoBOverround.sol\":12459:12467  _outcome */\n      dup4\n        /* \"NoBOverround.sol\":12469:12477  -_amount */\n      tag_127\n        /* \"NoBOverround.sol\":12470:12477  _amount */\n      dup5\n        /* \"NoBOverround.sol\":12469:12477  -_amount */\n      tag_485\n      jump\t// in\n        /* \"NoBOverround.sol\":12444:12478  cost_after_buy(_outcome, -_amount) */\n    tag_483:\n        /* \"NoBOverround.sol\":12429:12441  current_cost */\n      sload(0x03)\n        /* \"NoBOverround.sol\":12429:12478  current_cost - cost_after_buy(_outcome, -_amount) */\n      tag_486\n      swap2\n      swap1\n      shl(0x80, 0x01)\n        /* \"NoBOverround.sol\":12429:12441  current_cost */\n      swap1\n      div\n      0x0f\n      signextend\n        /* \"NoBOverround.sol\":12429:12478  current_cost - cost_after_buy(_outcome, -_amount) */\n      tag_487\n      jump\t// in\n    tag_486:\n        /* \"NoBOverround.sol\":12422:12478  return current_cost - cost_after_buy(_outcome, -_amount) */\n      swap4\n        /* \"NoBOverround.sol\":12319:12481  function sellingPrice(... */\n      swap3\n      pop\n      pop\n      pop\n      jump\t// out\n        /* \"NoBOverround.sol\":19126:19446  function getAccumulatedFees() public view returns (uint) {... */\n    tag_122:\n        /* \"NoBOverround.sol\":19219:19224  token */\n      sload(0x08)\n        /* \"NoBOverround.sol\":19212:19250  IERC20(token).balanceOf(address(this)) */\n      mload(0x40)\n      shl(0xe0, 0x70a08231)\n      dup2\n      mstore\n        /* \"NoBOverround.sol\":19244:19248  this */\n      address\n        /* \"NoBOverround.sol\":19212:19250  IERC20(token).balanceOf(address(this)) */\n      0x04\n      dup3\n      add\n        /* \"#utility.yul\":5660:5734   */\n      mstore\n        /* \"NoBOverround.sol\":19177:19181  uint */\n      0x00\n      swap2\n      dup3\n      swap2\n      sub(shl(0xa0, 0x01), 0x01)\n        /* \"NoBOverround.sol\":19219:19224  token */\n      swap1\n      swap2\n      and\n      swap1\n        /* \"NoBOverround.sol\":19212:19235  IERC20(token).balanceOf */\n      0x70a08231\n      swap1\n        /* \"#utility.yul\":5633:5651   */\n      0x24\n      add\n        /* \"NoBOverround.sol\":19212:19250  IERC20(token).balanceOf(address(this)) */\n      0x20\n      mload(0x40)\n      dup1\n      dup4\n      sub\n      dup2\n      dup7\n      gas\n      staticcall\n      iszero\n      dup1\n      iszero\n      tag_491\n      jumpi\n      returndatasize\n      0x00\n      dup1\n      returndatacopy\n      revert(0x00, returndatasize)\n    tag_491:\n      pop\n      pop\n      pop\n      pop\n      mload(0x40)\n      returndatasize\n      not(0x1f)\n      0x1f\n      dup3\n      add\n      and\n      dup3\n      add\n      dup1\n      0x40\n      mstore\n      pop\n      dup2\n      add\n      swap1\n      tag_492\n      swap2\n      swap1\n      tag_292\n      jump\t// in\n    tag_492:\n        /* \"NoBOverround.sol\":19291:19296  token */\n      sload(0x08)\n        /* \"NoBOverround.sol\":19298:19310  current_cost */\n      sload(0x03)\n        /* \"NoBOverround.sol\":19189:19250  uint contractBalance = IERC20(token).balanceOf(address(this)) */\n      swap2\n      swap3\n      pop\n        /* \"NoBOverround.sol\":19256:19276  uint theoreticalCost */\n      0x00\n      swap2\n        /* \"NoBOverround.sol\":19279:19311  getTokenWei(token, current_cost) */\n      tag_493\n      swap2\n      sub(shl(0xa0, 0x01), 0x01)\n        /* \"NoBOverround.sol\":19291:19296  token */\n      and\n      swap1\n      shl(0x80, 0x01)\n        /* \"NoBOverround.sol\":19298:19310  current_cost */\n      swap1\n      div\n      0x0f\n      signextend\n        /* \"NoBOverround.sol\":19279:19290  getTokenWei */\n      tag_90\n        /* \"NoBOverround.sol\":19279:19311  getTokenWei(token, current_cost) */\n      jump\t// in\n    tag_493:\n        /* \"NoBOverround.sol\":19256:19311  uint theoreticalCost = getTokenWei(token, current_cost) */\n      swap1\n      pop\n        /* \"NoBOverround.sol\":19339:19354  theoreticalCost */\n      dup1\n        /* \"NoBOverround.sol\":19321:19336  contractBalance */\n      dup3\n        /* \"NoBOverround.sol\":19321:19354  contractBalance > theoreticalCost */\n      gt\n        /* \"NoBOverround.sol\":19317:19444  if (contractBalance > theoreticalCost) {... */\n      iszero\n      tag_494\n      jumpi\n        /* \"NoBOverround.sol\":19373:19406  contractBalance - theoreticalCost */\n      tag_495\n        /* \"NoBOverround.sol\":19391:19406  theoreticalCost */\n      dup2\n        /* \"NoBOverround.sol\":19373:19388  contractBalance */\n      dup4\n        /* \"NoBOverround.sol\":19373:19406  contractBalance - theoreticalCost */\n      tag_408\n      jump\t// in\n    tag_495:\n        /* \"NoBOverround.sol\":19366:19406  return contractBalance - theoreticalCost */\n      swap3\n      pop\n      pop\n      pop\n        /* \"NoBOverround.sol\":19126:19446  function getAccumulatedFees() public view returns (uint) {... */\n      swap1\n      jump\t// out\n        /* \"NoBOverround.sol\":19317:19444  if (contractBalance > theoreticalCost) {... */\n    tag_494:\n        /* \"NoBOverround.sol\":19436:19437  0 */\n      0x00\n        /* \"NoBOverround.sol\":19429:19437  return 0 */\n      swap3\n      pop\n      pop\n      pop\n        /* \"NoBOverround.sol\":19126:19446  function getAccumulatedFees() public view returns (uint) {... */\n      swap1\n      jump\t// out\n        /* \"@openzeppelin/contracts/access/Ownable.sol\":2293:2394   */\n    tag_125:\n        /* \"@openzeppelin/contracts/access/Ownable.sol\":1531:1544   */\n      tag_498\n        /* \"@openzeppelin/contracts/access/Ownable.sol\":1531:1542   */\n      tag_286\n        /* \"@openzeppelin/contracts/access/Ownable.sol\":1531:1544   */\n      jump\t// in\n    tag_498:\n        /* \"@openzeppelin/contracts/access/Ownable.sol\":2357:2387   */\n      tag_500\n        /* \"@openzeppelin/contracts/access/Ownable.sol\":2384:2385   */\n      0x00\n        /* \"@openzeppelin/contracts/access/Ownable.sol\":2357:2375   */\n      tag_501\n        /* \"@openzeppelin/contracts/access/Ownable.sol\":2357:2387   */\n      jump\t// in\n    tag_500:\n        /* \"@openzeppelin/contracts/access/Ownable.sol\":2293:2394   */\n      jump\t// out\n        /* \"NoBOverround.sol\":10744:11389  function cost_after_buy(... */\n    tag_128:\n        /* \"NoBOverround.sol\":10835:10841  int128 */\n      0x00\n        /* \"NoBOverround.sol\":10849:10865  int128 sum_total */\n      dup1\n        /* \"NoBOverround.sol\":10871:10891  int128[] memory newq */\n      0x00\n        /* \"NoBOverround.sol\":10907:10908  q */\n      0x02\n        /* \"NoBOverround.sol\":10907:10915  q.length */\n      dup1\n      sload\n      swap1\n      pop\n        /* \"NoBOverround.sol\":10894:10916  new int128[](q.length) */\n      0xffffffffffffffff\n      dup2\n      gt\n      iszero\n      tag_504\n      jumpi\n      tag_504\n      tag_305\n      jump\t// in\n    tag_504:\n      mload(0x40)\n      swap1\n      dup1\n      dup3\n      mstore\n      dup1\n      0x20\n      mul\n      0x20\n      add\n      dup3\n      add\n      0x40\n      mstore\n      dup1\n      iszero\n      tag_505\n      jumpi\n      dup2\n      0x20\n      add\n      0x20\n      dup3\n      mul\n      dup1\n      calldatasize\n      dup4\n      calldatacopy\n      add\n      swap1\n      pop\n    tag_505:\n      pop\n        /* \"NoBOverround.sol\":10982:10983  b */\n      sload(0x03)\n        /* \"NoBOverround.sol\":10871:10916  int128[] memory newq = new int128[](q.length) */\n      swap1\n      swap2\n      pop\n        /* \"NoBOverround.sol\":10982:10983  b */\n      0x0f\n      signextend\n        /* \"NoBOverround.sol\":10966:10979  int128 used_b */\n      0x00\n        /* \"NoBOverround.sol\":10990:11163  for(uint j=0; j< numOutcomes; j++) {... */\n    tag_506:\n        /* \"NoBOverround.sol\":11007:11018  numOutcomes */\n      sload(0x01)\n        /* \"NoBOverround.sol\":11004:11005  j */\n      dup2\n        /* \"NoBOverround.sol\":11004:11018  j< numOutcomes */\n      lt\n        /* \"NoBOverround.sol\":10990:11163  for(uint j=0; j< numOutcomes; j++) {... */\n      iszero\n      tag_507\n      jumpi\n        /* \"NoBOverround.sol\":11049:11050  1 */\n      0x01\n        /* \"NoBOverround.sol\":11049:11053  1<<j */\n      dup2\n      shl\n        /* \"NoBOverround.sol\":11037:11054  _outcome & (1<<j) */\n      dup8\n      and\n        /* \"NoBOverround.sol\":11036:11060  (_outcome & (1<<j)) != 0 */\n      iszero\n        /* \"NoBOverround.sol\":11033:11157  if((_outcome & (1<<j)) != 0) {... */\n      tag_509\n      jumpi\n        /* \"NoBOverround.sol\":11082:11109  ABDKMath.add(q[j], _amount) */\n      tag_510\n        /* \"NoBOverround.sol\":11095:11096  q */\n      0x02\n        /* \"NoBOverround.sol\":11097:11098  j */\n      dup3\n        /* \"NoBOverround.sol\":11095:11099  q[j] */\n      dup2\n      sload\n      dup2\n      lt\n      tag_512\n      jumpi\n      tag_512\n      tag_243\n      jump\t// in\n    tag_512:\n      swap1\n      0x00\n      mstore\n      keccak256(0x00, 0x20)\n      swap1\n      0x02\n      swap2\n      dup3\n      dup3\n      div\n      add\n      swap2\n      swap1\n      mod\n      0x10\n      mul\n      swap1\n      sload\n      swap1\n      0x0100\n      exp\n      swap1\n      div\n      0x0f\n      signextend\n        /* \"NoBOverround.sol\":11101:11108  _amount */\n      dup8\n        /* \"NoBOverround.sol\":11082:11094  ABDKMath.add */\n      tag_227\n        /* \"NoBOverround.sol\":11082:11109  ABDKMath.add(q[j], _amount) */\n      jump\t// in\n    tag_510:\n        /* \"NoBOverround.sol\":11072:11076  newq */\n      dup4\n        /* \"NoBOverround.sol\":11077:11078  j */\n      dup3\n        /* \"NoBOverround.sol\":11072:11079  newq[j] */\n      dup2\n      mload\n      dup2\n      lt\n      tag_515\n      jumpi\n      tag_515\n      tag_243\n      jump\t// in\n    tag_515:\n      0x20\n      mul\n      0x20\n      add\n      add\n        /* \"NoBOverround.sol\":11072:11109  newq[j] = ABDKMath.add(q[j], _amount) */\n      swap1\n      0x0f\n      signextend\n      swap1\n      dup2\n      0x0f\n      signextend\n      dup2\n      mstore\n      pop\n      pop\n        /* \"NoBOverround.sol\":11033:11157  if((_outcome & (1<<j)) != 0) {... */\n      jump(tag_516)\n    tag_509:\n        /* \"NoBOverround.sol\":11144:11145  q */\n      0x02\n        /* \"NoBOverround.sol\":11146:11147  j */\n      dup2\n        /* \"NoBOverround.sol\":11144:11148  q[j] */\n      dup2\n      sload\n      dup2\n      lt\n      tag_518\n      jumpi\n      tag_518\n      tag_243\n      jump\t// in\n    tag_518:\n      swap1\n      0x00\n      mstore\n      keccak256(0x00, 0x20)\n      swap1\n      0x02\n      swap2\n      dup3\n      dup3\n      div\n      add\n      swap2\n      swap1\n      mod\n      0x10\n      mul\n      swap1\n      sload\n      swap1\n      0x0100\n      exp\n      swap1\n      div\n      0x0f\n      signextend\n        /* \"NoBOverround.sol\":11134:11138  newq */\n      dup4\n        /* \"NoBOverround.sol\":11139:11140  j */\n      dup3\n        /* \"NoBOverround.sol\":11134:11141  newq[j] */\n      dup2\n      mload\n      dup2\n      lt\n      tag_521\n      jumpi\n      tag_521\n      tag_243\n      jump\t// in\n    tag_521:\n      0x20\n      mul\n      0x20\n      add\n      add\n        /* \"NoBOverround.sol\":11134:11148  newq[j] = q[j] */\n      swap1\n      0x0f\n      signextend\n      swap1\n      dup2\n      0x0f\n      signextend\n      dup2\n      mstore\n      pop\n      pop\n        /* \"NoBOverround.sol\":11033:11157  if((_outcome & (1<<j)) != 0) {... */\n    tag_516:\n        /* \"NoBOverround.sol\":11020:11023  j++ */\n      0x01\n      add\n        /* \"NoBOverround.sol\":10990:11163  for(uint j=0; j< numOutcomes; j++) {... */\n      jump(tag_506)\n    tag_507:\n      pop\n        /* \"NoBOverround.sol\":11173:11179  uint i */\n      0x00\n        /* \"NoBOverround.sol\":11169:11329  for(uint i=0; i< numOutcomes; i++) {... */\n    tag_522:\n        /* \"NoBOverround.sol\":11186:11197  numOutcomes */\n      sload(0x01)\n        /* \"NoBOverround.sol\":11183:11184  i */\n      dup2\n        /* \"NoBOverround.sol\":11183:11197  i< numOutcomes */\n      lt\n        /* \"NoBOverround.sol\":11169:11329  for(uint i=0; i< numOutcomes; i++) {... */\n      iszero\n      tag_523\n      jumpi\n        /* \"NoBOverround.sol\":11224:11322  ABDKMath.add(sum_total,... */\n      tag_525\n        /* \"NoBOverround.sol\":11237:11246  sum_total */\n      dup5\n        /* \"NoBOverround.sol\":11256:11321  ABDKMath.exp(... */\n      tag_239\n        /* \"NoBOverround.sol\":11280:11309  ABDKMath.div(newq[i], used_b) */\n      tag_229\n        /* \"NoBOverround.sol\":11293:11297  newq */\n      dup7\n        /* \"NoBOverround.sol\":11298:11299  i */\n      dup6\n        /* \"NoBOverround.sol\":11293:11300  newq[i] */\n      dup2\n      mload\n      dup2\n      lt\n      tag_529\n      jumpi\n      tag_529\n      tag_243\n      jump\t// in\n    tag_529:\n      0x20\n      mul\n      0x20\n      add\n      add\n      mload\n        /* \"NoBOverround.sol\":11302:11308  used_b */\n      dup7\n        /* \"NoBOverround.sol\":11280:11292  ABDKMath.div */\n      tag_230\n        /* \"NoBOverround.sol\":11280:11309  ABDKMath.div(newq[i], used_b) */\n      jump\t// in\n        /* \"NoBOverround.sol\":11224:11322  ABDKMath.add(sum_total,... */\n    tag_525:\n        /* \"NoBOverround.sol\":11212:11322  sum_total = ABDKMath.add(sum_total,... */\n      swap4\n      pop\n        /* \"NoBOverround.sol\":11199:11202  i++ */\n      0x01\n      add\n        /* \"NoBOverround.sol\":11169:11329  for(uint i=0; i< numOutcomes; i++) {... */\n      jump(tag_522)\n    tag_523:\n      pop\n        /* \"NoBOverround.sol\":11342:11386  ABDKMath.mul(used_b, ABDKMath.ln(sum_total)) */\n      tag_530\n        /* \"NoBOverround.sol\":11355:11361  used_b */\n      dup2\n        /* \"NoBOverround.sol\":11363:11385  ABDKMath.ln(sum_total) */\n      tag_253\n        /* \"NoBOverround.sol\":11375:11384  sum_total */\n      dup6\n        /* \"NoBOverround.sol\":11363:11374  ABDKMath.ln */\n      tag_254\n        /* \"NoBOverround.sol\":11363:11385  ABDKMath.ln(sum_total) */\n      jump\t// in\n        /* \"NoBOverround.sol\":11342:11386  ABDKMath.mul(used_b, ABDKMath.ln(sum_total)) */\n    tag_530:\n        /* \"NoBOverround.sol\":11335:11386  return ABDKMath.mul(used_b, ABDKMath.ln(sum_total)) */\n      swap7\n        /* \"NoBOverround.sol\":10744:11389  function cost_after_buy(... */\n      swap6\n      pop\n      pop\n      pop\n      pop\n      pop\n      pop\n      jump\t// out\n        /* \"NoBOverround.sol\":7394:7819  function getPositionAndDustPositions(... */\n    tag_141:\n        /* \"NoBOverround.sol\":7475:7491  uint256[] memory */\n      0x60\n        /* \"NoBOverround.sol\":7498:7508  uint index */\n      0x00\n        /* \"NoBOverround.sol\":7528:7529  1 */\n      0x01\n        /* \"NoBOverround.sol\":7515:7526  numOutcomes */\n      dup1\n      sload\n        /* \"NoBOverround.sol\":7512:7513  1 */\n      0x01\n        /* \"NoBOverround.sol\":7512:7526  1<<numOutcomes */\n      swap1\n      shl\n        /* \"NoBOverround.sol\":7511:7529  (1<<numOutcomes)-1 */\n      tag_534\n      swap2\n      swap1\n      tag_408\n      jump\t// in\n    tag_534:\n        /* \"NoBOverround.sol\":7498:7529  uint index = (1<<numOutcomes)-1 */\n      swap1\n      pop\n        /* \"NoBOverround.sol\":7547:7548  1 */\n      0x01\n        /* \"NoBOverround.sol\":7547:7560  1 << _outcome */\n      dup4\n      shl\n        /* \"NoBOverround.sol\":7546:7569  (1 << _outcome) ^ index */\n      dup2\n      xor\n        /* \"NoBOverround.sol\":7535:7543  uint inv */\n      0x00\n        /* \"NoBOverround.sol\":7611:7623  getOnes(inv) */\n      tag_535\n        /* \"NoBOverround.sol\":7546:7569  (1 << _outcome) ^ index */\n      dup3\n        /* \"NoBOverround.sol\":7611:7618  getOnes */\n      tag_536\n        /* \"NoBOverround.sol\":7611:7623  getOnes(inv) */\n      jump\t// in\n    tag_535:\n        /* \"NoBOverround.sol\":7611:7625  getOnes(inv)+1 */\n      tag_537\n      swap1\n        /* \"NoBOverround.sol\":7624:7625  1 */\n      0x01\n        /* \"NoBOverround.sol\":7611:7625  getOnes(inv)+1 */\n      tag_215\n      jump\t// in\n    tag_537:\n        /* \"NoBOverround.sol\":7597:7626  new uint256[](getOnes(inv)+1) */\n      0xffffffffffffffff\n      dup2\n      gt\n      iszero\n      tag_539\n      jumpi\n      tag_539\n      tag_305\n      jump\t// in\n    tag_539:\n      mload(0x40)\n      swap1\n      dup1\n      dup3\n      mstore\n      dup1\n      0x20\n      mul\n      0x20\n      add\n      dup3\n      add\n      0x40\n      mstore\n      dup1\n      iszero\n      tag_540\n      jumpi\n      dup2\n      0x20\n      add\n      0x20\n      dup3\n      mul\n      dup1\n      calldatasize\n      dup4\n      calldatacopy\n      add\n      swap1\n      pop\n    tag_540:\n      pop\n        /* \"NoBOverround.sol\":7575:7626  uint[] memory partx = new uint256[](getOnes(inv)+1) */\n      swap1\n      pop\n        /* \"NoBOverround.sol\":7632:7638  uint n */\n      0x00\n        /* \"NoBOverround.sol\":7641:7642  1 */\n      0x01\n        /* \"NoBOverround.sol\":7632:7642  uint n = 1 */\n      swap1\n      pop\n        /* \"NoBOverround.sol\":7665:7673  _outcome */\n      dup6\n        /* \"NoBOverround.sol\":7660:7661  1 */\n      0x01\n        /* \"NoBOverround.sol\":7660:7673  1 << _outcome */\n      swap1\n      shl\n        /* \"NoBOverround.sol\":7648:7653  partx */\n      dup3\n        /* \"NoBOverround.sol\":7654:7655  0 */\n      0x00\n        /* \"NoBOverround.sol\":7648:7656  partx[0] */\n      dup2\n      mload\n      dup2\n      lt\n      tag_542\n      jumpi\n      tag_542\n      tag_243\n      jump\t// in\n    tag_542:\n      0x20\n      mul\n      0x20\n      add\n      add\n        /* \"NoBOverround.sol\":7648:7674  partx[0] = (1 << _outcome) */\n      dup2\n      dup2\n      mstore\n      pop\n      pop\n        /* \"NoBOverround.sol\":7684:7690  uint i */\n      0x00\n        /* \"NoBOverround.sol\":7680:7797  for(uint i=0; i<numOutcomes; i++) {... */\n    tag_543:\n        /* \"NoBOverround.sol\":7696:7707  numOutcomes */\n      sload(0x01)\n        /* \"NoBOverround.sol\":7694:7695  i */\n      dup2\n        /* \"NoBOverround.sol\":7694:7707  i<numOutcomes */\n      lt\n        /* \"NoBOverround.sol\":7680:7797  for(uint i=0; i<numOutcomes; i++) {... */\n      iszero\n      tag_544\n      jumpi\n        /* \"NoBOverround.sol\":7732:7733  1 */\n      0x01\n        /* \"NoBOverround.sol\":7732:7736  1<<i */\n      dup2\n      shl\n        /* \"NoBOverround.sol\":7726:7736  inv & 1<<i */\n      dup5\n      and\n        /* \"NoBOverround.sol\":7725:7742  (inv & 1<<i) != 0 */\n      iszero\n        /* \"NoBOverround.sol\":7722:7791  if((inv & 1<<i) != 0) {... */\n      tag_546\n      jumpi\n        /* \"NoBOverround.sol\":7768:7769  i */\n      dup1\n        /* \"NoBOverround.sol\":7765:7766  1 */\n      0x01\n        /* \"NoBOverround.sol\":7765:7769  1<<i */\n      swap1\n      shl\n        /* \"NoBOverround.sol\":7754:7759  partx */\n      dup4\n        /* \"NoBOverround.sol\":7760:7761  n */\n      dup4\n        /* \"NoBOverround.sol\":7754:7762  partx[n] */\n      dup2\n      mload\n      dup2\n      lt\n      tag_548\n      jumpi\n      tag_548\n      tag_243\n      jump\t// in\n    tag_548:\n      0x20\n      swap1\n      dup2\n      mul\n      swap2\n      swap1\n      swap2\n      add\n      add\n        /* \"NoBOverround.sol\":7754:7769  partx[n] = 1<<i */\n      mstore\n        /* \"NoBOverround.sol\":7779:7782  n++ */\n      dup2\n      tag_549\n      dup2\n      tag_550\n      jump\t// in\n    tag_549:\n      swap3\n      pop\n      pop\n        /* \"NoBOverround.sol\":7722:7791  if((inv & 1<<i) != 0) {... */\n    tag_546:\n        /* \"NoBOverround.sol\":7709:7712  i++ */\n      0x01\n      add\n        /* \"NoBOverround.sol\":7680:7797  for(uint i=0; i<numOutcomes; i++) {... */\n      jump(tag_543)\n    tag_544:\n      pop\n        /* \"NoBOverround.sol\":7809:7814  partx */\n      swap1\n      swap6\n        /* \"NoBOverround.sol\":7394:7819  function getPositionAndDustPositions(... */\n      swap5\n      pop\n      pop\n      pop\n      pop\n      pop\n      jump\t// out\n        /* \"NoBOverround.sol\":13497:13784  function getTokenWeiDown(address _token, int128 _amount) public view returns (uint) {... */\n    tag_146:\n        /* \"NoBOverround.sol\":13575:13579  uint */\n      0x00\n        /* \"NoBOverround.sol\":13587:13593  uint d */\n      dup1\n        /* \"NoBOverround.sol\":13602:13608  _token */\n      dup4\n      sub(shl(0xa0, 0x01), 0x01)\n        /* \"NoBOverround.sol\":13596:13618  ERC20(_token).decimals */\n      and\n      0x313ce567\n        /* \"NoBOverround.sol\":13596:13620  ERC20(_token).decimals() */\n      mload(0x40)\n      dup2\n      0xffffffff\n      and\n      0xe0\n      shl\n      dup2\n      mstore\n      0x04\n      add\n      0x20\n      mload(0x40)\n      dup1\n      dup4\n      sub\n      dup2\n      dup7\n      gas\n      staticcall\n      iszero\n      dup1\n      iszero\n      tag_553\n      jumpi\n      returndatasize\n      0x00\n      dup1\n      returndatacopy\n      revert(0x00, returndatasize)\n    tag_553:\n      pop\n      pop\n      pop\n      pop\n      mload(0x40)\n      returndatasize\n      not(0x1f)\n      0x1f\n      dup3\n      add\n      and\n      dup3\n      add\n      dup1\n      0x40\n      mstore\n      pop\n      dup2\n      add\n      swap1\n      tag_554\n      swap2\n      swap1\n      tag_203\n      jump\t// in\n    tag_554:\n        /* \"NoBOverround.sol\":13587:13620  uint d = ERC20(_token).decimals() */\n      0xff\n      and\n      swap1\n      pop\n        /* \"NoBOverround.sol\":13626:13641  uint multiplier */\n      0x00\n        /* \"NoBOverround.sol\":13644:13651  10 ** d */\n      tag_555\n        /* \"NoBOverround.sol\":13587:13620  uint d = ERC20(_token).decimals() */\n      dup3\n        /* \"NoBOverround.sol\":13644:13646  10 */\n      0x0a\n        /* \"NoBOverround.sol\":13644:13651  10 ** d */\n      tag_205\n      jump\t// in\n    tag_555:\n        /* \"NoBOverround.sol\":13626:13651  uint multiplier = 10 ** d */\n      swap1\n      pop\n        /* \"NoBOverround.sol\":13676:13677  0 */\n      0x00\n        /* \"NoBOverround.sol\":13665:13672  _amount */\n      dup5\n        /* \"NoBOverround.sol\":13665:13677  _amount >= 0 */\n      0x0f\n      signextend\n      slt\n      iszero\n        /* \"NoBOverround.sol\":13657:13709  require(_amount >= 0, \"Amount must be non-negative\") */\n      tag_556\n      jumpi\n      mload(0x40)\n      shl(0xe5, 0x461bcd)\n      dup2\n      mstore\n        /* \"#utility.yul\":10762:10764   */\n      0x20\n        /* \"NoBOverround.sol\":13657:13709  require(_amount >= 0, \"Amount must be non-negative\") */\n      0x04\n      dup3\n      add\n        /* \"#utility.yul\":10744:10765   */\n      mstore\n        /* \"#utility.yul\":10801:10803   */\n      0x1b\n        /* \"#utility.yul\":10781:10799   */\n      0x24\n      dup3\n      add\n        /* \"#utility.yul\":10774:10804   */\n      mstore\n        /* \"#utility.yul\":10840:10869   */\n      0x416d6f756e74206d757374206265206e6f6e2d6e656761746976650000000000\n        /* \"#utility.yul\":10820:10838   */\n      0x44\n      dup3\n      add\n        /* \"#utility.yul\":10813:10870   */\n      mstore\n        /* \"#utility.yul\":10887:10905   */\n      0x64\n      add\n        /* \"NoBOverround.sol\":13657:13709  require(_amount >= 0, \"Amount must be non-negative\") */\n      tag_207\n        /* \"#utility.yul\":10560:10911   */\n      jump\n        /* \"NoBOverround.sol\":13657:13709  require(_amount >= 0, \"Amount must be non-negative\") */\n    tag_556:\n        /* \"NoBOverround.sol\":13722:13756  ABDKMath.mulu(_amount, multiplier) */\n      tag_213\n        /* \"NoBOverround.sol\":13736:13743  _amount */\n      dup5\n        /* \"NoBOverround.sol\":13745:13755  multiplier */\n      dup3\n        /* \"NoBOverround.sol\":13722:13735  ABDKMath.mulu */\n      tag_210\n        /* \"NoBOverround.sol\":13722:13756  ABDKMath.mulu(_amount, multiplier) */\n      jump\t// in\n        /* \"NoBOverround.sol\":15785:18003  function sell(uint256 _outcome, int128 _amount) public onlyAfterInit returns (int128 refund) {... */\n    tag_154:\n        /* \"NoBOverround.sol\":14654:14658  init */\n      sload(0x08)\n        /* \"NoBOverround.sol\":15863:15876  int128 refund */\n      0x00\n      swap1\n      shl(0xa0, 0x01)\n        /* \"NoBOverround.sol\":14654:14658  init */\n      swap1\n      div\n      0xff\n      and\n        /* \"NoBOverround.sol\":14654:14666  init == true */\n      iszero\n      iszero\n        /* \"NoBOverround.sol\":14662:14666  true */\n      0x01\n        /* \"NoBOverround.sol\":14654:14666  init == true */\n      eq\n        /* \"NoBOverround.sol\":14646:14667  require(init == true) */\n      tag_561\n      jumpi\n      0x00\n      dup1\n      revert\n    tag_561:\n        /* \"NoBOverround.sol\":15903:15914  numOutcomes */\n      sload(0x01)\n        /* \"NoBOverround.sol\":15892:15900  _outcome */\n      dup4\n        /* \"NoBOverround.sol\":15892:15914  _outcome < numOutcomes */\n      lt\n        /* \"NoBOverround.sol\":15884:15940  require(_outcome < numOutcomes, \"Invalid outcome index\") */\n      tag_563\n      jumpi\n      mload(0x40)\n      shl(0xe5, 0x461bcd)\n      dup2\n      mstore\n        /* \"#utility.yul\":11248:11250   */\n      0x20\n        /* \"NoBOverround.sol\":15884:15940  require(_outcome < numOutcomes, \"Invalid outcome index\") */\n      0x04\n      dup3\n      add\n        /* \"#utility.yul\":11230:11251   */\n      mstore\n        /* \"#utility.yul\":11287:11289   */\n      0x15\n        /* \"#utility.yul\":11267:11285   */\n      0x24\n      dup3\n      add\n        /* \"#utility.yul\":11260:11290   */\n      mstore\n      shl(0x5b, 0x092dcecc2d8d2c840deeae8c6dedaca40d2dcc8caf)\n        /* \"#utility.yul\":11306:11324   */\n      0x44\n      dup3\n      add\n        /* \"#utility.yul\":11299:11350   */\n      mstore\n        /* \"#utility.yul\":11367:11385   */\n      0x64\n      add\n        /* \"NoBOverround.sol\":15884:15940  require(_outcome < numOutcomes, \"Invalid outcome index\") */\n      tag_207\n        /* \"#utility.yul\":11046:11391   */\n      jump\n        /* \"NoBOverround.sol\":15884:15940  require(_outcome < numOutcomes, \"Invalid outcome index\") */\n    tag_563:\n        /* \"NoBOverround.sol\":15964:15965  0 */\n      0x00\n        /* \"NoBOverround.sol\":15954:15961  _amount */\n      dup3\n        /* \"NoBOverround.sol\":15954:15965  _amount > 0 */\n      0x0f\n      signextend\n      sgt\n        /* \"NoBOverround.sol\":15946:15993  require(_amount > 0, \"Amount must be positive\") */\n      tag_565\n      jumpi\n      mload(0x40)\n      shl(0xe5, 0x461bcd)\n      dup2\n      mstore\n        /* \"#utility.yul\":19416:19418   */\n      0x20\n        /* \"NoBOverround.sol\":15946:15993  require(_amount > 0, \"Amount must be positive\") */\n      0x04\n      dup3\n      add\n        /* \"#utility.yul\":19398:19419   */\n      mstore\n        /* \"#utility.yul\":19455:19457   */\n      0x17\n        /* \"#utility.yul\":19435:19453   */\n      0x24\n      dup3\n      add\n        /* \"#utility.yul\":19428:19458   */\n      mstore\n        /* \"#utility.yul\":19494:19519   */\n      0x416d6f756e74206d75737420626520706f736974697665000000000000000000\n        /* \"#utility.yul\":19474:19492   */\n      0x44\n      dup3\n      add\n        /* \"#utility.yul\":19467:19520   */\n      mstore\n        /* \"#utility.yul\":19537:19555   */\n      0x64\n      add\n        /* \"NoBOverround.sol\":15946:15993  require(_amount > 0, \"Amount must be positive\") */\n      tag_207\n        /* \"#utility.yul\":19214:19561   */\n      jump\n        /* \"NoBOverround.sol\":15946:15993  require(_amount > 0, \"Amount must be positive\") */\n    tag_565:\n        /* \"NoBOverround.sol\":16007:16009  CT */\n      sload(0x07)\n        /* \"NoBOverround.sol\":16028:16037  condition */\n      sload(0x06)\n        /* \"NoBOverround.sol\":16007:16038  CT.payoutDenominator(condition) */\n      mload(0x40)\n      shl(0xe0, 0xdd34de67)\n      dup2\n      mstore\n      sub(shl(0xa0, 0x01), 0x01)\n        /* \"NoBOverround.sol\":16007:16009  CT */\n      swap1\n      swap3\n      and\n      swap2\n        /* \"NoBOverround.sol\":16007:16027  CT.payoutDenominator */\n      0xdd34de67\n      swap2\n        /* \"NoBOverround.sol\":16007:16038  CT.payoutDenominator(condition) */\n      tag_568\n      swap2\n      0x04\n      add\n        /* \"#utility.yul\":1274:1299   */\n      swap1\n      dup2\n      mstore\n        /* \"#utility.yul\":1262:1264   */\n      0x20\n        /* \"#utility.yul\":1247:1265   */\n      add\n      swap1\n        /* \"#utility.yul\":1128:1305   */\n      jump\n        /* \"NoBOverround.sol\":16007:16038  CT.payoutDenominator(condition) */\n    tag_568:\n      0x20\n      mload(0x40)\n      dup1\n      dup4\n      sub\n      dup2\n      dup7\n      gas\n      staticcall\n      iszero\n      dup1\n      iszero\n      tag_570\n      jumpi\n      returndatasize\n      0x00\n      dup1\n      returndatacopy\n      revert(0x00, returndatasize)\n    tag_570:\n      pop\n      pop\n      pop\n      pop\n      mload(0x40)\n      returndatasize\n      not(0x1f)\n      0x1f\n      dup3\n      add\n      and\n      dup3\n      add\n      dup1\n      0x40\n      mstore\n      pop\n      dup2\n      add\n      swap1\n      tag_571\n      swap2\n      swap1\n      tag_292\n      jump\t// in\n    tag_571:\n        /* \"NoBOverround.sol\":16007:16043  CT.payoutDenominator(condition) == 0 */\n      iszero\n        /* \"NoBOverround.sol\":15999:16071  require(CT.payoutDenominator(condition) == 0, \"Market already resolved\") */\n      tag_572\n      jumpi\n      mload(0x40)\n      shl(0xe5, 0x461bcd)\n      dup2\n      mstore\n        /* \"#utility.yul\":13043:13045   */\n      0x20\n        /* \"NoBOverround.sol\":15999:16071  require(CT.payoutDenominator(condition) == 0, \"Market already resolved\") */\n      0x04\n      dup3\n      add\n        /* \"#utility.yul\":13025:13046   */\n      mstore\n        /* \"#utility.yul\":13082:13084   */\n      0x17\n        /* \"#utility.yul\":13062:13080   */\n      0x24\n      dup3\n      add\n        /* \"#utility.yul\":13055:13085   */\n      mstore\n        /* \"#utility.yul\":13121:13146   */\n      0x4d61726b657420616c7265616479207265736f6c766564000000000000000000\n        /* \"#utility.yul\":13101:13119   */\n      0x44\n      dup3\n      add\n        /* \"#utility.yul\":13094:13147   */\n      mstore\n        /* \"#utility.yul\":13164:13182   */\n      0x64\n      add\n        /* \"NoBOverround.sol\":15999:16071  require(CT.payoutDenominator(condition) == 0, \"Market already resolved\") */\n      tag_207\n        /* \"#utility.yul\":12841:13188   */\n      jump\n        /* \"NoBOverround.sol\":15999:16071  require(CT.payoutDenominator(condition) == 0, \"Market already resolved\") */\n    tag_572:\n        /* \"NoBOverround.sol\":16100:16107  _amount */\n      dup2\n        /* \"NoBOverround.sol\":16085:16107  q[_outcome] >= _amount */\n      0x0f\n      signextend\n        /* \"NoBOverround.sol\":16085:16086  q */\n      0x02\n        /* \"NoBOverround.sol\":16087:16095  _outcome */\n      dup5\n        /* \"NoBOverround.sol\":16085:16096  q[_outcome] */\n      dup2\n      sload\n      dup2\n      lt\n      tag_575\n      jumpi\n      tag_575\n      tag_243\n      jump\t// in\n    tag_575:\n      0x00\n      swap2\n      dup3\n      mstore\n      0x20\n      swap1\n      swap2\n      keccak256\n      0x02\n      dup3\n      div\n      add\n      sload\n      0x01\n      swap1\n      swap2\n      and\n      0x10\n      mul\n      0x0100\n      exp\n      swap1\n      div\n      0x0f\n      signextend\n        /* \"NoBOverround.sol\":16085:16107  q[_outcome] >= _amount */\n      slt\n      iszero\n        /* \"NoBOverround.sol\":16077:16137  require(q[_outcome] >= _amount, \"Not enough shares to sell\") */\n      tag_577\n      jumpi\n      mload(0x40)\n      shl(0xe5, 0x461bcd)\n      dup2\n      mstore\n        /* \"#utility.yul\":19768:19770   */\n      0x20\n        /* \"NoBOverround.sol\":16077:16137  require(q[_outcome] >= _amount, \"Not enough shares to sell\") */\n      0x04\n      dup3\n      add\n        /* \"#utility.yul\":19750:19771   */\n      mstore\n        /* \"#utility.yul\":19807:19809   */\n      0x19\n        /* \"#utility.yul\":19787:19805   */\n      0x24\n      dup3\n      add\n        /* \"#utility.yul\":19780:19810   */\n      mstore\n        /* \"#utility.yul\":19846:19873   */\n      0x4e6f7420656e6f7567682073686172657320746f2073656c6c00000000000000\n        /* \"#utility.yul\":19826:19844   */\n      0x44\n      dup3\n      add\n        /* \"#utility.yul\":19819:19874   */\n      mstore\n        /* \"#utility.yul\":19891:19909   */\n      0x64\n      add\n        /* \"NoBOverround.sol\":16077:16137  require(q[_outcome] >= _amount, \"Not enough shares to sell\") */\n      tag_207\n        /* \"#utility.yul\":19566:19915   */\n      jump\n        /* \"NoBOverround.sol\":16077:16137  require(q[_outcome] >= _amount, \"Not enough shares to sell\") */\n    tag_577:\n        /* \"NoBOverround.sol\":16194:16209  int128 new_cost */\n      0x00\n        /* \"NoBOverround.sol\":16211:16225  int128 refund_ */\n      dup1\n        /* \"NoBOverround.sol\":16227:16250  int128 new_total_shares */\n      0x00\n        /* \"NoBOverround.sol\":16254:16351  _calculateSellRefund(... */\n      tag_580\n        /* \"NoBOverround.sol\":16284:16285  q */\n      0x02\n        /* \"NoBOverround.sol\":16254:16351  _calculateSellRefund(... */\n      dup1\n      sload\n      dup1\n      0x20\n      mul\n      0x20\n      add\n      mload(0x40)\n      swap1\n      dup2\n      add\n      0x40\n      mstore\n      dup1\n      swap3\n      swap2\n      swap1\n      dup2\n      dup2\n      mstore\n      0x20\n      add\n      dup3\n      dup1\n      sload\n      dup1\n      iszero\n      tag_581\n      jumpi\n      0x20\n      mul\n      dup3\n      add\n      swap2\n      swap1\n      0x00\n      mstore\n      keccak256(0x00, 0x20)\n      swap1\n      0x00\n      swap1\n    tag_582:\n      dup3\n      sload\n      0x0100\n      dup4\n      swap1\n      exp\n      swap1\n      div\n      0x0f\n      signextend\n      dup2\n      mstore\n      0x20\n      0x1f\n      dup4\n      add\n      dup2\n      swap1\n      div\n      swap4\n      dup5\n      add\n      swap4\n      0x01\n      sub\n      0x10\n      swap1\n      swap4\n      add\n      swap3\n      swap1\n      swap3\n      mul\n      swap2\n      add\n      dup1\n      dup5\n      gt\n      tag_582\n      jumpi\n      swap1\n      pop\n    tag_581:\n      pop\n      pop\n        /* \"NoBOverround.sol\":16306:16318  total_shares */\n      sload(0x04)\n        /* \"NoBOverround.sol\":16320:16332  current_cost */\n      sload(0x03)\n        /* \"NoBOverround.sol\":16306:16318  total_shares */\n      0x01\n        /* \"NoBOverround.sol\":16334:16345  numOutcomes */\n      sload\n        /* \"NoBOverround.sol\":16287:16295  _outcome */\n      dup14\n      swap6\n      pop\n        /* \"NoBOverround.sol\":16297:16304  _amount */\n      dup13\n      swap5\n      pop\n        /* \"NoBOverround.sol\":16306:16318  total_shares */\n      0x0f\n      swap3\n      dup4\n      signextend\n      swap4\n      pop\n      shl(0x80, 0x01)\n        /* \"NoBOverround.sol\":16320:16332  current_cost */\n      swap1\n      swap2\n      div\n      swap1\n      swap2\n      signextend\n      swap1\n        /* \"NoBOverround.sol\":16254:16274  _calculateSellRefund */\n      tag_583\n        /* \"NoBOverround.sol\":16254:16351  _calculateSellRefund(... */\n      jump\t// in\n    tag_580:\n        /* \"NoBOverround.sol\":16398:16403  token */\n      sload(0x08)\n        /* \"NoBOverround.sol\":16193:16351  (int128 new_cost, int128 refund_, int128 new_total_shares) = _calculateSellRefund(... */\n      swap3\n      swap6\n      pop\n      swap1\n      swap4\n      pop\n      swap2\n      pop\n        /* \"NoBOverround.sol\":16358:16379  uint n_outcome_tokens */\n      0x00\n      swap1\n        /* \"NoBOverround.sol\":16382:16413  getTokenWeiDown(token, _amount) */\n      tag_584\n      swap1\n      sub(shl(0xa0, 0x01), 0x01)\n        /* \"NoBOverround.sol\":16398:16403  token */\n      and\n        /* \"NoBOverround.sol\":16405:16412  _amount */\n      dup8\n        /* \"NoBOverround.sol\":16382:16397  getTokenWeiDown */\n      tag_146\n        /* \"NoBOverround.sol\":16382:16413  getTokenWeiDown(token, _amount) */\n      jump\t// in\n    tag_584:\n        /* \"NoBOverround.sol\":16476:16478  CT */\n      sload(0x07)\n        /* \"NoBOverround.sol\":16500:16505  token */\n      sload(0x08)\n        /* \"NoBOverround.sol\":16539:16548  condition */\n      sload(0x06)\n        /* \"NoBOverround.sol\":16508:16564  CT.getCollectionId(bytes32(0), condition, 1 << _outcome) */\n      mload(0x40)\n      shl(0xe0, 0x856296f7)\n      dup2\n      mstore\n        /* \"NoBOverround.sol\":16465:16473  uint pos */\n      0x00\n        /* \"NoBOverround.sol\":16508:16564  CT.getCollectionId(bytes32(0), condition, 1 << _outcome) */\n      0x04\n      dup3\n      add\n        /* \"#utility.yul\":14152:14177   */\n      dup2\n      swap1\n      mstore\n        /* \"#utility.yul\":14193:14211   */\n      0x24\n      dup3\n      add\n        /* \"#utility.yul\":14186:14220   */\n      swap3\n      swap1\n      swap3\n      mstore\n        /* \"NoBOverround.sol\":16476:16478  CT */\n      0x01\n        /* \"NoBOverround.sol\":16550:16563  1 << _outcome */\n      dup13\n      shl\n        /* \"#utility.yul\":14236:14254   */\n      0x44\n      dup3\n      add\n        /* \"#utility.yul\":14229:14263   */\n      mstore\n        /* \"NoBOverround.sol\":16358:16413  uint n_outcome_tokens = getTokenWeiDown(token, _amount) */\n      swap4\n      swap5\n      pop\n        /* \"NoBOverround.sol\":16465:16473  uint pos */\n      swap3\n      sub(shl(0xa0, 0x01), 0x01)\n        /* \"NoBOverround.sol\":16476:16478  CT */\n      swap3\n      dup4\n      and\n      swap3\n        /* \"NoBOverround.sol\":16476:16492  CT.getPositionId */\n      0x39dd7530\n      swap3\n        /* \"NoBOverround.sol\":16500:16505  token */\n      and\n      swap1\n        /* \"NoBOverround.sol\":16476:16478  CT */\n      dup4\n      swap1\n        /* \"NoBOverround.sol\":16508:16526  CT.getCollectionId */\n      0x856296f7\n      swap1\n        /* \"#utility.yul\":14125:14143   */\n      0x64\n      add\n        /* \"NoBOverround.sol\":16508:16564  CT.getCollectionId(bytes32(0), condition, 1 << _outcome) */\n      0x20\n      mload(0x40)\n      dup1\n      dup4\n      sub\n      dup2\n      dup7\n      gas\n      staticcall\n      iszero\n      dup1\n      iszero\n      tag_587\n      jumpi\n      returndatasize\n      0x00\n      dup1\n      returndatacopy\n      revert(0x00, returndatasize)\n    tag_587:\n      pop\n      pop\n      pop\n      pop\n      mload(0x40)\n      returndatasize\n      not(0x1f)\n      0x1f\n      dup3\n      add\n      and\n      dup3\n      add\n      dup1\n      0x40\n      mstore\n      pop\n      dup2\n      add\n      swap1\n      tag_588\n      swap2\n      swap1\n      tag_292\n      jump\t// in\n    tag_588:\n        /* \"NoBOverround.sol\":16476:16565  CT.getPositionId(IERC20(token), CT.getCollectionId(bytes32(0), condition, 1 << _outcome)) */\n      mload(0x40)\n      not(sub(shl(0xe0, 0x01), 0x01))\n      0xe0\n      dup6\n      swap1\n      shl\n      and\n      dup2\n      mstore\n      sub(shl(0xa0, 0x01), 0x01)\n        /* \"#utility.yul\":14671:14726   */\n      swap1\n      swap3\n      and\n        /* \"NoBOverround.sol\":16476:16565  CT.getPositionId(IERC20(token), CT.getCollectionId(bytes32(0), condition, 1 << _outcome)) */\n      0x04\n      dup4\n      add\n        /* \"#utility.yul\":14653:14727   */\n      mstore\n        /* \"#utility.yul\":14743:14761   */\n      0x24\n      dup3\n      add\n        /* \"#utility.yul\":14736:14770   */\n      mstore\n        /* \"#utility.yul\":14626:14644   */\n      0x44\n      add\n        /* \"NoBOverround.sol\":16476:16565  CT.getPositionId(IERC20(token), CT.getCollectionId(bytes32(0), condition, 1 << _outcome)) */\n      0x20\n      mload(0x40)\n      dup1\n      dup4\n      sub\n      dup2\n      dup7\n      gas\n      staticcall\n      iszero\n      dup1\n      iszero\n      tag_591\n      jumpi\n      returndatasize\n      0x00\n      dup1\n      returndatacopy\n      revert(0x00, returndatasize)\n    tag_591:\n      pop\n      pop\n      pop\n      pop\n      mload(0x40)\n      returndatasize\n      not(0x1f)\n      0x1f\n      dup3\n      add\n      and\n      dup3\n      add\n      dup1\n      0x40\n      mstore\n      pop\n      dup2\n      add\n      swap1\n      tag_592\n      swap2\n      swap1\n      tag_292\n      jump\t// in\n    tag_592:\n        /* \"NoBOverround.sol\":16580:16582  CT */\n      sload(0x07)\n        /* \"NoBOverround.sol\":16580:16653  CT.safeTransferFrom(msg.sender, address(this), pos, n_outcome_tokens, \"\") */\n      mload(0x40)\n      shl(0xe1, 0x79212195)\n      dup2\n      mstore\n        /* \"NoBOverround.sol\":16600:16610  msg.sender */\n      caller\n        /* \"NoBOverround.sol\":16580:16653  CT.safeTransferFrom(msg.sender, address(this), pos, n_outcome_tokens, \"\") */\n      0x04\n      dup3\n      add\n        /* \"#utility.yul\":20276:20310   */\n      mstore\n        /* \"NoBOverround.sol\":16620:16624  this */\n      address\n        /* \"#utility.yul\":20326:20344   */\n      0x24\n      dup3\n      add\n        /* \"#utility.yul\":20319:20362   */\n      mstore\n        /* \"#utility.yul\":20378:20396   */\n      0x44\n      dup2\n      add\n        /* \"#utility.yul\":20371:20405   */\n      dup4\n      swap1\n      mstore\n        /* \"#utility.yul\":20421:20439   */\n      0x64\n      dup2\n      add\n        /* \"#utility.yul\":20414:20448   */\n      dup6\n      swap1\n      mstore\n        /* \"#utility.yul\":20485:20488   */\n      0xa0\n        /* \"#utility.yul\":20464:20483   */\n      0x84\n      dup3\n      add\n        /* \"#utility.yul\":20457:20489   */\n      mstore\n      0x00\n        /* \"#utility.yul\":20505:20524   */\n      0xa4\n      dup3\n      add\n        /* \"#utility.yul\":20498:20528   */\n      mstore\n        /* \"NoBOverround.sol\":16465:16565  uint pos = CT.getPositionId(IERC20(token), CT.getCollectionId(bytes32(0), condition, 1 << _outcome)) */\n      swap2\n      swap3\n      pop\n      sub(shl(0xa0, 0x01), 0x01)\n        /* \"NoBOverround.sol\":16580:16582  CT */\n      and\n      swap1\n        /* \"NoBOverround.sol\":16580:16599  CT.safeTransferFrom */\n      0xf242432a\n      swap1\n        /* \"#utility.yul\":20545:20564   */\n      0xc4\n      add\n        /* \"NoBOverround.sol\":16580:16653  CT.safeTransferFrom(msg.sender, address(this), pos, n_outcome_tokens, \"\") */\n      0x00\n      mload(0x40)\n      dup1\n      dup4\n      sub\n      dup2\n      0x00\n      dup8\n      dup1\n      extcodesize\n      iszero\n      dup1\n      iszero\n      tag_595\n      jumpi\n      0x00\n      dup1\n      revert\n    tag_595:\n      pop\n      gas\n      call\n      swap3\n      pop\n      pop\n      pop\n      dup1\n      iszero\n      tag_596\n      jumpi\n      pop\n      0x01\n    tag_596:\n        /* \"NoBOverround.sol\":16576:16880  try CT.safeTransferFrom(msg.sender, address(this), pos, n_outcome_tokens, \"\") {... */\n      tag_597\n      jumpi\n      tag_601\n      tag_602\n      jump\t// in\n    tag_601:\n      dup1\n      0x08c379a0\n      sub\n      tag_600\n      jumpi\n      pop\n      tag_603\n      tag_604\n      jump\t// in\n    tag_603:\n      dup1\n      tag_605\n      jumpi\n      pop\n      jump(tag_599)\n    tag_605:\n        /* \"NoBOverround.sol\":16741:16794  SplitPositionError(\"safeTransferFrom failed\", reason) */\n      0xbd1dcaeca35ae4a65142e160b7e80d67e7d37f2145f209d9c29b7e4daf85ba37\n        /* \"NoBOverround.sol\":16787:16793  reason */\n      dup2\n        /* \"NoBOverround.sol\":16741:16794  SplitPositionError(\"safeTransferFrom failed\", reason) */\n      mload(0x40)\n      tag_606\n      swap2\n      swap1\n      tag_607\n      jump\t// in\n    tag_606:\n      mload(0x40)\n      dup1\n      swap2\n      sub\n      swap1\n      log1\n        /* \"NoBOverround.sol\":16864:16870  reason */\n      dup1\n        /* \"NoBOverround.sol\":16818:16871  abi.encodePacked(\"safeTransferFrom failed: \", reason) */\n      add(0x20, mload(0x40))\n      tag_608\n      swap2\n      swap1\n      tag_609\n      jump\t// in\n    tag_608:\n      0x40\n      dup1\n      mload\n      not(0x1f)\n      dup2\n      dup5\n      sub\n      add\n      dup2\n      mstore\n      swap1\n      dup3\n      swap1\n      mstore\n      shl(0xe5, 0x461bcd)\n        /* \"NoBOverround.sol\":16804:16873  revert(string(abi.encodePacked(\"safeTransferFrom failed: \", reason))) */\n      dup3\n      mstore\n      tag_207\n      swap2\n      0x04\n      add\n      tag_611\n      jump\t// in\n        /* \"NoBOverround.sol\":16576:16880  try CT.safeTransferFrom(msg.sender, address(this), pos, n_outcome_tokens, \"\") {... */\n    tag_600:\n      pop\n    tag_599:\n      returndatasize\n      0x00\n      dup1\n      returndatacopy\n      revert(0x00, returndatasize)\n    tag_597:\n        /* \"NoBOverround.sol\":16974:16997  uint[] memory partition */\n      0x00\n        /* \"NoBOverround.sol\":17000:17037  getPositionAndDustPositions(_outcome) */\n      tag_613\n        /* \"NoBOverround.sol\":17028:17036  _outcome */\n      dup10\n        /* \"NoBOverround.sol\":17000:17027  getPositionAndDustPositions */\n      tag_141\n        /* \"NoBOverround.sol\":17000:17037  getPositionAndDustPositions(_outcome) */\n      jump\t// in\n    tag_613:\n        /* \"NoBOverround.sol\":16974:17037  uint[] memory partition = getPositionAndDustPositions(_outcome) */\n      swap1\n      pop\n        /* \"NoBOverround.sol\":17065:17081  n_outcome_tokens */\n      dup3\n        /* \"NoBOverround.sol\":17043:17062  uint burnableAmount */\n      0x00\n        /* \"NoBOverround.sol\":17092:17439  for (uint i = 0; i < partition.length; i++) {... */\n    tag_614:\n        /* \"NoBOverround.sol\":17113:17122  partition */\n      dup3\n        /* \"NoBOverround.sol\":17113:17129  partition.length */\n      mload\n        /* \"NoBOverround.sol\":17109:17110  i */\n      dup2\n        /* \"NoBOverround.sol\":17109:17129  i < partition.length */\n      lt\n        /* \"NoBOverround.sol\":17092:17439  for (uint i = 0; i < partition.length; i++) {... */\n      iszero\n      tag_615\n      jumpi\n        /* \"NoBOverround.sol\":17159:17161  CT */\n      sload(0x07)\n        /* \"NoBOverround.sol\":17183:17188  token */\n      sload(0x08)\n        /* \"NoBOverround.sol\":17222:17231  condition */\n      sload(0x06)\n        /* \"NoBOverround.sol\":17233:17245  partition[i] */\n      dup6\n      mload\n        /* \"NoBOverround.sol\":17146:17156  uint posId */\n      0x00\n      swap4\n      sub(shl(0xa0, 0x01), 0x01)\n        /* \"NoBOverround.sol\":17159:17161  CT */\n      swap1\n      dup2\n      and\n      swap4\n        /* \"NoBOverround.sol\":17159:17175  CT.getPositionId */\n      0x39dd7530\n      swap4\n        /* \"NoBOverround.sol\":17183:17188  token */\n      swap2\n      and\n      swap2\n        /* \"NoBOverround.sol\":17159:17161  CT */\n      dup5\n      swap2\n        /* \"NoBOverround.sol\":17191:17209  CT.getCollectionId */\n      0x856296f7\n      swap2\n        /* \"NoBOverround.sol\":17146:17156  uint posId */\n      dup8\n      swap2\n        /* \"NoBOverround.sol\":17222:17231  condition */\n      swap1\n        /* \"NoBOverround.sol\":17233:17242  partition */\n      dup12\n      swap1\n        /* \"NoBOverround.sol\":17243:17244  i */\n      dup11\n      swap1\n        /* \"NoBOverround.sol\":17233:17245  partition[i] */\n      dup2\n      lt\n      tag_618\n      jumpi\n      tag_618\n      tag_243\n      jump\t// in\n    tag_618:\n      0x20\n      mul\n      0x20\n      add\n      add\n      mload\n        /* \"NoBOverround.sol\":17191:17246  CT.getCollectionId(bytes32(0), condition, partition[i]) */\n      mload(0x40)\n      dup5\n      0xffffffff\n      and\n      0xe0\n      shl\n      dup2\n      mstore\n      0x04\n      add\n      tag_619\n      swap4\n      swap3\n      swap2\n      swap1\n        /* \"#utility.yul\":14152:14177   */\n      swap3\n      dup4\n      mstore\n        /* \"#utility.yul\":14208:14210   */\n      0x20\n        /* \"#utility.yul\":14193:14211   */\n      dup4\n      add\n        /* \"#utility.yul\":14186:14220   */\n      swap2\n      swap1\n      swap2\n      mstore\n        /* \"#utility.yul\":14251:14253   */\n      0x40\n        /* \"#utility.yul\":14236:14254   */\n      dup3\n      add\n        /* \"#utility.yul\":14229:14263   */\n      mstore\n        /* \"#utility.yul\":14140:14142   */\n      0x60\n        /* \"#utility.yul\":14125:14143   */\n      add\n      swap1\n        /* \"#utility.yul\":13942:14269   */\n      jump\n        /* \"NoBOverround.sol\":17191:17246  CT.getCollectionId(bytes32(0), condition, partition[i]) */\n    tag_619:\n      0x20\n      mload(0x40)\n      dup1\n      dup4\n      sub\n      dup2\n      dup7\n      gas\n      staticcall\n      iszero\n      dup1\n      iszero\n      tag_621\n      jumpi\n      returndatasize\n      0x00\n      dup1\n      returndatacopy\n      revert(0x00, returndatasize)\n    tag_621:\n      pop\n      pop\n      pop\n      pop\n      mload(0x40)\n      returndatasize\n      not(0x1f)\n      0x1f\n      dup3\n      add\n      and\n      dup3\n      add\n      dup1\n      0x40\n      mstore\n      pop\n      dup2\n      add\n      swap1\n      tag_622\n      swap2\n      swap1\n      tag_292\n      jump\t// in\n    tag_622:\n        /* \"NoBOverround.sol\":17159:17247  CT.getPositionId(IERC20(token), CT.getCollectionId(bytes32(0), condition, partition[i])) */\n      mload(0x40)\n      not(sub(shl(0xe0, 0x01), 0x01))\n      0xe0\n      dup6\n      swap1\n      shl\n      and\n      dup2\n      mstore\n      sub(shl(0xa0, 0x01), 0x01)\n        /* \"#utility.yul\":14671:14726   */\n      swap1\n      swap3\n      and\n        /* \"NoBOverround.sol\":17159:17247  CT.getPositionId(IERC20(token), CT.getCollectionId(bytes32(0), condition, partition[i])) */\n      0x04\n      dup4\n      add\n        /* \"#utility.yul\":14653:14727   */\n      mstore\n        /* \"#utility.yul\":14743:14761   */\n      0x24\n      dup3\n      add\n        /* \"#utility.yul\":14736:14770   */\n      mstore\n        /* \"#utility.yul\":14626:14644   */\n      0x44\n      add\n        /* \"NoBOverround.sol\":17159:17247  CT.getPositionId(IERC20(token), CT.getCollectionId(bytes32(0), condition, partition[i])) */\n      0x20\n      mload(0x40)\n      dup1\n      dup4\n      sub\n      dup2\n      dup7\n      gas\n      staticcall\n      iszero\n      dup1\n      iszero\n      tag_625\n      jumpi\n      returndatasize\n      0x00\n      dup1\n      returndatacopy\n      revert(0x00, returndatasize)\n    tag_625:\n      pop\n      pop\n      pop\n      pop\n      mload(0x40)\n      returndatasize\n      not(0x1f)\n      0x1f\n      dup3\n      add\n      and\n      dup3\n      add\n      dup1\n      0x40\n      mstore\n      pop\n      dup2\n      add\n      swap1\n      tag_626\n      swap2\n      swap1\n      tag_292\n      jump\t// in\n    tag_626:\n        /* \"NoBOverround.sol\":17272:17274  CT */\n      sload(0x07)\n        /* \"NoBOverround.sol\":17272:17306  CT.balanceOf(address(this), posId) */\n      mload(0x40)\n      shl(0xe1, 0x7eeac7)\n      dup2\n      mstore\n        /* \"NoBOverround.sol\":17293:17297  this */\n      address\n        /* \"NoBOverround.sol\":17272:17306  CT.balanceOf(address(this), posId) */\n      0x04\n      dup3\n      add\n        /* \"#utility.yul\":14653:14727   */\n      mstore\n        /* \"#utility.yul\":14743:14761   */\n      0x24\n      dup2\n      add\n        /* \"#utility.yul\":14736:14770   */\n      dup4\n      swap1\n      mstore\n        /* \"NoBOverround.sol\":17146:17247  uint posId = CT.getPositionId(IERC20(token), CT.getCollectionId(bytes32(0), condition, partition[i])) */\n      swap2\n      swap3\n      pop\n        /* \"NoBOverround.sol\":17257:17269  uint balance */\n      0x00\n      swap2\n      sub(shl(0xa0, 0x01), 0x01)\n        /* \"NoBOverround.sol\":17272:17274  CT */\n      swap1\n      swap2\n      and\n      swap1\n        /* \"NoBOverround.sol\":17272:17284  CT.balanceOf */\n      0xfdd58e\n      swap1\n        /* \"#utility.yul\":14626:14644   */\n      0x44\n      add\n        /* \"NoBOverround.sol\":17272:17306  CT.balanceOf(address(this), posId) */\n      0x20\n      mload(0x40)\n      dup1\n      dup4\n      sub\n      dup2\n      dup7\n      gas\n      staticcall\n      iszero\n      dup1\n      iszero\n      tag_629\n      jumpi\n      returndatasize\n      0x00\n      dup1\n      returndatacopy\n      revert(0x00, returndatasize)\n    tag_629:\n      pop\n      pop\n      pop\n      pop\n      mload(0x40)\n      returndatasize\n      not(0x1f)\n      0x1f\n      dup3\n      add\n      and\n      dup3\n      add\n      dup1\n      0x40\n      mstore\n      pop\n      dup2\n      add\n      swap1\n      tag_630\n      swap2\n      swap1\n      tag_292\n      jump\t// in\n    tag_630:\n        /* \"NoBOverround.sol\":17257:17306  uint balance = CT.balanceOf(address(this), posId) */\n      swap1\n      pop\n        /* \"NoBOverround.sol\":17330:17344  burnableAmount */\n      dup4\n        /* \"NoBOverround.sol\":17320:17327  balance */\n      dup2\n        /* \"NoBOverround.sol\":17320:17344  balance < burnableAmount */\n      lt\n        /* \"NoBOverround.sol\":17316:17433  if (balance < burnableAmount) {... */\n      iszero\n      tag_631\n      jumpi\n        /* \"NoBOverround.sol\":17377:17384  balance */\n      dup1\n        /* \"NoBOverround.sol\":17360:17384  burnableAmount = balance */\n      swap4\n      pop\n        /* \"NoBOverround.sol\":17316:17433  if (balance < burnableAmount) {... */\n    tag_631:\n      pop\n      pop\n        /* \"NoBOverround.sol\":17131:17134  i++ */\n      0x01\n      add\n        /* \"NoBOverround.sol\":17092:17439  for (uint i = 0; i < partition.length; i++) {... */\n      jump(tag_614)\n    tag_615:\n      pop\n        /* \"NoBOverround.sol\":17509:17527  burnableAmount > 0 */\n      dup1\n      iszero\n        /* \"NoBOverround.sol\":17505:17628  if (burnableAmount > 0) {... */\n      tag_632\n      jumpi\n        /* \"NoBOverround.sol\":17539:17541  CT */\n      sload(0x07)\n        /* \"NoBOverround.sol\":17564:17569  token */\n      sload(0x08)\n        /* \"NoBOverround.sol\":17584:17593  condition */\n      sload(0x06)\n        /* \"NoBOverround.sol\":17539:17621  CT.mergePositions(IERC20(token), bytes32(0), condition, partition, burnableAmount) */\n      mload(0x40)\n      shl(0xe0, 0x9e7212ad)\n      dup2\n      mstore\n      sub(shl(0xa0, 0x01), 0x01)\n        /* \"NoBOverround.sol\":17539:17541  CT */\n      swap4\n      dup5\n      and\n      swap4\n        /* \"NoBOverround.sol\":17539:17556  CT.mergePositions */\n      0x9e7212ad\n      swap4\n        /* \"NoBOverround.sol\":17539:17621  CT.mergePositions(IERC20(token), bytes32(0), condition, partition, burnableAmount) */\n      tag_633\n      swap4\n        /* \"NoBOverround.sol\":17564:17569  token */\n      swap2\n      and\n      swap2\n        /* \"NoBOverround.sol\":17539:17541  CT */\n      0x00\n      swap2\n        /* \"NoBOverround.sol\":17584:17593  condition */\n      swap1\n        /* \"NoBOverround.sol\":17595:17604  partition */\n      dup9\n      swap1\n        /* \"NoBOverround.sol\":17606:17620  burnableAmount */\n      dup9\n      swap1\n        /* \"NoBOverround.sol\":17539:17621  CT.mergePositions(IERC20(token), bytes32(0), condition, partition, burnableAmount) */\n      0x04\n      add\n      tag_634\n      jump\t// in\n    tag_633:\n      0x00\n      mload(0x40)\n      dup1\n      dup4\n      sub\n      dup2\n      0x00\n      dup8\n      dup1\n      extcodesize\n      iszero\n      dup1\n      iszero\n      tag_635\n      jumpi\n      0x00\n      dup1\n      revert\n    tag_635:\n      pop\n      gas\n      call\n      iszero\n      dup1\n      iszero\n      tag_637\n      jumpi\n      returndatasize\n      0x00\n      dup1\n      returndatacopy\n      revert(0x00, returndatasize)\n    tag_637:\n      pop\n      pop\n      pop\n      pop\n        /* \"NoBOverround.sol\":17505:17628  if (burnableAmount > 0) {... */\n    tag_632:\n        /* \"NoBOverround.sol\":17689:17723  ABDKMath.sub(q[_outcome], _amount) */\n      tag_638\n        /* \"NoBOverround.sol\":17702:17703  q */\n      0x02\n        /* \"NoBOverround.sol\":17704:17712  _outcome */\n      dup12\n        /* \"NoBOverround.sol\":17702:17713  q[_outcome] */\n      dup2\n      sload\n      dup2\n      lt\n      tag_640\n      jumpi\n      tag_640\n      tag_243\n      jump\t// in\n    tag_640:\n      swap1\n      0x00\n      mstore\n      keccak256(0x00, 0x20)\n      swap1\n      0x02\n      swap2\n      dup3\n      dup3\n      div\n      add\n      swap2\n      swap1\n      mod\n      0x10\n      mul\n      swap1\n      sload\n      swap1\n      0x0100\n      exp\n      swap1\n      div\n      0x0f\n      signextend\n        /* \"NoBOverround.sol\":17715:17722  _amount */\n      dup11\n        /* \"NoBOverround.sol\":17689:17701  ABDKMath.sub */\n      tag_246\n        /* \"NoBOverround.sol\":17689:17723  ABDKMath.sub(q[_outcome], _amount) */\n      jump\t// in\n    tag_638:\n        /* \"NoBOverround.sol\":17675:17676  q */\n      0x02\n        /* \"NoBOverround.sol\":17677:17685  _outcome */\n      dup12\n        /* \"NoBOverround.sol\":17675:17686  q[_outcome] */\n      dup2\n      sload\n      dup2\n      lt\n      tag_643\n      jumpi\n      tag_643\n      tag_243\n      jump\t// in\n    tag_643:\n      0x00\n      swap2\n      dup3\n      mstore\n      0x20\n      dup3\n      keccak256\n      0x02\n      dup3\n      div\n      add\n        /* \"NoBOverround.sol\":17675:17723  q[_outcome] = ABDKMath.sub(q[_outcome], _amount) */\n      dup1\n      sload\n        /* \"NoBOverround.sol\":17675:17686  q[_outcome] */\n      0x01\n      swap1\n      swap3\n      and\n      0x10\n      mul\n        /* \"NoBOverround.sol\":17675:17723  q[_outcome] = ABDKMath.sub(q[_outcome], _amount) */\n      0x0100\n      exp\n      sub(shl(0x80, 0x01), 0x01)\n      dup2\n      dup2\n      mul\n      not\n      swap1\n      swap4\n      and\n      swap5\n      dup4\n      and\n      mul\n      swap4\n      swap1\n      swap4\n      or\n      swap1\n      swap3\n      sstore\n        /* \"NoBOverround.sol\":17729:17741  total_shares */\n      0x04\n        /* \"NoBOverround.sol\":17729:17760  total_shares = new_total_shares */\n      dup1\n      sload\n      not(sub(shl(0x80, 0x01), 0x01))\n      and\n      dup9\n      dup5\n      and\n      or\n      swap1\n      sstore\n        /* \"NoBOverround.sol\":17766:17778  current_cost */\n      0x03\n        /* \"NoBOverround.sol\":17766:17789  current_cost = new_cost */\n      dup1\n      sload\n      dup4\n      and\n      shl(0x80, 0x01)\n      swap4\n      dup12\n      and\n      swap4\n      swap1\n      swap4\n      mul\n      swap3\n      swap1\n      swap3\n      or\n      swap1\n      swap2\n      sstore\n        /* \"NoBOverround.sol\":17904:17909  token */\n      sload(0x08)\n        /* \"NoBOverround.sol\":17888:17919  getTokenWeiDown(token, refund_) */\n      tag_645\n      swap1\n      sub(shl(0xa0, 0x01), 0x01)\n        /* \"NoBOverround.sol\":17904:17909  token */\n      and\n        /* \"NoBOverround.sol\":17911:17918  refund_ */\n      dup9\n        /* \"NoBOverround.sol\":17888:17903  getTokenWeiDown */\n      tag_146\n        /* \"NoBOverround.sol\":17888:17919  getTokenWeiDown(token, refund_) */\n      jump\t// in\n    tag_645:\n        /* \"NoBOverround.sol\":17932:17937  token */\n      sload(0x08)\n        /* \"NoBOverround.sol\":17868:17919  uint token_refund = getTokenWeiDown(token, refund_) */\n      swap1\n      swap2\n      pop\n        /* \"NoBOverround.sol\":17925:17977  IERC20(token).safeTransfer(msg.sender, token_refund) */\n      tag_646\n      swap1\n      sub(shl(0xa0, 0x01), 0x01)\n        /* \"NoBOverround.sol\":17932:17937  token */\n      and\n        /* \"NoBOverround.sol\":17952:17962  msg.sender */\n      caller\n        /* \"NoBOverround.sol\":17868:17919  uint token_refund = getTokenWeiDown(token, refund_) */\n      dup4\n        /* \"NoBOverround.sol\":17925:17951  IERC20(token).safeTransfer */\n      tag_369\n        /* \"NoBOverround.sol\":17925:17977  IERC20(token).safeTransfer(msg.sender, token_refund) */\n      jump\t// in\n    tag_646:\n      pop\n        /* \"NoBOverround.sol\":17991:17998  refund_ */\n      swap5\n      swap10\n        /* \"NoBOverround.sol\":15785:18003  function sell(uint256 _outcome, int128 _amount) public onlyAfterInit returns (int128 refund) {... */\n      swap9\n      pop\n      pop\n      pop\n      pop\n      pop\n      pop\n      pop\n      pop\n      pop\n      jump\t// out\n        /* \"NoBOverround.sol\":18092:18294  function getOutcomeSharesPurchased(uint256 _outcome) public view returns (int128) {... */\n    tag_158:\n        /* \"NoBOverround.sol\":18166:18172  int128 */\n      0x00\n        /* \"NoBOverround.sol\":18199:18210  numOutcomes */\n      sload(0x01)\n        /* \"NoBOverround.sol\":18188:18196  _outcome */\n      dup3\n        /* \"NoBOverround.sol\":18188:18210  _outcome < numOutcomes */\n      lt\n        /* \"NoBOverround.sol\":18180:18236  require(_outcome < numOutcomes, \"Invalid outcome index\") */\n      tag_648\n      jumpi\n      mload(0x40)\n      shl(0xe5, 0x461bcd)\n      dup2\n      mstore\n        /* \"#utility.yul\":11248:11250   */\n      0x20\n        /* \"NoBOverround.sol\":18180:18236  require(_outcome < numOutcomes, \"Invalid outcome index\") */\n      0x04\n      dup3\n      add\n        /* \"#utility.yul\":11230:11251   */\n      mstore\n        /* \"#utility.yul\":11287:11289   */\n      0x15\n        /* \"#utility.yul\":11267:11285   */\n      0x24\n      dup3\n      add\n        /* \"#utility.yul\":11260:11290   */\n      mstore\n      shl(0x5b, 0x092dcecc2d8d2c840deeae8c6dedaca40d2dcc8caf)\n        /* \"#utility.yul\":11306:11324   */\n      0x44\n      dup3\n      add\n        /* \"#utility.yul\":11299:11350   */\n      mstore\n        /* \"#utility.yul\":11367:11385   */\n      0x64\n      add\n        /* \"NoBOverround.sol\":18180:18236  require(_outcome < numOutcomes, \"Invalid outcome index\") */\n      tag_207\n        /* \"#utility.yul\":11046:11391   */\n      jump\n        /* \"NoBOverround.sol\":18180:18236  require(_outcome < numOutcomes, \"Invalid outcome index\") */\n    tag_648:\n        /* \"NoBOverround.sol\":18249:18291  ABDKMath.sub(q[_outcome], initial_subsidy) */\n      tag_199\n        /* \"NoBOverround.sol\":18262:18263  q */\n      0x02\n        /* \"NoBOverround.sol\":18264:18272  _outcome */\n      dup4\n        /* \"NoBOverround.sol\":18262:18273  q[_outcome] */\n      dup2\n      sload\n      dup2\n      lt\n      tag_652\n      jumpi\n      tag_652\n      tag_243\n      jump\t// in\n    tag_652:\n      swap1\n      0x00\n      mstore\n      keccak256(0x00, 0x20)\n      swap1\n      0x02\n      swap2\n      dup3\n      dup3\n      div\n      add\n      swap2\n      swap1\n      mod\n      0x10\n      mul\n      swap1\n      sload\n      swap1\n      0x0100\n      exp\n      swap1\n      div\n      0x0f\n      signextend\n        /* \"NoBOverround.sol\":18275:18290  initial_subsidy */\n      0x04\n      0x10\n      swap1\n      sload\n      swap1\n      0x0100\n      exp\n      swap1\n      div\n      0x0f\n      signextend\n        /* \"NoBOverround.sol\":18249:18261  ABDKMath.sub */\n      tag_246\n        /* \"NoBOverround.sol\":18249:18291  ABDKMath.sub(q[_outcome], initial_subsidy) */\n      jump\t// in\n        /* \"NoBOverround.sol\":12159:12315  function price(... */\n    tag_177:\n        /* \"NoBOverround.sol\":12298:12310  current_cost */\n      sload(0x03)\n        /* \"NoBOverround.sol\":12241:12247  int128 */\n      0x00\n      swap1\n      shl(0x80, 0x01)\n        /* \"NoBOverround.sol\":12298:12310  current_cost */\n      swap1\n      div\n      0x0f\n      signextend\n        /* \"NoBOverround.sol\":12262:12295  cost_after_buy(_outcome, _amount) */\n      tag_656\n        /* \"NoBOverround.sol\":12277:12285  _outcome */\n      dup5\n        /* \"NoBOverround.sol\":12287:12294  _amount */\n      dup5\n        /* \"NoBOverround.sol\":12262:12276  cost_after_buy */\n      tag_128\n        /* \"NoBOverround.sol\":12262:12295  cost_after_buy(_outcome, _amount) */\n      jump\t// in\n    tag_656:\n        /* \"NoBOverround.sol\":12262:12310  cost_after_buy(_outcome, _amount) - current_cost */\n      tag_486\n      swap2\n      swap1\n      tag_487\n      jump\t// in\n        /* \"NoBOverround.sol\":19882:20089  function debugFees() public view returns (uint contractBalance, uint theoreticalCost) {... */\n    tag_180:\n        /* \"NoBOverround.sol\":19999:20004  token */\n      sload(0x08)\n        /* \"NoBOverround.sol\":19992:20030  IERC20(token).balanceOf(address(this)) */\n      mload(0x40)\n      shl(0xe0, 0x70a08231)\n      dup2\n      mstore\n        /* \"NoBOverround.sol\":20024:20028  this */\n      address\n        /* \"NoBOverround.sol\":19992:20030  IERC20(token).balanceOf(address(this)) */\n      0x04\n      dup3\n      add\n        /* \"#utility.yul\":5660:5734   */\n      mstore\n        /* \"NoBOverround.sol\":19924:19944  uint contractBalance */\n      0x00\n      swap2\n      dup3\n      swap2\n      sub(shl(0xa0, 0x01), 0x01)\n        /* \"NoBOverround.sol\":19999:20004  token */\n      swap1\n      swap2\n      and\n      swap1\n        /* \"NoBOverround.sol\":19992:20015  IERC20(token).balanceOf */\n      0x70a08231\n      swap1\n        /* \"#utility.yul\":5633:5651   */\n      0x24\n      add\n        /* \"NoBOverround.sol\":19992:20030  IERC20(token).balanceOf(address(this)) */\n      0x20\n      mload(0x40)\n      dup1\n      dup4\n      sub\n      dup2\n      dup7\n      gas\n      staticcall\n      iszero\n      dup1\n      iszero\n      tag_661\n      jumpi\n      returndatasize\n      0x00\n      dup1\n      returndatacopy\n      revert(0x00, returndatasize)\n    tag_661:\n      pop\n      pop\n      pop\n      pop\n      mload(0x40)\n      returndatasize\n      not(0x1f)\n      0x1f\n      dup3\n      add\n      and\n      dup3\n      add\n      dup1\n      0x40\n      mstore\n      pop\n      dup2\n      add\n      swap1\n      tag_662\n      swap2\n      swap1\n      tag_292\n      jump\t// in\n    tag_662:\n        /* \"NoBOverround.sol\":20066:20071  token */\n      sload(0x08)\n        /* \"NoBOverround.sol\":20073:20085  current_cost */\n      sload(0x03)\n        /* \"NoBOverround.sol\":19974:20030  contractBalance = IERC20(token).balanceOf(address(this)) */\n      swap2\n      swap4\n      pop\n        /* \"NoBOverround.sol\":20054:20086  getTokenWei(token, current_cost) */\n      tag_663\n      swap2\n      sub(shl(0xa0, 0x01), 0x01)\n        /* \"NoBOverround.sol\":20066:20071  token */\n      swap1\n      swap2\n      and\n      swap1\n      shl(0x80, 0x01)\n        /* \"NoBOverround.sol\":20073:20085  current_cost */\n      swap1\n      div\n      0x0f\n      signextend\n        /* \"NoBOverround.sol\":20054:20065  getTokenWei */\n      tag_90\n        /* \"NoBOverround.sol\":20054:20086  getTokenWei(token, current_cost) */\n      jump\t// in\n    tag_663:\n        /* \"NoBOverround.sol\":20036:20086  theoreticalCost = getTokenWei(token, current_cost) */\n      swap1\n      pop\n        /* \"NoBOverround.sol\":19882:20089  function debugFees() public view returns (uint contractBalance, uint theoreticalCost) {... */\n      swap1\n      swap2\n      jump\t// out\n        /* \"@openzeppelin/contracts/access/Ownable.sol\":2543:2758   */\n    tag_190:\n        /* \"@openzeppelin/contracts/access/Ownable.sol\":1531:1544   */\n      tag_666\n        /* \"@openzeppelin/contracts/access/Ownable.sol\":1531:1542   */\n      tag_286\n        /* \"@openzeppelin/contracts/access/Ownable.sol\":1531:1544   */\n      jump\t// in\n    tag_666:\n      sub(shl(0xa0, 0x01), 0x01)\n        /* \"@openzeppelin/contracts/access/Ownable.sol\":2627:2649   */\n      dup2\n      and\n        /* \"@openzeppelin/contracts/access/Ownable.sol\":2623:2714   */\n      tag_668\n      jumpi\n        /* \"@openzeppelin/contracts/access/Ownable.sol\":2672:2703   */\n      mload(0x40)\n      shl(0xe0, 0x1e4fbdf7)\n      dup2\n      mstore\n        /* \"@openzeppelin/contracts/access/Ownable.sol\":2700:2701   */\n      0x00\n        /* \"@openzeppelin/contracts/access/Ownable.sol\":2672:2703   */\n      0x04\n      dup3\n      add\n        /* \"#utility.yul\":5660:5734   */\n      mstore\n        /* \"#utility.yul\":5633:5651   */\n      0x24\n      add\n        /* \"@openzeppelin/contracts/access/Ownable.sol\":2672:2703   */\n      tag_207\n        /* \"#utility.yul\":5514:5740   */\n      jump\n        /* \"@openzeppelin/contracts/access/Ownable.sol\":2623:2714   */\n    tag_668:\n        /* \"@openzeppelin/contracts/access/Ownable.sol\":2723:2751   */\n      tag_364\n        /* \"@openzeppelin/contracts/access/Ownable.sol\":2742:2750   */\n      dup2\n        /* \"@openzeppelin/contracts/access/Ownable.sol\":2723:2741   */\n      tag_501\n        /* \"@openzeppelin/contracts/access/Ownable.sol\":2723:2751   */\n      jump\t// in\n        /* \"NoBOverround.sol\":5836:6740  function buy(... */\n    tag_193:\n        /* \"NoBOverround.sol\":14654:14658  init */\n      sload(0x08)\n        /* \"NoBOverround.sol\":5925:5938  int128 _price */\n      0x00\n      swap1\n      shl(0xa0, 0x01)\n        /* \"NoBOverround.sol\":14654:14658  init */\n      swap1\n      div\n      0xff\n      and\n        /* \"NoBOverround.sol\":14654:14666  init == true */\n      iszero\n      iszero\n        /* \"NoBOverround.sol\":14662:14666  true */\n      0x01\n        /* \"NoBOverround.sol\":14654:14666  init == true */\n      eq\n        /* \"NoBOverround.sol\":14646:14667  require(init == true) */\n      tag_672\n      jumpi\n      0x00\n      dup1\n      revert\n    tag_672:\n        /* \"NoBOverround.sol\":5965:5976  numOutcomes */\n      sload(0x01)\n        /* \"NoBOverround.sol\":5954:5962  _outcome */\n      dup4\n        /* \"NoBOverround.sol\":5954:5976  _outcome < numOutcomes */\n      lt\n        /* \"NoBOverround.sol\":5946:6002  require(_outcome < numOutcomes, \"Invalid outcome index\") */\n      tag_674\n      jumpi\n      mload(0x40)\n      shl(0xe5, 0x461bcd)\n      dup2\n      mstore\n        /* \"#utility.yul\":11248:11250   */\n      0x20\n        /* \"NoBOverround.sol\":5946:6002  require(_outcome < numOutcomes, \"Invalid outcome index\") */\n      0x04\n      dup3\n      add\n        /* \"#utility.yul\":11230:11251   */\n      mstore\n        /* \"#utility.yul\":11287:11289   */\n      0x15\n        /* \"#utility.yul\":11267:11285   */\n      0x24\n      dup3\n      add\n        /* \"#utility.yul\":11260:11290   */\n      mstore\n      shl(0x5b, 0x092dcecc2d8d2c840deeae8c6dedaca40d2dcc8caf)\n        /* \"#utility.yul\":11306:11324   */\n      0x44\n      dup3\n      add\n        /* \"#utility.yul\":11299:11350   */\n      mstore\n        /* \"#utility.yul\":11367:11385   */\n      0x64\n      add\n        /* \"NoBOverround.sol\":5946:6002  require(_outcome < numOutcomes, \"Invalid outcome index\") */\n      tag_207\n        /* \"#utility.yul\":11046:11391   */\n      jump\n        /* \"NoBOverround.sol\":5946:6002  require(_outcome < numOutcomes, \"Invalid outcome index\") */\n    tag_674:\n        /* \"NoBOverround.sol\":6026:6027  0 */\n      0x00\n        /* \"NoBOverround.sol\":6016:6023  _amount */\n      dup3\n        /* \"NoBOverround.sol\":6016:6027  _amount > 0 */\n      0x0f\n      signextend\n      sgt\n        /* \"NoBOverround.sol\":6008:6055  require(_amount > 0, \"Amount must be positive\") */\n      tag_676\n      jumpi\n      mload(0x40)\n      shl(0xe5, 0x461bcd)\n      dup2\n      mstore\n        /* \"#utility.yul\":19416:19418   */\n      0x20\n        /* \"NoBOverround.sol\":6008:6055  require(_amount > 0, \"Amount must be positive\") */\n      0x04\n      dup3\n      add\n        /* \"#utility.yul\":19398:19419   */\n      mstore\n        /* \"#utility.yul\":19455:19457   */\n      0x17\n        /* \"#utility.yul\":19435:19453   */\n      0x24\n      dup3\n      add\n        /* \"#utility.yul\":19428:19458   */\n      mstore\n        /* \"#utility.yul\":19494:19519   */\n      0x416d6f756e74206d75737420626520706f736974697665000000000000000000\n        /* \"#utility.yul\":19474:19492   */\n      0x44\n      dup3\n      add\n        /* \"#utility.yul\":19467:19520   */\n      mstore\n        /* \"#utility.yul\":19537:19555   */\n      0x64\n      add\n        /* \"NoBOverround.sol\":6008:6055  require(_amount > 0, \"Amount must be positive\") */\n      tag_207\n        /* \"#utility.yul\":19214:19561   */\n      jump\n        /* \"NoBOverround.sol\":6008:6055  require(_amount > 0, \"Amount must be positive\") */\n    tag_676:\n        /* \"NoBOverround.sol\":6069:6071  CT */\n      sload(0x07)\n        /* \"NoBOverround.sol\":6090:6099  condition */\n      sload(0x06)\n        /* \"NoBOverround.sol\":6069:6100  CT.payoutDenominator(condition) */\n      mload(0x40)\n      shl(0xe0, 0xdd34de67)\n      dup2\n      mstore\n      sub(shl(0xa0, 0x01), 0x01)\n        /* \"NoBOverround.sol\":6069:6071  CT */\n      swap1\n      swap3\n      and\n      swap2\n        /* \"NoBOverround.sol\":6069:6089  CT.payoutDenominator */\n      0xdd34de67\n      swap2\n        /* \"NoBOverround.sol\":6069:6100  CT.payoutDenominator(condition) */\n      tag_678\n      swap2\n      0x04\n      add\n        /* \"#utility.yul\":1274:1299   */\n      swap1\n      dup2\n      mstore\n        /* \"#utility.yul\":1262:1264   */\n      0x20\n        /* \"#utility.yul\":1247:1265   */\n      add\n      swap1\n        /* \"#utility.yul\":1128:1305   */\n      jump\n        /* \"NoBOverround.sol\":6069:6100  CT.payoutDenominator(condition) */\n    tag_678:\n      0x20\n      mload(0x40)\n      dup1\n      dup4\n      sub\n      dup2\n      dup7\n      gas\n      staticcall\n      iszero\n      dup1\n      iszero\n      tag_680\n      jumpi\n      returndatasize\n      0x00\n      dup1\n      returndatacopy\n      revert(0x00, returndatasize)\n    tag_680:\n      pop\n      pop\n      pop\n      pop\n      mload(0x40)\n      returndatasize\n      not(0x1f)\n      0x1f\n      dup3\n      add\n      and\n      dup3\n      add\n      dup1\n      0x40\n      mstore\n      pop\n      dup2\n      add\n      swap1\n      tag_681\n      swap2\n      swap1\n      tag_292\n      jump\t// in\n    tag_681:\n        /* \"NoBOverround.sol\":6069:6105  CT.payoutDenominator(condition) == 0 */\n      iszero\n        /* \"NoBOverround.sol\":6061:6133  require(CT.payoutDenominator(condition) == 0, 'Market already resolved') */\n      tag_682\n      jumpi\n      mload(0x40)\n      shl(0xe5, 0x461bcd)\n      dup2\n      mstore\n        /* \"#utility.yul\":13043:13045   */\n      0x20\n        /* \"NoBOverround.sol\":6061:6133  require(CT.payoutDenominator(condition) == 0, 'Market already resolved') */\n      0x04\n      dup3\n      add\n        /* \"#utility.yul\":13025:13046   */\n      mstore\n        /* \"#utility.yul\":13082:13084   */\n      0x17\n        /* \"#utility.yul\":13062:13080   */\n      0x24\n      dup3\n      add\n        /* \"#utility.yul\":13055:13085   */\n      mstore\n        /* \"#utility.yul\":13121:13146   */\n      0x4d61726b657420616c7265616479207265736f6c766564000000000000000000\n        /* \"#utility.yul\":13101:13119   */\n      0x44\n      dup3\n      add\n        /* \"#utility.yul\":13094:13147   */\n      mstore\n        /* \"#utility.yul\":13164:13182   */\n      0x64\n      add\n        /* \"NoBOverround.sol\":6061:6133  require(CT.payoutDenominator(condition) == 0, 'Market already resolved') */\n      tag_207\n        /* \"#utility.yul\":12841:13188   */\n      jump\n        /* \"NoBOverround.sol\":6061:6133  require(CT.payoutDenominator(condition) == 0, 'Market already resolved') */\n    tag_682:\n        /* \"NoBOverround.sol\":6141:6156  int128 new_cost */\n      0x00\n        /* \"NoBOverround.sol\":6158:6171  int128 price_ */\n      dup1\n        /* \"NoBOverround.sol\":6173:6196  int128 new_total_shares */\n      0x00\n        /* \"NoBOverround.sol\":6200:6281  _calculateBuyPrice(q, _outcome, _amount, total_shares, current_cost, numOutcomes) */\n      tag_684\n        /* \"NoBOverround.sol\":6219:6220  q */\n      0x02\n        /* \"NoBOverround.sol\":6200:6281  _calculateBuyPrice(q, _outcome, _amount, total_shares, current_cost, numOutcomes) */\n      dup1\n      sload\n      dup1\n      0x20\n      mul\n      0x20\n      add\n      mload(0x40)\n      swap1\n      dup2\n      add\n      0x40\n      mstore\n      dup1\n      swap3\n      swap2\n      swap1\n      dup2\n      dup2\n      mstore\n      0x20\n      add\n      dup3\n      dup1\n      sload\n      dup1\n      iszero\n      tag_685\n      jumpi\n      0x20\n      mul\n      dup3\n      add\n      swap2\n      swap1\n      0x00\n      mstore\n      keccak256(0x00, 0x20)\n      swap1\n      0x00\n      swap1\n    tag_686:\n      dup3\n      sload\n      0x0100\n      dup4\n      swap1\n      exp\n      swap1\n      div\n      0x0f\n      signextend\n      dup2\n      mstore\n      0x20\n      0x1f\n      dup4\n      add\n      dup2\n      swap1\n      div\n      swap4\n      dup5\n      add\n      swap4\n      0x01\n      sub\n      0x10\n      swap1\n      swap4\n      add\n      swap3\n      swap1\n      swap3\n      mul\n      swap2\n      add\n      dup1\n      dup5\n      gt\n      tag_686\n      jumpi\n      swap1\n      pop\n    tag_685:\n      pop\n      pop\n        /* \"NoBOverround.sol\":6241:6253  total_shares */\n      sload(0x04)\n        /* \"NoBOverround.sol\":6255:6267  current_cost */\n      sload(0x03)\n        /* \"NoBOverround.sol\":6241:6253  total_shares */\n      0x01\n        /* \"NoBOverround.sol\":6269:6280  numOutcomes */\n      sload\n        /* \"NoBOverround.sol\":6222:6230  _outcome */\n      dup14\n      swap6\n      pop\n        /* \"NoBOverround.sol\":6232:6239  _amount */\n      dup13\n      swap5\n      pop\n        /* \"NoBOverround.sol\":6241:6253  total_shares */\n      0x0f\n      swap3\n      dup4\n      signextend\n      swap4\n      pop\n      shl(0x80, 0x01)\n        /* \"NoBOverround.sol\":6255:6267  current_cost */\n      swap1\n      swap2\n      div\n      swap1\n      swap2\n      signextend\n      swap1\n        /* \"NoBOverround.sol\":6200:6218  _calculateBuyPrice */\n      tag_687\n        /* \"NoBOverround.sol\":6200:6281  _calculateBuyPrice(q, _outcome, _amount, total_shares, current_cost, numOutcomes) */\n      jump\t// in\n    tag_684:\n        /* \"NoBOverround.sol\":6320:6325  token */\n      sload(0x08)\n        /* \"NoBOverround.sol\":6140:6281  (int128 new_cost, int128 price_, int128 new_total_shares) = _calculateBuyPrice(q, _outcome, _amount, total_shares, current_cost, numOutcomes) */\n      swap3\n      swap6\n      pop\n      swap1\n      swap4\n      pop\n      swap2\n      pop\n        /* \"NoBOverround.sol\":6288:6303  uint token_cost */\n      0x00\n      swap1\n        /* \"NoBOverround.sol\":6306:6334  getTokenWeiUp(token, price_) */\n      tag_688\n      swap1\n      sub(shl(0xa0, 0x01), 0x01)\n        /* \"NoBOverround.sol\":6320:6325  token */\n      and\n        /* \"NoBOverround.sol\":6140:6281  (int128 new_cost, int128 price_, int128 new_total_shares) = _calculateBuyPrice(q, _outcome, _amount, total_shares, current_cost, numOutcomes) */\n      dup5\n        /* \"NoBOverround.sol\":6306:6319  getTokenWeiUp */\n      tag_61\n        /* \"NoBOverround.sol\":6306:6334  getTokenWeiUp(token, price_) */\n      jump\t// in\n    tag_688:\n        /* \"NoBOverround.sol\":6345:6377  BuyTokenCost(token_cost, price_) */\n      0x40\n      dup1\n      mload\n        /* \"#utility.yul\":23603:23628   */\n      dup3\n      dup2\n      mstore\n        /* \"#utility.yul\":23675:23677   */\n      0x0f\n        /* \"#utility.yul\":23664:23686   */\n      dup7\n      swap1\n      signextend\n        /* \"#utility.yul\":23659:23661   */\n      0x20\n        /* \"#utility.yul\":23644:23662   */\n      dup3\n      add\n        /* \"#utility.yul\":23637:23687   */\n      mstore\n        /* \"NoBOverround.sol\":6288:6334  uint token_cost = getTokenWeiUp(token, price_) */\n      swap2\n      swap3\n      pop\n        /* \"NoBOverround.sol\":6345:6377  BuyTokenCost(token_cost, price_) */\n      0xbd58a27f98d614697f8a2d66c4c15779b5c06324bdc1f23994d9e5f93a537a4d\n      swap2\n        /* \"#utility.yul\":23576:23594   */\n      add\n        /* \"NoBOverround.sol\":6345:6377  BuyTokenCost(token_cost, price_) */\n      mload(0x40)\n      dup1\n      swap2\n      sub\n      swap1\n      log1\n        /* \"NoBOverround.sol\":6398:6403  token */\n      sload(0x08)\n        /* \"NoBOverround.sol\":6391:6456  IERC20(token).transferFrom(msg.sender, address(this), token_cost) */\n      mload(0x40)\n      shl(0xe0, 0x23b872dd)\n      dup2\n      mstore\n        /* \"NoBOverround.sol\":6418:6428  msg.sender */\n      caller\n        /* \"NoBOverround.sol\":6391:6456  IERC20(token).transferFrom(msg.sender, address(this), token_cost) */\n      0x04\n      dup3\n      add\n        /* \"#utility.yul\":23961:23995   */\n      mstore\n        /* \"NoBOverround.sol\":6438:6442  this */\n      address\n        /* \"#utility.yul\":24011:24029   */\n      0x24\n      dup3\n      add\n        /* \"#utility.yul\":24004:24047   */\n      mstore\n        /* \"#utility.yul\":24063:24081   */\n      0x44\n      dup2\n      add\n        /* \"#utility.yul\":24056:24090   */\n      dup4\n      swap1\n      mstore\n      sub(shl(0xa0, 0x01), 0x01)\n        /* \"NoBOverround.sol\":6398:6403  token */\n      swap1\n      swap2\n      and\n      swap1\n        /* \"NoBOverround.sol\":6391:6417  IERC20(token).transferFrom */\n      0x23b872dd\n      swap1\n        /* \"#utility.yul\":23873:23891   */\n      0x64\n      add\n        /* \"NoBOverround.sol\":6391:6456  IERC20(token).transferFrom(msg.sender, address(this), token_cost) */\n      0x20\n      mload(0x40)\n      dup1\n      dup4\n      sub\n      dup2\n      0x00\n      dup8\n      gas\n      call\n      iszero\n      dup1\n      iszero\n      tag_694\n      jumpi\n      returndatasize\n      0x00\n      dup1\n      returndatacopy\n      revert(0x00, returndatasize)\n    tag_694:\n      pop\n      pop\n      pop\n      pop\n      mload(0x40)\n      returndatasize\n      not(0x1f)\n      0x1f\n      dup3\n      add\n      and\n      dup3\n      add\n      dup1\n      0x40\n      mstore\n      pop\n      dup2\n      add\n      swap1\n      tag_695\n      swap2\n      swap1\n      tag_696\n      jump\t// in\n    tag_695:\n        /* \"NoBOverround.sol\":6383:6486  require(IERC20(token).transferFrom(msg.sender, address(this), token_cost), 'Error transferring tokens') */\n      tag_697\n      jumpi\n      mload(0x40)\n      shl(0xe5, 0x461bcd)\n      dup2\n      mstore\n        /* \"#utility.yul\":24585:24587   */\n      0x20\n        /* \"NoBOverround.sol\":6383:6486  require(IERC20(token).transferFrom(msg.sender, address(this), token_cost), 'Error transferring tokens') */\n      0x04\n      dup3\n      add\n        /* \"#utility.yul\":24567:24588   */\n      mstore\n        /* \"#utility.yul\":24624:24626   */\n      0x19\n        /* \"#utility.yul\":24604:24622   */\n      0x24\n      dup3\n      add\n        /* \"#utility.yul\":24597:24627   */\n      mstore\n        /* \"#utility.yul\":24663:24690   */\n      0x4572726f72207472616e7366657272696e6720746f6b656e7300000000000000\n        /* \"#utility.yul\":24643:24661   */\n      0x44\n      dup3\n      add\n        /* \"#utility.yul\":24636:24691   */\n      mstore\n        /* \"#utility.yul\":24708:24726   */\n      0x64\n      add\n        /* \"NoBOverround.sol\":6383:6486  require(IERC20(token).transferFrom(msg.sender, address(this), token_cost), 'Error transferring tokens') */\n      tag_207\n        /* \"#utility.yul\":24383:24732   */\n      jump\n        /* \"NoBOverround.sol\":6383:6486  require(IERC20(token).transferFrom(msg.sender, address(this), token_cost), 'Error transferring tokens') */\n    tag_697:\n        /* \"NoBOverround.sol\":6560:6594  ABDKMath.add(q[_outcome], _amount) */\n      tag_700\n        /* \"NoBOverround.sol\":6573:6574  q */\n      0x02\n        /* \"NoBOverround.sol\":6575:6583  _outcome */\n      dup9\n        /* \"NoBOverround.sol\":6573:6584  q[_outcome] */\n      dup2\n      sload\n      dup2\n      lt\n      tag_512\n      jumpi\n      tag_512\n      tag_243\n      jump\t// in\n        /* \"NoBOverround.sol\":6560:6594  ABDKMath.add(q[_outcome], _amount) */\n    tag_700:\n        /* \"NoBOverround.sol\":6546:6547  q */\n      0x02\n        /* \"NoBOverround.sol\":6548:6556  _outcome */\n      dup9\n        /* \"NoBOverround.sol\":6546:6557  q[_outcome] */\n      dup2\n      sload\n      dup2\n      lt\n      tag_705\n      jumpi\n      tag_705\n      tag_243\n      jump\t// in\n    tag_705:\n      0x00\n      swap2\n      dup3\n      mstore\n      0x20\n      swap1\n      swap2\n      keccak256\n      0x02\n      dup3\n      div\n      add\n        /* \"NoBOverround.sol\":6546:6594  q[_outcome] = ABDKMath.add(q[_outcome], _amount) */\n      dup1\n      sload\n        /* \"NoBOverround.sol\":6546:6557  q[_outcome] */\n      0x01\n      swap1\n      swap3\n      and\n      0x10\n      mul\n        /* \"NoBOverround.sol\":6546:6594  q[_outcome] = ABDKMath.add(q[_outcome], _amount) */\n      0x0100\n      exp\n      sub(shl(0x80, 0x01), 0x01)\n      dup2\n      dup2\n      mul\n      not\n      swap1\n      swap4\n      and\n      swap4\n      dup4\n      and\n      mul\n      swap3\n      swap1\n      swap3\n      or\n      swap1\n      swap2\n      sstore\n        /* \"NoBOverround.sol\":6600:6612  total_shares */\n      0x04\n        /* \"NoBOverround.sol\":6600:6631  total_shares = new_total_shares */\n      dup1\n      sload\n      not(sub(shl(0x80, 0x01), 0x01))\n      and\n      dup5\n      dup4\n      and\n      or\n      swap1\n      sstore\n        /* \"NoBOverround.sol\":6637:6649  current_cost */\n      0x03\n        /* \"NoBOverround.sol\":6637:6660  current_cost = new_cost */\n      dup1\n      sload\n      dup3\n      and\n      shl(0x80, 0x01)\n      swap3\n      dup8\n      and\n      swap3\n      swap1\n      swap3\n      mul\n      swap2\n      swap1\n      swap2\n      or\n      swap1\n      sstore\n        /* \"NoBOverround.sol\":6667:6715  _mintAndTransferOutcomeTokens(_outcome, _amount) */\n      tag_544\n        /* \"NoBOverround.sol\":6697:6705  _outcome */\n      dup8\n        /* \"NoBOverround.sol\":6707:6714  _amount */\n      dup8\n        /* \"NoBOverround.sol\":6667:6696  _mintAndTransferOutcomeTokens */\n      tag_708\n        /* \"NoBOverround.sol\":6667:6715  _mintAndTransferOutcomeTokens(_outcome, _amount) */\n      jump\t// in\n        /* \"ABDKMath64x64.sol\":6262:6775  function mulu (int128 x, uint256 y) internal pure returns (uint256) {... */\n    tag_210:\n        /* \"ABDKMath64x64.sol\":6321:6328  uint256 */\n      0x00\n        /* \"ABDKMath64x64.sol\":6358:6359  y */\n      dup2\n        /* \"ABDKMath64x64.sol\":6363:6364  0 */\n      0x00\n        /* \"ABDKMath64x64.sol\":6358:6364  y == 0 */\n      sub\n        /* \"ABDKMath64x64.sol\":6354:6374  if (y == 0) return 0 */\n      tag_710\n      jumpi\n      pop\n        /* \"ABDKMath64x64.sol\":6373:6374  0 */\n      0x00\n        /* \"ABDKMath64x64.sol\":6366:6374  return 0 */\n      jump(tag_199)\n        /* \"ABDKMath64x64.sol\":6354:6374  if (y == 0) return 0 */\n    tag_710:\n        /* \"ABDKMath64x64.sol\":6397:6398  0 */\n      0x00\n        /* \"ABDKMath64x64.sol\":6392:6393  x */\n      dup4\n        /* \"ABDKMath64x64.sol\":6392:6398  x >= 0 */\n      0x0f\n      signextend\n      slt\n      iszero\n        /* \"ABDKMath64x64.sol\":6383:6399  require (x >= 0) */\n      tag_711\n      jumpi\n      0x00\n      dup1\n      revert\n    tag_711:\n        /* \"ABDKMath64x64.sol\":6431:6441  int256 (x) */\n      0x0f\n      dup4\n      swap1\n      signextend\n      sub(shl(0x80, 0x01), 0x01)\n        /* \"ABDKMath64x64.sol\":6446:6484  y & 0xFFFFFFFFFFFFFFFFFFFFFFFFFFFFFFFF */\n      dup4\n      and\n        /* \"ABDKMath64x64.sol\":6422:6485  uint256 (int256 (x)) * (y & 0xFFFFFFFFFFFFFFFFFFFFFFFFFFFFFFFF) */\n      dup2\n      mul\n        /* \"ABDKMath64x64.sol\":6490:6492  64 */\n      0x40\n        /* \"ABDKMath64x64.sol\":6421:6492  (uint256 (int256 (x)) * (y & 0xFFFFFFFFFFFFFFFFFFFFFFFFFFFFFFFF)) >> 64 */\n      shr\n      swap1\n        /* \"ABDKMath64x64.sol\":6542:6545  128 */\n      0x80\n        /* \"ABDKMath64x64.sol\":6537:6545  y >> 128 */\n      dup5\n      swap1\n      shr\n        /* \"ABDKMath64x64.sol\":6513:6546  uint256 (int256 (x)) * (y >> 128) */\n      mul\n        /* \"ABDKMath64x64.sol\":6570:6620  0xFFFFFFFFFFFFFFFFFFFFFFFFFFFFFFFFFFFFFFFFFFFFFFFF */\n      0xffffffffffffffffffffffffffffffffffffffffffffffff\n        /* \"ABDKMath64x64.sol\":6564:6620  hi <= 0xFFFFFFFFFFFFFFFFFFFFFFFFFFFFFFFFFFFFFFFFFFFFFFFF */\n      dup2\n      gt\n      iszero\n        /* \"ABDKMath64x64.sol\":6555:6621  require (hi <= 0xFFFFFFFFFFFFFFFFFFFFFFFFFFFFFFFFFFFFFFFFFFFFFFFF) */\n      tag_712\n      jumpi\n      0x00\n      dup1\n      revert\n    tag_712:\n        /* \"ABDKMath64x64.sol\":6636:6638  64 */\n      0x40\n        /* \"ABDKMath64x64.sol\":6629:6638  hi <<= 64 */\n      shl\n        /* \"ABDKMath64x64.sol\":6670:6741  0xFFFFFFFFFFFFFFFFFFFFFFFFFFFFFFFFFFFFFFFFFFFFFFFFFFFFFFFFFFFFFFFF - lo */\n      dup2\n      not\n        /* \"ABDKMath64x64.sol\":6656:6741  hi <=... */\n      dup2\n      gt\n      iszero\n        /* \"ABDKMath64x64.sol\":6647:6742  require (hi <=... */\n      tag_713\n      jumpi\n      0x00\n      dup1\n      revert\n    tag_713:\n        /* \"ABDKMath64x64.sol\":6757:6764  hi + lo */\n      add\n      swap4\n        /* \"ABDKMath64x64.sol\":6262:6775  function mulu (int128 x, uint256 y) internal pure returns (uint256) {... */\n      swap3\n      pop\n      pop\n      pop\n      jump\t// out\n        /* \"ABDKMath64x64.sol\":4390:4615  function mul (int128 x, int128 y) internal pure returns (int128) {... */\n    tag_212:\n        /* \"ABDKMath64x64.sol\":4447:4453  int128 */\n      0x00\n        /* \"ABDKMath64x64.sol\":4495:4508  int256(x) * y */\n      0x0f\n        /* \"ABDKMath64x64.sol\":4495:4504  int256(x) */\n      dup4\n      dup2\n      signextend\n        /* \"ABDKMath64x64.sol\":4495:4508  int256(x) * y */\n      swap1\n      dup4\n      swap1\n      signextend\n      mul\n        /* \"ABDKMath64x64.sol\":4512:4514  64 */\n      0x40\n        /* \"ABDKMath64x64.sol\":4495:4514  int256(x) * y >> 64 */\n      sar\n      not(0x7fffffffffffffffffffffffffffffff)\n        /* \"ABDKMath64x64.sol\":4531:4550  result >= MIN_64x64 */\n      dup2\n      slt\n      dup1\n      iszero\n      swap1\n        /* \"ABDKMath64x64.sol\":4531:4573  result >= MIN_64x64 && result <= MAX_64x64 */\n      tag_715\n      jumpi\n      pop\n      sub(shl(0x7f, 0x01), 0x01)\n        /* \"ABDKMath64x64.sol\":4554:4573  result <= MAX_64x64 */\n      dup2\n      sgt\n      iszero\n        /* \"ABDKMath64x64.sol\":4531:4573  result >= MIN_64x64 && result <= MAX_64x64 */\n    tag_715:\n        /* \"ABDKMath64x64.sol\":4522:4574  require (result >= MIN_64x64 && result <= MAX_64x64) */\n      tag_486\n      jumpi\n      0x00\n      dup1\n      revert\n        /* \"ABDKMath64x64.sol\":3512:3731  function add (int128 x, int128 y) internal pure returns (int128) {... */\n    tag_227:\n        /* \"ABDKMath64x64.sol\":3569:3575  int128 */\n      0x00\n        /* \"ABDKMath64x64.sol\":3617:3630  int256(x) + y */\n      0x0f\n        /* \"ABDKMath64x64.sol\":3617:3626  int256(x) */\n      dup4\n      dup2\n      signextend\n        /* \"ABDKMath64x64.sol\":3617:3630  int256(x) + y */\n      swap1\n      dup4\n      swap1\n      signextend\n      add\n      not(0x7fffffffffffffffffffffffffffffff)\n        /* \"ABDKMath64x64.sol\":3647:3666  result >= MIN_64x64 */\n      dup2\n      slt\n      dup1\n      iszero\n      swap1\n        /* \"ABDKMath64x64.sol\":3647:3689  result >= MIN_64x64 && result <= MAX_64x64 */\n      tag_715\n      jumpi\n      pop\n      sub(shl(0x7f, 0x01), 0x01)\n        /* \"ABDKMath64x64.sol\":3670:3689  result <= MAX_64x64 */\n      dup2\n      sgt\n      iszero\n        /* \"ABDKMath64x64.sol\":3638:3690  require (result >= MIN_64x64 && result <= MAX_64x64) */\n      tag_486\n      jumpi\n      0x00\n      dup1\n      revert\n        /* \"ABDKMath64x64.sol\":7033:7285  function div (int128 x, int128 y) internal pure returns (int128) {... */\n    tag_230:\n        /* \"ABDKMath64x64.sol\":7090:7096  int128 */\n      0x00\n        /* \"ABDKMath64x64.sol\":7131:7132  y */\n      dup2\n        /* \"ABDKMath64x64.sol\":7131:7137  y != 0 */\n      0x0f\n      signextend\n        /* \"ABDKMath64x64.sol\":7136:7137  0 */\n      0x00\n        /* \"ABDKMath64x64.sol\":7131:7137  y != 0 */\n      sub\n        /* \"ABDKMath64x64.sol\":7122:7138  require (y != 0) */\n      tag_721\n      jumpi\n      0x00\n      dup1\n      revert\n    tag_721:\n        /* \"ABDKMath64x64.sol\":7146:7159  int256 result */\n      0x00\n        /* \"ABDKMath64x64.sol\":7183:7184  y */\n      dup3\n        /* \"ABDKMath64x64.sol\":7162:7184  (int256 (x) << 64) / y */\n      0x0f\n      signextend\n        /* \"ABDKMath64x64.sol\":7177:7179  64 */\n      0x40\n        /* \"ABDKMath64x64.sol\":7171:7172  x */\n      dup6\n        /* \"ABDKMath64x64.sol\":7163:7173  int256 (x) */\n      0x0f\n      signextend\n        /* \"ABDKMath64x64.sol\":7163:7179  int256 (x) << 64 */\n      swap1\n      shl\n        /* \"ABDKMath64x64.sol\":7162:7184  (int256 (x) << 64) / y */\n      dup2\n      tag_723\n      jumpi\n      tag_723\n      tag_724\n      jump\t// in\n    tag_723:\n      sdiv\n      swap1\n      pop\n      not(0x7fffffffffffffffffffffffffffffff)\n        /* \"ABDKMath64x64.sol\":7201:7220  result >= MIN_64x64 */\n      dup2\n      slt\n      dup1\n      iszero\n      swap1\n        /* \"ABDKMath64x64.sol\":7201:7243  result >= MIN_64x64 && result <= MAX_64x64 */\n      tag_715\n      jumpi\n      pop\n      sub(shl(0x7f, 0x01), 0x01)\n        /* \"ABDKMath64x64.sol\":7224:7243  result <= MAX_64x64 */\n      dup2\n      sgt\n      iszero\n        /* \"ABDKMath64x64.sol\":7192:7244  require (result >= MIN_64x64 && result <= MAX_64x64) */\n      tag_486\n      jumpi\n      0x00\n      dup1\n      revert\n        /* \"ABDKMath64x64.sol\":22564:22860  function exp (int128 x) internal pure returns (int128) {... */\n    tag_231:\n        /* \"ABDKMath64x64.sol\":22611:22617  int128 */\n      0x00\n        /* \"ABDKMath64x64.sol\":22656:22676  0x400000000000000000 */\n      0x400000000000000000\n        /* \"ABDKMath64x64.sol\":22652:22653  x */\n      dup3\n        /* \"ABDKMath64x64.sol\":22652:22676  x < 0x400000000000000000 */\n      0x0f\n      signextend\n      slt\n        /* \"ABDKMath64x64.sol\":22643:22677  require (x < 0x400000000000000000) */\n      tag_728\n      jumpi\n      0x00\n      dup1\n      revert\n    tag_728:\n      not(0x3fffffffffffffffff)\n        /* \"ABDKMath64x64.sol\":22702:22703  x */\n      dup3\n        /* \"ABDKMath64x64.sol\":22702:22727  x < -0x400000000000000000 */\n      0x0f\n      signextend\n      slt\n        /* \"ABDKMath64x64.sol\":22698:22737  if (x < -0x400000000000000000) return 0 */\n      iszero\n      tag_729\n      jumpi\n      pop\n        /* \"ABDKMath64x64.sol\":22736:22737  0 */\n      0x00\n      swap2\n        /* \"ABDKMath64x64.sol\":22564:22860  function exp (int128 x) internal pure returns (int128) {... */\n      swap1\n      pop\n      jump\t// out\n        /* \"ABDKMath64x64.sol\":22698:22737  if (x < -0x400000000000000000) return 0 */\n    tag_729:\n        /* \"ABDKMath64x64.sol\":22766:22849  exp_2 (... */\n      tag_199\n        /* \"ABDKMath64x64.sol\":22844:22847  128 */\n      0x80\n        /* \"ABDKMath64x64.sol\":22800:22801  x */\n      dup4\n        /* \"ABDKMath64x64.sol\":22792:22802  int256 (x) */\n      0x0f\n      signextend\n        /* \"ABDKMath64x64.sol\":22805:22840  0x171547652B82FE1777D0FFDA0D23A7D12 */\n      0x0171547652b82fe1777d0ffda0d23a7d12\n        /* \"ABDKMath64x64.sol\":22792:22840  int256 (x) * 0x171547652B82FE1777D0FFDA0D23A7D12 */\n      mul\n        /* \"ABDKMath64x64.sol\":22792:22847  int256 (x) * 0x171547652B82FE1777D0FFDA0D23A7D12 >> 128 */\n      swap1\n      sar\n        /* \"ABDKMath64x64.sol\":22766:22771  exp_2 */\n      tag_731\n        /* \"ABDKMath64x64.sol\":22766:22849  exp_2 (... */\n      jump\t// in\n        /* \"ABDKMath64x64.sol\":1953:2122  function fromUInt (uint256 x) internal pure returns (int128) {... */\n    tag_233:\n        /* \"ABDKMath64x64.sol\":2006:2012  int128 */\n      0x00\n        /* \"ABDKMath64x64.sol\":2052:2070  0x7FFFFFFFFFFFFFFF */\n      0x7fffffffffffffff\n        /* \"ABDKMath64x64.sol\":2047:2048  x */\n      dup3\n        /* \"ABDKMath64x64.sol\":2047:2070  x <= 0x7FFFFFFFFFFFFFFF */\n      gt\n      iszero\n        /* \"ABDKMath64x64.sol\":2038:2071  require (x <= 0x7FFFFFFFFFFFFFFF) */\n      tag_733\n      jumpi\n      0x00\n      dup1\n      revert\n    tag_733:\n      pop\n        /* \"ABDKMath64x64.sol\":2107:2109  64 */\n      0x40\n        /* \"ABDKMath64x64.sol\":2102:2109  x << 64 */\n      shl\n      swap1\n        /* \"ABDKMath64x64.sol\":1953:2122  function fromUInt (uint256 x) internal pure returns (int128) {... */\n      jump\t// out\n        /* \"ABDKMath64x64.sol\":3944:4163  function sub (int128 x, int128 y) internal pure returns (int128) {... */\n    tag_246:\n        /* \"ABDKMath64x64.sol\":4001:4007  int128 */\n      0x00\n        /* \"ABDKMath64x64.sol\":4049:4062  int256(x) - y */\n      0x0f\n      dup3\n      dup2\n      signextend\n        /* \"ABDKMath64x64.sol\":4049:4058  int256(x) */\n      swap1\n      dup5\n      swap1\n      signextend\n        /* \"ABDKMath64x64.sol\":4049:4062  int256(x) - y */\n      sub\n      not(0x7fffffffffffffffffffffffffffffff)\n        /* \"ABDKMath64x64.sol\":4079:4098  result >= MIN_64x64 */\n      dup2\n      slt\n      dup1\n      iszero\n      swap1\n        /* \"ABDKMath64x64.sol\":4079:4121  result >= MIN_64x64 && result <= MAX_64x64 */\n      tag_715\n      jumpi\n      pop\n      sub(shl(0x7f, 0x01), 0x01)\n        /* \"ABDKMath64x64.sol\":4102:4121  result <= MAX_64x64 */\n      dup2\n      sgt\n      iszero\n        /* \"ABDKMath64x64.sol\":4070:4122  require (result >= MIN_64x64 && result <= MAX_64x64) */\n      tag_486\n      jumpi\n      0x00\n      dup1\n      revert\n        /* \"ABDKMath64x64.sol\":15145:15366  function ln (int128 x) internal pure returns (int128) {... */\n    tag_254:\n        /* \"ABDKMath64x64.sol\":15191:15197  int128 */\n      0x00\n        /* \"ABDKMath64x64.sol\":15236:15237  0 */\n      dup1\n        /* \"ABDKMath64x64.sol\":15232:15233  x */\n      dup3\n        /* \"ABDKMath64x64.sol\":15232:15237  x > 0 */\n      0x0f\n      signextend\n      sgt\n        /* \"ABDKMath64x64.sol\":15223:15238  require (x > 0) */\n      tag_738\n      jumpi\n      0x00\n      dup1\n      revert\n    tag_738:\n        /* \"ABDKMath64x64.sol\":15350:15353  128 */\n      0x80\n        /* \"ABDKMath64x64.sol\":15298:15307  log_2 (x) */\n      tag_739\n        /* \"ABDKMath64x64.sol\":15305:15306  x */\n      dup4\n        /* \"ABDKMath64x64.sol\":15298:15303  log_2 */\n      tag_740\n        /* \"ABDKMath64x64.sol\":15298:15307  log_2 (x) */\n      jump\t// in\n    tag_739:\n        /* \"ABDKMath64x64.sol\":15290:15308  int256 (log_2 (x)) */\n      0x0f\n      signextend\n        /* \"ABDKMath64x64.sol\":15312:15346  0xB17217F7D1CF79ABC9E3B39803F2F6AF */\n      0xb17217f7d1cf79abc9e3b39803f2f6af\n        /* \"ABDKMath64x64.sol\":15281:15346  uint256 (int256 (log_2 (x))) * 0xB17217F7D1CF79ABC9E3B39803F2F6AF */\n      mul\n        /* \"ABDKMath64x64.sol\":15281:15353  uint256 (int256 (log_2 (x))) * 0xB17217F7D1CF79ABC9E3B39803F2F6AF >> 128 */\n      swap1\n      shr\n        /* \"ABDKMath64x64.sol\":15247:15355  return int128 (int256 (... */\n      swap1\n      pop\n        /* \"ABDKMath64x64.sol\":15145:15366  function ln (int128 x) internal pure returns (int128) {... */\n      swap2\n      swap1\n      pop\n      jump\t// out\n        /* \"ABDKMath64x64.sol\":8684:8917  function divu (uint256 x, uint256 y) internal pure returns (int128) {... */\n    tag_269:\n        /* \"ABDKMath64x64.sol\":8744:8750  int128 */\n      0x00\n        /* \"ABDKMath64x64.sol\":8785:8786  y */\n      dup2\n        /* \"ABDKMath64x64.sol\":8790:8791  0 */\n      0x00\n        /* \"ABDKMath64x64.sol\":8785:8791  y != 0 */\n      sub\n        /* \"ABDKMath64x64.sol\":8776:8792  require (y != 0) */\n      tag_742\n      jumpi\n      0x00\n      dup1\n      revert\n    tag_742:\n        /* \"ABDKMath64x64.sol\":8800:8814  uint128 result */\n      0x00\n        /* \"ABDKMath64x64.sol\":8817:8829  divuu (x, y) */\n      tag_743\n        /* \"ABDKMath64x64.sol\":8824:8825  x */\n      dup5\n        /* \"ABDKMath64x64.sol\":8827:8828  y */\n      dup5\n        /* \"ABDKMath64x64.sol\":8817:8822  divuu */\n      tag_744\n        /* \"ABDKMath64x64.sol\":8817:8829  divuu (x, y) */\n      jump\t// in\n    tag_743:\n        /* \"ABDKMath64x64.sol\":8800:8829  uint128 result = divuu (x, y) */\n      swap1\n      pop\n      sub(shl(0x7f, 0x01), 0x01)\n      sub(shl(0x80, 0x01), 0x01)\n        /* \"ABDKMath64x64.sol\":8846:8875  result <= uint128 (MAX_64x64) */\n      dup3\n      and\n      gt\n      iszero\n        /* \"ABDKMath64x64.sol\":8837:8876  require (result <= uint128 (MAX_64x64)) */\n      tag_486\n      jumpi\n      0x00\n      dup1\n      revert\n        /* \"@openzeppelin/contracts/access/Ownable.sol\":1796:1958   */\n    tag_286:\n        /* \"@openzeppelin/contracts/access/Ownable.sol\":1684:1691   */\n      0x00\n        /* \"@openzeppelin/contracts/access/Ownable.sol\":1710:1716   */\n      sload\n      sub(shl(0xa0, 0x01), 0x01)\n      and\n        /* \"@openzeppelin/contracts/utils/Context.sol\":735:745   */\n      caller\n        /* \"@openzeppelin/contracts/access/Ownable.sol\":1855:1878   */\n      eq\n        /* \"@openzeppelin/contracts/access/Ownable.sol\":1851:1952   */\n      tag_500\n      jumpi\n        /* \"@openzeppelin/contracts/access/Ownable.sol\":1901:1941   */\n      mload(0x40)\n      shl(0xe0, 0x118cdaa7)\n      dup2\n      mstore\n        /* \"@openzeppelin/contracts/utils/Context.sol\":735:745   */\n      caller\n        /* \"@openzeppelin/contracts/access/Ownable.sol\":1901:1941   */\n      0x04\n      dup3\n      add\n        /* \"#utility.yul\":5660:5734   */\n      mstore\n        /* \"#utility.yul\":5633:5651   */\n      0x24\n      add\n        /* \"@openzeppelin/contracts/access/Ownable.sol\":1901:1941   */\n      tag_207\n        /* \"#utility.yul\":5514:5740   */\n      jump\n        /* \"@openzeppelin/contracts/token/ERC20/utils/SafeERC20.sol\":1219:1379   */\n    tag_369:\n        /* \"@openzeppelin/contracts/token/ERC20/utils/SafeERC20.sol\":1328:1371   */\n      mload(0x40)\n      sub(shl(0xa0, 0x01), 0x01)\n        /* \"#utility.yul\":14671:14726   */\n      dup4\n      dup2\n      and\n        /* \"@openzeppelin/contracts/token/ERC20/utils/SafeERC20.sol\":1328:1371   */\n      0x24\n      dup4\n      add\n        /* \"#utility.yul\":14653:14727   */\n      mstore\n        /* \"#utility.yul\":14743:14761   */\n      0x44\n      dup3\n      add\n        /* \"#utility.yul\":14736:14770   */\n      dup4\n      swap1\n      mstore\n        /* \"@openzeppelin/contracts/token/ERC20/utils/SafeERC20.sol\":1301:1372   */\n      tag_754\n      swap2\n        /* \"@openzeppelin/contracts/token/ERC20/utils/SafeERC20.sol\":1321:1326   */\n      dup6\n      swap2\n        /* \"@openzeppelin/contracts/token/ERC20/utils/SafeERC20.sol\":1343:1357   */\n      dup3\n      and\n      swap1\n      0xa9059cbb\n      swap1\n        /* \"#utility.yul\":14626:14644   */\n      0x64\n      add\n        /* \"@openzeppelin/contracts/token/ERC20/utils/SafeERC20.sol\":1328:1371   */\n    tag_755:\n      mload(0x40)\n      0x20\n      dup2\n      dup4\n      sub\n      sub\n      dup2\n      mstore\n      swap1\n      0x40\n      mstore\n      swap2\n      pop\n      0xe0\n      shl\n      0x20\n      dup3\n      add\n      dup1\n      mload\n      0xffffffffffffffffffffffffffffffffffffffffffffffffffffffff\n      dup4\n      dup2\n      dup4\n      and\n      or\n      dup4\n      mstore\n      pop\n      pop\n      pop\n      pop\n        /* \"@openzeppelin/contracts/token/ERC20/utils/SafeERC20.sol\":1301:1320   */\n      tag_756\n        /* \"@openzeppelin/contracts/token/ERC20/utils/SafeERC20.sol\":1301:1372   */\n      jump\t// in\n    tag_754:\n        /* \"@openzeppelin/contracts/token/ERC20/utils/SafeERC20.sol\":1219:1379   */\n      pop\n      pop\n      pop\n      jump\t// out\n        /* \"@openzeppelin/contracts/token/ERC20/utils/SafeERC20.sol\":1618:1806   */\n    tag_434:\n        /* \"@openzeppelin/contracts/token/ERC20/utils/SafeERC20.sol\":1745:1798   */\n      mload(0x40)\n      sub(shl(0xa0, 0x01), 0x01)\n        /* \"#utility.yul\":23979:23994   */\n      dup5\n      dup2\n      and\n        /* \"@openzeppelin/contracts/token/ERC20/utils/SafeERC20.sol\":1745:1798   */\n      0x24\n      dup4\n      add\n        /* \"#utility.yul\":23961:23995   */\n      mstore\n        /* \"#utility.yul\":24031:24046   */\n      dup4\n      dup2\n      and\n        /* \"#utility.yul\":24011:24029   */\n      0x44\n      dup4\n      add\n        /* \"#utility.yul\":24004:24047   */\n      mstore\n        /* \"#utility.yul\":24063:24081   */\n      0x64\n      dup3\n      add\n        /* \"#utility.yul\":24056:24090   */\n      dup4\n      swap1\n      mstore\n        /* \"@openzeppelin/contracts/token/ERC20/utils/SafeERC20.sol\":1718:1799   */\n      tag_758\n      swap2\n        /* \"@openzeppelin/contracts/token/ERC20/utils/SafeERC20.sol\":1738:1743   */\n      dup7\n      swap2\n        /* \"@openzeppelin/contracts/token/ERC20/utils/SafeERC20.sol\":1760:1778   */\n      dup3\n      and\n      swap1\n      0x23b872dd\n      swap1\n        /* \"#utility.yul\":23873:23891   */\n      0x84\n      add\n        /* \"@openzeppelin/contracts/token/ERC20/utils/SafeERC20.sol\":1745:1798   */\n      tag_755\n        /* \"#utility.yul\":23698:24096   */\n      jump\n        /* \"@openzeppelin/contracts/token/ERC20/utils/SafeERC20.sol\":1718:1799   */\n    tag_758:\n        /* \"@openzeppelin/contracts/token/ERC20/utils/SafeERC20.sol\":1618:1806   */\n      pop\n      pop\n      pop\n      pop\n      jump\t// out\n        /* \"@openzeppelin/contracts/access/Ownable.sol\":2912:3099   */\n    tag_501:\n        /* \"@openzeppelin/contracts/access/Ownable.sol\":2985:3001   */\n      0x00\n        /* \"@openzeppelin/contracts/access/Ownable.sol\":3004:3010   */\n      dup1\n      sload\n      sub(shl(0xa0, 0x01), 0x01)\n        /* \"@openzeppelin/contracts/access/Ownable.sol\":3020:3037   */\n      dup4\n      dup2\n      and\n      0xffffffffffffffffffffffff0000000000000000000000000000000000000000\n      dup4\n      and\n      dup2\n      or\n      dup5\n      sstore\n        /* \"@openzeppelin/contracts/access/Ownable.sol\":3052:3092   */\n      mload(0x40)\n        /* \"@openzeppelin/contracts/access/Ownable.sol\":3004:3010   */\n      swap2\n      swap1\n      swap3\n      and\n      swap3\n      dup4\n      swap2\n        /* \"@openzeppelin/contracts/access/Ownable.sol\":3052:3092   */\n      0x8be0079c531659141344cd1fd0a4f28419497f9722a3daafe3b4186f6b6457e0\n      swap2\n        /* \"@openzeppelin/contracts/access/Ownable.sol\":2985:3001   */\n      swap1\n        /* \"@openzeppelin/contracts/access/Ownable.sol\":3052:3092   */\n      log3\n        /* \"@openzeppelin/contracts/access/Ownable.sol\":2975:3099   */\n      pop\n        /* \"@openzeppelin/contracts/access/Ownable.sol\":2912:3099   */\n      pop\n      jump\t// out\n        /* \"NoBOverround.sol\":6813:6951  function getOnes(uint n) internal pure returns (uint count) {... */\n    tag_536:\n        /* \"NoBOverround.sol\":6861:6871  uint count */\n      0x00\n        /* \"NoBOverround.sol\":6894:6947  while(n!=0) {... */\n    tag_762:\n        /* \"NoBOverround.sol\":6900:6904  n!=0 */\n      dup2\n      iszero\n        /* \"NoBOverround.sol\":6894:6947  while(n!=0) {... */\n      tag_763\n      jumpi\n        /* \"NoBOverround.sol\":6921:6924  n-1 */\n      tag_764\n        /* \"NoBOverround.sol\":6923:6924  1 */\n      0x01\n        /* \"NoBOverround.sol\":6921:6922  n */\n      dup4\n        /* \"NoBOverround.sol\":6921:6924  n-1 */\n      tag_408\n      jump\t// in\n    tag_764:\n        /* \"NoBOverround.sol\":6918:6925  n&(n-1) */\n      swap1\n      swap2\n      and\n      swap1\n        /* \"NoBOverround.sol\":6933:6940  count++ */\n      dup1\n      tag_765\n      dup2\n      tag_550\n      jump\t// in\n    tag_765:\n      swap2\n      pop\n      pop\n        /* \"NoBOverround.sol\":6894:6947  while(n!=0) {... */\n      jump(tag_762)\n    tag_763:\n        /* \"NoBOverround.sol\":6813:6951  function getOnes(uint n) internal pure returns (uint count) {... */\n      swap2\n      swap1\n      pop\n      jump\t// out\n        /* \"NoBOverround.sol\":14903:15781  function _calculateSellRefund(... */\n    tag_583:\n        /* \"NoBOverround.sol\":15099:15114  int128 new_cost */\n      0x00\n        /* \"NoBOverround.sol\":15116:15130  int128 refund_ */\n      dup1\n        /* \"NoBOverround.sol\":15132:15155  int128 new_total_shares */\n      0x00\n        /* \"NoBOverround.sol\":15163:15184  int128[] memory new_q */\n      dup1\n        /* \"NoBOverround.sol\":15200:15212  numOutcomes_ */\n      dup5\n        /* \"NoBOverround.sol\":15187:15213  new int128[](numOutcomes_) */\n      0xffffffffffffffff\n      dup2\n      gt\n      iszero\n      tag_768\n      jumpi\n      tag_768\n      tag_305\n      jump\t// in\n    tag_768:\n      mload(0x40)\n      swap1\n      dup1\n      dup3\n      mstore\n      dup1\n      0x20\n      mul\n      0x20\n      add\n      dup3\n      add\n      0x40\n      mstore\n      dup1\n      iszero\n      tag_769\n      jumpi\n      dup2\n      0x20\n      add\n      0x20\n      dup3\n      mul\n      dup1\n      calldatasize\n      dup4\n      calldatacopy\n      add\n      swap1\n      pop\n    tag_769:\n      pop\n        /* \"NoBOverround.sol\":15163:15213  int128[] memory new_q = new int128[](numOutcomes_) */\n      swap1\n      pop\n        /* \"NoBOverround.sol\":15224:15230  uint i */\n      0x00\n        /* \"NoBOverround.sol\":15219:15292  for (uint i = 0; i < numOutcomes_; i++) {... */\n    tag_770:\n        /* \"NoBOverround.sol\":15240:15252  numOutcomes_ */\n      dup6\n        /* \"NoBOverround.sol\":15236:15237  i */\n      dup2\n        /* \"NoBOverround.sol\":15236:15252  i < numOutcomes_ */\n      lt\n        /* \"NoBOverround.sol\":15219:15292  for (uint i = 0; i < numOutcomes_; i++) {... */\n      iszero\n      tag_771\n      jumpi\n        /* \"NoBOverround.sol\":15280:15282  q_ */\n      dup11\n        /* \"NoBOverround.sol\":15283:15284  i */\n      dup2\n        /* \"NoBOverround.sol\":15280:15285  q_[i] */\n      dup2\n      mload\n      dup2\n      lt\n      tag_774\n      jumpi\n      tag_774\n      tag_243\n      jump\t// in\n    tag_774:\n      0x20\n      mul\n      0x20\n      add\n      add\n      mload\n        /* \"NoBOverround.sol\":15269:15274  new_q */\n      dup3\n        /* \"NoBOverround.sol\":15275:15276  i */\n      dup3\n        /* \"NoBOverround.sol\":15269:15277  new_q[i] */\n      dup2\n      mload\n      dup2\n      lt\n      tag_776\n      jumpi\n      tag_776\n      tag_243\n      jump\t// in\n    tag_776:\n        /* \"NoBOverround.sol\":15269:15285  new_q[i] = q_[i] */\n      0x0f\n      swap3\n      swap1\n      swap3\n      signextend\n        /* \"NoBOverround.sol\":15269:15277  new_q[i] */\n      0x20\n      swap3\n      dup4\n      mul\n      swap2\n      swap1\n      swap2\n      add\n      swap1\n      swap2\n      add\n        /* \"NoBOverround.sol\":15269:15285  new_q[i] = q_[i] */\n      mstore\n        /* \"NoBOverround.sol\":15254:15257  i++ */\n      0x01\n      add\n        /* \"NoBOverround.sol\":15219:15292  for (uint i = 0; i < numOutcomes_; i++) {... */\n      jump(tag_770)\n    tag_771:\n      pop\n        /* \"NoBOverround.sol\":15315:15353  ABDKMath.sub(new_q[_outcome], _amount) */\n      tag_777\n        /* \"NoBOverround.sol\":15328:15333  new_q */\n      dup2\n        /* \"NoBOverround.sol\":15334:15342  _outcome */\n      dup11\n        /* \"NoBOverround.sol\":15328:15343  new_q[_outcome] */\n      dup2\n      mload\n      dup2\n      lt\n      tag_779\n      jumpi\n      tag_779\n      tag_243\n      jump\t// in\n    tag_779:\n      0x20\n      mul\n      0x20\n      add\n      add\n      mload\n        /* \"NoBOverround.sol\":15345:15352  _amount */\n      dup10\n        /* \"NoBOverround.sol\":15315:15327  ABDKMath.sub */\n      tag_246\n        /* \"NoBOverround.sol\":15315:15353  ABDKMath.sub(new_q[_outcome], _amount) */\n      jump\t// in\n    tag_777:\n        /* \"NoBOverround.sol\":15297:15302  new_q */\n      dup2\n        /* \"NoBOverround.sol\":15303:15311  _outcome */\n      dup11\n        /* \"NoBOverround.sol\":15297:15312  new_q[_outcome] */\n      dup2\n      mload\n      dup2\n      lt\n      tag_781\n      jumpi\n      tag_781\n      tag_243\n      jump\t// in\n    tag_781:\n      0x20\n      mul\n      0x20\n      add\n      add\n        /* \"NoBOverround.sol\":15297:15353  new_q[_outcome] = ABDKMath.sub(new_q[_outcome], _amount) */\n      swap1\n      0x0f\n      signextend\n      swap1\n      dup2\n      0x0f\n      signextend\n      dup2\n      mstore\n      pop\n      pop\n        /* \"NoBOverround.sol\":15378:15414  ABDKMath.sub(total_shares_, _amount) */\n      tag_782\n        /* \"NoBOverround.sol\":15391:15404  total_shares_ */\n      dup8\n        /* \"NoBOverround.sol\":15406:15413  _amount */\n      dup10\n        /* \"NoBOverround.sol\":15378:15390  ABDKMath.sub */\n      tag_246\n        /* \"NoBOverround.sol\":15378:15414  ABDKMath.sub(total_shares_, _amount) */\n      jump\t// in\n    tag_782:\n        /* \"NoBOverround.sol\":15497:15498  b */\n      sload(0x03)\n        /* \"NoBOverround.sol\":15359:15414  new_total_shares = ABDKMath.sub(total_shares_, _amount) */\n      swap1\n      swap3\n      pop\n        /* \"NoBOverround.sol\":15497:15498  b */\n      0x0f\n      signextend\n        /* \"NoBOverround.sol\":15481:15494  int128 used_b */\n      0x00\n      dup1\n        /* \"NoBOverround.sol\":15527:15665  for (uint i = 0; i < numOutcomes_; i++) {... */\n    tag_783:\n        /* \"NoBOverround.sol\":15548:15560  numOutcomes_ */\n      dup8\n        /* \"NoBOverround.sol\":15544:15545  i */\n      dup2\n        /* \"NoBOverround.sol\":15544:15560  i < numOutcomes_ */\n      lt\n        /* \"NoBOverround.sol\":15527:15665  for (uint i = 0; i < numOutcomes_; i++) {... */\n      iszero\n      tag_784\n      jumpi\n        /* \"NoBOverround.sol\":15589:15658  ABDKMath.add(sum_total, ABDKMath.exp(ABDKMath.div(new_q[i], used_b))) */\n      tag_786\n        /* \"NoBOverround.sol\":15602:15611  sum_total */\n      dup3\n        /* \"NoBOverround.sol\":15613:15657  ABDKMath.exp(ABDKMath.div(new_q[i], used_b)) */\n      tag_239\n        /* \"NoBOverround.sol\":15626:15656  ABDKMath.div(new_q[i], used_b) */\n      tag_229\n        /* \"NoBOverround.sol\":15639:15644  new_q */\n      dup8\n        /* \"NoBOverround.sol\":15645:15646  i */\n      dup6\n        /* \"NoBOverround.sol\":15639:15647  new_q[i] */\n      dup2\n      mload\n      dup2\n      lt\n      tag_790\n      jumpi\n      tag_790\n      tag_243\n      jump\t// in\n    tag_790:\n      0x20\n      mul\n      0x20\n      add\n      add\n      mload\n        /* \"NoBOverround.sol\":15649:15655  used_b */\n      dup8\n        /* \"NoBOverround.sol\":15626:15638  ABDKMath.div */\n      tag_230\n        /* \"NoBOverround.sol\":15626:15656  ABDKMath.div(new_q[i], used_b) */\n      jump\t// in\n        /* \"NoBOverround.sol\":15589:15658  ABDKMath.add(sum_total, ABDKMath.exp(ABDKMath.div(new_q[i], used_b))) */\n    tag_786:\n        /* \"NoBOverround.sol\":15577:15658  sum_total = ABDKMath.add(sum_total, ABDKMath.exp(ABDKMath.div(new_q[i], used_b))) */\n      swap2\n      pop\n        /* \"NoBOverround.sol\":15562:15565  i++ */\n      0x01\n      add\n        /* \"NoBOverround.sol\":15527:15665  for (uint i = 0; i < numOutcomes_; i++) {... */\n      jump(tag_783)\n    tag_784:\n      pop\n        /* \"NoBOverround.sol\":15681:15725  ABDKMath.mul(used_b, ABDKMath.ln(sum_total)) */\n      tag_791\n        /* \"NoBOverround.sol\":15694:15700  used_b */\n      dup3\n        /* \"NoBOverround.sol\":15702:15724  ABDKMath.ln(sum_total) */\n      tag_253\n        /* \"NoBOverround.sol\":15714:15723  sum_total */\n      dup4\n        /* \"NoBOverround.sol\":15702:15713  ABDKMath.ln */\n      tag_254\n        /* \"NoBOverround.sol\":15702:15724  ABDKMath.ln(sum_total) */\n      jump\t// in\n        /* \"NoBOverround.sol\":15681:15725  ABDKMath.mul(used_b, ABDKMath.ln(sum_total)) */\n    tag_791:\n        /* \"NoBOverround.sol\":15670:15725  new_cost = ABDKMath.mul(used_b, ABDKMath.ln(sum_total)) */\n      swap6\n      pop\n        /* \"NoBOverround.sol\":15741:15778  ABDKMath.sub(current_cost_, new_cost) */\n      tag_793\n        /* \"NoBOverround.sol\":15754:15767  current_cost_ */\n      dup9\n        /* \"NoBOverround.sol\":15769:15777  new_cost */\n      dup8\n        /* \"NoBOverround.sol\":15741:15753  ABDKMath.sub */\n      tag_246\n        /* \"NoBOverround.sol\":15741:15778  ABDKMath.sub(current_cost_, new_cost) */\n      jump\t// in\n    tag_793:\n        /* \"NoBOverround.sol\":15731:15778  refund_ = ABDKMath.sub(current_cost_, new_cost) */\n      swap5\n      pop\n        /* \"NoBOverround.sol\":15157:15781  {... */\n      pop\n      pop\n      pop\n        /* \"NoBOverround.sol\":14903:15781  function _calculateSellRefund(... */\n      swap7\n      pop\n      swap7\n      pop\n      swap7\n      swap4\n      pop\n      pop\n      pop\n      pop\n      jump\t// out\n        /* \"NoBOverround.sol\":4125:5003  function _calculateBuyPrice(... */\n    tag_687:\n        /* \"NoBOverround.sol\":4321:4336  int128 new_cost */\n      0x00\n        /* \"NoBOverround.sol\":4338:4351  int128 price_ */\n      dup1\n        /* \"NoBOverround.sol\":4353:4376  int128 new_total_shares */\n      0x00\n        /* \"NoBOverround.sol\":4384:4405  int128[] memory new_q */\n      dup1\n        /* \"NoBOverround.sol\":4421:4433  numOutcomes_ */\n      dup5\n        /* \"NoBOverround.sol\":4408:4434  new int128[](numOutcomes_) */\n      0xffffffffffffffff\n      dup2\n      gt\n      iszero\n      tag_796\n      jumpi\n      tag_796\n      tag_305\n      jump\t// in\n    tag_796:\n      mload(0x40)\n      swap1\n      dup1\n      dup3\n      mstore\n      dup1\n      0x20\n      mul\n      0x20\n      add\n      dup3\n      add\n      0x40\n      mstore\n      dup1\n      iszero\n      tag_797\n      jumpi\n      dup2\n      0x20\n      add\n      0x20\n      dup3\n      mul\n      dup1\n      calldatasize\n      dup4\n      calldatacopy\n      add\n      swap1\n      pop\n    tag_797:\n      pop\n        /* \"NoBOverround.sol\":4384:4434  int128[] memory new_q = new int128[](numOutcomes_) */\n      swap1\n      pop\n        /* \"NoBOverround.sol\":4445:4451  uint i */\n      0x00\n        /* \"NoBOverround.sol\":4440:4513  for (uint i = 0; i < numOutcomes_; i++) {... */\n    tag_798:\n        /* \"NoBOverround.sol\":4461:4473  numOutcomes_ */\n      dup6\n        /* \"NoBOverround.sol\":4457:4458  i */\n      dup2\n        /* \"NoBOverround.sol\":4457:4473  i < numOutcomes_ */\n      lt\n        /* \"NoBOverround.sol\":4440:4513  for (uint i = 0; i < numOutcomes_; i++) {... */\n      iszero\n      tag_799\n      jumpi\n        /* \"NoBOverround.sol\":4501:4503  q_ */\n      dup11\n        /* \"NoBOverround.sol\":4504:4505  i */\n      dup2\n        /* \"NoBOverround.sol\":4501:4506  q_[i] */\n      dup2\n      mload\n      dup2\n      lt\n      tag_802\n      jumpi\n      tag_802\n      tag_243\n      jump\t// in\n    tag_802:\n      0x20\n      mul\n      0x20\n      add\n      add\n      mload\n        /* \"NoBOverround.sol\":4490:4495  new_q */\n      dup3\n        /* \"NoBOverround.sol\":4496:4497  i */\n      dup3\n        /* \"NoBOverround.sol\":4490:4498  new_q[i] */\n      dup2\n      mload\n      dup2\n      lt\n      tag_804\n      jumpi\n      tag_804\n      tag_243\n      jump\t// in\n    tag_804:\n        /* \"NoBOverround.sol\":4490:4506  new_q[i] = q_[i] */\n      0x0f\n      swap3\n      swap1\n      swap3\n      signextend\n        /* \"NoBOverround.sol\":4490:4498  new_q[i] */\n      0x20\n      swap3\n      dup4\n      mul\n      swap2\n      swap1\n      swap2\n      add\n      swap1\n      swap2\n      add\n        /* \"NoBOverround.sol\":4490:4506  new_q[i] = q_[i] */\n      mstore\n        /* \"NoBOverround.sol\":4475:4478  i++ */\n      0x01\n      add\n        /* \"NoBOverround.sol\":4440:4513  for (uint i = 0; i < numOutcomes_; i++) {... */\n      jump(tag_798)\n    tag_799:\n      pop\n        /* \"NoBOverround.sol\":4536:4574  ABDKMath.add(new_q[_outcome], _amount) */\n      tag_805\n        /* \"NoBOverround.sol\":4549:4554  new_q */\n      dup2\n        /* \"NoBOverround.sol\":4555:4563  _outcome */\n      dup11\n        /* \"NoBOverround.sol\":4549:4564  new_q[_outcome] */\n      dup2\n      mload\n      dup2\n      lt\n      tag_807\n      jumpi\n      tag_807\n      tag_243\n      jump\t// in\n    tag_807:\n      0x20\n      mul\n      0x20\n      add\n      add\n      mload\n        /* \"NoBOverround.sol\":4566:4573  _amount */\n      dup10\n        /* \"NoBOverround.sol\":4536:4548  ABDKMath.add */\n      tag_227\n        /* \"NoBOverround.sol\":4536:4574  ABDKMath.add(new_q[_outcome], _amount) */\n      jump\t// in\n    tag_805:\n        /* \"NoBOverround.sol\":4518:4523  new_q */\n      dup2\n        /* \"NoBOverround.sol\":4524:4532  _outcome */\n      dup11\n        /* \"NoBOverround.sol\":4518:4533  new_q[_outcome] */\n      dup2\n      mload\n      dup2\n      lt\n      tag_809\n      jumpi\n      tag_809\n      tag_243\n      jump\t// in\n    tag_809:\n      0x20\n      mul\n      0x20\n      add\n      add\n        /* \"NoBOverround.sol\":4518:4574  new_q[_outcome] = ABDKMath.add(new_q[_outcome], _amount) */\n      swap1\n      0x0f\n      signextend\n      swap1\n      dup2\n      0x0f\n      signextend\n      dup2\n      mstore\n      pop\n      pop\n        /* \"NoBOverround.sol\":4599:4635  ABDKMath.add(total_shares_, _amount) */\n      tag_810\n        /* \"NoBOverround.sol\":4612:4625  total_shares_ */\n      dup8\n        /* \"NoBOverround.sol\":4627:4634  _amount */\n      dup10\n        /* \"NoBOverround.sol\":4599:4611  ABDKMath.add */\n      tag_227\n        /* \"NoBOverround.sol\":4599:4635  ABDKMath.add(total_shares_, _amount) */\n      jump\t// in\n    tag_810:\n        /* \"NoBOverround.sol\":4718:4719  b */\n      sload(0x03)\n        /* \"NoBOverround.sol\":4580:4635  new_total_shares = ABDKMath.add(total_shares_, _amount) */\n      swap1\n      swap3\n      pop\n        /* \"NoBOverround.sol\":4718:4719  b */\n      0x0f\n      signextend\n        /* \"NoBOverround.sol\":4702:4715  int128 used_b */\n      0x00\n      dup1\n        /* \"NoBOverround.sol\":4748:4886  for (uint i = 0; i < numOutcomes_; i++) {... */\n    tag_811:\n        /* \"NoBOverround.sol\":4769:4781  numOutcomes_ */\n      dup8\n        /* \"NoBOverround.sol\":4765:4766  i */\n      dup2\n        /* \"NoBOverround.sol\":4765:4781  i < numOutcomes_ */\n      lt\n        /* \"NoBOverround.sol\":4748:4886  for (uint i = 0; i < numOutcomes_; i++) {... */\n      iszero\n      tag_812\n      jumpi\n        /* \"NoBOverround.sol\":4810:4879  ABDKMath.add(sum_total, ABDKMath.exp(ABDKMath.div(new_q[i], used_b))) */\n      tag_814\n        /* \"NoBOverround.sol\":4823:4832  sum_total */\n      dup3\n        /* \"NoBOverround.sol\":4834:4878  ABDKMath.exp(ABDKMath.div(new_q[i], used_b)) */\n      tag_239\n        /* \"NoBOverround.sol\":4847:4877  ABDKMath.div(new_q[i], used_b) */\n      tag_229\n        /* \"NoBOverround.sol\":4860:4865  new_q */\n      dup8\n        /* \"NoBOverround.sol\":4866:4867  i */\n      dup6\n        /* \"NoBOverround.sol\":4860:4868  new_q[i] */\n      dup2\n      mload\n      dup2\n      lt\n      tag_790\n      jumpi\n      tag_790\n      tag_243\n      jump\t// in\n        /* \"NoBOverround.sol\":4810:4879  ABDKMath.add(sum_total, ABDKMath.exp(ABDKMath.div(new_q[i], used_b))) */\n    tag_814:\n        /* \"NoBOverround.sol\":4798:4879  sum_total = ABDKMath.add(sum_total, ABDKMath.exp(ABDKMath.div(new_q[i], used_b))) */\n      swap2\n      pop\n        /* \"NoBOverround.sol\":4783:4786  i++ */\n      0x01\n      add\n        /* \"NoBOverround.sol\":4748:4886  for (uint i = 0; i < numOutcomes_; i++) {... */\n      jump(tag_811)\n    tag_812:\n      pop\n        /* \"NoBOverround.sol\":4902:4946  ABDKMath.mul(used_b, ABDKMath.ln(sum_total)) */\n      tag_819\n        /* \"NoBOverround.sol\":4915:4921  used_b */\n      dup3\n        /* \"NoBOverround.sol\":4923:4945  ABDKMath.ln(sum_total) */\n      tag_253\n        /* \"NoBOverround.sol\":4935:4944  sum_total */\n      dup4\n        /* \"NoBOverround.sol\":4923:4934  ABDKMath.ln */\n      tag_254\n        /* \"NoBOverround.sol\":4923:4945  ABDKMath.ln(sum_total) */\n      jump\t// in\n        /* \"NoBOverround.sol\":4902:4946  ABDKMath.mul(used_b, ABDKMath.ln(sum_total)) */\n    tag_819:\n        /* \"NoBOverround.sol\":4891:4946  new_cost = ABDKMath.mul(used_b, ABDKMath.ln(sum_total)) */\n      swap6\n      pop\n        /* \"NoBOverround.sol\":4961:4998  ABDKMath.sub(new_cost, current_cost_) */\n      tag_793\n        /* \"NoBOverround.sol\":4974:4982  new_cost */\n      dup7\n        /* \"NoBOverround.sol\":4984:4997  current_cost_ */\n      dup10\n        /* \"NoBOverround.sol\":4961:4973  ABDKMath.sub */\n      tag_246\n        /* \"NoBOverround.sol\":4961:4998  ABDKMath.sub(new_cost, current_cost_) */\n      jump\t// in\n        /* \"NoBOverround.sol\":5007:5832  function _mintAndTransferOutcomeTokens(... */\n    tag_708:\n        /* \"NoBOverround.sol\":5145:5150  token */\n      sload(0x08)\n        /* \"NoBOverround.sol\":5107:5128  uint n_outcome_tokens */\n      0x00\n      swap1\n        /* \"NoBOverround.sol\":5131:5160  getTokenWeiUp(token, _amount) */\n      tag_823\n      swap1\n      sub(shl(0xa0, 0x01), 0x01)\n        /* \"NoBOverround.sol\":5145:5150  token */\n      and\n        /* \"NoBOverround.sol\":5152:5159  _amount */\n      dup4\n        /* \"NoBOverround.sol\":5131:5144  getTokenWeiUp */\n      tag_61\n        /* \"NoBOverround.sol\":5131:5160  getTokenWeiUp(token, _amount) */\n      jump\t// in\n    tag_823:\n        /* \"NoBOverround.sol\":5177:5179  CT */\n      sload(0x07)\n        /* \"NoBOverround.sol\":5201:5206  token */\n      sload(0x08)\n        /* \"NoBOverround.sol\":5248:5257  condition */\n      sload(0x06)\n        /* \"NoBOverround.sol\":5217:5273  CT.getCollectionId(bytes32(0), condition, 1 << _outcome) */\n      mload(0x40)\n      shl(0xe0, 0x856296f7)\n      dup2\n      mstore\n        /* \"NoBOverround.sol\":5166:5174  uint pos */\n      0x00\n        /* \"NoBOverround.sol\":5217:5273  CT.getCollectionId(bytes32(0), condition, 1 << _outcome) */\n      0x04\n      dup3\n      add\n        /* \"#utility.yul\":14152:14177   */\n      dup2\n      swap1\n      mstore\n        /* \"#utility.yul\":14193:14211   */\n      0x24\n      dup3\n      add\n        /* \"#utility.yul\":14186:14220   */\n      swap3\n      swap1\n      swap3\n      mstore\n        /* \"NoBOverround.sol\":5177:5179  CT */\n      0x01\n        /* \"NoBOverround.sol\":5259:5272  1 << _outcome */\n      dup9\n      shl\n        /* \"#utility.yul\":14236:14254   */\n      0x44\n      dup3\n      add\n        /* \"#utility.yul\":14229:14263   */\n      mstore\n        /* \"NoBOverround.sol\":5107:5160  uint n_outcome_tokens = getTokenWeiUp(token, _amount) */\n      swap4\n      swap5\n      pop\n        /* \"NoBOverround.sol\":5166:5174  uint pos */\n      swap3\n      sub(shl(0xa0, 0x01), 0x01)\n        /* \"NoBOverround.sol\":5177:5179  CT */\n      swap3\n      dup4\n      and\n      swap3\n        /* \"NoBOverround.sol\":5177:5193  CT.getPositionId */\n      0x39dd7530\n      swap3\n        /* \"NoBOverround.sol\":5201:5206  token */\n      and\n      swap1\n        /* \"NoBOverround.sol\":5177:5179  CT */\n      dup4\n      swap1\n        /* \"NoBOverround.sol\":5217:5235  CT.getCollectionId */\n      0x856296f7\n      swap1\n        /* \"#utility.yul\":14125:14143   */\n      0x64\n      add\n        /* \"NoBOverround.sol\":5217:5273  CT.getCollectionId(bytes32(0), condition, 1 << _outcome) */\n      0x20\n      mload(0x40)\n      dup1\n      dup4\n      sub\n      dup2\n      dup7\n      gas\n      staticcall\n      iszero\n      dup1\n      iszero\n      tag_826\n      jumpi\n      returndatasize\n      0x00\n      dup1\n      returndatacopy\n      revert(0x00, returndatasize)\n    tag_826:\n      pop\n      pop\n      pop\n      pop\n      mload(0x40)\n      returndatasize\n      not(0x1f)\n      0x1f\n      dup3\n      add\n      and\n      dup3\n      add\n      dup1\n      0x40\n      mstore\n      pop\n      dup2\n      add\n      swap1\n      tag_827\n      swap2\n      swap1\n      tag_292\n      jump\t// in\n    tag_827:\n        /* \"NoBOverround.sol\":5177:5274  CT.getPositionId(IERC20(token),... */\n      mload(0x40)\n      not(sub(shl(0xe0, 0x01), 0x01))\n      0xe0\n      dup6\n      swap1\n      shl\n      and\n      dup2\n      mstore\n      sub(shl(0xa0, 0x01), 0x01)\n        /* \"#utility.yul\":14671:14726   */\n      swap1\n      swap3\n      and\n        /* \"NoBOverround.sol\":5177:5274  CT.getPositionId(IERC20(token),... */\n      0x04\n      dup4\n      add\n        /* \"#utility.yul\":14653:14727   */\n      mstore\n        /* \"#utility.yul\":14743:14761   */\n      0x24\n      dup3\n      add\n        /* \"#utility.yul\":14736:14770   */\n      mstore\n        /* \"#utility.yul\":14626:14644   */\n      0x44\n      add\n        /* \"NoBOverround.sol\":5177:5274  CT.getPositionId(IERC20(token),... */\n      0x20\n      mload(0x40)\n      dup1\n      dup4\n      sub\n      dup2\n      dup7\n      gas\n      staticcall\n      iszero\n      dup1\n      iszero\n      tag_830\n      jumpi\n      returndatasize\n      0x00\n      dup1\n      returndatacopy\n      revert(0x00, returndatasize)\n    tag_830:\n      pop\n      pop\n      pop\n      pop\n      mload(0x40)\n      returndatasize\n      not(0x1f)\n      0x1f\n      dup3\n      add\n      and\n      dup3\n      add\n      dup1\n      0x40\n      mstore\n      pop\n      dup2\n      add\n      swap1\n      tag_831\n      swap2\n      swap1\n      tag_292\n      jump\t// in\n    tag_831:\n        /* \"NoBOverround.sol\":5304:5306  CT */\n      sload(0x07)\n        /* \"NoBOverround.sol\":5304:5336  CT.balanceOf(address(this), pos) */\n      mload(0x40)\n      shl(0xe1, 0x7eeac7)\n      dup2\n      mstore\n        /* \"NoBOverround.sol\":5325:5329  this */\n      address\n        /* \"NoBOverround.sol\":5304:5336  CT.balanceOf(address(this), pos) */\n      0x04\n      dup3\n      add\n        /* \"#utility.yul\":14653:14727   */\n      mstore\n        /* \"#utility.yul\":14743:14761   */\n      0x24\n      dup2\n      add\n        /* \"#utility.yul\":14736:14770   */\n      dup4\n      swap1\n      mstore\n        /* \"NoBOverround.sol\":5166:5274  uint pos = CT.getPositionId(IERC20(token),... */\n      swap2\n      swap3\n      pop\n        /* \"NoBOverround.sol\":5281:5301  uint contractBalance */\n      0x00\n      swap2\n      sub(shl(0xa0, 0x01), 0x01)\n        /* \"NoBOverround.sol\":5304:5306  CT */\n      swap1\n      swap2\n      and\n      swap1\n        /* \"NoBOverround.sol\":5304:5316  CT.balanceOf */\n      0xfdd58e\n      swap1\n        /* \"#utility.yul\":14626:14644   */\n      0x44\n      add\n        /* \"NoBOverround.sol\":5304:5336  CT.balanceOf(address(this), pos) */\n      0x20\n      mload(0x40)\n      dup1\n      dup4\n      sub\n      dup2\n      dup7\n      gas\n      staticcall\n      iszero\n      dup1\n      iszero\n      tag_834\n      jumpi\n      returndatasize\n      0x00\n      dup1\n      returndatacopy\n      revert(0x00, returndatasize)\n    tag_834:\n      pop\n      pop\n      pop\n      pop\n      mload(0x40)\n      returndatasize\n      not(0x1f)\n      0x1f\n      dup3\n      add\n      and\n      dup3\n      add\n      dup1\n      0x40\n      mstore\n      pop\n      dup2\n      add\n      swap1\n      tag_835\n      swap2\n      swap1\n      tag_292\n      jump\t// in\n    tag_835:\n        /* \"NoBOverround.sol\":5281:5336  uint contractBalance = CT.balanceOf(address(this), pos) */\n      swap1\n      pop\n        /* \"NoBOverround.sol\":5358:5392  contractBalance < n_outcome_tokens */\n      dup3\n      dup2\n      lt\n        /* \"NoBOverround.sol\":5403:5749  if (willMint) {... */\n      dup1\n      iszero\n      tag_836\n      jumpi\n        /* \"NoBOverround.sol\":5501:5518  uint tokensToMint */\n      0x00\n        /* \"NoBOverround.sol\":5521:5555  n_outcome_tokens - contractBalance */\n      tag_837\n        /* \"NoBOverround.sol\":5540:5555  contractBalance */\n      dup4\n        /* \"NoBOverround.sol\":5521:5537  n_outcome_tokens */\n      dup7\n        /* \"NoBOverround.sol\":5521:5555  n_outcome_tokens - contractBalance */\n      tag_408\n      jump\t// in\n    tag_837:\n        /* \"NoBOverround.sol\":5572:5577  token */\n      sload(0x08)\n        /* \"NoBOverround.sol\":5595:5597  CT */\n      sload(0x07)\n        /* \"NoBOverround.sol\":5565:5613  IERC20(token).approve(address(CT), tokensToMint) */\n      mload(0x40)\n      shl(0xe0, 0x095ea7b3)\n      dup2\n      mstore\n      sub(shl(0xa0, 0x01), 0x01)\n        /* \"NoBOverround.sol\":5595:5597  CT */\n      swap2\n      dup3\n      and\n        /* \"NoBOverround.sol\":5565:5613  IERC20(token).approve(address(CT), tokensToMint) */\n      0x04\n      dup3\n      add\n        /* \"#utility.yul\":14653:14727   */\n      mstore\n        /* \"#utility.yul\":14743:14761   */\n      0x24\n      dup2\n      add\n        /* \"#utility.yul\":14736:14770   */\n      dup5\n      swap1\n      mstore\n        /* \"NoBOverround.sol\":5501:5555  uint tokensToMint = n_outcome_tokens - contractBalance */\n      swap3\n      swap4\n      pop\n        /* \"NoBOverround.sol\":5572:5577  token */\n      and\n      swap1\n        /* \"NoBOverround.sol\":5565:5586  IERC20(token).approve */\n      0x095ea7b3\n      swap1\n        /* \"#utility.yul\":14626:14644   */\n      0x44\n      add\n        /* \"NoBOverround.sol\":5565:5613  IERC20(token).approve(address(CT), tokensToMint) */\n      0x20\n      mload(0x40)\n      dup1\n      dup4\n      sub\n      dup2\n      0x00\n      dup8\n      gas\n      call\n      iszero\n      dup1\n      iszero\n      tag_840\n      jumpi\n      returndatasize\n      0x00\n      dup1\n      returndatacopy\n      revert(0x00, returndatasize)\n    tag_840:\n      pop\n      pop\n      pop\n      pop\n      mload(0x40)\n      returndatasize\n      not(0x1f)\n      0x1f\n      dup3\n      add\n      and\n      dup3\n      add\n      dup1\n      0x40\n      mstore\n      pop\n      dup2\n      add\n      swap1\n      tag_841\n      swap2\n      swap1\n      tag_696\n      jump\t// in\n    tag_841:\n      pop\n        /* \"NoBOverround.sol\":5623:5625  CT */\n      sload(0x07)\n        /* \"NoBOverround.sol\":5647:5652  token */\n      sload(0x08)\n        /* \"NoBOverround.sol\":5667:5676  condition */\n      sload(0x06)\n      sub(shl(0xa0, 0x01), 0x01)\n        /* \"NoBOverround.sol\":5623:5625  CT */\n      swap3\n      dup4\n      and\n      swap3\n        /* \"NoBOverround.sol\":5623:5639  CT.splitPosition */\n      0x72ce4275\n      swap3\n        /* \"NoBOverround.sol\":5647:5652  token */\n      and\n      swap1\n        /* \"NoBOverround.sol\":5623:5625  CT */\n      0x00\n      swap1\n        /* \"NoBOverround.sol\":5690:5727  getPositionAndDustPositions(_outcome) */\n      tag_842\n        /* \"NoBOverround.sol\":5718:5726  _outcome */\n      dup13\n        /* \"NoBOverround.sol\":5690:5717  getPositionAndDustPositions */\n      tag_141\n        /* \"NoBOverround.sol\":5690:5727  getPositionAndDustPositions(_outcome) */\n      jump\t// in\n    tag_842:\n        /* \"NoBOverround.sol\":5729:5741  tokensToMint */\n      dup7\n        /* \"NoBOverround.sol\":5623:5742  CT.splitPosition(IERC20(token), bytes32(0), condition,... */\n      mload(0x40)\n      dup7\n      0xffffffff\n      and\n      0xe0\n      shl\n      dup2\n      mstore\n      0x04\n      add\n      tag_843\n      swap6\n      swap5\n      swap4\n      swap3\n      swap2\n      swap1\n      tag_634\n      jump\t// in\n    tag_843:\n      0x00\n      mload(0x40)\n      dup1\n      dup4\n      sub\n      dup2\n      0x00\n      dup8\n      dup1\n      extcodesize\n      iszero\n      dup1\n      iszero\n      tag_844\n      jumpi\n      0x00\n      dup1\n      revert\n    tag_844:\n      pop\n      gas\n      call\n      iszero\n      dup1\n      iszero\n      tag_846\n      jumpi\n      returndatasize\n      0x00\n      dup1\n      returndatacopy\n      revert(0x00, returndatasize)\n    tag_846:\n      pop\n      pop\n      pop\n      pop\n        /* \"NoBOverround.sol\":5417:5749  {... */\n      pop\n        /* \"NoBOverround.sol\":5403:5749  if (willMint) {... */\n    tag_836:\n        /* \"NoBOverround.sol\":5754:5756  CT */\n      sload(0x07)\n        /* \"NoBOverround.sol\":5754:5827  CT.safeTransferFrom(address(this), msg.sender, pos, n_outcome_tokens, '') */\n      mload(0x40)\n      shl(0xe1, 0x79212195)\n      dup2\n      mstore\n        /* \"NoBOverround.sol\":5782:5786  this */\n      address\n        /* \"NoBOverround.sol\":5754:5827  CT.safeTransferFrom(address(this), msg.sender, pos, n_outcome_tokens, '') */\n      0x04\n      dup3\n      add\n        /* \"#utility.yul\":20276:20310   */\n      mstore\n        /* \"NoBOverround.sol\":5789:5799  msg.sender */\n      caller\n        /* \"#utility.yul\":20326:20344   */\n      0x24\n      dup3\n      add\n        /* \"#utility.yul\":20319:20362   */\n      mstore\n        /* \"#utility.yul\":20378:20396   */\n      0x44\n      dup2\n      add\n        /* \"#utility.yul\":20371:20405   */\n      dup6\n      swap1\n      mstore\n        /* \"#utility.yul\":20421:20439   */\n      0x64\n      dup2\n      add\n        /* \"#utility.yul\":20414:20448   */\n      dup7\n      swap1\n      mstore\n        /* \"#utility.yul\":20485:20488   */\n      0xa0\n        /* \"#utility.yul\":20464:20483   */\n      0x84\n      dup3\n      add\n        /* \"#utility.yul\":20457:20489   */\n      mstore\n      0x00\n        /* \"#utility.yul\":20505:20524   */\n      0xa4\n      dup3\n      add\n        /* \"#utility.yul\":20498:20528   */\n      mstore\n      sub(shl(0xa0, 0x01), 0x01)\n        /* \"NoBOverround.sol\":5754:5756  CT */\n      swap1\n      swap2\n      and\n      swap1\n        /* \"NoBOverround.sol\":5754:5773  CT.safeTransferFrom */\n      0xf242432a\n      swap1\n        /* \"#utility.yul\":20545:20564   */\n      0xc4\n      add\n        /* \"NoBOverround.sol\":5754:5827  CT.safeTransferFrom(address(this), msg.sender, pos, n_outcome_tokens, '') */\n      tag_311\n        /* \"#utility.yul\":19920:20570   */\n      jump\n        /* \"ABDKMath64x64.sol\":15544:22385  function exp_2 (int128 x) internal pure returns (int128) {... */\n    tag_731:\n        /* \"ABDKMath64x64.sol\":15593:15599  int128 */\n      0x00\n        /* \"ABDKMath64x64.sol\":15638:15658  0x400000000000000000 */\n      0x400000000000000000\n        /* \"ABDKMath64x64.sol\":15634:15635  x */\n      dup3\n        /* \"ABDKMath64x64.sol\":15634:15658  x < 0x400000000000000000 */\n      0x0f\n      signextend\n      slt\n        /* \"ABDKMath64x64.sol\":15625:15659  require (x < 0x400000000000000000) */\n      tag_852\n      jumpi\n      0x00\n      dup1\n      revert\n    tag_852:\n      not(0x3fffffffffffffffff)\n        /* \"ABDKMath64x64.sol\":15684:15685  x */\n      dup3\n        /* \"ABDKMath64x64.sol\":15684:15709  x < -0x400000000000000000 */\n      0x0f\n      signextend\n      slt\n        /* \"ABDKMath64x64.sol\":15680:15719  if (x < -0x400000000000000000) return 0 */\n      iszero\n      tag_853\n      jumpi\n      pop\n        /* \"ABDKMath64x64.sol\":15718:15719  0 */\n      0x00\n      swap2\n        /* \"ABDKMath64x64.sol\":15544:22385  function exp_2 (int128 x) internal pure returns (int128) {... */\n      swap1\n      pop\n      jump\t// out\n        /* \"ABDKMath64x64.sol\":15680:15719  if (x < -0x400000000000000000) return 0 */\n    tag_853:\n        /* \"ABDKMath64x64.sol\":15758:15792  0x80000000000000000000000000000000 */\n      0x80000000000000000000000000000000\n        /* \"ABDKMath64x64.sol\":15741:15755  uint256 result */\n      0x00\n        /* \"ABDKMath64x64.sol\":15809:15827  0x8000000000000000 */\n      0x8000000000000000\n        /* \"ABDKMath64x64.sol\":15805:15827  x & 0x8000000000000000 */\n      dup5\n      and\n        /* \"ABDKMath64x64.sol\":15805:15831  x & 0x8000000000000000 > 0 */\n      0x0f\n      signextend\n      sgt\n        /* \"ABDKMath64x64.sol\":15801:15901  if (x & 0x8000000000000000 > 0)... */\n      iszero\n      tag_854\n      jumpi\n        /* \"ABDKMath64x64.sol\":15859:15894  0x16A09E667F3BCC908B2FB1366EA957D3E */\n      0x016a09e667f3bcc908b2fb1366ea957d3e\n        /* \"ABDKMath64x64.sol\":15850:15894  result * 0x16A09E667F3BCC908B2FB1366EA957D3E */\n      mul\n        /* \"ABDKMath64x64.sol\":15898:15901  128 */\n      0x80\n        /* \"ABDKMath64x64.sol\":15850:15901  result * 0x16A09E667F3BCC908B2FB1366EA957D3E >> 128 */\n      shr\n        /* \"ABDKMath64x64.sol\":15801:15901  if (x & 0x8000000000000000 > 0)... */\n    tag_854:\n        /* \"ABDKMath64x64.sol\":15938:15939  0 */\n      0x00\n        /* \"ABDKMath64x64.sol\":15913:15914  x */\n      dup4\n        /* \"ABDKMath64x64.sol\":15917:15935  0x4000000000000000 */\n      0x4000000000000000\n        /* \"ABDKMath64x64.sol\":15913:15935  x & 0x4000000000000000 */\n      and\n        /* \"ABDKMath64x64.sol\":15913:15939  x & 0x4000000000000000 > 0 */\n      0x0f\n      signextend\n      sgt\n        /* \"ABDKMath64x64.sol\":15909:16009  if (x & 0x4000000000000000 > 0)... */\n      iszero\n      tag_855\n      jumpi\n        /* \"ABDKMath64x64.sol\":15967:16002  0x1306FE0A31B7152DE8D5A46305C85EDEC */\n      0x01306fe0a31b7152de8d5a46305c85edec\n        /* \"ABDKMath64x64.sol\":15958:16002  result * 0x1306FE0A31B7152DE8D5A46305C85EDEC */\n      mul\n        /* \"ABDKMath64x64.sol\":16006:16009  128 */\n      0x80\n        /* \"ABDKMath64x64.sol\":15958:16009  result * 0x1306FE0A31B7152DE8D5A46305C85EDEC >> 128 */\n      shr\n        /* \"ABDKMath64x64.sol\":15909:16009  if (x & 0x4000000000000000 > 0)... */\n    tag_855:\n        /* \"ABDKMath64x64.sol\":16046:16047  0 */\n      0x00\n        /* \"ABDKMath64x64.sol\":16021:16022  x */\n      dup4\n        /* \"ABDKMath64x64.sol\":16025:16043  0x2000000000000000 */\n      0x2000000000000000\n        /* \"ABDKMath64x64.sol\":16021:16043  x & 0x2000000000000000 */\n      and\n        /* \"ABDKMath64x64.sol\":16021:16047  x & 0x2000000000000000 > 0 */\n      0x0f\n      signextend\n      sgt\n        /* \"ABDKMath64x64.sol\":16017:16117  if (x & 0x2000000000000000 > 0)... */\n      iszero\n      tag_856\n      jumpi\n        /* \"ABDKMath64x64.sol\":16075:16110  0x1172B83C7D517ADCDF7C8C50EB14A791F */\n      0x01172b83c7d517adcdf7c8c50eb14a791f\n        /* \"ABDKMath64x64.sol\":16066:16110  result * 0x1172B83C7D517ADCDF7C8C50EB14A791F */\n      mul\n        /* \"ABDKMath64x64.sol\":16114:16117  128 */\n      0x80\n        /* \"ABDKMath64x64.sol\":16066:16117  result * 0x1172B83C7D517ADCDF7C8C50EB14A791F >> 128 */\n      shr\n        /* \"ABDKMath64x64.sol\":16017:16117  if (x & 0x2000000000000000 > 0)... */\n    tag_856:\n        /* \"ABDKMath64x64.sol\":16154:16155  0 */\n      0x00\n        /* \"ABDKMath64x64.sol\":16129:16130  x */\n      dup4\n        /* \"ABDKMath64x64.sol\":16133:16151  0x1000000000000000 */\n      0x1000000000000000\n        /* \"ABDKMath64x64.sol\":16129:16151  x & 0x1000000000000000 */\n      and\n        /* \"ABDKMath64x64.sol\":16129:16155  x & 0x1000000000000000 > 0 */\n      0x0f\n      signextend\n      sgt\n        /* \"ABDKMath64x64.sol\":16125:16225  if (x & 0x1000000000000000 > 0)... */\n      iszero\n      tag_857\n      jumpi\n        /* \"ABDKMath64x64.sol\":16183:16218  0x10B5586CF9890F6298B92B71842A98363 */\n      0x010b5586cf9890f6298b92b71842a98363\n        /* \"ABDKMath64x64.sol\":16174:16218  result * 0x10B5586CF9890F6298B92B71842A98363 */\n      mul\n        /* \"ABDKMath64x64.sol\":16222:16225  128 */\n      0x80\n        /* \"ABDKMath64x64.sol\":16174:16225  result * 0x10B5586CF9890F6298B92B71842A98363 >> 128 */\n      shr\n        /* \"ABDKMath64x64.sol\":16125:16225  if (x & 0x1000000000000000 > 0)... */\n    tag_857:\n        /* \"ABDKMath64x64.sol\":16261:16262  0 */\n      0x00\n        /* \"ABDKMath64x64.sol\":16237:16238  x */\n      dup4\n        /* \"ABDKMath64x64.sol\":16241:16258  0x800000000000000 */\n      0x0800000000000000\n        /* \"ABDKMath64x64.sol\":16237:16258  x & 0x800000000000000 */\n      and\n        /* \"ABDKMath64x64.sol\":16237:16262  x & 0x800000000000000 > 0 */\n      0x0f\n      signextend\n      sgt\n        /* \"ABDKMath64x64.sol\":16233:16332  if (x & 0x800000000000000 > 0)... */\n      iszero\n      tag_858\n      jumpi\n        /* \"ABDKMath64x64.sol\":16290:16325  0x1059B0D31585743AE7C548EB68CA417FD */\n      0x01059b0d31585743ae7c548eb68ca417fd\n        /* \"ABDKMath64x64.sol\":16281:16325  result * 0x1059B0D31585743AE7C548EB68CA417FD */\n      mul\n        /* \"ABDKMath64x64.sol\":16329:16332  128 */\n      0x80\n        /* \"ABDKMath64x64.sol\":16281:16332  result * 0x1059B0D31585743AE7C548EB68CA417FD >> 128 */\n      shr\n        /* \"ABDKMath64x64.sol\":16233:16332  if (x & 0x800000000000000 > 0)... */\n    tag_858:\n        /* \"ABDKMath64x64.sol\":16368:16369  0 */\n      0x00\n        /* \"ABDKMath64x64.sol\":16344:16345  x */\n      dup4\n        /* \"ABDKMath64x64.sol\":16348:16365  0x400000000000000 */\n      0x0400000000000000\n        /* \"ABDKMath64x64.sol\":16344:16365  x & 0x400000000000000 */\n      and\n        /* \"ABDKMath64x64.sol\":16344:16369  x & 0x400000000000000 > 0 */\n      0x0f\n      signextend\n      sgt\n        /* \"ABDKMath64x64.sol\":16340:16439  if (x & 0x400000000000000 > 0)... */\n      iszero\n      tag_859\n      jumpi\n        /* \"ABDKMath64x64.sol\":16397:16432  0x102C9A3E778060EE6F7CACA4F7A29BDE8 */\n      0x0102c9a3e778060ee6f7caca4f7a29bde8\n        /* \"ABDKMath64x64.sol\":16388:16432  result * 0x102C9A3E778060EE6F7CACA4F7A29BDE8 */\n      mul\n        /* \"ABDKMath64x64.sol\":16436:16439  128 */\n      0x80\n        /* \"ABDKMath64x64.sol\":16388:16439  result * 0x102C9A3E778060EE6F7CACA4F7A29BDE8 >> 128 */\n      shr\n        /* \"ABDKMath64x64.sol\":16340:16439  if (x & 0x400000000000000 > 0)... */\n    tag_859:\n        /* \"ABDKMath64x64.sol\":16475:16476  0 */\n      0x00\n        /* \"ABDKMath64x64.sol\":16451:16452  x */\n      dup4\n        /* \"ABDKMath64x64.sol\":16455:16472  0x200000000000000 */\n      0x0200000000000000\n        /* \"ABDKMath64x64.sol\":16451:16472  x & 0x200000000000000 */\n      and\n        /* \"ABDKMath64x64.sol\":16451:16476  x & 0x200000000000000 > 0 */\n      0x0f\n      signextend\n      sgt\n        /* \"ABDKMath64x64.sol\":16447:16546  if (x & 0x200000000000000 > 0)... */\n      iszero\n      tag_860\n      jumpi\n        /* \"ABDKMath64x64.sol\":16504:16539  0x10163DA9FB33356D84A66AE336DCDFA3F */\n      0x010163da9fb33356d84a66ae336dcdfa3f\n        /* \"ABDKMath64x64.sol\":16495:16539  result * 0x10163DA9FB33356D84A66AE336DCDFA3F */\n      mul\n        /* \"ABDKMath64x64.sol\":16543:16546  128 */\n      0x80\n        /* \"ABDKMath64x64.sol\":16495:16546  result * 0x10163DA9FB33356D84A66AE336DCDFA3F >> 128 */\n      shr\n        /* \"ABDKMath64x64.sol\":16447:16546  if (x & 0x200000000000000 > 0)... */\n    tag_860:\n        /* \"ABDKMath64x64.sol\":16582:16583  0 */\n      0x00\n        /* \"ABDKMath64x64.sol\":16558:16559  x */\n      dup4\n        /* \"ABDKMath64x64.sol\":16562:16579  0x100000000000000 */\n      0x0100000000000000\n        /* \"ABDKMath64x64.sol\":16558:16579  x & 0x100000000000000 */\n      and\n        /* \"ABDKMath64x64.sol\":16558:16583  x & 0x100000000000000 > 0 */\n      0x0f\n      signextend\n      sgt\n        /* \"ABDKMath64x64.sol\":16554:16653  if (x & 0x100000000000000 > 0)... */\n      iszero\n      tag_861\n      jumpi\n        /* \"ABDKMath64x64.sol\":16611:16646  0x100B1AFA5ABCBED6129AB13EC11DC9543 */\n      0x0100b1afa5abcbed6129ab13ec11dc9543\n        /* \"ABDKMath64x64.sol\":16602:16646  result * 0x100B1AFA5ABCBED6129AB13EC11DC9543 */\n      mul\n        /* \"ABDKMath64x64.sol\":16650:16653  128 */\n      0x80\n        /* \"ABDKMath64x64.sol\":16602:16653  result * 0x100B1AFA5ABCBED6129AB13EC11DC9543 >> 128 */\n      shr\n        /* \"ABDKMath64x64.sol\":16554:16653  if (x & 0x100000000000000 > 0)... */\n    tag_861:\n        /* \"ABDKMath64x64.sol\":16688:16689  0 */\n      0x00\n        /* \"ABDKMath64x64.sol\":16665:16666  x */\n      dup4\n        /* \"ABDKMath64x64.sol\":16669:16685  0x80000000000000 */\n      0x80000000000000\n        /* \"ABDKMath64x64.sol\":16665:16685  x & 0x80000000000000 */\n      and\n        /* \"ABDKMath64x64.sol\":16665:16689  x & 0x80000000000000 > 0 */\n      0x0f\n      signextend\n      sgt\n        /* \"ABDKMath64x64.sol\":16661:16759  if (x & 0x80000000000000 > 0)... */\n      iszero\n      tag_862\n      jumpi\n        /* \"ABDKMath64x64.sol\":16717:16752  0x10058C86DA1C09EA1FF19D294CF2F679B */\n      0x010058c86da1c09ea1ff19d294cf2f679b\n        /* \"ABDKMath64x64.sol\":16708:16752  result * 0x10058C86DA1C09EA1FF19D294CF2F679B */\n      mul\n        /* \"ABDKMath64x64.sol\":16756:16759  128 */\n      0x80\n        /* \"ABDKMath64x64.sol\":16708:16759  result * 0x10058C86DA1C09EA1FF19D294CF2F679B >> 128 */\n      shr\n        /* \"ABDKMath64x64.sol\":16661:16759  if (x & 0x80000000000000 > 0)... */\n    tag_862:\n        /* \"ABDKMath64x64.sol\":16794:16795  0 */\n      0x00\n        /* \"ABDKMath64x64.sol\":16771:16772  x */\n      dup4\n        /* \"ABDKMath64x64.sol\":16775:16791  0x40000000000000 */\n      0x40000000000000\n        /* \"ABDKMath64x64.sol\":16771:16791  x & 0x40000000000000 */\n      and\n        /* \"ABDKMath64x64.sol\":16771:16795  x & 0x40000000000000 > 0 */\n      0x0f\n      signextend\n      sgt\n        /* \"ABDKMath64x64.sol\":16767:16865  if (x & 0x40000000000000 > 0)... */\n      iszero\n      tag_863\n      jumpi\n        /* \"ABDKMath64x64.sol\":16823:16858  0x1002C605E2E8CEC506D21BFC89A23A00F */\n      0x01002c605e2e8cec506d21bfc89a23a00f\n        /* \"ABDKMath64x64.sol\":16814:16858  result * 0x1002C605E2E8CEC506D21BFC89A23A00F */\n      mul\n        /* \"ABDKMath64x64.sol\":16862:16865  128 */\n      0x80\n        /* \"ABDKMath64x64.sol\":16814:16865  result * 0x1002C605E2E8CEC506D21BFC89A23A00F >> 128 */\n      shr\n        /* \"ABDKMath64x64.sol\":16767:16865  if (x & 0x40000000000000 > 0)... */\n    tag_863:\n        /* \"ABDKMath64x64.sol\":16900:16901  0 */\n      0x00\n        /* \"ABDKMath64x64.sol\":16877:16878  x */\n      dup4\n        /* \"ABDKMath64x64.sol\":16881:16897  0x20000000000000 */\n      0x20000000000000\n        /* \"ABDKMath64x64.sol\":16877:16897  x & 0x20000000000000 */\n      and\n        /* \"ABDKMath64x64.sol\":16877:16901  x & 0x20000000000000 > 0 */\n      0x0f\n      signextend\n      sgt\n        /* \"ABDKMath64x64.sol\":16873:16971  if (x & 0x20000000000000 > 0)... */\n      iszero\n      tag_864\n      jumpi\n        /* \"ABDKMath64x64.sol\":16929:16964  0x100162F3904051FA128BCA9C55C31E5DF */\n      0x0100162f3904051fa128bca9c55c31e5df\n        /* \"ABDKMath64x64.sol\":16920:16964  result * 0x100162F3904051FA128BCA9C55C31E5DF */\n      mul\n        /* \"ABDKMath64x64.sol\":16968:16971  128 */\n      0x80\n        /* \"ABDKMath64x64.sol\":16920:16971  result * 0x100162F3904051FA128BCA9C55C31E5DF >> 128 */\n      shr\n        /* \"ABDKMath64x64.sol\":16873:16971  if (x & 0x20000000000000 > 0)... */\n    tag_864:\n        /* \"ABDKMath64x64.sol\":17006:17007  0 */\n      0x00\n        /* \"ABDKMath64x64.sol\":16983:16984  x */\n      dup4\n        /* \"ABDKMath64x64.sol\":16987:17003  0x10000000000000 */\n      0x10000000000000\n        /* \"ABDKMath64x64.sol\":16983:17003  x & 0x10000000000000 */\n      and\n        /* \"ABDKMath64x64.sol\":16983:17007  x & 0x10000000000000 > 0 */\n      0x0f\n      signextend\n      sgt\n        /* \"ABDKMath64x64.sol\":16979:17077  if (x & 0x10000000000000 > 0)... */\n      iszero\n      tag_865\n      jumpi\n        /* \"ABDKMath64x64.sol\":17035:17070  0x1000B175EFFDC76BA38E31671CA939725 */\n      0x01000b175effdc76ba38e31671ca939725\n        /* \"ABDKMath64x64.sol\":17026:17070  result * 0x1000B175EFFDC76BA38E31671CA939725 */\n      mul\n        /* \"ABDKMath64x64.sol\":17074:17077  128 */\n      0x80\n        /* \"ABDKMath64x64.sol\":17026:17077  result * 0x1000B175EFFDC76BA38E31671CA939725 >> 128 */\n      shr\n        /* \"ABDKMath64x64.sol\":16979:17077  if (x & 0x10000000000000 > 0)... */\n    tag_865:\n        /* \"ABDKMath64x64.sol\":17111:17112  0 */\n      0x00\n        /* \"ABDKMath64x64.sol\":17089:17090  x */\n      dup4\n        /* \"ABDKMath64x64.sol\":17093:17108  0x8000000000000 */\n      0x08000000000000\n        /* \"ABDKMath64x64.sol\":17089:17108  x & 0x8000000000000 */\n      and\n        /* \"ABDKMath64x64.sol\":17089:17112  x & 0x8000000000000 > 0 */\n      0x0f\n      signextend\n      sgt\n        /* \"ABDKMath64x64.sol\":17085:17182  if (x & 0x8000000000000 > 0)... */\n      iszero\n      tag_866\n      jumpi\n        /* \"ABDKMath64x64.sol\":17140:17175  0x100058BA01FB9F96D6CACD4B180917C3D */\n      0x0100058ba01fb9f96d6cacd4b180917c3d\n        /* \"ABDKMath64x64.sol\":17131:17175  result * 0x100058BA01FB9F96D6CACD4B180917C3D */\n      mul\n        /* \"ABDKMath64x64.sol\":17179:17182  128 */\n      0x80\n        /* \"ABDKMath64x64.sol\":17131:17182  result * 0x100058BA01FB9F96D6CACD4B180917C3D >> 128 */\n      shr\n        /* \"ABDKMath64x64.sol\":17085:17182  if (x & 0x8000000000000 > 0)... */\n    tag_866:\n        /* \"ABDKMath64x64.sol\":17216:17217  0 */\n      0x00\n        /* \"ABDKMath64x64.sol\":17194:17195  x */\n      dup4\n        /* \"ABDKMath64x64.sol\":17198:17213  0x4000000000000 */\n      0x04000000000000\n        /* \"ABDKMath64x64.sol\":17194:17213  x & 0x4000000000000 */\n      and\n        /* \"ABDKMath64x64.sol\":17194:17217  x & 0x4000000000000 > 0 */\n      0x0f\n      signextend\n      sgt\n        /* \"ABDKMath64x64.sol\":17190:17287  if (x & 0x4000000000000 > 0)... */\n      iszero\n      tag_867\n      jumpi\n        /* \"ABDKMath64x64.sol\":17245:17280  0x10002C5CC37DA9491D0985C348C68E7B3 */\n      0x010002c5cc37da9491d0985c348c68e7b3\n        /* \"ABDKMath64x64.sol\":17236:17280  result * 0x10002C5CC37DA9491D0985C348C68E7B3 */\n      mul\n        /* \"ABDKMath64x64.sol\":17284:17287  128 */\n      0x80\n        /* \"ABDKMath64x64.sol\":17236:17287  result * 0x10002C5CC37DA9491D0985C348C68E7B3 >> 128 */\n      shr\n        /* \"ABDKMath64x64.sol\":17190:17287  if (x & 0x4000000000000 > 0)... */\n    tag_867:\n        /* \"ABDKMath64x64.sol\":17321:17322  0 */\n      0x00\n        /* \"ABDKMath64x64.sol\":17299:17300  x */\n      dup4\n        /* \"ABDKMath64x64.sol\":17303:17318  0x2000000000000 */\n      0x02000000000000\n        /* \"ABDKMath64x64.sol\":17299:17318  x & 0x2000000000000 */\n      and\n        /* \"ABDKMath64x64.sol\":17299:17322  x & 0x2000000000000 > 0 */\n      0x0f\n      signextend\n      sgt\n        /* \"ABDKMath64x64.sol\":17295:17392  if (x & 0x2000000000000 > 0)... */\n      iszero\n      tag_868\n      jumpi\n        /* \"ABDKMath64x64.sol\":17350:17385  0x1000162E525EE054754457D5995292026 */\n      0x01000162e525ee054754457d5995292026\n        /* \"ABDKMath64x64.sol\":17341:17385  result * 0x1000162E525EE054754457D5995292026 */\n      mul\n        /* \"ABDKMath64x64.sol\":17389:17392  128 */\n      0x80\n        /* \"ABDKMath64x64.sol\":17341:17392  result * 0x1000162E525EE054754457D5995292026 >> 128 */\n      shr\n        /* \"ABDKMath64x64.sol\":17295:17392  if (x & 0x2000000000000 > 0)... */\n    tag_868:\n        /* \"ABDKMath64x64.sol\":17426:17427  0 */\n      0x00\n        /* \"ABDKMath64x64.sol\":17404:17405  x */\n      dup4\n        /* \"ABDKMath64x64.sol\":17408:17423  0x1000000000000 */\n      0x01000000000000\n        /* \"ABDKMath64x64.sol\":17404:17423  x & 0x1000000000000 */\n      and\n        /* \"ABDKMath64x64.sol\":17404:17427  x & 0x1000000000000 > 0 */\n      0x0f\n      signextend\n      sgt\n        /* \"ABDKMath64x64.sol\":17400:17497  if (x & 0x1000000000000 > 0)... */\n      iszero\n      tag_869\n      jumpi\n        /* \"ABDKMath64x64.sol\":17455:17490  0x10000B17255775C040618BF4A4ADE83FC */\n      0x010000b17255775c040618bf4a4ade83fc\n        /* \"ABDKMath64x64.sol\":17446:17490  result * 0x10000B17255775C040618BF4A4ADE83FC */\n      mul\n        /* \"ABDKMath64x64.sol\":17494:17497  128 */\n      0x80\n        /* \"ABDKMath64x64.sol\":17446:17497  result * 0x10000B17255775C040618BF4A4ADE83FC >> 128 */\n      shr\n        /* \"ABDKMath64x64.sol\":17400:17497  if (x & 0x1000000000000 > 0)... */\n    tag_869:\n        /* \"ABDKMath64x64.sol\":17530:17531  0 */\n      0x00\n        /* \"ABDKMath64x64.sol\":17509:17510  x */\n      dup4\n        /* \"ABDKMath64x64.sol\":17513:17527  0x800000000000 */\n      0x800000000000\n        /* \"ABDKMath64x64.sol\":17509:17527  x & 0x800000000000 */\n      and\n        /* \"ABDKMath64x64.sol\":17509:17531  x & 0x800000000000 > 0 */\n      0x0f\n      signextend\n      sgt\n        /* \"ABDKMath64x64.sol\":17505:17601  if (x & 0x800000000000 > 0)... */\n      iszero\n      tag_870\n      jumpi\n        /* \"ABDKMath64x64.sol\":17559:17594  0x1000058B91B5BC9AE2EED81E9B7D4CFAB */\n      0x01000058b91b5bc9ae2eed81e9b7d4cfab\n        /* \"ABDKMath64x64.sol\":17550:17594  result * 0x1000058B91B5BC9AE2EED81E9B7D4CFAB */\n      mul\n        /* \"ABDKMath64x64.sol\":17598:17601  128 */\n      0x80\n        /* \"ABDKMath64x64.sol\":17550:17601  result * 0x1000058B91B5BC9AE2EED81E9B7D4CFAB >> 128 */\n      shr\n        /* \"ABDKMath64x64.sol\":17505:17601  if (x & 0x800000000000 > 0)... */\n    tag_870:\n        /* \"ABDKMath64x64.sol\":17634:17635  0 */\n      0x00\n        /* \"ABDKMath64x64.sol\":17613:17614  x */\n      dup4\n        /* \"ABDKMath64x64.sol\":17617:17631  0x400000000000 */\n      0x400000000000\n        /* \"ABDKMath64x64.sol\":17613:17631  x & 0x400000000000 */\n      and\n        /* \"ABDKMath64x64.sol\":17613:17635  x & 0x400000000000 > 0 */\n      0x0f\n      signextend\n      sgt\n        /* \"ABDKMath64x64.sol\":17609:17705  if (x & 0x400000000000 > 0)... */\n      iszero\n      tag_871\n      jumpi\n        /* \"ABDKMath64x64.sol\":17663:17698  0x100002C5C89D5EC6CA4D7C8ACC017B7C9 */\n      0x0100002c5c89d5ec6ca4d7c8acc017b7c9\n        /* \"ABDKMath64x64.sol\":17654:17698  result * 0x100002C5C89D5EC6CA4D7C8ACC017B7C9 */\n      mul\n        /* \"ABDKMath64x64.sol\":17702:17705  128 */\n      0x80\n        /* \"ABDKMath64x64.sol\":17654:17705  result * 0x100002C5C89D5EC6CA4D7C8ACC017B7C9 >> 128 */\n      shr\n        /* \"ABDKMath64x64.sol\":17609:17705  if (x & 0x400000000000 > 0)... */\n    tag_871:\n        /* \"ABDKMath64x64.sol\":17738:17739  0 */\n      0x00\n        /* \"ABDKMath64x64.sol\":17717:17718  x */\n      dup4\n        /* \"ABDKMath64x64.sol\":17721:17735  0x200000000000 */\n      0x200000000000\n        /* \"ABDKMath64x64.sol\":17717:17735  x & 0x200000000000 */\n      and\n        /* \"ABDKMath64x64.sol\":17717:17739  x & 0x200000000000 > 0 */\n      0x0f\n      signextend\n      sgt\n        /* \"ABDKMath64x64.sol\":17713:17809  if (x & 0x200000000000 > 0)... */\n      iszero\n      tag_872\n      jumpi\n        /* \"ABDKMath64x64.sol\":17767:17802  0x10000162E43F4F831060E02D839A9D16D */\n      0x010000162e43f4f831060e02d839a9d16d\n        /* \"ABDKMath64x64.sol\":17758:17802  result * 0x10000162E43F4F831060E02D839A9D16D */\n      mul\n        /* \"ABDKMath64x64.sol\":17806:17809  128 */\n      0x80\n        /* \"ABDKMath64x64.sol\":17758:17809  result * 0x10000162E43F4F831060E02D839A9D16D >> 128 */\n      shr\n        /* \"ABDKMath64x64.sol\":17713:17809  if (x & 0x200000000000 > 0)... */\n    tag_872:\n        /* \"ABDKMath64x64.sol\":17842:17843  0 */\n      0x00\n        /* \"ABDKMath64x64.sol\":17821:17822  x */\n      dup4\n        /* \"ABDKMath64x64.sol\":17825:17839  0x100000000000 */\n      0x100000000000\n        /* \"ABDKMath64x64.sol\":17821:17839  x & 0x100000000000 */\n      and\n        /* \"ABDKMath64x64.sol\":17821:17843  x & 0x100000000000 > 0 */\n      0x0f\n      signextend\n      sgt\n        /* \"ABDKMath64x64.sol\":17817:17913  if (x & 0x100000000000 > 0)... */\n      iszero\n      tag_873\n      jumpi\n        /* \"ABDKMath64x64.sol\":17871:17906  0x100000B1721BCFC99D9F890EA06911763 */\n      0x0100000b1721bcfc99d9f890ea06911763\n        /* \"ABDKMath64x64.sol\":17862:17906  result * 0x100000B1721BCFC99D9F890EA06911763 */\n      mul\n        /* \"ABDKMath64x64.sol\":17910:17913  128 */\n      0x80\n        /* \"ABDKMath64x64.sol\":17862:17913  result * 0x100000B1721BCFC99D9F890EA06911763 >> 128 */\n      shr\n        /* \"ABDKMath64x64.sol\":17817:17913  if (x & 0x100000000000 > 0)... */\n    tag_873:\n        /* \"ABDKMath64x64.sol\":17945:17946  0 */\n      0x00\n        /* \"ABDKMath64x64.sol\":17925:17926  x */\n      dup4\n        /* \"ABDKMath64x64.sol\":17929:17942  0x80000000000 */\n      0x080000000000\n        /* \"ABDKMath64x64.sol\":17925:17942  x & 0x80000000000 */\n      and\n        /* \"ABDKMath64x64.sol\":17925:17946  x & 0x80000000000 > 0 */\n      0x0f\n      signextend\n      sgt\n        /* \"ABDKMath64x64.sol\":17921:18016  if (x & 0x80000000000 > 0)... */\n      iszero\n      tag_874\n      jumpi\n        /* \"ABDKMath64x64.sol\":17974:18009  0x10000058B90CF1E6D97F9CA14DBCC1628 */\n      0x010000058b90cf1e6d97f9ca14dbcc1628\n        /* \"ABDKMath64x64.sol\":17965:18009  result * 0x10000058B90CF1E6D97F9CA14DBCC1628 */\n      mul\n        /* \"ABDKMath64x64.sol\":18013:18016  128 */\n      0x80\n        /* \"ABDKMath64x64.sol\":17965:18016  result * 0x10000058B90CF1E6D97F9CA14DBCC1628 >> 128 */\n      shr\n        /* \"ABDKMath64x64.sol\":17921:18016  if (x & 0x80000000000 > 0)... */\n    tag_874:\n        /* \"ABDKMath64x64.sol\":18048:18049  0 */\n      0x00\n        /* \"ABDKMath64x64.sol\":18028:18029  x */\n      dup4\n        /* \"ABDKMath64x64.sol\":18032:18045  0x40000000000 */\n      0x040000000000\n        /* \"ABDKMath64x64.sol\":18028:18045  x & 0x40000000000 */\n      and\n        /* \"ABDKMath64x64.sol\":18028:18049  x & 0x40000000000 > 0 */\n      0x0f\n      signextend\n      sgt\n        /* \"ABDKMath64x64.sol\":18024:18119  if (x & 0x40000000000 > 0)... */\n      iszero\n      tag_875\n      jumpi\n        /* \"ABDKMath64x64.sol\":18077:18112  0x1000002C5C863B73F016468F6BAC5CA2B */\n      0x01000002c5c863b73f016468f6bac5ca2b\n        /* \"ABDKMath64x64.sol\":18068:18112  result * 0x1000002C5C863B73F016468F6BAC5CA2B */\n      mul\n        /* \"ABDKMath64x64.sol\":18116:18119  128 */\n      0x80\n        /* \"ABDKMath64x64.sol\":18068:18119  result * 0x1000002C5C863B73F016468F6BAC5CA2B >> 128 */\n      shr\n        /* \"ABDKMath64x64.sol\":18024:18119  if (x & 0x40000000000 > 0)... */\n    tag_875:\n        /* \"ABDKMath64x64.sol\":18151:18152  0 */\n      0x00\n        /* \"ABDKMath64x64.sol\":18131:18132  x */\n      dup4\n        /* \"ABDKMath64x64.sol\":18135:18148  0x20000000000 */\n      0x020000000000\n        /* \"ABDKMath64x64.sol\":18131:18148  x & 0x20000000000 */\n      and\n        /* \"ABDKMath64x64.sol\":18131:18152  x & 0x20000000000 > 0 */\n      0x0f\n      signextend\n      sgt\n        /* \"ABDKMath64x64.sol\":18127:18222  if (x & 0x20000000000 > 0)... */\n      iszero\n      tag_876\n      jumpi\n        /* \"ABDKMath64x64.sol\":18180:18215  0x100000162E430E5A18F6119E3C02282A5 */\n      0x0100000162e430e5a18f6119e3c02282a5\n        /* \"ABDKMath64x64.sol\":18171:18215  result * 0x100000162E430E5A18F6119E3C02282A5 */\n      mul\n        /* \"ABDKMath64x64.sol\":18219:18222  128 */\n      0x80\n        /* \"ABDKMath64x64.sol\":18171:18222  result * 0x100000162E430E5A18F6119E3C02282A5 >> 128 */\n      shr\n        /* \"ABDKMath64x64.sol\":18127:18222  if (x & 0x20000000000 > 0)... */\n    tag_876:\n        /* \"ABDKMath64x64.sol\":18254:18255  0 */\n      0x00\n        /* \"ABDKMath64x64.sol\":18234:18235  x */\n      dup4\n        /* \"ABDKMath64x64.sol\":18238:18251  0x10000000000 */\n      0x010000000000\n        /* \"ABDKMath64x64.sol\":18234:18251  x & 0x10000000000 */\n      and\n        /* \"ABDKMath64x64.sol\":18234:18255  x & 0x10000000000 > 0 */\n      0x0f\n      signextend\n      sgt\n        /* \"ABDKMath64x64.sol\":18230:18325  if (x & 0x10000000000 > 0)... */\n      iszero\n      tag_877\n      jumpi\n        /* \"ABDKMath64x64.sol\":18283:18318  0x1000000B1721835514B86E6D96EFD1BFE */\n      0x01000000b1721835514b86e6d96efd1bfe\n        /* \"ABDKMath64x64.sol\":18274:18318  result * 0x1000000B1721835514B86E6D96EFD1BFE */\n      mul\n        /* \"ABDKMath64x64.sol\":18322:18325  128 */\n      0x80\n        /* \"ABDKMath64x64.sol\":18274:18325  result * 0x1000000B1721835514B86E6D96EFD1BFE >> 128 */\n      shr\n        /* \"ABDKMath64x64.sol\":18230:18325  if (x & 0x10000000000 > 0)... */\n    tag_877:\n        /* \"ABDKMath64x64.sol\":18356:18357  0 */\n      0x00\n        /* \"ABDKMath64x64.sol\":18337:18338  x */\n      dup4\n        /* \"ABDKMath64x64.sol\":18341:18353  0x8000000000 */\n      0x8000000000\n        /* \"ABDKMath64x64.sol\":18337:18353  x & 0x8000000000 */\n      and\n        /* \"ABDKMath64x64.sol\":18337:18357  x & 0x8000000000 > 0 */\n      0x0f\n      signextend\n      sgt\n        /* \"ABDKMath64x64.sol\":18333:18427  if (x & 0x8000000000 > 0)... */\n      iszero\n      tag_878\n      jumpi\n        /* \"ABDKMath64x64.sol\":18385:18420  0x100000058B90C0B48C6BE5DF846C5B2EF */\n      0x0100000058b90c0b48c6be5df846c5b2ef\n        /* \"ABDKMath64x64.sol\":18376:18420  result * 0x100000058B90C0B48C6BE5DF846C5B2EF */\n      mul\n        /* \"ABDKMath64x64.sol\":18424:18427  128 */\n      0x80\n        /* \"ABDKMath64x64.sol\":18376:18427  result * 0x100000058B90C0B48C6BE5DF846C5B2EF >> 128 */\n      shr\n        /* \"ABDKMath64x64.sol\":18333:18427  if (x & 0x8000000000 > 0)... */\n    tag_878:\n        /* \"ABDKMath64x64.sol\":18458:18459  0 */\n      0x00\n        /* \"ABDKMath64x64.sol\":18439:18440  x */\n      dup4\n        /* \"ABDKMath64x64.sol\":18443:18455  0x4000000000 */\n      0x4000000000\n        /* \"ABDKMath64x64.sol\":18439:18455  x & 0x4000000000 */\n      and\n        /* \"ABDKMath64x64.sol\":18439:18459  x & 0x4000000000 > 0 */\n      0x0f\n      signextend\n      sgt\n        /* \"ABDKMath64x64.sol\":18435:18529  if (x & 0x4000000000 > 0)... */\n      iszero\n      tag_879\n      jumpi\n        /* \"ABDKMath64x64.sol\":18487:18522  0x10000002C5C8601CC6B9E94213C72737A */\n      0x010000002c5c8601cc6b9e94213c72737a\n        /* \"ABDKMath64x64.sol\":18478:18522  result * 0x10000002C5C8601CC6B9E94213C72737A */\n      mul\n        /* \"ABDKMath64x64.sol\":18526:18529  128 */\n      0x80\n        /* \"ABDKMath64x64.sol\":18478:18529  result * 0x10000002C5C8601CC6B9E94213C72737A >> 128 */\n      shr\n        /* \"ABDKMath64x64.sol\":18435:18529  if (x & 0x4000000000 > 0)... */\n    tag_879:\n        /* \"ABDKMath64x64.sol\":18560:18561  0 */\n      0x00\n        /* \"ABDKMath64x64.sol\":18541:18542  x */\n      dup4\n        /* \"ABDKMath64x64.sol\":18545:18557  0x2000000000 */\n      0x2000000000\n        /* \"ABDKMath64x64.sol\":18541:18557  x & 0x2000000000 */\n      and\n        /* \"ABDKMath64x64.sol\":18541:18561  x & 0x2000000000 > 0 */\n      0x0f\n      signextend\n      sgt\n        /* \"ABDKMath64x64.sol\":18537:18631  if (x & 0x2000000000 > 0)... */\n      iszero\n      tag_880\n      jumpi\n        /* \"ABDKMath64x64.sol\":18589:18624  0x1000000162E42FFF037DF38AA2B219F06 */\n      0x01000000162e42fff037df38aa2b219f06\n        /* \"ABDKMath64x64.sol\":18580:18624  result * 0x1000000162E42FFF037DF38AA2B219F06 */\n      mul\n        /* \"ABDKMath64x64.sol\":18628:18631  128 */\n      0x80\n        /* \"ABDKMath64x64.sol\":18580:18631  result * 0x1000000162E42FFF037DF38AA2B219F06 >> 128 */\n      shr\n        /* \"ABDKMath64x64.sol\":18537:18631  if (x & 0x2000000000 > 0)... */\n    tag_880:\n        /* \"ABDKMath64x64.sol\":18662:18663  0 */\n      0x00\n        /* \"ABDKMath64x64.sol\":18643:18644  x */\n      dup4\n        /* \"ABDKMath64x64.sol\":18647:18659  0x1000000000 */\n      0x1000000000\n        /* \"ABDKMath64x64.sol\":18643:18659  x & 0x1000000000 */\n      and\n        /* \"ABDKMath64x64.sol\":18643:18663  x & 0x1000000000 > 0 */\n      0x0f\n      signextend\n      sgt\n        /* \"ABDKMath64x64.sol\":18639:18733  if (x & 0x1000000000 > 0)... */\n      iszero\n      tag_881\n      jumpi\n        /* \"ABDKMath64x64.sol\":18691:18726  0x10000000B17217FBA9C739AA5819F44F9 */\n      0x010000000b17217fba9c739aa5819f44f9\n        /* \"ABDKMath64x64.sol\":18682:18726  result * 0x10000000B17217FBA9C739AA5819F44F9 */\n      mul\n        /* \"ABDKMath64x64.sol\":18730:18733  128 */\n      0x80\n        /* \"ABDKMath64x64.sol\":18682:18733  result * 0x10000000B17217FBA9C739AA5819F44F9 >> 128 */\n      shr\n        /* \"ABDKMath64x64.sol\":18639:18733  if (x & 0x1000000000 > 0)... */\n    tag_881:\n        /* \"ABDKMath64x64.sol\":18763:18764  0 */\n      0x00\n        /* \"ABDKMath64x64.sol\":18745:18746  x */\n      dup4\n        /* \"ABDKMath64x64.sol\":18749:18760  0x800000000 */\n      0x0800000000\n        /* \"ABDKMath64x64.sol\":18745:18760  x & 0x800000000 */\n      and\n        /* \"ABDKMath64x64.sol\":18745:18764  x & 0x800000000 > 0 */\n      0x0f\n      signextend\n      sgt\n        /* \"ABDKMath64x64.sol\":18741:18834  if (x & 0x800000000 > 0)... */\n      iszero\n      tag_882\n      jumpi\n        /* \"ABDKMath64x64.sol\":18792:18827  0x1000000058B90BFCDEE5ACD3C1CEDC823 */\n      0x01000000058b90bfcdee5acd3c1cedc823\n        /* \"ABDKMath64x64.sol\":18783:18827  result * 0x1000000058B90BFCDEE5ACD3C1CEDC823 */\n      mul\n        /* \"ABDKMath64x64.sol\":18831:18834  128 */\n      0x80\n        /* \"ABDKMath64x64.sol\":18783:18834  result * 0x1000000058B90BFCDEE5ACD3C1CEDC823 >> 128 */\n      shr\n        /* \"ABDKMath64x64.sol\":18741:18834  if (x & 0x800000000 > 0)... */\n    tag_882:\n        /* \"ABDKMath64x64.sol\":18864:18865  0 */\n      0x00\n        /* \"ABDKMath64x64.sol\":18846:18847  x */\n      dup4\n        /* \"ABDKMath64x64.sol\":18850:18861  0x400000000 */\n      0x0400000000\n        /* \"ABDKMath64x64.sol\":18846:18861  x & 0x400000000 */\n      and\n        /* \"ABDKMath64x64.sol\":18846:18865  x & 0x400000000 > 0 */\n      0x0f\n      signextend\n      sgt\n        /* \"ABDKMath64x64.sol\":18842:18935  if (x & 0x400000000 > 0)... */\n      iszero\n      tag_883\n      jumpi\n        /* \"ABDKMath64x64.sol\":18893:18928  0x100000002C5C85FE31F35A6A30DA1BE50 */\n      0x0100000002c5c85fe31f35a6a30da1be50\n        /* \"ABDKMath64x64.sol\":18884:18928  result * 0x100000002C5C85FE31F35A6A30DA1BE50 */\n      mul\n        /* \"ABDKMath64x64.sol\":18932:18935  128 */\n      0x80\n        /* \"ABDKMath64x64.sol\":18884:18935  result * 0x100000002C5C85FE31F35A6A30DA1BE50 >> 128 */\n      shr\n        /* \"ABDKMath64x64.sol\":18842:18935  if (x & 0x400000000 > 0)... */\n    tag_883:\n        /* \"ABDKMath64x64.sol\":18965:18966  0 */\n      0x00\n        /* \"ABDKMath64x64.sol\":18947:18948  x */\n      dup4\n        /* \"ABDKMath64x64.sol\":18951:18962  0x200000000 */\n      0x0200000000\n        /* \"ABDKMath64x64.sol\":18947:18962  x & 0x200000000 */\n      and\n        /* \"ABDKMath64x64.sol\":18947:18966  x & 0x200000000 > 0 */\n      0x0f\n      signextend\n      sgt\n        /* \"ABDKMath64x64.sol\":18943:19036  if (x & 0x200000000 > 0)... */\n      iszero\n      tag_884\n      jumpi\n        /* \"ABDKMath64x64.sol\":18994:19029  0x10000000162E42FF0999CE3541B9FFFCF */\n      0x010000000162e42ff0999ce3541b9fffcf\n        /* \"ABDKMath64x64.sol\":18985:19029  result * 0x10000000162E42FF0999CE3541B9FFFCF */\n      mul\n        /* \"ABDKMath64x64.sol\":19033:19036  128 */\n      0x80\n        /* \"ABDKMath64x64.sol\":18985:19036  result * 0x10000000162E42FF0999CE3541B9FFFCF >> 128 */\n      shr\n        /* \"ABDKMath64x64.sol\":18943:19036  if (x & 0x200000000 > 0)... */\n    tag_884:\n        /* \"ABDKMath64x64.sol\":19066:19067  0 */\n      0x00\n        /* \"ABDKMath64x64.sol\":19048:19049  x */\n      dup4\n        /* \"ABDKMath64x64.sol\":19052:19063  0x100000000 */\n      0x0100000000\n        /* \"ABDKMath64x64.sol\":19048:19063  x & 0x100000000 */\n      and\n        /* \"ABDKMath64x64.sol\":19048:19067  x & 0x100000000 > 0 */\n      0x0f\n      signextend\n      sgt\n        /* \"ABDKMath64x64.sol\":19044:19137  if (x & 0x100000000 > 0)... */\n      iszero\n      tag_885\n      jumpi\n        /* \"ABDKMath64x64.sol\":19095:19130  0x100000000B17217F80F4EF5AADDA45554 */\n      0x0100000000b17217f80f4ef5aadda45554\n        /* \"ABDKMath64x64.sol\":19086:19130  result * 0x100000000B17217F80F4EF5AADDA45554 */\n      mul\n        /* \"ABDKMath64x64.sol\":19134:19137  128 */\n      0x80\n        /* \"ABDKMath64x64.sol\":19086:19137  result * 0x100000000B17217F80F4EF5AADDA45554 >> 128 */\n      shr\n        /* \"ABDKMath64x64.sol\":19044:19137  if (x & 0x100000000 > 0)... */\n    tag_885:\n        /* \"ABDKMath64x64.sol\":19166:19167  0 */\n      0x00\n        /* \"ABDKMath64x64.sol\":19149:19150  x */\n      dup4\n        /* \"ABDKMath64x64.sol\":19153:19163  0x80000000 */\n      0x80000000\n        /* \"ABDKMath64x64.sol\":19149:19163  x & 0x80000000 */\n      and\n        /* \"ABDKMath64x64.sol\":19149:19167  x & 0x80000000 > 0 */\n      0x0f\n      signextend\n      sgt\n        /* \"ABDKMath64x64.sol\":19145:19237  if (x & 0x80000000 > 0)... */\n      iszero\n      tag_886\n      jumpi\n        /* \"ABDKMath64x64.sol\":19195:19230  0x10000000058B90BFBF8479BD5A81B51AD */\n      0x010000000058b90bfbf8479bd5a81b51ad\n        /* \"ABDKMath64x64.sol\":19186:19230  result * 0x10000000058B90BFBF8479BD5A81B51AD */\n      mul\n        /* \"ABDKMath64x64.sol\":19234:19237  128 */\n      0x80\n        /* \"ABDKMath64x64.sol\":19186:19237  result * 0x10000000058B90BFBF8479BD5A81B51AD >> 128 */\n      shr\n        /* \"ABDKMath64x64.sol\":19145:19237  if (x & 0x80000000 > 0)... */\n    tag_886:\n        /* \"ABDKMath64x64.sol\":19266:19267  0 */\n      0x00\n        /* \"ABDKMath64x64.sol\":19249:19250  x */\n      dup4\n        /* \"ABDKMath64x64.sol\":19253:19263  0x40000000 */\n      0x40000000\n        /* \"ABDKMath64x64.sol\":19249:19263  x & 0x40000000 */\n      and\n        /* \"ABDKMath64x64.sol\":19249:19267  x & 0x40000000 > 0 */\n      0x0f\n      signextend\n      sgt\n        /* \"ABDKMath64x64.sol\":19245:19337  if (x & 0x40000000 > 0)... */\n      iszero\n      tag_887\n      jumpi\n        /* \"ABDKMath64x64.sol\":19295:19330  0x1000000002C5C85FDF84BD62AE30A74CC */\n      0x01000000002c5c85fdf84bd62ae30a74cc\n        /* \"ABDKMath64x64.sol\":19286:19330  result * 0x1000000002C5C85FDF84BD62AE30A74CC */\n      mul\n        /* \"ABDKMath64x64.sol\":19334:19337  128 */\n      0x80\n        /* \"ABDKMath64x64.sol\":19286:19337  result * 0x1000000002C5C85FDF84BD62AE30A74CC >> 128 */\n      shr\n        /* \"ABDKMath64x64.sol\":19245:19337  if (x & 0x40000000 > 0)... */\n    tag_887:\n        /* \"ABDKMath64x64.sol\":19366:19367  0 */\n      0x00\n        /* \"ABDKMath64x64.sol\":19349:19350  x */\n      dup4\n        /* \"ABDKMath64x64.sol\":19353:19363  0x20000000 */\n      0x20000000\n        /* \"ABDKMath64x64.sol\":19349:19363  x & 0x20000000 */\n      and\n        /* \"ABDKMath64x64.sol\":19349:19367  x & 0x20000000 > 0 */\n      0x0f\n      signextend\n      sgt\n        /* \"ABDKMath64x64.sol\":19345:19437  if (x & 0x20000000 > 0)... */\n      iszero\n      tag_888\n      jumpi\n        /* \"ABDKMath64x64.sol\":19395:19430  0x100000000162E42FEFB2FED257559BDAA */\n      0x0100000000162e42fefb2fed257559bdaa\n        /* \"ABDKMath64x64.sol\":19386:19430  result * 0x100000000162E42FEFB2FED257559BDAA */\n      mul\n        /* \"ABDKMath64x64.sol\":19434:19437  128 */\n      0x80\n        /* \"ABDKMath64x64.sol\":19386:19437  result * 0x100000000162E42FEFB2FED257559BDAA >> 128 */\n      shr\n        /* \"ABDKMath64x64.sol\":19345:19437  if (x & 0x20000000 > 0)... */\n    tag_888:\n        /* \"ABDKMath64x64.sol\":19466:19467  0 */\n      0x00\n        /* \"ABDKMath64x64.sol\":19449:19450  x */\n      dup4\n        /* \"ABDKMath64x64.sol\":19453:19463  0x10000000 */\n      0x10000000\n        /* \"ABDKMath64x64.sol\":19449:19463  x & 0x10000000 */\n      and\n        /* \"ABDKMath64x64.sol\":19449:19467  x & 0x10000000 > 0 */\n      0x0f\n      signextend\n      sgt\n        /* \"ABDKMath64x64.sol\":19445:19537  if (x & 0x10000000 > 0)... */\n      iszero\n      tag_889\n      jumpi\n        /* \"ABDKMath64x64.sol\":19495:19530  0x1000000000B17217F7D5A7716BBA4A9AE */\n      0x01000000000b17217f7d5a7716bba4a9ae\n        /* \"ABDKMath64x64.sol\":19486:19530  result * 0x1000000000B17217F7D5A7716BBA4A9AE */\n      mul\n        /* \"ABDKMath64x64.sol\":19534:19537  128 */\n      0x80\n        /* \"ABDKMath64x64.sol\":19486:19537  result * 0x1000000000B17217F7D5A7716BBA4A9AE >> 128 */\n      shr\n        /* \"ABDKMath64x64.sol\":19445:19537  if (x & 0x10000000 > 0)... */\n    tag_889:\n        /* \"ABDKMath64x64.sol\":19565:19566  0 */\n      0x00\n        /* \"ABDKMath64x64.sol\":19549:19550  x */\n      dup4\n        /* \"ABDKMath64x64.sol\":19553:19562  0x8000000 */\n      0x08000000\n        /* \"ABDKMath64x64.sol\":19549:19562  x & 0x8000000 */\n      and\n        /* \"ABDKMath64x64.sol\":19549:19566  x & 0x8000000 > 0 */\n      0x0f\n      signextend\n      sgt\n        /* \"ABDKMath64x64.sol\":19545:19636  if (x & 0x8000000 > 0)... */\n      iszero\n      tag_890\n      jumpi\n        /* \"ABDKMath64x64.sol\":19594:19629  0x100000000058B90BFBE9DDBAC5E109CCE */\n      0x0100000000058b90bfbe9ddbac5e109cce\n        /* \"ABDKMath64x64.sol\":19585:19629  result * 0x100000000058B90BFBE9DDBAC5E109CCE */\n      mul\n        /* \"ABDKMath64x64.sol\":19633:19636  128 */\n      0x80\n        /* \"ABDKMath64x64.sol\":19585:19636  result * 0x100000000058B90BFBE9DDBAC5E109CCE >> 128 */\n      shr\n        /* \"ABDKMath64x64.sol\":19545:19636  if (x & 0x8000000 > 0)... */\n    tag_890:\n        /* \"ABDKMath64x64.sol\":19664:19665  0 */\n      0x00\n        /* \"ABDKMath64x64.sol\":19648:19649  x */\n      dup4\n        /* \"ABDKMath64x64.sol\":19652:19661  0x4000000 */\n      0x04000000\n        /* \"ABDKMath64x64.sol\":19648:19661  x & 0x4000000 */\n      and\n        /* \"ABDKMath64x64.sol\":19648:19665  x & 0x4000000 > 0 */\n      0x0f\n      signextend\n      sgt\n        /* \"ABDKMath64x64.sol\":19644:19735  if (x & 0x4000000 > 0)... */\n      iszero\n      tag_891\n      jumpi\n        /* \"ABDKMath64x64.sol\":19693:19728  0x10000000002C5C85FDF4B15DE6F17EB0D */\n      0x010000000002c5c85fdf4b15de6f17eb0d\n        /* \"ABDKMath64x64.sol\":19684:19728  result * 0x10000000002C5C85FDF4B15DE6F17EB0D */\n      mul\n        /* \"ABDKMath64x64.sol\":19732:19735  128 */\n      0x80\n        /* \"ABDKMath64x64.sol\":19684:19735  result * 0x10000000002C5C85FDF4B15DE6F17EB0D >> 128 */\n      shr\n        /* \"ABDKMath64x64.sol\":19644:19735  if (x & 0x4000000 > 0)... */\n    tag_891:\n        /* \"ABDKMath64x64.sol\":19763:19764  0 */\n      0x00\n        /* \"ABDKMath64x64.sol\":19747:19748  x */\n      dup4\n        /* \"ABDKMath64x64.sol\":19751:19760  0x2000000 */\n      0x02000000\n        /* \"ABDKMath64x64.sol\":19747:19760  x & 0x2000000 */\n      and\n        /* \"ABDKMath64x64.sol\":19747:19764  x & 0x2000000 > 0 */\n      0x0f\n      signextend\n      sgt\n        /* \"ABDKMath64x64.sol\":19743:19834  if (x & 0x2000000 > 0)... */\n      iszero\n      tag_892\n      jumpi\n        /* \"ABDKMath64x64.sol\":19792:19827  0x1000000000162E42FEFA494F1478FDE05 */\n      0x01000000000162e42fefa494f1478fde05\n        /* \"ABDKMath64x64.sol\":19783:19827  result * 0x1000000000162E42FEFA494F1478FDE05 */\n      mul\n        /* \"ABDKMath64x64.sol\":19831:19834  128 */\n      0x80\n        /* \"ABDKMath64x64.sol\":19783:19834  result * 0x1000000000162E42FEFA494F1478FDE05 >> 128 */\n      shr\n        /* \"ABDKMath64x64.sol\":19743:19834  if (x & 0x2000000 > 0)... */\n    tag_892:\n        /* \"ABDKMath64x64.sol\":19862:19863  0 */\n      0x00\n        /* \"ABDKMath64x64.sol\":19846:19847  x */\n      dup4\n        /* \"ABDKMath64x64.sol\":19850:19859  0x1000000 */\n      0x01000000\n        /* \"ABDKMath64x64.sol\":19846:19859  x & 0x1000000 */\n      and\n        /* \"ABDKMath64x64.sol\":19846:19863  x & 0x1000000 > 0 */\n      0x0f\n      signextend\n      sgt\n        /* \"ABDKMath64x64.sol\":19842:19933  if (x & 0x1000000 > 0)... */\n      iszero\n      tag_893\n      jumpi\n        /* \"ABDKMath64x64.sol\":19891:19926  0x10000000000B17217F7D20CF927C8E94C */\n      0x010000000000b17217f7d20cf927c8e94c\n        /* \"ABDKMath64x64.sol\":19882:19926  result * 0x10000000000B17217F7D20CF927C8E94C */\n      mul\n        /* \"ABDKMath64x64.sol\":19930:19933  128 */\n      0x80\n        /* \"ABDKMath64x64.sol\":19882:19933  result * 0x10000000000B17217F7D20CF927C8E94C >> 128 */\n      shr\n        /* \"ABDKMath64x64.sol\":19842:19933  if (x & 0x1000000 > 0)... */\n    tag_893:\n        /* \"ABDKMath64x64.sol\":19960:19961  0 */\n      0x00\n        /* \"ABDKMath64x64.sol\":19945:19946  x */\n      dup4\n        /* \"ABDKMath64x64.sol\":19949:19957  0x800000 */\n      0x800000\n        /* \"ABDKMath64x64.sol\":19945:19957  x & 0x800000 */\n      and\n        /* \"ABDKMath64x64.sol\":19945:19961  x & 0x800000 > 0 */\n      0x0f\n      signextend\n      sgt\n        /* \"ABDKMath64x64.sol\":19941:20031  if (x & 0x800000 > 0)... */\n      iszero\n      tag_894\n      jumpi\n        /* \"ABDKMath64x64.sol\":19989:20024  0x1000000000058B90BFBE8F71CB4E4B33D */\n      0x01000000000058b90bfbe8f71cb4e4b33d\n        /* \"ABDKMath64x64.sol\":19980:20024  result * 0x1000000000058B90BFBE8F71CB4E4B33D */\n      mul\n        /* \"ABDKMath64x64.sol\":20028:20031  128 */\n      0x80\n        /* \"ABDKMath64x64.sol\":19980:20031  result * 0x1000000000058B90BFBE8F71CB4E4B33D >> 128 */\n      shr\n        /* \"ABDKMath64x64.sol\":19941:20031  if (x & 0x800000 > 0)... */\n    tag_894:\n        /* \"ABDKMath64x64.sol\":20058:20059  0 */\n      0x00\n        /* \"ABDKMath64x64.sol\":20043:20044  x */\n      dup4\n        /* \"ABDKMath64x64.sol\":20047:20055  0x400000 */\n      0x400000\n        /* \"ABDKMath64x64.sol\":20043:20055  x & 0x400000 */\n      and\n        /* \"ABDKMath64x64.sol\":20043:20059  x & 0x400000 > 0 */\n      0x0f\n      signextend\n      sgt\n        /* \"ABDKMath64x64.sol\":20039:20129  if (x & 0x400000 > 0)... */\n      iszero\n      tag_895\n      jumpi\n        /* \"ABDKMath64x64.sol\":20087:20122  0x100000000002C5C85FDF477B662B26945 */\n      0x0100000000002c5c85fdf477b662b26945\n        /* \"ABDKMath64x64.sol\":20078:20122  result * 0x100000000002C5C85FDF477B662B26945 */\n      mul\n        /* \"ABDKMath64x64.sol\":20126:20129  128 */\n      0x80\n        /* \"ABDKMath64x64.sol\":20078:20129  result * 0x100000000002C5C85FDF477B662B26945 >> 128 */\n      shr\n        /* \"ABDKMath64x64.sol\":20039:20129  if (x & 0x400000 > 0)... */\n    tag_895:\n        /* \"ABDKMath64x64.sol\":20156:20157  0 */\n      0x00\n        /* \"ABDKMath64x64.sol\":20141:20142  x */\n      dup4\n        /* \"ABDKMath64x64.sol\":20145:20153  0x200000 */\n      0x200000\n        /* \"ABDKMath64x64.sol\":20141:20153  x & 0x200000 */\n      and\n        /* \"ABDKMath64x64.sol\":20141:20157  x & 0x200000 > 0 */\n      0x0f\n      signextend\n      sgt\n        /* \"ABDKMath64x64.sol\":20137:20227  if (x & 0x200000 > 0)... */\n      iszero\n      tag_896\n      jumpi\n        /* \"ABDKMath64x64.sol\":20185:20220  0x10000000000162E42FEFA3AE53369388C */\n      0x010000000000162e42fefa3ae53369388c\n        /* \"ABDKMath64x64.sol\":20176:20220  result * 0x10000000000162E42FEFA3AE53369388C */\n      mul\n        /* \"ABDKMath64x64.sol\":20224:20227  128 */\n      0x80\n        /* \"ABDKMath64x64.sol\":20176:20227  result * 0x10000000000162E42FEFA3AE53369388C >> 128 */\n      shr\n        /* \"ABDKMath64x64.sol\":20137:20227  if (x & 0x200000 > 0)... */\n    tag_896:\n        /* \"ABDKMath64x64.sol\":20254:20255  0 */\n      0x00\n        /* \"ABDKMath64x64.sol\":20239:20240  x */\n      dup4\n        /* \"ABDKMath64x64.sol\":20243:20251  0x100000 */\n      0x100000\n        /* \"ABDKMath64x64.sol\":20239:20251  x & 0x100000 */\n      and\n        /* \"ABDKMath64x64.sol\":20239:20255  x & 0x100000 > 0 */\n      0x0f\n      signextend\n      sgt\n        /* \"ABDKMath64x64.sol\":20235:20325  if (x & 0x100000 > 0)... */\n      iszero\n      tag_897\n      jumpi\n        /* \"ABDKMath64x64.sol\":20283:20318  0x100000000000B17217F7D1D351A389D40 */\n      0x0100000000000b17217f7d1d351a389d40\n        /* \"ABDKMath64x64.sol\":20274:20318  result * 0x100000000000B17217F7D1D351A389D40 */\n      mul\n        /* \"ABDKMath64x64.sol\":20322:20325  128 */\n      0x80\n        /* \"ABDKMath64x64.sol\":20274:20325  result * 0x100000000000B17217F7D1D351A389D40 >> 128 */\n      shr\n        /* \"ABDKMath64x64.sol\":20235:20325  if (x & 0x100000 > 0)... */\n    tag_897:\n        /* \"ABDKMath64x64.sol\":20351:20352  0 */\n      0x00\n        /* \"ABDKMath64x64.sol\":20337:20338  x */\n      dup4\n        /* \"ABDKMath64x64.sol\":20341:20348  0x80000 */\n      0x080000\n        /* \"ABDKMath64x64.sol\":20337:20348  x & 0x80000 */\n      and\n        /* \"ABDKMath64x64.sol\":20337:20352  x & 0x80000 > 0 */\n      0x0f\n      signextend\n      sgt\n        /* \"ABDKMath64x64.sol\":20333:20422  if (x & 0x80000 > 0)... */\n      iszero\n      tag_898\n      jumpi\n        /* \"ABDKMath64x64.sol\":20380:20415  0x10000000000058B90BFBE8E8B2D3D4EDE */\n      0x010000000000058b90bfbe8e8b2d3d4ede\n        /* \"ABDKMath64x64.sol\":20371:20415  result * 0x10000000000058B90BFBE8E8B2D3D4EDE */\n      mul\n        /* \"ABDKMath64x64.sol\":20419:20422  128 */\n      0x80\n        /* \"ABDKMath64x64.sol\":20371:20422  result * 0x10000000000058B90BFBE8E8B2D3D4EDE >> 128 */\n      shr\n        /* \"ABDKMath64x64.sol\":20333:20422  if (x & 0x80000 > 0)... */\n    tag_898:\n        /* \"ABDKMath64x64.sol\":20448:20449  0 */\n      0x00\n        /* \"ABDKMath64x64.sol\":20434:20435  x */\n      dup4\n        /* \"ABDKMath64x64.sol\":20438:20445  0x40000 */\n      0x040000\n        /* \"ABDKMath64x64.sol\":20434:20445  x & 0x40000 */\n      and\n        /* \"ABDKMath64x64.sol\":20434:20449  x & 0x40000 > 0 */\n      0x0f\n      signextend\n      sgt\n        /* \"ABDKMath64x64.sol\":20430:20519  if (x & 0x40000 > 0)... */\n      iszero\n      tag_899\n      jumpi\n        /* \"ABDKMath64x64.sol\":20477:20512  0x1000000000002C5C85FDF4741BEA6E77E */\n      0x01000000000002c5c85fdf4741bea6e77e\n        /* \"ABDKMath64x64.sol\":20468:20512  result * 0x1000000000002C5C85FDF4741BEA6E77E */\n      mul\n        /* \"ABDKMath64x64.sol\":20516:20519  128 */\n      0x80\n        /* \"ABDKMath64x64.sol\":20468:20519  result * 0x1000000000002C5C85FDF4741BEA6E77E >> 128 */\n      shr\n        /* \"ABDKMath64x64.sol\":20430:20519  if (x & 0x40000 > 0)... */\n    tag_899:\n        /* \"ABDKMath64x64.sol\":20545:20546  0 */\n      0x00\n        /* \"ABDKMath64x64.sol\":20531:20532  x */\n      dup4\n        /* \"ABDKMath64x64.sol\":20535:20542  0x20000 */\n      0x020000\n        /* \"ABDKMath64x64.sol\":20531:20542  x & 0x20000 */\n      and\n        /* \"ABDKMath64x64.sol\":20531:20546  x & 0x20000 > 0 */\n      0x0f\n      signextend\n      sgt\n        /* \"ABDKMath64x64.sol\":20527:20616  if (x & 0x20000 > 0)... */\n      iszero\n      tag_900\n      jumpi\n        /* \"ABDKMath64x64.sol\":20574:20609  0x100000000000162E42FEFA39FE95583C2 */\n      0x0100000000000162e42fefa39fe95583c2\n        /* \"ABDKMath64x64.sol\":20565:20609  result * 0x100000000000162E42FEFA39FE95583C2 */\n      mul\n        /* \"ABDKMath64x64.sol\":20613:20616  128 */\n      0x80\n        /* \"ABDKMath64x64.sol\":20565:20616  result * 0x100000000000162E42FEFA39FE95583C2 >> 128 */\n      shr\n        /* \"ABDKMath64x64.sol\":20527:20616  if (x & 0x20000 > 0)... */\n    tag_900:\n        /* \"ABDKMath64x64.sol\":20642:20643  0 */\n      0x00\n        /* \"ABDKMath64x64.sol\":20628:20629  x */\n      dup4\n        /* \"ABDKMath64x64.sol\":20632:20639  0x10000 */\n      0x010000\n        /* \"ABDKMath64x64.sol\":20628:20639  x & 0x10000 */\n      and\n        /* \"ABDKMath64x64.sol\":20628:20643  x & 0x10000 > 0 */\n      0x0f\n      signextend\n      sgt\n        /* \"ABDKMath64x64.sol\":20624:20713  if (x & 0x10000 > 0)... */\n      iszero\n      tag_901\n      jumpi\n        /* \"ABDKMath64x64.sol\":20671:20706  0x1000000000000B17217F7D1CFB72B45E1 */\n      0x01000000000000b17217f7d1cfb72b45e1\n        /* \"ABDKMath64x64.sol\":20662:20706  result * 0x1000000000000B17217F7D1CFB72B45E1 */\n      mul\n        /* \"ABDKMath64x64.sol\":20710:20713  128 */\n      0x80\n        /* \"ABDKMath64x64.sol\":20662:20713  result * 0x1000000000000B17217F7D1CFB72B45E1 >> 128 */\n      shr\n        /* \"ABDKMath64x64.sol\":20624:20713  if (x & 0x10000 > 0)... */\n    tag_901:\n        /* \"ABDKMath64x64.sol\":20738:20739  0 */\n      0x00\n        /* \"ABDKMath64x64.sol\":20725:20726  x */\n      dup4\n        /* \"ABDKMath64x64.sol\":20729:20735  0x8000 */\n      0x8000\n        /* \"ABDKMath64x64.sol\":20725:20735  x & 0x8000 */\n      and\n        /* \"ABDKMath64x64.sol\":20725:20739  x & 0x8000 > 0 */\n      0x0f\n      signextend\n      sgt\n        /* \"ABDKMath64x64.sol\":20721:20809  if (x & 0x8000 > 0)... */\n      iszero\n      tag_902\n      jumpi\n        /* \"ABDKMath64x64.sol\":20767:20802  0x100000000000058B90BFBE8E7CC35C3F0 */\n      0x0100000000000058b90bfbe8e7cc35c3f0\n        /* \"ABDKMath64x64.sol\":20758:20802  result * 0x100000000000058B90BFBE8E7CC35C3F0 */\n      mul\n        /* \"ABDKMath64x64.sol\":20806:20809  128 */\n      0x80\n        /* \"ABDKMath64x64.sol\":20758:20809  result * 0x100000000000058B90BFBE8E7CC35C3F0 >> 128 */\n      shr\n        /* \"ABDKMath64x64.sol\":20721:20809  if (x & 0x8000 > 0)... */\n    tag_902:\n        /* \"ABDKMath64x64.sol\":20834:20835  0 */\n      0x00\n        /* \"ABDKMath64x64.sol\":20821:20822  x */\n      dup4\n        /* \"ABDKMath64x64.sol\":20825:20831  0x4000 */\n      0x4000\n        /* \"ABDKMath64x64.sol\":20821:20831  x & 0x4000 */\n      and\n        /* \"ABDKMath64x64.sol\":20821:20835  x & 0x4000 > 0 */\n      0x0f\n      signextend\n      sgt\n        /* \"ABDKMath64x64.sol\":20817:20905  if (x & 0x4000 > 0)... */\n      iszero\n      tag_903\n      jumpi\n        /* \"ABDKMath64x64.sol\":20863:20898  0x10000000000002C5C85FDF473E242EA38 */\n      0x010000000000002c5c85fdf473e242ea38\n        /* \"ABDKMath64x64.sol\":20854:20898  result * 0x10000000000002C5C85FDF473E242EA38 */\n      mul\n        /* \"ABDKMath64x64.sol\":20902:20905  128 */\n      0x80\n        /* \"ABDKMath64x64.sol\":20854:20905  result * 0x10000000000002C5C85FDF473E242EA38 >> 128 */\n      shr\n        /* \"ABDKMath64x64.sol\":20817:20905  if (x & 0x4000 > 0)... */\n    tag_903:\n        /* \"ABDKMath64x64.sol\":20930:20931  0 */\n      0x00\n        /* \"ABDKMath64x64.sol\":20917:20918  x */\n      dup4\n        /* \"ABDKMath64x64.sol\":20921:20927  0x2000 */\n      0x2000\n        /* \"ABDKMath64x64.sol\":20917:20927  x & 0x2000 */\n      and\n        /* \"ABDKMath64x64.sol\":20917:20931  x & 0x2000 > 0 */\n      0x0f\n      signextend\n      sgt\n        /* \"ABDKMath64x64.sol\":20913:21001  if (x & 0x2000 > 0)... */\n      iszero\n      tag_904\n      jumpi\n        /* \"ABDKMath64x64.sol\":20959:20994  0x1000000000000162E42FEFA39F02B772C */\n      0x01000000000000162e42fefa39f02b772c\n        /* \"ABDKMath64x64.sol\":20950:20994  result * 0x1000000000000162E42FEFA39F02B772C */\n      mul\n        /* \"ABDKMath64x64.sol\":20998:21001  128 */\n      0x80\n        /* \"ABDKMath64x64.sol\":20950:21001  result * 0x1000000000000162E42FEFA39F02B772C >> 128 */\n      shr\n        /* \"ABDKMath64x64.sol\":20913:21001  if (x & 0x2000 > 0)... */\n    tag_904:\n        /* \"ABDKMath64x64.sol\":21026:21027  0 */\n      0x00\n        /* \"ABDKMath64x64.sol\":21013:21014  x */\n      dup4\n        /* \"ABDKMath64x64.sol\":21017:21023  0x1000 */\n      0x1000\n        /* \"ABDKMath64x64.sol\":21013:21023  x & 0x1000 */\n      and\n        /* \"ABDKMath64x64.sol\":21013:21027  x & 0x1000 > 0 */\n      0x0f\n      signextend\n      sgt\n        /* \"ABDKMath64x64.sol\":21009:21097  if (x & 0x1000 > 0)... */\n      iszero\n      tag_905\n      jumpi\n        /* \"ABDKMath64x64.sol\":21055:21090  0x10000000000000B17217F7D1CF7D83C1A */\n      0x010000000000000b17217f7d1cf7d83c1a\n        /* \"ABDKMath64x64.sol\":21046:21090  result * 0x10000000000000B17217F7D1CF7D83C1A */\n      mul\n        /* \"ABDKMath64x64.sol\":21094:21097  128 */\n      0x80\n        /* \"ABDKMath64x64.sol\":21046:21097  result * 0x10000000000000B17217F7D1CF7D83C1A >> 128 */\n      shr\n        /* \"ABDKMath64x64.sol\":21009:21097  if (x & 0x1000 > 0)... */\n    tag_905:\n        /* \"ABDKMath64x64.sol\":21121:21122  0 */\n      0x00\n        /* \"ABDKMath64x64.sol\":21109:21110  x */\n      dup4\n        /* \"ABDKMath64x64.sol\":21113:21118  0x800 */\n      0x0800\n        /* \"ABDKMath64x64.sol\":21109:21118  x & 0x800 */\n      and\n        /* \"ABDKMath64x64.sol\":21109:21122  x & 0x800 > 0 */\n      0x0f\n      signextend\n      sgt\n        /* \"ABDKMath64x64.sol\":21105:21192  if (x & 0x800 > 0)... */\n      iszero\n      tag_906\n      jumpi\n        /* \"ABDKMath64x64.sol\":21150:21185  0x1000000000000058B90BFBE8E7BDCBE2E */\n      0x01000000000000058b90bfbe8e7bdcbe2e\n        /* \"ABDKMath64x64.sol\":21141:21185  result * 0x1000000000000058B90BFBE8E7BDCBE2E */\n      mul\n        /* \"ABDKMath64x64.sol\":21189:21192  128 */\n      0x80\n        /* \"ABDKMath64x64.sol\":21141:21192  result * 0x1000000000000058B90BFBE8E7BDCBE2E >> 128 */\n      shr\n        /* \"ABDKMath64x64.sol\":21105:21192  if (x & 0x800 > 0)... */\n    tag_906:\n        /* \"ABDKMath64x64.sol\":21216:21217  0 */\n      0x00\n        /* \"ABDKMath64x64.sol\":21204:21205  x */\n      dup4\n        /* \"ABDKMath64x64.sol\":21208:21213  0x400 */\n      0x0400\n        /* \"ABDKMath64x64.sol\":21204:21213  x & 0x400 */\n      and\n        /* \"ABDKMath64x64.sol\":21204:21217  x & 0x400 > 0 */\n      0x0f\n      signextend\n      sgt\n        /* \"ABDKMath64x64.sol\":21200:21287  if (x & 0x400 > 0)... */\n      iszero\n      tag_907\n      jumpi\n        /* \"ABDKMath64x64.sol\":21245:21280  0x100000000000002C5C85FDF473DEA871F */\n      0x0100000000000002c5c85fdf473dea871f\n        /* \"ABDKMath64x64.sol\":21236:21280  result * 0x100000000000002C5C85FDF473DEA871F */\n      mul\n        /* \"ABDKMath64x64.sol\":21284:21287  128 */\n      0x80\n        /* \"ABDKMath64x64.sol\":21236:21287  result * 0x100000000000002C5C85FDF473DEA871F >> 128 */\n      shr\n        /* \"ABDKMath64x64.sol\":21200:21287  if (x & 0x400 > 0)... */\n    tag_907:\n        /* \"ABDKMath64x64.sol\":21311:21312  0 */\n      0x00\n        /* \"ABDKMath64x64.sol\":21299:21300  x */\n      dup4\n        /* \"ABDKMath64x64.sol\":21303:21308  0x200 */\n      0x0200\n        /* \"ABDKMath64x64.sol\":21299:21308  x & 0x200 */\n      and\n        /* \"ABDKMath64x64.sol\":21299:21312  x & 0x200 > 0 */\n      0x0f\n      signextend\n      sgt\n        /* \"ABDKMath64x64.sol\":21295:21382  if (x & 0x200 > 0)... */\n      iszero\n      tag_908\n      jumpi\n        /* \"ABDKMath64x64.sol\":21340:21375  0x10000000000000162E42FEFA39EF44D91 */\n      0x010000000000000162e42fefa39ef44d91\n        /* \"ABDKMath64x64.sol\":21331:21375  result * 0x10000000000000162E42FEFA39EF44D91 */\n      mul\n        /* \"ABDKMath64x64.sol\":21379:21382  128 */\n      0x80\n        /* \"ABDKMath64x64.sol\":21331:21382  result * 0x10000000000000162E42FEFA39EF44D91 >> 128 */\n      shr\n        /* \"ABDKMath64x64.sol\":21295:21382  if (x & 0x200 > 0)... */\n    tag_908:\n        /* \"ABDKMath64x64.sol\":21406:21407  0 */\n      0x00\n        /* \"ABDKMath64x64.sol\":21394:21395  x */\n      dup4\n        /* \"ABDKMath64x64.sol\":21398:21403  0x100 */\n      0x0100\n        /* \"ABDKMath64x64.sol\":21394:21403  x & 0x100 */\n      and\n        /* \"ABDKMath64x64.sol\":21394:21407  x & 0x100 > 0 */\n      0x0f\n      signextend\n      sgt\n        /* \"ABDKMath64x64.sol\":21390:21477  if (x & 0x100 > 0)... */\n      iszero\n      tag_909\n      jumpi\n        /* \"ABDKMath64x64.sol\":21435:21470  0x100000000000000B17217F7D1CF79E949 */\n      0x0100000000000000b17217f7d1cf79e949\n        /* \"ABDKMath64x64.sol\":21426:21470  result * 0x100000000000000B17217F7D1CF79E949 */\n      mul\n        /* \"ABDKMath64x64.sol\":21474:21477  128 */\n      0x80\n        /* \"ABDKMath64x64.sol\":21426:21477  result * 0x100000000000000B17217F7D1CF79E949 >> 128 */\n      shr\n        /* \"ABDKMath64x64.sol\":21390:21477  if (x & 0x100 > 0)... */\n    tag_909:\n        /* \"ABDKMath64x64.sol\":21500:21501  0 */\n      0x00\n        /* \"ABDKMath64x64.sol\":21489:21490  x */\n      dup4\n        /* \"ABDKMath64x64.sol\":21493:21497  0x80 */\n      0x80\n        /* \"ABDKMath64x64.sol\":21489:21497  x & 0x80 */\n      and\n        /* \"ABDKMath64x64.sol\":21489:21501  x & 0x80 > 0 */\n      0x0f\n      signextend\n      sgt\n        /* \"ABDKMath64x64.sol\":21485:21571  if (x & 0x80 > 0)... */\n      iszero\n      tag_910\n      jumpi\n        /* \"ABDKMath64x64.sol\":21529:21564  0x10000000000000058B90BFBE8E7BCE544 */\n      0x010000000000000058b90bfbe8e7bce544\n        /* \"ABDKMath64x64.sol\":21520:21564  result * 0x10000000000000058B90BFBE8E7BCE544 */\n      mul\n        /* \"ABDKMath64x64.sol\":21568:21571  128 */\n      0x80\n        /* \"ABDKMath64x64.sol\":21520:21571  result * 0x10000000000000058B90BFBE8E7BCE544 >> 128 */\n      shr\n        /* \"ABDKMath64x64.sol\":21485:21571  if (x & 0x80 > 0)... */\n    tag_910:\n        /* \"ABDKMath64x64.sol\":21594:21595  0 */\n      0x00\n        /* \"ABDKMath64x64.sol\":21583:21584  x */\n      dup4\n        /* \"ABDKMath64x64.sol\":21587:21591  0x40 */\n      0x40\n        /* \"ABDKMath64x64.sol\":21583:21591  x & 0x40 */\n      and\n        /* \"ABDKMath64x64.sol\":21583:21595  x & 0x40 > 0 */\n      0x0f\n      signextend\n      sgt\n        /* \"ABDKMath64x64.sol\":21579:21665  if (x & 0x40 > 0)... */\n      iszero\n      tag_911\n      jumpi\n        /* \"ABDKMath64x64.sol\":21623:21658  0x1000000000000002C5C85FDF473DE6ECA */\n      0x01000000000000002c5c85fdf473de6eca\n        /* \"ABDKMath64x64.sol\":21614:21658  result * 0x1000000000000002C5C85FDF473DE6ECA */\n      mul\n        /* \"ABDKMath64x64.sol\":21662:21665  128 */\n      0x80\n        /* \"ABDKMath64x64.sol\":21614:21665  result * 0x1000000000000002C5C85FDF473DE6ECA >> 128 */\n      shr\n        /* \"ABDKMath64x64.sol\":21579:21665  if (x & 0x40 > 0)... */\n    tag_911:\n        /* \"ABDKMath64x64.sol\":21688:21689  0 */\n      0x00\n        /* \"ABDKMath64x64.sol\":21677:21678  x */\n      dup4\n        /* \"ABDKMath64x64.sol\":21681:21685  0x20 */\n      0x20\n        /* \"ABDKMath64x64.sol\":21677:21685  x & 0x20 */\n      and\n        /* \"ABDKMath64x64.sol\":21677:21689  x & 0x20 > 0 */\n      0x0f\n      signextend\n      sgt\n        /* \"ABDKMath64x64.sol\":21673:21759  if (x & 0x20 > 0)... */\n      iszero\n      tag_912\n      jumpi\n        /* \"ABDKMath64x64.sol\":21717:21752  0x100000000000000162E42FEFA39EF366F */\n      0x0100000000000000162e42fefa39ef366f\n        /* \"ABDKMath64x64.sol\":21708:21752  result * 0x100000000000000162E42FEFA39EF366F */\n      mul\n        /* \"ABDKMath64x64.sol\":21756:21759  128 */\n      0x80\n        /* \"ABDKMath64x64.sol\":21708:21759  result * 0x100000000000000162E42FEFA39EF366F >> 128 */\n      shr\n        /* \"ABDKMath64x64.sol\":21673:21759  if (x & 0x20 > 0)... */\n    tag_912:\n        /* \"ABDKMath64x64.sol\":21782:21783  0 */\n      0x00\n        /* \"ABDKMath64x64.sol\":21771:21772  x */\n      dup4\n        /* \"ABDKMath64x64.sol\":21775:21779  0x10 */\n      0x10\n        /* \"ABDKMath64x64.sol\":21771:21779  x & 0x10 */\n      and\n        /* \"ABDKMath64x64.sol\":21771:21783  x & 0x10 > 0 */\n      0x0f\n      signextend\n      sgt\n        /* \"ABDKMath64x64.sol\":21767:21853  if (x & 0x10 > 0)... */\n      iszero\n      tag_913\n      jumpi\n        /* \"ABDKMath64x64.sol\":21811:21846  0x1000000000000000B17217F7D1CF79AFA */\n      0x01000000000000000b17217f7d1cf79afa\n        /* \"ABDKMath64x64.sol\":21802:21846  result * 0x1000000000000000B17217F7D1CF79AFA */\n      mul\n        /* \"ABDKMath64x64.sol\":21850:21853  128 */\n      0x80\n        /* \"ABDKMath64x64.sol\":21802:21853  result * 0x1000000000000000B17217F7D1CF79AFA >> 128 */\n      shr\n        /* \"ABDKMath64x64.sol\":21767:21853  if (x & 0x10 > 0)... */\n    tag_913:\n        /* \"ABDKMath64x64.sol\":21875:21876  0 */\n      0x00\n        /* \"ABDKMath64x64.sol\":21865:21866  x */\n      dup4\n        /* \"ABDKMath64x64.sol\":21869:21872  0x8 */\n      0x08\n        /* \"ABDKMath64x64.sol\":21865:21872  x & 0x8 */\n      and\n        /* \"ABDKMath64x64.sol\":21865:21876  x & 0x8 > 0 */\n      0x0f\n      signextend\n      sgt\n        /* \"ABDKMath64x64.sol\":21861:21946  if (x & 0x8 > 0)... */\n      iszero\n      tag_914\n      jumpi\n        /* \"ABDKMath64x64.sol\":21904:21939  0x100000000000000058B90BFBE8E7BCD6D */\n      0x0100000000000000058b90bfbe8e7bcd6d\n        /* \"ABDKMath64x64.sol\":21895:21939  result * 0x100000000000000058B90BFBE8E7BCD6D */\n      mul\n        /* \"ABDKMath64x64.sol\":21943:21946  128 */\n      0x80\n        /* \"ABDKMath64x64.sol\":21895:21946  result * 0x100000000000000058B90BFBE8E7BCD6D >> 128 */\n      shr\n        /* \"ABDKMath64x64.sol\":21861:21946  if (x & 0x8 > 0)... */\n    tag_914:\n        /* \"ABDKMath64x64.sol\":21968:21969  0 */\n      0x00\n        /* \"ABDKMath64x64.sol\":21958:21959  x */\n      dup4\n        /* \"ABDKMath64x64.sol\":21962:21965  0x4 */\n      0x04\n        /* \"ABDKMath64x64.sol\":21958:21965  x & 0x4 */\n      and\n        /* \"ABDKMath64x64.sol\":21958:21969  x & 0x4 > 0 */\n      0x0f\n      signextend\n      sgt\n        /* \"ABDKMath64x64.sol\":21954:22039  if (x & 0x4 > 0)... */\n      iszero\n      tag_915\n      jumpi\n        /* \"ABDKMath64x64.sol\":21997:22032  0x10000000000000002C5C85FDF473DE6B2 */\n      0x010000000000000002c5c85fdf473de6b2\n        /* \"ABDKMath64x64.sol\":21988:22032  result * 0x10000000000000002C5C85FDF473DE6B2 */\n      mul\n        /* \"ABDKMath64x64.sol\":22036:22039  128 */\n      0x80\n        /* \"ABDKMath64x64.sol\":21988:22039  result * 0x10000000000000002C5C85FDF473DE6B2 >> 128 */\n      shr\n        /* \"ABDKMath64x64.sol\":21954:22039  if (x & 0x4 > 0)... */\n    tag_915:\n        /* \"ABDKMath64x64.sol\":22061:22062  0 */\n      0x00\n        /* \"ABDKMath64x64.sol\":22051:22052  x */\n      dup4\n        /* \"ABDKMath64x64.sol\":22055:22058  0x2 */\n      0x02\n        /* \"ABDKMath64x64.sol\":22051:22058  x & 0x2 */\n      and\n        /* \"ABDKMath64x64.sol\":22051:22062  x & 0x2 > 0 */\n      0x0f\n      signextend\n      sgt\n        /* \"ABDKMath64x64.sol\":22047:22132  if (x & 0x2 > 0)... */\n      iszero\n      tag_916\n      jumpi\n        /* \"ABDKMath64x64.sol\":22090:22125  0x1000000000000000162E42FEFA39EF358 */\n      0x01000000000000000162e42fefa39ef358\n        /* \"ABDKMath64x64.sol\":22081:22125  result * 0x1000000000000000162E42FEFA39EF358 */\n      mul\n        /* \"ABDKMath64x64.sol\":22129:22132  128 */\n      0x80\n        /* \"ABDKMath64x64.sol\":22081:22132  result * 0x1000000000000000162E42FEFA39EF358 >> 128 */\n      shr\n        /* \"ABDKMath64x64.sol\":22047:22132  if (x & 0x2 > 0)... */\n    tag_916:\n        /* \"ABDKMath64x64.sol\":22154:22155  0 */\n      0x00\n        /* \"ABDKMath64x64.sol\":22144:22145  x */\n      dup4\n        /* \"ABDKMath64x64.sol\":22148:22151  0x1 */\n      0x01\n        /* \"ABDKMath64x64.sol\":22144:22151  x & 0x1 */\n      and\n        /* \"ABDKMath64x64.sol\":22144:22155  x & 0x1 > 0 */\n      0x0f\n      signextend\n      sgt\n        /* \"ABDKMath64x64.sol\":22140:22225  if (x & 0x1 > 0)... */\n      iszero\n      tag_917\n      jumpi\n        /* \"ABDKMath64x64.sol\":22183:22218  0x10000000000000000B17217F7D1CF79AB */\n      0x010000000000000000b17217f7d1cf79ab\n        /* \"ABDKMath64x64.sol\":22174:22218  result * 0x10000000000000000B17217F7D1CF79AB */\n      mul\n        /* \"ABDKMath64x64.sol\":22222:22225  128 */\n      0x80\n        /* \"ABDKMath64x64.sol\":22174:22225  result * 0x10000000000000000B17217F7D1CF79AB >> 128 */\n      shr\n        /* \"ABDKMath64x64.sol\":22140:22225  if (x & 0x1 > 0)... */\n    tag_917:\n        /* \"ABDKMath64x64.sol\":22268:22275  x >> 64 */\n      0x0f\n      dup4\n      dup2\n      signextend\n        /* \"ABDKMath64x64.sol\":22273:22275  64 */\n      0x40\n        /* \"ABDKMath64x64.sol\":22268:22275  x >> 64 */\n      sar\n        /* \"ABDKMath64x64.sol\":22262:22264  63 */\n      0x3f\n        /* \"ABDKMath64x64.sol\":22262:22276  63 - (x >> 64) */\n      sub\n        /* \"ABDKMath64x64.sol\":22254:22277  int256 (63 - (x >> 64)) */\n      swap1\n      signextend\n        /* \"ABDKMath64x64.sol\":22234:22278  result >>= uint256 (int256 (63 - (x >> 64))) */\n      shr\n      sub(shl(0x7f, 0x01), 0x01)\n        /* \"ABDKMath64x64.sol\":22295:22333  result <= uint256 (int256 (MAX_64x64)) */\n      dup2\n      gt\n      iszero\n        /* \"ABDKMath64x64.sol\":22286:22334  require (result <= uint256 (int256 (MAX_64x64))) */\n      tag_199\n      jumpi\n      0x00\n      dup1\n      revert\n        /* \"ABDKMath64x64.sol\":14129:14967  function log_2 (int128 x) internal pure returns (int128) {... */\n    tag_740:\n        /* \"ABDKMath64x64.sol\":14178:14184  int128 */\n      0x00\n        /* \"ABDKMath64x64.sol\":14223:14224  0 */\n      dup1\n        /* \"ABDKMath64x64.sol\":14219:14220  x */\n      dup3\n        /* \"ABDKMath64x64.sol\":14219:14224  x > 0 */\n      0x0f\n      signextend\n      sgt\n        /* \"ABDKMath64x64.sol\":14210:14225  require (x > 0) */\n      tag_920\n      jumpi\n      0x00\n      dup1\n      revert\n    tag_920:\n        /* \"ABDKMath64x64.sol\":14234:14244  int256 msb */\n      0x00\n        /* \"ABDKMath64x64.sol\":14256:14269  int256 xc = x */\n      0x0f\n      dup4\n      swap1\n      signextend\n        /* \"ABDKMath64x64.sol\":14287:14306  0x10000000000000000 */\n      0x010000000000000000\n        /* \"ABDKMath64x64.sol\":14281:14306  xc >= 0x10000000000000000 */\n      dup2\n      slt\n        /* \"ABDKMath64x64.sol\":14277:14333  if (xc >= 0x10000000000000000) { xc >>= 64; msb += 64; } */\n      tag_921\n      jumpi\n        /* \"ABDKMath64x64.sol\":14317:14319  64 */\n      0x40\n        /* \"ABDKMath64x64.sol\":14321:14330  msb += 64 */\n      swap2\n      dup3\n      add\n      swap2\n        /* \"ABDKMath64x64.sol\":14310:14319  xc >>= 64 */\n      sar\n        /* \"ABDKMath64x64.sol\":14277:14333  if (xc >= 0x10000000000000000) { xc >>= 64; msb += 64; } */\n    tag_921:\n        /* \"ABDKMath64x64.sol\":14350:14361  0x100000000 */\n      0x0100000000\n        /* \"ABDKMath64x64.sol\":14344:14346  xc */\n      dup2\n        /* \"ABDKMath64x64.sol\":14344:14361  xc >= 0x100000000 */\n      slt\n        /* \"ABDKMath64x64.sol\":14340:14388  if (xc >= 0x100000000) { xc >>= 32; msb += 32; } */\n      tag_922\n      jumpi\n        /* \"ABDKMath64x64.sol\":14372:14374  32 */\n      0x20\n        /* \"ABDKMath64x64.sol\":14376:14385  msb += 32 */\n      swap2\n      dup3\n      add\n      swap2\n        /* \"ABDKMath64x64.sol\":14365:14374  xc >>= 32 */\n      sar\n        /* \"ABDKMath64x64.sol\":14340:14388  if (xc >= 0x100000000) { xc >>= 32; msb += 32; } */\n    tag_922:\n        /* \"ABDKMath64x64.sol\":14405:14412  0x10000 */\n      0x010000\n        /* \"ABDKMath64x64.sol\":14399:14401  xc */\n      dup2\n        /* \"ABDKMath64x64.sol\":14399:14412  xc >= 0x10000 */\n      slt\n        /* \"ABDKMath64x64.sol\":14395:14439  if (xc >= 0x10000) { xc >>= 16; msb += 16; } */\n      tag_923\n      jumpi\n        /* \"ABDKMath64x64.sol\":14423:14425  16 */\n      0x10\n        /* \"ABDKMath64x64.sol\":14427:14436  msb += 16 */\n      swap2\n      dup3\n      add\n      swap2\n        /* \"ABDKMath64x64.sol\":14416:14425  xc >>= 16 */\n      sar\n        /* \"ABDKMath64x64.sol\":14395:14439  if (xc >= 0x10000) { xc >>= 16; msb += 16; } */\n    tag_923:\n        /* \"ABDKMath64x64.sol\":14456:14461  0x100 */\n      0x0100\n        /* \"ABDKMath64x64.sol\":14450:14452  xc */\n      dup2\n        /* \"ABDKMath64x64.sol\":14450:14461  xc >= 0x100 */\n      slt\n        /* \"ABDKMath64x64.sol\":14446:14486  if (xc >= 0x100) { xc >>= 8; msb += 8; } */\n      tag_924\n      jumpi\n        /* \"ABDKMath64x64.sol\":14472:14473  8 */\n      0x08\n        /* \"ABDKMath64x64.sol\":14475:14483  msb += 8 */\n      swap2\n      dup3\n      add\n      swap2\n        /* \"ABDKMath64x64.sol\":14465:14473  xc >>= 8 */\n      sar\n        /* \"ABDKMath64x64.sol\":14446:14486  if (xc >= 0x100) { xc >>= 8; msb += 8; } */\n    tag_924:\n        /* \"ABDKMath64x64.sol\":14503:14507  0x10 */\n      0x10\n        /* \"ABDKMath64x64.sol\":14497:14499  xc */\n      dup2\n        /* \"ABDKMath64x64.sol\":14497:14507  xc >= 0x10 */\n      slt\n        /* \"ABDKMath64x64.sol\":14493:14532  if (xc >= 0x10) { xc >>= 4; msb += 4; } */\n      tag_925\n      jumpi\n        /* \"ABDKMath64x64.sol\":14518:14519  4 */\n      0x04\n        /* \"ABDKMath64x64.sol\":14521:14529  msb += 4 */\n      swap2\n      dup3\n      add\n      swap2\n        /* \"ABDKMath64x64.sol\":14511:14519  xc >>= 4 */\n      sar\n        /* \"ABDKMath64x64.sol\":14493:14532  if (xc >= 0x10) { xc >>= 4; msb += 4; } */\n    tag_925:\n        /* \"ABDKMath64x64.sol\":14549:14552  0x4 */\n      0x04\n        /* \"ABDKMath64x64.sol\":14543:14545  xc */\n      dup2\n        /* \"ABDKMath64x64.sol\":14543:14552  xc >= 0x4 */\n      slt\n        /* \"ABDKMath64x64.sol\":14539:14577  if (xc >= 0x4) { xc >>= 2; msb += 2; } */\n      tag_926\n      jumpi\n        /* \"ABDKMath64x64.sol\":14563:14564  2 */\n      0x02\n        /* \"ABDKMath64x64.sol\":14566:14574  msb += 2 */\n      swap2\n      dup3\n      add\n      swap2\n        /* \"ABDKMath64x64.sol\":14556:14564  xc >>= 2 */\n      sar\n        /* \"ABDKMath64x64.sol\":14539:14577  if (xc >= 0x4) { xc >>= 2; msb += 2; } */\n    tag_926:\n        /* \"ABDKMath64x64.sol\":14594:14597  0x2 */\n      0x02\n        /* \"ABDKMath64x64.sol\":14588:14590  xc */\n      dup2\n        /* \"ABDKMath64x64.sol\":14588:14597  xc >= 0x2 */\n      slt\n        /* \"ABDKMath64x64.sol\":14584:14607  if (xc >= 0x2) msb += 1 */\n      tag_927\n      jumpi\n        /* \"ABDKMath64x64.sol\":14606:14607  1 */\n      0x01\n        /* \"ABDKMath64x64.sol\":14599:14607  msb += 1 */\n      dup3\n      add\n      swap2\n      pop\n        /* \"ABDKMath64x64.sol\":14584:14607  if (xc >= 0x2) msb += 1 */\n    tag_927:\n      not(0x3f)\n        /* \"ABDKMath64x64.sol\":14664:14672  msb - 64 */\n      dup3\n      add\n        /* \"ABDKMath64x64.sol\":14676:14678  64 */\n      0x40\n        /* \"ABDKMath64x64.sol\":14664:14678  msb - 64 << 64 */\n      shl\n        /* \"ABDKMath64x64.sol\":14708:14718  int256 (x) */\n      0x0f\n      dup6\n      swap1\n      signextend\n        /* \"ABDKMath64x64.sol\":14732:14735  127 */\n      0x7f\n        /* \"ABDKMath64x64.sol\":14732:14741  127 - msb */\n      dup5\n      swap1\n      sub\n        /* \"ABDKMath64x64.sol\":14699:14742  uint256 (int256 (x)) << uint256 (127 - msb) */\n      shl\n        /* \"ABDKMath64x64.sol\":14768:14786  0x8000000000000000 */\n      0x8000000000000000\n        /* \"ABDKMath64x64.sol\":14750:14926  for (int256 bit = 0x8000000000000000; bit > 0; bit >>= 1) {... */\n    tag_928:\n        /* \"ABDKMath64x64.sol\":14794:14795  0 */\n      0x00\n        /* \"ABDKMath64x64.sol\":14788:14791  bit */\n      dup2\n        /* \"ABDKMath64x64.sol\":14788:14795  bit > 0 */\n      sgt\n        /* \"ABDKMath64x64.sol\":14750:14926  for (int256 bit = 0x8000000000000000; bit > 0; bit >>= 1) {... */\n      iszero\n      tag_544\n      jumpi\n        /* \"ABDKMath64x64.sol\":14818:14826  ux *= ux */\n      swap1\n      dup1\n      mul\n        /* \"ABDKMath64x64.sol\":14854:14857  255 */\n      0xff\n        /* \"ABDKMath64x64.sol\":14848:14857  ux >> 255 */\n      dup2\n      swap1\n      shr\n        /* \"ABDKMath64x64.sol\":14901:14917  bit * int256 (b) */\n      dup3\n      dup2\n      mul\n        /* \"ABDKMath64x64.sol\":14891:14917  result += bit * int256 (b) */\n      swap4\n      swap1\n      swap4\n      add\n      swap3\n        /* \"ABDKMath64x64.sol\":14874:14877  127 */\n      0x7f\n        /* \"ABDKMath64x64.sol\":14874:14881  127 + b */\n      add\n        /* \"ABDKMath64x64.sol\":14867:14881  ux >>= 127 + b */\n      shr\n      swap1\n        /* \"ABDKMath64x64.sol\":14805:14806  1 */\n      0x01\n        /* \"ABDKMath64x64.sol\":14797:14806  bit >>= 1 */\n      sar\n        /* \"ABDKMath64x64.sol\":14750:14926  for (int256 bit = 0x8000000000000000; bit > 0; bit >>= 1) {... */\n      jump(tag_928)\n        /* \"ABDKMath64x64.sol\":23164:24449  function divuu (uint256 x, uint256 y) private pure returns (uint128) {... */\n    tag_744:\n        /* \"ABDKMath64x64.sol\":23224:23231  uint128 */\n      0x00\n        /* \"ABDKMath64x64.sol\":23266:23267  y */\n      dup2\n        /* \"ABDKMath64x64.sol\":23271:23272  0 */\n      0x00\n        /* \"ABDKMath64x64.sol\":23266:23272  y != 0 */\n      sub\n        /* \"ABDKMath64x64.sol\":23257:23273  require (y != 0) */\n      tag_932\n      jumpi\n      0x00\n      dup1\n      revert\n    tag_932:\n        /* \"ABDKMath64x64.sol\":23282:23296  uint256 result */\n      0x00\n        /* \"ABDKMath64x64.sol\":23314:23364  0xFFFFFFFFFFFFFFFFFFFFFFFFFFFFFFFFFFFFFFFFFFFFFFFF */\n      0xffffffffffffffffffffffffffffffffffffffffffffffff\n        /* \"ABDKMath64x64.sol\":23309:23310  x */\n      dup5\n        /* \"ABDKMath64x64.sol\":23309:23364  x <= 0xFFFFFFFFFFFFFFFFFFFFFFFFFFFFFFFFFFFFFFFFFFFFFFFF */\n      gt\n        /* \"ABDKMath64x64.sol\":23305:24345  if (x <= 0xFFFFFFFFFFFFFFFFFFFFFFFFFFFFFFFFFFFFFFFFFFFFFFFF)... */\n      tag_933\n      jumpi\n        /* \"ABDKMath64x64.sol\":23395:23396  y */\n      dup3\n        /* \"ABDKMath64x64.sol\":23389:23391  64 */\n      0x40\n        /* \"ABDKMath64x64.sol\":23384:23385  x */\n      dup6\n        /* \"ABDKMath64x64.sol\":23384:23391  x << 64 */\n      swap1\n      shl\n        /* \"ABDKMath64x64.sol\":23383:23396  (x << 64) / y */\n      dup2\n      tag_935\n      jumpi\n      tag_935\n      tag_724\n      jump\t// in\n    tag_935:\n      div\n        /* \"ABDKMath64x64.sol\":23374:23396  result = (x << 64) / y */\n      swap1\n      pop\n        /* \"ABDKMath64x64.sol\":23305:24345  if (x <= 0xFFFFFFFFFFFFFFFFFFFFFFFFFFFFFFFFFFFFFFFFFFFFFFFF)... */\n      jump(tag_936)\n    tag_933:\n        /* \"ABDKMath64x64.sol\":23433:23436  192 */\n      0xc0\n        /* \"ABDKMath64x64.sol\":23459:23467  x >> 192 */\n      dup5\n      dup2\n      shr\n        /* \"ABDKMath64x64.sol\":23487:23498  0x100000000 */\n      0x0100000000\n        /* \"ABDKMath64x64.sol\":23481:23498  xc >= 0x100000000 */\n      dup2\n      lt\n        /* \"ABDKMath64x64.sol\":23477:23525  if (xc >= 0x100000000) { xc >>= 32; msb += 32; } */\n      tag_937\n      jumpi\n        /* \"ABDKMath64x64.sol\":23509:23511  32 */\n      0x20\n        /* \"ABDKMath64x64.sol\":23513:23522  msb += 32 */\n      swap2\n      dup3\n      add\n      swap2\n        /* \"ABDKMath64x64.sol\":23502:23511  xc >>= 32 */\n      shr\n        /* \"ABDKMath64x64.sol\":23477:23525  if (xc >= 0x100000000) { xc >>= 32; msb += 32; } */\n    tag_937:\n        /* \"ABDKMath64x64.sol\":23544:23551  0x10000 */\n      0x010000\n        /* \"ABDKMath64x64.sol\":23538:23540  xc */\n      dup2\n        /* \"ABDKMath64x64.sol\":23538:23551  xc >= 0x10000 */\n      lt\n        /* \"ABDKMath64x64.sol\":23534:23578  if (xc >= 0x10000) { xc >>= 16; msb += 16; } */\n      tag_938\n      jumpi\n        /* \"ABDKMath64x64.sol\":23562:23564  16 */\n      0x10\n        /* \"ABDKMath64x64.sol\":23566:23575  msb += 16 */\n      swap2\n      dup3\n      add\n      swap2\n        /* \"ABDKMath64x64.sol\":23555:23564  xc >>= 16 */\n      shr\n        /* \"ABDKMath64x64.sol\":23534:23578  if (xc >= 0x10000) { xc >>= 16; msb += 16; } */\n    tag_938:\n        /* \"ABDKMath64x64.sol\":23597:23602  0x100 */\n      0x0100\n        /* \"ABDKMath64x64.sol\":23591:23593  xc */\n      dup2\n        /* \"ABDKMath64x64.sol\":23591:23602  xc >= 0x100 */\n      lt\n        /* \"ABDKMath64x64.sol\":23587:23627  if (xc >= 0x100) { xc >>= 8; msb += 8; } */\n      tag_939\n      jumpi\n        /* \"ABDKMath64x64.sol\":23613:23614  8 */\n      0x08\n        /* \"ABDKMath64x64.sol\":23616:23624  msb += 8 */\n      swap2\n      dup3\n      add\n      swap2\n        /* \"ABDKMath64x64.sol\":23606:23614  xc >>= 8 */\n      shr\n        /* \"ABDKMath64x64.sol\":23587:23627  if (xc >= 0x100) { xc >>= 8; msb += 8; } */\n    tag_939:\n        /* \"ABDKMath64x64.sol\":23646:23650  0x10 */\n      0x10\n        /* \"ABDKMath64x64.sol\":23640:23642  xc */\n      dup2\n        /* \"ABDKMath64x64.sol\":23640:23650  xc >= 0x10 */\n      lt\n        /* \"ABDKMath64x64.sol\":23636:23675  if (xc >= 0x10) { xc >>= 4; msb += 4; } */\n      tag_940\n      jumpi\n        /* \"ABDKMath64x64.sol\":23661:23662  4 */\n      0x04\n        /* \"ABDKMath64x64.sol\":23664:23672  msb += 4 */\n      swap2\n      dup3\n      add\n      swap2\n        /* \"ABDKMath64x64.sol\":23654:23662  xc >>= 4 */\n      shr\n        /* \"ABDKMath64x64.sol\":23636:23675  if (xc >= 0x10) { xc >>= 4; msb += 4; } */\n    tag_940:\n        /* \"ABDKMath64x64.sol\":23694:23697  0x4 */\n      0x04\n        /* \"ABDKMath64x64.sol\":23688:23690  xc */\n      dup2\n        /* \"ABDKMath64x64.sol\":23688:23697  xc >= 0x4 */\n      lt\n        /* \"ABDKMath64x64.sol\":23684:23722  if (xc >= 0x4) { xc >>= 2; msb += 2; } */\n      tag_941\n      jumpi\n        /* \"ABDKMath64x64.sol\":23708:23709  2 */\n      0x02\n        /* \"ABDKMath64x64.sol\":23711:23719  msb += 2 */\n      swap2\n      dup3\n      add\n      swap2\n        /* \"ABDKMath64x64.sol\":23701:23709  xc >>= 2 */\n      shr\n        /* \"ABDKMath64x64.sol\":23684:23722  if (xc >= 0x4) { xc >>= 2; msb += 2; } */\n    tag_941:\n        /* \"ABDKMath64x64.sol\":23741:23744  0x2 */\n      0x02\n        /* \"ABDKMath64x64.sol\":23735:23737  xc */\n      dup2\n        /* \"ABDKMath64x64.sol\":23735:23744  xc >= 0x2 */\n      lt\n        /* \"ABDKMath64x64.sol\":23731:23754  if (xc >= 0x2) msb += 1 */\n      tag_942\n      jumpi\n        /* \"ABDKMath64x64.sol\":23753:23754  1 */\n      0x01\n        /* \"ABDKMath64x64.sol\":23746:23754  msb += 1 */\n      dup3\n      add\n      swap2\n      pop\n        /* \"ABDKMath64x64.sol\":23731:23754  if (xc >= 0x2) msb += 1 */\n    tag_942:\n        /* \"ABDKMath64x64.sol\":23842:23845  191 */\n      0xbf\n        /* \"ABDKMath64x64.sol\":23836:23839  msb */\n      dup3\n        /* \"ABDKMath64x64.sol\":23836:23845  msb - 191 */\n      sub\n        /* \"ABDKMath64x64.sol\":23831:23832  1 */\n      0x01\n        /* \"ABDKMath64x64.sol\":23827:23828  y */\n      dup7\n        /* \"ABDKMath64x64.sol\":23827:23832  y - 1 */\n      sub\n        /* \"ABDKMath64x64.sol\":23827:23845  y - 1 >> msb - 191 */\n      swap1\n      shr\n        /* \"ABDKMath64x64.sol\":23849:23850  1 */\n      0x01\n        /* \"ABDKMath64x64.sol\":23826:23850  (y - 1 >> msb - 191) + 1 */\n      add\n        /* \"ABDKMath64x64.sol\":23818:23821  msb */\n      dup3\n        /* \"ABDKMath64x64.sol\":23812:23815  255 */\n      0xff\n        /* \"ABDKMath64x64.sol\":23812:23821  255 - msb */\n      sub\n        /* \"ABDKMath64x64.sol\":23807:23808  x */\n      dup8\n        /* \"ABDKMath64x64.sol\":23807:23821  x << 255 - msb */\n      swap1\n      shl\n        /* \"ABDKMath64x64.sol\":23806:23851  (x << 255 - msb) / ((y - 1 >> msb - 191) + 1) */\n      dup2\n      tag_944\n      jumpi\n      tag_944\n      tag_724\n      jump\t// in\n    tag_944:\n      div\n        /* \"ABDKMath64x64.sol\":23797:23851  result = (x << 255 - msb) / ((y - 1 >> msb - 191) + 1) */\n      swap3\n      pop\n      sub(shl(0x80, 0x01), 0x01)\n        /* \"ABDKMath64x64.sol\":23870:23876  result */\n      dup4\n        /* \"ABDKMath64x64.sol\":23870:23914  result <= 0xFFFFFFFFFFFFFFFFFFFFFFFFFFFFFFFF */\n      gt\n      iszero\n        /* \"ABDKMath64x64.sol\":23861:23915  require (result <= 0xFFFFFFFFFFFFFFFFFFFFFFFFFFFFFFFF) */\n      tag_945\n      jumpi\n      0x00\n      dup1\n      revert\n    tag_945:\n        /* \"ABDKMath64x64.sol\":23954:23957  128 */\n      0x80\n        /* \"ABDKMath64x64.sol\":23949:23957  y >> 128 */\n      dup6\n      swap1\n      shr\n        /* \"ABDKMath64x64.sol\":23939:23958  result * (y >> 128) */\n      dup4\n      mul\n      sub(shl(0x80, 0x01), 0x01)\n        /* \"ABDKMath64x64.sol\":23991:24029  y & 0xFFFFFFFFFFFFFFFFFFFFFFFFFFFFFFFF */\n      dup7\n      and\n        /* \"ABDKMath64x64.sol\":23981:24030  result * (y & 0xFFFFFFFFFFFFFFFFFFFFFFFFFFFFFFFF) */\n      dup5\n      mul\n        /* \"ABDKMath64x64.sol\":24059:24062  192 */\n      0xc0\n        /* \"ABDKMath64x64.sol\":24054:24062  x >> 192 */\n      dup9\n      swap1\n      shr\n        /* \"ABDKMath64x64.sol\":24090:24092  64 */\n      0x40\n        /* \"ABDKMath64x64.sol\":24085:24092  x << 64 */\n      dup10\n      swap1\n      shl\n        /* \"ABDKMath64x64.sol\":24107:24114  xl < lo */\n      dup3\n      dup2\n      lt\n        /* \"ABDKMath64x64.sol\":24103:24123  if (xl < lo) xh -= 1 */\n      iszero\n      tag_946\n      jumpi\n        /* \"ABDKMath64x64.sol\":24122:24123  1 */\n      0x01\n        /* \"ABDKMath64x64.sol\":24116:24123  xh -= 1 */\n      dup3\n      sub\n      swap2\n      pop\n        /* \"ABDKMath64x64.sol\":24103:24123  if (xl < lo) xh -= 1 */\n    tag_946:\n        /* \"ABDKMath64x64.sol\":24199:24202  128 */\n      0x80\n        /* \"ABDKMath64x64.sol\":24193:24202  hi << 128 */\n      dup5\n      swap1\n      shl\n      swap3\n        /* \"ABDKMath64x64.sol\":24133:24141  xl -= lo */\n      swap1\n      sub\n        /* \"ABDKMath64x64.sol\":24216:24223  xl < lo */\n      dup3\n      dup2\n      lt\n        /* \"ABDKMath64x64.sol\":24212:24232  if (xl < lo) xh -= 1 */\n      iszero\n      tag_947\n      jumpi\n        /* \"ABDKMath64x64.sol\":24231:24232  1 */\n      0x01\n        /* \"ABDKMath64x64.sol\":24225:24232  xh -= 1 */\n      dup3\n      sub\n      swap2\n      pop\n        /* \"ABDKMath64x64.sol\":24212:24232  if (xl < lo) xh -= 1 */\n    tag_947:\n        /* \"ABDKMath64x64.sol\":24242:24250  xl -= lo */\n      dup3\n      swap1\n      sub\n        /* \"ABDKMath64x64.sol\":24320:24323  128 */\n      0x80\n        /* \"ABDKMath64x64.sol\":24314:24323  hi >> 128 */\n      dup5\n      swap1\n      shr\n        /* \"ABDKMath64x64.sol\":24308:24323  xh == hi >> 128 */\n      dup3\n      eq\n        /* \"ABDKMath64x64.sol\":24308:24336  xh == hi >> 128 ? xl / y : 1 */\n      tag_948\n      jumpi\n        /* \"ABDKMath64x64.sol\":24335:24336  1 */\n      0x01\n        /* \"ABDKMath64x64.sol\":24308:24336  xh == hi >> 128 ? xl / y : 1 */\n      jump(tag_949)\n    tag_948:\n        /* \"ABDKMath64x64.sol\":24331:24332  y */\n      dup9\n        /* \"ABDKMath64x64.sol\":24326:24328  xl */\n      dup2\n        /* \"ABDKMath64x64.sol\":24326:24332  xl / y */\n      dup2\n      tag_951\n      jumpi\n      tag_951\n      tag_724\n      jump\t// in\n    tag_951:\n      div\n        /* \"ABDKMath64x64.sol\":24308:24336  xh == hi >> 128 ? xl / y : 1 */\n    tag_949:\n        /* \"ABDKMath64x64.sol\":24298:24336  result += xh == hi >> 128 ? xl / y : 1 */\n      dup8\n      add\n      swap7\n      pop\n        /* \"ABDKMath64x64.sol\":23409:24345  {... */\n      pop\n      pop\n      pop\n      pop\n      pop\n      pop\n        /* \"ABDKMath64x64.sol\":23305:24345  if (x <= 0xFFFFFFFFFFFFFFFFFFFFFFFFFFFFFFFFFFFFFFFFFFFFFFFF)... */\n    tag_936:\n      sub(shl(0x80, 0x01), 0x01)\n        /* \"ABDKMath64x64.sol\":24362:24368  result */\n      dup2\n        /* \"ABDKMath64x64.sol\":24362:24406  result <= 0xFFFFFFFFFFFFFFFFFFFFFFFFFFFFFFFF */\n      gt\n      iszero\n        /* \"ABDKMath64x64.sol\":24353:24407  require (result <= 0xFFFFFFFFFFFFFFFFFFFFFFFFFFFFFFFF) */\n      tag_486\n      jumpi\n      0x00\n      dup1\n      revert\n        /* \"@openzeppelin/contracts/token/ERC20/utils/SafeERC20.sol\":8370:9090   */\n    tag_756:\n        /* \"@openzeppelin/contracts/token/ERC20/utils/SafeERC20.sol\":8450:8468   */\n      0x00\n        /* \"@openzeppelin/contracts/token/ERC20/utils/SafeERC20.sol\":8478:8497   */\n      dup1\n        /* \"@openzeppelin/contracts/token/ERC20/utils/SafeERC20.sol\":8616:8620   */\n      0x20\n        /* \"@openzeppelin/contracts/token/ERC20/utils/SafeERC20.sol\":8613:8614   */\n      0x00\n        /* \"@openzeppelin/contracts/token/ERC20/utils/SafeERC20.sol\":8606:8610   */\n      dup5\n        /* \"@openzeppelin/contracts/token/ERC20/utils/SafeERC20.sol\":8600:8611   */\n      mload\n        /* \"@openzeppelin/contracts/token/ERC20/utils/SafeERC20.sol\":8593:8597   */\n      0x20\n        /* \"@openzeppelin/contracts/token/ERC20/utils/SafeERC20.sol\":8587:8591   */\n      dup7\n        /* \"@openzeppelin/contracts/token/ERC20/utils/SafeERC20.sol\":8583:8598   */\n      add\n        /* \"@openzeppelin/contracts/token/ERC20/utils/SafeERC20.sol\":8580:8581   */\n      0x00\n        /* \"@openzeppelin/contracts/token/ERC20/utils/SafeERC20.sol\":8573:8578   */\n      dup9\n        /* \"@openzeppelin/contracts/token/ERC20/utils/SafeERC20.sol\":8566:8571   */\n      gas\n        /* \"@openzeppelin/contracts/token/ERC20/utils/SafeERC20.sol\":8561:8621   */\n      call\n        /* \"@openzeppelin/contracts/token/ERC20/utils/SafeERC20.sol\":8673:8680   */\n      dup1\n        /* \"@openzeppelin/contracts/token/ERC20/utils/SafeERC20.sol\":8663:8839   */\n      tag_955\n      jumpi\n        /* \"@openzeppelin/contracts/token/ERC20/utils/SafeERC20.sol\":8717:8721   */\n      0x40\n        /* \"@openzeppelin/contracts/token/ERC20/utils/SafeERC20.sol\":8711:8722   */\n      mload\n        /* \"@openzeppelin/contracts/token/ERC20/utils/SafeERC20.sol\":8762:8778   */\n      returndatasize\n        /* \"@openzeppelin/contracts/token/ERC20/utils/SafeERC20.sol\":8759:8760   */\n      0x00\n        /* \"@openzeppelin/contracts/token/ERC20/utils/SafeERC20.sol\":8754:8757   */\n      dup3\n        /* \"@openzeppelin/contracts/token/ERC20/utils/SafeERC20.sol\":8739:8779   */\n      returndatacopy\n        /* \"@openzeppelin/contracts/token/ERC20/utils/SafeERC20.sol\":8808:8824   */\n      returndatasize\n        /* \"@openzeppelin/contracts/token/ERC20/utils/SafeERC20.sol\":8803:8806   */\n      dup2\n        /* \"@openzeppelin/contracts/token/ERC20/utils/SafeERC20.sol\":8796:8825   */\n      revert\n        /* \"@openzeppelin/contracts/token/ERC20/utils/SafeERC20.sol\":8663:8839   */\n    tag_955:\n      pop\n      pop\n        /* \"@openzeppelin/contracts/token/ERC20/utils/SafeERC20.sol\":8916:8917   */\n      0x00\n        /* \"@openzeppelin/contracts/token/ERC20/utils/SafeERC20.sol\":8910:8918   */\n      mload\n        /* \"@openzeppelin/contracts/token/ERC20/utils/SafeERC20.sol\":8866:8882   */\n      returndatasize\n      swap2\n      pop\n        /* \"@openzeppelin/contracts/token/ERC20/utils/SafeERC20.sol\":8942:8957   */\n      dup2\n      iszero\n        /* \"@openzeppelin/contracts/token/ERC20/utils/SafeERC20.sol\":8942:9010   */\n      tag_956\n      jumpi\n        /* \"@openzeppelin/contracts/token/ERC20/utils/SafeERC20.sol\":8994:9005   */\n      dup1\n        /* \"@openzeppelin/contracts/token/ERC20/utils/SafeERC20.sol\":9009:9010   */\n      0x01\n        /* \"@openzeppelin/contracts/token/ERC20/utils/SafeERC20.sol\":8994:9010   */\n      eq\n      iszero\n        /* \"@openzeppelin/contracts/token/ERC20/utils/SafeERC20.sol\":8942:9010   */\n      jump(tag_957)\n    tag_956:\n      sub(shl(0xa0, 0x01), 0x01)\n        /* \"@openzeppelin/contracts/token/ERC20/utils/SafeERC20.sol\":8960:8986   */\n      dup5\n      and\n      extcodesize\n        /* \"@openzeppelin/contracts/token/ERC20/utils/SafeERC20.sol\":8960:8991   */\n      iszero\n        /* \"@openzeppelin/contracts/token/ERC20/utils/SafeERC20.sol\":8942:9010   */\n    tag_957:\n        /* \"@openzeppelin/contracts/token/ERC20/utils/SafeERC20.sol\":8938:9084   */\n      iszero\n      tag_758\n      jumpi\n        /* \"@openzeppelin/contracts/token/ERC20/utils/SafeERC20.sol\":9033:9073   */\n      mload(0x40)\n      shl(0xe0, 0x5274afe7)\n      dup2\n      mstore\n      sub(shl(0xa0, 0x01), 0x01)\n        /* \"#utility.yul\":5678:5733   */\n      dup6\n      and\n        /* \"@openzeppelin/contracts/token/ERC20/utils/SafeERC20.sol\":9033:9073   */\n      0x04\n      dup3\n      add\n        /* \"#utility.yul\":5660:5734   */\n      mstore\n        /* \"#utility.yul\":5633:5651   */\n      0x24\n      add\n        /* \"@openzeppelin/contracts/token/ERC20/utils/SafeERC20.sol\":9033:9073   */\n      tag_207\n        /* \"#utility.yul\":5514:5740   */\n      jump\n        /* \"#utility.yul\":14:300   */\n    tag_54:\n        /* \"#utility.yul\":72:78   */\n      0x00\n        /* \"#utility.yul\":125:127   */\n      0x20\n        /* \"#utility.yul\":113:122   */\n      dup3\n        /* \"#utility.yul\":104:111   */\n      dup5\n        /* \"#utility.yul\":100:123   */\n      sub\n        /* \"#utility.yul\":96:128   */\n      slt\n        /* \"#utility.yul\":93:145   */\n      iszero\n      tag_973\n      jumpi\n        /* \"#utility.yul\":141:142   */\n      0x00\n        /* \"#utility.yul\":138:139   */\n      dup1\n        /* \"#utility.yul\":131:143   */\n      revert\n        /* \"#utility.yul\":93:145   */\n    tag_973:\n        /* \"#utility.yul\":167:190   */\n      dup2\n      calldataload\n      not(sub(shl(0xe0, 0x01), 0x01))\n        /* \"#utility.yul\":219:251   */\n      dup2\n      and\n        /* \"#utility.yul\":209:252   */\n      dup2\n      eq\n        /* \"#utility.yul\":199:270   */\n      tag_486\n      jumpi\n        /* \"#utility.yul\":266:267   */\n      0x00\n        /* \"#utility.yul\":263:264   */\n      dup1\n        /* \"#utility.yul\":256:268   */\n      revert\n        /* \"#utility.yul\":497:693   */\n    tag_960:\n        /* \"#utility.yul\":565:585   */\n      dup1\n      calldataload\n      sub(shl(0xa0, 0x01), 0x01)\n        /* \"#utility.yul\":614:668   */\n      dup2\n      and\n        /* \"#utility.yul\":604:669   */\n      dup2\n      eq\n        /* \"#utility.yul\":594:687   */\n      tag_763\n      jumpi\n        /* \"#utility.yul\":683:684   */\n      0x00\n        /* \"#utility.yul\":680:681   */\n      dup1\n        /* \"#utility.yul\":673:685   */\n      revert\n        /* \"#utility.yul\":698:860   */\n    tag_961:\n        /* \"#utility.yul\":765:785   */\n      dup1\n      calldataload\n        /* \"#utility.yul\":825:827   */\n      0x0f\n        /* \"#utility.yul\":814:835   */\n      dup2\n      swap1\n      signextend\n        /* \"#utility.yul\":804:836   */\n      dup2\n      eq\n        /* \"#utility.yul\":794:854   */\n      tag_763\n      jumpi\n        /* \"#utility.yul\":850:851   */\n      0x00\n        /* \"#utility.yul\":847:848   */\n      dup1\n        /* \"#utility.yul\":840:852   */\n      revert\n        /* \"#utility.yul\":865:1123   */\n    tag_60:\n        /* \"#utility.yul\":932:938   */\n      0x00\n        /* \"#utility.yul\":940:946   */\n      dup1\n        /* \"#utility.yul\":993:995   */\n      0x40\n        /* \"#utility.yul\":981:990   */\n      dup4\n        /* \"#utility.yul\":972:979   */\n      dup6\n        /* \"#utility.yul\":968:991   */\n      sub\n        /* \"#utility.yul\":964:996   */\n      slt\n        /* \"#utility.yul\":961:1013   */\n      iszero\n      tag_981\n      jumpi\n        /* \"#utility.yul\":1009:1010   */\n      0x00\n        /* \"#utility.yul\":1006:1007   */\n      dup1\n        /* \"#utility.yul\":999:1011   */\n      revert\n        /* \"#utility.yul\":961:1013   */\n    tag_981:\n        /* \"#utility.yul\":1032:1061   */\n      tag_982\n        /* \"#utility.yul\":1051:1060   */\n      dup4\n        /* \"#utility.yul\":1032:1061   */\n      tag_960\n      jump\t// in\n    tag_982:\n        /* \"#utility.yul\":1022:1061   */\n      swap2\n      pop\n        /* \"#utility.yul\":1080:1117   */\n      tag_983\n        /* \"#utility.yul\":1113:1115   */\n      0x20\n        /* \"#utility.yul\":1102:1111   */\n      dup5\n        /* \"#utility.yul\":1098:1116   */\n      add\n        /* \"#utility.yul\":1080:1117   */\n      tag_961\n      jump\t// in\n    tag_983:\n        /* \"#utility.yul\":1070:1117   */\n      swap1\n      pop\n        /* \"#utility.yul\":865:1123   */\n      swap3\n      pop\n      swap3\n      swap1\n      pop\n      jump\t// out\n        /* \"#utility.yul\":1310:1558   */\n    tag_66:\n        /* \"#utility.yul\":1378:1384   */\n      0x00\n        /* \"#utility.yul\":1386:1392   */\n      dup1\n        /* \"#utility.yul\":1439:1441   */\n      0x40\n        /* \"#utility.yul\":1427:1436   */\n      dup4\n        /* \"#utility.yul\":1418:1425   */\n      dup6\n        /* \"#utility.yul\":1414:1437   */\n      sub\n        /* \"#utility.yul\":1410:1442   */\n      slt\n        /* \"#utility.yul\":1407:1459   */\n      iszero\n      tag_986\n      jumpi\n        /* \"#utility.yul\":1455:1456   */\n      0x00\n        /* \"#utility.yul\":1452:1453   */\n      dup1\n        /* \"#utility.yul\":1445:1457   */\n      revert\n        /* \"#utility.yul\":1407:1459   */\n    tag_986:\n      pop\n      pop\n        /* \"#utility.yul\":1478:1501   */\n      dup1\n      calldataload\n      swap3\n        /* \"#utility.yul\":1548:1550   */\n      0x20\n        /* \"#utility.yul\":1533:1551   */\n      swap1\n      swap2\n      add\n        /* \"#utility.yul\":1520:1552   */\n      calldataload\n      swap2\n      pop\n        /* \"#utility.yul\":1310:1558   */\n      jump\t// out\n        /* \"#utility.yul\":1563:1817   */\n    tag_71:\n        /* \"#utility.yul\":1631:1637   */\n      0x00\n        /* \"#utility.yul\":1639:1645   */\n      dup1\n        /* \"#utility.yul\":1692:1694   */\n      0x40\n        /* \"#utility.yul\":1680:1689   */\n      dup4\n        /* \"#utility.yul\":1671:1678   */\n      dup6\n        /* \"#utility.yul\":1667:1690   */\n      sub\n        /* \"#utility.yul\":1663:1695   */\n      slt\n        /* \"#utility.yul\":1660:1712   */\n      iszero\n      tag_988\n      jumpi\n        /* \"#utility.yul\":1708:1709   */\n      0x00\n        /* \"#utility.yul\":1705:1706   */\n      dup1\n        /* \"#utility.yul\":1698:1710   */\n      revert\n        /* \"#utility.yul\":1660:1712   */\n    tag_988:\n        /* \"#utility.yul\":1731:1760   */\n      tag_989\n        /* \"#utility.yul\":1750:1759   */\n      dup4\n        /* \"#utility.yul\":1731:1760   */\n      tag_960\n      jump\t// in\n    tag_989:\n        /* \"#utility.yul\":1721:1760   */\n      swap5\n        /* \"#utility.yul\":1807:1809   */\n      0x20\n        /* \"#utility.yul\":1792:1810   */\n      swap4\n      swap1\n      swap4\n      add\n        /* \"#utility.yul\":1779:1811   */\n      calldataload\n      swap4\n      pop\n      pop\n      pop\n        /* \"#utility.yul\":1563:1817   */\n      jump\t// out\n        /* \"#utility.yul\":2018:2198   */\n    tag_80:\n        /* \"#utility.yul\":2077:2083   */\n      0x00\n        /* \"#utility.yul\":2130:2132   */\n      0x20\n        /* \"#utility.yul\":2118:2127   */\n      dup3\n        /* \"#utility.yul\":2109:2116   */\n      dup5\n        /* \"#utility.yul\":2105:2128   */\n      sub\n        /* \"#utility.yul\":2101:2133   */\n      slt\n        /* \"#utility.yul\":2098:2150   */\n      iszero\n      tag_992\n      jumpi\n        /* \"#utility.yul\":2146:2147   */\n      0x00\n        /* \"#utility.yul\":2143:2144   */\n      dup1\n        /* \"#utility.yul\":2136:2148   */\n      revert\n        /* \"#utility.yul\":2098:2150   */\n    tag_992:\n      pop\n        /* \"#utility.yul\":2169:2192   */\n      calldataload\n      swap2\n        /* \"#utility.yul\":2018:2198   */\n      swap1\n      pop\n      jump\t// out\n        /* \"#utility.yul\":2641:3170   */\n    tag_101:\n        /* \"#utility.yul\":2745:2751   */\n      0x00\n        /* \"#utility.yul\":2753:2759   */\n      dup1\n        /* \"#utility.yul\":2761:2767   */\n      0x00\n        /* \"#utility.yul\":2769:2775   */\n      dup1\n        /* \"#utility.yul\":2777:2783   */\n      0x00\n        /* \"#utility.yul\":2785:2791   */\n      dup1\n        /* \"#utility.yul\":2838:2841   */\n      0xc0\n        /* \"#utility.yul\":2826:2835   */\n      dup8\n        /* \"#utility.yul\":2817:2824   */\n      dup10\n        /* \"#utility.yul\":2813:2836   */\n      sub\n        /* \"#utility.yul\":2809:2842   */\n      slt\n        /* \"#utility.yul\":2806:2859   */\n      iszero\n      tag_997\n      jumpi\n        /* \"#utility.yul\":2855:2856   */\n      0x00\n        /* \"#utility.yul\":2852:2853   */\n      dup1\n        /* \"#utility.yul\":2845:2857   */\n      revert\n        /* \"#utility.yul\":2806:2859   */\n    tag_997:\n        /* \"#utility.yul\":2878:2907   */\n      tag_998\n        /* \"#utility.yul\":2897:2906   */\n      dup8\n        /* \"#utility.yul\":2878:2907   */\n      tag_960\n      jump\t// in\n    tag_998:\n        /* \"#utility.yul\":2868:2907   */\n      swap9\n        /* \"#utility.yul\":2954:2956   */\n      0x20\n        /* \"#utility.yul\":2939:2957   */\n      dup9\n      add\n        /* \"#utility.yul\":2926:2958   */\n      calldataload\n      swap9\n      pop\n        /* \"#utility.yul\":3005:3007   */\n      0x40\n        /* \"#utility.yul\":2990:3008   */\n      dup9\n      add\n        /* \"#utility.yul\":2977:3009   */\n      calldataload\n      swap8\n        /* \"#utility.yul\":3056:3058   */\n      0x60\n        /* \"#utility.yul\":3041:3059   */\n      dup2\n      add\n        /* \"#utility.yul\":3028:3060   */\n      calldataload\n      swap8\n      pop\n        /* \"#utility.yul\":3107:3110   */\n      0x80\n        /* \"#utility.yul\":3092:3111   */\n      dup2\n      add\n        /* \"#utility.yul\":3079:3112   */\n      calldataload\n      swap7\n      pop\n        /* \"#utility.yul\":3159:3162   */\n      0xa0\n        /* \"#utility.yul\":3144:3163   */\n      add\n        /* \"#utility.yul\":3131:3164   */\n      calldataload\n      swap5\n      pop\n        /* \"#utility.yul\":2641:3170   */\n      swap3\n      pop\n      pop\n      pop\n      jump\t// out\n        /* \"#utility.yul\":3175:3302   */\n    tag_305:\n        /* \"#utility.yul\":3236:3246   */\n      0x4e487b71\n        /* \"#utility.yul\":3231:3234   */\n      0xe0\n        /* \"#utility.yul\":3227:3247   */\n      shl\n        /* \"#utility.yul\":3224:3225   */\n      0x00\n        /* \"#utility.yul\":3217:3248   */\n      mstore\n        /* \"#utility.yul\":3267:3271   */\n      0x41\n        /* \"#utility.yul\":3264:3265   */\n      0x04\n        /* \"#utility.yul\":3257:3272   */\n      mstore\n        /* \"#utility.yul\":3291:3295   */\n      0x24\n        /* \"#utility.yul\":3288:3289   */\n      0x00\n        /* \"#utility.yul\":3281:3296   */\n      revert\n        /* \"#utility.yul\":3307:3556   */\n    tag_962:\n        /* \"#utility.yul\":3417:3419   */\n      0x1f\n        /* \"#utility.yul\":3398:3411   */\n      dup3\n      add\n      not(0x1f)\n        /* \"#utility.yul\":3394:3421   */\n      and\n        /* \"#utility.yul\":3382:3422   */\n      dup2\n      add\n        /* \"#utility.yul\":3452:3470   */\n      0xffffffffffffffff\n        /* \"#utility.yul\":3437:3471   */\n      dup2\n      gt\n        /* \"#utility.yul\":3473:3495   */\n      dup3\n      dup3\n      lt\n        /* \"#utility.yul\":3434:3496   */\n      or\n        /* \"#utility.yul\":3431:3519   */\n      iszero\n      tag_1002\n      jumpi\n        /* \"#utility.yul\":3499:3517   */\n      tag_1002\n      tag_305\n      jump\t// in\n    tag_1002:\n        /* \"#utility.yul\":3535:3537   */\n      0x40\n        /* \"#utility.yul\":3528:3550   */\n      mstore\n      pop\n      pop\n        /* \"#utility.yul\":3307:3556   */\n      jump\t// out\n        /* \"#utility.yul\":3561:4360   */\n    tag_105:\n        /* \"#utility.yul\":3630:3636   */\n      0x00\n        /* \"#utility.yul\":3661:3663   */\n      0x20\n        /* \"#utility.yul\":3704:3706   */\n      dup1\n        /* \"#utility.yul\":3692:3701   */\n      dup4\n        /* \"#utility.yul\":3683:3690   */\n      dup6\n        /* \"#utility.yul\":3679:3702   */\n      sub\n        /* \"#utility.yul\":3675:3707   */\n      slt\n        /* \"#utility.yul\":3672:3724   */\n      iszero\n      tag_1004\n      jumpi\n        /* \"#utility.yul\":3720:3721   */\n      0x00\n        /* \"#utility.yul\":3717:3718   */\n      dup1\n        /* \"#utility.yul\":3710:3722   */\n      revert\n        /* \"#utility.yul\":3672:3724   */\n    tag_1004:\n        /* \"#utility.yul\":3760:3769   */\n      dup3\n        /* \"#utility.yul\":3747:3770   */\n      calldataload\n        /* \"#utility.yul\":3789:3807   */\n      0xffffffffffffffff\n        /* \"#utility.yul\":3830:3832   */\n      dup1\n        /* \"#utility.yul\":3822:3828   */\n      dup3\n        /* \"#utility.yul\":3819:3833   */\n      gt\n        /* \"#utility.yul\":3816:3850   */\n      iszero\n      tag_1005\n      jumpi\n        /* \"#utility.yul\":3846:3847   */\n      0x00\n        /* \"#utility.yul\":3843:3844   */\n      dup1\n        /* \"#utility.yul\":3836:3848   */\n      revert\n        /* \"#utility.yul\":3816:3850   */\n    tag_1005:\n        /* \"#utility.yul\":3884:3890   */\n      dup2\n        /* \"#utility.yul\":3873:3882   */\n      dup6\n        /* \"#utility.yul\":3869:3891   */\n      add\n        /* \"#utility.yul\":3859:3891   */\n      swap2\n      pop\n        /* \"#utility.yul\":3929:3936   */\n      dup6\n        /* \"#utility.yul\":3922:3926   */\n      0x1f\n        /* \"#utility.yul\":3918:3920   */\n      dup4\n        /* \"#utility.yul\":3914:3927   */\n      add\n        /* \"#utility.yul\":3910:3937   */\n      slt\n        /* \"#utility.yul\":3900:3955   */\n      tag_1006\n      jumpi\n        /* \"#utility.yul\":3951:3952   */\n      0x00\n        /* \"#utility.yul\":3948:3949   */\n      dup1\n        /* \"#utility.yul\":3941:3953   */\n      revert\n        /* \"#utility.yul\":3900:3955   */\n    tag_1006:\n        /* \"#utility.yul\":3987:3989   */\n      dup2\n        /* \"#utility.yul\":3974:3990   */\n      calldataload\n        /* \"#utility.yul\":4009:4011   */\n      dup2\n        /* \"#utility.yul\":4005:4007   */\n      dup2\n        /* \"#utility.yul\":4002:4012   */\n      gt\n        /* \"#utility.yul\":3999:4035   */\n      iszero\n      tag_1008\n      jumpi\n        /* \"#utility.yul\":4015:4033   */\n      tag_1008\n      tag_305\n      jump\t// in\n    tag_1008:\n        /* \"#utility.yul\":4064:4066   */\n      0x40\n        /* \"#utility.yul\":4058:4067   */\n      mload\n      swap2\n      pop\n        /* \"#utility.yul\":4076:4141   */\n      tag_1009\n        /* \"#utility.yul\":4131:4133   */\n      0x1f\n        /* \"#utility.yul\":4112:4125   */\n      dup3\n      add\n      not(0x1f)\n        /* \"#utility.yul\":4108:4135   */\n      and\n        /* \"#utility.yul\":4104:4140   */\n      dup6\n      add\n        /* \"#utility.yul\":4058:4067   */\n      dup4\n        /* \"#utility.yul\":4076:4141   */\n      tag_962\n      jump\t// in\n    tag_1009:\n        /* \"#utility.yul\":4165:4167   */\n      dup1\n        /* \"#utility.yul\":4157:4163   */\n      dup3\n        /* \"#utility.yul\":4150:4168   */\n      mstore\n        /* \"#utility.yul\":4205:4212   */\n      dup7\n        /* \"#utility.yul\":4200:4202   */\n      dup5\n        /* \"#utility.yul\":4195:4197   */\n      dup3\n        /* \"#utility.yul\":4191:4193   */\n      dup6\n        /* \"#utility.yul\":4187:4198   */\n      add\n        /* \"#utility.yul\":4183:4203   */\n      add\n        /* \"#utility.yul\":4180:4213   */\n      gt\n        /* \"#utility.yul\":4177:4230   */\n      iszero\n      tag_1010\n      jumpi\n        /* \"#utility.yul\":4226:4227   */\n      0x00\n        /* \"#utility.yul\":4223:4224   */\n      dup1\n        /* \"#utility.yul\":4216:4228   */\n      revert\n        /* \"#utility.yul\":4177:4230   */\n    tag_1010:\n        /* \"#utility.yul\":4282:4284   */\n      dup1\n        /* \"#utility.yul\":4277:4279   */\n      dup5\n        /* \"#utility.yul\":4273:4275   */\n      dup5\n        /* \"#utility.yul\":4269:4280   */\n      add\n        /* \"#utility.yul\":4264:4266   */\n      dup6\n        /* \"#utility.yul\":4256:4262   */\n      dup5\n        /* \"#utility.yul\":4252:4267   */\n      add\n        /* \"#utility.yul\":4239:4285   */\n      calldatacopy\n        /* \"#utility.yul\":4327:4328   */\n      0x00\n        /* \"#utility.yul\":4305:4320   */\n      swap1\n      dup3\n      add\n        /* \"#utility.yul\":4301:4325   */\n      swap1\n      swap4\n      add\n        /* \"#utility.yul\":4294:4329   */\n      swap3\n      swap1\n      swap3\n      mstore\n      pop\n        /* \"#utility.yul\":4309:4315   */\n      swap4\n        /* \"#utility.yul\":3561:4360   */\n      swap3\n      pop\n      pop\n      pop\n      jump\t// out\n        /* \"#utility.yul\":4547:4799   */\n    tag_118:\n        /* \"#utility.yul\":4614:4620   */\n      0x00\n        /* \"#utility.yul\":4622:4628   */\n      dup1\n        /* \"#utility.yul\":4675:4677   */\n      0x40\n        /* \"#utility.yul\":4663:4672   */\n      dup4\n        /* \"#utility.yul\":4654:4661   */\n      dup6\n        /* \"#utility.yul\":4650:4673   */\n      sub\n        /* \"#utility.yul\":4646:4678   */\n      slt\n        /* \"#utility.yul\":4643:4695   */\n      iszero\n      tag_1013\n      jumpi\n        /* \"#utility.yul\":4691:4692   */\n      0x00\n        /* \"#utility.yul\":4688:4689   */\n      dup1\n        /* \"#utility.yul\":4681:4693   */\n      revert\n        /* \"#utility.yul\":4643:4695   */\n    tag_1013:\n        /* \"#utility.yul\":4727:4736   */\n      dup3\n        /* \"#utility.yul\":4714:4737   */\n      calldataload\n        /* \"#utility.yul\":4704:4737   */\n      swap2\n      pop\n        /* \"#utility.yul\":4756:4793   */\n      tag_983\n        /* \"#utility.yul\":4789:4791   */\n      0x20\n        /* \"#utility.yul\":4778:4787   */\n      dup5\n        /* \"#utility.yul\":4774:4792   */\n      add\n        /* \"#utility.yul\":4756:4793   */\n      tag_961\n      jump\t// in\n        /* \"#utility.yul\":4804:5243   */\n    tag_963:\n        /* \"#utility.yul\":4857:4860   */\n      0x00\n        /* \"#utility.yul\":4895:4900   */\n      dup2\n        /* \"#utility.yul\":4889:4901   */\n      mload\n        /* \"#utility.yul\":4922:4928   */\n      dup1\n        /* \"#utility.yul\":4917:4920   */\n      dup5\n        /* \"#utility.yul\":4910:4929   */\n      mstore\n        /* \"#utility.yul\":4948:4952   */\n      0x20\n        /* \"#utility.yul\":4977:4981   */\n      dup1\n        /* \"#utility.yul\":4972:4975   */\n      dup6\n        /* \"#utility.yul\":4968:4982   */\n      add\n        /* \"#utility.yul\":4961:4982   */\n      swap5\n      pop\n        /* \"#utility.yul\":5016:5020   */\n      0x20\n        /* \"#utility.yul\":5009:5014   */\n      dup5\n        /* \"#utility.yul\":5005:5021   */\n      add\n        /* \"#utility.yul\":5039:5040   */\n      0x00\n        /* \"#utility.yul\":5049:5218   */\n    tag_1016:\n        /* \"#utility.yul\":5063:5069   */\n      dup4\n        /* \"#utility.yul\":5060:5061   */\n      dup2\n        /* \"#utility.yul\":5057:5070   */\n      lt\n        /* \"#utility.yul\":5049:5218   */\n      iszero\n      tag_1018\n      jumpi\n        /* \"#utility.yul\":5124:5137   */\n      dup2\n      mload\n        /* \"#utility.yul\":5112:5138   */\n      dup8\n      mstore\n        /* \"#utility.yul\":5158:5170   */\n      swap6\n      dup3\n      add\n      swap6\n        /* \"#utility.yul\":5193:5208   */\n      swap1\n      dup3\n      add\n      swap1\n        /* \"#utility.yul\":5085:5086   */\n      0x01\n        /* \"#utility.yul\":5078:5087   */\n      add\n        /* \"#utility.yul\":5049:5218   */\n      jump(tag_1016)\n    tag_1018:\n      pop\n        /* \"#utility.yul\":5234:5237   */\n      swap5\n      swap6\n        /* \"#utility.yul\":4804:5243   */\n      swap5\n      pop\n      pop\n      pop\n      pop\n      pop\n      jump\t// out\n        /* \"#utility.yul\":5248:5509   */\n    tag_143:\n        /* \"#utility.yul\":5427:5429   */\n      0x20\n        /* \"#utility.yul\":5416:5425   */\n      dup2\n        /* \"#utility.yul\":5409:5430   */\n      mstore\n        /* \"#utility.yul\":5390:5394   */\n      0x00\n        /* \"#utility.yul\":5447:5503   */\n      tag_486\n        /* \"#utility.yul\":5499:5501   */\n      0x20\n        /* \"#utility.yul\":5488:5497   */\n      dup4\n        /* \"#utility.yul\":5484:5502   */\n      add\n        /* \"#utility.yul\":5476:5482   */\n      dup5\n        /* \"#utility.yul\":5447:5503   */\n      tag_963\n      jump\t// in\n        /* \"#utility.yul\":5745:6112   */\n    tag_964:\n        /* \"#utility.yul\":5808:5816   */\n      0x00\n        /* \"#utility.yul\":5818:5824   */\n      dup1\n        /* \"#utility.yul\":5872:5875   */\n      dup4\n        /* \"#utility.yul\":5865:5869   */\n      0x1f\n        /* \"#utility.yul\":5857:5863   */\n      dup5\n        /* \"#utility.yul\":5853:5870   */\n      add\n        /* \"#utility.yul\":5849:5876   */\n      slt\n        /* \"#utility.yul\":5839:5894   */\n      tag_1023\n      jumpi\n        /* \"#utility.yul\":5890:5891   */\n      0x00\n        /* \"#utility.yul\":5887:5888   */\n      dup1\n        /* \"#utility.yul\":5880:5892   */\n      revert\n        /* \"#utility.yul\":5839:5894   */\n    tag_1023:\n      pop\n        /* \"#utility.yul\":5913:5933   */\n      dup2\n      calldataload\n        /* \"#utility.yul\":5956:5974   */\n      0xffffffffffffffff\n        /* \"#utility.yul\":5945:5975   */\n      dup2\n      gt\n        /* \"#utility.yul\":5942:5992   */\n      iszero\n      tag_1024\n      jumpi\n        /* \"#utility.yul\":5988:5989   */\n      0x00\n        /* \"#utility.yul\":5985:5986   */\n      dup1\n        /* \"#utility.yul\":5978:5990   */\n      revert\n        /* \"#utility.yul\":5942:5992   */\n    tag_1024:\n        /* \"#utility.yul\":6025:6029   */\n      0x20\n        /* \"#utility.yul\":6017:6023   */\n      dup4\n        /* \"#utility.yul\":6013:6030   */\n      add\n        /* \"#utility.yul\":6001:6030   */\n      swap2\n      pop\n        /* \"#utility.yul\":6085:6088   */\n      dup4\n        /* \"#utility.yul\":6078:6082   */\n      0x20\n        /* \"#utility.yul\":6068:6074   */\n      dup3\n        /* \"#utility.yul\":6065:6066   */\n      0x05\n        /* \"#utility.yul\":6061:6075   */\n      shl\n        /* \"#utility.yul\":6053:6059   */\n      dup6\n        /* \"#utility.yul\":6049:6076   */\n      add\n        /* \"#utility.yul\":6045:6083   */\n      add\n        /* \"#utility.yul\":6042:6089   */\n      gt\n        /* \"#utility.yul\":6039:6106   */\n      iszero\n      tag_1025\n      jumpi\n        /* \"#utility.yul\":6102:6103   */\n      0x00\n        /* \"#utility.yul\":6099:6100   */\n      dup1\n        /* \"#utility.yul\":6092:6104   */\n      revert\n        /* \"#utility.yul\":6039:6106   */\n    tag_1025:\n        /* \"#utility.yul\":5745:6112   */\n      swap3\n      pop\n      swap3\n      swap1\n      pop\n      jump\t// out\n        /* \"#utility.yul\":6117:6464   */\n    tag_965:\n        /* \"#utility.yul\":6168:6176   */\n      0x00\n        /* \"#utility.yul\":6178:6184   */\n      dup1\n        /* \"#utility.yul\":6232:6235   */\n      dup4\n        /* \"#utility.yul\":6225:6229   */\n      0x1f\n        /* \"#utility.yul\":6217:6223   */\n      dup5\n        /* \"#utility.yul\":6213:6230   */\n      add\n        /* \"#utility.yul\":6209:6236   */\n      slt\n        /* \"#utility.yul\":6199:6254   */\n      tag_1027\n      jumpi\n        /* \"#utility.yul\":6250:6251   */\n      0x00\n        /* \"#utility.yul\":6247:6248   */\n      dup1\n        /* \"#utility.yul\":6240:6252   */\n      revert\n        /* \"#utility.yul\":6199:6254   */\n    tag_1027:\n      pop\n        /* \"#utility.yul\":6273:6293   */\n      dup2\n      calldataload\n        /* \"#utility.yul\":6316:6334   */\n      0xffffffffffffffff\n        /* \"#utility.yul\":6305:6335   */\n      dup2\n      gt\n        /* \"#utility.yul\":6302:6352   */\n      iszero\n      tag_1028\n      jumpi\n        /* \"#utility.yul\":6348:6349   */\n      0x00\n        /* \"#utility.yul\":6345:6346   */\n      dup1\n        /* \"#utility.yul\":6338:6350   */\n      revert\n        /* \"#utility.yul\":6302:6352   */\n    tag_1028:\n        /* \"#utility.yul\":6385:6389   */\n      0x20\n        /* \"#utility.yul\":6377:6383   */\n      dup4\n        /* \"#utility.yul\":6373:6390   */\n      add\n        /* \"#utility.yul\":6361:6390   */\n      swap2\n      pop\n        /* \"#utility.yul\":6437:6440   */\n      dup4\n        /* \"#utility.yul\":6430:6434   */\n      0x20\n        /* \"#utility.yul\":6421:6427   */\n      dup3\n        /* \"#utility.yul\":6413:6419   */\n      dup6\n        /* \"#utility.yul\":6409:6428   */\n      add\n        /* \"#utility.yul\":6405:6435   */\n      add\n        /* \"#utility.yul\":6402:6441   */\n      gt\n        /* \"#utility.yul\":6399:6458   */\n      iszero\n      tag_1025\n      jumpi\n        /* \"#utility.yul\":6454:6455   */\n      0x00\n        /* \"#utility.yul\":6451:6452   */\n      dup1\n        /* \"#utility.yul\":6444:6456   */\n      revert\n        /* \"#utility.yul\":6469:7679   */\n    tag_162:\n        /* \"#utility.yul\":6629:6635   */\n      0x00\n        /* \"#utility.yul\":6637:6643   */\n      dup1\n        /* \"#utility.yul\":6645:6651   */\n      0x00\n        /* \"#utility.yul\":6653:6659   */\n      dup1\n        /* \"#utility.yul\":6661:6667   */\n      0x00\n        /* \"#utility.yul\":6669:6675   */\n      dup1\n        /* \"#utility.yul\":6677:6683   */\n      0x00\n        /* \"#utility.yul\":6685:6691   */\n      dup1\n        /* \"#utility.yul\":6738:6741   */\n      0xa0\n        /* \"#utility.yul\":6726:6735   */\n      dup10\n        /* \"#utility.yul\":6717:6724   */\n      dup12\n        /* \"#utility.yul\":6713:6736   */\n      sub\n        /* \"#utility.yul\":6709:6742   */\n      slt\n        /* \"#utility.yul\":6706:6759   */\n      iszero\n      tag_1031\n      jumpi\n        /* \"#utility.yul\":6755:6756   */\n      0x00\n        /* \"#utility.yul\":6752:6753   */\n      dup1\n        /* \"#utility.yul\":6745:6757   */\n      revert\n        /* \"#utility.yul\":6706:6759   */\n    tag_1031:\n        /* \"#utility.yul\":6778:6807   */\n      tag_1032\n        /* \"#utility.yul\":6797:6806   */\n      dup10\n        /* \"#utility.yul\":6778:6807   */\n      tag_960\n      jump\t// in\n    tag_1032:\n        /* \"#utility.yul\":6768:6807   */\n      swap8\n      pop\n        /* \"#utility.yul\":6826:6864   */\n      tag_1033\n        /* \"#utility.yul\":6860:6862   */\n      0x20\n        /* \"#utility.yul\":6849:6858   */\n      dup11\n        /* \"#utility.yul\":6845:6863   */\n      add\n        /* \"#utility.yul\":6826:6864   */\n      tag_960\n      jump\t// in\n    tag_1033:\n        /* \"#utility.yul\":6816:6864   */\n      swap7\n      pop\n        /* \"#utility.yul\":6915:6917   */\n      0x40\n        /* \"#utility.yul\":6904:6913   */\n      dup10\n        /* \"#utility.yul\":6900:6918   */\n      add\n        /* \"#utility.yul\":6887:6919   */\n      calldataload\n        /* \"#utility.yul\":6938:6956   */\n      0xffffffffffffffff\n        /* \"#utility.yul\":6979:6981   */\n      dup1\n        /* \"#utility.yul\":6971:6977   */\n      dup3\n        /* \"#utility.yul\":6968:6982   */\n      gt\n        /* \"#utility.yul\":6965:6999   */\n      iszero\n      tag_1034\n      jumpi\n        /* \"#utility.yul\":6995:6996   */\n      0x00\n        /* \"#utility.yul\":6992:6993   */\n      dup1\n        /* \"#utility.yul\":6985:6997   */\n      revert\n        /* \"#utility.yul\":6965:6999   */\n    tag_1034:\n        /* \"#utility.yul\":7034:7104   */\n      tag_1035\n        /* \"#utility.yul\":7096:7103   */\n      dup13\n        /* \"#utility.yul\":7087:7093   */\n      dup4\n        /* \"#utility.yul\":7076:7085   */\n      dup14\n        /* \"#utility.yul\":7072:7094   */\n      add\n        /* \"#utility.yul\":7034:7104   */\n      tag_964\n      jump\t// in\n    tag_1035:\n        /* \"#utility.yul\":7123:7131   */\n      swap1\n      swap9\n      pop\n        /* \"#utility.yul\":7008:7104   */\n      swap7\n      pop\n        /* \"#utility.yul\":7211:7213   */\n      0x60\n        /* \"#utility.yul\":7196:7214   */\n      dup12\n      add\n        /* \"#utility.yul\":7183:7215   */\n      calldataload\n      swap2\n      pop\n        /* \"#utility.yul\":7227:7243   */\n      dup1\n      dup3\n      gt\n        /* \"#utility.yul\":7224:7260   */\n      iszero\n      tag_1036\n      jumpi\n        /* \"#utility.yul\":7256:7257   */\n      0x00\n        /* \"#utility.yul\":7253:7254   */\n      dup1\n        /* \"#utility.yul\":7246:7258   */\n      revert\n        /* \"#utility.yul\":7224:7260   */\n    tag_1036:\n        /* \"#utility.yul\":7295:7367   */\n      tag_1037\n        /* \"#utility.yul\":7359:7366   */\n      dup13\n        /* \"#utility.yul\":7348:7356   */\n      dup4\n        /* \"#utility.yul\":7337:7346   */\n      dup14\n        /* \"#utility.yul\":7333:7357   */\n      add\n        /* \"#utility.yul\":7295:7367   */\n      tag_964\n      jump\t// in\n    tag_1037:\n        /* \"#utility.yul\":7386:7394   */\n      swap1\n      swap7\n      pop\n        /* \"#utility.yul\":7269:7367   */\n      swap5\n      pop\n        /* \"#utility.yul\":7474:7477   */\n      0x80\n        /* \"#utility.yul\":7459:7478   */\n      dup12\n      add\n        /* \"#utility.yul\":7446:7479   */\n      calldataload\n      swap2\n      pop\n        /* \"#utility.yul\":7491:7507   */\n      dup1\n      dup3\n      gt\n        /* \"#utility.yul\":7488:7524   */\n      iszero\n      tag_1038\n      jumpi\n        /* \"#utility.yul\":7520:7521   */\n      0x00\n        /* \"#utility.yul\":7517:7518   */\n      dup1\n        /* \"#utility.yul\":7510:7522   */\n      revert\n        /* \"#utility.yul\":7488:7524   */\n    tag_1038:\n      pop\n        /* \"#utility.yul\":7559:7619   */\n      tag_1039\n        /* \"#utility.yul\":7611:7618   */\n      dup12\n        /* \"#utility.yul\":7600:7608   */\n      dup3\n        /* \"#utility.yul\":7589:7598   */\n      dup13\n        /* \"#utility.yul\":7585:7609   */\n      add\n        /* \"#utility.yul\":7559:7619   */\n      tag_965\n      jump\t// in\n    tag_1039:\n        /* \"#utility.yul\":6469:7679   */\n      swap10\n      swap13\n      swap9\n      swap12\n      pop\n      swap7\n      swap10\n      pop\n      swap5\n      swap8\n      swap4\n      swap7\n      swap3\n      swap6\n        /* \"#utility.yul\":7638:7646   */\n      swap5\n      pop\n      pop\n      pop\n        /* \"#utility.yul\":6469:7679   */\n      jump\t// out\n        /* \"#utility.yul\":7891:8586   */\n    tag_184:\n        /* \"#utility.yul\":7997:8003   */\n      0x00\n        /* \"#utility.yul\":8005:8011   */\n      dup1\n        /* \"#utility.yul\":8013:8019   */\n      0x00\n        /* \"#utility.yul\":8021:8027   */\n      dup1\n        /* \"#utility.yul\":8029:8035   */\n      0x00\n        /* \"#utility.yul\":8037:8043   */\n      dup1\n        /* \"#utility.yul\":8090:8093   */\n      0xa0\n        /* \"#utility.yul\":8078:8087   */\n      dup8\n        /* \"#utility.yul\":8069:8076   */\n      dup10\n        /* \"#utility.yul\":8065:8088   */\n      sub\n        /* \"#utility.yul\":8061:8094   */\n      slt\n        /* \"#utility.yul\":8058:8111   */\n      iszero\n      tag_1042\n      jumpi\n        /* \"#utility.yul\":8107:8108   */\n      0x00\n        /* \"#utility.yul\":8104:8105   */\n      dup1\n        /* \"#utility.yul\":8097:8109   */\n      revert\n        /* \"#utility.yul\":8058:8111   */\n    tag_1042:\n        /* \"#utility.yul\":8130:8159   */\n      tag_1043\n        /* \"#utility.yul\":8149:8158   */\n      dup8\n        /* \"#utility.yul\":8130:8159   */\n      tag_960\n      jump\t// in\n    tag_1043:\n        /* \"#utility.yul\":8120:8159   */\n      swap6\n      pop\n        /* \"#utility.yul\":8178:8216   */\n      tag_1044\n        /* \"#utility.yul\":8212:8214   */\n      0x20\n        /* \"#utility.yul\":8201:8210   */\n      dup9\n        /* \"#utility.yul\":8197:8215   */\n      add\n        /* \"#utility.yul\":8178:8216   */\n      tag_960\n      jump\t// in\n    tag_1044:\n        /* \"#utility.yul\":8168:8216   */\n      swap5\n      pop\n        /* \"#utility.yul\":8263:8265   */\n      0x40\n        /* \"#utility.yul\":8252:8261   */\n      dup8\n        /* \"#utility.yul\":8248:8266   */\n      add\n        /* \"#utility.yul\":8235:8267   */\n      calldataload\n        /* \"#utility.yul\":8225:8267   */\n      swap4\n      pop\n        /* \"#utility.yul\":8314:8316   */\n      0x60\n        /* \"#utility.yul\":8303:8312   */\n      dup8\n        /* \"#utility.yul\":8299:8317   */\n      add\n        /* \"#utility.yul\":8286:8318   */\n      calldataload\n        /* \"#utility.yul\":8276:8318   */\n      swap3\n      pop\n        /* \"#utility.yul\":8369:8372   */\n      0x80\n        /* \"#utility.yul\":8358:8367   */\n      dup8\n        /* \"#utility.yul\":8354:8373   */\n      add\n        /* \"#utility.yul\":8341:8374   */\n      calldataload\n        /* \"#utility.yul\":8397:8415   */\n      0xffffffffffffffff\n        /* \"#utility.yul\":8389:8395   */\n      dup2\n        /* \"#utility.yul\":8386:8416   */\n      gt\n        /* \"#utility.yul\":8383:8433   */\n      iszero\n      tag_1045\n      jumpi\n        /* \"#utility.yul\":8429:8430   */\n      0x00\n        /* \"#utility.yul\":8426:8427   */\n      dup1\n        /* \"#utility.yul\":8419:8431   */\n      revert\n        /* \"#utility.yul\":8383:8433   */\n    tag_1045:\n        /* \"#utility.yul\":8468:8526   */\n      tag_1046\n        /* \"#utility.yul\":8518:8525   */\n      dup10\n        /* \"#utility.yul\":8509:8515   */\n      dup3\n        /* \"#utility.yul\":8498:8507   */\n      dup11\n        /* \"#utility.yul\":8494:8516   */\n      add\n        /* \"#utility.yul\":8468:8526   */\n      tag_965\n      jump\t// in\n    tag_1046:\n        /* \"#utility.yul\":7891:8586   */\n      swap8\n      swap11\n      swap7\n      swap10\n      pop\n      swap5\n      swap8\n      pop\n      swap3\n      swap6\n        /* \"#utility.yul\":8545:8553   */\n      swap4\n      swap5\n        /* \"#utility.yul\":7891:8586   */\n      swap3\n      pop\n      pop\n      pop\n      jump\t// out\n        /* \"#utility.yul\":8591:8777   */\n    tag_189:\n        /* \"#utility.yul\":8650:8656   */\n      0x00\n        /* \"#utility.yul\":8703:8705   */\n      0x20\n        /* \"#utility.yul\":8691:8700   */\n      dup3\n        /* \"#utility.yul\":8682:8689   */\n      dup5\n        /* \"#utility.yul\":8678:8701   */\n      sub\n        /* \"#utility.yul\":8674:8706   */\n      slt\n        /* \"#utility.yul\":8671:8723   */\n      iszero\n      tag_1048\n      jumpi\n        /* \"#utility.yul\":8719:8720   */\n      0x00\n        /* \"#utility.yul\":8716:8717   */\n      dup1\n        /* \"#utility.yul\":8709:8721   */\n      revert\n        /* \"#utility.yul\":8671:8723   */\n    tag_1048:\n        /* \"#utility.yul\":8742:8771   */\n      tag_486\n        /* \"#utility.yul\":8761:8770   */\n      dup3\n        /* \"#utility.yul\":8742:8771   */\n      tag_960\n      jump\t// in\n        /* \"#utility.yul\":8782:9055   */\n    tag_203:\n        /* \"#utility.yul\":8850:8856   */\n      0x00\n        /* \"#utility.yul\":8903:8905   */\n      0x20\n        /* \"#utility.yul\":8891:8900   */\n      dup3\n        /* \"#utility.yul\":8882:8889   */\n      dup5\n        /* \"#utility.yul\":8878:8901   */\n      sub\n        /* \"#utility.yul\":8874:8906   */\n      slt\n        /* \"#utility.yul\":8871:8923   */\n      iszero\n      tag_1051\n      jumpi\n        /* \"#utility.yul\":8919:8920   */\n      0x00\n        /* \"#utility.yul\":8916:8917   */\n      dup1\n        /* \"#utility.yul\":8909:8921   */\n      revert\n        /* \"#utility.yul\":8871:8923   */\n    tag_1051:\n        /* \"#utility.yul\":8951:8960   */\n      dup2\n        /* \"#utility.yul\":8945:8961   */\n      mload\n        /* \"#utility.yul\":9001:9005   */\n      0xff\n        /* \"#utility.yul\":8994:8999   */\n      dup2\n        /* \"#utility.yul\":8990:9006   */\n      and\n        /* \"#utility.yul\":8983:8988   */\n      dup2\n        /* \"#utility.yul\":8980:9007   */\n      eq\n        /* \"#utility.yul\":8970:9025   */\n      tag_486\n      jumpi\n        /* \"#utility.yul\":9021:9022   */\n      0x00\n        /* \"#utility.yul\":9018:9019   */\n      dup1\n        /* \"#utility.yul\":9011:9023   */\n      revert\n        /* \"#utility.yul\":9060:9187   */\n    tag_966:\n        /* \"#utility.yul\":9121:9131   */\n      0x4e487b71\n        /* \"#utility.yul\":9116:9119   */\n      0xe0\n        /* \"#utility.yul\":9112:9132   */\n      shl\n        /* \"#utility.yul\":9109:9110   */\n      0x00\n        /* \"#utility.yul\":9102:9133   */\n      mstore\n        /* \"#utility.yul\":9152:9156   */\n      0x11\n        /* \"#utility.yul\":9149:9150   */\n      0x04\n        /* \"#utility.yul\":9142:9157   */\n      mstore\n        /* \"#utility.yul\":9176:9180   */\n      0x24\n        /* \"#utility.yul\":9173:9174   */\n      0x00\n        /* \"#utility.yul\":9166:9181   */\n      revert\n        /* \"#utility.yul\":9192:9608   */\n    tag_967:\n        /* \"#utility.yul\":9281:9282   */\n      0x01\n        /* \"#utility.yul\":9318:9323   */\n      dup2\n        /* \"#utility.yul\":9281:9282   */\n      dup2\n        /* \"#utility.yul\":9332:9602   */\n    tag_1055:\n        /* \"#utility.yul\":9353:9360   */\n      dup1\n        /* \"#utility.yul\":9343:9351   */\n      dup6\n        /* \"#utility.yul\":9340:9361   */\n      gt\n        /* \"#utility.yul\":9332:9602   */\n      iszero\n      tag_1057\n      jumpi\n        /* \"#utility.yul\":9412:9416   */\n      dup2\n        /* \"#utility.yul\":9408:9409   */\n      0x00\n        /* \"#utility.yul\":9404:9410   */\n      not\n        /* \"#utility.yul\":9400:9417   */\n      div\n        /* \"#utility.yul\":9394:9398   */\n      dup3\n        /* \"#utility.yul\":9391:9418   */\n      gt\n        /* \"#utility.yul\":9388:9441   */\n      iszero\n      tag_1059\n      jumpi\n        /* \"#utility.yul\":9421:9439   */\n      tag_1059\n      tag_966\n      jump\t// in\n    tag_1059:\n        /* \"#utility.yul\":9471:9478   */\n      dup1\n        /* \"#utility.yul\":9461:9469   */\n      dup6\n        /* \"#utility.yul\":9457:9479   */\n      and\n        /* \"#utility.yul\":9454:9509   */\n      iszero\n      tag_1060\n      jumpi\n        /* \"#utility.yul\":9491:9507   */\n      swap2\n      dup2\n      mul\n      swap2\n        /* \"#utility.yul\":9454:9509   */\n    tag_1060:\n        /* \"#utility.yul\":9570:9592   */\n      swap4\n      dup5\n      shr\n      swap4\n        /* \"#utility.yul\":9530:9545   */\n      swap1\n      dup1\n      mul\n      swap1\n        /* \"#utility.yul\":9332:9602   */\n      jump(tag_1055)\n    tag_1057:\n        /* \"#utility.yul\":9336:9339   */\n      pop\n        /* \"#utility.yul\":9192:9608   */\n      swap3\n      pop\n      swap3\n      swap1\n      pop\n      jump\t// out\n        /* \"#utility.yul\":9613:10419   */\n    tag_968:\n        /* \"#utility.yul\":9662:9667   */\n      0x00\n        /* \"#utility.yul\":9692:9700   */\n      dup3\n        /* \"#utility.yul\":9682:9762   */\n      tag_1062\n      jumpi\n      pop\n        /* \"#utility.yul\":9733:9734   */\n      0x01\n        /* \"#utility.yul\":9747:9752   */\n      jump(tag_199)\n        /* \"#utility.yul\":9682:9762   */\n    tag_1062:\n        /* \"#utility.yul\":9781:9785   */\n      dup2\n        /* \"#utility.yul\":9771:9847   */\n      tag_1063\n      jumpi\n      pop\n        /* \"#utility.yul\":9818:9819   */\n      0x00\n        /* \"#utility.yul\":9832:9837   */\n      jump(tag_199)\n        /* \"#utility.yul\":9771:9847   */\n    tag_1063:\n        /* \"#utility.yul\":9863:9867   */\n      dup2\n        /* \"#utility.yul\":9881:9882   */\n      0x01\n        /* \"#utility.yul\":9876:9935   */\n      dup2\n      eq\n      tag_1065\n      jumpi\n        /* \"#utility.yul\":9949:9950   */\n      0x02\n        /* \"#utility.yul\":9944:10074   */\n      dup2\n      eq\n      tag_1066\n      jumpi\n        /* \"#utility.yul\":9856:10074   */\n      jump(tag_1064)\n        /* \"#utility.yul\":9876:9935   */\n    tag_1065:\n        /* \"#utility.yul\":9906:9907   */\n      0x01\n        /* \"#utility.yul\":9897:9907   */\n      swap2\n      pop\n        /* \"#utility.yul\":9920:9925   */\n      pop\n      jump(tag_199)\n        /* \"#utility.yul\":9944:10074   */\n    tag_1066:\n        /* \"#utility.yul\":9981:9984   */\n      0xff\n        /* \"#utility.yul\":9971:9979   */\n      dup5\n        /* \"#utility.yul\":9968:9985   */\n      gt\n        /* \"#utility.yul\":9965:10008   */\n      iszero\n      tag_1068\n      jumpi\n        /* \"#utility.yul\":9988:10006   */\n      tag_1068\n      tag_966\n      jump\t// in\n    tag_1068:\n      pop\n      pop\n        /* \"#utility.yul\":10044:10045   */\n      0x01\n        /* \"#utility.yul\":10030:10046   */\n      dup3\n      shl\n        /* \"#utility.yul\":10059:10064   */\n      jump(tag_199)\n        /* \"#utility.yul\":9856:10074   */\n    tag_1064:\n      pop\n        /* \"#utility.yul\":10158:10160   */\n      0x20\n        /* \"#utility.yul\":10148:10156   */\n      dup4\n        /* \"#utility.yul\":10145:10161   */\n      lt\n        /* \"#utility.yul\":10139:10142   */\n      0x0133\n        /* \"#utility.yul\":10133:10137   */\n      dup4\n        /* \"#utility.yul\":10130:10143   */\n      lt\n        /* \"#utility.yul\":10126:10162   */\n      and\n        /* \"#utility.yul\":10120:10122   */\n      0x4e\n        /* \"#utility.yul\":10110:10118   */\n      dup5\n        /* \"#utility.yul\":10107:10123   */\n      lt\n        /* \"#utility.yul\":10102:10104   */\n      0x0b\n        /* \"#utility.yul\":10096:10100   */\n      dup5\n        /* \"#utility.yul\":10093:10105   */\n      lt\n        /* \"#utility.yul\":10089:10124   */\n      and\n        /* \"#utility.yul\":10086:10163   */\n      or\n        /* \"#utility.yul\":10083:10242   */\n      iszero\n      tag_1069\n      jumpi\n      pop\n        /* \"#utility.yul\":10195:10214   */\n      dup2\n      dup2\n      exp\n        /* \"#utility.yul\":10227:10232   */\n      jump(tag_199)\n        /* \"#utility.yul\":10083:10242   */\n    tag_1069:\n        /* \"#utility.yul\":10274:10308   */\n      tag_1070\n        /* \"#utility.yul\":10299:10307   */\n      dup4\n        /* \"#utility.yul\":10293:10297   */\n      dup4\n        /* \"#utility.yul\":10274:10308   */\n      tag_967\n      jump\t// in\n    tag_1070:\n        /* \"#utility.yul\":10344:10350   */\n      dup1\n        /* \"#utility.yul\":10340:10341   */\n      0x00\n        /* \"#utility.yul\":10336:10342   */\n      not\n        /* \"#utility.yul\":10332:10351   */\n      div\n        /* \"#utility.yul\":10323:10330   */\n      dup3\n        /* \"#utility.yul\":10320:10352   */\n      gt\n        /* \"#utility.yul\":10317:10375   */\n      iszero\n      tag_1072\n      jumpi\n        /* \"#utility.yul\":10355:10373   */\n      tag_1072\n      tag_966\n      jump\t// in\n    tag_1072:\n        /* \"#utility.yul\":10393:10413   */\n      mul\n      swap4\n        /* \"#utility.yul\":9613:10419   */\n      swap3\n      pop\n      pop\n      pop\n      jump\t// out\n        /* \"#utility.yul\":10424:10555   */\n    tag_205:\n        /* \"#utility.yul\":10484:10489   */\n      0x00\n        /* \"#utility.yul\":10513:10549   */\n      tag_486\n        /* \"#utility.yul\":10540:10548   */\n      dup4\n        /* \"#utility.yul\":10534:10538   */\n      dup4\n        /* \"#utility.yul\":10513:10549   */\n      tag_968\n      jump\t// in\n        /* \"#utility.yul\":10916:11041   */\n    tag_215:\n        /* \"#utility.yul\":10981:10990   */\n      dup1\n      dup3\n      add\n        /* \"#utility.yul\":11002:11012   */\n      dup1\n      dup3\n      gt\n        /* \"#utility.yul\":10999:11035   */\n      iszero\n      tag_199\n      jumpi\n        /* \"#utility.yul\":11015:11033   */\n      tag_199\n      tag_966\n      jump\t// in\n        /* \"#utility.yul\":11752:11879   */\n    tag_243:\n        /* \"#utility.yul\":11813:11823   */\n      0x4e487b71\n        /* \"#utility.yul\":11808:11811   */\n      0xe0\n        /* \"#utility.yul\":11804:11824   */\n      shl\n        /* \"#utility.yul\":11801:11802   */\n      0x00\n        /* \"#utility.yul\":11794:11825   */\n      mstore\n        /* \"#utility.yul\":11844:11848   */\n      0x32\n        /* \"#utility.yul\":11841:11842   */\n      0x04\n        /* \"#utility.yul\":11834:11849   */\n      mstore\n        /* \"#utility.yul\":11868:11872   */\n      0x24\n        /* \"#utility.yul\":11865:11866   */\n      0x00\n        /* \"#utility.yul\":11858:11873   */\n      revert\n        /* \"#utility.yul\":12652:12836   */\n    tag_292:\n        /* \"#utility.yul\":12722:12728   */\n      0x00\n        /* \"#utility.yul\":12775:12777   */\n      0x20\n        /* \"#utility.yul\":12763:12772   */\n      dup3\n        /* \"#utility.yul\":12754:12761   */\n      dup5\n        /* \"#utility.yul\":12750:12773   */\n      sub\n        /* \"#utility.yul\":12746:12778   */\n      slt\n        /* \"#utility.yul\":12743:12795   */\n      iszero\n      tag_1085\n      jumpi\n        /* \"#utility.yul\":12791:12792   */\n      0x00\n        /* \"#utility.yul\":12788:12789   */\n      dup1\n        /* \"#utility.yul\":12781:12793   */\n      revert\n        /* \"#utility.yul\":12743:12795   */\n    tag_1085:\n      pop\n        /* \"#utility.yul\":12814:12830   */\n      mload\n      swap2\n        /* \"#utility.yul\":12652:12836   */\n      swap1\n      pop\n      jump\t// out\n        /* \"#utility.yul\":13605:13937   */\n    tag_312:\n        /* \"#utility.yul\":13812:13818   */\n      dup3\n        /* \"#utility.yul\":13801:13810   */\n      dup2\n        /* \"#utility.yul\":13794:13819   */\n      mstore\n        /* \"#utility.yul\":13855:13857   */\n      0x40\n        /* \"#utility.yul\":13850:13852   */\n      0x20\n        /* \"#utility.yul\":13839:13848   */\n      dup3\n        /* \"#utility.yul\":13835:13853   */\n      add\n        /* \"#utility.yul\":13828:13858   */\n      mstore\n        /* \"#utility.yul\":13775:13779   */\n      0x00\n        /* \"#utility.yul\":13875:13931   */\n      tag_267\n        /* \"#utility.yul\":13927:13929   */\n      0x40\n        /* \"#utility.yul\":13916:13925   */\n      dup4\n        /* \"#utility.yul\":13912:13930   */\n      add\n        /* \"#utility.yul\":13904:13910   */\n      dup5\n        /* \"#utility.yul\":13875:13931   */\n      tag_963\n      jump\t// in\n        /* \"#utility.yul\":15469:16010   */\n    tag_360:\n      sub(shl(0xa0, 0x01), 0x01)\n        /* \"#utility.yul\":15752:15758   */\n      dup6\n        /* \"#utility.yul\":15748:15803   */\n      and\n        /* \"#utility.yul\":15737:15746   */\n      dup2\n        /* \"#utility.yul\":15730:15804   */\n      mstore\n        /* \"#utility.yul\":15840:15846   */\n      dup4\n        /* \"#utility.yul\":15835:15837   */\n      0x20\n        /* \"#utility.yul\":15824:15833   */\n      dup3\n        /* \"#utility.yul\":15820:15838   */\n      add\n        /* \"#utility.yul\":15813:15847   */\n      mstore\n        /* \"#utility.yul\":15883:15889   */\n      dup3\n        /* \"#utility.yul\":15878:15880   */\n      0x40\n        /* \"#utility.yul\":15867:15876   */\n      dup3\n        /* \"#utility.yul\":15863:15881   */\n      add\n        /* \"#utility.yul\":15856:15890   */\n      mstore\n        /* \"#utility.yul\":15926:15929   */\n      0x80\n        /* \"#utility.yul\":15921:15923   */\n      0x60\n        /* \"#utility.yul\":15910:15919   */\n      dup3\n        /* \"#utility.yul\":15906:15924   */\n      add\n        /* \"#utility.yul\":15899:15930   */\n      mstore\n        /* \"#utility.yul\":15711:15715   */\n      0x00\n        /* \"#utility.yul\":15947:16004   */\n      tag_530\n        /* \"#utility.yul\":15999:16002   */\n      0x80\n        /* \"#utility.yul\":15988:15997   */\n      dup4\n        /* \"#utility.yul\":15984:16003   */\n      add\n        /* \"#utility.yul\":15976:15982   */\n      dup5\n        /* \"#utility.yul\":15947:16004   */\n      tag_963\n      jump\t// in\n        /* \"#utility.yul\":16363:16491   */\n    tag_408:\n        /* \"#utility.yul\":16430:16439   */\n      dup2\n      dup2\n      sub\n        /* \"#utility.yul\":16451:16462   */\n      dup2\n      dup2\n      gt\n        /* \"#utility.yul\":16448:16485   */\n      iszero\n      tag_199\n      jumpi\n        /* \"#utility.yul\":16465:16483   */\n      tag_199\n      tag_966\n      jump\t// in\n        /* \"#utility.yul\":17562:17774   */\n    tag_969:\n        /* \"#utility.yul\":17604:17607   */\n      0x00\n        /* \"#utility.yul\":17642:17647   */\n      dup2\n        /* \"#utility.yul\":17636:17648   */\n      mload\n        /* \"#utility.yul\":17686:17692   */\n      dup1\n        /* \"#utility.yul\":17679:17683   */\n      0x20\n        /* \"#utility.yul\":17672:17677   */\n      dup5\n        /* \"#utility.yul\":17668:17684   */\n      add\n        /* \"#utility.yul\":17663:17666   */\n      dup6\n        /* \"#utility.yul\":17657:17693   */\n      mcopy\n        /* \"#utility.yul\":17748:17749   */\n      0x00\n        /* \"#utility.yul\":17712:17728   */\n      swap4\n      add\n        /* \"#utility.yul\":17737:17750   */\n      swap3\n      dup4\n      mstore\n      pop\n        /* \"#utility.yul\":17712:17728   */\n      swap1\n      swap2\n        /* \"#utility.yul\":17562:17774   */\n      swap1\n      pop\n      jump\t// out\n        /* \"#utility.yul\":17779:17971   */\n    tag_444:\n        /* \"#utility.yul\":17910:17913   */\n      0x00\n        /* \"#utility.yul\":17935:17965   */\n      tag_486\n        /* \"#utility.yul\":17961:17964   */\n      dup3\n        /* \"#utility.yul\":17953:17959   */\n      dup5\n        /* \"#utility.yul\":17935:17965   */\n      tag_969\n      jump\t// in\n        /* \"#utility.yul\":18602:18815   */\n    tag_485:\n        /* \"#utility.yul\":18637:18640   */\n      0x00\n        /* \"#utility.yul\":18685:18690   */\n      dup2\n        /* \"#utility.yul\":18681:18683   */\n      0x0f\n        /* \"#utility.yul\":18670:18691   */\n      signextend\n      sub(shl(0x7f, 0x01), 0x01)\n        /* \"#utility.yul\":18715:18754   */\n      not\n        /* \"#utility.yul\":18706:18713   */\n      dup2\n        /* \"#utility.yul\":18703:18755   */\n      sub\n        /* \"#utility.yul\":18700:18778   */\n      tag_1112\n      jumpi\n        /* \"#utility.yul\":18758:18776   */\n      tag_1112\n      tag_966\n      jump\t// in\n    tag_1112:\n        /* \"#utility.yul\":18798:18799   */\n      0x00\n        /* \"#utility.yul\":18794:18809   */\n      sub\n      swap3\n        /* \"#utility.yul\":18602:18815   */\n      swap2\n      pop\n      pop\n      jump\t// out\n        /* \"#utility.yul\":18820:19069   */\n    tag_487:\n        /* \"#utility.yul\":18920:18922   */\n      0x0f\n        /* \"#utility.yul\":18909:18926   */\n      dup3\n      dup2\n      signextend\n        /* \"#utility.yul\":18890:18907   */\n      swap1\n      dup3\n      swap1\n      signextend\n        /* \"#utility.yul\":18886:18927   */\n      sub\n      not(0x7fffffffffffffffffffffffffffffff)\n        /* \"#utility.yul\":18942:18992   */\n      dup2\n      slt\n      sub(shl(0x7f, 0x01), 0x01)\n        /* \"#utility.yul\":18994:19039   */\n      dup3\n      sgt\n        /* \"#utility.yul\":18939:19040   */\n      or\n        /* \"#utility.yul\":18936:19063   */\n      iszero\n      tag_199\n      jumpi\n        /* \"#utility.yul\":19043:19061   */\n      tag_199\n      tag_966\n      jump\t// in\n        /* \"#utility.yul\":19074:19209   */\n    tag_550:\n        /* \"#utility.yul\":19113:19116   */\n      0x00\n        /* \"#utility.yul\":19134:19151   */\n      0x01\n      dup3\n      add\n        /* \"#utility.yul\":19131:19174   */\n      tag_1118\n      jumpi\n        /* \"#utility.yul\":19154:19172   */\n      tag_1118\n      tag_966\n      jump\t// in\n    tag_1118:\n      pop\n        /* \"#utility.yul\":19201:19202   */\n      0x01\n        /* \"#utility.yul\":19190:19203   */\n      add\n      swap1\n        /* \"#utility.yul\":19074:19209   */\n      jump\t// out\n        /* \"#utility.yul\":20575:20754   */\n    tag_602:\n        /* \"#utility.yul\":20610:20613   */\n      0x00\n        /* \"#utility.yul\":20652:20653   */\n      0x03\n        /* \"#utility.yul\":20634:20650   */\n      returndatasize\n        /* \"#utility.yul\":20631:20654   */\n      gt\n        /* \"#utility.yul\":20628:20748   */\n      iszero\n      tag_272\n      jumpi\n        /* \"#utility.yul\":20698:20699   */\n      0x04\n        /* \"#utility.yul\":20695:20696   */\n      0x00\n        /* \"#utility.yul\":20692:20693   */\n      dup1\n        /* \"#utility.yul\":20677:20700   */\n      returndatacopy\n      pop\n        /* \"#utility.yul\":20735:20736   */\n      0x00\n        /* \"#utility.yul\":20729:20737   */\n      mload\n        /* \"#utility.yul\":20724:20727   */\n      0xe0\n        /* \"#utility.yul\":20720:20738   */\n      shr\n        /* \"#utility.yul\":20575:20754   */\n      swap1\n      jump\t// out\n        /* \"#utility.yul\":20759:21430   */\n    tag_604:\n        /* \"#utility.yul\":20798:20801   */\n      0x00\n        /* \"#utility.yul\":20840:20844   */\n      0x44\n        /* \"#utility.yul\":20822:20838   */\n      returndatasize\n        /* \"#utility.yul\":20819:20845   */\n      lt\n        /* \"#utility.yul\":20816:20855   */\n      iszero\n      tag_1125\n      jumpi\n        /* \"#utility.yul\":20759:21430   */\n      swap1\n      jump\t// out\n        /* \"#utility.yul\":20816:20855   */\n    tag_1125:\n        /* \"#utility.yul\":20882:20884   */\n      0x40\n        /* \"#utility.yul\":20876:20885   */\n      mload\n      not(0x03)\n        /* \"#utility.yul\":20947:20963   */\n      returndatasize\n        /* \"#utility.yul\":20943:20968   */\n      dup2\n      add\n        /* \"#utility.yul\":20940:20941   */\n      0x04\n        /* \"#utility.yul\":20876:20885   */\n      dup4\n        /* \"#utility.yul\":20919:20969   */\n      returndatacopy\n        /* \"#utility.yul\":20998:21002   */\n      dup2\n        /* \"#utility.yul\":20992:21003   */\n      mload\n        /* \"#utility.yul\":21022:21038   */\n      returndatasize\n        /* \"#utility.yul\":21057:21075   */\n      0xffffffffffffffff\n        /* \"#utility.yul\":21128:21130   */\n      dup2\n        /* \"#utility.yul\":21121:21125   */\n      0x24\n        /* \"#utility.yul\":21113:21119   */\n      dup5\n        /* \"#utility.yul\":21109:21126   */\n      add\n        /* \"#utility.yul\":21106:21131   */\n      gt\n        /* \"#utility.yul\":21101:21103   */\n      dup2\n        /* \"#utility.yul\":21093:21099   */\n      dup5\n        /* \"#utility.yul\":21090:21104   */\n      gt\n        /* \"#utility.yul\":21087:21132   */\n      or\n        /* \"#utility.yul\":21084:21142   */\n      iszero\n      tag_1126\n      jumpi\n        /* \"#utility.yul\":21135:21140   */\n      pop\n      pop\n      pop\n      pop\n      pop\n        /* \"#utility.yul\":20759:21430   */\n      swap1\n      jump\t// out\n        /* \"#utility.yul\":21084:21142   */\n    tag_1126:\n        /* \"#utility.yul\":21172:21178   */\n      dup3\n        /* \"#utility.yul\":21166:21170   */\n      dup6\n        /* \"#utility.yul\":21162:21179   */\n      add\n        /* \"#utility.yul\":21151:21179   */\n      swap2\n      pop\n        /* \"#utility.yul\":21208:21211   */\n      dup2\n        /* \"#utility.yul\":21202:21212   */\n      mload\n        /* \"#utility.yul\":21235:21237   */\n      dup2\n        /* \"#utility.yul\":21227:21233   */\n      dup2\n        /* \"#utility.yul\":21224:21238   */\n      gt\n        /* \"#utility.yul\":21221:21248   */\n      iszero\n      tag_1127\n      jumpi\n        /* \"#utility.yul\":21241:21246   */\n      pop\n      pop\n      pop\n      pop\n      pop\n      pop\n        /* \"#utility.yul\":20759:21430   */\n      swap1\n      jump\t// out\n        /* \"#utility.yul\":21221:21248   */\n    tag_1127:\n        /* \"#utility.yul\":21325:21327   */\n      dup5\n        /* \"#utility.yul\":21306:21322   */\n      returndatasize\n        /* \"#utility.yul\":21300:21304   */\n      dup8\n        /* \"#utility.yul\":21296:21323   */\n      add\n        /* \"#utility.yul\":21292:21328   */\n      add\n        /* \"#utility.yul\":21285:21289   */\n      0x20\n        /* \"#utility.yul\":21276:21282   */\n      dup3\n        /* \"#utility.yul\":21271:21274   */\n      dup6\n        /* \"#utility.yul\":21267:21283   */\n      add\n        /* \"#utility.yul\":21263:21290   */\n      add\n        /* \"#utility.yul\":21260:21329   */\n      gt\n        /* \"#utility.yul\":21257:21339   */\n      iszero\n      tag_1128\n      jumpi\n        /* \"#utility.yul\":21332:21337   */\n      pop\n      pop\n      pop\n      pop\n      pop\n      pop\n        /* \"#utility.yul\":20759:21430   */\n      swap1\n      jump\t// out\n        /* \"#utility.yul\":21257:21339   */\n    tag_1128:\n        /* \"#utility.yul\":21348:21405   */\n      tag_544\n        /* \"#utility.yul\":21399:21403   */\n      0x20\n        /* \"#utility.yul\":21390:21396   */\n      dup3\n        /* \"#utility.yul\":21382:21388   */\n      dup7\n        /* \"#utility.yul\":21378:21397   */\n      add\n        /* \"#utility.yul\":21374:21404   */\n      add\n        /* \"#utility.yul\":21368:21372   */\n      dup8\n        /* \"#utility.yul\":21348:21405   */\n      tag_962\n      jump\t// in\n        /* \"#utility.yul\":21435:21735   */\n    tag_970:\n        /* \"#utility.yul\":21488:21491   */\n      0x00\n        /* \"#utility.yul\":21526:21531   */\n      dup2\n        /* \"#utility.yul\":21520:21532   */\n      mload\n        /* \"#utility.yul\":21553:21559   */\n      dup1\n        /* \"#utility.yul\":21548:21551   */\n      dup5\n        /* \"#utility.yul\":21541:21560   */\n      mstore\n        /* \"#utility.yul\":21609:21615   */\n      dup1\n        /* \"#utility.yul\":21602:21606   */\n      0x20\n        /* \"#utility.yul\":21595:21600   */\n      dup5\n        /* \"#utility.yul\":21591:21607   */\n      add\n        /* \"#utility.yul\":21584:21588   */\n      0x20\n        /* \"#utility.yul\":21579:21582   */\n      dup7\n        /* \"#utility.yul\":21575:21589   */\n      add\n        /* \"#utility.yul\":21569:21616   */\n      mcopy\n        /* \"#utility.yul\":21661:21662   */\n      0x00\n        /* \"#utility.yul\":21654:21658   */\n      0x20\n        /* \"#utility.yul\":21645:21651   */\n      dup3\n        /* \"#utility.yul\":21640:21643   */\n      dup7\n        /* \"#utility.yul\":21636:21652   */\n      add\n        /* \"#utility.yul\":21632:21659   */\n      add\n        /* \"#utility.yul\":21625:21663   */\n      mstore\n        /* \"#utility.yul\":21724:21728   */\n      0x20\n        /* \"#utility.yul\":21717:21719   */\n      0x1f\n        /* \"#utility.yul\":21713:21720   */\n      not\n        /* \"#utility.yul\":21708:21710   */\n      0x1f\n        /* \"#utility.yul\":21700:21706   */\n      dup4\n        /* \"#utility.yul\":21696:21711   */\n      add\n        /* \"#utility.yul\":21692:21721   */\n      and\n        /* \"#utility.yul\":21687:21690   */\n      dup6\n        /* \"#utility.yul\":21683:21722   */\n      add\n        /* \"#utility.yul\":21679:21729   */\n      add\n        /* \"#utility.yul\":21672:21729   */\n      swap2\n      pop\n      pop\n        /* \"#utility.yul\":21435:21735   */\n      swap3\n      swap2\n      pop\n      pop\n      jump\t// out\n        /* \"#utility.yul\":21740:22216   */\n    tag_607:\n        /* \"#utility.yul\":21990:21992   */\n      0x40\n        /* \"#utility.yul\":21979:21988   */\n      dup2\n        /* \"#utility.yul\":21972:21993   */\n      mstore\n        /* \"#utility.yul\":22029:22031   */\n      0x17\n        /* \"#utility.yul\":22024:22026   */\n      0x40\n        /* \"#utility.yul\":22013:22022   */\n      dup3\n        /* \"#utility.yul\":22009:22027   */\n      add\n        /* \"#utility.yul\":22002:22032   */\n      mstore\n        /* \"#utility.yul\":22068:22093   */\n      0x736166655472616e7366657246726f6d206661696c6564000000000000000000\n        /* \"#utility.yul\":22063:22065   */\n      0x60\n        /* \"#utility.yul\":22052:22061   */\n      dup3\n        /* \"#utility.yul\":22048:22066   */\n      add\n        /* \"#utility.yul\":22041:22094   */\n      mstore\n        /* \"#utility.yul\":22132:22135   */\n      0x80\n        /* \"#utility.yul\":22125:22129   */\n      0x20\n        /* \"#utility.yul\":22114:22123   */\n      dup3\n        /* \"#utility.yul\":22110:22130   */\n      add\n        /* \"#utility.yul\":22103:22136   */\n      mstore\n        /* \"#utility.yul\":21953:21957   */\n      0x00\n        /* \"#utility.yul\":22153:22210   */\n      tag_486\n        /* \"#utility.yul\":22205:22208   */\n      0x80\n        /* \"#utility.yul\":22194:22203   */\n      dup4\n        /* \"#utility.yul\":22190:22209   */\n      add\n        /* \"#utility.yul\":22182:22188   */\n      dup5\n        /* \"#utility.yul\":22153:22210   */\n      tag_970\n      jump\t// in\n        /* \"#utility.yul\":22221:22572   */\n    tag_609:\n        /* \"#utility.yul\":22483:22510   */\n      0x736166655472616e7366657246726f6d206661696c65643a2000000000000000\n        /* \"#utility.yul\":22478:22481   */\n      dup2\n        /* \"#utility.yul\":22471:22511   */\n      mstore\n        /* \"#utility.yul\":22453:22456   */\n      0x00\n        /* \"#utility.yul\":22527:22566   */\n      tag_486\n        /* \"#utility.yul\":22562:22564   */\n      0x19\n        /* \"#utility.yul\":22557:22560   */\n      dup4\n        /* \"#utility.yul\":22553:22565   */\n      add\n        /* \"#utility.yul\":22545:22551   */\n      dup5\n        /* \"#utility.yul\":22527:22566   */\n      tag_969\n      jump\t// in\n        /* \"#utility.yul\":22577:22808   */\n    tag_611:\n        /* \"#utility.yul\":22726:22728   */\n      0x20\n        /* \"#utility.yul\":22715:22724   */\n      dup2\n        /* \"#utility.yul\":22708:22729   */\n      mstore\n        /* \"#utility.yul\":22689:22693   */\n      0x00\n        /* \"#utility.yul\":22746:22802   */\n      tag_486\n        /* \"#utility.yul\":22798:22800   */\n      0x20\n        /* \"#utility.yul\":22787:22796   */\n      dup4\n        /* \"#utility.yul\":22783:22801   */\n      add\n        /* \"#utility.yul\":22775:22781   */\n      dup5\n        /* \"#utility.yul\":22746:22802   */\n      tag_970\n      jump\t// in\n        /* \"#utility.yul\":22813:23426   */\n    tag_634:\n      sub(shl(0xa0, 0x01), 0x01)\n        /* \"#utility.yul\":23124:23130   */\n      dup7\n        /* \"#utility.yul\":23120:23175   */\n      and\n        /* \"#utility.yul\":23109:23118   */\n      dup2\n        /* \"#utility.yul\":23102:23176   */\n      mstore\n        /* \"#utility.yul\":23212:23218   */\n      dup5\n        /* \"#utility.yul\":23207:23209   */\n      0x20\n        /* \"#utility.yul\":23196:23205   */\n      dup3\n        /* \"#utility.yul\":23192:23210   */\n      add\n        /* \"#utility.yul\":23185:23219   */\n      mstore\n        /* \"#utility.yul\":23255:23261   */\n      dup4\n        /* \"#utility.yul\":23250:23252   */\n      0x40\n        /* \"#utility.yul\":23239:23248   */\n      dup3\n        /* \"#utility.yul\":23235:23253   */\n      add\n        /* \"#utility.yul\":23228:23262   */\n      mstore\n        /* \"#utility.yul\":23298:23301   */\n      0xa0\n        /* \"#utility.yul\":23293:23295   */\n      0x60\n        /* \"#utility.yul\":23282:23291   */\n      dup3\n        /* \"#utility.yul\":23278:23296   */\n      add\n        /* \"#utility.yul\":23271:23302   */\n      mstore\n        /* \"#utility.yul\":23083:23087   */\n      0x00\n        /* \"#utility.yul\":23319:23376   */\n      tag_1138\n        /* \"#utility.yul\":23371:23374   */\n      0xa0\n        /* \"#utility.yul\":23360:23369   */\n      dup4\n        /* \"#utility.yul\":23356:23375   */\n      add\n        /* \"#utility.yul\":23348:23354   */\n      dup6\n        /* \"#utility.yul\":23319:23376   */\n      tag_963\n      jump\t// in\n    tag_1138:\n        /* \"#utility.yul\":23311:23376   */\n      swap1\n      pop\n        /* \"#utility.yul\":23413:23419   */\n      dup3\n        /* \"#utility.yul\":23407:23410   */\n      0x80\n        /* \"#utility.yul\":23396:23405   */\n      dup4\n        /* \"#utility.yul\":23392:23411   */\n      add\n        /* \"#utility.yul\":23385:23420   */\n      mstore\n        /* \"#utility.yul\":22813:23426   */\n      swap7\n      swap6\n      pop\n      pop\n      pop\n      pop\n      pop\n      pop\n      jump\t// out\n        /* \"#utility.yul\":24101:24378   */\n    tag_696:\n        /* \"#utility.yul\":24168:24174   */\n      0x00\n        /* \"#utility.yul\":24221:24223   */\n      0x20\n        /* \"#utility.yul\":24209:24218   */\n      dup3\n        /* \"#utility.yul\":24200:24207   */\n      dup5\n        /* \"#utility.yul\":24196:24219   */\n      sub\n        /* \"#utility.yul\":24192:24224   */\n      slt\n        /* \"#utility.yul\":24189:24241   */\n      iszero\n      tag_1142\n      jumpi\n        /* \"#utility.yul\":24237:24238   */\n      0x00\n        /* \"#utility.yul\":24234:24235   */\n      dup1\n        /* \"#utility.yul\":24227:24239   */\n      revert\n        /* \"#utility.yul\":24189:24241   */\n    tag_1142:\n        /* \"#utility.yul\":24269:24278   */\n      dup2\n        /* \"#utility.yul\":24263:24279   */\n      mload\n        /* \"#utility.yul\":24322:24327   */\n      dup1\n        /* \"#utility.yul\":24315:24328   */\n      iszero\n        /* \"#utility.yul\":24308:24329   */\n      iszero\n        /* \"#utility.yul\":24301:24306   */\n      dup2\n        /* \"#utility.yul\":24298:24330   */\n      eq\n        /* \"#utility.yul\":24288:24348   */\n      tag_486\n      jumpi\n        /* \"#utility.yul\":24344:24345   */\n      0x00\n        /* \"#utility.yul\":24341:24342   */\n      dup1\n        /* \"#utility.yul\":24334:24346   */\n      revert\n        /* \"#utility.yul\":24737:24864   */\n    tag_724:\n        /* \"#utility.yul\":24798:24808   */\n      0x4e487b71\n        /* \"#utility.yul\":24793:24796   */\n      0xe0\n        /* \"#utility.yul\":24789:24809   */\n      shl\n        /* \"#utility.yul\":24786:24787   */\n      0x00\n        /* \"#utility.yul\":24779:24810   */\n      mstore\n        /* \"#utility.yul\":24829:24833   */\n      0x12\n        /* \"#utility.yul\":24826:24827   */\n      0x04\n        /* \"#utility.yul\":24819:24834   */\n      mstore\n        /* \"#utility.yul\":24853:24857   */\n      0x24\n        /* \"#utility.yul\":24850:24851   */\n      0x00\n        /* \"#utility.yul\":24843:24858   */\n      revert\n\n    auxdata: 0xa26469706673582212209c1916f44881407b0aa837a701048a0b3caef4331cb608af7453c8db205408f464736f6c63430008190033\n}\n",
    "bytecode": {
      "linkReferences": {},
      "object": "6080604052602a600955348015610014575f80fd5b50604051614c6c380380614c6c83398101604081905261003391610107565b806001600160a01b03811661006157604051631e4fbdf760e01b81525f600482015260240160405180910390fd5b61006a8161009d565b5050600780546001600160a01b039384166001600160a01b03199182161790915560088054929093169116179055610147565b5f80546001600160a01b038381166001600160a01b0319831681178455604051919092169283917f8be0079c531659141344cd1fd0a4f28419497f9722a3daafe3b4186f6b6457e09190a35050565b80516001600160a01b0381168114610102575f80fd5b919050565b5f805f60608486031215610119575f80fd5b610122846100ec565b9250610130602085016100ec565b915061013e604085016100ec565b90509250925092565b614b18806101545f395ff3fe608060405234801561000f575f80fd5b5060043610610269575f3560e01c80638062dd9311610157578063bc197c81116100d2578063e1fc230511610088578063f2fde38b1161006e578063f2fde38b1461051b578063f76da1d91461052e578063fc0c546a14610541575f80fd5b8063e1fc2305146104f3578063f23a6e61146104fb575f80fd5b8063cd6bd6db116100b8578063cd6bd6db146104bf578063d8fdb386146104d3578063df7bd8fc146104e0575f80fd5b8063bc197c811461047b578063c5031331146104b6575f80fd5b80638d0a6cff116101275780638da5cb5b1161010d5780638da5cb5b14610431578063ae92a93d14610455578063bb6f593e14610468575f80fd5b80638d0a6cff146103fe5780638d36627b1461041e575f80fd5b80638062dd93146103ce5780638364dfef146103e15780638767d64e146103ec5780638ac40792146103f5575f80fd5b806346156ea0116101e7578063519f5099116101b757806352fdfecc1161019d57806352fdfecc146103ab5780635df45a37146103be578063715018a6146103c6575f80fd5b8063519f50991461038557806351c6590a14610398575f80fd5b806346156ea014610344578063476343ee146103575780634a4f72e11461035f5780634c395cc414610372575f80fd5b806313faede61161023c5780633913190611610222578063391319061461030c5780633ccfd60b1461032957806340088ee114610331575f80fd5b806313faede6146102ef57806334aa4e61146102f7575f80fd5b806301ffc9a71461026d57806305445405146102955780630794cb8c146102b657806310f8625a146102c9575b5f80fd5b61028061027b3660046142b0565b505f90565b60405190151581526020015b60405180910390f35b6102a86102a33660046142fe565b610554565b60405190815260200161028c565b6102a86102c436600461432f565b610665565b6102dc6102d736600461434f565b610952565b604051600f9190910b815260200161028c565b6102dc6109d5565b61030a610305366004614377565b610a40565b005b610314610c6e565b6040805192835260208301919091520161028c565b61030a610ecc565b6102a861033f3660046142fe565b61111d565b6102dc610352366004614377565b6111f0565b61030a611295565b61030a61036d36600461438e565b611406565b6102a8610380366004614415565b61171f565b610314610393366004614377565b61174e565b61030a6103a6366004614377565b611908565b6102dc6103b93660046144a8565b611a7c565b6102a8611aa8565b61030a611b61565b6102dc6103dc3660046144a8565b611b74565b600354600f0b6102dc565b6102a860015481565b6102a860095481565b61041161040c366004614377565b611d03565b60405161028c9190614503565b6102a861042c3660046142fe565b611dfb565b5f546001600160a01b03165b6040516001600160a01b03909116815260200161028c565b6102dc6104633660046144a8565b611ecd565b6102dc610476366004614377565b6126c1565b61049d61048936600461459b565b63bc197c8160e01b98975050505050505050565b6040516001600160e01b0319909116815260200161028c565b6102a860065481565b6004546102dc90600160801b9004600f0b81565b6005546102dc90600f0b81565b6102dc6104ee3660046144a8565b612757565b61031461277a565b61049d61050936600461464e565b63f23a6e6160e01b9695505050505050565b61030a6105293660046146c1565b612816565b6102dc61053c3660046144a8565b612850565b60085461043d906001600160a01b031681565b5f80836001600160a01b031663313ce5676040518163ffffffff1660e01b8152600401602060405180830381865afa158015610592573d5f803e3d5ffd5b505050506040513d601f19601f820116820180604052508101906105b691906146da565b60ff1690505f6105c782600a6147ee565b90505f84600f0b12156106215760405162461bcd60e51b815260206004820152601b60248201527f416d6f756e74206d757374206265206e6f6e2d6e65676174697665000000000060448201526064015b60405180910390fd5b5f61062c8583612c1b565b90505f6106398684612c90565b67ffffffffffffffff16600f0b131561065a576106576001826147f9565b90505b925050505b92915050565b6008545f90600160a01b900460ff161515600114610681575f80fd5b60015483106106ca5760405162461bcd60e51b8152602060048201526015602482015274092dcecc2d8d2c840deeae8c6dedaca40d2dcc8caf605b1b6044820152606401610618565b5f82116107195760405162461bcd60e51b815260206004820152601b60248201527f42657420616d6f756e74206d75737420626520706f73697469766500000000006044820152606401610618565b6008545f90610731906001600160a01b031684610952565b90505f61074d82600360109054906101000a9004600f0b612cce565b6003549091505f9061076c90610767908490600f0b612d08565b612d63565b90505f6107785f612dba565b90505f5b6001548110156107e7578781146107df576107dc826107d7610767600285815481106107aa576107aa61480c565b5f918252602090912060028204015460035460019092166010026101000a9004600f90810b91900b612d08565b612cce565b91505b60010161077c565b505f6107f38383612dd6565b90506107fe5f612dba565b600f0b81600f0b136108785760405162461bcd60e51b815260206004820152602d60248201527f42657420616d6f756e7420746f6f206c6172676520666f722063757272656e7460448201527f206d61726b6574207374617465000000000000000000000000000000000000006064820152608401610618565b6003545f906108cf9061089690600f0b61089185612e10565b612c90565b60028b815481106108a9576108a961480c565b905f5260205f2090600291828204019190066010029054906101000a9004600f0b612dd6565b90506108da5f612dba565b600f0b81600f0b121561092f5760405162461bcd60e51b815260206004820152601960248201527f496e76616c69642073686172652063616c63756c6174696f6e000000000000006044820152606401610618565b600854610945906001600160a01b031682611dfb565b9998505050505050505050565b5f80836001600160a01b031663313ce5676040518163ffffffff1660e01b8152600401602060405180830381865afa158015610990573d5f803e3d5ffd5b505050506040513d601f19601f820116820180604052508101906109b491906146da565b60ff1690506109cd836109c883600a6147ee565b612e48565b949350505050565b6008545f90600160a01b900460ff1615156001146109f1575f80fd5b5f805b600154811015610a2557610a1b826107d7610767600285815481106107aa576107aa61480c565b91506001016109f4565b50600354610a3990600f0b61089183612e10565b9150505b90565b610a48612e7d565b60075460065460405163dd34de6760e01b81526001600160a01b039092169163dd34de6791610a7d9160040190815260200190565b602060405180830381865afa158015610a98573d5f803e3d5ffd5b505050506040513d601f19601f82011682018060405250810190610abc9190614820565b15610b095760405162461bcd60e51b815260206004820152601760248201527f4d61726b657420616c7265616479207265736f6c7665640000000000000000006044820152606401610618565b600154600214610b6f5760405162461bcd60e51b815260206004820152602b60248201527f546869732066756e6374696f6e206f6e6c7920776f726b7320666f722062696e60448201526a617279206d61726b65747360a81b6064820152608401610618565b5f610b795f6111f0565b90505f610b8660016111f0565b90505f610b95836103e8612c1b565b90505f610ba4836103e8612c1b565b6040805160028082526060820183529293505f92909160208301908036833701905050905082815f81518110610bdc57610bdc61480c565b6020026020010181815250508181600181518110610bfc57610bfc61480c565b6020908102919091010152600754604051633124a62b60e21b81526001600160a01b039091169063c49298ac90610c399089908590600401614837565b5f604051808303815f87803b158015610c50575f80fd5b505af1158015610c62573d5f803e3d5ffd5b50505050505050505050565b5f80600154600214610cd65760405162461bcd60e51b815260206004820152602b60248201527f546869732066756e6374696f6e206f6e6c7920776f726b7320666f722062696e60448201526a617279206d61726b65747360a81b6064820152608401610618565b60075460065460405163856296f760e01b81525f6004820181905260248201929092526001604482015290916001600160a01b03169063856296f790606401602060405180830381865afa158015610d30573d5f803e3d5ffd5b505050506040513d601f19601f82011682018060405250810190610d549190614820565b60075460085460405163039dd75360e41b81526001600160a01b0391821660048201526024810184905292935016906339dd753090604401602060405180830381865afa158015610da7573d5f803e3d5ffd5b505050506040513d601f19601f82011682018060405250810190610dcb9190614820565b60075460065460405163856296f760e01b81525f60048201819052602482019290925260026044820152929550916001600160a01b039091169063856296f790606401602060405180830381865afa158015610e29573d5f803e3d5ffd5b505050506040513d601f19601f82011682018060405250810190610e4d9190614820565b60075460085460405163039dd75360e41b81526001600160a01b0391821660048201526024810184905292935016906339dd753090604401602060405180830381865afa158015610ea0573d5f803e3d5ffd5b505050506040513d601f19601f82011682018060405250810190610ec49190614820565b925050509091565b600854600160a01b900460ff161515600114610ee6575f80fd5b610eee612e7d565b60075460065460405163dd34de6760e01b81526001600160a01b039092169163dd34de6791610f239160040190815260200190565b602060405180830381865afa158015610f3e573d5f803e3d5ffd5b505050506040513d601f19601f82011682018060405250810190610f629190614820565b5f03610fb05760405162461bcd60e51b815260206004820152601b60248201527f4d61726b6574206e6565647320746f206265207265736f6c76656400000000006044820152606401610618565b5f60015467ffffffffffffffff811115610fcc57610fcc6143d4565b604051908082528060200260200182016040528015610ff5578160200160208202803683370190505b5090505f5b60015481101561102e57806001901b82828151811061101b5761101b61480c565b6020908102919091010152600101610ffa565b50600754600854600654604051626dc0df60e21b81526001600160a01b03938416936301b7037c9361106a939116915f9190879060040161484f565b5f604051808303815f87803b158015611081575f80fd5b505af1158015611093573d5f803e3d5ffd5b50506008546040516370a0823160e01b815230600482015261111a93503392506001600160a01b03909116906370a0823190602401602060405180830381865afa1580156110e3573d5f803e3d5ffd5b505050506040513d601f19601f820116820180604052508101906111079190614820565b6008546001600160a01b03169190612ea9565b50565b5f80836001600160a01b031663313ce5676040518163ffffffff1660e01b8152600401602060405180830381865afa15801561115b573d5f803e3d5ffd5b505050506040513d601f19601f8201168201806040525081019061117f91906146da565b60ff1690505f61119082600a6147ee565b90505f84600f0b12156111e55760405162461bcd60e51b815260206004820152601b60248201527f416d6f756e74206d757374206265206e6f6e2d6e6567617469766500000000006044820152606401610618565b5f6106578583612c1b565b5f600154821061123a5760405162461bcd60e51b8152602060048201526015602482015274092dcecc2d8d2c840deeae8c6dedaca40d2dcc8caf605b1b6044820152606401610618565b5f611254610767600285815481106107aa576107aa61480c565b90505f805b60015481101561128a57611280826107d7610767600285815481106107aa576107aa61480c565b9150600101611259565b506109cd8282612d08565b61129d612e7d565b6008546040516370a0823160e01b81523060048201525f916001600160a01b0316906370a0823190602401602060405180830381865afa1580156112e3573d5f803e3d5ffd5b505050506040513d601f19601f820116820180604052508101906113079190614820565b6008546003549192505f9161132f916001600160a01b031690600160801b9004600f0b61111d565b90508082116113805760405162461bcd60e51b815260206004820152601360248201527f4e6f206665657320746f207769746864726177000000000000000000000000006044820152606401610618565b5f61138b828461487c565b90506113b46113a15f546001600160a01b031690565b6008546001600160a01b03169083612ea9565b5f546001600160a01b03166001600160a01b03167fc0819c13be868895eb93e40eaceb96de976442fa1d404e5c55f14bb65a8c489a826040516113f991815260200190565b60405180910390a2505050565b61140e612e7d565b600854600160a01b900460ff16156114685760405162461bcd60e51b815260206004820152600c60248201527f416c726561647920696e697400000000000000000000000000000000000000006044820152606401610618565b5f81116114b75760405162461bcd60e51b815260206004820152601760248201527f43616e6e6f7420686176652030206f766572726f756e640000000000000000006044820152606401610618565b60075460405163365bb9d560e21b81526001600160a01b03888116600483015260248201889052604482018790529091169063d96ee754906064015f604051808303815f87803b158015611509575f80fd5b505af115801561151b573d5f803e3d5ffd5b5050600754604051634296357160e11b81526001600160a01b038a81166004830152602482018a905260448201899052909116925063852c6ae29150606401602060405180830381865afa158015611575573d5f803e3d5ffd5b505050506040513d601f19601f820116820180604052508101906115999190614820565b60065560018490555f6115ab85612dba565b6008549091505f906115c6906001600160a01b031686610952565b600380546001600160801b0319166001600160801b0383161790556008549091506115fc906001600160a01b0316333087612f22565b5f5b8681101561165e5760028054600180820183555f8390527f405787fa12a823e0f2b7631cc41b3ba8828b3321ca811111fa75cd3aa3bb5ace9282049290920180549183166010026101000a6001600160801b0302199091169055016115fe565b50600880547fffffffffffffffffffffff00ffffffffffffffffffffffffffffffffffffffff16600160a01b1790556004546116a490600160801b9004600f0b83612c90565b600480546001600160801b0319166001600160801b03929092169190911790556116cc6109d5565b600380546001600160801b03928316600160801b0292169190911790556116f583612710612e48565b600580546001600160801b0319166001600160801b03929092169190911790555050505050505050565b5f8160405160200161173191906148a6565b604051602081830303815290604052805190602001209050919050565b5f8060015483106117995760405162461bcd60e51b8152602060048201526015602482015274092dcecc2d8d2c840deeae8c6dedaca40d2dcc8caf605b1b6044820152606401610618565b60075460065460405163856296f760e01b81525f6004820181905260248201929092526001861b604482015290916001600160a01b03169063856296f790606401602060405180830381865afa1580156117f5573d5f803e3d5ffd5b505050506040513d601f19601f820116820180604052508101906118199190614820565b60075460085460405163039dd75360e41b81526001600160a01b0391821660048201526024810184905292935016906339dd753090604401602060405180830381865afa15801561186c573d5f803e3d5ffd5b505050506040513d601f19601f820116820180604052508101906118909190614820565b600754604051627eeac760e11b8152306004820152602481018390529194506001600160a01b03169062fdd58e90604401602060405180830381865afa1580156118dc573d5f803e3d5ffd5b505050506040513d601f19601f820116820180604052508101906119009190614820565b915050915091565b611910612e7d565b600854611928906001600160a01b0316333084612f22565b6008545f90611940906001600160a01b031683610952565b90505f5b6001548110156119d95761198b600282815481106119645761196461480c565b905f5260205f2090600291828204019190066010029054906101000a9004600f0b83612cce565b6002828154811061199e5761199e61480c565b5f9182526020909120600282040180546001600160801b0393841660106001948516026101000a908102940219169290921790915501611944565b506004546001546119f791600f0b906107d790849061089190612dba565b600480546001600160801b0319166001600160801b0392909216919091179055611a1f6109d5565b600380546001600160801b03928316600160801b02921691909117905560405133907fc17cea59c2955cb181b03393209566960365771dbba9dc3d510180e7cb31208890611a709085815260200190565b60405180910390a25050565b5f611a8a836103dc846148b1565b600354611aa19190600160801b9004600f0b6148d5565b9392505050565b6008546040516370a0823160e01b81523060048201525f9182916001600160a01b03909116906370a0823190602401602060405180830381865afa158015611af2573d5f803e3d5ffd5b505050506040513d601f19601f82011682018060405250810190611b169190614820565b6008546003549192505f91611b3e916001600160a01b031690600160801b9004600f0b61111d565b905080821115611b5957611b52818361487c565b9250505090565b5f9250505090565b611b69612e7d565b611b725f612f61565b565b5f805f60028054905067ffffffffffffffff811115611b9557611b956143d4565b604051908082528060200260200182016040528015611bbe578160200160208202803683370190505b50600354909150600f0b5f5b600154811015611caa576001811b871615611c4757611c1c60028281548110611bf557611bf561480c565b905f5260205f2090600291828204019190066010029054906101000a9004600f0b87612cce565b838281518110611c2e57611c2e61480c565b6020026020010190600f0b9081600f0b81525050611ca2565b60028181548110611c5a57611c5a61480c565b905f5260205f2090600291828204019190066010029054906101000a9004600f0b838281518110611c8d57611c8d61480c565b6020026020010190600f0b9081600f0b815250505b600101611bca565b505f5b600154811015611ceb57611ce1846107d7610767868581518110611cd357611cd361480c565b602002602001015186612d08565b9350600101611cad565b50611cf98161089185612e10565b9695505050505050565b60605f600180546001901b611d18919061487c565b90506001831b81185f611d2a82612fc8565b611d359060016147f9565b67ffffffffffffffff811115611d4d57611d4d6143d4565b604051908082528060200260200182016040528015611d76578160200160208202803683370190505b5090505f60019050856001901b825f81518110611d9557611d9561480c565b6020026020010181815250505f5b600154811015611df0576001811b841615611de857806001901b838381518110611dcf57611dcf61480c565b602090810291909101015281611de48161490b565b9250505b600101611da3565b509095945050505050565b5f80836001600160a01b031663313ce5676040518163ffffffff1660e01b8152600401602060405180830381865afa158015611e39573d5f803e3d5ffd5b505050506040513d601f19601f82011682018060405250810190611e5d91906146da565b60ff1690505f611e6e82600a6147ee565b90505f84600f0b1215611ec35760405162461bcd60e51b815260206004820152601b60248201527f416d6f756e74206d757374206265206e6f6e2d6e6567617469766500000000006044820152606401610618565b61065a8482612c1b565b6008545f90600160a01b900460ff161515600114611ee9575f80fd5b6001548310611f325760405162461bcd60e51b8152602060048201526015602482015274092dcecc2d8d2c840deeae8c6dedaca40d2dcc8caf605b1b6044820152606401610618565b5f82600f0b13611f845760405162461bcd60e51b815260206004820152601760248201527f416d6f756e74206d75737420626520706f7369746976650000000000000000006044820152606401610618565b60075460065460405163dd34de6760e01b81526001600160a01b039092169163dd34de6791611fb99160040190815260200190565b602060405180830381865afa158015611fd4573d5f803e3d5ffd5b505050506040513d601f19601f82011682018060405250810190611ff89190614820565b156120455760405162461bcd60e51b815260206004820152601760248201527f4d61726b657420616c7265616479207265736f6c7665640000000000000000006044820152606401610618565b81600f0b6002848154811061205c5761205c61480c565b5f918252602090912060028204015460019091166010026101000a9004600f0b12156120ca5760405162461bcd60e51b815260206004820152601960248201527f4e6f7420656e6f7567682073686172657320746f2073656c6c000000000000006044820152606401610618565b5f805f612165600280548060200260200160405190810160405280929190818152602001828054801561213c57602002820191905f5260205f20905f905b825461010083900a9004600f0b81526020601f83018190049384019360010360109093019290920291018084116121085790505b50506004546003546001548d95508c9450600f92830b9350600160801b90910490910b90612ff6565b60085492955090935091505f90612185906001600160a01b031687611dfb565b60075460085460065460405163856296f760e01b81525f60048201819052602482019290925260018c1b6044820152939450926001600160a01b03928316926339dd7530921690839063856296f790606401602060405180830381865afa1580156121f2573d5f803e3d5ffd5b505050506040513d601f19601f820116820180604052508101906122169190614820565b6040516001600160e01b031960e085901b1681526001600160a01b0390921660048301526024820152604401602060405180830381865afa15801561225d573d5f803e3d5ffd5b505050506040513d601f19601f820116820180604052508101906122819190614820565b600754604051637921219560e11b8152336004820152306024820152604481018390526064810185905260a060848201525f60a48201529192506001600160a01b03169063f242432a9060c4015f604051808303815f87803b1580156122e5575f80fd5b505af19250505080156122f6575060015b61239957612302614923565b806308c379a00361238f575061231661493b565b806123215750612391565b7fbd1dcaeca35ae4a65142e160b7e80d67e7d37f2145f209d9c29b7e4daf85ba378160405161235091906149e7565b60405180910390a1806040516020016123699190614a2d565b60408051601f198184030181529082905262461bcd60e51b825261061891600401614a5e565b505b3d5f803e3d5ffd5b5f6123a389611d03565b9050825f5b825181101561255d5760075460085460065485515f936001600160a01b03908116936339dd753093911691849163856296f7918791908b908a9081106123f0576123f061480c565b60200260200101516040518463ffffffff1660e01b8152600401612427939291909283526020830191909152604082015260600190565b602060405180830381865afa158015612442573d5f803e3d5ffd5b505050506040513d601f19601f820116820180604052508101906124669190614820565b6040516001600160e01b031960e085901b1681526001600160a01b0390921660048301526024820152604401602060405180830381865afa1580156124ad573d5f803e3d5ffd5b505050506040513d601f19601f820116820180604052508101906124d19190614820565b600754604051627eeac760e11b8152306004820152602481018390529192505f916001600160a01b039091169062fdd58e90604401602060405180830381865afa158015612521573d5f803e3d5ffd5b505050506040513d601f19601f820116820180604052508101906125459190614820565b905083811015612553578093505b50506001016123a8565b5080156125d057600754600854600654604051639e7212ad60e01b81526001600160a01b0393841693639e7212ad936125a2939116915f919088908890600401614a70565b5f604051808303815f87803b1580156125b9575f80fd5b505af11580156125cb573d5f803e3d5ffd5b505050505b61260d60028b815481106125e6576125e661480c565b905f5260205f2090600291828204019190066010029054906101000a9004600f0b8a612dd6565b60028b815481106126205761262061480c565b5f918252602082206002820401805460019092166010026101000a6001600160801b03818102199093169483160293909317909255600480546001600160801b031916888416179055600380548316600160801b938b169390930292909217909155600854612698906001600160a01b031688611dfb565b6008549091506126b2906001600160a01b03163383612ea9565b50949998505050505050505050565b5f600154821061270b5760405162461bcd60e51b8152602060048201526015602482015274092dcecc2d8d2c840deeae8c6dedaca40d2dcc8caf605b1b6044820152606401610618565b61065f600283815481106127215761272161480c565b905f5260205f2090600291828204019190066010029054906101000a9004600f0b600460109054906101000a9004600f0b612dd6565b6003545f90600160801b9004600f0b6127708484611b74565b611aa191906148d5565b6008546040516370a0823160e01b81523060048201525f9182916001600160a01b03909116906370a0823190602401602060405180830381865afa1580156127c4573d5f803e3d5ffd5b505050506040513d601f19601f820116820180604052508101906127e89190614820565b600854600354919350612810916001600160a01b0390911690600160801b9004600f0b61111d565b90509091565b61281e612e7d565b6001600160a01b03811661284757604051631e4fbdf760e01b81525f6004820152602401610618565b61111a81612f61565b6008545f90600160a01b900460ff16151560011461286c575f80fd5b60015483106128b55760405162461bcd60e51b8152602060048201526015602482015274092dcecc2d8d2c840deeae8c6dedaca40d2dcc8caf605b1b6044820152606401610618565b5f82600f0b136129075760405162461bcd60e51b815260206004820152601760248201527f416d6f756e74206d75737420626520706f7369746976650000000000000000006044820152606401610618565b60075460065460405163dd34de6760e01b81526001600160a01b039092169163dd34de679161293c9160040190815260200190565b602060405180830381865afa158015612957573d5f803e3d5ffd5b505050506040513d601f19601f8201168201806040525081019061297b9190614820565b156129c85760405162461bcd60e51b815260206004820152601760248201527f4d61726b657420616c7265616479207265736f6c7665640000000000000000006044820152606401610618565b5f805f612a636002805480602002602001604051908101604052809291908181526020018280548015612a3a57602002820191905f5260205f20905f905b825461010083900a9004600f0b81526020601f8301819004938401936001036010909301929092029101808411612a065790505b50506004546003546001548d95508c9450600f92830b9350600160801b90910490910b90613157565b60085492955090935091505f90612a83906001600160a01b031684610554565b60408051828152600f86900b60208201529192507fbd58a27f98d614697f8a2d66c4c15779b5c06324bdc1f23994d9e5f93a537a4d910160405180910390a16008546040516323b872dd60e01b8152336004820152306024820152604481018390526001600160a01b03909116906323b872dd906064016020604051808303815f875af1158015612b16573d5f803e3d5ffd5b505050506040513d601f19601f82011682018060405250810190612b3a9190614aaf565b612b865760405162461bcd60e51b815260206004820152601960248201527f4572726f72207472616e7366657272696e6720746f6b656e73000000000000006044820152606401610618565b612b9c60028881548110611bf557611bf561480c565b60028881548110612baf57612baf61480c565b5f91825260209091206002820401805460019092166010026101000a6001600160801b03818102199093169383160292909217909155600480546001600160801b031916848316179055600380548216600160801b92871692909202919091179055611df08787613299565b5f815f03612c2a57505f61065f565b5f83600f0b1215612c39575f80fd5b600f83900b6001600160801b038316810260401c90608084901c0277ffffffffffffffffffffffffffffffffffffffffffffffff811115612c78575f80fd5b60401b8119811115612c88575f80fd5b019392505050565b5f600f83810b9083900b0260401d6f7fffffffffffffffffffffffffffffff198112801590612cc6575060016001607f1b038113155b611aa1575f80fd5b5f600f83810b9083900b016f7fffffffffffffffffffffffffffffff198112801590612cc6575060016001607f1b03811315611aa1575f80fd5b5f81600f0b5f03612d17575f80fd5b5f82600f0b604085600f0b901b81612d3157612d31614ace565b0590506f7fffffffffffffffffffffffffffffff198112801590612cc6575060016001607f1b03811315611aa1575f80fd5b5f6840000000000000000082600f0b12612d7b575f80fd5b683fffffffffffffffff1982600f0b1215612d9757505f919050565b61065f608083600f0b700171547652b82fe1777d0ffda0d23a7d1202901d613579565b5f677fffffffffffffff821115612dcf575f80fd5b5060401b90565b5f600f82810b9084900b036f7fffffffffffffffffffffffffffffff198112801590612cc6575060016001607f1b03811315611aa1575f80fd5b5f8082600f0b13612e1f575f80fd5b6080612e2a83613fff565b600f0b6fb17217f7d1cf79abc9e3b39803f2f6af02901c9050919050565b5f815f03612e54575f80fd5b5f612e5f84846140d4565b905060016001607f1b036001600160801b0382161115611aa1575f80fd5b5f546001600160a01b03163314611b725760405163118cdaa760e01b8152336004820152602401610618565b6040516001600160a01b03838116602483015260448201839052612f1d91859182169063a9059cbb906064015b604051602081830303815290604052915060e01b6020820180517bffffffffffffffffffffffffffffffffffffffffffffffffffffffff8381831617835250505050614244565b505050565b6040516001600160a01b038481166024830152838116604483015260648201839052612f5b9186918216906323b872dd90608401612ed6565b50505050565b5f80546001600160a01b038381167fffffffffffffffffffffffff0000000000000000000000000000000000000000831681178455604051919092169283917f8be0079c531659141344cd1fd0a4f28419497f9722a3daafe3b4186f6b6457e09190a35050565b5f5b8115612ff157612fdb60018361487c565b9091169080612fe98161490b565b915050612fca565b919050565b5f805f808467ffffffffffffffff811115613013576130136143d4565b60405190808252806020026020018201604052801561303c578160200160208202803683370190505b5090505f5b85811015613090578a818151811061305b5761305b61480c565b60200260200101518282815181106130755761307561480c565b600f9290920b60209283029190910190910152600101613041565b506130b4818a815181106130a6576130a661480c565b602002602001015189612dd6565b818a815181106130c6576130c661480c565b6020026020010190600f0b9081600f0b815250506130e48789612dd6565b600354909250600f0b5f805b8781101561312c57613122826107d76107678785815181106131145761311461480c565b602002602001015187612d08565b91506001016130f0565b5061313a8261089183612e10565b95506131468887612dd6565b945050505096509650969350505050565b5f805f808467ffffffffffffffff811115613174576131746143d4565b60405190808252806020026020018201604052801561319d578160200160208202803683370190505b5090505f5b858110156131f1578a81815181106131bc576131bc61480c565b60200260200101518282815181106131d6576131d661480c565b600f9290920b602092830291909101909101526001016131a2565b50613215818a815181106132075761320761480c565b602002602001015189612cce565b818a815181106132275761322761480c565b6020026020010190600f0b9081600f0b815250506132458789612cce565b600354909250600f0b5f805b8781101561327f57613275826107d76107678785815181106131145761311461480c565b9150600101613251565b5061328d8261089183612e10565b95506131468689612dd6565b6008545f906132b1906001600160a01b031683610554565b60075460085460065460405163856296f760e01b81525f6004820181905260248201929092526001881b6044820152939450926001600160a01b03928316926339dd7530921690839063856296f790606401602060405180830381865afa15801561331e573d5f803e3d5ffd5b505050506040513d601f19601f820116820180604052508101906133429190614820565b6040516001600160e01b031960e085901b1681526001600160a01b0390921660048301526024820152604401602060405180830381865afa158015613389573d5f803e3d5ffd5b505050506040513d601f19601f820116820180604052508101906133ad9190614820565b600754604051627eeac760e11b8152306004820152602481018390529192505f916001600160a01b039091169062fdd58e90604401602060405180830381865afa1580156133fd573d5f803e3d5ffd5b505050506040513d601f19601f820116820180604052508101906134219190614820565b90508281108015613528575f613437838661487c565b60085460075460405163095ea7b360e01b81526001600160a01b03918216600482015260248101849052929350169063095ea7b3906044016020604051808303815f875af115801561348b573d5f803e3d5ffd5b505050506040513d601f19601f820116820180604052508101906134af9190614aaf565b506007546008546006546001600160a01b03928316926372ce42759216905f906134d88c611d03565b866040518663ffffffff1660e01b81526004016134f9959493929190614a70565b5f604051808303815f87803b158015613510575f80fd5b505af1158015613522573d5f803e3d5ffd5b50505050505b600754604051637921219560e11b8152306004820152336024820152604481018590526064810186905260a060848201525f60a48201526001600160a01b039091169063f242432a9060c401610c39565b5f6840000000000000000082600f0b12613591575f80fd5b683fffffffffffffffff1982600f0b12156135ad57505f919050565b6f800000000000000000000000000000005f6780000000000000008416600f0b13156135ea5770016a09e667f3bcc908b2fb1366ea957d3e0260801c5b5f8367400000000000000016600f0b1315613616577001306fe0a31b7152de8d5a46305c85edec0260801c5b5f8367200000000000000016600f0b1315613642577001172b83c7d517adcdf7c8c50eb14a791f0260801c5b5f8367100000000000000016600f0b131561366e5770010b5586cf9890f6298b92b71842a983630260801c5b5f8367080000000000000016600f0b131561369a577001059b0d31585743ae7c548eb68ca417fd0260801c5b5f8367040000000000000016600f0b13156136c657700102c9a3e778060ee6f7caca4f7a29bde80260801c5b5f8367020000000000000016600f0b13156136f25770010163da9fb33356d84a66ae336dcdfa3f0260801c5b5f8367010000000000000016600f0b131561371e57700100b1afa5abcbed6129ab13ec11dc95430260801c5b5f83668000000000000016600f0b13156137495770010058c86da1c09ea1ff19d294cf2f679b0260801c5b5f83664000000000000016600f0b1315613774577001002c605e2e8cec506d21bfc89a23a00f0260801c5b5f83662000000000000016600f0b131561379f57700100162f3904051fa128bca9c55c31e5df0260801c5b5f83661000000000000016600f0b13156137ca577001000b175effdc76ba38e31671ca9397250260801c5b5f83660800000000000016600f0b13156137f557700100058ba01fb9f96d6cacd4b180917c3d0260801c5b5f83660400000000000016600f0b13156138205770010002c5cc37da9491d0985c348c68e7b30260801c5b5f83660200000000000016600f0b131561384b577001000162e525ee054754457d59952920260260801c5b5f83660100000000000016600f0b13156138765770010000b17255775c040618bf4a4ade83fc0260801c5b5f836580000000000016600f0b13156138a0577001000058b91b5bc9ae2eed81e9b7d4cfab0260801c5b5f836540000000000016600f0b13156138ca57700100002c5c89d5ec6ca4d7c8acc017b7c90260801c5b5f836520000000000016600f0b13156138f45770010000162e43f4f831060e02d839a9d16d0260801c5b5f836510000000000016600f0b131561391e57700100000b1721bcfc99d9f890ea069117630260801c5b5f836508000000000016600f0b13156139485770010000058b90cf1e6d97f9ca14dbcc16280260801c5b5f836504000000000016600f0b1315613972577001000002c5c863b73f016468f6bac5ca2b0260801c5b5f836502000000000016600f0b131561399c57700100000162e430e5a18f6119e3c02282a50260801c5b5f836501000000000016600f0b13156139c6577001000000b1721835514b86e6d96efd1bfe0260801c5b5f8364800000000016600f0b13156139ef57700100000058b90c0b48c6be5df846c5b2ef0260801c5b5f8364400000000016600f0b1315613a185770010000002c5c8601cc6b9e94213c72737a0260801c5b5f8364200000000016600f0b1315613a41577001000000162e42fff037df38aa2b219f060260801c5b5f8364100000000016600f0b1315613a6a5770010000000b17217fba9c739aa5819f44f90260801c5b5f8364080000000016600f0b1315613a93577001000000058b90bfcdee5acd3c1cedc8230260801c5b5f8364040000000016600f0b1315613abc57700100000002c5c85fe31f35a6a30da1be500260801c5b5f8364020000000016600f0b1315613ae55770010000000162e42ff0999ce3541b9fffcf0260801c5b5f8364010000000016600f0b1315613b0e57700100000000b17217f80f4ef5aadda455540260801c5b5f83638000000016600f0b1315613b365770010000000058b90bfbf8479bd5a81b51ad0260801c5b5f83634000000016600f0b1315613b5e577001000000002c5c85fdf84bd62ae30a74cc0260801c5b5f83632000000016600f0b1315613b8657700100000000162e42fefb2fed257559bdaa0260801c5b5f83631000000016600f0b1315613bae577001000000000b17217f7d5a7716bba4a9ae0260801c5b5f83630800000016600f0b1315613bd657700100000000058b90bfbe9ddbac5e109cce0260801c5b5f83630400000016600f0b1315613bfe5770010000000002c5c85fdf4b15de6f17eb0d0260801c5b5f83630200000016600f0b1315613c26577001000000000162e42fefa494f1478fde050260801c5b5f83630100000016600f0b1315613c4e5770010000000000b17217f7d20cf927c8e94c0260801c5b5f836280000016600f0b1315613c75577001000000000058b90bfbe8f71cb4e4b33d0260801c5b5f836240000016600f0b1315613c9c57700100000000002c5c85fdf477b662b269450260801c5b5f836220000016600f0b1315613cc35770010000000000162e42fefa3ae53369388c0260801c5b5f836210000016600f0b1315613cea57700100000000000b17217f7d1d351a389d400260801c5b5f836208000016600f0b1315613d115770010000000000058b90bfbe8e8b2d3d4ede0260801c5b5f836204000016600f0b1315613d38577001000000000002c5c85fdf4741bea6e77e0260801c5b5f836202000016600f0b1315613d5f57700100000000000162e42fefa39fe95583c20260801c5b5f836201000016600f0b1315613d86577001000000000000b17217f7d1cfb72b45e10260801c5b5f8361800016600f0b1315613dac57700100000000000058b90bfbe8e7cc35c3f00260801c5b5f8361400016600f0b1315613dd25770010000000000002c5c85fdf473e242ea380260801c5b5f8361200016600f0b1315613df8577001000000000000162e42fefa39f02b772c0260801c5b5f8361100016600f0b1315613e1e5770010000000000000b17217f7d1cf7d83c1a0260801c5b5f8361080016600f0b1315613e44577001000000000000058b90bfbe8e7bdcbe2e0260801c5b5f8361040016600f0b1315613e6a57700100000000000002c5c85fdf473dea871f0260801c5b5f8361020016600f0b1315613e905770010000000000000162e42fefa39ef44d910260801c5b5f8361010016600f0b1315613eb657700100000000000000b17217f7d1cf79e9490260801c5b5f83608016600f0b1315613edb5770010000000000000058b90bfbe8e7bce5440260801c5b5f83604016600f0b1315613f00577001000000000000002c5c85fdf473de6eca0260801c5b5f83602016600f0b1315613f2557700100000000000000162e42fefa39ef366f0260801c5b5f83601016600f0b1315613f4a577001000000000000000b17217f7d1cf79afa0260801c5b5f83600816600f0b1315613f6f57700100000000000000058b90bfbe8e7bcd6d0260801c5b5f83600416600f0b1315613f945770010000000000000002c5c85fdf473de6b20260801c5b5f83600216600f0b1315613fb9577001000000000000000162e42fefa39ef3580260801c5b5f83600116600f0b1315613fde5770010000000000000000b17217f7d1cf79ab0260801c5b600f83810b60401d603f03900b1c60016001607f1b0381111561065f575f80fd5b5f8082600f0b1361400e575f80fd5b5f600f83900b68010000000000000000811261402c576040918201911d5b6401000000008112614040576020918201911d5b620100008112614052576010918201911d5b6101008112614063576008918201911d5b60108112614073576004918201911d5b60048112614083576002918201911d5b60028112614092576001820191505b603f19820160401b600f85900b607f8490031b6780000000000000005b5f811315611df05790800260ff81901c8281029390930192607f011c9060011d6140af565b5f815f036140e0575f80fd5b5f77ffffffffffffffffffffffffffffffffffffffffffffffff841161411b5782604085901b8161411357614113614ace565b049050614231565b60c084811c6401000000008110614134576020918201911c5b620100008110614146576010918201911c5b6101008110614157576008918201911c5b60108110614167576004918201911c5b60048110614177576002918201911c5b60028110614186576001820191505b60bf820360018603901c6001018260ff0387901b816141a7576141a7614ace565b0492506001600160801b038311156141bd575f80fd5b608085901c83026001600160801b038616840260c088901c604089901b828110156141e9576001820391505b608084901b92900382811015614200576001820391505b829003608084901c8214614215576001614226565b88818161422457614224614ace565b045b870196505050505050505b6001600160801b03811115611aa1575f80fd5b5f8060205f8451602086015f885af180614263576040513d5f823e3d81fd5b50505f513d9150811561427a578060011415614287565b6001600160a01b0384163b155b15612f5b57604051635274afe760e01b81526001600160a01b0385166004820152602401610618565b5f602082840312156142c0575f80fd5b81356001600160e01b031981168114611aa1575f80fd5b80356001600160a01b0381168114612ff1575f80fd5b8035600f81900b8114612ff1575f80fd5b5f806040838503121561430f575f80fd5b614318836142d7565b9150614326602084016142ed565b90509250929050565b5f8060408385031215614340575f80fd5b50508035926020909101359150565b5f8060408385031215614360575f80fd5b614369836142d7565b946020939093013593505050565b5f60208284031215614387575f80fd5b5035919050565b5f805f805f8060c087890312156143a3575f80fd5b6143ac876142d7565b9860208801359850604088013597606081013597506080810135965060a00135945092505050565b634e487b7160e01b5f52604160045260245ffd5b601f8201601f1916810167ffffffffffffffff8111828210171561440e5761440e6143d4565b6040525050565b5f6020808385031215614426575f80fd5b823567ffffffffffffffff8082111561443d575f80fd5b818501915085601f830112614450575f80fd5b813581811115614462576144626143d4565b604051915061447a601f8201601f19168501836143e8565b808252868482850101111561448d575f80fd5b80848401858401375f90820190930192909252509392505050565b5f80604083850312156144b9575f80fd5b82359150614326602084016142ed565b5f815180845260208085019450602084015f5b838110156144f8578151875295820195908201906001016144dc565b509495945050505050565b602081525f611aa160208301846144c9565b5f8083601f840112614525575f80fd5b50813567ffffffffffffffff81111561453c575f80fd5b6020830191508360208260051b8501011115614556575f80fd5b9250929050565b5f8083601f84011261456d575f80fd5b50813567ffffffffffffffff811115614584575f80fd5b602083019150836020828501011115614556575f80fd5b5f805f805f805f8060a0898b0312156145b2575f80fd5b6145bb896142d7565b97506145c960208a016142d7565b9650604089013567ffffffffffffffff808211156145e5575f80fd5b6145f18c838d01614515565b909850965060608b0135915080821115614609575f80fd5b6146158c838d01614515565b909650945060808b013591508082111561462d575f80fd5b5061463a8b828c0161455d565b999c989b5096995094979396929594505050565b5f805f805f8060a08789031215614663575f80fd5b61466c876142d7565b955061467a602088016142d7565b94506040870135935060608701359250608087013567ffffffffffffffff8111156146a3575f80fd5b6146af89828a0161455d565b979a9699509497509295939492505050565b5f602082840312156146d1575f80fd5b611aa1826142d7565b5f602082840312156146ea575f80fd5b815160ff81168114611aa1575f80fd5b634e487b7160e01b5f52601160045260245ffd5b600181815b8085111561474857815f190482111561472e5761472e6146fa565b8085161561473b57918102915b93841c9390800290614713565b509250929050565b5f8261475e5750600161065f565b8161476a57505f61065f565b8160018114614780576002811461478a576147a6565b600191505061065f565b60ff84111561479b5761479b6146fa565b50506001821b61065f565b5060208310610133831016604e8410600b84101617156147c9575081810a61065f565b6147d3838361470e565b805f19048211156147e6576147e66146fa565b029392505050565b5f611aa18383614750565b8082018082111561065f5761065f6146fa565b634e487b7160e01b5f52603260045260245ffd5b5f60208284031215614830575f80fd5b5051919050565b828152604060208201525f6109cd60408301846144c9565b6001600160a01b0385168152836020820152826040820152608060608201525f611cf960808301846144c9565b8181038181111561065f5761065f6146fa565b5f81518060208401855e5f93019283525090919050565b5f611aa1828461488f565b5f81600f0b60016001607f1b031981036148cd576148cd6146fa565b5f0392915050565b600f82810b9082900b036f7fffffffffffffffffffffffffffffff19811260016001607f1b038213171561065f5761065f6146fa565b5f6001820161491c5761491c6146fa565b5060010190565b5f60033d1115610a3d5760045f803e505f5160e01c90565b5f60443d10156149485790565b6040516003193d81016004833e81513d67ffffffffffffffff816024840111818411171561497857505050505090565b82850191508151818111156149905750505050505090565b843d87010160208285010111156149aa5750505050505090565b611df0602082860101876143e8565b5f81518084528060208401602086015e5f602082860101526020601f19601f83011685010191505092915050565b60408152601760408201527f736166655472616e7366657246726f6d206661696c65640000000000000000006060820152608060208201525f611aa160808301846149b9565b7f736166655472616e7366657246726f6d206661696c65643a200000000000000081525f611aa1601983018461488f565b602081525f611aa160208301846149b9565b6001600160a01b038616815284602082015283604082015260a060608201525f614a9d60a08301856144c9565b90508260808301529695505050505050565b5f60208284031215614abf575f80fd5b81518015158114611aa1575f80fd5b634e487b7160e01b5f52601260045260245ffdfea26469706673582212209c1916f44881407b0aa837a701048a0b3caef4331cb608af7453c8db205408f464736f6c63430008190033",
      "opcodes": "PUSH1 0x80 PUSH1 0x40 MSTORE PUSH1 0x2A PUSH1 0x9 SSTORE CALLVALUE DUP1 ISZERO PUSH2 0x14 JUMPI PUSH0 DUP1 REVERT JUMPDEST POP PUSH1 0x40 MLOAD PUSH2 0x4C6C CODESIZE SUB DUP1 PUSH2 0x4C6C DUP4 CODECOPY DUP2 ADD PUSH1 0x40 DUP2 SWAP1 MSTORE PUSH2 0x33 SWAP2 PUSH2 0x107 JUMP JUMPDEST DUP1 PUSH1 0x1 PUSH1 0x1 PUSH1 0xA0 SHL SUB DUP2 AND PUSH2 0x61 JUMPI PUSH1 0x40 MLOAD PUSH4 0x1E4FBDF7 PUSH1 0xE0 SHL DUP2 MSTORE PUSH0 PUSH1 0x4 DUP3 ADD MSTORE PUSH1 0x24 ADD PUSH1 0x40 MLOAD DUP1 SWAP2 SUB SWAP1 REVERT JUMPDEST PUSH2 0x6A DUP2 PUSH2 0x9D JUMP JUMPDEST POP POP PUSH1 0x7 DUP1 SLOAD PUSH1 0x1 PUSH1 0x1 PUSH1 0xA0 SHL SUB SWAP4 DUP5 AND PUSH1 0x1 PUSH1 0x1 PUSH1 0xA0 SHL SUB NOT SWAP2 DUP3 AND OR SWAP1 SWAP2 SSTORE PUSH1 0x8 DUP1 SLOAD SWAP3 SWAP1 SWAP4 AND SWAP2 AND OR SWAP1 SSTORE PUSH2 0x147 JUMP JUMPDEST PUSH0 DUP1 SLOAD PUSH1 0x1 PUSH1 0x1 PUSH1 0xA0 SHL SUB DUP4 DUP2 AND PUSH1 0x1 PUSH1 0x1 PUSH1 0xA0 SHL SUB NOT DUP4 AND DUP2 OR DUP5 SSTORE PUSH1 0x40 MLOAD SWAP2 SWAP1 SWAP3 AND SWAP3 DUP4 SWAP2 PUSH32 0x8BE0079C531659141344CD1FD0A4F28419497F9722A3DAAFE3B4186F6B6457E0 SWAP2 SWAP1 LOG3 POP POP JUMP JUMPDEST DUP1 MLOAD PUSH1 0x1 PUSH1 0x1 PUSH1 0xA0 SHL SUB DUP2 AND DUP2 EQ PUSH2 0x102 JUMPI PUSH0 DUP1 REVERT JUMPDEST SWAP2 SWAP1 POP JUMP JUMPDEST PUSH0 DUP1 PUSH0 PUSH1 0x60 DUP5 DUP7 SUB SLT ISZERO PUSH2 0x119 JUMPI PUSH0 DUP1 REVERT JUMPDEST PUSH2 0x122 DUP5 PUSH2 0xEC JUMP JUMPDEST SWAP3 POP PUSH2 0x130 PUSH1 0x20 DUP6 ADD PUSH2 0xEC JUMP JUMPDEST SWAP2 POP PUSH2 0x13E PUSH1 0x40 DUP6 ADD PUSH2 0xEC JUMP JUMPDEST SWAP1 POP SWAP3 POP SWAP3 POP SWAP3 JUMP JUMPDEST PUSH2 0x4B18 DUP1 PUSH2 0x154 PUSH0 CODECOPY PUSH0 RETURN INVALID PUSH1 0x80 PUSH1 0x40 MSTORE CALLVALUE DUP1 ISZERO PUSH2 0xF JUMPI PUSH0 DUP1 REVERT JUMPDEST POP PUSH1 0x4 CALLDATASIZE LT PUSH2 0x269 JUMPI PUSH0 CALLDATALOAD PUSH1 0xE0 SHR DUP1 PUSH4 0x8062DD93 GT PUSH2 0x157 JUMPI DUP1 PUSH4 0xBC197C81 GT PUSH2 0xD2 JUMPI DUP1 PUSH4 0xE1FC2305 GT PUSH2 0x88 JUMPI DUP1 PUSH4 0xF2FDE38B GT PUSH2 0x6E JUMPI DUP1 PUSH4 0xF2FDE38B EQ PUSH2 0x51B JUMPI DUP1 PUSH4 0xF76DA1D9 EQ PUSH2 0x52E JUMPI DUP1 PUSH4 0xFC0C546A EQ PUSH2 0x541 JUMPI PUSH0 DUP1 REVERT JUMPDEST DUP1 PUSH4 0xE1FC2305 EQ PUSH2 0x4F3 JUMPI DUP1 PUSH4 0xF23A6E61 EQ PUSH2 0x4FB JUMPI PUSH0 DUP1 REVERT JUMPDEST DUP1 PUSH4 0xCD6BD6DB GT PUSH2 0xB8 JUMPI DUP1 PUSH4 0xCD6BD6DB EQ PUSH2 0x4BF JUMPI DUP1 PUSH4 0xD8FDB386 EQ PUSH2 0x4D3 JUMPI DUP1 PUSH4 0xDF7BD8FC EQ PUSH2 0x4E0 JUMPI PUSH0 DUP1 REVERT JUMPDEST DUP1 PUSH4 0xBC197C81 EQ PUSH2 0x47B JUMPI DUP1 PUSH4 0xC5031331 EQ PUSH2 0x4B6 JUMPI PUSH0 DUP1 REVERT JUMPDEST DUP1 PUSH4 0x8D0A6CFF GT PUSH2 0x127 JUMPI DUP1 PUSH4 0x8DA5CB5B GT PUSH2 0x10D JUMPI DUP1 PUSH4 0x8DA5CB5B EQ PUSH2 0x431 JUMPI DUP1 PUSH4 0xAE92A93D EQ PUSH2 0x455 JUMPI DUP1 PUSH4 0xBB6F593E EQ PUSH2 0x468 JUMPI PUSH0 DUP1 REVERT JUMPDEST DUP1 PUSH4 0x8D0A6CFF EQ PUSH2 0x3FE JUMPI DUP1 PUSH4 0x8D36627B EQ PUSH2 0x41E JUMPI PUSH0 DUP1 REVERT JUMPDEST DUP1 PUSH4 0x8062DD93 EQ PUSH2 0x3CE JUMPI DUP1 PUSH4 0x8364DFEF EQ PUSH2 0x3E1 JUMPI DUP1 PUSH4 0x8767D64E EQ PUSH2 0x3EC JUMPI DUP1 PUSH4 0x8AC40792 EQ PUSH2 0x3F5 JUMPI PUSH0 DUP1 REVERT JUMPDEST DUP1 PUSH4 0x46156EA0 GT PUSH2 0x1E7 JUMPI DUP1 PUSH4 0x519F5099 GT PUSH2 0x1B7 JUMPI DUP1 PUSH4 0x52FDFECC GT PUSH2 0x19D JUMPI DUP1 PUSH4 0x52FDFECC EQ PUSH2 0x3AB JUMPI DUP1 PUSH4 0x5DF45A37 EQ PUSH2 0x3BE JUMPI DUP1 PUSH4 0x715018A6 EQ PUSH2 0x3C6 JUMPI PUSH0 DUP1 REVERT JUMPDEST DUP1 PUSH4 0x519F5099 EQ PUSH2 0x385 JUMPI DUP1 PUSH4 0x51C6590A EQ PUSH2 0x398 JUMPI PUSH0 DUP1 REVERT JUMPDEST DUP1 PUSH4 0x46156EA0 EQ PUSH2 0x344 JUMPI DUP1 PUSH4 0x476343EE EQ PUSH2 0x357 JUMPI DUP1 PUSH4 0x4A4F72E1 EQ PUSH2 0x35F JUMPI DUP1 PUSH4 0x4C395CC4 EQ PUSH2 0x372 JUMPI PUSH0 DUP1 REVERT JUMPDEST DUP1 PUSH4 0x13FAEDE6 GT PUSH2 0x23C JUMPI DUP1 PUSH4 0x39131906 GT PUSH2 0x222 JUMPI DUP1 PUSH4 0x39131906 EQ PUSH2 0x30C JUMPI DUP1 PUSH4 0x3CCFD60B EQ PUSH2 0x329 JUMPI DUP1 PUSH4 0x40088EE1 EQ PUSH2 0x331 JUMPI PUSH0 DUP1 REVERT JUMPDEST DUP1 PUSH4 0x13FAEDE6 EQ PUSH2 0x2EF JUMPI DUP1 PUSH4 0x34AA4E61 EQ PUSH2 0x2F7 JUMPI PUSH0 DUP1 REVERT JUMPDEST DUP1 PUSH4 0x1FFC9A7 EQ PUSH2 0x26D JUMPI DUP1 PUSH4 0x5445405 EQ PUSH2 0x295 JUMPI DUP1 PUSH4 0x794CB8C EQ PUSH2 0x2B6 JUMPI DUP1 PUSH4 0x10F8625A EQ PUSH2 0x2C9 JUMPI JUMPDEST PUSH0 DUP1 REVERT JUMPDEST PUSH2 0x280 PUSH2 0x27B CALLDATASIZE PUSH1 0x4 PUSH2 0x42B0 JUMP JUMPDEST POP PUSH0 SWAP1 JUMP JUMPDEST PUSH1 0x40 MLOAD SWAP1 ISZERO ISZERO DUP2 MSTORE PUSH1 0x20 ADD JUMPDEST PUSH1 0x40 MLOAD DUP1 SWAP2 SUB SWAP1 RETURN JUMPDEST PUSH2 0x2A8 PUSH2 0x2A3 CALLDATASIZE PUSH1 0x4 PUSH2 0x42FE JUMP JUMPDEST PUSH2 0x554 JUMP JUMPDEST PUSH1 0x40 MLOAD SWAP1 DUP2 MSTORE PUSH1 0x20 ADD PUSH2 0x28C JUMP JUMPDEST PUSH2 0x2A8 PUSH2 0x2C4 CALLDATASIZE PUSH1 0x4 PUSH2 0x432F JUMP JUMPDEST PUSH2 0x665 JUMP JUMPDEST PUSH2 0x2DC PUSH2 0x2D7 CALLDATASIZE PUSH1 0x4 PUSH2 0x434F JUMP JUMPDEST PUSH2 0x952 JUMP JUMPDEST PUSH1 0x40 MLOAD PUSH1 0xF SWAP2 SWAP1 SWAP2 SIGNEXTEND DUP2 MSTORE PUSH1 0x20 ADD PUSH2 0x28C JUMP JUMPDEST PUSH2 0x2DC PUSH2 0x9D5 JUMP JUMPDEST PUSH2 0x30A PUSH2 0x305 CALLDATASIZE PUSH1 0x4 PUSH2 0x4377 JUMP JUMPDEST PUSH2 0xA40 JUMP JUMPDEST STOP JUMPDEST PUSH2 0x314 PUSH2 0xC6E JUMP JUMPDEST PUSH1 0x40 DUP1 MLOAD SWAP3 DUP4 MSTORE PUSH1 0x20 DUP4 ADD SWAP2 SWAP1 SWAP2 MSTORE ADD PUSH2 0x28C JUMP JUMPDEST PUSH2 0x30A PUSH2 0xECC JUMP JUMPDEST PUSH2 0x2A8 PUSH2 0x33F CALLDATASIZE PUSH1 0x4 PUSH2 0x42FE JUMP JUMPDEST PUSH2 0x111D JUMP JUMPDEST PUSH2 0x2DC PUSH2 0x352 CALLDATASIZE PUSH1 0x4 PUSH2 0x4377 JUMP JUMPDEST PUSH2 0x11F0 JUMP JUMPDEST PUSH2 0x30A PUSH2 0x1295 JUMP JUMPDEST PUSH2 0x30A PUSH2 0x36D CALLDATASIZE PUSH1 0x4 PUSH2 0x438E JUMP JUMPDEST PUSH2 0x1406 JUMP JUMPDEST PUSH2 0x2A8 PUSH2 0x380 CALLDATASIZE PUSH1 0x4 PUSH2 0x4415 JUMP JUMPDEST PUSH2 0x171F JUMP JUMPDEST PUSH2 0x314 PUSH2 0x393 CALLDATASIZE PUSH1 0x4 PUSH2 0x4377 JUMP JUMPDEST PUSH2 0x174E JUMP JUMPDEST PUSH2 0x30A PUSH2 0x3A6 CALLDATASIZE PUSH1 0x4 PUSH2 0x4377 JUMP JUMPDEST PUSH2 0x1908 JUMP JUMPDEST PUSH2 0x2DC PUSH2 0x3B9 CALLDATASIZE PUSH1 0x4 PUSH2 0x44A8 JUMP JUMPDEST PUSH2 0x1A7C JUMP JUMPDEST PUSH2 0x2A8 PUSH2 0x1AA8 JUMP JUMPDEST PUSH2 0x30A PUSH2 0x1B61 JUMP JUMPDEST PUSH2 0x2DC PUSH2 0x3DC CALLDATASIZE PUSH1 0x4 PUSH2 0x44A8 JUMP JUMPDEST PUSH2 0x1B74 JUMP JUMPDEST PUSH1 0x3 SLOAD PUSH1 0xF SIGNEXTEND PUSH2 0x2DC JUMP JUMPDEST PUSH2 0x2A8 PUSH1 0x1 SLOAD DUP2 JUMP JUMPDEST PUSH2 0x2A8 PUSH1 0x9 SLOAD DUP2 JUMP JUMPDEST PUSH2 0x411 PUSH2 0x40C CALLDATASIZE PUSH1 0x4 PUSH2 0x4377 JUMP JUMPDEST PUSH2 0x1D03 JUMP JUMPDEST PUSH1 0x40 MLOAD PUSH2 0x28C SWAP2 SWAP1 PUSH2 0x4503 JUMP JUMPDEST PUSH2 0x2A8 PUSH2 0x42C CALLDATASIZE PUSH1 0x4 PUSH2 0x42FE JUMP JUMPDEST PUSH2 0x1DFB JUMP JUMPDEST PUSH0 SLOAD PUSH1 0x1 PUSH1 0x1 PUSH1 0xA0 SHL SUB AND JUMPDEST PUSH1 0x40 MLOAD PUSH1 0x1 PUSH1 0x1 PUSH1 0xA0 SHL SUB SWAP1 SWAP2 AND DUP2 MSTORE PUSH1 0x20 ADD PUSH2 0x28C JUMP JUMPDEST PUSH2 0x2DC PUSH2 0x463 CALLDATASIZE PUSH1 0x4 PUSH2 0x44A8 JUMP JUMPDEST PUSH2 0x1ECD JUMP JUMPDEST PUSH2 0x2DC PUSH2 0x476 CALLDATASIZE PUSH1 0x4 PUSH2 0x4377 JUMP JUMPDEST PUSH2 0x26C1 JUMP JUMPDEST PUSH2 0x49D PUSH2 0x489 CALLDATASIZE PUSH1 0x4 PUSH2 0x459B JUMP JUMPDEST PUSH4 0xBC197C81 PUSH1 0xE0 SHL SWAP9 SWAP8 POP POP POP POP POP POP POP POP JUMP JUMPDEST PUSH1 0x40 MLOAD PUSH1 0x1 PUSH1 0x1 PUSH1 0xE0 SHL SUB NOT SWAP1 SWAP2 AND DUP2 MSTORE PUSH1 0x20 ADD PUSH2 0x28C JUMP JUMPDEST PUSH2 0x2A8 PUSH1 0x6 SLOAD DUP2 JUMP JUMPDEST PUSH1 0x4 SLOAD PUSH2 0x2DC SWAP1 PUSH1 0x1 PUSH1 0x80 SHL SWAP1 DIV PUSH1 0xF SIGNEXTEND DUP2 JUMP JUMPDEST PUSH1 0x5 SLOAD PUSH2 0x2DC SWAP1 PUSH1 0xF SIGNEXTEND DUP2 JUMP JUMPDEST PUSH2 0x2DC PUSH2 0x4EE CALLDATASIZE PUSH1 0x4 PUSH2 0x44A8 JUMP JUMPDEST PUSH2 0x2757 JUMP JUMPDEST PUSH2 0x314 PUSH2 0x277A JUMP JUMPDEST PUSH2 0x49D PUSH2 0x509 CALLDATASIZE PUSH1 0x4 PUSH2 0x464E JUMP JUMPDEST PUSH4 0xF23A6E61 PUSH1 0xE0 SHL SWAP7 SWAP6 POP POP POP POP POP POP JUMP JUMPDEST PUSH2 0x30A PUSH2 0x529 CALLDATASIZE PUSH1 0x4 PUSH2 0x46C1 JUMP JUMPDEST PUSH2 0x2816 JUMP JUMPDEST PUSH2 0x2DC PUSH2 0x53C CALLDATASIZE PUSH1 0x4 PUSH2 0x44A8 JUMP JUMPDEST PUSH2 0x2850 JUMP JUMPDEST PUSH1 0x8 SLOAD PUSH2 0x43D SWAP1 PUSH1 0x1 PUSH1 0x1 PUSH1 0xA0 SHL SUB AND DUP2 JUMP JUMPDEST PUSH0 DUP1 DUP4 PUSH1 0x1 PUSH1 0x1 PUSH1 0xA0 SHL SUB AND PUSH4 0x313CE567 PUSH1 0x40 MLOAD DUP2 PUSH4 0xFFFFFFFF AND PUSH1 0xE0 SHL DUP2 MSTORE PUSH1 0x4 ADD PUSH1 0x20 PUSH1 0x40 MLOAD DUP1 DUP4 SUB DUP2 DUP7 GAS STATICCALL ISZERO DUP1 ISZERO PUSH2 0x592 JUMPI RETURNDATASIZE PUSH0 DUP1 RETURNDATACOPY RETURNDATASIZE PUSH0 REVERT JUMPDEST POP POP POP POP PUSH1 0x40 MLOAD RETURNDATASIZE PUSH1 0x1F NOT PUSH1 0x1F DUP3 ADD AND DUP3 ADD DUP1 PUSH1 0x40 MSTORE POP DUP2 ADD SWAP1 PUSH2 0x5B6 SWAP2 SWAP1 PUSH2 0x46DA JUMP JUMPDEST PUSH1 0xFF AND SWAP1 POP PUSH0 PUSH2 0x5C7 DUP3 PUSH1 0xA PUSH2 0x47EE JUMP JUMPDEST SWAP1 POP PUSH0 DUP5 PUSH1 0xF SIGNEXTEND SLT ISZERO PUSH2 0x621 JUMPI PUSH1 0x40 MLOAD PUSH3 0x461BCD PUSH1 0xE5 SHL DUP2 MSTORE PUSH1 0x20 PUSH1 0x4 DUP3 ADD MSTORE PUSH1 0x1B PUSH1 0x24 DUP3 ADD MSTORE PUSH32 0x416D6F756E74206D757374206265206E6F6E2D6E656761746976650000000000 PUSH1 0x44 DUP3 ADD MSTORE PUSH1 0x64 ADD JUMPDEST PUSH1 0x40 MLOAD DUP1 SWAP2 SUB SWAP1 REVERT JUMPDEST PUSH0 PUSH2 0x62C DUP6 DUP4 PUSH2 0x2C1B JUMP JUMPDEST SWAP1 POP PUSH0 PUSH2 0x639 DUP7 DUP5 PUSH2 0x2C90 JUMP JUMPDEST PUSH8 0xFFFFFFFFFFFFFFFF AND PUSH1 0xF SIGNEXTEND SGT ISZERO PUSH2 0x65A JUMPI PUSH2 0x657 PUSH1 0x1 DUP3 PUSH2 0x47F9 JUMP JUMPDEST SWAP1 POP JUMPDEST SWAP3 POP POP POP JUMPDEST SWAP3 SWAP2 POP POP JUMP JUMPDEST PUSH1 0x8 SLOAD PUSH0 SWAP1 PUSH1 0x1 PUSH1 0xA0 SHL SWAP1 DIV PUSH1 0xFF AND ISZERO ISZERO PUSH1 0x1 EQ PUSH2 0x681 JUMPI PUSH0 DUP1 REVERT JUMPDEST PUSH1 0x1 SLOAD DUP4 LT PUSH2 0x6CA JUMPI PUSH1 0x40 MLOAD PUSH3 0x461BCD PUSH1 0xE5 SHL DUP2 MSTORE PUSH1 0x20 PUSH1 0x4 DUP3 ADD MSTORE PUSH1 0x15 PUSH1 0x24 DUP3 ADD MSTORE PUSH21 0x92DCECC2D8D2C840DEEAE8C6DEDACA40D2DCC8CAF PUSH1 0x5B SHL PUSH1 0x44 DUP3 ADD MSTORE PUSH1 0x64 ADD PUSH2 0x618 JUMP JUMPDEST PUSH0 DUP3 GT PUSH2 0x719 JUMPI PUSH1 0x40 MLOAD PUSH3 0x461BCD PUSH1 0xE5 SHL DUP2 MSTORE PUSH1 0x20 PUSH1 0x4 DUP3 ADD MSTORE PUSH1 0x1B PUSH1 0x24 DUP3 ADD MSTORE PUSH32 0x42657420616D6F756E74206D75737420626520706F7369746976650000000000 PUSH1 0x44 DUP3 ADD MSTORE PUSH1 0x64 ADD PUSH2 0x618 JUMP JUMPDEST PUSH1 0x8 SLOAD PUSH0 SWAP1 PUSH2 0x731 SWAP1 PUSH1 0x1 PUSH1 0x1 PUSH1 0xA0 SHL SUB AND DUP5 PUSH2 0x952 JUMP JUMPDEST SWAP1 POP PUSH0 PUSH2 0x74D DUP3 PUSH1 0x3 PUSH1 0x10 SWAP1 SLOAD SWAP1 PUSH2 0x100 EXP SWAP1 DIV PUSH1 0xF SIGNEXTEND PUSH2 0x2CCE JUMP JUMPDEST PUSH1 0x3 SLOAD SWAP1 SWAP2 POP PUSH0 SWAP1 PUSH2 0x76C SWAP1 PUSH2 0x767 SWAP1 DUP5 SWAP1 PUSH1 0xF SIGNEXTEND PUSH2 0x2D08 JUMP JUMPDEST PUSH2 0x2D63 JUMP JUMPDEST SWAP1 POP PUSH0 PUSH2 0x778 PUSH0 PUSH2 0x2DBA JUMP JUMPDEST SWAP1 POP PUSH0 JUMPDEST PUSH1 0x1 SLOAD DUP2 LT ISZERO PUSH2 0x7E7 JUMPI DUP8 DUP2 EQ PUSH2 0x7DF JUMPI PUSH2 0x7DC DUP3 PUSH2 0x7D7 PUSH2 0x767 PUSH1 0x2 DUP6 DUP2 SLOAD DUP2 LT PUSH2 0x7AA JUMPI PUSH2 0x7AA PUSH2 0x480C JUMP JUMPDEST PUSH0 SWAP2 DUP3 MSTORE PUSH1 0x20 SWAP1 SWAP2 KECCAK256 PUSH1 0x2 DUP3 DIV ADD SLOAD PUSH1 0x3 SLOAD PUSH1 0x1 SWAP1 SWAP3 AND PUSH1 0x10 MUL PUSH2 0x100 EXP SWAP1 DIV PUSH1 0xF SWAP1 DUP2 SIGNEXTEND SWAP2 SWAP1 SIGNEXTEND PUSH2 0x2D08 JUMP JUMPDEST PUSH2 0x2CCE JUMP JUMPDEST SWAP2 POP JUMPDEST PUSH1 0x1 ADD PUSH2 0x77C JUMP JUMPDEST POP PUSH0 PUSH2 0x7F3 DUP4 DUP4 PUSH2 0x2DD6 JUMP JUMPDEST SWAP1 POP PUSH2 0x7FE PUSH0 PUSH2 0x2DBA JUMP JUMPDEST PUSH1 0xF SIGNEXTEND DUP2 PUSH1 0xF SIGNEXTEND SGT PUSH2 0x878 JUMPI PUSH1 0x40 MLOAD PUSH3 0x461BCD PUSH1 0xE5 SHL DUP2 MSTORE PUSH1 0x20 PUSH1 0x4 DUP3 ADD MSTORE PUSH1 0x2D PUSH1 0x24 DUP3 ADD MSTORE PUSH32 0x42657420616D6F756E7420746F6F206C6172676520666F722063757272656E74 PUSH1 0x44 DUP3 ADD MSTORE PUSH32 0x206D61726B657420737461746500000000000000000000000000000000000000 PUSH1 0x64 DUP3 ADD MSTORE PUSH1 0x84 ADD PUSH2 0x618 JUMP JUMPDEST PUSH1 0x3 SLOAD PUSH0 SWAP1 PUSH2 0x8CF SWAP1 PUSH2 0x896 SWAP1 PUSH1 0xF SIGNEXTEND PUSH2 0x891 DUP6 PUSH2 0x2E10 JUMP JUMPDEST PUSH2 0x2C90 JUMP JUMPDEST PUSH1 0x2 DUP12 DUP2 SLOAD DUP2 LT PUSH2 0x8A9 JUMPI PUSH2 0x8A9 PUSH2 0x480C JUMP JUMPDEST SWAP1 PUSH0 MSTORE PUSH1 0x20 PUSH0 KECCAK256 SWAP1 PUSH1 0x2 SWAP2 DUP3 DUP3 DIV ADD SWAP2 SWAP1 MOD PUSH1 0x10 MUL SWAP1 SLOAD SWAP1 PUSH2 0x100 EXP SWAP1 DIV PUSH1 0xF SIGNEXTEND PUSH2 0x2DD6 JUMP JUMPDEST SWAP1 POP PUSH2 0x8DA PUSH0 PUSH2 0x2DBA JUMP JUMPDEST PUSH1 0xF SIGNEXTEND DUP2 PUSH1 0xF SIGNEXTEND SLT ISZERO PUSH2 0x92F JUMPI PUSH1 0x40 MLOAD PUSH3 0x461BCD PUSH1 0xE5 SHL DUP2 MSTORE PUSH1 0x20 PUSH1 0x4 DUP3 ADD MSTORE PUSH1 0x19 PUSH1 0x24 DUP3 ADD MSTORE PUSH32 0x496E76616C69642073686172652063616C63756C6174696F6E00000000000000 PUSH1 0x44 DUP3 ADD MSTORE PUSH1 0x64 ADD PUSH2 0x618 JUMP JUMPDEST PUSH1 0x8 SLOAD PUSH2 0x945 SWAP1 PUSH1 0x1 PUSH1 0x1 PUSH1 0xA0 SHL SUB AND DUP3 PUSH2 0x1DFB JUMP JUMPDEST SWAP10 SWAP9 POP POP POP POP POP POP POP POP POP JUMP JUMPDEST PUSH0 DUP1 DUP4 PUSH1 0x1 PUSH1 0x1 PUSH1 0xA0 SHL SUB AND PUSH4 0x313CE567 PUSH1 0x40 MLOAD DUP2 PUSH4 0xFFFFFFFF AND PUSH1 0xE0 SHL DUP2 MSTORE PUSH1 0x4 ADD PUSH1 0x20 PUSH1 0x40 MLOAD DUP1 DUP4 SUB DUP2 DUP7 GAS STATICCALL ISZERO DUP1 ISZERO PUSH2 0x990 JUMPI RETURNDATASIZE PUSH0 DUP1 RETURNDATACOPY RETURNDATASIZE PUSH0 REVERT JUMPDEST POP POP POP POP PUSH1 0x40 MLOAD RETURNDATASIZE PUSH1 0x1F NOT PUSH1 0x1F DUP3 ADD AND DUP3 ADD DUP1 PUSH1 0x40 MSTORE POP DUP2 ADD SWAP1 PUSH2 0x9B4 SWAP2 SWAP1 PUSH2 0x46DA JUMP JUMPDEST PUSH1 0xFF AND SWAP1 POP PUSH2 0x9CD DUP4 PUSH2 0x9C8 DUP4 PUSH1 0xA PUSH2 0x47EE JUMP JUMPDEST PUSH2 0x2E48 JUMP JUMPDEST SWAP5 SWAP4 POP POP POP POP JUMP JUMPDEST PUSH1 0x8 SLOAD PUSH0 SWAP1 PUSH1 0x1 PUSH1 0xA0 SHL SWAP1 DIV PUSH1 0xFF AND ISZERO ISZERO PUSH1 0x1 EQ PUSH2 0x9F1 JUMPI PUSH0 DUP1 REVERT JUMPDEST PUSH0 DUP1 JUMPDEST PUSH1 0x1 SLOAD DUP2 LT ISZERO PUSH2 0xA25 JUMPI PUSH2 0xA1B DUP3 PUSH2 0x7D7 PUSH2 0x767 PUSH1 0x2 DUP6 DUP2 SLOAD DUP2 LT PUSH2 0x7AA JUMPI PUSH2 0x7AA PUSH2 0x480C JUMP JUMPDEST SWAP2 POP PUSH1 0x1 ADD PUSH2 0x9F4 JUMP JUMPDEST POP PUSH1 0x3 SLOAD PUSH2 0xA39 SWAP1 PUSH1 0xF SIGNEXTEND PUSH2 0x891 DUP4 PUSH2 0x2E10 JUMP JUMPDEST SWAP2 POP POP JUMPDEST SWAP1 JUMP JUMPDEST PUSH2 0xA48 PUSH2 0x2E7D JUMP JUMPDEST PUSH1 0x7 SLOAD PUSH1 0x6 SLOAD PUSH1 0x40 MLOAD PUSH4 0xDD34DE67 PUSH1 0xE0 SHL DUP2 MSTORE PUSH1 0x1 PUSH1 0x1 PUSH1 0xA0 SHL SUB SWAP1 SWAP3 AND SWAP2 PUSH4 0xDD34DE67 SWAP2 PUSH2 0xA7D SWAP2 PUSH1 0x4 ADD SWAP1 DUP2 MSTORE PUSH1 0x20 ADD SWAP1 JUMP JUMPDEST PUSH1 0x20 PUSH1 0x40 MLOAD DUP1 DUP4 SUB DUP2 DUP7 GAS STATICCALL ISZERO DUP1 ISZERO PUSH2 0xA98 JUMPI RETURNDATASIZE PUSH0 DUP1 RETURNDATACOPY RETURNDATASIZE PUSH0 REVERT JUMPDEST POP POP POP POP PUSH1 0x40 MLOAD RETURNDATASIZE PUSH1 0x1F NOT PUSH1 0x1F DUP3 ADD AND DUP3 ADD DUP1 PUSH1 0x40 MSTORE POP DUP2 ADD SWAP1 PUSH2 0xABC SWAP2 SWAP1 PUSH2 0x4820 JUMP JUMPDEST ISZERO PUSH2 0xB09 JUMPI PUSH1 0x40 MLOAD PUSH3 0x461BCD PUSH1 0xE5 SHL DUP2 MSTORE PUSH1 0x20 PUSH1 0x4 DUP3 ADD MSTORE PUSH1 0x17 PUSH1 0x24 DUP3 ADD MSTORE PUSH32 0x4D61726B657420616C7265616479207265736F6C766564000000000000000000 PUSH1 0x44 DUP3 ADD MSTORE PUSH1 0x64 ADD PUSH2 0x618 JUMP JUMPDEST PUSH1 0x1 SLOAD PUSH1 0x2 EQ PUSH2 0xB6F JUMPI PUSH1 0x40 MLOAD PUSH3 0x461BCD PUSH1 0xE5 SHL DUP2 MSTORE PUSH1 0x20 PUSH1 0x4 DUP3 ADD MSTORE PUSH1 0x2B PUSH1 0x24 DUP3 ADD MSTORE PUSH32 0x546869732066756E6374696F6E206F6E6C7920776F726B7320666F722062696E PUSH1 0x44 DUP3 ADD MSTORE PUSH11 0x617279206D61726B657473 PUSH1 0xA8 SHL PUSH1 0x64 DUP3 ADD MSTORE PUSH1 0x84 ADD PUSH2 0x618 JUMP JUMPDEST PUSH0 PUSH2 0xB79 PUSH0 PUSH2 0x11F0 JUMP JUMPDEST SWAP1 POP PUSH0 PUSH2 0xB86 PUSH1 0x1 PUSH2 0x11F0 JUMP JUMPDEST SWAP1 POP PUSH0 PUSH2 0xB95 DUP4 PUSH2 0x3E8 PUSH2 0x2C1B JUMP JUMPDEST SWAP1 POP PUSH0 PUSH2 0xBA4 DUP4 PUSH2 0x3E8 PUSH2 0x2C1B JUMP JUMPDEST PUSH1 0x40 DUP1 MLOAD PUSH1 0x2 DUP1 DUP3 MSTORE PUSH1 0x60 DUP3 ADD DUP4 MSTORE SWAP3 SWAP4 POP PUSH0 SWAP3 SWAP1 SWAP2 PUSH1 0x20 DUP4 ADD SWAP1 DUP1 CALLDATASIZE DUP4 CALLDATACOPY ADD SWAP1 POP POP SWAP1 POP DUP3 DUP2 PUSH0 DUP2 MLOAD DUP2 LT PUSH2 0xBDC JUMPI PUSH2 0xBDC PUSH2 0x480C JUMP JUMPDEST PUSH1 0x20 MUL PUSH1 0x20 ADD ADD DUP2 DUP2 MSTORE POP POP DUP2 DUP2 PUSH1 0x1 DUP2 MLOAD DUP2 LT PUSH2 0xBFC JUMPI PUSH2 0xBFC PUSH2 0x480C JUMP JUMPDEST PUSH1 0x20 SWAP1 DUP2 MUL SWAP2 SWAP1 SWAP2 ADD ADD MSTORE PUSH1 0x7 SLOAD PUSH1 0x40 MLOAD PUSH4 0x3124A62B PUSH1 0xE2 SHL DUP2 MSTORE PUSH1 0x1 PUSH1 0x1 PUSH1 0xA0 SHL SUB SWAP1 SWAP2 AND SWAP1 PUSH4 0xC49298AC SWAP1 PUSH2 0xC39 SWAP1 DUP10 SWAP1 DUP6 SWAP1 PUSH1 0x4 ADD PUSH2 0x4837 JUMP JUMPDEST PUSH0 PUSH1 0x40 MLOAD DUP1 DUP4 SUB DUP2 PUSH0 DUP8 DUP1 EXTCODESIZE ISZERO DUP1 ISZERO PUSH2 0xC50 JUMPI PUSH0 DUP1 REVERT JUMPDEST POP GAS CALL ISZERO DUP1 ISZERO PUSH2 0xC62 JUMPI RETURNDATASIZE PUSH0 DUP1 RETURNDATACOPY RETURNDATASIZE PUSH0 REVERT JUMPDEST POP POP POP POP POP POP POP POP POP POP JUMP JUMPDEST PUSH0 DUP1 PUSH1 0x1 SLOAD PUSH1 0x2 EQ PUSH2 0xCD6 JUMPI PUSH1 0x40 MLOAD PUSH3 0x461BCD PUSH1 0xE5 SHL DUP2 MSTORE PUSH1 0x20 PUSH1 0x4 DUP3 ADD MSTORE PUSH1 0x2B PUSH1 0x24 DUP3 ADD MSTORE PUSH32 0x546869732066756E6374696F6E206F6E6C7920776F726B7320666F722062696E PUSH1 0x44 DUP3 ADD MSTORE PUSH11 0x617279206D61726B657473 PUSH1 0xA8 SHL PUSH1 0x64 DUP3 ADD MSTORE PUSH1 0x84 ADD PUSH2 0x618 JUMP JUMPDEST PUSH1 0x7 SLOAD PUSH1 0x6 SLOAD PUSH1 0x40 MLOAD PUSH4 0x856296F7 PUSH1 0xE0 SHL DUP2 MSTORE PUSH0 PUSH1 0x4 DUP3 ADD DUP2 SWAP1 MSTORE PUSH1 0x24 DUP3 ADD SWAP3 SWAP1 SWAP3 MSTORE PUSH1 0x1 PUSH1 0x44 DUP3 ADD MSTORE SWAP1 SWAP2 PUSH1 0x1 PUSH1 0x1 PUSH1 0xA0 SHL SUB AND SWAP1 PUSH4 0x856296F7 SWAP1 PUSH1 0x64 ADD PUSH1 0x20 PUSH1 0x40 MLOAD DUP1 DUP4 SUB DUP2 DUP7 GAS STATICCALL ISZERO DUP1 ISZERO PUSH2 0xD30 JUMPI RETURNDATASIZE PUSH0 DUP1 RETURNDATACOPY RETURNDATASIZE PUSH0 REVERT JUMPDEST POP POP POP POP PUSH1 0x40 MLOAD RETURNDATASIZE PUSH1 0x1F NOT PUSH1 0x1F DUP3 ADD AND DUP3 ADD DUP1 PUSH1 0x40 MSTORE POP DUP2 ADD SWAP1 PUSH2 0xD54 SWAP2 SWAP1 PUSH2 0x4820 JUMP JUMPDEST PUSH1 0x7 SLOAD PUSH1 0x8 SLOAD PUSH1 0x40 MLOAD PUSH4 0x39DD753 PUSH1 0xE4 SHL DUP2 MSTORE PUSH1 0x1 PUSH1 0x1 PUSH1 0xA0 SHL SUB SWAP2 DUP3 AND PUSH1 0x4 DUP3 ADD MSTORE PUSH1 0x24 DUP2 ADD DUP5 SWAP1 MSTORE SWAP3 SWAP4 POP AND SWAP1 PUSH4 0x39DD7530 SWAP1 PUSH1 0x44 ADD PUSH1 0x20 PUSH1 0x40 MLOAD DUP1 DUP4 SUB DUP2 DUP7 GAS STATICCALL ISZERO DUP1 ISZERO PUSH2 0xDA7 JUMPI RETURNDATASIZE PUSH0 DUP1 RETURNDATACOPY RETURNDATASIZE PUSH0 REVERT JUMPDEST POP POP POP POP PUSH1 0x40 MLOAD RETURNDATASIZE PUSH1 0x1F NOT PUSH1 0x1F DUP3 ADD AND DUP3 ADD DUP1 PUSH1 0x40 MSTORE POP DUP2 ADD SWAP1 PUSH2 0xDCB SWAP2 SWAP1 PUSH2 0x4820 JUMP JUMPDEST PUSH1 0x7 SLOAD PUSH1 0x6 SLOAD PUSH1 0x40 MLOAD PUSH4 0x856296F7 PUSH1 0xE0 SHL DUP2 MSTORE PUSH0 PUSH1 0x4 DUP3 ADD DUP2 SWAP1 MSTORE PUSH1 0x24 DUP3 ADD SWAP3 SWAP1 SWAP3 MSTORE PUSH1 0x2 PUSH1 0x44 DUP3 ADD MSTORE SWAP3 SWAP6 POP SWAP2 PUSH1 0x1 PUSH1 0x1 PUSH1 0xA0 SHL SUB SWAP1 SWAP2 AND SWAP1 PUSH4 0x856296F7 SWAP1 PUSH1 0x64 ADD PUSH1 0x20 PUSH1 0x40 MLOAD DUP1 DUP4 SUB DUP2 DUP7 GAS STATICCALL ISZERO DUP1 ISZERO PUSH2 0xE29 JUMPI RETURNDATASIZE PUSH0 DUP1 RETURNDATACOPY RETURNDATASIZE PUSH0 REVERT JUMPDEST POP POP POP POP PUSH1 0x40 MLOAD RETURNDATASIZE PUSH1 0x1F NOT PUSH1 0x1F DUP3 ADD AND DUP3 ADD DUP1 PUSH1 0x40 MSTORE POP DUP2 ADD SWAP1 PUSH2 0xE4D SWAP2 SWAP1 PUSH2 0x4820 JUMP JUMPDEST PUSH1 0x7 SLOAD PUSH1 0x8 SLOAD PUSH1 0x40 MLOAD PUSH4 0x39DD753 PUSH1 0xE4 SHL DUP2 MSTORE PUSH1 0x1 PUSH1 0x1 PUSH1 0xA0 SHL SUB SWAP2 DUP3 AND PUSH1 0x4 DUP3 ADD MSTORE PUSH1 0x24 DUP2 ADD DUP5 SWAP1 MSTORE SWAP3 SWAP4 POP AND SWAP1 PUSH4 0x39DD7530 SWAP1 PUSH1 0x44 ADD PUSH1 0x20 PUSH1 0x40 MLOAD DUP1 DUP4 SUB DUP2 DUP7 GAS STATICCALL ISZERO DUP1 ISZERO PUSH2 0xEA0 JUMPI RETURNDATASIZE PUSH0 DUP1 RETURNDATACOPY RETURNDATASIZE PUSH0 REVERT JUMPDEST POP POP POP POP PUSH1 0x40 MLOAD RETURNDATASIZE PUSH1 0x1F NOT PUSH1 0x1F DUP3 ADD AND DUP3 ADD DUP1 PUSH1 0x40 MSTORE POP DUP2 ADD SWAP1 PUSH2 0xEC4 SWAP2 SWAP1 PUSH2 0x4820 JUMP JUMPDEST SWAP3 POP POP POP SWAP1 SWAP2 JUMP JUMPDEST PUSH1 0x8 SLOAD PUSH1 0x1 PUSH1 0xA0 SHL SWAP1 DIV PUSH1 0xFF AND ISZERO ISZERO PUSH1 0x1 EQ PUSH2 0xEE6 JUMPI PUSH0 DUP1 REVERT JUMPDEST PUSH2 0xEEE PUSH2 0x2E7D JUMP JUMPDEST PUSH1 0x7 SLOAD PUSH1 0x6 SLOAD PUSH1 0x40 MLOAD PUSH4 0xDD34DE67 PUSH1 0xE0 SHL DUP2 MSTORE PUSH1 0x1 PUSH1 0x1 PUSH1 0xA0 SHL SUB SWAP1 SWAP3 AND SWAP2 PUSH4 0xDD34DE67 SWAP2 PUSH2 0xF23 SWAP2 PUSH1 0x4 ADD SWAP1 DUP2 MSTORE PUSH1 0x20 ADD SWAP1 JUMP JUMPDEST PUSH1 0x20 PUSH1 0x40 MLOAD DUP1 DUP4 SUB DUP2 DUP7 GAS STATICCALL ISZERO DUP1 ISZERO PUSH2 0xF3E JUMPI RETURNDATASIZE PUSH0 DUP1 RETURNDATACOPY RETURNDATASIZE PUSH0 REVERT JUMPDEST POP POP POP POP PUSH1 0x40 MLOAD RETURNDATASIZE PUSH1 0x1F NOT PUSH1 0x1F DUP3 ADD AND DUP3 ADD DUP1 PUSH1 0x40 MSTORE POP DUP2 ADD SWAP1 PUSH2 0xF62 SWAP2 SWAP1 PUSH2 0x4820 JUMP JUMPDEST PUSH0 SUB PUSH2 0xFB0 JUMPI PUSH1 0x40 MLOAD PUSH3 0x461BCD PUSH1 0xE5 SHL DUP2 MSTORE PUSH1 0x20 PUSH1 0x4 DUP3 ADD MSTORE PUSH1 0x1B PUSH1 0x24 DUP3 ADD MSTORE PUSH32 0x4D61726B6574206E6565647320746F206265207265736F6C7665640000000000 PUSH1 0x44 DUP3 ADD MSTORE PUSH1 0x64 ADD PUSH2 0x618 JUMP JUMPDEST PUSH0 PUSH1 0x1 SLOAD PUSH8 0xFFFFFFFFFFFFFFFF DUP2 GT ISZERO PUSH2 0xFCC JUMPI PUSH2 0xFCC PUSH2 0x43D4 JUMP JUMPDEST PUSH1 0x40 MLOAD SWAP1 DUP1 DUP3 MSTORE DUP1 PUSH1 0x20 MUL PUSH1 0x20 ADD DUP3 ADD PUSH1 0x40 MSTORE DUP1 ISZERO PUSH2 0xFF5 JUMPI DUP2 PUSH1 0x20 ADD PUSH1 0x20 DUP3 MUL DUP1 CALLDATASIZE DUP4 CALLDATACOPY ADD SWAP1 POP JUMPDEST POP SWAP1 POP PUSH0 JUMPDEST PUSH1 0x1 SLOAD DUP2 LT ISZERO PUSH2 0x102E JUMPI DUP1 PUSH1 0x1 SWAP1 SHL DUP3 DUP3 DUP2 MLOAD DUP2 LT PUSH2 0x101B JUMPI PUSH2 0x101B PUSH2 0x480C JUMP JUMPDEST PUSH1 0x20 SWAP1 DUP2 MUL SWAP2 SWAP1 SWAP2 ADD ADD MSTORE PUSH1 0x1 ADD PUSH2 0xFFA JUMP JUMPDEST POP PUSH1 0x7 SLOAD PUSH1 0x8 SLOAD PUSH1 0x6 SLOAD PUSH1 0x40 MLOAD PUSH3 0x6DC0DF PUSH1 0xE2 SHL DUP2 MSTORE PUSH1 0x1 PUSH1 0x1 PUSH1 0xA0 SHL SUB SWAP4 DUP5 AND SWAP4 PUSH4 0x1B7037C SWAP4 PUSH2 0x106A SWAP4 SWAP2 AND SWAP2 PUSH0 SWAP2 SWAP1 DUP8 SWAP1 PUSH1 0x4 ADD PUSH2 0x484F JUMP JUMPDEST PUSH0 PUSH1 0x40 MLOAD DUP1 DUP4 SUB DUP2 PUSH0 DUP8 DUP1 EXTCODESIZE ISZERO DUP1 ISZERO PUSH2 0x1081 JUMPI PUSH0 DUP1 REVERT JUMPDEST POP GAS CALL ISZERO DUP1 ISZERO PUSH2 0x1093 JUMPI RETURNDATASIZE PUSH0 DUP1 RETURNDATACOPY RETURNDATASIZE PUSH0 REVERT JUMPDEST POP POP PUSH1 0x8 SLOAD PUSH1 0x40 MLOAD PUSH4 0x70A08231 PUSH1 0xE0 SHL DUP2 MSTORE ADDRESS PUSH1 0x4 DUP3 ADD MSTORE PUSH2 0x111A SWAP4 POP CALLER SWAP3 POP PUSH1 0x1 PUSH1 0x1 PUSH1 0xA0 SHL SUB SWAP1 SWAP2 AND SWAP1 PUSH4 0x70A08231 SWAP1 PUSH1 0x24 ADD PUSH1 0x20 PUSH1 0x40 MLOAD DUP1 DUP4 SUB DUP2 DUP7 GAS STATICCALL ISZERO DUP1 ISZERO PUSH2 0x10E3 JUMPI RETURNDATASIZE PUSH0 DUP1 RETURNDATACOPY RETURNDATASIZE PUSH0 REVERT JUMPDEST POP POP POP POP PUSH1 0x40 MLOAD RETURNDATASIZE PUSH1 0x1F NOT PUSH1 0x1F DUP3 ADD AND DUP3 ADD DUP1 PUSH1 0x40 MSTORE POP DUP2 ADD SWAP1 PUSH2 0x1107 SWAP2 SWAP1 PUSH2 0x4820 JUMP JUMPDEST PUSH1 0x8 SLOAD PUSH1 0x1 PUSH1 0x1 PUSH1 0xA0 SHL SUB AND SWAP2 SWAP1 PUSH2 0x2EA9 JUMP JUMPDEST POP JUMP JUMPDEST PUSH0 DUP1 DUP4 PUSH1 0x1 PUSH1 0x1 PUSH1 0xA0 SHL SUB AND PUSH4 0x313CE567 PUSH1 0x40 MLOAD DUP2 PUSH4 0xFFFFFFFF AND PUSH1 0xE0 SHL DUP2 MSTORE PUSH1 0x4 ADD PUSH1 0x20 PUSH1 0x40 MLOAD DUP1 DUP4 SUB DUP2 DUP7 GAS STATICCALL ISZERO DUP1 ISZERO PUSH2 0x115B JUMPI RETURNDATASIZE PUSH0 DUP1 RETURNDATACOPY RETURNDATASIZE PUSH0 REVERT JUMPDEST POP POP POP POP PUSH1 0x40 MLOAD RETURNDATASIZE PUSH1 0x1F NOT PUSH1 0x1F DUP3 ADD AND DUP3 ADD DUP1 PUSH1 0x40 MSTORE POP DUP2 ADD SWAP1 PUSH2 0x117F SWAP2 SWAP1 PUSH2 0x46DA JUMP JUMPDEST PUSH1 0xFF AND SWAP1 POP PUSH0 PUSH2 0x1190 DUP3 PUSH1 0xA PUSH2 0x47EE JUMP JUMPDEST SWAP1 POP PUSH0 DUP5 PUSH1 0xF SIGNEXTEND SLT ISZERO PUSH2 0x11E5 JUMPI PUSH1 0x40 MLOAD PUSH3 0x461BCD PUSH1 0xE5 SHL DUP2 MSTORE PUSH1 0x20 PUSH1 0x4 DUP3 ADD MSTORE PUSH1 0x1B PUSH1 0x24 DUP3 ADD MSTORE PUSH32 0x416D6F756E74206D757374206265206E6F6E2D6E656761746976650000000000 PUSH1 0x44 DUP3 ADD MSTORE PUSH1 0x64 ADD PUSH2 0x618 JUMP JUMPDEST PUSH0 PUSH2 0x657 DUP6 DUP4 PUSH2 0x2C1B JUMP JUMPDEST PUSH0 PUSH1 0x1 SLOAD DUP3 LT PUSH2 0x123A JUMPI PUSH1 0x40 MLOAD PUSH3 0x461BCD PUSH1 0xE5 SHL DUP2 MSTORE PUSH1 0x20 PUSH1 0x4 DUP3 ADD MSTORE PUSH1 0x15 PUSH1 0x24 DUP3 ADD MSTORE PUSH21 0x92DCECC2D8D2C840DEEAE8C6DEDACA40D2DCC8CAF PUSH1 0x5B SHL PUSH1 0x44 DUP3 ADD MSTORE PUSH1 0x64 ADD PUSH2 0x618 JUMP JUMPDEST PUSH0 PUSH2 0x1254 PUSH2 0x767 PUSH1 0x2 DUP6 DUP2 SLOAD DUP2 LT PUSH2 0x7AA JUMPI PUSH2 0x7AA PUSH2 0x480C JUMP JUMPDEST SWAP1 POP PUSH0 DUP1 JUMPDEST PUSH1 0x1 SLOAD DUP2 LT ISZERO PUSH2 0x128A JUMPI PUSH2 0x1280 DUP3 PUSH2 0x7D7 PUSH2 0x767 PUSH1 0x2 DUP6 DUP2 SLOAD DUP2 LT PUSH2 0x7AA JUMPI PUSH2 0x7AA PUSH2 0x480C JUMP JUMPDEST SWAP2 POP PUSH1 0x1 ADD PUSH2 0x1259 JUMP JUMPDEST POP PUSH2 0x9CD DUP3 DUP3 PUSH2 0x2D08 JUMP JUMPDEST PUSH2 0x129D PUSH2 0x2E7D JUMP JUMPDEST PUSH1 0x8 SLOAD PUSH1 0x40 MLOAD PUSH4 0x70A08231 PUSH1 0xE0 SHL DUP2 MSTORE ADDRESS PUSH1 0x4 DUP3 ADD MSTORE PUSH0 SWAP2 PUSH1 0x1 PUSH1 0x1 PUSH1 0xA0 SHL SUB AND SWAP1 PUSH4 0x70A08231 SWAP1 PUSH1 0x24 ADD PUSH1 0x20 PUSH1 0x40 MLOAD DUP1 DUP4 SUB DUP2 DUP7 GAS STATICCALL ISZERO DUP1 ISZERO PUSH2 0x12E3 JUMPI RETURNDATASIZE PUSH0 DUP1 RETURNDATACOPY RETURNDATASIZE PUSH0 REVERT JUMPDEST POP POP POP POP PUSH1 0x40 MLOAD RETURNDATASIZE PUSH1 0x1F NOT PUSH1 0x1F DUP3 ADD AND DUP3 ADD DUP1 PUSH1 0x40 MSTORE POP DUP2 ADD SWAP1 PUSH2 0x1307 SWAP2 SWAP1 PUSH2 0x4820 JUMP JUMPDEST PUSH1 0x8 SLOAD PUSH1 0x3 SLOAD SWAP2 SWAP3 POP PUSH0 SWAP2 PUSH2 0x132F SWAP2 PUSH1 0x1 PUSH1 0x1 PUSH1 0xA0 SHL SUB AND SWAP1 PUSH1 0x1 PUSH1 0x80 SHL SWAP1 DIV PUSH1 0xF SIGNEXTEND PUSH2 0x111D JUMP JUMPDEST SWAP1 POP DUP1 DUP3 GT PUSH2 0x1380 JUMPI PUSH1 0x40 MLOAD PUSH3 0x461BCD PUSH1 0xE5 SHL DUP2 MSTORE PUSH1 0x20 PUSH1 0x4 DUP3 ADD MSTORE PUSH1 0x13 PUSH1 0x24 DUP3 ADD MSTORE PUSH32 0x4E6F206665657320746F20776974686472617700000000000000000000000000 PUSH1 0x44 DUP3 ADD MSTORE PUSH1 0x64 ADD PUSH2 0x618 JUMP JUMPDEST PUSH0 PUSH2 0x138B DUP3 DUP5 PUSH2 0x487C JUMP JUMPDEST SWAP1 POP PUSH2 0x13B4 PUSH2 0x13A1 PUSH0 SLOAD PUSH1 0x1 PUSH1 0x1 PUSH1 0xA0 SHL SUB AND SWAP1 JUMP JUMPDEST PUSH1 0x8 SLOAD PUSH1 0x1 PUSH1 0x1 PUSH1 0xA0 SHL SUB AND SWAP1 DUP4 PUSH2 0x2EA9 JUMP JUMPDEST PUSH0 SLOAD PUSH1 0x1 PUSH1 0x1 PUSH1 0xA0 SHL SUB AND PUSH1 0x1 PUSH1 0x1 PUSH1 0xA0 SHL SUB AND PUSH32 0xC0819C13BE868895EB93E40EACEB96DE976442FA1D404E5C55F14BB65A8C489A DUP3 PUSH1 0x40 MLOAD PUSH2 0x13F9 SWAP2 DUP2 MSTORE PUSH1 0x20 ADD SWAP1 JUMP JUMPDEST PUSH1 0x40 MLOAD DUP1 SWAP2 SUB SWAP1 LOG2 POP POP POP JUMP JUMPDEST PUSH2 0x140E PUSH2 0x2E7D JUMP JUMPDEST PUSH1 0x8 SLOAD PUSH1 0x1 PUSH1 0xA0 SHL SWAP1 DIV PUSH1 0xFF AND ISZERO PUSH2 0x1468 JUMPI PUSH1 0x40 MLOAD PUSH3 0x461BCD PUSH1 0xE5 SHL DUP2 MSTORE PUSH1 0x20 PUSH1 0x4 DUP3 ADD MSTORE PUSH1 0xC PUSH1 0x24 DUP3 ADD MSTORE PUSH32 0x416C726561647920696E69740000000000000000000000000000000000000000 PUSH1 0x44 DUP3 ADD MSTORE PUSH1 0x64 ADD PUSH2 0x618 JUMP JUMPDEST PUSH0 DUP2 GT PUSH2 0x14B7 JUMPI PUSH1 0x40 MLOAD PUSH3 0x461BCD PUSH1 0xE5 SHL DUP2 MSTORE PUSH1 0x20 PUSH1 0x4 DUP3 ADD MSTORE PUSH1 0x17 PUSH1 0x24 DUP3 ADD MSTORE PUSH32 0x43616E6E6F7420686176652030206F766572726F756E64000000000000000000 PUSH1 0x44 DUP3 ADD MSTORE PUSH1 0x64 ADD PUSH2 0x618 JUMP JUMPDEST PUSH1 0x7 SLOAD PUSH1 0x40 MLOAD PUSH4 0x365BB9D5 PUSH1 0xE2 SHL DUP2 MSTORE PUSH1 0x1 PUSH1 0x1 PUSH1 0xA0 SHL SUB DUP9 DUP2 AND PUSH1 0x4 DUP4 ADD MSTORE PUSH1 0x24 DUP3 ADD DUP9 SWAP1 MSTORE PUSH1 0x44 DUP3 ADD DUP8 SWAP1 MSTORE SWAP1 SWAP2 AND SWAP1 PUSH4 0xD96EE754 SWAP1 PUSH1 0x64 ADD PUSH0 PUSH1 0x40 MLOAD DUP1 DUP4 SUB DUP2 PUSH0 DUP8 DUP1 EXTCODESIZE ISZERO DUP1 ISZERO PUSH2 0x1509 JUMPI PUSH0 DUP1 REVERT JUMPDEST POP GAS CALL ISZERO DUP1 ISZERO PUSH2 0x151B JUMPI RETURNDATASIZE PUSH0 DUP1 RETURNDATACOPY RETURNDATASIZE PUSH0 REVERT JUMPDEST POP POP PUSH1 0x7 SLOAD PUSH1 0x40 MLOAD PUSH4 0x42963571 PUSH1 0xE1 SHL DUP2 MSTORE PUSH1 0x1 PUSH1 0x1 PUSH1 0xA0 SHL SUB DUP11 DUP2 AND PUSH1 0x4 DUP4 ADD MSTORE PUSH1 0x24 DUP3 ADD DUP11 SWAP1 MSTORE PUSH1 0x44 DUP3 ADD DUP10 SWAP1 MSTORE SWAP1 SWAP2 AND SWAP3 POP PUSH4 0x852C6AE2 SWAP2 POP PUSH1 0x64 ADD PUSH1 0x20 PUSH1 0x40 MLOAD DUP1 DUP4 SUB DUP2 DUP7 GAS STATICCALL ISZERO DUP1 ISZERO PUSH2 0x1575 JUMPI RETURNDATASIZE PUSH0 DUP1 RETURNDATACOPY RETURNDATASIZE PUSH0 REVERT JUMPDEST POP POP POP POP PUSH1 0x40 MLOAD RETURNDATASIZE PUSH1 0x1F NOT PUSH1 0x1F DUP3 ADD AND DUP3 ADD DUP1 PUSH1 0x40 MSTORE POP DUP2 ADD SWAP1 PUSH2 0x1599 SWAP2 SWAP1 PUSH2 0x4820 JUMP JUMPDEST PUSH1 0x6 SSTORE PUSH1 0x1 DUP5 SWAP1 SSTORE PUSH0 PUSH2 0x15AB DUP6 PUSH2 0x2DBA JUMP JUMPDEST PUSH1 0x8 SLOAD SWAP1 SWAP2 POP PUSH0 SWAP1 PUSH2 0x15C6 SWAP1 PUSH1 0x1 PUSH1 0x1 PUSH1 0xA0 SHL SUB AND DUP7 PUSH2 0x952 JUMP JUMPDEST PUSH1 0x3 DUP1 SLOAD PUSH1 0x1 PUSH1 0x1 PUSH1 0x80 SHL SUB NOT AND PUSH1 0x1 PUSH1 0x1 PUSH1 0x80 SHL SUB DUP4 AND OR SWAP1 SSTORE PUSH1 0x8 SLOAD SWAP1 SWAP2 POP PUSH2 0x15FC SWAP1 PUSH1 0x1 PUSH1 0x1 PUSH1 0xA0 SHL SUB AND CALLER ADDRESS DUP8 PUSH2 0x2F22 JUMP JUMPDEST PUSH0 JUMPDEST DUP7 DUP2 LT ISZERO PUSH2 0x165E JUMPI PUSH1 0x2 DUP1 SLOAD PUSH1 0x1 DUP1 DUP3 ADD DUP4 SSTORE PUSH0 DUP4 SWAP1 MSTORE PUSH32 0x405787FA12A823E0F2B7631CC41B3BA8828B3321CA811111FA75CD3AA3BB5ACE SWAP3 DUP3 DIV SWAP3 SWAP1 SWAP3 ADD DUP1 SLOAD SWAP2 DUP4 AND PUSH1 0x10 MUL PUSH2 0x100 EXP PUSH1 0x1 PUSH1 0x1 PUSH1 0x80 SHL SUB MUL NOT SWAP1 SWAP2 AND SWAP1 SSTORE ADD PUSH2 0x15FE JUMP JUMPDEST POP PUSH1 0x8 DUP1 SLOAD PUSH32 0xFFFFFFFFFFFFFFFFFFFFFF00FFFFFFFFFFFFFFFFFFFFFFFFFFFFFFFFFFFFFFFF AND PUSH1 0x1 PUSH1 0xA0 SHL OR SWAP1 SSTORE PUSH1 0x4 SLOAD PUSH2 0x16A4 SWAP1 PUSH1 0x1 PUSH1 0x80 SHL SWAP1 DIV PUSH1 0xF SIGNEXTEND DUP4 PUSH2 0x2C90 JUMP JUMPDEST PUSH1 0x4 DUP1 SLOAD PUSH1 0x1 PUSH1 0x1 PUSH1 0x80 SHL SUB NOT AND PUSH1 0x1 PUSH1 0x1 PUSH1 0x80 SHL SUB SWAP3 SWAP1 SWAP3 AND SWAP2 SWAP1 SWAP2 OR SWAP1 SSTORE PUSH2 0x16CC PUSH2 0x9D5 JUMP JUMPDEST PUSH1 0x3 DUP1 SLOAD PUSH1 0x1 PUSH1 0x1 PUSH1 0x80 SHL SUB SWAP3 DUP4 AND PUSH1 0x1 PUSH1 0x80 SHL MUL SWAP3 AND SWAP2 SWAP1 SWAP2 OR SWAP1 SSTORE PUSH2 0x16F5 DUP4 PUSH2 0x2710 PUSH2 0x2E48 JUMP JUMPDEST PUSH1 0x5 DUP1 SLOAD PUSH1 0x1 PUSH1 0x1 PUSH1 0x80 SHL SUB NOT AND PUSH1 0x1 PUSH1 0x1 PUSH1 0x80 SHL SUB SWAP3 SWAP1 SWAP3 AND SWAP2 SWAP1 SWAP2 OR SWAP1 SSTORE POP POP POP POP POP POP POP POP JUMP JUMPDEST PUSH0 DUP2 PUSH1 0x40 MLOAD PUSH1 0x20 ADD PUSH2 0x1731 SWAP2 SWAP1 PUSH2 0x48A6 JUMP JUMPDEST PUSH1 0x40 MLOAD PUSH1 0x20 DUP2 DUP4 SUB SUB DUP2 MSTORE SWAP1 PUSH1 0x40 MSTORE DUP1 MLOAD SWAP1 PUSH1 0x20 ADD KECCAK256 SWAP1 POP SWAP2 SWAP1 POP JUMP JUMPDEST PUSH0 DUP1 PUSH1 0x1 SLOAD DUP4 LT PUSH2 0x1799 JUMPI PUSH1 0x40 MLOAD PUSH3 0x461BCD PUSH1 0xE5 SHL DUP2 MSTORE PUSH1 0x20 PUSH1 0x4 DUP3 ADD MSTORE PUSH1 0x15 PUSH1 0x24 DUP3 ADD MSTORE PUSH21 0x92DCECC2D8D2C840DEEAE8C6DEDACA40D2DCC8CAF PUSH1 0x5B SHL PUSH1 0x44 DUP3 ADD MSTORE PUSH1 0x64 ADD PUSH2 0x618 JUMP JUMPDEST PUSH1 0x7 SLOAD PUSH1 0x6 SLOAD PUSH1 0x40 MLOAD PUSH4 0x856296F7 PUSH1 0xE0 SHL DUP2 MSTORE PUSH0 PUSH1 0x4 DUP3 ADD DUP2 SWAP1 MSTORE PUSH1 0x24 DUP3 ADD SWAP3 SWAP1 SWAP3 MSTORE PUSH1 0x1 DUP7 SHL PUSH1 0x44 DUP3 ADD MSTORE SWAP1 SWAP2 PUSH1 0x1 PUSH1 0x1 PUSH1 0xA0 SHL SUB AND SWAP1 PUSH4 0x856296F7 SWAP1 PUSH1 0x64 ADD PUSH1 0x20 PUSH1 0x40 MLOAD DUP1 DUP4 SUB DUP2 DUP7 GAS STATICCALL ISZERO DUP1 ISZERO PUSH2 0x17F5 JUMPI RETURNDATASIZE PUSH0 DUP1 RETURNDATACOPY RETURNDATASIZE PUSH0 REVERT JUMPDEST POP POP POP POP PUSH1 0x40 MLOAD RETURNDATASIZE PUSH1 0x1F NOT PUSH1 0x1F DUP3 ADD AND DUP3 ADD DUP1 PUSH1 0x40 MSTORE POP DUP2 ADD SWAP1 PUSH2 0x1819 SWAP2 SWAP1 PUSH2 0x4820 JUMP JUMPDEST PUSH1 0x7 SLOAD PUSH1 0x8 SLOAD PUSH1 0x40 MLOAD PUSH4 0x39DD753 PUSH1 0xE4 SHL DUP2 MSTORE PUSH1 0x1 PUSH1 0x1 PUSH1 0xA0 SHL SUB SWAP2 DUP3 AND PUSH1 0x4 DUP3 ADD MSTORE PUSH1 0x24 DUP2 ADD DUP5 SWAP1 MSTORE SWAP3 SWAP4 POP AND SWAP1 PUSH4 0x39DD7530 SWAP1 PUSH1 0x44 ADD PUSH1 0x20 PUSH1 0x40 MLOAD DUP1 DUP4 SUB DUP2 DUP7 GAS STATICCALL ISZERO DUP1 ISZERO PUSH2 0x186C JUMPI RETURNDATASIZE PUSH0 DUP1 RETURNDATACOPY RETURNDATASIZE PUSH0 REVERT JUMPDEST POP POP POP POP PUSH1 0x40 MLOAD RETURNDATASIZE PUSH1 0x1F NOT PUSH1 0x1F DUP3 ADD AND DUP3 ADD DUP1 PUSH1 0x40 MSTORE POP DUP2 ADD SWAP1 PUSH2 0x1890 SWAP2 SWAP1 PUSH2 0x4820 JUMP JUMPDEST PUSH1 0x7 SLOAD PUSH1 0x40 MLOAD PUSH3 0x7EEAC7 PUSH1 0xE1 SHL DUP2 MSTORE ADDRESS PUSH1 0x4 DUP3 ADD MSTORE PUSH1 0x24 DUP2 ADD DUP4 SWAP1 MSTORE SWAP2 SWAP5 POP PUSH1 0x1 PUSH1 0x1 PUSH1 0xA0 SHL SUB AND SWAP1 PUSH3 0xFDD58E SWAP1 PUSH1 0x44 ADD PUSH1 0x20 PUSH1 0x40 MLOAD DUP1 DUP4 SUB DUP2 DUP7 GAS STATICCALL ISZERO DUP1 ISZERO PUSH2 0x18DC JUMPI RETURNDATASIZE PUSH0 DUP1 RETURNDATACOPY RETURNDATASIZE PUSH0 REVERT JUMPDEST POP POP POP POP PUSH1 0x40 MLOAD RETURNDATASIZE PUSH1 0x1F NOT PUSH1 0x1F DUP3 ADD AND DUP3 ADD DUP1 PUSH1 0x40 MSTORE POP DUP2 ADD SWAP1 PUSH2 0x1900 SWAP2 SWAP1 PUSH2 0x4820 JUMP JUMPDEST SWAP2 POP POP SWAP2 POP SWAP2 JUMP JUMPDEST PUSH2 0x1910 PUSH2 0x2E7D JUMP JUMPDEST PUSH1 0x8 SLOAD PUSH2 0x1928 SWAP1 PUSH1 0x1 PUSH1 0x1 PUSH1 0xA0 SHL SUB AND CALLER ADDRESS DUP5 PUSH2 0x2F22 JUMP JUMPDEST PUSH1 0x8 SLOAD PUSH0 SWAP1 PUSH2 0x1940 SWAP1 PUSH1 0x1 PUSH1 0x1 PUSH1 0xA0 SHL SUB AND DUP4 PUSH2 0x952 JUMP JUMPDEST SWAP1 POP PUSH0 JUMPDEST PUSH1 0x1 SLOAD DUP2 LT ISZERO PUSH2 0x19D9 JUMPI PUSH2 0x198B PUSH1 0x2 DUP3 DUP2 SLOAD DUP2 LT PUSH2 0x1964 JUMPI PUSH2 0x1964 PUSH2 0x480C JUMP JUMPDEST SWAP1 PUSH0 MSTORE PUSH1 0x20 PUSH0 KECCAK256 SWAP1 PUSH1 0x2 SWAP2 DUP3 DUP3 DIV ADD SWAP2 SWAP1 MOD PUSH1 0x10 MUL SWAP1 SLOAD SWAP1 PUSH2 0x100 EXP SWAP1 DIV PUSH1 0xF SIGNEXTEND DUP4 PUSH2 0x2CCE JUMP JUMPDEST PUSH1 0x2 DUP3 DUP2 SLOAD DUP2 LT PUSH2 0x199E JUMPI PUSH2 0x199E PUSH2 0x480C JUMP JUMPDEST PUSH0 SWAP2 DUP3 MSTORE PUSH1 0x20 SWAP1 SWAP2 KECCAK256 PUSH1 0x2 DUP3 DIV ADD DUP1 SLOAD PUSH1 0x1 PUSH1 0x1 PUSH1 0x80 SHL SUB SWAP4 DUP5 AND PUSH1 0x10 PUSH1 0x1 SWAP5 DUP6 AND MUL PUSH2 0x100 EXP SWAP1 DUP2 MUL SWAP5 MUL NOT AND SWAP3 SWAP1 SWAP3 OR SWAP1 SWAP2 SSTORE ADD PUSH2 0x1944 JUMP JUMPDEST POP PUSH1 0x4 SLOAD PUSH1 0x1 SLOAD PUSH2 0x19F7 SWAP2 PUSH1 0xF SIGNEXTEND SWAP1 PUSH2 0x7D7 SWAP1 DUP5 SWAP1 PUSH2 0x891 SWAP1 PUSH2 0x2DBA JUMP JUMPDEST PUSH1 0x4 DUP1 SLOAD PUSH1 0x1 PUSH1 0x1 PUSH1 0x80 SHL SUB NOT AND PUSH1 0x1 PUSH1 0x1 PUSH1 0x80 SHL SUB SWAP3 SWAP1 SWAP3 AND SWAP2 SWAP1 SWAP2 OR SWAP1 SSTORE PUSH2 0x1A1F PUSH2 0x9D5 JUMP JUMPDEST PUSH1 0x3 DUP1 SLOAD PUSH1 0x1 PUSH1 0x1 PUSH1 0x80 SHL SUB SWAP3 DUP4 AND PUSH1 0x1 PUSH1 0x80 SHL MUL SWAP3 AND SWAP2 SWAP1 SWAP2 OR SWAP1 SSTORE PUSH1 0x40 MLOAD CALLER SWAP1 PUSH32 0xC17CEA59C2955CB181B03393209566960365771DBBA9DC3D510180E7CB312088 SWAP1 PUSH2 0x1A70 SWAP1 DUP6 DUP2 MSTORE PUSH1 0x20 ADD SWAP1 JUMP JUMPDEST PUSH1 0x40 MLOAD DUP1 SWAP2 SUB SWAP1 LOG2 POP POP JUMP JUMPDEST PUSH0 PUSH2 0x1A8A DUP4 PUSH2 0x3DC DUP5 PUSH2 0x48B1 JUMP JUMPDEST PUSH1 0x3 SLOAD PUSH2 0x1AA1 SWAP2 SWAP1 PUSH1 0x1 PUSH1 0x80 SHL SWAP1 DIV PUSH1 0xF SIGNEXTEND PUSH2 0x48D5 JUMP JUMPDEST SWAP4 SWAP3 POP POP POP JUMP JUMPDEST PUSH1 0x8 SLOAD PUSH1 0x40 MLOAD PUSH4 0x70A08231 PUSH1 0xE0 SHL DUP2 MSTORE ADDRESS PUSH1 0x4 DUP3 ADD MSTORE PUSH0 SWAP2 DUP3 SWAP2 PUSH1 0x1 PUSH1 0x1 PUSH1 0xA0 SHL SUB SWAP1 SWAP2 AND SWAP1 PUSH4 0x70A08231 SWAP1 PUSH1 0x24 ADD PUSH1 0x20 PUSH1 0x40 MLOAD DUP1 DUP4 SUB DUP2 DUP7 GAS STATICCALL ISZERO DUP1 ISZERO PUSH2 0x1AF2 JUMPI RETURNDATASIZE PUSH0 DUP1 RETURNDATACOPY RETURNDATASIZE PUSH0 REVERT JUMPDEST POP POP POP POP PUSH1 0x40 MLOAD RETURNDATASIZE PUSH1 0x1F NOT PUSH1 0x1F DUP3 ADD AND DUP3 ADD DUP1 PUSH1 0x40 MSTORE POP DUP2 ADD SWAP1 PUSH2 0x1B16 SWAP2 SWAP1 PUSH2 0x4820 JUMP JUMPDEST PUSH1 0x8 SLOAD PUSH1 0x3 SLOAD SWAP2 SWAP3 POP PUSH0 SWAP2 PUSH2 0x1B3E SWAP2 PUSH1 0x1 PUSH1 0x1 PUSH1 0xA0 SHL SUB AND SWAP1 PUSH1 0x1 PUSH1 0x80 SHL SWAP1 DIV PUSH1 0xF SIGNEXTEND PUSH2 0x111D JUMP JUMPDEST SWAP1 POP DUP1 DUP3 GT ISZERO PUSH2 0x1B59 JUMPI PUSH2 0x1B52 DUP2 DUP4 PUSH2 0x487C JUMP JUMPDEST SWAP3 POP POP POP SWAP1 JUMP JUMPDEST PUSH0 SWAP3 POP POP POP SWAP1 JUMP JUMPDEST PUSH2 0x1B69 PUSH2 0x2E7D JUMP JUMPDEST PUSH2 0x1B72 PUSH0 PUSH2 0x2F61 JUMP JUMPDEST JUMP JUMPDEST PUSH0 DUP1 PUSH0 PUSH1 0x2 DUP1 SLOAD SWAP1 POP PUSH8 0xFFFFFFFFFFFFFFFF DUP2 GT ISZERO PUSH2 0x1B95 JUMPI PUSH2 0x1B95 PUSH2 0x43D4 JUMP JUMPDEST PUSH1 0x40 MLOAD SWAP1 DUP1 DUP3 MSTORE DUP1 PUSH1 0x20 MUL PUSH1 0x20 ADD DUP3 ADD PUSH1 0x40 MSTORE DUP1 ISZERO PUSH2 0x1BBE JUMPI DUP2 PUSH1 0x20 ADD PUSH1 0x20 DUP3 MUL DUP1 CALLDATASIZE DUP4 CALLDATACOPY ADD SWAP1 POP JUMPDEST POP PUSH1 0x3 SLOAD SWAP1 SWAP2 POP PUSH1 0xF SIGNEXTEND PUSH0 JUMPDEST PUSH1 0x1 SLOAD DUP2 LT ISZERO PUSH2 0x1CAA JUMPI PUSH1 0x1 DUP2 SHL DUP8 AND ISZERO PUSH2 0x1C47 JUMPI PUSH2 0x1C1C PUSH1 0x2 DUP3 DUP2 SLOAD DUP2 LT PUSH2 0x1BF5 JUMPI PUSH2 0x1BF5 PUSH2 0x480C JUMP JUMPDEST SWAP1 PUSH0 MSTORE PUSH1 0x20 PUSH0 KECCAK256 SWAP1 PUSH1 0x2 SWAP2 DUP3 DUP3 DIV ADD SWAP2 SWAP1 MOD PUSH1 0x10 MUL SWAP1 SLOAD SWAP1 PUSH2 0x100 EXP SWAP1 DIV PUSH1 0xF SIGNEXTEND DUP8 PUSH2 0x2CCE JUMP JUMPDEST DUP4 DUP3 DUP2 MLOAD DUP2 LT PUSH2 0x1C2E JUMPI PUSH2 0x1C2E PUSH2 0x480C JUMP JUMPDEST PUSH1 0x20 MUL PUSH1 0x20 ADD ADD SWAP1 PUSH1 0xF SIGNEXTEND SWAP1 DUP2 PUSH1 0xF SIGNEXTEND DUP2 MSTORE POP POP PUSH2 0x1CA2 JUMP JUMPDEST PUSH1 0x2 DUP2 DUP2 SLOAD DUP2 LT PUSH2 0x1C5A JUMPI PUSH2 0x1C5A PUSH2 0x480C JUMP JUMPDEST SWAP1 PUSH0 MSTORE PUSH1 0x20 PUSH0 KECCAK256 SWAP1 PUSH1 0x2 SWAP2 DUP3 DUP3 DIV ADD SWAP2 SWAP1 MOD PUSH1 0x10 MUL SWAP1 SLOAD SWAP1 PUSH2 0x100 EXP SWAP1 DIV PUSH1 0xF SIGNEXTEND DUP4 DUP3 DUP2 MLOAD DUP2 LT PUSH2 0x1C8D JUMPI PUSH2 0x1C8D PUSH2 0x480C JUMP JUMPDEST PUSH1 0x20 MUL PUSH1 0x20 ADD ADD SWAP1 PUSH1 0xF SIGNEXTEND SWAP1 DUP2 PUSH1 0xF SIGNEXTEND DUP2 MSTORE POP POP JUMPDEST PUSH1 0x1 ADD PUSH2 0x1BCA JUMP JUMPDEST POP PUSH0 JUMPDEST PUSH1 0x1 SLOAD DUP2 LT ISZERO PUSH2 0x1CEB JUMPI PUSH2 0x1CE1 DUP5 PUSH2 0x7D7 PUSH2 0x767 DUP7 DUP6 DUP2 MLOAD DUP2 LT PUSH2 0x1CD3 JUMPI PUSH2 0x1CD3 PUSH2 0x480C JUMP JUMPDEST PUSH1 0x20 MUL PUSH1 0x20 ADD ADD MLOAD DUP7 PUSH2 0x2D08 JUMP JUMPDEST SWAP4 POP PUSH1 0x1 ADD PUSH2 0x1CAD JUMP JUMPDEST POP PUSH2 0x1CF9 DUP2 PUSH2 0x891 DUP6 PUSH2 0x2E10 JUMP JUMPDEST SWAP7 SWAP6 POP POP POP POP POP POP JUMP JUMPDEST PUSH1 0x60 PUSH0 PUSH1 0x1 DUP1 SLOAD PUSH1 0x1 SWAP1 SHL PUSH2 0x1D18 SWAP2 SWAP1 PUSH2 0x487C JUMP JUMPDEST SWAP1 POP PUSH1 0x1 DUP4 SHL DUP2 XOR PUSH0 PUSH2 0x1D2A DUP3 PUSH2 0x2FC8 JUMP JUMPDEST PUSH2 0x1D35 SWAP1 PUSH1 0x1 PUSH2 0x47F9 JUMP JUMPDEST PUSH8 0xFFFFFFFFFFFFFFFF DUP2 GT ISZERO PUSH2 0x1D4D JUMPI PUSH2 0x1D4D PUSH2 0x43D4 JUMP JUMPDEST PUSH1 0x40 MLOAD SWAP1 DUP1 DUP3 MSTORE DUP1 PUSH1 0x20 MUL PUSH1 0x20 ADD DUP3 ADD PUSH1 0x40 MSTORE DUP1 ISZERO PUSH2 0x1D76 JUMPI DUP2 PUSH1 0x20 ADD PUSH1 0x20 DUP3 MUL DUP1 CALLDATASIZE DUP4 CALLDATACOPY ADD SWAP1 POP JUMPDEST POP SWAP1 POP PUSH0 PUSH1 0x1 SWAP1 POP DUP6 PUSH1 0x1 SWAP1 SHL DUP3 PUSH0 DUP2 MLOAD DUP2 LT PUSH2 0x1D95 JUMPI PUSH2 0x1D95 PUSH2 0x480C JUMP JUMPDEST PUSH1 0x20 MUL PUSH1 0x20 ADD ADD DUP2 DUP2 MSTORE POP POP PUSH0 JUMPDEST PUSH1 0x1 SLOAD DUP2 LT ISZERO PUSH2 0x1DF0 JUMPI PUSH1 0x1 DUP2 SHL DUP5 AND ISZERO PUSH2 0x1DE8 JUMPI DUP1 PUSH1 0x1 SWAP1 SHL DUP4 DUP4 DUP2 MLOAD DUP2 LT PUSH2 0x1DCF JUMPI PUSH2 0x1DCF PUSH2 0x480C JUMP JUMPDEST PUSH1 0x20 SWAP1 DUP2 MUL SWAP2 SWAP1 SWAP2 ADD ADD MSTORE DUP2 PUSH2 0x1DE4 DUP2 PUSH2 0x490B JUMP JUMPDEST SWAP3 POP POP JUMPDEST PUSH1 0x1 ADD PUSH2 0x1DA3 JUMP JUMPDEST POP SWAP1 SWAP6 SWAP5 POP POP POP POP POP JUMP JUMPDEST PUSH0 DUP1 DUP4 PUSH1 0x1 PUSH1 0x1 PUSH1 0xA0 SHL SUB AND PUSH4 0x313CE567 PUSH1 0x40 MLOAD DUP2 PUSH4 0xFFFFFFFF AND PUSH1 0xE0 SHL DUP2 MSTORE PUSH1 0x4 ADD PUSH1 0x20 PUSH1 0x40 MLOAD DUP1 DUP4 SUB DUP2 DUP7 GAS STATICCALL ISZERO DUP1 ISZERO PUSH2 0x1E39 JUMPI RETURNDATASIZE PUSH0 DUP1 RETURNDATACOPY RETURNDATASIZE PUSH0 REVERT JUMPDEST POP POP POP POP PUSH1 0x40 MLOAD RETURNDATASIZE PUSH1 0x1F NOT PUSH1 0x1F DUP3 ADD AND DUP3 ADD DUP1 PUSH1 0x40 MSTORE POP DUP2 ADD SWAP1 PUSH2 0x1E5D SWAP2 SWAP1 PUSH2 0x46DA JUMP JUMPDEST PUSH1 0xFF AND SWAP1 POP PUSH0 PUSH2 0x1E6E DUP3 PUSH1 0xA PUSH2 0x47EE JUMP JUMPDEST SWAP1 POP PUSH0 DUP5 PUSH1 0xF SIGNEXTEND SLT ISZERO PUSH2 0x1EC3 JUMPI PUSH1 0x40 MLOAD PUSH3 0x461BCD PUSH1 0xE5 SHL DUP2 MSTORE PUSH1 0x20 PUSH1 0x4 DUP3 ADD MSTORE PUSH1 0x1B PUSH1 0x24 DUP3 ADD MSTORE PUSH32 0x416D6F756E74206D757374206265206E6F6E2D6E656761746976650000000000 PUSH1 0x44 DUP3 ADD MSTORE PUSH1 0x64 ADD PUSH2 0x618 JUMP JUMPDEST PUSH2 0x65A DUP5 DUP3 PUSH2 0x2C1B JUMP JUMPDEST PUSH1 0x8 SLOAD PUSH0 SWAP1 PUSH1 0x1 PUSH1 0xA0 SHL SWAP1 DIV PUSH1 0xFF AND ISZERO ISZERO PUSH1 0x1 EQ PUSH2 0x1EE9 JUMPI PUSH0 DUP1 REVERT JUMPDEST PUSH1 0x1 SLOAD DUP4 LT PUSH2 0x1F32 JUMPI PUSH1 0x40 MLOAD PUSH3 0x461BCD PUSH1 0xE5 SHL DUP2 MSTORE PUSH1 0x20 PUSH1 0x4 DUP3 ADD MSTORE PUSH1 0x15 PUSH1 0x24 DUP3 ADD MSTORE PUSH21 0x92DCECC2D8D2C840DEEAE8C6DEDACA40D2DCC8CAF PUSH1 0x5B SHL PUSH1 0x44 DUP3 ADD MSTORE PUSH1 0x64 ADD PUSH2 0x618 JUMP JUMPDEST PUSH0 DUP3 PUSH1 0xF SIGNEXTEND SGT PUSH2 0x1F84 JUMPI PUSH1 0x40 MLOAD PUSH3 0x461BCD PUSH1 0xE5 SHL DUP2 MSTORE PUSH1 0x20 PUSH1 0x4 DUP3 ADD MSTORE PUSH1 0x17 PUSH1 0x24 DUP3 ADD MSTORE PUSH32 0x416D6F756E74206D75737420626520706F736974697665000000000000000000 PUSH1 0x44 DUP3 ADD MSTORE PUSH1 0x64 ADD PUSH2 0x618 JUMP JUMPDEST PUSH1 0x7 SLOAD PUSH1 0x6 SLOAD PUSH1 0x40 MLOAD PUSH4 0xDD34DE67 PUSH1 0xE0 SHL DUP2 MSTORE PUSH1 0x1 PUSH1 0x1 PUSH1 0xA0 SHL SUB SWAP1 SWAP3 AND SWAP2 PUSH4 0xDD34DE67 SWAP2 PUSH2 0x1FB9 SWAP2 PUSH1 0x4 ADD SWAP1 DUP2 MSTORE PUSH1 0x20 ADD SWAP1 JUMP JUMPDEST PUSH1 0x20 PUSH1 0x40 MLOAD DUP1 DUP4 SUB DUP2 DUP7 GAS STATICCALL ISZERO DUP1 ISZERO PUSH2 0x1FD4 JUMPI RETURNDATASIZE PUSH0 DUP1 RETURNDATACOPY RETURNDATASIZE PUSH0 REVERT JUMPDEST POP POP POP POP PUSH1 0x40 MLOAD RETURNDATASIZE PUSH1 0x1F NOT PUSH1 0x1F DUP3 ADD AND DUP3 ADD DUP1 PUSH1 0x40 MSTORE POP DUP2 ADD SWAP1 PUSH2 0x1FF8 SWAP2 SWAP1 PUSH2 0x4820 JUMP JUMPDEST ISZERO PUSH2 0x2045 JUMPI PUSH1 0x40 MLOAD PUSH3 0x461BCD PUSH1 0xE5 SHL DUP2 MSTORE PUSH1 0x20 PUSH1 0x4 DUP3 ADD MSTORE PUSH1 0x17 PUSH1 0x24 DUP3 ADD MSTORE PUSH32 0x4D61726B657420616C7265616479207265736F6C766564000000000000000000 PUSH1 0x44 DUP3 ADD MSTORE PUSH1 0x64 ADD PUSH2 0x618 JUMP JUMPDEST DUP2 PUSH1 0xF SIGNEXTEND PUSH1 0x2 DUP5 DUP2 SLOAD DUP2 LT PUSH2 0x205C JUMPI PUSH2 0x205C PUSH2 0x480C JUMP JUMPDEST PUSH0 SWAP2 DUP3 MSTORE PUSH1 0x20 SWAP1 SWAP2 KECCAK256 PUSH1 0x2 DUP3 DIV ADD SLOAD PUSH1 0x1 SWAP1 SWAP2 AND PUSH1 0x10 MUL PUSH2 0x100 EXP SWAP1 DIV PUSH1 0xF SIGNEXTEND SLT ISZERO PUSH2 0x20CA JUMPI PUSH1 0x40 MLOAD PUSH3 0x461BCD PUSH1 0xE5 SHL DUP2 MSTORE PUSH1 0x20 PUSH1 0x4 DUP3 ADD MSTORE PUSH1 0x19 PUSH1 0x24 DUP3 ADD MSTORE PUSH32 0x4E6F7420656E6F7567682073686172657320746F2073656C6C00000000000000 PUSH1 0x44 DUP3 ADD MSTORE PUSH1 0x64 ADD PUSH2 0x618 JUMP JUMPDEST PUSH0 DUP1 PUSH0 PUSH2 0x2165 PUSH1 0x2 DUP1 SLOAD DUP1 PUSH1 0x20 MUL PUSH1 0x20 ADD PUSH1 0x40 MLOAD SWAP1 DUP2 ADD PUSH1 0x40 MSTORE DUP1 SWAP3 SWAP2 SWAP1 DUP2 DUP2 MSTORE PUSH1 0x20 ADD DUP3 DUP1 SLOAD DUP1 ISZERO PUSH2 0x213C JUMPI PUSH1 0x20 MUL DUP3 ADD SWAP2 SWAP1 PUSH0 MSTORE PUSH1 0x20 PUSH0 KECCAK256 SWAP1 PUSH0 SWAP1 JUMPDEST DUP3 SLOAD PUSH2 0x100 DUP4 SWAP1 EXP SWAP1 DIV PUSH1 0xF SIGNEXTEND DUP2 MSTORE PUSH1 0x20 PUSH1 0x1F DUP4 ADD DUP2 SWAP1 DIV SWAP4 DUP5 ADD SWAP4 PUSH1 0x1 SUB PUSH1 0x10 SWAP1 SWAP4 ADD SWAP3 SWAP1 SWAP3 MUL SWAP2 ADD DUP1 DUP5 GT PUSH2 0x2108 JUMPI SWAP1 POP JUMPDEST POP POP PUSH1 0x4 SLOAD PUSH1 0x3 SLOAD PUSH1 0x1 SLOAD DUP14 SWAP6 POP DUP13 SWAP5 POP PUSH1 0xF SWAP3 DUP4 SIGNEXTEND SWAP4 POP PUSH1 0x1 PUSH1 0x80 SHL SWAP1 SWAP2 DIV SWAP1 SWAP2 SIGNEXTEND SWAP1 PUSH2 0x2FF6 JUMP JUMPDEST PUSH1 0x8 SLOAD SWAP3 SWAP6 POP SWAP1 SWAP4 POP SWAP2 POP PUSH0 SWAP1 PUSH2 0x2185 SWAP1 PUSH1 0x1 PUSH1 0x1 PUSH1 0xA0 SHL SUB AND DUP8 PUSH2 0x1DFB JUMP JUMPDEST PUSH1 0x7 SLOAD PUSH1 0x8 SLOAD PUSH1 0x6 SLOAD PUSH1 0x40 MLOAD PUSH4 0x856296F7 PUSH1 0xE0 SHL DUP2 MSTORE PUSH0 PUSH1 0x4 DUP3 ADD DUP2 SWAP1 MSTORE PUSH1 0x24 DUP3 ADD SWAP3 SWAP1 SWAP3 MSTORE PUSH1 0x1 DUP13 SHL PUSH1 0x44 DUP3 ADD MSTORE SWAP4 SWAP5 POP SWAP3 PUSH1 0x1 PUSH1 0x1 PUSH1 0xA0 SHL SUB SWAP3 DUP4 AND SWAP3 PUSH4 0x39DD7530 SWAP3 AND SWAP1 DUP4 SWAP1 PUSH4 0x856296F7 SWAP1 PUSH1 0x64 ADD PUSH1 0x20 PUSH1 0x40 MLOAD DUP1 DUP4 SUB DUP2 DUP7 GAS STATICCALL ISZERO DUP1 ISZERO PUSH2 0x21F2 JUMPI RETURNDATASIZE PUSH0 DUP1 RETURNDATACOPY RETURNDATASIZE PUSH0 REVERT JUMPDEST POP POP POP POP PUSH1 0x40 MLOAD RETURNDATASIZE PUSH1 0x1F NOT PUSH1 0x1F DUP3 ADD AND DUP3 ADD DUP1 PUSH1 0x40 MSTORE POP DUP2 ADD SWAP1 PUSH2 0x2216 SWAP2 SWAP1 PUSH2 0x4820 JUMP JUMPDEST PUSH1 0x40 MLOAD PUSH1 0x1 PUSH1 0x1 PUSH1 0xE0 SHL SUB NOT PUSH1 0xE0 DUP6 SWAP1 SHL AND DUP2 MSTORE PUSH1 0x1 PUSH1 0x1 PUSH1 0xA0 SHL SUB SWAP1 SWAP3 AND PUSH1 0x4 DUP4 ADD MSTORE PUSH1 0x24 DUP3 ADD MSTORE PUSH1 0x44 ADD PUSH1 0x20 PUSH1 0x40 MLOAD DUP1 DUP4 SUB DUP2 DUP7 GAS STATICCALL ISZERO DUP1 ISZERO PUSH2 0x225D JUMPI RETURNDATASIZE PUSH0 DUP1 RETURNDATACOPY RETURNDATASIZE PUSH0 REVERT JUMPDEST POP POP POP POP PUSH1 0x40 MLOAD RETURNDATASIZE PUSH1 0x1F NOT PUSH1 0x1F DUP3 ADD AND DUP3 ADD DUP1 PUSH1 0x40 MSTORE POP DUP2 ADD SWAP1 PUSH2 0x2281 SWAP2 SWAP1 PUSH2 0x4820 JUMP JUMPDEST PUSH1 0x7 SLOAD PUSH1 0x40 MLOAD PUSH4 0x79212195 PUSH1 0xE1 SHL DUP2 MSTORE CALLER PUSH1 0x4 DUP3 ADD MSTORE ADDRESS PUSH1 0x24 DUP3 ADD MSTORE PUSH1 0x44 DUP2 ADD DUP4 SWAP1 MSTORE PUSH1 0x64 DUP2 ADD DUP6 SWAP1 MSTORE PUSH1 0xA0 PUSH1 0x84 DUP3 ADD MSTORE PUSH0 PUSH1 0xA4 DUP3 ADD MSTORE SWAP2 SWAP3 POP PUSH1 0x1 PUSH1 0x1 PUSH1 0xA0 SHL SUB AND SWAP1 PUSH4 0xF242432A SWAP1 PUSH1 0xC4 ADD PUSH0 PUSH1 0x40 MLOAD DUP1 DUP4 SUB DUP2 PUSH0 DUP8 DUP1 EXTCODESIZE ISZERO DUP1 ISZERO PUSH2 0x22E5 JUMPI PUSH0 DUP1 REVERT JUMPDEST POP GAS CALL SWAP3 POP POP POP DUP1 ISZERO PUSH2 0x22F6 JUMPI POP PUSH1 0x1 JUMPDEST PUSH2 0x2399 JUMPI PUSH2 0x2302 PUSH2 0x4923 JUMP JUMPDEST DUP1 PUSH4 0x8C379A0 SUB PUSH2 0x238F JUMPI POP PUSH2 0x2316 PUSH2 0x493B JUMP JUMPDEST DUP1 PUSH2 0x2321 JUMPI POP PUSH2 0x2391 JUMP JUMPDEST PUSH32 0xBD1DCAECA35AE4A65142E160B7E80D67E7D37F2145F209D9C29B7E4DAF85BA37 DUP2 PUSH1 0x40 MLOAD PUSH2 0x2350 SWAP2 SWAP1 PUSH2 0x49E7 JUMP JUMPDEST PUSH1 0x40 MLOAD DUP1 SWAP2 SUB SWAP1 LOG1 DUP1 PUSH1 0x40 MLOAD PUSH1 0x20 ADD PUSH2 0x2369 SWAP2 SWAP1 PUSH2 0x4A2D JUMP JUMPDEST PUSH1 0x40 DUP1 MLOAD PUSH1 0x1F NOT DUP2 DUP5 SUB ADD DUP2 MSTORE SWAP1 DUP3 SWAP1 MSTORE PUSH3 0x461BCD PUSH1 0xE5 SHL DUP3 MSTORE PUSH2 0x618 SWAP2 PUSH1 0x4 ADD PUSH2 0x4A5E JUMP JUMPDEST POP JUMPDEST RETURNDATASIZE PUSH0 DUP1 RETURNDATACOPY RETURNDATASIZE PUSH0 REVERT JUMPDEST PUSH0 PUSH2 0x23A3 DUP10 PUSH2 0x1D03 JUMP JUMPDEST SWAP1 POP DUP3 PUSH0 JUMPDEST DUP3 MLOAD DUP2 LT ISZERO PUSH2 0x255D JUMPI PUSH1 0x7 SLOAD PUSH1 0x8 SLOAD PUSH1 0x6 SLOAD DUP6 MLOAD PUSH0 SWAP4 PUSH1 0x1 PUSH1 0x1 PUSH1 0xA0 SHL SUB SWAP1 DUP2 AND SWAP4 PUSH4 0x39DD7530 SWAP4 SWAP2 AND SWAP2 DUP5 SWAP2 PUSH4 0x856296F7 SWAP2 DUP8 SWAP2 SWAP1 DUP12 SWAP1 DUP11 SWAP1 DUP2 LT PUSH2 0x23F0 JUMPI PUSH2 0x23F0 PUSH2 0x480C JUMP JUMPDEST PUSH1 0x20 MUL PUSH1 0x20 ADD ADD MLOAD PUSH1 0x40 MLOAD DUP5 PUSH4 0xFFFFFFFF AND PUSH1 0xE0 SHL DUP2 MSTORE PUSH1 0x4 ADD PUSH2 0x2427 SWAP4 SWAP3 SWAP2 SWAP1 SWAP3 DUP4 MSTORE PUSH1 0x20 DUP4 ADD SWAP2 SWAP1 SWAP2 MSTORE PUSH1 0x40 DUP3 ADD MSTORE PUSH1 0x60 ADD SWAP1 JUMP JUMPDEST PUSH1 0x20 PUSH1 0x40 MLOAD DUP1 DUP4 SUB DUP2 DUP7 GAS STATICCALL ISZERO DUP1 ISZERO PUSH2 0x2442 JUMPI RETURNDATASIZE PUSH0 DUP1 RETURNDATACOPY RETURNDATASIZE PUSH0 REVERT JUMPDEST POP POP POP POP PUSH1 0x40 MLOAD RETURNDATASIZE PUSH1 0x1F NOT PUSH1 0x1F DUP3 ADD AND DUP3 ADD DUP1 PUSH1 0x40 MSTORE POP DUP2 ADD SWAP1 PUSH2 0x2466 SWAP2 SWAP1 PUSH2 0x4820 JUMP JUMPDEST PUSH1 0x40 MLOAD PUSH1 0x1 PUSH1 0x1 PUSH1 0xE0 SHL SUB NOT PUSH1 0xE0 DUP6 SWAP1 SHL AND DUP2 MSTORE PUSH1 0x1 PUSH1 0x1 PUSH1 0xA0 SHL SUB SWAP1 SWAP3 AND PUSH1 0x4 DUP4 ADD MSTORE PUSH1 0x24 DUP3 ADD MSTORE PUSH1 0x44 ADD PUSH1 0x20 PUSH1 0x40 MLOAD DUP1 DUP4 SUB DUP2 DUP7 GAS STATICCALL ISZERO DUP1 ISZERO PUSH2 0x24AD JUMPI RETURNDATASIZE PUSH0 DUP1 RETURNDATACOPY RETURNDATASIZE PUSH0 REVERT JUMPDEST POP POP POP POP PUSH1 0x40 MLOAD RETURNDATASIZE PUSH1 0x1F NOT PUSH1 0x1F DUP3 ADD AND DUP3 ADD DUP1 PUSH1 0x40 MSTORE POP DUP2 ADD SWAP1 PUSH2 0x24D1 SWAP2 SWAP1 PUSH2 0x4820 JUMP JUMPDEST PUSH1 0x7 SLOAD PUSH1 0x40 MLOAD PUSH3 0x7EEAC7 PUSH1 0xE1 SHL DUP2 MSTORE ADDRESS PUSH1 0x4 DUP3 ADD MSTORE PUSH1 0x24 DUP2 ADD DUP4 SWAP1 MSTORE SWAP2 SWAP3 POP PUSH0 SWAP2 PUSH1 0x1 PUSH1 0x1 PUSH1 0xA0 SHL SUB SWAP1 SWAP2 AND SWAP1 PUSH3 0xFDD58E SWAP1 PUSH1 0x44 ADD PUSH1 0x20 PUSH1 0x40 MLOAD DUP1 DUP4 SUB DUP2 DUP7 GAS STATICCALL ISZERO DUP1 ISZERO PUSH2 0x2521 JUMPI RETURNDATASIZE PUSH0 DUP1 RETURNDATACOPY RETURNDATASIZE PUSH0 REVERT JUMPDEST POP POP POP POP PUSH1 0x40 MLOAD RETURNDATASIZE PUSH1 0x1F NOT PUSH1 0x1F DUP3 ADD AND DUP3 ADD DUP1 PUSH1 0x40 MSTORE POP DUP2 ADD SWAP1 PUSH2 0x2545 SWAP2 SWAP1 PUSH2 0x4820 JUMP JUMPDEST SWAP1 POP DUP4 DUP2 LT ISZERO PUSH2 0x2553 JUMPI DUP1 SWAP4 POP JUMPDEST POP POP PUSH1 0x1 ADD PUSH2 0x23A8 JUMP JUMPDEST POP DUP1 ISZERO PUSH2 0x25D0 JUMPI PUSH1 0x7 SLOAD PUSH1 0x8 SLOAD PUSH1 0x6 SLOAD PUSH1 0x40 MLOAD PUSH4 0x9E7212AD PUSH1 0xE0 SHL DUP2 MSTORE PUSH1 0x1 PUSH1 0x1 PUSH1 0xA0 SHL SUB SWAP4 DUP5 AND SWAP4 PUSH4 0x9E7212AD SWAP4 PUSH2 0x25A2 SWAP4 SWAP2 AND SWAP2 PUSH0 SWAP2 SWAP1 DUP9 SWAP1 DUP9 SWAP1 PUSH1 0x4 ADD PUSH2 0x4A70 JUMP JUMPDEST PUSH0 PUSH1 0x40 MLOAD DUP1 DUP4 SUB DUP2 PUSH0 DUP8 DUP1 EXTCODESIZE ISZERO DUP1 ISZERO PUSH2 0x25B9 JUMPI PUSH0 DUP1 REVERT JUMPDEST POP GAS CALL ISZERO DUP1 ISZERO PUSH2 0x25CB JUMPI RETURNDATASIZE PUSH0 DUP1 RETURNDATACOPY RETURNDATASIZE PUSH0 REVERT JUMPDEST POP POP POP POP JUMPDEST PUSH2 0x260D PUSH1 0x2 DUP12 DUP2 SLOAD DUP2 LT PUSH2 0x25E6 JUMPI PUSH2 0x25E6 PUSH2 0x480C JUMP JUMPDEST SWAP1 PUSH0 MSTORE PUSH1 0x20 PUSH0 KECCAK256 SWAP1 PUSH1 0x2 SWAP2 DUP3 DUP3 DIV ADD SWAP2 SWAP1 MOD PUSH1 0x10 MUL SWAP1 SLOAD SWAP1 PUSH2 0x100 EXP SWAP1 DIV PUSH1 0xF SIGNEXTEND DUP11 PUSH2 0x2DD6 JUMP JUMPDEST PUSH1 0x2 DUP12 DUP2 SLOAD DUP2 LT PUSH2 0x2620 JUMPI PUSH2 0x2620 PUSH2 0x480C JUMP JUMPDEST PUSH0 SWAP2 DUP3 MSTORE PUSH1 0x20 DUP3 KECCAK256 PUSH1 0x2 DUP3 DIV ADD DUP1 SLOAD PUSH1 0x1 SWAP1 SWAP3 AND PUSH1 0x10 MUL PUSH2 0x100 EXP PUSH1 0x1 PUSH1 0x1 PUSH1 0x80 SHL SUB DUP2 DUP2 MUL NOT SWAP1 SWAP4 AND SWAP5 DUP4 AND MUL SWAP4 SWAP1 SWAP4 OR SWAP1 SWAP3 SSTORE PUSH1 0x4 DUP1 SLOAD PUSH1 0x1 PUSH1 0x1 PUSH1 0x80 SHL SUB NOT AND DUP9 DUP5 AND OR SWAP1 SSTORE PUSH1 0x3 DUP1 SLOAD DUP4 AND PUSH1 0x1 PUSH1 0x80 SHL SWAP4 DUP12 AND SWAP4 SWAP1 SWAP4 MUL SWAP3 SWAP1 SWAP3 OR SWAP1 SWAP2 SSTORE PUSH1 0x8 SLOAD PUSH2 0x2698 SWAP1 PUSH1 0x1 PUSH1 0x1 PUSH1 0xA0 SHL SUB AND DUP9 PUSH2 0x1DFB JUMP JUMPDEST PUSH1 0x8 SLOAD SWAP1 SWAP2 POP PUSH2 0x26B2 SWAP1 PUSH1 0x1 PUSH1 0x1 PUSH1 0xA0 SHL SUB AND CALLER DUP4 PUSH2 0x2EA9 JUMP JUMPDEST POP SWAP5 SWAP10 SWAP9 POP POP POP POP POP POP POP POP POP JUMP JUMPDEST PUSH0 PUSH1 0x1 SLOAD DUP3 LT PUSH2 0x270B JUMPI PUSH1 0x40 MLOAD PUSH3 0x461BCD PUSH1 0xE5 SHL DUP2 MSTORE PUSH1 0x20 PUSH1 0x4 DUP3 ADD MSTORE PUSH1 0x15 PUSH1 0x24 DUP3 ADD MSTORE PUSH21 0x92DCECC2D8D2C840DEEAE8C6DEDACA40D2DCC8CAF PUSH1 0x5B SHL PUSH1 0x44 DUP3 ADD MSTORE PUSH1 0x64 ADD PUSH2 0x618 JUMP JUMPDEST PUSH2 0x65F PUSH1 0x2 DUP4 DUP2 SLOAD DUP2 LT PUSH2 0x2721 JUMPI PUSH2 0x2721 PUSH2 0x480C JUMP JUMPDEST SWAP1 PUSH0 MSTORE PUSH1 0x20 PUSH0 KECCAK256 SWAP1 PUSH1 0x2 SWAP2 DUP3 DUP3 DIV ADD SWAP2 SWAP1 MOD PUSH1 0x10 MUL SWAP1 SLOAD SWAP1 PUSH2 0x100 EXP SWAP1 DIV PUSH1 0xF SIGNEXTEND PUSH1 0x4 PUSH1 0x10 SWAP1 SLOAD SWAP1 PUSH2 0x100 EXP SWAP1 DIV PUSH1 0xF SIGNEXTEND PUSH2 0x2DD6 JUMP JUMPDEST PUSH1 0x3 SLOAD PUSH0 SWAP1 PUSH1 0x1 PUSH1 0x80 SHL SWAP1 DIV PUSH1 0xF SIGNEXTEND PUSH2 0x2770 DUP5 DUP5 PUSH2 0x1B74 JUMP JUMPDEST PUSH2 0x1AA1 SWAP2 SWAP1 PUSH2 0x48D5 JUMP JUMPDEST PUSH1 0x8 SLOAD PUSH1 0x40 MLOAD PUSH4 0x70A08231 PUSH1 0xE0 SHL DUP2 MSTORE ADDRESS PUSH1 0x4 DUP3 ADD MSTORE PUSH0 SWAP2 DUP3 SWAP2 PUSH1 0x1 PUSH1 0x1 PUSH1 0xA0 SHL SUB SWAP1 SWAP2 AND SWAP1 PUSH4 0x70A08231 SWAP1 PUSH1 0x24 ADD PUSH1 0x20 PUSH1 0x40 MLOAD DUP1 DUP4 SUB DUP2 DUP7 GAS STATICCALL ISZERO DUP1 ISZERO PUSH2 0x27C4 JUMPI RETURNDATASIZE PUSH0 DUP1 RETURNDATACOPY RETURNDATASIZE PUSH0 REVERT JUMPDEST POP POP POP POP PUSH1 0x40 MLOAD RETURNDATASIZE PUSH1 0x1F NOT PUSH1 0x1F DUP3 ADD AND DUP3 ADD DUP1 PUSH1 0x40 MSTORE POP DUP2 ADD SWAP1 PUSH2 0x27E8 SWAP2 SWAP1 PUSH2 0x4820 JUMP JUMPDEST PUSH1 0x8 SLOAD PUSH1 0x3 SLOAD SWAP2 SWAP4 POP PUSH2 0x2810 SWAP2 PUSH1 0x1 PUSH1 0x1 PUSH1 0xA0 SHL SUB SWAP1 SWAP2 AND SWAP1 PUSH1 0x1 PUSH1 0x80 SHL SWAP1 DIV PUSH1 0xF SIGNEXTEND PUSH2 0x111D JUMP JUMPDEST SWAP1 POP SWAP1 SWAP2 JUMP JUMPDEST PUSH2 0x281E PUSH2 0x2E7D JUMP JUMPDEST PUSH1 0x1 PUSH1 0x1 PUSH1 0xA0 SHL SUB DUP2 AND PUSH2 0x2847 JUMPI PUSH1 0x40 MLOAD PUSH4 0x1E4FBDF7 PUSH1 0xE0 SHL DUP2 MSTORE PUSH0 PUSH1 0x4 DUP3 ADD MSTORE PUSH1 0x24 ADD PUSH2 0x618 JUMP JUMPDEST PUSH2 0x111A DUP2 PUSH2 0x2F61 JUMP JUMPDEST PUSH1 0x8 SLOAD PUSH0 SWAP1 PUSH1 0x1 PUSH1 0xA0 SHL SWAP1 DIV PUSH1 0xFF AND ISZERO ISZERO PUSH1 0x1 EQ PUSH2 0x286C JUMPI PUSH0 DUP1 REVERT JUMPDEST PUSH1 0x1 SLOAD DUP4 LT PUSH2 0x28B5 JUMPI PUSH1 0x40 MLOAD PUSH3 0x461BCD PUSH1 0xE5 SHL DUP2 MSTORE PUSH1 0x20 PUSH1 0x4 DUP3 ADD MSTORE PUSH1 0x15 PUSH1 0x24 DUP3 ADD MSTORE PUSH21 0x92DCECC2D8D2C840DEEAE8C6DEDACA40D2DCC8CAF PUSH1 0x5B SHL PUSH1 0x44 DUP3 ADD MSTORE PUSH1 0x64 ADD PUSH2 0x618 JUMP JUMPDEST PUSH0 DUP3 PUSH1 0xF SIGNEXTEND SGT PUSH2 0x2907 JUMPI PUSH1 0x40 MLOAD PUSH3 0x461BCD PUSH1 0xE5 SHL DUP2 MSTORE PUSH1 0x20 PUSH1 0x4 DUP3 ADD MSTORE PUSH1 0x17 PUSH1 0x24 DUP3 ADD MSTORE PUSH32 0x416D6F756E74206D75737420626520706F736974697665000000000000000000 PUSH1 0x44 DUP3 ADD MSTORE PUSH1 0x64 ADD PUSH2 0x618 JUMP JUMPDEST PUSH1 0x7 SLOAD PUSH1 0x6 SLOAD PUSH1 0x40 MLOAD PUSH4 0xDD34DE67 PUSH1 0xE0 SHL DUP2 MSTORE PUSH1 0x1 PUSH1 0x1 PUSH1 0xA0 SHL SUB SWAP1 SWAP3 AND SWAP2 PUSH4 0xDD34DE67 SWAP2 PUSH2 0x293C SWAP2 PUSH1 0x4 ADD SWAP1 DUP2 MSTORE PUSH1 0x20 ADD SWAP1 JUMP JUMPDEST PUSH1 0x20 PUSH1 0x40 MLOAD DUP1 DUP4 SUB DUP2 DUP7 GAS STATICCALL ISZERO DUP1 ISZERO PUSH2 0x2957 JUMPI RETURNDATASIZE PUSH0 DUP1 RETURNDATACOPY RETURNDATASIZE PUSH0 REVERT JUMPDEST POP POP POP POP PUSH1 0x40 MLOAD RETURNDATASIZE PUSH1 0x1F NOT PUSH1 0x1F DUP3 ADD AND DUP3 ADD DUP1 PUSH1 0x40 MSTORE POP DUP2 ADD SWAP1 PUSH2 0x297B SWAP2 SWAP1 PUSH2 0x4820 JUMP JUMPDEST ISZERO PUSH2 0x29C8 JUMPI PUSH1 0x40 MLOAD PUSH3 0x461BCD PUSH1 0xE5 SHL DUP2 MSTORE PUSH1 0x20 PUSH1 0x4 DUP3 ADD MSTORE PUSH1 0x17 PUSH1 0x24 DUP3 ADD MSTORE PUSH32 0x4D61726B657420616C7265616479207265736F6C766564000000000000000000 PUSH1 0x44 DUP3 ADD MSTORE PUSH1 0x64 ADD PUSH2 0x618 JUMP JUMPDEST PUSH0 DUP1 PUSH0 PUSH2 0x2A63 PUSH1 0x2 DUP1 SLOAD DUP1 PUSH1 0x20 MUL PUSH1 0x20 ADD PUSH1 0x40 MLOAD SWAP1 DUP2 ADD PUSH1 0x40 MSTORE DUP1 SWAP3 SWAP2 SWAP1 DUP2 DUP2 MSTORE PUSH1 0x20 ADD DUP3 DUP1 SLOAD DUP1 ISZERO PUSH2 0x2A3A JUMPI PUSH1 0x20 MUL DUP3 ADD SWAP2 SWAP1 PUSH0 MSTORE PUSH1 0x20 PUSH0 KECCAK256 SWAP1 PUSH0 SWAP1 JUMPDEST DUP3 SLOAD PUSH2 0x100 DUP4 SWAP1 EXP SWAP1 DIV PUSH1 0xF SIGNEXTEND DUP2 MSTORE PUSH1 0x20 PUSH1 0x1F DUP4 ADD DUP2 SWAP1 DIV SWAP4 DUP5 ADD SWAP4 PUSH1 0x1 SUB PUSH1 0x10 SWAP1 SWAP4 ADD SWAP3 SWAP1 SWAP3 MUL SWAP2 ADD DUP1 DUP5 GT PUSH2 0x2A06 JUMPI SWAP1 POP JUMPDEST POP POP PUSH1 0x4 SLOAD PUSH1 0x3 SLOAD PUSH1 0x1 SLOAD DUP14 SWAP6 POP DUP13 SWAP5 POP PUSH1 0xF SWAP3 DUP4 SIGNEXTEND SWAP4 POP PUSH1 0x1 PUSH1 0x80 SHL SWAP1 SWAP2 DIV SWAP1 SWAP2 SIGNEXTEND SWAP1 PUSH2 0x3157 JUMP JUMPDEST PUSH1 0x8 SLOAD SWAP3 SWAP6 POP SWAP1 SWAP4 POP SWAP2 POP PUSH0 SWAP1 PUSH2 0x2A83 SWAP1 PUSH1 0x1 PUSH1 0x1 PUSH1 0xA0 SHL SUB AND DUP5 PUSH2 0x554 JUMP JUMPDEST PUSH1 0x40 DUP1 MLOAD DUP3 DUP2 MSTORE PUSH1 0xF DUP7 SWAP1 SIGNEXTEND PUSH1 0x20 DUP3 ADD MSTORE SWAP2 SWAP3 POP PUSH32 0xBD58A27F98D614697F8A2D66C4C15779B5C06324BDC1F23994D9E5F93A537A4D SWAP2 ADD PUSH1 0x40 MLOAD DUP1 SWAP2 SUB SWAP1 LOG1 PUSH1 0x8 SLOAD PUSH1 0x40 MLOAD PUSH4 0x23B872DD PUSH1 0xE0 SHL DUP2 MSTORE CALLER PUSH1 0x4 DUP3 ADD MSTORE ADDRESS PUSH1 0x24 DUP3 ADD MSTORE PUSH1 0x44 DUP2 ADD DUP4 SWAP1 MSTORE PUSH1 0x1 PUSH1 0x1 PUSH1 0xA0 SHL SUB SWAP1 SWAP2 AND SWAP1 PUSH4 0x23B872DD SWAP1 PUSH1 0x64 ADD PUSH1 0x20 PUSH1 0x40 MLOAD DUP1 DUP4 SUB DUP2 PUSH0 DUP8 GAS CALL ISZERO DUP1 ISZERO PUSH2 0x2B16 JUMPI RETURNDATASIZE PUSH0 DUP1 RETURNDATACOPY RETURNDATASIZE PUSH0 REVERT JUMPDEST POP POP POP POP PUSH1 0x40 MLOAD RETURNDATASIZE PUSH1 0x1F NOT PUSH1 0x1F DUP3 ADD AND DUP3 ADD DUP1 PUSH1 0x40 MSTORE POP DUP2 ADD SWAP1 PUSH2 0x2B3A SWAP2 SWAP1 PUSH2 0x4AAF JUMP JUMPDEST PUSH2 0x2B86 JUMPI PUSH1 0x40 MLOAD PUSH3 0x461BCD PUSH1 0xE5 SHL DUP2 MSTORE PUSH1 0x20 PUSH1 0x4 DUP3 ADD MSTORE PUSH1 0x19 PUSH1 0x24 DUP3 ADD MSTORE PUSH32 0x4572726F72207472616E7366657272696E6720746F6B656E7300000000000000 PUSH1 0x44 DUP3 ADD MSTORE PUSH1 0x64 ADD PUSH2 0x618 JUMP JUMPDEST PUSH2 0x2B9C PUSH1 0x2 DUP9 DUP2 SLOAD DUP2 LT PUSH2 0x1BF5 JUMPI PUSH2 0x1BF5 PUSH2 0x480C JUMP JUMPDEST PUSH1 0x2 DUP9 DUP2 SLOAD DUP2 LT PUSH2 0x2BAF JUMPI PUSH2 0x2BAF PUSH2 0x480C JUMP JUMPDEST PUSH0 SWAP2 DUP3 MSTORE PUSH1 0x20 SWAP1 SWAP2 KECCAK256 PUSH1 0x2 DUP3 DIV ADD DUP1 SLOAD PUSH1 0x1 SWAP1 SWAP3 AND PUSH1 0x10 MUL PUSH2 0x100 EXP PUSH1 0x1 PUSH1 0x1 PUSH1 0x80 SHL SUB DUP2 DUP2 MUL NOT SWAP1 SWAP4 AND SWAP4 DUP4 AND MUL SWAP3 SWAP1 SWAP3 OR SWAP1 SWAP2 SSTORE PUSH1 0x4 DUP1 SLOAD PUSH1 0x1 PUSH1 0x1 PUSH1 0x80 SHL SUB NOT AND DUP5 DUP4 AND OR SWAP1 SSTORE PUSH1 0x3 DUP1 SLOAD DUP3 AND PUSH1 0x1 PUSH1 0x80 SHL SWAP3 DUP8 AND SWAP3 SWAP1 SWAP3 MUL SWAP2 SWAP1 SWAP2 OR SWAP1 SSTORE PUSH2 0x1DF0 DUP8 DUP8 PUSH2 0x3299 JUMP JUMPDEST PUSH0 DUP2 PUSH0 SUB PUSH2 0x2C2A JUMPI POP PUSH0 PUSH2 0x65F JUMP JUMPDEST PUSH0 DUP4 PUSH1 0xF SIGNEXTEND SLT ISZERO PUSH2 0x2C39 JUMPI PUSH0 DUP1 REVERT JUMPDEST PUSH1 0xF DUP4 SWAP1 SIGNEXTEND PUSH1 0x1 PUSH1 0x1 PUSH1 0x80 SHL SUB DUP4 AND DUP2 MUL PUSH1 0x40 SHR SWAP1 PUSH1 0x80 DUP5 SWAP1 SHR MUL PUSH24 0xFFFFFFFFFFFFFFFFFFFFFFFFFFFFFFFFFFFFFFFFFFFFFFFF DUP2 GT ISZERO PUSH2 0x2C78 JUMPI PUSH0 DUP1 REVERT JUMPDEST PUSH1 0x40 SHL DUP2 NOT DUP2 GT ISZERO PUSH2 0x2C88 JUMPI PUSH0 DUP1 REVERT JUMPDEST ADD SWAP4 SWAP3 POP POP POP JUMP JUMPDEST PUSH0 PUSH1 0xF DUP4 DUP2 SIGNEXTEND SWAP1 DUP4 SWAP1 SIGNEXTEND MUL PUSH1 0x40 SAR PUSH16 0x7FFFFFFFFFFFFFFFFFFFFFFFFFFFFFFF NOT DUP2 SLT DUP1 ISZERO SWAP1 PUSH2 0x2CC6 JUMPI POP PUSH1 0x1 PUSH1 0x1 PUSH1 0x7F SHL SUB DUP2 SGT ISZERO JUMPDEST PUSH2 0x1AA1 JUMPI PUSH0 DUP1 REVERT JUMPDEST PUSH0 PUSH1 0xF DUP4 DUP2 SIGNEXTEND SWAP1 DUP4 SWAP1 SIGNEXTEND ADD PUSH16 0x7FFFFFFFFFFFFFFFFFFFFFFFFFFFFFFF NOT DUP2 SLT DUP1 ISZERO SWAP1 PUSH2 0x2CC6 JUMPI POP PUSH1 0x1 PUSH1 0x1 PUSH1 0x7F SHL SUB DUP2 SGT ISZERO PUSH2 0x1AA1 JUMPI PUSH0 DUP1 REVERT JUMPDEST PUSH0 DUP2 PUSH1 0xF SIGNEXTEND PUSH0 SUB PUSH2 0x2D17 JUMPI PUSH0 DUP1 REVERT JUMPDEST PUSH0 DUP3 PUSH1 0xF SIGNEXTEND PUSH1 0x40 DUP6 PUSH1 0xF SIGNEXTEND SWAP1 SHL DUP2 PUSH2 0x2D31 JUMPI PUSH2 0x2D31 PUSH2 0x4ACE JUMP JUMPDEST SDIV SWAP1 POP PUSH16 0x7FFFFFFFFFFFFFFFFFFFFFFFFFFFFFFF NOT DUP2 SLT DUP1 ISZERO SWAP1 PUSH2 0x2CC6 JUMPI POP PUSH1 0x1 PUSH1 0x1 PUSH1 0x7F SHL SUB DUP2 SGT ISZERO PUSH2 0x1AA1 JUMPI PUSH0 DUP1 REVERT JUMPDEST PUSH0 PUSH9 0x400000000000000000 DUP3 PUSH1 0xF SIGNEXTEND SLT PUSH2 0x2D7B JUMPI PUSH0 DUP1 REVERT JUMPDEST PUSH9 0x3FFFFFFFFFFFFFFFFF NOT DUP3 PUSH1 0xF SIGNEXTEND SLT ISZERO PUSH2 0x2D97 JUMPI POP PUSH0 SWAP2 SWAP1 POP JUMP JUMPDEST PUSH2 0x65F PUSH1 0x80 DUP4 PUSH1 0xF SIGNEXTEND PUSH17 0x171547652B82FE1777D0FFDA0D23A7D12 MUL SWAP1 SAR PUSH2 0x3579 JUMP JUMPDEST PUSH0 PUSH8 0x7FFFFFFFFFFFFFFF DUP3 GT ISZERO PUSH2 0x2DCF JUMPI PUSH0 DUP1 REVERT JUMPDEST POP PUSH1 0x40 SHL SWAP1 JUMP JUMPDEST PUSH0 PUSH1 0xF DUP3 DUP2 SIGNEXTEND SWAP1 DUP5 SWAP1 SIGNEXTEND SUB PUSH16 0x7FFFFFFFFFFFFFFFFFFFFFFFFFFFFFFF NOT DUP2 SLT DUP1 ISZERO SWAP1 PUSH2 0x2CC6 JUMPI POP PUSH1 0x1 PUSH1 0x1 PUSH1 0x7F SHL SUB DUP2 SGT ISZERO PUSH2 0x1AA1 JUMPI PUSH0 DUP1 REVERT JUMPDEST PUSH0 DUP1 DUP3 PUSH1 0xF SIGNEXTEND SGT PUSH2 0x2E1F JUMPI PUSH0 DUP1 REVERT JUMPDEST PUSH1 0x80 PUSH2 0x2E2A DUP4 PUSH2 0x3FFF JUMP JUMPDEST PUSH1 0xF SIGNEXTEND PUSH16 0xB17217F7D1CF79ABC9E3B39803F2F6AF MUL SWAP1 SHR SWAP1 POP SWAP2 SWAP1 POP JUMP JUMPDEST PUSH0 DUP2 PUSH0 SUB PUSH2 0x2E54 JUMPI PUSH0 DUP1 REVERT JUMPDEST PUSH0 PUSH2 0x2E5F DUP5 DUP5 PUSH2 0x40D4 JUMP JUMPDEST SWAP1 POP PUSH1 0x1 PUSH1 0x1 PUSH1 0x7F SHL SUB PUSH1 0x1 PUSH1 0x1 PUSH1 0x80 SHL SUB DUP3 AND GT ISZERO PUSH2 0x1AA1 JUMPI PUSH0 DUP1 REVERT JUMPDEST PUSH0 SLOAD PUSH1 0x1 PUSH1 0x1 PUSH1 0xA0 SHL SUB AND CALLER EQ PUSH2 0x1B72 JUMPI PUSH1 0x40 MLOAD PUSH4 0x118CDAA7 PUSH1 0xE0 SHL DUP2 MSTORE CALLER PUSH1 0x4 DUP3 ADD MSTORE PUSH1 0x24 ADD PUSH2 0x618 JUMP JUMPDEST PUSH1 0x40 MLOAD PUSH1 0x1 PUSH1 0x1 PUSH1 0xA0 SHL SUB DUP4 DUP2 AND PUSH1 0x24 DUP4 ADD MSTORE PUSH1 0x44 DUP3 ADD DUP4 SWAP1 MSTORE PUSH2 0x2F1D SWAP2 DUP6 SWAP2 DUP3 AND SWAP1 PUSH4 0xA9059CBB SWAP1 PUSH1 0x64 ADD JUMPDEST PUSH1 0x40 MLOAD PUSH1 0x20 DUP2 DUP4 SUB SUB DUP2 MSTORE SWAP1 PUSH1 0x40 MSTORE SWAP2 POP PUSH1 0xE0 SHL PUSH1 0x20 DUP3 ADD DUP1 MLOAD PUSH28 0xFFFFFFFFFFFFFFFFFFFFFFFFFFFFFFFFFFFFFFFFFFFFFFFFFFFFFFFF DUP4 DUP2 DUP4 AND OR DUP4 MSTORE POP POP POP POP PUSH2 0x4244 JUMP JUMPDEST POP POP POP JUMP JUMPDEST PUSH1 0x40 MLOAD PUSH1 0x1 PUSH1 0x1 PUSH1 0xA0 SHL SUB DUP5 DUP2 AND PUSH1 0x24 DUP4 ADD MSTORE DUP4 DUP2 AND PUSH1 0x44 DUP4 ADD MSTORE PUSH1 0x64 DUP3 ADD DUP4 SWAP1 MSTORE PUSH2 0x2F5B SWAP2 DUP7 SWAP2 DUP3 AND SWAP1 PUSH4 0x23B872DD SWAP1 PUSH1 0x84 ADD PUSH2 0x2ED6 JUMP JUMPDEST POP POP POP POP JUMP JUMPDEST PUSH0 DUP1 SLOAD PUSH1 0x1 PUSH1 0x1 PUSH1 0xA0 SHL SUB DUP4 DUP2 AND PUSH32 0xFFFFFFFFFFFFFFFFFFFFFFFF0000000000000000000000000000000000000000 DUP4 AND DUP2 OR DUP5 SSTORE PUSH1 0x40 MLOAD SWAP2 SWAP1 SWAP3 AND SWAP3 DUP4 SWAP2 PUSH32 0x8BE0079C531659141344CD1FD0A4F28419497F9722A3DAAFE3B4186F6B6457E0 SWAP2 SWAP1 LOG3 POP POP JUMP JUMPDEST PUSH0 JUMPDEST DUP2 ISZERO PUSH2 0x2FF1 JUMPI PUSH2 0x2FDB PUSH1 0x1 DUP4 PUSH2 0x487C JUMP JUMPDEST SWAP1 SWAP2 AND SWAP1 DUP1 PUSH2 0x2FE9 DUP2 PUSH2 0x490B JUMP JUMPDEST SWAP2 POP POP PUSH2 0x2FCA JUMP JUMPDEST SWAP2 SWAP1 POP JUMP JUMPDEST PUSH0 DUP1 PUSH0 DUP1 DUP5 PUSH8 0xFFFFFFFFFFFFFFFF DUP2 GT ISZERO PUSH2 0x3013 JUMPI PUSH2 0x3013 PUSH2 0x43D4 JUMP JUMPDEST PUSH1 0x40 MLOAD SWAP1 DUP1 DUP3 MSTORE DUP1 PUSH1 0x20 MUL PUSH1 0x20 ADD DUP3 ADD PUSH1 0x40 MSTORE DUP1 ISZERO PUSH2 0x303C JUMPI DUP2 PUSH1 0x20 ADD PUSH1 0x20 DUP3 MUL DUP1 CALLDATASIZE DUP4 CALLDATACOPY ADD SWAP1 POP JUMPDEST POP SWAP1 POP PUSH0 JUMPDEST DUP6 DUP2 LT ISZERO PUSH2 0x3090 JUMPI DUP11 DUP2 DUP2 MLOAD DUP2 LT PUSH2 0x305B JUMPI PUSH2 0x305B PUSH2 0x480C JUMP JUMPDEST PUSH1 0x20 MUL PUSH1 0x20 ADD ADD MLOAD DUP3 DUP3 DUP2 MLOAD DUP2 LT PUSH2 0x3075 JUMPI PUSH2 0x3075 PUSH2 0x480C JUMP JUMPDEST PUSH1 0xF SWAP3 SWAP1 SWAP3 SIGNEXTEND PUSH1 0x20 SWAP3 DUP4 MUL SWAP2 SWAP1 SWAP2 ADD SWAP1 SWAP2 ADD MSTORE PUSH1 0x1 ADD PUSH2 0x3041 JUMP JUMPDEST POP PUSH2 0x30B4 DUP2 DUP11 DUP2 MLOAD DUP2 LT PUSH2 0x30A6 JUMPI PUSH2 0x30A6 PUSH2 0x480C JUMP JUMPDEST PUSH1 0x20 MUL PUSH1 0x20 ADD ADD MLOAD DUP10 PUSH2 0x2DD6 JUMP JUMPDEST DUP2 DUP11 DUP2 MLOAD DUP2 LT PUSH2 0x30C6 JUMPI PUSH2 0x30C6 PUSH2 0x480C JUMP JUMPDEST PUSH1 0x20 MUL PUSH1 0x20 ADD ADD SWAP1 PUSH1 0xF SIGNEXTEND SWAP1 DUP2 PUSH1 0xF SIGNEXTEND DUP2 MSTORE POP POP PUSH2 0x30E4 DUP8 DUP10 PUSH2 0x2DD6 JUMP JUMPDEST PUSH1 0x3 SLOAD SWAP1 SWAP3 POP PUSH1 0xF SIGNEXTEND PUSH0 DUP1 JUMPDEST DUP8 DUP2 LT ISZERO PUSH2 0x312C JUMPI PUSH2 0x3122 DUP3 PUSH2 0x7D7 PUSH2 0x767 DUP8 DUP6 DUP2 MLOAD DUP2 LT PUSH2 0x3114 JUMPI PUSH2 0x3114 PUSH2 0x480C JUMP JUMPDEST PUSH1 0x20 MUL PUSH1 0x20 ADD ADD MLOAD DUP8 PUSH2 0x2D08 JUMP JUMPDEST SWAP2 POP PUSH1 0x1 ADD PUSH2 0x30F0 JUMP JUMPDEST POP PUSH2 0x313A DUP3 PUSH2 0x891 DUP4 PUSH2 0x2E10 JUMP JUMPDEST SWAP6 POP PUSH2 0x3146 DUP9 DUP8 PUSH2 0x2DD6 JUMP JUMPDEST SWAP5 POP POP POP POP SWAP7 POP SWAP7 POP SWAP7 SWAP4 POP POP POP POP JUMP JUMPDEST PUSH0 DUP1 PUSH0 DUP1 DUP5 PUSH8 0xFFFFFFFFFFFFFFFF DUP2 GT ISZERO PUSH2 0x3174 JUMPI PUSH2 0x3174 PUSH2 0x43D4 JUMP JUMPDEST PUSH1 0x40 MLOAD SWAP1 DUP1 DUP3 MSTORE DUP1 PUSH1 0x20 MUL PUSH1 0x20 ADD DUP3 ADD PUSH1 0x40 MSTORE DUP1 ISZERO PUSH2 0x319D JUMPI DUP2 PUSH1 0x20 ADD PUSH1 0x20 DUP3 MUL DUP1 CALLDATASIZE DUP4 CALLDATACOPY ADD SWAP1 POP JUMPDEST POP SWAP1 POP PUSH0 JUMPDEST DUP6 DUP2 LT ISZERO PUSH2 0x31F1 JUMPI DUP11 DUP2 DUP2 MLOAD DUP2 LT PUSH2 0x31BC JUMPI PUSH2 0x31BC PUSH2 0x480C JUMP JUMPDEST PUSH1 0x20 MUL PUSH1 0x20 ADD ADD MLOAD DUP3 DUP3 DUP2 MLOAD DUP2 LT PUSH2 0x31D6 JUMPI PUSH2 0x31D6 PUSH2 0x480C JUMP JUMPDEST PUSH1 0xF SWAP3 SWAP1 SWAP3 SIGNEXTEND PUSH1 0x20 SWAP3 DUP4 MUL SWAP2 SWAP1 SWAP2 ADD SWAP1 SWAP2 ADD MSTORE PUSH1 0x1 ADD PUSH2 0x31A2 JUMP JUMPDEST POP PUSH2 0x3215 DUP2 DUP11 DUP2 MLOAD DUP2 LT PUSH2 0x3207 JUMPI PUSH2 0x3207 PUSH2 0x480C JUMP JUMPDEST PUSH1 0x20 MUL PUSH1 0x20 ADD ADD MLOAD DUP10 PUSH2 0x2CCE JUMP JUMPDEST DUP2 DUP11 DUP2 MLOAD DUP2 LT PUSH2 0x3227 JUMPI PUSH2 0x3227 PUSH2 0x480C JUMP JUMPDEST PUSH1 0x20 MUL PUSH1 0x20 ADD ADD SWAP1 PUSH1 0xF SIGNEXTEND SWAP1 DUP2 PUSH1 0xF SIGNEXTEND DUP2 MSTORE POP POP PUSH2 0x3245 DUP8 DUP10 PUSH2 0x2CCE JUMP JUMPDEST PUSH1 0x3 SLOAD SWAP1 SWAP3 POP PUSH1 0xF SIGNEXTEND PUSH0 DUP1 JUMPDEST DUP8 DUP2 LT ISZERO PUSH2 0x327F JUMPI PUSH2 0x3275 DUP3 PUSH2 0x7D7 PUSH2 0x767 DUP8 DUP6 DUP2 MLOAD DUP2 LT PUSH2 0x3114 JUMPI PUSH2 0x3114 PUSH2 0x480C JUMP JUMPDEST SWAP2 POP PUSH1 0x1 ADD PUSH2 0x3251 JUMP JUMPDEST POP PUSH2 0x328D DUP3 PUSH2 0x891 DUP4 PUSH2 0x2E10 JUMP JUMPDEST SWAP6 POP PUSH2 0x3146 DUP7 DUP10 PUSH2 0x2DD6 JUMP JUMPDEST PUSH1 0x8 SLOAD PUSH0 SWAP1 PUSH2 0x32B1 SWAP1 PUSH1 0x1 PUSH1 0x1 PUSH1 0xA0 SHL SUB AND DUP4 PUSH2 0x554 JUMP JUMPDEST PUSH1 0x7 SLOAD PUSH1 0x8 SLOAD PUSH1 0x6 SLOAD PUSH1 0x40 MLOAD PUSH4 0x856296F7 PUSH1 0xE0 SHL DUP2 MSTORE PUSH0 PUSH1 0x4 DUP3 ADD DUP2 SWAP1 MSTORE PUSH1 0x24 DUP3 ADD SWAP3 SWAP1 SWAP3 MSTORE PUSH1 0x1 DUP9 SHL PUSH1 0x44 DUP3 ADD MSTORE SWAP4 SWAP5 POP SWAP3 PUSH1 0x1 PUSH1 0x1 PUSH1 0xA0 SHL SUB SWAP3 DUP4 AND SWAP3 PUSH4 0x39DD7530 SWAP3 AND SWAP1 DUP4 SWAP1 PUSH4 0x856296F7 SWAP1 PUSH1 0x64 ADD PUSH1 0x20 PUSH1 0x40 MLOAD DUP1 DUP4 SUB DUP2 DUP7 GAS STATICCALL ISZERO DUP1 ISZERO PUSH2 0x331E JUMPI RETURNDATASIZE PUSH0 DUP1 RETURNDATACOPY RETURNDATASIZE PUSH0 REVERT JUMPDEST POP POP POP POP PUSH1 0x40 MLOAD RETURNDATASIZE PUSH1 0x1F NOT PUSH1 0x1F DUP3 ADD AND DUP3 ADD DUP1 PUSH1 0x40 MSTORE POP DUP2 ADD SWAP1 PUSH2 0x3342 SWAP2 SWAP1 PUSH2 0x4820 JUMP JUMPDEST PUSH1 0x40 MLOAD PUSH1 0x1 PUSH1 0x1 PUSH1 0xE0 SHL SUB NOT PUSH1 0xE0 DUP6 SWAP1 SHL AND DUP2 MSTORE PUSH1 0x1 PUSH1 0x1 PUSH1 0xA0 SHL SUB SWAP1 SWAP3 AND PUSH1 0x4 DUP4 ADD MSTORE PUSH1 0x24 DUP3 ADD MSTORE PUSH1 0x44 ADD PUSH1 0x20 PUSH1 0x40 MLOAD DUP1 DUP4 SUB DUP2 DUP7 GAS STATICCALL ISZERO DUP1 ISZERO PUSH2 0x3389 JUMPI RETURNDATASIZE PUSH0 DUP1 RETURNDATACOPY RETURNDATASIZE PUSH0 REVERT JUMPDEST POP POP POP POP PUSH1 0x40 MLOAD RETURNDATASIZE PUSH1 0x1F NOT PUSH1 0x1F DUP3 ADD AND DUP3 ADD DUP1 PUSH1 0x40 MSTORE POP DUP2 ADD SWAP1 PUSH2 0x33AD SWAP2 SWAP1 PUSH2 0x4820 JUMP JUMPDEST PUSH1 0x7 SLOAD PUSH1 0x40 MLOAD PUSH3 0x7EEAC7 PUSH1 0xE1 SHL DUP2 MSTORE ADDRESS PUSH1 0x4 DUP3 ADD MSTORE PUSH1 0x24 DUP2 ADD DUP4 SWAP1 MSTORE SWAP2 SWAP3 POP PUSH0 SWAP2 PUSH1 0x1 PUSH1 0x1 PUSH1 0xA0 SHL SUB SWAP1 SWAP2 AND SWAP1 PUSH3 0xFDD58E SWAP1 PUSH1 0x44 ADD PUSH1 0x20 PUSH1 0x40 MLOAD DUP1 DUP4 SUB DUP2 DUP7 GAS STATICCALL ISZERO DUP1 ISZERO PUSH2 0x33FD JUMPI RETURNDATASIZE PUSH0 DUP1 RETURNDATACOPY RETURNDATASIZE PUSH0 REVERT JUMPDEST POP POP POP POP PUSH1 0x40 MLOAD RETURNDATASIZE PUSH1 0x1F NOT PUSH1 0x1F DUP3 ADD AND DUP3 ADD DUP1 PUSH1 0x40 MSTORE POP DUP2 ADD SWAP1 PUSH2 0x3421 SWAP2 SWAP1 PUSH2 0x4820 JUMP JUMPDEST SWAP1 POP DUP3 DUP2 LT DUP1 ISZERO PUSH2 0x3528 JUMPI PUSH0 PUSH2 0x3437 DUP4 DUP7 PUSH2 0x487C JUMP JUMPDEST PUSH1 0x8 SLOAD PUSH1 0x7 SLOAD PUSH1 0x40 MLOAD PUSH4 0x95EA7B3 PUSH1 0xE0 SHL DUP2 MSTORE PUSH1 0x1 PUSH1 0x1 PUSH1 0xA0 SHL SUB SWAP2 DUP3 AND PUSH1 0x4 DUP3 ADD MSTORE PUSH1 0x24 DUP2 ADD DUP5 SWAP1 MSTORE SWAP3 SWAP4 POP AND SWAP1 PUSH4 0x95EA7B3 SWAP1 PUSH1 0x44 ADD PUSH1 0x20 PUSH1 0x40 MLOAD DUP1 DUP4 SUB DUP2 PUSH0 DUP8 GAS CALL ISZERO DUP1 ISZERO PUSH2 0x348B JUMPI RETURNDATASIZE PUSH0 DUP1 RETURNDATACOPY RETURNDATASIZE PUSH0 REVERT JUMPDEST POP POP POP POP PUSH1 0x40 MLOAD RETURNDATASIZE PUSH1 0x1F NOT PUSH1 0x1F DUP3 ADD AND DUP3 ADD DUP1 PUSH1 0x40 MSTORE POP DUP2 ADD SWAP1 PUSH2 0x34AF SWAP2 SWAP1 PUSH2 0x4AAF JUMP JUMPDEST POP PUSH1 0x7 SLOAD PUSH1 0x8 SLOAD PUSH1 0x6 SLOAD PUSH1 0x1 PUSH1 0x1 PUSH1 0xA0 SHL SUB SWAP3 DUP4 AND SWAP3 PUSH4 0x72CE4275 SWAP3 AND SWAP1 PUSH0 SWAP1 PUSH2 0x34D8 DUP13 PUSH2 0x1D03 JUMP JUMPDEST DUP7 PUSH1 0x40 MLOAD DUP7 PUSH4 0xFFFFFFFF AND PUSH1 0xE0 SHL DUP2 MSTORE PUSH1 0x4 ADD PUSH2 0x34F9 SWAP6 SWAP5 SWAP4 SWAP3 SWAP2 SWAP1 PUSH2 0x4A70 JUMP JUMPDEST PUSH0 PUSH1 0x40 MLOAD DUP1 DUP4 SUB DUP2 PUSH0 DUP8 DUP1 EXTCODESIZE ISZERO DUP1 ISZERO PUSH2 0x3510 JUMPI PUSH0 DUP1 REVERT JUMPDEST POP GAS CALL ISZERO DUP1 ISZERO PUSH2 0x3522 JUMPI RETURNDATASIZE PUSH0 DUP1 RETURNDATACOPY RETURNDATASIZE PUSH0 REVERT JUMPDEST POP POP POP POP POP JUMPDEST PUSH1 0x7 SLOAD PUSH1 0x40 MLOAD PUSH4 0x79212195 PUSH1 0xE1 SHL DUP2 MSTORE ADDRESS PUSH1 0x4 DUP3 ADD MSTORE CALLER PUSH1 0x24 DUP3 ADD MSTORE PUSH1 0x44 DUP2 ADD DUP6 SWAP1 MSTORE PUSH1 0x64 DUP2 ADD DUP7 SWAP1 MSTORE PUSH1 0xA0 PUSH1 0x84 DUP3 ADD MSTORE PUSH0 PUSH1 0xA4 DUP3 ADD MSTORE PUSH1 0x1 PUSH1 0x1 PUSH1 0xA0 SHL SUB SWAP1 SWAP2 AND SWAP1 PUSH4 0xF242432A SWAP1 PUSH1 0xC4 ADD PUSH2 0xC39 JUMP JUMPDEST PUSH0 PUSH9 0x400000000000000000 DUP3 PUSH1 0xF SIGNEXTEND SLT PUSH2 0x3591 JUMPI PUSH0 DUP1 REVERT JUMPDEST PUSH9 0x3FFFFFFFFFFFFFFFFF NOT DUP3 PUSH1 0xF SIGNEXTEND SLT ISZERO PUSH2 0x35AD JUMPI POP PUSH0 SWAP2 SWAP1 POP JUMP JUMPDEST PUSH16 0x80000000000000000000000000000000 PUSH0 PUSH8 0x8000000000000000 DUP5 AND PUSH1 0xF SIGNEXTEND SGT ISZERO PUSH2 0x35EA JUMPI PUSH17 0x16A09E667F3BCC908B2FB1366EA957D3E MUL PUSH1 0x80 SHR JUMPDEST PUSH0 DUP4 PUSH8 0x4000000000000000 AND PUSH1 0xF SIGNEXTEND SGT ISZERO PUSH2 0x3616 JUMPI PUSH17 0x1306FE0A31B7152DE8D5A46305C85EDEC MUL PUSH1 0x80 SHR JUMPDEST PUSH0 DUP4 PUSH8 0x2000000000000000 AND PUSH1 0xF SIGNEXTEND SGT ISZERO PUSH2 0x3642 JUMPI PUSH17 0x1172B83C7D517ADCDF7C8C50EB14A791F MUL PUSH1 0x80 SHR JUMPDEST PUSH0 DUP4 PUSH8 0x1000000000000000 AND PUSH1 0xF SIGNEXTEND SGT ISZERO PUSH2 0x366E JUMPI PUSH17 0x10B5586CF9890F6298B92B71842A98363 MUL PUSH1 0x80 SHR JUMPDEST PUSH0 DUP4 PUSH8 0x800000000000000 AND PUSH1 0xF SIGNEXTEND SGT ISZERO PUSH2 0x369A JUMPI PUSH17 0x1059B0D31585743AE7C548EB68CA417FD MUL PUSH1 0x80 SHR JUMPDEST PUSH0 DUP4 PUSH8 0x400000000000000 AND PUSH1 0xF SIGNEXTEND SGT ISZERO PUSH2 0x36C6 JUMPI PUSH17 0x102C9A3E778060EE6F7CACA4F7A29BDE8 MUL PUSH1 0x80 SHR JUMPDEST PUSH0 DUP4 PUSH8 0x200000000000000 AND PUSH1 0xF SIGNEXTEND SGT ISZERO PUSH2 0x36F2 JUMPI PUSH17 0x10163DA9FB33356D84A66AE336DCDFA3F MUL PUSH1 0x80 SHR JUMPDEST PUSH0 DUP4 PUSH8 0x100000000000000 AND PUSH1 0xF SIGNEXTEND SGT ISZERO PUSH2 0x371E JUMPI PUSH17 0x100B1AFA5ABCBED6129AB13EC11DC9543 MUL PUSH1 0x80 SHR JUMPDEST PUSH0 DUP4 PUSH7 0x80000000000000 AND PUSH1 0xF SIGNEXTEND SGT ISZERO PUSH2 0x3749 JUMPI PUSH17 0x10058C86DA1C09EA1FF19D294CF2F679B MUL PUSH1 0x80 SHR JUMPDEST PUSH0 DUP4 PUSH7 0x40000000000000 AND PUSH1 0xF SIGNEXTEND SGT ISZERO PUSH2 0x3774 JUMPI PUSH17 0x1002C605E2E8CEC506D21BFC89A23A00F MUL PUSH1 0x80 SHR JUMPDEST PUSH0 DUP4 PUSH7 0x20000000000000 AND PUSH1 0xF SIGNEXTEND SGT ISZERO PUSH2 0x379F JUMPI PUSH17 0x100162F3904051FA128BCA9C55C31E5DF MUL PUSH1 0x80 SHR JUMPDEST PUSH0 DUP4 PUSH7 0x10000000000000 AND PUSH1 0xF SIGNEXTEND SGT ISZERO PUSH2 0x37CA JUMPI PUSH17 0x1000B175EFFDC76BA38E31671CA939725 MUL PUSH1 0x80 SHR JUMPDEST PUSH0 DUP4 PUSH7 0x8000000000000 AND PUSH1 0xF SIGNEXTEND SGT ISZERO PUSH2 0x37F5 JUMPI PUSH17 0x100058BA01FB9F96D6CACD4B180917C3D MUL PUSH1 0x80 SHR JUMPDEST PUSH0 DUP4 PUSH7 0x4000000000000 AND PUSH1 0xF SIGNEXTEND SGT ISZERO PUSH2 0x3820 JUMPI PUSH17 0x10002C5CC37DA9491D0985C348C68E7B3 MUL PUSH1 0x80 SHR JUMPDEST PUSH0 DUP4 PUSH7 0x2000000000000 AND PUSH1 0xF SIGNEXTEND SGT ISZERO PUSH2 0x384B JUMPI PUSH17 0x1000162E525EE054754457D5995292026 MUL PUSH1 0x80 SHR JUMPDEST PUSH0 DUP4 PUSH7 0x1000000000000 AND PUSH1 0xF SIGNEXTEND SGT ISZERO PUSH2 0x3876 JUMPI PUSH17 0x10000B17255775C040618BF4A4ADE83FC MUL PUSH1 0x80 SHR JUMPDEST PUSH0 DUP4 PUSH6 0x800000000000 AND PUSH1 0xF SIGNEXTEND SGT ISZERO PUSH2 0x38A0 JUMPI PUSH17 0x1000058B91B5BC9AE2EED81E9B7D4CFAB MUL PUSH1 0x80 SHR JUMPDEST PUSH0 DUP4 PUSH6 0x400000000000 AND PUSH1 0xF SIGNEXTEND SGT ISZERO PUSH2 0x38CA JUMPI PUSH17 0x100002C5C89D5EC6CA4D7C8ACC017B7C9 MUL PUSH1 0x80 SHR JUMPDEST PUSH0 DUP4 PUSH6 0x200000000000 AND PUSH1 0xF SIGNEXTEND SGT ISZERO PUSH2 0x38F4 JUMPI PUSH17 0x10000162E43F4F831060E02D839A9D16D MUL PUSH1 0x80 SHR JUMPDEST PUSH0 DUP4 PUSH6 0x100000000000 AND PUSH1 0xF SIGNEXTEND SGT ISZERO PUSH2 0x391E JUMPI PUSH17 0x100000B1721BCFC99D9F890EA06911763 MUL PUSH1 0x80 SHR JUMPDEST PUSH0 DUP4 PUSH6 0x80000000000 AND PUSH1 0xF SIGNEXTEND SGT ISZERO PUSH2 0x3948 JUMPI PUSH17 0x10000058B90CF1E6D97F9CA14DBCC1628 MUL PUSH1 0x80 SHR JUMPDEST PUSH0 DUP4 PUSH6 0x40000000000 AND PUSH1 0xF SIGNEXTEND SGT ISZERO PUSH2 0x3972 JUMPI PUSH17 0x1000002C5C863B73F016468F6BAC5CA2B MUL PUSH1 0x80 SHR JUMPDEST PUSH0 DUP4 PUSH6 0x20000000000 AND PUSH1 0xF SIGNEXTEND SGT ISZERO PUSH2 0x399C JUMPI PUSH17 0x100000162E430E5A18F6119E3C02282A5 MUL PUSH1 0x80 SHR JUMPDEST PUSH0 DUP4 PUSH6 0x10000000000 AND PUSH1 0xF SIGNEXTEND SGT ISZERO PUSH2 0x39C6 JUMPI PUSH17 0x1000000B1721835514B86E6D96EFD1BFE MUL PUSH1 0x80 SHR JUMPDEST PUSH0 DUP4 PUSH5 0x8000000000 AND PUSH1 0xF SIGNEXTEND SGT ISZERO PUSH2 0x39EF JUMPI PUSH17 0x100000058B90C0B48C6BE5DF846C5B2EF MUL PUSH1 0x80 SHR JUMPDEST PUSH0 DUP4 PUSH5 0x4000000000 AND PUSH1 0xF SIGNEXTEND SGT ISZERO PUSH2 0x3A18 JUMPI PUSH17 0x10000002C5C8601CC6B9E94213C72737A MUL PUSH1 0x80 SHR JUMPDEST PUSH0 DUP4 PUSH5 0x2000000000 AND PUSH1 0xF SIGNEXTEND SGT ISZERO PUSH2 0x3A41 JUMPI PUSH17 0x1000000162E42FFF037DF38AA2B219F06 MUL PUSH1 0x80 SHR JUMPDEST PUSH0 DUP4 PUSH5 0x1000000000 AND PUSH1 0xF SIGNEXTEND SGT ISZERO PUSH2 0x3A6A JUMPI PUSH17 0x10000000B17217FBA9C739AA5819F44F9 MUL PUSH1 0x80 SHR JUMPDEST PUSH0 DUP4 PUSH5 0x800000000 AND PUSH1 0xF SIGNEXTEND SGT ISZERO PUSH2 0x3A93 JUMPI PUSH17 0x1000000058B90BFCDEE5ACD3C1CEDC823 MUL PUSH1 0x80 SHR JUMPDEST PUSH0 DUP4 PUSH5 0x400000000 AND PUSH1 0xF SIGNEXTEND SGT ISZERO PUSH2 0x3ABC JUMPI PUSH17 0x100000002C5C85FE31F35A6A30DA1BE50 MUL PUSH1 0x80 SHR JUMPDEST PUSH0 DUP4 PUSH5 0x200000000 AND PUSH1 0xF SIGNEXTEND SGT ISZERO PUSH2 0x3AE5 JUMPI PUSH17 0x10000000162E42FF0999CE3541B9FFFCF MUL PUSH1 0x80 SHR JUMPDEST PUSH0 DUP4 PUSH5 0x100000000 AND PUSH1 0xF SIGNEXTEND SGT ISZERO PUSH2 0x3B0E JUMPI PUSH17 0x100000000B17217F80F4EF5AADDA45554 MUL PUSH1 0x80 SHR JUMPDEST PUSH0 DUP4 PUSH4 0x80000000 AND PUSH1 0xF SIGNEXTEND SGT ISZERO PUSH2 0x3B36 JUMPI PUSH17 0x10000000058B90BFBF8479BD5A81B51AD MUL PUSH1 0x80 SHR JUMPDEST PUSH0 DUP4 PUSH4 0x40000000 AND PUSH1 0xF SIGNEXTEND SGT ISZERO PUSH2 0x3B5E JUMPI PUSH17 0x1000000002C5C85FDF84BD62AE30A74CC MUL PUSH1 0x80 SHR JUMPDEST PUSH0 DUP4 PUSH4 0x20000000 AND PUSH1 0xF SIGNEXTEND SGT ISZERO PUSH2 0x3B86 JUMPI PUSH17 0x100000000162E42FEFB2FED257559BDAA MUL PUSH1 0x80 SHR JUMPDEST PUSH0 DUP4 PUSH4 0x10000000 AND PUSH1 0xF SIGNEXTEND SGT ISZERO PUSH2 0x3BAE JUMPI PUSH17 0x1000000000B17217F7D5A7716BBA4A9AE MUL PUSH1 0x80 SHR JUMPDEST PUSH0 DUP4 PUSH4 0x8000000 AND PUSH1 0xF SIGNEXTEND SGT ISZERO PUSH2 0x3BD6 JUMPI PUSH17 0x100000000058B90BFBE9DDBAC5E109CCE MUL PUSH1 0x80 SHR JUMPDEST PUSH0 DUP4 PUSH4 0x4000000 AND PUSH1 0xF SIGNEXTEND SGT ISZERO PUSH2 0x3BFE JUMPI PUSH17 0x10000000002C5C85FDF4B15DE6F17EB0D MUL PUSH1 0x80 SHR JUMPDEST PUSH0 DUP4 PUSH4 0x2000000 AND PUSH1 0xF SIGNEXTEND SGT ISZERO PUSH2 0x3C26 JUMPI PUSH17 0x1000000000162E42FEFA494F1478FDE05 MUL PUSH1 0x80 SHR JUMPDEST PUSH0 DUP4 PUSH4 0x1000000 AND PUSH1 0xF SIGNEXTEND SGT ISZERO PUSH2 0x3C4E JUMPI PUSH17 0x10000000000B17217F7D20CF927C8E94C MUL PUSH1 0x80 SHR JUMPDEST PUSH0 DUP4 PUSH3 0x800000 AND PUSH1 0xF SIGNEXTEND SGT ISZERO PUSH2 0x3C75 JUMPI PUSH17 0x1000000000058B90BFBE8F71CB4E4B33D MUL PUSH1 0x80 SHR JUMPDEST PUSH0 DUP4 PUSH3 0x400000 AND PUSH1 0xF SIGNEXTEND SGT ISZERO PUSH2 0x3C9C JUMPI PUSH17 0x100000000002C5C85FDF477B662B26945 MUL PUSH1 0x80 SHR JUMPDEST PUSH0 DUP4 PUSH3 0x200000 AND PUSH1 0xF SIGNEXTEND SGT ISZERO PUSH2 0x3CC3 JUMPI PUSH17 0x10000000000162E42FEFA3AE53369388C MUL PUSH1 0x80 SHR JUMPDEST PUSH0 DUP4 PUSH3 0x100000 AND PUSH1 0xF SIGNEXTEND SGT ISZERO PUSH2 0x3CEA JUMPI PUSH17 0x100000000000B17217F7D1D351A389D40 MUL PUSH1 0x80 SHR JUMPDEST PUSH0 DUP4 PUSH3 0x80000 AND PUSH1 0xF SIGNEXTEND SGT ISZERO PUSH2 0x3D11 JUMPI PUSH17 0x10000000000058B90BFBE8E8B2D3D4EDE MUL PUSH1 0x80 SHR JUMPDEST PUSH0 DUP4 PUSH3 0x40000 AND PUSH1 0xF SIGNEXTEND SGT ISZERO PUSH2 0x3D38 JUMPI PUSH17 0x1000000000002C5C85FDF4741BEA6E77E MUL PUSH1 0x80 SHR JUMPDEST PUSH0 DUP4 PUSH3 0x20000 AND PUSH1 0xF SIGNEXTEND SGT ISZERO PUSH2 0x3D5F JUMPI PUSH17 0x100000000000162E42FEFA39FE95583C2 MUL PUSH1 0x80 SHR JUMPDEST PUSH0 DUP4 PUSH3 0x10000 AND PUSH1 0xF SIGNEXTEND SGT ISZERO PUSH2 0x3D86 JUMPI PUSH17 0x1000000000000B17217F7D1CFB72B45E1 MUL PUSH1 0x80 SHR JUMPDEST PUSH0 DUP4 PUSH2 0x8000 AND PUSH1 0xF SIGNEXTEND SGT ISZERO PUSH2 0x3DAC JUMPI PUSH17 0x100000000000058B90BFBE8E7CC35C3F0 MUL PUSH1 0x80 SHR JUMPDEST PUSH0 DUP4 PUSH2 0x4000 AND PUSH1 0xF SIGNEXTEND SGT ISZERO PUSH2 0x3DD2 JUMPI PUSH17 0x10000000000002C5C85FDF473E242EA38 MUL PUSH1 0x80 SHR JUMPDEST PUSH0 DUP4 PUSH2 0x2000 AND PUSH1 0xF SIGNEXTEND SGT ISZERO PUSH2 0x3DF8 JUMPI PUSH17 0x1000000000000162E42FEFA39F02B772C MUL PUSH1 0x80 SHR JUMPDEST PUSH0 DUP4 PUSH2 0x1000 AND PUSH1 0xF SIGNEXTEND SGT ISZERO PUSH2 0x3E1E JUMPI PUSH17 0x10000000000000B17217F7D1CF7D83C1A MUL PUSH1 0x80 SHR JUMPDEST PUSH0 DUP4 PUSH2 0x800 AND PUSH1 0xF SIGNEXTEND SGT ISZERO PUSH2 0x3E44 JUMPI PUSH17 0x1000000000000058B90BFBE8E7BDCBE2E MUL PUSH1 0x80 SHR JUMPDEST PUSH0 DUP4 PUSH2 0x400 AND PUSH1 0xF SIGNEXTEND SGT ISZERO PUSH2 0x3E6A JUMPI PUSH17 0x100000000000002C5C85FDF473DEA871F MUL PUSH1 0x80 SHR JUMPDEST PUSH0 DUP4 PUSH2 0x200 AND PUSH1 0xF SIGNEXTEND SGT ISZERO PUSH2 0x3E90 JUMPI PUSH17 0x10000000000000162E42FEFA39EF44D91 MUL PUSH1 0x80 SHR JUMPDEST PUSH0 DUP4 PUSH2 0x100 AND PUSH1 0xF SIGNEXTEND SGT ISZERO PUSH2 0x3EB6 JUMPI PUSH17 0x100000000000000B17217F7D1CF79E949 MUL PUSH1 0x80 SHR JUMPDEST PUSH0 DUP4 PUSH1 0x80 AND PUSH1 0xF SIGNEXTEND SGT ISZERO PUSH2 0x3EDB JUMPI PUSH17 0x10000000000000058B90BFBE8E7BCE544 MUL PUSH1 0x80 SHR JUMPDEST PUSH0 DUP4 PUSH1 0x40 AND PUSH1 0xF SIGNEXTEND SGT ISZERO PUSH2 0x3F00 JUMPI PUSH17 0x1000000000000002C5C85FDF473DE6ECA MUL PUSH1 0x80 SHR JUMPDEST PUSH0 DUP4 PUSH1 0x20 AND PUSH1 0xF SIGNEXTEND SGT ISZERO PUSH2 0x3F25 JUMPI PUSH17 0x100000000000000162E42FEFA39EF366F MUL PUSH1 0x80 SHR JUMPDEST PUSH0 DUP4 PUSH1 0x10 AND PUSH1 0xF SIGNEXTEND SGT ISZERO PUSH2 0x3F4A JUMPI PUSH17 0x1000000000000000B17217F7D1CF79AFA MUL PUSH1 0x80 SHR JUMPDEST PUSH0 DUP4 PUSH1 0x8 AND PUSH1 0xF SIGNEXTEND SGT ISZERO PUSH2 0x3F6F JUMPI PUSH17 0x100000000000000058B90BFBE8E7BCD6D MUL PUSH1 0x80 SHR JUMPDEST PUSH0 DUP4 PUSH1 0x4 AND PUSH1 0xF SIGNEXTEND SGT ISZERO PUSH2 0x3F94 JUMPI PUSH17 0x10000000000000002C5C85FDF473DE6B2 MUL PUSH1 0x80 SHR JUMPDEST PUSH0 DUP4 PUSH1 0x2 AND PUSH1 0xF SIGNEXTEND SGT ISZERO PUSH2 0x3FB9 JUMPI PUSH17 0x1000000000000000162E42FEFA39EF358 MUL PUSH1 0x80 SHR JUMPDEST PUSH0 DUP4 PUSH1 0x1 AND PUSH1 0xF SIGNEXTEND SGT ISZERO PUSH2 0x3FDE JUMPI PUSH17 0x10000000000000000B17217F7D1CF79AB MUL PUSH1 0x80 SHR JUMPDEST PUSH1 0xF DUP4 DUP2 SIGNEXTEND PUSH1 0x40 SAR PUSH1 0x3F SUB SWAP1 SIGNEXTEND SHR PUSH1 0x1 PUSH1 0x1 PUSH1 0x7F SHL SUB DUP2 GT ISZERO PUSH2 0x65F JUMPI PUSH0 DUP1 REVERT JUMPDEST PUSH0 DUP1 DUP3 PUSH1 0xF SIGNEXTEND SGT PUSH2 0x400E JUMPI PUSH0 DUP1 REVERT JUMPDEST PUSH0 PUSH1 0xF DUP4 SWAP1 SIGNEXTEND PUSH9 0x10000000000000000 DUP2 SLT PUSH2 0x402C JUMPI PUSH1 0x40 SWAP2 DUP3 ADD SWAP2 SAR JUMPDEST PUSH5 0x100000000 DUP2 SLT PUSH2 0x4040 JUMPI PUSH1 0x20 SWAP2 DUP3 ADD SWAP2 SAR JUMPDEST PUSH3 0x10000 DUP2 SLT PUSH2 0x4052 JUMPI PUSH1 0x10 SWAP2 DUP3 ADD SWAP2 SAR JUMPDEST PUSH2 0x100 DUP2 SLT PUSH2 0x4063 JUMPI PUSH1 0x8 SWAP2 DUP3 ADD SWAP2 SAR JUMPDEST PUSH1 0x10 DUP2 SLT PUSH2 0x4073 JUMPI PUSH1 0x4 SWAP2 DUP3 ADD SWAP2 SAR JUMPDEST PUSH1 0x4 DUP2 SLT PUSH2 0x4083 JUMPI PUSH1 0x2 SWAP2 DUP3 ADD SWAP2 SAR JUMPDEST PUSH1 0x2 DUP2 SLT PUSH2 0x4092 JUMPI PUSH1 0x1 DUP3 ADD SWAP2 POP JUMPDEST PUSH1 0x3F NOT DUP3 ADD PUSH1 0x40 SHL PUSH1 0xF DUP6 SWAP1 SIGNEXTEND PUSH1 0x7F DUP5 SWAP1 SUB SHL PUSH8 0x8000000000000000 JUMPDEST PUSH0 DUP2 SGT ISZERO PUSH2 0x1DF0 JUMPI SWAP1 DUP1 MUL PUSH1 0xFF DUP2 SWAP1 SHR DUP3 DUP2 MUL SWAP4 SWAP1 SWAP4 ADD SWAP3 PUSH1 0x7F ADD SHR SWAP1 PUSH1 0x1 SAR PUSH2 0x40AF JUMP JUMPDEST PUSH0 DUP2 PUSH0 SUB PUSH2 0x40E0 JUMPI PUSH0 DUP1 REVERT JUMPDEST PUSH0 PUSH24 0xFFFFFFFFFFFFFFFFFFFFFFFFFFFFFFFFFFFFFFFFFFFFFFFF DUP5 GT PUSH2 0x411B JUMPI DUP3 PUSH1 0x40 DUP6 SWAP1 SHL DUP2 PUSH2 0x4113 JUMPI PUSH2 0x4113 PUSH2 0x4ACE JUMP JUMPDEST DIV SWAP1 POP PUSH2 0x4231 JUMP JUMPDEST PUSH1 0xC0 DUP5 DUP2 SHR PUSH5 0x100000000 DUP2 LT PUSH2 0x4134 JUMPI PUSH1 0x20 SWAP2 DUP3 ADD SWAP2 SHR JUMPDEST PUSH3 0x10000 DUP2 LT PUSH2 0x4146 JUMPI PUSH1 0x10 SWAP2 DUP3 ADD SWAP2 SHR JUMPDEST PUSH2 0x100 DUP2 LT PUSH2 0x4157 JUMPI PUSH1 0x8 SWAP2 DUP3 ADD SWAP2 SHR JUMPDEST PUSH1 0x10 DUP2 LT PUSH2 0x4167 JUMPI PUSH1 0x4 SWAP2 DUP3 ADD SWAP2 SHR JUMPDEST PUSH1 0x4 DUP2 LT PUSH2 0x4177 JUMPI PUSH1 0x2 SWAP2 DUP3 ADD SWAP2 SHR JUMPDEST PUSH1 0x2 DUP2 LT PUSH2 0x4186 JUMPI PUSH1 0x1 DUP3 ADD SWAP2 POP JUMPDEST PUSH1 0xBF DUP3 SUB PUSH1 0x1 DUP7 SUB SWAP1 SHR PUSH1 0x1 ADD DUP3 PUSH1 0xFF SUB DUP8 SWAP1 SHL DUP2 PUSH2 0x41A7 JUMPI PUSH2 0x41A7 PUSH2 0x4ACE JUMP JUMPDEST DIV SWAP3 POP PUSH1 0x1 PUSH1 0x1 PUSH1 0x80 SHL SUB DUP4 GT ISZERO PUSH2 0x41BD JUMPI PUSH0 DUP1 REVERT JUMPDEST PUSH1 0x80 DUP6 SWAP1 SHR DUP4 MUL PUSH1 0x1 PUSH1 0x1 PUSH1 0x80 SHL SUB DUP7 AND DUP5 MUL PUSH1 0xC0 DUP9 SWAP1 SHR PUSH1 0x40 DUP10 SWAP1 SHL DUP3 DUP2 LT ISZERO PUSH2 0x41E9 JUMPI PUSH1 0x1 DUP3 SUB SWAP2 POP JUMPDEST PUSH1 0x80 DUP5 SWAP1 SHL SWAP3 SWAP1 SUB DUP3 DUP2 LT ISZERO PUSH2 0x4200 JUMPI PUSH1 0x1 DUP3 SUB SWAP2 POP JUMPDEST DUP3 SWAP1 SUB PUSH1 0x80 DUP5 SWAP1 SHR DUP3 EQ PUSH2 0x4215 JUMPI PUSH1 0x1 PUSH2 0x4226 JUMP JUMPDEST DUP9 DUP2 DUP2 PUSH2 0x4224 JUMPI PUSH2 0x4224 PUSH2 0x4ACE JUMP JUMPDEST DIV JUMPDEST DUP8 ADD SWAP7 POP POP POP POP POP POP POP JUMPDEST PUSH1 0x1 PUSH1 0x1 PUSH1 0x80 SHL SUB DUP2 GT ISZERO PUSH2 0x1AA1 JUMPI PUSH0 DUP1 REVERT JUMPDEST PUSH0 DUP1 PUSH1 0x20 PUSH0 DUP5 MLOAD PUSH1 0x20 DUP7 ADD PUSH0 DUP9 GAS CALL DUP1 PUSH2 0x4263 JUMPI PUSH1 0x40 MLOAD RETURNDATASIZE PUSH0 DUP3 RETURNDATACOPY RETURNDATASIZE DUP2 REVERT JUMPDEST POP POP PUSH0 MLOAD RETURNDATASIZE SWAP2 POP DUP2 ISZERO PUSH2 0x427A JUMPI DUP1 PUSH1 0x1 EQ ISZERO PUSH2 0x4287 JUMP JUMPDEST PUSH1 0x1 PUSH1 0x1 PUSH1 0xA0 SHL SUB DUP5 AND EXTCODESIZE ISZERO JUMPDEST ISZERO PUSH2 0x2F5B JUMPI PUSH1 0x40 MLOAD PUSH4 0x5274AFE7 PUSH1 0xE0 SHL DUP2 MSTORE PUSH1 0x1 PUSH1 0x1 PUSH1 0xA0 SHL SUB DUP6 AND PUSH1 0x4 DUP3 ADD MSTORE PUSH1 0x24 ADD PUSH2 0x618 JUMP JUMPDEST PUSH0 PUSH1 0x20 DUP3 DUP5 SUB SLT ISZERO PUSH2 0x42C0 JUMPI PUSH0 DUP1 REVERT JUMPDEST DUP2 CALLDATALOAD PUSH1 0x1 PUSH1 0x1 PUSH1 0xE0 SHL SUB NOT DUP2 AND DUP2 EQ PUSH2 0x1AA1 JUMPI PUSH0 DUP1 REVERT JUMPDEST DUP1 CALLDATALOAD PUSH1 0x1 PUSH1 0x1 PUSH1 0xA0 SHL SUB DUP2 AND DUP2 EQ PUSH2 0x2FF1 JUMPI PUSH0 DUP1 REVERT JUMPDEST DUP1 CALLDATALOAD PUSH1 0xF DUP2 SWAP1 SIGNEXTEND DUP2 EQ PUSH2 0x2FF1 JUMPI PUSH0 DUP1 REVERT JUMPDEST PUSH0 DUP1 PUSH1 0x40 DUP4 DUP6 SUB SLT ISZERO PUSH2 0x430F JUMPI PUSH0 DUP1 REVERT JUMPDEST PUSH2 0x4318 DUP4 PUSH2 0x42D7 JUMP JUMPDEST SWAP2 POP PUSH2 0x4326 PUSH1 0x20 DUP5 ADD PUSH2 0x42ED JUMP JUMPDEST SWAP1 POP SWAP3 POP SWAP3 SWAP1 POP JUMP JUMPDEST PUSH0 DUP1 PUSH1 0x40 DUP4 DUP6 SUB SLT ISZERO PUSH2 0x4340 JUMPI PUSH0 DUP1 REVERT JUMPDEST POP POP DUP1 CALLDATALOAD SWAP3 PUSH1 0x20 SWAP1 SWAP2 ADD CALLDATALOAD SWAP2 POP JUMP JUMPDEST PUSH0 DUP1 PUSH1 0x40 DUP4 DUP6 SUB SLT ISZERO PUSH2 0x4360 JUMPI PUSH0 DUP1 REVERT JUMPDEST PUSH2 0x4369 DUP4 PUSH2 0x42D7 JUMP JUMPDEST SWAP5 PUSH1 0x20 SWAP4 SWAP1 SWAP4 ADD CALLDATALOAD SWAP4 POP POP POP JUMP JUMPDEST PUSH0 PUSH1 0x20 DUP3 DUP5 SUB SLT ISZERO PUSH2 0x4387 JUMPI PUSH0 DUP1 REVERT JUMPDEST POP CALLDATALOAD SWAP2 SWAP1 POP JUMP JUMPDEST PUSH0 DUP1 PUSH0 DUP1 PUSH0 DUP1 PUSH1 0xC0 DUP8 DUP10 SUB SLT ISZERO PUSH2 0x43A3 JUMPI PUSH0 DUP1 REVERT JUMPDEST PUSH2 0x43AC DUP8 PUSH2 0x42D7 JUMP JUMPDEST SWAP9 PUSH1 0x20 DUP9 ADD CALLDATALOAD SWAP9 POP PUSH1 0x40 DUP9 ADD CALLDATALOAD SWAP8 PUSH1 0x60 DUP2 ADD CALLDATALOAD SWAP8 POP PUSH1 0x80 DUP2 ADD CALLDATALOAD SWAP7 POP PUSH1 0xA0 ADD CALLDATALOAD SWAP5 POP SWAP3 POP POP POP JUMP JUMPDEST PUSH4 0x4E487B71 PUSH1 0xE0 SHL PUSH0 MSTORE PUSH1 0x41 PUSH1 0x4 MSTORE PUSH1 0x24 PUSH0 REVERT JUMPDEST PUSH1 0x1F DUP3 ADD PUSH1 0x1F NOT AND DUP2 ADD PUSH8 0xFFFFFFFFFFFFFFFF DUP2 GT DUP3 DUP3 LT OR ISZERO PUSH2 0x440E JUMPI PUSH2 0x440E PUSH2 0x43D4 JUMP JUMPDEST PUSH1 0x40 MSTORE POP POP JUMP JUMPDEST PUSH0 PUSH1 0x20 DUP1 DUP4 DUP6 SUB SLT ISZERO PUSH2 0x4426 JUMPI PUSH0 DUP1 REVERT JUMPDEST DUP3 CALLDATALOAD PUSH8 0xFFFFFFFFFFFFFFFF DUP1 DUP3 GT ISZERO PUSH2 0x443D JUMPI PUSH0 DUP1 REVERT JUMPDEST DUP2 DUP6 ADD SWAP2 POP DUP6 PUSH1 0x1F DUP4 ADD SLT PUSH2 0x4450 JUMPI PUSH0 DUP1 REVERT JUMPDEST DUP2 CALLDATALOAD DUP2 DUP2 GT ISZERO PUSH2 0x4462 JUMPI PUSH2 0x4462 PUSH2 0x43D4 JUMP JUMPDEST PUSH1 0x40 MLOAD SWAP2 POP PUSH2 0x447A PUSH1 0x1F DUP3 ADD PUSH1 0x1F NOT AND DUP6 ADD DUP4 PUSH2 0x43E8 JUMP JUMPDEST DUP1 DUP3 MSTORE DUP7 DUP5 DUP3 DUP6 ADD ADD GT ISZERO PUSH2 0x448D JUMPI PUSH0 DUP1 REVERT JUMPDEST DUP1 DUP5 DUP5 ADD DUP6 DUP5 ADD CALLDATACOPY PUSH0 SWAP1 DUP3 ADD SWAP1 SWAP4 ADD SWAP3 SWAP1 SWAP3 MSTORE POP SWAP4 SWAP3 POP POP POP JUMP JUMPDEST PUSH0 DUP1 PUSH1 0x40 DUP4 DUP6 SUB SLT ISZERO PUSH2 0x44B9 JUMPI PUSH0 DUP1 REVERT JUMPDEST DUP3 CALLDATALOAD SWAP2 POP PUSH2 0x4326 PUSH1 0x20 DUP5 ADD PUSH2 0x42ED JUMP JUMPDEST PUSH0 DUP2 MLOAD DUP1 DUP5 MSTORE PUSH1 0x20 DUP1 DUP6 ADD SWAP5 POP PUSH1 0x20 DUP5 ADD PUSH0 JUMPDEST DUP4 DUP2 LT ISZERO PUSH2 0x44F8 JUMPI DUP2 MLOAD DUP8 MSTORE SWAP6 DUP3 ADD SWAP6 SWAP1 DUP3 ADD SWAP1 PUSH1 0x1 ADD PUSH2 0x44DC JUMP JUMPDEST POP SWAP5 SWAP6 SWAP5 POP POP POP POP POP JUMP JUMPDEST PUSH1 0x20 DUP2 MSTORE PUSH0 PUSH2 0x1AA1 PUSH1 0x20 DUP4 ADD DUP5 PUSH2 0x44C9 JUMP JUMPDEST PUSH0 DUP1 DUP4 PUSH1 0x1F DUP5 ADD SLT PUSH2 0x4525 JUMPI PUSH0 DUP1 REVERT JUMPDEST POP DUP2 CALLDATALOAD PUSH8 0xFFFFFFFFFFFFFFFF DUP2 GT ISZERO PUSH2 0x453C JUMPI PUSH0 DUP1 REVERT JUMPDEST PUSH1 0x20 DUP4 ADD SWAP2 POP DUP4 PUSH1 0x20 DUP3 PUSH1 0x5 SHL DUP6 ADD ADD GT ISZERO PUSH2 0x4556 JUMPI PUSH0 DUP1 REVERT JUMPDEST SWAP3 POP SWAP3 SWAP1 POP JUMP JUMPDEST PUSH0 DUP1 DUP4 PUSH1 0x1F DUP5 ADD SLT PUSH2 0x456D JUMPI PUSH0 DUP1 REVERT JUMPDEST POP DUP2 CALLDATALOAD PUSH8 0xFFFFFFFFFFFFFFFF DUP2 GT ISZERO PUSH2 0x4584 JUMPI PUSH0 DUP1 REVERT JUMPDEST PUSH1 0x20 DUP4 ADD SWAP2 POP DUP4 PUSH1 0x20 DUP3 DUP6 ADD ADD GT ISZERO PUSH2 0x4556 JUMPI PUSH0 DUP1 REVERT JUMPDEST PUSH0 DUP1 PUSH0 DUP1 PUSH0 DUP1 PUSH0 DUP1 PUSH1 0xA0 DUP10 DUP12 SUB SLT ISZERO PUSH2 0x45B2 JUMPI PUSH0 DUP1 REVERT JUMPDEST PUSH2 0x45BB DUP10 PUSH2 0x42D7 JUMP JUMPDEST SWAP8 POP PUSH2 0x45C9 PUSH1 0x20 DUP11 ADD PUSH2 0x42D7 JUMP JUMPDEST SWAP7 POP PUSH1 0x40 DUP10 ADD CALLDATALOAD PUSH8 0xFFFFFFFFFFFFFFFF DUP1 DUP3 GT ISZERO PUSH2 0x45E5 JUMPI PUSH0 DUP1 REVERT JUMPDEST PUSH2 0x45F1 DUP13 DUP4 DUP14 ADD PUSH2 0x4515 JUMP JUMPDEST SWAP1 SWAP9 POP SWAP7 POP PUSH1 0x60 DUP12 ADD CALLDATALOAD SWAP2 POP DUP1 DUP3 GT ISZERO PUSH2 0x4609 JUMPI PUSH0 DUP1 REVERT JUMPDEST PUSH2 0x4615 DUP13 DUP4 DUP14 ADD PUSH2 0x4515 JUMP JUMPDEST SWAP1 SWAP7 POP SWAP5 POP PUSH1 0x80 DUP12 ADD CALLDATALOAD SWAP2 POP DUP1 DUP3 GT ISZERO PUSH2 0x462D JUMPI PUSH0 DUP1 REVERT JUMPDEST POP PUSH2 0x463A DUP12 DUP3 DUP13 ADD PUSH2 0x455D JUMP JUMPDEST SWAP10 SWAP13 SWAP9 SWAP12 POP SWAP7 SWAP10 POP SWAP5 SWAP8 SWAP4 SWAP7 SWAP3 SWAP6 SWAP5 POP POP POP JUMP JUMPDEST PUSH0 DUP1 PUSH0 DUP1 PUSH0 DUP1 PUSH1 0xA0 DUP8 DUP10 SUB SLT ISZERO PUSH2 0x4663 JUMPI PUSH0 DUP1 REVERT JUMPDEST PUSH2 0x466C DUP8 PUSH2 0x42D7 JUMP JUMPDEST SWAP6 POP PUSH2 0x467A PUSH1 0x20 DUP9 ADD PUSH2 0x42D7 JUMP JUMPDEST SWAP5 POP PUSH1 0x40 DUP8 ADD CALLDATALOAD SWAP4 POP PUSH1 0x60 DUP8 ADD CALLDATALOAD SWAP3 POP PUSH1 0x80 DUP8 ADD CALLDATALOAD PUSH8 0xFFFFFFFFFFFFFFFF DUP2 GT ISZERO PUSH2 0x46A3 JUMPI PUSH0 DUP1 REVERT JUMPDEST PUSH2 0x46AF DUP10 DUP3 DUP11 ADD PUSH2 0x455D JUMP JUMPDEST SWAP8 SWAP11 SWAP7 SWAP10 POP SWAP5 SWAP8 POP SWAP3 SWAP6 SWAP4 SWAP5 SWAP3 POP POP POP JUMP JUMPDEST PUSH0 PUSH1 0x20 DUP3 DUP5 SUB SLT ISZERO PUSH2 0x46D1 JUMPI PUSH0 DUP1 REVERT JUMPDEST PUSH2 0x1AA1 DUP3 PUSH2 0x42D7 JUMP JUMPDEST PUSH0 PUSH1 0x20 DUP3 DUP5 SUB SLT ISZERO PUSH2 0x46EA JUMPI PUSH0 DUP1 REVERT JUMPDEST DUP2 MLOAD PUSH1 0xFF DUP2 AND DUP2 EQ PUSH2 0x1AA1 JUMPI PUSH0 DUP1 REVERT JUMPDEST PUSH4 0x4E487B71 PUSH1 0xE0 SHL PUSH0 MSTORE PUSH1 0x11 PUSH1 0x4 MSTORE PUSH1 0x24 PUSH0 REVERT JUMPDEST PUSH1 0x1 DUP2 DUP2 JUMPDEST DUP1 DUP6 GT ISZERO PUSH2 0x4748 JUMPI DUP2 PUSH0 NOT DIV DUP3 GT ISZERO PUSH2 0x472E JUMPI PUSH2 0x472E PUSH2 0x46FA JUMP JUMPDEST DUP1 DUP6 AND ISZERO PUSH2 0x473B JUMPI SWAP2 DUP2 MUL SWAP2 JUMPDEST SWAP4 DUP5 SHR SWAP4 SWAP1 DUP1 MUL SWAP1 PUSH2 0x4713 JUMP JUMPDEST POP SWAP3 POP SWAP3 SWAP1 POP JUMP JUMPDEST PUSH0 DUP3 PUSH2 0x475E JUMPI POP PUSH1 0x1 PUSH2 0x65F JUMP JUMPDEST DUP2 PUSH2 0x476A JUMPI POP PUSH0 PUSH2 0x65F JUMP JUMPDEST DUP2 PUSH1 0x1 DUP2 EQ PUSH2 0x4780 JUMPI PUSH1 0x2 DUP2 EQ PUSH2 0x478A JUMPI PUSH2 0x47A6 JUMP JUMPDEST PUSH1 0x1 SWAP2 POP POP PUSH2 0x65F JUMP JUMPDEST PUSH1 0xFF DUP5 GT ISZERO PUSH2 0x479B JUMPI PUSH2 0x479B PUSH2 0x46FA JUMP JUMPDEST POP POP PUSH1 0x1 DUP3 SHL PUSH2 0x65F JUMP JUMPDEST POP PUSH1 0x20 DUP4 LT PUSH2 0x133 DUP4 LT AND PUSH1 0x4E DUP5 LT PUSH1 0xB DUP5 LT AND OR ISZERO PUSH2 0x47C9 JUMPI POP DUP2 DUP2 EXP PUSH2 0x65F JUMP JUMPDEST PUSH2 0x47D3 DUP4 DUP4 PUSH2 0x470E JUMP JUMPDEST DUP1 PUSH0 NOT DIV DUP3 GT ISZERO PUSH2 0x47E6 JUMPI PUSH2 0x47E6 PUSH2 0x46FA JUMP JUMPDEST MUL SWAP4 SWAP3 POP POP POP JUMP JUMPDEST PUSH0 PUSH2 0x1AA1 DUP4 DUP4 PUSH2 0x4750 JUMP JUMPDEST DUP1 DUP3 ADD DUP1 DUP3 GT ISZERO PUSH2 0x65F JUMPI PUSH2 0x65F PUSH2 0x46FA JUMP JUMPDEST PUSH4 0x4E487B71 PUSH1 0xE0 SHL PUSH0 MSTORE PUSH1 0x32 PUSH1 0x4 MSTORE PUSH1 0x24 PUSH0 REVERT JUMPDEST PUSH0 PUSH1 0x20 DUP3 DUP5 SUB SLT ISZERO PUSH2 0x4830 JUMPI PUSH0 DUP1 REVERT JUMPDEST POP MLOAD SWAP2 SWAP1 POP JUMP JUMPDEST DUP3 DUP2 MSTORE PUSH1 0x40 PUSH1 0x20 DUP3 ADD MSTORE PUSH0 PUSH2 0x9CD PUSH1 0x40 DUP4 ADD DUP5 PUSH2 0x44C9 JUMP JUMPDEST PUSH1 0x1 PUSH1 0x1 PUSH1 0xA0 SHL SUB DUP6 AND DUP2 MSTORE DUP4 PUSH1 0x20 DUP3 ADD MSTORE DUP3 PUSH1 0x40 DUP3 ADD MSTORE PUSH1 0x80 PUSH1 0x60 DUP3 ADD MSTORE PUSH0 PUSH2 0x1CF9 PUSH1 0x80 DUP4 ADD DUP5 PUSH2 0x44C9 JUMP JUMPDEST DUP2 DUP2 SUB DUP2 DUP2 GT ISZERO PUSH2 0x65F JUMPI PUSH2 0x65F PUSH2 0x46FA JUMP JUMPDEST PUSH0 DUP2 MLOAD DUP1 PUSH1 0x20 DUP5 ADD DUP6 MCOPY PUSH0 SWAP4 ADD SWAP3 DUP4 MSTORE POP SWAP1 SWAP2 SWAP1 POP JUMP JUMPDEST PUSH0 PUSH2 0x1AA1 DUP3 DUP5 PUSH2 0x488F JUMP JUMPDEST PUSH0 DUP2 PUSH1 0xF SIGNEXTEND PUSH1 0x1 PUSH1 0x1 PUSH1 0x7F SHL SUB NOT DUP2 SUB PUSH2 0x48CD JUMPI PUSH2 0x48CD PUSH2 0x46FA JUMP JUMPDEST PUSH0 SUB SWAP3 SWAP2 POP POP JUMP JUMPDEST PUSH1 0xF DUP3 DUP2 SIGNEXTEND SWAP1 DUP3 SWAP1 SIGNEXTEND SUB PUSH16 0x7FFFFFFFFFFFFFFFFFFFFFFFFFFFFFFF NOT DUP2 SLT PUSH1 0x1 PUSH1 0x1 PUSH1 0x7F SHL SUB DUP3 SGT OR ISZERO PUSH2 0x65F JUMPI PUSH2 0x65F PUSH2 0x46FA JUMP JUMPDEST PUSH0 PUSH1 0x1 DUP3 ADD PUSH2 0x491C JUMPI PUSH2 0x491C PUSH2 0x46FA JUMP JUMPDEST POP PUSH1 0x1 ADD SWAP1 JUMP JUMPDEST PUSH0 PUSH1 0x3 RETURNDATASIZE GT ISZERO PUSH2 0xA3D JUMPI PUSH1 0x4 PUSH0 DUP1 RETURNDATACOPY POP PUSH0 MLOAD PUSH1 0xE0 SHR SWAP1 JUMP JUMPDEST PUSH0 PUSH1 0x44 RETURNDATASIZE LT ISZERO PUSH2 0x4948 JUMPI SWAP1 JUMP JUMPDEST PUSH1 0x40 MLOAD PUSH1 0x3 NOT RETURNDATASIZE DUP2 ADD PUSH1 0x4 DUP4 RETURNDATACOPY DUP2 MLOAD RETURNDATASIZE PUSH8 0xFFFFFFFFFFFFFFFF DUP2 PUSH1 0x24 DUP5 ADD GT DUP2 DUP5 GT OR ISZERO PUSH2 0x4978 JUMPI POP POP POP POP POP SWAP1 JUMP JUMPDEST DUP3 DUP6 ADD SWAP2 POP DUP2 MLOAD DUP2 DUP2 GT ISZERO PUSH2 0x4990 JUMPI POP POP POP POP POP POP SWAP1 JUMP JUMPDEST DUP5 RETURNDATASIZE DUP8 ADD ADD PUSH1 0x20 DUP3 DUP6 ADD ADD GT ISZERO PUSH2 0x49AA JUMPI POP POP POP POP POP POP SWAP1 JUMP JUMPDEST PUSH2 0x1DF0 PUSH1 0x20 DUP3 DUP7 ADD ADD DUP8 PUSH2 0x43E8 JUMP JUMPDEST PUSH0 DUP2 MLOAD DUP1 DUP5 MSTORE DUP1 PUSH1 0x20 DUP5 ADD PUSH1 0x20 DUP7 ADD MCOPY PUSH0 PUSH1 0x20 DUP3 DUP7 ADD ADD MSTORE PUSH1 0x20 PUSH1 0x1F NOT PUSH1 0x1F DUP4 ADD AND DUP6 ADD ADD SWAP2 POP POP SWAP3 SWAP2 POP POP JUMP JUMPDEST PUSH1 0x40 DUP2 MSTORE PUSH1 0x17 PUSH1 0x40 DUP3 ADD MSTORE PUSH32 0x736166655472616E7366657246726F6D206661696C6564000000000000000000 PUSH1 0x60 DUP3 ADD MSTORE PUSH1 0x80 PUSH1 0x20 DUP3 ADD MSTORE PUSH0 PUSH2 0x1AA1 PUSH1 0x80 DUP4 ADD DUP5 PUSH2 0x49B9 JUMP JUMPDEST PUSH32 0x736166655472616E7366657246726F6D206661696C65643A2000000000000000 DUP2 MSTORE PUSH0 PUSH2 0x1AA1 PUSH1 0x19 DUP4 ADD DUP5 PUSH2 0x488F JUMP JUMPDEST PUSH1 0x20 DUP2 MSTORE PUSH0 PUSH2 0x1AA1 PUSH1 0x20 DUP4 ADD DUP5 PUSH2 0x49B9 JUMP JUMPDEST PUSH1 0x1 PUSH1 0x1 PUSH1 0xA0 SHL SUB DUP7 AND DUP2 MSTORE DUP5 PUSH1 0x20 DUP3 ADD MSTORE DUP4 PUSH1 0x40 DUP3 ADD MSTORE PUSH1 0xA0 PUSH1 0x60 DUP3 ADD MSTORE PUSH0 PUSH2 0x4A9D PUSH1 0xA0 DUP4 ADD DUP6 PUSH2 0x44C9 JUMP JUMPDEST SWAP1 POP DUP3 PUSH1 0x80 DUP4 ADD MSTORE SWAP7 SWAP6 POP POP POP POP POP POP JUMP JUMPDEST PUSH0 PUSH1 0x20 DUP3 DUP5 SUB SLT ISZERO PUSH2 0x4ABF JUMPI PUSH0 DUP1 REVERT JUMPDEST DUP2 MLOAD DUP1 ISZERO ISZERO DUP2 EQ PUSH2 0x1AA1 JUMPI PUSH0 DUP1 REVERT JUMPDEST PUSH4 0x4E487B71 PUSH1 0xE0 SHL PUSH0 MSTORE PUSH1 0x12 PUSH1 0x4 MSTORE PUSH1 0x24 PUSH0 REVERT INVALID LOG2 PUSH5 0x6970667358 0x22 SLT KECCAK256 SWAP13 NOT AND DELEGATECALL BASEFEE DUP2 BLOCKHASH PUSH28 0xAA837A701048A0B3CAEF4331CB608AF7453C8DB205408F464736F6C PUSH4 0x43000819 STOP CALLER "
    },
    "gasEstimates": {
      "creation": {
        "codeDepositCost": "3844800",
        "executionCost": "infinite",
        "totalCost": "infinite"
      },
      "external": {
        "addLiquidity(uint256)": "infinite",
        "buy(uint256,int128)": "infinite",
        "calculateSharesFromBetAmount(uint256,uint256)": "infinite",
        "condition()": "2384",
        "cost()": "infinite",
        "cost_after_buy(uint256,int128)": "infinite",
        "debugFees()": "infinite",
        "dummyVar()": "2406",
        "freezeMarket(bytes32)": "infinite",
        "generateQuestionId(string)": "infinite",
        "getAccumulatedFees()": "infinite",
        "getLiquidityParameter()": "2381",
        "getOutcomeSharesPurchased(uint256)": "10825",
        "getPositionAndDustPositions(uint256)": "infinite",
        "getPositionIds()": "infinite",
        "getPositionInfo(uint256)": "infinite",
        "getTokenEth(address,uint256)": "infinite",
        "getTokenWei(address,int128)": "infinite",
        "getTokenWeiDown(address,int128)": "infinite",
        "getTokenWeiUp(address,int128)": "infinite",
        "initial_subsidy()": "2403",
        "numOutcomes()": "2384",
        "odds(uint256)": "infinite",
        "onERC1155BatchReceived(address,address,uint256[],uint256[],bytes)": "infinite",
        "onERC1155Received(address,address,uint256,uint256,bytes)": "infinite",
        "overround()": "2408",
        "owner()": "2385",
        "price(uint256,int128)": "infinite",
        "renounceOwnership()": "infinite",
        "sell(uint256,int128)": "infinite",
        "sellingPrice(uint256,int128)": "infinite",
        "setup(address,bytes32,uint256,uint256,uint256,uint256)": "infinite",
        "supportsInterface(bytes4)": "362",
        "token()": "2446",
        "transferOwnership(address)": "28380",
        "withdraw()": "infinite",
        "withdrawFees()": "infinite"
      },
      "internal": {
        "_calculateBuyPrice(int128[] memory,uint256,int128,int128,int128,uint256)": "infinite",
        "_calculateSellRefund(int128[] memory,uint256,int128,int128,int128,uint256)": "infinite",
        "_mintAndTransferOutcomeTokens(uint256,int128)": "infinite",
        "getOnes(uint256)": "infinite"
      }
    },
    "methodIdentifiers": {
      "addLiquidity(uint256)": "51c6590a",
      "buy(uint256,int128)": "f76da1d9",
      "calculateSharesFromBetAmount(uint256,uint256)": "0794cb8c",
      "condition()": "c5031331",
      "cost()": "13faede6",
      "cost_after_buy(uint256,int128)": "8062dd93",
      "debugFees()": "e1fc2305",
      "dummyVar()": "8ac40792",
      "freezeMarket(bytes32)": "34aa4e61",
      "generateQuestionId(string)": "4c395cc4",
      "getAccumulatedFees()": "5df45a37",
      "getLiquidityParameter()": "8364dfef",
      "getOutcomeSharesPurchased(uint256)": "bb6f593e",
      "getPositionAndDustPositions(uint256)": "8d0a6cff",
      "getPositionIds()": "39131906",
      "getPositionInfo(uint256)": "519f5099",
      "getTokenEth(address,uint256)": "10f8625a",
      "getTokenWei(address,int128)": "40088ee1",
      "getTokenWeiDown(address,int128)": "8d36627b",
      "getTokenWeiUp(address,int128)": "05445405",
      "initial_subsidy()": "cd6bd6db",
      "numOutcomes()": "8767d64e",
      "odds(uint256)": "46156ea0",
      "onERC1155BatchReceived(address,address,uint256[],uint256[],bytes)": "bc197c81",
      "onERC1155Received(address,address,uint256,uint256,bytes)": "f23a6e61",
      "overround()": "d8fdb386",
      "owner()": "8da5cb5b",
      "price(uint256,int128)": "df7bd8fc",
      "renounceOwnership()": "715018a6",
      "sell(uint256,int128)": "ae92a93d",
      "sellingPrice(uint256,int128)": "52fdfecc",
      "setup(address,bytes32,uint256,uint256,uint256,uint256)": "4a4f72e1",
      "supportsInterface(bytes4)": "01ffc9a7",
      "token()": "fc0c546a",
      "transferOwnership(address)": "f2fde38b",
      "withdraw()": "3ccfd60b",
      "withdrawFees()": "476343ee"
    }
  },
  "storageLayout": {
    "storage": [
      {
        "astId": 11690,
        "contract": "NoBOverround.sol:LsLMSR",
        "label": "_owner",
        "offset": 0,
        "slot": "0",
        "type": "t_address"
      },
      {
        "astId": 7929,
        "contract": "NoBOverround.sol:LsLMSR",
        "label": "numOutcomes",
        "offset": 0,
        "slot": "1",
        "type": "t_uint256"
      },
      {
        "astId": 7932,
        "contract": "NoBOverround.sol:LsLMSR",
        "label": "q",
        "offset": 0,
        "slot": "2",
        "type": "t_array(t_int128)dyn_storage"
      },
      {
        "astId": 7934,
        "contract": "NoBOverround.sol:LsLMSR",
        "label": "b",
        "offset": 0,
        "slot": "3",
        "type": "t_int128"
      },
      {
        "astId": 7936,
        "contract": "NoBOverround.sol:LsLMSR",
        "label": "current_cost",
        "offset": 16,
        "slot": "3",
        "type": "t_int128"
      },
      {
        "astId": 7938,
        "contract": "NoBOverround.sol:LsLMSR",
        "label": "total_shares",
        "offset": 0,
        "slot": "4",
        "type": "t_int128"
      },
      {
        "astId": 7940,
        "contract": "NoBOverround.sol:LsLMSR",
        "label": "initial_subsidy",
        "offset": 16,
        "slot": "4",
        "type": "t_int128"
      },
      {
        "astId": 7942,
        "contract": "NoBOverround.sol:LsLMSR",
        "label": "overround",
        "offset": 0,
        "slot": "5",
        "type": "t_int128"
      },
      {
        "astId": 7944,
        "contract": "NoBOverround.sol:LsLMSR",
        "label": "condition",
        "offset": 0,
        "slot": "6",
        "type": "t_bytes32"
      },
      {
        "astId": 7947,
        "contract": "NoBOverround.sol:LsLMSR",
        "label": "CT",
        "offset": 0,
        "slot": "7",
        "type": "t_contract(ConditionalTokens)4132"
      },
      {
        "astId": 7949,
        "contract": "NoBOverround.sol:LsLMSR",
        "label": "token",
        "offset": 0,
        "slot": "8",
        "type": "t_address"
      },
      {
        "astId": 7951,
        "contract": "NoBOverround.sol:LsLMSR",
        "label": "init",
        "offset": 20,
        "slot": "8",
        "type": "t_bool"
      },
      {
        "astId": 7957,
        "contract": "NoBOverround.sol:LsLMSR",
        "label": "dummyVar",
        "offset": 0,
        "slot": "9",
        "type": "t_uint256"
      }
    ],
    "types": {
      "t_address": {
        "encoding": "inplace",
        "label": "address",
        "numberOfBytes": "20"
      },
      "t_array(t_int128)dyn_storage": {
        "base": "t_int128",
        "encoding": "dynamic_array",
        "label": "int128[]",
        "numberOfBytes": "32"
      },
      "t_bool": {
        "encoding": "inplace",
        "label": "bool",
        "numberOfBytes": "1"
      },
      "t_bytes32": {
        "encoding": "inplace",
        "label": "bytes32",
        "numberOfBytes": "32"
      },
      "t_contract(ConditionalTokens)4132": {
        "encoding": "inplace",
        "label": "contract ConditionalTokens",
        "numberOfBytes": "20"
      },
      "t_int128": {
        "encoding": "inplace",
        "label": "int128",
        "numberOfBytes": "16"
      },
      "t_uint256": {
        "encoding": "inplace",
        "label": "uint256",
        "numberOfBytes": "32"
      }
    }
  },
  "userdoc": {
    "kind": "user",
    "methods": {
      "calculateSharesFromBetAmount(uint256,uint256)": {
        "notice": "Calculate exact shares that can be bought with a given DAI amount"
      },
      "constructor": {
        "notice": "Constructor function for the market maker"
      },
      "cost()": {
        "notice": "View function returning the cost function.  This function returns the cost for this inventory state. It will be able to tell you the total amount of collateral spent within the market maker. For example, if a pool was seeded with 100 DAI and then a further 20 DAI has been spent, this function will return 120 DAI."
      },
      "cost_after_buy(uint256,int128)": {
        "notice": "This function will tell you the cost (similar to above) after a proposed transaction."
      },
      "odds(uint256)": {
        "notice": "This function tells you how much it will cost to make a particular trade. It does this by calculating the difference between the current cost and the cost after the transaction."
      },
      "setup(address,bytes32,uint256,uint256,uint256,uint256)": {
        "notice": "Set up some of the variables for the market maker"
      }
    },
    "version": 1
  }
}