{
  "abi": [
    {
      "inputs": [
        {
          "internalType": "address",
          "name": "_ct",
          "type": "address"
        },
        {
          "internalType": "address",
          "name": "_token",
          "type": "address"
        },
        {
          "internalType": "address",
          "name": "initialOwner",
          "type": "address"
        }
      ],
      "stateMutability": "nonpayable",
      "type": "constructor"
    },
    {
      "inputs": [
        {
          "internalType": "address",
          "name": "owner",
          "type": "address"
        }
      ],
      "name": "OwnableInvalidOwner",
      "type": "error"
    },
    {
      "inputs": [
        {
          "internalType": "address",
          "name": "account",
          "type": "address"
        }
      ],
      "name": "OwnableUnauthorizedAccount",
      "type": "error"
    },
    {
      "inputs": [
        {
          "internalType": "address",
          "name": "token",
          "type": "address"
        }
      ],
      "name": "SafeERC20FailedOperation",
      "type": "error"
    },
    {
      "anonymous": false,
      "inputs": [
        {
          "indexed": false,
          "internalType": "uint256",
          "name": "tokenCost",
          "type": "uint256"
        },
        {
          "indexed": false,
          "internalType": "int128",
          "name": "price_",
          "type": "int128"
        }
      ],
      "name": "BuyTokenCost",
      "type": "event"
    },
    {
      "anonymous": false,
      "inputs": [
        {
          "indexed": false,
          "internalType": "uint256",
          "name": "balance",
          "type": "uint256"
        }
      ],
      "name": "DebugBalanceAfter",
      "type": "event"
    },
    {
      "anonymous": false,
      "inputs": [
        {
          "indexed": false,
          "internalType": "uint256",
          "name": "balance",
          "type": "uint256"
        }
      ],
      "name": "DebugBalanceBefore",
      "type": "event"
    },
    {
      "anonymous": false,
      "inputs": [
        {
          "indexed": false,
          "internalType": "uint256",
          "name": "userPayment",
          "type": "uint256"
        },
        {
          "indexed": false,
          "internalType": "uint256",
          "name": "outcomeTokens",
          "type": "uint256"
        },
        {
          "indexed": false,
          "internalType": "uint256",
          "name": "contractBalance",
          "type": "uint256"
        },
        {
          "indexed": false,
          "internalType": "uint256",
          "name": "requiredCollateral",
          "type": "uint256"
        }
      ],
      "name": "DebugCollateralization",
      "type": "event"
    },
    {
      "anonymous": false,
      "inputs": [
        {
          "indexed": false,
          "internalType": "uint256",
          "name": "outcomeTokens",
          "type": "uint256"
        },
        {
          "indexed": false,
          "internalType": "uint256",
          "name": "balanceBefore",
          "type": "uint256"
        },
        {
          "indexed": false,
          "internalType": "uint256",
          "name": "balanceAfter",
          "type": "uint256"
        },
        {
          "indexed": false,
          "internalType": "int128",
          "name": "refund",
          "type": "int128"
        }
      ],
      "name": "DebugMergePositions",
      "type": "event"
    },
    {
      "anonymous": false,
      "inputs": [
        {
          "indexed": false,
          "internalType": "uint256",
          "name": "outcome",
          "type": "uint256"
        },
        {
          "indexed": false,
          "internalType": "uint256",
          "name": "contractBalance",
          "type": "uint256"
        },
        {
          "indexed": false,
          "internalType": "uint256",
          "name": "neededTokens",
          "type": "uint256"
        },
        {
          "indexed": false,
          "internalType": "bool",
          "name": "willMint",
          "type": "bool"
        }
      ],
      "name": "DebugMinting",
      "type": "event"
    },
    {
      "anonymous": false,
      "inputs": [
        {
          "indexed": false,
          "internalType": "uint256",
          "name": "userBalance",
          "type": "uint256"
        },
        {
          "indexed": false,
          "internalType": "uint256",
          "name": "requestedAmount",
          "type": "uint256"
        },
        {
          "indexed": false,
          "internalType": "uint256",
          "name": "outcomeTokens",
          "type": "uint256"
        },
        {
          "indexed": false,
          "internalType": "int128",
          "name": "refund",
          "type": "int128"
        }
      ],
      "name": "DebugSellAttempt",
      "type": "event"
    },
    {
      "anonymous": false,
      "inputs": [
        {
          "indexed": true,
          "internalType": "address",
          "name": "to",
          "type": "address"
        },
        {
          "indexed": false,
          "internalType": "uint256",
          "name": "amount",
          "type": "uint256"
        }
      ],
      "name": "FeesWithdrawn",
      "type": "event"
    },
    {
      "anonymous": false,
      "inputs": [
        {
          "indexed": true,
          "internalType": "address",
          "name": "user",
          "type": "address"
        },
        {
          "indexed": false,
          "internalType": "uint256",
          "name": "amount",
          "type": "uint256"
        }
      ],
      "name": "LiquidityAdded",
      "type": "event"
    },
    {
      "anonymous": false,
      "inputs": [
        {
          "indexed": true,
          "internalType": "address",
          "name": "previousOwner",
          "type": "address"
        },
        {
          "indexed": true,
          "internalType": "address",
          "name": "newOwner",
          "type": "address"
        }
      ],
      "name": "OwnershipTransferred",
      "type": "event"
    },
    {
      "anonymous": false,
      "inputs": [
        {
          "indexed": false,
          "internalType": "string",
          "name": "context",
          "type": "string"
        },
        {
          "indexed": false,
          "internalType": "string",
          "name": "reason",
          "type": "string"
        }
      ],
      "name": "SplitPositionError",
      "type": "event"
    },
    {
      "inputs": [
        {
          "internalType": "uint256",
          "name": "_amount",
          "type": "uint256"
        }
      ],
      "name": "addLiquidity",
      "outputs": [],
      "stateMutability": "nonpayable",
      "type": "function"
    },
    {
      "inputs": [
        {
          "internalType": "uint256",
          "name": "_outcome",
          "type": "uint256"
        },
        {
          "internalType": "int128",
          "name": "_amount",
          "type": "int128"
        }
      ],
      "name": "buy",
      "outputs": [
        {
          "internalType": "int128",
          "name": "_price",
          "type": "int128"
        }
      ],
      "stateMutability": "nonpayable",
      "type": "function"
    },
    {
      "inputs": [],
      "name": "condition",
      "outputs": [
        {
          "internalType": "bytes32",
          "name": "",
          "type": "bytes32"
        }
      ],
      "stateMutability": "view",
      "type": "function"
    },
    {
      "inputs": [],
      "name": "cost",
      "outputs": [
        {
          "internalType": "int128",
          "name": "",
          "type": "int128"
        }
      ],
      "stateMutability": "view",
      "type": "function"
    },
    {
      "inputs": [
        {
          "internalType": "uint256",
          "name": "_outcome",
          "type": "uint256"
        },
        {
          "internalType": "int128",
          "name": "_amount",
          "type": "int128"
        }
      ],
      "name": "cost_after_buy",
      "outputs": [
        {
          "internalType": "int128",
          "name": "",
          "type": "int128"
        }
      ],
      "stateMutability": "view",
      "type": "function"
    },
    {
      "inputs": [],
      "name": "debugFees",
      "outputs": [
        {
          "internalType": "uint256",
          "name": "contractBalance",
          "type": "uint256"
        },
        {
          "internalType": "uint256",
          "name": "theoreticalCost",
          "type": "uint256"
        }
      ],
      "stateMutability": "view",
      "type": "function"
    },
    {
      "inputs": [],
      "name": "dummyVar",
      "outputs": [
        {
          "internalType": "uint256",
          "name": "",
          "type": "uint256"
        }
      ],
      "stateMutability": "view",
      "type": "function"
    },
    {
      "inputs": [
        {
          "internalType": "string",
          "name": "uniqueString",
          "type": "string"
        }
      ],
      "name": "generateQuestionId",
      "outputs": [
        {
          "internalType": "bytes32",
          "name": "",
          "type": "bytes32"
        }
      ],
      "stateMutability": "pure",
      "type": "function"
    },
    {
      "inputs": [],
      "name": "getAccumulatedFees",
      "outputs": [
        {
          "internalType": "uint256",
          "name": "",
          "type": "uint256"
        }
      ],
      "stateMutability": "view",
      "type": "function"
    },
    {
      "inputs": [],
      "name": "getLiquidityParameter",
      "outputs": [
        {
          "internalType": "int128",
          "name": "",
          "type": "int128"
        }
      ],
      "stateMutability": "view",
      "type": "function"
    },
    {
      "inputs": [
        {
          "internalType": "uint256",
          "name": "_outcome",
          "type": "uint256"
        }
      ],
      "name": "getMaxSellableAmount",
      "outputs": [
        {
          "internalType": "uint256",
          "name": "",
          "type": "uint256"
        }
      ],
      "stateMutability": "view",
      "type": "function"
    },
    {
      "inputs": [
        {
          "internalType": "uint256",
          "name": "_outcome",
          "type": "uint256"
        }
      ],
      "name": "getOutcomeSharesPurchased",
      "outputs": [
        {
          "internalType": "int128",
          "name": "",
          "type": "int128"
        }
      ],
      "stateMutability": "view",
      "type": "function"
    },
    {
      "inputs": [
        {
          "internalType": "uint256",
          "name": "_outcome",
          "type": "uint256"
        }
      ],
      "name": "getPositionAndDustPositions",
      "outputs": [
        {
          "internalType": "uint256[]",
          "name": "",
          "type": "uint256[]"
        }
      ],
      "stateMutability": "view",
      "type": "function"
    },
    {
      "inputs": [
        {
          "internalType": "uint256",
          "name": "_outcome",
          "type": "uint256"
        }
      ],
      "name": "getPositionInfo",
      "outputs": [
        {
          "internalType": "uint256",
          "name": "positionId",
          "type": "uint256"
        },
        {
          "internalType": "uint256",
          "name": "balance",
          "type": "uint256"
        }
      ],
      "stateMutability": "view",
      "type": "function"
    },
    {
      "inputs": [
        {
          "internalType": "address",
          "name": "_token",
          "type": "address"
        },
        {
          "internalType": "uint256",
          "name": "_amount",
          "type": "uint256"
        }
      ],
      "name": "getTokenEth",
      "outputs": [
        {
          "internalType": "int128",
          "name": "",
          "type": "int128"
        }
      ],
      "stateMutability": "view",
      "type": "function"
    },
    {
      "inputs": [
        {
          "internalType": "address",
          "name": "_token",
          "type": "address"
        },
        {
          "internalType": "int128",
          "name": "_amount",
          "type": "int128"
        }
      ],
      "name": "getTokenWei",
      "outputs": [
        {
          "internalType": "uint256",
          "name": "",
          "type": "uint256"
        }
      ],
      "stateMutability": "view",
      "type": "function"
    },
    {
      "inputs": [
        {
          "internalType": "address",
          "name": "_token",
          "type": "address"
        },
        {
          "internalType": "int128",
          "name": "_amount",
          "type": "int128"
        }
      ],
      "name": "getTokenWeiDown",
      "outputs": [
        {
          "internalType": "uint256",
          "name": "",
          "type": "uint256"
        }
      ],
      "stateMutability": "view",
      "type": "function"
    },
    {
      "inputs": [
        {
          "internalType": "address",
          "name": "_token",
          "type": "address"
        },
        {
          "internalType": "int128",
          "name": "_amount",
          "type": "int128"
        }
      ],
      "name": "getTokenWeiUp",
      "outputs": [
        {
          "internalType": "uint256",
          "name": "",
          "type": "uint256"
        }
      ],
      "stateMutability": "view",
      "type": "function"
    },
    {
      "inputs": [],
      "name": "initial_subsidy",
      "outputs": [
        {
          "internalType": "int128",
          "name": "",
          "type": "int128"
        }
      ],
      "stateMutability": "view",
      "type": "function"
    },
    {
      "inputs": [],
      "name": "numOutcomes",
      "outputs": [
        {
          "internalType": "uint256",
          "name": "",
          "type": "uint256"
        }
      ],
      "stateMutability": "view",
      "type": "function"
    },
    {
      "inputs": [
        {
          "internalType": "uint256",
          "name": "_outcome",
          "type": "uint256"
        }
      ],
      "name": "odds",
      "outputs": [
        {
          "internalType": "int128",
          "name": "",
          "type": "int128"
        }
      ],
      "stateMutability": "view",
      "type": "function"
    },
    {
      "inputs": [
        {
          "internalType": "address",
          "name": "",
          "type": "address"
        },
        {
          "internalType": "address",
          "name": "",
          "type": "address"
        },
        {
          "internalType": "uint256[]",
          "name": "",
          "type": "uint256[]"
        },
        {
          "internalType": "uint256[]",
          "name": "",
          "type": "uint256[]"
        },
        {
          "internalType": "bytes",
          "name": "",
          "type": "bytes"
        }
      ],
      "name": "onERC1155BatchReceived",
      "outputs": [
        {
          "internalType": "bytes4",
          "name": "",
          "type": "bytes4"
        }
      ],
      "stateMutability": "pure",
      "type": "function"
    },
    {
      "inputs": [
        {
          "internalType": "address",
          "name": "",
          "type": "address"
        },
        {
          "internalType": "address",
          "name": "",
          "type": "address"
        },
        {
          "internalType": "uint256",
          "name": "",
          "type": "uint256"
        },
        {
          "internalType": "uint256",
          "name": "",
          "type": "uint256"
        },
        {
          "internalType": "bytes",
          "name": "",
          "type": "bytes"
        }
      ],
      "name": "onERC1155Received",
      "outputs": [
        {
          "internalType": "bytes4",
          "name": "",
          "type": "bytes4"
        }
      ],
      "stateMutability": "pure",
      "type": "function"
    },
    {
      "inputs": [],
      "name": "overround",
      "outputs": [
        {
          "internalType": "int128",
          "name": "",
          "type": "int128"
        }
      ],
      "stateMutability": "view",
      "type": "function"
    },
    {
      "inputs": [],
      "name": "owner",
      "outputs": [
        {
          "internalType": "address",
          "name": "",
          "type": "address"
        }
      ],
      "stateMutability": "view",
      "type": "function"
    },
    {
      "inputs": [
        {
          "internalType": "uint256",
          "name": "_outcome",
          "type": "uint256"
        },
        {
          "internalType": "int128",
          "name": "_amount",
          "type": "int128"
        }
      ],
      "name": "price",
      "outputs": [
        {
          "internalType": "int128",
          "name": "",
          "type": "int128"
        }
      ],
      "stateMutability": "view",
      "type": "function"
    },
    {
      "inputs": [],
      "name": "renounceOwnership",
      "outputs": [],
      "stateMutability": "nonpayable",
      "type": "function"
    },
    {
      "inputs": [
        {
          "internalType": "uint256",
          "name": "_outcome",
          "type": "uint256"
        },
        {
          "internalType": "int128",
          "name": "_amount",
          "type": "int128"
        }
      ],
      "name": "sell",
      "outputs": [
        {
          "internalType": "int128",
          "name": "refund",
          "type": "int128"
        }
      ],
      "stateMutability": "nonpayable",
      "type": "function"
    },
    {
      "inputs": [
        {
          "internalType": "uint256",
          "name": "_outcome",
          "type": "uint256"
        },
        {
          "internalType": "int128",
          "name": "_amount",
          "type": "int128"
        }
      ],
      "name": "sellingPrice",
      "outputs": [
        {
          "internalType": "int128",
          "name": "",
          "type": "int128"
        }
      ],
      "stateMutability": "view",
      "type": "function"
    },
    {
      "inputs": [
        {
          "internalType": "address",
          "name": "_oracle",
          "type": "address"
        },
        {
          "internalType": "bytes32",
          "name": "_questionId",
          "type": "bytes32"
        },
        {
          "internalType": "uint256",
          "name": "_numOutcomes",
          "type": "uint256"
        },
        {
          "internalType": "uint256",
          "name": "bInput",
          "type": "uint256"
        },
        {
          "internalType": "uint256",
          "name": "_initialSubsidy",
          "type": "uint256"
        },
        {
          "internalType": "uint256",
          "name": "_overround",
          "type": "uint256"
        }
      ],
      "name": "setup",
      "outputs": [],
      "stateMutability": "nonpayable",
      "type": "function"
    },
    {
      "inputs": [
        {
          "internalType": "bytes4",
          "name": "interfaceId",
          "type": "bytes4"
        }
      ],
      "name": "supportsInterface",
      "outputs": [
        {
          "internalType": "bool",
          "name": "",
          "type": "bool"
        }
      ],
      "stateMutability": "view",
      "type": "function"
    },
    {
      "inputs": [],
      "name": "token",
      "outputs": [
        {
          "internalType": "address",
          "name": "",
          "type": "address"
        }
      ],
      "stateMutability": "view",
      "type": "function"
    },
    {
      "inputs": [
        {
          "internalType": "address",
          "name": "newOwner",
          "type": "address"
        }
      ],
      "name": "transferOwnership",
      "outputs": [],
      "stateMutability": "nonpayable",
      "type": "function"
    },
    {
      "inputs": [],
      "name": "withdraw",
      "outputs": [],
      "stateMutability": "nonpayable",
      "type": "function"
    },
    {
      "inputs": [],
      "name": "withdrawFees",
      "outputs": [],
      "stateMutability": "nonpayable",
      "type": "function"
    }
  ],
  "devdoc": {
    "errors": {
      "OwnableInvalidOwner(address)": [
        {
          "details": "The owner is not a valid owner account. (eg. `address(0)`)"
        }
      ],
      "OwnableUnauthorizedAccount(address)": [
        {
          "details": "The caller account is not authorized to perform an operation."
        }
      ],
      "SafeERC20FailedOperation(address)": [
        {
          "details": "An operation with an ERC-20 token failed."
        }
      ]
    },
    "kind": "dev",
    "methods": {
      "constructor": {
        "params": {
          "_ct": "The address for the deployed conditional tokens contract",
          "_token": "Which ERC-20 token will be used to purchase and redeem outcome tokens for this condition"
        }
      },
      "owner()": {
        "details": "Returns the address of the current owner."
      },
      "renounceOwnership()": {
        "details": "Leaves the contract without owner. It will not be possible to call `onlyOwner` functions. Can only be called by the current owner. NOTE: Renouncing ownership will leave the contract without an owner, thereby disabling any functionality that is only available to the owner."
      },
      "setup(address,bytes32,uint256,uint256,uint256,uint256)": {
        "params": {
          "_initialSubsidy": "The initial DAI subsidy to deposit in the contract",
          "_numOutcomes": "The number of different outcomes available",
          "_oracle": "The address for the EOA/contract which will act as the oracle for this condition",
          "_overround": "How much 'profit' does the AMM claim? Note that this is represented in bips. Therefore inputting 300 represents 0.30%",
          "_questionId": "The question ID (needs to be unique)",
          "bInput": "The liquidity parameter b for the LMSR market maker"
        }
      },
      "supportsInterface(bytes4)": {
        "details": "Returns true if this contract implements the interface defined by `interfaceId`. See the corresponding https://eips.ethereum.org/EIPS/eip-165#how-interfaces-are-identified[ERC section] to learn more about how these ids are created. This function call must use less than 30 000 gas."
      },
      "transferOwnership(address)": {
        "details": "Transfers ownership of the contract to a new account (`newOwner`). Can only be called by the current owner."
      }
    },
    "version": 1
  },
  "evm": {
    "assembly": "    /* \"NoBOverround.sol\":615:19768  contract LsLMSR is IERC1155Receiver, Ownable{... */\n  mstore(0x40, 0x80)\n    /* \"NoBOverround.sol\":1490:1492  42 */\n  0x2a\n    /* \"NoBOverround.sol\":1464:1492  uint256 public dummyVar = 42 */\n  0x09\n  sstore\n    /* \"NoBOverround.sol\":2408:2567  constructor(... */\n  callvalue\n  dup1\n  iszero\n  tag_1\n  jumpi\n  0x00\n  dup1\n  revert\ntag_1:\n  pop\n  mload(0x40)\n  sub(codesize, bytecodeSize)\n  dup1\n  bytecodeSize\n  dup4\n  codecopy\n  dup2\n  add\n  0x40\n  dup2\n  swap1\n  mstore\n  tag_2\n  swap2\n  tag_3\n  jump\t// in\ntag_2:\n    /* \"NoBOverround.sol\":2495:2507  initialOwner */\n  dup1\n  sub(shl(0xa0, 0x01), 0x01)\n    /* \"@openzeppelin/contracts/access/Ownable.sol\":1273:1299   */\n  dup2\n  and\n    /* \"@openzeppelin/contracts/access/Ownable.sol\":1269:1364   */\n  tag_7\n  jumpi\n    /* \"@openzeppelin/contracts/access/Ownable.sol\":1322:1353   */\n  mload(0x40)\n  shl(0xe0, 0x1e4fbdf7)\n  dup2\n  mstore\n    /* \"@openzeppelin/contracts/access/Ownable.sol\":1350:1351   */\n  0x00\n    /* \"@openzeppelin/contracts/access/Ownable.sol\":1322:1353   */\n  0x04\n  dup3\n  add\n    /* \"#utility.yul\":725:776   */\n  mstore\n    /* \"#utility.yul\":698:716   */\n  0x24\n  add\n    /* \"@openzeppelin/contracts/access/Ownable.sol\":1322:1353   */\n  mload(0x40)\n  dup1\n  swap2\n  sub\n  swap1\n  revert\n    /* \"@openzeppelin/contracts/access/Ownable.sol\":1269:1364   */\ntag_7:\n    /* \"@openzeppelin/contracts/access/Ownable.sol\":1373:1405   */\n  tag_10\n    /* \"@openzeppelin/contracts/access/Ownable.sol\":1392:1404   */\n  dup2\n    /* \"@openzeppelin/contracts/access/Ownable.sol\":1373:1391   */\n  tag_11\n    /* \"@openzeppelin/contracts/access/Ownable.sol\":1373:1405   */\n  jump\t// in\ntag_10:\n  pop\n  pop\n    /* \"NoBOverround.sol\":2515:2517  CT */\n  0x07\n    /* \"NoBOverround.sol\":2515:2542  CT = ConditionalTokens(_ct) */\n  dup1\n  sload\n  sub(shl(0xa0, 0x01), 0x01)\n  swap4\n  dup5\n  and\n  not(sub(shl(0xa0, 0x01), 0x01))\n  swap2\n  dup3\n  and\n  or\n  swap1\n  swap2\n  sstore\n    /* \"NoBOverround.sol\":2548:2553  token */\n  0x08\n    /* \"NoBOverround.sol\":2548:2562  token = _token */\n  dup1\n  sload\n  swap3\n  swap1\n  swap4\n  and\n  swap2\n  and\n  or\n  swap1\n  sstore\n    /* \"NoBOverround.sol\":615:19768  contract LsLMSR is IERC1155Receiver, Ownable{... */\n  jump(tag_16)\n    /* \"@openzeppelin/contracts/access/Ownable.sol\":2912:3099   */\ntag_11:\n    /* \"@openzeppelin/contracts/access/Ownable.sol\":2985:3001   */\n  0x00\n    /* \"@openzeppelin/contracts/access/Ownable.sol\":3004:3010   */\n  dup1\n  sload\n  sub(shl(0xa0, 0x01), 0x01)\n    /* \"@openzeppelin/contracts/access/Ownable.sol\":3020:3037   */\n  dup4\n  dup2\n  and\n  not(sub(shl(0xa0, 0x01), 0x01))\n  dup4\n  and\n  dup2\n  or\n  dup5\n  sstore\n    /* \"@openzeppelin/contracts/access/Ownable.sol\":3052:3092   */\n  mload(0x40)\n    /* \"@openzeppelin/contracts/access/Ownable.sol\":3004:3010   */\n  swap2\n  swap1\n  swap3\n  and\n  swap3\n  dup4\n  swap2\n    /* \"@openzeppelin/contracts/access/Ownable.sol\":3052:3092   */\n  0x8be0079c531659141344cd1fd0a4f28419497f9722a3daafe3b4186f6b6457e0\n  swap2\n    /* \"@openzeppelin/contracts/access/Ownable.sol\":2985:3001   */\n  swap1\n    /* \"@openzeppelin/contracts/access/Ownable.sol\":3052:3092   */\n  log3\n    /* \"@openzeppelin/contracts/access/Ownable.sol\":2975:3099   */\n  pop\n    /* \"@openzeppelin/contracts/access/Ownable.sol\":2912:3099   */\n  pop\n  jump\t// out\n    /* \"#utility.yul\":14:191   */\ntag_15:\n    /* \"#utility.yul\":93:106   */\n  dup1\n  mload\n  sub(shl(0xa0, 0x01), 0x01)\n    /* \"#utility.yul\":135:166   */\n  dup2\n  and\n    /* \"#utility.yul\":125:167   */\n  dup2\n  eq\n    /* \"#utility.yul\":115:185   */\n  tag_18\n  jumpi\n    /* \"#utility.yul\":181:182   */\n  0x00\n    /* \"#utility.yul\":178:179   */\n  dup1\n    /* \"#utility.yul\":171:183   */\n  revert\n    /* \"#utility.yul\":115:185   */\ntag_18:\n    /* \"#utility.yul\":14:191   */\n  swap2\n  swap1\n  pop\n  jump\t// out\n    /* \"#utility.yul\":196:574   */\ntag_3:\n    /* \"#utility.yul\":284:290   */\n  0x00\n    /* \"#utility.yul\":292:298   */\n  dup1\n    /* \"#utility.yul\":300:306   */\n  0x00\n    /* \"#utility.yul\":353:355   */\n  0x60\n    /* \"#utility.yul\":341:350   */\n  dup5\n    /* \"#utility.yul\":332:339   */\n  dup7\n    /* \"#utility.yul\":328:351   */\n  sub\n    /* \"#utility.yul\":324:356   */\n  slt\n    /* \"#utility.yul\":321:373   */\n  iszero\n  tag_20\n  jumpi\n    /* \"#utility.yul\":369:370   */\n  0x00\n    /* \"#utility.yul\":366:367   */\n  dup1\n    /* \"#utility.yul\":359:371   */\n  revert\n    /* \"#utility.yul\":321:373   */\ntag_20:\n    /* \"#utility.yul\":392:432   */\n  tag_21\n    /* \"#utility.yul\":422:431   */\n  dup5\n    /* \"#utility.yul\":392:432   */\n  tag_15\n  jump\t// in\ntag_21:\n    /* \"#utility.yul\":382:432   */\n  swap3\n  pop\n    /* \"#utility.yul\":451:500   */\n  tag_22\n    /* \"#utility.yul\":496:498   */\n  0x20\n    /* \"#utility.yul\":485:494   */\n  dup6\n    /* \"#utility.yul\":481:499   */\n  add\n    /* \"#utility.yul\":451:500   */\n  tag_15\n  jump\t// in\ntag_22:\n    /* \"#utility.yul\":441:500   */\n  swap2\n  pop\n    /* \"#utility.yul\":519:568   */\n  tag_23\n    /* \"#utility.yul\":564:566   */\n  0x40\n    /* \"#utility.yul\":553:562   */\n  dup6\n    /* \"#utility.yul\":549:567   */\n  add\n    /* \"#utility.yul\":519:568   */\n  tag_15\n  jump\t// in\ntag_23:\n    /* \"#utility.yul\":509:568   */\n  swap1\n  pop\n    /* \"#utility.yul\":196:574   */\n  swap3\n  pop\n  swap3\n  pop\n  swap3\n  jump\t// out\n    /* \"#utility.yul\":579:782   */\ntag_16:\n    /* \"NoBOverround.sol\":615:19768  contract LsLMSR is IERC1155Receiver, Ownable{... */\n  dataSize(sub_0)\n  dup1\n  dataOffset(sub_0)\n  0x00\n  codecopy\n  0x00\n  return\nstop\n\nsub_0: assembly {\n        /* \"NoBOverround.sol\":615:19768  contract LsLMSR is IERC1155Receiver, Ownable{... */\n      mstore(0x40, 0x80)\n      callvalue\n      dup1\n      iszero\n      tag_1\n      jumpi\n      0x00\n      dup1\n      revert\n    tag_1:\n      pop\n      jumpi(tag_2, lt(calldatasize, 0x04))\n      shr(0xe0, calldataload(0x00))\n      dup1\n      0x8767d64e\n      gt\n      tag_38\n      jumpi\n      dup1\n      0xcd6bd6db\n      gt\n      tag_39\n      jumpi\n      dup1\n      0xe1fc2305\n      gt\n      tag_40\n      jumpi\n      dup1\n      0xf2fde38b\n      gt\n      tag_41\n      jumpi\n      dup1\n      0xf2fde38b\n      eq\n      tag_35\n      jumpi\n      dup1\n      0xf76da1d9\n      eq\n      tag_36\n      jumpi\n      dup1\n      0xfc0c546a\n      eq\n      tag_37\n      jumpi\n      0x00\n      dup1\n      revert\n    tag_41:\n      dup1\n      0xe1fc2305\n      eq\n      tag_33\n      jumpi\n      dup1\n      0xf23a6e61\n      eq\n      tag_34\n      jumpi\n      0x00\n      dup1\n      revert\n    tag_40:\n      dup1\n      0xcd6bd6db\n      eq\n      tag_29\n      jumpi\n      dup1\n      0xd8fdb386\n      eq\n      tag_30\n      jumpi\n      dup1\n      0xdf7bd8fc\n      eq\n      tag_31\n      jumpi\n      dup1\n      0xe1d19acb\n      eq\n      tag_32\n      jumpi\n      0x00\n      dup1\n      revert\n    tag_39:\n      dup1\n      0x8da5cb5b\n      gt\n      tag_42\n      jumpi\n      dup1\n      0xbb6f593e\n      gt\n      tag_43\n      jumpi\n      dup1\n      0xbb6f593e\n      eq\n      tag_26\n      jumpi\n      dup1\n      0xbc197c81\n      eq\n      tag_27\n      jumpi\n      dup1\n      0xc5031331\n      eq\n      tag_28\n      jumpi\n      0x00\n      dup1\n      revert\n    tag_43:\n      dup1\n      0x8da5cb5b\n      eq\n      tag_24\n      jumpi\n      dup1\n      0xae92a93d\n      eq\n      tag_25\n      jumpi\n      0x00\n      dup1\n      revert\n    tag_42:\n      dup1\n      0x8767d64e\n      eq\n      tag_20\n      jumpi\n      dup1\n      0x8ac40792\n      eq\n      tag_21\n      jumpi\n      dup1\n      0x8d0a6cff\n      eq\n      tag_22\n      jumpi\n      dup1\n      0x8d36627b\n      eq\n      tag_23\n      jumpi\n      0x00\n      dup1\n      revert\n    tag_38:\n      dup1\n      0x4a4f72e1\n      gt\n      tag_44\n      jumpi\n      dup1\n      0x52fdfecc\n      gt\n      tag_45\n      jumpi\n      dup1\n      0x715018a6\n      gt\n      tag_46\n      jumpi\n      dup1\n      0x715018a6\n      eq\n      tag_17\n      jumpi\n      dup1\n      0x8062dd93\n      eq\n      tag_18\n      jumpi\n      dup1\n      0x8364dfef\n      eq\n      tag_19\n      jumpi\n      0x00\n      dup1\n      revert\n    tag_46:\n      dup1\n      0x52fdfecc\n      eq\n      tag_15\n      jumpi\n      dup1\n      0x5df45a37\n      eq\n      tag_16\n      jumpi\n      0x00\n      dup1\n      revert\n    tag_45:\n      dup1\n      0x4a4f72e1\n      eq\n      tag_11\n      jumpi\n      dup1\n      0x4c395cc4\n      eq\n      tag_12\n      jumpi\n      dup1\n      0x519f5099\n      eq\n      tag_13\n      jumpi\n      dup1\n      0x51c6590a\n      eq\n      tag_14\n      jumpi\n      0x00\n      dup1\n      revert\n    tag_44:\n      dup1\n      0x3ccfd60b\n      gt\n      tag_47\n      jumpi\n      dup1\n      0x3ccfd60b\n      eq\n      tag_7\n      jumpi\n      dup1\n      0x40088ee1\n      eq\n      tag_8\n      jumpi\n      dup1\n      0x46156ea0\n      eq\n      tag_9\n      jumpi\n      dup1\n      0x476343ee\n      eq\n      tag_10\n      jumpi\n      0x00\n      dup1\n      revert\n    tag_47:\n      dup1\n      0x01ffc9a7\n      eq\n      tag_3\n      jumpi\n      dup1\n      0x05445405\n      eq\n      tag_4\n      jumpi\n      dup1\n      0x10f8625a\n      eq\n      tag_5\n      jumpi\n      dup1\n      0x13faede6\n      eq\n      tag_6\n      jumpi\n    tag_2:\n      0x00\n      dup1\n      revert\n        /* \"NoBOverround.sol\":12568:12664  function supportsInterface(... */\n    tag_3:\n      tag_48\n      tag_49\n      calldatasize\n      0x04\n      tag_50\n      jump\t// in\n    tag_49:\n      pop\n        /* \"NoBOverround.sol\":12656:12660  bool */\n      0x00\n      swap1\n        /* \"NoBOverround.sol\":12568:12664  function supportsInterface(... */\n      jump\n    tag_48:\n      mload(0x40)\n        /* \"#utility.yul\":470:484   */\n      swap1\n      iszero\n        /* \"#utility.yul\":463:485   */\n      iszero\n        /* \"#utility.yul\":445:486   */\n      dup2\n      mstore\n        /* \"#utility.yul\":433:435   */\n      0x20\n        /* \"#utility.yul\":418:436   */\n      add\n        /* \"NoBOverround.sol\":12568:12664  function supportsInterface(... */\n    tag_52:\n      mload(0x40)\n      dup1\n      swap2\n      sub\n      swap1\n      return\n        /* \"NoBOverround.sol\":10924:11548  function getTokenWeiUp(address _token, int128 _amount) public view returns (uint) {... */\n    tag_4:\n      tag_54\n      tag_55\n      calldatasize\n      0x04\n      tag_56\n      jump\t// in\n    tag_55:\n      tag_57\n      jump\t// in\n    tag_54:\n      mload(0x40)\n        /* \"#utility.yul\":1274:1299   */\n      swap1\n      dup2\n      mstore\n        /* \"#utility.yul\":1262:1264   */\n      0x20\n        /* \"#utility.yul\":1247:1265   */\n      add\n        /* \"NoBOverround.sol\":10924:11548  function getTokenWeiUp(address _token, int128 _amount) public view returns (uint) {... */\n      tag_52\n        /* \"#utility.yul\":1128:1305   */\n      jump\n        /* \"NoBOverround.sol\":11843:12023  function getTokenEth(... */\n    tag_5:\n      tag_60\n      tag_61\n      calldatasize\n      0x04\n      tag_62\n      jump\t// in\n    tag_61:\n      tag_63\n      jump\t// in\n    tag_60:\n      mload(0x40)\n        /* \"#utility.yul\":1742:1744   */\n      0x0f\n        /* \"#utility.yul\":1731:1753   */\n      swap2\n      swap1\n      swap2\n      signextend\n        /* \"#utility.yul\":1713:1754   */\n      dup2\n      mstore\n        /* \"#utility.yul\":1701:1703   */\n      0x20\n        /* \"#utility.yul\":1686:1704   */\n      add\n        /* \"NoBOverround.sol\":11843:12023  function getTokenEth(... */\n      tag_52\n        /* \"#utility.yul\":1569:1760   */\n      jump\n        /* \"NoBOverround.sol\":8418:8685  function cost() public view onlyAfterInit() returns (int128) {... */\n    tag_6:\n      tag_60\n      tag_67\n      jump\t// in\n        /* \"NoBOverround.sol\":7187:7622  function withdraw() public onlyAfterInit() onlyOwner() {... */\n    tag_7:\n      tag_69\n      tag_70\n      jump\t// in\n    tag_69:\n      stop\n        /* \"NoBOverround.sol\":10540:10920  function getTokenWei(address _token, int128 _amount) public view returns (uint) {... */\n    tag_8:\n      tag_54\n      tag_72\n      calldatasize\n      0x04\n      tag_56\n      jump\t// in\n    tag_72:\n      tag_73\n      jump\t// in\n        /* \"NoBOverround.sol\":9657:10208  function odds(... */\n    tag_9:\n      tag_60\n      tag_76\n      calldatasize\n      0x04\n      tag_77\n      jump\t// in\n    tag_76:\n      tag_78\n      jump\t// in\n        /* \"NoBOverround.sol\":18076:18450  function withdrawFees() public onlyOwner {... */\n    tag_10:\n      tag_69\n      tag_81\n      jump\t// in\n        /* \"NoBOverround.sol\":3178:4121  function setup(... */\n    tag_11:\n      tag_69\n      tag_83\n      calldatasize\n      0x04\n      tag_84\n      jump\t// in\n    tag_83:\n      tag_85\n      jump\t// in\n        /* \"NoBOverround.sol\":12800:12951  function generateQuestionId(string memory uniqueString) public pure returns (bytes32) {... */\n    tag_12:\n      tag_54\n      tag_87\n      calldatasize\n      0x04\n      tag_88\n      jump\t// in\n    tag_87:\n      tag_89\n      jump\t// in\n        /* \"NoBOverround.sol\":18661:19031  function getPositionInfo(uint256 _outcome) public view returns (uint256 positionId, uint256 balance) {... */\n    tag_13:\n      tag_92\n      tag_93\n      calldatasize\n      0x04\n      tag_77\n      jump\t// in\n    tag_93:\n      tag_94\n      jump\t// in\n    tag_92:\n      0x40\n      dup1\n      mload\n        /* \"#utility.yul\":4030:4055   */\n      swap3\n      dup4\n      mstore\n        /* \"#utility.yul\":4086:4088   */\n      0x20\n        /* \"#utility.yul\":4071:4089   */\n      dup4\n      add\n        /* \"#utility.yul\":4064:4098   */\n      swap2\n      swap1\n      swap2\n      mstore\n        /* \"#utility.yul\":4003:4021   */\n      add\n        /* \"NoBOverround.sol\":18661:19031  function getPositionInfo(uint256 _outcome) public view returns (uint256 positionId, uint256 balance) {... */\n      tag_52\n        /* \"#utility.yul\":3856:4104   */\n      jump\n        /* \"NoBOverround.sol\":16931:17694  function addLiquidity(uint _amount) public onlyOwner {... */\n    tag_14:\n      tag_69\n      tag_98\n      calldatasize\n      0x04\n      tag_77\n      jump\t// in\n    tag_98:\n      tag_99\n      jump\t// in\n        /* \"NoBOverround.sol\":10374:10536  function sellingPrice(... */\n    tag_15:\n      tag_60\n      tag_101\n      calldatasize\n      0x04\n      tag_102\n      jump\t// in\n    tag_101:\n      tag_103\n      jump\t// in\n        /* \"NoBOverround.sol\":17696:18016  function getAccumulatedFees() public view returns (uint) {... */\n    tag_16:\n      tag_54\n      tag_106\n      jump\t// in\n        /* \"@openzeppelin/contracts/access/Ownable.sol\":2293:2394   */\n    tag_17:\n      tag_69\n      tag_109\n      jump\t// in\n        /* \"NoBOverround.sol\":8799:9444  function cost_after_buy(... */\n    tag_18:\n      tag_60\n      tag_111\n      calldatasize\n      0x04\n      tag_102\n      jump\t// in\n    tag_111:\n      tag_112\n      jump\t// in\n        /* \"NoBOverround.sol\":16577:16658  function getLiquidityParameter() public view returns (int128) {... */\n    tag_19:\n        /* \"NoBOverround.sol\":16652:16653  b */\n      signextend(0x0f, sload(0x03))\n        /* \"NoBOverround.sol\":16577:16658  function getLiquidityParameter() public view returns (int128) {... */\n      jump(tag_60)\n        /* \"NoBOverround.sol\":943:966  uint public numOutcomes */\n    tag_20:\n      tag_54\n      sload(0x01)\n      dup2\n      jump\n        /* \"NoBOverround.sol\":1464:1492  uint256 public dummyVar = 42 */\n    tag_21:\n      tag_54\n      sload(0x09)\n      dup2\n      jump\n        /* \"NoBOverround.sol\":7626:8051  function getPositionAndDustPositions(... */\n    tag_22:\n      tag_123\n      tag_124\n      calldatasize\n      0x04\n      tag_77\n      jump\t// in\n    tag_124:\n      tag_125\n      jump\t// in\n    tag_123:\n      mload(0x40)\n      tag_52\n      swap2\n      swap1\n      tag_127\n      jump\t// in\n        /* \"NoBOverround.sol\":11552:11839  function getTokenWeiDown(address _token, int128 _amount) public view returns (uint) {... */\n    tag_23:\n      tag_54\n      tag_129\n      calldatasize\n      0x04\n      tag_56\n      jump\t// in\n    tag_129:\n      tag_130\n      jump\t// in\n        /* \"@openzeppelin/contracts/access/Ownable.sol\":1638:1723   */\n    tag_24:\n        /* \"@openzeppelin/contracts/access/Ownable.sol\":1684:1691   */\n      0x00\n        /* \"@openzeppelin/contracts/access/Ownable.sol\":1710:1716   */\n      sload\n      sub(shl(0xa0, 0x01), 0x01)\n      and\n        /* \"@openzeppelin/contracts/access/Ownable.sol\":1638:1723   */\n    tag_132:\n      mload(0x40)\n      sub(shl(0xa0, 0x01), 0x01)\n        /* \"#utility.yul\":5240:5295   */\n      swap1\n      swap2\n      and\n        /* \"#utility.yul\":5222:5296   */\n      dup2\n      mstore\n        /* \"#utility.yul\":5210:5212   */\n      0x20\n        /* \"#utility.yul\":5195:5213   */\n      add\n        /* \"@openzeppelin/contracts/access/Ownable.sol\":1638:1723   */\n      tag_52\n        /* \"#utility.yul\":5076:5302   */\n      jump\n        /* \"NoBOverround.sol\":13840:16573  function sell(uint256 _outcome, int128 _amount) public onlyAfterInit returns (int128 refund) {... */\n    tag_25:\n      tag_60\n      tag_137\n      calldatasize\n      0x04\n      tag_102\n      jump\t// in\n    tag_137:\n      tag_138\n      jump\t// in\n        /* \"NoBOverround.sol\":16662:16864  function getOutcomeSharesPurchased(uint256 _outcome) public view returns (int128) {... */\n    tag_26:\n      tag_60\n      tag_141\n      calldatasize\n      0x04\n      tag_77\n      jump\t// in\n    tag_141:\n      tag_142\n      jump\t// in\n        /* \"NoBOverround.sol\":12280:12563  function onERC1155BatchReceived(... */\n    tag_27:\n      tag_144\n      tag_145\n      calldatasize\n      0x04\n      tag_146\n      jump\t// in\n    tag_145:\n      shl(0xe0, 0xbc197c81)\n      swap9\n      swap8\n      pop\n      pop\n      pop\n      pop\n      pop\n      pop\n      pop\n      pop\n      jump\n    tag_144:\n      mload(0x40)\n      not(sub(shl(0xe0, 0x01), 0x01))\n        /* \"#utility.yul\":7408:7441   */\n      swap1\n      swap2\n      and\n        /* \"#utility.yul\":7390:7442   */\n      dup2\n      mstore\n        /* \"#utility.yul\":7378:7380   */\n      0x20\n        /* \"#utility.yul\":7363:7381   */\n      add\n        /* \"NoBOverround.sol\":12280:12563  function onERC1155BatchReceived(... */\n      tag_52\n        /* \"#utility.yul\":7246:7448   */\n      jump\n        /* \"NoBOverround.sol\":1175:1199  bytes32 public condition */\n    tag_28:\n      tag_54\n      sload(0x06)\n      dup2\n      jump\n        /* \"NoBOverround.sol\":1074:1103  int128 public initial_subsidy */\n    tag_29:\n      sload(0x04)\n      tag_60\n      swap1\n      shl(0x80, 0x01)\n      swap1\n      div\n      0x0f\n      signextend\n      dup2\n      jump\n        /* \"NoBOverround.sol\":1107:1130  int128 public overround */\n    tag_30:\n      sload(0x05)\n      tag_60\n      swap1\n      0x0f\n      signextend\n      dup2\n      jump\n        /* \"NoBOverround.sol\":10214:10370  function price(... */\n    tag_31:\n      tag_60\n      tag_160\n      calldatasize\n      0x04\n      tag_102\n      jump\t// in\n    tag_160:\n      tag_161\n      jump\t// in\n        /* \"NoBOverround.sol\":19033:19765  function getMaxSellableAmount(uint256 _outcome) public view returns (uint256) {... */\n    tag_32:\n      tag_54\n      tag_164\n      calldatasize\n      0x04\n      tag_77\n      jump\t// in\n    tag_164:\n      tag_165\n      jump\t// in\n        /* \"NoBOverround.sol\":18452:18659  function debugFees() public view returns (uint contractBalance, uint theoreticalCost) {... */\n    tag_33:\n      tag_92\n      tag_168\n      jump\t// in\n        /* \"NoBOverround.sol\":12027:12276  function onERC1155Received(... */\n    tag_34:\n      tag_144\n      tag_171\n      calldatasize\n      0x04\n      tag_172\n      jump\t// in\n    tag_171:\n      shl(0xe0, 0xf23a6e61)\n      swap7\n      swap6\n      pop\n      pop\n      pop\n      pop\n      pop\n      pop\n      jump\n        /* \"@openzeppelin/contracts/access/Ownable.sol\":2543:2758   */\n    tag_35:\n      tag_69\n      tag_176\n      calldatasize\n      0x04\n      tag_177\n      jump\t// in\n    tag_176:\n      tag_178\n      jump\t// in\n        /* \"NoBOverround.sol\":5797:6972  function buy(... */\n    tag_36:\n      tag_60\n      tag_180\n      calldatasize\n      0x04\n      tag_102\n      jump\t// in\n    tag_180:\n      tag_181\n      jump\t// in\n        /* \"NoBOverround.sol\":1235:1255  address public token */\n    tag_37:\n      sload(0x08)\n      tag_132\n      swap1\n      sub(shl(0xa0, 0x01), 0x01)\n      and\n      dup2\n      jump\n        /* \"NoBOverround.sol\":10924:11548  function getTokenWeiUp(address _token, int128 _amount) public view returns (uint) {... */\n    tag_57:\n        /* \"NoBOverround.sol\":11000:11004  uint */\n      0x00\n        /* \"NoBOverround.sol\":11012:11018  uint d */\n      dup1\n        /* \"NoBOverround.sol\":11027:11033  _token */\n      dup4\n      sub(shl(0xa0, 0x01), 0x01)\n        /* \"NoBOverround.sol\":11021:11043  ERC20(_token).decimals */\n      and\n      0x313ce567\n        /* \"NoBOverround.sol\":11021:11045  ERC20(_token).decimals() */\n      mload(0x40)\n      dup2\n      0xffffffff\n      and\n      0xe0\n      shl\n      dup2\n      mstore\n      0x04\n      add\n      0x20\n      mload(0x40)\n      dup1\n      dup4\n      sub\n      dup2\n      dup7\n      gas\n      staticcall\n      iszero\n      dup1\n      iszero\n      tag_189\n      jumpi\n      returndatasize\n      0x00\n      dup1\n      returndatacopy\n      revert(0x00, returndatasize)\n    tag_189:\n      pop\n      pop\n      pop\n      pop\n      mload(0x40)\n      returndatasize\n      not(0x1f)\n      0x1f\n      dup3\n      add\n      and\n      dup3\n      add\n      dup1\n      0x40\n      mstore\n      pop\n      dup2\n      add\n      swap1\n      tag_190\n      swap2\n      swap1\n      tag_191\n      jump\t// in\n    tag_190:\n        /* \"NoBOverround.sol\":11012:11045  uint d = ERC20(_token).decimals() */\n      0xff\n      and\n      swap1\n      pop\n        /* \"NoBOverround.sol\":11051:11066  uint multiplier */\n      0x00\n        /* \"NoBOverround.sol\":11069:11076  10 ** d */\n      tag_192\n        /* \"NoBOverround.sol\":11012:11045  uint d = ERC20(_token).decimals() */\n      dup3\n        /* \"NoBOverround.sol\":11069:11071  10 */\n      0x0a\n        /* \"NoBOverround.sol\":11069:11076  10 ** d */\n      tag_193\n      jump\t// in\n    tag_192:\n        /* \"NoBOverround.sol\":11051:11076  uint multiplier = 10 ** d */\n      swap1\n      pop\n        /* \"NoBOverround.sol\":11101:11102  0 */\n      0x00\n        /* \"NoBOverround.sol\":11090:11097  _amount */\n      dup5\n        /* \"NoBOverround.sol\":11090:11102  _amount >= 0 */\n      0x0f\n      signextend\n      slt\n      iszero\n        /* \"NoBOverround.sol\":11082:11134  require(_amount >= 0, \"Amount must be non-negative\") */\n      tag_194\n      jumpi\n      mload(0x40)\n      shl(0xe5, 0x461bcd)\n      dup2\n      mstore\n        /* \"#utility.yul\":10324:10326   */\n      0x20\n        /* \"NoBOverround.sol\":11082:11134  require(_amount >= 0, \"Amount must be non-negative\") */\n      0x04\n      dup3\n      add\n        /* \"#utility.yul\":10306:10327   */\n      mstore\n        /* \"#utility.yul\":10363:10365   */\n      0x1b\n        /* \"#utility.yul\":10343:10361   */\n      0x24\n      dup3\n      add\n        /* \"#utility.yul\":10336:10366   */\n      mstore\n        /* \"#utility.yul\":10402:10431   */\n      0x416d6f756e74206d757374206265206e6f6e2d6e656761746976650000000000\n        /* \"#utility.yul\":10382:10400   */\n      0x44\n      dup3\n      add\n        /* \"#utility.yul\":10375:10432   */\n      mstore\n        /* \"#utility.yul\":10449:10467   */\n      0x64\n      add\n        /* \"NoBOverround.sol\":11082:11134  require(_amount >= 0, \"Amount must be non-negative\") */\n    tag_195:\n      mload(0x40)\n      dup1\n      swap2\n      sub\n      swap1\n      revert\n    tag_194:\n        /* \"NoBOverround.sol\":11186:11197  uint result */\n      0x00\n        /* \"NoBOverround.sol\":11200:11234  ABDKMath.mulu(_amount, multiplier) */\n      tag_197\n        /* \"NoBOverround.sol\":11214:11221  _amount */\n      dup6\n        /* \"NoBOverround.sol\":11223:11233  multiplier */\n      dup4\n        /* \"NoBOverround.sol\":11200:11213  ABDKMath.mulu */\n      tag_198\n        /* \"NoBOverround.sol\":11200:11234  ABDKMath.mulu(_amount, multiplier) */\n      jump\t// in\n    tag_197:\n        /* \"NoBOverround.sol\":11186:11234  uint result = ABDKMath.mulu(_amount, multiplier) */\n      swap1\n      pop\n        /* \"NoBOverround.sol\":11496:11497  0 */\n      0x00\n        /* \"NoBOverround.sol\":11423:11472  ABDKMath.mul(_amount, int128(int256(multiplier))) */\n      tag_199\n        /* \"NoBOverround.sol\":11436:11443  _amount */\n      dup7\n        /* \"NoBOverround.sol\":11459:11469  multiplier */\n      dup5\n        /* \"NoBOverround.sol\":11423:11435  ABDKMath.mul */\n      tag_200\n        /* \"NoBOverround.sol\":11423:11472  ABDKMath.mul(_amount, int128(int256(multiplier))) */\n      jump\t// in\n    tag_199:\n        /* \"NoBOverround.sol\":11475:11493  0xFFFFFFFFFFFFFFFF */\n      0xffffffffffffffff\n        /* \"NoBOverround.sol\":11423:11493  ABDKMath.mul(_amount, int128(int256(multiplier))) & 0xFFFFFFFFFFFFFFFF */\n      and\n        /* \"NoBOverround.sol\":11423:11497  ABDKMath.mul(_amount, int128(int256(multiplier))) & 0xFFFFFFFFFFFFFFFF > 0 */\n      0x0f\n      signextend\n      sgt\n        /* \"NoBOverround.sol\":11419:11527  if (ABDKMath.mul(_amount, int128(int256(multiplier))) & 0xFFFFFFFFFFFFFFFF > 0) {... */\n      iszero\n      tag_201\n      jumpi\n        /* \"NoBOverround.sol\":11509:11520  result += 1 */\n      tag_202\n        /* \"NoBOverround.sol\":11519:11520  1 */\n      0x01\n        /* \"NoBOverround.sol\":11509:11520  result += 1 */\n      dup3\n      tag_203\n      jump\t// in\n    tag_202:\n      swap1\n      pop\n        /* \"NoBOverround.sol\":11419:11527  if (ABDKMath.mul(_amount, int128(int256(multiplier))) & 0xFFFFFFFFFFFFFFFF > 0) {... */\n    tag_201:\n        /* \"NoBOverround.sol\":11539:11545  result */\n      swap3\n      pop\n      pop\n      pop\n        /* \"NoBOverround.sol\":10924:11548  function getTokenWeiUp(address _token, int128 _amount) public view returns (uint) {... */\n    tag_187:\n      swap3\n      swap2\n      pop\n      pop\n      jump\t// out\n        /* \"NoBOverround.sol\":11843:12023  function getTokenEth(... */\n    tag_63:\n        /* \"NoBOverround.sol\":11927:11933  int128 */\n      0x00\n        /* \"NoBOverround.sol\":11941:11947  uint d */\n      dup1\n        /* \"NoBOverround.sol\":11956:11962  _token */\n      dup4\n      sub(shl(0xa0, 0x01), 0x01)\n        /* \"NoBOverround.sol\":11950:11972  ERC20(_token).decimals */\n      and\n      0x313ce567\n        /* \"NoBOverround.sol\":11950:11974  ERC20(_token).decimals() */\n      mload(0x40)\n      dup2\n      0xffffffff\n      and\n      0xe0\n      shl\n      dup2\n      mstore\n      0x04\n      add\n      0x20\n      mload(0x40)\n      dup1\n      dup4\n      sub\n      dup2\n      dup7\n      gas\n      staticcall\n      iszero\n      dup1\n      iszero\n      tag_206\n      jumpi\n      returndatasize\n      0x00\n      dup1\n      returndatacopy\n      revert(0x00, returndatasize)\n    tag_206:\n      pop\n      pop\n      pop\n      pop\n      mload(0x40)\n      returndatasize\n      not(0x1f)\n      0x1f\n      dup3\n      add\n      and\n      dup3\n      add\n      dup1\n      0x40\n      mstore\n      pop\n      dup2\n      add\n      swap1\n      tag_207\n      swap2\n      swap1\n      tag_191\n      jump\t// in\n    tag_207:\n        /* \"NoBOverround.sol\":11941:11974  uint d = ERC20(_token).decimals() */\n      0xff\n      and\n      swap1\n      pop\n        /* \"NoBOverround.sol\":11987:12018  ABDKMath.divu(_amount, 10 ** d) */\n      tag_208\n        /* \"NoBOverround.sol\":12001:12008  _amount */\n      dup4\n        /* \"NoBOverround.sol\":12010:12017  10 ** d */\n      tag_209\n        /* \"NoBOverround.sol\":11941:11974  uint d = ERC20(_token).decimals() */\n      dup4\n        /* \"NoBOverround.sol\":12010:12012  10 */\n      0x0a\n        /* \"NoBOverround.sol\":12010:12017  10 ** d */\n      tag_193\n      jump\t// in\n    tag_209:\n        /* \"NoBOverround.sol\":11987:12000  ABDKMath.divu */\n      tag_210\n        /* \"NoBOverround.sol\":11987:12018  ABDKMath.divu(_amount, 10 ** d) */\n      jump\t// in\n    tag_208:\n        /* \"NoBOverround.sol\":11980:12018  return ABDKMath.divu(_amount, 10 ** d) */\n      swap5\n        /* \"NoBOverround.sol\":11843:12023  function getTokenEth(... */\n      swap4\n      pop\n      pop\n      pop\n      pop\n      jump\t// out\n        /* \"NoBOverround.sol\":8418:8685  function cost() public view onlyAfterInit() returns (int128) {... */\n    tag_67:\n        /* \"NoBOverround.sol\":12709:12713  init */\n      sload(0x08)\n        /* \"NoBOverround.sol\":8471:8477  int128 */\n      0x00\n      swap1\n      shl(0xa0, 0x01)\n        /* \"NoBOverround.sol\":12709:12713  init */\n      swap1\n      div\n      0xff\n      and\n        /* \"NoBOverround.sol\":12709:12721  init == true */\n      iszero\n      iszero\n        /* \"NoBOverround.sol\":12717:12721  true */\n      0x01\n        /* \"NoBOverround.sol\":12709:12721  init == true */\n      eq\n        /* \"NoBOverround.sol\":12701:12722  require(init == true) */\n      tag_212\n      jumpi\n      0x00\n      dup1\n      revert\n    tag_212:\n        /* \"NoBOverround.sol\":8485:8501  int128 sum_total */\n      0x00\n      dup1\n        /* \"NoBOverround.sol\":8507:8629  for(uint i=0; i< numOutcomes; i++) {... */\n    tag_214:\n        /* \"NoBOverround.sol\":8524:8535  numOutcomes */\n      sload(0x01)\n        /* \"NoBOverround.sol\":8521:8522  i */\n      dup2\n        /* \"NoBOverround.sol\":8521:8535  i< numOutcomes */\n      lt\n        /* \"NoBOverround.sol\":8507:8629  for(uint i=0; i< numOutcomes; i++) {... */\n      iszero\n      tag_215\n      jumpi\n        /* \"NoBOverround.sol\":8562:8622  ABDKMath.add(sum_total, ABDKMath.exp(ABDKMath.div(q[i], b))) */\n      tag_217\n        /* \"NoBOverround.sol\":8575:8584  sum_total */\n      dup3\n        /* \"NoBOverround.sol\":8586:8621  ABDKMath.exp(ABDKMath.div(q[i], b)) */\n      tag_218\n        /* \"NoBOverround.sol\":8599:8620  ABDKMath.div(q[i], b) */\n      tag_219\n        /* \"NoBOverround.sol\":8612:8613  q */\n      0x02\n        /* \"NoBOverround.sol\":8614:8615  i */\n      dup6\n        /* \"NoBOverround.sol\":8612:8616  q[i] */\n      dup2\n      sload\n      dup2\n      lt\n      tag_221\n      jumpi\n      tag_221\n      tag_222\n      jump\t// in\n    tag_221:\n      0x00\n      swap2\n      dup3\n      mstore\n      0x20\n      swap1\n      swap2\n      keccak256\n      0x02\n      dup3\n      div\n      add\n      sload\n        /* \"NoBOverround.sol\":8618:8619  b */\n      sload(0x03)\n        /* \"NoBOverround.sol\":8612:8616  q[i] */\n      0x01\n      swap1\n      swap3\n      and\n      0x10\n      mul\n      0x0100\n      exp\n      swap1\n      div\n      0x0f\n      swap1\n      dup2\n      signextend\n      swap2\n        /* \"NoBOverround.sol\":8618:8619  b */\n      swap1\n      signextend\n        /* \"NoBOverround.sol\":8599:8611  ABDKMath.div */\n      tag_224\n        /* \"NoBOverround.sol\":8599:8620  ABDKMath.div(q[i], b) */\n      jump\t// in\n    tag_219:\n        /* \"NoBOverround.sol\":8586:8598  ABDKMath.exp */\n      tag_225\n        /* \"NoBOverround.sol\":8586:8621  ABDKMath.exp(ABDKMath.div(q[i], b)) */\n      jump\t// in\n    tag_218:\n        /* \"NoBOverround.sol\":8562:8574  ABDKMath.add */\n      tag_226\n        /* \"NoBOverround.sol\":8562:8622  ABDKMath.add(sum_total, ABDKMath.exp(ABDKMath.div(q[i], b))) */\n      jump\t// in\n    tag_217:\n        /* \"NoBOverround.sol\":8550:8622  sum_total = ABDKMath.add(sum_total, ABDKMath.exp(ABDKMath.div(q[i], b))) */\n      swap2\n      pop\n        /* \"NoBOverround.sol\":8537:8540  i++ */\n      0x01\n      add\n        /* \"NoBOverround.sol\":8507:8629  for(uint i=0; i< numOutcomes; i++) {... */\n      jump(tag_214)\n    tag_215:\n      pop\n        /* \"NoBOverround.sol\":8654:8655  b */\n      sload(0x03)\n        /* \"NoBOverround.sol\":8641:8680  ABDKMath.mul(b, ABDKMath.ln(sum_total)) */\n      tag_227\n      swap1\n        /* \"NoBOverround.sol\":8654:8655  b */\n      0x0f\n      signextend\n        /* \"NoBOverround.sol\":8657:8679  ABDKMath.ln(sum_total) */\n      tag_228\n        /* \"NoBOverround.sol\":8669:8678  sum_total */\n      dup4\n        /* \"NoBOverround.sol\":8657:8668  ABDKMath.ln */\n      tag_229\n        /* \"NoBOverround.sol\":8657:8679  ABDKMath.ln(sum_total) */\n      jump\t// in\n    tag_228:\n        /* \"NoBOverround.sol\":8641:8653  ABDKMath.mul */\n      tag_200\n        /* \"NoBOverround.sol\":8641:8680  ABDKMath.mul(b, ABDKMath.ln(sum_total)) */\n      jump\t// in\n    tag_227:\n        /* \"NoBOverround.sol\":8634:8680  return ABDKMath.mul(b, ABDKMath.ln(sum_total)) */\n      swap2\n      pop\n      pop\n        /* \"NoBOverround.sol\":12730:12731  _ */\n    tag_213:\n        /* \"NoBOverround.sol\":8418:8685  function cost() public view onlyAfterInit() returns (int128) {... */\n      swap1\n      jump\t// out\n        /* \"NoBOverround.sol\":7187:7622  function withdraw() public onlyAfterInit() onlyOwner() {... */\n    tag_70:\n        /* \"NoBOverround.sol\":12709:12713  init */\n      sload(0x08)\n      shl(0xa0, 0x01)\n      swap1\n      div\n      0xff\n      and\n        /* \"NoBOverround.sol\":12709:12721  init == true */\n      iszero\n      iszero\n        /* \"NoBOverround.sol\":12717:12721  true */\n      0x01\n        /* \"NoBOverround.sol\":12709:12721  init == true */\n      eq\n        /* \"NoBOverround.sol\":12701:12722  require(init == true) */\n      tag_231\n      jumpi\n      0x00\n      dup1\n      revert\n    tag_231:\n        /* \"@openzeppelin/contracts/access/Ownable.sol\":1531:1544   */\n      tag_233\n        /* \"@openzeppelin/contracts/access/Ownable.sol\":1531:1542   */\n      tag_234\n        /* \"@openzeppelin/contracts/access/Ownable.sol\":1531:1544   */\n      jump\t// in\n    tag_233:\n        /* \"NoBOverround.sol\":7256:7258  CT */\n      sload(0x07)\n        /* \"NoBOverround.sol\":7277:7286  condition */\n      sload(0x06)\n        /* \"NoBOverround.sol\":7256:7287  CT.payoutDenominator(condition) */\n      mload(0x40)\n      shl(0xe0, 0xdd34de67)\n      dup2\n      mstore\n      sub(shl(0xa0, 0x01), 0x01)\n        /* \"NoBOverround.sol\":7256:7258  CT */\n      swap1\n      swap3\n      and\n      swap2\n        /* \"NoBOverround.sol\":7256:7276  CT.payoutDenominator */\n      0xdd34de67\n      swap2\n        /* \"NoBOverround.sol\":7256:7287  CT.payoutDenominator(condition) */\n      tag_236\n      swap2\n      0x04\n      add\n        /* \"#utility.yul\":1274:1299   */\n      swap1\n      dup2\n      mstore\n        /* \"#utility.yul\":1262:1264   */\n      0x20\n        /* \"#utility.yul\":1247:1265   */\n      add\n      swap1\n        /* \"#utility.yul\":1128:1305   */\n      jump\n        /* \"NoBOverround.sol\":7256:7287  CT.payoutDenominator(condition) */\n    tag_236:\n      0x20\n      mload(0x40)\n      dup1\n      dup4\n      sub\n      dup2\n      dup7\n      gas\n      staticcall\n      iszero\n      dup1\n      iszero\n      tag_238\n      jumpi\n      returndatasize\n      0x00\n      dup1\n      returndatacopy\n      revert(0x00, returndatasize)\n    tag_238:\n      pop\n      pop\n      pop\n      pop\n      mload(0x40)\n      returndatasize\n      not(0x1f)\n      0x1f\n      dup3\n      add\n      and\n      dup3\n      add\n      dup1\n      0x40\n      mstore\n      pop\n      dup2\n      add\n      swap1\n      tag_239\n      swap2\n      swap1\n      tag_240\n      jump\t// in\n    tag_239:\n        /* \"NoBOverround.sol\":7291:7292  0 */\n      0x00\n        /* \"NoBOverround.sol\":7256:7292  CT.payoutDenominator(condition) != 0 */\n      sub\n        /* \"NoBOverround.sol\":7248:7324  require(CT.payoutDenominator(condition) != 0, 'Market needs to be resolved') */\n      tag_241\n      jumpi\n      mload(0x40)\n      shl(0xe5, 0x461bcd)\n      dup2\n      mstore\n        /* \"#utility.yul\":11131:11133   */\n      0x20\n        /* \"NoBOverround.sol\":7248:7324  require(CT.payoutDenominator(condition) != 0, 'Market needs to be resolved') */\n      0x04\n      dup3\n      add\n        /* \"#utility.yul\":11113:11134   */\n      mstore\n        /* \"#utility.yul\":11170:11172   */\n      0x1b\n        /* \"#utility.yul\":11150:11168   */\n      0x24\n      dup3\n      add\n        /* \"#utility.yul\":11143:11173   */\n      mstore\n        /* \"#utility.yul\":11209:11238   */\n      0x4d61726b6574206e6565647320746f206265207265736f6c7665640000000000\n        /* \"#utility.yul\":11189:11207   */\n      0x44\n      dup3\n      add\n        /* \"#utility.yul\":11182:11239   */\n      mstore\n        /* \"#utility.yul\":11256:11274   */\n      0x64\n      add\n        /* \"NoBOverround.sol\":7248:7324  require(CT.payoutDenominator(condition) != 0, 'Market needs to be resolved') */\n      tag_195\n        /* \"#utility.yul\":10929:11280   */\n      jump\n        /* \"NoBOverround.sol\":7248:7324  require(CT.payoutDenominator(condition) != 0, 'Market needs to be resolved') */\n    tag_241:\n        /* \"NoBOverround.sol\":7330:7348  uint[] memory dust */\n      0x00\n        /* \"NoBOverround.sol\":7365:7376  numOutcomes */\n      sload(0x01)\n        /* \"NoBOverround.sol\":7351:7377  new uint256[](numOutcomes) */\n      0xffffffffffffffff\n      dup2\n      gt\n      iszero\n      tag_245\n      jumpi\n      tag_245\n      tag_246\n      jump\t// in\n    tag_245:\n      mload(0x40)\n      swap1\n      dup1\n      dup3\n      mstore\n      dup1\n      0x20\n      mul\n      0x20\n      add\n      dup3\n      add\n      0x40\n      mstore\n      dup1\n      iszero\n      tag_247\n      jumpi\n      dup2\n      0x20\n      add\n      0x20\n      dup3\n      mul\n      dup1\n      calldatasize\n      dup4\n      calldatacopy\n      add\n      swap1\n      pop\n    tag_247:\n      pop\n        /* \"NoBOverround.sol\":7330:7377  uint[] memory dust = new uint256[](numOutcomes) */\n      swap1\n      pop\n        /* \"NoBOverround.sol\":7407:7413  uint i */\n      0x00\n        /* \"NoBOverround.sol\":7402:7466  for (uint i=0; i<numOutcomes; i++) {... */\n    tag_248:\n        /* \"NoBOverround.sol\":7419:7430  numOutcomes */\n      sload(0x01)\n        /* \"NoBOverround.sol\":7417:7418  i */\n      dup2\n        /* \"NoBOverround.sol\":7417:7430  i<numOutcomes */\n      lt\n        /* \"NoBOverround.sol\":7402:7466  for (uint i=0; i<numOutcomes; i++) {... */\n      iszero\n      tag_249\n      jumpi\n        /* \"NoBOverround.sol\":7458:7459  i */\n      dup1\n        /* \"NoBOverround.sol\":7455:7456  1 */\n      0x01\n        /* \"NoBOverround.sol\":7455:7459  1<<i */\n      swap1\n      shl\n        /* \"NoBOverround.sol\":7445:7449  dust */\n      dup3\n        /* \"NoBOverround.sol\":7450:7451  i */\n      dup3\n        /* \"NoBOverround.sol\":7445:7452  dust[i] */\n      dup2\n      mload\n      dup2\n      lt\n      tag_252\n      jumpi\n      tag_252\n      tag_222\n      jump\t// in\n    tag_252:\n      0x20\n      swap1\n      dup2\n      mul\n      swap2\n      swap1\n      swap2\n      add\n      add\n        /* \"NoBOverround.sol\":7445:7459  dust[i] = 1<<i */\n      mstore\n        /* \"NoBOverround.sol\":7432:7435  i++ */\n      0x01\n      add\n        /* \"NoBOverround.sol\":7402:7466  for (uint i=0; i<numOutcomes; i++) {... */\n      jump(tag_248)\n    tag_249:\n      pop\n        /* \"NoBOverround.sol\":7471:7473  CT */\n      sload(0x07)\n        /* \"NoBOverround.sol\":7497:7502  token */\n      sload(0x08)\n        /* \"NoBOverround.sol\":7517:7526  condition */\n      sload(0x06)\n        /* \"NoBOverround.sol\":7471:7533  CT.redeemPositions(IERC20(token), bytes32(0), condition, dust) */\n      mload(0x40)\n      shl(0xe2, 0x6dc0df)\n      dup2\n      mstore\n      sub(shl(0xa0, 0x01), 0x01)\n        /* \"NoBOverround.sol\":7471:7473  CT */\n      swap4\n      dup5\n      and\n      swap4\n        /* \"NoBOverround.sol\":7471:7489  CT.redeemPositions */\n      0x01b7037c\n      swap4\n        /* \"NoBOverround.sol\":7471:7533  CT.redeemPositions(IERC20(token), bytes32(0), condition, dust) */\n      tag_253\n      swap4\n        /* \"NoBOverround.sol\":7497:7502  token */\n      swap2\n      and\n      swap2\n        /* \"NoBOverround.sol\":7471:7473  CT */\n      0x00\n      swap2\n        /* \"NoBOverround.sol\":7517:7526  condition */\n      swap1\n        /* \"NoBOverround.sol\":7528:7532  dust */\n      dup8\n      swap1\n        /* \"NoBOverround.sol\":7471:7533  CT.redeemPositions(IERC20(token), bytes32(0), condition, dust) */\n      0x04\n      add\n      tag_254\n      jump\t// in\n    tag_253:\n      0x00\n      mload(0x40)\n      dup1\n      dup4\n      sub\n      dup2\n      0x00\n      dup8\n      dup1\n      extcodesize\n      iszero\n      dup1\n      iszero\n      tag_255\n      jumpi\n      0x00\n      dup1\n      revert\n    tag_255:\n      pop\n      gas\n      call\n      iszero\n      dup1\n      iszero\n      tag_257\n      jumpi\n      returndatasize\n      0x00\n      dup1\n      returndatacopy\n      revert(0x00, returndatasize)\n    tag_257:\n      pop\n      pop\n        /* \"NoBOverround.sol\":7585:7590  token */\n      sload(0x08)\n        /* \"NoBOverround.sol\":7578:7616  IERC20(token).balanceOf(address(this)) */\n      mload(0x40)\n      shl(0xe0, 0x70a08231)\n      dup2\n      mstore\n        /* \"NoBOverround.sol\":7610:7614  this */\n      address\n        /* \"NoBOverround.sol\":7578:7616  IERC20(token).balanceOf(address(this)) */\n      0x04\n      dup3\n      add\n        /* \"#utility.yul\":5222:5296   */\n      mstore\n        /* \"NoBOverround.sol\":7539:7617  IERC20(token).safeTransfer(msg.sender, IERC20(token).balanceOf(address(this))) */\n      tag_258\n      swap4\n      pop\n        /* \"NoBOverround.sol\":7566:7576  msg.sender */\n      caller\n      swap3\n      pop\n      sub(shl(0xa0, 0x01), 0x01)\n        /* \"NoBOverround.sol\":7585:7590  token */\n      swap1\n      swap2\n      and\n      swap1\n        /* \"NoBOverround.sol\":7578:7601  IERC20(token).balanceOf */\n      0x70a08231\n      swap1\n        /* \"#utility.yul\":5195:5213   */\n      0x24\n      add\n        /* \"NoBOverround.sol\":7578:7616  IERC20(token).balanceOf(address(this)) */\n      0x20\n      mload(0x40)\n      dup1\n      dup4\n      sub\n      dup2\n      dup7\n      gas\n      staticcall\n      iszero\n      dup1\n      iszero\n      tag_261\n      jumpi\n      returndatasize\n      0x00\n      dup1\n      returndatacopy\n      revert(0x00, returndatasize)\n    tag_261:\n      pop\n      pop\n      pop\n      pop\n      mload(0x40)\n      returndatasize\n      not(0x1f)\n      0x1f\n      dup3\n      add\n      and\n      dup3\n      add\n      dup1\n      0x40\n      mstore\n      pop\n      dup2\n      add\n      swap1\n      tag_262\n      swap2\n      swap1\n      tag_240\n      jump\t// in\n    tag_262:\n        /* \"NoBOverround.sol\":7546:7551  token */\n      and(sub(shl(0xa0, 0x01), 0x01), sload(0x08))\n      swap2\n        /* \"NoBOverround.sol\":7539:7617  IERC20(token).safeTransfer(msg.sender, IERC20(token).balanceOf(address(this))) */\n      swap1\n        /* \"NoBOverround.sol\":7539:7565  IERC20(token).safeTransfer */\n      tag_263\n        /* \"NoBOverround.sol\":7539:7617  IERC20(token).safeTransfer(msg.sender, IERC20(token).balanceOf(address(this))) */\n      jump\t// in\n    tag_258:\n        /* \"NoBOverround.sol\":7242:7622  {... */\n      pop\n        /* \"NoBOverround.sol\":7187:7622  function withdraw() public onlyAfterInit() onlyOwner() {... */\n      jump\t// out\n        /* \"NoBOverround.sol\":10540:10920  function getTokenWei(address _token, int128 _amount) public view returns (uint) {... */\n    tag_73:\n        /* \"NoBOverround.sol\":10614:10618  uint */\n      0x00\n        /* \"NoBOverround.sol\":10626:10632  uint d */\n      dup1\n        /* \"NoBOverround.sol\":10641:10647  _token */\n      dup4\n      sub(shl(0xa0, 0x01), 0x01)\n        /* \"NoBOverround.sol\":10635:10657  ERC20(_token).decimals */\n      and\n      0x313ce567\n        /* \"NoBOverround.sol\":10635:10659  ERC20(_token).decimals() */\n      mload(0x40)\n      dup2\n      0xffffffff\n      and\n      0xe0\n      shl\n      dup2\n      mstore\n      0x04\n      add\n      0x20\n      mload(0x40)\n      dup1\n      dup4\n      sub\n      dup2\n      dup7\n      gas\n      staticcall\n      iszero\n      dup1\n      iszero\n      tag_266\n      jumpi\n      returndatasize\n      0x00\n      dup1\n      returndatacopy\n      revert(0x00, returndatasize)\n    tag_266:\n      pop\n      pop\n      pop\n      pop\n      mload(0x40)\n      returndatasize\n      not(0x1f)\n      0x1f\n      dup3\n      add\n      and\n      dup3\n      add\n      dup1\n      0x40\n      mstore\n      pop\n      dup2\n      add\n      swap1\n      tag_267\n      swap2\n      swap1\n      tag_191\n      jump\t// in\n    tag_267:\n        /* \"NoBOverround.sol\":10626:10659  uint d = ERC20(_token).decimals() */\n      0xff\n      and\n      swap1\n      pop\n        /* \"NoBOverround.sol\":10665:10680  uint multiplier */\n      0x00\n        /* \"NoBOverround.sol\":10683:10690  10 ** d */\n      tag_268\n        /* \"NoBOverround.sol\":10626:10659  uint d = ERC20(_token).decimals() */\n      dup3\n        /* \"NoBOverround.sol\":10683:10685  10 */\n      0x0a\n        /* \"NoBOverround.sol\":10683:10690  10 ** d */\n      tag_193\n      jump\t// in\n    tag_268:\n        /* \"NoBOverround.sol\":10665:10690  uint multiplier = 10 ** d */\n      swap1\n      pop\n        /* \"NoBOverround.sol\":10715:10716  0 */\n      0x00\n        /* \"NoBOverround.sol\":10704:10711  _amount */\n      dup5\n        /* \"NoBOverround.sol\":10704:10716  _amount >= 0 */\n      0x0f\n      signextend\n      slt\n      iszero\n        /* \"NoBOverround.sol\":10696:10748  require(_amount >= 0, \"Amount must be non-negative\") */\n      tag_269\n      jumpi\n      mload(0x40)\n      shl(0xe5, 0x461bcd)\n      dup2\n      mstore\n        /* \"#utility.yul\":10324:10326   */\n      0x20\n        /* \"NoBOverround.sol\":10696:10748  require(_amount >= 0, \"Amount must be non-negative\") */\n      0x04\n      dup3\n      add\n        /* \"#utility.yul\":10306:10327   */\n      mstore\n        /* \"#utility.yul\":10363:10365   */\n      0x1b\n        /* \"#utility.yul\":10343:10361   */\n      0x24\n      dup3\n      add\n        /* \"#utility.yul\":10336:10366   */\n      mstore\n        /* \"#utility.yul\":10402:10431   */\n      0x416d6f756e74206d757374206265206e6f6e2d6e656761746976650000000000\n        /* \"#utility.yul\":10382:10400   */\n      0x44\n      dup3\n      add\n        /* \"#utility.yul\":10375:10432   */\n      mstore\n        /* \"#utility.yul\":10449:10467   */\n      0x64\n      add\n        /* \"NoBOverround.sol\":10696:10748  require(_amount >= 0, \"Amount must be non-negative\") */\n      tag_195\n        /* \"#utility.yul\":10122:10473   */\n      jump\n        /* \"NoBOverround.sol\":10696:10748  require(_amount >= 0, \"Amount must be non-negative\") */\n    tag_269:\n        /* \"NoBOverround.sol\":10798:10809  uint result */\n      0x00\n        /* \"NoBOverround.sol\":10812:10846  ABDKMath.mulu(_amount, multiplier) */\n      tag_202\n        /* \"NoBOverround.sol\":10826:10833  _amount */\n      dup6\n        /* \"NoBOverround.sol\":10835:10845  multiplier */\n      dup4\n        /* \"NoBOverround.sol\":10812:10825  ABDKMath.mulu */\n      tag_198\n        /* \"NoBOverround.sol\":10812:10846  ABDKMath.mulu(_amount, multiplier) */\n      jump\t// in\n        /* \"NoBOverround.sol\":9657:10208  function odds(... */\n    tag_78:\n        /* \"NoBOverround.sol\":9718:9724  int128 */\n      0x00\n        /* \"NoBOverround.sol\":9751:9762  numOutcomes */\n      sload(0x01)\n        /* \"NoBOverround.sol\":9740:9748  _outcome */\n      dup3\n        /* \"NoBOverround.sol\":9740:9762  _outcome < numOutcomes */\n      lt\n        /* \"NoBOverround.sol\":9732:9788  require(_outcome < numOutcomes, \"Invalid outcome index\") */\n      tag_273\n      jumpi\n      mload(0x40)\n      shl(0xe5, 0x461bcd)\n      dup2\n      mstore\n        /* \"#utility.yul\":12033:12035   */\n      0x20\n        /* \"NoBOverround.sol\":9732:9788  require(_outcome < numOutcomes, \"Invalid outcome index\") */\n      0x04\n      dup3\n      add\n        /* \"#utility.yul\":12015:12036   */\n      mstore\n        /* \"#utility.yul\":12072:12074   */\n      0x15\n        /* \"#utility.yul\":12052:12070   */\n      0x24\n      dup3\n      add\n        /* \"#utility.yul\":12045:12075   */\n      mstore\n      shl(0x5b, 0x092dcecc2d8d2c840deeae8c6dedaca40d2dcc8caf)\n        /* \"#utility.yul\":12091:12109   */\n      0x44\n      dup3\n      add\n        /* \"#utility.yul\":12084:12135   */\n      mstore\n        /* \"#utility.yul\":12152:12170   */\n      0x64\n      add\n        /* \"NoBOverround.sol\":9732:9788  require(_outcome < numOutcomes, \"Invalid outcome index\") */\n      tag_195\n        /* \"#utility.yul\":11831:12176   */\n      jump\n        /* \"NoBOverround.sol\":9732:9788  require(_outcome < numOutcomes, \"Invalid outcome index\") */\n    tag_273:\n        /* \"NoBOverround.sol\":9840:9856  int128 numerator */\n      0x00\n        /* \"NoBOverround.sol\":9859:9901  ABDKMath.exp(ABDKMath.div(q[_outcome], b)) */\n      tag_276\n        /* \"NoBOverround.sol\":9872:9900  ABDKMath.div(q[_outcome], b) */\n      tag_219\n        /* \"NoBOverround.sol\":9885:9886  q */\n      0x02\n        /* \"NoBOverround.sol\":9887:9895  _outcome */\n      dup6\n        /* \"NoBOverround.sol\":9885:9896  q[_outcome] */\n      dup2\n      sload\n      dup2\n      lt\n      tag_221\n      jumpi\n      tag_221\n      tag_222\n      jump\t// in\n        /* \"NoBOverround.sol\":9859:9901  ABDKMath.exp(ABDKMath.div(q[_outcome], b)) */\n    tag_276:\n        /* \"NoBOverround.sol\":9840:9901  int128 numerator = ABDKMath.exp(ABDKMath.div(q[_outcome], b)) */\n      swap1\n      pop\n        /* \"NoBOverround.sol\":9954:9972  int128 denominator */\n      0x00\n      dup1\n        /* \"NoBOverround.sol\":9978:10108  for (uint i = 0; i < numOutcomes; i++) {... */\n    tag_281:\n        /* \"NoBOverround.sol\":9999:10010  numOutcomes */\n      sload(0x01)\n        /* \"NoBOverround.sol\":9995:9996  i */\n      dup2\n        /* \"NoBOverround.sol\":9995:10010  i < numOutcomes */\n      lt\n        /* \"NoBOverround.sol\":9978:10108  for (uint i = 0; i < numOutcomes; i++) {... */\n      iszero\n      tag_282\n      jumpi\n        /* \"NoBOverround.sol\":10039:10101  ABDKMath.add(denominator, ABDKMath.exp(ABDKMath.div(q[i], b))) */\n      tag_284\n        /* \"NoBOverround.sol\":10052:10063  denominator */\n      dup3\n        /* \"NoBOverround.sol\":10065:10100  ABDKMath.exp(ABDKMath.div(q[i], b)) */\n      tag_218\n        /* \"NoBOverround.sol\":10078:10099  ABDKMath.div(q[i], b) */\n      tag_219\n        /* \"NoBOverround.sol\":10091:10092  q */\n      0x02\n        /* \"NoBOverround.sol\":10093:10094  i */\n      dup6\n        /* \"NoBOverround.sol\":10091:10095  q[i] */\n      dup2\n      sload\n      dup2\n      lt\n      tag_221\n      jumpi\n      tag_221\n      tag_222\n      jump\t// in\n        /* \"NoBOverround.sol\":10039:10101  ABDKMath.add(denominator, ABDKMath.exp(ABDKMath.div(q[i], b))) */\n    tag_284:\n        /* \"NoBOverround.sol\":10025:10101  denominator = ABDKMath.add(denominator, ABDKMath.exp(ABDKMath.div(q[i], b))) */\n      swap2\n      pop\n        /* \"NoBOverround.sol\":10012:10015  i++ */\n      0x01\n      add\n        /* \"NoBOverround.sol\":9978:10108  for (uint i = 0; i < numOutcomes; i++) {... */\n      jump(tag_281)\n    tag_282:\n      pop\n        /* \"NoBOverround.sol\":10167:10203  ABDKMath.div(numerator, denominator) */\n      tag_208\n        /* \"NoBOverround.sol\":10180:10189  numerator */\n      dup3\n        /* \"NoBOverround.sol\":10191:10202  denominator */\n      dup3\n        /* \"NoBOverround.sol\":10167:10179  ABDKMath.div */\n      tag_224\n        /* \"NoBOverround.sol\":10167:10203  ABDKMath.div(numerator, denominator) */\n      jump\t// in\n        /* \"NoBOverround.sol\":18076:18450  function withdrawFees() public onlyOwner {... */\n    tag_81:\n        /* \"@openzeppelin/contracts/access/Ownable.sol\":1531:1544   */\n      tag_292\n        /* \"@openzeppelin/contracts/access/Ownable.sol\":1531:1542   */\n      tag_234\n        /* \"@openzeppelin/contracts/access/Ownable.sol\":1531:1544   */\n      jump\t// in\n    tag_292:\n        /* \"NoBOverround.sol\":18151:18156  token */\n      sload(0x08)\n        /* \"NoBOverround.sol\":18144:18182  IERC20(token).balanceOf(address(this)) */\n      mload(0x40)\n      shl(0xe0, 0x70a08231)\n      dup2\n      mstore\n        /* \"NoBOverround.sol\":18176:18180  this */\n      address\n        /* \"NoBOverround.sol\":18144:18182  IERC20(token).balanceOf(address(this)) */\n      0x04\n      dup3\n      add\n        /* \"#utility.yul\":5222:5296   */\n      mstore\n        /* \"NoBOverround.sol\":18123:18141  uint actualBalance */\n      0x00\n      swap2\n      sub(shl(0xa0, 0x01), 0x01)\n        /* \"NoBOverround.sol\":18151:18156  token */\n      and\n      swap1\n        /* \"NoBOverround.sol\":18144:18167  IERC20(token).balanceOf */\n      0x70a08231\n      swap1\n        /* \"#utility.yul\":5195:5213   */\n      0x24\n      add\n        /* \"NoBOverround.sol\":18144:18182  IERC20(token).balanceOf(address(this)) */\n      0x20\n      mload(0x40)\n      dup1\n      dup4\n      sub\n      dup2\n      dup7\n      gas\n      staticcall\n      iszero\n      dup1\n      iszero\n      tag_296\n      jumpi\n      returndatasize\n      0x00\n      dup1\n      returndatacopy\n      revert(0x00, returndatasize)\n    tag_296:\n      pop\n      pop\n      pop\n      pop\n      mload(0x40)\n      returndatasize\n      not(0x1f)\n      0x1f\n      dup3\n      add\n      and\n      dup3\n      add\n      dup1\n      0x40\n      mstore\n      pop\n      dup2\n      add\n      swap1\n      tag_297\n      swap2\n      swap1\n      tag_240\n      jump\t// in\n    tag_297:\n        /* \"NoBOverround.sol\":18223:18228  token */\n      sload(0x08)\n        /* \"NoBOverround.sol\":18230:18242  current_cost */\n      sload(0x03)\n        /* \"NoBOverround.sol\":18123:18182  uint actualBalance = IERC20(token).balanceOf(address(this)) */\n      swap2\n      swap3\n      pop\n        /* \"NoBOverround.sol\":18188:18208  uint theoreticalCost */\n      0x00\n      swap2\n        /* \"NoBOverround.sol\":18211:18243  getTokenWei(token, current_cost) */\n      tag_298\n      swap2\n      sub(shl(0xa0, 0x01), 0x01)\n        /* \"NoBOverround.sol\":18223:18228  token */\n      and\n      swap1\n      shl(0x80, 0x01)\n        /* \"NoBOverround.sol\":18230:18242  current_cost */\n      swap1\n      div\n      0x0f\n      signextend\n        /* \"NoBOverround.sol\":18211:18222  getTokenWei */\n      tag_73\n        /* \"NoBOverround.sol\":18211:18243  getTokenWei(token, current_cost) */\n      jump\t// in\n    tag_298:\n        /* \"NoBOverround.sol\":18188:18243  uint theoreticalCost = getTokenWei(token, current_cost) */\n      swap1\n      pop\n        /* \"NoBOverround.sol\":18273:18288  theoreticalCost */\n      dup1\n        /* \"NoBOverround.sol\":18257:18270  actualBalance */\n      dup3\n        /* \"NoBOverround.sol\":18257:18288  actualBalance > theoreticalCost */\n      gt\n        /* \"NoBOverround.sol\":18249:18312  require(actualBalance > theoreticalCost, \"No fees to withdraw\") */\n      tag_299\n      jumpi\n      mload(0x40)\n      shl(0xe5, 0x461bcd)\n      dup2\n      mstore\n        /* \"#utility.yul\":12383:12385   */\n      0x20\n        /* \"NoBOverround.sol\":18249:18312  require(actualBalance > theoreticalCost, \"No fees to withdraw\") */\n      0x04\n      dup3\n      add\n        /* \"#utility.yul\":12365:12386   */\n      mstore\n        /* \"#utility.yul\":12422:12424   */\n      0x13\n        /* \"#utility.yul\":12402:12420   */\n      0x24\n      dup3\n      add\n        /* \"#utility.yul\":12395:12425   */\n      mstore\n        /* \"#utility.yul\":12461:12482   */\n      0x4e6f206665657320746f20776974686472617700000000000000000000000000\n        /* \"#utility.yul\":12441:12459   */\n      0x44\n      dup3\n      add\n        /* \"#utility.yul\":12434:12483   */\n      mstore\n        /* \"#utility.yul\":12500:12518   */\n      0x64\n      add\n        /* \"NoBOverround.sol\":18249:18312  require(actualBalance > theoreticalCost, \"No fees to withdraw\") */\n      tag_195\n        /* \"#utility.yul\":12181:12524   */\n      jump\n        /* \"NoBOverround.sol\":18249:18312  require(actualBalance > theoreticalCost, \"No fees to withdraw\") */\n    tag_299:\n        /* \"NoBOverround.sol\":18318:18327  uint fees */\n      0x00\n        /* \"NoBOverround.sol\":18330:18361  actualBalance - theoreticalCost */\n      tag_302\n        /* \"NoBOverround.sol\":18346:18361  theoreticalCost */\n      dup3\n        /* \"NoBOverround.sol\":18330:18343  actualBalance */\n      dup5\n        /* \"NoBOverround.sol\":18330:18361  actualBalance - theoreticalCost */\n      tag_303\n      jump\t// in\n    tag_302:\n        /* \"NoBOverround.sol\":18318:18361  uint fees = actualBalance - theoreticalCost */\n      swap1\n      pop\n        /* \"NoBOverround.sol\":18367:18408  IERC20(token).safeTransfer(owner(), fees) */\n      tag_304\n        /* \"NoBOverround.sol\":18394:18401  owner() */\n      tag_305\n        /* \"@openzeppelin/contracts/access/Ownable.sol\":1684:1691   */\n      0x00\n        /* \"@openzeppelin/contracts/access/Ownable.sol\":1710:1716   */\n      sload\n      sub(shl(0xa0, 0x01), 0x01)\n      and\n      swap1\n        /* \"@openzeppelin/contracts/access/Ownable.sol\":1638:1723   */\n      jump\n        /* \"NoBOverround.sol\":18394:18401  owner() */\n    tag_305:\n        /* \"NoBOverround.sol\":18374:18379  token */\n      and(sub(shl(0xa0, 0x01), 0x01), sload(0x08))\n      swap1\n        /* \"NoBOverround.sol\":18403:18407  fees */\n      dup4\n        /* \"NoBOverround.sol\":18367:18393  IERC20(token).safeTransfer */\n      tag_263\n        /* \"NoBOverround.sol\":18367:18408  IERC20(token).safeTransfer(owner(), fees) */\n      jump\t// in\n    tag_304:\n        /* \"@openzeppelin/contracts/access/Ownable.sol\":1684:1691   */\n      0x00\n        /* \"@openzeppelin/contracts/access/Ownable.sol\":1710:1716   */\n      sload\n      sub(shl(0xa0, 0x01), 0x01)\n      and\n      sub(shl(0xa0, 0x01), 0x01)\n        /* \"NoBOverround.sol\":18419:18447  FeesWithdrawn(owner(), fees) */\n      and\n      0xc0819c13be868895eb93e40eaceb96de976442fa1d404e5c55f14bb65a8c489a\n        /* \"NoBOverround.sol\":18442:18446  fees */\n      dup3\n        /* \"NoBOverround.sol\":18419:18447  FeesWithdrawn(owner(), fees) */\n      mload(0x40)\n      tag_307\n      swap2\n        /* \"#utility.yul\":1274:1299   */\n      dup2\n      mstore\n        /* \"#utility.yul\":1262:1264   */\n      0x20\n        /* \"#utility.yul\":1247:1265   */\n      add\n      swap1\n        /* \"#utility.yul\":1128:1305   */\n      jump\n        /* \"NoBOverround.sol\":18419:18447  FeesWithdrawn(owner(), fees) */\n    tag_307:\n      mload(0x40)\n      dup1\n      swap2\n      sub\n      swap1\n      log2\n        /* \"NoBOverround.sol\":18117:18450  {... */\n      pop\n      pop\n      pop\n        /* \"NoBOverround.sol\":18076:18450  function withdrawFees() public onlyOwner {... */\n      jump\t// out\n        /* \"NoBOverround.sol\":3178:4121  function setup(... */\n    tag_85:\n        /* \"@openzeppelin/contracts/access/Ownable.sol\":1531:1544   */\n      tag_309\n        /* \"@openzeppelin/contracts/access/Ownable.sol\":1531:1542   */\n      tag_234\n        /* \"@openzeppelin/contracts/access/Ownable.sol\":1531:1544   */\n      jump\t// in\n    tag_309:\n        /* \"NoBOverround.sol\":3363:3367  init */\n      sload(0x08)\n      shl(0xa0, 0x01)\n      swap1\n      div\n      0xff\n      and\n        /* \"NoBOverround.sol\":3363:3376  init == false */\n      iszero\n        /* \"NoBOverround.sol\":3355:3392  require(init == false,'Already init') */\n      tag_311\n      jumpi\n      mload(0x40)\n      shl(0xe5, 0x461bcd)\n      dup2\n      mstore\n        /* \"#utility.yul\":12864:12866   */\n      0x20\n        /* \"NoBOverround.sol\":3355:3392  require(init == false,'Already init') */\n      0x04\n      dup3\n      add\n        /* \"#utility.yul\":12846:12867   */\n      mstore\n        /* \"#utility.yul\":12903:12905   */\n      0x0c\n        /* \"#utility.yul\":12883:12901   */\n      0x24\n      dup3\n      add\n        /* \"#utility.yul\":12876:12906   */\n      mstore\n        /* \"#utility.yul\":12942:12956   */\n      0x416c726561647920696e69740000000000000000000000000000000000000000\n        /* \"#utility.yul\":12922:12940   */\n      0x44\n      dup3\n      add\n        /* \"#utility.yul\":12915:12957   */\n      mstore\n        /* \"#utility.yul\":12974:12992   */\n      0x64\n      add\n        /* \"NoBOverround.sol\":3355:3392  require(init == false,'Already init') */\n      tag_195\n        /* \"#utility.yul\":12662:12998   */\n      jump\n        /* \"NoBOverround.sol\":3355:3392  require(init == false,'Already init') */\n    tag_311:\n        /* \"NoBOverround.sol\":3419:3420  0 */\n      0x00\n        /* \"NoBOverround.sol\":3406:3416  _overround */\n      dup2\n        /* \"NoBOverround.sol\":3406:3420  _overround > 0 */\n      gt\n        /* \"NoBOverround.sol\":3398:3447  require(_overround > 0,'Cannot have 0 overround') */\n      tag_314\n      jumpi\n      mload(0x40)\n      shl(0xe5, 0x461bcd)\n      dup2\n      mstore\n        /* \"#utility.yul\":13205:13207   */\n      0x20\n        /* \"NoBOverround.sol\":3398:3447  require(_overround > 0,'Cannot have 0 overround') */\n      0x04\n      dup3\n      add\n        /* \"#utility.yul\":13187:13208   */\n      mstore\n        /* \"#utility.yul\":13244:13246   */\n      0x17\n        /* \"#utility.yul\":13224:13242   */\n      0x24\n      dup3\n      add\n        /* \"#utility.yul\":13217:13247   */\n      mstore\n        /* \"#utility.yul\":13283:13308   */\n      0x43616e6e6f7420686176652030206f766572726f756e64000000000000000000\n        /* \"#utility.yul\":13263:13281   */\n      0x44\n      dup3\n      add\n        /* \"#utility.yul\":13256:13309   */\n      mstore\n        /* \"#utility.yul\":13326:13344   */\n      0x64\n      add\n        /* \"NoBOverround.sol\":3398:3447  require(_overround > 0,'Cannot have 0 overround') */\n      tag_195\n        /* \"#utility.yul\":13003:13350   */\n      jump\n        /* \"NoBOverround.sol\":3398:3447  require(_overround > 0,'Cannot have 0 overround') */\n    tag_314:\n        /* \"NoBOverround.sol\":3453:3455  CT */\n      sload(0x07)\n        /* \"NoBOverround.sol\":3453:3508  CT.prepareCondition(_oracle, _questionId, _numOutcomes) */\n      mload(0x40)\n      shl(0xe2, 0x365bb9d5)\n      dup2\n      mstore\n      sub(shl(0xa0, 0x01), 0x01)\n        /* \"#utility.yul\":13575:13630   */\n      dup9\n      dup2\n      and\n        /* \"NoBOverround.sol\":3453:3508  CT.prepareCondition(_oracle, _questionId, _numOutcomes) */\n      0x04\n      dup4\n      add\n        /* \"#utility.yul\":13557:13631   */\n      mstore\n        /* \"#utility.yul\":13647:13665   */\n      0x24\n      dup3\n      add\n        /* \"#utility.yul\":13640:13674   */\n      dup9\n      swap1\n      mstore\n        /* \"#utility.yul\":13690:13708   */\n      0x44\n      dup3\n      add\n        /* \"#utility.yul\":13683:13717   */\n      dup8\n      swap1\n      mstore\n        /* \"NoBOverround.sol\":3453:3455  CT */\n      swap1\n      swap2\n      and\n      swap1\n        /* \"NoBOverround.sol\":3453:3472  CT.prepareCondition */\n      0xd96ee754\n      swap1\n        /* \"#utility.yul\":13530:13548   */\n      0x64\n      add\n        /* \"NoBOverround.sol\":3453:3508  CT.prepareCondition(_oracle, _questionId, _numOutcomes) */\n      0x00\n      mload(0x40)\n      dup1\n      dup4\n      sub\n      dup2\n      0x00\n      dup8\n      dup1\n      extcodesize\n      iszero\n      dup1\n      iszero\n      tag_319\n      jumpi\n      0x00\n      dup1\n      revert\n    tag_319:\n      pop\n      gas\n      call\n      iszero\n      dup1\n      iszero\n      tag_321\n      jumpi\n      returndatasize\n      0x00\n      dup1\n      returndatacopy\n      revert(0x00, returndatasize)\n    tag_321:\n      pop\n      pop\n        /* \"NoBOverround.sol\":3526:3528  CT */\n      sload(0x07)\n        /* \"NoBOverround.sol\":3526:3579  CT.getConditionId(_oracle, _questionId, _numOutcomes) */\n      mload(0x40)\n      shl(0xe1, 0x42963571)\n      dup2\n      mstore\n      sub(shl(0xa0, 0x01), 0x01)\n        /* \"#utility.yul\":13575:13630   */\n      dup11\n      dup2\n      and\n        /* \"NoBOverround.sol\":3526:3579  CT.getConditionId(_oracle, _questionId, _numOutcomes) */\n      0x04\n      dup4\n      add\n        /* \"#utility.yul\":13557:13631   */\n      mstore\n        /* \"#utility.yul\":13647:13665   */\n      0x24\n      dup3\n      add\n        /* \"#utility.yul\":13640:13674   */\n      dup11\n      swap1\n      mstore\n        /* \"#utility.yul\":13690:13708   */\n      0x44\n      dup3\n      add\n        /* \"#utility.yul\":13683:13717   */\n      dup10\n      swap1\n      mstore\n        /* \"NoBOverround.sol\":3526:3528  CT */\n      swap1\n      swap2\n      and\n      swap3\n      pop\n        /* \"NoBOverround.sol\":3526:3543  CT.getConditionId */\n      0x852c6ae2\n      swap2\n      pop\n        /* \"#utility.yul\":13530:13548   */\n      0x64\n      add\n        /* \"NoBOverround.sol\":3526:3579  CT.getConditionId(_oracle, _questionId, _numOutcomes) */\n      0x20\n      mload(0x40)\n      dup1\n      dup4\n      sub\n      dup2\n      dup7\n      gas\n      staticcall\n      iszero\n      dup1\n      iszero\n      tag_324\n      jumpi\n      returndatasize\n      0x00\n      dup1\n      returndatacopy\n      revert(0x00, returndatasize)\n    tag_324:\n      pop\n      pop\n      pop\n      pop\n      mload(0x40)\n      returndatasize\n      not(0x1f)\n      0x1f\n      dup3\n      add\n      and\n      dup3\n      add\n      dup1\n      0x40\n      mstore\n      pop\n      dup2\n      add\n      swap1\n      tag_325\n      swap2\n      swap1\n      tag_240\n      jump\t// in\n    tag_325:\n        /* \"NoBOverround.sol\":3514:3523  condition */\n      0x06\n        /* \"NoBOverround.sol\":3514:3579  condition = CT.getConditionId(_oracle, _questionId, _numOutcomes) */\n      sstore\n        /* \"NoBOverround.sol\":3586:3597  numOutcomes */\n      0x01\n        /* \"NoBOverround.sol\":3586:3612  numOutcomes = _numOutcomes */\n      dup5\n      swap1\n      sstore\n      0x00\n        /* \"NoBOverround.sol\":3629:3660  ABDKMath.fromUInt(_numOutcomes) */\n      tag_327\n        /* \"NoBOverround.sol\":3600:3612  _numOutcomes */\n      dup6\n        /* \"NoBOverround.sol\":3629:3646  ABDKMath.fromUInt */\n      tag_328\n        /* \"NoBOverround.sol\":3629:3660  ABDKMath.fromUInt(_numOutcomes) */\n      jump\t// in\n    tag_327:\n        /* \"NoBOverround.sol\":3697:3702  token */\n      sload(0x08)\n        /* \"NoBOverround.sol\":3618:3660  int128 n = ABDKMath.fromUInt(_numOutcomes) */\n      swap1\n      swap2\n      pop\n        /* \"NoBOverround.sol\":3666:3682  int128 initial_b */\n      0x00\n      swap1\n        /* \"NoBOverround.sol\":3685:3711  getTokenEth(token, bInput) */\n      tag_329\n      swap1\n      sub(shl(0xa0, 0x01), 0x01)\n        /* \"NoBOverround.sol\":3697:3702  token */\n      and\n        /* \"NoBOverround.sol\":3704:3710  bInput */\n      dup7\n        /* \"NoBOverround.sol\":3685:3696  getTokenEth */\n      tag_63\n        /* \"NoBOverround.sol\":3685:3711  getTokenEth(token, bInput) */\n      jump\t// in\n    tag_329:\n        /* \"NoBOverround.sol\":3717:3718  b */\n      0x03\n        /* \"NoBOverround.sol\":3717:3730  b = initial_b */\n      dup1\n      sload\n      not(sub(shl(0x80, 0x01), 0x01))\n      and\n      sub(shl(0x80, 0x01), 0x01)\n      dup4\n      and\n      or\n      swap1\n      sstore\n        /* \"NoBOverround.sol\":3796:3801  token */\n      sload(0x08)\n        /* \"NoBOverround.sol\":3717:3730  b = initial_b */\n      swap1\n      swap2\n      pop\n        /* \"NoBOverround.sol\":3789:3863  IERC20(token).safeTransferFrom(msg.sender, address(this), _initialSubsidy) */\n      tag_330\n      swap1\n      sub(shl(0xa0, 0x01), 0x01)\n        /* \"NoBOverround.sol\":3796:3801  token */\n      and\n        /* \"NoBOverround.sol\":3820:3830  msg.sender */\n      caller\n        /* \"NoBOverround.sol\":3840:3844  this */\n      address\n        /* \"NoBOverround.sol\":3847:3862  _initialSubsidy */\n      dup8\n        /* \"NoBOverround.sol\":3789:3819  IERC20(token).safeTransferFrom */\n      tag_331\n        /* \"NoBOverround.sol\":3789:3863  IERC20(token).safeTransferFrom(msg.sender, address(this), _initialSubsidy) */\n      jump\t// in\n    tag_330:\n        /* \"NoBOverround.sol\":3874:3880  uint i */\n      0x00\n        /* \"NoBOverround.sol\":3870:3968  for(uint i=0; i<_numOutcomes; i++) {... */\n    tag_332:\n        /* \"NoBOverround.sol\":3886:3898  _numOutcomes */\n      dup7\n        /* \"NoBOverround.sol\":3884:3885  i */\n      dup2\n        /* \"NoBOverround.sol\":3884:3898  i<_numOutcomes */\n      lt\n        /* \"NoBOverround.sol\":3870:3968  for(uint i=0; i<_numOutcomes; i++) {... */\n      iszero\n      tag_333\n      jumpi\n        /* \"NoBOverround.sol\":3913:3914  q */\n      0x02\n        /* \"NoBOverround.sol\":3913:3922  q.push(0) */\n      dup1\n      sload\n      0x01\n      dup1\n      dup3\n      add\n      dup4\n      sstore\n      0x00\n      dup4\n      swap1\n      mstore\n      0x405787fa12a823e0f2b7631cc41b3ba8828b3321ca811111fa75cd3aa3bb5ace\n      swap3\n      dup3\n      div\n      swap3\n      swap1\n      swap3\n      add\n      dup1\n      sload\n      swap2\n      dup4\n      and\n      0x10\n      mul\n      0x0100\n      exp\n      sub(shl(0x80, 0x01), 0x01)\n      mul\n      not\n      swap1\n      swap2\n      and\n      swap1\n      sstore\n        /* \"NoBOverround.sol\":3900:3903  i++ */\n      add\n        /* \"NoBOverround.sol\":3870:3968  for(uint i=0; i<_numOutcomes; i++) {... */\n      jump(tag_332)\n    tag_333:\n      pop\n        /* \"NoBOverround.sol\":3974:3978  init */\n      0x08\n        /* \"NoBOverround.sol\":3974:3985  init = true */\n      dup1\n      sload\n      0xffffffffffffffffffffff00ffffffffffffffffffffffffffffffffffffffff\n      and\n      shl(0xa0, 0x01)\n      or\n      swap1\n      sstore\n        /* \"NoBOverround.sol\":4020:4035  initial_subsidy */\n      sload(0x04)\n        /* \"NoBOverround.sol\":4007:4039  ABDKMath.mul(initial_subsidy, n) */\n      tag_336\n      swap1\n      shl(0x80, 0x01)\n        /* \"NoBOverround.sol\":4020:4035  initial_subsidy */\n      swap1\n      div\n      0x0f\n      signextend\n        /* \"NoBOverround.sol\":4037:4038  n */\n      dup4\n        /* \"NoBOverround.sol\":4007:4019  ABDKMath.mul */\n      tag_200\n        /* \"NoBOverround.sol\":4007:4039  ABDKMath.mul(initial_subsidy, n) */\n      jump\t// in\n    tag_336:\n        /* \"NoBOverround.sol\":3992:4004  total_shares */\n      0x04\n        /* \"NoBOverround.sol\":3992:4039  total_shares = ABDKMath.mul(initial_subsidy, n) */\n      dup1\n      sload\n      not(sub(shl(0x80, 0x01), 0x01))\n      and\n      sub(shl(0x80, 0x01), 0x01)\n      swap3\n      swap1\n      swap3\n      and\n      swap2\n      swap1\n      swap2\n      or\n      swap1\n      sstore\n        /* \"NoBOverround.sol\":4060:4066  cost() */\n      tag_337\n        /* \"NoBOverround.sol\":4060:4064  cost */\n      tag_67\n        /* \"NoBOverround.sol\":4060:4066  cost() */\n      jump\t// in\n    tag_337:\n        /* \"NoBOverround.sol\":4045:4057  current_cost */\n      0x03\n        /* \"NoBOverround.sol\":4045:4066  current_cost = cost() */\n      dup1\n      sload\n      sub(shl(0x80, 0x01), 0x01)\n      swap3\n      dup4\n      and\n      shl(0x80, 0x01)\n      mul\n      swap3\n      and\n      swap2\n      swap1\n      swap2\n      or\n      swap1\n      sstore\n        /* \"NoBOverround.sol\":4084:4116  ABDKMath.divu(_overround, 10000) */\n      tag_338\n        /* \"NoBOverround.sol\":4098:4108  _overround */\n      dup4\n        /* \"NoBOverround.sol\":4110:4115  10000 */\n      0x2710\n        /* \"NoBOverround.sol\":4084:4097  ABDKMath.divu */\n      tag_210\n        /* \"NoBOverround.sol\":4084:4116  ABDKMath.divu(_overround, 10000) */\n      jump\t// in\n    tag_338:\n        /* \"NoBOverround.sol\":4072:4081  overround */\n      0x05\n        /* \"NoBOverround.sol\":4072:4116  overround = ABDKMath.divu(_overround, 10000) */\n      dup1\n      sload\n      not(sub(shl(0x80, 0x01), 0x01))\n      and\n      sub(shl(0x80, 0x01), 0x01)\n      swap3\n      swap1\n      swap3\n      and\n      swap2\n      swap1\n      swap2\n      or\n      swap1\n      sstore\n      pop\n      pop\n      pop\n      pop\n      pop\n      pop\n      pop\n      pop\n        /* \"NoBOverround.sol\":3178:4121  function setup(... */\n      jump\t// out\n        /* \"NoBOverround.sol\":12800:12951  function generateQuestionId(string memory uniqueString) public pure returns (bytes32) {... */\n    tag_89:\n        /* \"NoBOverround.sol\":12877:12884  bytes32 */\n      0x00\n        /* \"NoBOverround.sol\":12930:12942  uniqueString */\n      dup2\n        /* \"NoBOverround.sol\":12913:12943  abi.encodePacked(uniqueString) */\n      add(0x20, mload(0x40))\n      tag_340\n      swap2\n      swap1\n      tag_341\n      jump\t// in\n    tag_340:\n      mload(0x40)\n      0x20\n      dup2\n      dup4\n      sub\n      sub\n      dup2\n      mstore\n      swap1\n      0x40\n      mstore\n        /* \"NoBOverround.sol\":12903:12944  keccak256(abi.encodePacked(uniqueString)) */\n      dup1\n      mload\n      swap1\n      0x20\n      add\n      keccak256\n        /* \"NoBOverround.sol\":12896:12944  return keccak256(abi.encodePacked(uniqueString)) */\n      swap1\n      pop\n        /* \"NoBOverround.sol\":12800:12951  function generateQuestionId(string memory uniqueString) public pure returns (bytes32) {... */\n      swap2\n      swap1\n      pop\n      jump\t// out\n        /* \"NoBOverround.sol\":18661:19031  function getPositionInfo(uint256 _outcome) public view returns (uint256 positionId, uint256 balance) {... */\n    tag_94:\n        /* \"NoBOverround.sol\":18725:18743  uint256 positionId */\n      0x00\n        /* \"NoBOverround.sol\":18745:18760  uint256 balance */\n      dup1\n        /* \"NoBOverround.sol\":18787:18798  numOutcomes */\n      sload(0x01)\n        /* \"NoBOverround.sol\":18776:18784  _outcome */\n      dup4\n        /* \"NoBOverround.sol\":18776:18798  _outcome < numOutcomes */\n      lt\n        /* \"NoBOverround.sol\":18768:18824  require(_outcome < numOutcomes, \"Invalid outcome index\") */\n      tag_343\n      jumpi\n      mload(0x40)\n      shl(0xe5, 0x461bcd)\n      dup2\n      mstore\n        /* \"#utility.yul\":12033:12035   */\n      0x20\n        /* \"NoBOverround.sol\":18768:18824  require(_outcome < numOutcomes, \"Invalid outcome index\") */\n      0x04\n      dup3\n      add\n        /* \"#utility.yul\":12015:12036   */\n      mstore\n        /* \"#utility.yul\":12072:12074   */\n      0x15\n        /* \"#utility.yul\":12052:12070   */\n      0x24\n      dup3\n      add\n        /* \"#utility.yul\":12045:12075   */\n      mstore\n      shl(0x5b, 0x092dcecc2d8d2c840deeae8c6dedaca40d2dcc8caf)\n        /* \"#utility.yul\":12091:12109   */\n      0x44\n      dup3\n      add\n        /* \"#utility.yul\":12084:12135   */\n      mstore\n        /* \"#utility.yul\":12152:12170   */\n      0x64\n      add\n        /* \"NoBOverround.sol\":18768:18824  require(_outcome < numOutcomes, \"Invalid outcome index\") */\n      tag_195\n        /* \"#utility.yul\":11831:12176   */\n      jump\n        /* \"NoBOverround.sol\":18768:18824  require(_outcome < numOutcomes, \"Invalid outcome index\") */\n    tag_343:\n        /* \"NoBOverround.sol\":18853:18855  CT */\n      sload(0x07)\n        /* \"NoBOverround.sol\":18884:18893  condition */\n      sload(0x06)\n        /* \"NoBOverround.sol\":18853:18909  CT.getCollectionId(bytes32(0), condition, 1 << _outcome) */\n      mload(0x40)\n      shl(0xe0, 0x856296f7)\n      dup2\n      mstore\n        /* \"NoBOverround.sol\":18830:18850  bytes32 collectionId */\n      0x00\n        /* \"NoBOverround.sol\":18853:18909  CT.getCollectionId(bytes32(0), condition, 1 << _outcome) */\n      0x04\n      dup3\n      add\n        /* \"#utility.yul\":14533:14558   */\n      dup2\n      swap1\n      mstore\n        /* \"#utility.yul\":14574:14592   */\n      0x24\n      dup3\n      add\n        /* \"#utility.yul\":14567:14601   */\n      swap3\n      swap1\n      swap3\n      mstore\n        /* \"NoBOverround.sol\":18853:18855  CT */\n      0x01\n        /* \"NoBOverround.sol\":18895:18908  1 << _outcome */\n      dup7\n      shl\n        /* \"#utility.yul\":14617:14635   */\n      0x44\n      dup3\n      add\n        /* \"#utility.yul\":14610:14644   */\n      mstore\n        /* \"NoBOverround.sol\":18830:18850  bytes32 collectionId */\n      swap1\n      swap2\n      sub(shl(0xa0, 0x01), 0x01)\n        /* \"NoBOverround.sol\":18853:18855  CT */\n      and\n      swap1\n        /* \"NoBOverround.sol\":18853:18871  CT.getCollectionId */\n      0x856296f7\n      swap1\n        /* \"#utility.yul\":14506:14524   */\n      0x64\n      add\n        /* \"NoBOverround.sol\":18853:18909  CT.getCollectionId(bytes32(0), condition, 1 << _outcome) */\n      0x20\n      mload(0x40)\n      dup1\n      dup4\n      sub\n      dup2\n      dup7\n      gas\n      staticcall\n      iszero\n      dup1\n      iszero\n      tag_348\n      jumpi\n      returndatasize\n      0x00\n      dup1\n      returndatacopy\n      revert(0x00, returndatasize)\n    tag_348:\n      pop\n      pop\n      pop\n      pop\n      mload(0x40)\n      returndatasize\n      not(0x1f)\n      0x1f\n      dup3\n      add\n      and\n      dup3\n      add\n      dup1\n      0x40\n      mstore\n      pop\n      dup2\n      add\n      swap1\n      tag_349\n      swap2\n      swap1\n      tag_240\n      jump\t// in\n    tag_349:\n        /* \"NoBOverround.sol\":18928:18930  CT */\n      sload(0x07)\n        /* \"NoBOverround.sol\":18952:18957  token */\n      sload(0x08)\n        /* \"NoBOverround.sol\":18928:18973  CT.getPositionId(IERC20(token), collectionId) */\n      mload(0x40)\n      shl(0xe4, 0x039dd753)\n      dup2\n      mstore\n      sub(shl(0xa0, 0x01), 0x01)\n        /* \"NoBOverround.sol\":18952:18957  token */\n      swap2\n      dup3\n      and\n        /* \"NoBOverround.sol\":18928:18973  CT.getPositionId(IERC20(token), collectionId) */\n      0x04\n      dup3\n      add\n        /* \"#utility.yul\":14845:14919   */\n      mstore\n        /* \"#utility.yul\":14935:14953   */\n      0x24\n      dup2\n      add\n        /* \"#utility.yul\":14928:14962   */\n      dup5\n      swap1\n      mstore\n        /* \"NoBOverround.sol\":18830:18909  bytes32 collectionId = CT.getCollectionId(bytes32(0), condition, 1 << _outcome) */\n      swap3\n      swap4\n      pop\n        /* \"NoBOverround.sol\":18928:18930  CT */\n      and\n      swap1\n        /* \"NoBOverround.sol\":18928:18944  CT.getPositionId */\n      0x39dd7530\n      swap1\n        /* \"#utility.yul\":14818:14836   */\n      0x44\n      add\n        /* \"NoBOverround.sol\":18928:18973  CT.getPositionId(IERC20(token), collectionId) */\n      0x20\n      mload(0x40)\n      dup1\n      dup4\n      sub\n      dup2\n      dup7\n      gas\n      staticcall\n      iszero\n      dup1\n      iszero\n      tag_353\n      jumpi\n      returndatasize\n      0x00\n      dup1\n      returndatacopy\n      revert(0x00, returndatasize)\n    tag_353:\n      pop\n      pop\n      pop\n      pop\n      mload(0x40)\n      returndatasize\n      not(0x1f)\n      0x1f\n      dup3\n      add\n      and\n      dup3\n      add\n      dup1\n      0x40\n      mstore\n      pop\n      dup2\n      add\n      swap1\n      tag_354\n      swap2\n      swap1\n      tag_240\n      jump\t// in\n    tag_354:\n        /* \"NoBOverround.sol\":18989:18991  CT */\n      sload(0x07)\n        /* \"NoBOverround.sol\":18989:19028  CT.balanceOf(address(this), positionId) */\n      mload(0x40)\n      shl(0xe1, 0x7eeac7)\n      dup2\n      mstore\n        /* \"NoBOverround.sol\":19010:19014  this */\n      address\n        /* \"NoBOverround.sol\":18989:19028  CT.balanceOf(address(this), positionId) */\n      0x04\n      dup3\n      add\n        /* \"#utility.yul\":14845:14919   */\n      mstore\n        /* \"#utility.yul\":14935:14953   */\n      0x24\n      dup2\n      add\n        /* \"#utility.yul\":14928:14962   */\n      dup4\n      swap1\n      mstore\n        /* \"NoBOverround.sol\":18915:18973  positionId = CT.getPositionId(IERC20(token), collectionId) */\n      swap2\n      swap5\n      pop\n      sub(shl(0xa0, 0x01), 0x01)\n        /* \"NoBOverround.sol\":18989:18991  CT */\n      and\n      swap1\n        /* \"NoBOverround.sol\":18989:19001  CT.balanceOf */\n      0xfdd58e\n      swap1\n        /* \"#utility.yul\":14818:14836   */\n      0x44\n      add\n        /* \"NoBOverround.sol\":18989:19028  CT.balanceOf(address(this), positionId) */\n      0x20\n      mload(0x40)\n      dup1\n      dup4\n      sub\n      dup2\n      dup7\n      gas\n      staticcall\n      iszero\n      dup1\n      iszero\n      tag_358\n      jumpi\n      returndatasize\n      0x00\n      dup1\n      returndatacopy\n      revert(0x00, returndatasize)\n    tag_358:\n      pop\n      pop\n      pop\n      pop\n      mload(0x40)\n      returndatasize\n      not(0x1f)\n      0x1f\n      dup3\n      add\n      and\n      dup3\n      add\n      dup1\n      0x40\n      mstore\n      pop\n      dup2\n      add\n      swap1\n      tag_359\n      swap2\n      swap1\n      tag_240\n      jump\t// in\n    tag_359:\n        /* \"NoBOverround.sol\":18979:19028  balance = CT.balanceOf(address(this), positionId) */\n      swap2\n      pop\n        /* \"NoBOverround.sol\":18762:19031  {... */\n      pop\n        /* \"NoBOverround.sol\":18661:19031  function getPositionInfo(uint256 _outcome) public view returns (uint256 positionId, uint256 balance) {... */\n      swap2\n      pop\n      swap2\n      jump\t// out\n        /* \"NoBOverround.sol\":16931:17694  function addLiquidity(uint _amount) public onlyOwner {... */\n    tag_99:\n        /* \"@openzeppelin/contracts/access/Ownable.sol\":1531:1544   */\n      tag_361\n        /* \"@openzeppelin/contracts/access/Ownable.sol\":1531:1542   */\n      tag_234\n        /* \"@openzeppelin/contracts/access/Ownable.sol\":1531:1544   */\n      jump\t// in\n    tag_361:\n        /* \"NoBOverround.sol\":17047:17052  token */\n      sload(0x08)\n        /* \"NoBOverround.sol\":17040:17106  IERC20(token).safeTransferFrom(msg.sender, address(this), _amount) */\n      tag_363\n      swap1\n      sub(shl(0xa0, 0x01), 0x01)\n        /* \"NoBOverround.sol\":17047:17052  token */\n      and\n        /* \"NoBOverround.sol\":17071:17081  msg.sender */\n      caller\n        /* \"NoBOverround.sol\":17091:17095  this */\n      address\n        /* \"NoBOverround.sol\":17098:17105  _amount */\n      dup5\n        /* \"NoBOverround.sol\":17040:17070  IERC20(token).safeTransferFrom */\n      tag_331\n        /* \"NoBOverround.sol\":17040:17106  IERC20(token).safeTransferFrom(msg.sender, address(this), _amount) */\n      jump\t// in\n    tag_363:\n        /* \"NoBOverround.sol\":17181:17186  token */\n      sload(0x08)\n        /* \"NoBOverround.sol\":17152:17166  int128 subsidy */\n      0x00\n      swap1\n        /* \"NoBOverround.sol\":17169:17196  getTokenEth(token, _amount) */\n      tag_364\n      swap1\n      sub(shl(0xa0, 0x01), 0x01)\n        /* \"NoBOverround.sol\":17181:17186  token */\n      and\n        /* \"NoBOverround.sol\":17188:17195  _amount */\n      dup4\n        /* \"NoBOverround.sol\":17169:17180  getTokenEth */\n      tag_63\n        /* \"NoBOverround.sol\":17169:17196  getTokenEth(token, _amount) */\n      jump\t// in\n    tag_364:\n        /* \"NoBOverround.sol\":17152:17196  int128 subsidy = getTokenEth(token, _amount) */\n      swap1\n      pop\n        /* \"NoBOverround.sol\":17246:17252  uint i */\n      0x00\n        /* \"NoBOverround.sol\":17241:17331  for (uint i = 0; i < numOutcomes; i++) {... */\n    tag_365:\n        /* \"NoBOverround.sol\":17262:17273  numOutcomes */\n      sload(0x01)\n        /* \"NoBOverround.sol\":17258:17259  i */\n      dup2\n        /* \"NoBOverround.sol\":17258:17273  i < numOutcomes */\n      lt\n        /* \"NoBOverround.sol\":17241:17331  for (uint i = 0; i < numOutcomes; i++) {... */\n      iszero\n      tag_366\n      jumpi\n        /* \"NoBOverround.sol\":17297:17324  ABDKMath.add(q[i], subsidy) */\n      tag_368\n        /* \"NoBOverround.sol\":17310:17311  q */\n      0x02\n        /* \"NoBOverround.sol\":17312:17313  i */\n      dup3\n        /* \"NoBOverround.sol\":17310:17314  q[i] */\n      dup2\n      sload\n      dup2\n      lt\n      tag_370\n      jumpi\n      tag_370\n      tag_222\n      jump\t// in\n    tag_370:\n      swap1\n      0x00\n      mstore\n      keccak256(0x00, 0x20)\n      swap1\n      0x02\n      swap2\n      dup3\n      dup3\n      div\n      add\n      swap2\n      swap1\n      mod\n      0x10\n      mul\n      swap1\n      sload\n      swap1\n      0x0100\n      exp\n      swap1\n      div\n      0x0f\n      signextend\n        /* \"NoBOverround.sol\":17316:17323  subsidy */\n      dup4\n        /* \"NoBOverround.sol\":17297:17309  ABDKMath.add */\n      tag_226\n        /* \"NoBOverround.sol\":17297:17324  ABDKMath.add(q[i], subsidy) */\n      jump\t// in\n    tag_368:\n        /* \"NoBOverround.sol\":17290:17291  q */\n      0x02\n        /* \"NoBOverround.sol\":17292:17293  i */\n      dup3\n        /* \"NoBOverround.sol\":17290:17294  q[i] */\n      dup2\n      sload\n      dup2\n      lt\n      tag_373\n      jumpi\n      tag_373\n      tag_222\n      jump\t// in\n    tag_373:\n      0x00\n      swap2\n      dup3\n      mstore\n      0x20\n      swap1\n      swap2\n      keccak256\n      0x02\n      dup3\n      div\n      add\n        /* \"NoBOverround.sol\":17290:17324  q[i] = ABDKMath.add(q[i], subsidy) */\n      dup1\n      sload\n      sub(shl(0x80, 0x01), 0x01)\n      swap4\n      dup5\n      and\n        /* \"NoBOverround.sol\":17290:17294  q[i] */\n      0x10\n      0x01\n      swap5\n      dup6\n      and\n      mul\n        /* \"NoBOverround.sol\":17290:17324  q[i] = ABDKMath.add(q[i], subsidy) */\n      0x0100\n      exp\n      swap1\n      dup2\n      mul\n      swap5\n      mul\n      not\n      and\n      swap3\n      swap1\n      swap3\n      or\n      swap1\n      swap2\n      sstore\n        /* \"NoBOverround.sol\":17275:17278  i++ */\n      add\n        /* \"NoBOverround.sol\":17241:17331  for (uint i = 0; i < numOutcomes; i++) {... */\n      jump(tag_365)\n    tag_366:\n      pop\n        /* \"NoBOverround.sol\":17395:17407  total_shares */\n      sload(0x04)\n      0x01\n        /* \"NoBOverround.sol\":17449:17460  numOutcomes */\n      sload\n        /* \"NoBOverround.sol\":17382:17463  ABDKMath.add(total_shares, ABDKMath.mul(subsidy, ABDKMath.fromUInt(numOutcomes))) */\n      tag_375\n      swap2\n        /* \"NoBOverround.sol\":17395:17407  total_shares */\n      0x0f\n      signextend\n      swap1\n        /* \"NoBOverround.sol\":17409:17462  ABDKMath.mul(subsidy, ABDKMath.fromUInt(numOutcomes)) */\n      tag_218\n      swap1\n        /* \"NoBOverround.sol\":17422:17429  subsidy */\n      dup5\n      swap1\n        /* \"NoBOverround.sol\":17431:17461  ABDKMath.fromUInt(numOutcomes) */\n      tag_228\n      swap1\n        /* \"NoBOverround.sol\":17431:17448  ABDKMath.fromUInt */\n      tag_328\n        /* \"NoBOverround.sol\":17431:17461  ABDKMath.fromUInt(numOutcomes) */\n      jump\t// in\n        /* \"NoBOverround.sol\":17382:17463  ABDKMath.add(total_shares, ABDKMath.mul(subsidy, ABDKMath.fromUInt(numOutcomes))) */\n    tag_375:\n        /* \"NoBOverround.sol\":17367:17379  total_shares */\n      0x04\n        /* \"NoBOverround.sol\":17367:17463  total_shares = ABDKMath.add(total_shares, ABDKMath.mul(subsidy, ABDKMath.fromUInt(numOutcomes))) */\n      dup1\n      sload\n      not(sub(shl(0x80, 0x01), 0x01))\n      and\n      sub(shl(0x80, 0x01), 0x01)\n      swap3\n      swap1\n      swap3\n      and\n      swap2\n      swap1\n      swap2\n      or\n      swap1\n      sstore\n        /* \"NoBOverround.sol\":17617:17623  cost() */\n      tag_378\n        /* \"NoBOverround.sol\":17617:17621  cost */\n      tag_67\n        /* \"NoBOverround.sol\":17617:17623  cost() */\n      jump\t// in\n    tag_378:\n        /* \"NoBOverround.sol\":17602:17614  current_cost */\n      0x03\n        /* \"NoBOverround.sol\":17602:17623  current_cost = cost() */\n      dup1\n      sload\n      sub(shl(0x80, 0x01), 0x01)\n      swap3\n      dup4\n      and\n      shl(0x80, 0x01)\n      mul\n      swap3\n      and\n      swap2\n      swap1\n      swap2\n      or\n      swap1\n      sstore\n        /* \"NoBOverround.sol\":17656:17691  LiquidityAdded(msg.sender, _amount) */\n      mload(0x40)\n        /* \"NoBOverround.sol\":17671:17681  msg.sender */\n      caller\n      swap1\n        /* \"NoBOverround.sol\":17656:17691  LiquidityAdded(msg.sender, _amount) */\n      0xc17cea59c2955cb181b03393209566960365771dbba9dc3d510180e7cb312088\n      swap1\n      tag_379\n      swap1\n        /* \"NoBOverround.sol\":17683:17690  _amount */\n      dup6\n        /* \"#utility.yul\":1274:1299   */\n      dup2\n      mstore\n        /* \"#utility.yul\":1262:1264   */\n      0x20\n        /* \"#utility.yul\":1247:1265   */\n      add\n      swap1\n        /* \"#utility.yul\":1128:1305   */\n      jump\n        /* \"NoBOverround.sol\":17656:17691  LiquidityAdded(msg.sender, _amount) */\n    tag_379:\n      mload(0x40)\n      dup1\n      swap2\n      sub\n      swap1\n      log2\n        /* \"NoBOverround.sol\":16984:17694  {... */\n      pop\n        /* \"NoBOverround.sol\":16931:17694  function addLiquidity(uint _amount) public onlyOwner {... */\n      pop\n      jump\t// out\n        /* \"NoBOverround.sol\":10374:10536  function sellingPrice(... */\n    tag_103:\n        /* \"NoBOverround.sol\":10463:10469  int128 */\n      0x00\n        /* \"NoBOverround.sol\":10499:10533  cost_after_buy(_outcome, -_amount) */\n      tag_381\n        /* \"NoBOverround.sol\":10514:10522  _outcome */\n      dup4\n        /* \"NoBOverround.sol\":10524:10532  -_amount */\n      tag_111\n        /* \"NoBOverround.sol\":10525:10532  _amount */\n      dup5\n        /* \"NoBOverround.sol\":10524:10532  -_amount */\n      tag_383\n      jump\t// in\n        /* \"NoBOverround.sol\":10499:10533  cost_after_buy(_outcome, -_amount) */\n    tag_381:\n        /* \"NoBOverround.sol\":10484:10496  current_cost */\n      sload(0x03)\n        /* \"NoBOverround.sol\":10484:10533  current_cost - cost_after_buy(_outcome, -_amount) */\n      tag_384\n      swap2\n      swap1\n      shl(0x80, 0x01)\n        /* \"NoBOverround.sol\":10484:10496  current_cost */\n      swap1\n      div\n      0x0f\n      signextend\n        /* \"NoBOverround.sol\":10484:10533  current_cost - cost_after_buy(_outcome, -_amount) */\n      tag_385\n      jump\t// in\n    tag_384:\n        /* \"NoBOverround.sol\":10477:10533  return current_cost - cost_after_buy(_outcome, -_amount) */\n      swap4\n        /* \"NoBOverround.sol\":10374:10536  function sellingPrice(... */\n      swap3\n      pop\n      pop\n      pop\n      jump\t// out\n        /* \"NoBOverround.sol\":17696:18016  function getAccumulatedFees() public view returns (uint) {... */\n    tag_106:\n        /* \"NoBOverround.sol\":17789:17794  token */\n      sload(0x08)\n        /* \"NoBOverround.sol\":17782:17820  IERC20(token).balanceOf(address(this)) */\n      mload(0x40)\n      shl(0xe0, 0x70a08231)\n      dup2\n      mstore\n        /* \"NoBOverround.sol\":17814:17818  this */\n      address\n        /* \"NoBOverround.sol\":17782:17820  IERC20(token).balanceOf(address(this)) */\n      0x04\n      dup3\n      add\n        /* \"#utility.yul\":5222:5296   */\n      mstore\n        /* \"NoBOverround.sol\":17747:17751  uint */\n      0x00\n      swap2\n      dup3\n      swap2\n      sub(shl(0xa0, 0x01), 0x01)\n        /* \"NoBOverround.sol\":17789:17794  token */\n      swap1\n      swap2\n      and\n      swap1\n        /* \"NoBOverround.sol\":17782:17805  IERC20(token).balanceOf */\n      0x70a08231\n      swap1\n        /* \"#utility.yul\":5195:5213   */\n      0x24\n      add\n        /* \"NoBOverround.sol\":17782:17820  IERC20(token).balanceOf(address(this)) */\n      0x20\n      mload(0x40)\n      dup1\n      dup4\n      sub\n      dup2\n      dup7\n      gas\n      staticcall\n      iszero\n      dup1\n      iszero\n      tag_389\n      jumpi\n      returndatasize\n      0x00\n      dup1\n      returndatacopy\n      revert(0x00, returndatasize)\n    tag_389:\n      pop\n      pop\n      pop\n      pop\n      mload(0x40)\n      returndatasize\n      not(0x1f)\n      0x1f\n      dup3\n      add\n      and\n      dup3\n      add\n      dup1\n      0x40\n      mstore\n      pop\n      dup2\n      add\n      swap1\n      tag_390\n      swap2\n      swap1\n      tag_240\n      jump\t// in\n    tag_390:\n        /* \"NoBOverround.sol\":17861:17866  token */\n      sload(0x08)\n        /* \"NoBOverround.sol\":17868:17880  current_cost */\n      sload(0x03)\n        /* \"NoBOverround.sol\":17759:17820  uint contractBalance = IERC20(token).balanceOf(address(this)) */\n      swap2\n      swap3\n      pop\n        /* \"NoBOverround.sol\":17826:17846  uint theoreticalCost */\n      0x00\n      swap2\n        /* \"NoBOverround.sol\":17849:17881  getTokenWei(token, current_cost) */\n      tag_391\n      swap2\n      sub(shl(0xa0, 0x01), 0x01)\n        /* \"NoBOverround.sol\":17861:17866  token */\n      and\n      swap1\n      shl(0x80, 0x01)\n        /* \"NoBOverround.sol\":17868:17880  current_cost */\n      swap1\n      div\n      0x0f\n      signextend\n        /* \"NoBOverround.sol\":17849:17860  getTokenWei */\n      tag_73\n        /* \"NoBOverround.sol\":17849:17881  getTokenWei(token, current_cost) */\n      jump\t// in\n    tag_391:\n        /* \"NoBOverround.sol\":17826:17881  uint theoreticalCost = getTokenWei(token, current_cost) */\n      swap1\n      pop\n        /* \"NoBOverround.sol\":17909:17924  theoreticalCost */\n      dup1\n        /* \"NoBOverround.sol\":17891:17906  contractBalance */\n      dup3\n        /* \"NoBOverround.sol\":17891:17924  contractBalance > theoreticalCost */\n      gt\n        /* \"NoBOverround.sol\":17887:18014  if (contractBalance > theoreticalCost) {... */\n      iszero\n      tag_392\n      jumpi\n        /* \"NoBOverround.sol\":17943:17976  contractBalance - theoreticalCost */\n      tag_393\n        /* \"NoBOverround.sol\":17961:17976  theoreticalCost */\n      dup2\n        /* \"NoBOverround.sol\":17943:17958  contractBalance */\n      dup4\n        /* \"NoBOverround.sol\":17943:17976  contractBalance - theoreticalCost */\n      tag_303\n      jump\t// in\n    tag_393:\n        /* \"NoBOverround.sol\":17936:17976  return contractBalance - theoreticalCost */\n      swap3\n      pop\n      pop\n      pop\n        /* \"NoBOverround.sol\":17696:18016  function getAccumulatedFees() public view returns (uint) {... */\n      swap1\n      jump\t// out\n        /* \"NoBOverround.sol\":17887:18014  if (contractBalance > theoreticalCost) {... */\n    tag_392:\n        /* \"NoBOverround.sol\":18006:18007  0 */\n      0x00\n        /* \"NoBOverround.sol\":17999:18007  return 0 */\n      swap3\n      pop\n      pop\n      pop\n        /* \"NoBOverround.sol\":17696:18016  function getAccumulatedFees() public view returns (uint) {... */\n      swap1\n      jump\t// out\n        /* \"@openzeppelin/contracts/access/Ownable.sol\":2293:2394   */\n    tag_109:\n        /* \"@openzeppelin/contracts/access/Ownable.sol\":1531:1544   */\n      tag_396\n        /* \"@openzeppelin/contracts/access/Ownable.sol\":1531:1542   */\n      tag_234\n        /* \"@openzeppelin/contracts/access/Ownable.sol\":1531:1544   */\n      jump\t// in\n    tag_396:\n        /* \"@openzeppelin/contracts/access/Ownable.sol\":2357:2387   */\n      tag_398\n        /* \"@openzeppelin/contracts/access/Ownable.sol\":2384:2385   */\n      0x00\n        /* \"@openzeppelin/contracts/access/Ownable.sol\":2357:2375   */\n      tag_399\n        /* \"@openzeppelin/contracts/access/Ownable.sol\":2357:2387   */\n      jump\t// in\n    tag_398:\n        /* \"@openzeppelin/contracts/access/Ownable.sol\":2293:2394   */\n      jump\t// out\n        /* \"NoBOverround.sol\":8799:9444  function cost_after_buy(... */\n    tag_112:\n        /* \"NoBOverround.sol\":8890:8896  int128 */\n      0x00\n        /* \"NoBOverround.sol\":8904:8920  int128 sum_total */\n      dup1\n        /* \"NoBOverround.sol\":8926:8946  int128[] memory newq */\n      0x00\n        /* \"NoBOverround.sol\":8962:8963  q */\n      0x02\n        /* \"NoBOverround.sol\":8962:8970  q.length */\n      dup1\n      sload\n      swap1\n      pop\n        /* \"NoBOverround.sol\":8949:8971  new int128[](q.length) */\n      0xffffffffffffffff\n      dup2\n      gt\n      iszero\n      tag_402\n      jumpi\n      tag_402\n      tag_246\n      jump\t// in\n    tag_402:\n      mload(0x40)\n      swap1\n      dup1\n      dup3\n      mstore\n      dup1\n      0x20\n      mul\n      0x20\n      add\n      dup3\n      add\n      0x40\n      mstore\n      dup1\n      iszero\n      tag_403\n      jumpi\n      dup2\n      0x20\n      add\n      0x20\n      dup3\n      mul\n      dup1\n      calldatasize\n      dup4\n      calldatacopy\n      add\n      swap1\n      pop\n    tag_403:\n      pop\n        /* \"NoBOverround.sol\":9037:9038  b */\n      sload(0x03)\n        /* \"NoBOverround.sol\":8926:8971  int128[] memory newq = new int128[](q.length) */\n      swap1\n      swap2\n      pop\n        /* \"NoBOverround.sol\":9037:9038  b */\n      0x0f\n      signextend\n        /* \"NoBOverround.sol\":9021:9034  int128 used_b */\n      0x00\n        /* \"NoBOverround.sol\":9045:9218  for(uint j=0; j< numOutcomes; j++) {... */\n    tag_404:\n        /* \"NoBOverround.sol\":9062:9073  numOutcomes */\n      sload(0x01)\n        /* \"NoBOverround.sol\":9059:9060  j */\n      dup2\n        /* \"NoBOverround.sol\":9059:9073  j< numOutcomes */\n      lt\n        /* \"NoBOverround.sol\":9045:9218  for(uint j=0; j< numOutcomes; j++) {... */\n      iszero\n      tag_405\n      jumpi\n        /* \"NoBOverround.sol\":9104:9105  1 */\n      0x01\n        /* \"NoBOverround.sol\":9104:9108  1<<j */\n      dup2\n      shl\n        /* \"NoBOverround.sol\":9092:9109  _outcome & (1<<j) */\n      dup8\n      and\n        /* \"NoBOverround.sol\":9091:9115  (_outcome & (1<<j)) != 0 */\n      iszero\n        /* \"NoBOverround.sol\":9088:9212  if((_outcome & (1<<j)) != 0) {... */\n      tag_407\n      jumpi\n        /* \"NoBOverround.sol\":9137:9164  ABDKMath.add(q[j], _amount) */\n      tag_408\n        /* \"NoBOverround.sol\":9150:9151  q */\n      0x02\n        /* \"NoBOverround.sol\":9152:9153  j */\n      dup3\n        /* \"NoBOverround.sol\":9150:9154  q[j] */\n      dup2\n      sload\n      dup2\n      lt\n      tag_410\n      jumpi\n      tag_410\n      tag_222\n      jump\t// in\n    tag_410:\n      swap1\n      0x00\n      mstore\n      keccak256(0x00, 0x20)\n      swap1\n      0x02\n      swap2\n      dup3\n      dup3\n      div\n      add\n      swap2\n      swap1\n      mod\n      0x10\n      mul\n      swap1\n      sload\n      swap1\n      0x0100\n      exp\n      swap1\n      div\n      0x0f\n      signextend\n        /* \"NoBOverround.sol\":9156:9163  _amount */\n      dup8\n        /* \"NoBOverround.sol\":9137:9149  ABDKMath.add */\n      tag_226\n        /* \"NoBOverround.sol\":9137:9164  ABDKMath.add(q[j], _amount) */\n      jump\t// in\n    tag_408:\n        /* \"NoBOverround.sol\":9127:9131  newq */\n      dup4\n        /* \"NoBOverround.sol\":9132:9133  j */\n      dup3\n        /* \"NoBOverround.sol\":9127:9134  newq[j] */\n      dup2\n      mload\n      dup2\n      lt\n      tag_413\n      jumpi\n      tag_413\n      tag_222\n      jump\t// in\n    tag_413:\n      0x20\n      mul\n      0x20\n      add\n      add\n        /* \"NoBOverround.sol\":9127:9164  newq[j] = ABDKMath.add(q[j], _amount) */\n      swap1\n      0x0f\n      signextend\n      swap1\n      dup2\n      0x0f\n      signextend\n      dup2\n      mstore\n      pop\n      pop\n        /* \"NoBOverround.sol\":9088:9212  if((_outcome & (1<<j)) != 0) {... */\n      jump(tag_414)\n    tag_407:\n        /* \"NoBOverround.sol\":9199:9200  q */\n      0x02\n        /* \"NoBOverround.sol\":9201:9202  j */\n      dup2\n        /* \"NoBOverround.sol\":9199:9203  q[j] */\n      dup2\n      sload\n      dup2\n      lt\n      tag_416\n      jumpi\n      tag_416\n      tag_222\n      jump\t// in\n    tag_416:\n      swap1\n      0x00\n      mstore\n      keccak256(0x00, 0x20)\n      swap1\n      0x02\n      swap2\n      dup3\n      dup3\n      div\n      add\n      swap2\n      swap1\n      mod\n      0x10\n      mul\n      swap1\n      sload\n      swap1\n      0x0100\n      exp\n      swap1\n      div\n      0x0f\n      signextend\n        /* \"NoBOverround.sol\":9189:9193  newq */\n      dup4\n        /* \"NoBOverround.sol\":9194:9195  j */\n      dup3\n        /* \"NoBOverround.sol\":9189:9196  newq[j] */\n      dup2\n      mload\n      dup2\n      lt\n      tag_419\n      jumpi\n      tag_419\n      tag_222\n      jump\t// in\n    tag_419:\n      0x20\n      mul\n      0x20\n      add\n      add\n        /* \"NoBOverround.sol\":9189:9203  newq[j] = q[j] */\n      swap1\n      0x0f\n      signextend\n      swap1\n      dup2\n      0x0f\n      signextend\n      dup2\n      mstore\n      pop\n      pop\n        /* \"NoBOverround.sol\":9088:9212  if((_outcome & (1<<j)) != 0) {... */\n    tag_414:\n        /* \"NoBOverround.sol\":9075:9078  j++ */\n      0x01\n      add\n        /* \"NoBOverround.sol\":9045:9218  for(uint j=0; j< numOutcomes; j++) {... */\n      jump(tag_404)\n    tag_405:\n      pop\n        /* \"NoBOverround.sol\":9228:9234  uint i */\n      0x00\n        /* \"NoBOverround.sol\":9224:9384  for(uint i=0; i< numOutcomes; i++) {... */\n    tag_420:\n        /* \"NoBOverround.sol\":9241:9252  numOutcomes */\n      sload(0x01)\n        /* \"NoBOverround.sol\":9238:9239  i */\n      dup2\n        /* \"NoBOverround.sol\":9238:9252  i< numOutcomes */\n      lt\n        /* \"NoBOverround.sol\":9224:9384  for(uint i=0; i< numOutcomes; i++) {... */\n      iszero\n      tag_421\n      jumpi\n        /* \"NoBOverround.sol\":9279:9377  ABDKMath.add(sum_total,... */\n      tag_423\n        /* \"NoBOverround.sol\":9292:9301  sum_total */\n      dup5\n        /* \"NoBOverround.sol\":9311:9376  ABDKMath.exp(... */\n      tag_218\n        /* \"NoBOverround.sol\":9335:9364  ABDKMath.div(newq[i], used_b) */\n      tag_219\n        /* \"NoBOverround.sol\":9348:9352  newq */\n      dup7\n        /* \"NoBOverround.sol\":9353:9354  i */\n      dup6\n        /* \"NoBOverround.sol\":9348:9355  newq[i] */\n      dup2\n      mload\n      dup2\n      lt\n      tag_427\n      jumpi\n      tag_427\n      tag_222\n      jump\t// in\n    tag_427:\n      0x20\n      mul\n      0x20\n      add\n      add\n      mload\n        /* \"NoBOverround.sol\":9357:9363  used_b */\n      dup7\n        /* \"NoBOverround.sol\":9335:9347  ABDKMath.div */\n      tag_224\n        /* \"NoBOverround.sol\":9335:9364  ABDKMath.div(newq[i], used_b) */\n      jump\t// in\n        /* \"NoBOverround.sol\":9279:9377  ABDKMath.add(sum_total,... */\n    tag_423:\n        /* \"NoBOverround.sol\":9267:9377  sum_total = ABDKMath.add(sum_total,... */\n      swap4\n      pop\n        /* \"NoBOverround.sol\":9254:9257  i++ */\n      0x01\n      add\n        /* \"NoBOverround.sol\":9224:9384  for(uint i=0; i< numOutcomes; i++) {... */\n      jump(tag_420)\n    tag_421:\n      pop\n        /* \"NoBOverround.sol\":9397:9441  ABDKMath.mul(used_b, ABDKMath.ln(sum_total)) */\n      tag_428\n        /* \"NoBOverround.sol\":9410:9416  used_b */\n      dup2\n        /* \"NoBOverround.sol\":9418:9440  ABDKMath.ln(sum_total) */\n      tag_228\n        /* \"NoBOverround.sol\":9430:9439  sum_total */\n      dup6\n        /* \"NoBOverround.sol\":9418:9429  ABDKMath.ln */\n      tag_229\n        /* \"NoBOverround.sol\":9418:9440  ABDKMath.ln(sum_total) */\n      jump\t// in\n        /* \"NoBOverround.sol\":9397:9441  ABDKMath.mul(used_b, ABDKMath.ln(sum_total)) */\n    tag_428:\n        /* \"NoBOverround.sol\":9390:9441  return ABDKMath.mul(used_b, ABDKMath.ln(sum_total)) */\n      swap7\n        /* \"NoBOverround.sol\":8799:9444  function cost_after_buy(... */\n      swap6\n      pop\n      pop\n      pop\n      pop\n      pop\n      pop\n      jump\t// out\n        /* \"NoBOverround.sol\":7626:8051  function getPositionAndDustPositions(... */\n    tag_125:\n        /* \"NoBOverround.sol\":7707:7723  uint256[] memory */\n      0x60\n        /* \"NoBOverround.sol\":7730:7740  uint index */\n      0x00\n        /* \"NoBOverround.sol\":7760:7761  1 */\n      0x01\n        /* \"NoBOverround.sol\":7747:7758  numOutcomes */\n      dup1\n      sload\n        /* \"NoBOverround.sol\":7744:7745  1 */\n      0x01\n        /* \"NoBOverround.sol\":7744:7758  1<<numOutcomes */\n      swap1\n      shl\n        /* \"NoBOverround.sol\":7743:7761  (1<<numOutcomes)-1 */\n      tag_432\n      swap2\n      swap1\n      tag_303\n      jump\t// in\n    tag_432:\n        /* \"NoBOverround.sol\":7730:7761  uint index = (1<<numOutcomes)-1 */\n      swap1\n      pop\n        /* \"NoBOverround.sol\":7779:7780  1 */\n      0x01\n        /* \"NoBOverround.sol\":7779:7792  1 << _outcome */\n      dup4\n      shl\n        /* \"NoBOverround.sol\":7778:7801  (1 << _outcome) ^ index */\n      dup2\n      xor\n        /* \"NoBOverround.sol\":7767:7775  uint inv */\n      0x00\n        /* \"NoBOverround.sol\":7843:7855  getOnes(inv) */\n      tag_433\n        /* \"NoBOverround.sol\":7778:7801  (1 << _outcome) ^ index */\n      dup3\n        /* \"NoBOverround.sol\":7843:7850  getOnes */\n      tag_434\n        /* \"NoBOverround.sol\":7843:7855  getOnes(inv) */\n      jump\t// in\n    tag_433:\n        /* \"NoBOverround.sol\":7843:7857  getOnes(inv)+1 */\n      tag_435\n      swap1\n        /* \"NoBOverround.sol\":7856:7857  1 */\n      0x01\n        /* \"NoBOverround.sol\":7843:7857  getOnes(inv)+1 */\n      tag_203\n      jump\t// in\n    tag_435:\n        /* \"NoBOverround.sol\":7829:7858  new uint256[](getOnes(inv)+1) */\n      0xffffffffffffffff\n      dup2\n      gt\n      iszero\n      tag_437\n      jumpi\n      tag_437\n      tag_246\n      jump\t// in\n    tag_437:\n      mload(0x40)\n      swap1\n      dup1\n      dup3\n      mstore\n      dup1\n      0x20\n      mul\n      0x20\n      add\n      dup3\n      add\n      0x40\n      mstore\n      dup1\n      iszero\n      tag_438\n      jumpi\n      dup2\n      0x20\n      add\n      0x20\n      dup3\n      mul\n      dup1\n      calldatasize\n      dup4\n      calldatacopy\n      add\n      swap1\n      pop\n    tag_438:\n      pop\n        /* \"NoBOverround.sol\":7807:7858  uint[] memory partx = new uint256[](getOnes(inv)+1) */\n      swap1\n      pop\n        /* \"NoBOverround.sol\":7864:7870  uint n */\n      0x00\n        /* \"NoBOverround.sol\":7873:7874  1 */\n      0x01\n        /* \"NoBOverround.sol\":7864:7874  uint n = 1 */\n      swap1\n      pop\n        /* \"NoBOverround.sol\":7897:7905  _outcome */\n      dup6\n        /* \"NoBOverround.sol\":7892:7893  1 */\n      0x01\n        /* \"NoBOverround.sol\":7892:7905  1 << _outcome */\n      swap1\n      shl\n        /* \"NoBOverround.sol\":7880:7885  partx */\n      dup3\n        /* \"NoBOverround.sol\":7886:7887  0 */\n      0x00\n        /* \"NoBOverround.sol\":7880:7888  partx[0] */\n      dup2\n      mload\n      dup2\n      lt\n      tag_440\n      jumpi\n      tag_440\n      tag_222\n      jump\t// in\n    tag_440:\n      0x20\n      mul\n      0x20\n      add\n      add\n        /* \"NoBOverround.sol\":7880:7906  partx[0] = (1 << _outcome) */\n      dup2\n      dup2\n      mstore\n      pop\n      pop\n        /* \"NoBOverround.sol\":7916:7922  uint i */\n      0x00\n        /* \"NoBOverround.sol\":7912:8029  for(uint i=0; i<numOutcomes; i++) {... */\n    tag_441:\n        /* \"NoBOverround.sol\":7928:7939  numOutcomes */\n      sload(0x01)\n        /* \"NoBOverround.sol\":7926:7927  i */\n      dup2\n        /* \"NoBOverround.sol\":7926:7939  i<numOutcomes */\n      lt\n        /* \"NoBOverround.sol\":7912:8029  for(uint i=0; i<numOutcomes; i++) {... */\n      iszero\n      tag_442\n      jumpi\n        /* \"NoBOverround.sol\":7964:7965  1 */\n      0x01\n        /* \"NoBOverround.sol\":7964:7968  1<<i */\n      dup2\n      shl\n        /* \"NoBOverround.sol\":7958:7968  inv & 1<<i */\n      dup5\n      and\n        /* \"NoBOverround.sol\":7957:7974  (inv & 1<<i) != 0 */\n      iszero\n        /* \"NoBOverround.sol\":7954:8023  if((inv & 1<<i) != 0) {... */\n      tag_444\n      jumpi\n        /* \"NoBOverround.sol\":8000:8001  i */\n      dup1\n        /* \"NoBOverround.sol\":7997:7998  1 */\n      0x01\n        /* \"NoBOverround.sol\":7997:8001  1<<i */\n      swap1\n      shl\n        /* \"NoBOverround.sol\":7986:7991  partx */\n      dup4\n        /* \"NoBOverround.sol\":7992:7993  n */\n      dup4\n        /* \"NoBOverround.sol\":7986:7994  partx[n] */\n      dup2\n      mload\n      dup2\n      lt\n      tag_446\n      jumpi\n      tag_446\n      tag_222\n      jump\t// in\n    tag_446:\n      0x20\n      swap1\n      dup2\n      mul\n      swap2\n      swap1\n      swap2\n      add\n      add\n        /* \"NoBOverround.sol\":7986:8001  partx[n] = 1<<i */\n      mstore\n        /* \"NoBOverround.sol\":8011:8014  n++ */\n      dup2\n      tag_447\n      dup2\n      tag_448\n      jump\t// in\n    tag_447:\n      swap3\n      pop\n      pop\n        /* \"NoBOverround.sol\":7954:8023  if((inv & 1<<i) != 0) {... */\n    tag_444:\n        /* \"NoBOverround.sol\":7941:7944  i++ */\n      0x01\n      add\n        /* \"NoBOverround.sol\":7912:8029  for(uint i=0; i<numOutcomes; i++) {... */\n      jump(tag_441)\n    tag_442:\n      pop\n        /* \"NoBOverround.sol\":8041:8046  partx */\n      swap1\n      swap6\n        /* \"NoBOverround.sol\":7626:8051  function getPositionAndDustPositions(... */\n      swap5\n      pop\n      pop\n      pop\n      pop\n      pop\n      jump\t// out\n        /* \"NoBOverround.sol\":11552:11839  function getTokenWeiDown(address _token, int128 _amount) public view returns (uint) {... */\n    tag_130:\n        /* \"NoBOverround.sol\":11630:11634  uint */\n      0x00\n        /* \"NoBOverround.sol\":11642:11648  uint d */\n      dup1\n        /* \"NoBOverround.sol\":11657:11663  _token */\n      dup4\n      sub(shl(0xa0, 0x01), 0x01)\n        /* \"NoBOverround.sol\":11651:11673  ERC20(_token).decimals */\n      and\n      0x313ce567\n        /* \"NoBOverround.sol\":11651:11675  ERC20(_token).decimals() */\n      mload(0x40)\n      dup2\n      0xffffffff\n      and\n      0xe0\n      shl\n      dup2\n      mstore\n      0x04\n      add\n      0x20\n      mload(0x40)\n      dup1\n      dup4\n      sub\n      dup2\n      dup7\n      gas\n      staticcall\n      iszero\n      dup1\n      iszero\n      tag_451\n      jumpi\n      returndatasize\n      0x00\n      dup1\n      returndatacopy\n      revert(0x00, returndatasize)\n    tag_451:\n      pop\n      pop\n      pop\n      pop\n      mload(0x40)\n      returndatasize\n      not(0x1f)\n      0x1f\n      dup3\n      add\n      and\n      dup3\n      add\n      dup1\n      0x40\n      mstore\n      pop\n      dup2\n      add\n      swap1\n      tag_452\n      swap2\n      swap1\n      tag_191\n      jump\t// in\n    tag_452:\n        /* \"NoBOverround.sol\":11642:11675  uint d = ERC20(_token).decimals() */\n      0xff\n      and\n      swap1\n      pop\n        /* \"NoBOverround.sol\":11681:11696  uint multiplier */\n      0x00\n        /* \"NoBOverround.sol\":11699:11706  10 ** d */\n      tag_453\n        /* \"NoBOverround.sol\":11642:11675  uint d = ERC20(_token).decimals() */\n      dup3\n        /* \"NoBOverround.sol\":11699:11701  10 */\n      0x0a\n        /* \"NoBOverround.sol\":11699:11706  10 ** d */\n      tag_193\n      jump\t// in\n    tag_453:\n        /* \"NoBOverround.sol\":11681:11706  uint multiplier = 10 ** d */\n      swap1\n      pop\n        /* \"NoBOverround.sol\":11731:11732  0 */\n      0x00\n        /* \"NoBOverround.sol\":11720:11727  _amount */\n      dup5\n        /* \"NoBOverround.sol\":11720:11732  _amount >= 0 */\n      0x0f\n      signextend\n      slt\n      iszero\n        /* \"NoBOverround.sol\":11712:11764  require(_amount >= 0, \"Amount must be non-negative\") */\n      tag_454\n      jumpi\n      mload(0x40)\n      shl(0xe5, 0x461bcd)\n      dup2\n      mstore\n        /* \"#utility.yul\":10324:10326   */\n      0x20\n        /* \"NoBOverround.sol\":11712:11764  require(_amount >= 0, \"Amount must be non-negative\") */\n      0x04\n      dup3\n      add\n        /* \"#utility.yul\":10306:10327   */\n      mstore\n        /* \"#utility.yul\":10363:10365   */\n      0x1b\n        /* \"#utility.yul\":10343:10361   */\n      0x24\n      dup3\n      add\n        /* \"#utility.yul\":10336:10366   */\n      mstore\n        /* \"#utility.yul\":10402:10431   */\n      0x416d6f756e74206d757374206265206e6f6e2d6e656761746976650000000000\n        /* \"#utility.yul\":10382:10400   */\n      0x44\n      dup3\n      add\n        /* \"#utility.yul\":10375:10432   */\n      mstore\n        /* \"#utility.yul\":10449:10467   */\n      0x64\n      add\n        /* \"NoBOverround.sol\":11712:11764  require(_amount >= 0, \"Amount must be non-negative\") */\n      tag_195\n        /* \"#utility.yul\":10122:10473   */\n      jump\n        /* \"NoBOverround.sol\":11712:11764  require(_amount >= 0, \"Amount must be non-negative\") */\n    tag_454:\n        /* \"NoBOverround.sol\":11777:11811  ABDKMath.mulu(_amount, multiplier) */\n      tag_201\n        /* \"NoBOverround.sol\":11791:11798  _amount */\n      dup5\n        /* \"NoBOverround.sol\":11800:11810  multiplier */\n      dup3\n        /* \"NoBOverround.sol\":11777:11790  ABDKMath.mulu */\n      tag_198\n        /* \"NoBOverround.sol\":11777:11811  ABDKMath.mulu(_amount, multiplier) */\n      jump\t// in\n        /* \"NoBOverround.sol\":13840:16573  function sell(uint256 _outcome, int128 _amount) public onlyAfterInit returns (int128 refund) {... */\n    tag_138:\n        /* \"NoBOverround.sol\":12709:12713  init */\n      sload(0x08)\n        /* \"NoBOverround.sol\":13918:13931  int128 refund */\n      0x00\n      swap1\n      shl(0xa0, 0x01)\n        /* \"NoBOverround.sol\":12709:12713  init */\n      swap1\n      div\n      0xff\n      and\n        /* \"NoBOverround.sol\":12709:12721  init == true */\n      iszero\n      iszero\n        /* \"NoBOverround.sol\":12717:12721  true */\n      0x01\n        /* \"NoBOverround.sol\":12709:12721  init == true */\n      eq\n        /* \"NoBOverround.sol\":12701:12722  require(init == true) */\n      tag_459\n      jumpi\n      0x00\n      dup1\n      revert\n    tag_459:\n        /* \"NoBOverround.sol\":13958:13969  numOutcomes */\n      sload(0x01)\n        /* \"NoBOverround.sol\":13947:13955  _outcome */\n      dup4\n        /* \"NoBOverround.sol\":13947:13969  _outcome < numOutcomes */\n      lt\n        /* \"NoBOverround.sol\":13939:13995  require(_outcome < numOutcomes, \"Invalid outcome index\") */\n      tag_461\n      jumpi\n      mload(0x40)\n      shl(0xe5, 0x461bcd)\n      dup2\n      mstore\n        /* \"#utility.yul\":12033:12035   */\n      0x20\n        /* \"NoBOverround.sol\":13939:13995  require(_outcome < numOutcomes, \"Invalid outcome index\") */\n      0x04\n      dup3\n      add\n        /* \"#utility.yul\":12015:12036   */\n      mstore\n        /* \"#utility.yul\":12072:12074   */\n      0x15\n        /* \"#utility.yul\":12052:12070   */\n      0x24\n      dup3\n      add\n        /* \"#utility.yul\":12045:12075   */\n      mstore\n      shl(0x5b, 0x092dcecc2d8d2c840deeae8c6dedaca40d2dcc8caf)\n        /* \"#utility.yul\":12091:12109   */\n      0x44\n      dup3\n      add\n        /* \"#utility.yul\":12084:12135   */\n      mstore\n        /* \"#utility.yul\":12152:12170   */\n      0x64\n      add\n        /* \"NoBOverround.sol\":13939:13995  require(_outcome < numOutcomes, \"Invalid outcome index\") */\n      tag_195\n        /* \"#utility.yul\":11831:12176   */\n      jump\n        /* \"NoBOverround.sol\":13939:13995  require(_outcome < numOutcomes, \"Invalid outcome index\") */\n    tag_461:\n        /* \"NoBOverround.sol\":14019:14020  0 */\n      0x00\n        /* \"NoBOverround.sol\":14009:14016  _amount */\n      dup3\n        /* \"NoBOverround.sol\":14009:14020  _amount > 0 */\n      0x0f\n      signextend\n      sgt\n        /* \"NoBOverround.sol\":14001:14048  require(_amount > 0, \"Amount must be positive\") */\n      tag_463\n      jumpi\n      mload(0x40)\n      shl(0xe5, 0x461bcd)\n      dup2\n      mstore\n        /* \"#utility.yul\":16089:16091   */\n      0x20\n        /* \"NoBOverround.sol\":14001:14048  require(_amount > 0, \"Amount must be positive\") */\n      0x04\n      dup3\n      add\n        /* \"#utility.yul\":16071:16092   */\n      mstore\n        /* \"#utility.yul\":16128:16130   */\n      0x17\n        /* \"#utility.yul\":16108:16126   */\n      0x24\n      dup3\n      add\n        /* \"#utility.yul\":16101:16131   */\n      mstore\n        /* \"#utility.yul\":16167:16192   */\n      0x416d6f756e74206d75737420626520706f736974697665000000000000000000\n        /* \"#utility.yul\":16147:16165   */\n      0x44\n      dup3\n      add\n        /* \"#utility.yul\":16140:16193   */\n      mstore\n        /* \"#utility.yul\":16210:16228   */\n      0x64\n      add\n        /* \"NoBOverround.sol\":14001:14048  require(_amount > 0, \"Amount must be positive\") */\n      tag_195\n        /* \"#utility.yul\":15887:16234   */\n      jump\n        /* \"NoBOverround.sol\":14001:14048  require(_amount > 0, \"Amount must be positive\") */\n    tag_463:\n        /* \"NoBOverround.sol\":14062:14064  CT */\n      sload(0x07)\n        /* \"NoBOverround.sol\":14083:14092  condition */\n      sload(0x06)\n        /* \"NoBOverround.sol\":14062:14093  CT.payoutDenominator(condition) */\n      mload(0x40)\n      shl(0xe0, 0xdd34de67)\n      dup2\n      mstore\n      sub(shl(0xa0, 0x01), 0x01)\n        /* \"NoBOverround.sol\":14062:14064  CT */\n      swap1\n      swap3\n      and\n      swap2\n        /* \"NoBOverround.sol\":14062:14082  CT.payoutDenominator */\n      0xdd34de67\n      swap2\n        /* \"NoBOverround.sol\":14062:14093  CT.payoutDenominator(condition) */\n      tag_466\n      swap2\n      0x04\n      add\n        /* \"#utility.yul\":1274:1299   */\n      swap1\n      dup2\n      mstore\n        /* \"#utility.yul\":1262:1264   */\n      0x20\n        /* \"#utility.yul\":1247:1265   */\n      add\n      swap1\n        /* \"#utility.yul\":1128:1305   */\n      jump\n        /* \"NoBOverround.sol\":14062:14093  CT.payoutDenominator(condition) */\n    tag_466:\n      0x20\n      mload(0x40)\n      dup1\n      dup4\n      sub\n      dup2\n      dup7\n      gas\n      staticcall\n      iszero\n      dup1\n      iszero\n      tag_468\n      jumpi\n      returndatasize\n      0x00\n      dup1\n      returndatacopy\n      revert(0x00, returndatasize)\n    tag_468:\n      pop\n      pop\n      pop\n      pop\n      mload(0x40)\n      returndatasize\n      not(0x1f)\n      0x1f\n      dup3\n      add\n      and\n      dup3\n      add\n      dup1\n      0x40\n      mstore\n      pop\n      dup2\n      add\n      swap1\n      tag_469\n      swap2\n      swap1\n      tag_240\n      jump\t// in\n    tag_469:\n        /* \"NoBOverround.sol\":14062:14098  CT.payoutDenominator(condition) == 0 */\n      iszero\n        /* \"NoBOverround.sol\":14054:14126  require(CT.payoutDenominator(condition) == 0, \"Market already resolved\") */\n      tag_470\n      jumpi\n      mload(0x40)\n      shl(0xe5, 0x461bcd)\n      dup2\n      mstore\n        /* \"#utility.yul\":16441:16443   */\n      0x20\n        /* \"NoBOverround.sol\":14054:14126  require(CT.payoutDenominator(condition) == 0, \"Market already resolved\") */\n      0x04\n      dup3\n      add\n        /* \"#utility.yul\":16423:16444   */\n      mstore\n        /* \"#utility.yul\":16480:16482   */\n      0x17\n        /* \"#utility.yul\":16460:16478   */\n      0x24\n      dup3\n      add\n        /* \"#utility.yul\":16453:16483   */\n      mstore\n        /* \"#utility.yul\":16519:16544   */\n      0x4d61726b657420616c7265616479207265736f6c766564000000000000000000\n        /* \"#utility.yul\":16499:16517   */\n      0x44\n      dup3\n      add\n        /* \"#utility.yul\":16492:16545   */\n      mstore\n        /* \"#utility.yul\":16562:16580   */\n      0x64\n      add\n        /* \"NoBOverround.sol\":14054:14126  require(CT.payoutDenominator(condition) == 0, \"Market already resolved\") */\n      tag_195\n        /* \"#utility.yul\":16239:16586   */\n      jump\n        /* \"NoBOverround.sol\":14054:14126  require(CT.payoutDenominator(condition) == 0, \"Market already resolved\") */\n    tag_470:\n        /* \"NoBOverround.sol\":14155:14162  _amount */\n      dup2\n        /* \"NoBOverround.sol\":14140:14162  q[_outcome] >= _amount */\n      0x0f\n      signextend\n        /* \"NoBOverround.sol\":14140:14141  q */\n      0x02\n        /* \"NoBOverround.sol\":14142:14150  _outcome */\n      dup5\n        /* \"NoBOverround.sol\":14140:14151  q[_outcome] */\n      dup2\n      sload\n      dup2\n      lt\n      tag_474\n      jumpi\n      tag_474\n      tag_222\n      jump\t// in\n    tag_474:\n      0x00\n      swap2\n      dup3\n      mstore\n      0x20\n      swap1\n      swap2\n      keccak256\n      0x02\n      dup3\n      div\n      add\n      sload\n      0x01\n      swap1\n      swap2\n      and\n      0x10\n      mul\n      0x0100\n      exp\n      swap1\n      div\n      0x0f\n      signextend\n        /* \"NoBOverround.sol\":14140:14162  q[_outcome] >= _amount */\n      slt\n      iszero\n        /* \"NoBOverround.sol\":14132:14192  require(q[_outcome] >= _amount, \"Not enough shares to sell\") */\n      tag_476\n      jumpi\n      mload(0x40)\n      shl(0xe5, 0x461bcd)\n      dup2\n      mstore\n        /* \"#utility.yul\":16793:16795   */\n      0x20\n        /* \"NoBOverround.sol\":14132:14192  require(q[_outcome] >= _amount, \"Not enough shares to sell\") */\n      0x04\n      dup3\n      add\n        /* \"#utility.yul\":16775:16796   */\n      mstore\n        /* \"#utility.yul\":16832:16834   */\n      0x19\n        /* \"#utility.yul\":16812:16830   */\n      0x24\n      dup3\n      add\n        /* \"#utility.yul\":16805:16835   */\n      mstore\n        /* \"#utility.yul\":16871:16898   */\n      0x4e6f7420656e6f7567682073686172657320746f2073656c6c00000000000000\n        /* \"#utility.yul\":16851:16869   */\n      0x44\n      dup3\n      add\n        /* \"#utility.yul\":16844:16899   */\n      mstore\n        /* \"#utility.yul\":16916:16934   */\n      0x64\n      add\n        /* \"NoBOverround.sol\":14132:14192  require(q[_outcome] >= _amount, \"Not enough shares to sell\") */\n      tag_195\n        /* \"#utility.yul\":16591:16940   */\n      jump\n        /* \"NoBOverround.sol\":14132:14192  require(q[_outcome] >= _amount, \"Not enough shares to sell\") */\n    tag_476:\n        /* \"NoBOverround.sol\":14249:14264  int128 new_cost */\n      0x00\n        /* \"NoBOverround.sol\":14266:14280  int128 refund_ */\n      dup1\n        /* \"NoBOverround.sol\":14282:14305  int128 new_total_shares */\n      0x00\n        /* \"NoBOverround.sol\":14309:14406  _calculateSellRefund(... */\n      tag_479\n        /* \"NoBOverround.sol\":14339:14340  q */\n      0x02\n        /* \"NoBOverround.sol\":14309:14406  _calculateSellRefund(... */\n      dup1\n      sload\n      dup1\n      0x20\n      mul\n      0x20\n      add\n      mload(0x40)\n      swap1\n      dup2\n      add\n      0x40\n      mstore\n      dup1\n      swap3\n      swap2\n      swap1\n      dup2\n      dup2\n      mstore\n      0x20\n      add\n      dup3\n      dup1\n      sload\n      dup1\n      iszero\n      tag_480\n      jumpi\n      0x20\n      mul\n      dup3\n      add\n      swap2\n      swap1\n      0x00\n      mstore\n      keccak256(0x00, 0x20)\n      swap1\n      0x00\n      swap1\n    tag_481:\n      dup3\n      sload\n      0x0100\n      dup4\n      swap1\n      exp\n      swap1\n      div\n      0x0f\n      signextend\n      dup2\n      mstore\n      0x20\n      0x1f\n      dup4\n      add\n      dup2\n      swap1\n      div\n      swap4\n      dup5\n      add\n      swap4\n      0x01\n      sub\n      0x10\n      swap1\n      swap4\n      add\n      swap3\n      swap1\n      swap3\n      mul\n      swap2\n      add\n      dup1\n      dup5\n      gt\n      tag_481\n      jumpi\n      swap1\n      pop\n    tag_480:\n      pop\n      pop\n        /* \"NoBOverround.sol\":14361:14373  total_shares */\n      sload(0x04)\n        /* \"NoBOverround.sol\":14375:14387  current_cost */\n      sload(0x03)\n        /* \"NoBOverround.sol\":14361:14373  total_shares */\n      0x01\n        /* \"NoBOverround.sol\":14389:14400  numOutcomes */\n      sload\n        /* \"NoBOverround.sol\":14342:14350  _outcome */\n      dup14\n      swap6\n      pop\n        /* \"NoBOverround.sol\":14352:14359  _amount */\n      dup13\n      swap5\n      pop\n        /* \"NoBOverround.sol\":14361:14373  total_shares */\n      0x0f\n      swap3\n      dup4\n      signextend\n      swap4\n      pop\n      shl(0x80, 0x01)\n        /* \"NoBOverround.sol\":14375:14387  current_cost */\n      swap1\n      swap2\n      div\n      swap1\n      swap2\n      signextend\n      swap1\n        /* \"NoBOverround.sol\":14309:14329  _calculateSellRefund */\n      tag_482\n        /* \"NoBOverround.sol\":14309:14406  _calculateSellRefund(... */\n      jump\t// in\n    tag_479:\n        /* \"NoBOverround.sol\":14248:14406  (int128 new_cost, int128 refund_, int128 new_total_shares) = _calculateSellRefund(... */\n      swap3\n      pop\n      swap3\n      pop\n      swap3\n      pop\n        /* \"NoBOverround.sol\":14474:14490  uint maxSellable */\n      0x00\n        /* \"NoBOverround.sol\":14493:14523  getMaxSellableAmount(_outcome) */\n      tag_483\n        /* \"NoBOverround.sol\":14514:14522  _outcome */\n      dup8\n        /* \"NoBOverround.sol\":14493:14513  getMaxSellableAmount */\n      tag_165\n        /* \"NoBOverround.sol\":14493:14523  getMaxSellableAmount(_outcome) */\n      jump\t// in\n    tag_483:\n        /* \"NoBOverround.sol\":14569:14574  token */\n      sload(0x08)\n        /* \"NoBOverround.sol\":14474:14523  uint maxSellable = getMaxSellableAmount(_outcome) */\n      swap1\n      swap2\n      pop\n        /* \"NoBOverround.sol\":14529:14550  uint n_outcome_tokens */\n      0x00\n      swap1\n        /* \"NoBOverround.sol\":14553:14584  getTokenWeiDown(token, _amount) */\n      tag_484\n      swap1\n      sub(shl(0xa0, 0x01), 0x01)\n        /* \"NoBOverround.sol\":14569:14574  token */\n      and\n        /* \"NoBOverround.sol\":14576:14583  _amount */\n      dup9\n        /* \"NoBOverround.sol\":14553:14568  getTokenWeiDown */\n      tag_130\n        /* \"NoBOverround.sol\":14553:14584  getTokenWeiDown(token, _amount) */\n      jump\t// in\n    tag_484:\n        /* \"NoBOverround.sol\":14638:14696  abi.encodePacked(\"Max sellable: \", maxSellable, \" tokens\") */\n      mload(0x40)\n        /* \"#utility.yul\":17288:17304   */\n      0x4d61782073656c6c61626c653a20000000000000000000000000000000000000\n        /* \"NoBOverround.sol\":14638:14696  abi.encodePacked(\"Max sellable: \", maxSellable, \" tokens\") */\n      0x20\n      dup3\n      add\n        /* \"#utility.yul\":17276:17305   */\n      mstore\n        /* \"#utility.yul\":17321:17333   */\n      0x2e\n      dup2\n      add\n        /* \"#utility.yul\":17314:17342   */\n      dup5\n      swap1\n      mstore\n        /* \"#utility.yul\":17372:17381   */\n      0x20746f6b656e7300000000000000000000000000000000000000000000000000\n        /* \"#utility.yul\":17358:17370   */\n      0x4e\n      dup3\n      add\n        /* \"#utility.yul\":17351:17382   */\n      mstore\n        /* \"NoBOverround.sol\":14529:14584  uint n_outcome_tokens = getTokenWeiDown(token, _amount) */\n      swap1\n      swap2\n      pop\n        /* \"NoBOverround.sol\":14598:14629  n_outcome_tokens <= maxSellable */\n      dup3\n      dup3\n      gt\n      iszero\n      swap1\n        /* \"#utility.yul\":17398:17410   */\n      0x55\n      add\n        /* \"NoBOverround.sol\":14638:14696  abi.encodePacked(\"Max sellable: \", maxSellable, \" tokens\") */\n      mload(0x40)\n      0x20\n      dup2\n      dup4\n      sub\n      sub\n      dup2\n      mstore\n      swap1\n      0x40\n      mstore\n        /* \"NoBOverround.sol\":14590:14698  require(n_outcome_tokens <= maxSellable, string(abi.encodePacked(\"Max sellable: \", maxSellable, \" tokens\"))) */\n      swap1\n      tag_487\n      jumpi\n      mload(0x40)\n      shl(0xe5, 0x461bcd)\n      dup2\n      mstore\n      0x04\n      add\n      tag_195\n      swap2\n      swap1\n      tag_489\n      jump\t// in\n    tag_487:\n      pop\n        /* \"NoBOverround.sol\":14755:14757  CT */\n      sload(0x07)\n        /* \"NoBOverround.sol\":14779:14784  token */\n      sload(0x08)\n        /* \"NoBOverround.sol\":14818:14827  condition */\n      sload(0x06)\n        /* \"NoBOverround.sol\":14787:14843  CT.getCollectionId(bytes32(0), condition, 1 << _outcome) */\n      mload(0x40)\n      shl(0xe0, 0x856296f7)\n      dup2\n      mstore\n        /* \"NoBOverround.sol\":14744:14752  uint pos */\n      0x00\n        /* \"NoBOverround.sol\":14787:14843  CT.getCollectionId(bytes32(0), condition, 1 << _outcome) */\n      0x04\n      dup3\n      add\n        /* \"#utility.yul\":14533:14558   */\n      dup2\n      swap1\n      mstore\n        /* \"#utility.yul\":14574:14592   */\n      0x24\n      dup3\n      add\n        /* \"#utility.yul\":14567:14601   */\n      swap3\n      swap1\n      swap3\n      mstore\n        /* \"NoBOverround.sol\":14755:14757  CT */\n      0x01\n        /* \"NoBOverround.sol\":14829:14842  1 << _outcome */\n      dup13\n      shl\n        /* \"#utility.yul\":14617:14635   */\n      0x44\n      dup3\n      add\n        /* \"#utility.yul\":14610:14644   */\n      mstore\n        /* \"NoBOverround.sol\":14744:14752  uint pos */\n      swap1\n      swap3\n      sub(shl(0xa0, 0x01), 0x01)\n        /* \"NoBOverround.sol\":14755:14757  CT */\n      swap1\n      dup2\n      and\n      swap3\n        /* \"NoBOverround.sol\":14755:14771  CT.getPositionId */\n      0x39dd7530\n      swap3\n        /* \"NoBOverround.sol\":14779:14784  token */\n      swap2\n      and\n      swap1\n        /* \"NoBOverround.sol\":14755:14757  CT */\n      dup4\n      swap1\n        /* \"NoBOverround.sol\":14787:14805  CT.getCollectionId */\n      0x856296f7\n      swap1\n        /* \"#utility.yul\":14506:14524   */\n      0x64\n      add\n        /* \"NoBOverround.sol\":14787:14843  CT.getCollectionId(bytes32(0), condition, 1 << _outcome) */\n      0x20\n      mload(0x40)\n      dup1\n      dup4\n      sub\n      dup2\n      dup7\n      gas\n      staticcall\n      iszero\n      dup1\n      iszero\n      tag_492\n      jumpi\n      returndatasize\n      0x00\n      dup1\n      returndatacopy\n      revert(0x00, returndatasize)\n    tag_492:\n      pop\n      pop\n      pop\n      pop\n      mload(0x40)\n      returndatasize\n      not(0x1f)\n      0x1f\n      dup3\n      add\n      and\n      dup3\n      add\n      dup1\n      0x40\n      mstore\n      pop\n      dup2\n      add\n      swap1\n      tag_493\n      swap2\n      swap1\n      tag_240\n      jump\t// in\n    tag_493:\n        /* \"NoBOverround.sol\":14755:14844  CT.getPositionId(IERC20(token), CT.getCollectionId(bytes32(0), condition, 1 << _outcome)) */\n      mload(0x40)\n      not(sub(shl(0xe0, 0x01), 0x01))\n      0xe0\n      dup6\n      swap1\n      shl\n      and\n      dup2\n      mstore\n      sub(shl(0xa0, 0x01), 0x01)\n        /* \"#utility.yul\":14863:14918   */\n      swap1\n      swap3\n      and\n        /* \"NoBOverround.sol\":14755:14844  CT.getPositionId(IERC20(token), CT.getCollectionId(bytes32(0), condition, 1 << _outcome)) */\n      0x04\n      dup4\n      add\n        /* \"#utility.yul\":14845:14919   */\n      mstore\n        /* \"#utility.yul\":14935:14953   */\n      0x24\n      dup3\n      add\n        /* \"#utility.yul\":14928:14962   */\n      mstore\n        /* \"#utility.yul\":14818:14836   */\n      0x44\n      add\n        /* \"NoBOverround.sol\":14755:14844  CT.getPositionId(IERC20(token), CT.getCollectionId(bytes32(0), condition, 1 << _outcome)) */\n      0x20\n      mload(0x40)\n      dup1\n      dup4\n      sub\n      dup2\n      dup7\n      gas\n      staticcall\n      iszero\n      dup1\n      iszero\n      tag_496\n      jumpi\n      returndatasize\n      0x00\n      dup1\n      returndatacopy\n      revert(0x00, returndatasize)\n    tag_496:\n      pop\n      pop\n      pop\n      pop\n      mload(0x40)\n      returndatasize\n      not(0x1f)\n      0x1f\n      dup3\n      add\n      and\n      dup3\n      add\n      dup1\n      0x40\n      mstore\n      pop\n      dup2\n      add\n      swap1\n      tag_497\n      swap2\n      swap1\n      tag_240\n      jump\t// in\n    tag_497:\n        /* \"NoBOverround.sol\":14859:14861  CT */\n      sload(0x07)\n        /* \"NoBOverround.sol\":14859:14932  CT.safeTransferFrom(msg.sender, address(this), pos, n_outcome_tokens, \"\") */\n      mload(0x40)\n      shl(0xe1, 0x79212195)\n      dup2\n      mstore\n        /* \"NoBOverround.sol\":14879:14889  msg.sender */\n      caller\n        /* \"NoBOverround.sol\":14859:14932  CT.safeTransferFrom(msg.sender, address(this), pos, n_outcome_tokens, \"\") */\n      0x04\n      dup3\n      add\n        /* \"#utility.yul\":18318:18352   */\n      mstore\n        /* \"NoBOverround.sol\":14899:14903  this */\n      address\n        /* \"#utility.yul\":18368:18386   */\n      0x24\n      dup3\n      add\n        /* \"#utility.yul\":18361:18404   */\n      mstore\n        /* \"#utility.yul\":18420:18438   */\n      0x44\n      dup2\n      add\n        /* \"#utility.yul\":18413:18447   */\n      dup4\n      swap1\n      mstore\n        /* \"#utility.yul\":18463:18481   */\n      0x64\n      dup2\n      add\n        /* \"#utility.yul\":18456:18490   */\n      dup6\n      swap1\n      mstore\n        /* \"#utility.yul\":18527:18530   */\n      0xa0\n        /* \"#utility.yul\":18506:18525   */\n      0x84\n      dup3\n      add\n        /* \"#utility.yul\":18499:18531   */\n      mstore\n      0x00\n        /* \"#utility.yul\":18547:18566   */\n      0xa4\n      dup3\n      add\n        /* \"#utility.yul\":18540:18570   */\n      mstore\n        /* \"NoBOverround.sol\":14744:14844  uint pos = CT.getPositionId(IERC20(token), CT.getCollectionId(bytes32(0), condition, 1 << _outcome)) */\n      swap2\n      swap3\n      pop\n      sub(shl(0xa0, 0x01), 0x01)\n        /* \"NoBOverround.sol\":14859:14861  CT */\n      and\n      swap1\n        /* \"NoBOverround.sol\":14859:14878  CT.safeTransferFrom */\n      0xf242432a\n      swap1\n        /* \"#utility.yul\":18587:18606   */\n      0xc4\n      add\n        /* \"NoBOverround.sol\":14859:14932  CT.safeTransferFrom(msg.sender, address(this), pos, n_outcome_tokens, \"\") */\n      0x00\n      mload(0x40)\n      dup1\n      dup4\n      sub\n      dup2\n      0x00\n      dup8\n      dup1\n      extcodesize\n      iszero\n      dup1\n      iszero\n      tag_500\n      jumpi\n      0x00\n      dup1\n      revert\n    tag_500:\n      pop\n      gas\n      call\n      swap3\n      pop\n      pop\n      pop\n      dup1\n      iszero\n      tag_501\n      jumpi\n      pop\n      0x01\n    tag_501:\n        /* \"NoBOverround.sol\":14855:15159  try CT.safeTransferFrom(msg.sender, address(this), pos, n_outcome_tokens, \"\") {... */\n      tag_502\n      jumpi\n      tag_506\n      tag_507\n      jump\t// in\n    tag_506:\n      dup1\n      0x08c379a0\n      sub\n      tag_505\n      jumpi\n      pop\n      tag_508\n      tag_509\n      jump\t// in\n    tag_508:\n      dup1\n      tag_510\n      jumpi\n      pop\n      jump(tag_504)\n    tag_510:\n        /* \"NoBOverround.sol\":15020:15073  SplitPositionError(\"safeTransferFrom failed\", reason) */\n      0xbd1dcaeca35ae4a65142e160b7e80d67e7d37f2145f209d9c29b7e4daf85ba37\n        /* \"NoBOverround.sol\":15066:15072  reason */\n      dup2\n        /* \"NoBOverround.sol\":15020:15073  SplitPositionError(\"safeTransferFrom failed\", reason) */\n      mload(0x40)\n      tag_511\n      swap2\n      swap1\n      tag_512\n      jump\t// in\n    tag_511:\n      mload(0x40)\n      dup1\n      swap2\n      sub\n      swap1\n      log1\n        /* \"NoBOverround.sol\":15143:15149  reason */\n      dup1\n        /* \"NoBOverround.sol\":15097:15150  abi.encodePacked(\"safeTransferFrom failed: \", reason) */\n      add(0x20, mload(0x40))\n      tag_513\n      swap2\n      swap1\n      tag_514\n      jump\t// in\n    tag_513:\n      0x40\n      dup1\n      mload\n      not(0x1f)\n      dup2\n      dup5\n      sub\n      add\n      dup2\n      mstore\n      swap1\n      dup3\n      swap1\n      mstore\n      shl(0xe5, 0x461bcd)\n        /* \"NoBOverround.sol\":15083:15152  revert(string(abi.encodePacked(\"safeTransferFrom failed: \", reason))) */\n      dup3\n      mstore\n      tag_195\n      swap2\n      0x04\n      add\n      tag_489\n      jump\t// in\n        /* \"NoBOverround.sol\":14855:15159  try CT.safeTransferFrom(msg.sender, address(this), pos, n_outcome_tokens, \"\") {... */\n    tag_505:\n      pop\n    tag_504:\n      returndatasize\n      0x00\n      dup1\n      returndatacopy\n      revert(0x00, returndatasize)\n    tag_502:\n        /* \"NoBOverround.sol\":15230:15253  uint[] memory partition */\n      0x00\n        /* \"NoBOverround.sol\":15256:15293  getPositionAndDustPositions(_outcome) */\n      tag_517\n        /* \"NoBOverround.sol\":15284:15292  _outcome */\n      dup11\n        /* \"NoBOverround.sol\":15256:15283  getPositionAndDustPositions */\n      tag_125\n        /* \"NoBOverround.sol\":15256:15293  getPositionAndDustPositions(_outcome) */\n      jump\t// in\n    tag_517:\n        /* \"NoBOverround.sol\":15230:15293  uint[] memory partition = getPositionAndDustPositions(_outcome) */\n      swap1\n      pop\n        /* \"NoBOverround.sol\":15299:15314  bool needToMint */\n      0x00\n        /* \"NoBOverround.sol\":15328:15345  uint tokensToMint */\n      dup1\n        /* \"NoBOverround.sol\":15437:15443  uint i */\n      0x00\n        /* \"NoBOverround.sol\":15432:15882  for (uint i = 0; i < partition.length; i++) {... */\n    tag_518:\n        /* \"NoBOverround.sol\":15453:15462  partition */\n      dup4\n        /* \"NoBOverround.sol\":15453:15469  partition.length */\n      mload\n        /* \"NoBOverround.sol\":15449:15450  i */\n      dup2\n        /* \"NoBOverround.sol\":15449:15469  i < partition.length */\n      lt\n        /* \"NoBOverround.sol\":15432:15882  for (uint i = 0; i < partition.length; i++) {... */\n      iszero\n      tag_519\n      jumpi\n        /* \"NoBOverround.sol\":15499:15501  CT */\n      sload(0x07)\n        /* \"NoBOverround.sol\":15523:15528  token */\n      sload(0x08)\n        /* \"NoBOverround.sol\":15562:15571  condition */\n      sload(0x06)\n        /* \"NoBOverround.sol\":15573:15585  partition[i] */\n      dup7\n      mload\n        /* \"NoBOverround.sol\":15486:15496  uint posId */\n      0x00\n      swap4\n      sub(shl(0xa0, 0x01), 0x01)\n        /* \"NoBOverround.sol\":15499:15501  CT */\n      swap1\n      dup2\n      and\n      swap4\n        /* \"NoBOverround.sol\":15499:15515  CT.getPositionId */\n      0x39dd7530\n      swap4\n        /* \"NoBOverround.sol\":15523:15528  token */\n      swap2\n      and\n      swap2\n        /* \"NoBOverround.sol\":15499:15501  CT */\n      dup5\n      swap2\n        /* \"NoBOverround.sol\":15531:15549  CT.getCollectionId */\n      0x856296f7\n      swap2\n        /* \"NoBOverround.sol\":15486:15496  uint posId */\n      dup8\n      swap2\n        /* \"NoBOverround.sol\":15562:15571  condition */\n      swap1\n        /* \"NoBOverround.sol\":15573:15582  partition */\n      dup13\n      swap1\n        /* \"NoBOverround.sol\":15583:15584  i */\n      dup11\n      swap1\n        /* \"NoBOverround.sol\":15573:15585  partition[i] */\n      dup2\n      lt\n      tag_522\n      jumpi\n      tag_522\n      tag_222\n      jump\t// in\n    tag_522:\n      0x20\n      mul\n      0x20\n      add\n      add\n      mload\n        /* \"NoBOverround.sol\":15531:15586  CT.getCollectionId(bytes32(0), condition, partition[i]) */\n      mload(0x40)\n      dup5\n      0xffffffff\n      and\n      0xe0\n      shl\n      dup2\n      mstore\n      0x04\n      add\n      tag_523\n      swap4\n      swap3\n      swap2\n      swap1\n        /* \"#utility.yul\":14533:14558   */\n      swap3\n      dup4\n      mstore\n        /* \"#utility.yul\":14589:14591   */\n      0x20\n        /* \"#utility.yul\":14574:14592   */\n      dup4\n      add\n        /* \"#utility.yul\":14567:14601   */\n      swap2\n      swap1\n      swap2\n      mstore\n        /* \"#utility.yul\":14632:14634   */\n      0x40\n        /* \"#utility.yul\":14617:14635   */\n      dup3\n      add\n        /* \"#utility.yul\":14610:14644   */\n      mstore\n        /* \"#utility.yul\":14521:14523   */\n      0x60\n        /* \"#utility.yul\":14506:14524   */\n      add\n      swap1\n        /* \"#utility.yul\":14331:14650   */\n      jump\n        /* \"NoBOverround.sol\":15531:15586  CT.getCollectionId(bytes32(0), condition, partition[i]) */\n    tag_523:\n      0x20\n      mload(0x40)\n      dup1\n      dup4\n      sub\n      dup2\n      dup7\n      gas\n      staticcall\n      iszero\n      dup1\n      iszero\n      tag_525\n      jumpi\n      returndatasize\n      0x00\n      dup1\n      returndatacopy\n      revert(0x00, returndatasize)\n    tag_525:\n      pop\n      pop\n      pop\n      pop\n      mload(0x40)\n      returndatasize\n      not(0x1f)\n      0x1f\n      dup3\n      add\n      and\n      dup3\n      add\n      dup1\n      0x40\n      mstore\n      pop\n      dup2\n      add\n      swap1\n      tag_526\n      swap2\n      swap1\n      tag_240\n      jump\t// in\n    tag_526:\n        /* \"NoBOverround.sol\":15499:15587  CT.getPositionId(IERC20(token), CT.getCollectionId(bytes32(0), condition, partition[i])) */\n      mload(0x40)\n      not(sub(shl(0xe0, 0x01), 0x01))\n      0xe0\n      dup6\n      swap1\n      shl\n      and\n      dup2\n      mstore\n      sub(shl(0xa0, 0x01), 0x01)\n        /* \"#utility.yul\":14863:14918   */\n      swap1\n      swap3\n      and\n        /* \"NoBOverround.sol\":15499:15587  CT.getPositionId(IERC20(token), CT.getCollectionId(bytes32(0), condition, partition[i])) */\n      0x04\n      dup4\n      add\n        /* \"#utility.yul\":14845:14919   */\n      mstore\n        /* \"#utility.yul\":14935:14953   */\n      0x24\n      dup3\n      add\n        /* \"#utility.yul\":14928:14962   */\n      mstore\n        /* \"#utility.yul\":14818:14836   */\n      0x44\n      add\n        /* \"NoBOverround.sol\":15499:15587  CT.getPositionId(IERC20(token), CT.getCollectionId(bytes32(0), condition, partition[i])) */\n      0x20\n      mload(0x40)\n      dup1\n      dup4\n      sub\n      dup2\n      dup7\n      gas\n      staticcall\n      iszero\n      dup1\n      iszero\n      tag_529\n      jumpi\n      returndatasize\n      0x00\n      dup1\n      returndatacopy\n      revert(0x00, returndatasize)\n    tag_529:\n      pop\n      pop\n      pop\n      pop\n      mload(0x40)\n      returndatasize\n      not(0x1f)\n      0x1f\n      dup3\n      add\n      and\n      dup3\n      add\n      dup1\n      0x40\n      mstore\n      pop\n      dup2\n      add\n      swap1\n      tag_530\n      swap2\n      swap1\n      tag_240\n      jump\t// in\n    tag_530:\n        /* \"NoBOverround.sol\":15612:15614  CT */\n      sload(0x07)\n        /* \"NoBOverround.sol\":15612:15646  CT.balanceOf(address(this), posId) */\n      mload(0x40)\n      shl(0xe1, 0x7eeac7)\n      dup2\n      mstore\n        /* \"NoBOverround.sol\":15633:15637  this */\n      address\n        /* \"NoBOverround.sol\":15612:15646  CT.balanceOf(address(this), posId) */\n      0x04\n      dup3\n      add\n        /* \"#utility.yul\":14845:14919   */\n      mstore\n        /* \"#utility.yul\":14935:14953   */\n      0x24\n      dup2\n      add\n        /* \"#utility.yul\":14928:14962   */\n      dup4\n      swap1\n      mstore\n        /* \"NoBOverround.sol\":15486:15587  uint posId = CT.getPositionId(IERC20(token), CT.getCollectionId(bytes32(0), condition, partition[i])) */\n      swap2\n      swap3\n      pop\n        /* \"NoBOverround.sol\":15597:15609  uint balance */\n      0x00\n      swap2\n      sub(shl(0xa0, 0x01), 0x01)\n        /* \"NoBOverround.sol\":15612:15614  CT */\n      swap1\n      swap2\n      and\n      swap1\n        /* \"NoBOverround.sol\":15612:15624  CT.balanceOf */\n      0xfdd58e\n      swap1\n        /* \"#utility.yul\":14818:14836   */\n      0x44\n      add\n        /* \"NoBOverround.sol\":15612:15646  CT.balanceOf(address(this), posId) */\n      0x20\n      mload(0x40)\n      dup1\n      dup4\n      sub\n      dup2\n      dup7\n      gas\n      staticcall\n      iszero\n      dup1\n      iszero\n      tag_533\n      jumpi\n      returndatasize\n      0x00\n      dup1\n      returndatacopy\n      revert(0x00, returndatasize)\n    tag_533:\n      pop\n      pop\n      pop\n      pop\n      mload(0x40)\n      returndatasize\n      not(0x1f)\n      0x1f\n      dup3\n      add\n      and\n      dup3\n      add\n      dup1\n      0x40\n      mstore\n      pop\n      dup2\n      add\n      swap1\n      tag_534\n      swap2\n      swap1\n      tag_240\n      jump\t// in\n    tag_534:\n        /* \"NoBOverround.sol\":15597:15646  uint balance = CT.balanceOf(address(this), posId) */\n      swap1\n      pop\n        /* \"NoBOverround.sol\":15670:15686  n_outcome_tokens */\n      dup8\n        /* \"NoBOverround.sol\":15660:15667  balance */\n      dup2\n        /* \"NoBOverround.sol\":15660:15686  balance < n_outcome_tokens */\n      lt\n        /* \"NoBOverround.sol\":15656:15876  if (balance < n_outcome_tokens) {... */\n      iszero\n      tag_535\n      jumpi\n        /* \"NoBOverround.sol\":15715:15719  true */\n      0x01\n      swap5\n      pop\n        /* \"NoBOverround.sol\":15748:15774  n_outcome_tokens - balance */\n      tag_536\n        /* \"NoBOverround.sol\":15767:15774  balance */\n      dup2\n        /* \"NoBOverround.sol\":15748:15764  n_outcome_tokens */\n      dup10\n        /* \"NoBOverround.sol\":15748:15774  n_outcome_tokens - balance */\n      tag_303\n      jump\t// in\n    tag_536:\n        /* \"NoBOverround.sol\":15733:15774  tokensToMint = n_outcome_tokens - balance */\n      swap4\n      pop\n        /* \"NoBOverround.sol\":15788:15793  break */\n      pop\n      pop\n      jump(tag_519)\n        /* \"NoBOverround.sol\":15656:15876  if (balance < n_outcome_tokens) {... */\n    tag_535:\n      pop\n      pop\n        /* \"NoBOverround.sol\":15471:15474  i++ */\n      0x01\n      add\n        /* \"NoBOverround.sol\":15432:15882  for (uint i = 0; i < partition.length; i++) {... */\n      jump(tag_518)\n    tag_519:\n      pop\n        /* \"NoBOverround.sol\":15933:15943  needToMint */\n      dup2\n        /* \"NoBOverround.sol\":15929:16099  if (needToMint) {... */\n      iszero\n      tag_537\n      jumpi\n        /* \"NoBOverround.sol\":15962:15967  token */\n      sload(0x08)\n        /* \"NoBOverround.sol\":15985:15987  CT */\n      sload(0x07)\n        /* \"NoBOverround.sol\":15955:16003  IERC20(token).approve(address(CT), tokensToMint) */\n      mload(0x40)\n      shl(0xe0, 0x095ea7b3)\n      dup2\n      mstore\n      sub(shl(0xa0, 0x01), 0x01)\n        /* \"NoBOverround.sol\":15985:15987  CT */\n      swap2\n      dup3\n      and\n        /* \"NoBOverround.sol\":15955:16003  IERC20(token).approve(address(CT), tokensToMint) */\n      0x04\n      dup3\n      add\n        /* \"#utility.yul\":14845:14919   */\n      mstore\n        /* \"#utility.yul\":14935:14953   */\n      0x24\n      dup2\n      add\n        /* \"#utility.yul\":14928:14962   */\n      dup5\n      swap1\n      mstore\n        /* \"NoBOverround.sol\":15962:15967  token */\n      swap2\n      and\n      swap1\n        /* \"NoBOverround.sol\":15955:15976  IERC20(token).approve */\n      0x095ea7b3\n      swap1\n        /* \"#utility.yul\":14818:14836   */\n      0x44\n      add\n        /* \"NoBOverround.sol\":15955:16003  IERC20(token).approve(address(CT), tokensToMint) */\n      0x20\n      mload(0x40)\n      dup1\n      dup4\n      sub\n      dup2\n      0x00\n      dup8\n      gas\n      call\n      iszero\n      dup1\n      iszero\n      tag_540\n      jumpi\n      returndatasize\n      0x00\n      dup1\n      returndatacopy\n      revert(0x00, returndatasize)\n    tag_540:\n      pop\n      pop\n      pop\n      pop\n      mload(0x40)\n      returndatasize\n      not(0x1f)\n      0x1f\n      dup3\n      add\n      and\n      dup3\n      add\n      dup1\n      0x40\n      mstore\n      pop\n      dup2\n      add\n      swap1\n      tag_541\n      swap2\n      swap1\n      tag_542\n      jump\t// in\n    tag_541:\n      pop\n        /* \"NoBOverround.sol\":16013:16015  CT */\n      sload(0x07)\n        /* \"NoBOverround.sol\":16037:16042  token */\n      sload(0x08)\n        /* \"NoBOverround.sol\":16057:16066  condition */\n      sload(0x06)\n        /* \"NoBOverround.sol\":16013:16092  CT.splitPosition(IERC20(token), bytes32(0), condition, partition, tokensToMint) */\n      mload(0x40)\n      shl(0xe0, 0x72ce4275)\n      dup2\n      mstore\n      sub(shl(0xa0, 0x01), 0x01)\n        /* \"NoBOverround.sol\":16013:16015  CT */\n      swap4\n      dup5\n      and\n      swap4\n        /* \"NoBOverround.sol\":16013:16029  CT.splitPosition */\n      0x72ce4275\n      swap4\n        /* \"NoBOverround.sol\":16013:16092  CT.splitPosition(IERC20(token), bytes32(0), condition, partition, tokensToMint) */\n      tag_543\n      swap4\n        /* \"NoBOverround.sol\":16037:16042  token */\n      swap2\n      and\n      swap2\n        /* \"NoBOverround.sol\":16013:16015  CT */\n      0x00\n      swap2\n        /* \"NoBOverround.sol\":16057:16066  condition */\n      swap1\n        /* \"NoBOverround.sol\":16068:16077  partition */\n      dup10\n      swap1\n        /* \"NoBOverround.sol\":16079:16091  tokensToMint */\n      dup9\n      swap1\n        /* \"NoBOverround.sol\":16013:16092  CT.splitPosition(IERC20(token), bytes32(0), condition, partition, tokensToMint) */\n      0x04\n      add\n      tag_544\n      jump\t// in\n    tag_543:\n      0x00\n      mload(0x40)\n      dup1\n      dup4\n      sub\n      dup2\n      0x00\n      dup8\n      dup1\n      extcodesize\n      iszero\n      dup1\n      iszero\n      tag_545\n      jumpi\n      0x00\n      dup1\n      revert\n    tag_545:\n      pop\n      gas\n      call\n      iszero\n      dup1\n      iszero\n      tag_547\n      jumpi\n      returndatasize\n      0x00\n      dup1\n      returndatacopy\n      revert(0x00, returndatasize)\n    tag_547:\n      pop\n      pop\n      pop\n      pop\n        /* \"NoBOverround.sol\":15929:16099  if (needToMint) {... */\n    tag_537:\n        /* \"NoBOverround.sol\":16156:16158  CT */\n      sload(0x07)\n        /* \"NoBOverround.sol\":16181:16186  token */\n      sload(0x08)\n        /* \"NoBOverround.sol\":16201:16210  condition */\n      sload(0x06)\n        /* \"NoBOverround.sol\":16156:16240  CT.mergePositions(IERC20(token), bytes32(0), condition, partition, n_outcome_tokens) */\n      mload(0x40)\n      shl(0xe0, 0x9e7212ad)\n      dup2\n      mstore\n      sub(shl(0xa0, 0x01), 0x01)\n        /* \"NoBOverround.sol\":16156:16158  CT */\n      swap4\n      dup5\n      and\n      swap4\n        /* \"NoBOverround.sol\":16156:16173  CT.mergePositions */\n      0x9e7212ad\n      swap4\n        /* \"NoBOverround.sol\":16156:16240  CT.mergePositions(IERC20(token), bytes32(0), condition, partition, n_outcome_tokens) */\n      tag_548\n      swap4\n        /* \"NoBOverround.sol\":16181:16186  token */\n      swap2\n      and\n      swap2\n        /* \"NoBOverround.sol\":16156:16158  CT */\n      0x00\n      swap2\n        /* \"NoBOverround.sol\":16201:16210  condition */\n      swap1\n        /* \"NoBOverround.sol\":16212:16221  partition */\n      dup10\n      swap1\n        /* \"NoBOverround.sol\":16223:16239  n_outcome_tokens */\n      dup13\n      swap1\n        /* \"NoBOverround.sol\":16156:16240  CT.mergePositions(IERC20(token), bytes32(0), condition, partition, n_outcome_tokens) */\n      0x04\n      add\n      tag_544\n      jump\t// in\n    tag_548:\n      0x00\n      mload(0x40)\n      dup1\n      dup4\n      sub\n      dup2\n      0x00\n      dup8\n      dup1\n      extcodesize\n      iszero\n      dup1\n      iszero\n      tag_549\n      jumpi\n      0x00\n      dup1\n      revert\n    tag_549:\n      pop\n      gas\n      call\n      iszero\n      dup1\n      iszero\n      tag_551\n      jumpi\n      returndatasize\n      0x00\n      dup1\n      returndatacopy\n      revert(0x00, returndatasize)\n    tag_551:\n      pop\n      pop\n      pop\n      pop\n        /* \"NoBOverround.sol\":16302:16336  ABDKMath.sub(q[_outcome], _amount) */\n      tag_552\n        /* \"NoBOverround.sol\":16315:16316  q */\n      0x02\n        /* \"NoBOverround.sol\":16317:16325  _outcome */\n      dup14\n        /* \"NoBOverround.sol\":16315:16326  q[_outcome] */\n      dup2\n      sload\n      dup2\n      lt\n      tag_554\n      jumpi\n      tag_554\n      tag_222\n      jump\t// in\n    tag_554:\n      swap1\n      0x00\n      mstore\n      keccak256(0x00, 0x20)\n      swap1\n      0x02\n      swap2\n      dup3\n      dup3\n      div\n      add\n      swap2\n      swap1\n      mod\n      0x10\n      mul\n      swap1\n      sload\n      swap1\n      0x0100\n      exp\n      swap1\n      div\n      0x0f\n      signextend\n        /* \"NoBOverround.sol\":16328:16335  _amount */\n      dup13\n        /* \"NoBOverround.sol\":16302:16314  ABDKMath.sub */\n      tag_556\n        /* \"NoBOverround.sol\":16302:16336  ABDKMath.sub(q[_outcome], _amount) */\n      jump\t// in\n    tag_552:\n        /* \"NoBOverround.sol\":16288:16289  q */\n      0x02\n        /* \"NoBOverround.sol\":16290:16298  _outcome */\n      dup14\n        /* \"NoBOverround.sol\":16288:16299  q[_outcome] */\n      dup2\n      sload\n      dup2\n      lt\n      tag_558\n      jumpi\n      tag_558\n      tag_222\n      jump\t// in\n    tag_558:\n      0x00\n      swap2\n      dup3\n      mstore\n      0x20\n      dup3\n      keccak256\n      0x02\n      dup3\n      div\n      add\n        /* \"NoBOverround.sol\":16288:16336  q[_outcome] = ABDKMath.sub(q[_outcome], _amount) */\n      dup1\n      sload\n        /* \"NoBOverround.sol\":16288:16299  q[_outcome] */\n      0x01\n      swap1\n      swap3\n      and\n      0x10\n      mul\n        /* \"NoBOverround.sol\":16288:16336  q[_outcome] = ABDKMath.sub(q[_outcome], _amount) */\n      0x0100\n      exp\n      sub(shl(0x80, 0x01), 0x01)\n      dup2\n      dup2\n      mul\n      not\n      swap1\n      swap4\n      and\n      swap5\n      dup4\n      and\n      mul\n      swap4\n      swap1\n      swap4\n      or\n      swap1\n      swap3\n      sstore\n        /* \"NoBOverround.sol\":16342:16354  total_shares */\n      0x04\n        /* \"NoBOverround.sol\":16342:16373  total_shares = new_total_shares */\n      dup1\n      sload\n      not(sub(shl(0x80, 0x01), 0x01))\n      and\n      dup11\n      dup5\n      and\n      or\n      swap1\n      sstore\n        /* \"NoBOverround.sol\":16379:16391  current_cost */\n      0x03\n        /* \"NoBOverround.sol\":16379:16402  current_cost = new_cost */\n      dup1\n      sload\n      dup4\n      and\n      shl(0x80, 0x01)\n      swap4\n      dup14\n      and\n      swap4\n      swap1\n      swap4\n      mul\n      swap3\n      swap1\n      swap3\n      or\n      swap1\n      swap2\n      sstore\n        /* \"NoBOverround.sol\":16474:16479  token */\n      sload(0x08)\n        /* \"NoBOverround.sol\":16458:16489  getTokenWeiDown(token, refund_) */\n      tag_560\n      swap1\n      sub(shl(0xa0, 0x01), 0x01)\n        /* \"NoBOverround.sol\":16474:16479  token */\n      and\n        /* \"NoBOverround.sol\":16481:16488  refund_ */\n      dup11\n        /* \"NoBOverround.sol\":16458:16473  getTokenWeiDown */\n      tag_130\n        /* \"NoBOverround.sol\":16458:16489  getTokenWeiDown(token, refund_) */\n      jump\t// in\n    tag_560:\n        /* \"NoBOverround.sol\":16502:16507  token */\n      sload(0x08)\n        /* \"NoBOverround.sol\":16438:16489  uint token_refund = getTokenWeiDown(token, refund_) */\n      swap1\n      swap2\n      pop\n        /* \"NoBOverround.sol\":16495:16547  IERC20(token).safeTransfer(msg.sender, token_refund) */\n      tag_561\n      swap1\n      sub(shl(0xa0, 0x01), 0x01)\n        /* \"NoBOverround.sol\":16502:16507  token */\n      and\n        /* \"NoBOverround.sol\":16522:16532  msg.sender */\n      caller\n        /* \"NoBOverround.sol\":16438:16489  uint token_refund = getTokenWeiDown(token, refund_) */\n      dup4\n        /* \"NoBOverround.sol\":16495:16521  IERC20(token).safeTransfer */\n      tag_263\n        /* \"NoBOverround.sol\":16495:16547  IERC20(token).safeTransfer(msg.sender, token_refund) */\n      jump\t// in\n    tag_561:\n      pop\n        /* \"NoBOverround.sol\":16561:16568  refund_ */\n      swap7\n      swap12\n        /* \"NoBOverround.sol\":13840:16573  function sell(uint256 _outcome, int128 _amount) public onlyAfterInit returns (int128 refund) {... */\n      swap11\n      pop\n      pop\n      pop\n      pop\n      pop\n      pop\n      pop\n      pop\n      pop\n      pop\n      pop\n      jump\t// out\n        /* \"NoBOverround.sol\":16662:16864  function getOutcomeSharesPurchased(uint256 _outcome) public view returns (int128) {... */\n    tag_142:\n        /* \"NoBOverround.sol\":16736:16742  int128 */\n      0x00\n        /* \"NoBOverround.sol\":16769:16780  numOutcomes */\n      sload(0x01)\n        /* \"NoBOverround.sol\":16758:16766  _outcome */\n      dup3\n        /* \"NoBOverround.sol\":16758:16780  _outcome < numOutcomes */\n      lt\n        /* \"NoBOverround.sol\":16750:16806  require(_outcome < numOutcomes, \"Invalid outcome index\") */\n      tag_563\n      jumpi\n      mload(0x40)\n      shl(0xe5, 0x461bcd)\n      dup2\n      mstore\n        /* \"#utility.yul\":12033:12035   */\n      0x20\n        /* \"NoBOverround.sol\":16750:16806  require(_outcome < numOutcomes, \"Invalid outcome index\") */\n      0x04\n      dup3\n      add\n        /* \"#utility.yul\":12015:12036   */\n      mstore\n        /* \"#utility.yul\":12072:12074   */\n      0x15\n        /* \"#utility.yul\":12052:12070   */\n      0x24\n      dup3\n      add\n        /* \"#utility.yul\":12045:12075   */\n      mstore\n      shl(0x5b, 0x092dcecc2d8d2c840deeae8c6dedaca40d2dcc8caf)\n        /* \"#utility.yul\":12091:12109   */\n      0x44\n      dup3\n      add\n        /* \"#utility.yul\":12084:12135   */\n      mstore\n        /* \"#utility.yul\":12152:12170   */\n      0x64\n      add\n        /* \"NoBOverround.sol\":16750:16806  require(_outcome < numOutcomes, \"Invalid outcome index\") */\n      tag_195\n        /* \"#utility.yul\":11831:12176   */\n      jump\n        /* \"NoBOverround.sol\":16750:16806  require(_outcome < numOutcomes, \"Invalid outcome index\") */\n    tag_563:\n        /* \"NoBOverround.sol\":16819:16861  ABDKMath.sub(q[_outcome], initial_subsidy) */\n      tag_187\n        /* \"NoBOverround.sol\":16832:16833  q */\n      0x02\n        /* \"NoBOverround.sol\":16834:16842  _outcome */\n      dup4\n        /* \"NoBOverround.sol\":16832:16843  q[_outcome] */\n      dup2\n      sload\n      dup2\n      lt\n      tag_567\n      jumpi\n      tag_567\n      tag_222\n      jump\t// in\n    tag_567:\n      swap1\n      0x00\n      mstore\n      keccak256(0x00, 0x20)\n      swap1\n      0x02\n      swap2\n      dup3\n      dup3\n      div\n      add\n      swap2\n      swap1\n      mod\n      0x10\n      mul\n      swap1\n      sload\n      swap1\n      0x0100\n      exp\n      swap1\n      div\n      0x0f\n      signextend\n        /* \"NoBOverround.sol\":16845:16860  initial_subsidy */\n      0x04\n      0x10\n      swap1\n      sload\n      swap1\n      0x0100\n      exp\n      swap1\n      div\n      0x0f\n      signextend\n        /* \"NoBOverround.sol\":16819:16831  ABDKMath.sub */\n      tag_556\n        /* \"NoBOverround.sol\":16819:16861  ABDKMath.sub(q[_outcome], initial_subsidy) */\n      jump\t// in\n        /* \"NoBOverround.sol\":10214:10370  function price(... */\n    tag_161:\n        /* \"NoBOverround.sol\":10353:10365  current_cost */\n      sload(0x03)\n        /* \"NoBOverround.sol\":10296:10302  int128 */\n      0x00\n      swap1\n      shl(0x80, 0x01)\n        /* \"NoBOverround.sol\":10353:10365  current_cost */\n      swap1\n      div\n      0x0f\n      signextend\n        /* \"NoBOverround.sol\":10317:10350  cost_after_buy(_outcome, _amount) */\n      tag_571\n        /* \"NoBOverround.sol\":10332:10340  _outcome */\n      dup5\n        /* \"NoBOverround.sol\":10342:10349  _amount */\n      dup5\n        /* \"NoBOverround.sol\":10317:10331  cost_after_buy */\n      tag_112\n        /* \"NoBOverround.sol\":10317:10350  cost_after_buy(_outcome, _amount) */\n      jump\t// in\n    tag_571:\n        /* \"NoBOverround.sol\":10317:10365  cost_after_buy(_outcome, _amount) - current_cost */\n      tag_384\n      swap2\n      swap1\n      tag_385\n      jump\t// in\n        /* \"NoBOverround.sol\":19033:19765  function getMaxSellableAmount(uint256 _outcome) public view returns (uint256) {... */\n    tag_165:\n        /* \"NoBOverround.sol\":19102:19109  uint256 */\n      0x00\n        /* \"NoBOverround.sol\":19136:19147  numOutcomes */\n      sload(0x01)\n        /* \"NoBOverround.sol\":19125:19133  _outcome */\n      dup3\n        /* \"NoBOverround.sol\":19125:19147  _outcome < numOutcomes */\n      lt\n        /* \"NoBOverround.sol\":19117:19173  require(_outcome < numOutcomes, \"Invalid outcome index\") */\n      tag_574\n      jumpi\n      mload(0x40)\n      shl(0xe5, 0x461bcd)\n      dup2\n      mstore\n        /* \"#utility.yul\":12033:12035   */\n      0x20\n        /* \"NoBOverround.sol\":19117:19173  require(_outcome < numOutcomes, \"Invalid outcome index\") */\n      0x04\n      dup3\n      add\n        /* \"#utility.yul\":12015:12036   */\n      mstore\n        /* \"#utility.yul\":12072:12074   */\n      0x15\n        /* \"#utility.yul\":12052:12070   */\n      0x24\n      dup3\n      add\n        /* \"#utility.yul\":12045:12075   */\n      mstore\n      shl(0x5b, 0x092dcecc2d8d2c840deeae8c6dedaca40d2dcc8caf)\n        /* \"#utility.yul\":12091:12109   */\n      0x44\n      dup3\n      add\n        /* \"#utility.yul\":12084:12135   */\n      mstore\n        /* \"#utility.yul\":12152:12170   */\n      0x64\n      add\n        /* \"NoBOverround.sol\":19117:19173  require(_outcome < numOutcomes, \"Invalid outcome index\") */\n      tag_195\n        /* \"#utility.yul\":11831:12176   */\n      jump\n        /* \"NoBOverround.sol\":19117:19173  require(_outcome < numOutcomes, \"Invalid outcome index\") */\n    tag_574:\n        /* \"NoBOverround.sol\":19231:19253  uint256 partnerOutcome */\n      0x00\n        /* \"NoBOverround.sol\":19256:19269  _outcome == 0 */\n      dup3\n      iszero\n        /* \"NoBOverround.sol\":19256:19277  _outcome == 0 ? 1 : 0 */\n      tag_576\n      jumpi\n        /* \"NoBOverround.sol\":19276:19277  0 */\n      0x00\n        /* \"NoBOverround.sol\":19256:19277  _outcome == 0 ? 1 : 0 */\n      jump(tag_577)\n    tag_576:\n        /* \"NoBOverround.sol\":19272:19273  1 */\n      0x01\n        /* \"NoBOverround.sol\":19256:19277  _outcome == 0 ? 1 : 0 */\n    tag_577:\n        /* \"NoBOverround.sol\":19349:19354  token */\n      sload(0x08)\n        /* \"NoBOverround.sol\":19342:19380  IERC20(token).balanceOf(address(this)) */\n      mload(0x40)\n      shl(0xe0, 0x70a08231)\n      dup2\n      mstore\n        /* \"NoBOverround.sol\":19374:19378  this */\n      address\n        /* \"NoBOverround.sol\":19342:19380  IERC20(token).balanceOf(address(this)) */\n      0x04\n      dup3\n      add\n        /* \"#utility.yul\":5222:5296   */\n      mstore\n        /* \"NoBOverround.sol\":19231:19277  uint256 partnerOutcome = _outcome == 0 ? 1 : 0 */\n      0xff\n      swap3\n      swap1\n      swap3\n      and\n      swap3\n      pop\n        /* \"NoBOverround.sol\":19316:19339  uint256 contractBalance */\n      0x00\n      swap2\n      sub(shl(0xa0, 0x01), 0x01)\n        /* \"NoBOverround.sol\":19349:19354  token */\n      swap1\n      swap2\n      and\n      swap1\n        /* \"NoBOverround.sol\":19342:19365  IERC20(token).balanceOf */\n      0x70a08231\n      swap1\n        /* \"#utility.yul\":5195:5213   */\n      0x24\n      add\n        /* \"NoBOverround.sol\":19342:19380  IERC20(token).balanceOf(address(this)) */\n      0x20\n      mload(0x40)\n      dup1\n      dup4\n      sub\n      dup2\n      dup7\n      gas\n      staticcall\n      iszero\n      dup1\n      iszero\n      tag_580\n      jumpi\n      returndatasize\n      0x00\n      dup1\n      returndatacopy\n      revert(0x00, returndatasize)\n    tag_580:\n      pop\n      pop\n      pop\n      pop\n      mload(0x40)\n      returndatasize\n      not(0x1f)\n      0x1f\n      dup3\n      add\n      and\n      dup3\n      add\n      dup1\n      0x40\n      mstore\n      pop\n      dup2\n      add\n      swap1\n      tag_581\n      swap2\n      swap1\n      tag_240\n      jump\t// in\n    tag_581:\n        /* \"NoBOverround.sol\":19457:19459  CT */\n      sload(0x07)\n        /* \"NoBOverround.sol\":19481:19486  token */\n      sload(0x08)\n        /* \"NoBOverround.sol\":19529:19538  condition */\n      sload(0x06)\n        /* \"NoBOverround.sol\":19498:19560  CT.getCollectionId(bytes32(0), condition, 1 << partnerOutcome) */\n      mload(0x40)\n      shl(0xe0, 0x856296f7)\n      dup2\n      mstore\n        /* \"NoBOverround.sol\":19434:19454  uint256 partnerPosId */\n      0x00\n        /* \"NoBOverround.sol\":19498:19560  CT.getCollectionId(bytes32(0), condition, 1 << partnerOutcome) */\n      0x04\n      dup3\n      add\n        /* \"#utility.yul\":14533:14558   */\n      dup2\n      swap1\n      mstore\n        /* \"#utility.yul\":14574:14592   */\n      0x24\n      dup3\n      add\n        /* \"#utility.yul\":14567:14601   */\n      swap3\n      swap1\n      swap3\n      mstore\n        /* \"NoBOverround.sol\":19457:19459  CT */\n      0x01\n        /* \"NoBOverround.sol\":19540:19559  1 << partnerOutcome */\n      dup8\n      shl\n        /* \"#utility.yul\":14617:14635   */\n      0x44\n      dup3\n      add\n        /* \"#utility.yul\":14610:14644   */\n      mstore\n        /* \"NoBOverround.sol\":19316:19380  uint256 contractBalance = IERC20(token).balanceOf(address(this)) */\n      swap4\n      swap5\n      pop\n        /* \"NoBOverround.sol\":19434:19454  uint256 partnerPosId */\n      swap3\n      sub(shl(0xa0, 0x01), 0x01)\n        /* \"NoBOverround.sol\":19457:19459  CT */\n      swap3\n      dup4\n      and\n      swap3\n        /* \"NoBOverround.sol\":19457:19473  CT.getPositionId */\n      0x39dd7530\n      swap3\n        /* \"NoBOverround.sol\":19481:19486  token */\n      and\n      swap1\n        /* \"NoBOverround.sol\":19457:19459  CT */\n      dup4\n      swap1\n        /* \"NoBOverround.sol\":19498:19516  CT.getCollectionId */\n      0x856296f7\n      swap1\n        /* \"#utility.yul\":14506:14524   */\n      0x64\n      add\n        /* \"NoBOverround.sol\":19498:19560  CT.getCollectionId(bytes32(0), condition, 1 << partnerOutcome) */\n      0x20\n      mload(0x40)\n      dup1\n      dup4\n      sub\n      dup2\n      dup7\n      gas\n      staticcall\n      iszero\n      dup1\n      iszero\n      tag_584\n      jumpi\n      returndatasize\n      0x00\n      dup1\n      returndatacopy\n      revert(0x00, returndatasize)\n    tag_584:\n      pop\n      pop\n      pop\n      pop\n      mload(0x40)\n      returndatasize\n      not(0x1f)\n      0x1f\n      dup3\n      add\n      and\n      dup3\n      add\n      dup1\n      0x40\n      mstore\n      pop\n      dup2\n      add\n      swap1\n      tag_585\n      swap2\n      swap1\n      tag_240\n      jump\t// in\n    tag_585:\n        /* \"NoBOverround.sol\":19457:19561  CT.getPositionId(IERC20(token), ... */\n      mload(0x40)\n      not(sub(shl(0xe0, 0x01), 0x01))\n      0xe0\n      dup6\n      swap1\n      shl\n      and\n      dup2\n      mstore\n      sub(shl(0xa0, 0x01), 0x01)\n        /* \"#utility.yul\":14863:14918   */\n      swap1\n      swap3\n      and\n        /* \"NoBOverround.sol\":19457:19561  CT.getPositionId(IERC20(token), ... */\n      0x04\n      dup4\n      add\n        /* \"#utility.yul\":14845:14919   */\n      mstore\n        /* \"#utility.yul\":14935:14953   */\n      0x24\n      dup3\n      add\n        /* \"#utility.yul\":14928:14962   */\n      mstore\n        /* \"#utility.yul\":14818:14836   */\n      0x44\n      add\n        /* \"NoBOverround.sol\":19457:19561  CT.getPositionId(IERC20(token), ... */\n      0x20\n      mload(0x40)\n      dup1\n      dup4\n      sub\n      dup2\n      dup7\n      gas\n      staticcall\n      iszero\n      dup1\n      iszero\n      tag_588\n      jumpi\n      returndatasize\n      0x00\n      dup1\n      returndatacopy\n      revert(0x00, returndatasize)\n    tag_588:\n      pop\n      pop\n      pop\n      pop\n      mload(0x40)\n      returndatasize\n      not(0x1f)\n      0x1f\n      dup3\n      add\n      and\n      dup3\n      add\n      dup1\n      0x40\n      mstore\n      pop\n      dup2\n      add\n      swap1\n      tag_589\n      swap2\n      swap1\n      tag_240\n      jump\t// in\n    tag_589:\n        /* \"NoBOverround.sol\":19599:19601  CT */\n      sload(0x07)\n        /* \"NoBOverround.sol\":19599:19640  CT.balanceOf(address(this), partnerPosId) */\n      mload(0x40)\n      shl(0xe1, 0x7eeac7)\n      dup2\n      mstore\n        /* \"NoBOverround.sol\":19620:19624  this */\n      address\n        /* \"NoBOverround.sol\":19599:19640  CT.balanceOf(address(this), partnerPosId) */\n      0x04\n      dup3\n      add\n        /* \"#utility.yul\":14845:14919   */\n      mstore\n        /* \"#utility.yul\":14935:14953   */\n      0x24\n      dup2\n      add\n        /* \"#utility.yul\":14928:14962   */\n      dup4\n      swap1\n      mstore\n        /* \"NoBOverround.sol\":19434:19561  uint256 partnerPosId = CT.getPositionId(IERC20(token), ... */\n      swap2\n      swap3\n      pop\n        /* \"NoBOverround.sol\":19567:19596  uint256 existingPartnerTokens */\n      0x00\n      swap2\n      sub(shl(0xa0, 0x01), 0x01)\n        /* \"NoBOverround.sol\":19599:19601  CT */\n      swap1\n      swap2\n      and\n      swap1\n        /* \"NoBOverround.sol\":19599:19611  CT.balanceOf */\n      0xfdd58e\n      swap1\n        /* \"#utility.yul\":14818:14836   */\n      0x44\n      add\n        /* \"NoBOverround.sol\":19599:19640  CT.balanceOf(address(this), partnerPosId) */\n      0x20\n      mload(0x40)\n      dup1\n      dup4\n      sub\n      dup2\n      dup7\n      gas\n      staticcall\n      iszero\n      dup1\n      iszero\n      tag_592\n      jumpi\n      returndatasize\n      0x00\n      dup1\n      returndatacopy\n      revert(0x00, returndatasize)\n    tag_592:\n      pop\n      pop\n      pop\n      pop\n      mload(0x40)\n      returndatasize\n      not(0x1f)\n      0x1f\n      dup3\n      add\n      and\n      dup3\n      add\n      dup1\n      0x40\n      mstore\n      pop\n      dup2\n      add\n      swap1\n      tag_593\n      swap2\n      swap1\n      tag_240\n      jump\t// in\n    tag_593:\n        /* \"NoBOverround.sol\":19567:19640  uint256 existingPartnerTokens = CT.balanceOf(address(this), partnerPosId) */\n      swap1\n      pop\n        /* \"NoBOverround.sol\":19723:19762  contractBalance + existingPartnerTokens */\n      tag_428\n        /* \"NoBOverround.sol\":19567:19640  uint256 existingPartnerTokens = CT.balanceOf(address(this), partnerPosId) */\n      dup2\n        /* \"NoBOverround.sol\":19723:19738  contractBalance */\n      dup5\n        /* \"NoBOverround.sol\":19723:19762  contractBalance + existingPartnerTokens */\n      tag_203\n      jump\t// in\n        /* \"NoBOverround.sol\":18452:18659  function debugFees() public view returns (uint contractBalance, uint theoreticalCost) {... */\n    tag_168:\n        /* \"NoBOverround.sol\":18569:18574  token */\n      sload(0x08)\n        /* \"NoBOverround.sol\":18562:18600  IERC20(token).balanceOf(address(this)) */\n      mload(0x40)\n      shl(0xe0, 0x70a08231)\n      dup2\n      mstore\n        /* \"NoBOverround.sol\":18594:18598  this */\n      address\n        /* \"NoBOverround.sol\":18562:18600  IERC20(token).balanceOf(address(this)) */\n      0x04\n      dup3\n      add\n        /* \"#utility.yul\":5222:5296   */\n      mstore\n        /* \"NoBOverround.sol\":18494:18514  uint contractBalance */\n      0x00\n      swap2\n      dup3\n      swap2\n      sub(shl(0xa0, 0x01), 0x01)\n        /* \"NoBOverround.sol\":18569:18574  token */\n      swap1\n      swap2\n      and\n      swap1\n        /* \"NoBOverround.sol\":18562:18585  IERC20(token).balanceOf */\n      0x70a08231\n      swap1\n        /* \"#utility.yul\":5195:5213   */\n      0x24\n      add\n        /* \"NoBOverround.sol\":18562:18600  IERC20(token).balanceOf(address(this)) */\n      0x20\n      mload(0x40)\n      dup1\n      dup4\n      sub\n      dup2\n      dup7\n      gas\n      staticcall\n      iszero\n      dup1\n      iszero\n      tag_598\n      jumpi\n      returndatasize\n      0x00\n      dup1\n      returndatacopy\n      revert(0x00, returndatasize)\n    tag_598:\n      pop\n      pop\n      pop\n      pop\n      mload(0x40)\n      returndatasize\n      not(0x1f)\n      0x1f\n      dup3\n      add\n      and\n      dup3\n      add\n      dup1\n      0x40\n      mstore\n      pop\n      dup2\n      add\n      swap1\n      tag_599\n      swap2\n      swap1\n      tag_240\n      jump\t// in\n    tag_599:\n        /* \"NoBOverround.sol\":18636:18641  token */\n      sload(0x08)\n        /* \"NoBOverround.sol\":18643:18655  current_cost */\n      sload(0x03)\n        /* \"NoBOverround.sol\":18544:18600  contractBalance = IERC20(token).balanceOf(address(this)) */\n      swap2\n      swap4\n      pop\n        /* \"NoBOverround.sol\":18624:18656  getTokenWei(token, current_cost) */\n      tag_600\n      swap2\n      sub(shl(0xa0, 0x01), 0x01)\n        /* \"NoBOverround.sol\":18636:18641  token */\n      swap1\n      swap2\n      and\n      swap1\n      shl(0x80, 0x01)\n        /* \"NoBOverround.sol\":18643:18655  current_cost */\n      swap1\n      div\n      0x0f\n      signextend\n        /* \"NoBOverround.sol\":18624:18635  getTokenWei */\n      tag_73\n        /* \"NoBOverround.sol\":18624:18656  getTokenWei(token, current_cost) */\n      jump\t// in\n    tag_600:\n        /* \"NoBOverround.sol\":18606:18656  theoreticalCost = getTokenWei(token, current_cost) */\n      swap1\n      pop\n        /* \"NoBOverround.sol\":18452:18659  function debugFees() public view returns (uint contractBalance, uint theoreticalCost) {... */\n      swap1\n      swap2\n      jump\t// out\n        /* \"@openzeppelin/contracts/access/Ownable.sol\":2543:2758   */\n    tag_178:\n        /* \"@openzeppelin/contracts/access/Ownable.sol\":1531:1544   */\n      tag_603\n        /* \"@openzeppelin/contracts/access/Ownable.sol\":1531:1542   */\n      tag_234\n        /* \"@openzeppelin/contracts/access/Ownable.sol\":1531:1544   */\n      jump\t// in\n    tag_603:\n      sub(shl(0xa0, 0x01), 0x01)\n        /* \"@openzeppelin/contracts/access/Ownable.sol\":2627:2649   */\n      dup2\n      and\n        /* \"@openzeppelin/contracts/access/Ownable.sol\":2623:2714   */\n      tag_605\n      jumpi\n        /* \"@openzeppelin/contracts/access/Ownable.sol\":2672:2703   */\n      mload(0x40)\n      shl(0xe0, 0x1e4fbdf7)\n      dup2\n      mstore\n        /* \"@openzeppelin/contracts/access/Ownable.sol\":2700:2701   */\n      0x00\n        /* \"@openzeppelin/contracts/access/Ownable.sol\":2672:2703   */\n      0x04\n      dup3\n      add\n        /* \"#utility.yul\":5222:5296   */\n      mstore\n        /* \"#utility.yul\":5195:5213   */\n      0x24\n      add\n        /* \"@openzeppelin/contracts/access/Ownable.sol\":2672:2703   */\n      tag_195\n        /* \"#utility.yul\":5076:5302   */\n      jump\n        /* \"@openzeppelin/contracts/access/Ownable.sol\":2623:2714   */\n    tag_605:\n        /* \"@openzeppelin/contracts/access/Ownable.sol\":2723:2751   */\n      tag_258\n        /* \"@openzeppelin/contracts/access/Ownable.sol\":2742:2750   */\n      dup2\n        /* \"@openzeppelin/contracts/access/Ownable.sol\":2723:2741   */\n      tag_399\n        /* \"@openzeppelin/contracts/access/Ownable.sol\":2723:2751   */\n      jump\t// in\n        /* \"NoBOverround.sol\":5797:6972  function buy(... */\n    tag_181:\n        /* \"NoBOverround.sol\":12709:12713  init */\n      sload(0x08)\n        /* \"NoBOverround.sol\":5886:5899  int128 _price */\n      0x00\n      swap1\n      shl(0xa0, 0x01)\n        /* \"NoBOverround.sol\":12709:12713  init */\n      swap1\n      div\n      0xff\n      and\n        /* \"NoBOverround.sol\":12709:12721  init == true */\n      iszero\n      iszero\n        /* \"NoBOverround.sol\":12717:12721  true */\n      0x01\n        /* \"NoBOverround.sol\":12709:12721  init == true */\n      eq\n        /* \"NoBOverround.sol\":12701:12722  require(init == true) */\n      tag_609\n      jumpi\n      0x00\n      dup1\n      revert\n    tag_609:\n        /* \"NoBOverround.sol\":5926:5937  numOutcomes */\n      sload(0x01)\n        /* \"NoBOverround.sol\":5915:5923  _outcome */\n      dup4\n        /* \"NoBOverround.sol\":5915:5937  _outcome < numOutcomes */\n      lt\n        /* \"NoBOverround.sol\":5907:5963  require(_outcome < numOutcomes, \"Invalid outcome index\") */\n      tag_611\n      jumpi\n      mload(0x40)\n      shl(0xe5, 0x461bcd)\n      dup2\n      mstore\n        /* \"#utility.yul\":12033:12035   */\n      0x20\n        /* \"NoBOverround.sol\":5907:5963  require(_outcome < numOutcomes, \"Invalid outcome index\") */\n      0x04\n      dup3\n      add\n        /* \"#utility.yul\":12015:12036   */\n      mstore\n        /* \"#utility.yul\":12072:12074   */\n      0x15\n        /* \"#utility.yul\":12052:12070   */\n      0x24\n      dup3\n      add\n        /* \"#utility.yul\":12045:12075   */\n      mstore\n      shl(0x5b, 0x092dcecc2d8d2c840deeae8c6dedaca40d2dcc8caf)\n        /* \"#utility.yul\":12091:12109   */\n      0x44\n      dup3\n      add\n        /* \"#utility.yul\":12084:12135   */\n      mstore\n        /* \"#utility.yul\":12152:12170   */\n      0x64\n      add\n        /* \"NoBOverround.sol\":5907:5963  require(_outcome < numOutcomes, \"Invalid outcome index\") */\n      tag_195\n        /* \"#utility.yul\":11831:12176   */\n      jump\n        /* \"NoBOverround.sol\":5907:5963  require(_outcome < numOutcomes, \"Invalid outcome index\") */\n    tag_611:\n        /* \"NoBOverround.sol\":5987:5988  0 */\n      0x00\n        /* \"NoBOverround.sol\":5977:5984  _amount */\n      dup3\n        /* \"NoBOverround.sol\":5977:5988  _amount > 0 */\n      0x0f\n      signextend\n      sgt\n        /* \"NoBOverround.sol\":5969:6016  require(_amount > 0, \"Amount must be positive\") */\n      tag_613\n      jumpi\n      mload(0x40)\n      shl(0xe5, 0x461bcd)\n      dup2\n      mstore\n        /* \"#utility.yul\":16089:16091   */\n      0x20\n        /* \"NoBOverround.sol\":5969:6016  require(_amount > 0, \"Amount must be positive\") */\n      0x04\n      dup3\n      add\n        /* \"#utility.yul\":16071:16092   */\n      mstore\n        /* \"#utility.yul\":16128:16130   */\n      0x17\n        /* \"#utility.yul\":16108:16126   */\n      0x24\n      dup3\n      add\n        /* \"#utility.yul\":16101:16131   */\n      mstore\n        /* \"#utility.yul\":16167:16192   */\n      0x416d6f756e74206d75737420626520706f736974697665000000000000000000\n        /* \"#utility.yul\":16147:16165   */\n      0x44\n      dup3\n      add\n        /* \"#utility.yul\":16140:16193   */\n      mstore\n        /* \"#utility.yul\":16210:16228   */\n      0x64\n      add\n        /* \"NoBOverround.sol\":5969:6016  require(_amount > 0, \"Amount must be positive\") */\n      tag_195\n        /* \"#utility.yul\":15887:16234   */\n      jump\n        /* \"NoBOverround.sol\":5969:6016  require(_amount > 0, \"Amount must be positive\") */\n    tag_613:\n        /* \"NoBOverround.sol\":6030:6032  CT */\n      sload(0x07)\n        /* \"NoBOverround.sol\":6051:6060  condition */\n      sload(0x06)\n        /* \"NoBOverround.sol\":6030:6061  CT.payoutDenominator(condition) */\n      mload(0x40)\n      shl(0xe0, 0xdd34de67)\n      dup2\n      mstore\n      sub(shl(0xa0, 0x01), 0x01)\n        /* \"NoBOverround.sol\":6030:6032  CT */\n      swap1\n      swap3\n      and\n      swap2\n        /* \"NoBOverround.sol\":6030:6050  CT.payoutDenominator */\n      0xdd34de67\n      swap2\n        /* \"NoBOverround.sol\":6030:6061  CT.payoutDenominator(condition) */\n      tag_615\n      swap2\n      0x04\n      add\n        /* \"#utility.yul\":1274:1299   */\n      swap1\n      dup2\n      mstore\n        /* \"#utility.yul\":1262:1264   */\n      0x20\n        /* \"#utility.yul\":1247:1265   */\n      add\n      swap1\n        /* \"#utility.yul\":1128:1305   */\n      jump\n        /* \"NoBOverround.sol\":6030:6061  CT.payoutDenominator(condition) */\n    tag_615:\n      0x20\n      mload(0x40)\n      dup1\n      dup4\n      sub\n      dup2\n      dup7\n      gas\n      staticcall\n      iszero\n      dup1\n      iszero\n      tag_617\n      jumpi\n      returndatasize\n      0x00\n      dup1\n      returndatacopy\n      revert(0x00, returndatasize)\n    tag_617:\n      pop\n      pop\n      pop\n      pop\n      mload(0x40)\n      returndatasize\n      not(0x1f)\n      0x1f\n      dup3\n      add\n      and\n      dup3\n      add\n      dup1\n      0x40\n      mstore\n      pop\n      dup2\n      add\n      swap1\n      tag_618\n      swap2\n      swap1\n      tag_240\n      jump\t// in\n    tag_618:\n        /* \"NoBOverround.sol\":6030:6066  CT.payoutDenominator(condition) == 0 */\n      iszero\n        /* \"NoBOverround.sol\":6022:6094  require(CT.payoutDenominator(condition) == 0, 'Market already resolved') */\n      tag_619\n      jumpi\n      mload(0x40)\n      shl(0xe5, 0x461bcd)\n      dup2\n      mstore\n        /* \"#utility.yul\":16441:16443   */\n      0x20\n        /* \"NoBOverround.sol\":6022:6094  require(CT.payoutDenominator(condition) == 0, 'Market already resolved') */\n      0x04\n      dup3\n      add\n        /* \"#utility.yul\":16423:16444   */\n      mstore\n        /* \"#utility.yul\":16480:16482   */\n      0x17\n        /* \"#utility.yul\":16460:16478   */\n      0x24\n      dup3\n      add\n        /* \"#utility.yul\":16453:16483   */\n      mstore\n        /* \"#utility.yul\":16519:16544   */\n      0x4d61726b657420616c7265616479207265736f6c766564000000000000000000\n        /* \"#utility.yul\":16499:16517   */\n      0x44\n      dup3\n      add\n        /* \"#utility.yul\":16492:16545   */\n      mstore\n        /* \"#utility.yul\":16562:16580   */\n      0x64\n      add\n        /* \"NoBOverround.sol\":6022:6094  require(CT.payoutDenominator(condition) == 0, 'Market already resolved') */\n      tag_195\n        /* \"#utility.yul\":16239:16586   */\n      jump\n        /* \"NoBOverround.sol\":6022:6094  require(CT.payoutDenominator(condition) == 0, 'Market already resolved') */\n    tag_619:\n        /* \"NoBOverround.sol\":6102:6117  int128 new_cost */\n      0x00\n        /* \"NoBOverround.sol\":6119:6132  int128 price_ */\n      dup1\n        /* \"NoBOverround.sol\":6134:6157  int128 new_total_shares */\n      0x00\n        /* \"NoBOverround.sol\":6161:6242  _calculateBuyPrice(q, _outcome, _amount, total_shares, current_cost, numOutcomes) */\n      tag_621\n        /* \"NoBOverround.sol\":6180:6181  q */\n      0x02\n        /* \"NoBOverround.sol\":6161:6242  _calculateBuyPrice(q, _outcome, _amount, total_shares, current_cost, numOutcomes) */\n      dup1\n      sload\n      dup1\n      0x20\n      mul\n      0x20\n      add\n      mload(0x40)\n      swap1\n      dup2\n      add\n      0x40\n      mstore\n      dup1\n      swap3\n      swap2\n      swap1\n      dup2\n      dup2\n      mstore\n      0x20\n      add\n      dup3\n      dup1\n      sload\n      dup1\n      iszero\n      tag_622\n      jumpi\n      0x20\n      mul\n      dup3\n      add\n      swap2\n      swap1\n      0x00\n      mstore\n      keccak256(0x00, 0x20)\n      swap1\n      0x00\n      swap1\n    tag_623:\n      dup3\n      sload\n      0x0100\n      dup4\n      swap1\n      exp\n      swap1\n      div\n      0x0f\n      signextend\n      dup2\n      mstore\n      0x20\n      0x1f\n      dup4\n      add\n      dup2\n      swap1\n      div\n      swap4\n      dup5\n      add\n      swap4\n      0x01\n      sub\n      0x10\n      swap1\n      swap4\n      add\n      swap3\n      swap1\n      swap3\n      mul\n      swap2\n      add\n      dup1\n      dup5\n      gt\n      tag_623\n      jumpi\n      swap1\n      pop\n    tag_622:\n      pop\n      pop\n        /* \"NoBOverround.sol\":6202:6214  total_shares */\n      sload(0x04)\n        /* \"NoBOverround.sol\":6216:6228  current_cost */\n      sload(0x03)\n        /* \"NoBOverround.sol\":6202:6214  total_shares */\n      0x01\n        /* \"NoBOverround.sol\":6230:6241  numOutcomes */\n      sload\n        /* \"NoBOverround.sol\":6183:6191  _outcome */\n      dup14\n      swap6\n      pop\n        /* \"NoBOverround.sol\":6193:6200  _amount */\n      dup13\n      swap5\n      pop\n        /* \"NoBOverround.sol\":6202:6214  total_shares */\n      0x0f\n      swap3\n      dup4\n      signextend\n      swap4\n      pop\n      shl(0x80, 0x01)\n        /* \"NoBOverround.sol\":6216:6228  current_cost */\n      swap1\n      swap2\n      div\n      swap1\n      swap2\n      signextend\n      swap1\n        /* \"NoBOverround.sol\":6161:6179  _calculateBuyPrice */\n      tag_624\n        /* \"NoBOverround.sol\":6161:6242  _calculateBuyPrice(q, _outcome, _amount, total_shares, current_cost, numOutcomes) */\n      jump\t// in\n    tag_621:\n        /* \"NoBOverround.sol\":6101:6242  (int128 new_cost, int128 price_, int128 new_total_shares) = _calculateBuyPrice(q, _outcome, _amount, total_shares, current_cost, numOutcomes) */\n      swap3\n      pop\n      swap3\n      pop\n      swap3\n      pop\n        /* \"NoBOverround.sol\":6305:6332  int128 overround_multiplier */\n      0x00\n        /* \"NoBOverround.sol\":6335:6380  ABDKMath.add(ABDKMath.fromUInt(1), overround) */\n      tag_625\n        /* \"NoBOverround.sol\":6348:6368  ABDKMath.fromUInt(1) */\n      tag_626\n        /* \"NoBOverround.sol\":6366:6367  1 */\n      0x01\n        /* \"NoBOverround.sol\":6348:6365  ABDKMath.fromUInt */\n      tag_328\n        /* \"NoBOverround.sol\":6348:6368  ABDKMath.fromUInt(1) */\n      jump\t// in\n    tag_626:\n        /* \"NoBOverround.sol\":6370:6379  overround */\n      signextend(0x0f, sload(0x05))\n        /* \"NoBOverround.sol\":6335:6347  ABDKMath.add */\n      tag_226\n        /* \"NoBOverround.sol\":6335:6380  ABDKMath.add(ABDKMath.fromUInt(1), overround) */\n      jump\t// in\n    tag_625:\n        /* \"NoBOverround.sol\":6305:6380  int128 overround_multiplier = ABDKMath.add(ABDKMath.fromUInt(1), overround) */\n      swap1\n      pop\n        /* \"NoBOverround.sol\":6403:6430  int128 price_with_overround */\n      0x00\n        /* \"NoBOverround.sol\":6433:6475  ABDKMath.mul(price_, overround_multiplier) */\n      tag_627\n        /* \"NoBOverround.sol\":6446:6452  price_ */\n      dup5\n        /* \"NoBOverround.sol\":6454:6474  overround_multiplier */\n      dup4\n        /* \"NoBOverround.sol\":6433:6445  ABDKMath.mul */\n      tag_200\n        /* \"NoBOverround.sol\":6433:6475  ABDKMath.mul(price_, overround_multiplier) */\n      jump\t// in\n    tag_627:\n        /* \"NoBOverround.sol\":6514:6519  token */\n      sload(0x08)\n        /* \"NoBOverround.sol\":6403:6475  int128 price_with_overround = ABDKMath.mul(price_, overround_multiplier) */\n      swap1\n      swap2\n      pop\n        /* \"NoBOverround.sol\":6482:6497  uint token_cost */\n      0x00\n      swap1\n        /* \"NoBOverround.sol\":6500:6542  getTokenWeiUp(token, price_with_overround) */\n      tag_628\n      swap1\n      sub(shl(0xa0, 0x01), 0x01)\n        /* \"NoBOverround.sol\":6514:6519  token */\n      and\n        /* \"NoBOverround.sol\":6403:6475  int128 price_with_overround = ABDKMath.mul(price_, overround_multiplier) */\n      dup4\n        /* \"NoBOverround.sol\":6500:6513  getTokenWeiUp */\n      tag_57\n        /* \"NoBOverround.sol\":6500:6542  getTokenWeiUp(token, price_with_overround) */\n      jump\t// in\n    tag_628:\n        /* \"NoBOverround.sol\":6553:6599  BuyTokenCost(token_cost, price_with_overround) */\n      0x40\n      dup1\n      mload\n        /* \"#utility.yul\":21386:21411   */\n      dup3\n      dup2\n      mstore\n        /* \"#utility.yul\":21458:21460   */\n      0x0f\n        /* \"#utility.yul\":21447:21469   */\n      dup6\n      swap1\n      signextend\n        /* \"#utility.yul\":21442:21444   */\n      0x20\n        /* \"#utility.yul\":21427:21445   */\n      dup3\n      add\n        /* \"#utility.yul\":21420:21470   */\n      mstore\n        /* \"NoBOverround.sol\":6482:6542  uint token_cost = getTokenWeiUp(token, price_with_overround) */\n      swap2\n      swap3\n      pop\n        /* \"NoBOverround.sol\":6553:6599  BuyTokenCost(token_cost, price_with_overround) */\n      0xbd58a27f98d614697f8a2d66c4c15779b5c06324bdc1f23994d9e5f93a537a4d\n      swap2\n        /* \"#utility.yul\":21359:21377   */\n      add\n        /* \"NoBOverround.sol\":6553:6599  BuyTokenCost(token_cost, price_with_overround) */\n      mload(0x40)\n      dup1\n      swap2\n      sub\n      swap1\n      log1\n        /* \"NoBOverround.sol\":6620:6625  token */\n      sload(0x08)\n        /* \"NoBOverround.sol\":6613:6678  IERC20(token).transferFrom(msg.sender, address(this), token_cost) */\n      mload(0x40)\n      shl(0xe0, 0x23b872dd)\n      dup2\n      mstore\n        /* \"NoBOverround.sol\":6640:6650  msg.sender */\n      caller\n        /* \"NoBOverround.sol\":6613:6678  IERC20(token).transferFrom(msg.sender, address(this), token_cost) */\n      0x04\n      dup3\n      add\n        /* \"#utility.yul\":21744:21778   */\n      mstore\n        /* \"NoBOverround.sol\":6660:6664  this */\n      address\n        /* \"#utility.yul\":21794:21812   */\n      0x24\n      dup3\n      add\n        /* \"#utility.yul\":21787:21830   */\n      mstore\n        /* \"#utility.yul\":21846:21864   */\n      0x44\n      dup2\n      add\n        /* \"#utility.yul\":21839:21873   */\n      dup4\n      swap1\n      mstore\n      sub(shl(0xa0, 0x01), 0x01)\n        /* \"NoBOverround.sol\":6620:6625  token */\n      swap1\n      swap2\n      and\n      swap1\n        /* \"NoBOverround.sol\":6613:6639  IERC20(token).transferFrom */\n      0x23b872dd\n      swap1\n        /* \"#utility.yul\":21656:21674   */\n      0x64\n      add\n        /* \"NoBOverround.sol\":6613:6678  IERC20(token).transferFrom(msg.sender, address(this), token_cost) */\n      0x20\n      mload(0x40)\n      dup1\n      dup4\n      sub\n      dup2\n      0x00\n      dup8\n      gas\n      call\n      iszero\n      dup1\n      iszero\n      tag_634\n      jumpi\n      returndatasize\n      0x00\n      dup1\n      returndatacopy\n      revert(0x00, returndatasize)\n    tag_634:\n      pop\n      pop\n      pop\n      pop\n      mload(0x40)\n      returndatasize\n      not(0x1f)\n      0x1f\n      dup3\n      add\n      and\n      dup3\n      add\n      dup1\n      0x40\n      mstore\n      pop\n      dup2\n      add\n      swap1\n      tag_635\n      swap2\n      swap1\n      tag_542\n      jump\t// in\n    tag_635:\n        /* \"NoBOverround.sol\":6605:6708  require(IERC20(token).transferFrom(msg.sender, address(this), token_cost), 'Error transferring tokens') */\n      tag_636\n      jumpi\n      mload(0x40)\n      shl(0xe5, 0x461bcd)\n      dup2\n      mstore\n        /* \"#utility.yul\":22086:22088   */\n      0x20\n        /* \"NoBOverround.sol\":6605:6708  require(IERC20(token).transferFrom(msg.sender, address(this), token_cost), 'Error transferring tokens') */\n      0x04\n      dup3\n      add\n        /* \"#utility.yul\":22068:22089   */\n      mstore\n        /* \"#utility.yul\":22125:22127   */\n      0x19\n        /* \"#utility.yul\":22105:22123   */\n      0x24\n      dup3\n      add\n        /* \"#utility.yul\":22098:22128   */\n      mstore\n        /* \"#utility.yul\":22164:22191   */\n      0x4572726f72207472616e7366657272696e6720746f6b656e7300000000000000\n        /* \"#utility.yul\":22144:22162   */\n      0x44\n      dup3\n      add\n        /* \"#utility.yul\":22137:22192   */\n      mstore\n        /* \"#utility.yul\":22209:22227   */\n      0x64\n      add\n        /* \"NoBOverround.sol\":6605:6708  require(IERC20(token).transferFrom(msg.sender, address(this), token_cost), 'Error transferring tokens') */\n      tag_195\n        /* \"#utility.yul\":21884:22233   */\n      jump\n        /* \"NoBOverround.sol\":6605:6708  require(IERC20(token).transferFrom(msg.sender, address(this), token_cost), 'Error transferring tokens') */\n    tag_636:\n        /* \"NoBOverround.sol\":6778:6812  ABDKMath.add(q[_outcome], _amount) */\n      tag_639\n        /* \"NoBOverround.sol\":6791:6792  q */\n      0x02\n        /* \"NoBOverround.sol\":6793:6801  _outcome */\n      dup11\n        /* \"NoBOverround.sol\":6791:6802  q[_outcome] */\n      dup2\n      sload\n      dup2\n      lt\n      tag_641\n      jumpi\n      tag_641\n      tag_222\n      jump\t// in\n    tag_641:\n      swap1\n      0x00\n      mstore\n      keccak256(0x00, 0x20)\n      swap1\n      0x02\n      swap2\n      dup3\n      dup3\n      div\n      add\n      swap2\n      swap1\n      mod\n      0x10\n      mul\n      swap1\n      sload\n      swap1\n      0x0100\n      exp\n      swap1\n      div\n      0x0f\n      signextend\n        /* \"NoBOverround.sol\":6804:6811  _amount */\n      dup10\n        /* \"NoBOverround.sol\":6778:6790  ABDKMath.add */\n      tag_226\n        /* \"NoBOverround.sol\":6778:6812  ABDKMath.add(q[_outcome], _amount) */\n      jump\t// in\n    tag_639:\n        /* \"NoBOverround.sol\":6764:6765  q */\n      0x02\n        /* \"NoBOverround.sol\":6766:6774  _outcome */\n      dup11\n        /* \"NoBOverround.sol\":6764:6775  q[_outcome] */\n      dup2\n      sload\n      dup2\n      lt\n      tag_644\n      jumpi\n      tag_644\n      tag_222\n      jump\t// in\n    tag_644:\n      0x00\n      swap2\n      dup3\n      mstore\n      0x20\n      swap1\n      swap2\n      keccak256\n      0x02\n      dup3\n      div\n      add\n        /* \"NoBOverround.sol\":6764:6812  q[_outcome] = ABDKMath.add(q[_outcome], _amount) */\n      dup1\n      sload\n        /* \"NoBOverround.sol\":6764:6775  q[_outcome] */\n      0x01\n      swap1\n      swap3\n      and\n      0x10\n      mul\n        /* \"NoBOverround.sol\":6764:6812  q[_outcome] = ABDKMath.add(q[_outcome], _amount) */\n      0x0100\n      exp\n      sub(shl(0x80, 0x01), 0x01)\n      dup2\n      dup2\n      mul\n      not\n      swap1\n      swap4\n      and\n      swap4\n      dup4\n      and\n      mul\n      swap3\n      swap1\n      swap3\n      or\n      swap1\n      swap2\n      sstore\n        /* \"NoBOverround.sol\":6818:6830  total_shares */\n      0x04\n        /* \"NoBOverround.sol\":6818:6849  total_shares = new_total_shares */\n      dup1\n      sload\n      not(sub(shl(0x80, 0x01), 0x01))\n      and\n      dup7\n      dup4\n      and\n      or\n      swap1\n      sstore\n        /* \"NoBOverround.sol\":6855:6867  current_cost */\n      0x03\n        /* \"NoBOverround.sol\":6855:6878  current_cost = new_cost */\n      dup1\n      sload\n      dup3\n      and\n      shl(0x80, 0x01)\n      swap3\n      dup10\n      and\n      swap3\n      swap1\n      swap3\n      mul\n      swap2\n      swap1\n      swap2\n      or\n      swap1\n      sstore\n        /* \"NoBOverround.sol\":6885:6933  _mintAndTransferOutcomeTokens(_outcome, _amount) */\n      tag_646\n        /* \"NoBOverround.sol\":6915:6923  _outcome */\n      dup10\n        /* \"NoBOverround.sol\":6925:6932  _amount */\n      dup10\n        /* \"NoBOverround.sol\":6885:6914  _mintAndTransferOutcomeTokens */\n      tag_647\n        /* \"NoBOverround.sol\":6885:6933  _mintAndTransferOutcomeTokens(_outcome, _amount) */\n      jump\t// in\n    tag_646:\n      pop\n        /* \"NoBOverround.sol\":6947:6967  price_with_overround */\n      swap8\n        /* \"NoBOverround.sol\":5797:6972  function buy(... */\n      swap7\n      pop\n      pop\n      pop\n      pop\n      pop\n      pop\n      pop\n      jump\t// out\n        /* \"ABDKMath64x64.sol\":6262:6775  function mulu (int128 x, uint256 y) internal pure returns (uint256) {... */\n    tag_198:\n        /* \"ABDKMath64x64.sol\":6321:6328  uint256 */\n      0x00\n        /* \"ABDKMath64x64.sol\":6358:6359  y */\n      dup2\n        /* \"ABDKMath64x64.sol\":6363:6364  0 */\n      0x00\n        /* \"ABDKMath64x64.sol\":6358:6364  y == 0 */\n      sub\n        /* \"ABDKMath64x64.sol\":6354:6374  if (y == 0) return 0 */\n      tag_649\n      jumpi\n      pop\n        /* \"ABDKMath64x64.sol\":6373:6374  0 */\n      0x00\n        /* \"ABDKMath64x64.sol\":6366:6374  return 0 */\n      jump(tag_187)\n        /* \"ABDKMath64x64.sol\":6354:6374  if (y == 0) return 0 */\n    tag_649:\n        /* \"ABDKMath64x64.sol\":6397:6398  0 */\n      0x00\n        /* \"ABDKMath64x64.sol\":6392:6393  x */\n      dup4\n        /* \"ABDKMath64x64.sol\":6392:6398  x >= 0 */\n      0x0f\n      signextend\n      slt\n      iszero\n        /* \"ABDKMath64x64.sol\":6383:6399  require (x >= 0) */\n      tag_650\n      jumpi\n      0x00\n      dup1\n      revert\n    tag_650:\n        /* \"ABDKMath64x64.sol\":6431:6441  int256 (x) */\n      0x0f\n      dup4\n      swap1\n      signextend\n      sub(shl(0x80, 0x01), 0x01)\n        /* \"ABDKMath64x64.sol\":6446:6484  y & 0xFFFFFFFFFFFFFFFFFFFFFFFFFFFFFFFF */\n      dup4\n      and\n        /* \"ABDKMath64x64.sol\":6422:6485  uint256 (int256 (x)) * (y & 0xFFFFFFFFFFFFFFFFFFFFFFFFFFFFFFFF) */\n      dup2\n      mul\n        /* \"ABDKMath64x64.sol\":6490:6492  64 */\n      0x40\n        /* \"ABDKMath64x64.sol\":6421:6492  (uint256 (int256 (x)) * (y & 0xFFFFFFFFFFFFFFFFFFFFFFFFFFFFFFFF)) >> 64 */\n      shr\n      swap1\n        /* \"ABDKMath64x64.sol\":6542:6545  128 */\n      0x80\n        /* \"ABDKMath64x64.sol\":6537:6545  y >> 128 */\n      dup5\n      swap1\n      shr\n        /* \"ABDKMath64x64.sol\":6513:6546  uint256 (int256 (x)) * (y >> 128) */\n      mul\n        /* \"ABDKMath64x64.sol\":6570:6620  0xFFFFFFFFFFFFFFFFFFFFFFFFFFFFFFFFFFFFFFFFFFFFFFFF */\n      0xffffffffffffffffffffffffffffffffffffffffffffffff\n        /* \"ABDKMath64x64.sol\":6564:6620  hi <= 0xFFFFFFFFFFFFFFFFFFFFFFFFFFFFFFFFFFFFFFFFFFFFFFFF */\n      dup2\n      gt\n      iszero\n        /* \"ABDKMath64x64.sol\":6555:6621  require (hi <= 0xFFFFFFFFFFFFFFFFFFFFFFFFFFFFFFFFFFFFFFFFFFFFFFFF) */\n      tag_651\n      jumpi\n      0x00\n      dup1\n      revert\n    tag_651:\n        /* \"ABDKMath64x64.sol\":6636:6638  64 */\n      0x40\n        /* \"ABDKMath64x64.sol\":6629:6638  hi <<= 64 */\n      shl\n        /* \"ABDKMath64x64.sol\":6670:6741  0xFFFFFFFFFFFFFFFFFFFFFFFFFFFFFFFFFFFFFFFFFFFFFFFFFFFFFFFFFFFFFFFF - lo */\n      dup2\n      not\n        /* \"ABDKMath64x64.sol\":6656:6741  hi <=... */\n      dup2\n      gt\n      iszero\n        /* \"ABDKMath64x64.sol\":6647:6742  require (hi <=... */\n      tag_652\n      jumpi\n      0x00\n      dup1\n      revert\n    tag_652:\n        /* \"ABDKMath64x64.sol\":6757:6764  hi + lo */\n      add\n      swap4\n        /* \"ABDKMath64x64.sol\":6262:6775  function mulu (int128 x, uint256 y) internal pure returns (uint256) {... */\n      swap3\n      pop\n      pop\n      pop\n      jump\t// out\n        /* \"ABDKMath64x64.sol\":4390:4615  function mul (int128 x, int128 y) internal pure returns (int128) {... */\n    tag_200:\n        /* \"ABDKMath64x64.sol\":4447:4453  int128 */\n      0x00\n        /* \"ABDKMath64x64.sol\":4495:4508  int256(x) * y */\n      0x0f\n        /* \"ABDKMath64x64.sol\":4495:4504  int256(x) */\n      dup4\n      dup2\n      signextend\n        /* \"ABDKMath64x64.sol\":4495:4508  int256(x) * y */\n      swap1\n      dup4\n      swap1\n      signextend\n      mul\n        /* \"ABDKMath64x64.sol\":4512:4514  64 */\n      0x40\n        /* \"ABDKMath64x64.sol\":4495:4514  int256(x) * y >> 64 */\n      sar\n      not(0x7fffffffffffffffffffffffffffffff)\n        /* \"ABDKMath64x64.sol\":4531:4550  result >= MIN_64x64 */\n      dup2\n      slt\n      dup1\n      iszero\n      swap1\n        /* \"ABDKMath64x64.sol\":4531:4573  result >= MIN_64x64 && result <= MAX_64x64 */\n      tag_654\n      jumpi\n      pop\n      sub(shl(0x7f, 0x01), 0x01)\n        /* \"ABDKMath64x64.sol\":4554:4573  result <= MAX_64x64 */\n      dup2\n      sgt\n      iszero\n        /* \"ABDKMath64x64.sol\":4531:4573  result >= MIN_64x64 && result <= MAX_64x64 */\n    tag_654:\n        /* \"ABDKMath64x64.sol\":4522:4574  require (result >= MIN_64x64 && result <= MAX_64x64) */\n      tag_384\n      jumpi\n      0x00\n      dup1\n      revert\n        /* \"ABDKMath64x64.sol\":8684:8917  function divu (uint256 x, uint256 y) internal pure returns (int128) {... */\n    tag_210:\n        /* \"ABDKMath64x64.sol\":8744:8750  int128 */\n      0x00\n        /* \"ABDKMath64x64.sol\":8785:8786  y */\n      dup2\n        /* \"ABDKMath64x64.sol\":8790:8791  0 */\n      0x00\n        /* \"ABDKMath64x64.sol\":8785:8791  y != 0 */\n      sub\n        /* \"ABDKMath64x64.sol\":8776:8792  require (y != 0) */\n      tag_657\n      jumpi\n      0x00\n      dup1\n      revert\n    tag_657:\n        /* \"ABDKMath64x64.sol\":8800:8814  uint128 result */\n      0x00\n        /* \"ABDKMath64x64.sol\":8817:8829  divuu (x, y) */\n      tag_658\n        /* \"ABDKMath64x64.sol\":8824:8825  x */\n      dup5\n        /* \"ABDKMath64x64.sol\":8827:8828  y */\n      dup5\n        /* \"ABDKMath64x64.sol\":8817:8822  divuu */\n      tag_659\n        /* \"ABDKMath64x64.sol\":8817:8829  divuu (x, y) */\n      jump\t// in\n    tag_658:\n        /* \"ABDKMath64x64.sol\":8800:8829  uint128 result = divuu (x, y) */\n      swap1\n      pop\n      sub(shl(0x7f, 0x01), 0x01)\n      sub(shl(0x80, 0x01), 0x01)\n        /* \"ABDKMath64x64.sol\":8846:8875  result <= uint128 (MAX_64x64) */\n      dup3\n      and\n      gt\n      iszero\n        /* \"ABDKMath64x64.sol\":8837:8876  require (result <= uint128 (MAX_64x64)) */\n      tag_384\n      jumpi\n      0x00\n      dup1\n      revert\n        /* \"ABDKMath64x64.sol\":7033:7285  function div (int128 x, int128 y) internal pure returns (int128) {... */\n    tag_224:\n        /* \"ABDKMath64x64.sol\":7090:7096  int128 */\n      0x00\n        /* \"ABDKMath64x64.sol\":7131:7132  y */\n      dup2\n        /* \"ABDKMath64x64.sol\":7131:7137  y != 0 */\n      0x0f\n      signextend\n        /* \"ABDKMath64x64.sol\":7136:7137  0 */\n      0x00\n        /* \"ABDKMath64x64.sol\":7131:7137  y != 0 */\n      sub\n        /* \"ABDKMath64x64.sol\":7122:7138  require (y != 0) */\n      tag_662\n      jumpi\n      0x00\n      dup1\n      revert\n    tag_662:\n        /* \"ABDKMath64x64.sol\":7146:7159  int256 result */\n      0x00\n        /* \"ABDKMath64x64.sol\":7183:7184  y */\n      dup3\n        /* \"ABDKMath64x64.sol\":7162:7184  (int256 (x) << 64) / y */\n      0x0f\n      signextend\n        /* \"ABDKMath64x64.sol\":7177:7179  64 */\n      0x40\n        /* \"ABDKMath64x64.sol\":7171:7172  x */\n      dup6\n        /* \"ABDKMath64x64.sol\":7163:7173  int256 (x) */\n      0x0f\n      signextend\n        /* \"ABDKMath64x64.sol\":7163:7179  int256 (x) << 64 */\n      swap1\n      shl\n        /* \"ABDKMath64x64.sol\":7162:7184  (int256 (x) << 64) / y */\n      dup2\n      tag_664\n      jumpi\n      tag_664\n      tag_665\n      jump\t// in\n    tag_664:\n      sdiv\n      swap1\n      pop\n      not(0x7fffffffffffffffffffffffffffffff)\n        /* \"ABDKMath64x64.sol\":7201:7220  result >= MIN_64x64 */\n      dup2\n      slt\n      dup1\n      iszero\n      swap1\n        /* \"ABDKMath64x64.sol\":7201:7243  result >= MIN_64x64 && result <= MAX_64x64 */\n      tag_654\n      jumpi\n      pop\n      sub(shl(0x7f, 0x01), 0x01)\n        /* \"ABDKMath64x64.sol\":7224:7243  result <= MAX_64x64 */\n      dup2\n      sgt\n      iszero\n        /* \"ABDKMath64x64.sol\":7192:7244  require (result >= MIN_64x64 && result <= MAX_64x64) */\n      tag_384\n      jumpi\n      0x00\n      dup1\n      revert\n        /* \"ABDKMath64x64.sol\":22564:22860  function exp (int128 x) internal pure returns (int128) {... */\n    tag_225:\n        /* \"ABDKMath64x64.sol\":22611:22617  int128 */\n      0x00\n        /* \"ABDKMath64x64.sol\":22656:22676  0x400000000000000000 */\n      0x400000000000000000\n        /* \"ABDKMath64x64.sol\":22652:22653  x */\n      dup3\n        /* \"ABDKMath64x64.sol\":22652:22676  x < 0x400000000000000000 */\n      0x0f\n      signextend\n      slt\n        /* \"ABDKMath64x64.sol\":22643:22677  require (x < 0x400000000000000000) */\n      tag_669\n      jumpi\n      0x00\n      dup1\n      revert\n    tag_669:\n      not(0x3fffffffffffffffff)\n        /* \"ABDKMath64x64.sol\":22702:22703  x */\n      dup3\n        /* \"ABDKMath64x64.sol\":22702:22727  x < -0x400000000000000000 */\n      0x0f\n      signextend\n      slt\n        /* \"ABDKMath64x64.sol\":22698:22737  if (x < -0x400000000000000000) return 0 */\n      iszero\n      tag_670\n      jumpi\n      pop\n        /* \"ABDKMath64x64.sol\":22736:22737  0 */\n      0x00\n      swap2\n        /* \"ABDKMath64x64.sol\":22564:22860  function exp (int128 x) internal pure returns (int128) {... */\n      swap1\n      pop\n      jump\t// out\n        /* \"ABDKMath64x64.sol\":22698:22737  if (x < -0x400000000000000000) return 0 */\n    tag_670:\n        /* \"ABDKMath64x64.sol\":22766:22849  exp_2 (... */\n      tag_187\n        /* \"ABDKMath64x64.sol\":22844:22847  128 */\n      0x80\n        /* \"ABDKMath64x64.sol\":22800:22801  x */\n      dup4\n        /* \"ABDKMath64x64.sol\":22792:22802  int256 (x) */\n      0x0f\n      signextend\n        /* \"ABDKMath64x64.sol\":22805:22840  0x171547652B82FE1777D0FFDA0D23A7D12 */\n      0x0171547652b82fe1777d0ffda0d23a7d12\n        /* \"ABDKMath64x64.sol\":22792:22840  int256 (x) * 0x171547652B82FE1777D0FFDA0D23A7D12 */\n      mul\n        /* \"ABDKMath64x64.sol\":22792:22847  int256 (x) * 0x171547652B82FE1777D0FFDA0D23A7D12 >> 128 */\n      swap1\n      sar\n        /* \"ABDKMath64x64.sol\":22766:22771  exp_2 */\n      tag_672\n        /* \"ABDKMath64x64.sol\":22766:22849  exp_2 (... */\n      jump\t// in\n        /* \"ABDKMath64x64.sol\":3512:3731  function add (int128 x, int128 y) internal pure returns (int128) {... */\n    tag_226:\n        /* \"ABDKMath64x64.sol\":3569:3575  int128 */\n      0x00\n        /* \"ABDKMath64x64.sol\":3617:3630  int256(x) + y */\n      0x0f\n        /* \"ABDKMath64x64.sol\":3617:3626  int256(x) */\n      dup4\n      dup2\n      signextend\n        /* \"ABDKMath64x64.sol\":3617:3630  int256(x) + y */\n      swap1\n      dup4\n      swap1\n      signextend\n      add\n      not(0x7fffffffffffffffffffffffffffffff)\n        /* \"ABDKMath64x64.sol\":3647:3666  result >= MIN_64x64 */\n      dup2\n      slt\n      dup1\n      iszero\n      swap1\n        /* \"ABDKMath64x64.sol\":3647:3689  result >= MIN_64x64 && result <= MAX_64x64 */\n      tag_654\n      jumpi\n      pop\n      sub(shl(0x7f, 0x01), 0x01)\n        /* \"ABDKMath64x64.sol\":3670:3689  result <= MAX_64x64 */\n      dup2\n      sgt\n      iszero\n        /* \"ABDKMath64x64.sol\":3638:3690  require (result >= MIN_64x64 && result <= MAX_64x64) */\n      tag_384\n      jumpi\n      0x00\n      dup1\n      revert\n        /* \"ABDKMath64x64.sol\":15145:15366  function ln (int128 x) internal pure returns (int128) {... */\n    tag_229:\n        /* \"ABDKMath64x64.sol\":15191:15197  int128 */\n      0x00\n        /* \"ABDKMath64x64.sol\":15236:15237  0 */\n      dup1\n        /* \"ABDKMath64x64.sol\":15232:15233  x */\n      dup3\n        /* \"ABDKMath64x64.sol\":15232:15237  x > 0 */\n      0x0f\n      signextend\n      sgt\n        /* \"ABDKMath64x64.sol\":15223:15238  require (x > 0) */\n      tag_677\n      jumpi\n      0x00\n      dup1\n      revert\n    tag_677:\n        /* \"ABDKMath64x64.sol\":15350:15353  128 */\n      0x80\n        /* \"ABDKMath64x64.sol\":15298:15307  log_2 (x) */\n      tag_678\n        /* \"ABDKMath64x64.sol\":15305:15306  x */\n      dup4\n        /* \"ABDKMath64x64.sol\":15298:15303  log_2 */\n      tag_679\n        /* \"ABDKMath64x64.sol\":15298:15307  log_2 (x) */\n      jump\t// in\n    tag_678:\n        /* \"ABDKMath64x64.sol\":15290:15308  int256 (log_2 (x)) */\n      0x0f\n      signextend\n        /* \"ABDKMath64x64.sol\":15312:15346  0xB17217F7D1CF79ABC9E3B39803F2F6AF */\n      0xb17217f7d1cf79abc9e3b39803f2f6af\n        /* \"ABDKMath64x64.sol\":15281:15346  uint256 (int256 (log_2 (x))) * 0xB17217F7D1CF79ABC9E3B39803F2F6AF */\n      mul\n        /* \"ABDKMath64x64.sol\":15281:15353  uint256 (int256 (log_2 (x))) * 0xB17217F7D1CF79ABC9E3B39803F2F6AF >> 128 */\n      swap1\n      shr\n        /* \"ABDKMath64x64.sol\":15247:15355  return int128 (int256 (... */\n      swap1\n      pop\n        /* \"ABDKMath64x64.sol\":15145:15366  function ln (int128 x) internal pure returns (int128) {... */\n      swap2\n      swap1\n      pop\n      jump\t// out\n        /* \"@openzeppelin/contracts/access/Ownable.sol\":1796:1958   */\n    tag_234:\n        /* \"@openzeppelin/contracts/access/Ownable.sol\":1684:1691   */\n      0x00\n        /* \"@openzeppelin/contracts/access/Ownable.sol\":1710:1716   */\n      sload\n      sub(shl(0xa0, 0x01), 0x01)\n      and\n        /* \"@openzeppelin/contracts/utils/Context.sol\":735:745   */\n      caller\n        /* \"@openzeppelin/contracts/access/Ownable.sol\":1855:1878   */\n      eq\n        /* \"@openzeppelin/contracts/access/Ownable.sol\":1851:1952   */\n      tag_398\n      jumpi\n        /* \"@openzeppelin/contracts/access/Ownable.sol\":1901:1941   */\n      mload(0x40)\n      shl(0xe0, 0x118cdaa7)\n      dup2\n      mstore\n        /* \"@openzeppelin/contracts/utils/Context.sol\":735:745   */\n      caller\n        /* \"@openzeppelin/contracts/access/Ownable.sol\":1901:1941   */\n      0x04\n      dup3\n      add\n        /* \"#utility.yul\":5222:5296   */\n      mstore\n        /* \"#utility.yul\":5195:5213   */\n      0x24\n      add\n        /* \"@openzeppelin/contracts/access/Ownable.sol\":1901:1941   */\n      tag_195\n        /* \"#utility.yul\":5076:5302   */\n      jump\n        /* \"@openzeppelin/contracts/token/ERC20/utils/SafeERC20.sol\":1219:1379   */\n    tag_263:\n        /* \"@openzeppelin/contracts/token/ERC20/utils/SafeERC20.sol\":1328:1371   */\n      mload(0x40)\n      sub(shl(0xa0, 0x01), 0x01)\n        /* \"#utility.yul\":14863:14918   */\n      dup4\n      dup2\n      and\n        /* \"@openzeppelin/contracts/token/ERC20/utils/SafeERC20.sol\":1328:1371   */\n      0x24\n      dup4\n      add\n        /* \"#utility.yul\":14845:14919   */\n      mstore\n        /* \"#utility.yul\":14935:14953   */\n      0x44\n      dup3\n      add\n        /* \"#utility.yul\":14928:14962   */\n      dup4\n      swap1\n      mstore\n        /* \"@openzeppelin/contracts/token/ERC20/utils/SafeERC20.sol\":1301:1372   */\n      tag_688\n      swap2\n        /* \"@openzeppelin/contracts/token/ERC20/utils/SafeERC20.sol\":1321:1326   */\n      dup6\n      swap2\n        /* \"@openzeppelin/contracts/token/ERC20/utils/SafeERC20.sol\":1343:1357   */\n      dup3\n      and\n      swap1\n      0xa9059cbb\n      swap1\n        /* \"#utility.yul\":14818:14836   */\n      0x64\n      add\n        /* \"@openzeppelin/contracts/token/ERC20/utils/SafeERC20.sol\":1328:1371   */\n    tag_689:\n      mload(0x40)\n      0x20\n      dup2\n      dup4\n      sub\n      sub\n      dup2\n      mstore\n      swap1\n      0x40\n      mstore\n      swap2\n      pop\n      0xe0\n      shl\n      0x20\n      dup3\n      add\n      dup1\n      mload\n      0xffffffffffffffffffffffffffffffffffffffffffffffffffffffff\n      dup4\n      dup2\n      dup4\n      and\n      or\n      dup4\n      mstore\n      pop\n      pop\n      pop\n      pop\n        /* \"@openzeppelin/contracts/token/ERC20/utils/SafeERC20.sol\":1301:1320   */\n      tag_690\n        /* \"@openzeppelin/contracts/token/ERC20/utils/SafeERC20.sol\":1301:1372   */\n      jump\t// in\n    tag_688:\n        /* \"@openzeppelin/contracts/token/ERC20/utils/SafeERC20.sol\":1219:1379   */\n      pop\n      pop\n      pop\n      jump\t// out\n        /* \"ABDKMath64x64.sol\":1953:2122  function fromUInt (uint256 x) internal pure returns (int128) {... */\n    tag_328:\n        /* \"ABDKMath64x64.sol\":2006:2012  int128 */\n      0x00\n        /* \"ABDKMath64x64.sol\":2052:2070  0x7FFFFFFFFFFFFFFF */\n      0x7fffffffffffffff\n        /* \"ABDKMath64x64.sol\":2047:2048  x */\n      dup3\n        /* \"ABDKMath64x64.sol\":2047:2070  x <= 0x7FFFFFFFFFFFFFFF */\n      gt\n      iszero\n        /* \"ABDKMath64x64.sol\":2038:2071  require (x <= 0x7FFFFFFFFFFFFFFF) */\n      tag_692\n      jumpi\n      0x00\n      dup1\n      revert\n    tag_692:\n      pop\n        /* \"ABDKMath64x64.sol\":2107:2109  64 */\n      0x40\n        /* \"ABDKMath64x64.sol\":2102:2109  x << 64 */\n      shl\n      swap1\n        /* \"ABDKMath64x64.sol\":1953:2122  function fromUInt (uint256 x) internal pure returns (int128) {... */\n      jump\t// out\n        /* \"@openzeppelin/contracts/token/ERC20/utils/SafeERC20.sol\":1618:1806   */\n    tag_331:\n        /* \"@openzeppelin/contracts/token/ERC20/utils/SafeERC20.sol\":1745:1798   */\n      mload(0x40)\n      sub(shl(0xa0, 0x01), 0x01)\n        /* \"#utility.yul\":21762:21777   */\n      dup5\n      dup2\n      and\n        /* \"@openzeppelin/contracts/token/ERC20/utils/SafeERC20.sol\":1745:1798   */\n      0x24\n      dup4\n      add\n        /* \"#utility.yul\":21744:21778   */\n      mstore\n        /* \"#utility.yul\":21814:21829   */\n      dup4\n      dup2\n      and\n        /* \"#utility.yul\":21794:21812   */\n      0x44\n      dup4\n      add\n        /* \"#utility.yul\":21787:21830   */\n      mstore\n        /* \"#utility.yul\":21846:21864   */\n      0x64\n      dup3\n      add\n        /* \"#utility.yul\":21839:21873   */\n      dup4\n      swap1\n      mstore\n        /* \"@openzeppelin/contracts/token/ERC20/utils/SafeERC20.sol\":1718:1799   */\n      tag_694\n      swap2\n        /* \"@openzeppelin/contracts/token/ERC20/utils/SafeERC20.sol\":1738:1743   */\n      dup7\n      swap2\n        /* \"@openzeppelin/contracts/token/ERC20/utils/SafeERC20.sol\":1760:1778   */\n      dup3\n      and\n      swap1\n      0x23b872dd\n      swap1\n        /* \"#utility.yul\":21656:21674   */\n      0x84\n      add\n        /* \"@openzeppelin/contracts/token/ERC20/utils/SafeERC20.sol\":1745:1798   */\n      tag_689\n        /* \"#utility.yul\":21481:21879   */\n      jump\n        /* \"@openzeppelin/contracts/token/ERC20/utils/SafeERC20.sol\":1718:1799   */\n    tag_694:\n        /* \"@openzeppelin/contracts/token/ERC20/utils/SafeERC20.sol\":1618:1806   */\n      pop\n      pop\n      pop\n      pop\n      jump\t// out\n        /* \"@openzeppelin/contracts/access/Ownable.sol\":2912:3099   */\n    tag_399:\n        /* \"@openzeppelin/contracts/access/Ownable.sol\":2985:3001   */\n      0x00\n        /* \"@openzeppelin/contracts/access/Ownable.sol\":3004:3010   */\n      dup1\n      sload\n      sub(shl(0xa0, 0x01), 0x01)\n        /* \"@openzeppelin/contracts/access/Ownable.sol\":3020:3037   */\n      dup4\n      dup2\n      and\n      0xffffffffffffffffffffffff0000000000000000000000000000000000000000\n      dup4\n      and\n      dup2\n      or\n      dup5\n      sstore\n        /* \"@openzeppelin/contracts/access/Ownable.sol\":3052:3092   */\n      mload(0x40)\n        /* \"@openzeppelin/contracts/access/Ownable.sol\":3004:3010   */\n      swap2\n      swap1\n      swap3\n      and\n      swap3\n      dup4\n      swap2\n        /* \"@openzeppelin/contracts/access/Ownable.sol\":3052:3092   */\n      0x8be0079c531659141344cd1fd0a4f28419497f9722a3daafe3b4186f6b6457e0\n      swap2\n        /* \"@openzeppelin/contracts/access/Ownable.sol\":2985:3001   */\n      swap1\n        /* \"@openzeppelin/contracts/access/Ownable.sol\":3052:3092   */\n      log3\n        /* \"@openzeppelin/contracts/access/Ownable.sol\":2975:3099   */\n      pop\n        /* \"@openzeppelin/contracts/access/Ownable.sol\":2912:3099   */\n      pop\n      jump\t// out\n        /* \"NoBOverround.sol\":7045:7183  function getOnes(uint n) internal pure returns (uint count) {... */\n    tag_434:\n        /* \"NoBOverround.sol\":7093:7103  uint count */\n      0x00\n        /* \"NoBOverround.sol\":7126:7179  while(n!=0) {... */\n    tag_698:\n        /* \"NoBOverround.sol\":7132:7136  n!=0 */\n      dup2\n      iszero\n        /* \"NoBOverround.sol\":7126:7179  while(n!=0) {... */\n      tag_699\n      jumpi\n        /* \"NoBOverround.sol\":7153:7156  n-1 */\n      tag_700\n        /* \"NoBOverround.sol\":7155:7156  1 */\n      0x01\n        /* \"NoBOverround.sol\":7153:7154  n */\n      dup4\n        /* \"NoBOverround.sol\":7153:7156  n-1 */\n      tag_303\n      jump\t// in\n    tag_700:\n        /* \"NoBOverround.sol\":7150:7157  n&(n-1) */\n      swap1\n      swap2\n      and\n      swap1\n        /* \"NoBOverround.sol\":7165:7172  count++ */\n      dup1\n      tag_701\n      dup2\n      tag_448\n      jump\t// in\n    tag_701:\n      swap2\n      pop\n      pop\n        /* \"NoBOverround.sol\":7126:7179  while(n!=0) {... */\n      jump(tag_698)\n    tag_699:\n        /* \"NoBOverround.sol\":7045:7183  function getOnes(uint n) internal pure returns (uint count) {... */\n      swap2\n      swap1\n      pop\n      jump\t// out\n        /* \"NoBOverround.sol\":12958:13836  function _calculateSellRefund(... */\n    tag_482:\n        /* \"NoBOverround.sol\":13154:13169  int128 new_cost */\n      0x00\n        /* \"NoBOverround.sol\":13171:13185  int128 refund_ */\n      dup1\n        /* \"NoBOverround.sol\":13187:13210  int128 new_total_shares */\n      0x00\n        /* \"NoBOverround.sol\":13218:13239  int128[] memory new_q */\n      dup1\n        /* \"NoBOverround.sol\":13255:13267  numOutcomes_ */\n      dup5\n        /* \"NoBOverround.sol\":13242:13268  new int128[](numOutcomes_) */\n      0xffffffffffffffff\n      dup2\n      gt\n      iszero\n      tag_704\n      jumpi\n      tag_704\n      tag_246\n      jump\t// in\n    tag_704:\n      mload(0x40)\n      swap1\n      dup1\n      dup3\n      mstore\n      dup1\n      0x20\n      mul\n      0x20\n      add\n      dup3\n      add\n      0x40\n      mstore\n      dup1\n      iszero\n      tag_705\n      jumpi\n      dup2\n      0x20\n      add\n      0x20\n      dup3\n      mul\n      dup1\n      calldatasize\n      dup4\n      calldatacopy\n      add\n      swap1\n      pop\n    tag_705:\n      pop\n        /* \"NoBOverround.sol\":13218:13268  int128[] memory new_q = new int128[](numOutcomes_) */\n      swap1\n      pop\n        /* \"NoBOverround.sol\":13279:13285  uint i */\n      0x00\n        /* \"NoBOverround.sol\":13274:13347  for (uint i = 0; i < numOutcomes_; i++) {... */\n    tag_706:\n        /* \"NoBOverround.sol\":13295:13307  numOutcomes_ */\n      dup6\n        /* \"NoBOverround.sol\":13291:13292  i */\n      dup2\n        /* \"NoBOverround.sol\":13291:13307  i < numOutcomes_ */\n      lt\n        /* \"NoBOverround.sol\":13274:13347  for (uint i = 0; i < numOutcomes_; i++) {... */\n      iszero\n      tag_707\n      jumpi\n        /* \"NoBOverround.sol\":13335:13337  q_ */\n      dup11\n        /* \"NoBOverround.sol\":13338:13339  i */\n      dup2\n        /* \"NoBOverround.sol\":13335:13340  q_[i] */\n      dup2\n      mload\n      dup2\n      lt\n      tag_710\n      jumpi\n      tag_710\n      tag_222\n      jump\t// in\n    tag_710:\n      0x20\n      mul\n      0x20\n      add\n      add\n      mload\n        /* \"NoBOverround.sol\":13324:13329  new_q */\n      dup3\n        /* \"NoBOverround.sol\":13330:13331  i */\n      dup3\n        /* \"NoBOverround.sol\":13324:13332  new_q[i] */\n      dup2\n      mload\n      dup2\n      lt\n      tag_712\n      jumpi\n      tag_712\n      tag_222\n      jump\t// in\n    tag_712:\n        /* \"NoBOverround.sol\":13324:13340  new_q[i] = q_[i] */\n      0x0f\n      swap3\n      swap1\n      swap3\n      signextend\n        /* \"NoBOverround.sol\":13324:13332  new_q[i] */\n      0x20\n      swap3\n      dup4\n      mul\n      swap2\n      swap1\n      swap2\n      add\n      swap1\n      swap2\n      add\n        /* \"NoBOverround.sol\":13324:13340  new_q[i] = q_[i] */\n      mstore\n        /* \"NoBOverround.sol\":13309:13312  i++ */\n      0x01\n      add\n        /* \"NoBOverround.sol\":13274:13347  for (uint i = 0; i < numOutcomes_; i++) {... */\n      jump(tag_706)\n    tag_707:\n      pop\n        /* \"NoBOverround.sol\":13370:13408  ABDKMath.sub(new_q[_outcome], _amount) */\n      tag_713\n        /* \"NoBOverround.sol\":13383:13388  new_q */\n      dup2\n        /* \"NoBOverround.sol\":13389:13397  _outcome */\n      dup11\n        /* \"NoBOverround.sol\":13383:13398  new_q[_outcome] */\n      dup2\n      mload\n      dup2\n      lt\n      tag_715\n      jumpi\n      tag_715\n      tag_222\n      jump\t// in\n    tag_715:\n      0x20\n      mul\n      0x20\n      add\n      add\n      mload\n        /* \"NoBOverround.sol\":13400:13407  _amount */\n      dup10\n        /* \"NoBOverround.sol\":13370:13382  ABDKMath.sub */\n      tag_556\n        /* \"NoBOverround.sol\":13370:13408  ABDKMath.sub(new_q[_outcome], _amount) */\n      jump\t// in\n    tag_713:\n        /* \"NoBOverround.sol\":13352:13357  new_q */\n      dup2\n        /* \"NoBOverround.sol\":13358:13366  _outcome */\n      dup11\n        /* \"NoBOverround.sol\":13352:13367  new_q[_outcome] */\n      dup2\n      mload\n      dup2\n      lt\n      tag_717\n      jumpi\n      tag_717\n      tag_222\n      jump\t// in\n    tag_717:\n      0x20\n      mul\n      0x20\n      add\n      add\n        /* \"NoBOverround.sol\":13352:13408  new_q[_outcome] = ABDKMath.sub(new_q[_outcome], _amount) */\n      swap1\n      0x0f\n      signextend\n      swap1\n      dup2\n      0x0f\n      signextend\n      dup2\n      mstore\n      pop\n      pop\n        /* \"NoBOverround.sol\":13433:13469  ABDKMath.sub(total_shares_, _amount) */\n      tag_718\n        /* \"NoBOverround.sol\":13446:13459  total_shares_ */\n      dup8\n        /* \"NoBOverround.sol\":13461:13468  _amount */\n      dup10\n        /* \"NoBOverround.sol\":13433:13445  ABDKMath.sub */\n      tag_556\n        /* \"NoBOverround.sol\":13433:13469  ABDKMath.sub(total_shares_, _amount) */\n      jump\t// in\n    tag_718:\n        /* \"NoBOverround.sol\":13552:13553  b */\n      sload(0x03)\n        /* \"NoBOverround.sol\":13414:13469  new_total_shares = ABDKMath.sub(total_shares_, _amount) */\n      swap1\n      swap3\n      pop\n        /* \"NoBOverround.sol\":13552:13553  b */\n      0x0f\n      signextend\n        /* \"NoBOverround.sol\":13536:13549  int128 used_b */\n      0x00\n      dup1\n        /* \"NoBOverround.sol\":13582:13720  for (uint i = 0; i < numOutcomes_; i++) {... */\n    tag_719:\n        /* \"NoBOverround.sol\":13603:13615  numOutcomes_ */\n      dup8\n        /* \"NoBOverround.sol\":13599:13600  i */\n      dup2\n        /* \"NoBOverround.sol\":13599:13615  i < numOutcomes_ */\n      lt\n        /* \"NoBOverround.sol\":13582:13720  for (uint i = 0; i < numOutcomes_; i++) {... */\n      iszero\n      tag_720\n      jumpi\n        /* \"NoBOverround.sol\":13644:13713  ABDKMath.add(sum_total, ABDKMath.exp(ABDKMath.div(new_q[i], used_b))) */\n      tag_722\n        /* \"NoBOverround.sol\":13657:13666  sum_total */\n      dup3\n        /* \"NoBOverround.sol\":13668:13712  ABDKMath.exp(ABDKMath.div(new_q[i], used_b)) */\n      tag_218\n        /* \"NoBOverround.sol\":13681:13711  ABDKMath.div(new_q[i], used_b) */\n      tag_219\n        /* \"NoBOverround.sol\":13694:13699  new_q */\n      dup8\n        /* \"NoBOverround.sol\":13700:13701  i */\n      dup6\n        /* \"NoBOverround.sol\":13694:13702  new_q[i] */\n      dup2\n      mload\n      dup2\n      lt\n      tag_726\n      jumpi\n      tag_726\n      tag_222\n      jump\t// in\n    tag_726:\n      0x20\n      mul\n      0x20\n      add\n      add\n      mload\n        /* \"NoBOverround.sol\":13704:13710  used_b */\n      dup8\n        /* \"NoBOverround.sol\":13681:13693  ABDKMath.div */\n      tag_224\n        /* \"NoBOverround.sol\":13681:13711  ABDKMath.div(new_q[i], used_b) */\n      jump\t// in\n        /* \"NoBOverround.sol\":13644:13713  ABDKMath.add(sum_total, ABDKMath.exp(ABDKMath.div(new_q[i], used_b))) */\n    tag_722:\n        /* \"NoBOverround.sol\":13632:13713  sum_total = ABDKMath.add(sum_total, ABDKMath.exp(ABDKMath.div(new_q[i], used_b))) */\n      swap2\n      pop\n        /* \"NoBOverround.sol\":13617:13620  i++ */\n      0x01\n      add\n        /* \"NoBOverround.sol\":13582:13720  for (uint i = 0; i < numOutcomes_; i++) {... */\n      jump(tag_719)\n    tag_720:\n      pop\n        /* \"NoBOverround.sol\":13736:13780  ABDKMath.mul(used_b, ABDKMath.ln(sum_total)) */\n      tag_727\n        /* \"NoBOverround.sol\":13749:13755  used_b */\n      dup3\n        /* \"NoBOverround.sol\":13757:13779  ABDKMath.ln(sum_total) */\n      tag_228\n        /* \"NoBOverround.sol\":13769:13778  sum_total */\n      dup4\n        /* \"NoBOverround.sol\":13757:13768  ABDKMath.ln */\n      tag_229\n        /* \"NoBOverround.sol\":13757:13779  ABDKMath.ln(sum_total) */\n      jump\t// in\n        /* \"NoBOverround.sol\":13736:13780  ABDKMath.mul(used_b, ABDKMath.ln(sum_total)) */\n    tag_727:\n        /* \"NoBOverround.sol\":13725:13780  new_cost = ABDKMath.mul(used_b, ABDKMath.ln(sum_total)) */\n      swap6\n      pop\n        /* \"NoBOverround.sol\":13796:13833  ABDKMath.sub(current_cost_, new_cost) */\n      tag_729\n        /* \"NoBOverround.sol\":13809:13822  current_cost_ */\n      dup9\n        /* \"NoBOverround.sol\":13824:13832  new_cost */\n      dup8\n        /* \"NoBOverround.sol\":13796:13808  ABDKMath.sub */\n      tag_556\n        /* \"NoBOverround.sol\":13796:13833  ABDKMath.sub(current_cost_, new_cost) */\n      jump\t// in\n    tag_729:\n        /* \"NoBOverround.sol\":13786:13833  refund_ = ABDKMath.sub(current_cost_, new_cost) */\n      swap5\n      pop\n        /* \"NoBOverround.sol\":13212:13836  {... */\n      pop\n      pop\n      pop\n        /* \"NoBOverround.sol\":12958:13836  function _calculateSellRefund(... */\n      swap7\n      pop\n      swap7\n      pop\n      swap7\n      swap4\n      pop\n      pop\n      pop\n      pop\n      jump\t// out\n        /* \"ABDKMath64x64.sol\":3944:4163  function sub (int128 x, int128 y) internal pure returns (int128) {... */\n    tag_556:\n        /* \"ABDKMath64x64.sol\":4001:4007  int128 */\n      0x00\n        /* \"ABDKMath64x64.sol\":4049:4062  int256(x) - y */\n      0x0f\n      dup3\n      dup2\n      signextend\n        /* \"ABDKMath64x64.sol\":4049:4058  int256(x) */\n      swap1\n      dup5\n      swap1\n      signextend\n        /* \"ABDKMath64x64.sol\":4049:4062  int256(x) - y */\n      sub\n      not(0x7fffffffffffffffffffffffffffffff)\n        /* \"ABDKMath64x64.sol\":4079:4098  result >= MIN_64x64 */\n      dup2\n      slt\n      dup1\n      iszero\n      swap1\n        /* \"ABDKMath64x64.sol\":4079:4121  result >= MIN_64x64 && result <= MAX_64x64 */\n      tag_654\n      jumpi\n      pop\n      sub(shl(0x7f, 0x01), 0x01)\n        /* \"ABDKMath64x64.sol\":4102:4121  result <= MAX_64x64 */\n      dup2\n      sgt\n      iszero\n        /* \"ABDKMath64x64.sol\":4070:4122  require (result >= MIN_64x64 && result <= MAX_64x64) */\n      tag_384\n      jumpi\n      0x00\n      dup1\n      revert\n        /* \"NoBOverround.sol\":4125:5003  function _calculateBuyPrice(... */\n    tag_624:\n        /* \"NoBOverround.sol\":4321:4336  int128 new_cost */\n      0x00\n        /* \"NoBOverround.sol\":4338:4351  int128 price_ */\n      dup1\n        /* \"NoBOverround.sol\":4353:4376  int128 new_total_shares */\n      0x00\n        /* \"NoBOverround.sol\":4384:4405  int128[] memory new_q */\n      dup1\n        /* \"NoBOverround.sol\":4421:4433  numOutcomes_ */\n      dup5\n        /* \"NoBOverround.sol\":4408:4434  new int128[](numOutcomes_) */\n      0xffffffffffffffff\n      dup2\n      gt\n      iszero\n      tag_735\n      jumpi\n      tag_735\n      tag_246\n      jump\t// in\n    tag_735:\n      mload(0x40)\n      swap1\n      dup1\n      dup3\n      mstore\n      dup1\n      0x20\n      mul\n      0x20\n      add\n      dup3\n      add\n      0x40\n      mstore\n      dup1\n      iszero\n      tag_736\n      jumpi\n      dup2\n      0x20\n      add\n      0x20\n      dup3\n      mul\n      dup1\n      calldatasize\n      dup4\n      calldatacopy\n      add\n      swap1\n      pop\n    tag_736:\n      pop\n        /* \"NoBOverround.sol\":4384:4434  int128[] memory new_q = new int128[](numOutcomes_) */\n      swap1\n      pop\n        /* \"NoBOverround.sol\":4445:4451  uint i */\n      0x00\n        /* \"NoBOverround.sol\":4440:4513  for (uint i = 0; i < numOutcomes_; i++) {... */\n    tag_737:\n        /* \"NoBOverround.sol\":4461:4473  numOutcomes_ */\n      dup6\n        /* \"NoBOverround.sol\":4457:4458  i */\n      dup2\n        /* \"NoBOverround.sol\":4457:4473  i < numOutcomes_ */\n      lt\n        /* \"NoBOverround.sol\":4440:4513  for (uint i = 0; i < numOutcomes_; i++) {... */\n      iszero\n      tag_738\n      jumpi\n        /* \"NoBOverround.sol\":4501:4503  q_ */\n      dup11\n        /* \"NoBOverround.sol\":4504:4505  i */\n      dup2\n        /* \"NoBOverround.sol\":4501:4506  q_[i] */\n      dup2\n      mload\n      dup2\n      lt\n      tag_741\n      jumpi\n      tag_741\n      tag_222\n      jump\t// in\n    tag_741:\n      0x20\n      mul\n      0x20\n      add\n      add\n      mload\n        /* \"NoBOverround.sol\":4490:4495  new_q */\n      dup3\n        /* \"NoBOverround.sol\":4496:4497  i */\n      dup3\n        /* \"NoBOverround.sol\":4490:4498  new_q[i] */\n      dup2\n      mload\n      dup2\n      lt\n      tag_743\n      jumpi\n      tag_743\n      tag_222\n      jump\t// in\n    tag_743:\n        /* \"NoBOverround.sol\":4490:4506  new_q[i] = q_[i] */\n      0x0f\n      swap3\n      swap1\n      swap3\n      signextend\n        /* \"NoBOverround.sol\":4490:4498  new_q[i] */\n      0x20\n      swap3\n      dup4\n      mul\n      swap2\n      swap1\n      swap2\n      add\n      swap1\n      swap2\n      add\n        /* \"NoBOverround.sol\":4490:4506  new_q[i] = q_[i] */\n      mstore\n        /* \"NoBOverround.sol\":4475:4478  i++ */\n      0x01\n      add\n        /* \"NoBOverround.sol\":4440:4513  for (uint i = 0; i < numOutcomes_; i++) {... */\n      jump(tag_737)\n    tag_738:\n      pop\n        /* \"NoBOverround.sol\":4536:4574  ABDKMath.add(new_q[_outcome], _amount) */\n      tag_744\n        /* \"NoBOverround.sol\":4549:4554  new_q */\n      dup2\n        /* \"NoBOverround.sol\":4555:4563  _outcome */\n      dup11\n        /* \"NoBOverround.sol\":4549:4564  new_q[_outcome] */\n      dup2\n      mload\n      dup2\n      lt\n      tag_746\n      jumpi\n      tag_746\n      tag_222\n      jump\t// in\n    tag_746:\n      0x20\n      mul\n      0x20\n      add\n      add\n      mload\n        /* \"NoBOverround.sol\":4566:4573  _amount */\n      dup10\n        /* \"NoBOverround.sol\":4536:4548  ABDKMath.add */\n      tag_226\n        /* \"NoBOverround.sol\":4536:4574  ABDKMath.add(new_q[_outcome], _amount) */\n      jump\t// in\n    tag_744:\n        /* \"NoBOverround.sol\":4518:4523  new_q */\n      dup2\n        /* \"NoBOverround.sol\":4524:4532  _outcome */\n      dup11\n        /* \"NoBOverround.sol\":4518:4533  new_q[_outcome] */\n      dup2\n      mload\n      dup2\n      lt\n      tag_748\n      jumpi\n      tag_748\n      tag_222\n      jump\t// in\n    tag_748:\n      0x20\n      mul\n      0x20\n      add\n      add\n        /* \"NoBOverround.sol\":4518:4574  new_q[_outcome] = ABDKMath.add(new_q[_outcome], _amount) */\n      swap1\n      0x0f\n      signextend\n      swap1\n      dup2\n      0x0f\n      signextend\n      dup2\n      mstore\n      pop\n      pop\n        /* \"NoBOverround.sol\":4599:4635  ABDKMath.add(total_shares_, _amount) */\n      tag_749\n        /* \"NoBOverround.sol\":4612:4625  total_shares_ */\n      dup8\n        /* \"NoBOverround.sol\":4627:4634  _amount */\n      dup10\n        /* \"NoBOverround.sol\":4599:4611  ABDKMath.add */\n      tag_226\n        /* \"NoBOverround.sol\":4599:4635  ABDKMath.add(total_shares_, _amount) */\n      jump\t// in\n    tag_749:\n        /* \"NoBOverround.sol\":4718:4719  b */\n      sload(0x03)\n        /* \"NoBOverround.sol\":4580:4635  new_total_shares = ABDKMath.add(total_shares_, _amount) */\n      swap1\n      swap3\n      pop\n        /* \"NoBOverround.sol\":4718:4719  b */\n      0x0f\n      signextend\n        /* \"NoBOverround.sol\":4702:4715  int128 used_b */\n      0x00\n      dup1\n        /* \"NoBOverround.sol\":4748:4886  for (uint i = 0; i < numOutcomes_; i++) {... */\n    tag_750:\n        /* \"NoBOverround.sol\":4769:4781  numOutcomes_ */\n      dup8\n        /* \"NoBOverround.sol\":4765:4766  i */\n      dup2\n        /* \"NoBOverround.sol\":4765:4781  i < numOutcomes_ */\n      lt\n        /* \"NoBOverround.sol\":4748:4886  for (uint i = 0; i < numOutcomes_; i++) {... */\n      iszero\n      tag_751\n      jumpi\n        /* \"NoBOverround.sol\":4810:4879  ABDKMath.add(sum_total, ABDKMath.exp(ABDKMath.div(new_q[i], used_b))) */\n      tag_753\n        /* \"NoBOverround.sol\":4823:4832  sum_total */\n      dup3\n        /* \"NoBOverround.sol\":4834:4878  ABDKMath.exp(ABDKMath.div(new_q[i], used_b)) */\n      tag_218\n        /* \"NoBOverround.sol\":4847:4877  ABDKMath.div(new_q[i], used_b) */\n      tag_219\n        /* \"NoBOverround.sol\":4860:4865  new_q */\n      dup8\n        /* \"NoBOverround.sol\":4866:4867  i */\n      dup6\n        /* \"NoBOverround.sol\":4860:4868  new_q[i] */\n      dup2\n      mload\n      dup2\n      lt\n      tag_726\n      jumpi\n      tag_726\n      tag_222\n      jump\t// in\n        /* \"NoBOverround.sol\":4810:4879  ABDKMath.add(sum_total, ABDKMath.exp(ABDKMath.div(new_q[i], used_b))) */\n    tag_753:\n        /* \"NoBOverround.sol\":4798:4879  sum_total = ABDKMath.add(sum_total, ABDKMath.exp(ABDKMath.div(new_q[i], used_b))) */\n      swap2\n      pop\n        /* \"NoBOverround.sol\":4783:4786  i++ */\n      0x01\n      add\n        /* \"NoBOverround.sol\":4748:4886  for (uint i = 0; i < numOutcomes_; i++) {... */\n      jump(tag_750)\n    tag_751:\n      pop\n        /* \"NoBOverround.sol\":4902:4946  ABDKMath.mul(used_b, ABDKMath.ln(sum_total)) */\n      tag_758\n        /* \"NoBOverround.sol\":4915:4921  used_b */\n      dup3\n        /* \"NoBOverround.sol\":4923:4945  ABDKMath.ln(sum_total) */\n      tag_228\n        /* \"NoBOverround.sol\":4935:4944  sum_total */\n      dup4\n        /* \"NoBOverround.sol\":4923:4934  ABDKMath.ln */\n      tag_229\n        /* \"NoBOverround.sol\":4923:4945  ABDKMath.ln(sum_total) */\n      jump\t// in\n        /* \"NoBOverround.sol\":4902:4946  ABDKMath.mul(used_b, ABDKMath.ln(sum_total)) */\n    tag_758:\n        /* \"NoBOverround.sol\":4891:4946  new_cost = ABDKMath.mul(used_b, ABDKMath.ln(sum_total)) */\n      swap6\n      pop\n        /* \"NoBOverround.sol\":4961:4998  ABDKMath.sub(new_cost, current_cost_) */\n      tag_729\n        /* \"NoBOverround.sol\":4974:4982  new_cost */\n      dup7\n        /* \"NoBOverround.sol\":4984:4997  current_cost_ */\n      dup10\n        /* \"NoBOverround.sol\":4961:4973  ABDKMath.sub */\n      tag_556\n        /* \"NoBOverround.sol\":4961:4998  ABDKMath.sub(new_cost, current_cost_) */\n      jump\t// in\n        /* \"NoBOverround.sol\":5007:5793  function _mintAndTransferOutcomeTokens(... */\n    tag_647:\n        /* \"NoBOverround.sol\":5145:5150  token */\n      sload(0x08)\n        /* \"NoBOverround.sol\":5107:5128  uint n_outcome_tokens */\n      0x00\n      swap1\n        /* \"NoBOverround.sol\":5131:5160  getTokenWeiUp(token, _amount) */\n      tag_762\n      swap1\n      sub(shl(0xa0, 0x01), 0x01)\n        /* \"NoBOverround.sol\":5145:5150  token */\n      and\n        /* \"NoBOverround.sol\":5152:5159  _amount */\n      dup4\n        /* \"NoBOverround.sol\":5131:5144  getTokenWeiUp */\n      tag_57\n        /* \"NoBOverround.sol\":5131:5160  getTokenWeiUp(token, _amount) */\n      jump\t// in\n    tag_762:\n        /* \"NoBOverround.sol\":5177:5179  CT */\n      sload(0x07)\n        /* \"NoBOverround.sol\":5201:5206  token */\n      sload(0x08)\n        /* \"NoBOverround.sol\":5248:5257  condition */\n      sload(0x06)\n        /* \"NoBOverround.sol\":5217:5273  CT.getCollectionId(bytes32(0), condition, 1 << _outcome) */\n      mload(0x40)\n      shl(0xe0, 0x856296f7)\n      dup2\n      mstore\n        /* \"NoBOverround.sol\":5166:5174  uint pos */\n      0x00\n        /* \"NoBOverround.sol\":5217:5273  CT.getCollectionId(bytes32(0), condition, 1 << _outcome) */\n      0x04\n      dup3\n      add\n        /* \"#utility.yul\":14533:14558   */\n      dup2\n      swap1\n      mstore\n        /* \"#utility.yul\":14574:14592   */\n      0x24\n      dup3\n      add\n        /* \"#utility.yul\":14567:14601   */\n      swap3\n      swap1\n      swap3\n      mstore\n        /* \"NoBOverround.sol\":5177:5179  CT */\n      0x01\n        /* \"NoBOverround.sol\":5259:5272  1 << _outcome */\n      dup9\n      shl\n        /* \"#utility.yul\":14617:14635   */\n      0x44\n      dup3\n      add\n        /* \"#utility.yul\":14610:14644   */\n      mstore\n        /* \"NoBOverround.sol\":5107:5160  uint n_outcome_tokens = getTokenWeiUp(token, _amount) */\n      swap4\n      swap5\n      pop\n        /* \"NoBOverround.sol\":5166:5174  uint pos */\n      swap3\n      sub(shl(0xa0, 0x01), 0x01)\n        /* \"NoBOverround.sol\":5177:5179  CT */\n      swap3\n      dup4\n      and\n      swap3\n        /* \"NoBOverround.sol\":5177:5193  CT.getPositionId */\n      0x39dd7530\n      swap3\n        /* \"NoBOverround.sol\":5201:5206  token */\n      and\n      swap1\n        /* \"NoBOverround.sol\":5177:5179  CT */\n      dup4\n      swap1\n        /* \"NoBOverround.sol\":5217:5235  CT.getCollectionId */\n      0x856296f7\n      swap1\n        /* \"#utility.yul\":14506:14524   */\n      0x64\n      add\n        /* \"NoBOverround.sol\":5217:5273  CT.getCollectionId(bytes32(0), condition, 1 << _outcome) */\n      0x20\n      mload(0x40)\n      dup1\n      dup4\n      sub\n      dup2\n      dup7\n      gas\n      staticcall\n      iszero\n      dup1\n      iszero\n      tag_765\n      jumpi\n      returndatasize\n      0x00\n      dup1\n      returndatacopy\n      revert(0x00, returndatasize)\n    tag_765:\n      pop\n      pop\n      pop\n      pop\n      mload(0x40)\n      returndatasize\n      not(0x1f)\n      0x1f\n      dup3\n      add\n      and\n      dup3\n      add\n      dup1\n      0x40\n      mstore\n      pop\n      dup2\n      add\n      swap1\n      tag_766\n      swap2\n      swap1\n      tag_240\n      jump\t// in\n    tag_766:\n        /* \"NoBOverround.sol\":5177:5274  CT.getPositionId(IERC20(token),... */\n      mload(0x40)\n      not(sub(shl(0xe0, 0x01), 0x01))\n      0xe0\n      dup6\n      swap1\n      shl\n      and\n      dup2\n      mstore\n      sub(shl(0xa0, 0x01), 0x01)\n        /* \"#utility.yul\":14863:14918   */\n      swap1\n      swap3\n      and\n        /* \"NoBOverround.sol\":5177:5274  CT.getPositionId(IERC20(token),... */\n      0x04\n      dup4\n      add\n        /* \"#utility.yul\":14845:14919   */\n      mstore\n        /* \"#utility.yul\":14935:14953   */\n      0x24\n      dup3\n      add\n        /* \"#utility.yul\":14928:14962   */\n      mstore\n        /* \"#utility.yul\":14818:14836   */\n      0x44\n      add\n        /* \"NoBOverround.sol\":5177:5274  CT.getPositionId(IERC20(token),... */\n      0x20\n      mload(0x40)\n      dup1\n      dup4\n      sub\n      dup2\n      dup7\n      gas\n      staticcall\n      iszero\n      dup1\n      iszero\n      tag_769\n      jumpi\n      returndatasize\n      0x00\n      dup1\n      returndatacopy\n      revert(0x00, returndatasize)\n    tag_769:\n      pop\n      pop\n      pop\n      pop\n      mload(0x40)\n      returndatasize\n      not(0x1f)\n      0x1f\n      dup3\n      add\n      and\n      dup3\n      add\n      dup1\n      0x40\n      mstore\n      pop\n      dup2\n      add\n      swap1\n      tag_770\n      swap2\n      swap1\n      tag_240\n      jump\t// in\n    tag_770:\n        /* \"NoBOverround.sol\":5304:5306  CT */\n      sload(0x07)\n        /* \"NoBOverround.sol\":5304:5336  CT.balanceOf(address(this), pos) */\n      mload(0x40)\n      shl(0xe1, 0x7eeac7)\n      dup2\n      mstore\n        /* \"NoBOverround.sol\":5325:5329  this */\n      address\n        /* \"NoBOverround.sol\":5304:5336  CT.balanceOf(address(this), pos) */\n      0x04\n      dup3\n      add\n        /* \"#utility.yul\":14845:14919   */\n      mstore\n        /* \"#utility.yul\":14935:14953   */\n      0x24\n      dup2\n      add\n        /* \"#utility.yul\":14928:14962   */\n      dup4\n      swap1\n      mstore\n        /* \"NoBOverround.sol\":5166:5274  uint pos = CT.getPositionId(IERC20(token),... */\n      swap2\n      swap3\n      pop\n        /* \"NoBOverround.sol\":5281:5301  uint contractBalance */\n      0x00\n      swap2\n      sub(shl(0xa0, 0x01), 0x01)\n        /* \"NoBOverround.sol\":5304:5306  CT */\n      swap1\n      swap2\n      and\n      swap1\n        /* \"NoBOverround.sol\":5304:5316  CT.balanceOf */\n      0xfdd58e\n      swap1\n        /* \"#utility.yul\":14818:14836   */\n      0x44\n      add\n        /* \"NoBOverround.sol\":5304:5336  CT.balanceOf(address(this), pos) */\n      0x20\n      mload(0x40)\n      dup1\n      dup4\n      sub\n      dup2\n      dup7\n      gas\n      staticcall\n      iszero\n      dup1\n      iszero\n      tag_773\n      jumpi\n      returndatasize\n      0x00\n      dup1\n      returndatacopy\n      revert(0x00, returndatasize)\n    tag_773:\n      pop\n      pop\n      pop\n      pop\n      mload(0x40)\n      returndatasize\n      not(0x1f)\n      0x1f\n      dup3\n      add\n      and\n      dup3\n      add\n      dup1\n      0x40\n      mstore\n      pop\n      dup2\n      add\n      swap1\n      tag_774\n      swap2\n      swap1\n      tag_240\n      jump\t// in\n    tag_774:\n        /* \"NoBOverround.sol\":5403:5470  DebugMinting(_outcome, contractBalance, n_outcome_tokens, willMint) */\n      0x40\n      dup1\n      mload\n        /* \"#utility.yul\":22595:22620   */\n      dup8\n      dup2\n      mstore\n        /* \"#utility.yul\":22651:22653   */\n      0x20\n        /* \"#utility.yul\":22636:22654   */\n      dup2\n      add\n        /* \"#utility.yul\":22629:22663   */\n      dup4\n      swap1\n      mstore\n        /* \"#utility.yul\":22679:22697   */\n      swap1\n      dup2\n      add\n        /* \"#utility.yul\":22672:22706   */\n      dup6\n      swap1\n      mstore\n        /* \"NoBOverround.sol\":5358:5392  contractBalance < n_outcome_tokens */\n      dup5\n      dup3\n      lt\n        /* \"#utility.yul\":22737:22739   */\n      0x60\n        /* \"#utility.yul\":22722:22740   */\n      dup3\n      add\n        /* \"#utility.yul\":22715:22765   */\n      dup2\n      swap1\n      mstore\n        /* \"NoBOverround.sol\":5281:5336  uint contractBalance = CT.balanceOf(address(this), pos) */\n      swap2\n      swap3\n      pop\n        /* \"NoBOverround.sol\":5403:5470  DebugMinting(_outcome, contractBalance, n_outcome_tokens, willMint) */\n      0xa473dc6cfd784f529bfcf1db106676ae5832ede00c2e72234a796e528bdbfbaa\n      swap1\n        /* \"#utility.yul\":22582:22585   */\n      0x80\n        /* \"#utility.yul\":22567:22586   */\n      add\n        /* \"NoBOverround.sol\":5403:5470  DebugMinting(_outcome, contractBalance, n_outcome_tokens, willMint) */\n      mload(0x40)\n      dup1\n      swap2\n      sub\n      swap1\n      log1\n        /* \"NoBOverround.sol\":5485:5493  willMint */\n      dup1\n        /* \"NoBOverround.sol\":5481:5710  if (willMint) {... */\n      iszero\n      tag_777\n      jumpi\n        /* \"NoBOverround.sol\":5512:5517  token */\n      sload(0x08)\n        /* \"NoBOverround.sol\":5535:5537  CT */\n      sload(0x07)\n      sub(shl(0xa0, 0x01), 0x01)\n        /* \"NoBOverround.sol\":5512:5517  token */\n      swap2\n      dup3\n      and\n      swap2\n        /* \"NoBOverround.sol\":5505:5526  IERC20(token).approve */\n      0x095ea7b3\n      swap2\n        /* \"NoBOverround.sol\":5535:5537  CT */\n      and\n        /* \"NoBOverround.sol\":5540:5569  getTokenWeiUp(token, _amount) */\n      tag_778\n        /* \"NoBOverround.sol\":5512:5517  token */\n      dup4\n        /* \"NoBOverround.sol\":5561:5568  _amount */\n      dup10\n        /* \"NoBOverround.sol\":5540:5553  getTokenWeiUp */\n      tag_57\n        /* \"NoBOverround.sol\":5540:5569  getTokenWeiUp(token, _amount) */\n      jump\t// in\n    tag_778:\n        /* \"NoBOverround.sol\":5505:5570  IERC20(token).approve(address(CT), getTokenWeiUp(token, _amount)) */\n      mload(0x40)\n      not(sub(shl(0xe0, 0x01), 0x01))\n      0xe0\n      dup6\n      swap1\n      shl\n      and\n      dup2\n      mstore\n      sub(shl(0xa0, 0x01), 0x01)\n        /* \"#utility.yul\":14863:14918   */\n      swap1\n      swap3\n      and\n        /* \"NoBOverround.sol\":5505:5570  IERC20(token).approve(address(CT), getTokenWeiUp(token, _amount)) */\n      0x04\n      dup4\n      add\n        /* \"#utility.yul\":14845:14919   */\n      mstore\n        /* \"#utility.yul\":14935:14953   */\n      0x24\n      dup3\n      add\n        /* \"#utility.yul\":14928:14962   */\n      mstore\n        /* \"#utility.yul\":14818:14836   */\n      0x44\n      add\n        /* \"NoBOverround.sol\":5505:5570  IERC20(token).approve(address(CT), getTokenWeiUp(token, _amount)) */\n      0x20\n      mload(0x40)\n      dup1\n      dup4\n      sub\n      dup2\n      0x00\n      dup8\n      gas\n      call\n      iszero\n      dup1\n      iszero\n      tag_781\n      jumpi\n      returndatasize\n      0x00\n      dup1\n      returndatacopy\n      revert(0x00, returndatasize)\n    tag_781:\n      pop\n      pop\n      pop\n      pop\n      mload(0x40)\n      returndatasize\n      not(0x1f)\n      0x1f\n      dup3\n      add\n      and\n      dup3\n      add\n      dup1\n      0x40\n      mstore\n      pop\n      dup2\n      add\n      swap1\n      tag_782\n      swap2\n      swap1\n      tag_542\n      jump\t// in\n    tag_782:\n      pop\n        /* \"NoBOverround.sol\":5580:5582  CT */\n      sload(0x07)\n        /* \"NoBOverround.sol\":5604:5609  token */\n      sload(0x08)\n        /* \"NoBOverround.sol\":5624:5633  condition */\n      sload(0x06)\n      sub(shl(0xa0, 0x01), 0x01)\n        /* \"NoBOverround.sol\":5580:5582  CT */\n      swap3\n      dup4\n      and\n      swap3\n        /* \"NoBOverround.sol\":5580:5596  CT.splitPosition */\n      0x72ce4275\n      swap3\n        /* \"NoBOverround.sol\":5604:5609  token */\n      and\n      swap1\n        /* \"NoBOverround.sol\":5580:5582  CT */\n      0x00\n      swap1\n        /* \"NoBOverround.sol\":5647:5684  getPositionAndDustPositions(_outcome) */\n      tag_783\n        /* \"NoBOverround.sol\":5675:5683  _outcome */\n      dup12\n        /* \"NoBOverround.sol\":5647:5674  getPositionAndDustPositions */\n      tag_125\n        /* \"NoBOverround.sol\":5647:5684  getPositionAndDustPositions(_outcome) */\n      jump\t// in\n    tag_783:\n        /* \"NoBOverround.sol\":5686:5702  n_outcome_tokens */\n      dup10\n        /* \"NoBOverround.sol\":5580:5703  CT.splitPosition(IERC20(token), bytes32(0), condition,... */\n      mload(0x40)\n      dup7\n      0xffffffff\n      and\n      0xe0\n      shl\n      dup2\n      mstore\n      0x04\n      add\n      tag_784\n      swap6\n      swap5\n      swap4\n      swap3\n      swap2\n      swap1\n      tag_544\n      jump\t// in\n    tag_784:\n      0x00\n      mload(0x40)\n      dup1\n      dup4\n      sub\n      dup2\n      0x00\n      dup8\n      dup1\n      extcodesize\n      iszero\n      dup1\n      iszero\n      tag_785\n      jumpi\n      0x00\n      dup1\n      revert\n    tag_785:\n      pop\n      gas\n      call\n      iszero\n      dup1\n      iszero\n      tag_787\n      jumpi\n      returndatasize\n      0x00\n      dup1\n      returndatacopy\n      revert(0x00, returndatasize)\n    tag_787:\n      pop\n      pop\n      pop\n      pop\n        /* \"NoBOverround.sol\":5481:5710  if (willMint) {... */\n    tag_777:\n        /* \"NoBOverround.sol\":5715:5717  CT */\n      sload(0x07)\n        /* \"NoBOverround.sol\":5715:5788  CT.safeTransferFrom(address(this), msg.sender, pos, n_outcome_tokens, '') */\n      mload(0x40)\n      shl(0xe1, 0x79212195)\n      dup2\n      mstore\n        /* \"NoBOverround.sol\":5743:5747  this */\n      address\n        /* \"NoBOverround.sol\":5715:5788  CT.safeTransferFrom(address(this), msg.sender, pos, n_outcome_tokens, '') */\n      0x04\n      dup3\n      add\n        /* \"#utility.yul\":18318:18352   */\n      mstore\n        /* \"NoBOverround.sol\":5750:5760  msg.sender */\n      caller\n        /* \"#utility.yul\":18368:18386   */\n      0x24\n      dup3\n      add\n        /* \"#utility.yul\":18361:18404   */\n      mstore\n        /* \"#utility.yul\":18420:18438   */\n      0x44\n      dup2\n      add\n        /* \"#utility.yul\":18413:18447   */\n      dup6\n      swap1\n      mstore\n        /* \"#utility.yul\":18463:18481   */\n      0x64\n      dup2\n      add\n        /* \"#utility.yul\":18456:18490   */\n      dup7\n      swap1\n      mstore\n        /* \"#utility.yul\":18527:18530   */\n      0xa0\n        /* \"#utility.yul\":18506:18525   */\n      0x84\n      dup3\n      add\n        /* \"#utility.yul\":18499:18531   */\n      mstore\n      0x00\n        /* \"#utility.yul\":18547:18566   */\n      0xa4\n      dup3\n      add\n        /* \"#utility.yul\":18540:18570   */\n      mstore\n      sub(shl(0xa0, 0x01), 0x01)\n        /* \"NoBOverround.sol\":5715:5717  CT */\n      swap1\n      swap2\n      and\n      swap1\n        /* \"NoBOverround.sol\":5715:5734  CT.safeTransferFrom */\n      0xf242432a\n      swap1\n        /* \"#utility.yul\":18587:18606   */\n      0xc4\n      add\n        /* \"NoBOverround.sol\":5715:5788  CT.safeTransferFrom(address(this), msg.sender, pos, n_outcome_tokens, '') */\n      0x00\n      mload(0x40)\n      dup1\n      dup4\n      sub\n      dup2\n      0x00\n      dup8\n      dup1\n      extcodesize\n      iszero\n      dup1\n      iszero\n      tag_789\n      jumpi\n      0x00\n      dup1\n      revert\n    tag_789:\n      pop\n      gas\n      call\n      iszero\n      dup1\n      iszero\n      tag_791\n      jumpi\n      returndatasize\n      0x00\n      dup1\n      returndatacopy\n      revert(0x00, returndatasize)\n    tag_791:\n      pop\n      pop\n      pop\n      pop\n        /* \"NoBOverround.sol\":5101:5793  {... */\n      pop\n      pop\n      pop\n      pop\n        /* \"NoBOverround.sol\":5007:5793  function _mintAndTransferOutcomeTokens(... */\n      pop\n      pop\n      jump\t// out\n        /* \"ABDKMath64x64.sol\":23164:24449  function divuu (uint256 x, uint256 y) private pure returns (uint128) {... */\n    tag_659:\n        /* \"ABDKMath64x64.sol\":23224:23231  uint128 */\n      0x00\n        /* \"ABDKMath64x64.sol\":23266:23267  y */\n      dup2\n        /* \"ABDKMath64x64.sol\":23271:23272  0 */\n      0x00\n        /* \"ABDKMath64x64.sol\":23266:23272  y != 0 */\n      sub\n        /* \"ABDKMath64x64.sol\":23257:23273  require (y != 0) */\n      tag_793\n      jumpi\n      0x00\n      dup1\n      revert\n    tag_793:\n        /* \"ABDKMath64x64.sol\":23282:23296  uint256 result */\n      0x00\n        /* \"ABDKMath64x64.sol\":23314:23364  0xFFFFFFFFFFFFFFFFFFFFFFFFFFFFFFFFFFFFFFFFFFFFFFFF */\n      0xffffffffffffffffffffffffffffffffffffffffffffffff\n        /* \"ABDKMath64x64.sol\":23309:23310  x */\n      dup5\n        /* \"ABDKMath64x64.sol\":23309:23364  x <= 0xFFFFFFFFFFFFFFFFFFFFFFFFFFFFFFFFFFFFFFFFFFFFFFFF */\n      gt\n        /* \"ABDKMath64x64.sol\":23305:24345  if (x <= 0xFFFFFFFFFFFFFFFFFFFFFFFFFFFFFFFFFFFFFFFFFFFFFFFF)... */\n      tag_794\n      jumpi\n        /* \"ABDKMath64x64.sol\":23395:23396  y */\n      dup3\n        /* \"ABDKMath64x64.sol\":23389:23391  64 */\n      0x40\n        /* \"ABDKMath64x64.sol\":23384:23385  x */\n      dup6\n        /* \"ABDKMath64x64.sol\":23384:23391  x << 64 */\n      swap1\n      shl\n        /* \"ABDKMath64x64.sol\":23383:23396  (x << 64) / y */\n      dup2\n      tag_796\n      jumpi\n      tag_796\n      tag_665\n      jump\t// in\n    tag_796:\n      div\n        /* \"ABDKMath64x64.sol\":23374:23396  result = (x << 64) / y */\n      swap1\n      pop\n        /* \"ABDKMath64x64.sol\":23305:24345  if (x <= 0xFFFFFFFFFFFFFFFFFFFFFFFFFFFFFFFFFFFFFFFFFFFFFFFF)... */\n      jump(tag_797)\n    tag_794:\n        /* \"ABDKMath64x64.sol\":23433:23436  192 */\n      0xc0\n        /* \"ABDKMath64x64.sol\":23459:23467  x >> 192 */\n      dup5\n      dup2\n      shr\n        /* \"ABDKMath64x64.sol\":23487:23498  0x100000000 */\n      0x0100000000\n        /* \"ABDKMath64x64.sol\":23481:23498  xc >= 0x100000000 */\n      dup2\n      lt\n        /* \"ABDKMath64x64.sol\":23477:23525  if (xc >= 0x100000000) { xc >>= 32; msb += 32; } */\n      tag_798\n      jumpi\n        /* \"ABDKMath64x64.sol\":23509:23511  32 */\n      0x20\n        /* \"ABDKMath64x64.sol\":23513:23522  msb += 32 */\n      swap2\n      dup3\n      add\n      swap2\n        /* \"ABDKMath64x64.sol\":23502:23511  xc >>= 32 */\n      shr\n        /* \"ABDKMath64x64.sol\":23477:23525  if (xc >= 0x100000000) { xc >>= 32; msb += 32; } */\n    tag_798:\n        /* \"ABDKMath64x64.sol\":23544:23551  0x10000 */\n      0x010000\n        /* \"ABDKMath64x64.sol\":23538:23540  xc */\n      dup2\n        /* \"ABDKMath64x64.sol\":23538:23551  xc >= 0x10000 */\n      lt\n        /* \"ABDKMath64x64.sol\":23534:23578  if (xc >= 0x10000) { xc >>= 16; msb += 16; } */\n      tag_799\n      jumpi\n        /* \"ABDKMath64x64.sol\":23562:23564  16 */\n      0x10\n        /* \"ABDKMath64x64.sol\":23566:23575  msb += 16 */\n      swap2\n      dup3\n      add\n      swap2\n        /* \"ABDKMath64x64.sol\":23555:23564  xc >>= 16 */\n      shr\n        /* \"ABDKMath64x64.sol\":23534:23578  if (xc >= 0x10000) { xc >>= 16; msb += 16; } */\n    tag_799:\n        /* \"ABDKMath64x64.sol\":23597:23602  0x100 */\n      0x0100\n        /* \"ABDKMath64x64.sol\":23591:23593  xc */\n      dup2\n        /* \"ABDKMath64x64.sol\":23591:23602  xc >= 0x100 */\n      lt\n        /* \"ABDKMath64x64.sol\":23587:23627  if (xc >= 0x100) { xc >>= 8; msb += 8; } */\n      tag_800\n      jumpi\n        /* \"ABDKMath64x64.sol\":23613:23614  8 */\n      0x08\n        /* \"ABDKMath64x64.sol\":23616:23624  msb += 8 */\n      swap2\n      dup3\n      add\n      swap2\n        /* \"ABDKMath64x64.sol\":23606:23614  xc >>= 8 */\n      shr\n        /* \"ABDKMath64x64.sol\":23587:23627  if (xc >= 0x100) { xc >>= 8; msb += 8; } */\n    tag_800:\n        /* \"ABDKMath64x64.sol\":23646:23650  0x10 */\n      0x10\n        /* \"ABDKMath64x64.sol\":23640:23642  xc */\n      dup2\n        /* \"ABDKMath64x64.sol\":23640:23650  xc >= 0x10 */\n      lt\n        /* \"ABDKMath64x64.sol\":23636:23675  if (xc >= 0x10) { xc >>= 4; msb += 4; } */\n      tag_801\n      jumpi\n        /* \"ABDKMath64x64.sol\":23661:23662  4 */\n      0x04\n        /* \"ABDKMath64x64.sol\":23664:23672  msb += 4 */\n      swap2\n      dup3\n      add\n      swap2\n        /* \"ABDKMath64x64.sol\":23654:23662  xc >>= 4 */\n      shr\n        /* \"ABDKMath64x64.sol\":23636:23675  if (xc >= 0x10) { xc >>= 4; msb += 4; } */\n    tag_801:\n        /* \"ABDKMath64x64.sol\":23694:23697  0x4 */\n      0x04\n        /* \"ABDKMath64x64.sol\":23688:23690  xc */\n      dup2\n        /* \"ABDKMath64x64.sol\":23688:23697  xc >= 0x4 */\n      lt\n        /* \"ABDKMath64x64.sol\":23684:23722  if (xc >= 0x4) { xc >>= 2; msb += 2; } */\n      tag_802\n      jumpi\n        /* \"ABDKMath64x64.sol\":23708:23709  2 */\n      0x02\n        /* \"ABDKMath64x64.sol\":23711:23719  msb += 2 */\n      swap2\n      dup3\n      add\n      swap2\n        /* \"ABDKMath64x64.sol\":23701:23709  xc >>= 2 */\n      shr\n        /* \"ABDKMath64x64.sol\":23684:23722  if (xc >= 0x4) { xc >>= 2; msb += 2; } */\n    tag_802:\n        /* \"ABDKMath64x64.sol\":23741:23744  0x2 */\n      0x02\n        /* \"ABDKMath64x64.sol\":23735:23737  xc */\n      dup2\n        /* \"ABDKMath64x64.sol\":23735:23744  xc >= 0x2 */\n      lt\n        /* \"ABDKMath64x64.sol\":23731:23754  if (xc >= 0x2) msb += 1 */\n      tag_803\n      jumpi\n        /* \"ABDKMath64x64.sol\":23753:23754  1 */\n      0x01\n        /* \"ABDKMath64x64.sol\":23746:23754  msb += 1 */\n      dup3\n      add\n      swap2\n      pop\n        /* \"ABDKMath64x64.sol\":23731:23754  if (xc >= 0x2) msb += 1 */\n    tag_803:\n        /* \"ABDKMath64x64.sol\":23842:23845  191 */\n      0xbf\n        /* \"ABDKMath64x64.sol\":23836:23839  msb */\n      dup3\n        /* \"ABDKMath64x64.sol\":23836:23845  msb - 191 */\n      sub\n        /* \"ABDKMath64x64.sol\":23831:23832  1 */\n      0x01\n        /* \"ABDKMath64x64.sol\":23827:23828  y */\n      dup7\n        /* \"ABDKMath64x64.sol\":23827:23832  y - 1 */\n      sub\n        /* \"ABDKMath64x64.sol\":23827:23845  y - 1 >> msb - 191 */\n      swap1\n      shr\n        /* \"ABDKMath64x64.sol\":23849:23850  1 */\n      0x01\n        /* \"ABDKMath64x64.sol\":23826:23850  (y - 1 >> msb - 191) + 1 */\n      add\n        /* \"ABDKMath64x64.sol\":23818:23821  msb */\n      dup3\n        /* \"ABDKMath64x64.sol\":23812:23815  255 */\n      0xff\n        /* \"ABDKMath64x64.sol\":23812:23821  255 - msb */\n      sub\n        /* \"ABDKMath64x64.sol\":23807:23808  x */\n      dup8\n        /* \"ABDKMath64x64.sol\":23807:23821  x << 255 - msb */\n      swap1\n      shl\n        /* \"ABDKMath64x64.sol\":23806:23851  (x << 255 - msb) / ((y - 1 >> msb - 191) + 1) */\n      dup2\n      tag_805\n      jumpi\n      tag_805\n      tag_665\n      jump\t// in\n    tag_805:\n      div\n        /* \"ABDKMath64x64.sol\":23797:23851  result = (x << 255 - msb) / ((y - 1 >> msb - 191) + 1) */\n      swap3\n      pop\n      sub(shl(0x80, 0x01), 0x01)\n        /* \"ABDKMath64x64.sol\":23870:23876  result */\n      dup4\n        /* \"ABDKMath64x64.sol\":23870:23914  result <= 0xFFFFFFFFFFFFFFFFFFFFFFFFFFFFFFFF */\n      gt\n      iszero\n        /* \"ABDKMath64x64.sol\":23861:23915  require (result <= 0xFFFFFFFFFFFFFFFFFFFFFFFFFFFFFFFF) */\n      tag_806\n      jumpi\n      0x00\n      dup1\n      revert\n    tag_806:\n        /* \"ABDKMath64x64.sol\":23954:23957  128 */\n      0x80\n        /* \"ABDKMath64x64.sol\":23949:23957  y >> 128 */\n      dup6\n      swap1\n      shr\n        /* \"ABDKMath64x64.sol\":23939:23958  result * (y >> 128) */\n      dup4\n      mul\n      sub(shl(0x80, 0x01), 0x01)\n        /* \"ABDKMath64x64.sol\":23991:24029  y & 0xFFFFFFFFFFFFFFFFFFFFFFFFFFFFFFFF */\n      dup7\n      and\n        /* \"ABDKMath64x64.sol\":23981:24030  result * (y & 0xFFFFFFFFFFFFFFFFFFFFFFFFFFFFFFFF) */\n      dup5\n      mul\n        /* \"ABDKMath64x64.sol\":24059:24062  192 */\n      0xc0\n        /* \"ABDKMath64x64.sol\":24054:24062  x >> 192 */\n      dup9\n      swap1\n      shr\n        /* \"ABDKMath64x64.sol\":24090:24092  64 */\n      0x40\n        /* \"ABDKMath64x64.sol\":24085:24092  x << 64 */\n      dup10\n      swap1\n      shl\n        /* \"ABDKMath64x64.sol\":24107:24114  xl < lo */\n      dup3\n      dup2\n      lt\n        /* \"ABDKMath64x64.sol\":24103:24123  if (xl < lo) xh -= 1 */\n      iszero\n      tag_807\n      jumpi\n        /* \"ABDKMath64x64.sol\":24122:24123  1 */\n      0x01\n        /* \"ABDKMath64x64.sol\":24116:24123  xh -= 1 */\n      dup3\n      sub\n      swap2\n      pop\n        /* \"ABDKMath64x64.sol\":24103:24123  if (xl < lo) xh -= 1 */\n    tag_807:\n        /* \"ABDKMath64x64.sol\":24199:24202  128 */\n      0x80\n        /* \"ABDKMath64x64.sol\":24193:24202  hi << 128 */\n      dup5\n      swap1\n      shl\n      swap3\n        /* \"ABDKMath64x64.sol\":24133:24141  xl -= lo */\n      swap1\n      sub\n        /* \"ABDKMath64x64.sol\":24216:24223  xl < lo */\n      dup3\n      dup2\n      lt\n        /* \"ABDKMath64x64.sol\":24212:24232  if (xl < lo) xh -= 1 */\n      iszero\n      tag_808\n      jumpi\n        /* \"ABDKMath64x64.sol\":24231:24232  1 */\n      0x01\n        /* \"ABDKMath64x64.sol\":24225:24232  xh -= 1 */\n      dup3\n      sub\n      swap2\n      pop\n        /* \"ABDKMath64x64.sol\":24212:24232  if (xl < lo) xh -= 1 */\n    tag_808:\n        /* \"ABDKMath64x64.sol\":24242:24250  xl -= lo */\n      dup3\n      swap1\n      sub\n        /* \"ABDKMath64x64.sol\":24320:24323  128 */\n      0x80\n        /* \"ABDKMath64x64.sol\":24314:24323  hi >> 128 */\n      dup5\n      swap1\n      shr\n        /* \"ABDKMath64x64.sol\":24308:24323  xh == hi >> 128 */\n      dup3\n      eq\n        /* \"ABDKMath64x64.sol\":24308:24336  xh == hi >> 128 ? xl / y : 1 */\n      tag_809\n      jumpi\n        /* \"ABDKMath64x64.sol\":24335:24336  1 */\n      0x01\n        /* \"ABDKMath64x64.sol\":24308:24336  xh == hi >> 128 ? xl / y : 1 */\n      jump(tag_810)\n    tag_809:\n        /* \"ABDKMath64x64.sol\":24331:24332  y */\n      dup9\n        /* \"ABDKMath64x64.sol\":24326:24328  xl */\n      dup2\n        /* \"ABDKMath64x64.sol\":24326:24332  xl / y */\n      dup2\n      tag_812\n      jumpi\n      tag_812\n      tag_665\n      jump\t// in\n    tag_812:\n      div\n        /* \"ABDKMath64x64.sol\":24308:24336  xh == hi >> 128 ? xl / y : 1 */\n    tag_810:\n        /* \"ABDKMath64x64.sol\":24298:24336  result += xh == hi >> 128 ? xl / y : 1 */\n      dup8\n      add\n      swap7\n      pop\n        /* \"ABDKMath64x64.sol\":23409:24345  {... */\n      pop\n      pop\n      pop\n      pop\n      pop\n      pop\n        /* \"ABDKMath64x64.sol\":23305:24345  if (x <= 0xFFFFFFFFFFFFFFFFFFFFFFFFFFFFFFFFFFFFFFFFFFFFFFFF)... */\n    tag_797:\n      sub(shl(0x80, 0x01), 0x01)\n        /* \"ABDKMath64x64.sol\":24362:24368  result */\n      dup2\n        /* \"ABDKMath64x64.sol\":24362:24406  result <= 0xFFFFFFFFFFFFFFFFFFFFFFFFFFFFFFFF */\n      gt\n      iszero\n        /* \"ABDKMath64x64.sol\":24353:24407  require (result <= 0xFFFFFFFFFFFFFFFFFFFFFFFFFFFFFFFF) */\n      tag_384\n      jumpi\n      0x00\n      dup1\n      revert\n        /* \"ABDKMath64x64.sol\":15544:22385  function exp_2 (int128 x) internal pure returns (int128) {... */\n    tag_672:\n        /* \"ABDKMath64x64.sol\":15593:15599  int128 */\n      0x00\n        /* \"ABDKMath64x64.sol\":15638:15658  0x400000000000000000 */\n      0x400000000000000000\n        /* \"ABDKMath64x64.sol\":15634:15635  x */\n      dup3\n        /* \"ABDKMath64x64.sol\":15634:15658  x < 0x400000000000000000 */\n      0x0f\n      signextend\n      slt\n        /* \"ABDKMath64x64.sol\":15625:15659  require (x < 0x400000000000000000) */\n      tag_815\n      jumpi\n      0x00\n      dup1\n      revert\n    tag_815:\n      not(0x3fffffffffffffffff)\n        /* \"ABDKMath64x64.sol\":15684:15685  x */\n      dup3\n        /* \"ABDKMath64x64.sol\":15684:15709  x < -0x400000000000000000 */\n      0x0f\n      signextend\n      slt\n        /* \"ABDKMath64x64.sol\":15680:15719  if (x < -0x400000000000000000) return 0 */\n      iszero\n      tag_816\n      jumpi\n      pop\n        /* \"ABDKMath64x64.sol\":15718:15719  0 */\n      0x00\n      swap2\n        /* \"ABDKMath64x64.sol\":15544:22385  function exp_2 (int128 x) internal pure returns (int128) {... */\n      swap1\n      pop\n      jump\t// out\n        /* \"ABDKMath64x64.sol\":15680:15719  if (x < -0x400000000000000000) return 0 */\n    tag_816:\n        /* \"ABDKMath64x64.sol\":15758:15792  0x80000000000000000000000000000000 */\n      0x80000000000000000000000000000000\n        /* \"ABDKMath64x64.sol\":15741:15755  uint256 result */\n      0x00\n        /* \"ABDKMath64x64.sol\":15809:15827  0x8000000000000000 */\n      0x8000000000000000\n        /* \"ABDKMath64x64.sol\":15805:15827  x & 0x8000000000000000 */\n      dup5\n      and\n        /* \"ABDKMath64x64.sol\":15805:15831  x & 0x8000000000000000 > 0 */\n      0x0f\n      signextend\n      sgt\n        /* \"ABDKMath64x64.sol\":15801:15901  if (x & 0x8000000000000000 > 0)... */\n      iszero\n      tag_817\n      jumpi\n        /* \"ABDKMath64x64.sol\":15859:15894  0x16A09E667F3BCC908B2FB1366EA957D3E */\n      0x016a09e667f3bcc908b2fb1366ea957d3e\n        /* \"ABDKMath64x64.sol\":15850:15894  result * 0x16A09E667F3BCC908B2FB1366EA957D3E */\n      mul\n        /* \"ABDKMath64x64.sol\":15898:15901  128 */\n      0x80\n        /* \"ABDKMath64x64.sol\":15850:15901  result * 0x16A09E667F3BCC908B2FB1366EA957D3E >> 128 */\n      shr\n        /* \"ABDKMath64x64.sol\":15801:15901  if (x & 0x8000000000000000 > 0)... */\n    tag_817:\n        /* \"ABDKMath64x64.sol\":15938:15939  0 */\n      0x00\n        /* \"ABDKMath64x64.sol\":15913:15914  x */\n      dup4\n        /* \"ABDKMath64x64.sol\":15917:15935  0x4000000000000000 */\n      0x4000000000000000\n        /* \"ABDKMath64x64.sol\":15913:15935  x & 0x4000000000000000 */\n      and\n        /* \"ABDKMath64x64.sol\":15913:15939  x & 0x4000000000000000 > 0 */\n      0x0f\n      signextend\n      sgt\n        /* \"ABDKMath64x64.sol\":15909:16009  if (x & 0x4000000000000000 > 0)... */\n      iszero\n      tag_818\n      jumpi\n        /* \"ABDKMath64x64.sol\":15967:16002  0x1306FE0A31B7152DE8D5A46305C85EDEC */\n      0x01306fe0a31b7152de8d5a46305c85edec\n        /* \"ABDKMath64x64.sol\":15958:16002  result * 0x1306FE0A31B7152DE8D5A46305C85EDEC */\n      mul\n        /* \"ABDKMath64x64.sol\":16006:16009  128 */\n      0x80\n        /* \"ABDKMath64x64.sol\":15958:16009  result * 0x1306FE0A31B7152DE8D5A46305C85EDEC >> 128 */\n      shr\n        /* \"ABDKMath64x64.sol\":15909:16009  if (x & 0x4000000000000000 > 0)... */\n    tag_818:\n        /* \"ABDKMath64x64.sol\":16046:16047  0 */\n      0x00\n        /* \"ABDKMath64x64.sol\":16021:16022  x */\n      dup4\n        /* \"ABDKMath64x64.sol\":16025:16043  0x2000000000000000 */\n      0x2000000000000000\n        /* \"ABDKMath64x64.sol\":16021:16043  x & 0x2000000000000000 */\n      and\n        /* \"ABDKMath64x64.sol\":16021:16047  x & 0x2000000000000000 > 0 */\n      0x0f\n      signextend\n      sgt\n        /* \"ABDKMath64x64.sol\":16017:16117  if (x & 0x2000000000000000 > 0)... */\n      iszero\n      tag_819\n      jumpi\n        /* \"ABDKMath64x64.sol\":16075:16110  0x1172B83C7D517ADCDF7C8C50EB14A791F */\n      0x01172b83c7d517adcdf7c8c50eb14a791f\n        /* \"ABDKMath64x64.sol\":16066:16110  result * 0x1172B83C7D517ADCDF7C8C50EB14A791F */\n      mul\n        /* \"ABDKMath64x64.sol\":16114:16117  128 */\n      0x80\n        /* \"ABDKMath64x64.sol\":16066:16117  result * 0x1172B83C7D517ADCDF7C8C50EB14A791F >> 128 */\n      shr\n        /* \"ABDKMath64x64.sol\":16017:16117  if (x & 0x2000000000000000 > 0)... */\n    tag_819:\n        /* \"ABDKMath64x64.sol\":16154:16155  0 */\n      0x00\n        /* \"ABDKMath64x64.sol\":16129:16130  x */\n      dup4\n        /* \"ABDKMath64x64.sol\":16133:16151  0x1000000000000000 */\n      0x1000000000000000\n        /* \"ABDKMath64x64.sol\":16129:16151  x & 0x1000000000000000 */\n      and\n        /* \"ABDKMath64x64.sol\":16129:16155  x & 0x1000000000000000 > 0 */\n      0x0f\n      signextend\n      sgt\n        /* \"ABDKMath64x64.sol\":16125:16225  if (x & 0x1000000000000000 > 0)... */\n      iszero\n      tag_820\n      jumpi\n        /* \"ABDKMath64x64.sol\":16183:16218  0x10B5586CF9890F6298B92B71842A98363 */\n      0x010b5586cf9890f6298b92b71842a98363\n        /* \"ABDKMath64x64.sol\":16174:16218  result * 0x10B5586CF9890F6298B92B71842A98363 */\n      mul\n        /* \"ABDKMath64x64.sol\":16222:16225  128 */\n      0x80\n        /* \"ABDKMath64x64.sol\":16174:16225  result * 0x10B5586CF9890F6298B92B71842A98363 >> 128 */\n      shr\n        /* \"ABDKMath64x64.sol\":16125:16225  if (x & 0x1000000000000000 > 0)... */\n    tag_820:\n        /* \"ABDKMath64x64.sol\":16261:16262  0 */\n      0x00\n        /* \"ABDKMath64x64.sol\":16237:16238  x */\n      dup4\n        /* \"ABDKMath64x64.sol\":16241:16258  0x800000000000000 */\n      0x0800000000000000\n        /* \"ABDKMath64x64.sol\":16237:16258  x & 0x800000000000000 */\n      and\n        /* \"ABDKMath64x64.sol\":16237:16262  x & 0x800000000000000 > 0 */\n      0x0f\n      signextend\n      sgt\n        /* \"ABDKMath64x64.sol\":16233:16332  if (x & 0x800000000000000 > 0)... */\n      iszero\n      tag_821\n      jumpi\n        /* \"ABDKMath64x64.sol\":16290:16325  0x1059B0D31585743AE7C548EB68CA417FD */\n      0x01059b0d31585743ae7c548eb68ca417fd\n        /* \"ABDKMath64x64.sol\":16281:16325  result * 0x1059B0D31585743AE7C548EB68CA417FD */\n      mul\n        /* \"ABDKMath64x64.sol\":16329:16332  128 */\n      0x80\n        /* \"ABDKMath64x64.sol\":16281:16332  result * 0x1059B0D31585743AE7C548EB68CA417FD >> 128 */\n      shr\n        /* \"ABDKMath64x64.sol\":16233:16332  if (x & 0x800000000000000 > 0)... */\n    tag_821:\n        /* \"ABDKMath64x64.sol\":16368:16369  0 */\n      0x00\n        /* \"ABDKMath64x64.sol\":16344:16345  x */\n      dup4\n        /* \"ABDKMath64x64.sol\":16348:16365  0x400000000000000 */\n      0x0400000000000000\n        /* \"ABDKMath64x64.sol\":16344:16365  x & 0x400000000000000 */\n      and\n        /* \"ABDKMath64x64.sol\":16344:16369  x & 0x400000000000000 > 0 */\n      0x0f\n      signextend\n      sgt\n        /* \"ABDKMath64x64.sol\":16340:16439  if (x & 0x400000000000000 > 0)... */\n      iszero\n      tag_822\n      jumpi\n        /* \"ABDKMath64x64.sol\":16397:16432  0x102C9A3E778060EE6F7CACA4F7A29BDE8 */\n      0x0102c9a3e778060ee6f7caca4f7a29bde8\n        /* \"ABDKMath64x64.sol\":16388:16432  result * 0x102C9A3E778060EE6F7CACA4F7A29BDE8 */\n      mul\n        /* \"ABDKMath64x64.sol\":16436:16439  128 */\n      0x80\n        /* \"ABDKMath64x64.sol\":16388:16439  result * 0x102C9A3E778060EE6F7CACA4F7A29BDE8 >> 128 */\n      shr\n        /* \"ABDKMath64x64.sol\":16340:16439  if (x & 0x400000000000000 > 0)... */\n    tag_822:\n        /* \"ABDKMath64x64.sol\":16475:16476  0 */\n      0x00\n        /* \"ABDKMath64x64.sol\":16451:16452  x */\n      dup4\n        /* \"ABDKMath64x64.sol\":16455:16472  0x200000000000000 */\n      0x0200000000000000\n        /* \"ABDKMath64x64.sol\":16451:16472  x & 0x200000000000000 */\n      and\n        /* \"ABDKMath64x64.sol\":16451:16476  x & 0x200000000000000 > 0 */\n      0x0f\n      signextend\n      sgt\n        /* \"ABDKMath64x64.sol\":16447:16546  if (x & 0x200000000000000 > 0)... */\n      iszero\n      tag_823\n      jumpi\n        /* \"ABDKMath64x64.sol\":16504:16539  0x10163DA9FB33356D84A66AE336DCDFA3F */\n      0x010163da9fb33356d84a66ae336dcdfa3f\n        /* \"ABDKMath64x64.sol\":16495:16539  result * 0x10163DA9FB33356D84A66AE336DCDFA3F */\n      mul\n        /* \"ABDKMath64x64.sol\":16543:16546  128 */\n      0x80\n        /* \"ABDKMath64x64.sol\":16495:16546  result * 0x10163DA9FB33356D84A66AE336DCDFA3F >> 128 */\n      shr\n        /* \"ABDKMath64x64.sol\":16447:16546  if (x & 0x200000000000000 > 0)... */\n    tag_823:\n        /* \"ABDKMath64x64.sol\":16582:16583  0 */\n      0x00\n        /* \"ABDKMath64x64.sol\":16558:16559  x */\n      dup4\n        /* \"ABDKMath64x64.sol\":16562:16579  0x100000000000000 */\n      0x0100000000000000\n        /* \"ABDKMath64x64.sol\":16558:16579  x & 0x100000000000000 */\n      and\n        /* \"ABDKMath64x64.sol\":16558:16583  x & 0x100000000000000 > 0 */\n      0x0f\n      signextend\n      sgt\n        /* \"ABDKMath64x64.sol\":16554:16653  if (x & 0x100000000000000 > 0)... */\n      iszero\n      tag_824\n      jumpi\n        /* \"ABDKMath64x64.sol\":16611:16646  0x100B1AFA5ABCBED6129AB13EC11DC9543 */\n      0x0100b1afa5abcbed6129ab13ec11dc9543\n        /* \"ABDKMath64x64.sol\":16602:16646  result * 0x100B1AFA5ABCBED6129AB13EC11DC9543 */\n      mul\n        /* \"ABDKMath64x64.sol\":16650:16653  128 */\n      0x80\n        /* \"ABDKMath64x64.sol\":16602:16653  result * 0x100B1AFA5ABCBED6129AB13EC11DC9543 >> 128 */\n      shr\n        /* \"ABDKMath64x64.sol\":16554:16653  if (x & 0x100000000000000 > 0)... */\n    tag_824:\n        /* \"ABDKMath64x64.sol\":16688:16689  0 */\n      0x00\n        /* \"ABDKMath64x64.sol\":16665:16666  x */\n      dup4\n        /* \"ABDKMath64x64.sol\":16669:16685  0x80000000000000 */\n      0x80000000000000\n        /* \"ABDKMath64x64.sol\":16665:16685  x & 0x80000000000000 */\n      and\n        /* \"ABDKMath64x64.sol\":16665:16689  x & 0x80000000000000 > 0 */\n      0x0f\n      signextend\n      sgt\n        /* \"ABDKMath64x64.sol\":16661:16759  if (x & 0x80000000000000 > 0)... */\n      iszero\n      tag_825\n      jumpi\n        /* \"ABDKMath64x64.sol\":16717:16752  0x10058C86DA1C09EA1FF19D294CF2F679B */\n      0x010058c86da1c09ea1ff19d294cf2f679b\n        /* \"ABDKMath64x64.sol\":16708:16752  result * 0x10058C86DA1C09EA1FF19D294CF2F679B */\n      mul\n        /* \"ABDKMath64x64.sol\":16756:16759  128 */\n      0x80\n        /* \"ABDKMath64x64.sol\":16708:16759  result * 0x10058C86DA1C09EA1FF19D294CF2F679B >> 128 */\n      shr\n        /* \"ABDKMath64x64.sol\":16661:16759  if (x & 0x80000000000000 > 0)... */\n    tag_825:\n        /* \"ABDKMath64x64.sol\":16794:16795  0 */\n      0x00\n        /* \"ABDKMath64x64.sol\":16771:16772  x */\n      dup4\n        /* \"ABDKMath64x64.sol\":16775:16791  0x40000000000000 */\n      0x40000000000000\n        /* \"ABDKMath64x64.sol\":16771:16791  x & 0x40000000000000 */\n      and\n        /* \"ABDKMath64x64.sol\":16771:16795  x & 0x40000000000000 > 0 */\n      0x0f\n      signextend\n      sgt\n        /* \"ABDKMath64x64.sol\":16767:16865  if (x & 0x40000000000000 > 0)... */\n      iszero\n      tag_826\n      jumpi\n        /* \"ABDKMath64x64.sol\":16823:16858  0x1002C605E2E8CEC506D21BFC89A23A00F */\n      0x01002c605e2e8cec506d21bfc89a23a00f\n        /* \"ABDKMath64x64.sol\":16814:16858  result * 0x1002C605E2E8CEC506D21BFC89A23A00F */\n      mul\n        /* \"ABDKMath64x64.sol\":16862:16865  128 */\n      0x80\n        /* \"ABDKMath64x64.sol\":16814:16865  result * 0x1002C605E2E8CEC506D21BFC89A23A00F >> 128 */\n      shr\n        /* \"ABDKMath64x64.sol\":16767:16865  if (x & 0x40000000000000 > 0)... */\n    tag_826:\n        /* \"ABDKMath64x64.sol\":16900:16901  0 */\n      0x00\n        /* \"ABDKMath64x64.sol\":16877:16878  x */\n      dup4\n        /* \"ABDKMath64x64.sol\":16881:16897  0x20000000000000 */\n      0x20000000000000\n        /* \"ABDKMath64x64.sol\":16877:16897  x & 0x20000000000000 */\n      and\n        /* \"ABDKMath64x64.sol\":16877:16901  x & 0x20000000000000 > 0 */\n      0x0f\n      signextend\n      sgt\n        /* \"ABDKMath64x64.sol\":16873:16971  if (x & 0x20000000000000 > 0)... */\n      iszero\n      tag_827\n      jumpi\n        /* \"ABDKMath64x64.sol\":16929:16964  0x100162F3904051FA128BCA9C55C31E5DF */\n      0x0100162f3904051fa128bca9c55c31e5df\n        /* \"ABDKMath64x64.sol\":16920:16964  result * 0x100162F3904051FA128BCA9C55C31E5DF */\n      mul\n        /* \"ABDKMath64x64.sol\":16968:16971  128 */\n      0x80\n        /* \"ABDKMath64x64.sol\":16920:16971  result * 0x100162F3904051FA128BCA9C55C31E5DF >> 128 */\n      shr\n        /* \"ABDKMath64x64.sol\":16873:16971  if (x & 0x20000000000000 > 0)... */\n    tag_827:\n        /* \"ABDKMath64x64.sol\":17006:17007  0 */\n      0x00\n        /* \"ABDKMath64x64.sol\":16983:16984  x */\n      dup4\n        /* \"ABDKMath64x64.sol\":16987:17003  0x10000000000000 */\n      0x10000000000000\n        /* \"ABDKMath64x64.sol\":16983:17003  x & 0x10000000000000 */\n      and\n        /* \"ABDKMath64x64.sol\":16983:17007  x & 0x10000000000000 > 0 */\n      0x0f\n      signextend\n      sgt\n        /* \"ABDKMath64x64.sol\":16979:17077  if (x & 0x10000000000000 > 0)... */\n      iszero\n      tag_828\n      jumpi\n        /* \"ABDKMath64x64.sol\":17035:17070  0x1000B175EFFDC76BA38E31671CA939725 */\n      0x01000b175effdc76ba38e31671ca939725\n        /* \"ABDKMath64x64.sol\":17026:17070  result * 0x1000B175EFFDC76BA38E31671CA939725 */\n      mul\n        /* \"ABDKMath64x64.sol\":17074:17077  128 */\n      0x80\n        /* \"ABDKMath64x64.sol\":17026:17077  result * 0x1000B175EFFDC76BA38E31671CA939725 >> 128 */\n      shr\n        /* \"ABDKMath64x64.sol\":16979:17077  if (x & 0x10000000000000 > 0)... */\n    tag_828:\n        /* \"ABDKMath64x64.sol\":17111:17112  0 */\n      0x00\n        /* \"ABDKMath64x64.sol\":17089:17090  x */\n      dup4\n        /* \"ABDKMath64x64.sol\":17093:17108  0x8000000000000 */\n      0x08000000000000\n        /* \"ABDKMath64x64.sol\":17089:17108  x & 0x8000000000000 */\n      and\n        /* \"ABDKMath64x64.sol\":17089:17112  x & 0x8000000000000 > 0 */\n      0x0f\n      signextend\n      sgt\n        /* \"ABDKMath64x64.sol\":17085:17182  if (x & 0x8000000000000 > 0)... */\n      iszero\n      tag_829\n      jumpi\n        /* \"ABDKMath64x64.sol\":17140:17175  0x100058BA01FB9F96D6CACD4B180917C3D */\n      0x0100058ba01fb9f96d6cacd4b180917c3d\n        /* \"ABDKMath64x64.sol\":17131:17175  result * 0x100058BA01FB9F96D6CACD4B180917C3D */\n      mul\n        /* \"ABDKMath64x64.sol\":17179:17182  128 */\n      0x80\n        /* \"ABDKMath64x64.sol\":17131:17182  result * 0x100058BA01FB9F96D6CACD4B180917C3D >> 128 */\n      shr\n        /* \"ABDKMath64x64.sol\":17085:17182  if (x & 0x8000000000000 > 0)... */\n    tag_829:\n        /* \"ABDKMath64x64.sol\":17216:17217  0 */\n      0x00\n        /* \"ABDKMath64x64.sol\":17194:17195  x */\n      dup4\n        /* \"ABDKMath64x64.sol\":17198:17213  0x4000000000000 */\n      0x04000000000000\n        /* \"ABDKMath64x64.sol\":17194:17213  x & 0x4000000000000 */\n      and\n        /* \"ABDKMath64x64.sol\":17194:17217  x & 0x4000000000000 > 0 */\n      0x0f\n      signextend\n      sgt\n        /* \"ABDKMath64x64.sol\":17190:17287  if (x & 0x4000000000000 > 0)... */\n      iszero\n      tag_830\n      jumpi\n        /* \"ABDKMath64x64.sol\":17245:17280  0x10002C5CC37DA9491D0985C348C68E7B3 */\n      0x010002c5cc37da9491d0985c348c68e7b3\n        /* \"ABDKMath64x64.sol\":17236:17280  result * 0x10002C5CC37DA9491D0985C348C68E7B3 */\n      mul\n        /* \"ABDKMath64x64.sol\":17284:17287  128 */\n      0x80\n        /* \"ABDKMath64x64.sol\":17236:17287  result * 0x10002C5CC37DA9491D0985C348C68E7B3 >> 128 */\n      shr\n        /* \"ABDKMath64x64.sol\":17190:17287  if (x & 0x4000000000000 > 0)... */\n    tag_830:\n        /* \"ABDKMath64x64.sol\":17321:17322  0 */\n      0x00\n        /* \"ABDKMath64x64.sol\":17299:17300  x */\n      dup4\n        /* \"ABDKMath64x64.sol\":17303:17318  0x2000000000000 */\n      0x02000000000000\n        /* \"ABDKMath64x64.sol\":17299:17318  x & 0x2000000000000 */\n      and\n        /* \"ABDKMath64x64.sol\":17299:17322  x & 0x2000000000000 > 0 */\n      0x0f\n      signextend\n      sgt\n        /* \"ABDKMath64x64.sol\":17295:17392  if (x & 0x2000000000000 > 0)... */\n      iszero\n      tag_831\n      jumpi\n        /* \"ABDKMath64x64.sol\":17350:17385  0x1000162E525EE054754457D5995292026 */\n      0x01000162e525ee054754457d5995292026\n        /* \"ABDKMath64x64.sol\":17341:17385  result * 0x1000162E525EE054754457D5995292026 */\n      mul\n        /* \"ABDKMath64x64.sol\":17389:17392  128 */\n      0x80\n        /* \"ABDKMath64x64.sol\":17341:17392  result * 0x1000162E525EE054754457D5995292026 >> 128 */\n      shr\n        /* \"ABDKMath64x64.sol\":17295:17392  if (x & 0x2000000000000 > 0)... */\n    tag_831:\n        /* \"ABDKMath64x64.sol\":17426:17427  0 */\n      0x00\n        /* \"ABDKMath64x64.sol\":17404:17405  x */\n      dup4\n        /* \"ABDKMath64x64.sol\":17408:17423  0x1000000000000 */\n      0x01000000000000\n        /* \"ABDKMath64x64.sol\":17404:17423  x & 0x1000000000000 */\n      and\n        /* \"ABDKMath64x64.sol\":17404:17427  x & 0x1000000000000 > 0 */\n      0x0f\n      signextend\n      sgt\n        /* \"ABDKMath64x64.sol\":17400:17497  if (x & 0x1000000000000 > 0)... */\n      iszero\n      tag_832\n      jumpi\n        /* \"ABDKMath64x64.sol\":17455:17490  0x10000B17255775C040618BF4A4ADE83FC */\n      0x010000b17255775c040618bf4a4ade83fc\n        /* \"ABDKMath64x64.sol\":17446:17490  result * 0x10000B17255775C040618BF4A4ADE83FC */\n      mul\n        /* \"ABDKMath64x64.sol\":17494:17497  128 */\n      0x80\n        /* \"ABDKMath64x64.sol\":17446:17497  result * 0x10000B17255775C040618BF4A4ADE83FC >> 128 */\n      shr\n        /* \"ABDKMath64x64.sol\":17400:17497  if (x & 0x1000000000000 > 0)... */\n    tag_832:\n        /* \"ABDKMath64x64.sol\":17530:17531  0 */\n      0x00\n        /* \"ABDKMath64x64.sol\":17509:17510  x */\n      dup4\n        /* \"ABDKMath64x64.sol\":17513:17527  0x800000000000 */\n      0x800000000000\n        /* \"ABDKMath64x64.sol\":17509:17527  x & 0x800000000000 */\n      and\n        /* \"ABDKMath64x64.sol\":17509:17531  x & 0x800000000000 > 0 */\n      0x0f\n      signextend\n      sgt\n        /* \"ABDKMath64x64.sol\":17505:17601  if (x & 0x800000000000 > 0)... */\n      iszero\n      tag_833\n      jumpi\n        /* \"ABDKMath64x64.sol\":17559:17594  0x1000058B91B5BC9AE2EED81E9B7D4CFAB */\n      0x01000058b91b5bc9ae2eed81e9b7d4cfab\n        /* \"ABDKMath64x64.sol\":17550:17594  result * 0x1000058B91B5BC9AE2EED81E9B7D4CFAB */\n      mul\n        /* \"ABDKMath64x64.sol\":17598:17601  128 */\n      0x80\n        /* \"ABDKMath64x64.sol\":17550:17601  result * 0x1000058B91B5BC9AE2EED81E9B7D4CFAB >> 128 */\n      shr\n        /* \"ABDKMath64x64.sol\":17505:17601  if (x & 0x800000000000 > 0)... */\n    tag_833:\n        /* \"ABDKMath64x64.sol\":17634:17635  0 */\n      0x00\n        /* \"ABDKMath64x64.sol\":17613:17614  x */\n      dup4\n        /* \"ABDKMath64x64.sol\":17617:17631  0x400000000000 */\n      0x400000000000\n        /* \"ABDKMath64x64.sol\":17613:17631  x & 0x400000000000 */\n      and\n        /* \"ABDKMath64x64.sol\":17613:17635  x & 0x400000000000 > 0 */\n      0x0f\n      signextend\n      sgt\n        /* \"ABDKMath64x64.sol\":17609:17705  if (x & 0x400000000000 > 0)... */\n      iszero\n      tag_834\n      jumpi\n        /* \"ABDKMath64x64.sol\":17663:17698  0x100002C5C89D5EC6CA4D7C8ACC017B7C9 */\n      0x0100002c5c89d5ec6ca4d7c8acc017b7c9\n        /* \"ABDKMath64x64.sol\":17654:17698  result * 0x100002C5C89D5EC6CA4D7C8ACC017B7C9 */\n      mul\n        /* \"ABDKMath64x64.sol\":17702:17705  128 */\n      0x80\n        /* \"ABDKMath64x64.sol\":17654:17705  result * 0x100002C5C89D5EC6CA4D7C8ACC017B7C9 >> 128 */\n      shr\n        /* \"ABDKMath64x64.sol\":17609:17705  if (x & 0x400000000000 > 0)... */\n    tag_834:\n        /* \"ABDKMath64x64.sol\":17738:17739  0 */\n      0x00\n        /* \"ABDKMath64x64.sol\":17717:17718  x */\n      dup4\n        /* \"ABDKMath64x64.sol\":17721:17735  0x200000000000 */\n      0x200000000000\n        /* \"ABDKMath64x64.sol\":17717:17735  x & 0x200000000000 */\n      and\n        /* \"ABDKMath64x64.sol\":17717:17739  x & 0x200000000000 > 0 */\n      0x0f\n      signextend\n      sgt\n        /* \"ABDKMath64x64.sol\":17713:17809  if (x & 0x200000000000 > 0)... */\n      iszero\n      tag_835\n      jumpi\n        /* \"ABDKMath64x64.sol\":17767:17802  0x10000162E43F4F831060E02D839A9D16D */\n      0x010000162e43f4f831060e02d839a9d16d\n        /* \"ABDKMath64x64.sol\":17758:17802  result * 0x10000162E43F4F831060E02D839A9D16D */\n      mul\n        /* \"ABDKMath64x64.sol\":17806:17809  128 */\n      0x80\n        /* \"ABDKMath64x64.sol\":17758:17809  result * 0x10000162E43F4F831060E02D839A9D16D >> 128 */\n      shr\n        /* \"ABDKMath64x64.sol\":17713:17809  if (x & 0x200000000000 > 0)... */\n    tag_835:\n        /* \"ABDKMath64x64.sol\":17842:17843  0 */\n      0x00\n        /* \"ABDKMath64x64.sol\":17821:17822  x */\n      dup4\n        /* \"ABDKMath64x64.sol\":17825:17839  0x100000000000 */\n      0x100000000000\n        /* \"ABDKMath64x64.sol\":17821:17839  x & 0x100000000000 */\n      and\n        /* \"ABDKMath64x64.sol\":17821:17843  x & 0x100000000000 > 0 */\n      0x0f\n      signextend\n      sgt\n        /* \"ABDKMath64x64.sol\":17817:17913  if (x & 0x100000000000 > 0)... */\n      iszero\n      tag_836\n      jumpi\n        /* \"ABDKMath64x64.sol\":17871:17906  0x100000B1721BCFC99D9F890EA06911763 */\n      0x0100000b1721bcfc99d9f890ea06911763\n        /* \"ABDKMath64x64.sol\":17862:17906  result * 0x100000B1721BCFC99D9F890EA06911763 */\n      mul\n        /* \"ABDKMath64x64.sol\":17910:17913  128 */\n      0x80\n        /* \"ABDKMath64x64.sol\":17862:17913  result * 0x100000B1721BCFC99D9F890EA06911763 >> 128 */\n      shr\n        /* \"ABDKMath64x64.sol\":17817:17913  if (x & 0x100000000000 > 0)... */\n    tag_836:\n        /* \"ABDKMath64x64.sol\":17945:17946  0 */\n      0x00\n        /* \"ABDKMath64x64.sol\":17925:17926  x */\n      dup4\n        /* \"ABDKMath64x64.sol\":17929:17942  0x80000000000 */\n      0x080000000000\n        /* \"ABDKMath64x64.sol\":17925:17942  x & 0x80000000000 */\n      and\n        /* \"ABDKMath64x64.sol\":17925:17946  x & 0x80000000000 > 0 */\n      0x0f\n      signextend\n      sgt\n        /* \"ABDKMath64x64.sol\":17921:18016  if (x & 0x80000000000 > 0)... */\n      iszero\n      tag_837\n      jumpi\n        /* \"ABDKMath64x64.sol\":17974:18009  0x10000058B90CF1E6D97F9CA14DBCC1628 */\n      0x010000058b90cf1e6d97f9ca14dbcc1628\n        /* \"ABDKMath64x64.sol\":17965:18009  result * 0x10000058B90CF1E6D97F9CA14DBCC1628 */\n      mul\n        /* \"ABDKMath64x64.sol\":18013:18016  128 */\n      0x80\n        /* \"ABDKMath64x64.sol\":17965:18016  result * 0x10000058B90CF1E6D97F9CA14DBCC1628 >> 128 */\n      shr\n        /* \"ABDKMath64x64.sol\":17921:18016  if (x & 0x80000000000 > 0)... */\n    tag_837:\n        /* \"ABDKMath64x64.sol\":18048:18049  0 */\n      0x00\n        /* \"ABDKMath64x64.sol\":18028:18029  x */\n      dup4\n        /* \"ABDKMath64x64.sol\":18032:18045  0x40000000000 */\n      0x040000000000\n        /* \"ABDKMath64x64.sol\":18028:18045  x & 0x40000000000 */\n      and\n        /* \"ABDKMath64x64.sol\":18028:18049  x & 0x40000000000 > 0 */\n      0x0f\n      signextend\n      sgt\n        /* \"ABDKMath64x64.sol\":18024:18119  if (x & 0x40000000000 > 0)... */\n      iszero\n      tag_838\n      jumpi\n        /* \"ABDKMath64x64.sol\":18077:18112  0x1000002C5C863B73F016468F6BAC5CA2B */\n      0x01000002c5c863b73f016468f6bac5ca2b\n        /* \"ABDKMath64x64.sol\":18068:18112  result * 0x1000002C5C863B73F016468F6BAC5CA2B */\n      mul\n        /* \"ABDKMath64x64.sol\":18116:18119  128 */\n      0x80\n        /* \"ABDKMath64x64.sol\":18068:18119  result * 0x1000002C5C863B73F016468F6BAC5CA2B >> 128 */\n      shr\n        /* \"ABDKMath64x64.sol\":18024:18119  if (x & 0x40000000000 > 0)... */\n    tag_838:\n        /* \"ABDKMath64x64.sol\":18151:18152  0 */\n      0x00\n        /* \"ABDKMath64x64.sol\":18131:18132  x */\n      dup4\n        /* \"ABDKMath64x64.sol\":18135:18148  0x20000000000 */\n      0x020000000000\n        /* \"ABDKMath64x64.sol\":18131:18148  x & 0x20000000000 */\n      and\n        /* \"ABDKMath64x64.sol\":18131:18152  x & 0x20000000000 > 0 */\n      0x0f\n      signextend\n      sgt\n        /* \"ABDKMath64x64.sol\":18127:18222  if (x & 0x20000000000 > 0)... */\n      iszero\n      tag_839\n      jumpi\n        /* \"ABDKMath64x64.sol\":18180:18215  0x100000162E430E5A18F6119E3C02282A5 */\n      0x0100000162e430e5a18f6119e3c02282a5\n        /* \"ABDKMath64x64.sol\":18171:18215  result * 0x100000162E430E5A18F6119E3C02282A5 */\n      mul\n        /* \"ABDKMath64x64.sol\":18219:18222  128 */\n      0x80\n        /* \"ABDKMath64x64.sol\":18171:18222  result * 0x100000162E430E5A18F6119E3C02282A5 >> 128 */\n      shr\n        /* \"ABDKMath64x64.sol\":18127:18222  if (x & 0x20000000000 > 0)... */\n    tag_839:\n        /* \"ABDKMath64x64.sol\":18254:18255  0 */\n      0x00\n        /* \"ABDKMath64x64.sol\":18234:18235  x */\n      dup4\n        /* \"ABDKMath64x64.sol\":18238:18251  0x10000000000 */\n      0x010000000000\n        /* \"ABDKMath64x64.sol\":18234:18251  x & 0x10000000000 */\n      and\n        /* \"ABDKMath64x64.sol\":18234:18255  x & 0x10000000000 > 0 */\n      0x0f\n      signextend\n      sgt\n        /* \"ABDKMath64x64.sol\":18230:18325  if (x & 0x10000000000 > 0)... */\n      iszero\n      tag_840\n      jumpi\n        /* \"ABDKMath64x64.sol\":18283:18318  0x1000000B1721835514B86E6D96EFD1BFE */\n      0x01000000b1721835514b86e6d96efd1bfe\n        /* \"ABDKMath64x64.sol\":18274:18318  result * 0x1000000B1721835514B86E6D96EFD1BFE */\n      mul\n        /* \"ABDKMath64x64.sol\":18322:18325  128 */\n      0x80\n        /* \"ABDKMath64x64.sol\":18274:18325  result * 0x1000000B1721835514B86E6D96EFD1BFE >> 128 */\n      shr\n        /* \"ABDKMath64x64.sol\":18230:18325  if (x & 0x10000000000 > 0)... */\n    tag_840:\n        /* \"ABDKMath64x64.sol\":18356:18357  0 */\n      0x00\n        /* \"ABDKMath64x64.sol\":18337:18338  x */\n      dup4\n        /* \"ABDKMath64x64.sol\":18341:18353  0x8000000000 */\n      0x8000000000\n        /* \"ABDKMath64x64.sol\":18337:18353  x & 0x8000000000 */\n      and\n        /* \"ABDKMath64x64.sol\":18337:18357  x & 0x8000000000 > 0 */\n      0x0f\n      signextend\n      sgt\n        /* \"ABDKMath64x64.sol\":18333:18427  if (x & 0x8000000000 > 0)... */\n      iszero\n      tag_841\n      jumpi\n        /* \"ABDKMath64x64.sol\":18385:18420  0x100000058B90C0B48C6BE5DF846C5B2EF */\n      0x0100000058b90c0b48c6be5df846c5b2ef\n        /* \"ABDKMath64x64.sol\":18376:18420  result * 0x100000058B90C0B48C6BE5DF846C5B2EF */\n      mul\n        /* \"ABDKMath64x64.sol\":18424:18427  128 */\n      0x80\n        /* \"ABDKMath64x64.sol\":18376:18427  result * 0x100000058B90C0B48C6BE5DF846C5B2EF >> 128 */\n      shr\n        /* \"ABDKMath64x64.sol\":18333:18427  if (x & 0x8000000000 > 0)... */\n    tag_841:\n        /* \"ABDKMath64x64.sol\":18458:18459  0 */\n      0x00\n        /* \"ABDKMath64x64.sol\":18439:18440  x */\n      dup4\n        /* \"ABDKMath64x64.sol\":18443:18455  0x4000000000 */\n      0x4000000000\n        /* \"ABDKMath64x64.sol\":18439:18455  x & 0x4000000000 */\n      and\n        /* \"ABDKMath64x64.sol\":18439:18459  x & 0x4000000000 > 0 */\n      0x0f\n      signextend\n      sgt\n        /* \"ABDKMath64x64.sol\":18435:18529  if (x & 0x4000000000 > 0)... */\n      iszero\n      tag_842\n      jumpi\n        /* \"ABDKMath64x64.sol\":18487:18522  0x10000002C5C8601CC6B9E94213C72737A */\n      0x010000002c5c8601cc6b9e94213c72737a\n        /* \"ABDKMath64x64.sol\":18478:18522  result * 0x10000002C5C8601CC6B9E94213C72737A */\n      mul\n        /* \"ABDKMath64x64.sol\":18526:18529  128 */\n      0x80\n        /* \"ABDKMath64x64.sol\":18478:18529  result * 0x10000002C5C8601CC6B9E94213C72737A >> 128 */\n      shr\n        /* \"ABDKMath64x64.sol\":18435:18529  if (x & 0x4000000000 > 0)... */\n    tag_842:\n        /* \"ABDKMath64x64.sol\":18560:18561  0 */\n      0x00\n        /* \"ABDKMath64x64.sol\":18541:18542  x */\n      dup4\n        /* \"ABDKMath64x64.sol\":18545:18557  0x2000000000 */\n      0x2000000000\n        /* \"ABDKMath64x64.sol\":18541:18557  x & 0x2000000000 */\n      and\n        /* \"ABDKMath64x64.sol\":18541:18561  x & 0x2000000000 > 0 */\n      0x0f\n      signextend\n      sgt\n        /* \"ABDKMath64x64.sol\":18537:18631  if (x & 0x2000000000 > 0)... */\n      iszero\n      tag_843\n      jumpi\n        /* \"ABDKMath64x64.sol\":18589:18624  0x1000000162E42FFF037DF38AA2B219F06 */\n      0x01000000162e42fff037df38aa2b219f06\n        /* \"ABDKMath64x64.sol\":18580:18624  result * 0x1000000162E42FFF037DF38AA2B219F06 */\n      mul\n        /* \"ABDKMath64x64.sol\":18628:18631  128 */\n      0x80\n        /* \"ABDKMath64x64.sol\":18580:18631  result * 0x1000000162E42FFF037DF38AA2B219F06 >> 128 */\n      shr\n        /* \"ABDKMath64x64.sol\":18537:18631  if (x & 0x2000000000 > 0)... */\n    tag_843:\n        /* \"ABDKMath64x64.sol\":18662:18663  0 */\n      0x00\n        /* \"ABDKMath64x64.sol\":18643:18644  x */\n      dup4\n        /* \"ABDKMath64x64.sol\":18647:18659  0x1000000000 */\n      0x1000000000\n        /* \"ABDKMath64x64.sol\":18643:18659  x & 0x1000000000 */\n      and\n        /* \"ABDKMath64x64.sol\":18643:18663  x & 0x1000000000 > 0 */\n      0x0f\n      signextend\n      sgt\n        /* \"ABDKMath64x64.sol\":18639:18733  if (x & 0x1000000000 > 0)... */\n      iszero\n      tag_844\n      jumpi\n        /* \"ABDKMath64x64.sol\":18691:18726  0x10000000B17217FBA9C739AA5819F44F9 */\n      0x010000000b17217fba9c739aa5819f44f9\n        /* \"ABDKMath64x64.sol\":18682:18726  result * 0x10000000B17217FBA9C739AA5819F44F9 */\n      mul\n        /* \"ABDKMath64x64.sol\":18730:18733  128 */\n      0x80\n        /* \"ABDKMath64x64.sol\":18682:18733  result * 0x10000000B17217FBA9C739AA5819F44F9 >> 128 */\n      shr\n        /* \"ABDKMath64x64.sol\":18639:18733  if (x & 0x1000000000 > 0)... */\n    tag_844:\n        /* \"ABDKMath64x64.sol\":18763:18764  0 */\n      0x00\n        /* \"ABDKMath64x64.sol\":18745:18746  x */\n      dup4\n        /* \"ABDKMath64x64.sol\":18749:18760  0x800000000 */\n      0x0800000000\n        /* \"ABDKMath64x64.sol\":18745:18760  x & 0x800000000 */\n      and\n        /* \"ABDKMath64x64.sol\":18745:18764  x & 0x800000000 > 0 */\n      0x0f\n      signextend\n      sgt\n        /* \"ABDKMath64x64.sol\":18741:18834  if (x & 0x800000000 > 0)... */\n      iszero\n      tag_845\n      jumpi\n        /* \"ABDKMath64x64.sol\":18792:18827  0x1000000058B90BFCDEE5ACD3C1CEDC823 */\n      0x01000000058b90bfcdee5acd3c1cedc823\n        /* \"ABDKMath64x64.sol\":18783:18827  result * 0x1000000058B90BFCDEE5ACD3C1CEDC823 */\n      mul\n        /* \"ABDKMath64x64.sol\":18831:18834  128 */\n      0x80\n        /* \"ABDKMath64x64.sol\":18783:18834  result * 0x1000000058B90BFCDEE5ACD3C1CEDC823 >> 128 */\n      shr\n        /* \"ABDKMath64x64.sol\":18741:18834  if (x & 0x800000000 > 0)... */\n    tag_845:\n        /* \"ABDKMath64x64.sol\":18864:18865  0 */\n      0x00\n        /* \"ABDKMath64x64.sol\":18846:18847  x */\n      dup4\n        /* \"ABDKMath64x64.sol\":18850:18861  0x400000000 */\n      0x0400000000\n        /* \"ABDKMath64x64.sol\":18846:18861  x & 0x400000000 */\n      and\n        /* \"ABDKMath64x64.sol\":18846:18865  x & 0x400000000 > 0 */\n      0x0f\n      signextend\n      sgt\n        /* \"ABDKMath64x64.sol\":18842:18935  if (x & 0x400000000 > 0)... */\n      iszero\n      tag_846\n      jumpi\n        /* \"ABDKMath64x64.sol\":18893:18928  0x100000002C5C85FE31F35A6A30DA1BE50 */\n      0x0100000002c5c85fe31f35a6a30da1be50\n        /* \"ABDKMath64x64.sol\":18884:18928  result * 0x100000002C5C85FE31F35A6A30DA1BE50 */\n      mul\n        /* \"ABDKMath64x64.sol\":18932:18935  128 */\n      0x80\n        /* \"ABDKMath64x64.sol\":18884:18935  result * 0x100000002C5C85FE31F35A6A30DA1BE50 >> 128 */\n      shr\n        /* \"ABDKMath64x64.sol\":18842:18935  if (x & 0x400000000 > 0)... */\n    tag_846:\n        /* \"ABDKMath64x64.sol\":18965:18966  0 */\n      0x00\n        /* \"ABDKMath64x64.sol\":18947:18948  x */\n      dup4\n        /* \"ABDKMath64x64.sol\":18951:18962  0x200000000 */\n      0x0200000000\n        /* \"ABDKMath64x64.sol\":18947:18962  x & 0x200000000 */\n      and\n        /* \"ABDKMath64x64.sol\":18947:18966  x & 0x200000000 > 0 */\n      0x0f\n      signextend\n      sgt\n        /* \"ABDKMath64x64.sol\":18943:19036  if (x & 0x200000000 > 0)... */\n      iszero\n      tag_847\n      jumpi\n        /* \"ABDKMath64x64.sol\":18994:19029  0x10000000162E42FF0999CE3541B9FFFCF */\n      0x010000000162e42ff0999ce3541b9fffcf\n        /* \"ABDKMath64x64.sol\":18985:19029  result * 0x10000000162E42FF0999CE3541B9FFFCF */\n      mul\n        /* \"ABDKMath64x64.sol\":19033:19036  128 */\n      0x80\n        /* \"ABDKMath64x64.sol\":18985:19036  result * 0x10000000162E42FF0999CE3541B9FFFCF >> 128 */\n      shr\n        /* \"ABDKMath64x64.sol\":18943:19036  if (x & 0x200000000 > 0)... */\n    tag_847:\n        /* \"ABDKMath64x64.sol\":19066:19067  0 */\n      0x00\n        /* \"ABDKMath64x64.sol\":19048:19049  x */\n      dup4\n        /* \"ABDKMath64x64.sol\":19052:19063  0x100000000 */\n      0x0100000000\n        /* \"ABDKMath64x64.sol\":19048:19063  x & 0x100000000 */\n      and\n        /* \"ABDKMath64x64.sol\":19048:19067  x & 0x100000000 > 0 */\n      0x0f\n      signextend\n      sgt\n        /* \"ABDKMath64x64.sol\":19044:19137  if (x & 0x100000000 > 0)... */\n      iszero\n      tag_848\n      jumpi\n        /* \"ABDKMath64x64.sol\":19095:19130  0x100000000B17217F80F4EF5AADDA45554 */\n      0x0100000000b17217f80f4ef5aadda45554\n        /* \"ABDKMath64x64.sol\":19086:19130  result * 0x100000000B17217F80F4EF5AADDA45554 */\n      mul\n        /* \"ABDKMath64x64.sol\":19134:19137  128 */\n      0x80\n        /* \"ABDKMath64x64.sol\":19086:19137  result * 0x100000000B17217F80F4EF5AADDA45554 >> 128 */\n      shr\n        /* \"ABDKMath64x64.sol\":19044:19137  if (x & 0x100000000 > 0)... */\n    tag_848:\n        /* \"ABDKMath64x64.sol\":19166:19167  0 */\n      0x00\n        /* \"ABDKMath64x64.sol\":19149:19150  x */\n      dup4\n        /* \"ABDKMath64x64.sol\":19153:19163  0x80000000 */\n      0x80000000\n        /* \"ABDKMath64x64.sol\":19149:19163  x & 0x80000000 */\n      and\n        /* \"ABDKMath64x64.sol\":19149:19167  x & 0x80000000 > 0 */\n      0x0f\n      signextend\n      sgt\n        /* \"ABDKMath64x64.sol\":19145:19237  if (x & 0x80000000 > 0)... */\n      iszero\n      tag_849\n      jumpi\n        /* \"ABDKMath64x64.sol\":19195:19230  0x10000000058B90BFBF8479BD5A81B51AD */\n      0x010000000058b90bfbf8479bd5a81b51ad\n        /* \"ABDKMath64x64.sol\":19186:19230  result * 0x10000000058B90BFBF8479BD5A81B51AD */\n      mul\n        /* \"ABDKMath64x64.sol\":19234:19237  128 */\n      0x80\n        /* \"ABDKMath64x64.sol\":19186:19237  result * 0x10000000058B90BFBF8479BD5A81B51AD >> 128 */\n      shr\n        /* \"ABDKMath64x64.sol\":19145:19237  if (x & 0x80000000 > 0)... */\n    tag_849:\n        /* \"ABDKMath64x64.sol\":19266:19267  0 */\n      0x00\n        /* \"ABDKMath64x64.sol\":19249:19250  x */\n      dup4\n        /* \"ABDKMath64x64.sol\":19253:19263  0x40000000 */\n      0x40000000\n        /* \"ABDKMath64x64.sol\":19249:19263  x & 0x40000000 */\n      and\n        /* \"ABDKMath64x64.sol\":19249:19267  x & 0x40000000 > 0 */\n      0x0f\n      signextend\n      sgt\n        /* \"ABDKMath64x64.sol\":19245:19337  if (x & 0x40000000 > 0)... */\n      iszero\n      tag_850\n      jumpi\n        /* \"ABDKMath64x64.sol\":19295:19330  0x1000000002C5C85FDF84BD62AE30A74CC */\n      0x01000000002c5c85fdf84bd62ae30a74cc\n        /* \"ABDKMath64x64.sol\":19286:19330  result * 0x1000000002C5C85FDF84BD62AE30A74CC */\n      mul\n        /* \"ABDKMath64x64.sol\":19334:19337  128 */\n      0x80\n        /* \"ABDKMath64x64.sol\":19286:19337  result * 0x1000000002C5C85FDF84BD62AE30A74CC >> 128 */\n      shr\n        /* \"ABDKMath64x64.sol\":19245:19337  if (x & 0x40000000 > 0)... */\n    tag_850:\n        /* \"ABDKMath64x64.sol\":19366:19367  0 */\n      0x00\n        /* \"ABDKMath64x64.sol\":19349:19350  x */\n      dup4\n        /* \"ABDKMath64x64.sol\":19353:19363  0x20000000 */\n      0x20000000\n        /* \"ABDKMath64x64.sol\":19349:19363  x & 0x20000000 */\n      and\n        /* \"ABDKMath64x64.sol\":19349:19367  x & 0x20000000 > 0 */\n      0x0f\n      signextend\n      sgt\n        /* \"ABDKMath64x64.sol\":19345:19437  if (x & 0x20000000 > 0)... */\n      iszero\n      tag_851\n      jumpi\n        /* \"ABDKMath64x64.sol\":19395:19430  0x100000000162E42FEFB2FED257559BDAA */\n      0x0100000000162e42fefb2fed257559bdaa\n        /* \"ABDKMath64x64.sol\":19386:19430  result * 0x100000000162E42FEFB2FED257559BDAA */\n      mul\n        /* \"ABDKMath64x64.sol\":19434:19437  128 */\n      0x80\n        /* \"ABDKMath64x64.sol\":19386:19437  result * 0x100000000162E42FEFB2FED257559BDAA >> 128 */\n      shr\n        /* \"ABDKMath64x64.sol\":19345:19437  if (x & 0x20000000 > 0)... */\n    tag_851:\n        /* \"ABDKMath64x64.sol\":19466:19467  0 */\n      0x00\n        /* \"ABDKMath64x64.sol\":19449:19450  x */\n      dup4\n        /* \"ABDKMath64x64.sol\":19453:19463  0x10000000 */\n      0x10000000\n        /* \"ABDKMath64x64.sol\":19449:19463  x & 0x10000000 */\n      and\n        /* \"ABDKMath64x64.sol\":19449:19467  x & 0x10000000 > 0 */\n      0x0f\n      signextend\n      sgt\n        /* \"ABDKMath64x64.sol\":19445:19537  if (x & 0x10000000 > 0)... */\n      iszero\n      tag_852\n      jumpi\n        /* \"ABDKMath64x64.sol\":19495:19530  0x1000000000B17217F7D5A7716BBA4A9AE */\n      0x01000000000b17217f7d5a7716bba4a9ae\n        /* \"ABDKMath64x64.sol\":19486:19530  result * 0x1000000000B17217F7D5A7716BBA4A9AE */\n      mul\n        /* \"ABDKMath64x64.sol\":19534:19537  128 */\n      0x80\n        /* \"ABDKMath64x64.sol\":19486:19537  result * 0x1000000000B17217F7D5A7716BBA4A9AE >> 128 */\n      shr\n        /* \"ABDKMath64x64.sol\":19445:19537  if (x & 0x10000000 > 0)... */\n    tag_852:\n        /* \"ABDKMath64x64.sol\":19565:19566  0 */\n      0x00\n        /* \"ABDKMath64x64.sol\":19549:19550  x */\n      dup4\n        /* \"ABDKMath64x64.sol\":19553:19562  0x8000000 */\n      0x08000000\n        /* \"ABDKMath64x64.sol\":19549:19562  x & 0x8000000 */\n      and\n        /* \"ABDKMath64x64.sol\":19549:19566  x & 0x8000000 > 0 */\n      0x0f\n      signextend\n      sgt\n        /* \"ABDKMath64x64.sol\":19545:19636  if (x & 0x8000000 > 0)... */\n      iszero\n      tag_853\n      jumpi\n        /* \"ABDKMath64x64.sol\":19594:19629  0x100000000058B90BFBE9DDBAC5E109CCE */\n      0x0100000000058b90bfbe9ddbac5e109cce\n        /* \"ABDKMath64x64.sol\":19585:19629  result * 0x100000000058B90BFBE9DDBAC5E109CCE */\n      mul\n        /* \"ABDKMath64x64.sol\":19633:19636  128 */\n      0x80\n        /* \"ABDKMath64x64.sol\":19585:19636  result * 0x100000000058B90BFBE9DDBAC5E109CCE >> 128 */\n      shr\n        /* \"ABDKMath64x64.sol\":19545:19636  if (x & 0x8000000 > 0)... */\n    tag_853:\n        /* \"ABDKMath64x64.sol\":19664:19665  0 */\n      0x00\n        /* \"ABDKMath64x64.sol\":19648:19649  x */\n      dup4\n        /* \"ABDKMath64x64.sol\":19652:19661  0x4000000 */\n      0x04000000\n        /* \"ABDKMath64x64.sol\":19648:19661  x & 0x4000000 */\n      and\n        /* \"ABDKMath64x64.sol\":19648:19665  x & 0x4000000 > 0 */\n      0x0f\n      signextend\n      sgt\n        /* \"ABDKMath64x64.sol\":19644:19735  if (x & 0x4000000 > 0)... */\n      iszero\n      tag_854\n      jumpi\n        /* \"ABDKMath64x64.sol\":19693:19728  0x10000000002C5C85FDF4B15DE6F17EB0D */\n      0x010000000002c5c85fdf4b15de6f17eb0d\n        /* \"ABDKMath64x64.sol\":19684:19728  result * 0x10000000002C5C85FDF4B15DE6F17EB0D */\n      mul\n        /* \"ABDKMath64x64.sol\":19732:19735  128 */\n      0x80\n        /* \"ABDKMath64x64.sol\":19684:19735  result * 0x10000000002C5C85FDF4B15DE6F17EB0D >> 128 */\n      shr\n        /* \"ABDKMath64x64.sol\":19644:19735  if (x & 0x4000000 > 0)... */\n    tag_854:\n        /* \"ABDKMath64x64.sol\":19763:19764  0 */\n      0x00\n        /* \"ABDKMath64x64.sol\":19747:19748  x */\n      dup4\n        /* \"ABDKMath64x64.sol\":19751:19760  0x2000000 */\n      0x02000000\n        /* \"ABDKMath64x64.sol\":19747:19760  x & 0x2000000 */\n      and\n        /* \"ABDKMath64x64.sol\":19747:19764  x & 0x2000000 > 0 */\n      0x0f\n      signextend\n      sgt\n        /* \"ABDKMath64x64.sol\":19743:19834  if (x & 0x2000000 > 0)... */\n      iszero\n      tag_855\n      jumpi\n        /* \"ABDKMath64x64.sol\":19792:19827  0x1000000000162E42FEFA494F1478FDE05 */\n      0x01000000000162e42fefa494f1478fde05\n        /* \"ABDKMath64x64.sol\":19783:19827  result * 0x1000000000162E42FEFA494F1478FDE05 */\n      mul\n        /* \"ABDKMath64x64.sol\":19831:19834  128 */\n      0x80\n        /* \"ABDKMath64x64.sol\":19783:19834  result * 0x1000000000162E42FEFA494F1478FDE05 >> 128 */\n      shr\n        /* \"ABDKMath64x64.sol\":19743:19834  if (x & 0x2000000 > 0)... */\n    tag_855:\n        /* \"ABDKMath64x64.sol\":19862:19863  0 */\n      0x00\n        /* \"ABDKMath64x64.sol\":19846:19847  x */\n      dup4\n        /* \"ABDKMath64x64.sol\":19850:19859  0x1000000 */\n      0x01000000\n        /* \"ABDKMath64x64.sol\":19846:19859  x & 0x1000000 */\n      and\n        /* \"ABDKMath64x64.sol\":19846:19863  x & 0x1000000 > 0 */\n      0x0f\n      signextend\n      sgt\n        /* \"ABDKMath64x64.sol\":19842:19933  if (x & 0x1000000 > 0)... */\n      iszero\n      tag_856\n      jumpi\n        /* \"ABDKMath64x64.sol\":19891:19926  0x10000000000B17217F7D20CF927C8E94C */\n      0x010000000000b17217f7d20cf927c8e94c\n        /* \"ABDKMath64x64.sol\":19882:19926  result * 0x10000000000B17217F7D20CF927C8E94C */\n      mul\n        /* \"ABDKMath64x64.sol\":19930:19933  128 */\n      0x80\n        /* \"ABDKMath64x64.sol\":19882:19933  result * 0x10000000000B17217F7D20CF927C8E94C >> 128 */\n      shr\n        /* \"ABDKMath64x64.sol\":19842:19933  if (x & 0x1000000 > 0)... */\n    tag_856:\n        /* \"ABDKMath64x64.sol\":19960:19961  0 */\n      0x00\n        /* \"ABDKMath64x64.sol\":19945:19946  x */\n      dup4\n        /* \"ABDKMath64x64.sol\":19949:19957  0x800000 */\n      0x800000\n        /* \"ABDKMath64x64.sol\":19945:19957  x & 0x800000 */\n      and\n        /* \"ABDKMath64x64.sol\":19945:19961  x & 0x800000 > 0 */\n      0x0f\n      signextend\n      sgt\n        /* \"ABDKMath64x64.sol\":19941:20031  if (x & 0x800000 > 0)... */\n      iszero\n      tag_857\n      jumpi\n        /* \"ABDKMath64x64.sol\":19989:20024  0x1000000000058B90BFBE8F71CB4E4B33D */\n      0x01000000000058b90bfbe8f71cb4e4b33d\n        /* \"ABDKMath64x64.sol\":19980:20024  result * 0x1000000000058B90BFBE8F71CB4E4B33D */\n      mul\n        /* \"ABDKMath64x64.sol\":20028:20031  128 */\n      0x80\n        /* \"ABDKMath64x64.sol\":19980:20031  result * 0x1000000000058B90BFBE8F71CB4E4B33D >> 128 */\n      shr\n        /* \"ABDKMath64x64.sol\":19941:20031  if (x & 0x800000 > 0)... */\n    tag_857:\n        /* \"ABDKMath64x64.sol\":20058:20059  0 */\n      0x00\n        /* \"ABDKMath64x64.sol\":20043:20044  x */\n      dup4\n        /* \"ABDKMath64x64.sol\":20047:20055  0x400000 */\n      0x400000\n        /* \"ABDKMath64x64.sol\":20043:20055  x & 0x400000 */\n      and\n        /* \"ABDKMath64x64.sol\":20043:20059  x & 0x400000 > 0 */\n      0x0f\n      signextend\n      sgt\n        /* \"ABDKMath64x64.sol\":20039:20129  if (x & 0x400000 > 0)... */\n      iszero\n      tag_858\n      jumpi\n        /* \"ABDKMath64x64.sol\":20087:20122  0x100000000002C5C85FDF477B662B26945 */\n      0x0100000000002c5c85fdf477b662b26945\n        /* \"ABDKMath64x64.sol\":20078:20122  result * 0x100000000002C5C85FDF477B662B26945 */\n      mul\n        /* \"ABDKMath64x64.sol\":20126:20129  128 */\n      0x80\n        /* \"ABDKMath64x64.sol\":20078:20129  result * 0x100000000002C5C85FDF477B662B26945 >> 128 */\n      shr\n        /* \"ABDKMath64x64.sol\":20039:20129  if (x & 0x400000 > 0)... */\n    tag_858:\n        /* \"ABDKMath64x64.sol\":20156:20157  0 */\n      0x00\n        /* \"ABDKMath64x64.sol\":20141:20142  x */\n      dup4\n        /* \"ABDKMath64x64.sol\":20145:20153  0x200000 */\n      0x200000\n        /* \"ABDKMath64x64.sol\":20141:20153  x & 0x200000 */\n      and\n        /* \"ABDKMath64x64.sol\":20141:20157  x & 0x200000 > 0 */\n      0x0f\n      signextend\n      sgt\n        /* \"ABDKMath64x64.sol\":20137:20227  if (x & 0x200000 > 0)... */\n      iszero\n      tag_859\n      jumpi\n        /* \"ABDKMath64x64.sol\":20185:20220  0x10000000000162E42FEFA3AE53369388C */\n      0x010000000000162e42fefa3ae53369388c\n        /* \"ABDKMath64x64.sol\":20176:20220  result * 0x10000000000162E42FEFA3AE53369388C */\n      mul\n        /* \"ABDKMath64x64.sol\":20224:20227  128 */\n      0x80\n        /* \"ABDKMath64x64.sol\":20176:20227  result * 0x10000000000162E42FEFA3AE53369388C >> 128 */\n      shr\n        /* \"ABDKMath64x64.sol\":20137:20227  if (x & 0x200000 > 0)... */\n    tag_859:\n        /* \"ABDKMath64x64.sol\":20254:20255  0 */\n      0x00\n        /* \"ABDKMath64x64.sol\":20239:20240  x */\n      dup4\n        /* \"ABDKMath64x64.sol\":20243:20251  0x100000 */\n      0x100000\n        /* \"ABDKMath64x64.sol\":20239:20251  x & 0x100000 */\n      and\n        /* \"ABDKMath64x64.sol\":20239:20255  x & 0x100000 > 0 */\n      0x0f\n      signextend\n      sgt\n        /* \"ABDKMath64x64.sol\":20235:20325  if (x & 0x100000 > 0)... */\n      iszero\n      tag_860\n      jumpi\n        /* \"ABDKMath64x64.sol\":20283:20318  0x100000000000B17217F7D1D351A389D40 */\n      0x0100000000000b17217f7d1d351a389d40\n        /* \"ABDKMath64x64.sol\":20274:20318  result * 0x100000000000B17217F7D1D351A389D40 */\n      mul\n        /* \"ABDKMath64x64.sol\":20322:20325  128 */\n      0x80\n        /* \"ABDKMath64x64.sol\":20274:20325  result * 0x100000000000B17217F7D1D351A389D40 >> 128 */\n      shr\n        /* \"ABDKMath64x64.sol\":20235:20325  if (x & 0x100000 > 0)... */\n    tag_860:\n        /* \"ABDKMath64x64.sol\":20351:20352  0 */\n      0x00\n        /* \"ABDKMath64x64.sol\":20337:20338  x */\n      dup4\n        /* \"ABDKMath64x64.sol\":20341:20348  0x80000 */\n      0x080000\n        /* \"ABDKMath64x64.sol\":20337:20348  x & 0x80000 */\n      and\n        /* \"ABDKMath64x64.sol\":20337:20352  x & 0x80000 > 0 */\n      0x0f\n      signextend\n      sgt\n        /* \"ABDKMath64x64.sol\":20333:20422  if (x & 0x80000 > 0)... */\n      iszero\n      tag_861\n      jumpi\n        /* \"ABDKMath64x64.sol\":20380:20415  0x10000000000058B90BFBE8E8B2D3D4EDE */\n      0x010000000000058b90bfbe8e8b2d3d4ede\n        /* \"ABDKMath64x64.sol\":20371:20415  result * 0x10000000000058B90BFBE8E8B2D3D4EDE */\n      mul\n        /* \"ABDKMath64x64.sol\":20419:20422  128 */\n      0x80\n        /* \"ABDKMath64x64.sol\":20371:20422  result * 0x10000000000058B90BFBE8E8B2D3D4EDE >> 128 */\n      shr\n        /* \"ABDKMath64x64.sol\":20333:20422  if (x & 0x80000 > 0)... */\n    tag_861:\n        /* \"ABDKMath64x64.sol\":20448:20449  0 */\n      0x00\n        /* \"ABDKMath64x64.sol\":20434:20435  x */\n      dup4\n        /* \"ABDKMath64x64.sol\":20438:20445  0x40000 */\n      0x040000\n        /* \"ABDKMath64x64.sol\":20434:20445  x & 0x40000 */\n      and\n        /* \"ABDKMath64x64.sol\":20434:20449  x & 0x40000 > 0 */\n      0x0f\n      signextend\n      sgt\n        /* \"ABDKMath64x64.sol\":20430:20519  if (x & 0x40000 > 0)... */\n      iszero\n      tag_862\n      jumpi\n        /* \"ABDKMath64x64.sol\":20477:20512  0x1000000000002C5C85FDF4741BEA6E77E */\n      0x01000000000002c5c85fdf4741bea6e77e\n        /* \"ABDKMath64x64.sol\":20468:20512  result * 0x1000000000002C5C85FDF4741BEA6E77E */\n      mul\n        /* \"ABDKMath64x64.sol\":20516:20519  128 */\n      0x80\n        /* \"ABDKMath64x64.sol\":20468:20519  result * 0x1000000000002C5C85FDF4741BEA6E77E >> 128 */\n      shr\n        /* \"ABDKMath64x64.sol\":20430:20519  if (x & 0x40000 > 0)... */\n    tag_862:\n        /* \"ABDKMath64x64.sol\":20545:20546  0 */\n      0x00\n        /* \"ABDKMath64x64.sol\":20531:20532  x */\n      dup4\n        /* \"ABDKMath64x64.sol\":20535:20542  0x20000 */\n      0x020000\n        /* \"ABDKMath64x64.sol\":20531:20542  x & 0x20000 */\n      and\n        /* \"ABDKMath64x64.sol\":20531:20546  x & 0x20000 > 0 */\n      0x0f\n      signextend\n      sgt\n        /* \"ABDKMath64x64.sol\":20527:20616  if (x & 0x20000 > 0)... */\n      iszero\n      tag_863\n      jumpi\n        /* \"ABDKMath64x64.sol\":20574:20609  0x100000000000162E42FEFA39FE95583C2 */\n      0x0100000000000162e42fefa39fe95583c2\n        /* \"ABDKMath64x64.sol\":20565:20609  result * 0x100000000000162E42FEFA39FE95583C2 */\n      mul\n        /* \"ABDKMath64x64.sol\":20613:20616  128 */\n      0x80\n        /* \"ABDKMath64x64.sol\":20565:20616  result * 0x100000000000162E42FEFA39FE95583C2 >> 128 */\n      shr\n        /* \"ABDKMath64x64.sol\":20527:20616  if (x & 0x20000 > 0)... */\n    tag_863:\n        /* \"ABDKMath64x64.sol\":20642:20643  0 */\n      0x00\n        /* \"ABDKMath64x64.sol\":20628:20629  x */\n      dup4\n        /* \"ABDKMath64x64.sol\":20632:20639  0x10000 */\n      0x010000\n        /* \"ABDKMath64x64.sol\":20628:20639  x & 0x10000 */\n      and\n        /* \"ABDKMath64x64.sol\":20628:20643  x & 0x10000 > 0 */\n      0x0f\n      signextend\n      sgt\n        /* \"ABDKMath64x64.sol\":20624:20713  if (x & 0x10000 > 0)... */\n      iszero\n      tag_864\n      jumpi\n        /* \"ABDKMath64x64.sol\":20671:20706  0x1000000000000B17217F7D1CFB72B45E1 */\n      0x01000000000000b17217f7d1cfb72b45e1\n        /* \"ABDKMath64x64.sol\":20662:20706  result * 0x1000000000000B17217F7D1CFB72B45E1 */\n      mul\n        /* \"ABDKMath64x64.sol\":20710:20713  128 */\n      0x80\n        /* \"ABDKMath64x64.sol\":20662:20713  result * 0x1000000000000B17217F7D1CFB72B45E1 >> 128 */\n      shr\n        /* \"ABDKMath64x64.sol\":20624:20713  if (x & 0x10000 > 0)... */\n    tag_864:\n        /* \"ABDKMath64x64.sol\":20738:20739  0 */\n      0x00\n        /* \"ABDKMath64x64.sol\":20725:20726  x */\n      dup4\n        /* \"ABDKMath64x64.sol\":20729:20735  0x8000 */\n      0x8000\n        /* \"ABDKMath64x64.sol\":20725:20735  x & 0x8000 */\n      and\n        /* \"ABDKMath64x64.sol\":20725:20739  x & 0x8000 > 0 */\n      0x0f\n      signextend\n      sgt\n        /* \"ABDKMath64x64.sol\":20721:20809  if (x & 0x8000 > 0)... */\n      iszero\n      tag_865\n      jumpi\n        /* \"ABDKMath64x64.sol\":20767:20802  0x100000000000058B90BFBE8E7CC35C3F0 */\n      0x0100000000000058b90bfbe8e7cc35c3f0\n        /* \"ABDKMath64x64.sol\":20758:20802  result * 0x100000000000058B90BFBE8E7CC35C3F0 */\n      mul\n        /* \"ABDKMath64x64.sol\":20806:20809  128 */\n      0x80\n        /* \"ABDKMath64x64.sol\":20758:20809  result * 0x100000000000058B90BFBE8E7CC35C3F0 >> 128 */\n      shr\n        /* \"ABDKMath64x64.sol\":20721:20809  if (x & 0x8000 > 0)... */\n    tag_865:\n        /* \"ABDKMath64x64.sol\":20834:20835  0 */\n      0x00\n        /* \"ABDKMath64x64.sol\":20821:20822  x */\n      dup4\n        /* \"ABDKMath64x64.sol\":20825:20831  0x4000 */\n      0x4000\n        /* \"ABDKMath64x64.sol\":20821:20831  x & 0x4000 */\n      and\n        /* \"ABDKMath64x64.sol\":20821:20835  x & 0x4000 > 0 */\n      0x0f\n      signextend\n      sgt\n        /* \"ABDKMath64x64.sol\":20817:20905  if (x & 0x4000 > 0)... */\n      iszero\n      tag_866\n      jumpi\n        /* \"ABDKMath64x64.sol\":20863:20898  0x10000000000002C5C85FDF473E242EA38 */\n      0x010000000000002c5c85fdf473e242ea38\n        /* \"ABDKMath64x64.sol\":20854:20898  result * 0x10000000000002C5C85FDF473E242EA38 */\n      mul\n        /* \"ABDKMath64x64.sol\":20902:20905  128 */\n      0x80\n        /* \"ABDKMath64x64.sol\":20854:20905  result * 0x10000000000002C5C85FDF473E242EA38 >> 128 */\n      shr\n        /* \"ABDKMath64x64.sol\":20817:20905  if (x & 0x4000 > 0)... */\n    tag_866:\n        /* \"ABDKMath64x64.sol\":20930:20931  0 */\n      0x00\n        /* \"ABDKMath64x64.sol\":20917:20918  x */\n      dup4\n        /* \"ABDKMath64x64.sol\":20921:20927  0x2000 */\n      0x2000\n        /* \"ABDKMath64x64.sol\":20917:20927  x & 0x2000 */\n      and\n        /* \"ABDKMath64x64.sol\":20917:20931  x & 0x2000 > 0 */\n      0x0f\n      signextend\n      sgt\n        /* \"ABDKMath64x64.sol\":20913:21001  if (x & 0x2000 > 0)... */\n      iszero\n      tag_867\n      jumpi\n        /* \"ABDKMath64x64.sol\":20959:20994  0x1000000000000162E42FEFA39F02B772C */\n      0x01000000000000162e42fefa39f02b772c\n        /* \"ABDKMath64x64.sol\":20950:20994  result * 0x1000000000000162E42FEFA39F02B772C */\n      mul\n        /* \"ABDKMath64x64.sol\":20998:21001  128 */\n      0x80\n        /* \"ABDKMath64x64.sol\":20950:21001  result * 0x1000000000000162E42FEFA39F02B772C >> 128 */\n      shr\n        /* \"ABDKMath64x64.sol\":20913:21001  if (x & 0x2000 > 0)... */\n    tag_867:\n        /* \"ABDKMath64x64.sol\":21026:21027  0 */\n      0x00\n        /* \"ABDKMath64x64.sol\":21013:21014  x */\n      dup4\n        /* \"ABDKMath64x64.sol\":21017:21023  0x1000 */\n      0x1000\n        /* \"ABDKMath64x64.sol\":21013:21023  x & 0x1000 */\n      and\n        /* \"ABDKMath64x64.sol\":21013:21027  x & 0x1000 > 0 */\n      0x0f\n      signextend\n      sgt\n        /* \"ABDKMath64x64.sol\":21009:21097  if (x & 0x1000 > 0)... */\n      iszero\n      tag_868\n      jumpi\n        /* \"ABDKMath64x64.sol\":21055:21090  0x10000000000000B17217F7D1CF7D83C1A */\n      0x010000000000000b17217f7d1cf7d83c1a\n        /* \"ABDKMath64x64.sol\":21046:21090  result * 0x10000000000000B17217F7D1CF7D83C1A */\n      mul\n        /* \"ABDKMath64x64.sol\":21094:21097  128 */\n      0x80\n        /* \"ABDKMath64x64.sol\":21046:21097  result * 0x10000000000000B17217F7D1CF7D83C1A >> 128 */\n      shr\n        /* \"ABDKMath64x64.sol\":21009:21097  if (x & 0x1000 > 0)... */\n    tag_868:\n        /* \"ABDKMath64x64.sol\":21121:21122  0 */\n      0x00\n        /* \"ABDKMath64x64.sol\":21109:21110  x */\n      dup4\n        /* \"ABDKMath64x64.sol\":21113:21118  0x800 */\n      0x0800\n        /* \"ABDKMath64x64.sol\":21109:21118  x & 0x800 */\n      and\n        /* \"ABDKMath64x64.sol\":21109:21122  x & 0x800 > 0 */\n      0x0f\n      signextend\n      sgt\n        /* \"ABDKMath64x64.sol\":21105:21192  if (x & 0x800 > 0)... */\n      iszero\n      tag_869\n      jumpi\n        /* \"ABDKMath64x64.sol\":21150:21185  0x1000000000000058B90BFBE8E7BDCBE2E */\n      0x01000000000000058b90bfbe8e7bdcbe2e\n        /* \"ABDKMath64x64.sol\":21141:21185  result * 0x1000000000000058B90BFBE8E7BDCBE2E */\n      mul\n        /* \"ABDKMath64x64.sol\":21189:21192  128 */\n      0x80\n        /* \"ABDKMath64x64.sol\":21141:21192  result * 0x1000000000000058B90BFBE8E7BDCBE2E >> 128 */\n      shr\n        /* \"ABDKMath64x64.sol\":21105:21192  if (x & 0x800 > 0)... */\n    tag_869:\n        /* \"ABDKMath64x64.sol\":21216:21217  0 */\n      0x00\n        /* \"ABDKMath64x64.sol\":21204:21205  x */\n      dup4\n        /* \"ABDKMath64x64.sol\":21208:21213  0x400 */\n      0x0400\n        /* \"ABDKMath64x64.sol\":21204:21213  x & 0x400 */\n      and\n        /* \"ABDKMath64x64.sol\":21204:21217  x & 0x400 > 0 */\n      0x0f\n      signextend\n      sgt\n        /* \"ABDKMath64x64.sol\":21200:21287  if (x & 0x400 > 0)... */\n      iszero\n      tag_870\n      jumpi\n        /* \"ABDKMath64x64.sol\":21245:21280  0x100000000000002C5C85FDF473DEA871F */\n      0x0100000000000002c5c85fdf473dea871f\n        /* \"ABDKMath64x64.sol\":21236:21280  result * 0x100000000000002C5C85FDF473DEA871F */\n      mul\n        /* \"ABDKMath64x64.sol\":21284:21287  128 */\n      0x80\n        /* \"ABDKMath64x64.sol\":21236:21287  result * 0x100000000000002C5C85FDF473DEA871F >> 128 */\n      shr\n        /* \"ABDKMath64x64.sol\":21200:21287  if (x & 0x400 > 0)... */\n    tag_870:\n        /* \"ABDKMath64x64.sol\":21311:21312  0 */\n      0x00\n        /* \"ABDKMath64x64.sol\":21299:21300  x */\n      dup4\n        /* \"ABDKMath64x64.sol\":21303:21308  0x200 */\n      0x0200\n        /* \"ABDKMath64x64.sol\":21299:21308  x & 0x200 */\n      and\n        /* \"ABDKMath64x64.sol\":21299:21312  x & 0x200 > 0 */\n      0x0f\n      signextend\n      sgt\n        /* \"ABDKMath64x64.sol\":21295:21382  if (x & 0x200 > 0)... */\n      iszero\n      tag_871\n      jumpi\n        /* \"ABDKMath64x64.sol\":21340:21375  0x10000000000000162E42FEFA39EF44D91 */\n      0x010000000000000162e42fefa39ef44d91\n        /* \"ABDKMath64x64.sol\":21331:21375  result * 0x10000000000000162E42FEFA39EF44D91 */\n      mul\n        /* \"ABDKMath64x64.sol\":21379:21382  128 */\n      0x80\n        /* \"ABDKMath64x64.sol\":21331:21382  result * 0x10000000000000162E42FEFA39EF44D91 >> 128 */\n      shr\n        /* \"ABDKMath64x64.sol\":21295:21382  if (x & 0x200 > 0)... */\n    tag_871:\n        /* \"ABDKMath64x64.sol\":21406:21407  0 */\n      0x00\n        /* \"ABDKMath64x64.sol\":21394:21395  x */\n      dup4\n        /* \"ABDKMath64x64.sol\":21398:21403  0x100 */\n      0x0100\n        /* \"ABDKMath64x64.sol\":21394:21403  x & 0x100 */\n      and\n        /* \"ABDKMath64x64.sol\":21394:21407  x & 0x100 > 0 */\n      0x0f\n      signextend\n      sgt\n        /* \"ABDKMath64x64.sol\":21390:21477  if (x & 0x100 > 0)... */\n      iszero\n      tag_872\n      jumpi\n        /* \"ABDKMath64x64.sol\":21435:21470  0x100000000000000B17217F7D1CF79E949 */\n      0x0100000000000000b17217f7d1cf79e949\n        /* \"ABDKMath64x64.sol\":21426:21470  result * 0x100000000000000B17217F7D1CF79E949 */\n      mul\n        /* \"ABDKMath64x64.sol\":21474:21477  128 */\n      0x80\n        /* \"ABDKMath64x64.sol\":21426:21477  result * 0x100000000000000B17217F7D1CF79E949 >> 128 */\n      shr\n        /* \"ABDKMath64x64.sol\":21390:21477  if (x & 0x100 > 0)... */\n    tag_872:\n        /* \"ABDKMath64x64.sol\":21500:21501  0 */\n      0x00\n        /* \"ABDKMath64x64.sol\":21489:21490  x */\n      dup4\n        /* \"ABDKMath64x64.sol\":21493:21497  0x80 */\n      0x80\n        /* \"ABDKMath64x64.sol\":21489:21497  x & 0x80 */\n      and\n        /* \"ABDKMath64x64.sol\":21489:21501  x & 0x80 > 0 */\n      0x0f\n      signextend\n      sgt\n        /* \"ABDKMath64x64.sol\":21485:21571  if (x & 0x80 > 0)... */\n      iszero\n      tag_873\n      jumpi\n        /* \"ABDKMath64x64.sol\":21529:21564  0x10000000000000058B90BFBE8E7BCE544 */\n      0x010000000000000058b90bfbe8e7bce544\n        /* \"ABDKMath64x64.sol\":21520:21564  result * 0x10000000000000058B90BFBE8E7BCE544 */\n      mul\n        /* \"ABDKMath64x64.sol\":21568:21571  128 */\n      0x80\n        /* \"ABDKMath64x64.sol\":21520:21571  result * 0x10000000000000058B90BFBE8E7BCE544 >> 128 */\n      shr\n        /* \"ABDKMath64x64.sol\":21485:21571  if (x & 0x80 > 0)... */\n    tag_873:\n        /* \"ABDKMath64x64.sol\":21594:21595  0 */\n      0x00\n        /* \"ABDKMath64x64.sol\":21583:21584  x */\n      dup4\n        /* \"ABDKMath64x64.sol\":21587:21591  0x40 */\n      0x40\n        /* \"ABDKMath64x64.sol\":21583:21591  x & 0x40 */\n      and\n        /* \"ABDKMath64x64.sol\":21583:21595  x & 0x40 > 0 */\n      0x0f\n      signextend\n      sgt\n        /* \"ABDKMath64x64.sol\":21579:21665  if (x & 0x40 > 0)... */\n      iszero\n      tag_874\n      jumpi\n        /* \"ABDKMath64x64.sol\":21623:21658  0x1000000000000002C5C85FDF473DE6ECA */\n      0x01000000000000002c5c85fdf473de6eca\n        /* \"ABDKMath64x64.sol\":21614:21658  result * 0x1000000000000002C5C85FDF473DE6ECA */\n      mul\n        /* \"ABDKMath64x64.sol\":21662:21665  128 */\n      0x80\n        /* \"ABDKMath64x64.sol\":21614:21665  result * 0x1000000000000002C5C85FDF473DE6ECA >> 128 */\n      shr\n        /* \"ABDKMath64x64.sol\":21579:21665  if (x & 0x40 > 0)... */\n    tag_874:\n        /* \"ABDKMath64x64.sol\":21688:21689  0 */\n      0x00\n        /* \"ABDKMath64x64.sol\":21677:21678  x */\n      dup4\n        /* \"ABDKMath64x64.sol\":21681:21685  0x20 */\n      0x20\n        /* \"ABDKMath64x64.sol\":21677:21685  x & 0x20 */\n      and\n        /* \"ABDKMath64x64.sol\":21677:21689  x & 0x20 > 0 */\n      0x0f\n      signextend\n      sgt\n        /* \"ABDKMath64x64.sol\":21673:21759  if (x & 0x20 > 0)... */\n      iszero\n      tag_875\n      jumpi\n        /* \"ABDKMath64x64.sol\":21717:21752  0x100000000000000162E42FEFA39EF366F */\n      0x0100000000000000162e42fefa39ef366f\n        /* \"ABDKMath64x64.sol\":21708:21752  result * 0x100000000000000162E42FEFA39EF366F */\n      mul\n        /* \"ABDKMath64x64.sol\":21756:21759  128 */\n      0x80\n        /* \"ABDKMath64x64.sol\":21708:21759  result * 0x100000000000000162E42FEFA39EF366F >> 128 */\n      shr\n        /* \"ABDKMath64x64.sol\":21673:21759  if (x & 0x20 > 0)... */\n    tag_875:\n        /* \"ABDKMath64x64.sol\":21782:21783  0 */\n      0x00\n        /* \"ABDKMath64x64.sol\":21771:21772  x */\n      dup4\n        /* \"ABDKMath64x64.sol\":21775:21779  0x10 */\n      0x10\n        /* \"ABDKMath64x64.sol\":21771:21779  x & 0x10 */\n      and\n        /* \"ABDKMath64x64.sol\":21771:21783  x & 0x10 > 0 */\n      0x0f\n      signextend\n      sgt\n        /* \"ABDKMath64x64.sol\":21767:21853  if (x & 0x10 > 0)... */\n      iszero\n      tag_876\n      jumpi\n        /* \"ABDKMath64x64.sol\":21811:21846  0x1000000000000000B17217F7D1CF79AFA */\n      0x01000000000000000b17217f7d1cf79afa\n        /* \"ABDKMath64x64.sol\":21802:21846  result * 0x1000000000000000B17217F7D1CF79AFA */\n      mul\n        /* \"ABDKMath64x64.sol\":21850:21853  128 */\n      0x80\n        /* \"ABDKMath64x64.sol\":21802:21853  result * 0x1000000000000000B17217F7D1CF79AFA >> 128 */\n      shr\n        /* \"ABDKMath64x64.sol\":21767:21853  if (x & 0x10 > 0)... */\n    tag_876:\n        /* \"ABDKMath64x64.sol\":21875:21876  0 */\n      0x00\n        /* \"ABDKMath64x64.sol\":21865:21866  x */\n      dup4\n        /* \"ABDKMath64x64.sol\":21869:21872  0x8 */\n      0x08\n        /* \"ABDKMath64x64.sol\":21865:21872  x & 0x8 */\n      and\n        /* \"ABDKMath64x64.sol\":21865:21876  x & 0x8 > 0 */\n      0x0f\n      signextend\n      sgt\n        /* \"ABDKMath64x64.sol\":21861:21946  if (x & 0x8 > 0)... */\n      iszero\n      tag_877\n      jumpi\n        /* \"ABDKMath64x64.sol\":21904:21939  0x100000000000000058B90BFBE8E7BCD6D */\n      0x0100000000000000058b90bfbe8e7bcd6d\n        /* \"ABDKMath64x64.sol\":21895:21939  result * 0x100000000000000058B90BFBE8E7BCD6D */\n      mul\n        /* \"ABDKMath64x64.sol\":21943:21946  128 */\n      0x80\n        /* \"ABDKMath64x64.sol\":21895:21946  result * 0x100000000000000058B90BFBE8E7BCD6D >> 128 */\n      shr\n        /* \"ABDKMath64x64.sol\":21861:21946  if (x & 0x8 > 0)... */\n    tag_877:\n        /* \"ABDKMath64x64.sol\":21968:21969  0 */\n      0x00\n        /* \"ABDKMath64x64.sol\":21958:21959  x */\n      dup4\n        /* \"ABDKMath64x64.sol\":21962:21965  0x4 */\n      0x04\n        /* \"ABDKMath64x64.sol\":21958:21965  x & 0x4 */\n      and\n        /* \"ABDKMath64x64.sol\":21958:21969  x & 0x4 > 0 */\n      0x0f\n      signextend\n      sgt\n        /* \"ABDKMath64x64.sol\":21954:22039  if (x & 0x4 > 0)... */\n      iszero\n      tag_878\n      jumpi\n        /* \"ABDKMath64x64.sol\":21997:22032  0x10000000000000002C5C85FDF473DE6B2 */\n      0x010000000000000002c5c85fdf473de6b2\n        /* \"ABDKMath64x64.sol\":21988:22032  result * 0x10000000000000002C5C85FDF473DE6B2 */\n      mul\n        /* \"ABDKMath64x64.sol\":22036:22039  128 */\n      0x80\n        /* \"ABDKMath64x64.sol\":21988:22039  result * 0x10000000000000002C5C85FDF473DE6B2 >> 128 */\n      shr\n        /* \"ABDKMath64x64.sol\":21954:22039  if (x & 0x4 > 0)... */\n    tag_878:\n        /* \"ABDKMath64x64.sol\":22061:22062  0 */\n      0x00\n        /* \"ABDKMath64x64.sol\":22051:22052  x */\n      dup4\n        /* \"ABDKMath64x64.sol\":22055:22058  0x2 */\n      0x02\n        /* \"ABDKMath64x64.sol\":22051:22058  x & 0x2 */\n      and\n        /* \"ABDKMath64x64.sol\":22051:22062  x & 0x2 > 0 */\n      0x0f\n      signextend\n      sgt\n        /* \"ABDKMath64x64.sol\":22047:22132  if (x & 0x2 > 0)... */\n      iszero\n      tag_879\n      jumpi\n        /* \"ABDKMath64x64.sol\":22090:22125  0x1000000000000000162E42FEFA39EF358 */\n      0x01000000000000000162e42fefa39ef358\n        /* \"ABDKMath64x64.sol\":22081:22125  result * 0x1000000000000000162E42FEFA39EF358 */\n      mul\n        /* \"ABDKMath64x64.sol\":22129:22132  128 */\n      0x80\n        /* \"ABDKMath64x64.sol\":22081:22132  result * 0x1000000000000000162E42FEFA39EF358 >> 128 */\n      shr\n        /* \"ABDKMath64x64.sol\":22047:22132  if (x & 0x2 > 0)... */\n    tag_879:\n        /* \"ABDKMath64x64.sol\":22154:22155  0 */\n      0x00\n        /* \"ABDKMath64x64.sol\":22144:22145  x */\n      dup4\n        /* \"ABDKMath64x64.sol\":22148:22151  0x1 */\n      0x01\n        /* \"ABDKMath64x64.sol\":22144:22151  x & 0x1 */\n      and\n        /* \"ABDKMath64x64.sol\":22144:22155  x & 0x1 > 0 */\n      0x0f\n      signextend\n      sgt\n        /* \"ABDKMath64x64.sol\":22140:22225  if (x & 0x1 > 0)... */\n      iszero\n      tag_880\n      jumpi\n        /* \"ABDKMath64x64.sol\":22183:22218  0x10000000000000000B17217F7D1CF79AB */\n      0x010000000000000000b17217f7d1cf79ab\n        /* \"ABDKMath64x64.sol\":22174:22218  result * 0x10000000000000000B17217F7D1CF79AB */\n      mul\n        /* \"ABDKMath64x64.sol\":22222:22225  128 */\n      0x80\n        /* \"ABDKMath64x64.sol\":22174:22225  result * 0x10000000000000000B17217F7D1CF79AB >> 128 */\n      shr\n        /* \"ABDKMath64x64.sol\":22140:22225  if (x & 0x1 > 0)... */\n    tag_880:\n        /* \"ABDKMath64x64.sol\":22268:22275  x >> 64 */\n      0x0f\n      dup4\n      dup2\n      signextend\n        /* \"ABDKMath64x64.sol\":22273:22275  64 */\n      0x40\n        /* \"ABDKMath64x64.sol\":22268:22275  x >> 64 */\n      sar\n        /* \"ABDKMath64x64.sol\":22262:22264  63 */\n      0x3f\n        /* \"ABDKMath64x64.sol\":22262:22276  63 - (x >> 64) */\n      sub\n        /* \"ABDKMath64x64.sol\":22254:22277  int256 (63 - (x >> 64)) */\n      swap1\n      signextend\n        /* \"ABDKMath64x64.sol\":22234:22278  result >>= uint256 (int256 (63 - (x >> 64))) */\n      shr\n      sub(shl(0x7f, 0x01), 0x01)\n        /* \"ABDKMath64x64.sol\":22295:22333  result <= uint256 (int256 (MAX_64x64)) */\n      dup2\n      gt\n      iszero\n        /* \"ABDKMath64x64.sol\":22286:22334  require (result <= uint256 (int256 (MAX_64x64))) */\n      tag_187\n      jumpi\n      0x00\n      dup1\n      revert\n        /* \"ABDKMath64x64.sol\":14129:14967  function log_2 (int128 x) internal pure returns (int128) {... */\n    tag_679:\n        /* \"ABDKMath64x64.sol\":14178:14184  int128 */\n      0x00\n        /* \"ABDKMath64x64.sol\":14223:14224  0 */\n      dup1\n        /* \"ABDKMath64x64.sol\":14219:14220  x */\n      dup3\n        /* \"ABDKMath64x64.sol\":14219:14224  x > 0 */\n      0x0f\n      signextend\n      sgt\n        /* \"ABDKMath64x64.sol\":14210:14225  require (x > 0) */\n      tag_883\n      jumpi\n      0x00\n      dup1\n      revert\n    tag_883:\n        /* \"ABDKMath64x64.sol\":14234:14244  int256 msb */\n      0x00\n        /* \"ABDKMath64x64.sol\":14256:14269  int256 xc = x */\n      0x0f\n      dup4\n      swap1\n      signextend\n        /* \"ABDKMath64x64.sol\":14287:14306  0x10000000000000000 */\n      0x010000000000000000\n        /* \"ABDKMath64x64.sol\":14281:14306  xc >= 0x10000000000000000 */\n      dup2\n      slt\n        /* \"ABDKMath64x64.sol\":14277:14333  if (xc >= 0x10000000000000000) { xc >>= 64; msb += 64; } */\n      tag_884\n      jumpi\n        /* \"ABDKMath64x64.sol\":14317:14319  64 */\n      0x40\n        /* \"ABDKMath64x64.sol\":14321:14330  msb += 64 */\n      swap2\n      dup3\n      add\n      swap2\n        /* \"ABDKMath64x64.sol\":14310:14319  xc >>= 64 */\n      sar\n        /* \"ABDKMath64x64.sol\":14277:14333  if (xc >= 0x10000000000000000) { xc >>= 64; msb += 64; } */\n    tag_884:\n        /* \"ABDKMath64x64.sol\":14350:14361  0x100000000 */\n      0x0100000000\n        /* \"ABDKMath64x64.sol\":14344:14346  xc */\n      dup2\n        /* \"ABDKMath64x64.sol\":14344:14361  xc >= 0x100000000 */\n      slt\n        /* \"ABDKMath64x64.sol\":14340:14388  if (xc >= 0x100000000) { xc >>= 32; msb += 32; } */\n      tag_885\n      jumpi\n        /* \"ABDKMath64x64.sol\":14372:14374  32 */\n      0x20\n        /* \"ABDKMath64x64.sol\":14376:14385  msb += 32 */\n      swap2\n      dup3\n      add\n      swap2\n        /* \"ABDKMath64x64.sol\":14365:14374  xc >>= 32 */\n      sar\n        /* \"ABDKMath64x64.sol\":14340:14388  if (xc >= 0x100000000) { xc >>= 32; msb += 32; } */\n    tag_885:\n        /* \"ABDKMath64x64.sol\":14405:14412  0x10000 */\n      0x010000\n        /* \"ABDKMath64x64.sol\":14399:14401  xc */\n      dup2\n        /* \"ABDKMath64x64.sol\":14399:14412  xc >= 0x10000 */\n      slt\n        /* \"ABDKMath64x64.sol\":14395:14439  if (xc >= 0x10000) { xc >>= 16; msb += 16; } */\n      tag_886\n      jumpi\n        /* \"ABDKMath64x64.sol\":14423:14425  16 */\n      0x10\n        /* \"ABDKMath64x64.sol\":14427:14436  msb += 16 */\n      swap2\n      dup3\n      add\n      swap2\n        /* \"ABDKMath64x64.sol\":14416:14425  xc >>= 16 */\n      sar\n        /* \"ABDKMath64x64.sol\":14395:14439  if (xc >= 0x10000) { xc >>= 16; msb += 16; } */\n    tag_886:\n        /* \"ABDKMath64x64.sol\":14456:14461  0x100 */\n      0x0100\n        /* \"ABDKMath64x64.sol\":14450:14452  xc */\n      dup2\n        /* \"ABDKMath64x64.sol\":14450:14461  xc >= 0x100 */\n      slt\n        /* \"ABDKMath64x64.sol\":14446:14486  if (xc >= 0x100) { xc >>= 8; msb += 8; } */\n      tag_887\n      jumpi\n        /* \"ABDKMath64x64.sol\":14472:14473  8 */\n      0x08\n        /* \"ABDKMath64x64.sol\":14475:14483  msb += 8 */\n      swap2\n      dup3\n      add\n      swap2\n        /* \"ABDKMath64x64.sol\":14465:14473  xc >>= 8 */\n      sar\n        /* \"ABDKMath64x64.sol\":14446:14486  if (xc >= 0x100) { xc >>= 8; msb += 8; } */\n    tag_887:\n        /* \"ABDKMath64x64.sol\":14503:14507  0x10 */\n      0x10\n        /* \"ABDKMath64x64.sol\":14497:14499  xc */\n      dup2\n        /* \"ABDKMath64x64.sol\":14497:14507  xc >= 0x10 */\n      slt\n        /* \"ABDKMath64x64.sol\":14493:14532  if (xc >= 0x10) { xc >>= 4; msb += 4; } */\n      tag_888\n      jumpi\n        /* \"ABDKMath64x64.sol\":14518:14519  4 */\n      0x04\n        /* \"ABDKMath64x64.sol\":14521:14529  msb += 4 */\n      swap2\n      dup3\n      add\n      swap2\n        /* \"ABDKMath64x64.sol\":14511:14519  xc >>= 4 */\n      sar\n        /* \"ABDKMath64x64.sol\":14493:14532  if (xc >= 0x10) { xc >>= 4; msb += 4; } */\n    tag_888:\n        /* \"ABDKMath64x64.sol\":14549:14552  0x4 */\n      0x04\n        /* \"ABDKMath64x64.sol\":14543:14545  xc */\n      dup2\n        /* \"ABDKMath64x64.sol\":14543:14552  xc >= 0x4 */\n      slt\n        /* \"ABDKMath64x64.sol\":14539:14577  if (xc >= 0x4) { xc >>= 2; msb += 2; } */\n      tag_889\n      jumpi\n        /* \"ABDKMath64x64.sol\":14563:14564  2 */\n      0x02\n        /* \"ABDKMath64x64.sol\":14566:14574  msb += 2 */\n      swap2\n      dup3\n      add\n      swap2\n        /* \"ABDKMath64x64.sol\":14556:14564  xc >>= 2 */\n      sar\n        /* \"ABDKMath64x64.sol\":14539:14577  if (xc >= 0x4) { xc >>= 2; msb += 2; } */\n    tag_889:\n        /* \"ABDKMath64x64.sol\":14594:14597  0x2 */\n      0x02\n        /* \"ABDKMath64x64.sol\":14588:14590  xc */\n      dup2\n        /* \"ABDKMath64x64.sol\":14588:14597  xc >= 0x2 */\n      slt\n        /* \"ABDKMath64x64.sol\":14584:14607  if (xc >= 0x2) msb += 1 */\n      tag_890\n      jumpi\n        /* \"ABDKMath64x64.sol\":14606:14607  1 */\n      0x01\n        /* \"ABDKMath64x64.sol\":14599:14607  msb += 1 */\n      dup3\n      add\n      swap2\n      pop\n        /* \"ABDKMath64x64.sol\":14584:14607  if (xc >= 0x2) msb += 1 */\n    tag_890:\n      not(0x3f)\n        /* \"ABDKMath64x64.sol\":14664:14672  msb - 64 */\n      dup3\n      add\n        /* \"ABDKMath64x64.sol\":14676:14678  64 */\n      0x40\n        /* \"ABDKMath64x64.sol\":14664:14678  msb - 64 << 64 */\n      shl\n        /* \"ABDKMath64x64.sol\":14708:14718  int256 (x) */\n      0x0f\n      dup6\n      swap1\n      signextend\n        /* \"ABDKMath64x64.sol\":14732:14735  127 */\n      0x7f\n        /* \"ABDKMath64x64.sol\":14732:14741  127 - msb */\n      dup5\n      swap1\n      sub\n        /* \"ABDKMath64x64.sol\":14699:14742  uint256 (int256 (x)) << uint256 (127 - msb) */\n      shl\n        /* \"ABDKMath64x64.sol\":14768:14786  0x8000000000000000 */\n      0x8000000000000000\n        /* \"ABDKMath64x64.sol\":14750:14926  for (int256 bit = 0x8000000000000000; bit > 0; bit >>= 1) {... */\n    tag_891:\n        /* \"ABDKMath64x64.sol\":14794:14795  0 */\n      0x00\n        /* \"ABDKMath64x64.sol\":14788:14791  bit */\n      dup2\n        /* \"ABDKMath64x64.sol\":14788:14795  bit > 0 */\n      sgt\n        /* \"ABDKMath64x64.sol\":14750:14926  for (int256 bit = 0x8000000000000000; bit > 0; bit >>= 1) {... */\n      iszero\n      tag_442\n      jumpi\n        /* \"ABDKMath64x64.sol\":14818:14826  ux *= ux */\n      swap1\n      dup1\n      mul\n        /* \"ABDKMath64x64.sol\":14854:14857  255 */\n      0xff\n        /* \"ABDKMath64x64.sol\":14848:14857  ux >> 255 */\n      dup2\n      swap1\n      shr\n        /* \"ABDKMath64x64.sol\":14901:14917  bit * int256 (b) */\n      dup3\n      dup2\n      mul\n        /* \"ABDKMath64x64.sol\":14891:14917  result += bit * int256 (b) */\n      swap4\n      swap1\n      swap4\n      add\n      swap3\n        /* \"ABDKMath64x64.sol\":14874:14877  127 */\n      0x7f\n        /* \"ABDKMath64x64.sol\":14874:14881  127 + b */\n      add\n        /* \"ABDKMath64x64.sol\":14867:14881  ux >>= 127 + b */\n      shr\n      swap1\n        /* \"ABDKMath64x64.sol\":14805:14806  1 */\n      0x01\n        /* \"ABDKMath64x64.sol\":14797:14806  bit >>= 1 */\n      sar\n        /* \"ABDKMath64x64.sol\":14750:14926  for (int256 bit = 0x8000000000000000; bit > 0; bit >>= 1) {... */\n      jump(tag_891)\n        /* \"@openzeppelin/contracts/token/ERC20/utils/SafeERC20.sol\":8370:9090   */\n    tag_690:\n        /* \"@openzeppelin/contracts/token/ERC20/utils/SafeERC20.sol\":8450:8468   */\n      0x00\n        /* \"@openzeppelin/contracts/token/ERC20/utils/SafeERC20.sol\":8478:8497   */\n      dup1\n        /* \"@openzeppelin/contracts/token/ERC20/utils/SafeERC20.sol\":8616:8620   */\n      0x20\n        /* \"@openzeppelin/contracts/token/ERC20/utils/SafeERC20.sol\":8613:8614   */\n      0x00\n        /* \"@openzeppelin/contracts/token/ERC20/utils/SafeERC20.sol\":8606:8610   */\n      dup5\n        /* \"@openzeppelin/contracts/token/ERC20/utils/SafeERC20.sol\":8600:8611   */\n      mload\n        /* \"@openzeppelin/contracts/token/ERC20/utils/SafeERC20.sol\":8593:8597   */\n      0x20\n        /* \"@openzeppelin/contracts/token/ERC20/utils/SafeERC20.sol\":8587:8591   */\n      dup7\n        /* \"@openzeppelin/contracts/token/ERC20/utils/SafeERC20.sol\":8583:8598   */\n      add\n        /* \"@openzeppelin/contracts/token/ERC20/utils/SafeERC20.sol\":8580:8581   */\n      0x00\n        /* \"@openzeppelin/contracts/token/ERC20/utils/SafeERC20.sol\":8573:8578   */\n      dup9\n        /* \"@openzeppelin/contracts/token/ERC20/utils/SafeERC20.sol\":8566:8571   */\n      gas\n        /* \"@openzeppelin/contracts/token/ERC20/utils/SafeERC20.sol\":8561:8621   */\n      call\n        /* \"@openzeppelin/contracts/token/ERC20/utils/SafeERC20.sol\":8673:8680   */\n      dup1\n        /* \"@openzeppelin/contracts/token/ERC20/utils/SafeERC20.sol\":8663:8839   */\n      tag_896\n      jumpi\n        /* \"@openzeppelin/contracts/token/ERC20/utils/SafeERC20.sol\":8717:8721   */\n      0x40\n        /* \"@openzeppelin/contracts/token/ERC20/utils/SafeERC20.sol\":8711:8722   */\n      mload\n        /* \"@openzeppelin/contracts/token/ERC20/utils/SafeERC20.sol\":8762:8778   */\n      returndatasize\n        /* \"@openzeppelin/contracts/token/ERC20/utils/SafeERC20.sol\":8759:8760   */\n      0x00\n        /* \"@openzeppelin/contracts/token/ERC20/utils/SafeERC20.sol\":8754:8757   */\n      dup3\n        /* \"@openzeppelin/contracts/token/ERC20/utils/SafeERC20.sol\":8739:8779   */\n      returndatacopy\n        /* \"@openzeppelin/contracts/token/ERC20/utils/SafeERC20.sol\":8808:8824   */\n      returndatasize\n        /* \"@openzeppelin/contracts/token/ERC20/utils/SafeERC20.sol\":8803:8806   */\n      dup2\n        /* \"@openzeppelin/contracts/token/ERC20/utils/SafeERC20.sol\":8796:8825   */\n      revert\n        /* \"@openzeppelin/contracts/token/ERC20/utils/SafeERC20.sol\":8663:8839   */\n    tag_896:\n      pop\n      pop\n        /* \"@openzeppelin/contracts/token/ERC20/utils/SafeERC20.sol\":8916:8917   */\n      0x00\n        /* \"@openzeppelin/contracts/token/ERC20/utils/SafeERC20.sol\":8910:8918   */\n      mload\n        /* \"@openzeppelin/contracts/token/ERC20/utils/SafeERC20.sol\":8866:8882   */\n      returndatasize\n      swap2\n      pop\n        /* \"@openzeppelin/contracts/token/ERC20/utils/SafeERC20.sol\":8942:8957   */\n      dup2\n      iszero\n        /* \"@openzeppelin/contracts/token/ERC20/utils/SafeERC20.sol\":8942:9010   */\n      tag_897\n      jumpi\n        /* \"@openzeppelin/contracts/token/ERC20/utils/SafeERC20.sol\":8994:9005   */\n      dup1\n        /* \"@openzeppelin/contracts/token/ERC20/utils/SafeERC20.sol\":9009:9010   */\n      0x01\n        /* \"@openzeppelin/contracts/token/ERC20/utils/SafeERC20.sol\":8994:9010   */\n      eq\n      iszero\n        /* \"@openzeppelin/contracts/token/ERC20/utils/SafeERC20.sol\":8942:9010   */\n      jump(tag_898)\n    tag_897:\n      sub(shl(0xa0, 0x01), 0x01)\n        /* \"@openzeppelin/contracts/token/ERC20/utils/SafeERC20.sol\":8960:8986   */\n      dup5\n      and\n      extcodesize\n        /* \"@openzeppelin/contracts/token/ERC20/utils/SafeERC20.sol\":8960:8991   */\n      iszero\n        /* \"@openzeppelin/contracts/token/ERC20/utils/SafeERC20.sol\":8942:9010   */\n    tag_898:\n        /* \"@openzeppelin/contracts/token/ERC20/utils/SafeERC20.sol\":8938:9084   */\n      iszero\n      tag_694\n      jumpi\n        /* \"@openzeppelin/contracts/token/ERC20/utils/SafeERC20.sol\":9033:9073   */\n      mload(0x40)\n      shl(0xe0, 0x5274afe7)\n      dup2\n      mstore\n      sub(shl(0xa0, 0x01), 0x01)\n        /* \"#utility.yul\":5240:5295   */\n      dup6\n      and\n        /* \"@openzeppelin/contracts/token/ERC20/utils/SafeERC20.sol\":9033:9073   */\n      0x04\n      dup3\n      add\n        /* \"#utility.yul\":5222:5296   */\n      mstore\n        /* \"#utility.yul\":5195:5213   */\n      0x24\n      add\n        /* \"@openzeppelin/contracts/token/ERC20/utils/SafeERC20.sol\":9033:9073   */\n      tag_195\n        /* \"#utility.yul\":5076:5302   */\n      jump\n        /* \"#utility.yul\":14:300   */\n    tag_50:\n        /* \"#utility.yul\":72:78   */\n      0x00\n        /* \"#utility.yul\":125:127   */\n      0x20\n        /* \"#utility.yul\":113:122   */\n      dup3\n        /* \"#utility.yul\":104:111   */\n      dup5\n        /* \"#utility.yul\":100:123   */\n      sub\n        /* \"#utility.yul\":96:128   */\n      slt\n        /* \"#utility.yul\":93:145   */\n      iszero\n      tag_914\n      jumpi\n        /* \"#utility.yul\":141:142   */\n      0x00\n        /* \"#utility.yul\":138:139   */\n      dup1\n        /* \"#utility.yul\":131:143   */\n      revert\n        /* \"#utility.yul\":93:145   */\n    tag_914:\n        /* \"#utility.yul\":167:190   */\n      dup2\n      calldataload\n      not(sub(shl(0xe0, 0x01), 0x01))\n        /* \"#utility.yul\":219:251   */\n      dup2\n      and\n        /* \"#utility.yul\":209:252   */\n      dup2\n      eq\n        /* \"#utility.yul\":199:270   */\n      tag_384\n      jumpi\n        /* \"#utility.yul\":266:267   */\n      0x00\n        /* \"#utility.yul\":263:264   */\n      dup1\n        /* \"#utility.yul\":256:268   */\n      revert\n        /* \"#utility.yul\":497:693   */\n    tag_901:\n        /* \"#utility.yul\":565:585   */\n      dup1\n      calldataload\n      sub(shl(0xa0, 0x01), 0x01)\n        /* \"#utility.yul\":614:668   */\n      dup2\n      and\n        /* \"#utility.yul\":604:669   */\n      dup2\n      eq\n        /* \"#utility.yul\":594:687   */\n      tag_699\n      jumpi\n        /* \"#utility.yul\":683:684   */\n      0x00\n        /* \"#utility.yul\":680:681   */\n      dup1\n        /* \"#utility.yul\":673:685   */\n      revert\n        /* \"#utility.yul\":698:860   */\n    tag_902:\n        /* \"#utility.yul\":765:785   */\n      dup1\n      calldataload\n        /* \"#utility.yul\":825:827   */\n      0x0f\n        /* \"#utility.yul\":814:835   */\n      dup2\n      swap1\n      signextend\n        /* \"#utility.yul\":804:836   */\n      dup2\n      eq\n        /* \"#utility.yul\":794:854   */\n      tag_699\n      jumpi\n        /* \"#utility.yul\":850:851   */\n      0x00\n        /* \"#utility.yul\":847:848   */\n      dup1\n        /* \"#utility.yul\":840:852   */\n      revert\n        /* \"#utility.yul\":865:1123   */\n    tag_56:\n        /* \"#utility.yul\":932:938   */\n      0x00\n        /* \"#utility.yul\":940:946   */\n      dup1\n        /* \"#utility.yul\":993:995   */\n      0x40\n        /* \"#utility.yul\":981:990   */\n      dup4\n        /* \"#utility.yul\":972:979   */\n      dup6\n        /* \"#utility.yul\":968:991   */\n      sub\n        /* \"#utility.yul\":964:996   */\n      slt\n        /* \"#utility.yul\":961:1013   */\n      iszero\n      tag_922\n      jumpi\n        /* \"#utility.yul\":1009:1010   */\n      0x00\n        /* \"#utility.yul\":1006:1007   */\n      dup1\n        /* \"#utility.yul\":999:1011   */\n      revert\n        /* \"#utility.yul\":961:1013   */\n    tag_922:\n        /* \"#utility.yul\":1032:1061   */\n      tag_923\n        /* \"#utility.yul\":1051:1060   */\n      dup4\n        /* \"#utility.yul\":1032:1061   */\n      tag_901\n      jump\t// in\n    tag_923:\n        /* \"#utility.yul\":1022:1061   */\n      swap2\n      pop\n        /* \"#utility.yul\":1080:1117   */\n      tag_924\n        /* \"#utility.yul\":1113:1115   */\n      0x20\n        /* \"#utility.yul\":1102:1111   */\n      dup5\n        /* \"#utility.yul\":1098:1116   */\n      add\n        /* \"#utility.yul\":1080:1117   */\n      tag_902\n      jump\t// in\n    tag_924:\n        /* \"#utility.yul\":1070:1117   */\n      swap1\n      pop\n        /* \"#utility.yul\":865:1123   */\n      swap3\n      pop\n      swap3\n      swap1\n      pop\n      jump\t// out\n        /* \"#utility.yul\":1310:1564   */\n    tag_62:\n        /* \"#utility.yul\":1378:1384   */\n      0x00\n        /* \"#utility.yul\":1386:1392   */\n      dup1\n        /* \"#utility.yul\":1439:1441   */\n      0x40\n        /* \"#utility.yul\":1427:1436   */\n      dup4\n        /* \"#utility.yul\":1418:1425   */\n      dup6\n        /* \"#utility.yul\":1414:1437   */\n      sub\n        /* \"#utility.yul\":1410:1442   */\n      slt\n        /* \"#utility.yul\":1407:1459   */\n      iszero\n      tag_927\n      jumpi\n        /* \"#utility.yul\":1455:1456   */\n      0x00\n        /* \"#utility.yul\":1452:1453   */\n      dup1\n        /* \"#utility.yul\":1445:1457   */\n      revert\n        /* \"#utility.yul\":1407:1459   */\n    tag_927:\n        /* \"#utility.yul\":1478:1507   */\n      tag_928\n        /* \"#utility.yul\":1497:1506   */\n      dup4\n        /* \"#utility.yul\":1478:1507   */\n      tag_901\n      jump\t// in\n    tag_928:\n        /* \"#utility.yul\":1468:1507   */\n      swap5\n        /* \"#utility.yul\":1554:1556   */\n      0x20\n        /* \"#utility.yul\":1539:1557   */\n      swap4\n      swap1\n      swap4\n      add\n        /* \"#utility.yul\":1526:1558   */\n      calldataload\n      swap4\n      pop\n      pop\n      pop\n        /* \"#utility.yul\":1310:1564   */\n      jump\t// out\n        /* \"#utility.yul\":1765:1945   */\n    tag_77:\n        /* \"#utility.yul\":1824:1830   */\n      0x00\n        /* \"#utility.yul\":1877:1879   */\n      0x20\n        /* \"#utility.yul\":1865:1874   */\n      dup3\n        /* \"#utility.yul\":1856:1863   */\n      dup5\n        /* \"#utility.yul\":1852:1875   */\n      sub\n        /* \"#utility.yul\":1848:1880   */\n      slt\n        /* \"#utility.yul\":1845:1897   */\n      iszero\n      tag_931\n      jumpi\n        /* \"#utility.yul\":1893:1894   */\n      0x00\n        /* \"#utility.yul\":1890:1891   */\n      dup1\n        /* \"#utility.yul\":1883:1895   */\n      revert\n        /* \"#utility.yul\":1845:1897   */\n    tag_931:\n      pop\n        /* \"#utility.yul\":1916:1939   */\n      calldataload\n      swap2\n        /* \"#utility.yul\":1765:1945   */\n      swap1\n      pop\n      jump\t// out\n        /* \"#utility.yul\":1950:2479   */\n    tag_84:\n        /* \"#utility.yul\":2054:2060   */\n      0x00\n        /* \"#utility.yul\":2062:2068   */\n      dup1\n        /* \"#utility.yul\":2070:2076   */\n      0x00\n        /* \"#utility.yul\":2078:2084   */\n      dup1\n        /* \"#utility.yul\":2086:2092   */\n      0x00\n        /* \"#utility.yul\":2094:2100   */\n      dup1\n        /* \"#utility.yul\":2147:2150   */\n      0xc0\n        /* \"#utility.yul\":2135:2144   */\n      dup8\n        /* \"#utility.yul\":2126:2133   */\n      dup10\n        /* \"#utility.yul\":2122:2145   */\n      sub\n        /* \"#utility.yul\":2118:2151   */\n      slt\n        /* \"#utility.yul\":2115:2168   */\n      iszero\n      tag_933\n      jumpi\n        /* \"#utility.yul\":2164:2165   */\n      0x00\n        /* \"#utility.yul\":2161:2162   */\n      dup1\n        /* \"#utility.yul\":2154:2166   */\n      revert\n        /* \"#utility.yul\":2115:2168   */\n    tag_933:\n        /* \"#utility.yul\":2187:2216   */\n      tag_934\n        /* \"#utility.yul\":2206:2215   */\n      dup8\n        /* \"#utility.yul\":2187:2216   */\n      tag_901\n      jump\t// in\n    tag_934:\n        /* \"#utility.yul\":2177:2216   */\n      swap9\n        /* \"#utility.yul\":2263:2265   */\n      0x20\n        /* \"#utility.yul\":2248:2266   */\n      dup9\n      add\n        /* \"#utility.yul\":2235:2267   */\n      calldataload\n      swap9\n      pop\n        /* \"#utility.yul\":2314:2316   */\n      0x40\n        /* \"#utility.yul\":2299:2317   */\n      dup9\n      add\n        /* \"#utility.yul\":2286:2318   */\n      calldataload\n      swap8\n        /* \"#utility.yul\":2365:2367   */\n      0x60\n        /* \"#utility.yul\":2350:2368   */\n      dup2\n      add\n        /* \"#utility.yul\":2337:2369   */\n      calldataload\n      swap8\n      pop\n        /* \"#utility.yul\":2416:2419   */\n      0x80\n        /* \"#utility.yul\":2401:2420   */\n      dup2\n      add\n        /* \"#utility.yul\":2388:2421   */\n      calldataload\n      swap7\n      pop\n        /* \"#utility.yul\":2468:2471   */\n      0xa0\n        /* \"#utility.yul\":2453:2472   */\n      add\n        /* \"#utility.yul\":2440:2473   */\n      calldataload\n      swap5\n      pop\n        /* \"#utility.yul\":1950:2479   */\n      swap3\n      pop\n      pop\n      pop\n      jump\t// out\n        /* \"#utility.yul\":2484:2611   */\n    tag_246:\n        /* \"#utility.yul\":2545:2555   */\n      0x4e487b71\n        /* \"#utility.yul\":2540:2543   */\n      0xe0\n        /* \"#utility.yul\":2536:2556   */\n      shl\n        /* \"#utility.yul\":2533:2534   */\n      0x00\n        /* \"#utility.yul\":2526:2557   */\n      mstore\n        /* \"#utility.yul\":2576:2580   */\n      0x41\n        /* \"#utility.yul\":2573:2574   */\n      0x04\n        /* \"#utility.yul\":2566:2581   */\n      mstore\n        /* \"#utility.yul\":2600:2604   */\n      0x24\n        /* \"#utility.yul\":2597:2598   */\n      0x00\n        /* \"#utility.yul\":2590:2605   */\n      revert\n        /* \"#utility.yul\":2616:2865   */\n    tag_903:\n        /* \"#utility.yul\":2726:2728   */\n      0x1f\n        /* \"#utility.yul\":2707:2720   */\n      dup3\n      add\n      not(0x1f)\n        /* \"#utility.yul\":2703:2730   */\n      and\n        /* \"#utility.yul\":2691:2731   */\n      dup2\n      add\n        /* \"#utility.yul\":2761:2779   */\n      0xffffffffffffffff\n        /* \"#utility.yul\":2746:2780   */\n      dup2\n      gt\n        /* \"#utility.yul\":2782:2804   */\n      dup3\n      dup3\n      lt\n        /* \"#utility.yul\":2743:2805   */\n      or\n        /* \"#utility.yul\":2740:2828   */\n      iszero\n      tag_938\n      jumpi\n        /* \"#utility.yul\":2808:2826   */\n      tag_938\n      tag_246\n      jump\t// in\n    tag_938:\n        /* \"#utility.yul\":2844:2846   */\n      0x40\n        /* \"#utility.yul\":2837:2859   */\n      mstore\n      pop\n      pop\n        /* \"#utility.yul\":2616:2865   */\n      jump\t// out\n        /* \"#utility.yul\":2870:3669   */\n    tag_88:\n        /* \"#utility.yul\":2939:2945   */\n      0x00\n        /* \"#utility.yul\":2970:2972   */\n      0x20\n        /* \"#utility.yul\":3013:3015   */\n      dup1\n        /* \"#utility.yul\":3001:3010   */\n      dup4\n        /* \"#utility.yul\":2992:2999   */\n      dup6\n        /* \"#utility.yul\":2988:3011   */\n      sub\n        /* \"#utility.yul\":2984:3016   */\n      slt\n        /* \"#utility.yul\":2981:3033   */\n      iszero\n      tag_940\n      jumpi\n        /* \"#utility.yul\":3029:3030   */\n      0x00\n        /* \"#utility.yul\":3026:3027   */\n      dup1\n        /* \"#utility.yul\":3019:3031   */\n      revert\n        /* \"#utility.yul\":2981:3033   */\n    tag_940:\n        /* \"#utility.yul\":3069:3078   */\n      dup3\n        /* \"#utility.yul\":3056:3079   */\n      calldataload\n        /* \"#utility.yul\":3098:3116   */\n      0xffffffffffffffff\n        /* \"#utility.yul\":3139:3141   */\n      dup1\n        /* \"#utility.yul\":3131:3137   */\n      dup3\n        /* \"#utility.yul\":3128:3142   */\n      gt\n        /* \"#utility.yul\":3125:3159   */\n      iszero\n      tag_941\n      jumpi\n        /* \"#utility.yul\":3155:3156   */\n      0x00\n        /* \"#utility.yul\":3152:3153   */\n      dup1\n        /* \"#utility.yul\":3145:3157   */\n      revert\n        /* \"#utility.yul\":3125:3159   */\n    tag_941:\n        /* \"#utility.yul\":3193:3199   */\n      dup2\n        /* \"#utility.yul\":3182:3191   */\n      dup6\n        /* \"#utility.yul\":3178:3200   */\n      add\n        /* \"#utility.yul\":3168:3200   */\n      swap2\n      pop\n        /* \"#utility.yul\":3238:3245   */\n      dup6\n        /* \"#utility.yul\":3231:3235   */\n      0x1f\n        /* \"#utility.yul\":3227:3229   */\n      dup4\n        /* \"#utility.yul\":3223:3236   */\n      add\n        /* \"#utility.yul\":3219:3246   */\n      slt\n        /* \"#utility.yul\":3209:3264   */\n      tag_942\n      jumpi\n        /* \"#utility.yul\":3260:3261   */\n      0x00\n        /* \"#utility.yul\":3257:3258   */\n      dup1\n        /* \"#utility.yul\":3250:3262   */\n      revert\n        /* \"#utility.yul\":3209:3264   */\n    tag_942:\n        /* \"#utility.yul\":3296:3298   */\n      dup2\n        /* \"#utility.yul\":3283:3299   */\n      calldataload\n        /* \"#utility.yul\":3318:3320   */\n      dup2\n        /* \"#utility.yul\":3314:3316   */\n      dup2\n        /* \"#utility.yul\":3311:3321   */\n      gt\n        /* \"#utility.yul\":3308:3344   */\n      iszero\n      tag_944\n      jumpi\n        /* \"#utility.yul\":3324:3342   */\n      tag_944\n      tag_246\n      jump\t// in\n    tag_944:\n        /* \"#utility.yul\":3373:3375   */\n      0x40\n        /* \"#utility.yul\":3367:3376   */\n      mload\n      swap2\n      pop\n        /* \"#utility.yul\":3385:3450   */\n      tag_945\n        /* \"#utility.yul\":3440:3442   */\n      0x1f\n        /* \"#utility.yul\":3421:3434   */\n      dup3\n      add\n      not(0x1f)\n        /* \"#utility.yul\":3417:3444   */\n      and\n        /* \"#utility.yul\":3413:3449   */\n      dup6\n      add\n        /* \"#utility.yul\":3367:3376   */\n      dup4\n        /* \"#utility.yul\":3385:3450   */\n      tag_903\n      jump\t// in\n    tag_945:\n        /* \"#utility.yul\":3474:3476   */\n      dup1\n        /* \"#utility.yul\":3466:3472   */\n      dup3\n        /* \"#utility.yul\":3459:3477   */\n      mstore\n        /* \"#utility.yul\":3514:3521   */\n      dup7\n        /* \"#utility.yul\":3509:3511   */\n      dup5\n        /* \"#utility.yul\":3504:3506   */\n      dup3\n        /* \"#utility.yul\":3500:3502   */\n      dup6\n        /* \"#utility.yul\":3496:3507   */\n      add\n        /* \"#utility.yul\":3492:3512   */\n      add\n        /* \"#utility.yul\":3489:3522   */\n      gt\n        /* \"#utility.yul\":3486:3539   */\n      iszero\n      tag_946\n      jumpi\n        /* \"#utility.yul\":3535:3536   */\n      0x00\n        /* \"#utility.yul\":3532:3533   */\n      dup1\n        /* \"#utility.yul\":3525:3537   */\n      revert\n        /* \"#utility.yul\":3486:3539   */\n    tag_946:\n        /* \"#utility.yul\":3591:3593   */\n      dup1\n        /* \"#utility.yul\":3586:3588   */\n      dup5\n        /* \"#utility.yul\":3582:3584   */\n      dup5\n        /* \"#utility.yul\":3578:3589   */\n      add\n        /* \"#utility.yul\":3573:3575   */\n      dup6\n        /* \"#utility.yul\":3565:3571   */\n      dup5\n        /* \"#utility.yul\":3561:3576   */\n      add\n        /* \"#utility.yul\":3548:3594   */\n      calldatacopy\n        /* \"#utility.yul\":3636:3637   */\n      0x00\n        /* \"#utility.yul\":3614:3629   */\n      swap1\n      dup3\n      add\n        /* \"#utility.yul\":3610:3634   */\n      swap1\n      swap4\n      add\n        /* \"#utility.yul\":3603:3638   */\n      swap3\n      swap1\n      swap3\n      mstore\n      pop\n        /* \"#utility.yul\":3618:3624   */\n      swap4\n        /* \"#utility.yul\":2870:3669   */\n      swap3\n      pop\n      pop\n      pop\n      jump\t// out\n        /* \"#utility.yul\":4109:4361   */\n    tag_102:\n        /* \"#utility.yul\":4176:4182   */\n      0x00\n        /* \"#utility.yul\":4184:4190   */\n      dup1\n        /* \"#utility.yul\":4237:4239   */\n      0x40\n        /* \"#utility.yul\":4225:4234   */\n      dup4\n        /* \"#utility.yul\":4216:4223   */\n      dup6\n        /* \"#utility.yul\":4212:4235   */\n      sub\n        /* \"#utility.yul\":4208:4240   */\n      slt\n        /* \"#utility.yul\":4205:4257   */\n      iszero\n      tag_950\n      jumpi\n        /* \"#utility.yul\":4253:4254   */\n      0x00\n        /* \"#utility.yul\":4250:4251   */\n      dup1\n        /* \"#utility.yul\":4243:4255   */\n      revert\n        /* \"#utility.yul\":4205:4257   */\n    tag_950:\n        /* \"#utility.yul\":4289:4298   */\n      dup3\n        /* \"#utility.yul\":4276:4299   */\n      calldataload\n        /* \"#utility.yul\":4266:4299   */\n      swap2\n      pop\n        /* \"#utility.yul\":4318:4355   */\n      tag_924\n        /* \"#utility.yul\":4351:4353   */\n      0x20\n        /* \"#utility.yul\":4340:4349   */\n      dup5\n        /* \"#utility.yul\":4336:4354   */\n      add\n        /* \"#utility.yul\":4318:4355   */\n      tag_902\n      jump\t// in\n        /* \"#utility.yul\":4366:4805   */\n    tag_904:\n        /* \"#utility.yul\":4419:4422   */\n      0x00\n        /* \"#utility.yul\":4457:4462   */\n      dup2\n        /* \"#utility.yul\":4451:4463   */\n      mload\n        /* \"#utility.yul\":4484:4490   */\n      dup1\n        /* \"#utility.yul\":4479:4482   */\n      dup5\n        /* \"#utility.yul\":4472:4491   */\n      mstore\n        /* \"#utility.yul\":4510:4514   */\n      0x20\n        /* \"#utility.yul\":4539:4543   */\n      dup1\n        /* \"#utility.yul\":4534:4537   */\n      dup6\n        /* \"#utility.yul\":4530:4544   */\n      add\n        /* \"#utility.yul\":4523:4544   */\n      swap5\n      pop\n        /* \"#utility.yul\":4578:4582   */\n      0x20\n        /* \"#utility.yul\":4571:4576   */\n      dup5\n        /* \"#utility.yul\":4567:4583   */\n      add\n        /* \"#utility.yul\":4601:4602   */\n      0x00\n        /* \"#utility.yul\":4611:4780   */\n    tag_953:\n        /* \"#utility.yul\":4625:4631   */\n      dup4\n        /* \"#utility.yul\":4622:4623   */\n      dup2\n        /* \"#utility.yul\":4619:4632   */\n      lt\n        /* \"#utility.yul\":4611:4780   */\n      iszero\n      tag_955\n      jumpi\n        /* \"#utility.yul\":4686:4699   */\n      dup2\n      mload\n        /* \"#utility.yul\":4674:4700   */\n      dup8\n      mstore\n        /* \"#utility.yul\":4720:4732   */\n      swap6\n      dup3\n      add\n      swap6\n        /* \"#utility.yul\":4755:4770   */\n      swap1\n      dup3\n      add\n      swap1\n        /* \"#utility.yul\":4647:4648   */\n      0x01\n        /* \"#utility.yul\":4640:4649   */\n      add\n        /* \"#utility.yul\":4611:4780   */\n      jump(tag_953)\n    tag_955:\n      pop\n        /* \"#utility.yul\":4796:4799   */\n      swap5\n      swap6\n        /* \"#utility.yul\":4366:4805   */\n      swap5\n      pop\n      pop\n      pop\n      pop\n      pop\n      jump\t// out\n        /* \"#utility.yul\":4810:5071   */\n    tag_127:\n        /* \"#utility.yul\":4989:4991   */\n      0x20\n        /* \"#utility.yul\":4978:4987   */\n      dup2\n        /* \"#utility.yul\":4971:4992   */\n      mstore\n        /* \"#utility.yul\":4952:4956   */\n      0x00\n        /* \"#utility.yul\":5009:5065   */\n      tag_384\n        /* \"#utility.yul\":5061:5063   */\n      0x20\n        /* \"#utility.yul\":5050:5059   */\n      dup4\n        /* \"#utility.yul\":5046:5064   */\n      add\n        /* \"#utility.yul\":5038:5044   */\n      dup5\n        /* \"#utility.yul\":5009:5065   */\n      tag_904\n      jump\t// in\n        /* \"#utility.yul\":5307:5674   */\n    tag_905:\n        /* \"#utility.yul\":5370:5378   */\n      0x00\n        /* \"#utility.yul\":5380:5386   */\n      dup1\n        /* \"#utility.yul\":5434:5437   */\n      dup4\n        /* \"#utility.yul\":5427:5431   */\n      0x1f\n        /* \"#utility.yul\":5419:5425   */\n      dup5\n        /* \"#utility.yul\":5415:5432   */\n      add\n        /* \"#utility.yul\":5411:5438   */\n      slt\n        /* \"#utility.yul\":5401:5456   */\n      tag_960\n      jumpi\n        /* \"#utility.yul\":5452:5453   */\n      0x00\n        /* \"#utility.yul\":5449:5450   */\n      dup1\n        /* \"#utility.yul\":5442:5454   */\n      revert\n        /* \"#utility.yul\":5401:5456   */\n    tag_960:\n      pop\n        /* \"#utility.yul\":5475:5495   */\n      dup2\n      calldataload\n        /* \"#utility.yul\":5518:5536   */\n      0xffffffffffffffff\n        /* \"#utility.yul\":5507:5537   */\n      dup2\n      gt\n        /* \"#utility.yul\":5504:5554   */\n      iszero\n      tag_961\n      jumpi\n        /* \"#utility.yul\":5550:5551   */\n      0x00\n        /* \"#utility.yul\":5547:5548   */\n      dup1\n        /* \"#utility.yul\":5540:5552   */\n      revert\n        /* \"#utility.yul\":5504:5554   */\n    tag_961:\n        /* \"#utility.yul\":5587:5591   */\n      0x20\n        /* \"#utility.yul\":5579:5585   */\n      dup4\n        /* \"#utility.yul\":5575:5592   */\n      add\n        /* \"#utility.yul\":5563:5592   */\n      swap2\n      pop\n        /* \"#utility.yul\":5647:5650   */\n      dup4\n        /* \"#utility.yul\":5640:5644   */\n      0x20\n        /* \"#utility.yul\":5630:5636   */\n      dup3\n        /* \"#utility.yul\":5627:5628   */\n      0x05\n        /* \"#utility.yul\":5623:5637   */\n      shl\n        /* \"#utility.yul\":5615:5621   */\n      dup6\n        /* \"#utility.yul\":5611:5638   */\n      add\n        /* \"#utility.yul\":5607:5645   */\n      add\n        /* \"#utility.yul\":5604:5651   */\n      gt\n        /* \"#utility.yul\":5601:5668   */\n      iszero\n      tag_962\n      jumpi\n        /* \"#utility.yul\":5664:5665   */\n      0x00\n        /* \"#utility.yul\":5661:5662   */\n      dup1\n        /* \"#utility.yul\":5654:5666   */\n      revert\n        /* \"#utility.yul\":5601:5668   */\n    tag_962:\n        /* \"#utility.yul\":5307:5674   */\n      swap3\n      pop\n      swap3\n      swap1\n      pop\n      jump\t// out\n        /* \"#utility.yul\":5679:6026   */\n    tag_906:\n        /* \"#utility.yul\":5730:5738   */\n      0x00\n        /* \"#utility.yul\":5740:5746   */\n      dup1\n        /* \"#utility.yul\":5794:5797   */\n      dup4\n        /* \"#utility.yul\":5787:5791   */\n      0x1f\n        /* \"#utility.yul\":5779:5785   */\n      dup5\n        /* \"#utility.yul\":5775:5792   */\n      add\n        /* \"#utility.yul\":5771:5798   */\n      slt\n        /* \"#utility.yul\":5761:5816   */\n      tag_964\n      jumpi\n        /* \"#utility.yul\":5812:5813   */\n      0x00\n        /* \"#utility.yul\":5809:5810   */\n      dup1\n        /* \"#utility.yul\":5802:5814   */\n      revert\n        /* \"#utility.yul\":5761:5816   */\n    tag_964:\n      pop\n        /* \"#utility.yul\":5835:5855   */\n      dup2\n      calldataload\n        /* \"#utility.yul\":5878:5896   */\n      0xffffffffffffffff\n        /* \"#utility.yul\":5867:5897   */\n      dup2\n      gt\n        /* \"#utility.yul\":5864:5914   */\n      iszero\n      tag_965\n      jumpi\n        /* \"#utility.yul\":5910:5911   */\n      0x00\n        /* \"#utility.yul\":5907:5908   */\n      dup1\n        /* \"#utility.yul\":5900:5912   */\n      revert\n        /* \"#utility.yul\":5864:5914   */\n    tag_965:\n        /* \"#utility.yul\":5947:5951   */\n      0x20\n        /* \"#utility.yul\":5939:5945   */\n      dup4\n        /* \"#utility.yul\":5935:5952   */\n      add\n        /* \"#utility.yul\":5923:5952   */\n      swap2\n      pop\n        /* \"#utility.yul\":5999:6002   */\n      dup4\n        /* \"#utility.yul\":5992:5996   */\n      0x20\n        /* \"#utility.yul\":5983:5989   */\n      dup3\n        /* \"#utility.yul\":5975:5981   */\n      dup6\n        /* \"#utility.yul\":5971:5990   */\n      add\n        /* \"#utility.yul\":5967:5997   */\n      add\n        /* \"#utility.yul\":5964:6003   */\n      gt\n        /* \"#utility.yul\":5961:6020   */\n      iszero\n      tag_962\n      jumpi\n        /* \"#utility.yul\":6016:6017   */\n      0x00\n        /* \"#utility.yul\":6013:6014   */\n      dup1\n        /* \"#utility.yul\":6006:6018   */\n      revert\n        /* \"#utility.yul\":6031:7241   */\n    tag_146:\n        /* \"#utility.yul\":6191:6197   */\n      0x00\n        /* \"#utility.yul\":6199:6205   */\n      dup1\n        /* \"#utility.yul\":6207:6213   */\n      0x00\n        /* \"#utility.yul\":6215:6221   */\n      dup1\n        /* \"#utility.yul\":6223:6229   */\n      0x00\n        /* \"#utility.yul\":6231:6237   */\n      dup1\n        /* \"#utility.yul\":6239:6245   */\n      0x00\n        /* \"#utility.yul\":6247:6253   */\n      dup1\n        /* \"#utility.yul\":6300:6303   */\n      0xa0\n        /* \"#utility.yul\":6288:6297   */\n      dup10\n        /* \"#utility.yul\":6279:6286   */\n      dup12\n        /* \"#utility.yul\":6275:6298   */\n      sub\n        /* \"#utility.yul\":6271:6304   */\n      slt\n        /* \"#utility.yul\":6268:6321   */\n      iszero\n      tag_968\n      jumpi\n        /* \"#utility.yul\":6317:6318   */\n      0x00\n        /* \"#utility.yul\":6314:6315   */\n      dup1\n        /* \"#utility.yul\":6307:6319   */\n      revert\n        /* \"#utility.yul\":6268:6321   */\n    tag_968:\n        /* \"#utility.yul\":6340:6369   */\n      tag_969\n        /* \"#utility.yul\":6359:6368   */\n      dup10\n        /* \"#utility.yul\":6340:6369   */\n      tag_901\n      jump\t// in\n    tag_969:\n        /* \"#utility.yul\":6330:6369   */\n      swap8\n      pop\n        /* \"#utility.yul\":6388:6426   */\n      tag_970\n        /* \"#utility.yul\":6422:6424   */\n      0x20\n        /* \"#utility.yul\":6411:6420   */\n      dup11\n        /* \"#utility.yul\":6407:6425   */\n      add\n        /* \"#utility.yul\":6388:6426   */\n      tag_901\n      jump\t// in\n    tag_970:\n        /* \"#utility.yul\":6378:6426   */\n      swap7\n      pop\n        /* \"#utility.yul\":6477:6479   */\n      0x40\n        /* \"#utility.yul\":6466:6475   */\n      dup10\n        /* \"#utility.yul\":6462:6480   */\n      add\n        /* \"#utility.yul\":6449:6481   */\n      calldataload\n        /* \"#utility.yul\":6500:6518   */\n      0xffffffffffffffff\n        /* \"#utility.yul\":6541:6543   */\n      dup1\n        /* \"#utility.yul\":6533:6539   */\n      dup3\n        /* \"#utility.yul\":6530:6544   */\n      gt\n        /* \"#utility.yul\":6527:6561   */\n      iszero\n      tag_971\n      jumpi\n        /* \"#utility.yul\":6557:6558   */\n      0x00\n        /* \"#utility.yul\":6554:6555   */\n      dup1\n        /* \"#utility.yul\":6547:6559   */\n      revert\n        /* \"#utility.yul\":6527:6561   */\n    tag_971:\n        /* \"#utility.yul\":6596:6666   */\n      tag_972\n        /* \"#utility.yul\":6658:6665   */\n      dup13\n        /* \"#utility.yul\":6649:6655   */\n      dup4\n        /* \"#utility.yul\":6638:6647   */\n      dup14\n        /* \"#utility.yul\":6634:6656   */\n      add\n        /* \"#utility.yul\":6596:6666   */\n      tag_905\n      jump\t// in\n    tag_972:\n        /* \"#utility.yul\":6685:6693   */\n      swap1\n      swap9\n      pop\n        /* \"#utility.yul\":6570:6666   */\n      swap7\n      pop\n        /* \"#utility.yul\":6773:6775   */\n      0x60\n        /* \"#utility.yul\":6758:6776   */\n      dup12\n      add\n        /* \"#utility.yul\":6745:6777   */\n      calldataload\n      swap2\n      pop\n        /* \"#utility.yul\":6789:6805   */\n      dup1\n      dup3\n      gt\n        /* \"#utility.yul\":6786:6822   */\n      iszero\n      tag_973\n      jumpi\n        /* \"#utility.yul\":6818:6819   */\n      0x00\n        /* \"#utility.yul\":6815:6816   */\n      dup1\n        /* \"#utility.yul\":6808:6820   */\n      revert\n        /* \"#utility.yul\":6786:6822   */\n    tag_973:\n        /* \"#utility.yul\":6857:6929   */\n      tag_974\n        /* \"#utility.yul\":6921:6928   */\n      dup13\n        /* \"#utility.yul\":6910:6918   */\n      dup4\n        /* \"#utility.yul\":6899:6908   */\n      dup14\n        /* \"#utility.yul\":6895:6919   */\n      add\n        /* \"#utility.yul\":6857:6929   */\n      tag_905\n      jump\t// in\n    tag_974:\n        /* \"#utility.yul\":6948:6956   */\n      swap1\n      swap7\n      pop\n        /* \"#utility.yul\":6831:6929   */\n      swap5\n      pop\n        /* \"#utility.yul\":7036:7039   */\n      0x80\n        /* \"#utility.yul\":7021:7040   */\n      dup12\n      add\n        /* \"#utility.yul\":7008:7041   */\n      calldataload\n      swap2\n      pop\n        /* \"#utility.yul\":7053:7069   */\n      dup1\n      dup3\n      gt\n        /* \"#utility.yul\":7050:7086   */\n      iszero\n      tag_975\n      jumpi\n        /* \"#utility.yul\":7082:7083   */\n      0x00\n        /* \"#utility.yul\":7079:7080   */\n      dup1\n        /* \"#utility.yul\":7072:7084   */\n      revert\n        /* \"#utility.yul\":7050:7086   */\n    tag_975:\n      pop\n        /* \"#utility.yul\":7121:7181   */\n      tag_976\n        /* \"#utility.yul\":7173:7180   */\n      dup12\n        /* \"#utility.yul\":7162:7170   */\n      dup3\n        /* \"#utility.yul\":7151:7160   */\n      dup13\n        /* \"#utility.yul\":7147:7171   */\n      add\n        /* \"#utility.yul\":7121:7181   */\n      tag_906\n      jump\t// in\n    tag_976:\n        /* \"#utility.yul\":6031:7241   */\n      swap10\n      swap13\n      swap9\n      swap12\n      pop\n      swap7\n      swap10\n      pop\n      swap5\n      swap8\n      swap4\n      swap7\n      swap3\n      swap6\n        /* \"#utility.yul\":7200:7208   */\n      swap5\n      pop\n      pop\n      pop\n        /* \"#utility.yul\":6031:7241   */\n      jump\t// out\n        /* \"#utility.yul\":7453:8148   */\n    tag_172:\n        /* \"#utility.yul\":7559:7565   */\n      0x00\n        /* \"#utility.yul\":7567:7573   */\n      dup1\n        /* \"#utility.yul\":7575:7581   */\n      0x00\n        /* \"#utility.yul\":7583:7589   */\n      dup1\n        /* \"#utility.yul\":7591:7597   */\n      0x00\n        /* \"#utility.yul\":7599:7605   */\n      dup1\n        /* \"#utility.yul\":7652:7655   */\n      0xa0\n        /* \"#utility.yul\":7640:7649   */\n      dup8\n        /* \"#utility.yul\":7631:7638   */\n      dup10\n        /* \"#utility.yul\":7627:7650   */\n      sub\n        /* \"#utility.yul\":7623:7656   */\n      slt\n        /* \"#utility.yul\":7620:7673   */\n      iszero\n      tag_979\n      jumpi\n        /* \"#utility.yul\":7669:7670   */\n      0x00\n        /* \"#utility.yul\":7666:7667   */\n      dup1\n        /* \"#utility.yul\":7659:7671   */\n      revert\n        /* \"#utility.yul\":7620:7673   */\n    tag_979:\n        /* \"#utility.yul\":7692:7721   */\n      tag_980\n        /* \"#utility.yul\":7711:7720   */\n      dup8\n        /* \"#utility.yul\":7692:7721   */\n      tag_901\n      jump\t// in\n    tag_980:\n        /* \"#utility.yul\":7682:7721   */\n      swap6\n      pop\n        /* \"#utility.yul\":7740:7778   */\n      tag_981\n        /* \"#utility.yul\":7774:7776   */\n      0x20\n        /* \"#utility.yul\":7763:7772   */\n      dup9\n        /* \"#utility.yul\":7759:7777   */\n      add\n        /* \"#utility.yul\":7740:7778   */\n      tag_901\n      jump\t// in\n    tag_981:\n        /* \"#utility.yul\":7730:7778   */\n      swap5\n      pop\n        /* \"#utility.yul\":7825:7827   */\n      0x40\n        /* \"#utility.yul\":7814:7823   */\n      dup8\n        /* \"#utility.yul\":7810:7828   */\n      add\n        /* \"#utility.yul\":7797:7829   */\n      calldataload\n        /* \"#utility.yul\":7787:7829   */\n      swap4\n      pop\n        /* \"#utility.yul\":7876:7878   */\n      0x60\n        /* \"#utility.yul\":7865:7874   */\n      dup8\n        /* \"#utility.yul\":7861:7879   */\n      add\n        /* \"#utility.yul\":7848:7880   */\n      calldataload\n        /* \"#utility.yul\":7838:7880   */\n      swap3\n      pop\n        /* \"#utility.yul\":7931:7934   */\n      0x80\n        /* \"#utility.yul\":7920:7929   */\n      dup8\n        /* \"#utility.yul\":7916:7935   */\n      add\n        /* \"#utility.yul\":7903:7936   */\n      calldataload\n        /* \"#utility.yul\":7959:7977   */\n      0xffffffffffffffff\n        /* \"#utility.yul\":7951:7957   */\n      dup2\n        /* \"#utility.yul\":7948:7978   */\n      gt\n        /* \"#utility.yul\":7945:7995   */\n      iszero\n      tag_982\n      jumpi\n        /* \"#utility.yul\":7991:7992   */\n      0x00\n        /* \"#utility.yul\":7988:7989   */\n      dup1\n        /* \"#utility.yul\":7981:7993   */\n      revert\n        /* \"#utility.yul\":7945:7995   */\n    tag_982:\n        /* \"#utility.yul\":8030:8088   */\n      tag_983\n        /* \"#utility.yul\":8080:8087   */\n      dup10\n        /* \"#utility.yul\":8071:8077   */\n      dup3\n        /* \"#utility.yul\":8060:8069   */\n      dup11\n        /* \"#utility.yul\":8056:8078   */\n      add\n        /* \"#utility.yul\":8030:8088   */\n      tag_906\n      jump\t// in\n    tag_983:\n        /* \"#utility.yul\":7453:8148   */\n      swap8\n      swap11\n      swap7\n      swap10\n      pop\n      swap5\n      swap8\n      pop\n      swap3\n      swap6\n        /* \"#utility.yul\":8107:8115   */\n      swap4\n      swap5\n        /* \"#utility.yul\":7453:8148   */\n      swap3\n      pop\n      pop\n      pop\n      jump\t// out\n        /* \"#utility.yul\":8153:8339   */\n    tag_177:\n        /* \"#utility.yul\":8212:8218   */\n      0x00\n        /* \"#utility.yul\":8265:8267   */\n      0x20\n        /* \"#utility.yul\":8253:8262   */\n      dup3\n        /* \"#utility.yul\":8244:8251   */\n      dup5\n        /* \"#utility.yul\":8240:8263   */\n      sub\n        /* \"#utility.yul\":8236:8268   */\n      slt\n        /* \"#utility.yul\":8233:8285   */\n      iszero\n      tag_985\n      jumpi\n        /* \"#utility.yul\":8281:8282   */\n      0x00\n        /* \"#utility.yul\":8278:8279   */\n      dup1\n        /* \"#utility.yul\":8271:8283   */\n      revert\n        /* \"#utility.yul\":8233:8285   */\n    tag_985:\n        /* \"#utility.yul\":8304:8333   */\n      tag_384\n        /* \"#utility.yul\":8323:8332   */\n      dup3\n        /* \"#utility.yul\":8304:8333   */\n      tag_901\n      jump\t// in\n        /* \"#utility.yul\":8344:8617   */\n    tag_191:\n        /* \"#utility.yul\":8412:8418   */\n      0x00\n        /* \"#utility.yul\":8465:8467   */\n      0x20\n        /* \"#utility.yul\":8453:8462   */\n      dup3\n        /* \"#utility.yul\":8444:8451   */\n      dup5\n        /* \"#utility.yul\":8440:8463   */\n      sub\n        /* \"#utility.yul\":8436:8468   */\n      slt\n        /* \"#utility.yul\":8433:8485   */\n      iszero\n      tag_988\n      jumpi\n        /* \"#utility.yul\":8481:8482   */\n      0x00\n        /* \"#utility.yul\":8478:8479   */\n      dup1\n        /* \"#utility.yul\":8471:8483   */\n      revert\n        /* \"#utility.yul\":8433:8485   */\n    tag_988:\n        /* \"#utility.yul\":8513:8522   */\n      dup2\n        /* \"#utility.yul\":8507:8523   */\n      mload\n        /* \"#utility.yul\":8563:8567   */\n      0xff\n        /* \"#utility.yul\":8556:8561   */\n      dup2\n        /* \"#utility.yul\":8552:8568   */\n      and\n        /* \"#utility.yul\":8545:8550   */\n      dup2\n        /* \"#utility.yul\":8542:8569   */\n      eq\n        /* \"#utility.yul\":8532:8587   */\n      tag_384\n      jumpi\n        /* \"#utility.yul\":8583:8584   */\n      0x00\n        /* \"#utility.yul\":8580:8581   */\n      dup1\n        /* \"#utility.yul\":8573:8585   */\n      revert\n        /* \"#utility.yul\":8622:8749   */\n    tag_907:\n        /* \"#utility.yul\":8683:8693   */\n      0x4e487b71\n        /* \"#utility.yul\":8678:8681   */\n      0xe0\n        /* \"#utility.yul\":8674:8694   */\n      shl\n        /* \"#utility.yul\":8671:8672   */\n      0x00\n        /* \"#utility.yul\":8664:8695   */\n      mstore\n        /* \"#utility.yul\":8714:8718   */\n      0x11\n        /* \"#utility.yul\":8711:8712   */\n      0x04\n        /* \"#utility.yul\":8704:8719   */\n      mstore\n        /* \"#utility.yul\":8738:8742   */\n      0x24\n        /* \"#utility.yul\":8735:8736   */\n      0x00\n        /* \"#utility.yul\":8728:8743   */\n      revert\n        /* \"#utility.yul\":8754:9170   */\n    tag_908:\n        /* \"#utility.yul\":8843:8844   */\n      0x01\n        /* \"#utility.yul\":8880:8885   */\n      dup2\n        /* \"#utility.yul\":8843:8844   */\n      dup2\n        /* \"#utility.yul\":8894:9164   */\n    tag_992:\n        /* \"#utility.yul\":8915:8922   */\n      dup1\n        /* \"#utility.yul\":8905:8913   */\n      dup6\n        /* \"#utility.yul\":8902:8923   */\n      gt\n        /* \"#utility.yul\":8894:9164   */\n      iszero\n      tag_994\n      jumpi\n        /* \"#utility.yul\":8974:8978   */\n      dup2\n        /* \"#utility.yul\":8970:8971   */\n      0x00\n        /* \"#utility.yul\":8966:8972   */\n      not\n        /* \"#utility.yul\":8962:8979   */\n      div\n        /* \"#utility.yul\":8956:8960   */\n      dup3\n        /* \"#utility.yul\":8953:8980   */\n      gt\n        /* \"#utility.yul\":8950:9003   */\n      iszero\n      tag_996\n      jumpi\n        /* \"#utility.yul\":8983:9001   */\n      tag_996\n      tag_907\n      jump\t// in\n    tag_996:\n        /* \"#utility.yul\":9033:9040   */\n      dup1\n        /* \"#utility.yul\":9023:9031   */\n      dup6\n        /* \"#utility.yul\":9019:9041   */\n      and\n        /* \"#utility.yul\":9016:9071   */\n      iszero\n      tag_997\n      jumpi\n        /* \"#utility.yul\":9053:9069   */\n      swap2\n      dup2\n      mul\n      swap2\n        /* \"#utility.yul\":9016:9071   */\n    tag_997:\n        /* \"#utility.yul\":9132:9154   */\n      swap4\n      dup5\n      shr\n      swap4\n        /* \"#utility.yul\":9092:9107   */\n      swap1\n      dup1\n      mul\n      swap1\n        /* \"#utility.yul\":8894:9164   */\n      jump(tag_992)\n    tag_994:\n        /* \"#utility.yul\":8898:8901   */\n      pop\n        /* \"#utility.yul\":8754:9170   */\n      swap3\n      pop\n      swap3\n      swap1\n      pop\n      jump\t// out\n        /* \"#utility.yul\":9175:9981   */\n    tag_909:\n        /* \"#utility.yul\":9224:9229   */\n      0x00\n        /* \"#utility.yul\":9254:9262   */\n      dup3\n        /* \"#utility.yul\":9244:9324   */\n      tag_999\n      jumpi\n      pop\n        /* \"#utility.yul\":9295:9296   */\n      0x01\n        /* \"#utility.yul\":9309:9314   */\n      jump(tag_187)\n        /* \"#utility.yul\":9244:9324   */\n    tag_999:\n        /* \"#utility.yul\":9343:9347   */\n      dup2\n        /* \"#utility.yul\":9333:9409   */\n      tag_1000\n      jumpi\n      pop\n        /* \"#utility.yul\":9380:9381   */\n      0x00\n        /* \"#utility.yul\":9394:9399   */\n      jump(tag_187)\n        /* \"#utility.yul\":9333:9409   */\n    tag_1000:\n        /* \"#utility.yul\":9425:9429   */\n      dup2\n        /* \"#utility.yul\":9443:9444   */\n      0x01\n        /* \"#utility.yul\":9438:9497   */\n      dup2\n      eq\n      tag_1002\n      jumpi\n        /* \"#utility.yul\":9511:9512   */\n      0x02\n        /* \"#utility.yul\":9506:9636   */\n      dup2\n      eq\n      tag_1003\n      jumpi\n        /* \"#utility.yul\":9418:9636   */\n      jump(tag_1001)\n        /* \"#utility.yul\":9438:9497   */\n    tag_1002:\n        /* \"#utility.yul\":9468:9469   */\n      0x01\n        /* \"#utility.yul\":9459:9469   */\n      swap2\n      pop\n        /* \"#utility.yul\":9482:9487   */\n      pop\n      jump(tag_187)\n        /* \"#utility.yul\":9506:9636   */\n    tag_1003:\n        /* \"#utility.yul\":9543:9546   */\n      0xff\n        /* \"#utility.yul\":9533:9541   */\n      dup5\n        /* \"#utility.yul\":9530:9547   */\n      gt\n        /* \"#utility.yul\":9527:9570   */\n      iszero\n      tag_1005\n      jumpi\n        /* \"#utility.yul\":9550:9568   */\n      tag_1005\n      tag_907\n      jump\t// in\n    tag_1005:\n      pop\n      pop\n        /* \"#utility.yul\":9606:9607   */\n      0x01\n        /* \"#utility.yul\":9592:9608   */\n      dup3\n      shl\n        /* \"#utility.yul\":9621:9626   */\n      jump(tag_187)\n        /* \"#utility.yul\":9418:9636   */\n    tag_1001:\n      pop\n        /* \"#utility.yul\":9720:9722   */\n      0x20\n        /* \"#utility.yul\":9710:9718   */\n      dup4\n        /* \"#utility.yul\":9707:9723   */\n      lt\n        /* \"#utility.yul\":9701:9704   */\n      0x0133\n        /* \"#utility.yul\":9695:9699   */\n      dup4\n        /* \"#utility.yul\":9692:9705   */\n      lt\n        /* \"#utility.yul\":9688:9724   */\n      and\n        /* \"#utility.yul\":9682:9684   */\n      0x4e\n        /* \"#utility.yul\":9672:9680   */\n      dup5\n        /* \"#utility.yul\":9669:9685   */\n      lt\n        /* \"#utility.yul\":9664:9666   */\n      0x0b\n        /* \"#utility.yul\":9658:9662   */\n      dup5\n        /* \"#utility.yul\":9655:9667   */\n      lt\n        /* \"#utility.yul\":9651:9686   */\n      and\n        /* \"#utility.yul\":9648:9725   */\n      or\n        /* \"#utility.yul\":9645:9804   */\n      iszero\n      tag_1006\n      jumpi\n      pop\n        /* \"#utility.yul\":9757:9776   */\n      dup2\n      dup2\n      exp\n        /* \"#utility.yul\":9789:9794   */\n      jump(tag_187)\n        /* \"#utility.yul\":9645:9804   */\n    tag_1006:\n        /* \"#utility.yul\":9836:9870   */\n      tag_1007\n        /* \"#utility.yul\":9861:9869   */\n      dup4\n        /* \"#utility.yul\":9855:9859   */\n      dup4\n        /* \"#utility.yul\":9836:9870   */\n      tag_908\n      jump\t// in\n    tag_1007:\n        /* \"#utility.yul\":9906:9912   */\n      dup1\n        /* \"#utility.yul\":9902:9903   */\n      0x00\n        /* \"#utility.yul\":9898:9904   */\n      not\n        /* \"#utility.yul\":9894:9913   */\n      div\n        /* \"#utility.yul\":9885:9892   */\n      dup3\n        /* \"#utility.yul\":9882:9914   */\n      gt\n        /* \"#utility.yul\":9879:9937   */\n      iszero\n      tag_1009\n      jumpi\n        /* \"#utility.yul\":9917:9935   */\n      tag_1009\n      tag_907\n      jump\t// in\n    tag_1009:\n        /* \"#utility.yul\":9955:9975   */\n      mul\n      swap4\n        /* \"#utility.yul\":9175:9981   */\n      swap3\n      pop\n      pop\n      pop\n      jump\t// out\n        /* \"#utility.yul\":9986:10117   */\n    tag_193:\n        /* \"#utility.yul\":10046:10051   */\n      0x00\n        /* \"#utility.yul\":10075:10111   */\n      tag_384\n        /* \"#utility.yul\":10102:10110   */\n      dup4\n        /* \"#utility.yul\":10096:10100   */\n      dup4\n        /* \"#utility.yul\":10075:10111   */\n      tag_909\n      jump\t// in\n        /* \"#utility.yul\":10478:10603   */\n    tag_203:\n        /* \"#utility.yul\":10543:10552   */\n      dup1\n      dup3\n      add\n        /* \"#utility.yul\":10564:10574   */\n      dup1\n      dup3\n      gt\n        /* \"#utility.yul\":10561:10597   */\n      iszero\n      tag_187\n      jumpi\n        /* \"#utility.yul\":10577:10595   */\n      tag_187\n      tag_907\n      jump\t// in\n        /* \"#utility.yul\":10608:10735   */\n    tag_222:\n        /* \"#utility.yul\":10669:10679   */\n      0x4e487b71\n        /* \"#utility.yul\":10664:10667   */\n      0xe0\n        /* \"#utility.yul\":10660:10680   */\n      shl\n        /* \"#utility.yul\":10657:10658   */\n      0x00\n        /* \"#utility.yul\":10650:10681   */\n      mstore\n        /* \"#utility.yul\":10700:10704   */\n      0x32\n        /* \"#utility.yul\":10697:10698   */\n      0x04\n        /* \"#utility.yul\":10690:10705   */\n      mstore\n        /* \"#utility.yul\":10724:10728   */\n      0x24\n        /* \"#utility.yul\":10721:10722   */\n      0x00\n        /* \"#utility.yul\":10714:10729   */\n      revert\n        /* \"#utility.yul\":10740:10924   */\n    tag_240:\n        /* \"#utility.yul\":10810:10816   */\n      0x00\n        /* \"#utility.yul\":10863:10865   */\n      0x20\n        /* \"#utility.yul\":10851:10860   */\n      dup3\n        /* \"#utility.yul\":10842:10849   */\n      dup5\n        /* \"#utility.yul\":10838:10861   */\n      sub\n        /* \"#utility.yul\":10834:10866   */\n      slt\n        /* \"#utility.yul\":10831:10883   */\n      iszero\n      tag_1018\n      jumpi\n        /* \"#utility.yul\":10879:10880   */\n      0x00\n        /* \"#utility.yul\":10876:10877   */\n      dup1\n        /* \"#utility.yul\":10869:10881   */\n      revert\n        /* \"#utility.yul\":10831:10883   */\n    tag_1018:\n      pop\n        /* \"#utility.yul\":10902:10918   */\n      mload\n      swap2\n        /* \"#utility.yul\":10740:10924   */\n      swap1\n      pop\n      jump\t// out\n        /* \"#utility.yul\":11285:11826   */\n    tag_254:\n      sub(shl(0xa0, 0x01), 0x01)\n        /* \"#utility.yul\":11568:11574   */\n      dup6\n        /* \"#utility.yul\":11564:11619   */\n      and\n        /* \"#utility.yul\":11553:11562   */\n      dup2\n        /* \"#utility.yul\":11546:11620   */\n      mstore\n        /* \"#utility.yul\":11656:11662   */\n      dup4\n        /* \"#utility.yul\":11651:11653   */\n      0x20\n        /* \"#utility.yul\":11640:11649   */\n      dup3\n        /* \"#utility.yul\":11636:11654   */\n      add\n        /* \"#utility.yul\":11629:11663   */\n      mstore\n        /* \"#utility.yul\":11699:11705   */\n      dup3\n        /* \"#utility.yul\":11694:11696   */\n      0x40\n        /* \"#utility.yul\":11683:11692   */\n      dup3\n        /* \"#utility.yul\":11679:11697   */\n      add\n        /* \"#utility.yul\":11672:11706   */\n      mstore\n        /* \"#utility.yul\":11742:11745   */\n      0x80\n        /* \"#utility.yul\":11737:11739   */\n      0x60\n        /* \"#utility.yul\":11726:11735   */\n      dup3\n        /* \"#utility.yul\":11722:11740   */\n      add\n        /* \"#utility.yul\":11715:11746   */\n      mstore\n        /* \"#utility.yul\":11527:11531   */\n      0x00\n        /* \"#utility.yul\":11763:11820   */\n      tag_428\n        /* \"#utility.yul\":11815:11818   */\n      0x80\n        /* \"#utility.yul\":11804:11813   */\n      dup4\n        /* \"#utility.yul\":11800:11819   */\n      add\n        /* \"#utility.yul\":11792:11798   */\n      dup5\n        /* \"#utility.yul\":11763:11820   */\n      tag_904\n      jump\t// in\n        /* \"#utility.yul\":12529:12657   */\n    tag_303:\n        /* \"#utility.yul\":12596:12605   */\n      dup2\n      dup2\n      sub\n        /* \"#utility.yul\":12617:12628   */\n      dup2\n      dup2\n      gt\n        /* \"#utility.yul\":12614:12651   */\n      iszero\n      tag_187\n      jumpi\n        /* \"#utility.yul\":12631:12649   */\n      tag_187\n      tag_907\n      jump\t// in\n        /* \"#utility.yul\":13917:14129   */\n    tag_910:\n        /* \"#utility.yul\":13959:13962   */\n      0x00\n        /* \"#utility.yul\":13997:14002   */\n      dup2\n        /* \"#utility.yul\":13991:14003   */\n      mload\n        /* \"#utility.yul\":14041:14047   */\n      dup1\n        /* \"#utility.yul\":14034:14038   */\n      0x20\n        /* \"#utility.yul\":14027:14032   */\n      dup5\n        /* \"#utility.yul\":14023:14039   */\n      add\n        /* \"#utility.yul\":14018:14021   */\n      dup6\n        /* \"#utility.yul\":14012:14048   */\n      mcopy\n        /* \"#utility.yul\":14103:14104   */\n      0x00\n        /* \"#utility.yul\":14067:14083   */\n      swap4\n      add\n        /* \"#utility.yul\":14092:14105   */\n      swap3\n      dup4\n      mstore\n      pop\n        /* \"#utility.yul\":14067:14083   */\n      swap1\n      swap2\n        /* \"#utility.yul\":13917:14129   */\n      swap1\n      pop\n      jump\t// out\n        /* \"#utility.yul\":14134:14326   */\n    tag_341:\n        /* \"#utility.yul\":14265:14268   */\n      0x00\n        /* \"#utility.yul\":14290:14320   */\n      tag_384\n        /* \"#utility.yul\":14316:14319   */\n      dup3\n        /* \"#utility.yul\":14308:14314   */\n      dup5\n        /* \"#utility.yul\":14290:14320   */\n      tag_910\n      jump\t// in\n        /* \"#utility.yul\":15275:15488   */\n    tag_383:\n        /* \"#utility.yul\":15310:15313   */\n      0x00\n        /* \"#utility.yul\":15358:15363   */\n      dup2\n        /* \"#utility.yul\":15354:15356   */\n      0x0f\n        /* \"#utility.yul\":15343:15364   */\n      signextend\n      sub(shl(0x7f, 0x01), 0x01)\n        /* \"#utility.yul\":15388:15427   */\n      not\n        /* \"#utility.yul\":15379:15386   */\n      dup2\n        /* \"#utility.yul\":15376:15428   */\n      sub\n        /* \"#utility.yul\":15373:15451   */\n      tag_1040\n      jumpi\n        /* \"#utility.yul\":15431:15449   */\n      tag_1040\n      tag_907\n      jump\t// in\n    tag_1040:\n        /* \"#utility.yul\":15471:15472   */\n      0x00\n        /* \"#utility.yul\":15467:15482   */\n      sub\n      swap3\n        /* \"#utility.yul\":15275:15488   */\n      swap2\n      pop\n      pop\n      jump\t// out\n        /* \"#utility.yul\":15493:15742   */\n    tag_385:\n        /* \"#utility.yul\":15593:15595   */\n      0x0f\n        /* \"#utility.yul\":15582:15599   */\n      dup3\n      dup2\n      signextend\n        /* \"#utility.yul\":15563:15580   */\n      swap1\n      dup3\n      swap1\n      signextend\n        /* \"#utility.yul\":15559:15600   */\n      sub\n      not(0x7fffffffffffffffffffffffffffffff)\n        /* \"#utility.yul\":15615:15665   */\n      dup2\n      slt\n      sub(shl(0x7f, 0x01), 0x01)\n        /* \"#utility.yul\":15667:15712   */\n      dup3\n      sgt\n        /* \"#utility.yul\":15612:15713   */\n      or\n        /* \"#utility.yul\":15609:15736   */\n      iszero\n      tag_187\n      jumpi\n        /* \"#utility.yul\":15716:15734   */\n      tag_187\n      tag_907\n      jump\t// in\n        /* \"#utility.yul\":15747:15882   */\n    tag_448:\n        /* \"#utility.yul\":15786:15789   */\n      0x00\n        /* \"#utility.yul\":15807:15824   */\n      0x01\n      dup3\n      add\n        /* \"#utility.yul\":15804:15847   */\n      tag_1046\n      jumpi\n        /* \"#utility.yul\":15827:15845   */\n      tag_1046\n      tag_907\n      jump\t// in\n    tag_1046:\n      pop\n        /* \"#utility.yul\":15874:15875   */\n      0x01\n        /* \"#utility.yul\":15863:15876   */\n      add\n      swap1\n        /* \"#utility.yul\":15747:15882   */\n      jump\t// out\n        /* \"#utility.yul\":17421:17721   */\n    tag_911:\n        /* \"#utility.yul\":17474:17477   */\n      0x00\n        /* \"#utility.yul\":17512:17517   */\n      dup2\n        /* \"#utility.yul\":17506:17518   */\n      mload\n        /* \"#utility.yul\":17539:17545   */\n      dup1\n        /* \"#utility.yul\":17534:17537   */\n      dup5\n        /* \"#utility.yul\":17527:17546   */\n      mstore\n        /* \"#utility.yul\":17595:17601   */\n      dup1\n        /* \"#utility.yul\":17588:17592   */\n      0x20\n        /* \"#utility.yul\":17581:17586   */\n      dup5\n        /* \"#utility.yul\":17577:17593   */\n      add\n        /* \"#utility.yul\":17570:17574   */\n      0x20\n        /* \"#utility.yul\":17565:17568   */\n      dup7\n        /* \"#utility.yul\":17561:17575   */\n      add\n        /* \"#utility.yul\":17555:17602   */\n      mcopy\n        /* \"#utility.yul\":17647:17648   */\n      0x00\n        /* \"#utility.yul\":17640:17644   */\n      0x20\n        /* \"#utility.yul\":17631:17637   */\n      dup3\n        /* \"#utility.yul\":17626:17629   */\n      dup7\n        /* \"#utility.yul\":17622:17638   */\n      add\n        /* \"#utility.yul\":17618:17645   */\n      add\n        /* \"#utility.yul\":17611:17649   */\n      mstore\n        /* \"#utility.yul\":17710:17714   */\n      0x20\n        /* \"#utility.yul\":17703:17705   */\n      0x1f\n        /* \"#utility.yul\":17699:17706   */\n      not\n        /* \"#utility.yul\":17694:17696   */\n      0x1f\n        /* \"#utility.yul\":17686:17692   */\n      dup4\n        /* \"#utility.yul\":17682:17697   */\n      add\n        /* \"#utility.yul\":17678:17707   */\n      and\n        /* \"#utility.yul\":17673:17676   */\n      dup6\n        /* \"#utility.yul\":17669:17708   */\n      add\n        /* \"#utility.yul\":17665:17715   */\n      add\n        /* \"#utility.yul\":17658:17715   */\n      swap2\n      pop\n      pop\n        /* \"#utility.yul\":17421:17721   */\n      swap3\n      swap2\n      pop\n      pop\n      jump\t// out\n        /* \"#utility.yul\":17726:17957   */\n    tag_489:\n        /* \"#utility.yul\":17875:17877   */\n      0x20\n        /* \"#utility.yul\":17864:17873   */\n      dup2\n        /* \"#utility.yul\":17857:17878   */\n      mstore\n        /* \"#utility.yul\":17838:17842   */\n      0x00\n        /* \"#utility.yul\":17895:17951   */\n      tag_384\n        /* \"#utility.yul\":17947:17949   */\n      0x20\n        /* \"#utility.yul\":17936:17945   */\n      dup4\n        /* \"#utility.yul\":17932:17950   */\n      add\n        /* \"#utility.yul\":17924:17930   */\n      dup5\n        /* \"#utility.yul\":17895:17951   */\n      tag_911\n      jump\t// in\n        /* \"#utility.yul\":18617:18796   */\n    tag_507:\n        /* \"#utility.yul\":18652:18655   */\n      0x00\n        /* \"#utility.yul\":18694:18695   */\n      0x03\n        /* \"#utility.yul\":18676:18692   */\n      returndatasize\n        /* \"#utility.yul\":18673:18696   */\n      gt\n        /* \"#utility.yul\":18670:18790   */\n      iszero\n      tag_213\n      jumpi\n        /* \"#utility.yul\":18740:18741   */\n      0x04\n        /* \"#utility.yul\":18737:18738   */\n      0x00\n        /* \"#utility.yul\":18734:18735   */\n      dup1\n        /* \"#utility.yul\":18719:18742   */\n      returndatacopy\n      pop\n        /* \"#utility.yul\":18777:18778   */\n      0x00\n        /* \"#utility.yul\":18771:18779   */\n      mload\n        /* \"#utility.yul\":18766:18769   */\n      0xe0\n        /* \"#utility.yul\":18762:18780   */\n      shr\n        /* \"#utility.yul\":18617:18796   */\n      swap1\n      jump\t// out\n        /* \"#utility.yul\":18801:19472   */\n    tag_509:\n        /* \"#utility.yul\":18840:18843   */\n      0x00\n        /* \"#utility.yul\":18882:18886   */\n      0x44\n        /* \"#utility.yul\":18864:18880   */\n      returndatasize\n        /* \"#utility.yul\":18861:18887   */\n      lt\n        /* \"#utility.yul\":18858:18897   */\n      iszero\n      tag_1058\n      jumpi\n        /* \"#utility.yul\":18801:19472   */\n      swap1\n      jump\t// out\n        /* \"#utility.yul\":18858:18897   */\n    tag_1058:\n        /* \"#utility.yul\":18924:18926   */\n      0x40\n        /* \"#utility.yul\":18918:18927   */\n      mload\n      not(0x03)\n        /* \"#utility.yul\":18989:19005   */\n      returndatasize\n        /* \"#utility.yul\":18985:19010   */\n      dup2\n      add\n        /* \"#utility.yul\":18982:18983   */\n      0x04\n        /* \"#utility.yul\":18918:18927   */\n      dup4\n        /* \"#utility.yul\":18961:19011   */\n      returndatacopy\n        /* \"#utility.yul\":19040:19044   */\n      dup2\n        /* \"#utility.yul\":19034:19045   */\n      mload\n        /* \"#utility.yul\":19064:19080   */\n      returndatasize\n        /* \"#utility.yul\":19099:19117   */\n      0xffffffffffffffff\n        /* \"#utility.yul\":19170:19172   */\n      dup2\n        /* \"#utility.yul\":19163:19167   */\n      0x24\n        /* \"#utility.yul\":19155:19161   */\n      dup5\n        /* \"#utility.yul\":19151:19168   */\n      add\n        /* \"#utility.yul\":19148:19173   */\n      gt\n        /* \"#utility.yul\":19143:19145   */\n      dup2\n        /* \"#utility.yul\":19135:19141   */\n      dup5\n        /* \"#utility.yul\":19132:19146   */\n      gt\n        /* \"#utility.yul\":19129:19174   */\n      or\n        /* \"#utility.yul\":19126:19184   */\n      iszero\n      tag_1059\n      jumpi\n        /* \"#utility.yul\":19177:19182   */\n      pop\n      pop\n      pop\n      pop\n      pop\n        /* \"#utility.yul\":18801:19472   */\n      swap1\n      jump\t// out\n        /* \"#utility.yul\":19126:19184   */\n    tag_1059:\n        /* \"#utility.yul\":19214:19220   */\n      dup3\n        /* \"#utility.yul\":19208:19212   */\n      dup6\n        /* \"#utility.yul\":19204:19221   */\n      add\n        /* \"#utility.yul\":19193:19221   */\n      swap2\n      pop\n        /* \"#utility.yul\":19250:19253   */\n      dup2\n        /* \"#utility.yul\":19244:19254   */\n      mload\n        /* \"#utility.yul\":19277:19279   */\n      dup2\n        /* \"#utility.yul\":19269:19275   */\n      dup2\n        /* \"#utility.yul\":19266:19280   */\n      gt\n        /* \"#utility.yul\":19263:19290   */\n      iszero\n      tag_1060\n      jumpi\n        /* \"#utility.yul\":19283:19288   */\n      pop\n      pop\n      pop\n      pop\n      pop\n      pop\n        /* \"#utility.yul\":18801:19472   */\n      swap1\n      jump\t// out\n        /* \"#utility.yul\":19263:19290   */\n    tag_1060:\n        /* \"#utility.yul\":19367:19369   */\n      dup5\n        /* \"#utility.yul\":19348:19364   */\n      returndatasize\n        /* \"#utility.yul\":19342:19346   */\n      dup8\n        /* \"#utility.yul\":19338:19365   */\n      add\n        /* \"#utility.yul\":19334:19370   */\n      add\n        /* \"#utility.yul\":19327:19331   */\n      0x20\n        /* \"#utility.yul\":19318:19324   */\n      dup3\n        /* \"#utility.yul\":19313:19316   */\n      dup6\n        /* \"#utility.yul\":19309:19325   */\n      add\n        /* \"#utility.yul\":19305:19332   */\n      add\n        /* \"#utility.yul\":19302:19371   */\n      gt\n        /* \"#utility.yul\":19299:19381   */\n      iszero\n      tag_1061\n      jumpi\n        /* \"#utility.yul\":19374:19379   */\n      pop\n      pop\n      pop\n      pop\n      pop\n      pop\n        /* \"#utility.yul\":18801:19472   */\n      swap1\n      jump\t// out\n        /* \"#utility.yul\":19299:19381   */\n    tag_1061:\n        /* \"#utility.yul\":19390:19447   */\n      tag_442\n        /* \"#utility.yul\":19441:19445   */\n      0x20\n        /* \"#utility.yul\":19432:19438   */\n      dup3\n        /* \"#utility.yul\":19424:19430   */\n      dup7\n        /* \"#utility.yul\":19420:19439   */\n      add\n        /* \"#utility.yul\":19416:19446   */\n      add\n        /* \"#utility.yul\":19410:19414   */\n      dup8\n        /* \"#utility.yul\":19390:19447   */\n      tag_903\n      jump\t// in\n        /* \"#utility.yul\":19477:19953   */\n    tag_512:\n        /* \"#utility.yul\":19727:19729   */\n      0x40\n        /* \"#utility.yul\":19716:19725   */\n      dup2\n        /* \"#utility.yul\":19709:19730   */\n      mstore\n        /* \"#utility.yul\":19766:19768   */\n      0x17\n        /* \"#utility.yul\":19761:19763   */\n      0x40\n        /* \"#utility.yul\":19750:19759   */\n      dup3\n        /* \"#utility.yul\":19746:19764   */\n      add\n        /* \"#utility.yul\":19739:19769   */\n      mstore\n        /* \"#utility.yul\":19805:19830   */\n      0x736166655472616e7366657246726f6d206661696c6564000000000000000000\n        /* \"#utility.yul\":19800:19802   */\n      0x60\n        /* \"#utility.yul\":19789:19798   */\n      dup3\n        /* \"#utility.yul\":19785:19803   */\n      add\n        /* \"#utility.yul\":19778:19831   */\n      mstore\n        /* \"#utility.yul\":19869:19872   */\n      0x80\n        /* \"#utility.yul\":19862:19866   */\n      0x20\n        /* \"#utility.yul\":19851:19860   */\n      dup3\n        /* \"#utility.yul\":19847:19867   */\n      add\n        /* \"#utility.yul\":19840:19873   */\n      mstore\n        /* \"#utility.yul\":19690:19694   */\n      0x00\n        /* \"#utility.yul\":19890:19947   */\n      tag_384\n        /* \"#utility.yul\":19942:19945   */\n      0x80\n        /* \"#utility.yul\":19931:19940   */\n      dup4\n        /* \"#utility.yul\":19927:19946   */\n      add\n        /* \"#utility.yul\":19919:19925   */\n      dup5\n        /* \"#utility.yul\":19890:19947   */\n      tag_911\n      jump\t// in\n        /* \"#utility.yul\":19958:20309   */\n    tag_514:\n        /* \"#utility.yul\":20220:20247   */\n      0x736166655472616e7366657246726f6d206661696c65643a2000000000000000\n        /* \"#utility.yul\":20215:20218   */\n      dup2\n        /* \"#utility.yul\":20208:20248   */\n      mstore\n        /* \"#utility.yul\":20190:20193   */\n      0x00\n        /* \"#utility.yul\":20264:20303   */\n      tag_384\n        /* \"#utility.yul\":20299:20301   */\n      0x19\n        /* \"#utility.yul\":20294:20297   */\n      dup4\n        /* \"#utility.yul\":20290:20302   */\n      add\n        /* \"#utility.yul\":20282:20288   */\n      dup5\n        /* \"#utility.yul\":20264:20303   */\n      tag_910\n      jump\t// in\n        /* \"#utility.yul\":20314:20591   */\n    tag_542:\n        /* \"#utility.yul\":20381:20387   */\n      0x00\n        /* \"#utility.yul\":20434:20436   */\n      0x20\n        /* \"#utility.yul\":20422:20431   */\n      dup3\n        /* \"#utility.yul\":20413:20420   */\n      dup5\n        /* \"#utility.yul\":20409:20432   */\n      sub\n        /* \"#utility.yul\":20405:20437   */\n      slt\n        /* \"#utility.yul\":20402:20454   */\n      iszero\n      tag_1068\n      jumpi\n        /* \"#utility.yul\":20450:20451   */\n      0x00\n        /* \"#utility.yul\":20447:20448   */\n      dup1\n        /* \"#utility.yul\":20440:20452   */\n      revert\n        /* \"#utility.yul\":20402:20454   */\n    tag_1068:\n        /* \"#utility.yul\":20482:20491   */\n      dup2\n        /* \"#utility.yul\":20476:20492   */\n      mload\n        /* \"#utility.yul\":20535:20540   */\n      dup1\n        /* \"#utility.yul\":20528:20541   */\n      iszero\n        /* \"#utility.yul\":20521:20542   */\n      iszero\n        /* \"#utility.yul\":20514:20519   */\n      dup2\n        /* \"#utility.yul\":20511:20543   */\n      eq\n        /* \"#utility.yul\":20501:20561   */\n      tag_384\n      jumpi\n        /* \"#utility.yul\":20557:20558   */\n      0x00\n        /* \"#utility.yul\":20554:20555   */\n      dup1\n        /* \"#utility.yul\":20547:20559   */\n      revert\n        /* \"#utility.yul\":20596:21209   */\n    tag_544:\n      sub(shl(0xa0, 0x01), 0x01)\n        /* \"#utility.yul\":20907:20913   */\n      dup7\n        /* \"#utility.yul\":20903:20958   */\n      and\n        /* \"#utility.yul\":20892:20901   */\n      dup2\n        /* \"#utility.yul\":20885:20959   */\n      mstore\n        /* \"#utility.yul\":20995:21001   */\n      dup5\n        /* \"#utility.yul\":20990:20992   */\n      0x20\n        /* \"#utility.yul\":20979:20988   */\n      dup3\n        /* \"#utility.yul\":20975:20993   */\n      add\n        /* \"#utility.yul\":20968:21002   */\n      mstore\n        /* \"#utility.yul\":21038:21044   */\n      dup4\n        /* \"#utility.yul\":21033:21035   */\n      0x40\n        /* \"#utility.yul\":21022:21031   */\n      dup3\n        /* \"#utility.yul\":21018:21036   */\n      add\n        /* \"#utility.yul\":21011:21045   */\n      mstore\n        /* \"#utility.yul\":21081:21084   */\n      0xa0\n        /* \"#utility.yul\":21076:21078   */\n      0x60\n        /* \"#utility.yul\":21065:21074   */\n      dup3\n        /* \"#utility.yul\":21061:21079   */\n      add\n        /* \"#utility.yul\":21054:21085   */\n      mstore\n        /* \"#utility.yul\":20866:20870   */\n      0x00\n        /* \"#utility.yul\":21102:21159   */\n      tag_1071\n        /* \"#utility.yul\":21154:21157   */\n      0xa0\n        /* \"#utility.yul\":21143:21152   */\n      dup4\n        /* \"#utility.yul\":21139:21158   */\n      add\n        /* \"#utility.yul\":21131:21137   */\n      dup6\n        /* \"#utility.yul\":21102:21159   */\n      tag_904\n      jump\t// in\n    tag_1071:\n        /* \"#utility.yul\":21094:21159   */\n      swap1\n      pop\n        /* \"#utility.yul\":21196:21202   */\n      dup3\n        /* \"#utility.yul\":21190:21193   */\n      0x80\n        /* \"#utility.yul\":21179:21188   */\n      dup4\n        /* \"#utility.yul\":21175:21194   */\n      add\n        /* \"#utility.yul\":21168:21203   */\n      mstore\n        /* \"#utility.yul\":20596:21209   */\n      swap7\n      swap6\n      pop\n      pop\n      pop\n      pop\n      pop\n      pop\n      jump\t// out\n        /* \"#utility.yul\":22238:22365   */\n    tag_665:\n        /* \"#utility.yul\":22299:22309   */\n      0x4e487b71\n        /* \"#utility.yul\":22294:22297   */\n      0xe0\n        /* \"#utility.yul\":22290:22310   */\n      shl\n        /* \"#utility.yul\":22287:22288   */\n      0x00\n        /* \"#utility.yul\":22280:22311   */\n      mstore\n        /* \"#utility.yul\":22330:22334   */\n      0x12\n        /* \"#utility.yul\":22327:22328   */\n      0x04\n        /* \"#utility.yul\":22320:22335   */\n      mstore\n        /* \"#utility.yul\":22354:22358   */\n      0x24\n        /* \"#utility.yul\":22351:22352   */\n      0x00\n        /* \"#utility.yul\":22344:22359   */\n      revert\n\n    auxdata: 0xa2646970667358221220e14f61c4175726860f7ac776bd1ea0f4e5cc5fb0f37252da12511891e3193f3564736f6c63430008190033\n}\n",
    "bytecode": {
      "linkReferences": {},
      "object": "6080604052602a600955348015610014575f80fd5b5060405161496138038061496183398101604081905261003391610107565b806001600160a01b03811661006157604051631e4fbdf760e01b81525f600482015260240160405180910390fd5b61006a8161009d565b5050600780546001600160a01b039384166001600160a01b03199182161790915560088054929093169116179055610147565b5f80546001600160a01b038381166001600160a01b0319831681178455604051919092169283917f8be0079c531659141344cd1fd0a4f28419497f9722a3daafe3b4186f6b6457e09190a35050565b80516001600160a01b0381168114610102575f80fd5b919050565b5f805f60608486031215610119575f80fd5b610122846100ec565b9250610130602085016100ec565b915061013e604085016100ec565b90509250925092565b61480d806101545f395ff3fe608060405234801561000f575f80fd5b5060043610610235575f3560e01c80638767d64e1161013d578063cd6bd6db116100b8578063e1fc230511610088578063f2fde38b1161006e578063f2fde38b146104cc578063f76da1d9146104df578063fc0c546a146104f2575f80fd5b8063e1fc2305146104a4578063f23a6e61146104ac575f80fd5b8063cd6bd6db1461045d578063d8fdb38614610471578063df7bd8fc1461047e578063e1d19acb14610491575f80fd5b80638da5cb5b1161010d578063bb6f593e116100f3578063bb6f593e14610406578063bc197c8114610419578063c503133114610454575f80fd5b80638da5cb5b146103cf578063ae92a93d146103f3575f80fd5b80638767d64e1461038a5780638ac40792146103935780638d0a6cff1461039c5780638d36627b146103bc575f80fd5b80634a4f72e1116101cd57806352fdfecc1161019d578063715018a611610183578063715018a6146103645780638062dd931461036c5780638364dfef1461037f575f80fd5b806352fdfecc146103495780635df45a371461035c575f80fd5b80634a4f72e1146102e85780634c395cc4146102fb578063519f50991461030e57806351c6590a14610336575f80fd5b80633ccfd60b116102085780633ccfd60b146102b057806340088ee1146102ba57806346156ea0146102cd578063476343ee146102e0575f80fd5b806301ffc9a714610239578063054454051461026157806310f8625a1461028257806313faede6146102a8575b5f80fd5b61024c610247366004613fdd565b505f90565b60405190151581526020015b60405180910390f35b61027461026f36600461402b565b610505565b604051908152602001610258565b61029561029036600461405c565b610616565b604051600f9190910b8152602001610258565b610295610699565b6102b8610740565b005b6102746102c836600461402b565b610991565b6102956102db366004614084565b610a64565b6102b8610b09565b6102b86102f636600461409b565b610c7a565b610274610309366004614122565b610f93565b61032161031c366004614084565b610fc2565b60408051928352602083019190915201610258565b6102b8610344366004614084565b61117c565b6102956103573660046141b5565b6112f0565b61027461131c565b6102b86113d5565b61029561037a3660046141b5565b6113e8565b600354600f0b610295565b61027460015481565b61027460095481565b6103af6103aa366004614084565b611577565b6040516102589190614210565b6102746103ca36600461402b565b61166f565b5f546001600160a01b03165b6040516001600160a01b039091168152602001610258565b6102956104013660046141b5565b611741565b610295610414366004614084565b6120c6565b61043b6104273660046142a8565b63bc197c8160e01b98975050505050505050565b6040516001600160e01b03199091168152602001610258565b61027460065481565b60045461029590600160801b9004600f0b81565b60055461029590600f0b81565b61029561048c3660046141b5565b61215c565b61027461049f366004614084565b61217f565b6103216123c9565b61043b6104ba36600461435b565b63f23a6e6160e01b9695505050505050565b6102b86104da3660046143ce565b612465565b6102956104ed3660046141b5565b61249f565b6008546103db906001600160a01b031681565b5f80836001600160a01b031663313ce5676040518163ffffffff1660e01b8152600401602060405180830381865afa158015610543573d5f803e3d5ffd5b505050506040513d601f19601f8201168201806040525081019061056791906143e7565b60ff1690505f61057882600a6144fb565b90505f84600f0b12156105d25760405162461bcd60e51b815260206004820152601b60248201527f416d6f756e74206d757374206265206e6f6e2d6e65676174697665000000000060448201526064015b60405180910390fd5b5f6105dd85836128c4565b90505f6105ea8684612939565b67ffffffffffffffff16600f0b131561060b57610608600182614506565b90505b925050505b92915050565b5f80836001600160a01b031663313ce5676040518163ffffffff1660e01b8152600401602060405180830381865afa158015610654573d5f803e3d5ffd5b505050506040513d601f19601f8201168201806040525081019061067891906143e7565b60ff1690506106918361068c83600a6144fb565b612977565b949350505050565b6008545f90600160a01b900460ff1615156001146106b5575f80fd5b5f805b600154811015610720576107168261071161070c600285815481106106df576106df614519565b5f918252602090912060028204015460035460019092166010026101000a9004600f90810b91900b6129ac565b612a07565b612a5e565b91506001016106b8565b5060035461073990600f0b61073483612a98565b612939565b9150505b90565b600854600160a01b900460ff16151560011461075a575f80fd5b610762612ad0565b60075460065460405163dd34de6760e01b81526001600160a01b039092169163dd34de67916107979160040190815260200190565b602060405180830381865afa1580156107b2573d5f803e3d5ffd5b505050506040513d601f19601f820116820180604052508101906107d6919061452d565b5f036108245760405162461bcd60e51b815260206004820152601b60248201527f4d61726b6574206e6565647320746f206265207265736f6c766564000000000060448201526064016105c9565b5f60015467ffffffffffffffff811115610840576108406140e1565b604051908082528060200260200182016040528015610869578160200160208202803683370190505b5090505f5b6001548110156108a257806001901b82828151811061088f5761088f614519565b602090810291909101015260010161086e565b50600754600854600654604051626dc0df60e21b81526001600160a01b03938416936301b7037c936108de939116915f91908790600401614544565b5f604051808303815f87803b1580156108f5575f80fd5b505af1158015610907573d5f803e3d5ffd5b50506008546040516370a0823160e01b815230600482015261098e93503392506001600160a01b03909116906370a0823190602401602060405180830381865afa158015610957573d5f803e3d5ffd5b505050506040513d601f19601f8201168201806040525081019061097b919061452d565b6008546001600160a01b03169190612afc565b50565b5f80836001600160a01b031663313ce5676040518163ffffffff1660e01b8152600401602060405180830381865afa1580156109cf573d5f803e3d5ffd5b505050506040513d601f19601f820116820180604052508101906109f391906143e7565b60ff1690505f610a0482600a6144fb565b90505f84600f0b1215610a595760405162461bcd60e51b815260206004820152601b60248201527f416d6f756e74206d757374206265206e6f6e2d6e65676174697665000000000060448201526064016105c9565b5f61060885836128c4565b5f6001548210610aae5760405162461bcd60e51b8152602060048201526015602482015274092dcecc2d8d2c840deeae8c6dedaca40d2dcc8caf605b1b60448201526064016105c9565b5f610ac861070c600285815481106106df576106df614519565b90505f805b600154811015610afe57610af48261071161070c600285815481106106df576106df614519565b9150600101610acd565b5061069182826129ac565b610b11612ad0565b6008546040516370a0823160e01b81523060048201525f916001600160a01b0316906370a0823190602401602060405180830381865afa158015610b57573d5f803e3d5ffd5b505050506040513d601f19601f82011682018060405250810190610b7b919061452d565b6008546003549192505f91610ba3916001600160a01b031690600160801b9004600f0b610991565b9050808211610bf45760405162461bcd60e51b815260206004820152601360248201527f4e6f206665657320746f2077697468647261770000000000000000000000000060448201526064016105c9565b5f610bff8284614571565b9050610c28610c155f546001600160a01b031690565b6008546001600160a01b03169083612afc565b5f546001600160a01b03166001600160a01b03167fc0819c13be868895eb93e40eaceb96de976442fa1d404e5c55f14bb65a8c489a82604051610c6d91815260200190565b60405180910390a2505050565b610c82612ad0565b600854600160a01b900460ff1615610cdc5760405162461bcd60e51b815260206004820152600c60248201527f416c726561647920696e6974000000000000000000000000000000000000000060448201526064016105c9565b5f8111610d2b5760405162461bcd60e51b815260206004820152601760248201527f43616e6e6f7420686176652030206f766572726f756e6400000000000000000060448201526064016105c9565b60075460405163365bb9d560e21b81526001600160a01b03888116600483015260248201889052604482018790529091169063d96ee754906064015f604051808303815f87803b158015610d7d575f80fd5b505af1158015610d8f573d5f803e3d5ffd5b5050600754604051634296357160e11b81526001600160a01b038a81166004830152602482018a905260448201899052909116925063852c6ae29150606401602060405180830381865afa158015610de9573d5f803e3d5ffd5b505050506040513d601f19601f82011682018060405250810190610e0d919061452d565b60065560018490555f610e1f85612b75565b6008549091505f90610e3a906001600160a01b031686610616565b600380546001600160801b0319166001600160801b038316179055600854909150610e70906001600160a01b0316333087612b91565b5f5b86811015610ed25760028054600180820183555f8390527f405787fa12a823e0f2b7631cc41b3ba8828b3321ca811111fa75cd3aa3bb5ace9282049290920180549183166010026101000a6001600160801b030219909116905501610e72565b50600880547fffffffffffffffffffffff00ffffffffffffffffffffffffffffffffffffffff16600160a01b179055600454610f1890600160801b9004600f0b83612939565b600480546001600160801b0319166001600160801b0392909216919091179055610f40610699565b600380546001600160801b03928316600160801b029216919091179055610f6983612710612977565b600580546001600160801b0319166001600160801b03929092169190911790555050505050505050565b5f81604051602001610fa5919061459b565b604051602081830303815290604052805190602001209050919050565b5f80600154831061100d5760405162461bcd60e51b8152602060048201526015602482015274092dcecc2d8d2c840deeae8c6dedaca40d2dcc8caf605b1b60448201526064016105c9565b60075460065460405163856296f760e01b81525f6004820181905260248201929092526001861b604482015290916001600160a01b03169063856296f790606401602060405180830381865afa158015611069573d5f803e3d5ffd5b505050506040513d601f19601f8201168201806040525081019061108d919061452d565b60075460085460405163039dd75360e41b81526001600160a01b0391821660048201526024810184905292935016906339dd753090604401602060405180830381865afa1580156110e0573d5f803e3d5ffd5b505050506040513d601f19601f82011682018060405250810190611104919061452d565b600754604051627eeac760e11b8152306004820152602481018390529194506001600160a01b03169062fdd58e90604401602060405180830381865afa158015611150573d5f803e3d5ffd5b505050506040513d601f19601f82011682018060405250810190611174919061452d565b915050915091565b611184612ad0565b60085461119c906001600160a01b0316333084612b91565b6008545f906111b4906001600160a01b031683610616565b90505f5b60015481101561124d576111ff600282815481106111d8576111d8614519565b905f5260205f2090600291828204019190066010029054906101000a9004600f0b83612a5e565b6002828154811061121257611212614519565b5f9182526020909120600282040180546001600160801b0393841660106001948516026101000a9081029402191692909217909155016111b8565b5060045460015461126b91600f0b9061071190849061073490612b75565b600480546001600160801b0319166001600160801b0392909216919091179055611293610699565b600380546001600160801b03928316600160801b02921691909117905560405133907fc17cea59c2955cb181b03393209566960365771dbba9dc3d510180e7cb312088906112e49085815260200190565b60405180910390a25050565b5f6112fe8361037a846145a6565b6003546113159190600160801b9004600f0b6145ca565b9392505050565b6008546040516370a0823160e01b81523060048201525f9182916001600160a01b03909116906370a0823190602401602060405180830381865afa158015611366573d5f803e3d5ffd5b505050506040513d601f19601f8201168201806040525081019061138a919061452d565b6008546003549192505f916113b2916001600160a01b031690600160801b9004600f0b610991565b9050808211156113cd576113c68183614571565b9250505090565b5f9250505090565b6113dd612ad0565b6113e65f612bd0565b565b5f805f60028054905067ffffffffffffffff811115611409576114096140e1565b604051908082528060200260200182016040528015611432578160200160208202803683370190505b50600354909150600f0b5f5b60015481101561151e576001811b8716156114bb576114906002828154811061146957611469614519565b905f5260205f2090600291828204019190066010029054906101000a9004600f0b87612a5e565b8382815181106114a2576114a2614519565b6020026020010190600f0b9081600f0b81525050611516565b600281815481106114ce576114ce614519565b905f5260205f2090600291828204019190066010029054906101000a9004600f0b83828151811061150157611501614519565b6020026020010190600f0b9081600f0b815250505b60010161143e565b505f5b60015481101561155f576115558461071161070c86858151811061154757611547614519565b6020026020010151866129ac565b9350600101611521565b5061156d8161073485612a98565b9695505050505050565b60605f600180546001901b61158c9190614571565b90506001831b81185f61159e82612c37565b6115a9906001614506565b67ffffffffffffffff8111156115c1576115c16140e1565b6040519080825280602002602001820160405280156115ea578160200160208202803683370190505b5090505f60019050856001901b825f8151811061160957611609614519565b6020026020010181815250505f5b600154811015611664576001811b84161561165c57806001901b83838151811061164357611643614519565b60209081029190910101528161165881614600565b9250505b600101611617565b509095945050505050565b5f80836001600160a01b031663313ce5676040518163ffffffff1660e01b8152600401602060405180830381865afa1580156116ad573d5f803e3d5ffd5b505050506040513d601f19601f820116820180604052508101906116d191906143e7565b60ff1690505f6116e282600a6144fb565b90505f84600f0b12156117375760405162461bcd60e51b815260206004820152601b60248201527f416d6f756e74206d757374206265206e6f6e2d6e65676174697665000000000060448201526064016105c9565b61060b84826128c4565b6008545f90600160a01b900460ff16151560011461175d575f80fd5b60015483106117a65760405162461bcd60e51b8152602060048201526015602482015274092dcecc2d8d2c840deeae8c6dedaca40d2dcc8caf605b1b60448201526064016105c9565b5f82600f0b136117f85760405162461bcd60e51b815260206004820152601760248201527f416d6f756e74206d75737420626520706f73697469766500000000000000000060448201526064016105c9565b60075460065460405163dd34de6760e01b81526001600160a01b039092169163dd34de679161182d9160040190815260200190565b602060405180830381865afa158015611848573d5f803e3d5ffd5b505050506040513d601f19601f8201168201806040525081019061186c919061452d565b156118b95760405162461bcd60e51b815260206004820152601760248201527f4d61726b657420616c7265616479207265736f6c76656400000000000000000060448201526064016105c9565b81600f0b600284815481106118d0576118d0614519565b5f918252602090912060028204015460019091166010026101000a9004600f0b121561193e5760405162461bcd60e51b815260206004820152601960248201527f4e6f7420656e6f7567682073686172657320746f2073656c6c0000000000000060448201526064016105c9565b5f805f6119d960028054806020026020016040519081016040528092919081815260200182805480156119b057602002820191905f5260205f20905f905b825461010083900a9004600f0b81526020601f830181900493840193600103601090930192909202910180841161197c5790505b50506004546003546001548d95508c9450600f92830b9350600160801b90910490910b90612c65565b9250925092505f6119e98761217f565b6008549091505f90611a04906001600160a01b03168861166f565b6040517f4d61782073656c6c61626c653a200000000000000000000000000000000000006020820152602e81018490527f20746f6b656e7300000000000000000000000000000000000000000000000000604e820152909150828211159060550160405160208183030381529060405290611a925760405162461bcd60e51b81526004016105c99190614646565b5060075460085460065460405163856296f760e01b81525f60048201819052602482019290925260018c1b604482015290926001600160a01b03908116926339dd753092911690839063856296f790606401602060405180830381865afa158015611aff573d5f803e3d5ffd5b505050506040513d601f19601f82011682018060405250810190611b23919061452d565b6040516001600160e01b031960e085901b1681526001600160a01b0390921660048301526024820152604401602060405180830381865afa158015611b6a573d5f803e3d5ffd5b505050506040513d601f19601f82011682018060405250810190611b8e919061452d565b600754604051637921219560e11b8152336004820152306024820152604481018390526064810185905260a060848201525f60a48201529192506001600160a01b03169063f242432a9060c4015f604051808303815f87803b158015611bf2575f80fd5b505af1925050508015611c03575060015b611ca657611c0f614658565b806308c379a003611c9c5750611c23614670565b80611c2e5750611c9e565b7fbd1dcaeca35ae4a65142e160b7e80d67e7d37f2145f209d9c29b7e4daf85ba3781604051611c5d91906146ee565b60405180910390a180604051602001611c769190614734565b60408051601f198184030181529082905262461bcd60e51b82526105c991600401614646565b505b3d5f803e3d5ffd5b5f611cb08a611577565b90505f805f5b8351811015611e7e5760075460085460065486515f936001600160a01b03908116936339dd753093911691849163856296f7918791908c908a908110611cfe57611cfe614519565b60200260200101516040518463ffffffff1660e01b8152600401611d35939291909283526020830191909152604082015260600190565b602060405180830381865afa158015611d50573d5f803e3d5ffd5b505050506040513d601f19601f82011682018060405250810190611d74919061452d565b6040516001600160e01b031960e085901b1681526001600160a01b0390921660048301526024820152604401602060405180830381865afa158015611dbb573d5f803e3d5ffd5b505050506040513d601f19601f82011682018060405250810190611ddf919061452d565b600754604051627eeac760e11b8152306004820152602481018390529192505f916001600160a01b039091169062fdd58e90604401602060405180830381865afa158015611e2f573d5f803e3d5ffd5b505050506040513d601f19601f82011682018060405250810190611e53919061452d565b905087811015611e745760019450611e6b8189614571565b93505050611e7e565b5050600101611cb6565b508115611f685760085460075460405163095ea7b360e01b81526001600160a01b0391821660048201526024810184905291169063095ea7b3906044016020604051808303815f875af1158015611ed7573d5f803e3d5ffd5b505050506040513d601f19601f82011682018060405250810190611efb9190614765565b506007546008546006546040516372ce427560e01b81526001600160a01b03938416936372ce427593611f3a939116915f919089908890600401614784565b5f604051808303815f87803b158015611f51575f80fd5b505af1158015611f63573d5f803e3d5ffd5b505050505b600754600854600654604051639e7212ad60e01b81526001600160a01b0393841693639e7212ad93611fa6939116915f919089908c90600401614784565b5f604051808303815f87803b158015611fbd575f80fd5b505af1158015611fcf573d5f803e3d5ffd5b5050505061201060028d81548110611fe957611fe9614519565b905f5260205f2090600291828204019190066010029054906101000a9004600f0b8c612dc6565b60028d8154811061202357612023614519565b5f918252602082206002820401805460019092166010026101000a6001600160801b03818102199093169483160293909317909255600480546001600160801b0319168a8416179055600380548316600160801b938d16939093029290921790915560085461209b906001600160a01b03168a61166f565b6008549091506120b5906001600160a01b03163383612afc565b50969b9a5050505050505050505050565b5f60015482106121105760405162461bcd60e51b8152602060048201526015602482015274092dcecc2d8d2c840deeae8c6dedaca40d2dcc8caf605b1b60448201526064016105c9565b6106106002838154811061212657612126614519565b905f5260205f2090600291828204019190066010029054906101000a9004600f0b600460109054906101000a9004600f0b612dc6565b6003545f90600160801b9004600f0b61217584846113e8565b61131591906145ca565b5f60015482106121c95760405162461bcd60e51b8152602060048201526015602482015274092dcecc2d8d2c840deeae8c6dedaca40d2dcc8caf605b1b60448201526064016105c9565b5f82156121d6575f6121d9565b60015b6008546040516370a0823160e01b815230600482015260ff9290921692505f916001600160a01b03909116906370a0823190602401602060405180830381865afa158015612229573d5f803e3d5ffd5b505050506040513d601f19601f8201168201806040525081019061224d919061452d565b60075460085460065460405163856296f760e01b81525f6004820181905260248201929092526001871b6044820152939450926001600160a01b03928316926339dd7530921690839063856296f790606401602060405180830381865afa1580156122ba573d5f803e3d5ffd5b505050506040513d601f19601f820116820180604052508101906122de919061452d565b6040516001600160e01b031960e085901b1681526001600160a01b0390921660048301526024820152604401602060405180830381865afa158015612325573d5f803e3d5ffd5b505050506040513d601f19601f82011682018060405250810190612349919061452d565b600754604051627eeac760e11b8152306004820152602481018390529192505f916001600160a01b039091169062fdd58e90604401602060405180830381865afa158015612399573d5f803e3d5ffd5b505050506040513d601f19601f820116820180604052508101906123bd919061452d565b905061156d8184614506565b6008546040516370a0823160e01b81523060048201525f9182916001600160a01b03909116906370a0823190602401602060405180830381865afa158015612413573d5f803e3d5ffd5b505050506040513d601f19601f82011682018060405250810190612437919061452d565b60085460035491935061245f916001600160a01b0390911690600160801b9004600f0b610991565b90509091565b61246d612ad0565b6001600160a01b03811661249657604051631e4fbdf760e01b81525f60048201526024016105c9565b61098e81612bd0565b6008545f90600160a01b900460ff1615156001146124bb575f80fd5b60015483106125045760405162461bcd60e51b8152602060048201526015602482015274092dcecc2d8d2c840deeae8c6dedaca40d2dcc8caf605b1b60448201526064016105c9565b5f82600f0b136125565760405162461bcd60e51b815260206004820152601760248201527f416d6f756e74206d75737420626520706f73697469766500000000000000000060448201526064016105c9565b60075460065460405163dd34de6760e01b81526001600160a01b039092169163dd34de679161258b9160040190815260200190565b602060405180830381865afa1580156125a6573d5f803e3d5ffd5b505050506040513d601f19601f820116820180604052508101906125ca919061452d565b156126175760405162461bcd60e51b815260206004820152601760248201527f4d61726b657420616c7265616479207265736f6c76656400000000000000000060448201526064016105c9565b5f805f6126b2600280548060200260200160405190810160405280929190818152602001828054801561268957602002820191905f5260205f20905f905b825461010083900a9004600f0b81526020601f83018190049384019360010360109093019290920291018084116126555790505b50506004546003546001548d95508c9450600f92830b9350600160801b90910490910b90612e00565b9250925092505f6126d16126c66001612b75565b600554600f0b612a5e565b90505f6126de8483612939565b6008549091505f906126f9906001600160a01b031683610505565b60408051828152600f85900b60208201529192507fbd58a27f98d614697f8a2d66c4c15779b5c06324bdc1f23994d9e5f93a537a4d910160405180910390a16008546040516323b872dd60e01b8152336004820152306024820152604481018390526001600160a01b03909116906323b872dd906064016020604051808303815f875af115801561278c573d5f803e3d5ffd5b505050506040513d601f19601f820116820180604052508101906127b09190614765565b6127fc5760405162461bcd60e51b815260206004820152601960248201527f4572726f72207472616e7366657272696e6720746f6b656e730000000000000060448201526064016105c9565b61283960028a8154811061281257612812614519565b905f5260205f2090600291828204019190066010029054906101000a9004600f0b89612a5e565b60028a8154811061284c5761284c614519565b5f91825260209091206002820401805460019092166010026101000a6001600160801b03818102199093169383160292909217909155600480546001600160801b031916868316179055600380548216600160801b928916929092029190911790556128b88989612f42565b50979650505050505050565b5f815f036128d357505f610610565b5f83600f0b12156128e2575f80fd5b600f83900b6001600160801b038316810260401c90608084901c0277ffffffffffffffffffffffffffffffffffffffffffffffff811115612921575f80fd5b60401b8119811115612931575f80fd5b019392505050565b5f600f83810b9083900b0260401d6f7fffffffffffffffffffffffffffffff19811280159061296f575060016001607f1b038113155b611315575f80fd5b5f815f03612983575f80fd5b5f61298e84846132a6565b905060016001607f1b036001600160801b0382161115611315575f80fd5b5f81600f0b5f036129bb575f80fd5b5f82600f0b604085600f0b901b816129d5576129d56147c3565b0590506f7fffffffffffffffffffffffffffffff19811280159061296f575060016001607f1b03811315611315575f80fd5b5f6840000000000000000082600f0b12612a1f575f80fd5b683fffffffffffffffff1982600f0b1215612a3b57505f919050565b610610608083600f0b700171547652b82fe1777d0ffda0d23a7d1202901d613416565b5f600f83810b9083900b016f7fffffffffffffffffffffffffffffff19811280159061296f575060016001607f1b03811315611315575f80fd5b5f8082600f0b13612aa7575f80fd5b6080612ab283613e9c565b600f0b6fb17217f7d1cf79abc9e3b39803f2f6af02901c9050919050565b5f546001600160a01b031633146113e65760405163118cdaa760e01b81523360048201526024016105c9565b6040516001600160a01b03838116602483015260448201839052612b7091859182169063a9059cbb906064015b604051602081830303815290604052915060e01b6020820180517bffffffffffffffffffffffffffffffffffffffffffffffffffffffff8381831617835250505050613f71565b505050565b5f677fffffffffffffff821115612b8a575f80fd5b5060401b90565b6040516001600160a01b038481166024830152838116604483015260648201839052612bca9186918216906323b872dd90608401612b29565b50505050565b5f80546001600160a01b038381167fffffffffffffffffffffffff0000000000000000000000000000000000000000831681178455604051919092169283917f8be0079c531659141344cd1fd0a4f28419497f9722a3daafe3b4186f6b6457e09190a35050565b5f5b8115612c6057612c4a600183614571565b9091169080612c5881614600565b915050612c39565b919050565b5f805f808467ffffffffffffffff811115612c8257612c826140e1565b604051908082528060200260200182016040528015612cab578160200160208202803683370190505b5090505f5b85811015612cff578a8181518110612cca57612cca614519565b6020026020010151828281518110612ce457612ce4614519565b600f9290920b60209283029190910190910152600101612cb0565b50612d23818a81518110612d1557612d15614519565b602002602001015189612dc6565b818a81518110612d3557612d35614519565b6020026020010190600f0b9081600f0b81525050612d538789612dc6565b600354909250600f0b5f805b87811015612d9b57612d918261071161070c878581518110612d8357612d83614519565b6020026020010151876129ac565b9150600101612d5f565b50612da98261073483612a98565b9550612db58887612dc6565b945050505096509650969350505050565b5f600f82810b9084900b036f7fffffffffffffffffffffffffffffff19811280159061296f575060016001607f1b03811315611315575f80fd5b5f805f808467ffffffffffffffff811115612e1d57612e1d6140e1565b604051908082528060200260200182016040528015612e46578160200160208202803683370190505b5090505f5b85811015612e9a578a8181518110612e6557612e65614519565b6020026020010151828281518110612e7f57612e7f614519565b600f9290920b60209283029190910190910152600101612e4b565b50612ebe818a81518110612eb057612eb0614519565b602002602001015189612a5e565b818a81518110612ed057612ed0614519565b6020026020010190600f0b9081600f0b81525050612eee8789612a5e565b600354909250600f0b5f805b87811015612f2857612f1e8261071161070c878581518110612d8357612d83614519565b9150600101612efa565b50612f368261073483612a98565b9550612db58689612dc6565b6008545f90612f5a906001600160a01b031683610505565b60075460085460065460405163856296f760e01b81525f6004820181905260248201929092526001881b6044820152939450926001600160a01b03928316926339dd7530921690839063856296f790606401602060405180830381865afa158015612fc7573d5f803e3d5ffd5b505050506040513d601f19601f82011682018060405250810190612feb919061452d565b6040516001600160e01b031960e085901b1681526001600160a01b0390921660048301526024820152604401602060405180830381865afa158015613032573d5f803e3d5ffd5b505050506040513d601f19601f82011682018060405250810190613056919061452d565b600754604051627eeac760e11b8152306004820152602481018390529192505f916001600160a01b039091169062fdd58e90604401602060405180830381865afa1580156130a6573d5f803e3d5ffd5b505050506040513d601f19601f820116820180604052508101906130ca919061452d565b6040805187815260208101839052908101859052848210606082018190529192507fa473dc6cfd784f529bfcf1db106676ae5832ede00c2e72234a796e528bdbfbaa9060800160405180910390a18015613225576008546007546001600160a01b039182169163095ea7b391166131418389610505565b6040516001600160e01b031960e085901b1681526001600160a01b03909216600483015260248201526044016020604051808303815f875af1158015613189573d5f803e3d5ffd5b505050506040513d601f19601f820116820180604052508101906131ad9190614765565b506007546008546006546001600160a01b03928316926372ce42759216905f906131d68b611577565b896040518663ffffffff1660e01b81526004016131f7959493929190614784565b5f604051808303815f87803b15801561320e575f80fd5b505af1158015613220573d5f803e3d5ffd5b505050505b600754604051637921219560e11b8152306004820152336024820152604481018590526064810186905260a060848201525f60a48201526001600160a01b039091169063f242432a9060c4015f604051808303815f87803b158015613288575f80fd5b505af115801561329a573d5f803e3d5ffd5b50505050505050505050565b5f815f036132b2575f80fd5b5f77ffffffffffffffffffffffffffffffffffffffffffffffff84116132ed5782604085901b816132e5576132e56147c3565b049050613403565b60c084811c6401000000008110613306576020918201911c5b620100008110613318576010918201911c5b6101008110613329576008918201911c5b60108110613339576004918201911c5b60048110613349576002918201911c5b60028110613358576001820191505b60bf820360018603901c6001018260ff0387901b81613379576133796147c3565b0492506001600160801b0383111561338f575f80fd5b608085901c83026001600160801b038616840260c088901c604089901b828110156133bb576001820391505b608084901b929003828110156133d2576001820391505b829003608084901c82146133e75760016133f8565b8881816133f6576133f66147c3565b045b870196505050505050505b6001600160801b03811115611315575f80fd5b5f6840000000000000000082600f0b1261342e575f80fd5b683fffffffffffffffff1982600f0b121561344a57505f919050565b6f800000000000000000000000000000005f6780000000000000008416600f0b13156134875770016a09e667f3bcc908b2fb1366ea957d3e0260801c5b5f8367400000000000000016600f0b13156134b3577001306fe0a31b7152de8d5a46305c85edec0260801c5b5f8367200000000000000016600f0b13156134df577001172b83c7d517adcdf7c8c50eb14a791f0260801c5b5f8367100000000000000016600f0b131561350b5770010b5586cf9890f6298b92b71842a983630260801c5b5f8367080000000000000016600f0b1315613537577001059b0d31585743ae7c548eb68ca417fd0260801c5b5f8367040000000000000016600f0b131561356357700102c9a3e778060ee6f7caca4f7a29bde80260801c5b5f8367020000000000000016600f0b131561358f5770010163da9fb33356d84a66ae336dcdfa3f0260801c5b5f8367010000000000000016600f0b13156135bb57700100b1afa5abcbed6129ab13ec11dc95430260801c5b5f83668000000000000016600f0b13156135e65770010058c86da1c09ea1ff19d294cf2f679b0260801c5b5f83664000000000000016600f0b1315613611577001002c605e2e8cec506d21bfc89a23a00f0260801c5b5f83662000000000000016600f0b131561363c57700100162f3904051fa128bca9c55c31e5df0260801c5b5f83661000000000000016600f0b1315613667577001000b175effdc76ba38e31671ca9397250260801c5b5f83660800000000000016600f0b131561369257700100058ba01fb9f96d6cacd4b180917c3d0260801c5b5f83660400000000000016600f0b13156136bd5770010002c5cc37da9491d0985c348c68e7b30260801c5b5f83660200000000000016600f0b13156136e8577001000162e525ee054754457d59952920260260801c5b5f83660100000000000016600f0b13156137135770010000b17255775c040618bf4a4ade83fc0260801c5b5f836580000000000016600f0b131561373d577001000058b91b5bc9ae2eed81e9b7d4cfab0260801c5b5f836540000000000016600f0b131561376757700100002c5c89d5ec6ca4d7c8acc017b7c90260801c5b5f836520000000000016600f0b13156137915770010000162e43f4f831060e02d839a9d16d0260801c5b5f836510000000000016600f0b13156137bb57700100000b1721bcfc99d9f890ea069117630260801c5b5f836508000000000016600f0b13156137e55770010000058b90cf1e6d97f9ca14dbcc16280260801c5b5f836504000000000016600f0b131561380f577001000002c5c863b73f016468f6bac5ca2b0260801c5b5f836502000000000016600f0b131561383957700100000162e430e5a18f6119e3c02282a50260801c5b5f836501000000000016600f0b1315613863577001000000b1721835514b86e6d96efd1bfe0260801c5b5f8364800000000016600f0b131561388c57700100000058b90c0b48c6be5df846c5b2ef0260801c5b5f8364400000000016600f0b13156138b55770010000002c5c8601cc6b9e94213c72737a0260801c5b5f8364200000000016600f0b13156138de577001000000162e42fff037df38aa2b219f060260801c5b5f8364100000000016600f0b13156139075770010000000b17217fba9c739aa5819f44f90260801c5b5f8364080000000016600f0b1315613930577001000000058b90bfcdee5acd3c1cedc8230260801c5b5f8364040000000016600f0b131561395957700100000002c5c85fe31f35a6a30da1be500260801c5b5f8364020000000016600f0b13156139825770010000000162e42ff0999ce3541b9fffcf0260801c5b5f8364010000000016600f0b13156139ab57700100000000b17217f80f4ef5aadda455540260801c5b5f83638000000016600f0b13156139d35770010000000058b90bfbf8479bd5a81b51ad0260801c5b5f83634000000016600f0b13156139fb577001000000002c5c85fdf84bd62ae30a74cc0260801c5b5f83632000000016600f0b1315613a2357700100000000162e42fefb2fed257559bdaa0260801c5b5f83631000000016600f0b1315613a4b577001000000000b17217f7d5a7716bba4a9ae0260801c5b5f83630800000016600f0b1315613a7357700100000000058b90bfbe9ddbac5e109cce0260801c5b5f83630400000016600f0b1315613a9b5770010000000002c5c85fdf4b15de6f17eb0d0260801c5b5f83630200000016600f0b1315613ac3577001000000000162e42fefa494f1478fde050260801c5b5f83630100000016600f0b1315613aeb5770010000000000b17217f7d20cf927c8e94c0260801c5b5f836280000016600f0b1315613b12577001000000000058b90bfbe8f71cb4e4b33d0260801c5b5f836240000016600f0b1315613b3957700100000000002c5c85fdf477b662b269450260801c5b5f836220000016600f0b1315613b605770010000000000162e42fefa3ae53369388c0260801c5b5f836210000016600f0b1315613b8757700100000000000b17217f7d1d351a389d400260801c5b5f836208000016600f0b1315613bae5770010000000000058b90bfbe8e8b2d3d4ede0260801c5b5f836204000016600f0b1315613bd5577001000000000002c5c85fdf4741bea6e77e0260801c5b5f836202000016600f0b1315613bfc57700100000000000162e42fefa39fe95583c20260801c5b5f836201000016600f0b1315613c23577001000000000000b17217f7d1cfb72b45e10260801c5b5f8361800016600f0b1315613c4957700100000000000058b90bfbe8e7cc35c3f00260801c5b5f8361400016600f0b1315613c6f5770010000000000002c5c85fdf473e242ea380260801c5b5f8361200016600f0b1315613c95577001000000000000162e42fefa39f02b772c0260801c5b5f8361100016600f0b1315613cbb5770010000000000000b17217f7d1cf7d83c1a0260801c5b5f8361080016600f0b1315613ce1577001000000000000058b90bfbe8e7bdcbe2e0260801c5b5f8361040016600f0b1315613d0757700100000000000002c5c85fdf473dea871f0260801c5b5f8361020016600f0b1315613d2d5770010000000000000162e42fefa39ef44d910260801c5b5f8361010016600f0b1315613d5357700100000000000000b17217f7d1cf79e9490260801c5b5f83608016600f0b1315613d785770010000000000000058b90bfbe8e7bce5440260801c5b5f83604016600f0b1315613d9d577001000000000000002c5c85fdf473de6eca0260801c5b5f83602016600f0b1315613dc257700100000000000000162e42fefa39ef366f0260801c5b5f83601016600f0b1315613de7577001000000000000000b17217f7d1cf79afa0260801c5b5f83600816600f0b1315613e0c57700100000000000000058b90bfbe8e7bcd6d0260801c5b5f83600416600f0b1315613e315770010000000000000002c5c85fdf473de6b20260801c5b5f83600216600f0b1315613e56577001000000000000000162e42fefa39ef3580260801c5b5f83600116600f0b1315613e7b5770010000000000000000b17217f7d1cf79ab0260801c5b600f83810b60401d603f03900b1c60016001607f1b03811115610610575f80fd5b5f8082600f0b13613eab575f80fd5b5f600f83900b680100000000000000008112613ec9576040918201911d5b6401000000008112613edd576020918201911d5b620100008112613eef576010918201911d5b6101008112613f00576008918201911d5b60108112613f10576004918201911d5b60048112613f20576002918201911d5b60028112613f2f576001820191505b603f19820160401b600f85900b607f8490031b6780000000000000005b5f8113156116645790800260ff81901c8281029390930192607f011c9060011d613f4c565b5f8060205f8451602086015f885af180613f90576040513d5f823e3d81fd5b50505f513d91508115613fa7578060011415613fb4565b6001600160a01b0384163b155b15612bca57604051635274afe760e01b81526001600160a01b03851660048201526024016105c9565b5f60208284031215613fed575f80fd5b81356001600160e01b031981168114611315575f80fd5b80356001600160a01b0381168114612c60575f80fd5b8035600f81900b8114612c60575f80fd5b5f806040838503121561403c575f80fd5b61404583614004565b91506140536020840161401a565b90509250929050565b5f806040838503121561406d575f80fd5b61407683614004565b946020939093013593505050565b5f60208284031215614094575f80fd5b5035919050565b5f805f805f8060c087890312156140b0575f80fd5b6140b987614004565b9860208801359850604088013597606081013597506080810135965060a00135945092505050565b634e487b7160e01b5f52604160045260245ffd5b601f8201601f1916810167ffffffffffffffff8111828210171561411b5761411b6140e1565b6040525050565b5f6020808385031215614133575f80fd5b823567ffffffffffffffff8082111561414a575f80fd5b818501915085601f83011261415d575f80fd5b81358181111561416f5761416f6140e1565b6040519150614187601f8201601f19168501836140f5565b808252868482850101111561419a575f80fd5b80848401858401375f90820190930192909252509392505050565b5f80604083850312156141c6575f80fd5b823591506140536020840161401a565b5f815180845260208085019450602084015f5b83811015614205578151875295820195908201906001016141e9565b509495945050505050565b602081525f61131560208301846141d6565b5f8083601f840112614232575f80fd5b50813567ffffffffffffffff811115614249575f80fd5b6020830191508360208260051b8501011115614263575f80fd5b9250929050565b5f8083601f84011261427a575f80fd5b50813567ffffffffffffffff811115614291575f80fd5b602083019150836020828501011115614263575f80fd5b5f805f805f805f8060a0898b0312156142bf575f80fd5b6142c889614004565b97506142d660208a01614004565b9650604089013567ffffffffffffffff808211156142f2575f80fd5b6142fe8c838d01614222565b909850965060608b0135915080821115614316575f80fd5b6143228c838d01614222565b909650945060808b013591508082111561433a575f80fd5b506143478b828c0161426a565b999c989b5096995094979396929594505050565b5f805f805f8060a08789031215614370575f80fd5b61437987614004565b955061438760208801614004565b94506040870135935060608701359250608087013567ffffffffffffffff8111156143b0575f80fd5b6143bc89828a0161426a565b979a9699509497509295939492505050565b5f602082840312156143de575f80fd5b61131582614004565b5f602082840312156143f7575f80fd5b815160ff81168114611315575f80fd5b634e487b7160e01b5f52601160045260245ffd5b600181815b8085111561445557815f190482111561443b5761443b614407565b8085161561444857918102915b93841c9390800290614420565b509250929050565b5f8261446b57506001610610565b8161447757505f610610565b816001811461448d5760028114614497576144b3565b6001915050610610565b60ff8411156144a8576144a8614407565b50506001821b610610565b5060208310610133831016604e8410600b84101617156144d6575081810a610610565b6144e0838361441b565b805f19048211156144f3576144f3614407565b029392505050565b5f611315838361445d565b8082018082111561061057610610614407565b634e487b7160e01b5f52603260045260245ffd5b5f6020828403121561453d575f80fd5b5051919050565b6001600160a01b0385168152836020820152826040820152608060608201525f61156d60808301846141d6565b8181038181111561061057610610614407565b5f81518060208401855e5f93019283525090919050565b5f6113158284614584565b5f81600f0b60016001607f1b031981036145c2576145c2614407565b5f0392915050565b600f82810b9082900b036f7fffffffffffffffffffffffffffffff19811260016001607f1b038213171561061057610610614407565b5f6001820161461157614611614407565b5060010190565b5f81518084528060208401602086015e5f602082860101526020601f19601f83011685010191505092915050565b602081525f6113156020830184614618565b5f60033d111561073d5760045f803e505f5160e01c90565b5f60443d101561467d5790565b6040516003193d81016004833e81513d67ffffffffffffffff81602484011181841117156146ad57505050505090565b82850191508151818111156146c55750505050505090565b843d87010160208285010111156146df5750505050505090565b611664602082860101876140f5565b60408152601760408201527f736166655472616e7366657246726f6d206661696c65640000000000000000006060820152608060208201525f6113156080830184614618565b7f736166655472616e7366657246726f6d206661696c65643a200000000000000081525f6113156019830184614584565b5f60208284031215614775575f80fd5b81518015158114611315575f80fd5b6001600160a01b038616815284602082015283604082015260a060608201525f6147b160a08301856141d6565b90508260808301529695505050505050565b634e487b7160e01b5f52601260045260245ffdfea2646970667358221220e14f61c4175726860f7ac776bd1ea0f4e5cc5fb0f37252da12511891e3193f3564736f6c63430008190033",
      "opcodes": "PUSH1 0x80 PUSH1 0x40 MSTORE PUSH1 0x2A PUSH1 0x9 SSTORE CALLVALUE DUP1 ISZERO PUSH2 0x14 JUMPI PUSH0 DUP1 REVERT JUMPDEST POP PUSH1 0x40 MLOAD PUSH2 0x4961 CODESIZE SUB DUP1 PUSH2 0x4961 DUP4 CODECOPY DUP2 ADD PUSH1 0x40 DUP2 SWAP1 MSTORE PUSH2 0x33 SWAP2 PUSH2 0x107 JUMP JUMPDEST DUP1 PUSH1 0x1 PUSH1 0x1 PUSH1 0xA0 SHL SUB DUP2 AND PUSH2 0x61 JUMPI PUSH1 0x40 MLOAD PUSH4 0x1E4FBDF7 PUSH1 0xE0 SHL DUP2 MSTORE PUSH0 PUSH1 0x4 DUP3 ADD MSTORE PUSH1 0x24 ADD PUSH1 0x40 MLOAD DUP1 SWAP2 SUB SWAP1 REVERT JUMPDEST PUSH2 0x6A DUP2 PUSH2 0x9D JUMP JUMPDEST POP POP PUSH1 0x7 DUP1 SLOAD PUSH1 0x1 PUSH1 0x1 PUSH1 0xA0 SHL SUB SWAP4 DUP5 AND PUSH1 0x1 PUSH1 0x1 PUSH1 0xA0 SHL SUB NOT SWAP2 DUP3 AND OR SWAP1 SWAP2 SSTORE PUSH1 0x8 DUP1 SLOAD SWAP3 SWAP1 SWAP4 AND SWAP2 AND OR SWAP1 SSTORE PUSH2 0x147 JUMP JUMPDEST PUSH0 DUP1 SLOAD PUSH1 0x1 PUSH1 0x1 PUSH1 0xA0 SHL SUB DUP4 DUP2 AND PUSH1 0x1 PUSH1 0x1 PUSH1 0xA0 SHL SUB NOT DUP4 AND DUP2 OR DUP5 SSTORE PUSH1 0x40 MLOAD SWAP2 SWAP1 SWAP3 AND SWAP3 DUP4 SWAP2 PUSH32 0x8BE0079C531659141344CD1FD0A4F28419497F9722A3DAAFE3B4186F6B6457E0 SWAP2 SWAP1 LOG3 POP POP JUMP JUMPDEST DUP1 MLOAD PUSH1 0x1 PUSH1 0x1 PUSH1 0xA0 SHL SUB DUP2 AND DUP2 EQ PUSH2 0x102 JUMPI PUSH0 DUP1 REVERT JUMPDEST SWAP2 SWAP1 POP JUMP JUMPDEST PUSH0 DUP1 PUSH0 PUSH1 0x60 DUP5 DUP7 SUB SLT ISZERO PUSH2 0x119 JUMPI PUSH0 DUP1 REVERT JUMPDEST PUSH2 0x122 DUP5 PUSH2 0xEC JUMP JUMPDEST SWAP3 POP PUSH2 0x130 PUSH1 0x20 DUP6 ADD PUSH2 0xEC JUMP JUMPDEST SWAP2 POP PUSH2 0x13E PUSH1 0x40 DUP6 ADD PUSH2 0xEC JUMP JUMPDEST SWAP1 POP SWAP3 POP SWAP3 POP SWAP3 JUMP JUMPDEST PUSH2 0x480D DUP1 PUSH2 0x154 PUSH0 CODECOPY PUSH0 RETURN INVALID PUSH1 0x80 PUSH1 0x40 MSTORE CALLVALUE DUP1 ISZERO PUSH2 0xF JUMPI PUSH0 DUP1 REVERT JUMPDEST POP PUSH1 0x4 CALLDATASIZE LT PUSH2 0x235 JUMPI PUSH0 CALLDATALOAD PUSH1 0xE0 SHR DUP1 PUSH4 0x8767D64E GT PUSH2 0x13D JUMPI DUP1 PUSH4 0xCD6BD6DB GT PUSH2 0xB8 JUMPI DUP1 PUSH4 0xE1FC2305 GT PUSH2 0x88 JUMPI DUP1 PUSH4 0xF2FDE38B GT PUSH2 0x6E JUMPI DUP1 PUSH4 0xF2FDE38B EQ PUSH2 0x4CC JUMPI DUP1 PUSH4 0xF76DA1D9 EQ PUSH2 0x4DF JUMPI DUP1 PUSH4 0xFC0C546A EQ PUSH2 0x4F2 JUMPI PUSH0 DUP1 REVERT JUMPDEST DUP1 PUSH4 0xE1FC2305 EQ PUSH2 0x4A4 JUMPI DUP1 PUSH4 0xF23A6E61 EQ PUSH2 0x4AC JUMPI PUSH0 DUP1 REVERT JUMPDEST DUP1 PUSH4 0xCD6BD6DB EQ PUSH2 0x45D JUMPI DUP1 PUSH4 0xD8FDB386 EQ PUSH2 0x471 JUMPI DUP1 PUSH4 0xDF7BD8FC EQ PUSH2 0x47E JUMPI DUP1 PUSH4 0xE1D19ACB EQ PUSH2 0x491 JUMPI PUSH0 DUP1 REVERT JUMPDEST DUP1 PUSH4 0x8DA5CB5B GT PUSH2 0x10D JUMPI DUP1 PUSH4 0xBB6F593E GT PUSH2 0xF3 JUMPI DUP1 PUSH4 0xBB6F593E EQ PUSH2 0x406 JUMPI DUP1 PUSH4 0xBC197C81 EQ PUSH2 0x419 JUMPI DUP1 PUSH4 0xC5031331 EQ PUSH2 0x454 JUMPI PUSH0 DUP1 REVERT JUMPDEST DUP1 PUSH4 0x8DA5CB5B EQ PUSH2 0x3CF JUMPI DUP1 PUSH4 0xAE92A93D EQ PUSH2 0x3F3 JUMPI PUSH0 DUP1 REVERT JUMPDEST DUP1 PUSH4 0x8767D64E EQ PUSH2 0x38A JUMPI DUP1 PUSH4 0x8AC40792 EQ PUSH2 0x393 JUMPI DUP1 PUSH4 0x8D0A6CFF EQ PUSH2 0x39C JUMPI DUP1 PUSH4 0x8D36627B EQ PUSH2 0x3BC JUMPI PUSH0 DUP1 REVERT JUMPDEST DUP1 PUSH4 0x4A4F72E1 GT PUSH2 0x1CD JUMPI DUP1 PUSH4 0x52FDFECC GT PUSH2 0x19D JUMPI DUP1 PUSH4 0x715018A6 GT PUSH2 0x183 JUMPI DUP1 PUSH4 0x715018A6 EQ PUSH2 0x364 JUMPI DUP1 PUSH4 0x8062DD93 EQ PUSH2 0x36C JUMPI DUP1 PUSH4 0x8364DFEF EQ PUSH2 0x37F JUMPI PUSH0 DUP1 REVERT JUMPDEST DUP1 PUSH4 0x52FDFECC EQ PUSH2 0x349 JUMPI DUP1 PUSH4 0x5DF45A37 EQ PUSH2 0x35C JUMPI PUSH0 DUP1 REVERT JUMPDEST DUP1 PUSH4 0x4A4F72E1 EQ PUSH2 0x2E8 JUMPI DUP1 PUSH4 0x4C395CC4 EQ PUSH2 0x2FB JUMPI DUP1 PUSH4 0x519F5099 EQ PUSH2 0x30E JUMPI DUP1 PUSH4 0x51C6590A EQ PUSH2 0x336 JUMPI PUSH0 DUP1 REVERT JUMPDEST DUP1 PUSH4 0x3CCFD60B GT PUSH2 0x208 JUMPI DUP1 PUSH4 0x3CCFD60B EQ PUSH2 0x2B0 JUMPI DUP1 PUSH4 0x40088EE1 EQ PUSH2 0x2BA JUMPI DUP1 PUSH4 0x46156EA0 EQ PUSH2 0x2CD JUMPI DUP1 PUSH4 0x476343EE EQ PUSH2 0x2E0 JUMPI PUSH0 DUP1 REVERT JUMPDEST DUP1 PUSH4 0x1FFC9A7 EQ PUSH2 0x239 JUMPI DUP1 PUSH4 0x5445405 EQ PUSH2 0x261 JUMPI DUP1 PUSH4 0x10F8625A EQ PUSH2 0x282 JUMPI DUP1 PUSH4 0x13FAEDE6 EQ PUSH2 0x2A8 JUMPI JUMPDEST PUSH0 DUP1 REVERT JUMPDEST PUSH2 0x24C PUSH2 0x247 CALLDATASIZE PUSH1 0x4 PUSH2 0x3FDD JUMP JUMPDEST POP PUSH0 SWAP1 JUMP JUMPDEST PUSH1 0x40 MLOAD SWAP1 ISZERO ISZERO DUP2 MSTORE PUSH1 0x20 ADD JUMPDEST PUSH1 0x40 MLOAD DUP1 SWAP2 SUB SWAP1 RETURN JUMPDEST PUSH2 0x274 PUSH2 0x26F CALLDATASIZE PUSH1 0x4 PUSH2 0x402B JUMP JUMPDEST PUSH2 0x505 JUMP JUMPDEST PUSH1 0x40 MLOAD SWAP1 DUP2 MSTORE PUSH1 0x20 ADD PUSH2 0x258 JUMP JUMPDEST PUSH2 0x295 PUSH2 0x290 CALLDATASIZE PUSH1 0x4 PUSH2 0x405C JUMP JUMPDEST PUSH2 0x616 JUMP JUMPDEST PUSH1 0x40 MLOAD PUSH1 0xF SWAP2 SWAP1 SWAP2 SIGNEXTEND DUP2 MSTORE PUSH1 0x20 ADD PUSH2 0x258 JUMP JUMPDEST PUSH2 0x295 PUSH2 0x699 JUMP JUMPDEST PUSH2 0x2B8 PUSH2 0x740 JUMP JUMPDEST STOP JUMPDEST PUSH2 0x274 PUSH2 0x2C8 CALLDATASIZE PUSH1 0x4 PUSH2 0x402B JUMP JUMPDEST PUSH2 0x991 JUMP JUMPDEST PUSH2 0x295 PUSH2 0x2DB CALLDATASIZE PUSH1 0x4 PUSH2 0x4084 JUMP JUMPDEST PUSH2 0xA64 JUMP JUMPDEST PUSH2 0x2B8 PUSH2 0xB09 JUMP JUMPDEST PUSH2 0x2B8 PUSH2 0x2F6 CALLDATASIZE PUSH1 0x4 PUSH2 0x409B JUMP JUMPDEST PUSH2 0xC7A JUMP JUMPDEST PUSH2 0x274 PUSH2 0x309 CALLDATASIZE PUSH1 0x4 PUSH2 0x4122 JUMP JUMPDEST PUSH2 0xF93 JUMP JUMPDEST PUSH2 0x321 PUSH2 0x31C CALLDATASIZE PUSH1 0x4 PUSH2 0x4084 JUMP JUMPDEST PUSH2 0xFC2 JUMP JUMPDEST PUSH1 0x40 DUP1 MLOAD SWAP3 DUP4 MSTORE PUSH1 0x20 DUP4 ADD SWAP2 SWAP1 SWAP2 MSTORE ADD PUSH2 0x258 JUMP JUMPDEST PUSH2 0x2B8 PUSH2 0x344 CALLDATASIZE PUSH1 0x4 PUSH2 0x4084 JUMP JUMPDEST PUSH2 0x117C JUMP JUMPDEST PUSH2 0x295 PUSH2 0x357 CALLDATASIZE PUSH1 0x4 PUSH2 0x41B5 JUMP JUMPDEST PUSH2 0x12F0 JUMP JUMPDEST PUSH2 0x274 PUSH2 0x131C JUMP JUMPDEST PUSH2 0x2B8 PUSH2 0x13D5 JUMP JUMPDEST PUSH2 0x295 PUSH2 0x37A CALLDATASIZE PUSH1 0x4 PUSH2 0x41B5 JUMP JUMPDEST PUSH2 0x13E8 JUMP JUMPDEST PUSH1 0x3 SLOAD PUSH1 0xF SIGNEXTEND PUSH2 0x295 JUMP JUMPDEST PUSH2 0x274 PUSH1 0x1 SLOAD DUP2 JUMP JUMPDEST PUSH2 0x274 PUSH1 0x9 SLOAD DUP2 JUMP JUMPDEST PUSH2 0x3AF PUSH2 0x3AA CALLDATASIZE PUSH1 0x4 PUSH2 0x4084 JUMP JUMPDEST PUSH2 0x1577 JUMP JUMPDEST PUSH1 0x40 MLOAD PUSH2 0x258 SWAP2 SWAP1 PUSH2 0x4210 JUMP JUMPDEST PUSH2 0x274 PUSH2 0x3CA CALLDATASIZE PUSH1 0x4 PUSH2 0x402B JUMP JUMPDEST PUSH2 0x166F JUMP JUMPDEST PUSH0 SLOAD PUSH1 0x1 PUSH1 0x1 PUSH1 0xA0 SHL SUB AND JUMPDEST PUSH1 0x40 MLOAD PUSH1 0x1 PUSH1 0x1 PUSH1 0xA0 SHL SUB SWAP1 SWAP2 AND DUP2 MSTORE PUSH1 0x20 ADD PUSH2 0x258 JUMP JUMPDEST PUSH2 0x295 PUSH2 0x401 CALLDATASIZE PUSH1 0x4 PUSH2 0x41B5 JUMP JUMPDEST PUSH2 0x1741 JUMP JUMPDEST PUSH2 0x295 PUSH2 0x414 CALLDATASIZE PUSH1 0x4 PUSH2 0x4084 JUMP JUMPDEST PUSH2 0x20C6 JUMP JUMPDEST PUSH2 0x43B PUSH2 0x427 CALLDATASIZE PUSH1 0x4 PUSH2 0x42A8 JUMP JUMPDEST PUSH4 0xBC197C81 PUSH1 0xE0 SHL SWAP9 SWAP8 POP POP POP POP POP POP POP POP JUMP JUMPDEST PUSH1 0x40 MLOAD PUSH1 0x1 PUSH1 0x1 PUSH1 0xE0 SHL SUB NOT SWAP1 SWAP2 AND DUP2 MSTORE PUSH1 0x20 ADD PUSH2 0x258 JUMP JUMPDEST PUSH2 0x274 PUSH1 0x6 SLOAD DUP2 JUMP JUMPDEST PUSH1 0x4 SLOAD PUSH2 0x295 SWAP1 PUSH1 0x1 PUSH1 0x80 SHL SWAP1 DIV PUSH1 0xF SIGNEXTEND DUP2 JUMP JUMPDEST PUSH1 0x5 SLOAD PUSH2 0x295 SWAP1 PUSH1 0xF SIGNEXTEND DUP2 JUMP JUMPDEST PUSH2 0x295 PUSH2 0x48C CALLDATASIZE PUSH1 0x4 PUSH2 0x41B5 JUMP JUMPDEST PUSH2 0x215C JUMP JUMPDEST PUSH2 0x274 PUSH2 0x49F CALLDATASIZE PUSH1 0x4 PUSH2 0x4084 JUMP JUMPDEST PUSH2 0x217F JUMP JUMPDEST PUSH2 0x321 PUSH2 0x23C9 JUMP JUMPDEST PUSH2 0x43B PUSH2 0x4BA CALLDATASIZE PUSH1 0x4 PUSH2 0x435B JUMP JUMPDEST PUSH4 0xF23A6E61 PUSH1 0xE0 SHL SWAP7 SWAP6 POP POP POP POP POP POP JUMP JUMPDEST PUSH2 0x2B8 PUSH2 0x4DA CALLDATASIZE PUSH1 0x4 PUSH2 0x43CE JUMP JUMPDEST PUSH2 0x2465 JUMP JUMPDEST PUSH2 0x295 PUSH2 0x4ED CALLDATASIZE PUSH1 0x4 PUSH2 0x41B5 JUMP JUMPDEST PUSH2 0x249F JUMP JUMPDEST PUSH1 0x8 SLOAD PUSH2 0x3DB SWAP1 PUSH1 0x1 PUSH1 0x1 PUSH1 0xA0 SHL SUB AND DUP2 JUMP JUMPDEST PUSH0 DUP1 DUP4 PUSH1 0x1 PUSH1 0x1 PUSH1 0xA0 SHL SUB AND PUSH4 0x313CE567 PUSH1 0x40 MLOAD DUP2 PUSH4 0xFFFFFFFF AND PUSH1 0xE0 SHL DUP2 MSTORE PUSH1 0x4 ADD PUSH1 0x20 PUSH1 0x40 MLOAD DUP1 DUP4 SUB DUP2 DUP7 GAS STATICCALL ISZERO DUP1 ISZERO PUSH2 0x543 JUMPI RETURNDATASIZE PUSH0 DUP1 RETURNDATACOPY RETURNDATASIZE PUSH0 REVERT JUMPDEST POP POP POP POP PUSH1 0x40 MLOAD RETURNDATASIZE PUSH1 0x1F NOT PUSH1 0x1F DUP3 ADD AND DUP3 ADD DUP1 PUSH1 0x40 MSTORE POP DUP2 ADD SWAP1 PUSH2 0x567 SWAP2 SWAP1 PUSH2 0x43E7 JUMP JUMPDEST PUSH1 0xFF AND SWAP1 POP PUSH0 PUSH2 0x578 DUP3 PUSH1 0xA PUSH2 0x44FB JUMP JUMPDEST SWAP1 POP PUSH0 DUP5 PUSH1 0xF SIGNEXTEND SLT ISZERO PUSH2 0x5D2 JUMPI PUSH1 0x40 MLOAD PUSH3 0x461BCD PUSH1 0xE5 SHL DUP2 MSTORE PUSH1 0x20 PUSH1 0x4 DUP3 ADD MSTORE PUSH1 0x1B PUSH1 0x24 DUP3 ADD MSTORE PUSH32 0x416D6F756E74206D757374206265206E6F6E2D6E656761746976650000000000 PUSH1 0x44 DUP3 ADD MSTORE PUSH1 0x64 ADD JUMPDEST PUSH1 0x40 MLOAD DUP1 SWAP2 SUB SWAP1 REVERT JUMPDEST PUSH0 PUSH2 0x5DD DUP6 DUP4 PUSH2 0x28C4 JUMP JUMPDEST SWAP1 POP PUSH0 PUSH2 0x5EA DUP7 DUP5 PUSH2 0x2939 JUMP JUMPDEST PUSH8 0xFFFFFFFFFFFFFFFF AND PUSH1 0xF SIGNEXTEND SGT ISZERO PUSH2 0x60B JUMPI PUSH2 0x608 PUSH1 0x1 DUP3 PUSH2 0x4506 JUMP JUMPDEST SWAP1 POP JUMPDEST SWAP3 POP POP POP JUMPDEST SWAP3 SWAP2 POP POP JUMP JUMPDEST PUSH0 DUP1 DUP4 PUSH1 0x1 PUSH1 0x1 PUSH1 0xA0 SHL SUB AND PUSH4 0x313CE567 PUSH1 0x40 MLOAD DUP2 PUSH4 0xFFFFFFFF AND PUSH1 0xE0 SHL DUP2 MSTORE PUSH1 0x4 ADD PUSH1 0x20 PUSH1 0x40 MLOAD DUP1 DUP4 SUB DUP2 DUP7 GAS STATICCALL ISZERO DUP1 ISZERO PUSH2 0x654 JUMPI RETURNDATASIZE PUSH0 DUP1 RETURNDATACOPY RETURNDATASIZE PUSH0 REVERT JUMPDEST POP POP POP POP PUSH1 0x40 MLOAD RETURNDATASIZE PUSH1 0x1F NOT PUSH1 0x1F DUP3 ADD AND DUP3 ADD DUP1 PUSH1 0x40 MSTORE POP DUP2 ADD SWAP1 PUSH2 0x678 SWAP2 SWAP1 PUSH2 0x43E7 JUMP JUMPDEST PUSH1 0xFF AND SWAP1 POP PUSH2 0x691 DUP4 PUSH2 0x68C DUP4 PUSH1 0xA PUSH2 0x44FB JUMP JUMPDEST PUSH2 0x2977 JUMP JUMPDEST SWAP5 SWAP4 POP POP POP POP JUMP JUMPDEST PUSH1 0x8 SLOAD PUSH0 SWAP1 PUSH1 0x1 PUSH1 0xA0 SHL SWAP1 DIV PUSH1 0xFF AND ISZERO ISZERO PUSH1 0x1 EQ PUSH2 0x6B5 JUMPI PUSH0 DUP1 REVERT JUMPDEST PUSH0 DUP1 JUMPDEST PUSH1 0x1 SLOAD DUP2 LT ISZERO PUSH2 0x720 JUMPI PUSH2 0x716 DUP3 PUSH2 0x711 PUSH2 0x70C PUSH1 0x2 DUP6 DUP2 SLOAD DUP2 LT PUSH2 0x6DF JUMPI PUSH2 0x6DF PUSH2 0x4519 JUMP JUMPDEST PUSH0 SWAP2 DUP3 MSTORE PUSH1 0x20 SWAP1 SWAP2 KECCAK256 PUSH1 0x2 DUP3 DIV ADD SLOAD PUSH1 0x3 SLOAD PUSH1 0x1 SWAP1 SWAP3 AND PUSH1 0x10 MUL PUSH2 0x100 EXP SWAP1 DIV PUSH1 0xF SWAP1 DUP2 SIGNEXTEND SWAP2 SWAP1 SIGNEXTEND PUSH2 0x29AC JUMP JUMPDEST PUSH2 0x2A07 JUMP JUMPDEST PUSH2 0x2A5E JUMP JUMPDEST SWAP2 POP PUSH1 0x1 ADD PUSH2 0x6B8 JUMP JUMPDEST POP PUSH1 0x3 SLOAD PUSH2 0x739 SWAP1 PUSH1 0xF SIGNEXTEND PUSH2 0x734 DUP4 PUSH2 0x2A98 JUMP JUMPDEST PUSH2 0x2939 JUMP JUMPDEST SWAP2 POP POP JUMPDEST SWAP1 JUMP JUMPDEST PUSH1 0x8 SLOAD PUSH1 0x1 PUSH1 0xA0 SHL SWAP1 DIV PUSH1 0xFF AND ISZERO ISZERO PUSH1 0x1 EQ PUSH2 0x75A JUMPI PUSH0 DUP1 REVERT JUMPDEST PUSH2 0x762 PUSH2 0x2AD0 JUMP JUMPDEST PUSH1 0x7 SLOAD PUSH1 0x6 SLOAD PUSH1 0x40 MLOAD PUSH4 0xDD34DE67 PUSH1 0xE0 SHL DUP2 MSTORE PUSH1 0x1 PUSH1 0x1 PUSH1 0xA0 SHL SUB SWAP1 SWAP3 AND SWAP2 PUSH4 0xDD34DE67 SWAP2 PUSH2 0x797 SWAP2 PUSH1 0x4 ADD SWAP1 DUP2 MSTORE PUSH1 0x20 ADD SWAP1 JUMP JUMPDEST PUSH1 0x20 PUSH1 0x40 MLOAD DUP1 DUP4 SUB DUP2 DUP7 GAS STATICCALL ISZERO DUP1 ISZERO PUSH2 0x7B2 JUMPI RETURNDATASIZE PUSH0 DUP1 RETURNDATACOPY RETURNDATASIZE PUSH0 REVERT JUMPDEST POP POP POP POP PUSH1 0x40 MLOAD RETURNDATASIZE PUSH1 0x1F NOT PUSH1 0x1F DUP3 ADD AND DUP3 ADD DUP1 PUSH1 0x40 MSTORE POP DUP2 ADD SWAP1 PUSH2 0x7D6 SWAP2 SWAP1 PUSH2 0x452D JUMP JUMPDEST PUSH0 SUB PUSH2 0x824 JUMPI PUSH1 0x40 MLOAD PUSH3 0x461BCD PUSH1 0xE5 SHL DUP2 MSTORE PUSH1 0x20 PUSH1 0x4 DUP3 ADD MSTORE PUSH1 0x1B PUSH1 0x24 DUP3 ADD MSTORE PUSH32 0x4D61726B6574206E6565647320746F206265207265736F6C7665640000000000 PUSH1 0x44 DUP3 ADD MSTORE PUSH1 0x64 ADD PUSH2 0x5C9 JUMP JUMPDEST PUSH0 PUSH1 0x1 SLOAD PUSH8 0xFFFFFFFFFFFFFFFF DUP2 GT ISZERO PUSH2 0x840 JUMPI PUSH2 0x840 PUSH2 0x40E1 JUMP JUMPDEST PUSH1 0x40 MLOAD SWAP1 DUP1 DUP3 MSTORE DUP1 PUSH1 0x20 MUL PUSH1 0x20 ADD DUP3 ADD PUSH1 0x40 MSTORE DUP1 ISZERO PUSH2 0x869 JUMPI DUP2 PUSH1 0x20 ADD PUSH1 0x20 DUP3 MUL DUP1 CALLDATASIZE DUP4 CALLDATACOPY ADD SWAP1 POP JUMPDEST POP SWAP1 POP PUSH0 JUMPDEST PUSH1 0x1 SLOAD DUP2 LT ISZERO PUSH2 0x8A2 JUMPI DUP1 PUSH1 0x1 SWAP1 SHL DUP3 DUP3 DUP2 MLOAD DUP2 LT PUSH2 0x88F JUMPI PUSH2 0x88F PUSH2 0x4519 JUMP JUMPDEST PUSH1 0x20 SWAP1 DUP2 MUL SWAP2 SWAP1 SWAP2 ADD ADD MSTORE PUSH1 0x1 ADD PUSH2 0x86E JUMP JUMPDEST POP PUSH1 0x7 SLOAD PUSH1 0x8 SLOAD PUSH1 0x6 SLOAD PUSH1 0x40 MLOAD PUSH3 0x6DC0DF PUSH1 0xE2 SHL DUP2 MSTORE PUSH1 0x1 PUSH1 0x1 PUSH1 0xA0 SHL SUB SWAP4 DUP5 AND SWAP4 PUSH4 0x1B7037C SWAP4 PUSH2 0x8DE SWAP4 SWAP2 AND SWAP2 PUSH0 SWAP2 SWAP1 DUP8 SWAP1 PUSH1 0x4 ADD PUSH2 0x4544 JUMP JUMPDEST PUSH0 PUSH1 0x40 MLOAD DUP1 DUP4 SUB DUP2 PUSH0 DUP8 DUP1 EXTCODESIZE ISZERO DUP1 ISZERO PUSH2 0x8F5 JUMPI PUSH0 DUP1 REVERT JUMPDEST POP GAS CALL ISZERO DUP1 ISZERO PUSH2 0x907 JUMPI RETURNDATASIZE PUSH0 DUP1 RETURNDATACOPY RETURNDATASIZE PUSH0 REVERT JUMPDEST POP POP PUSH1 0x8 SLOAD PUSH1 0x40 MLOAD PUSH4 0x70A08231 PUSH1 0xE0 SHL DUP2 MSTORE ADDRESS PUSH1 0x4 DUP3 ADD MSTORE PUSH2 0x98E SWAP4 POP CALLER SWAP3 POP PUSH1 0x1 PUSH1 0x1 PUSH1 0xA0 SHL SUB SWAP1 SWAP2 AND SWAP1 PUSH4 0x70A08231 SWAP1 PUSH1 0x24 ADD PUSH1 0x20 PUSH1 0x40 MLOAD DUP1 DUP4 SUB DUP2 DUP7 GAS STATICCALL ISZERO DUP1 ISZERO PUSH2 0x957 JUMPI RETURNDATASIZE PUSH0 DUP1 RETURNDATACOPY RETURNDATASIZE PUSH0 REVERT JUMPDEST POP POP POP POP PUSH1 0x40 MLOAD RETURNDATASIZE PUSH1 0x1F NOT PUSH1 0x1F DUP3 ADD AND DUP3 ADD DUP1 PUSH1 0x40 MSTORE POP DUP2 ADD SWAP1 PUSH2 0x97B SWAP2 SWAP1 PUSH2 0x452D JUMP JUMPDEST PUSH1 0x8 SLOAD PUSH1 0x1 PUSH1 0x1 PUSH1 0xA0 SHL SUB AND SWAP2 SWAP1 PUSH2 0x2AFC JUMP JUMPDEST POP JUMP JUMPDEST PUSH0 DUP1 DUP4 PUSH1 0x1 PUSH1 0x1 PUSH1 0xA0 SHL SUB AND PUSH4 0x313CE567 PUSH1 0x40 MLOAD DUP2 PUSH4 0xFFFFFFFF AND PUSH1 0xE0 SHL DUP2 MSTORE PUSH1 0x4 ADD PUSH1 0x20 PUSH1 0x40 MLOAD DUP1 DUP4 SUB DUP2 DUP7 GAS STATICCALL ISZERO DUP1 ISZERO PUSH2 0x9CF JUMPI RETURNDATASIZE PUSH0 DUP1 RETURNDATACOPY RETURNDATASIZE PUSH0 REVERT JUMPDEST POP POP POP POP PUSH1 0x40 MLOAD RETURNDATASIZE PUSH1 0x1F NOT PUSH1 0x1F DUP3 ADD AND DUP3 ADD DUP1 PUSH1 0x40 MSTORE POP DUP2 ADD SWAP1 PUSH2 0x9F3 SWAP2 SWAP1 PUSH2 0x43E7 JUMP JUMPDEST PUSH1 0xFF AND SWAP1 POP PUSH0 PUSH2 0xA04 DUP3 PUSH1 0xA PUSH2 0x44FB JUMP JUMPDEST SWAP1 POP PUSH0 DUP5 PUSH1 0xF SIGNEXTEND SLT ISZERO PUSH2 0xA59 JUMPI PUSH1 0x40 MLOAD PUSH3 0x461BCD PUSH1 0xE5 SHL DUP2 MSTORE PUSH1 0x20 PUSH1 0x4 DUP3 ADD MSTORE PUSH1 0x1B PUSH1 0x24 DUP3 ADD MSTORE PUSH32 0x416D6F756E74206D757374206265206E6F6E2D6E656761746976650000000000 PUSH1 0x44 DUP3 ADD MSTORE PUSH1 0x64 ADD PUSH2 0x5C9 JUMP JUMPDEST PUSH0 PUSH2 0x608 DUP6 DUP4 PUSH2 0x28C4 JUMP JUMPDEST PUSH0 PUSH1 0x1 SLOAD DUP3 LT PUSH2 0xAAE JUMPI PUSH1 0x40 MLOAD PUSH3 0x461BCD PUSH1 0xE5 SHL DUP2 MSTORE PUSH1 0x20 PUSH1 0x4 DUP3 ADD MSTORE PUSH1 0x15 PUSH1 0x24 DUP3 ADD MSTORE PUSH21 0x92DCECC2D8D2C840DEEAE8C6DEDACA40D2DCC8CAF PUSH1 0x5B SHL PUSH1 0x44 DUP3 ADD MSTORE PUSH1 0x64 ADD PUSH2 0x5C9 JUMP JUMPDEST PUSH0 PUSH2 0xAC8 PUSH2 0x70C PUSH1 0x2 DUP6 DUP2 SLOAD DUP2 LT PUSH2 0x6DF JUMPI PUSH2 0x6DF PUSH2 0x4519 JUMP JUMPDEST SWAP1 POP PUSH0 DUP1 JUMPDEST PUSH1 0x1 SLOAD DUP2 LT ISZERO PUSH2 0xAFE JUMPI PUSH2 0xAF4 DUP3 PUSH2 0x711 PUSH2 0x70C PUSH1 0x2 DUP6 DUP2 SLOAD DUP2 LT PUSH2 0x6DF JUMPI PUSH2 0x6DF PUSH2 0x4519 JUMP JUMPDEST SWAP2 POP PUSH1 0x1 ADD PUSH2 0xACD JUMP JUMPDEST POP PUSH2 0x691 DUP3 DUP3 PUSH2 0x29AC JUMP JUMPDEST PUSH2 0xB11 PUSH2 0x2AD0 JUMP JUMPDEST PUSH1 0x8 SLOAD PUSH1 0x40 MLOAD PUSH4 0x70A08231 PUSH1 0xE0 SHL DUP2 MSTORE ADDRESS PUSH1 0x4 DUP3 ADD MSTORE PUSH0 SWAP2 PUSH1 0x1 PUSH1 0x1 PUSH1 0xA0 SHL SUB AND SWAP1 PUSH4 0x70A08231 SWAP1 PUSH1 0x24 ADD PUSH1 0x20 PUSH1 0x40 MLOAD DUP1 DUP4 SUB DUP2 DUP7 GAS STATICCALL ISZERO DUP1 ISZERO PUSH2 0xB57 JUMPI RETURNDATASIZE PUSH0 DUP1 RETURNDATACOPY RETURNDATASIZE PUSH0 REVERT JUMPDEST POP POP POP POP PUSH1 0x40 MLOAD RETURNDATASIZE PUSH1 0x1F NOT PUSH1 0x1F DUP3 ADD AND DUP3 ADD DUP1 PUSH1 0x40 MSTORE POP DUP2 ADD SWAP1 PUSH2 0xB7B SWAP2 SWAP1 PUSH2 0x452D JUMP JUMPDEST PUSH1 0x8 SLOAD PUSH1 0x3 SLOAD SWAP2 SWAP3 POP PUSH0 SWAP2 PUSH2 0xBA3 SWAP2 PUSH1 0x1 PUSH1 0x1 PUSH1 0xA0 SHL SUB AND SWAP1 PUSH1 0x1 PUSH1 0x80 SHL SWAP1 DIV PUSH1 0xF SIGNEXTEND PUSH2 0x991 JUMP JUMPDEST SWAP1 POP DUP1 DUP3 GT PUSH2 0xBF4 JUMPI PUSH1 0x40 MLOAD PUSH3 0x461BCD PUSH1 0xE5 SHL DUP2 MSTORE PUSH1 0x20 PUSH1 0x4 DUP3 ADD MSTORE PUSH1 0x13 PUSH1 0x24 DUP3 ADD MSTORE PUSH32 0x4E6F206665657320746F20776974686472617700000000000000000000000000 PUSH1 0x44 DUP3 ADD MSTORE PUSH1 0x64 ADD PUSH2 0x5C9 JUMP JUMPDEST PUSH0 PUSH2 0xBFF DUP3 DUP5 PUSH2 0x4571 JUMP JUMPDEST SWAP1 POP PUSH2 0xC28 PUSH2 0xC15 PUSH0 SLOAD PUSH1 0x1 PUSH1 0x1 PUSH1 0xA0 SHL SUB AND SWAP1 JUMP JUMPDEST PUSH1 0x8 SLOAD PUSH1 0x1 PUSH1 0x1 PUSH1 0xA0 SHL SUB AND SWAP1 DUP4 PUSH2 0x2AFC JUMP JUMPDEST PUSH0 SLOAD PUSH1 0x1 PUSH1 0x1 PUSH1 0xA0 SHL SUB AND PUSH1 0x1 PUSH1 0x1 PUSH1 0xA0 SHL SUB AND PUSH32 0xC0819C13BE868895EB93E40EACEB96DE976442FA1D404E5C55F14BB65A8C489A DUP3 PUSH1 0x40 MLOAD PUSH2 0xC6D SWAP2 DUP2 MSTORE PUSH1 0x20 ADD SWAP1 JUMP JUMPDEST PUSH1 0x40 MLOAD DUP1 SWAP2 SUB SWAP1 LOG2 POP POP POP JUMP JUMPDEST PUSH2 0xC82 PUSH2 0x2AD0 JUMP JUMPDEST PUSH1 0x8 SLOAD PUSH1 0x1 PUSH1 0xA0 SHL SWAP1 DIV PUSH1 0xFF AND ISZERO PUSH2 0xCDC JUMPI PUSH1 0x40 MLOAD PUSH3 0x461BCD PUSH1 0xE5 SHL DUP2 MSTORE PUSH1 0x20 PUSH1 0x4 DUP3 ADD MSTORE PUSH1 0xC PUSH1 0x24 DUP3 ADD MSTORE PUSH32 0x416C726561647920696E69740000000000000000000000000000000000000000 PUSH1 0x44 DUP3 ADD MSTORE PUSH1 0x64 ADD PUSH2 0x5C9 JUMP JUMPDEST PUSH0 DUP2 GT PUSH2 0xD2B JUMPI PUSH1 0x40 MLOAD PUSH3 0x461BCD PUSH1 0xE5 SHL DUP2 MSTORE PUSH1 0x20 PUSH1 0x4 DUP3 ADD MSTORE PUSH1 0x17 PUSH1 0x24 DUP3 ADD MSTORE PUSH32 0x43616E6E6F7420686176652030206F766572726F756E64000000000000000000 PUSH1 0x44 DUP3 ADD MSTORE PUSH1 0x64 ADD PUSH2 0x5C9 JUMP JUMPDEST PUSH1 0x7 SLOAD PUSH1 0x40 MLOAD PUSH4 0x365BB9D5 PUSH1 0xE2 SHL DUP2 MSTORE PUSH1 0x1 PUSH1 0x1 PUSH1 0xA0 SHL SUB DUP9 DUP2 AND PUSH1 0x4 DUP4 ADD MSTORE PUSH1 0x24 DUP3 ADD DUP9 SWAP1 MSTORE PUSH1 0x44 DUP3 ADD DUP8 SWAP1 MSTORE SWAP1 SWAP2 AND SWAP1 PUSH4 0xD96EE754 SWAP1 PUSH1 0x64 ADD PUSH0 PUSH1 0x40 MLOAD DUP1 DUP4 SUB DUP2 PUSH0 DUP8 DUP1 EXTCODESIZE ISZERO DUP1 ISZERO PUSH2 0xD7D JUMPI PUSH0 DUP1 REVERT JUMPDEST POP GAS CALL ISZERO DUP1 ISZERO PUSH2 0xD8F JUMPI RETURNDATASIZE PUSH0 DUP1 RETURNDATACOPY RETURNDATASIZE PUSH0 REVERT JUMPDEST POP POP PUSH1 0x7 SLOAD PUSH1 0x40 MLOAD PUSH4 0x42963571 PUSH1 0xE1 SHL DUP2 MSTORE PUSH1 0x1 PUSH1 0x1 PUSH1 0xA0 SHL SUB DUP11 DUP2 AND PUSH1 0x4 DUP4 ADD MSTORE PUSH1 0x24 DUP3 ADD DUP11 SWAP1 MSTORE PUSH1 0x44 DUP3 ADD DUP10 SWAP1 MSTORE SWAP1 SWAP2 AND SWAP3 POP PUSH4 0x852C6AE2 SWAP2 POP PUSH1 0x64 ADD PUSH1 0x20 PUSH1 0x40 MLOAD DUP1 DUP4 SUB DUP2 DUP7 GAS STATICCALL ISZERO DUP1 ISZERO PUSH2 0xDE9 JUMPI RETURNDATASIZE PUSH0 DUP1 RETURNDATACOPY RETURNDATASIZE PUSH0 REVERT JUMPDEST POP POP POP POP PUSH1 0x40 MLOAD RETURNDATASIZE PUSH1 0x1F NOT PUSH1 0x1F DUP3 ADD AND DUP3 ADD DUP1 PUSH1 0x40 MSTORE POP DUP2 ADD SWAP1 PUSH2 0xE0D SWAP2 SWAP1 PUSH2 0x452D JUMP JUMPDEST PUSH1 0x6 SSTORE PUSH1 0x1 DUP5 SWAP1 SSTORE PUSH0 PUSH2 0xE1F DUP6 PUSH2 0x2B75 JUMP JUMPDEST PUSH1 0x8 SLOAD SWAP1 SWAP2 POP PUSH0 SWAP1 PUSH2 0xE3A SWAP1 PUSH1 0x1 PUSH1 0x1 PUSH1 0xA0 SHL SUB AND DUP7 PUSH2 0x616 JUMP JUMPDEST PUSH1 0x3 DUP1 SLOAD PUSH1 0x1 PUSH1 0x1 PUSH1 0x80 SHL SUB NOT AND PUSH1 0x1 PUSH1 0x1 PUSH1 0x80 SHL SUB DUP4 AND OR SWAP1 SSTORE PUSH1 0x8 SLOAD SWAP1 SWAP2 POP PUSH2 0xE70 SWAP1 PUSH1 0x1 PUSH1 0x1 PUSH1 0xA0 SHL SUB AND CALLER ADDRESS DUP8 PUSH2 0x2B91 JUMP JUMPDEST PUSH0 JUMPDEST DUP7 DUP2 LT ISZERO PUSH2 0xED2 JUMPI PUSH1 0x2 DUP1 SLOAD PUSH1 0x1 DUP1 DUP3 ADD DUP4 SSTORE PUSH0 DUP4 SWAP1 MSTORE PUSH32 0x405787FA12A823E0F2B7631CC41B3BA8828B3321CA811111FA75CD3AA3BB5ACE SWAP3 DUP3 DIV SWAP3 SWAP1 SWAP3 ADD DUP1 SLOAD SWAP2 DUP4 AND PUSH1 0x10 MUL PUSH2 0x100 EXP PUSH1 0x1 PUSH1 0x1 PUSH1 0x80 SHL SUB MUL NOT SWAP1 SWAP2 AND SWAP1 SSTORE ADD PUSH2 0xE72 JUMP JUMPDEST POP PUSH1 0x8 DUP1 SLOAD PUSH32 0xFFFFFFFFFFFFFFFFFFFFFF00FFFFFFFFFFFFFFFFFFFFFFFFFFFFFFFFFFFFFFFF AND PUSH1 0x1 PUSH1 0xA0 SHL OR SWAP1 SSTORE PUSH1 0x4 SLOAD PUSH2 0xF18 SWAP1 PUSH1 0x1 PUSH1 0x80 SHL SWAP1 DIV PUSH1 0xF SIGNEXTEND DUP4 PUSH2 0x2939 JUMP JUMPDEST PUSH1 0x4 DUP1 SLOAD PUSH1 0x1 PUSH1 0x1 PUSH1 0x80 SHL SUB NOT AND PUSH1 0x1 PUSH1 0x1 PUSH1 0x80 SHL SUB SWAP3 SWAP1 SWAP3 AND SWAP2 SWAP1 SWAP2 OR SWAP1 SSTORE PUSH2 0xF40 PUSH2 0x699 JUMP JUMPDEST PUSH1 0x3 DUP1 SLOAD PUSH1 0x1 PUSH1 0x1 PUSH1 0x80 SHL SUB SWAP3 DUP4 AND PUSH1 0x1 PUSH1 0x80 SHL MUL SWAP3 AND SWAP2 SWAP1 SWAP2 OR SWAP1 SSTORE PUSH2 0xF69 DUP4 PUSH2 0x2710 PUSH2 0x2977 JUMP JUMPDEST PUSH1 0x5 DUP1 SLOAD PUSH1 0x1 PUSH1 0x1 PUSH1 0x80 SHL SUB NOT AND PUSH1 0x1 PUSH1 0x1 PUSH1 0x80 SHL SUB SWAP3 SWAP1 SWAP3 AND SWAP2 SWAP1 SWAP2 OR SWAP1 SSTORE POP POP POP POP POP POP POP POP JUMP JUMPDEST PUSH0 DUP2 PUSH1 0x40 MLOAD PUSH1 0x20 ADD PUSH2 0xFA5 SWAP2 SWAP1 PUSH2 0x459B JUMP JUMPDEST PUSH1 0x40 MLOAD PUSH1 0x20 DUP2 DUP4 SUB SUB DUP2 MSTORE SWAP1 PUSH1 0x40 MSTORE DUP1 MLOAD SWAP1 PUSH1 0x20 ADD KECCAK256 SWAP1 POP SWAP2 SWAP1 POP JUMP JUMPDEST PUSH0 DUP1 PUSH1 0x1 SLOAD DUP4 LT PUSH2 0x100D JUMPI PUSH1 0x40 MLOAD PUSH3 0x461BCD PUSH1 0xE5 SHL DUP2 MSTORE PUSH1 0x20 PUSH1 0x4 DUP3 ADD MSTORE PUSH1 0x15 PUSH1 0x24 DUP3 ADD MSTORE PUSH21 0x92DCECC2D8D2C840DEEAE8C6DEDACA40D2DCC8CAF PUSH1 0x5B SHL PUSH1 0x44 DUP3 ADD MSTORE PUSH1 0x64 ADD PUSH2 0x5C9 JUMP JUMPDEST PUSH1 0x7 SLOAD PUSH1 0x6 SLOAD PUSH1 0x40 MLOAD PUSH4 0x856296F7 PUSH1 0xE0 SHL DUP2 MSTORE PUSH0 PUSH1 0x4 DUP3 ADD DUP2 SWAP1 MSTORE PUSH1 0x24 DUP3 ADD SWAP3 SWAP1 SWAP3 MSTORE PUSH1 0x1 DUP7 SHL PUSH1 0x44 DUP3 ADD MSTORE SWAP1 SWAP2 PUSH1 0x1 PUSH1 0x1 PUSH1 0xA0 SHL SUB AND SWAP1 PUSH4 0x856296F7 SWAP1 PUSH1 0x64 ADD PUSH1 0x20 PUSH1 0x40 MLOAD DUP1 DUP4 SUB DUP2 DUP7 GAS STATICCALL ISZERO DUP1 ISZERO PUSH2 0x1069 JUMPI RETURNDATASIZE PUSH0 DUP1 RETURNDATACOPY RETURNDATASIZE PUSH0 REVERT JUMPDEST POP POP POP POP PUSH1 0x40 MLOAD RETURNDATASIZE PUSH1 0x1F NOT PUSH1 0x1F DUP3 ADD AND DUP3 ADD DUP1 PUSH1 0x40 MSTORE POP DUP2 ADD SWAP1 PUSH2 0x108D SWAP2 SWAP1 PUSH2 0x452D JUMP JUMPDEST PUSH1 0x7 SLOAD PUSH1 0x8 SLOAD PUSH1 0x40 MLOAD PUSH4 0x39DD753 PUSH1 0xE4 SHL DUP2 MSTORE PUSH1 0x1 PUSH1 0x1 PUSH1 0xA0 SHL SUB SWAP2 DUP3 AND PUSH1 0x4 DUP3 ADD MSTORE PUSH1 0x24 DUP2 ADD DUP5 SWAP1 MSTORE SWAP3 SWAP4 POP AND SWAP1 PUSH4 0x39DD7530 SWAP1 PUSH1 0x44 ADD PUSH1 0x20 PUSH1 0x40 MLOAD DUP1 DUP4 SUB DUP2 DUP7 GAS STATICCALL ISZERO DUP1 ISZERO PUSH2 0x10E0 JUMPI RETURNDATASIZE PUSH0 DUP1 RETURNDATACOPY RETURNDATASIZE PUSH0 REVERT JUMPDEST POP POP POP POP PUSH1 0x40 MLOAD RETURNDATASIZE PUSH1 0x1F NOT PUSH1 0x1F DUP3 ADD AND DUP3 ADD DUP1 PUSH1 0x40 MSTORE POP DUP2 ADD SWAP1 PUSH2 0x1104 SWAP2 SWAP1 PUSH2 0x452D JUMP JUMPDEST PUSH1 0x7 SLOAD PUSH1 0x40 MLOAD PUSH3 0x7EEAC7 PUSH1 0xE1 SHL DUP2 MSTORE ADDRESS PUSH1 0x4 DUP3 ADD MSTORE PUSH1 0x24 DUP2 ADD DUP4 SWAP1 MSTORE SWAP2 SWAP5 POP PUSH1 0x1 PUSH1 0x1 PUSH1 0xA0 SHL SUB AND SWAP1 PUSH3 0xFDD58E SWAP1 PUSH1 0x44 ADD PUSH1 0x20 PUSH1 0x40 MLOAD DUP1 DUP4 SUB DUP2 DUP7 GAS STATICCALL ISZERO DUP1 ISZERO PUSH2 0x1150 JUMPI RETURNDATASIZE PUSH0 DUP1 RETURNDATACOPY RETURNDATASIZE PUSH0 REVERT JUMPDEST POP POP POP POP PUSH1 0x40 MLOAD RETURNDATASIZE PUSH1 0x1F NOT PUSH1 0x1F DUP3 ADD AND DUP3 ADD DUP1 PUSH1 0x40 MSTORE POP DUP2 ADD SWAP1 PUSH2 0x1174 SWAP2 SWAP1 PUSH2 0x452D JUMP JUMPDEST SWAP2 POP POP SWAP2 POP SWAP2 JUMP JUMPDEST PUSH2 0x1184 PUSH2 0x2AD0 JUMP JUMPDEST PUSH1 0x8 SLOAD PUSH2 0x119C SWAP1 PUSH1 0x1 PUSH1 0x1 PUSH1 0xA0 SHL SUB AND CALLER ADDRESS DUP5 PUSH2 0x2B91 JUMP JUMPDEST PUSH1 0x8 SLOAD PUSH0 SWAP1 PUSH2 0x11B4 SWAP1 PUSH1 0x1 PUSH1 0x1 PUSH1 0xA0 SHL SUB AND DUP4 PUSH2 0x616 JUMP JUMPDEST SWAP1 POP PUSH0 JUMPDEST PUSH1 0x1 SLOAD DUP2 LT ISZERO PUSH2 0x124D JUMPI PUSH2 0x11FF PUSH1 0x2 DUP3 DUP2 SLOAD DUP2 LT PUSH2 0x11D8 JUMPI PUSH2 0x11D8 PUSH2 0x4519 JUMP JUMPDEST SWAP1 PUSH0 MSTORE PUSH1 0x20 PUSH0 KECCAK256 SWAP1 PUSH1 0x2 SWAP2 DUP3 DUP3 DIV ADD SWAP2 SWAP1 MOD PUSH1 0x10 MUL SWAP1 SLOAD SWAP1 PUSH2 0x100 EXP SWAP1 DIV PUSH1 0xF SIGNEXTEND DUP4 PUSH2 0x2A5E JUMP JUMPDEST PUSH1 0x2 DUP3 DUP2 SLOAD DUP2 LT PUSH2 0x1212 JUMPI PUSH2 0x1212 PUSH2 0x4519 JUMP JUMPDEST PUSH0 SWAP2 DUP3 MSTORE PUSH1 0x20 SWAP1 SWAP2 KECCAK256 PUSH1 0x2 DUP3 DIV ADD DUP1 SLOAD PUSH1 0x1 PUSH1 0x1 PUSH1 0x80 SHL SUB SWAP4 DUP5 AND PUSH1 0x10 PUSH1 0x1 SWAP5 DUP6 AND MUL PUSH2 0x100 EXP SWAP1 DUP2 MUL SWAP5 MUL NOT AND SWAP3 SWAP1 SWAP3 OR SWAP1 SWAP2 SSTORE ADD PUSH2 0x11B8 JUMP JUMPDEST POP PUSH1 0x4 SLOAD PUSH1 0x1 SLOAD PUSH2 0x126B SWAP2 PUSH1 0xF SIGNEXTEND SWAP1 PUSH2 0x711 SWAP1 DUP5 SWAP1 PUSH2 0x734 SWAP1 PUSH2 0x2B75 JUMP JUMPDEST PUSH1 0x4 DUP1 SLOAD PUSH1 0x1 PUSH1 0x1 PUSH1 0x80 SHL SUB NOT AND PUSH1 0x1 PUSH1 0x1 PUSH1 0x80 SHL SUB SWAP3 SWAP1 SWAP3 AND SWAP2 SWAP1 SWAP2 OR SWAP1 SSTORE PUSH2 0x1293 PUSH2 0x699 JUMP JUMPDEST PUSH1 0x3 DUP1 SLOAD PUSH1 0x1 PUSH1 0x1 PUSH1 0x80 SHL SUB SWAP3 DUP4 AND PUSH1 0x1 PUSH1 0x80 SHL MUL SWAP3 AND SWAP2 SWAP1 SWAP2 OR SWAP1 SSTORE PUSH1 0x40 MLOAD CALLER SWAP1 PUSH32 0xC17CEA59C2955CB181B03393209566960365771DBBA9DC3D510180E7CB312088 SWAP1 PUSH2 0x12E4 SWAP1 DUP6 DUP2 MSTORE PUSH1 0x20 ADD SWAP1 JUMP JUMPDEST PUSH1 0x40 MLOAD DUP1 SWAP2 SUB SWAP1 LOG2 POP POP JUMP JUMPDEST PUSH0 PUSH2 0x12FE DUP4 PUSH2 0x37A DUP5 PUSH2 0x45A6 JUMP JUMPDEST PUSH1 0x3 SLOAD PUSH2 0x1315 SWAP2 SWAP1 PUSH1 0x1 PUSH1 0x80 SHL SWAP1 DIV PUSH1 0xF SIGNEXTEND PUSH2 0x45CA JUMP JUMPDEST SWAP4 SWAP3 POP POP POP JUMP JUMPDEST PUSH1 0x8 SLOAD PUSH1 0x40 MLOAD PUSH4 0x70A08231 PUSH1 0xE0 SHL DUP2 MSTORE ADDRESS PUSH1 0x4 DUP3 ADD MSTORE PUSH0 SWAP2 DUP3 SWAP2 PUSH1 0x1 PUSH1 0x1 PUSH1 0xA0 SHL SUB SWAP1 SWAP2 AND SWAP1 PUSH4 0x70A08231 SWAP1 PUSH1 0x24 ADD PUSH1 0x20 PUSH1 0x40 MLOAD DUP1 DUP4 SUB DUP2 DUP7 GAS STATICCALL ISZERO DUP1 ISZERO PUSH2 0x1366 JUMPI RETURNDATASIZE PUSH0 DUP1 RETURNDATACOPY RETURNDATASIZE PUSH0 REVERT JUMPDEST POP POP POP POP PUSH1 0x40 MLOAD RETURNDATASIZE PUSH1 0x1F NOT PUSH1 0x1F DUP3 ADD AND DUP3 ADD DUP1 PUSH1 0x40 MSTORE POP DUP2 ADD SWAP1 PUSH2 0x138A SWAP2 SWAP1 PUSH2 0x452D JUMP JUMPDEST PUSH1 0x8 SLOAD PUSH1 0x3 SLOAD SWAP2 SWAP3 POP PUSH0 SWAP2 PUSH2 0x13B2 SWAP2 PUSH1 0x1 PUSH1 0x1 PUSH1 0xA0 SHL SUB AND SWAP1 PUSH1 0x1 PUSH1 0x80 SHL SWAP1 DIV PUSH1 0xF SIGNEXTEND PUSH2 0x991 JUMP JUMPDEST SWAP1 POP DUP1 DUP3 GT ISZERO PUSH2 0x13CD JUMPI PUSH2 0x13C6 DUP2 DUP4 PUSH2 0x4571 JUMP JUMPDEST SWAP3 POP POP POP SWAP1 JUMP JUMPDEST PUSH0 SWAP3 POP POP POP SWAP1 JUMP JUMPDEST PUSH2 0x13DD PUSH2 0x2AD0 JUMP JUMPDEST PUSH2 0x13E6 PUSH0 PUSH2 0x2BD0 JUMP JUMPDEST JUMP JUMPDEST PUSH0 DUP1 PUSH0 PUSH1 0x2 DUP1 SLOAD SWAP1 POP PUSH8 0xFFFFFFFFFFFFFFFF DUP2 GT ISZERO PUSH2 0x1409 JUMPI PUSH2 0x1409 PUSH2 0x40E1 JUMP JUMPDEST PUSH1 0x40 MLOAD SWAP1 DUP1 DUP3 MSTORE DUP1 PUSH1 0x20 MUL PUSH1 0x20 ADD DUP3 ADD PUSH1 0x40 MSTORE DUP1 ISZERO PUSH2 0x1432 JUMPI DUP2 PUSH1 0x20 ADD PUSH1 0x20 DUP3 MUL DUP1 CALLDATASIZE DUP4 CALLDATACOPY ADD SWAP1 POP JUMPDEST POP PUSH1 0x3 SLOAD SWAP1 SWAP2 POP PUSH1 0xF SIGNEXTEND PUSH0 JUMPDEST PUSH1 0x1 SLOAD DUP2 LT ISZERO PUSH2 0x151E JUMPI PUSH1 0x1 DUP2 SHL DUP8 AND ISZERO PUSH2 0x14BB JUMPI PUSH2 0x1490 PUSH1 0x2 DUP3 DUP2 SLOAD DUP2 LT PUSH2 0x1469 JUMPI PUSH2 0x1469 PUSH2 0x4519 JUMP JUMPDEST SWAP1 PUSH0 MSTORE PUSH1 0x20 PUSH0 KECCAK256 SWAP1 PUSH1 0x2 SWAP2 DUP3 DUP3 DIV ADD SWAP2 SWAP1 MOD PUSH1 0x10 MUL SWAP1 SLOAD SWAP1 PUSH2 0x100 EXP SWAP1 DIV PUSH1 0xF SIGNEXTEND DUP8 PUSH2 0x2A5E JUMP JUMPDEST DUP4 DUP3 DUP2 MLOAD DUP2 LT PUSH2 0x14A2 JUMPI PUSH2 0x14A2 PUSH2 0x4519 JUMP JUMPDEST PUSH1 0x20 MUL PUSH1 0x20 ADD ADD SWAP1 PUSH1 0xF SIGNEXTEND SWAP1 DUP2 PUSH1 0xF SIGNEXTEND DUP2 MSTORE POP POP PUSH2 0x1516 JUMP JUMPDEST PUSH1 0x2 DUP2 DUP2 SLOAD DUP2 LT PUSH2 0x14CE JUMPI PUSH2 0x14CE PUSH2 0x4519 JUMP JUMPDEST SWAP1 PUSH0 MSTORE PUSH1 0x20 PUSH0 KECCAK256 SWAP1 PUSH1 0x2 SWAP2 DUP3 DUP3 DIV ADD SWAP2 SWAP1 MOD PUSH1 0x10 MUL SWAP1 SLOAD SWAP1 PUSH2 0x100 EXP SWAP1 DIV PUSH1 0xF SIGNEXTEND DUP4 DUP3 DUP2 MLOAD DUP2 LT PUSH2 0x1501 JUMPI PUSH2 0x1501 PUSH2 0x4519 JUMP JUMPDEST PUSH1 0x20 MUL PUSH1 0x20 ADD ADD SWAP1 PUSH1 0xF SIGNEXTEND SWAP1 DUP2 PUSH1 0xF SIGNEXTEND DUP2 MSTORE POP POP JUMPDEST PUSH1 0x1 ADD PUSH2 0x143E JUMP JUMPDEST POP PUSH0 JUMPDEST PUSH1 0x1 SLOAD DUP2 LT ISZERO PUSH2 0x155F JUMPI PUSH2 0x1555 DUP5 PUSH2 0x711 PUSH2 0x70C DUP7 DUP6 DUP2 MLOAD DUP2 LT PUSH2 0x1547 JUMPI PUSH2 0x1547 PUSH2 0x4519 JUMP JUMPDEST PUSH1 0x20 MUL PUSH1 0x20 ADD ADD MLOAD DUP7 PUSH2 0x29AC JUMP JUMPDEST SWAP4 POP PUSH1 0x1 ADD PUSH2 0x1521 JUMP JUMPDEST POP PUSH2 0x156D DUP2 PUSH2 0x734 DUP6 PUSH2 0x2A98 JUMP JUMPDEST SWAP7 SWAP6 POP POP POP POP POP POP JUMP JUMPDEST PUSH1 0x60 PUSH0 PUSH1 0x1 DUP1 SLOAD PUSH1 0x1 SWAP1 SHL PUSH2 0x158C SWAP2 SWAP1 PUSH2 0x4571 JUMP JUMPDEST SWAP1 POP PUSH1 0x1 DUP4 SHL DUP2 XOR PUSH0 PUSH2 0x159E DUP3 PUSH2 0x2C37 JUMP JUMPDEST PUSH2 0x15A9 SWAP1 PUSH1 0x1 PUSH2 0x4506 JUMP JUMPDEST PUSH8 0xFFFFFFFFFFFFFFFF DUP2 GT ISZERO PUSH2 0x15C1 JUMPI PUSH2 0x15C1 PUSH2 0x40E1 JUMP JUMPDEST PUSH1 0x40 MLOAD SWAP1 DUP1 DUP3 MSTORE DUP1 PUSH1 0x20 MUL PUSH1 0x20 ADD DUP3 ADD PUSH1 0x40 MSTORE DUP1 ISZERO PUSH2 0x15EA JUMPI DUP2 PUSH1 0x20 ADD PUSH1 0x20 DUP3 MUL DUP1 CALLDATASIZE DUP4 CALLDATACOPY ADD SWAP1 POP JUMPDEST POP SWAP1 POP PUSH0 PUSH1 0x1 SWAP1 POP DUP6 PUSH1 0x1 SWAP1 SHL DUP3 PUSH0 DUP2 MLOAD DUP2 LT PUSH2 0x1609 JUMPI PUSH2 0x1609 PUSH2 0x4519 JUMP JUMPDEST PUSH1 0x20 MUL PUSH1 0x20 ADD ADD DUP2 DUP2 MSTORE POP POP PUSH0 JUMPDEST PUSH1 0x1 SLOAD DUP2 LT ISZERO PUSH2 0x1664 JUMPI PUSH1 0x1 DUP2 SHL DUP5 AND ISZERO PUSH2 0x165C JUMPI DUP1 PUSH1 0x1 SWAP1 SHL DUP4 DUP4 DUP2 MLOAD DUP2 LT PUSH2 0x1643 JUMPI PUSH2 0x1643 PUSH2 0x4519 JUMP JUMPDEST PUSH1 0x20 SWAP1 DUP2 MUL SWAP2 SWAP1 SWAP2 ADD ADD MSTORE DUP2 PUSH2 0x1658 DUP2 PUSH2 0x4600 JUMP JUMPDEST SWAP3 POP POP JUMPDEST PUSH1 0x1 ADD PUSH2 0x1617 JUMP JUMPDEST POP SWAP1 SWAP6 SWAP5 POP POP POP POP POP JUMP JUMPDEST PUSH0 DUP1 DUP4 PUSH1 0x1 PUSH1 0x1 PUSH1 0xA0 SHL SUB AND PUSH4 0x313CE567 PUSH1 0x40 MLOAD DUP2 PUSH4 0xFFFFFFFF AND PUSH1 0xE0 SHL DUP2 MSTORE PUSH1 0x4 ADD PUSH1 0x20 PUSH1 0x40 MLOAD DUP1 DUP4 SUB DUP2 DUP7 GAS STATICCALL ISZERO DUP1 ISZERO PUSH2 0x16AD JUMPI RETURNDATASIZE PUSH0 DUP1 RETURNDATACOPY RETURNDATASIZE PUSH0 REVERT JUMPDEST POP POP POP POP PUSH1 0x40 MLOAD RETURNDATASIZE PUSH1 0x1F NOT PUSH1 0x1F DUP3 ADD AND DUP3 ADD DUP1 PUSH1 0x40 MSTORE POP DUP2 ADD SWAP1 PUSH2 0x16D1 SWAP2 SWAP1 PUSH2 0x43E7 JUMP JUMPDEST PUSH1 0xFF AND SWAP1 POP PUSH0 PUSH2 0x16E2 DUP3 PUSH1 0xA PUSH2 0x44FB JUMP JUMPDEST SWAP1 POP PUSH0 DUP5 PUSH1 0xF SIGNEXTEND SLT ISZERO PUSH2 0x1737 JUMPI PUSH1 0x40 MLOAD PUSH3 0x461BCD PUSH1 0xE5 SHL DUP2 MSTORE PUSH1 0x20 PUSH1 0x4 DUP3 ADD MSTORE PUSH1 0x1B PUSH1 0x24 DUP3 ADD MSTORE PUSH32 0x416D6F756E74206D757374206265206E6F6E2D6E656761746976650000000000 PUSH1 0x44 DUP3 ADD MSTORE PUSH1 0x64 ADD PUSH2 0x5C9 JUMP JUMPDEST PUSH2 0x60B DUP5 DUP3 PUSH2 0x28C4 JUMP JUMPDEST PUSH1 0x8 SLOAD PUSH0 SWAP1 PUSH1 0x1 PUSH1 0xA0 SHL SWAP1 DIV PUSH1 0xFF AND ISZERO ISZERO PUSH1 0x1 EQ PUSH2 0x175D JUMPI PUSH0 DUP1 REVERT JUMPDEST PUSH1 0x1 SLOAD DUP4 LT PUSH2 0x17A6 JUMPI PUSH1 0x40 MLOAD PUSH3 0x461BCD PUSH1 0xE5 SHL DUP2 MSTORE PUSH1 0x20 PUSH1 0x4 DUP3 ADD MSTORE PUSH1 0x15 PUSH1 0x24 DUP3 ADD MSTORE PUSH21 0x92DCECC2D8D2C840DEEAE8C6DEDACA40D2DCC8CAF PUSH1 0x5B SHL PUSH1 0x44 DUP3 ADD MSTORE PUSH1 0x64 ADD PUSH2 0x5C9 JUMP JUMPDEST PUSH0 DUP3 PUSH1 0xF SIGNEXTEND SGT PUSH2 0x17F8 JUMPI PUSH1 0x40 MLOAD PUSH3 0x461BCD PUSH1 0xE5 SHL DUP2 MSTORE PUSH1 0x20 PUSH1 0x4 DUP3 ADD MSTORE PUSH1 0x17 PUSH1 0x24 DUP3 ADD MSTORE PUSH32 0x416D6F756E74206D75737420626520706F736974697665000000000000000000 PUSH1 0x44 DUP3 ADD MSTORE PUSH1 0x64 ADD PUSH2 0x5C9 JUMP JUMPDEST PUSH1 0x7 SLOAD PUSH1 0x6 SLOAD PUSH1 0x40 MLOAD PUSH4 0xDD34DE67 PUSH1 0xE0 SHL DUP2 MSTORE PUSH1 0x1 PUSH1 0x1 PUSH1 0xA0 SHL SUB SWAP1 SWAP3 AND SWAP2 PUSH4 0xDD34DE67 SWAP2 PUSH2 0x182D SWAP2 PUSH1 0x4 ADD SWAP1 DUP2 MSTORE PUSH1 0x20 ADD SWAP1 JUMP JUMPDEST PUSH1 0x20 PUSH1 0x40 MLOAD DUP1 DUP4 SUB DUP2 DUP7 GAS STATICCALL ISZERO DUP1 ISZERO PUSH2 0x1848 JUMPI RETURNDATASIZE PUSH0 DUP1 RETURNDATACOPY RETURNDATASIZE PUSH0 REVERT JUMPDEST POP POP POP POP PUSH1 0x40 MLOAD RETURNDATASIZE PUSH1 0x1F NOT PUSH1 0x1F DUP3 ADD AND DUP3 ADD DUP1 PUSH1 0x40 MSTORE POP DUP2 ADD SWAP1 PUSH2 0x186C SWAP2 SWAP1 PUSH2 0x452D JUMP JUMPDEST ISZERO PUSH2 0x18B9 JUMPI PUSH1 0x40 MLOAD PUSH3 0x461BCD PUSH1 0xE5 SHL DUP2 MSTORE PUSH1 0x20 PUSH1 0x4 DUP3 ADD MSTORE PUSH1 0x17 PUSH1 0x24 DUP3 ADD MSTORE PUSH32 0x4D61726B657420616C7265616479207265736F6C766564000000000000000000 PUSH1 0x44 DUP3 ADD MSTORE PUSH1 0x64 ADD PUSH2 0x5C9 JUMP JUMPDEST DUP2 PUSH1 0xF SIGNEXTEND PUSH1 0x2 DUP5 DUP2 SLOAD DUP2 LT PUSH2 0x18D0 JUMPI PUSH2 0x18D0 PUSH2 0x4519 JUMP JUMPDEST PUSH0 SWAP2 DUP3 MSTORE PUSH1 0x20 SWAP1 SWAP2 KECCAK256 PUSH1 0x2 DUP3 DIV ADD SLOAD PUSH1 0x1 SWAP1 SWAP2 AND PUSH1 0x10 MUL PUSH2 0x100 EXP SWAP1 DIV PUSH1 0xF SIGNEXTEND SLT ISZERO PUSH2 0x193E JUMPI PUSH1 0x40 MLOAD PUSH3 0x461BCD PUSH1 0xE5 SHL DUP2 MSTORE PUSH1 0x20 PUSH1 0x4 DUP3 ADD MSTORE PUSH1 0x19 PUSH1 0x24 DUP3 ADD MSTORE PUSH32 0x4E6F7420656E6F7567682073686172657320746F2073656C6C00000000000000 PUSH1 0x44 DUP3 ADD MSTORE PUSH1 0x64 ADD PUSH2 0x5C9 JUMP JUMPDEST PUSH0 DUP1 PUSH0 PUSH2 0x19D9 PUSH1 0x2 DUP1 SLOAD DUP1 PUSH1 0x20 MUL PUSH1 0x20 ADD PUSH1 0x40 MLOAD SWAP1 DUP2 ADD PUSH1 0x40 MSTORE DUP1 SWAP3 SWAP2 SWAP1 DUP2 DUP2 MSTORE PUSH1 0x20 ADD DUP3 DUP1 SLOAD DUP1 ISZERO PUSH2 0x19B0 JUMPI PUSH1 0x20 MUL DUP3 ADD SWAP2 SWAP1 PUSH0 MSTORE PUSH1 0x20 PUSH0 KECCAK256 SWAP1 PUSH0 SWAP1 JUMPDEST DUP3 SLOAD PUSH2 0x100 DUP4 SWAP1 EXP SWAP1 DIV PUSH1 0xF SIGNEXTEND DUP2 MSTORE PUSH1 0x20 PUSH1 0x1F DUP4 ADD DUP2 SWAP1 DIV SWAP4 DUP5 ADD SWAP4 PUSH1 0x1 SUB PUSH1 0x10 SWAP1 SWAP4 ADD SWAP3 SWAP1 SWAP3 MUL SWAP2 ADD DUP1 DUP5 GT PUSH2 0x197C JUMPI SWAP1 POP JUMPDEST POP POP PUSH1 0x4 SLOAD PUSH1 0x3 SLOAD PUSH1 0x1 SLOAD DUP14 SWAP6 POP DUP13 SWAP5 POP PUSH1 0xF SWAP3 DUP4 SIGNEXTEND SWAP4 POP PUSH1 0x1 PUSH1 0x80 SHL SWAP1 SWAP2 DIV SWAP1 SWAP2 SIGNEXTEND SWAP1 PUSH2 0x2C65 JUMP JUMPDEST SWAP3 POP SWAP3 POP SWAP3 POP PUSH0 PUSH2 0x19E9 DUP8 PUSH2 0x217F JUMP JUMPDEST PUSH1 0x8 SLOAD SWAP1 SWAP2 POP PUSH0 SWAP1 PUSH2 0x1A04 SWAP1 PUSH1 0x1 PUSH1 0x1 PUSH1 0xA0 SHL SUB AND DUP9 PUSH2 0x166F JUMP JUMPDEST PUSH1 0x40 MLOAD PUSH32 0x4D61782073656C6C61626C653A20000000000000000000000000000000000000 PUSH1 0x20 DUP3 ADD MSTORE PUSH1 0x2E DUP2 ADD DUP5 SWAP1 MSTORE PUSH32 0x20746F6B656E7300000000000000000000000000000000000000000000000000 PUSH1 0x4E DUP3 ADD MSTORE SWAP1 SWAP2 POP DUP3 DUP3 GT ISZERO SWAP1 PUSH1 0x55 ADD PUSH1 0x40 MLOAD PUSH1 0x20 DUP2 DUP4 SUB SUB DUP2 MSTORE SWAP1 PUSH1 0x40 MSTORE SWAP1 PUSH2 0x1A92 JUMPI PUSH1 0x40 MLOAD PUSH3 0x461BCD PUSH1 0xE5 SHL DUP2 MSTORE PUSH1 0x4 ADD PUSH2 0x5C9 SWAP2 SWAP1 PUSH2 0x4646 JUMP JUMPDEST POP PUSH1 0x7 SLOAD PUSH1 0x8 SLOAD PUSH1 0x6 SLOAD PUSH1 0x40 MLOAD PUSH4 0x856296F7 PUSH1 0xE0 SHL DUP2 MSTORE PUSH0 PUSH1 0x4 DUP3 ADD DUP2 SWAP1 MSTORE PUSH1 0x24 DUP3 ADD SWAP3 SWAP1 SWAP3 MSTORE PUSH1 0x1 DUP13 SHL PUSH1 0x44 DUP3 ADD MSTORE SWAP1 SWAP3 PUSH1 0x1 PUSH1 0x1 PUSH1 0xA0 SHL SUB SWAP1 DUP2 AND SWAP3 PUSH4 0x39DD7530 SWAP3 SWAP2 AND SWAP1 DUP4 SWAP1 PUSH4 0x856296F7 SWAP1 PUSH1 0x64 ADD PUSH1 0x20 PUSH1 0x40 MLOAD DUP1 DUP4 SUB DUP2 DUP7 GAS STATICCALL ISZERO DUP1 ISZERO PUSH2 0x1AFF JUMPI RETURNDATASIZE PUSH0 DUP1 RETURNDATACOPY RETURNDATASIZE PUSH0 REVERT JUMPDEST POP POP POP POP PUSH1 0x40 MLOAD RETURNDATASIZE PUSH1 0x1F NOT PUSH1 0x1F DUP3 ADD AND DUP3 ADD DUP1 PUSH1 0x40 MSTORE POP DUP2 ADD SWAP1 PUSH2 0x1B23 SWAP2 SWAP1 PUSH2 0x452D JUMP JUMPDEST PUSH1 0x40 MLOAD PUSH1 0x1 PUSH1 0x1 PUSH1 0xE0 SHL SUB NOT PUSH1 0xE0 DUP6 SWAP1 SHL AND DUP2 MSTORE PUSH1 0x1 PUSH1 0x1 PUSH1 0xA0 SHL SUB SWAP1 SWAP3 AND PUSH1 0x4 DUP4 ADD MSTORE PUSH1 0x24 DUP3 ADD MSTORE PUSH1 0x44 ADD PUSH1 0x20 PUSH1 0x40 MLOAD DUP1 DUP4 SUB DUP2 DUP7 GAS STATICCALL ISZERO DUP1 ISZERO PUSH2 0x1B6A JUMPI RETURNDATASIZE PUSH0 DUP1 RETURNDATACOPY RETURNDATASIZE PUSH0 REVERT JUMPDEST POP POP POP POP PUSH1 0x40 MLOAD RETURNDATASIZE PUSH1 0x1F NOT PUSH1 0x1F DUP3 ADD AND DUP3 ADD DUP1 PUSH1 0x40 MSTORE POP DUP2 ADD SWAP1 PUSH2 0x1B8E SWAP2 SWAP1 PUSH2 0x452D JUMP JUMPDEST PUSH1 0x7 SLOAD PUSH1 0x40 MLOAD PUSH4 0x79212195 PUSH1 0xE1 SHL DUP2 MSTORE CALLER PUSH1 0x4 DUP3 ADD MSTORE ADDRESS PUSH1 0x24 DUP3 ADD MSTORE PUSH1 0x44 DUP2 ADD DUP4 SWAP1 MSTORE PUSH1 0x64 DUP2 ADD DUP6 SWAP1 MSTORE PUSH1 0xA0 PUSH1 0x84 DUP3 ADD MSTORE PUSH0 PUSH1 0xA4 DUP3 ADD MSTORE SWAP2 SWAP3 POP PUSH1 0x1 PUSH1 0x1 PUSH1 0xA0 SHL SUB AND SWAP1 PUSH4 0xF242432A SWAP1 PUSH1 0xC4 ADD PUSH0 PUSH1 0x40 MLOAD DUP1 DUP4 SUB DUP2 PUSH0 DUP8 DUP1 EXTCODESIZE ISZERO DUP1 ISZERO PUSH2 0x1BF2 JUMPI PUSH0 DUP1 REVERT JUMPDEST POP GAS CALL SWAP3 POP POP POP DUP1 ISZERO PUSH2 0x1C03 JUMPI POP PUSH1 0x1 JUMPDEST PUSH2 0x1CA6 JUMPI PUSH2 0x1C0F PUSH2 0x4658 JUMP JUMPDEST DUP1 PUSH4 0x8C379A0 SUB PUSH2 0x1C9C JUMPI POP PUSH2 0x1C23 PUSH2 0x4670 JUMP JUMPDEST DUP1 PUSH2 0x1C2E JUMPI POP PUSH2 0x1C9E JUMP JUMPDEST PUSH32 0xBD1DCAECA35AE4A65142E160B7E80D67E7D37F2145F209D9C29B7E4DAF85BA37 DUP2 PUSH1 0x40 MLOAD PUSH2 0x1C5D SWAP2 SWAP1 PUSH2 0x46EE JUMP JUMPDEST PUSH1 0x40 MLOAD DUP1 SWAP2 SUB SWAP1 LOG1 DUP1 PUSH1 0x40 MLOAD PUSH1 0x20 ADD PUSH2 0x1C76 SWAP2 SWAP1 PUSH2 0x4734 JUMP JUMPDEST PUSH1 0x40 DUP1 MLOAD PUSH1 0x1F NOT DUP2 DUP5 SUB ADD DUP2 MSTORE SWAP1 DUP3 SWAP1 MSTORE PUSH3 0x461BCD PUSH1 0xE5 SHL DUP3 MSTORE PUSH2 0x5C9 SWAP2 PUSH1 0x4 ADD PUSH2 0x4646 JUMP JUMPDEST POP JUMPDEST RETURNDATASIZE PUSH0 DUP1 RETURNDATACOPY RETURNDATASIZE PUSH0 REVERT JUMPDEST PUSH0 PUSH2 0x1CB0 DUP11 PUSH2 0x1577 JUMP JUMPDEST SWAP1 POP PUSH0 DUP1 PUSH0 JUMPDEST DUP4 MLOAD DUP2 LT ISZERO PUSH2 0x1E7E JUMPI PUSH1 0x7 SLOAD PUSH1 0x8 SLOAD PUSH1 0x6 SLOAD DUP7 MLOAD PUSH0 SWAP4 PUSH1 0x1 PUSH1 0x1 PUSH1 0xA0 SHL SUB SWAP1 DUP2 AND SWAP4 PUSH4 0x39DD7530 SWAP4 SWAP2 AND SWAP2 DUP5 SWAP2 PUSH4 0x856296F7 SWAP2 DUP8 SWAP2 SWAP1 DUP13 SWAP1 DUP11 SWAP1 DUP2 LT PUSH2 0x1CFE JUMPI PUSH2 0x1CFE PUSH2 0x4519 JUMP JUMPDEST PUSH1 0x20 MUL PUSH1 0x20 ADD ADD MLOAD PUSH1 0x40 MLOAD DUP5 PUSH4 0xFFFFFFFF AND PUSH1 0xE0 SHL DUP2 MSTORE PUSH1 0x4 ADD PUSH2 0x1D35 SWAP4 SWAP3 SWAP2 SWAP1 SWAP3 DUP4 MSTORE PUSH1 0x20 DUP4 ADD SWAP2 SWAP1 SWAP2 MSTORE PUSH1 0x40 DUP3 ADD MSTORE PUSH1 0x60 ADD SWAP1 JUMP JUMPDEST PUSH1 0x20 PUSH1 0x40 MLOAD DUP1 DUP4 SUB DUP2 DUP7 GAS STATICCALL ISZERO DUP1 ISZERO PUSH2 0x1D50 JUMPI RETURNDATASIZE PUSH0 DUP1 RETURNDATACOPY RETURNDATASIZE PUSH0 REVERT JUMPDEST POP POP POP POP PUSH1 0x40 MLOAD RETURNDATASIZE PUSH1 0x1F NOT PUSH1 0x1F DUP3 ADD AND DUP3 ADD DUP1 PUSH1 0x40 MSTORE POP DUP2 ADD SWAP1 PUSH2 0x1D74 SWAP2 SWAP1 PUSH2 0x452D JUMP JUMPDEST PUSH1 0x40 MLOAD PUSH1 0x1 PUSH1 0x1 PUSH1 0xE0 SHL SUB NOT PUSH1 0xE0 DUP6 SWAP1 SHL AND DUP2 MSTORE PUSH1 0x1 PUSH1 0x1 PUSH1 0xA0 SHL SUB SWAP1 SWAP3 AND PUSH1 0x4 DUP4 ADD MSTORE PUSH1 0x24 DUP3 ADD MSTORE PUSH1 0x44 ADD PUSH1 0x20 PUSH1 0x40 MLOAD DUP1 DUP4 SUB DUP2 DUP7 GAS STATICCALL ISZERO DUP1 ISZERO PUSH2 0x1DBB JUMPI RETURNDATASIZE PUSH0 DUP1 RETURNDATACOPY RETURNDATASIZE PUSH0 REVERT JUMPDEST POP POP POP POP PUSH1 0x40 MLOAD RETURNDATASIZE PUSH1 0x1F NOT PUSH1 0x1F DUP3 ADD AND DUP3 ADD DUP1 PUSH1 0x40 MSTORE POP DUP2 ADD SWAP1 PUSH2 0x1DDF SWAP2 SWAP1 PUSH2 0x452D JUMP JUMPDEST PUSH1 0x7 SLOAD PUSH1 0x40 MLOAD PUSH3 0x7EEAC7 PUSH1 0xE1 SHL DUP2 MSTORE ADDRESS PUSH1 0x4 DUP3 ADD MSTORE PUSH1 0x24 DUP2 ADD DUP4 SWAP1 MSTORE SWAP2 SWAP3 POP PUSH0 SWAP2 PUSH1 0x1 PUSH1 0x1 PUSH1 0xA0 SHL SUB SWAP1 SWAP2 AND SWAP1 PUSH3 0xFDD58E SWAP1 PUSH1 0x44 ADD PUSH1 0x20 PUSH1 0x40 MLOAD DUP1 DUP4 SUB DUP2 DUP7 GAS STATICCALL ISZERO DUP1 ISZERO PUSH2 0x1E2F JUMPI RETURNDATASIZE PUSH0 DUP1 RETURNDATACOPY RETURNDATASIZE PUSH0 REVERT JUMPDEST POP POP POP POP PUSH1 0x40 MLOAD RETURNDATASIZE PUSH1 0x1F NOT PUSH1 0x1F DUP3 ADD AND DUP3 ADD DUP1 PUSH1 0x40 MSTORE POP DUP2 ADD SWAP1 PUSH2 0x1E53 SWAP2 SWAP1 PUSH2 0x452D JUMP JUMPDEST SWAP1 POP DUP8 DUP2 LT ISZERO PUSH2 0x1E74 JUMPI PUSH1 0x1 SWAP5 POP PUSH2 0x1E6B DUP2 DUP10 PUSH2 0x4571 JUMP JUMPDEST SWAP4 POP POP POP PUSH2 0x1E7E JUMP JUMPDEST POP POP PUSH1 0x1 ADD PUSH2 0x1CB6 JUMP JUMPDEST POP DUP2 ISZERO PUSH2 0x1F68 JUMPI PUSH1 0x8 SLOAD PUSH1 0x7 SLOAD PUSH1 0x40 MLOAD PUSH4 0x95EA7B3 PUSH1 0xE0 SHL DUP2 MSTORE PUSH1 0x1 PUSH1 0x1 PUSH1 0xA0 SHL SUB SWAP2 DUP3 AND PUSH1 0x4 DUP3 ADD MSTORE PUSH1 0x24 DUP2 ADD DUP5 SWAP1 MSTORE SWAP2 AND SWAP1 PUSH4 0x95EA7B3 SWAP1 PUSH1 0x44 ADD PUSH1 0x20 PUSH1 0x40 MLOAD DUP1 DUP4 SUB DUP2 PUSH0 DUP8 GAS CALL ISZERO DUP1 ISZERO PUSH2 0x1ED7 JUMPI RETURNDATASIZE PUSH0 DUP1 RETURNDATACOPY RETURNDATASIZE PUSH0 REVERT JUMPDEST POP POP POP POP PUSH1 0x40 MLOAD RETURNDATASIZE PUSH1 0x1F NOT PUSH1 0x1F DUP3 ADD AND DUP3 ADD DUP1 PUSH1 0x40 MSTORE POP DUP2 ADD SWAP1 PUSH2 0x1EFB SWAP2 SWAP1 PUSH2 0x4765 JUMP JUMPDEST POP PUSH1 0x7 SLOAD PUSH1 0x8 SLOAD PUSH1 0x6 SLOAD PUSH1 0x40 MLOAD PUSH4 0x72CE4275 PUSH1 0xE0 SHL DUP2 MSTORE PUSH1 0x1 PUSH1 0x1 PUSH1 0xA0 SHL SUB SWAP4 DUP5 AND SWAP4 PUSH4 0x72CE4275 SWAP4 PUSH2 0x1F3A SWAP4 SWAP2 AND SWAP2 PUSH0 SWAP2 SWAP1 DUP10 SWAP1 DUP9 SWAP1 PUSH1 0x4 ADD PUSH2 0x4784 JUMP JUMPDEST PUSH0 PUSH1 0x40 MLOAD DUP1 DUP4 SUB DUP2 PUSH0 DUP8 DUP1 EXTCODESIZE ISZERO DUP1 ISZERO PUSH2 0x1F51 JUMPI PUSH0 DUP1 REVERT JUMPDEST POP GAS CALL ISZERO DUP1 ISZERO PUSH2 0x1F63 JUMPI RETURNDATASIZE PUSH0 DUP1 RETURNDATACOPY RETURNDATASIZE PUSH0 REVERT JUMPDEST POP POP POP POP JUMPDEST PUSH1 0x7 SLOAD PUSH1 0x8 SLOAD PUSH1 0x6 SLOAD PUSH1 0x40 MLOAD PUSH4 0x9E7212AD PUSH1 0xE0 SHL DUP2 MSTORE PUSH1 0x1 PUSH1 0x1 PUSH1 0xA0 SHL SUB SWAP4 DUP5 AND SWAP4 PUSH4 0x9E7212AD SWAP4 PUSH2 0x1FA6 SWAP4 SWAP2 AND SWAP2 PUSH0 SWAP2 SWAP1 DUP10 SWAP1 DUP13 SWAP1 PUSH1 0x4 ADD PUSH2 0x4784 JUMP JUMPDEST PUSH0 PUSH1 0x40 MLOAD DUP1 DUP4 SUB DUP2 PUSH0 DUP8 DUP1 EXTCODESIZE ISZERO DUP1 ISZERO PUSH2 0x1FBD JUMPI PUSH0 DUP1 REVERT JUMPDEST POP GAS CALL ISZERO DUP1 ISZERO PUSH2 0x1FCF JUMPI RETURNDATASIZE PUSH0 DUP1 RETURNDATACOPY RETURNDATASIZE PUSH0 REVERT JUMPDEST POP POP POP POP PUSH2 0x2010 PUSH1 0x2 DUP14 DUP2 SLOAD DUP2 LT PUSH2 0x1FE9 JUMPI PUSH2 0x1FE9 PUSH2 0x4519 JUMP JUMPDEST SWAP1 PUSH0 MSTORE PUSH1 0x20 PUSH0 KECCAK256 SWAP1 PUSH1 0x2 SWAP2 DUP3 DUP3 DIV ADD SWAP2 SWAP1 MOD PUSH1 0x10 MUL SWAP1 SLOAD SWAP1 PUSH2 0x100 EXP SWAP1 DIV PUSH1 0xF SIGNEXTEND DUP13 PUSH2 0x2DC6 JUMP JUMPDEST PUSH1 0x2 DUP14 DUP2 SLOAD DUP2 LT PUSH2 0x2023 JUMPI PUSH2 0x2023 PUSH2 0x4519 JUMP JUMPDEST PUSH0 SWAP2 DUP3 MSTORE PUSH1 0x20 DUP3 KECCAK256 PUSH1 0x2 DUP3 DIV ADD DUP1 SLOAD PUSH1 0x1 SWAP1 SWAP3 AND PUSH1 0x10 MUL PUSH2 0x100 EXP PUSH1 0x1 PUSH1 0x1 PUSH1 0x80 SHL SUB DUP2 DUP2 MUL NOT SWAP1 SWAP4 AND SWAP5 DUP4 AND MUL SWAP4 SWAP1 SWAP4 OR SWAP1 SWAP3 SSTORE PUSH1 0x4 DUP1 SLOAD PUSH1 0x1 PUSH1 0x1 PUSH1 0x80 SHL SUB NOT AND DUP11 DUP5 AND OR SWAP1 SSTORE PUSH1 0x3 DUP1 SLOAD DUP4 AND PUSH1 0x1 PUSH1 0x80 SHL SWAP4 DUP14 AND SWAP4 SWAP1 SWAP4 MUL SWAP3 SWAP1 SWAP3 OR SWAP1 SWAP2 SSTORE PUSH1 0x8 SLOAD PUSH2 0x209B SWAP1 PUSH1 0x1 PUSH1 0x1 PUSH1 0xA0 SHL SUB AND DUP11 PUSH2 0x166F JUMP JUMPDEST PUSH1 0x8 SLOAD SWAP1 SWAP2 POP PUSH2 0x20B5 SWAP1 PUSH1 0x1 PUSH1 0x1 PUSH1 0xA0 SHL SUB AND CALLER DUP4 PUSH2 0x2AFC JUMP JUMPDEST POP SWAP7 SWAP12 SWAP11 POP POP POP POP POP POP POP POP POP POP POP JUMP JUMPDEST PUSH0 PUSH1 0x1 SLOAD DUP3 LT PUSH2 0x2110 JUMPI PUSH1 0x40 MLOAD PUSH3 0x461BCD PUSH1 0xE5 SHL DUP2 MSTORE PUSH1 0x20 PUSH1 0x4 DUP3 ADD MSTORE PUSH1 0x15 PUSH1 0x24 DUP3 ADD MSTORE PUSH21 0x92DCECC2D8D2C840DEEAE8C6DEDACA40D2DCC8CAF PUSH1 0x5B SHL PUSH1 0x44 DUP3 ADD MSTORE PUSH1 0x64 ADD PUSH2 0x5C9 JUMP JUMPDEST PUSH2 0x610 PUSH1 0x2 DUP4 DUP2 SLOAD DUP2 LT PUSH2 0x2126 JUMPI PUSH2 0x2126 PUSH2 0x4519 JUMP JUMPDEST SWAP1 PUSH0 MSTORE PUSH1 0x20 PUSH0 KECCAK256 SWAP1 PUSH1 0x2 SWAP2 DUP3 DUP3 DIV ADD SWAP2 SWAP1 MOD PUSH1 0x10 MUL SWAP1 SLOAD SWAP1 PUSH2 0x100 EXP SWAP1 DIV PUSH1 0xF SIGNEXTEND PUSH1 0x4 PUSH1 0x10 SWAP1 SLOAD SWAP1 PUSH2 0x100 EXP SWAP1 DIV PUSH1 0xF SIGNEXTEND PUSH2 0x2DC6 JUMP JUMPDEST PUSH1 0x3 SLOAD PUSH0 SWAP1 PUSH1 0x1 PUSH1 0x80 SHL SWAP1 DIV PUSH1 0xF SIGNEXTEND PUSH2 0x2175 DUP5 DUP5 PUSH2 0x13E8 JUMP JUMPDEST PUSH2 0x1315 SWAP2 SWAP1 PUSH2 0x45CA JUMP JUMPDEST PUSH0 PUSH1 0x1 SLOAD DUP3 LT PUSH2 0x21C9 JUMPI PUSH1 0x40 MLOAD PUSH3 0x461BCD PUSH1 0xE5 SHL DUP2 MSTORE PUSH1 0x20 PUSH1 0x4 DUP3 ADD MSTORE PUSH1 0x15 PUSH1 0x24 DUP3 ADD MSTORE PUSH21 0x92DCECC2D8D2C840DEEAE8C6DEDACA40D2DCC8CAF PUSH1 0x5B SHL PUSH1 0x44 DUP3 ADD MSTORE PUSH1 0x64 ADD PUSH2 0x5C9 JUMP JUMPDEST PUSH0 DUP3 ISZERO PUSH2 0x21D6 JUMPI PUSH0 PUSH2 0x21D9 JUMP JUMPDEST PUSH1 0x1 JUMPDEST PUSH1 0x8 SLOAD PUSH1 0x40 MLOAD PUSH4 0x70A08231 PUSH1 0xE0 SHL DUP2 MSTORE ADDRESS PUSH1 0x4 DUP3 ADD MSTORE PUSH1 0xFF SWAP3 SWAP1 SWAP3 AND SWAP3 POP PUSH0 SWAP2 PUSH1 0x1 PUSH1 0x1 PUSH1 0xA0 SHL SUB SWAP1 SWAP2 AND SWAP1 PUSH4 0x70A08231 SWAP1 PUSH1 0x24 ADD PUSH1 0x20 PUSH1 0x40 MLOAD DUP1 DUP4 SUB DUP2 DUP7 GAS STATICCALL ISZERO DUP1 ISZERO PUSH2 0x2229 JUMPI RETURNDATASIZE PUSH0 DUP1 RETURNDATACOPY RETURNDATASIZE PUSH0 REVERT JUMPDEST POP POP POP POP PUSH1 0x40 MLOAD RETURNDATASIZE PUSH1 0x1F NOT PUSH1 0x1F DUP3 ADD AND DUP3 ADD DUP1 PUSH1 0x40 MSTORE POP DUP2 ADD SWAP1 PUSH2 0x224D SWAP2 SWAP1 PUSH2 0x452D JUMP JUMPDEST PUSH1 0x7 SLOAD PUSH1 0x8 SLOAD PUSH1 0x6 SLOAD PUSH1 0x40 MLOAD PUSH4 0x856296F7 PUSH1 0xE0 SHL DUP2 MSTORE PUSH0 PUSH1 0x4 DUP3 ADD DUP2 SWAP1 MSTORE PUSH1 0x24 DUP3 ADD SWAP3 SWAP1 SWAP3 MSTORE PUSH1 0x1 DUP8 SHL PUSH1 0x44 DUP3 ADD MSTORE SWAP4 SWAP5 POP SWAP3 PUSH1 0x1 PUSH1 0x1 PUSH1 0xA0 SHL SUB SWAP3 DUP4 AND SWAP3 PUSH4 0x39DD7530 SWAP3 AND SWAP1 DUP4 SWAP1 PUSH4 0x856296F7 SWAP1 PUSH1 0x64 ADD PUSH1 0x20 PUSH1 0x40 MLOAD DUP1 DUP4 SUB DUP2 DUP7 GAS STATICCALL ISZERO DUP1 ISZERO PUSH2 0x22BA JUMPI RETURNDATASIZE PUSH0 DUP1 RETURNDATACOPY RETURNDATASIZE PUSH0 REVERT JUMPDEST POP POP POP POP PUSH1 0x40 MLOAD RETURNDATASIZE PUSH1 0x1F NOT PUSH1 0x1F DUP3 ADD AND DUP3 ADD DUP1 PUSH1 0x40 MSTORE POP DUP2 ADD SWAP1 PUSH2 0x22DE SWAP2 SWAP1 PUSH2 0x452D JUMP JUMPDEST PUSH1 0x40 MLOAD PUSH1 0x1 PUSH1 0x1 PUSH1 0xE0 SHL SUB NOT PUSH1 0xE0 DUP6 SWAP1 SHL AND DUP2 MSTORE PUSH1 0x1 PUSH1 0x1 PUSH1 0xA0 SHL SUB SWAP1 SWAP3 AND PUSH1 0x4 DUP4 ADD MSTORE PUSH1 0x24 DUP3 ADD MSTORE PUSH1 0x44 ADD PUSH1 0x20 PUSH1 0x40 MLOAD DUP1 DUP4 SUB DUP2 DUP7 GAS STATICCALL ISZERO DUP1 ISZERO PUSH2 0x2325 JUMPI RETURNDATASIZE PUSH0 DUP1 RETURNDATACOPY RETURNDATASIZE PUSH0 REVERT JUMPDEST POP POP POP POP PUSH1 0x40 MLOAD RETURNDATASIZE PUSH1 0x1F NOT PUSH1 0x1F DUP3 ADD AND DUP3 ADD DUP1 PUSH1 0x40 MSTORE POP DUP2 ADD SWAP1 PUSH2 0x2349 SWAP2 SWAP1 PUSH2 0x452D JUMP JUMPDEST PUSH1 0x7 SLOAD PUSH1 0x40 MLOAD PUSH3 0x7EEAC7 PUSH1 0xE1 SHL DUP2 MSTORE ADDRESS PUSH1 0x4 DUP3 ADD MSTORE PUSH1 0x24 DUP2 ADD DUP4 SWAP1 MSTORE SWAP2 SWAP3 POP PUSH0 SWAP2 PUSH1 0x1 PUSH1 0x1 PUSH1 0xA0 SHL SUB SWAP1 SWAP2 AND SWAP1 PUSH3 0xFDD58E SWAP1 PUSH1 0x44 ADD PUSH1 0x20 PUSH1 0x40 MLOAD DUP1 DUP4 SUB DUP2 DUP7 GAS STATICCALL ISZERO DUP1 ISZERO PUSH2 0x2399 JUMPI RETURNDATASIZE PUSH0 DUP1 RETURNDATACOPY RETURNDATASIZE PUSH0 REVERT JUMPDEST POP POP POP POP PUSH1 0x40 MLOAD RETURNDATASIZE PUSH1 0x1F NOT PUSH1 0x1F DUP3 ADD AND DUP3 ADD DUP1 PUSH1 0x40 MSTORE POP DUP2 ADD SWAP1 PUSH2 0x23BD SWAP2 SWAP1 PUSH2 0x452D JUMP JUMPDEST SWAP1 POP PUSH2 0x156D DUP2 DUP5 PUSH2 0x4506 JUMP JUMPDEST PUSH1 0x8 SLOAD PUSH1 0x40 MLOAD PUSH4 0x70A08231 PUSH1 0xE0 SHL DUP2 MSTORE ADDRESS PUSH1 0x4 DUP3 ADD MSTORE PUSH0 SWAP2 DUP3 SWAP2 PUSH1 0x1 PUSH1 0x1 PUSH1 0xA0 SHL SUB SWAP1 SWAP2 AND SWAP1 PUSH4 0x70A08231 SWAP1 PUSH1 0x24 ADD PUSH1 0x20 PUSH1 0x40 MLOAD DUP1 DUP4 SUB DUP2 DUP7 GAS STATICCALL ISZERO DUP1 ISZERO PUSH2 0x2413 JUMPI RETURNDATASIZE PUSH0 DUP1 RETURNDATACOPY RETURNDATASIZE PUSH0 REVERT JUMPDEST POP POP POP POP PUSH1 0x40 MLOAD RETURNDATASIZE PUSH1 0x1F NOT PUSH1 0x1F DUP3 ADD AND DUP3 ADD DUP1 PUSH1 0x40 MSTORE POP DUP2 ADD SWAP1 PUSH2 0x2437 SWAP2 SWAP1 PUSH2 0x452D JUMP JUMPDEST PUSH1 0x8 SLOAD PUSH1 0x3 SLOAD SWAP2 SWAP4 POP PUSH2 0x245F SWAP2 PUSH1 0x1 PUSH1 0x1 PUSH1 0xA0 SHL SUB SWAP1 SWAP2 AND SWAP1 PUSH1 0x1 PUSH1 0x80 SHL SWAP1 DIV PUSH1 0xF SIGNEXTEND PUSH2 0x991 JUMP JUMPDEST SWAP1 POP SWAP1 SWAP2 JUMP JUMPDEST PUSH2 0x246D PUSH2 0x2AD0 JUMP JUMPDEST PUSH1 0x1 PUSH1 0x1 PUSH1 0xA0 SHL SUB DUP2 AND PUSH2 0x2496 JUMPI PUSH1 0x40 MLOAD PUSH4 0x1E4FBDF7 PUSH1 0xE0 SHL DUP2 MSTORE PUSH0 PUSH1 0x4 DUP3 ADD MSTORE PUSH1 0x24 ADD PUSH2 0x5C9 JUMP JUMPDEST PUSH2 0x98E DUP2 PUSH2 0x2BD0 JUMP JUMPDEST PUSH1 0x8 SLOAD PUSH0 SWAP1 PUSH1 0x1 PUSH1 0xA0 SHL SWAP1 DIV PUSH1 0xFF AND ISZERO ISZERO PUSH1 0x1 EQ PUSH2 0x24BB JUMPI PUSH0 DUP1 REVERT JUMPDEST PUSH1 0x1 SLOAD DUP4 LT PUSH2 0x2504 JUMPI PUSH1 0x40 MLOAD PUSH3 0x461BCD PUSH1 0xE5 SHL DUP2 MSTORE PUSH1 0x20 PUSH1 0x4 DUP3 ADD MSTORE PUSH1 0x15 PUSH1 0x24 DUP3 ADD MSTORE PUSH21 0x92DCECC2D8D2C840DEEAE8C6DEDACA40D2DCC8CAF PUSH1 0x5B SHL PUSH1 0x44 DUP3 ADD MSTORE PUSH1 0x64 ADD PUSH2 0x5C9 JUMP JUMPDEST PUSH0 DUP3 PUSH1 0xF SIGNEXTEND SGT PUSH2 0x2556 JUMPI PUSH1 0x40 MLOAD PUSH3 0x461BCD PUSH1 0xE5 SHL DUP2 MSTORE PUSH1 0x20 PUSH1 0x4 DUP3 ADD MSTORE PUSH1 0x17 PUSH1 0x24 DUP3 ADD MSTORE PUSH32 0x416D6F756E74206D75737420626520706F736974697665000000000000000000 PUSH1 0x44 DUP3 ADD MSTORE PUSH1 0x64 ADD PUSH2 0x5C9 JUMP JUMPDEST PUSH1 0x7 SLOAD PUSH1 0x6 SLOAD PUSH1 0x40 MLOAD PUSH4 0xDD34DE67 PUSH1 0xE0 SHL DUP2 MSTORE PUSH1 0x1 PUSH1 0x1 PUSH1 0xA0 SHL SUB SWAP1 SWAP3 AND SWAP2 PUSH4 0xDD34DE67 SWAP2 PUSH2 0x258B SWAP2 PUSH1 0x4 ADD SWAP1 DUP2 MSTORE PUSH1 0x20 ADD SWAP1 JUMP JUMPDEST PUSH1 0x20 PUSH1 0x40 MLOAD DUP1 DUP4 SUB DUP2 DUP7 GAS STATICCALL ISZERO DUP1 ISZERO PUSH2 0x25A6 JUMPI RETURNDATASIZE PUSH0 DUP1 RETURNDATACOPY RETURNDATASIZE PUSH0 REVERT JUMPDEST POP POP POP POP PUSH1 0x40 MLOAD RETURNDATASIZE PUSH1 0x1F NOT PUSH1 0x1F DUP3 ADD AND DUP3 ADD DUP1 PUSH1 0x40 MSTORE POP DUP2 ADD SWAP1 PUSH2 0x25CA SWAP2 SWAP1 PUSH2 0x452D JUMP JUMPDEST ISZERO PUSH2 0x2617 JUMPI PUSH1 0x40 MLOAD PUSH3 0x461BCD PUSH1 0xE5 SHL DUP2 MSTORE PUSH1 0x20 PUSH1 0x4 DUP3 ADD MSTORE PUSH1 0x17 PUSH1 0x24 DUP3 ADD MSTORE PUSH32 0x4D61726B657420616C7265616479207265736F6C766564000000000000000000 PUSH1 0x44 DUP3 ADD MSTORE PUSH1 0x64 ADD PUSH2 0x5C9 JUMP JUMPDEST PUSH0 DUP1 PUSH0 PUSH2 0x26B2 PUSH1 0x2 DUP1 SLOAD DUP1 PUSH1 0x20 MUL PUSH1 0x20 ADD PUSH1 0x40 MLOAD SWAP1 DUP2 ADD PUSH1 0x40 MSTORE DUP1 SWAP3 SWAP2 SWAP1 DUP2 DUP2 MSTORE PUSH1 0x20 ADD DUP3 DUP1 SLOAD DUP1 ISZERO PUSH2 0x2689 JUMPI PUSH1 0x20 MUL DUP3 ADD SWAP2 SWAP1 PUSH0 MSTORE PUSH1 0x20 PUSH0 KECCAK256 SWAP1 PUSH0 SWAP1 JUMPDEST DUP3 SLOAD PUSH2 0x100 DUP4 SWAP1 EXP SWAP1 DIV PUSH1 0xF SIGNEXTEND DUP2 MSTORE PUSH1 0x20 PUSH1 0x1F DUP4 ADD DUP2 SWAP1 DIV SWAP4 DUP5 ADD SWAP4 PUSH1 0x1 SUB PUSH1 0x10 SWAP1 SWAP4 ADD SWAP3 SWAP1 SWAP3 MUL SWAP2 ADD DUP1 DUP5 GT PUSH2 0x2655 JUMPI SWAP1 POP JUMPDEST POP POP PUSH1 0x4 SLOAD PUSH1 0x3 SLOAD PUSH1 0x1 SLOAD DUP14 SWAP6 POP DUP13 SWAP5 POP PUSH1 0xF SWAP3 DUP4 SIGNEXTEND SWAP4 POP PUSH1 0x1 PUSH1 0x80 SHL SWAP1 SWAP2 DIV SWAP1 SWAP2 SIGNEXTEND SWAP1 PUSH2 0x2E00 JUMP JUMPDEST SWAP3 POP SWAP3 POP SWAP3 POP PUSH0 PUSH2 0x26D1 PUSH2 0x26C6 PUSH1 0x1 PUSH2 0x2B75 JUMP JUMPDEST PUSH1 0x5 SLOAD PUSH1 0xF SIGNEXTEND PUSH2 0x2A5E JUMP JUMPDEST SWAP1 POP PUSH0 PUSH2 0x26DE DUP5 DUP4 PUSH2 0x2939 JUMP JUMPDEST PUSH1 0x8 SLOAD SWAP1 SWAP2 POP PUSH0 SWAP1 PUSH2 0x26F9 SWAP1 PUSH1 0x1 PUSH1 0x1 PUSH1 0xA0 SHL SUB AND DUP4 PUSH2 0x505 JUMP JUMPDEST PUSH1 0x40 DUP1 MLOAD DUP3 DUP2 MSTORE PUSH1 0xF DUP6 SWAP1 SIGNEXTEND PUSH1 0x20 DUP3 ADD MSTORE SWAP2 SWAP3 POP PUSH32 0xBD58A27F98D614697F8A2D66C4C15779B5C06324BDC1F23994D9E5F93A537A4D SWAP2 ADD PUSH1 0x40 MLOAD DUP1 SWAP2 SUB SWAP1 LOG1 PUSH1 0x8 SLOAD PUSH1 0x40 MLOAD PUSH4 0x23B872DD PUSH1 0xE0 SHL DUP2 MSTORE CALLER PUSH1 0x4 DUP3 ADD MSTORE ADDRESS PUSH1 0x24 DUP3 ADD MSTORE PUSH1 0x44 DUP2 ADD DUP4 SWAP1 MSTORE PUSH1 0x1 PUSH1 0x1 PUSH1 0xA0 SHL SUB SWAP1 SWAP2 AND SWAP1 PUSH4 0x23B872DD SWAP1 PUSH1 0x64 ADD PUSH1 0x20 PUSH1 0x40 MLOAD DUP1 DUP4 SUB DUP2 PUSH0 DUP8 GAS CALL ISZERO DUP1 ISZERO PUSH2 0x278C JUMPI RETURNDATASIZE PUSH0 DUP1 RETURNDATACOPY RETURNDATASIZE PUSH0 REVERT JUMPDEST POP POP POP POP PUSH1 0x40 MLOAD RETURNDATASIZE PUSH1 0x1F NOT PUSH1 0x1F DUP3 ADD AND DUP3 ADD DUP1 PUSH1 0x40 MSTORE POP DUP2 ADD SWAP1 PUSH2 0x27B0 SWAP2 SWAP1 PUSH2 0x4765 JUMP JUMPDEST PUSH2 0x27FC JUMPI PUSH1 0x40 MLOAD PUSH3 0x461BCD PUSH1 0xE5 SHL DUP2 MSTORE PUSH1 0x20 PUSH1 0x4 DUP3 ADD MSTORE PUSH1 0x19 PUSH1 0x24 DUP3 ADD MSTORE PUSH32 0x4572726F72207472616E7366657272696E6720746F6B656E7300000000000000 PUSH1 0x44 DUP3 ADD MSTORE PUSH1 0x64 ADD PUSH2 0x5C9 JUMP JUMPDEST PUSH2 0x2839 PUSH1 0x2 DUP11 DUP2 SLOAD DUP2 LT PUSH2 0x2812 JUMPI PUSH2 0x2812 PUSH2 0x4519 JUMP JUMPDEST SWAP1 PUSH0 MSTORE PUSH1 0x20 PUSH0 KECCAK256 SWAP1 PUSH1 0x2 SWAP2 DUP3 DUP3 DIV ADD SWAP2 SWAP1 MOD PUSH1 0x10 MUL SWAP1 SLOAD SWAP1 PUSH2 0x100 EXP SWAP1 DIV PUSH1 0xF SIGNEXTEND DUP10 PUSH2 0x2A5E JUMP JUMPDEST PUSH1 0x2 DUP11 DUP2 SLOAD DUP2 LT PUSH2 0x284C JUMPI PUSH2 0x284C PUSH2 0x4519 JUMP JUMPDEST PUSH0 SWAP2 DUP3 MSTORE PUSH1 0x20 SWAP1 SWAP2 KECCAK256 PUSH1 0x2 DUP3 DIV ADD DUP1 SLOAD PUSH1 0x1 SWAP1 SWAP3 AND PUSH1 0x10 MUL PUSH2 0x100 EXP PUSH1 0x1 PUSH1 0x1 PUSH1 0x80 SHL SUB DUP2 DUP2 MUL NOT SWAP1 SWAP4 AND SWAP4 DUP4 AND MUL SWAP3 SWAP1 SWAP3 OR SWAP1 SWAP2 SSTORE PUSH1 0x4 DUP1 SLOAD PUSH1 0x1 PUSH1 0x1 PUSH1 0x80 SHL SUB NOT AND DUP7 DUP4 AND OR SWAP1 SSTORE PUSH1 0x3 DUP1 SLOAD DUP3 AND PUSH1 0x1 PUSH1 0x80 SHL SWAP3 DUP10 AND SWAP3 SWAP1 SWAP3 MUL SWAP2 SWAP1 SWAP2 OR SWAP1 SSTORE PUSH2 0x28B8 DUP10 DUP10 PUSH2 0x2F42 JUMP JUMPDEST POP SWAP8 SWAP7 POP POP POP POP POP POP POP JUMP JUMPDEST PUSH0 DUP2 PUSH0 SUB PUSH2 0x28D3 JUMPI POP PUSH0 PUSH2 0x610 JUMP JUMPDEST PUSH0 DUP4 PUSH1 0xF SIGNEXTEND SLT ISZERO PUSH2 0x28E2 JUMPI PUSH0 DUP1 REVERT JUMPDEST PUSH1 0xF DUP4 SWAP1 SIGNEXTEND PUSH1 0x1 PUSH1 0x1 PUSH1 0x80 SHL SUB DUP4 AND DUP2 MUL PUSH1 0x40 SHR SWAP1 PUSH1 0x80 DUP5 SWAP1 SHR MUL PUSH24 0xFFFFFFFFFFFFFFFFFFFFFFFFFFFFFFFFFFFFFFFFFFFFFFFF DUP2 GT ISZERO PUSH2 0x2921 JUMPI PUSH0 DUP1 REVERT JUMPDEST PUSH1 0x40 SHL DUP2 NOT DUP2 GT ISZERO PUSH2 0x2931 JUMPI PUSH0 DUP1 REVERT JUMPDEST ADD SWAP4 SWAP3 POP POP POP JUMP JUMPDEST PUSH0 PUSH1 0xF DUP4 DUP2 SIGNEXTEND SWAP1 DUP4 SWAP1 SIGNEXTEND MUL PUSH1 0x40 SAR PUSH16 0x7FFFFFFFFFFFFFFFFFFFFFFFFFFFFFFF NOT DUP2 SLT DUP1 ISZERO SWAP1 PUSH2 0x296F JUMPI POP PUSH1 0x1 PUSH1 0x1 PUSH1 0x7F SHL SUB DUP2 SGT ISZERO JUMPDEST PUSH2 0x1315 JUMPI PUSH0 DUP1 REVERT JUMPDEST PUSH0 DUP2 PUSH0 SUB PUSH2 0x2983 JUMPI PUSH0 DUP1 REVERT JUMPDEST PUSH0 PUSH2 0x298E DUP5 DUP5 PUSH2 0x32A6 JUMP JUMPDEST SWAP1 POP PUSH1 0x1 PUSH1 0x1 PUSH1 0x7F SHL SUB PUSH1 0x1 PUSH1 0x1 PUSH1 0x80 SHL SUB DUP3 AND GT ISZERO PUSH2 0x1315 JUMPI PUSH0 DUP1 REVERT JUMPDEST PUSH0 DUP2 PUSH1 0xF SIGNEXTEND PUSH0 SUB PUSH2 0x29BB JUMPI PUSH0 DUP1 REVERT JUMPDEST PUSH0 DUP3 PUSH1 0xF SIGNEXTEND PUSH1 0x40 DUP6 PUSH1 0xF SIGNEXTEND SWAP1 SHL DUP2 PUSH2 0x29D5 JUMPI PUSH2 0x29D5 PUSH2 0x47C3 JUMP JUMPDEST SDIV SWAP1 POP PUSH16 0x7FFFFFFFFFFFFFFFFFFFFFFFFFFFFFFF NOT DUP2 SLT DUP1 ISZERO SWAP1 PUSH2 0x296F JUMPI POP PUSH1 0x1 PUSH1 0x1 PUSH1 0x7F SHL SUB DUP2 SGT ISZERO PUSH2 0x1315 JUMPI PUSH0 DUP1 REVERT JUMPDEST PUSH0 PUSH9 0x400000000000000000 DUP3 PUSH1 0xF SIGNEXTEND SLT PUSH2 0x2A1F JUMPI PUSH0 DUP1 REVERT JUMPDEST PUSH9 0x3FFFFFFFFFFFFFFFFF NOT DUP3 PUSH1 0xF SIGNEXTEND SLT ISZERO PUSH2 0x2A3B JUMPI POP PUSH0 SWAP2 SWAP1 POP JUMP JUMPDEST PUSH2 0x610 PUSH1 0x80 DUP4 PUSH1 0xF SIGNEXTEND PUSH17 0x171547652B82FE1777D0FFDA0D23A7D12 MUL SWAP1 SAR PUSH2 0x3416 JUMP JUMPDEST PUSH0 PUSH1 0xF DUP4 DUP2 SIGNEXTEND SWAP1 DUP4 SWAP1 SIGNEXTEND ADD PUSH16 0x7FFFFFFFFFFFFFFFFFFFFFFFFFFFFFFF NOT DUP2 SLT DUP1 ISZERO SWAP1 PUSH2 0x296F JUMPI POP PUSH1 0x1 PUSH1 0x1 PUSH1 0x7F SHL SUB DUP2 SGT ISZERO PUSH2 0x1315 JUMPI PUSH0 DUP1 REVERT JUMPDEST PUSH0 DUP1 DUP3 PUSH1 0xF SIGNEXTEND SGT PUSH2 0x2AA7 JUMPI PUSH0 DUP1 REVERT JUMPDEST PUSH1 0x80 PUSH2 0x2AB2 DUP4 PUSH2 0x3E9C JUMP JUMPDEST PUSH1 0xF SIGNEXTEND PUSH16 0xB17217F7D1CF79ABC9E3B39803F2F6AF MUL SWAP1 SHR SWAP1 POP SWAP2 SWAP1 POP JUMP JUMPDEST PUSH0 SLOAD PUSH1 0x1 PUSH1 0x1 PUSH1 0xA0 SHL SUB AND CALLER EQ PUSH2 0x13E6 JUMPI PUSH1 0x40 MLOAD PUSH4 0x118CDAA7 PUSH1 0xE0 SHL DUP2 MSTORE CALLER PUSH1 0x4 DUP3 ADD MSTORE PUSH1 0x24 ADD PUSH2 0x5C9 JUMP JUMPDEST PUSH1 0x40 MLOAD PUSH1 0x1 PUSH1 0x1 PUSH1 0xA0 SHL SUB DUP4 DUP2 AND PUSH1 0x24 DUP4 ADD MSTORE PUSH1 0x44 DUP3 ADD DUP4 SWAP1 MSTORE PUSH2 0x2B70 SWAP2 DUP6 SWAP2 DUP3 AND SWAP1 PUSH4 0xA9059CBB SWAP1 PUSH1 0x64 ADD JUMPDEST PUSH1 0x40 MLOAD PUSH1 0x20 DUP2 DUP4 SUB SUB DUP2 MSTORE SWAP1 PUSH1 0x40 MSTORE SWAP2 POP PUSH1 0xE0 SHL PUSH1 0x20 DUP3 ADD DUP1 MLOAD PUSH28 0xFFFFFFFFFFFFFFFFFFFFFFFFFFFFFFFFFFFFFFFFFFFFFFFFFFFFFFFF DUP4 DUP2 DUP4 AND OR DUP4 MSTORE POP POP POP POP PUSH2 0x3F71 JUMP JUMPDEST POP POP POP JUMP JUMPDEST PUSH0 PUSH8 0x7FFFFFFFFFFFFFFF DUP3 GT ISZERO PUSH2 0x2B8A JUMPI PUSH0 DUP1 REVERT JUMPDEST POP PUSH1 0x40 SHL SWAP1 JUMP JUMPDEST PUSH1 0x40 MLOAD PUSH1 0x1 PUSH1 0x1 PUSH1 0xA0 SHL SUB DUP5 DUP2 AND PUSH1 0x24 DUP4 ADD MSTORE DUP4 DUP2 AND PUSH1 0x44 DUP4 ADD MSTORE PUSH1 0x64 DUP3 ADD DUP4 SWAP1 MSTORE PUSH2 0x2BCA SWAP2 DUP7 SWAP2 DUP3 AND SWAP1 PUSH4 0x23B872DD SWAP1 PUSH1 0x84 ADD PUSH2 0x2B29 JUMP JUMPDEST POP POP POP POP JUMP JUMPDEST PUSH0 DUP1 SLOAD PUSH1 0x1 PUSH1 0x1 PUSH1 0xA0 SHL SUB DUP4 DUP2 AND PUSH32 0xFFFFFFFFFFFFFFFFFFFFFFFF0000000000000000000000000000000000000000 DUP4 AND DUP2 OR DUP5 SSTORE PUSH1 0x40 MLOAD SWAP2 SWAP1 SWAP3 AND SWAP3 DUP4 SWAP2 PUSH32 0x8BE0079C531659141344CD1FD0A4F28419497F9722A3DAAFE3B4186F6B6457E0 SWAP2 SWAP1 LOG3 POP POP JUMP JUMPDEST PUSH0 JUMPDEST DUP2 ISZERO PUSH2 0x2C60 JUMPI PUSH2 0x2C4A PUSH1 0x1 DUP4 PUSH2 0x4571 JUMP JUMPDEST SWAP1 SWAP2 AND SWAP1 DUP1 PUSH2 0x2C58 DUP2 PUSH2 0x4600 JUMP JUMPDEST SWAP2 POP POP PUSH2 0x2C39 JUMP JUMPDEST SWAP2 SWAP1 POP JUMP JUMPDEST PUSH0 DUP1 PUSH0 DUP1 DUP5 PUSH8 0xFFFFFFFFFFFFFFFF DUP2 GT ISZERO PUSH2 0x2C82 JUMPI PUSH2 0x2C82 PUSH2 0x40E1 JUMP JUMPDEST PUSH1 0x40 MLOAD SWAP1 DUP1 DUP3 MSTORE DUP1 PUSH1 0x20 MUL PUSH1 0x20 ADD DUP3 ADD PUSH1 0x40 MSTORE DUP1 ISZERO PUSH2 0x2CAB JUMPI DUP2 PUSH1 0x20 ADD PUSH1 0x20 DUP3 MUL DUP1 CALLDATASIZE DUP4 CALLDATACOPY ADD SWAP1 POP JUMPDEST POP SWAP1 POP PUSH0 JUMPDEST DUP6 DUP2 LT ISZERO PUSH2 0x2CFF JUMPI DUP11 DUP2 DUP2 MLOAD DUP2 LT PUSH2 0x2CCA JUMPI PUSH2 0x2CCA PUSH2 0x4519 JUMP JUMPDEST PUSH1 0x20 MUL PUSH1 0x20 ADD ADD MLOAD DUP3 DUP3 DUP2 MLOAD DUP2 LT PUSH2 0x2CE4 JUMPI PUSH2 0x2CE4 PUSH2 0x4519 JUMP JUMPDEST PUSH1 0xF SWAP3 SWAP1 SWAP3 SIGNEXTEND PUSH1 0x20 SWAP3 DUP4 MUL SWAP2 SWAP1 SWAP2 ADD SWAP1 SWAP2 ADD MSTORE PUSH1 0x1 ADD PUSH2 0x2CB0 JUMP JUMPDEST POP PUSH2 0x2D23 DUP2 DUP11 DUP2 MLOAD DUP2 LT PUSH2 0x2D15 JUMPI PUSH2 0x2D15 PUSH2 0x4519 JUMP JUMPDEST PUSH1 0x20 MUL PUSH1 0x20 ADD ADD MLOAD DUP10 PUSH2 0x2DC6 JUMP JUMPDEST DUP2 DUP11 DUP2 MLOAD DUP2 LT PUSH2 0x2D35 JUMPI PUSH2 0x2D35 PUSH2 0x4519 JUMP JUMPDEST PUSH1 0x20 MUL PUSH1 0x20 ADD ADD SWAP1 PUSH1 0xF SIGNEXTEND SWAP1 DUP2 PUSH1 0xF SIGNEXTEND DUP2 MSTORE POP POP PUSH2 0x2D53 DUP8 DUP10 PUSH2 0x2DC6 JUMP JUMPDEST PUSH1 0x3 SLOAD SWAP1 SWAP3 POP PUSH1 0xF SIGNEXTEND PUSH0 DUP1 JUMPDEST DUP8 DUP2 LT ISZERO PUSH2 0x2D9B JUMPI PUSH2 0x2D91 DUP3 PUSH2 0x711 PUSH2 0x70C DUP8 DUP6 DUP2 MLOAD DUP2 LT PUSH2 0x2D83 JUMPI PUSH2 0x2D83 PUSH2 0x4519 JUMP JUMPDEST PUSH1 0x20 MUL PUSH1 0x20 ADD ADD MLOAD DUP8 PUSH2 0x29AC JUMP JUMPDEST SWAP2 POP PUSH1 0x1 ADD PUSH2 0x2D5F JUMP JUMPDEST POP PUSH2 0x2DA9 DUP3 PUSH2 0x734 DUP4 PUSH2 0x2A98 JUMP JUMPDEST SWAP6 POP PUSH2 0x2DB5 DUP9 DUP8 PUSH2 0x2DC6 JUMP JUMPDEST SWAP5 POP POP POP POP SWAP7 POP SWAP7 POP SWAP7 SWAP4 POP POP POP POP JUMP JUMPDEST PUSH0 PUSH1 0xF DUP3 DUP2 SIGNEXTEND SWAP1 DUP5 SWAP1 SIGNEXTEND SUB PUSH16 0x7FFFFFFFFFFFFFFFFFFFFFFFFFFFFFFF NOT DUP2 SLT DUP1 ISZERO SWAP1 PUSH2 0x296F JUMPI POP PUSH1 0x1 PUSH1 0x1 PUSH1 0x7F SHL SUB DUP2 SGT ISZERO PUSH2 0x1315 JUMPI PUSH0 DUP1 REVERT JUMPDEST PUSH0 DUP1 PUSH0 DUP1 DUP5 PUSH8 0xFFFFFFFFFFFFFFFF DUP2 GT ISZERO PUSH2 0x2E1D JUMPI PUSH2 0x2E1D PUSH2 0x40E1 JUMP JUMPDEST PUSH1 0x40 MLOAD SWAP1 DUP1 DUP3 MSTORE DUP1 PUSH1 0x20 MUL PUSH1 0x20 ADD DUP3 ADD PUSH1 0x40 MSTORE DUP1 ISZERO PUSH2 0x2E46 JUMPI DUP2 PUSH1 0x20 ADD PUSH1 0x20 DUP3 MUL DUP1 CALLDATASIZE DUP4 CALLDATACOPY ADD SWAP1 POP JUMPDEST POP SWAP1 POP PUSH0 JUMPDEST DUP6 DUP2 LT ISZERO PUSH2 0x2E9A JUMPI DUP11 DUP2 DUP2 MLOAD DUP2 LT PUSH2 0x2E65 JUMPI PUSH2 0x2E65 PUSH2 0x4519 JUMP JUMPDEST PUSH1 0x20 MUL PUSH1 0x20 ADD ADD MLOAD DUP3 DUP3 DUP2 MLOAD DUP2 LT PUSH2 0x2E7F JUMPI PUSH2 0x2E7F PUSH2 0x4519 JUMP JUMPDEST PUSH1 0xF SWAP3 SWAP1 SWAP3 SIGNEXTEND PUSH1 0x20 SWAP3 DUP4 MUL SWAP2 SWAP1 SWAP2 ADD SWAP1 SWAP2 ADD MSTORE PUSH1 0x1 ADD PUSH2 0x2E4B JUMP JUMPDEST POP PUSH2 0x2EBE DUP2 DUP11 DUP2 MLOAD DUP2 LT PUSH2 0x2EB0 JUMPI PUSH2 0x2EB0 PUSH2 0x4519 JUMP JUMPDEST PUSH1 0x20 MUL PUSH1 0x20 ADD ADD MLOAD DUP10 PUSH2 0x2A5E JUMP JUMPDEST DUP2 DUP11 DUP2 MLOAD DUP2 LT PUSH2 0x2ED0 JUMPI PUSH2 0x2ED0 PUSH2 0x4519 JUMP JUMPDEST PUSH1 0x20 MUL PUSH1 0x20 ADD ADD SWAP1 PUSH1 0xF SIGNEXTEND SWAP1 DUP2 PUSH1 0xF SIGNEXTEND DUP2 MSTORE POP POP PUSH2 0x2EEE DUP8 DUP10 PUSH2 0x2A5E JUMP JUMPDEST PUSH1 0x3 SLOAD SWAP1 SWAP3 POP PUSH1 0xF SIGNEXTEND PUSH0 DUP1 JUMPDEST DUP8 DUP2 LT ISZERO PUSH2 0x2F28 JUMPI PUSH2 0x2F1E DUP3 PUSH2 0x711 PUSH2 0x70C DUP8 DUP6 DUP2 MLOAD DUP2 LT PUSH2 0x2D83 JUMPI PUSH2 0x2D83 PUSH2 0x4519 JUMP JUMPDEST SWAP2 POP PUSH1 0x1 ADD PUSH2 0x2EFA JUMP JUMPDEST POP PUSH2 0x2F36 DUP3 PUSH2 0x734 DUP4 PUSH2 0x2A98 JUMP JUMPDEST SWAP6 POP PUSH2 0x2DB5 DUP7 DUP10 PUSH2 0x2DC6 JUMP JUMPDEST PUSH1 0x8 SLOAD PUSH0 SWAP1 PUSH2 0x2F5A SWAP1 PUSH1 0x1 PUSH1 0x1 PUSH1 0xA0 SHL SUB AND DUP4 PUSH2 0x505 JUMP JUMPDEST PUSH1 0x7 SLOAD PUSH1 0x8 SLOAD PUSH1 0x6 SLOAD PUSH1 0x40 MLOAD PUSH4 0x856296F7 PUSH1 0xE0 SHL DUP2 MSTORE PUSH0 PUSH1 0x4 DUP3 ADD DUP2 SWAP1 MSTORE PUSH1 0x24 DUP3 ADD SWAP3 SWAP1 SWAP3 MSTORE PUSH1 0x1 DUP9 SHL PUSH1 0x44 DUP3 ADD MSTORE SWAP4 SWAP5 POP SWAP3 PUSH1 0x1 PUSH1 0x1 PUSH1 0xA0 SHL SUB SWAP3 DUP4 AND SWAP3 PUSH4 0x39DD7530 SWAP3 AND SWAP1 DUP4 SWAP1 PUSH4 0x856296F7 SWAP1 PUSH1 0x64 ADD PUSH1 0x20 PUSH1 0x40 MLOAD DUP1 DUP4 SUB DUP2 DUP7 GAS STATICCALL ISZERO DUP1 ISZERO PUSH2 0x2FC7 JUMPI RETURNDATASIZE PUSH0 DUP1 RETURNDATACOPY RETURNDATASIZE PUSH0 REVERT JUMPDEST POP POP POP POP PUSH1 0x40 MLOAD RETURNDATASIZE PUSH1 0x1F NOT PUSH1 0x1F DUP3 ADD AND DUP3 ADD DUP1 PUSH1 0x40 MSTORE POP DUP2 ADD SWAP1 PUSH2 0x2FEB SWAP2 SWAP1 PUSH2 0x452D JUMP JUMPDEST PUSH1 0x40 MLOAD PUSH1 0x1 PUSH1 0x1 PUSH1 0xE0 SHL SUB NOT PUSH1 0xE0 DUP6 SWAP1 SHL AND DUP2 MSTORE PUSH1 0x1 PUSH1 0x1 PUSH1 0xA0 SHL SUB SWAP1 SWAP3 AND PUSH1 0x4 DUP4 ADD MSTORE PUSH1 0x24 DUP3 ADD MSTORE PUSH1 0x44 ADD PUSH1 0x20 PUSH1 0x40 MLOAD DUP1 DUP4 SUB DUP2 DUP7 GAS STATICCALL ISZERO DUP1 ISZERO PUSH2 0x3032 JUMPI RETURNDATASIZE PUSH0 DUP1 RETURNDATACOPY RETURNDATASIZE PUSH0 REVERT JUMPDEST POP POP POP POP PUSH1 0x40 MLOAD RETURNDATASIZE PUSH1 0x1F NOT PUSH1 0x1F DUP3 ADD AND DUP3 ADD DUP1 PUSH1 0x40 MSTORE POP DUP2 ADD SWAP1 PUSH2 0x3056 SWAP2 SWAP1 PUSH2 0x452D JUMP JUMPDEST PUSH1 0x7 SLOAD PUSH1 0x40 MLOAD PUSH3 0x7EEAC7 PUSH1 0xE1 SHL DUP2 MSTORE ADDRESS PUSH1 0x4 DUP3 ADD MSTORE PUSH1 0x24 DUP2 ADD DUP4 SWAP1 MSTORE SWAP2 SWAP3 POP PUSH0 SWAP2 PUSH1 0x1 PUSH1 0x1 PUSH1 0xA0 SHL SUB SWAP1 SWAP2 AND SWAP1 PUSH3 0xFDD58E SWAP1 PUSH1 0x44 ADD PUSH1 0x20 PUSH1 0x40 MLOAD DUP1 DUP4 SUB DUP2 DUP7 GAS STATICCALL ISZERO DUP1 ISZERO PUSH2 0x30A6 JUMPI RETURNDATASIZE PUSH0 DUP1 RETURNDATACOPY RETURNDATASIZE PUSH0 REVERT JUMPDEST POP POP POP POP PUSH1 0x40 MLOAD RETURNDATASIZE PUSH1 0x1F NOT PUSH1 0x1F DUP3 ADD AND DUP3 ADD DUP1 PUSH1 0x40 MSTORE POP DUP2 ADD SWAP1 PUSH2 0x30CA SWAP2 SWAP1 PUSH2 0x452D JUMP JUMPDEST PUSH1 0x40 DUP1 MLOAD DUP8 DUP2 MSTORE PUSH1 0x20 DUP2 ADD DUP4 SWAP1 MSTORE SWAP1 DUP2 ADD DUP6 SWAP1 MSTORE DUP5 DUP3 LT PUSH1 0x60 DUP3 ADD DUP2 SWAP1 MSTORE SWAP2 SWAP3 POP PUSH32 0xA473DC6CFD784F529BFCF1DB106676AE5832EDE00C2E72234A796E528BDBFBAA SWAP1 PUSH1 0x80 ADD PUSH1 0x40 MLOAD DUP1 SWAP2 SUB SWAP1 LOG1 DUP1 ISZERO PUSH2 0x3225 JUMPI PUSH1 0x8 SLOAD PUSH1 0x7 SLOAD PUSH1 0x1 PUSH1 0x1 PUSH1 0xA0 SHL SUB SWAP2 DUP3 AND SWAP2 PUSH4 0x95EA7B3 SWAP2 AND PUSH2 0x3141 DUP4 DUP10 PUSH2 0x505 JUMP JUMPDEST PUSH1 0x40 MLOAD PUSH1 0x1 PUSH1 0x1 PUSH1 0xE0 SHL SUB NOT PUSH1 0xE0 DUP6 SWAP1 SHL AND DUP2 MSTORE PUSH1 0x1 PUSH1 0x1 PUSH1 0xA0 SHL SUB SWAP1 SWAP3 AND PUSH1 0x4 DUP4 ADD MSTORE PUSH1 0x24 DUP3 ADD MSTORE PUSH1 0x44 ADD PUSH1 0x20 PUSH1 0x40 MLOAD DUP1 DUP4 SUB DUP2 PUSH0 DUP8 GAS CALL ISZERO DUP1 ISZERO PUSH2 0x3189 JUMPI RETURNDATASIZE PUSH0 DUP1 RETURNDATACOPY RETURNDATASIZE PUSH0 REVERT JUMPDEST POP POP POP POP PUSH1 0x40 MLOAD RETURNDATASIZE PUSH1 0x1F NOT PUSH1 0x1F DUP3 ADD AND DUP3 ADD DUP1 PUSH1 0x40 MSTORE POP DUP2 ADD SWAP1 PUSH2 0x31AD SWAP2 SWAP1 PUSH2 0x4765 JUMP JUMPDEST POP PUSH1 0x7 SLOAD PUSH1 0x8 SLOAD PUSH1 0x6 SLOAD PUSH1 0x1 PUSH1 0x1 PUSH1 0xA0 SHL SUB SWAP3 DUP4 AND SWAP3 PUSH4 0x72CE4275 SWAP3 AND SWAP1 PUSH0 SWAP1 PUSH2 0x31D6 DUP12 PUSH2 0x1577 JUMP JUMPDEST DUP10 PUSH1 0x40 MLOAD DUP7 PUSH4 0xFFFFFFFF AND PUSH1 0xE0 SHL DUP2 MSTORE PUSH1 0x4 ADD PUSH2 0x31F7 SWAP6 SWAP5 SWAP4 SWAP3 SWAP2 SWAP1 PUSH2 0x4784 JUMP JUMPDEST PUSH0 PUSH1 0x40 MLOAD DUP1 DUP4 SUB DUP2 PUSH0 DUP8 DUP1 EXTCODESIZE ISZERO DUP1 ISZERO PUSH2 0x320E JUMPI PUSH0 DUP1 REVERT JUMPDEST POP GAS CALL ISZERO DUP1 ISZERO PUSH2 0x3220 JUMPI RETURNDATASIZE PUSH0 DUP1 RETURNDATACOPY RETURNDATASIZE PUSH0 REVERT JUMPDEST POP POP POP POP JUMPDEST PUSH1 0x7 SLOAD PUSH1 0x40 MLOAD PUSH4 0x79212195 PUSH1 0xE1 SHL DUP2 MSTORE ADDRESS PUSH1 0x4 DUP3 ADD MSTORE CALLER PUSH1 0x24 DUP3 ADD MSTORE PUSH1 0x44 DUP2 ADD DUP6 SWAP1 MSTORE PUSH1 0x64 DUP2 ADD DUP7 SWAP1 MSTORE PUSH1 0xA0 PUSH1 0x84 DUP3 ADD MSTORE PUSH0 PUSH1 0xA4 DUP3 ADD MSTORE PUSH1 0x1 PUSH1 0x1 PUSH1 0xA0 SHL SUB SWAP1 SWAP2 AND SWAP1 PUSH4 0xF242432A SWAP1 PUSH1 0xC4 ADD PUSH0 PUSH1 0x40 MLOAD DUP1 DUP4 SUB DUP2 PUSH0 DUP8 DUP1 EXTCODESIZE ISZERO DUP1 ISZERO PUSH2 0x3288 JUMPI PUSH0 DUP1 REVERT JUMPDEST POP GAS CALL ISZERO DUP1 ISZERO PUSH2 0x329A JUMPI RETURNDATASIZE PUSH0 DUP1 RETURNDATACOPY RETURNDATASIZE PUSH0 REVERT JUMPDEST POP POP POP POP POP POP POP POP POP POP JUMP JUMPDEST PUSH0 DUP2 PUSH0 SUB PUSH2 0x32B2 JUMPI PUSH0 DUP1 REVERT JUMPDEST PUSH0 PUSH24 0xFFFFFFFFFFFFFFFFFFFFFFFFFFFFFFFFFFFFFFFFFFFFFFFF DUP5 GT PUSH2 0x32ED JUMPI DUP3 PUSH1 0x40 DUP6 SWAP1 SHL DUP2 PUSH2 0x32E5 JUMPI PUSH2 0x32E5 PUSH2 0x47C3 JUMP JUMPDEST DIV SWAP1 POP PUSH2 0x3403 JUMP JUMPDEST PUSH1 0xC0 DUP5 DUP2 SHR PUSH5 0x100000000 DUP2 LT PUSH2 0x3306 JUMPI PUSH1 0x20 SWAP2 DUP3 ADD SWAP2 SHR JUMPDEST PUSH3 0x10000 DUP2 LT PUSH2 0x3318 JUMPI PUSH1 0x10 SWAP2 DUP3 ADD SWAP2 SHR JUMPDEST PUSH2 0x100 DUP2 LT PUSH2 0x3329 JUMPI PUSH1 0x8 SWAP2 DUP3 ADD SWAP2 SHR JUMPDEST PUSH1 0x10 DUP2 LT PUSH2 0x3339 JUMPI PUSH1 0x4 SWAP2 DUP3 ADD SWAP2 SHR JUMPDEST PUSH1 0x4 DUP2 LT PUSH2 0x3349 JUMPI PUSH1 0x2 SWAP2 DUP3 ADD SWAP2 SHR JUMPDEST PUSH1 0x2 DUP2 LT PUSH2 0x3358 JUMPI PUSH1 0x1 DUP3 ADD SWAP2 POP JUMPDEST PUSH1 0xBF DUP3 SUB PUSH1 0x1 DUP7 SUB SWAP1 SHR PUSH1 0x1 ADD DUP3 PUSH1 0xFF SUB DUP8 SWAP1 SHL DUP2 PUSH2 0x3379 JUMPI PUSH2 0x3379 PUSH2 0x47C3 JUMP JUMPDEST DIV SWAP3 POP PUSH1 0x1 PUSH1 0x1 PUSH1 0x80 SHL SUB DUP4 GT ISZERO PUSH2 0x338F JUMPI PUSH0 DUP1 REVERT JUMPDEST PUSH1 0x80 DUP6 SWAP1 SHR DUP4 MUL PUSH1 0x1 PUSH1 0x1 PUSH1 0x80 SHL SUB DUP7 AND DUP5 MUL PUSH1 0xC0 DUP9 SWAP1 SHR PUSH1 0x40 DUP10 SWAP1 SHL DUP3 DUP2 LT ISZERO PUSH2 0x33BB JUMPI PUSH1 0x1 DUP3 SUB SWAP2 POP JUMPDEST PUSH1 0x80 DUP5 SWAP1 SHL SWAP3 SWAP1 SUB DUP3 DUP2 LT ISZERO PUSH2 0x33D2 JUMPI PUSH1 0x1 DUP3 SUB SWAP2 POP JUMPDEST DUP3 SWAP1 SUB PUSH1 0x80 DUP5 SWAP1 SHR DUP3 EQ PUSH2 0x33E7 JUMPI PUSH1 0x1 PUSH2 0x33F8 JUMP JUMPDEST DUP9 DUP2 DUP2 PUSH2 0x33F6 JUMPI PUSH2 0x33F6 PUSH2 0x47C3 JUMP JUMPDEST DIV JUMPDEST DUP8 ADD SWAP7 POP POP POP POP POP POP POP JUMPDEST PUSH1 0x1 PUSH1 0x1 PUSH1 0x80 SHL SUB DUP2 GT ISZERO PUSH2 0x1315 JUMPI PUSH0 DUP1 REVERT JUMPDEST PUSH0 PUSH9 0x400000000000000000 DUP3 PUSH1 0xF SIGNEXTEND SLT PUSH2 0x342E JUMPI PUSH0 DUP1 REVERT JUMPDEST PUSH9 0x3FFFFFFFFFFFFFFFFF NOT DUP3 PUSH1 0xF SIGNEXTEND SLT ISZERO PUSH2 0x344A JUMPI POP PUSH0 SWAP2 SWAP1 POP JUMP JUMPDEST PUSH16 0x80000000000000000000000000000000 PUSH0 PUSH8 0x8000000000000000 DUP5 AND PUSH1 0xF SIGNEXTEND SGT ISZERO PUSH2 0x3487 JUMPI PUSH17 0x16A09E667F3BCC908B2FB1366EA957D3E MUL PUSH1 0x80 SHR JUMPDEST PUSH0 DUP4 PUSH8 0x4000000000000000 AND PUSH1 0xF SIGNEXTEND SGT ISZERO PUSH2 0x34B3 JUMPI PUSH17 0x1306FE0A31B7152DE8D5A46305C85EDEC MUL PUSH1 0x80 SHR JUMPDEST PUSH0 DUP4 PUSH8 0x2000000000000000 AND PUSH1 0xF SIGNEXTEND SGT ISZERO PUSH2 0x34DF JUMPI PUSH17 0x1172B83C7D517ADCDF7C8C50EB14A791F MUL PUSH1 0x80 SHR JUMPDEST PUSH0 DUP4 PUSH8 0x1000000000000000 AND PUSH1 0xF SIGNEXTEND SGT ISZERO PUSH2 0x350B JUMPI PUSH17 0x10B5586CF9890F6298B92B71842A98363 MUL PUSH1 0x80 SHR JUMPDEST PUSH0 DUP4 PUSH8 0x800000000000000 AND PUSH1 0xF SIGNEXTEND SGT ISZERO PUSH2 0x3537 JUMPI PUSH17 0x1059B0D31585743AE7C548EB68CA417FD MUL PUSH1 0x80 SHR JUMPDEST PUSH0 DUP4 PUSH8 0x400000000000000 AND PUSH1 0xF SIGNEXTEND SGT ISZERO PUSH2 0x3563 JUMPI PUSH17 0x102C9A3E778060EE6F7CACA4F7A29BDE8 MUL PUSH1 0x80 SHR JUMPDEST PUSH0 DUP4 PUSH8 0x200000000000000 AND PUSH1 0xF SIGNEXTEND SGT ISZERO PUSH2 0x358F JUMPI PUSH17 0x10163DA9FB33356D84A66AE336DCDFA3F MUL PUSH1 0x80 SHR JUMPDEST PUSH0 DUP4 PUSH8 0x100000000000000 AND PUSH1 0xF SIGNEXTEND SGT ISZERO PUSH2 0x35BB JUMPI PUSH17 0x100B1AFA5ABCBED6129AB13EC11DC9543 MUL PUSH1 0x80 SHR JUMPDEST PUSH0 DUP4 PUSH7 0x80000000000000 AND PUSH1 0xF SIGNEXTEND SGT ISZERO PUSH2 0x35E6 JUMPI PUSH17 0x10058C86DA1C09EA1FF19D294CF2F679B MUL PUSH1 0x80 SHR JUMPDEST PUSH0 DUP4 PUSH7 0x40000000000000 AND PUSH1 0xF SIGNEXTEND SGT ISZERO PUSH2 0x3611 JUMPI PUSH17 0x1002C605E2E8CEC506D21BFC89A23A00F MUL PUSH1 0x80 SHR JUMPDEST PUSH0 DUP4 PUSH7 0x20000000000000 AND PUSH1 0xF SIGNEXTEND SGT ISZERO PUSH2 0x363C JUMPI PUSH17 0x100162F3904051FA128BCA9C55C31E5DF MUL PUSH1 0x80 SHR JUMPDEST PUSH0 DUP4 PUSH7 0x10000000000000 AND PUSH1 0xF SIGNEXTEND SGT ISZERO PUSH2 0x3667 JUMPI PUSH17 0x1000B175EFFDC76BA38E31671CA939725 MUL PUSH1 0x80 SHR JUMPDEST PUSH0 DUP4 PUSH7 0x8000000000000 AND PUSH1 0xF SIGNEXTEND SGT ISZERO PUSH2 0x3692 JUMPI PUSH17 0x100058BA01FB9F96D6CACD4B180917C3D MUL PUSH1 0x80 SHR JUMPDEST PUSH0 DUP4 PUSH7 0x4000000000000 AND PUSH1 0xF SIGNEXTEND SGT ISZERO PUSH2 0x36BD JUMPI PUSH17 0x10002C5CC37DA9491D0985C348C68E7B3 MUL PUSH1 0x80 SHR JUMPDEST PUSH0 DUP4 PUSH7 0x2000000000000 AND PUSH1 0xF SIGNEXTEND SGT ISZERO PUSH2 0x36E8 JUMPI PUSH17 0x1000162E525EE054754457D5995292026 MUL PUSH1 0x80 SHR JUMPDEST PUSH0 DUP4 PUSH7 0x1000000000000 AND PUSH1 0xF SIGNEXTEND SGT ISZERO PUSH2 0x3713 JUMPI PUSH17 0x10000B17255775C040618BF4A4ADE83FC MUL PUSH1 0x80 SHR JUMPDEST PUSH0 DUP4 PUSH6 0x800000000000 AND PUSH1 0xF SIGNEXTEND SGT ISZERO PUSH2 0x373D JUMPI PUSH17 0x1000058B91B5BC9AE2EED81E9B7D4CFAB MUL PUSH1 0x80 SHR JUMPDEST PUSH0 DUP4 PUSH6 0x400000000000 AND PUSH1 0xF SIGNEXTEND SGT ISZERO PUSH2 0x3767 JUMPI PUSH17 0x100002C5C89D5EC6CA4D7C8ACC017B7C9 MUL PUSH1 0x80 SHR JUMPDEST PUSH0 DUP4 PUSH6 0x200000000000 AND PUSH1 0xF SIGNEXTEND SGT ISZERO PUSH2 0x3791 JUMPI PUSH17 0x10000162E43F4F831060E02D839A9D16D MUL PUSH1 0x80 SHR JUMPDEST PUSH0 DUP4 PUSH6 0x100000000000 AND PUSH1 0xF SIGNEXTEND SGT ISZERO PUSH2 0x37BB JUMPI PUSH17 0x100000B1721BCFC99D9F890EA06911763 MUL PUSH1 0x80 SHR JUMPDEST PUSH0 DUP4 PUSH6 0x80000000000 AND PUSH1 0xF SIGNEXTEND SGT ISZERO PUSH2 0x37E5 JUMPI PUSH17 0x10000058B90CF1E6D97F9CA14DBCC1628 MUL PUSH1 0x80 SHR JUMPDEST PUSH0 DUP4 PUSH6 0x40000000000 AND PUSH1 0xF SIGNEXTEND SGT ISZERO PUSH2 0x380F JUMPI PUSH17 0x1000002C5C863B73F016468F6BAC5CA2B MUL PUSH1 0x80 SHR JUMPDEST PUSH0 DUP4 PUSH6 0x20000000000 AND PUSH1 0xF SIGNEXTEND SGT ISZERO PUSH2 0x3839 JUMPI PUSH17 0x100000162E430E5A18F6119E3C02282A5 MUL PUSH1 0x80 SHR JUMPDEST PUSH0 DUP4 PUSH6 0x10000000000 AND PUSH1 0xF SIGNEXTEND SGT ISZERO PUSH2 0x3863 JUMPI PUSH17 0x1000000B1721835514B86E6D96EFD1BFE MUL PUSH1 0x80 SHR JUMPDEST PUSH0 DUP4 PUSH5 0x8000000000 AND PUSH1 0xF SIGNEXTEND SGT ISZERO PUSH2 0x388C JUMPI PUSH17 0x100000058B90C0B48C6BE5DF846C5B2EF MUL PUSH1 0x80 SHR JUMPDEST PUSH0 DUP4 PUSH5 0x4000000000 AND PUSH1 0xF SIGNEXTEND SGT ISZERO PUSH2 0x38B5 JUMPI PUSH17 0x10000002C5C8601CC6B9E94213C72737A MUL PUSH1 0x80 SHR JUMPDEST PUSH0 DUP4 PUSH5 0x2000000000 AND PUSH1 0xF SIGNEXTEND SGT ISZERO PUSH2 0x38DE JUMPI PUSH17 0x1000000162E42FFF037DF38AA2B219F06 MUL PUSH1 0x80 SHR JUMPDEST PUSH0 DUP4 PUSH5 0x1000000000 AND PUSH1 0xF SIGNEXTEND SGT ISZERO PUSH2 0x3907 JUMPI PUSH17 0x10000000B17217FBA9C739AA5819F44F9 MUL PUSH1 0x80 SHR JUMPDEST PUSH0 DUP4 PUSH5 0x800000000 AND PUSH1 0xF SIGNEXTEND SGT ISZERO PUSH2 0x3930 JUMPI PUSH17 0x1000000058B90BFCDEE5ACD3C1CEDC823 MUL PUSH1 0x80 SHR JUMPDEST PUSH0 DUP4 PUSH5 0x400000000 AND PUSH1 0xF SIGNEXTEND SGT ISZERO PUSH2 0x3959 JUMPI PUSH17 0x100000002C5C85FE31F35A6A30DA1BE50 MUL PUSH1 0x80 SHR JUMPDEST PUSH0 DUP4 PUSH5 0x200000000 AND PUSH1 0xF SIGNEXTEND SGT ISZERO PUSH2 0x3982 JUMPI PUSH17 0x10000000162E42FF0999CE3541B9FFFCF MUL PUSH1 0x80 SHR JUMPDEST PUSH0 DUP4 PUSH5 0x100000000 AND PUSH1 0xF SIGNEXTEND SGT ISZERO PUSH2 0x39AB JUMPI PUSH17 0x100000000B17217F80F4EF5AADDA45554 MUL PUSH1 0x80 SHR JUMPDEST PUSH0 DUP4 PUSH4 0x80000000 AND PUSH1 0xF SIGNEXTEND SGT ISZERO PUSH2 0x39D3 JUMPI PUSH17 0x10000000058B90BFBF8479BD5A81B51AD MUL PUSH1 0x80 SHR JUMPDEST PUSH0 DUP4 PUSH4 0x40000000 AND PUSH1 0xF SIGNEXTEND SGT ISZERO PUSH2 0x39FB JUMPI PUSH17 0x1000000002C5C85FDF84BD62AE30A74CC MUL PUSH1 0x80 SHR JUMPDEST PUSH0 DUP4 PUSH4 0x20000000 AND PUSH1 0xF SIGNEXTEND SGT ISZERO PUSH2 0x3A23 JUMPI PUSH17 0x100000000162E42FEFB2FED257559BDAA MUL PUSH1 0x80 SHR JUMPDEST PUSH0 DUP4 PUSH4 0x10000000 AND PUSH1 0xF SIGNEXTEND SGT ISZERO PUSH2 0x3A4B JUMPI PUSH17 0x1000000000B17217F7D5A7716BBA4A9AE MUL PUSH1 0x80 SHR JUMPDEST PUSH0 DUP4 PUSH4 0x8000000 AND PUSH1 0xF SIGNEXTEND SGT ISZERO PUSH2 0x3A73 JUMPI PUSH17 0x100000000058B90BFBE9DDBAC5E109CCE MUL PUSH1 0x80 SHR JUMPDEST PUSH0 DUP4 PUSH4 0x4000000 AND PUSH1 0xF SIGNEXTEND SGT ISZERO PUSH2 0x3A9B JUMPI PUSH17 0x10000000002C5C85FDF4B15DE6F17EB0D MUL PUSH1 0x80 SHR JUMPDEST PUSH0 DUP4 PUSH4 0x2000000 AND PUSH1 0xF SIGNEXTEND SGT ISZERO PUSH2 0x3AC3 JUMPI PUSH17 0x1000000000162E42FEFA494F1478FDE05 MUL PUSH1 0x80 SHR JUMPDEST PUSH0 DUP4 PUSH4 0x1000000 AND PUSH1 0xF SIGNEXTEND SGT ISZERO PUSH2 0x3AEB JUMPI PUSH17 0x10000000000B17217F7D20CF927C8E94C MUL PUSH1 0x80 SHR JUMPDEST PUSH0 DUP4 PUSH3 0x800000 AND PUSH1 0xF SIGNEXTEND SGT ISZERO PUSH2 0x3B12 JUMPI PUSH17 0x1000000000058B90BFBE8F71CB4E4B33D MUL PUSH1 0x80 SHR JUMPDEST PUSH0 DUP4 PUSH3 0x400000 AND PUSH1 0xF SIGNEXTEND SGT ISZERO PUSH2 0x3B39 JUMPI PUSH17 0x100000000002C5C85FDF477B662B26945 MUL PUSH1 0x80 SHR JUMPDEST PUSH0 DUP4 PUSH3 0x200000 AND PUSH1 0xF SIGNEXTEND SGT ISZERO PUSH2 0x3B60 JUMPI PUSH17 0x10000000000162E42FEFA3AE53369388C MUL PUSH1 0x80 SHR JUMPDEST PUSH0 DUP4 PUSH3 0x100000 AND PUSH1 0xF SIGNEXTEND SGT ISZERO PUSH2 0x3B87 JUMPI PUSH17 0x100000000000B17217F7D1D351A389D40 MUL PUSH1 0x80 SHR JUMPDEST PUSH0 DUP4 PUSH3 0x80000 AND PUSH1 0xF SIGNEXTEND SGT ISZERO PUSH2 0x3BAE JUMPI PUSH17 0x10000000000058B90BFBE8E8B2D3D4EDE MUL PUSH1 0x80 SHR JUMPDEST PUSH0 DUP4 PUSH3 0x40000 AND PUSH1 0xF SIGNEXTEND SGT ISZERO PUSH2 0x3BD5 JUMPI PUSH17 0x1000000000002C5C85FDF4741BEA6E77E MUL PUSH1 0x80 SHR JUMPDEST PUSH0 DUP4 PUSH3 0x20000 AND PUSH1 0xF SIGNEXTEND SGT ISZERO PUSH2 0x3BFC JUMPI PUSH17 0x100000000000162E42FEFA39FE95583C2 MUL PUSH1 0x80 SHR JUMPDEST PUSH0 DUP4 PUSH3 0x10000 AND PUSH1 0xF SIGNEXTEND SGT ISZERO PUSH2 0x3C23 JUMPI PUSH17 0x1000000000000B17217F7D1CFB72B45E1 MUL PUSH1 0x80 SHR JUMPDEST PUSH0 DUP4 PUSH2 0x8000 AND PUSH1 0xF SIGNEXTEND SGT ISZERO PUSH2 0x3C49 JUMPI PUSH17 0x100000000000058B90BFBE8E7CC35C3F0 MUL PUSH1 0x80 SHR JUMPDEST PUSH0 DUP4 PUSH2 0x4000 AND PUSH1 0xF SIGNEXTEND SGT ISZERO PUSH2 0x3C6F JUMPI PUSH17 0x10000000000002C5C85FDF473E242EA38 MUL PUSH1 0x80 SHR JUMPDEST PUSH0 DUP4 PUSH2 0x2000 AND PUSH1 0xF SIGNEXTEND SGT ISZERO PUSH2 0x3C95 JUMPI PUSH17 0x1000000000000162E42FEFA39F02B772C MUL PUSH1 0x80 SHR JUMPDEST PUSH0 DUP4 PUSH2 0x1000 AND PUSH1 0xF SIGNEXTEND SGT ISZERO PUSH2 0x3CBB JUMPI PUSH17 0x10000000000000B17217F7D1CF7D83C1A MUL PUSH1 0x80 SHR JUMPDEST PUSH0 DUP4 PUSH2 0x800 AND PUSH1 0xF SIGNEXTEND SGT ISZERO PUSH2 0x3CE1 JUMPI PUSH17 0x1000000000000058B90BFBE8E7BDCBE2E MUL PUSH1 0x80 SHR JUMPDEST PUSH0 DUP4 PUSH2 0x400 AND PUSH1 0xF SIGNEXTEND SGT ISZERO PUSH2 0x3D07 JUMPI PUSH17 0x100000000000002C5C85FDF473DEA871F MUL PUSH1 0x80 SHR JUMPDEST PUSH0 DUP4 PUSH2 0x200 AND PUSH1 0xF SIGNEXTEND SGT ISZERO PUSH2 0x3D2D JUMPI PUSH17 0x10000000000000162E42FEFA39EF44D91 MUL PUSH1 0x80 SHR JUMPDEST PUSH0 DUP4 PUSH2 0x100 AND PUSH1 0xF SIGNEXTEND SGT ISZERO PUSH2 0x3D53 JUMPI PUSH17 0x100000000000000B17217F7D1CF79E949 MUL PUSH1 0x80 SHR JUMPDEST PUSH0 DUP4 PUSH1 0x80 AND PUSH1 0xF SIGNEXTEND SGT ISZERO PUSH2 0x3D78 JUMPI PUSH17 0x10000000000000058B90BFBE8E7BCE544 MUL PUSH1 0x80 SHR JUMPDEST PUSH0 DUP4 PUSH1 0x40 AND PUSH1 0xF SIGNEXTEND SGT ISZERO PUSH2 0x3D9D JUMPI PUSH17 0x1000000000000002C5C85FDF473DE6ECA MUL PUSH1 0x80 SHR JUMPDEST PUSH0 DUP4 PUSH1 0x20 AND PUSH1 0xF SIGNEXTEND SGT ISZERO PUSH2 0x3DC2 JUMPI PUSH17 0x100000000000000162E42FEFA39EF366F MUL PUSH1 0x80 SHR JUMPDEST PUSH0 DUP4 PUSH1 0x10 AND PUSH1 0xF SIGNEXTEND SGT ISZERO PUSH2 0x3DE7 JUMPI PUSH17 0x1000000000000000B17217F7D1CF79AFA MUL PUSH1 0x80 SHR JUMPDEST PUSH0 DUP4 PUSH1 0x8 AND PUSH1 0xF SIGNEXTEND SGT ISZERO PUSH2 0x3E0C JUMPI PUSH17 0x100000000000000058B90BFBE8E7BCD6D MUL PUSH1 0x80 SHR JUMPDEST PUSH0 DUP4 PUSH1 0x4 AND PUSH1 0xF SIGNEXTEND SGT ISZERO PUSH2 0x3E31 JUMPI PUSH17 0x10000000000000002C5C85FDF473DE6B2 MUL PUSH1 0x80 SHR JUMPDEST PUSH0 DUP4 PUSH1 0x2 AND PUSH1 0xF SIGNEXTEND SGT ISZERO PUSH2 0x3E56 JUMPI PUSH17 0x1000000000000000162E42FEFA39EF358 MUL PUSH1 0x80 SHR JUMPDEST PUSH0 DUP4 PUSH1 0x1 AND PUSH1 0xF SIGNEXTEND SGT ISZERO PUSH2 0x3E7B JUMPI PUSH17 0x10000000000000000B17217F7D1CF79AB MUL PUSH1 0x80 SHR JUMPDEST PUSH1 0xF DUP4 DUP2 SIGNEXTEND PUSH1 0x40 SAR PUSH1 0x3F SUB SWAP1 SIGNEXTEND SHR PUSH1 0x1 PUSH1 0x1 PUSH1 0x7F SHL SUB DUP2 GT ISZERO PUSH2 0x610 JUMPI PUSH0 DUP1 REVERT JUMPDEST PUSH0 DUP1 DUP3 PUSH1 0xF SIGNEXTEND SGT PUSH2 0x3EAB JUMPI PUSH0 DUP1 REVERT JUMPDEST PUSH0 PUSH1 0xF DUP4 SWAP1 SIGNEXTEND PUSH9 0x10000000000000000 DUP2 SLT PUSH2 0x3EC9 JUMPI PUSH1 0x40 SWAP2 DUP3 ADD SWAP2 SAR JUMPDEST PUSH5 0x100000000 DUP2 SLT PUSH2 0x3EDD JUMPI PUSH1 0x20 SWAP2 DUP3 ADD SWAP2 SAR JUMPDEST PUSH3 0x10000 DUP2 SLT PUSH2 0x3EEF JUMPI PUSH1 0x10 SWAP2 DUP3 ADD SWAP2 SAR JUMPDEST PUSH2 0x100 DUP2 SLT PUSH2 0x3F00 JUMPI PUSH1 0x8 SWAP2 DUP3 ADD SWAP2 SAR JUMPDEST PUSH1 0x10 DUP2 SLT PUSH2 0x3F10 JUMPI PUSH1 0x4 SWAP2 DUP3 ADD SWAP2 SAR JUMPDEST PUSH1 0x4 DUP2 SLT PUSH2 0x3F20 JUMPI PUSH1 0x2 SWAP2 DUP3 ADD SWAP2 SAR JUMPDEST PUSH1 0x2 DUP2 SLT PUSH2 0x3F2F JUMPI PUSH1 0x1 DUP3 ADD SWAP2 POP JUMPDEST PUSH1 0x3F NOT DUP3 ADD PUSH1 0x40 SHL PUSH1 0xF DUP6 SWAP1 SIGNEXTEND PUSH1 0x7F DUP5 SWAP1 SUB SHL PUSH8 0x8000000000000000 JUMPDEST PUSH0 DUP2 SGT ISZERO PUSH2 0x1664 JUMPI SWAP1 DUP1 MUL PUSH1 0xFF DUP2 SWAP1 SHR DUP3 DUP2 MUL SWAP4 SWAP1 SWAP4 ADD SWAP3 PUSH1 0x7F ADD SHR SWAP1 PUSH1 0x1 SAR PUSH2 0x3F4C JUMP JUMPDEST PUSH0 DUP1 PUSH1 0x20 PUSH0 DUP5 MLOAD PUSH1 0x20 DUP7 ADD PUSH0 DUP9 GAS CALL DUP1 PUSH2 0x3F90 JUMPI PUSH1 0x40 MLOAD RETURNDATASIZE PUSH0 DUP3 RETURNDATACOPY RETURNDATASIZE DUP2 REVERT JUMPDEST POP POP PUSH0 MLOAD RETURNDATASIZE SWAP2 POP DUP2 ISZERO PUSH2 0x3FA7 JUMPI DUP1 PUSH1 0x1 EQ ISZERO PUSH2 0x3FB4 JUMP JUMPDEST PUSH1 0x1 PUSH1 0x1 PUSH1 0xA0 SHL SUB DUP5 AND EXTCODESIZE ISZERO JUMPDEST ISZERO PUSH2 0x2BCA JUMPI PUSH1 0x40 MLOAD PUSH4 0x5274AFE7 PUSH1 0xE0 SHL DUP2 MSTORE PUSH1 0x1 PUSH1 0x1 PUSH1 0xA0 SHL SUB DUP6 AND PUSH1 0x4 DUP3 ADD MSTORE PUSH1 0x24 ADD PUSH2 0x5C9 JUMP JUMPDEST PUSH0 PUSH1 0x20 DUP3 DUP5 SUB SLT ISZERO PUSH2 0x3FED JUMPI PUSH0 DUP1 REVERT JUMPDEST DUP2 CALLDATALOAD PUSH1 0x1 PUSH1 0x1 PUSH1 0xE0 SHL SUB NOT DUP2 AND DUP2 EQ PUSH2 0x1315 JUMPI PUSH0 DUP1 REVERT JUMPDEST DUP1 CALLDATALOAD PUSH1 0x1 PUSH1 0x1 PUSH1 0xA0 SHL SUB DUP2 AND DUP2 EQ PUSH2 0x2C60 JUMPI PUSH0 DUP1 REVERT JUMPDEST DUP1 CALLDATALOAD PUSH1 0xF DUP2 SWAP1 SIGNEXTEND DUP2 EQ PUSH2 0x2C60 JUMPI PUSH0 DUP1 REVERT JUMPDEST PUSH0 DUP1 PUSH1 0x40 DUP4 DUP6 SUB SLT ISZERO PUSH2 0x403C JUMPI PUSH0 DUP1 REVERT JUMPDEST PUSH2 0x4045 DUP4 PUSH2 0x4004 JUMP JUMPDEST SWAP2 POP PUSH2 0x4053 PUSH1 0x20 DUP5 ADD PUSH2 0x401A JUMP JUMPDEST SWAP1 POP SWAP3 POP SWAP3 SWAP1 POP JUMP JUMPDEST PUSH0 DUP1 PUSH1 0x40 DUP4 DUP6 SUB SLT ISZERO PUSH2 0x406D JUMPI PUSH0 DUP1 REVERT JUMPDEST PUSH2 0x4076 DUP4 PUSH2 0x4004 JUMP JUMPDEST SWAP5 PUSH1 0x20 SWAP4 SWAP1 SWAP4 ADD CALLDATALOAD SWAP4 POP POP POP JUMP JUMPDEST PUSH0 PUSH1 0x20 DUP3 DUP5 SUB SLT ISZERO PUSH2 0x4094 JUMPI PUSH0 DUP1 REVERT JUMPDEST POP CALLDATALOAD SWAP2 SWAP1 POP JUMP JUMPDEST PUSH0 DUP1 PUSH0 DUP1 PUSH0 DUP1 PUSH1 0xC0 DUP8 DUP10 SUB SLT ISZERO PUSH2 0x40B0 JUMPI PUSH0 DUP1 REVERT JUMPDEST PUSH2 0x40B9 DUP8 PUSH2 0x4004 JUMP JUMPDEST SWAP9 PUSH1 0x20 DUP9 ADD CALLDATALOAD SWAP9 POP PUSH1 0x40 DUP9 ADD CALLDATALOAD SWAP8 PUSH1 0x60 DUP2 ADD CALLDATALOAD SWAP8 POP PUSH1 0x80 DUP2 ADD CALLDATALOAD SWAP7 POP PUSH1 0xA0 ADD CALLDATALOAD SWAP5 POP SWAP3 POP POP POP JUMP JUMPDEST PUSH4 0x4E487B71 PUSH1 0xE0 SHL PUSH0 MSTORE PUSH1 0x41 PUSH1 0x4 MSTORE PUSH1 0x24 PUSH0 REVERT JUMPDEST PUSH1 0x1F DUP3 ADD PUSH1 0x1F NOT AND DUP2 ADD PUSH8 0xFFFFFFFFFFFFFFFF DUP2 GT DUP3 DUP3 LT OR ISZERO PUSH2 0x411B JUMPI PUSH2 0x411B PUSH2 0x40E1 JUMP JUMPDEST PUSH1 0x40 MSTORE POP POP JUMP JUMPDEST PUSH0 PUSH1 0x20 DUP1 DUP4 DUP6 SUB SLT ISZERO PUSH2 0x4133 JUMPI PUSH0 DUP1 REVERT JUMPDEST DUP3 CALLDATALOAD PUSH8 0xFFFFFFFFFFFFFFFF DUP1 DUP3 GT ISZERO PUSH2 0x414A JUMPI PUSH0 DUP1 REVERT JUMPDEST DUP2 DUP6 ADD SWAP2 POP DUP6 PUSH1 0x1F DUP4 ADD SLT PUSH2 0x415D JUMPI PUSH0 DUP1 REVERT JUMPDEST DUP2 CALLDATALOAD DUP2 DUP2 GT ISZERO PUSH2 0x416F JUMPI PUSH2 0x416F PUSH2 0x40E1 JUMP JUMPDEST PUSH1 0x40 MLOAD SWAP2 POP PUSH2 0x4187 PUSH1 0x1F DUP3 ADD PUSH1 0x1F NOT AND DUP6 ADD DUP4 PUSH2 0x40F5 JUMP JUMPDEST DUP1 DUP3 MSTORE DUP7 DUP5 DUP3 DUP6 ADD ADD GT ISZERO PUSH2 0x419A JUMPI PUSH0 DUP1 REVERT JUMPDEST DUP1 DUP5 DUP5 ADD DUP6 DUP5 ADD CALLDATACOPY PUSH0 SWAP1 DUP3 ADD SWAP1 SWAP4 ADD SWAP3 SWAP1 SWAP3 MSTORE POP SWAP4 SWAP3 POP POP POP JUMP JUMPDEST PUSH0 DUP1 PUSH1 0x40 DUP4 DUP6 SUB SLT ISZERO PUSH2 0x41C6 JUMPI PUSH0 DUP1 REVERT JUMPDEST DUP3 CALLDATALOAD SWAP2 POP PUSH2 0x4053 PUSH1 0x20 DUP5 ADD PUSH2 0x401A JUMP JUMPDEST PUSH0 DUP2 MLOAD DUP1 DUP5 MSTORE PUSH1 0x20 DUP1 DUP6 ADD SWAP5 POP PUSH1 0x20 DUP5 ADD PUSH0 JUMPDEST DUP4 DUP2 LT ISZERO PUSH2 0x4205 JUMPI DUP2 MLOAD DUP8 MSTORE SWAP6 DUP3 ADD SWAP6 SWAP1 DUP3 ADD SWAP1 PUSH1 0x1 ADD PUSH2 0x41E9 JUMP JUMPDEST POP SWAP5 SWAP6 SWAP5 POP POP POP POP POP JUMP JUMPDEST PUSH1 0x20 DUP2 MSTORE PUSH0 PUSH2 0x1315 PUSH1 0x20 DUP4 ADD DUP5 PUSH2 0x41D6 JUMP JUMPDEST PUSH0 DUP1 DUP4 PUSH1 0x1F DUP5 ADD SLT PUSH2 0x4232 JUMPI PUSH0 DUP1 REVERT JUMPDEST POP DUP2 CALLDATALOAD PUSH8 0xFFFFFFFFFFFFFFFF DUP2 GT ISZERO PUSH2 0x4249 JUMPI PUSH0 DUP1 REVERT JUMPDEST PUSH1 0x20 DUP4 ADD SWAP2 POP DUP4 PUSH1 0x20 DUP3 PUSH1 0x5 SHL DUP6 ADD ADD GT ISZERO PUSH2 0x4263 JUMPI PUSH0 DUP1 REVERT JUMPDEST SWAP3 POP SWAP3 SWAP1 POP JUMP JUMPDEST PUSH0 DUP1 DUP4 PUSH1 0x1F DUP5 ADD SLT PUSH2 0x427A JUMPI PUSH0 DUP1 REVERT JUMPDEST POP DUP2 CALLDATALOAD PUSH8 0xFFFFFFFFFFFFFFFF DUP2 GT ISZERO PUSH2 0x4291 JUMPI PUSH0 DUP1 REVERT JUMPDEST PUSH1 0x20 DUP4 ADD SWAP2 POP DUP4 PUSH1 0x20 DUP3 DUP6 ADD ADD GT ISZERO PUSH2 0x4263 JUMPI PUSH0 DUP1 REVERT JUMPDEST PUSH0 DUP1 PUSH0 DUP1 PUSH0 DUP1 PUSH0 DUP1 PUSH1 0xA0 DUP10 DUP12 SUB SLT ISZERO PUSH2 0x42BF JUMPI PUSH0 DUP1 REVERT JUMPDEST PUSH2 0x42C8 DUP10 PUSH2 0x4004 JUMP JUMPDEST SWAP8 POP PUSH2 0x42D6 PUSH1 0x20 DUP11 ADD PUSH2 0x4004 JUMP JUMPDEST SWAP7 POP PUSH1 0x40 DUP10 ADD CALLDATALOAD PUSH8 0xFFFFFFFFFFFFFFFF DUP1 DUP3 GT ISZERO PUSH2 0x42F2 JUMPI PUSH0 DUP1 REVERT JUMPDEST PUSH2 0x42FE DUP13 DUP4 DUP14 ADD PUSH2 0x4222 JUMP JUMPDEST SWAP1 SWAP9 POP SWAP7 POP PUSH1 0x60 DUP12 ADD CALLDATALOAD SWAP2 POP DUP1 DUP3 GT ISZERO PUSH2 0x4316 JUMPI PUSH0 DUP1 REVERT JUMPDEST PUSH2 0x4322 DUP13 DUP4 DUP14 ADD PUSH2 0x4222 JUMP JUMPDEST SWAP1 SWAP7 POP SWAP5 POP PUSH1 0x80 DUP12 ADD CALLDATALOAD SWAP2 POP DUP1 DUP3 GT ISZERO PUSH2 0x433A JUMPI PUSH0 DUP1 REVERT JUMPDEST POP PUSH2 0x4347 DUP12 DUP3 DUP13 ADD PUSH2 0x426A JUMP JUMPDEST SWAP10 SWAP13 SWAP9 SWAP12 POP SWAP7 SWAP10 POP SWAP5 SWAP8 SWAP4 SWAP7 SWAP3 SWAP6 SWAP5 POP POP POP JUMP JUMPDEST PUSH0 DUP1 PUSH0 DUP1 PUSH0 DUP1 PUSH1 0xA0 DUP8 DUP10 SUB SLT ISZERO PUSH2 0x4370 JUMPI PUSH0 DUP1 REVERT JUMPDEST PUSH2 0x4379 DUP8 PUSH2 0x4004 JUMP JUMPDEST SWAP6 POP PUSH2 0x4387 PUSH1 0x20 DUP9 ADD PUSH2 0x4004 JUMP JUMPDEST SWAP5 POP PUSH1 0x40 DUP8 ADD CALLDATALOAD SWAP4 POP PUSH1 0x60 DUP8 ADD CALLDATALOAD SWAP3 POP PUSH1 0x80 DUP8 ADD CALLDATALOAD PUSH8 0xFFFFFFFFFFFFFFFF DUP2 GT ISZERO PUSH2 0x43B0 JUMPI PUSH0 DUP1 REVERT JUMPDEST PUSH2 0x43BC DUP10 DUP3 DUP11 ADD PUSH2 0x426A JUMP JUMPDEST SWAP8 SWAP11 SWAP7 SWAP10 POP SWAP5 SWAP8 POP SWAP3 SWAP6 SWAP4 SWAP5 SWAP3 POP POP POP JUMP JUMPDEST PUSH0 PUSH1 0x20 DUP3 DUP5 SUB SLT ISZERO PUSH2 0x43DE JUMPI PUSH0 DUP1 REVERT JUMPDEST PUSH2 0x1315 DUP3 PUSH2 0x4004 JUMP JUMPDEST PUSH0 PUSH1 0x20 DUP3 DUP5 SUB SLT ISZERO PUSH2 0x43F7 JUMPI PUSH0 DUP1 REVERT JUMPDEST DUP2 MLOAD PUSH1 0xFF DUP2 AND DUP2 EQ PUSH2 0x1315 JUMPI PUSH0 DUP1 REVERT JUMPDEST PUSH4 0x4E487B71 PUSH1 0xE0 SHL PUSH0 MSTORE PUSH1 0x11 PUSH1 0x4 MSTORE PUSH1 0x24 PUSH0 REVERT JUMPDEST PUSH1 0x1 DUP2 DUP2 JUMPDEST DUP1 DUP6 GT ISZERO PUSH2 0x4455 JUMPI DUP2 PUSH0 NOT DIV DUP3 GT ISZERO PUSH2 0x443B JUMPI PUSH2 0x443B PUSH2 0x4407 JUMP JUMPDEST DUP1 DUP6 AND ISZERO PUSH2 0x4448 JUMPI SWAP2 DUP2 MUL SWAP2 JUMPDEST SWAP4 DUP5 SHR SWAP4 SWAP1 DUP1 MUL SWAP1 PUSH2 0x4420 JUMP JUMPDEST POP SWAP3 POP SWAP3 SWAP1 POP JUMP JUMPDEST PUSH0 DUP3 PUSH2 0x446B JUMPI POP PUSH1 0x1 PUSH2 0x610 JUMP JUMPDEST DUP2 PUSH2 0x4477 JUMPI POP PUSH0 PUSH2 0x610 JUMP JUMPDEST DUP2 PUSH1 0x1 DUP2 EQ PUSH2 0x448D JUMPI PUSH1 0x2 DUP2 EQ PUSH2 0x4497 JUMPI PUSH2 0x44B3 JUMP JUMPDEST PUSH1 0x1 SWAP2 POP POP PUSH2 0x610 JUMP JUMPDEST PUSH1 0xFF DUP5 GT ISZERO PUSH2 0x44A8 JUMPI PUSH2 0x44A8 PUSH2 0x4407 JUMP JUMPDEST POP POP PUSH1 0x1 DUP3 SHL PUSH2 0x610 JUMP JUMPDEST POP PUSH1 0x20 DUP4 LT PUSH2 0x133 DUP4 LT AND PUSH1 0x4E DUP5 LT PUSH1 0xB DUP5 LT AND OR ISZERO PUSH2 0x44D6 JUMPI POP DUP2 DUP2 EXP PUSH2 0x610 JUMP JUMPDEST PUSH2 0x44E0 DUP4 DUP4 PUSH2 0x441B JUMP JUMPDEST DUP1 PUSH0 NOT DIV DUP3 GT ISZERO PUSH2 0x44F3 JUMPI PUSH2 0x44F3 PUSH2 0x4407 JUMP JUMPDEST MUL SWAP4 SWAP3 POP POP POP JUMP JUMPDEST PUSH0 PUSH2 0x1315 DUP4 DUP4 PUSH2 0x445D JUMP JUMPDEST DUP1 DUP3 ADD DUP1 DUP3 GT ISZERO PUSH2 0x610 JUMPI PUSH2 0x610 PUSH2 0x4407 JUMP JUMPDEST PUSH4 0x4E487B71 PUSH1 0xE0 SHL PUSH0 MSTORE PUSH1 0x32 PUSH1 0x4 MSTORE PUSH1 0x24 PUSH0 REVERT JUMPDEST PUSH0 PUSH1 0x20 DUP3 DUP5 SUB SLT ISZERO PUSH2 0x453D JUMPI PUSH0 DUP1 REVERT JUMPDEST POP MLOAD SWAP2 SWAP1 POP JUMP JUMPDEST PUSH1 0x1 PUSH1 0x1 PUSH1 0xA0 SHL SUB DUP6 AND DUP2 MSTORE DUP4 PUSH1 0x20 DUP3 ADD MSTORE DUP3 PUSH1 0x40 DUP3 ADD MSTORE PUSH1 0x80 PUSH1 0x60 DUP3 ADD MSTORE PUSH0 PUSH2 0x156D PUSH1 0x80 DUP4 ADD DUP5 PUSH2 0x41D6 JUMP JUMPDEST DUP2 DUP2 SUB DUP2 DUP2 GT ISZERO PUSH2 0x610 JUMPI PUSH2 0x610 PUSH2 0x4407 JUMP JUMPDEST PUSH0 DUP2 MLOAD DUP1 PUSH1 0x20 DUP5 ADD DUP6 MCOPY PUSH0 SWAP4 ADD SWAP3 DUP4 MSTORE POP SWAP1 SWAP2 SWAP1 POP JUMP JUMPDEST PUSH0 PUSH2 0x1315 DUP3 DUP5 PUSH2 0x4584 JUMP JUMPDEST PUSH0 DUP2 PUSH1 0xF SIGNEXTEND PUSH1 0x1 PUSH1 0x1 PUSH1 0x7F SHL SUB NOT DUP2 SUB PUSH2 0x45C2 JUMPI PUSH2 0x45C2 PUSH2 0x4407 JUMP JUMPDEST PUSH0 SUB SWAP3 SWAP2 POP POP JUMP JUMPDEST PUSH1 0xF DUP3 DUP2 SIGNEXTEND SWAP1 DUP3 SWAP1 SIGNEXTEND SUB PUSH16 0x7FFFFFFFFFFFFFFFFFFFFFFFFFFFFFFF NOT DUP2 SLT PUSH1 0x1 PUSH1 0x1 PUSH1 0x7F SHL SUB DUP3 SGT OR ISZERO PUSH2 0x610 JUMPI PUSH2 0x610 PUSH2 0x4407 JUMP JUMPDEST PUSH0 PUSH1 0x1 DUP3 ADD PUSH2 0x4611 JUMPI PUSH2 0x4611 PUSH2 0x4407 JUMP JUMPDEST POP PUSH1 0x1 ADD SWAP1 JUMP JUMPDEST PUSH0 DUP2 MLOAD DUP1 DUP5 MSTORE DUP1 PUSH1 0x20 DUP5 ADD PUSH1 0x20 DUP7 ADD MCOPY PUSH0 PUSH1 0x20 DUP3 DUP7 ADD ADD MSTORE PUSH1 0x20 PUSH1 0x1F NOT PUSH1 0x1F DUP4 ADD AND DUP6 ADD ADD SWAP2 POP POP SWAP3 SWAP2 POP POP JUMP JUMPDEST PUSH1 0x20 DUP2 MSTORE PUSH0 PUSH2 0x1315 PUSH1 0x20 DUP4 ADD DUP5 PUSH2 0x4618 JUMP JUMPDEST PUSH0 PUSH1 0x3 RETURNDATASIZE GT ISZERO PUSH2 0x73D JUMPI PUSH1 0x4 PUSH0 DUP1 RETURNDATACOPY POP PUSH0 MLOAD PUSH1 0xE0 SHR SWAP1 JUMP JUMPDEST PUSH0 PUSH1 0x44 RETURNDATASIZE LT ISZERO PUSH2 0x467D JUMPI SWAP1 JUMP JUMPDEST PUSH1 0x40 MLOAD PUSH1 0x3 NOT RETURNDATASIZE DUP2 ADD PUSH1 0x4 DUP4 RETURNDATACOPY DUP2 MLOAD RETURNDATASIZE PUSH8 0xFFFFFFFFFFFFFFFF DUP2 PUSH1 0x24 DUP5 ADD GT DUP2 DUP5 GT OR ISZERO PUSH2 0x46AD JUMPI POP POP POP POP POP SWAP1 JUMP JUMPDEST DUP3 DUP6 ADD SWAP2 POP DUP2 MLOAD DUP2 DUP2 GT ISZERO PUSH2 0x46C5 JUMPI POP POP POP POP POP POP SWAP1 JUMP JUMPDEST DUP5 RETURNDATASIZE DUP8 ADD ADD PUSH1 0x20 DUP3 DUP6 ADD ADD GT ISZERO PUSH2 0x46DF JUMPI POP POP POP POP POP POP SWAP1 JUMP JUMPDEST PUSH2 0x1664 PUSH1 0x20 DUP3 DUP7 ADD ADD DUP8 PUSH2 0x40F5 JUMP JUMPDEST PUSH1 0x40 DUP2 MSTORE PUSH1 0x17 PUSH1 0x40 DUP3 ADD MSTORE PUSH32 0x736166655472616E7366657246726F6D206661696C6564000000000000000000 PUSH1 0x60 DUP3 ADD MSTORE PUSH1 0x80 PUSH1 0x20 DUP3 ADD MSTORE PUSH0 PUSH2 0x1315 PUSH1 0x80 DUP4 ADD DUP5 PUSH2 0x4618 JUMP JUMPDEST PUSH32 0x736166655472616E7366657246726F6D206661696C65643A2000000000000000 DUP2 MSTORE PUSH0 PUSH2 0x1315 PUSH1 0x19 DUP4 ADD DUP5 PUSH2 0x4584 JUMP JUMPDEST PUSH0 PUSH1 0x20 DUP3 DUP5 SUB SLT ISZERO PUSH2 0x4775 JUMPI PUSH0 DUP1 REVERT JUMPDEST DUP2 MLOAD DUP1 ISZERO ISZERO DUP2 EQ PUSH2 0x1315 JUMPI PUSH0 DUP1 REVERT JUMPDEST PUSH1 0x1 PUSH1 0x1 PUSH1 0xA0 SHL SUB DUP7 AND DUP2 MSTORE DUP5 PUSH1 0x20 DUP3 ADD MSTORE DUP4 PUSH1 0x40 DUP3 ADD MSTORE PUSH1 0xA0 PUSH1 0x60 DUP3 ADD MSTORE PUSH0 PUSH2 0x47B1 PUSH1 0xA0 DUP4 ADD DUP6 PUSH2 0x41D6 JUMP JUMPDEST SWAP1 POP DUP3 PUSH1 0x80 DUP4 ADD MSTORE SWAP7 SWAP6 POP POP POP POP POP POP JUMP JUMPDEST PUSH4 0x4E487B71 PUSH1 0xE0 SHL PUSH0 MSTORE PUSH1 0x12 PUSH1 0x4 MSTORE PUSH1 0x24 PUSH0 REVERT INVALID LOG2 PUSH5 0x6970667358 0x22 SLT KECCAK256 0xE1 0x4F PUSH2 0xC417 JUMPI 0x26 DUP7 0xF PUSH27 0xC776BD1EA0F4E5CC5FB0F37252DA12511891E3193F3564736F6C63 NUMBER STOP ADDMOD NOT STOP CALLER "
    },
    "gasEstimates": {
      "creation": {
        "codeDepositCost": "3689000",
        "executionCost": "infinite",
        "totalCost": "infinite"
      },
      "external": {
        "addLiquidity(uint256)": "infinite",
        "buy(uint256,int128)": "infinite",
        "condition()": "2405",
        "cost()": "infinite",
        "cost_after_buy(uint256,int128)": "infinite",
        "debugFees()": "infinite",
        "dummyVar()": "2362",
        "generateQuestionId(string)": "infinite",
        "getAccumulatedFees()": "infinite",
        "getLiquidityParameter()": "2424",
        "getMaxSellableAmount(uint256)": "infinite",
        "getOutcomeSharesPurchased(uint256)": "10781",
        "getPositionAndDustPositions(uint256)": "infinite",
        "getPositionInfo(uint256)": "infinite",
        "getTokenEth(address,uint256)": "infinite",
        "getTokenWei(address,int128)": "infinite",
        "getTokenWeiDown(address,int128)": "infinite",
        "getTokenWeiUp(address,int128)": "infinite",
        "initial_subsidy()": "2381",
        "numOutcomes()": "2340",
        "odds(uint256)": "infinite",
        "onERC1155BatchReceived(address,address,uint256[],uint256[],bytes)": "infinite",
        "onERC1155Received(address,address,uint256,uint256,bytes)": "infinite",
        "overround()": "2386",
        "owner()": "2386",
        "price(uint256,int128)": "infinite",
        "renounceOwnership()": "infinite",
        "sell(uint256,int128)": "infinite",
        "sellingPrice(uint256,int128)": "infinite",
        "setup(address,bytes32,uint256,uint256,uint256,uint256)": "infinite",
        "supportsInterface(bytes4)": "362",
        "token()": "2446",
        "transferOwnership(address)": "28380",
        "withdraw()": "infinite",
        "withdrawFees()": "infinite"
      },
      "internal": {
        "_calculateBuyPrice(int128[] memory,uint256,int128,int128,int128,uint256)": "infinite",
        "_calculateSellRefund(int128[] memory,uint256,int128,int128,int128,uint256)": "infinite",
        "_mintAndTransferOutcomeTokens(uint256,int128)": "infinite",
        "getOnes(uint256)": "infinite"
      }
    },
    "methodIdentifiers": {
      "addLiquidity(uint256)": "51c6590a",
      "buy(uint256,int128)": "f76da1d9",
      "condition()": "c5031331",
      "cost()": "13faede6",
      "cost_after_buy(uint256,int128)": "8062dd93",
      "debugFees()": "e1fc2305",
      "dummyVar()": "8ac40792",
      "generateQuestionId(string)": "4c395cc4",
      "getAccumulatedFees()": "5df45a37",
      "getLiquidityParameter()": "8364dfef",
      "getMaxSellableAmount(uint256)": "e1d19acb",
      "getOutcomeSharesPurchased(uint256)": "bb6f593e",
      "getPositionAndDustPositions(uint256)": "8d0a6cff",
      "getPositionInfo(uint256)": "519f5099",
      "getTokenEth(address,uint256)": "10f8625a",
      "getTokenWei(address,int128)": "40088ee1",
      "getTokenWeiDown(address,int128)": "8d36627b",
      "getTokenWeiUp(address,int128)": "05445405",
      "initial_subsidy()": "cd6bd6db",
      "numOutcomes()": "8767d64e",
      "odds(uint256)": "46156ea0",
      "onERC1155BatchReceived(address,address,uint256[],uint256[],bytes)": "bc197c81",
      "onERC1155Received(address,address,uint256,uint256,bytes)": "f23a6e61",
      "overround()": "d8fdb386",
      "owner()": "8da5cb5b",
      "price(uint256,int128)": "df7bd8fc",
      "renounceOwnership()": "715018a6",
      "sell(uint256,int128)": "ae92a93d",
      "sellingPrice(uint256,int128)": "52fdfecc",
      "setup(address,bytes32,uint256,uint256,uint256,uint256)": "4a4f72e1",
      "supportsInterface(bytes4)": "01ffc9a7",
      "token()": "fc0c546a",
      "transferOwnership(address)": "f2fde38b",
      "withdraw()": "3ccfd60b",
      "withdrawFees()": "476343ee"
    }
  },
  "storageLayout": {
    "storage": [
      {
        "astId": 11550,
        "contract": "NoBOverround.sol:LsLMSR",
        "label": "_owner",
        "offset": 0,
        "slot": "0",
        "type": "t_address"
      },
      {
        "astId": 7929,
        "contract": "NoBOverround.sol:LsLMSR",
        "label": "numOutcomes",
        "offset": 0,
        "slot": "1",
        "type": "t_uint256"
      },
      {
        "astId": 7932,
        "contract": "NoBOverround.sol:LsLMSR",
        "label": "q",
        "offset": 0,
        "slot": "2",
        "type": "t_array(t_int128)dyn_storage"
      },
      {
        "astId": 7934,
        "contract": "NoBOverround.sol:LsLMSR",
        "label": "b",
        "offset": 0,
        "slot": "3",
        "type": "t_int128"
      },
      {
        "astId": 7936,
        "contract": "NoBOverround.sol:LsLMSR",
        "label": "current_cost",
        "offset": 16,
        "slot": "3",
        "type": "t_int128"
      },
      {
        "astId": 7938,
        "contract": "NoBOverround.sol:LsLMSR",
        "label": "total_shares",
        "offset": 0,
        "slot": "4",
        "type": "t_int128"
      },
      {
        "astId": 7940,
        "contract": "NoBOverround.sol:LsLMSR",
        "label": "initial_subsidy",
        "offset": 16,
        "slot": "4",
        "type": "t_int128"
      },
      {
        "astId": 7942,
        "contract": "NoBOverround.sol:LsLMSR",
        "label": "overround",
        "offset": 0,
        "slot": "5",
        "type": "t_int128"
      },
      {
        "astId": 7944,
        "contract": "NoBOverround.sol:LsLMSR",
        "label": "condition",
        "offset": 0,
        "slot": "6",
        "type": "t_bytes32"
      },
      {
        "astId": 7947,
        "contract": "NoBOverround.sol:LsLMSR",
        "label": "CT",
        "offset": 0,
        "slot": "7",
        "type": "t_contract(ConditionalTokens)4132"
      },
      {
        "astId": 7949,
        "contract": "NoBOverround.sol:LsLMSR",
        "label": "token",
        "offset": 0,
        "slot": "8",
        "type": "t_address"
      },
      {
        "astId": 7951,
        "contract": "NoBOverround.sol:LsLMSR",
        "label": "init",
        "offset": 20,
        "slot": "8",
        "type": "t_bool"
      },
      {
        "astId": 7957,
        "contract": "NoBOverround.sol:LsLMSR",
        "label": "dummyVar",
        "offset": 0,
        "slot": "9",
        "type": "t_uint256"
      }
    ],
    "types": {
      "t_address": {
        "encoding": "inplace",
        "label": "address",
        "numberOfBytes": "20"
      },
      "t_array(t_int128)dyn_storage": {
        "base": "t_int128",
        "encoding": "dynamic_array",
        "label": "int128[]",
        "numberOfBytes": "32"
      },
      "t_bool": {
        "encoding": "inplace",
        "label": "bool",
        "numberOfBytes": "1"
      },
      "t_bytes32": {
        "encoding": "inplace",
        "label": "bytes32",
        "numberOfBytes": "32"
      },
      "t_contract(ConditionalTokens)4132": {
        "encoding": "inplace",
        "label": "contract ConditionalTokens",
        "numberOfBytes": "20"
      },
      "t_int128": {
        "encoding": "inplace",
        "label": "int128",
        "numberOfBytes": "16"
      },
      "t_uint256": {
        "encoding": "inplace",
        "label": "uint256",
        "numberOfBytes": "32"
      }
    }
  },
  "userdoc": {
    "kind": "user",
    "methods": {
      "constructor": {
        "notice": "Constructor function for the market maker"
      },
      "cost()": {
        "notice": "View function returning the cost function.  This function returns the cost for this inventory state. It will be able to tell you the total amount of collateral spent within the market maker. For example, if a pool was seeded with 100 DAI and then a further 20 DAI has been spent, this function will return 120 DAI."
      },
      "cost_after_buy(uint256,int128)": {
        "notice": "This function will tell you the cost (similar to above) after a proposed transaction."
      },
      "odds(uint256)": {
        "notice": "This function tells you how much it will cost to make a particular trade. It does this by calculating the difference between the current cost and the cost after the transaction."
      },
      "setup(address,bytes32,uint256,uint256,uint256,uint256)": {
        "notice": "Set up some of the variables for the market maker"
      }
    },
    "version": 1
  }
}