{
  "abi": [
    {
      "inputs": [
        {
          "internalType": "address",
          "name": "_ct",
          "type": "address"
        },
        {
          "internalType": "address",
          "name": "_token",
          "type": "address"
        },
        {
          "internalType": "address",
          "name": "initialOwner",
          "type": "address"
        }
      ],
      "stateMutability": "nonpayable",
      "type": "constructor"
    },
    {
      "inputs": [
        {
          "internalType": "address",
          "name": "owner",
          "type": "address"
        }
      ],
      "name": "OwnableInvalidOwner",
      "type": "error"
    },
    {
      "inputs": [
        {
          "internalType": "address",
          "name": "account",
          "type": "address"
        }
      ],
      "name": "OwnableUnauthorizedAccount",
      "type": "error"
    },
    {
      "inputs": [
        {
          "internalType": "address",
          "name": "token",
          "type": "address"
        }
      ],
      "name": "SafeERC20FailedOperation",
      "type": "error"
    },
    {
      "anonymous": false,
      "inputs": [
        {
          "indexed": false,
          "internalType": "uint256",
          "name": "tokenCost",
          "type": "uint256"
        },
        {
          "indexed": false,
          "internalType": "int128",
          "name": "price_",
          "type": "int128"
        }
      ],
      "name": "BuyTokenCost",
      "type": "event"
    },
    {
      "anonymous": false,
      "inputs": [
        {
          "indexed": false,
          "internalType": "uint256",
          "name": "balance",
          "type": "uint256"
        }
      ],
      "name": "DebugBalanceAfter",
      "type": "event"
    },
    {
      "anonymous": false,
      "inputs": [
        {
          "indexed": false,
          "internalType": "uint256",
          "name": "balance",
          "type": "uint256"
        }
      ],
      "name": "DebugBalanceBefore",
      "type": "event"
    },
    {
      "anonymous": false,
      "inputs": [
        {
          "indexed": false,
          "internalType": "uint256",
          "name": "userPayment",
          "type": "uint256"
        },
        {
          "indexed": false,
          "internalType": "uint256",
          "name": "outcomeTokens",
          "type": "uint256"
        },
        {
          "indexed": false,
          "internalType": "uint256",
          "name": "contractBalance",
          "type": "uint256"
        },
        {
          "indexed": false,
          "internalType": "uint256",
          "name": "requiredCollateral",
          "type": "uint256"
        }
      ],
      "name": "DebugCollateralization",
      "type": "event"
    },
    {
      "anonymous": false,
      "inputs": [
        {
          "indexed": false,
          "internalType": "uint256",
          "name": "outcomeTokens",
          "type": "uint256"
        },
        {
          "indexed": false,
          "internalType": "uint256",
          "name": "balanceBefore",
          "type": "uint256"
        },
        {
          "indexed": false,
          "internalType": "uint256",
          "name": "balanceAfter",
          "type": "uint256"
        },
        {
          "indexed": false,
          "internalType": "int128",
          "name": "refund",
          "type": "int128"
        }
      ],
      "name": "DebugMergePositions",
      "type": "event"
    },
    {
      "anonymous": false,
      "inputs": [
        {
          "indexed": false,
          "internalType": "uint256",
          "name": "outcome",
          "type": "uint256"
        },
        {
          "indexed": false,
          "internalType": "uint256",
          "name": "contractBalance",
          "type": "uint256"
        },
        {
          "indexed": false,
          "internalType": "uint256",
          "name": "neededTokens",
          "type": "uint256"
        },
        {
          "indexed": false,
          "internalType": "bool",
          "name": "willMint",
          "type": "bool"
        }
      ],
      "name": "DebugMinting",
      "type": "event"
    },
    {
      "anonymous": false,
      "inputs": [
        {
          "indexed": false,
          "internalType": "uint256",
          "name": "userBalance",
          "type": "uint256"
        },
        {
          "indexed": false,
          "internalType": "uint256",
          "name": "requestedAmount",
          "type": "uint256"
        },
        {
          "indexed": false,
          "internalType": "uint256",
          "name": "outcomeTokens",
          "type": "uint256"
        },
        {
          "indexed": false,
          "internalType": "int128",
          "name": "refund",
          "type": "int128"
        }
      ],
      "name": "DebugSellAttempt",
      "type": "event"
    },
    {
      "anonymous": false,
      "inputs": [
        {
          "indexed": true,
          "internalType": "address",
          "name": "to",
          "type": "address"
        },
        {
          "indexed": false,
          "internalType": "uint256",
          "name": "amount",
          "type": "uint256"
        }
      ],
      "name": "FeesWithdrawn",
      "type": "event"
    },
    {
      "anonymous": false,
      "inputs": [
        {
          "indexed": true,
          "internalType": "address",
          "name": "user",
          "type": "address"
        },
        {
          "indexed": false,
          "internalType": "uint256",
          "name": "amount",
          "type": "uint256"
        }
      ],
      "name": "LiquidityAdded",
      "type": "event"
    },
    {
      "anonymous": false,
      "inputs": [
        {
          "indexed": true,
          "internalType": "address",
          "name": "previousOwner",
          "type": "address"
        },
        {
          "indexed": true,
          "internalType": "address",
          "name": "newOwner",
          "type": "address"
        }
      ],
      "name": "OwnershipTransferred",
      "type": "event"
    },
    {
      "anonymous": false,
      "inputs": [
        {
          "indexed": false,
          "internalType": "string",
          "name": "context",
          "type": "string"
        },
        {
          "indexed": false,
          "internalType": "string",
          "name": "reason",
          "type": "string"
        }
      ],
      "name": "SplitPositionError",
      "type": "event"
    },
    {
      "inputs": [
        {
          "internalType": "uint256",
          "name": "_amount",
          "type": "uint256"
        }
      ],
      "name": "addLiquidity",
      "outputs": [],
      "stateMutability": "nonpayable",
      "type": "function"
    },
    {
      "inputs": [
        {
          "internalType": "uint256",
          "name": "_outcome",
          "type": "uint256"
        },
        {
          "internalType": "int128",
          "name": "_amount",
          "type": "int128"
        }
      ],
      "name": "buy",
      "outputs": [
        {
          "internalType": "int128",
          "name": "_price",
          "type": "int128"
        }
      ],
      "stateMutability": "nonpayable",
      "type": "function"
    },
    {
      "inputs": [],
      "name": "condition",
      "outputs": [
        {
          "internalType": "bytes32",
          "name": "",
          "type": "bytes32"
        }
      ],
      "stateMutability": "view",
      "type": "function"
    },
    {
      "inputs": [],
      "name": "cost",
      "outputs": [
        {
          "internalType": "int128",
          "name": "",
          "type": "int128"
        }
      ],
      "stateMutability": "view",
      "type": "function"
    },
    {
      "inputs": [
        {
          "internalType": "uint256",
          "name": "_outcome",
          "type": "uint256"
        },
        {
          "internalType": "int128",
          "name": "_amount",
          "type": "int128"
        }
      ],
      "name": "cost_after_buy",
      "outputs": [
        {
          "internalType": "int128",
          "name": "",
          "type": "int128"
        }
      ],
      "stateMutability": "view",
      "type": "function"
    },
    {
      "inputs": [],
      "name": "debugFees",
      "outputs": [
        {
          "internalType": "uint256",
          "name": "contractBalance",
          "type": "uint256"
        },
        {
          "internalType": "uint256",
          "name": "theoreticalCost",
          "type": "uint256"
        }
      ],
      "stateMutability": "view",
      "type": "function"
    },
    {
      "inputs": [],
      "name": "dummyVar",
      "outputs": [
        {
          "internalType": "uint256",
          "name": "",
          "type": "uint256"
        }
      ],
      "stateMutability": "view",
      "type": "function"
    },
    {
      "inputs": [
        {
          "internalType": "string",
          "name": "uniqueString",
          "type": "string"
        }
      ],
      "name": "generateQuestionId",
      "outputs": [
        {
          "internalType": "bytes32",
          "name": "",
          "type": "bytes32"
        }
      ],
      "stateMutability": "pure",
      "type": "function"
    },
    {
      "inputs": [],
      "name": "getAccumulatedFees",
      "outputs": [
        {
          "internalType": "uint256",
          "name": "",
          "type": "uint256"
        }
      ],
      "stateMutability": "view",
      "type": "function"
    },
    {
      "inputs": [],
      "name": "getLiquidityParameter",
      "outputs": [
        {
          "internalType": "int128",
          "name": "",
          "type": "int128"
        }
      ],
      "stateMutability": "view",
      "type": "function"
    },
    {
      "inputs": [
        {
          "internalType": "uint256",
          "name": "_outcome",
          "type": "uint256"
        }
      ],
      "name": "getOutcomeSharesPurchased",
      "outputs": [
        {
          "internalType": "int128",
          "name": "",
          "type": "int128"
        }
      ],
      "stateMutability": "view",
      "type": "function"
    },
    {
      "inputs": [
        {
          "internalType": "uint256",
          "name": "_outcome",
          "type": "uint256"
        }
      ],
      "name": "getPositionAndDustPositions",
      "outputs": [
        {
          "internalType": "uint256[]",
          "name": "",
          "type": "uint256[]"
        }
      ],
      "stateMutability": "view",
      "type": "function"
    },
    {
      "inputs": [
        {
          "internalType": "uint256",
          "name": "_outcome",
          "type": "uint256"
        }
      ],
      "name": "getPositionInfo",
      "outputs": [
        {
          "internalType": "uint256",
          "name": "positionId",
          "type": "uint256"
        },
        {
          "internalType": "uint256",
          "name": "balance",
          "type": "uint256"
        }
      ],
      "stateMutability": "view",
      "type": "function"
    },
    {
      "inputs": [
        {
          "internalType": "address",
          "name": "_token",
          "type": "address"
        },
        {
          "internalType": "uint256",
          "name": "_amount",
          "type": "uint256"
        }
      ],
      "name": "getTokenEth",
      "outputs": [
        {
          "internalType": "int128",
          "name": "",
          "type": "int128"
        }
      ],
      "stateMutability": "view",
      "type": "function"
    },
    {
      "inputs": [
        {
          "internalType": "address",
          "name": "_token",
          "type": "address"
        },
        {
          "internalType": "int128",
          "name": "_amount",
          "type": "int128"
        }
      ],
      "name": "getTokenWei",
      "outputs": [
        {
          "internalType": "uint256",
          "name": "",
          "type": "uint256"
        }
      ],
      "stateMutability": "view",
      "type": "function"
    },
    {
      "inputs": [
        {
          "internalType": "address",
          "name": "_token",
          "type": "address"
        },
        {
          "internalType": "int128",
          "name": "_amount",
          "type": "int128"
        }
      ],
      "name": "getTokenWeiDown",
      "outputs": [
        {
          "internalType": "uint256",
          "name": "",
          "type": "uint256"
        }
      ],
      "stateMutability": "view",
      "type": "function"
    },
    {
      "inputs": [
        {
          "internalType": "address",
          "name": "_token",
          "type": "address"
        },
        {
          "internalType": "int128",
          "name": "_amount",
          "type": "int128"
        }
      ],
      "name": "getTokenWeiUp",
      "outputs": [
        {
          "internalType": "uint256",
          "name": "",
          "type": "uint256"
        }
      ],
      "stateMutability": "view",
      "type": "function"
    },
    {
      "inputs": [],
      "name": "initial_subsidy",
      "outputs": [
        {
          "internalType": "int128",
          "name": "",
          "type": "int128"
        }
      ],
      "stateMutability": "view",
      "type": "function"
    },
    {
      "inputs": [],
      "name": "numOutcomes",
      "outputs": [
        {
          "internalType": "uint256",
          "name": "",
          "type": "uint256"
        }
      ],
      "stateMutability": "view",
      "type": "function"
    },
    {
      "inputs": [
        {
          "internalType": "uint256",
          "name": "_outcome",
          "type": "uint256"
        }
      ],
      "name": "odds",
      "outputs": [
        {
          "internalType": "int128",
          "name": "",
          "type": "int128"
        }
      ],
      "stateMutability": "view",
      "type": "function"
    },
    {
      "inputs": [
        {
          "internalType": "address",
          "name": "",
          "type": "address"
        },
        {
          "internalType": "address",
          "name": "",
          "type": "address"
        },
        {
          "internalType": "uint256[]",
          "name": "",
          "type": "uint256[]"
        },
        {
          "internalType": "uint256[]",
          "name": "",
          "type": "uint256[]"
        },
        {
          "internalType": "bytes",
          "name": "",
          "type": "bytes"
        }
      ],
      "name": "onERC1155BatchReceived",
      "outputs": [
        {
          "internalType": "bytes4",
          "name": "",
          "type": "bytes4"
        }
      ],
      "stateMutability": "pure",
      "type": "function"
    },
    {
      "inputs": [
        {
          "internalType": "address",
          "name": "",
          "type": "address"
        },
        {
          "internalType": "address",
          "name": "",
          "type": "address"
        },
        {
          "internalType": "uint256",
          "name": "",
          "type": "uint256"
        },
        {
          "internalType": "uint256",
          "name": "",
          "type": "uint256"
        },
        {
          "internalType": "bytes",
          "name": "",
          "type": "bytes"
        }
      ],
      "name": "onERC1155Received",
      "outputs": [
        {
          "internalType": "bytes4",
          "name": "",
          "type": "bytes4"
        }
      ],
      "stateMutability": "pure",
      "type": "function"
    },
    {
      "inputs": [],
      "name": "overround",
      "outputs": [
        {
          "internalType": "int128",
          "name": "",
          "type": "int128"
        }
      ],
      "stateMutability": "view",
      "type": "function"
    },
    {
      "inputs": [],
      "name": "owner",
      "outputs": [
        {
          "internalType": "address",
          "name": "",
          "type": "address"
        }
      ],
      "stateMutability": "view",
      "type": "function"
    },
    {
      "inputs": [
        {
          "internalType": "uint256",
          "name": "_outcome",
          "type": "uint256"
        },
        {
          "internalType": "int128",
          "name": "_amount",
          "type": "int128"
        }
      ],
      "name": "price",
      "outputs": [
        {
          "internalType": "int128",
          "name": "",
          "type": "int128"
        }
      ],
      "stateMutability": "view",
      "type": "function"
    },
    {
      "inputs": [],
      "name": "renounceOwnership",
      "outputs": [],
      "stateMutability": "nonpayable",
      "type": "function"
    },
    {
      "inputs": [
        {
          "internalType": "uint256",
          "name": "_outcome",
          "type": "uint256"
        },
        {
          "internalType": "int128",
          "name": "_amount",
          "type": "int128"
        }
      ],
      "name": "sell",
      "outputs": [
        {
          "internalType": "int128",
          "name": "refund",
          "type": "int128"
        }
      ],
      "stateMutability": "nonpayable",
      "type": "function"
    },
    {
      "inputs": [
        {
          "internalType": "uint256",
          "name": "_outcome",
          "type": "uint256"
        },
        {
          "internalType": "int128",
          "name": "_amount",
          "type": "int128"
        }
      ],
      "name": "sellingPrice",
      "outputs": [
        {
          "internalType": "int128",
          "name": "",
          "type": "int128"
        }
      ],
      "stateMutability": "view",
      "type": "function"
    },
    {
      "inputs": [
        {
          "internalType": "address",
          "name": "_oracle",
          "type": "address"
        },
        {
          "internalType": "bytes32",
          "name": "_questionId",
          "type": "bytes32"
        },
        {
          "internalType": "uint256",
          "name": "_numOutcomes",
          "type": "uint256"
        },
        {
          "internalType": "uint256",
          "name": "bInput",
          "type": "uint256"
        },
        {
          "internalType": "uint256",
          "name": "_initialSubsidy",
          "type": "uint256"
        },
        {
          "internalType": "uint256",
          "name": "_overround",
          "type": "uint256"
        }
      ],
      "name": "setup",
      "outputs": [],
      "stateMutability": "nonpayable",
      "type": "function"
    },
    {
      "inputs": [
        {
          "internalType": "bytes4",
          "name": "interfaceId",
          "type": "bytes4"
        }
      ],
      "name": "supportsInterface",
      "outputs": [
        {
          "internalType": "bool",
          "name": "",
          "type": "bool"
        }
      ],
      "stateMutability": "view",
      "type": "function"
    },
    {
      "inputs": [],
      "name": "token",
      "outputs": [
        {
          "internalType": "address",
          "name": "",
          "type": "address"
        }
      ],
      "stateMutability": "view",
      "type": "function"
    },
    {
      "inputs": [
        {
          "internalType": "address",
          "name": "newOwner",
          "type": "address"
        }
      ],
      "name": "transferOwnership",
      "outputs": [],
      "stateMutability": "nonpayable",
      "type": "function"
    },
    {
      "inputs": [],
      "name": "withdraw",
      "outputs": [],
      "stateMutability": "nonpayable",
      "type": "function"
    },
    {
      "inputs": [],
      "name": "withdrawFees",
      "outputs": [],
      "stateMutability": "nonpayable",
      "type": "function"
    }
  ],
  "devdoc": {
    "errors": {
      "OwnableInvalidOwner(address)": [
        {
          "details": "The owner is not a valid owner account. (eg. `address(0)`)"
        }
      ],
      "OwnableUnauthorizedAccount(address)": [
        {
          "details": "The caller account is not authorized to perform an operation."
        }
      ],
      "SafeERC20FailedOperation(address)": [
        {
          "details": "An operation with an ERC-20 token failed."
        }
      ]
    },
    "kind": "dev",
    "methods": {
      "constructor": {
        "params": {
          "_ct": "The address for the deployed conditional tokens contract",
          "_token": "Which ERC-20 token will be used to purchase and redeem outcome tokens for this condition"
        }
      },
      "owner()": {
        "details": "Returns the address of the current owner."
      },
      "renounceOwnership()": {
        "details": "Leaves the contract without owner. It will not be possible to call `onlyOwner` functions. Can only be called by the current owner. NOTE: Renouncing ownership will leave the contract without an owner, thereby disabling any functionality that is only available to the owner."
      },
      "setup(address,bytes32,uint256,uint256,uint256,uint256)": {
        "params": {
          "_initialSubsidy": "The initial DAI subsidy to deposit in the contract",
          "_numOutcomes": "The number of different outcomes available",
          "_oracle": "The address for the EOA/contract which will act as the oracle for this condition",
          "_overround": "How much 'profit' does the AMM claim? Note that this is represented in bips. Therefore inputting 300 represents 0.30%",
          "_questionId": "The question ID (needs to be unique)",
          "bInput": "The liquidity parameter b for the LMSR market maker"
        }
      },
      "supportsInterface(bytes4)": {
        "details": "Returns true if this contract implements the interface defined by `interfaceId`. See the corresponding https://eips.ethereum.org/EIPS/eip-165#how-interfaces-are-identified[ERC section] to learn more about how these ids are created. This function call must use less than 30 000 gas."
      },
      "transferOwnership(address)": {
        "details": "Transfers ownership of the contract to a new account (`newOwner`). Can only be called by the current owner."
      }
    },
    "version": 1
  },
  "evm": {
    "assembly": "    /* \"NoBOverround.sol\":615:19280  contract LsLMSR is IERC1155Receiver, Ownable{... */\n  mstore(0x40, 0x80)\n    /* \"NoBOverround.sol\":1490:1492  42 */\n  0x2a\n    /* \"NoBOverround.sol\":1464:1492  uint256 public dummyVar = 42 */\n  0x09\n  sstore\n    /* \"NoBOverround.sol\":2408:2567  constructor(... */\n  callvalue\n  dup1\n  iszero\n  tag_1\n  jumpi\n  0x00\n  dup1\n  revert\ntag_1:\n  pop\n  mload(0x40)\n  sub(codesize, bytecodeSize)\n  dup1\n  bytecodeSize\n  dup4\n  codecopy\n  dup2\n  add\n  0x40\n  dup2\n  swap1\n  mstore\n  tag_2\n  swap2\n  tag_3\n  jump\t// in\ntag_2:\n    /* \"NoBOverround.sol\":2495:2507  initialOwner */\n  dup1\n  sub(shl(0xa0, 0x01), 0x01)\n    /* \"@openzeppelin/contracts/access/Ownable.sol\":1273:1299   */\n  dup2\n  and\n    /* \"@openzeppelin/contracts/access/Ownable.sol\":1269:1364   */\n  tag_7\n  jumpi\n    /* \"@openzeppelin/contracts/access/Ownable.sol\":1322:1353   */\n  mload(0x40)\n  shl(0xe0, 0x1e4fbdf7)\n  dup2\n  mstore\n    /* \"@openzeppelin/contracts/access/Ownable.sol\":1350:1351   */\n  0x00\n    /* \"@openzeppelin/contracts/access/Ownable.sol\":1322:1353   */\n  0x04\n  dup3\n  add\n    /* \"#utility.yul\":725:776   */\n  mstore\n    /* \"#utility.yul\":698:716   */\n  0x24\n  add\n    /* \"@openzeppelin/contracts/access/Ownable.sol\":1322:1353   */\n  mload(0x40)\n  dup1\n  swap2\n  sub\n  swap1\n  revert\n    /* \"@openzeppelin/contracts/access/Ownable.sol\":1269:1364   */\ntag_7:\n    /* \"@openzeppelin/contracts/access/Ownable.sol\":1373:1405   */\n  tag_10\n    /* \"@openzeppelin/contracts/access/Ownable.sol\":1392:1404   */\n  dup2\n    /* \"@openzeppelin/contracts/access/Ownable.sol\":1373:1391   */\n  tag_11\n    /* \"@openzeppelin/contracts/access/Ownable.sol\":1373:1405   */\n  jump\t// in\ntag_10:\n  pop\n  pop\n    /* \"NoBOverround.sol\":2515:2517  CT */\n  0x07\n    /* \"NoBOverround.sol\":2515:2542  CT = ConditionalTokens(_ct) */\n  dup1\n  sload\n  sub(shl(0xa0, 0x01), 0x01)\n  swap4\n  dup5\n  and\n  not(sub(shl(0xa0, 0x01), 0x01))\n  swap2\n  dup3\n  and\n  or\n  swap1\n  swap2\n  sstore\n    /* \"NoBOverround.sol\":2548:2553  token */\n  0x08\n    /* \"NoBOverround.sol\":2548:2562  token = _token */\n  dup1\n  sload\n  swap3\n  swap1\n  swap4\n  and\n  swap2\n  and\n  or\n  swap1\n  sstore\n    /* \"NoBOverround.sol\":615:19280  contract LsLMSR is IERC1155Receiver, Ownable{... */\n  jump(tag_16)\n    /* \"@openzeppelin/contracts/access/Ownable.sol\":2912:3099   */\ntag_11:\n    /* \"@openzeppelin/contracts/access/Ownable.sol\":2985:3001   */\n  0x00\n    /* \"@openzeppelin/contracts/access/Ownable.sol\":3004:3010   */\n  dup1\n  sload\n  sub(shl(0xa0, 0x01), 0x01)\n    /* \"@openzeppelin/contracts/access/Ownable.sol\":3020:3037   */\n  dup4\n  dup2\n  and\n  not(sub(shl(0xa0, 0x01), 0x01))\n  dup4\n  and\n  dup2\n  or\n  dup5\n  sstore\n    /* \"@openzeppelin/contracts/access/Ownable.sol\":3052:3092   */\n  mload(0x40)\n    /* \"@openzeppelin/contracts/access/Ownable.sol\":3004:3010   */\n  swap2\n  swap1\n  swap3\n  and\n  swap3\n  dup4\n  swap2\n    /* \"@openzeppelin/contracts/access/Ownable.sol\":3052:3092   */\n  0x8be0079c531659141344cd1fd0a4f28419497f9722a3daafe3b4186f6b6457e0\n  swap2\n    /* \"@openzeppelin/contracts/access/Ownable.sol\":2985:3001   */\n  swap1\n    /* \"@openzeppelin/contracts/access/Ownable.sol\":3052:3092   */\n  log3\n    /* \"@openzeppelin/contracts/access/Ownable.sol\":2975:3099   */\n  pop\n    /* \"@openzeppelin/contracts/access/Ownable.sol\":2912:3099   */\n  pop\n  jump\t// out\n    /* \"#utility.yul\":14:191   */\ntag_15:\n    /* \"#utility.yul\":93:106   */\n  dup1\n  mload\n  sub(shl(0xa0, 0x01), 0x01)\n    /* \"#utility.yul\":135:166   */\n  dup2\n  and\n    /* \"#utility.yul\":125:167   */\n  dup2\n  eq\n    /* \"#utility.yul\":115:185   */\n  tag_18\n  jumpi\n    /* \"#utility.yul\":181:182   */\n  0x00\n    /* \"#utility.yul\":178:179   */\n  dup1\n    /* \"#utility.yul\":171:183   */\n  revert\n    /* \"#utility.yul\":115:185   */\ntag_18:\n    /* \"#utility.yul\":14:191   */\n  swap2\n  swap1\n  pop\n  jump\t// out\n    /* \"#utility.yul\":196:574   */\ntag_3:\n    /* \"#utility.yul\":284:290   */\n  0x00\n    /* \"#utility.yul\":292:298   */\n  dup1\n    /* \"#utility.yul\":300:306   */\n  0x00\n    /* \"#utility.yul\":353:355   */\n  0x60\n    /* \"#utility.yul\":341:350   */\n  dup5\n    /* \"#utility.yul\":332:339   */\n  dup7\n    /* \"#utility.yul\":328:351   */\n  sub\n    /* \"#utility.yul\":324:356   */\n  slt\n    /* \"#utility.yul\":321:373   */\n  iszero\n  tag_20\n  jumpi\n    /* \"#utility.yul\":369:370   */\n  0x00\n    /* \"#utility.yul\":366:367   */\n  dup1\n    /* \"#utility.yul\":359:371   */\n  revert\n    /* \"#utility.yul\":321:373   */\ntag_20:\n    /* \"#utility.yul\":392:432   */\n  tag_21\n    /* \"#utility.yul\":422:431   */\n  dup5\n    /* \"#utility.yul\":392:432   */\n  tag_15\n  jump\t// in\ntag_21:\n    /* \"#utility.yul\":382:432   */\n  swap3\n  pop\n    /* \"#utility.yul\":451:500   */\n  tag_22\n    /* \"#utility.yul\":496:498   */\n  0x20\n    /* \"#utility.yul\":485:494   */\n  dup6\n    /* \"#utility.yul\":481:499   */\n  add\n    /* \"#utility.yul\":451:500   */\n  tag_15\n  jump\t// in\ntag_22:\n    /* \"#utility.yul\":441:500   */\n  swap2\n  pop\n    /* \"#utility.yul\":519:568   */\n  tag_23\n    /* \"#utility.yul\":564:566   */\n  0x40\n    /* \"#utility.yul\":553:562   */\n  dup6\n    /* \"#utility.yul\":549:567   */\n  add\n    /* \"#utility.yul\":519:568   */\n  tag_15\n  jump\t// in\ntag_23:\n    /* \"#utility.yul\":509:568   */\n  swap1\n  pop\n    /* \"#utility.yul\":196:574   */\n  swap3\n  pop\n  swap3\n  pop\n  swap3\n  jump\t// out\n    /* \"#utility.yul\":579:782   */\ntag_16:\n    /* \"NoBOverround.sol\":615:19280  contract LsLMSR is IERC1155Receiver, Ownable{... */\n  dataSize(sub_0)\n  dup1\n  dataOffset(sub_0)\n  0x00\n  codecopy\n  0x00\n  return\nstop\n\nsub_0: assembly {\n        /* \"NoBOverround.sol\":615:19280  contract LsLMSR is IERC1155Receiver, Ownable{... */\n      mstore(0x40, 0x80)\n      callvalue\n      dup1\n      iszero\n      tag_1\n      jumpi\n      0x00\n      dup1\n      revert\n    tag_1:\n      pop\n      jumpi(tag_2, lt(calldatasize, 0x04))\n      shr(0xe0, calldataload(0x00))\n      dup1\n      0x8767d64e\n      gt\n      tag_37\n      jumpi\n      dup1\n      0xc5031331\n      gt\n      tag_38\n      jumpi\n      dup1\n      0xe1fc2305\n      gt\n      tag_39\n      jumpi\n      dup1\n      0xf2fde38b\n      gt\n      tag_40\n      jumpi\n      dup1\n      0xf2fde38b\n      eq\n      tag_34\n      jumpi\n      dup1\n      0xf76da1d9\n      eq\n      tag_35\n      jumpi\n      dup1\n      0xfc0c546a\n      eq\n      tag_36\n      jumpi\n      0x00\n      dup1\n      revert\n    tag_40:\n      dup1\n      0xe1fc2305\n      eq\n      tag_32\n      jumpi\n      dup1\n      0xf23a6e61\n      eq\n      tag_33\n      jumpi\n      0x00\n      dup1\n      revert\n    tag_39:\n      dup1\n      0xc5031331\n      eq\n      tag_28\n      jumpi\n      dup1\n      0xcd6bd6db\n      eq\n      tag_29\n      jumpi\n      dup1\n      0xd8fdb386\n      eq\n      tag_30\n      jumpi\n      dup1\n      0xdf7bd8fc\n      eq\n      tag_31\n      jumpi\n      0x00\n      dup1\n      revert\n    tag_38:\n      dup1\n      0x8da5cb5b\n      gt\n      tag_41\n      jumpi\n      dup1\n      0x8da5cb5b\n      eq\n      tag_24\n      jumpi\n      dup1\n      0xae92a93d\n      eq\n      tag_25\n      jumpi\n      dup1\n      0xbb6f593e\n      eq\n      tag_26\n      jumpi\n      dup1\n      0xbc197c81\n      eq\n      tag_27\n      jumpi\n      0x00\n      dup1\n      revert\n    tag_41:\n      dup1\n      0x8767d64e\n      eq\n      tag_20\n      jumpi\n      dup1\n      0x8ac40792\n      eq\n      tag_21\n      jumpi\n      dup1\n      0x8d0a6cff\n      eq\n      tag_22\n      jumpi\n      dup1\n      0x8d36627b\n      eq\n      tag_23\n      jumpi\n      0x00\n      dup1\n      revert\n    tag_37:\n      dup1\n      0x4a4f72e1\n      gt\n      tag_42\n      jumpi\n      dup1\n      0x52fdfecc\n      gt\n      tag_43\n      jumpi\n      dup1\n      0x715018a6\n      gt\n      tag_44\n      jumpi\n      dup1\n      0x715018a6\n      eq\n      tag_17\n      jumpi\n      dup1\n      0x8062dd93\n      eq\n      tag_18\n      jumpi\n      dup1\n      0x8364dfef\n      eq\n      tag_19\n      jumpi\n      0x00\n      dup1\n      revert\n    tag_44:\n      dup1\n      0x52fdfecc\n      eq\n      tag_15\n      jumpi\n      dup1\n      0x5df45a37\n      eq\n      tag_16\n      jumpi\n      0x00\n      dup1\n      revert\n    tag_43:\n      dup1\n      0x4a4f72e1\n      eq\n      tag_11\n      jumpi\n      dup1\n      0x4c395cc4\n      eq\n      tag_12\n      jumpi\n      dup1\n      0x519f5099\n      eq\n      tag_13\n      jumpi\n      dup1\n      0x51c6590a\n      eq\n      tag_14\n      jumpi\n      0x00\n      dup1\n      revert\n    tag_42:\n      dup1\n      0x3ccfd60b\n      gt\n      tag_45\n      jumpi\n      dup1\n      0x3ccfd60b\n      eq\n      tag_7\n      jumpi\n      dup1\n      0x40088ee1\n      eq\n      tag_8\n      jumpi\n      dup1\n      0x46156ea0\n      eq\n      tag_9\n      jumpi\n      dup1\n      0x476343ee\n      eq\n      tag_10\n      jumpi\n      0x00\n      dup1\n      revert\n    tag_45:\n      dup1\n      0x01ffc9a7\n      eq\n      tag_3\n      jumpi\n      dup1\n      0x05445405\n      eq\n      tag_4\n      jumpi\n      dup1\n      0x10f8625a\n      eq\n      tag_5\n      jumpi\n      dup1\n      0x13faede6\n      eq\n      tag_6\n      jumpi\n    tag_2:\n      0x00\n      dup1\n      revert\n        /* \"NoBOverround.sol\":12568:12664  function supportsInterface(... */\n    tag_3:\n      tag_46\n      tag_47\n      calldatasize\n      0x04\n      tag_48\n      jump\t// in\n    tag_47:\n      pop\n        /* \"NoBOverround.sol\":12656:12660  bool */\n      0x00\n      swap1\n        /* \"NoBOverround.sol\":12568:12664  function supportsInterface(... */\n      jump\n    tag_46:\n      mload(0x40)\n        /* \"#utility.yul\":470:484   */\n      swap1\n      iszero\n        /* \"#utility.yul\":463:485   */\n      iszero\n        /* \"#utility.yul\":445:486   */\n      dup2\n      mstore\n        /* \"#utility.yul\":433:435   */\n      0x20\n        /* \"#utility.yul\":418:436   */\n      add\n        /* \"NoBOverround.sol\":12568:12664  function supportsInterface(... */\n    tag_50:\n      mload(0x40)\n      dup1\n      swap2\n      sub\n      swap1\n      return\n        /* \"NoBOverround.sol\":10924:11548  function getTokenWeiUp(address _token, int128 _amount) public view returns (uint) {... */\n    tag_4:\n      tag_52\n      tag_53\n      calldatasize\n      0x04\n      tag_54\n      jump\t// in\n    tag_53:\n      tag_55\n      jump\t// in\n    tag_52:\n      mload(0x40)\n        /* \"#utility.yul\":1274:1299   */\n      swap1\n      dup2\n      mstore\n        /* \"#utility.yul\":1262:1264   */\n      0x20\n        /* \"#utility.yul\":1247:1265   */\n      add\n        /* \"NoBOverround.sol\":10924:11548  function getTokenWeiUp(address _token, int128 _amount) public view returns (uint) {... */\n      tag_50\n        /* \"#utility.yul\":1128:1305   */\n      jump\n        /* \"NoBOverround.sol\":11843:12023  function getTokenEth(... */\n    tag_5:\n      tag_58\n      tag_59\n      calldatasize\n      0x04\n      tag_60\n      jump\t// in\n    tag_59:\n      tag_61\n      jump\t// in\n    tag_58:\n      mload(0x40)\n        /* \"#utility.yul\":1742:1744   */\n      0x0f\n        /* \"#utility.yul\":1731:1753   */\n      swap2\n      swap1\n      swap2\n      signextend\n        /* \"#utility.yul\":1713:1754   */\n      dup2\n      mstore\n        /* \"#utility.yul\":1701:1703   */\n      0x20\n        /* \"#utility.yul\":1686:1704   */\n      add\n        /* \"NoBOverround.sol\":11843:12023  function getTokenEth(... */\n      tag_50\n        /* \"#utility.yul\":1569:1760   */\n      jump\n        /* \"NoBOverround.sol\":8418:8685  function cost() public view onlyAfterInit() returns (int128) {... */\n    tag_6:\n      tag_58\n      tag_65\n      jump\t// in\n        /* \"NoBOverround.sol\":7187:7622  function withdraw() public onlyAfterInit() onlyOwner() {... */\n    tag_7:\n      tag_67\n      tag_68\n      jump\t// in\n    tag_67:\n      stop\n        /* \"NoBOverround.sol\":10540:10920  function getTokenWei(address _token, int128 _amount) public view returns (uint) {... */\n    tag_8:\n      tag_52\n      tag_70\n      calldatasize\n      0x04\n      tag_54\n      jump\t// in\n    tag_70:\n      tag_71\n      jump\t// in\n        /* \"NoBOverround.sol\":9657:10208  function odds(... */\n    tag_9:\n      tag_58\n      tag_74\n      calldatasize\n      0x04\n      tag_75\n      jump\t// in\n    tag_74:\n      tag_76\n      jump\t// in\n        /* \"NoBOverround.sol\":18322:18696  function withdrawFees() public onlyOwner {... */\n    tag_10:\n      tag_67\n      tag_79\n      jump\t// in\n        /* \"NoBOverround.sol\":3178:4121  function setup(... */\n    tag_11:\n      tag_67\n      tag_81\n      calldatasize\n      0x04\n      tag_82\n      jump\t// in\n    tag_81:\n      tag_83\n      jump\t// in\n        /* \"NoBOverround.sol\":12800:12951  function generateQuestionId(string memory uniqueString) public pure returns (bytes32) {... */\n    tag_12:\n      tag_52\n      tag_85\n      calldatasize\n      0x04\n      tag_86\n      jump\t// in\n    tag_85:\n      tag_87\n      jump\t// in\n        /* \"NoBOverround.sol\":18907:19277  function getPositionInfo(uint256 _outcome) public view returns (uint256 positionId, uint256 balance) {... */\n    tag_13:\n      tag_90\n      tag_91\n      calldatasize\n      0x04\n      tag_75\n      jump\t// in\n    tag_91:\n      tag_92\n      jump\t// in\n    tag_90:\n      0x40\n      dup1\n      mload\n        /* \"#utility.yul\":4030:4055   */\n      swap3\n      dup4\n      mstore\n        /* \"#utility.yul\":4086:4088   */\n      0x20\n        /* \"#utility.yul\":4071:4089   */\n      dup4\n      add\n        /* \"#utility.yul\":4064:4098   */\n      swap2\n      swap1\n      swap2\n      mstore\n        /* \"#utility.yul\":4003:4021   */\n      add\n        /* \"NoBOverround.sol\":18907:19277  function getPositionInfo(uint256 _outcome) public view returns (uint256 positionId, uint256 balance) {... */\n      tag_50\n        /* \"#utility.yul\":3856:4104   */\n      jump\n        /* \"NoBOverround.sol\":17177:17940  function addLiquidity(uint _amount) public onlyOwner {... */\n    tag_14:\n      tag_67\n      tag_96\n      calldatasize\n      0x04\n      tag_75\n      jump\t// in\n    tag_96:\n      tag_97\n      jump\t// in\n        /* \"NoBOverround.sol\":10374:10536  function sellingPrice(... */\n    tag_15:\n      tag_58\n      tag_99\n      calldatasize\n      0x04\n      tag_100\n      jump\t// in\n    tag_99:\n      tag_101\n      jump\t// in\n        /* \"NoBOverround.sol\":17942:18262  function getAccumulatedFees() public view returns (uint) {... */\n    tag_16:\n      tag_52\n      tag_104\n      jump\t// in\n        /* \"@openzeppelin/contracts/access/Ownable.sol\":2293:2394   */\n    tag_17:\n      tag_67\n      tag_107\n      jump\t// in\n        /* \"NoBOverround.sol\":8799:9444  function cost_after_buy(... */\n    tag_18:\n      tag_58\n      tag_109\n      calldatasize\n      0x04\n      tag_100\n      jump\t// in\n    tag_109:\n      tag_110\n      jump\t// in\n        /* \"NoBOverround.sol\":16823:16904  function getLiquidityParameter() public view returns (int128) {... */\n    tag_19:\n        /* \"NoBOverround.sol\":16898:16899  b */\n      signextend(0x0f, sload(0x03))\n        /* \"NoBOverround.sol\":16823:16904  function getLiquidityParameter() public view returns (int128) {... */\n      jump(tag_58)\n        /* \"NoBOverround.sol\":943:966  uint public numOutcomes */\n    tag_20:\n      tag_52\n      sload(0x01)\n      dup2\n      jump\n        /* \"NoBOverround.sol\":1464:1492  uint256 public dummyVar = 42 */\n    tag_21:\n      tag_52\n      sload(0x09)\n      dup2\n      jump\n        /* \"NoBOverround.sol\":7626:8051  function getPositionAndDustPositions(... */\n    tag_22:\n      tag_121\n      tag_122\n      calldatasize\n      0x04\n      tag_75\n      jump\t// in\n    tag_122:\n      tag_123\n      jump\t// in\n    tag_121:\n      mload(0x40)\n      tag_50\n      swap2\n      swap1\n      tag_125\n      jump\t// in\n        /* \"NoBOverround.sol\":11552:11839  function getTokenWeiDown(address _token, int128 _amount) public view returns (uint) {... */\n    tag_23:\n      tag_52\n      tag_127\n      calldatasize\n      0x04\n      tag_54\n      jump\t// in\n    tag_127:\n      tag_128\n      jump\t// in\n        /* \"@openzeppelin/contracts/access/Ownable.sol\":1638:1723   */\n    tag_24:\n        /* \"@openzeppelin/contracts/access/Ownable.sol\":1684:1691   */\n      0x00\n        /* \"@openzeppelin/contracts/access/Ownable.sol\":1710:1716   */\n      sload\n      sub(shl(0xa0, 0x01), 0x01)\n      and\n        /* \"@openzeppelin/contracts/access/Ownable.sol\":1638:1723   */\n    tag_130:\n      mload(0x40)\n      sub(shl(0xa0, 0x01), 0x01)\n        /* \"#utility.yul\":5240:5295   */\n      swap1\n      swap2\n      and\n        /* \"#utility.yul\":5222:5296   */\n      dup2\n      mstore\n        /* \"#utility.yul\":5210:5212   */\n      0x20\n        /* \"#utility.yul\":5195:5213   */\n      add\n        /* \"@openzeppelin/contracts/access/Ownable.sol\":1638:1723   */\n      tag_50\n        /* \"#utility.yul\":5076:5302   */\n      jump\n        /* \"NoBOverround.sol\":13840:16819  function sell(uint256 _outcome, int128 _amount) public onlyAfterInit returns (int128 refund) {... */\n    tag_25:\n      tag_58\n      tag_135\n      calldatasize\n      0x04\n      tag_100\n      jump\t// in\n    tag_135:\n      tag_136\n      jump\t// in\n        /* \"NoBOverround.sol\":16908:17110  function getOutcomeSharesPurchased(uint256 _outcome) public view returns (int128) {... */\n    tag_26:\n      tag_58\n      tag_139\n      calldatasize\n      0x04\n      tag_75\n      jump\t// in\n    tag_139:\n      tag_140\n      jump\t// in\n        /* \"NoBOverround.sol\":12280:12563  function onERC1155BatchReceived(... */\n    tag_27:\n      tag_142\n      tag_143\n      calldatasize\n      0x04\n      tag_144\n      jump\t// in\n    tag_143:\n      shl(0xe0, 0xbc197c81)\n      swap9\n      swap8\n      pop\n      pop\n      pop\n      pop\n      pop\n      pop\n      pop\n      pop\n      jump\n    tag_142:\n      mload(0x40)\n      not(sub(shl(0xe0, 0x01), 0x01))\n        /* \"#utility.yul\":7408:7441   */\n      swap1\n      swap2\n      and\n        /* \"#utility.yul\":7390:7442   */\n      dup2\n      mstore\n        /* \"#utility.yul\":7378:7380   */\n      0x20\n        /* \"#utility.yul\":7363:7381   */\n      add\n        /* \"NoBOverround.sol\":12280:12563  function onERC1155BatchReceived(... */\n      tag_50\n        /* \"#utility.yul\":7246:7448   */\n      jump\n        /* \"NoBOverround.sol\":1175:1199  bytes32 public condition */\n    tag_28:\n      tag_52\n      sload(0x06)\n      dup2\n      jump\n        /* \"NoBOverround.sol\":1074:1103  int128 public initial_subsidy */\n    tag_29:\n      sload(0x04)\n      tag_58\n      swap1\n      shl(0x80, 0x01)\n      swap1\n      div\n      0x0f\n      signextend\n      dup2\n      jump\n        /* \"NoBOverround.sol\":1107:1130  int128 public overround */\n    tag_30:\n      sload(0x05)\n      tag_58\n      swap1\n      0x0f\n      signextend\n      dup2\n      jump\n        /* \"NoBOverround.sol\":10214:10370  function price(... */\n    tag_31:\n      tag_58\n      tag_158\n      calldatasize\n      0x04\n      tag_100\n      jump\t// in\n    tag_158:\n      tag_159\n      jump\t// in\n        /* \"NoBOverround.sol\":18698:18905  function debugFees() public view returns (uint contractBalance, uint theoreticalCost) {... */\n    tag_32:\n      tag_90\n      tag_162\n      jump\t// in\n        /* \"NoBOverround.sol\":12027:12276  function onERC1155Received(... */\n    tag_33:\n      tag_142\n      tag_165\n      calldatasize\n      0x04\n      tag_166\n      jump\t// in\n    tag_165:\n      shl(0xe0, 0xf23a6e61)\n      swap7\n      swap6\n      pop\n      pop\n      pop\n      pop\n      pop\n      pop\n      jump\n        /* \"@openzeppelin/contracts/access/Ownable.sol\":2543:2758   */\n    tag_34:\n      tag_67\n      tag_170\n      calldatasize\n      0x04\n      tag_171\n      jump\t// in\n    tag_170:\n      tag_172\n      jump\t// in\n        /* \"NoBOverround.sol\":5797:6972  function buy(... */\n    tag_35:\n      tag_58\n      tag_174\n      calldatasize\n      0x04\n      tag_100\n      jump\t// in\n    tag_174:\n      tag_175\n      jump\t// in\n        /* \"NoBOverround.sol\":1235:1255  address public token */\n    tag_36:\n      sload(0x08)\n      tag_130\n      swap1\n      sub(shl(0xa0, 0x01), 0x01)\n      and\n      dup2\n      jump\n        /* \"NoBOverround.sol\":10924:11548  function getTokenWeiUp(address _token, int128 _amount) public view returns (uint) {... */\n    tag_55:\n        /* \"NoBOverround.sol\":11000:11004  uint */\n      0x00\n        /* \"NoBOverround.sol\":11012:11018  uint d */\n      dup1\n        /* \"NoBOverround.sol\":11027:11033  _token */\n      dup4\n      sub(shl(0xa0, 0x01), 0x01)\n        /* \"NoBOverround.sol\":11021:11043  ERC20(_token).decimals */\n      and\n      0x313ce567\n        /* \"NoBOverround.sol\":11021:11045  ERC20(_token).decimals() */\n      mload(0x40)\n      dup2\n      0xffffffff\n      and\n      0xe0\n      shl\n      dup2\n      mstore\n      0x04\n      add\n      0x20\n      mload(0x40)\n      dup1\n      dup4\n      sub\n      dup2\n      dup7\n      gas\n      staticcall\n      iszero\n      dup1\n      iszero\n      tag_183\n      jumpi\n      returndatasize\n      0x00\n      dup1\n      returndatacopy\n      revert(0x00, returndatasize)\n    tag_183:\n      pop\n      pop\n      pop\n      pop\n      mload(0x40)\n      returndatasize\n      not(0x1f)\n      0x1f\n      dup3\n      add\n      and\n      dup3\n      add\n      dup1\n      0x40\n      mstore\n      pop\n      dup2\n      add\n      swap1\n      tag_184\n      swap2\n      swap1\n      tag_185\n      jump\t// in\n    tag_184:\n        /* \"NoBOverround.sol\":11012:11045  uint d = ERC20(_token).decimals() */\n      0xff\n      and\n      swap1\n      pop\n        /* \"NoBOverround.sol\":11051:11066  uint multiplier */\n      0x00\n        /* \"NoBOverround.sol\":11069:11076  10 ** d */\n      tag_186\n        /* \"NoBOverround.sol\":11012:11045  uint d = ERC20(_token).decimals() */\n      dup3\n        /* \"NoBOverround.sol\":11069:11071  10 */\n      0x0a\n        /* \"NoBOverround.sol\":11069:11076  10 ** d */\n      tag_187\n      jump\t// in\n    tag_186:\n        /* \"NoBOverround.sol\":11051:11076  uint multiplier = 10 ** d */\n      swap1\n      pop\n        /* \"NoBOverround.sol\":11101:11102  0 */\n      0x00\n        /* \"NoBOverround.sol\":11090:11097  _amount */\n      dup5\n        /* \"NoBOverround.sol\":11090:11102  _amount >= 0 */\n      0x0f\n      signextend\n      slt\n      iszero\n        /* \"NoBOverround.sol\":11082:11134  require(_amount >= 0, \"Amount must be non-negative\") */\n      tag_188\n      jumpi\n      mload(0x40)\n      shl(0xe5, 0x461bcd)\n      dup2\n      mstore\n        /* \"#utility.yul\":10324:10326   */\n      0x20\n        /* \"NoBOverround.sol\":11082:11134  require(_amount >= 0, \"Amount must be non-negative\") */\n      0x04\n      dup3\n      add\n        /* \"#utility.yul\":10306:10327   */\n      mstore\n        /* \"#utility.yul\":10363:10365   */\n      0x1b\n        /* \"#utility.yul\":10343:10361   */\n      0x24\n      dup3\n      add\n        /* \"#utility.yul\":10336:10366   */\n      mstore\n        /* \"#utility.yul\":10402:10431   */\n      0x416d6f756e74206d757374206265206e6f6e2d6e656761746976650000000000\n        /* \"#utility.yul\":10382:10400   */\n      0x44\n      dup3\n      add\n        /* \"#utility.yul\":10375:10432   */\n      mstore\n        /* \"#utility.yul\":10449:10467   */\n      0x64\n      add\n        /* \"NoBOverround.sol\":11082:11134  require(_amount >= 0, \"Amount must be non-negative\") */\n    tag_189:\n      mload(0x40)\n      dup1\n      swap2\n      sub\n      swap1\n      revert\n    tag_188:\n        /* \"NoBOverround.sol\":11186:11197  uint result */\n      0x00\n        /* \"NoBOverround.sol\":11200:11234  ABDKMath.mulu(_amount, multiplier) */\n      tag_191\n        /* \"NoBOverround.sol\":11214:11221  _amount */\n      dup6\n        /* \"NoBOverround.sol\":11223:11233  multiplier */\n      dup4\n        /* \"NoBOverround.sol\":11200:11213  ABDKMath.mulu */\n      tag_192\n        /* \"NoBOverround.sol\":11200:11234  ABDKMath.mulu(_amount, multiplier) */\n      jump\t// in\n    tag_191:\n        /* \"NoBOverround.sol\":11186:11234  uint result = ABDKMath.mulu(_amount, multiplier) */\n      swap1\n      pop\n        /* \"NoBOverround.sol\":11496:11497  0 */\n      0x00\n        /* \"NoBOverround.sol\":11423:11472  ABDKMath.mul(_amount, int128(int256(multiplier))) */\n      tag_193\n        /* \"NoBOverround.sol\":11436:11443  _amount */\n      dup7\n        /* \"NoBOverround.sol\":11459:11469  multiplier */\n      dup5\n        /* \"NoBOverround.sol\":11423:11435  ABDKMath.mul */\n      tag_194\n        /* \"NoBOverround.sol\":11423:11472  ABDKMath.mul(_amount, int128(int256(multiplier))) */\n      jump\t// in\n    tag_193:\n        /* \"NoBOverround.sol\":11475:11493  0xFFFFFFFFFFFFFFFF */\n      0xffffffffffffffff\n        /* \"NoBOverround.sol\":11423:11493  ABDKMath.mul(_amount, int128(int256(multiplier))) & 0xFFFFFFFFFFFFFFFF */\n      and\n        /* \"NoBOverround.sol\":11423:11497  ABDKMath.mul(_amount, int128(int256(multiplier))) & 0xFFFFFFFFFFFFFFFF > 0 */\n      0x0f\n      signextend\n      sgt\n        /* \"NoBOverround.sol\":11419:11527  if (ABDKMath.mul(_amount, int128(int256(multiplier))) & 0xFFFFFFFFFFFFFFFF > 0) {... */\n      iszero\n      tag_195\n      jumpi\n        /* \"NoBOverround.sol\":11509:11520  result += 1 */\n      tag_196\n        /* \"NoBOverround.sol\":11519:11520  1 */\n      0x01\n        /* \"NoBOverround.sol\":11509:11520  result += 1 */\n      dup3\n      tag_197\n      jump\t// in\n    tag_196:\n      swap1\n      pop\n        /* \"NoBOverround.sol\":11419:11527  if (ABDKMath.mul(_amount, int128(int256(multiplier))) & 0xFFFFFFFFFFFFFFFF > 0) {... */\n    tag_195:\n        /* \"NoBOverround.sol\":11539:11545  result */\n      swap3\n      pop\n      pop\n      pop\n        /* \"NoBOverround.sol\":10924:11548  function getTokenWeiUp(address _token, int128 _amount) public view returns (uint) {... */\n    tag_181:\n      swap3\n      swap2\n      pop\n      pop\n      jump\t// out\n        /* \"NoBOverround.sol\":11843:12023  function getTokenEth(... */\n    tag_61:\n        /* \"NoBOverround.sol\":11927:11933  int128 */\n      0x00\n        /* \"NoBOverround.sol\":11941:11947  uint d */\n      dup1\n        /* \"NoBOverround.sol\":11956:11962  _token */\n      dup4\n      sub(shl(0xa0, 0x01), 0x01)\n        /* \"NoBOverround.sol\":11950:11972  ERC20(_token).decimals */\n      and\n      0x313ce567\n        /* \"NoBOverround.sol\":11950:11974  ERC20(_token).decimals() */\n      mload(0x40)\n      dup2\n      0xffffffff\n      and\n      0xe0\n      shl\n      dup2\n      mstore\n      0x04\n      add\n      0x20\n      mload(0x40)\n      dup1\n      dup4\n      sub\n      dup2\n      dup7\n      gas\n      staticcall\n      iszero\n      dup1\n      iszero\n      tag_200\n      jumpi\n      returndatasize\n      0x00\n      dup1\n      returndatacopy\n      revert(0x00, returndatasize)\n    tag_200:\n      pop\n      pop\n      pop\n      pop\n      mload(0x40)\n      returndatasize\n      not(0x1f)\n      0x1f\n      dup3\n      add\n      and\n      dup3\n      add\n      dup1\n      0x40\n      mstore\n      pop\n      dup2\n      add\n      swap1\n      tag_201\n      swap2\n      swap1\n      tag_185\n      jump\t// in\n    tag_201:\n        /* \"NoBOverround.sol\":11941:11974  uint d = ERC20(_token).decimals() */\n      0xff\n      and\n      swap1\n      pop\n        /* \"NoBOverround.sol\":11987:12018  ABDKMath.divu(_amount, 10 ** d) */\n      tag_202\n        /* \"NoBOverround.sol\":12001:12008  _amount */\n      dup4\n        /* \"NoBOverround.sol\":12010:12017  10 ** d */\n      tag_203\n        /* \"NoBOverround.sol\":11941:11974  uint d = ERC20(_token).decimals() */\n      dup4\n        /* \"NoBOverround.sol\":12010:12012  10 */\n      0x0a\n        /* \"NoBOverround.sol\":12010:12017  10 ** d */\n      tag_187\n      jump\t// in\n    tag_203:\n        /* \"NoBOverround.sol\":11987:12000  ABDKMath.divu */\n      tag_204\n        /* \"NoBOverround.sol\":11987:12018  ABDKMath.divu(_amount, 10 ** d) */\n      jump\t// in\n    tag_202:\n        /* \"NoBOverround.sol\":11980:12018  return ABDKMath.divu(_amount, 10 ** d) */\n      swap5\n        /* \"NoBOverround.sol\":11843:12023  function getTokenEth(... */\n      swap4\n      pop\n      pop\n      pop\n      pop\n      jump\t// out\n        /* \"NoBOverround.sol\":8418:8685  function cost() public view onlyAfterInit() returns (int128) {... */\n    tag_65:\n        /* \"NoBOverround.sol\":12709:12713  init */\n      sload(0x08)\n        /* \"NoBOverround.sol\":8471:8477  int128 */\n      0x00\n      swap1\n      shl(0xa0, 0x01)\n        /* \"NoBOverround.sol\":12709:12713  init */\n      swap1\n      div\n      0xff\n      and\n        /* \"NoBOverround.sol\":12709:12721  init == true */\n      iszero\n      iszero\n        /* \"NoBOverround.sol\":12717:12721  true */\n      0x01\n        /* \"NoBOverround.sol\":12709:12721  init == true */\n      eq\n        /* \"NoBOverround.sol\":12701:12722  require(init == true) */\n      tag_206\n      jumpi\n      0x00\n      dup1\n      revert\n    tag_206:\n        /* \"NoBOverround.sol\":8485:8501  int128 sum_total */\n      0x00\n      dup1\n        /* \"NoBOverround.sol\":8507:8629  for(uint i=0; i< numOutcomes; i++) {... */\n    tag_208:\n        /* \"NoBOverround.sol\":8524:8535  numOutcomes */\n      sload(0x01)\n        /* \"NoBOverround.sol\":8521:8522  i */\n      dup2\n        /* \"NoBOverround.sol\":8521:8535  i< numOutcomes */\n      lt\n        /* \"NoBOverround.sol\":8507:8629  for(uint i=0; i< numOutcomes; i++) {... */\n      iszero\n      tag_209\n      jumpi\n        /* \"NoBOverround.sol\":8562:8622  ABDKMath.add(sum_total, ABDKMath.exp(ABDKMath.div(q[i], b))) */\n      tag_211\n        /* \"NoBOverround.sol\":8575:8584  sum_total */\n      dup3\n        /* \"NoBOverround.sol\":8586:8621  ABDKMath.exp(ABDKMath.div(q[i], b)) */\n      tag_212\n        /* \"NoBOverround.sol\":8599:8620  ABDKMath.div(q[i], b) */\n      tag_213\n        /* \"NoBOverround.sol\":8612:8613  q */\n      0x02\n        /* \"NoBOverround.sol\":8614:8615  i */\n      dup6\n        /* \"NoBOverround.sol\":8612:8616  q[i] */\n      dup2\n      sload\n      dup2\n      lt\n      tag_215\n      jumpi\n      tag_215\n      tag_216\n      jump\t// in\n    tag_215:\n      0x00\n      swap2\n      dup3\n      mstore\n      0x20\n      swap1\n      swap2\n      keccak256\n      0x02\n      dup3\n      div\n      add\n      sload\n        /* \"NoBOverround.sol\":8618:8619  b */\n      sload(0x03)\n        /* \"NoBOverround.sol\":8612:8616  q[i] */\n      0x01\n      swap1\n      swap3\n      and\n      0x10\n      mul\n      0x0100\n      exp\n      swap1\n      div\n      0x0f\n      swap1\n      dup2\n      signextend\n      swap2\n        /* \"NoBOverround.sol\":8618:8619  b */\n      swap1\n      signextend\n        /* \"NoBOverround.sol\":8599:8611  ABDKMath.div */\n      tag_218\n        /* \"NoBOverround.sol\":8599:8620  ABDKMath.div(q[i], b) */\n      jump\t// in\n    tag_213:\n        /* \"NoBOverround.sol\":8586:8598  ABDKMath.exp */\n      tag_219\n        /* \"NoBOverround.sol\":8586:8621  ABDKMath.exp(ABDKMath.div(q[i], b)) */\n      jump\t// in\n    tag_212:\n        /* \"NoBOverround.sol\":8562:8574  ABDKMath.add */\n      tag_220\n        /* \"NoBOverround.sol\":8562:8622  ABDKMath.add(sum_total, ABDKMath.exp(ABDKMath.div(q[i], b))) */\n      jump\t// in\n    tag_211:\n        /* \"NoBOverround.sol\":8550:8622  sum_total = ABDKMath.add(sum_total, ABDKMath.exp(ABDKMath.div(q[i], b))) */\n      swap2\n      pop\n        /* \"NoBOverround.sol\":8537:8540  i++ */\n      0x01\n      add\n        /* \"NoBOverround.sol\":8507:8629  for(uint i=0; i< numOutcomes; i++) {... */\n      jump(tag_208)\n    tag_209:\n      pop\n        /* \"NoBOverround.sol\":8654:8655  b */\n      sload(0x03)\n        /* \"NoBOverround.sol\":8641:8680  ABDKMath.mul(b, ABDKMath.ln(sum_total)) */\n      tag_221\n      swap1\n        /* \"NoBOverround.sol\":8654:8655  b */\n      0x0f\n      signextend\n        /* \"NoBOverround.sol\":8657:8679  ABDKMath.ln(sum_total) */\n      tag_222\n        /* \"NoBOverround.sol\":8669:8678  sum_total */\n      dup4\n        /* \"NoBOverround.sol\":8657:8668  ABDKMath.ln */\n      tag_223\n        /* \"NoBOverround.sol\":8657:8679  ABDKMath.ln(sum_total) */\n      jump\t// in\n    tag_222:\n        /* \"NoBOverround.sol\":8641:8653  ABDKMath.mul */\n      tag_194\n        /* \"NoBOverround.sol\":8641:8680  ABDKMath.mul(b, ABDKMath.ln(sum_total)) */\n      jump\t// in\n    tag_221:\n        /* \"NoBOverround.sol\":8634:8680  return ABDKMath.mul(b, ABDKMath.ln(sum_total)) */\n      swap2\n      pop\n      pop\n        /* \"NoBOverround.sol\":12730:12731  _ */\n    tag_207:\n        /* \"NoBOverround.sol\":8418:8685  function cost() public view onlyAfterInit() returns (int128) {... */\n      swap1\n      jump\t// out\n        /* \"NoBOverround.sol\":7187:7622  function withdraw() public onlyAfterInit() onlyOwner() {... */\n    tag_68:\n        /* \"NoBOverround.sol\":12709:12713  init */\n      sload(0x08)\n      shl(0xa0, 0x01)\n      swap1\n      div\n      0xff\n      and\n        /* \"NoBOverround.sol\":12709:12721  init == true */\n      iszero\n      iszero\n        /* \"NoBOverround.sol\":12717:12721  true */\n      0x01\n        /* \"NoBOverround.sol\":12709:12721  init == true */\n      eq\n        /* \"NoBOverround.sol\":12701:12722  require(init == true) */\n      tag_225\n      jumpi\n      0x00\n      dup1\n      revert\n    tag_225:\n        /* \"@openzeppelin/contracts/access/Ownable.sol\":1531:1544   */\n      tag_227\n        /* \"@openzeppelin/contracts/access/Ownable.sol\":1531:1542   */\n      tag_228\n        /* \"@openzeppelin/contracts/access/Ownable.sol\":1531:1544   */\n      jump\t// in\n    tag_227:\n        /* \"NoBOverround.sol\":7256:7258  CT */\n      sload(0x07)\n        /* \"NoBOverround.sol\":7277:7286  condition */\n      sload(0x06)\n        /* \"NoBOverround.sol\":7256:7287  CT.payoutDenominator(condition) */\n      mload(0x40)\n      shl(0xe0, 0xdd34de67)\n      dup2\n      mstore\n      sub(shl(0xa0, 0x01), 0x01)\n        /* \"NoBOverround.sol\":7256:7258  CT */\n      swap1\n      swap3\n      and\n      swap2\n        /* \"NoBOverround.sol\":7256:7276  CT.payoutDenominator */\n      0xdd34de67\n      swap2\n        /* \"NoBOverround.sol\":7256:7287  CT.payoutDenominator(condition) */\n      tag_230\n      swap2\n      0x04\n      add\n        /* \"#utility.yul\":1274:1299   */\n      swap1\n      dup2\n      mstore\n        /* \"#utility.yul\":1262:1264   */\n      0x20\n        /* \"#utility.yul\":1247:1265   */\n      add\n      swap1\n        /* \"#utility.yul\":1128:1305   */\n      jump\n        /* \"NoBOverround.sol\":7256:7287  CT.payoutDenominator(condition) */\n    tag_230:\n      0x20\n      mload(0x40)\n      dup1\n      dup4\n      sub\n      dup2\n      dup7\n      gas\n      staticcall\n      iszero\n      dup1\n      iszero\n      tag_232\n      jumpi\n      returndatasize\n      0x00\n      dup1\n      returndatacopy\n      revert(0x00, returndatasize)\n    tag_232:\n      pop\n      pop\n      pop\n      pop\n      mload(0x40)\n      returndatasize\n      not(0x1f)\n      0x1f\n      dup3\n      add\n      and\n      dup3\n      add\n      dup1\n      0x40\n      mstore\n      pop\n      dup2\n      add\n      swap1\n      tag_233\n      swap2\n      swap1\n      tag_234\n      jump\t// in\n    tag_233:\n        /* \"NoBOverround.sol\":7291:7292  0 */\n      0x00\n        /* \"NoBOverround.sol\":7256:7292  CT.payoutDenominator(condition) != 0 */\n      sub\n        /* \"NoBOverround.sol\":7248:7324  require(CT.payoutDenominator(condition) != 0, 'Market needs to be resolved') */\n      tag_235\n      jumpi\n      mload(0x40)\n      shl(0xe5, 0x461bcd)\n      dup2\n      mstore\n        /* \"#utility.yul\":11131:11133   */\n      0x20\n        /* \"NoBOverround.sol\":7248:7324  require(CT.payoutDenominator(condition) != 0, 'Market needs to be resolved') */\n      0x04\n      dup3\n      add\n        /* \"#utility.yul\":11113:11134   */\n      mstore\n        /* \"#utility.yul\":11170:11172   */\n      0x1b\n        /* \"#utility.yul\":11150:11168   */\n      0x24\n      dup3\n      add\n        /* \"#utility.yul\":11143:11173   */\n      mstore\n        /* \"#utility.yul\":11209:11238   */\n      0x4d61726b6574206e6565647320746f206265207265736f6c7665640000000000\n        /* \"#utility.yul\":11189:11207   */\n      0x44\n      dup3\n      add\n        /* \"#utility.yul\":11182:11239   */\n      mstore\n        /* \"#utility.yul\":11256:11274   */\n      0x64\n      add\n        /* \"NoBOverround.sol\":7248:7324  require(CT.payoutDenominator(condition) != 0, 'Market needs to be resolved') */\n      tag_189\n        /* \"#utility.yul\":10929:11280   */\n      jump\n        /* \"NoBOverround.sol\":7248:7324  require(CT.payoutDenominator(condition) != 0, 'Market needs to be resolved') */\n    tag_235:\n        /* \"NoBOverround.sol\":7330:7348  uint[] memory dust */\n      0x00\n        /* \"NoBOverround.sol\":7365:7376  numOutcomes */\n      sload(0x01)\n        /* \"NoBOverround.sol\":7351:7377  new uint256[](numOutcomes) */\n      0xffffffffffffffff\n      dup2\n      gt\n      iszero\n      tag_239\n      jumpi\n      tag_239\n      tag_240\n      jump\t// in\n    tag_239:\n      mload(0x40)\n      swap1\n      dup1\n      dup3\n      mstore\n      dup1\n      0x20\n      mul\n      0x20\n      add\n      dup3\n      add\n      0x40\n      mstore\n      dup1\n      iszero\n      tag_241\n      jumpi\n      dup2\n      0x20\n      add\n      0x20\n      dup3\n      mul\n      dup1\n      calldatasize\n      dup4\n      calldatacopy\n      add\n      swap1\n      pop\n    tag_241:\n      pop\n        /* \"NoBOverround.sol\":7330:7377  uint[] memory dust = new uint256[](numOutcomes) */\n      swap1\n      pop\n        /* \"NoBOverround.sol\":7407:7413  uint i */\n      0x00\n        /* \"NoBOverround.sol\":7402:7466  for (uint i=0; i<numOutcomes; i++) {... */\n    tag_242:\n        /* \"NoBOverround.sol\":7419:7430  numOutcomes */\n      sload(0x01)\n        /* \"NoBOverround.sol\":7417:7418  i */\n      dup2\n        /* \"NoBOverround.sol\":7417:7430  i<numOutcomes */\n      lt\n        /* \"NoBOverround.sol\":7402:7466  for (uint i=0; i<numOutcomes; i++) {... */\n      iszero\n      tag_243\n      jumpi\n        /* \"NoBOverround.sol\":7458:7459  i */\n      dup1\n        /* \"NoBOverround.sol\":7455:7456  1 */\n      0x01\n        /* \"NoBOverround.sol\":7455:7459  1<<i */\n      swap1\n      shl\n        /* \"NoBOverround.sol\":7445:7449  dust */\n      dup3\n        /* \"NoBOverround.sol\":7450:7451  i */\n      dup3\n        /* \"NoBOverround.sol\":7445:7452  dust[i] */\n      dup2\n      mload\n      dup2\n      lt\n      tag_246\n      jumpi\n      tag_246\n      tag_216\n      jump\t// in\n    tag_246:\n      0x20\n      swap1\n      dup2\n      mul\n      swap2\n      swap1\n      swap2\n      add\n      add\n        /* \"NoBOverround.sol\":7445:7459  dust[i] = 1<<i */\n      mstore\n        /* \"NoBOverround.sol\":7432:7435  i++ */\n      0x01\n      add\n        /* \"NoBOverround.sol\":7402:7466  for (uint i=0; i<numOutcomes; i++) {... */\n      jump(tag_242)\n    tag_243:\n      pop\n        /* \"NoBOverround.sol\":7471:7473  CT */\n      sload(0x07)\n        /* \"NoBOverround.sol\":7497:7502  token */\n      sload(0x08)\n        /* \"NoBOverround.sol\":7517:7526  condition */\n      sload(0x06)\n        /* \"NoBOverround.sol\":7471:7533  CT.redeemPositions(IERC20(token), bytes32(0), condition, dust) */\n      mload(0x40)\n      shl(0xe2, 0x6dc0df)\n      dup2\n      mstore\n      sub(shl(0xa0, 0x01), 0x01)\n        /* \"NoBOverround.sol\":7471:7473  CT */\n      swap4\n      dup5\n      and\n      swap4\n        /* \"NoBOverround.sol\":7471:7489  CT.redeemPositions */\n      0x01b7037c\n      swap4\n        /* \"NoBOverround.sol\":7471:7533  CT.redeemPositions(IERC20(token), bytes32(0), condition, dust) */\n      tag_247\n      swap4\n        /* \"NoBOverround.sol\":7497:7502  token */\n      swap2\n      and\n      swap2\n        /* \"NoBOverround.sol\":7471:7473  CT */\n      0x00\n      swap2\n        /* \"NoBOverround.sol\":7517:7526  condition */\n      swap1\n        /* \"NoBOverround.sol\":7528:7532  dust */\n      dup8\n      swap1\n        /* \"NoBOverround.sol\":7471:7533  CT.redeemPositions(IERC20(token), bytes32(0), condition, dust) */\n      0x04\n      add\n      tag_248\n      jump\t// in\n    tag_247:\n      0x00\n      mload(0x40)\n      dup1\n      dup4\n      sub\n      dup2\n      0x00\n      dup8\n      dup1\n      extcodesize\n      iszero\n      dup1\n      iszero\n      tag_249\n      jumpi\n      0x00\n      dup1\n      revert\n    tag_249:\n      pop\n      gas\n      call\n      iszero\n      dup1\n      iszero\n      tag_251\n      jumpi\n      returndatasize\n      0x00\n      dup1\n      returndatacopy\n      revert(0x00, returndatasize)\n    tag_251:\n      pop\n      pop\n        /* \"NoBOverround.sol\":7585:7590  token */\n      sload(0x08)\n        /* \"NoBOverround.sol\":7578:7616  IERC20(token).balanceOf(address(this)) */\n      mload(0x40)\n      shl(0xe0, 0x70a08231)\n      dup2\n      mstore\n        /* \"NoBOverround.sol\":7610:7614  this */\n      address\n        /* \"NoBOverround.sol\":7578:7616  IERC20(token).balanceOf(address(this)) */\n      0x04\n      dup3\n      add\n        /* \"#utility.yul\":5222:5296   */\n      mstore\n        /* \"NoBOverround.sol\":7539:7617  IERC20(token).safeTransfer(msg.sender, IERC20(token).balanceOf(address(this))) */\n      tag_252\n      swap4\n      pop\n        /* \"NoBOverround.sol\":7566:7576  msg.sender */\n      caller\n      swap3\n      pop\n      sub(shl(0xa0, 0x01), 0x01)\n        /* \"NoBOverround.sol\":7585:7590  token */\n      swap1\n      swap2\n      and\n      swap1\n        /* \"NoBOverround.sol\":7578:7601  IERC20(token).balanceOf */\n      0x70a08231\n      swap1\n        /* \"#utility.yul\":5195:5213   */\n      0x24\n      add\n        /* \"NoBOverround.sol\":7578:7616  IERC20(token).balanceOf(address(this)) */\n      0x20\n      mload(0x40)\n      dup1\n      dup4\n      sub\n      dup2\n      dup7\n      gas\n      staticcall\n      iszero\n      dup1\n      iszero\n      tag_255\n      jumpi\n      returndatasize\n      0x00\n      dup1\n      returndatacopy\n      revert(0x00, returndatasize)\n    tag_255:\n      pop\n      pop\n      pop\n      pop\n      mload(0x40)\n      returndatasize\n      not(0x1f)\n      0x1f\n      dup3\n      add\n      and\n      dup3\n      add\n      dup1\n      0x40\n      mstore\n      pop\n      dup2\n      add\n      swap1\n      tag_256\n      swap2\n      swap1\n      tag_234\n      jump\t// in\n    tag_256:\n        /* \"NoBOverround.sol\":7546:7551  token */\n      and(sub(shl(0xa0, 0x01), 0x01), sload(0x08))\n      swap2\n        /* \"NoBOverround.sol\":7539:7617  IERC20(token).safeTransfer(msg.sender, IERC20(token).balanceOf(address(this))) */\n      swap1\n        /* \"NoBOverround.sol\":7539:7565  IERC20(token).safeTransfer */\n      tag_257\n        /* \"NoBOverround.sol\":7539:7617  IERC20(token).safeTransfer(msg.sender, IERC20(token).balanceOf(address(this))) */\n      jump\t// in\n    tag_252:\n        /* \"NoBOverround.sol\":7242:7622  {... */\n      pop\n        /* \"NoBOverround.sol\":7187:7622  function withdraw() public onlyAfterInit() onlyOwner() {... */\n      jump\t// out\n        /* \"NoBOverround.sol\":10540:10920  function getTokenWei(address _token, int128 _amount) public view returns (uint) {... */\n    tag_71:\n        /* \"NoBOverround.sol\":10614:10618  uint */\n      0x00\n        /* \"NoBOverround.sol\":10626:10632  uint d */\n      dup1\n        /* \"NoBOverround.sol\":10641:10647  _token */\n      dup4\n      sub(shl(0xa0, 0x01), 0x01)\n        /* \"NoBOverround.sol\":10635:10657  ERC20(_token).decimals */\n      and\n      0x313ce567\n        /* \"NoBOverround.sol\":10635:10659  ERC20(_token).decimals() */\n      mload(0x40)\n      dup2\n      0xffffffff\n      and\n      0xe0\n      shl\n      dup2\n      mstore\n      0x04\n      add\n      0x20\n      mload(0x40)\n      dup1\n      dup4\n      sub\n      dup2\n      dup7\n      gas\n      staticcall\n      iszero\n      dup1\n      iszero\n      tag_260\n      jumpi\n      returndatasize\n      0x00\n      dup1\n      returndatacopy\n      revert(0x00, returndatasize)\n    tag_260:\n      pop\n      pop\n      pop\n      pop\n      mload(0x40)\n      returndatasize\n      not(0x1f)\n      0x1f\n      dup3\n      add\n      and\n      dup3\n      add\n      dup1\n      0x40\n      mstore\n      pop\n      dup2\n      add\n      swap1\n      tag_261\n      swap2\n      swap1\n      tag_185\n      jump\t// in\n    tag_261:\n        /* \"NoBOverround.sol\":10626:10659  uint d = ERC20(_token).decimals() */\n      0xff\n      and\n      swap1\n      pop\n        /* \"NoBOverround.sol\":10665:10680  uint multiplier */\n      0x00\n        /* \"NoBOverround.sol\":10683:10690  10 ** d */\n      tag_262\n        /* \"NoBOverround.sol\":10626:10659  uint d = ERC20(_token).decimals() */\n      dup3\n        /* \"NoBOverround.sol\":10683:10685  10 */\n      0x0a\n        /* \"NoBOverround.sol\":10683:10690  10 ** d */\n      tag_187\n      jump\t// in\n    tag_262:\n        /* \"NoBOverround.sol\":10665:10690  uint multiplier = 10 ** d */\n      swap1\n      pop\n        /* \"NoBOverround.sol\":10715:10716  0 */\n      0x00\n        /* \"NoBOverround.sol\":10704:10711  _amount */\n      dup5\n        /* \"NoBOverround.sol\":10704:10716  _amount >= 0 */\n      0x0f\n      signextend\n      slt\n      iszero\n        /* \"NoBOverround.sol\":10696:10748  require(_amount >= 0, \"Amount must be non-negative\") */\n      tag_263\n      jumpi\n      mload(0x40)\n      shl(0xe5, 0x461bcd)\n      dup2\n      mstore\n        /* \"#utility.yul\":10324:10326   */\n      0x20\n        /* \"NoBOverround.sol\":10696:10748  require(_amount >= 0, \"Amount must be non-negative\") */\n      0x04\n      dup3\n      add\n        /* \"#utility.yul\":10306:10327   */\n      mstore\n        /* \"#utility.yul\":10363:10365   */\n      0x1b\n        /* \"#utility.yul\":10343:10361   */\n      0x24\n      dup3\n      add\n        /* \"#utility.yul\":10336:10366   */\n      mstore\n        /* \"#utility.yul\":10402:10431   */\n      0x416d6f756e74206d757374206265206e6f6e2d6e656761746976650000000000\n        /* \"#utility.yul\":10382:10400   */\n      0x44\n      dup3\n      add\n        /* \"#utility.yul\":10375:10432   */\n      mstore\n        /* \"#utility.yul\":10449:10467   */\n      0x64\n      add\n        /* \"NoBOverround.sol\":10696:10748  require(_amount >= 0, \"Amount must be non-negative\") */\n      tag_189\n        /* \"#utility.yul\":10122:10473   */\n      jump\n        /* \"NoBOverround.sol\":10696:10748  require(_amount >= 0, \"Amount must be non-negative\") */\n    tag_263:\n        /* \"NoBOverround.sol\":10798:10809  uint result */\n      0x00\n        /* \"NoBOverround.sol\":10812:10846  ABDKMath.mulu(_amount, multiplier) */\n      tag_196\n        /* \"NoBOverround.sol\":10826:10833  _amount */\n      dup6\n        /* \"NoBOverround.sol\":10835:10845  multiplier */\n      dup4\n        /* \"NoBOverround.sol\":10812:10825  ABDKMath.mulu */\n      tag_192\n        /* \"NoBOverround.sol\":10812:10846  ABDKMath.mulu(_amount, multiplier) */\n      jump\t// in\n        /* \"NoBOverround.sol\":9657:10208  function odds(... */\n    tag_76:\n        /* \"NoBOverround.sol\":9718:9724  int128 */\n      0x00\n        /* \"NoBOverround.sol\":9751:9762  numOutcomes */\n      sload(0x01)\n        /* \"NoBOverround.sol\":9740:9748  _outcome */\n      dup3\n        /* \"NoBOverround.sol\":9740:9762  _outcome < numOutcomes */\n      lt\n        /* \"NoBOverround.sol\":9732:9788  require(_outcome < numOutcomes, \"Invalid outcome index\") */\n      tag_267\n      jumpi\n      mload(0x40)\n      shl(0xe5, 0x461bcd)\n      dup2\n      mstore\n        /* \"#utility.yul\":12033:12035   */\n      0x20\n        /* \"NoBOverround.sol\":9732:9788  require(_outcome < numOutcomes, \"Invalid outcome index\") */\n      0x04\n      dup3\n      add\n        /* \"#utility.yul\":12015:12036   */\n      mstore\n        /* \"#utility.yul\":12072:12074   */\n      0x15\n        /* \"#utility.yul\":12052:12070   */\n      0x24\n      dup3\n      add\n        /* \"#utility.yul\":12045:12075   */\n      mstore\n      shl(0x5b, 0x092dcecc2d8d2c840deeae8c6dedaca40d2dcc8caf)\n        /* \"#utility.yul\":12091:12109   */\n      0x44\n      dup3\n      add\n        /* \"#utility.yul\":12084:12135   */\n      mstore\n        /* \"#utility.yul\":12152:12170   */\n      0x64\n      add\n        /* \"NoBOverround.sol\":9732:9788  require(_outcome < numOutcomes, \"Invalid outcome index\") */\n      tag_189\n        /* \"#utility.yul\":11831:12176   */\n      jump\n        /* \"NoBOverround.sol\":9732:9788  require(_outcome < numOutcomes, \"Invalid outcome index\") */\n    tag_267:\n        /* \"NoBOverround.sol\":9840:9856  int128 numerator */\n      0x00\n        /* \"NoBOverround.sol\":9859:9901  ABDKMath.exp(ABDKMath.div(q[_outcome], b)) */\n      tag_270\n        /* \"NoBOverround.sol\":9872:9900  ABDKMath.div(q[_outcome], b) */\n      tag_213\n        /* \"NoBOverround.sol\":9885:9886  q */\n      0x02\n        /* \"NoBOverround.sol\":9887:9895  _outcome */\n      dup6\n        /* \"NoBOverround.sol\":9885:9896  q[_outcome] */\n      dup2\n      sload\n      dup2\n      lt\n      tag_215\n      jumpi\n      tag_215\n      tag_216\n      jump\t// in\n        /* \"NoBOverround.sol\":9859:9901  ABDKMath.exp(ABDKMath.div(q[_outcome], b)) */\n    tag_270:\n        /* \"NoBOverround.sol\":9840:9901  int128 numerator = ABDKMath.exp(ABDKMath.div(q[_outcome], b)) */\n      swap1\n      pop\n        /* \"NoBOverround.sol\":9954:9972  int128 denominator */\n      0x00\n      dup1\n        /* \"NoBOverround.sol\":9978:10108  for (uint i = 0; i < numOutcomes; i++) {... */\n    tag_275:\n        /* \"NoBOverround.sol\":9999:10010  numOutcomes */\n      sload(0x01)\n        /* \"NoBOverround.sol\":9995:9996  i */\n      dup2\n        /* \"NoBOverround.sol\":9995:10010  i < numOutcomes */\n      lt\n        /* \"NoBOverround.sol\":9978:10108  for (uint i = 0; i < numOutcomes; i++) {... */\n      iszero\n      tag_276\n      jumpi\n        /* \"NoBOverround.sol\":10039:10101  ABDKMath.add(denominator, ABDKMath.exp(ABDKMath.div(q[i], b))) */\n      tag_278\n        /* \"NoBOverround.sol\":10052:10063  denominator */\n      dup3\n        /* \"NoBOverround.sol\":10065:10100  ABDKMath.exp(ABDKMath.div(q[i], b)) */\n      tag_212\n        /* \"NoBOverround.sol\":10078:10099  ABDKMath.div(q[i], b) */\n      tag_213\n        /* \"NoBOverround.sol\":10091:10092  q */\n      0x02\n        /* \"NoBOverround.sol\":10093:10094  i */\n      dup6\n        /* \"NoBOverround.sol\":10091:10095  q[i] */\n      dup2\n      sload\n      dup2\n      lt\n      tag_215\n      jumpi\n      tag_215\n      tag_216\n      jump\t// in\n        /* \"NoBOverround.sol\":10039:10101  ABDKMath.add(denominator, ABDKMath.exp(ABDKMath.div(q[i], b))) */\n    tag_278:\n        /* \"NoBOverround.sol\":10025:10101  denominator = ABDKMath.add(denominator, ABDKMath.exp(ABDKMath.div(q[i], b))) */\n      swap2\n      pop\n        /* \"NoBOverround.sol\":10012:10015  i++ */\n      0x01\n      add\n        /* \"NoBOverround.sol\":9978:10108  for (uint i = 0; i < numOutcomes; i++) {... */\n      jump(tag_275)\n    tag_276:\n      pop\n        /* \"NoBOverround.sol\":10167:10203  ABDKMath.div(numerator, denominator) */\n      tag_202\n        /* \"NoBOverround.sol\":10180:10189  numerator */\n      dup3\n        /* \"NoBOverround.sol\":10191:10202  denominator */\n      dup3\n        /* \"NoBOverround.sol\":10167:10179  ABDKMath.div */\n      tag_218\n        /* \"NoBOverround.sol\":10167:10203  ABDKMath.div(numerator, denominator) */\n      jump\t// in\n        /* \"NoBOverround.sol\":18322:18696  function withdrawFees() public onlyOwner {... */\n    tag_79:\n        /* \"@openzeppelin/contracts/access/Ownable.sol\":1531:1544   */\n      tag_286\n        /* \"@openzeppelin/contracts/access/Ownable.sol\":1531:1542   */\n      tag_228\n        /* \"@openzeppelin/contracts/access/Ownable.sol\":1531:1544   */\n      jump\t// in\n    tag_286:\n        /* \"NoBOverround.sol\":18397:18402  token */\n      sload(0x08)\n        /* \"NoBOverround.sol\":18390:18428  IERC20(token).balanceOf(address(this)) */\n      mload(0x40)\n      shl(0xe0, 0x70a08231)\n      dup2\n      mstore\n        /* \"NoBOverround.sol\":18422:18426  this */\n      address\n        /* \"NoBOverround.sol\":18390:18428  IERC20(token).balanceOf(address(this)) */\n      0x04\n      dup3\n      add\n        /* \"#utility.yul\":5222:5296   */\n      mstore\n        /* \"NoBOverround.sol\":18369:18387  uint actualBalance */\n      0x00\n      swap2\n      sub(shl(0xa0, 0x01), 0x01)\n        /* \"NoBOverround.sol\":18397:18402  token */\n      and\n      swap1\n        /* \"NoBOverround.sol\":18390:18413  IERC20(token).balanceOf */\n      0x70a08231\n      swap1\n        /* \"#utility.yul\":5195:5213   */\n      0x24\n      add\n        /* \"NoBOverround.sol\":18390:18428  IERC20(token).balanceOf(address(this)) */\n      0x20\n      mload(0x40)\n      dup1\n      dup4\n      sub\n      dup2\n      dup7\n      gas\n      staticcall\n      iszero\n      dup1\n      iszero\n      tag_290\n      jumpi\n      returndatasize\n      0x00\n      dup1\n      returndatacopy\n      revert(0x00, returndatasize)\n    tag_290:\n      pop\n      pop\n      pop\n      pop\n      mload(0x40)\n      returndatasize\n      not(0x1f)\n      0x1f\n      dup3\n      add\n      and\n      dup3\n      add\n      dup1\n      0x40\n      mstore\n      pop\n      dup2\n      add\n      swap1\n      tag_291\n      swap2\n      swap1\n      tag_234\n      jump\t// in\n    tag_291:\n        /* \"NoBOverround.sol\":18469:18474  token */\n      sload(0x08)\n        /* \"NoBOverround.sol\":18476:18488  current_cost */\n      sload(0x03)\n        /* \"NoBOverround.sol\":18369:18428  uint actualBalance = IERC20(token).balanceOf(address(this)) */\n      swap2\n      swap3\n      pop\n        /* \"NoBOverround.sol\":18434:18454  uint theoreticalCost */\n      0x00\n      swap2\n        /* \"NoBOverround.sol\":18457:18489  getTokenWei(token, current_cost) */\n      tag_292\n      swap2\n      sub(shl(0xa0, 0x01), 0x01)\n        /* \"NoBOverround.sol\":18469:18474  token */\n      and\n      swap1\n      shl(0x80, 0x01)\n        /* \"NoBOverround.sol\":18476:18488  current_cost */\n      swap1\n      div\n      0x0f\n      signextend\n        /* \"NoBOverround.sol\":18457:18468  getTokenWei */\n      tag_71\n        /* \"NoBOverround.sol\":18457:18489  getTokenWei(token, current_cost) */\n      jump\t// in\n    tag_292:\n        /* \"NoBOverround.sol\":18434:18489  uint theoreticalCost = getTokenWei(token, current_cost) */\n      swap1\n      pop\n        /* \"NoBOverround.sol\":18519:18534  theoreticalCost */\n      dup1\n        /* \"NoBOverround.sol\":18503:18516  actualBalance */\n      dup3\n        /* \"NoBOverround.sol\":18503:18534  actualBalance > theoreticalCost */\n      gt\n        /* \"NoBOverround.sol\":18495:18558  require(actualBalance > theoreticalCost, \"No fees to withdraw\") */\n      tag_293\n      jumpi\n      mload(0x40)\n      shl(0xe5, 0x461bcd)\n      dup2\n      mstore\n        /* \"#utility.yul\":12383:12385   */\n      0x20\n        /* \"NoBOverround.sol\":18495:18558  require(actualBalance > theoreticalCost, \"No fees to withdraw\") */\n      0x04\n      dup3\n      add\n        /* \"#utility.yul\":12365:12386   */\n      mstore\n        /* \"#utility.yul\":12422:12424   */\n      0x13\n        /* \"#utility.yul\":12402:12420   */\n      0x24\n      dup3\n      add\n        /* \"#utility.yul\":12395:12425   */\n      mstore\n        /* \"#utility.yul\":12461:12482   */\n      0x4e6f206665657320746f20776974686472617700000000000000000000000000\n        /* \"#utility.yul\":12441:12459   */\n      0x44\n      dup3\n      add\n        /* \"#utility.yul\":12434:12483   */\n      mstore\n        /* \"#utility.yul\":12500:12518   */\n      0x64\n      add\n        /* \"NoBOverround.sol\":18495:18558  require(actualBalance > theoreticalCost, \"No fees to withdraw\") */\n      tag_189\n        /* \"#utility.yul\":12181:12524   */\n      jump\n        /* \"NoBOverround.sol\":18495:18558  require(actualBalance > theoreticalCost, \"No fees to withdraw\") */\n    tag_293:\n        /* \"NoBOverround.sol\":18564:18573  uint fees */\n      0x00\n        /* \"NoBOverround.sol\":18576:18607  actualBalance - theoreticalCost */\n      tag_296\n        /* \"NoBOverround.sol\":18592:18607  theoreticalCost */\n      dup3\n        /* \"NoBOverround.sol\":18576:18589  actualBalance */\n      dup5\n        /* \"NoBOverround.sol\":18576:18607  actualBalance - theoreticalCost */\n      tag_297\n      jump\t// in\n    tag_296:\n        /* \"NoBOverround.sol\":18564:18607  uint fees = actualBalance - theoreticalCost */\n      swap1\n      pop\n        /* \"NoBOverround.sol\":18613:18654  IERC20(token).safeTransfer(owner(), fees) */\n      tag_298\n        /* \"NoBOverround.sol\":18640:18647  owner() */\n      tag_299\n        /* \"@openzeppelin/contracts/access/Ownable.sol\":1684:1691   */\n      0x00\n        /* \"@openzeppelin/contracts/access/Ownable.sol\":1710:1716   */\n      sload\n      sub(shl(0xa0, 0x01), 0x01)\n      and\n      swap1\n        /* \"@openzeppelin/contracts/access/Ownable.sol\":1638:1723   */\n      jump\n        /* \"NoBOverround.sol\":18640:18647  owner() */\n    tag_299:\n        /* \"NoBOverround.sol\":18620:18625  token */\n      and(sub(shl(0xa0, 0x01), 0x01), sload(0x08))\n      swap1\n        /* \"NoBOverround.sol\":18649:18653  fees */\n      dup4\n        /* \"NoBOverround.sol\":18613:18639  IERC20(token).safeTransfer */\n      tag_257\n        /* \"NoBOverround.sol\":18613:18654  IERC20(token).safeTransfer(owner(), fees) */\n      jump\t// in\n    tag_298:\n        /* \"@openzeppelin/contracts/access/Ownable.sol\":1684:1691   */\n      0x00\n        /* \"@openzeppelin/contracts/access/Ownable.sol\":1710:1716   */\n      sload\n      sub(shl(0xa0, 0x01), 0x01)\n      and\n      sub(shl(0xa0, 0x01), 0x01)\n        /* \"NoBOverround.sol\":18665:18693  FeesWithdrawn(owner(), fees) */\n      and\n      0xc0819c13be868895eb93e40eaceb96de976442fa1d404e5c55f14bb65a8c489a\n        /* \"NoBOverround.sol\":18688:18692  fees */\n      dup3\n        /* \"NoBOverround.sol\":18665:18693  FeesWithdrawn(owner(), fees) */\n      mload(0x40)\n      tag_301\n      swap2\n        /* \"#utility.yul\":1274:1299   */\n      dup2\n      mstore\n        /* \"#utility.yul\":1262:1264   */\n      0x20\n        /* \"#utility.yul\":1247:1265   */\n      add\n      swap1\n        /* \"#utility.yul\":1128:1305   */\n      jump\n        /* \"NoBOverround.sol\":18665:18693  FeesWithdrawn(owner(), fees) */\n    tag_301:\n      mload(0x40)\n      dup1\n      swap2\n      sub\n      swap1\n      log2\n        /* \"NoBOverround.sol\":18363:18696  {... */\n      pop\n      pop\n      pop\n        /* \"NoBOverround.sol\":18322:18696  function withdrawFees() public onlyOwner {... */\n      jump\t// out\n        /* \"NoBOverround.sol\":3178:4121  function setup(... */\n    tag_83:\n        /* \"@openzeppelin/contracts/access/Ownable.sol\":1531:1544   */\n      tag_303\n        /* \"@openzeppelin/contracts/access/Ownable.sol\":1531:1542   */\n      tag_228\n        /* \"@openzeppelin/contracts/access/Ownable.sol\":1531:1544   */\n      jump\t// in\n    tag_303:\n        /* \"NoBOverround.sol\":3363:3367  init */\n      sload(0x08)\n      shl(0xa0, 0x01)\n      swap1\n      div\n      0xff\n      and\n        /* \"NoBOverround.sol\":3363:3376  init == false */\n      iszero\n        /* \"NoBOverround.sol\":3355:3392  require(init == false,'Already init') */\n      tag_305\n      jumpi\n      mload(0x40)\n      shl(0xe5, 0x461bcd)\n      dup2\n      mstore\n        /* \"#utility.yul\":12864:12866   */\n      0x20\n        /* \"NoBOverround.sol\":3355:3392  require(init == false,'Already init') */\n      0x04\n      dup3\n      add\n        /* \"#utility.yul\":12846:12867   */\n      mstore\n        /* \"#utility.yul\":12903:12905   */\n      0x0c\n        /* \"#utility.yul\":12883:12901   */\n      0x24\n      dup3\n      add\n        /* \"#utility.yul\":12876:12906   */\n      mstore\n        /* \"#utility.yul\":12942:12956   */\n      0x416c726561647920696e69740000000000000000000000000000000000000000\n        /* \"#utility.yul\":12922:12940   */\n      0x44\n      dup3\n      add\n        /* \"#utility.yul\":12915:12957   */\n      mstore\n        /* \"#utility.yul\":12974:12992   */\n      0x64\n      add\n        /* \"NoBOverround.sol\":3355:3392  require(init == false,'Already init') */\n      tag_189\n        /* \"#utility.yul\":12662:12998   */\n      jump\n        /* \"NoBOverround.sol\":3355:3392  require(init == false,'Already init') */\n    tag_305:\n        /* \"NoBOverround.sol\":3419:3420  0 */\n      0x00\n        /* \"NoBOverround.sol\":3406:3416  _overround */\n      dup2\n        /* \"NoBOverround.sol\":3406:3420  _overround > 0 */\n      gt\n        /* \"NoBOverround.sol\":3398:3447  require(_overround > 0,'Cannot have 0 overround') */\n      tag_308\n      jumpi\n      mload(0x40)\n      shl(0xe5, 0x461bcd)\n      dup2\n      mstore\n        /* \"#utility.yul\":13205:13207   */\n      0x20\n        /* \"NoBOverround.sol\":3398:3447  require(_overround > 0,'Cannot have 0 overround') */\n      0x04\n      dup3\n      add\n        /* \"#utility.yul\":13187:13208   */\n      mstore\n        /* \"#utility.yul\":13244:13246   */\n      0x17\n        /* \"#utility.yul\":13224:13242   */\n      0x24\n      dup3\n      add\n        /* \"#utility.yul\":13217:13247   */\n      mstore\n        /* \"#utility.yul\":13283:13308   */\n      0x43616e6e6f7420686176652030206f766572726f756e64000000000000000000\n        /* \"#utility.yul\":13263:13281   */\n      0x44\n      dup3\n      add\n        /* \"#utility.yul\":13256:13309   */\n      mstore\n        /* \"#utility.yul\":13326:13344   */\n      0x64\n      add\n        /* \"NoBOverround.sol\":3398:3447  require(_overround > 0,'Cannot have 0 overround') */\n      tag_189\n        /* \"#utility.yul\":13003:13350   */\n      jump\n        /* \"NoBOverround.sol\":3398:3447  require(_overround > 0,'Cannot have 0 overround') */\n    tag_308:\n        /* \"NoBOverround.sol\":3453:3455  CT */\n      sload(0x07)\n        /* \"NoBOverround.sol\":3453:3508  CT.prepareCondition(_oracle, _questionId, _numOutcomes) */\n      mload(0x40)\n      shl(0xe2, 0x365bb9d5)\n      dup2\n      mstore\n      sub(shl(0xa0, 0x01), 0x01)\n        /* \"#utility.yul\":13575:13630   */\n      dup9\n      dup2\n      and\n        /* \"NoBOverround.sol\":3453:3508  CT.prepareCondition(_oracle, _questionId, _numOutcomes) */\n      0x04\n      dup4\n      add\n        /* \"#utility.yul\":13557:13631   */\n      mstore\n        /* \"#utility.yul\":13647:13665   */\n      0x24\n      dup3\n      add\n        /* \"#utility.yul\":13640:13674   */\n      dup9\n      swap1\n      mstore\n        /* \"#utility.yul\":13690:13708   */\n      0x44\n      dup3\n      add\n        /* \"#utility.yul\":13683:13717   */\n      dup8\n      swap1\n      mstore\n        /* \"NoBOverround.sol\":3453:3455  CT */\n      swap1\n      swap2\n      and\n      swap1\n        /* \"NoBOverround.sol\":3453:3472  CT.prepareCondition */\n      0xd96ee754\n      swap1\n        /* \"#utility.yul\":13530:13548   */\n      0x64\n      add\n        /* \"NoBOverround.sol\":3453:3508  CT.prepareCondition(_oracle, _questionId, _numOutcomes) */\n      0x00\n      mload(0x40)\n      dup1\n      dup4\n      sub\n      dup2\n      0x00\n      dup8\n      dup1\n      extcodesize\n      iszero\n      dup1\n      iszero\n      tag_313\n      jumpi\n      0x00\n      dup1\n      revert\n    tag_313:\n      pop\n      gas\n      call\n      iszero\n      dup1\n      iszero\n      tag_315\n      jumpi\n      returndatasize\n      0x00\n      dup1\n      returndatacopy\n      revert(0x00, returndatasize)\n    tag_315:\n      pop\n      pop\n        /* \"NoBOverround.sol\":3526:3528  CT */\n      sload(0x07)\n        /* \"NoBOverround.sol\":3526:3579  CT.getConditionId(_oracle, _questionId, _numOutcomes) */\n      mload(0x40)\n      shl(0xe1, 0x42963571)\n      dup2\n      mstore\n      sub(shl(0xa0, 0x01), 0x01)\n        /* \"#utility.yul\":13575:13630   */\n      dup11\n      dup2\n      and\n        /* \"NoBOverround.sol\":3526:3579  CT.getConditionId(_oracle, _questionId, _numOutcomes) */\n      0x04\n      dup4\n      add\n        /* \"#utility.yul\":13557:13631   */\n      mstore\n        /* \"#utility.yul\":13647:13665   */\n      0x24\n      dup3\n      add\n        /* \"#utility.yul\":13640:13674   */\n      dup11\n      swap1\n      mstore\n        /* \"#utility.yul\":13690:13708   */\n      0x44\n      dup3\n      add\n        /* \"#utility.yul\":13683:13717   */\n      dup10\n      swap1\n      mstore\n        /* \"NoBOverround.sol\":3526:3528  CT */\n      swap1\n      swap2\n      and\n      swap3\n      pop\n        /* \"NoBOverround.sol\":3526:3543  CT.getConditionId */\n      0x852c6ae2\n      swap2\n      pop\n        /* \"#utility.yul\":13530:13548   */\n      0x64\n      add\n        /* \"NoBOverround.sol\":3526:3579  CT.getConditionId(_oracle, _questionId, _numOutcomes) */\n      0x20\n      mload(0x40)\n      dup1\n      dup4\n      sub\n      dup2\n      dup7\n      gas\n      staticcall\n      iszero\n      dup1\n      iszero\n      tag_318\n      jumpi\n      returndatasize\n      0x00\n      dup1\n      returndatacopy\n      revert(0x00, returndatasize)\n    tag_318:\n      pop\n      pop\n      pop\n      pop\n      mload(0x40)\n      returndatasize\n      not(0x1f)\n      0x1f\n      dup3\n      add\n      and\n      dup3\n      add\n      dup1\n      0x40\n      mstore\n      pop\n      dup2\n      add\n      swap1\n      tag_319\n      swap2\n      swap1\n      tag_234\n      jump\t// in\n    tag_319:\n        /* \"NoBOverround.sol\":3514:3523  condition */\n      0x06\n        /* \"NoBOverround.sol\":3514:3579  condition = CT.getConditionId(_oracle, _questionId, _numOutcomes) */\n      sstore\n        /* \"NoBOverround.sol\":3586:3597  numOutcomes */\n      0x01\n        /* \"NoBOverround.sol\":3586:3612  numOutcomes = _numOutcomes */\n      dup5\n      swap1\n      sstore\n      0x00\n        /* \"NoBOverround.sol\":3629:3660  ABDKMath.fromUInt(_numOutcomes) */\n      tag_321\n        /* \"NoBOverround.sol\":3600:3612  _numOutcomes */\n      dup6\n        /* \"NoBOverround.sol\":3629:3646  ABDKMath.fromUInt */\n      tag_322\n        /* \"NoBOverround.sol\":3629:3660  ABDKMath.fromUInt(_numOutcomes) */\n      jump\t// in\n    tag_321:\n        /* \"NoBOverround.sol\":3697:3702  token */\n      sload(0x08)\n        /* \"NoBOverround.sol\":3618:3660  int128 n = ABDKMath.fromUInt(_numOutcomes) */\n      swap1\n      swap2\n      pop\n        /* \"NoBOverround.sol\":3666:3682  int128 initial_b */\n      0x00\n      swap1\n        /* \"NoBOverround.sol\":3685:3711  getTokenEth(token, bInput) */\n      tag_323\n      swap1\n      sub(shl(0xa0, 0x01), 0x01)\n        /* \"NoBOverround.sol\":3697:3702  token */\n      and\n        /* \"NoBOverround.sol\":3704:3710  bInput */\n      dup7\n        /* \"NoBOverround.sol\":3685:3696  getTokenEth */\n      tag_61\n        /* \"NoBOverround.sol\":3685:3711  getTokenEth(token, bInput) */\n      jump\t// in\n    tag_323:\n        /* \"NoBOverround.sol\":3717:3718  b */\n      0x03\n        /* \"NoBOverround.sol\":3717:3730  b = initial_b */\n      dup1\n      sload\n      not(sub(shl(0x80, 0x01), 0x01))\n      and\n      sub(shl(0x80, 0x01), 0x01)\n      dup4\n      and\n      or\n      swap1\n      sstore\n        /* \"NoBOverround.sol\":3796:3801  token */\n      sload(0x08)\n        /* \"NoBOverround.sol\":3717:3730  b = initial_b */\n      swap1\n      swap2\n      pop\n        /* \"NoBOverround.sol\":3789:3863  IERC20(token).safeTransferFrom(msg.sender, address(this), _initialSubsidy) */\n      tag_324\n      swap1\n      sub(shl(0xa0, 0x01), 0x01)\n        /* \"NoBOverround.sol\":3796:3801  token */\n      and\n        /* \"NoBOverround.sol\":3820:3830  msg.sender */\n      caller\n        /* \"NoBOverround.sol\":3840:3844  this */\n      address\n        /* \"NoBOverround.sol\":3847:3862  _initialSubsidy */\n      dup8\n        /* \"NoBOverround.sol\":3789:3819  IERC20(token).safeTransferFrom */\n      tag_325\n        /* \"NoBOverround.sol\":3789:3863  IERC20(token).safeTransferFrom(msg.sender, address(this), _initialSubsidy) */\n      jump\t// in\n    tag_324:\n        /* \"NoBOverround.sol\":3874:3880  uint i */\n      0x00\n        /* \"NoBOverround.sol\":3870:3968  for(uint i=0; i<_numOutcomes; i++) {... */\n    tag_326:\n        /* \"NoBOverround.sol\":3886:3898  _numOutcomes */\n      dup7\n        /* \"NoBOverround.sol\":3884:3885  i */\n      dup2\n        /* \"NoBOverround.sol\":3884:3898  i<_numOutcomes */\n      lt\n        /* \"NoBOverround.sol\":3870:3968  for(uint i=0; i<_numOutcomes; i++) {... */\n      iszero\n      tag_327\n      jumpi\n        /* \"NoBOverround.sol\":3913:3914  q */\n      0x02\n        /* \"NoBOverround.sol\":3913:3922  q.push(0) */\n      dup1\n      sload\n      0x01\n      dup1\n      dup3\n      add\n      dup4\n      sstore\n      0x00\n      dup4\n      swap1\n      mstore\n      0x405787fa12a823e0f2b7631cc41b3ba8828b3321ca811111fa75cd3aa3bb5ace\n      swap3\n      dup3\n      div\n      swap3\n      swap1\n      swap3\n      add\n      dup1\n      sload\n      swap2\n      dup4\n      and\n      0x10\n      mul\n      0x0100\n      exp\n      sub(shl(0x80, 0x01), 0x01)\n      mul\n      not\n      swap1\n      swap2\n      and\n      swap1\n      sstore\n        /* \"NoBOverround.sol\":3900:3903  i++ */\n      add\n        /* \"NoBOverround.sol\":3870:3968  for(uint i=0; i<_numOutcomes; i++) {... */\n      jump(tag_326)\n    tag_327:\n      pop\n        /* \"NoBOverround.sol\":3974:3978  init */\n      0x08\n        /* \"NoBOverround.sol\":3974:3985  init = true */\n      dup1\n      sload\n      0xffffffffffffffffffffff00ffffffffffffffffffffffffffffffffffffffff\n      and\n      shl(0xa0, 0x01)\n      or\n      swap1\n      sstore\n        /* \"NoBOverround.sol\":4020:4035  initial_subsidy */\n      sload(0x04)\n        /* \"NoBOverround.sol\":4007:4039  ABDKMath.mul(initial_subsidy, n) */\n      tag_330\n      swap1\n      shl(0x80, 0x01)\n        /* \"NoBOverround.sol\":4020:4035  initial_subsidy */\n      swap1\n      div\n      0x0f\n      signextend\n        /* \"NoBOverround.sol\":4037:4038  n */\n      dup4\n        /* \"NoBOverround.sol\":4007:4019  ABDKMath.mul */\n      tag_194\n        /* \"NoBOverround.sol\":4007:4039  ABDKMath.mul(initial_subsidy, n) */\n      jump\t// in\n    tag_330:\n        /* \"NoBOverround.sol\":3992:4004  total_shares */\n      0x04\n        /* \"NoBOverround.sol\":3992:4039  total_shares = ABDKMath.mul(initial_subsidy, n) */\n      dup1\n      sload\n      not(sub(shl(0x80, 0x01), 0x01))\n      and\n      sub(shl(0x80, 0x01), 0x01)\n      swap3\n      swap1\n      swap3\n      and\n      swap2\n      swap1\n      swap2\n      or\n      swap1\n      sstore\n        /* \"NoBOverround.sol\":4060:4066  cost() */\n      tag_331\n        /* \"NoBOverround.sol\":4060:4064  cost */\n      tag_65\n        /* \"NoBOverround.sol\":4060:4066  cost() */\n      jump\t// in\n    tag_331:\n        /* \"NoBOverround.sol\":4045:4057  current_cost */\n      0x03\n        /* \"NoBOverround.sol\":4045:4066  current_cost = cost() */\n      dup1\n      sload\n      sub(shl(0x80, 0x01), 0x01)\n      swap3\n      dup4\n      and\n      shl(0x80, 0x01)\n      mul\n      swap3\n      and\n      swap2\n      swap1\n      swap2\n      or\n      swap1\n      sstore\n        /* \"NoBOverround.sol\":4084:4116  ABDKMath.divu(_overround, 10000) */\n      tag_332\n        /* \"NoBOverround.sol\":4098:4108  _overround */\n      dup4\n        /* \"NoBOverround.sol\":4110:4115  10000 */\n      0x2710\n        /* \"NoBOverround.sol\":4084:4097  ABDKMath.divu */\n      tag_204\n        /* \"NoBOverround.sol\":4084:4116  ABDKMath.divu(_overround, 10000) */\n      jump\t// in\n    tag_332:\n        /* \"NoBOverround.sol\":4072:4081  overround */\n      0x05\n        /* \"NoBOverround.sol\":4072:4116  overround = ABDKMath.divu(_overround, 10000) */\n      dup1\n      sload\n      not(sub(shl(0x80, 0x01), 0x01))\n      and\n      sub(shl(0x80, 0x01), 0x01)\n      swap3\n      swap1\n      swap3\n      and\n      swap2\n      swap1\n      swap2\n      or\n      swap1\n      sstore\n      pop\n      pop\n      pop\n      pop\n      pop\n      pop\n      pop\n      pop\n        /* \"NoBOverround.sol\":3178:4121  function setup(... */\n      jump\t// out\n        /* \"NoBOverround.sol\":12800:12951  function generateQuestionId(string memory uniqueString) public pure returns (bytes32) {... */\n    tag_87:\n        /* \"NoBOverround.sol\":12877:12884  bytes32 */\n      0x00\n        /* \"NoBOverround.sol\":12930:12942  uniqueString */\n      dup2\n        /* \"NoBOverround.sol\":12913:12943  abi.encodePacked(uniqueString) */\n      add(0x20, mload(0x40))\n      tag_334\n      swap2\n      swap1\n      tag_335\n      jump\t// in\n    tag_334:\n      mload(0x40)\n      0x20\n      dup2\n      dup4\n      sub\n      sub\n      dup2\n      mstore\n      swap1\n      0x40\n      mstore\n        /* \"NoBOverround.sol\":12903:12944  keccak256(abi.encodePacked(uniqueString)) */\n      dup1\n      mload\n      swap1\n      0x20\n      add\n      keccak256\n        /* \"NoBOverround.sol\":12896:12944  return keccak256(abi.encodePacked(uniqueString)) */\n      swap1\n      pop\n        /* \"NoBOverround.sol\":12800:12951  function generateQuestionId(string memory uniqueString) public pure returns (bytes32) {... */\n      swap2\n      swap1\n      pop\n      jump\t// out\n        /* \"NoBOverround.sol\":18907:19277  function getPositionInfo(uint256 _outcome) public view returns (uint256 positionId, uint256 balance) {... */\n    tag_92:\n        /* \"NoBOverround.sol\":18971:18989  uint256 positionId */\n      0x00\n        /* \"NoBOverround.sol\":18991:19006  uint256 balance */\n      dup1\n        /* \"NoBOverround.sol\":19033:19044  numOutcomes */\n      sload(0x01)\n        /* \"NoBOverround.sol\":19022:19030  _outcome */\n      dup4\n        /* \"NoBOverround.sol\":19022:19044  _outcome < numOutcomes */\n      lt\n        /* \"NoBOverround.sol\":19014:19070  require(_outcome < numOutcomes, \"Invalid outcome index\") */\n      tag_337\n      jumpi\n      mload(0x40)\n      shl(0xe5, 0x461bcd)\n      dup2\n      mstore\n        /* \"#utility.yul\":12033:12035   */\n      0x20\n        /* \"NoBOverround.sol\":19014:19070  require(_outcome < numOutcomes, \"Invalid outcome index\") */\n      0x04\n      dup3\n      add\n        /* \"#utility.yul\":12015:12036   */\n      mstore\n        /* \"#utility.yul\":12072:12074   */\n      0x15\n        /* \"#utility.yul\":12052:12070   */\n      0x24\n      dup3\n      add\n        /* \"#utility.yul\":12045:12075   */\n      mstore\n      shl(0x5b, 0x092dcecc2d8d2c840deeae8c6dedaca40d2dcc8caf)\n        /* \"#utility.yul\":12091:12109   */\n      0x44\n      dup3\n      add\n        /* \"#utility.yul\":12084:12135   */\n      mstore\n        /* \"#utility.yul\":12152:12170   */\n      0x64\n      add\n        /* \"NoBOverround.sol\":19014:19070  require(_outcome < numOutcomes, \"Invalid outcome index\") */\n      tag_189\n        /* \"#utility.yul\":11831:12176   */\n      jump\n        /* \"NoBOverround.sol\":19014:19070  require(_outcome < numOutcomes, \"Invalid outcome index\") */\n    tag_337:\n        /* \"NoBOverround.sol\":19099:19101  CT */\n      sload(0x07)\n        /* \"NoBOverround.sol\":19130:19139  condition */\n      sload(0x06)\n        /* \"NoBOverround.sol\":19099:19155  CT.getCollectionId(bytes32(0), condition, 1 << _outcome) */\n      mload(0x40)\n      shl(0xe0, 0x856296f7)\n      dup2\n      mstore\n        /* \"NoBOverround.sol\":19076:19096  bytes32 collectionId */\n      0x00\n        /* \"NoBOverround.sol\":19099:19155  CT.getCollectionId(bytes32(0), condition, 1 << _outcome) */\n      0x04\n      dup3\n      add\n        /* \"#utility.yul\":14533:14558   */\n      dup2\n      swap1\n      mstore\n        /* \"#utility.yul\":14574:14592   */\n      0x24\n      dup3\n      add\n        /* \"#utility.yul\":14567:14601   */\n      swap3\n      swap1\n      swap3\n      mstore\n        /* \"NoBOverround.sol\":19099:19101  CT */\n      0x01\n        /* \"NoBOverround.sol\":19141:19154  1 << _outcome */\n      dup7\n      shl\n        /* \"#utility.yul\":14617:14635   */\n      0x44\n      dup3\n      add\n        /* \"#utility.yul\":14610:14644   */\n      mstore\n        /* \"NoBOverround.sol\":19076:19096  bytes32 collectionId */\n      swap1\n      swap2\n      sub(shl(0xa0, 0x01), 0x01)\n        /* \"NoBOverround.sol\":19099:19101  CT */\n      and\n      swap1\n        /* \"NoBOverround.sol\":19099:19117  CT.getCollectionId */\n      0x856296f7\n      swap1\n        /* \"#utility.yul\":14506:14524   */\n      0x64\n      add\n        /* \"NoBOverround.sol\":19099:19155  CT.getCollectionId(bytes32(0), condition, 1 << _outcome) */\n      0x20\n      mload(0x40)\n      dup1\n      dup4\n      sub\n      dup2\n      dup7\n      gas\n      staticcall\n      iszero\n      dup1\n      iszero\n      tag_342\n      jumpi\n      returndatasize\n      0x00\n      dup1\n      returndatacopy\n      revert(0x00, returndatasize)\n    tag_342:\n      pop\n      pop\n      pop\n      pop\n      mload(0x40)\n      returndatasize\n      not(0x1f)\n      0x1f\n      dup3\n      add\n      and\n      dup3\n      add\n      dup1\n      0x40\n      mstore\n      pop\n      dup2\n      add\n      swap1\n      tag_343\n      swap2\n      swap1\n      tag_234\n      jump\t// in\n    tag_343:\n        /* \"NoBOverround.sol\":19174:19176  CT */\n      sload(0x07)\n        /* \"NoBOverround.sol\":19198:19203  token */\n      sload(0x08)\n        /* \"NoBOverround.sol\":19174:19219  CT.getPositionId(IERC20(token), collectionId) */\n      mload(0x40)\n      shl(0xe4, 0x039dd753)\n      dup2\n      mstore\n      sub(shl(0xa0, 0x01), 0x01)\n        /* \"NoBOverround.sol\":19198:19203  token */\n      swap2\n      dup3\n      and\n        /* \"NoBOverround.sol\":19174:19219  CT.getPositionId(IERC20(token), collectionId) */\n      0x04\n      dup3\n      add\n        /* \"#utility.yul\":14845:14919   */\n      mstore\n        /* \"#utility.yul\":14935:14953   */\n      0x24\n      dup2\n      add\n        /* \"#utility.yul\":14928:14962   */\n      dup5\n      swap1\n      mstore\n        /* \"NoBOverround.sol\":19076:19155  bytes32 collectionId = CT.getCollectionId(bytes32(0), condition, 1 << _outcome) */\n      swap3\n      swap4\n      pop\n        /* \"NoBOverround.sol\":19174:19176  CT */\n      and\n      swap1\n        /* \"NoBOverround.sol\":19174:19190  CT.getPositionId */\n      0x39dd7530\n      swap1\n        /* \"#utility.yul\":14818:14836   */\n      0x44\n      add\n        /* \"NoBOverround.sol\":19174:19219  CT.getPositionId(IERC20(token), collectionId) */\n      0x20\n      mload(0x40)\n      dup1\n      dup4\n      sub\n      dup2\n      dup7\n      gas\n      staticcall\n      iszero\n      dup1\n      iszero\n      tag_347\n      jumpi\n      returndatasize\n      0x00\n      dup1\n      returndatacopy\n      revert(0x00, returndatasize)\n    tag_347:\n      pop\n      pop\n      pop\n      pop\n      mload(0x40)\n      returndatasize\n      not(0x1f)\n      0x1f\n      dup3\n      add\n      and\n      dup3\n      add\n      dup1\n      0x40\n      mstore\n      pop\n      dup2\n      add\n      swap1\n      tag_348\n      swap2\n      swap1\n      tag_234\n      jump\t// in\n    tag_348:\n        /* \"NoBOverround.sol\":19235:19237  CT */\n      sload(0x07)\n        /* \"NoBOverround.sol\":19235:19274  CT.balanceOf(address(this), positionId) */\n      mload(0x40)\n      shl(0xe1, 0x7eeac7)\n      dup2\n      mstore\n        /* \"NoBOverround.sol\":19256:19260  this */\n      address\n        /* \"NoBOverround.sol\":19235:19274  CT.balanceOf(address(this), positionId) */\n      0x04\n      dup3\n      add\n        /* \"#utility.yul\":14845:14919   */\n      mstore\n        /* \"#utility.yul\":14935:14953   */\n      0x24\n      dup2\n      add\n        /* \"#utility.yul\":14928:14962   */\n      dup4\n      swap1\n      mstore\n        /* \"NoBOverround.sol\":19161:19219  positionId = CT.getPositionId(IERC20(token), collectionId) */\n      swap2\n      swap5\n      pop\n      sub(shl(0xa0, 0x01), 0x01)\n        /* \"NoBOverround.sol\":19235:19237  CT */\n      and\n      swap1\n        /* \"NoBOverround.sol\":19235:19247  CT.balanceOf */\n      0xfdd58e\n      swap1\n        /* \"#utility.yul\":14818:14836   */\n      0x44\n      add\n        /* \"NoBOverround.sol\":19235:19274  CT.balanceOf(address(this), positionId) */\n      0x20\n      mload(0x40)\n      dup1\n      dup4\n      sub\n      dup2\n      dup7\n      gas\n      staticcall\n      iszero\n      dup1\n      iszero\n      tag_352\n      jumpi\n      returndatasize\n      0x00\n      dup1\n      returndatacopy\n      revert(0x00, returndatasize)\n    tag_352:\n      pop\n      pop\n      pop\n      pop\n      mload(0x40)\n      returndatasize\n      not(0x1f)\n      0x1f\n      dup3\n      add\n      and\n      dup3\n      add\n      dup1\n      0x40\n      mstore\n      pop\n      dup2\n      add\n      swap1\n      tag_353\n      swap2\n      swap1\n      tag_234\n      jump\t// in\n    tag_353:\n        /* \"NoBOverround.sol\":19225:19274  balance = CT.balanceOf(address(this), positionId) */\n      swap2\n      pop\n        /* \"NoBOverround.sol\":19008:19277  {... */\n      pop\n        /* \"NoBOverround.sol\":18907:19277  function getPositionInfo(uint256 _outcome) public view returns (uint256 positionId, uint256 balance) {... */\n      swap2\n      pop\n      swap2\n      jump\t// out\n        /* \"NoBOverround.sol\":17177:17940  function addLiquidity(uint _amount) public onlyOwner {... */\n    tag_97:\n        /* \"@openzeppelin/contracts/access/Ownable.sol\":1531:1544   */\n      tag_355\n        /* \"@openzeppelin/contracts/access/Ownable.sol\":1531:1542   */\n      tag_228\n        /* \"@openzeppelin/contracts/access/Ownable.sol\":1531:1544   */\n      jump\t// in\n    tag_355:\n        /* \"NoBOverround.sol\":17293:17298  token */\n      sload(0x08)\n        /* \"NoBOverround.sol\":17286:17352  IERC20(token).safeTransferFrom(msg.sender, address(this), _amount) */\n      tag_357\n      swap1\n      sub(shl(0xa0, 0x01), 0x01)\n        /* \"NoBOverround.sol\":17293:17298  token */\n      and\n        /* \"NoBOverround.sol\":17317:17327  msg.sender */\n      caller\n        /* \"NoBOverround.sol\":17337:17341  this */\n      address\n        /* \"NoBOverround.sol\":17344:17351  _amount */\n      dup5\n        /* \"NoBOverround.sol\":17286:17316  IERC20(token).safeTransferFrom */\n      tag_325\n        /* \"NoBOverround.sol\":17286:17352  IERC20(token).safeTransferFrom(msg.sender, address(this), _amount) */\n      jump\t// in\n    tag_357:\n        /* \"NoBOverround.sol\":17427:17432  token */\n      sload(0x08)\n        /* \"NoBOverround.sol\":17398:17412  int128 subsidy */\n      0x00\n      swap1\n        /* \"NoBOverround.sol\":17415:17442  getTokenEth(token, _amount) */\n      tag_358\n      swap1\n      sub(shl(0xa0, 0x01), 0x01)\n        /* \"NoBOverround.sol\":17427:17432  token */\n      and\n        /* \"NoBOverround.sol\":17434:17441  _amount */\n      dup4\n        /* \"NoBOverround.sol\":17415:17426  getTokenEth */\n      tag_61\n        /* \"NoBOverround.sol\":17415:17442  getTokenEth(token, _amount) */\n      jump\t// in\n    tag_358:\n        /* \"NoBOverround.sol\":17398:17442  int128 subsidy = getTokenEth(token, _amount) */\n      swap1\n      pop\n        /* \"NoBOverround.sol\":17492:17498  uint i */\n      0x00\n        /* \"NoBOverround.sol\":17487:17577  for (uint i = 0; i < numOutcomes; i++) {... */\n    tag_359:\n        /* \"NoBOverround.sol\":17508:17519  numOutcomes */\n      sload(0x01)\n        /* \"NoBOverround.sol\":17504:17505  i */\n      dup2\n        /* \"NoBOverround.sol\":17504:17519  i < numOutcomes */\n      lt\n        /* \"NoBOverround.sol\":17487:17577  for (uint i = 0; i < numOutcomes; i++) {... */\n      iszero\n      tag_360\n      jumpi\n        /* \"NoBOverround.sol\":17543:17570  ABDKMath.add(q[i], subsidy) */\n      tag_362\n        /* \"NoBOverround.sol\":17556:17557  q */\n      0x02\n        /* \"NoBOverround.sol\":17558:17559  i */\n      dup3\n        /* \"NoBOverround.sol\":17556:17560  q[i] */\n      dup2\n      sload\n      dup2\n      lt\n      tag_364\n      jumpi\n      tag_364\n      tag_216\n      jump\t// in\n    tag_364:\n      swap1\n      0x00\n      mstore\n      keccak256(0x00, 0x20)\n      swap1\n      0x02\n      swap2\n      dup3\n      dup3\n      div\n      add\n      swap2\n      swap1\n      mod\n      0x10\n      mul\n      swap1\n      sload\n      swap1\n      0x0100\n      exp\n      swap1\n      div\n      0x0f\n      signextend\n        /* \"NoBOverround.sol\":17562:17569  subsidy */\n      dup4\n        /* \"NoBOverround.sol\":17543:17555  ABDKMath.add */\n      tag_220\n        /* \"NoBOverround.sol\":17543:17570  ABDKMath.add(q[i], subsidy) */\n      jump\t// in\n    tag_362:\n        /* \"NoBOverround.sol\":17536:17537  q */\n      0x02\n        /* \"NoBOverround.sol\":17538:17539  i */\n      dup3\n        /* \"NoBOverround.sol\":17536:17540  q[i] */\n      dup2\n      sload\n      dup2\n      lt\n      tag_367\n      jumpi\n      tag_367\n      tag_216\n      jump\t// in\n    tag_367:\n      0x00\n      swap2\n      dup3\n      mstore\n      0x20\n      swap1\n      swap2\n      keccak256\n      0x02\n      dup3\n      div\n      add\n        /* \"NoBOverround.sol\":17536:17570  q[i] = ABDKMath.add(q[i], subsidy) */\n      dup1\n      sload\n      sub(shl(0x80, 0x01), 0x01)\n      swap4\n      dup5\n      and\n        /* \"NoBOverround.sol\":17536:17540  q[i] */\n      0x10\n      0x01\n      swap5\n      dup6\n      and\n      mul\n        /* \"NoBOverround.sol\":17536:17570  q[i] = ABDKMath.add(q[i], subsidy) */\n      0x0100\n      exp\n      swap1\n      dup2\n      mul\n      swap5\n      mul\n      not\n      and\n      swap3\n      swap1\n      swap3\n      or\n      swap1\n      swap2\n      sstore\n        /* \"NoBOverround.sol\":17521:17524  i++ */\n      add\n        /* \"NoBOverround.sol\":17487:17577  for (uint i = 0; i < numOutcomes; i++) {... */\n      jump(tag_359)\n    tag_360:\n      pop\n        /* \"NoBOverround.sol\":17641:17653  total_shares */\n      sload(0x04)\n      0x01\n        /* \"NoBOverround.sol\":17695:17706  numOutcomes */\n      sload\n        /* \"NoBOverround.sol\":17628:17709  ABDKMath.add(total_shares, ABDKMath.mul(subsidy, ABDKMath.fromUInt(numOutcomes))) */\n      tag_369\n      swap2\n        /* \"NoBOverround.sol\":17641:17653  total_shares */\n      0x0f\n      signextend\n      swap1\n        /* \"NoBOverround.sol\":17655:17708  ABDKMath.mul(subsidy, ABDKMath.fromUInt(numOutcomes)) */\n      tag_212\n      swap1\n        /* \"NoBOverround.sol\":17668:17675  subsidy */\n      dup5\n      swap1\n        /* \"NoBOverround.sol\":17677:17707  ABDKMath.fromUInt(numOutcomes) */\n      tag_222\n      swap1\n        /* \"NoBOverround.sol\":17677:17694  ABDKMath.fromUInt */\n      tag_322\n        /* \"NoBOverround.sol\":17677:17707  ABDKMath.fromUInt(numOutcomes) */\n      jump\t// in\n        /* \"NoBOverround.sol\":17628:17709  ABDKMath.add(total_shares, ABDKMath.mul(subsidy, ABDKMath.fromUInt(numOutcomes))) */\n    tag_369:\n        /* \"NoBOverround.sol\":17613:17625  total_shares */\n      0x04\n        /* \"NoBOverround.sol\":17613:17709  total_shares = ABDKMath.add(total_shares, ABDKMath.mul(subsidy, ABDKMath.fromUInt(numOutcomes))) */\n      dup1\n      sload\n      not(sub(shl(0x80, 0x01), 0x01))\n      and\n      sub(shl(0x80, 0x01), 0x01)\n      swap3\n      swap1\n      swap3\n      and\n      swap2\n      swap1\n      swap2\n      or\n      swap1\n      sstore\n        /* \"NoBOverround.sol\":17863:17869  cost() */\n      tag_372\n        /* \"NoBOverround.sol\":17863:17867  cost */\n      tag_65\n        /* \"NoBOverround.sol\":17863:17869  cost() */\n      jump\t// in\n    tag_372:\n        /* \"NoBOverround.sol\":17848:17860  current_cost */\n      0x03\n        /* \"NoBOverround.sol\":17848:17869  current_cost = cost() */\n      dup1\n      sload\n      sub(shl(0x80, 0x01), 0x01)\n      swap3\n      dup4\n      and\n      shl(0x80, 0x01)\n      mul\n      swap3\n      and\n      swap2\n      swap1\n      swap2\n      or\n      swap1\n      sstore\n        /* \"NoBOverround.sol\":17902:17937  LiquidityAdded(msg.sender, _amount) */\n      mload(0x40)\n        /* \"NoBOverround.sol\":17917:17927  msg.sender */\n      caller\n      swap1\n        /* \"NoBOverround.sol\":17902:17937  LiquidityAdded(msg.sender, _amount) */\n      0xc17cea59c2955cb181b03393209566960365771dbba9dc3d510180e7cb312088\n      swap1\n      tag_373\n      swap1\n        /* \"NoBOverround.sol\":17929:17936  _amount */\n      dup6\n        /* \"#utility.yul\":1274:1299   */\n      dup2\n      mstore\n        /* \"#utility.yul\":1262:1264   */\n      0x20\n        /* \"#utility.yul\":1247:1265   */\n      add\n      swap1\n        /* \"#utility.yul\":1128:1305   */\n      jump\n        /* \"NoBOverround.sol\":17902:17937  LiquidityAdded(msg.sender, _amount) */\n    tag_373:\n      mload(0x40)\n      dup1\n      swap2\n      sub\n      swap1\n      log2\n        /* \"NoBOverround.sol\":17230:17940  {... */\n      pop\n        /* \"NoBOverround.sol\":17177:17940  function addLiquidity(uint _amount) public onlyOwner {... */\n      pop\n      jump\t// out\n        /* \"NoBOverround.sol\":10374:10536  function sellingPrice(... */\n    tag_101:\n        /* \"NoBOverround.sol\":10463:10469  int128 */\n      0x00\n        /* \"NoBOverround.sol\":10499:10533  cost_after_buy(_outcome, -_amount) */\n      tag_375\n        /* \"NoBOverround.sol\":10514:10522  _outcome */\n      dup4\n        /* \"NoBOverround.sol\":10524:10532  -_amount */\n      tag_109\n        /* \"NoBOverround.sol\":10525:10532  _amount */\n      dup5\n        /* \"NoBOverround.sol\":10524:10532  -_amount */\n      tag_377\n      jump\t// in\n        /* \"NoBOverround.sol\":10499:10533  cost_after_buy(_outcome, -_amount) */\n    tag_375:\n        /* \"NoBOverround.sol\":10484:10496  current_cost */\n      sload(0x03)\n        /* \"NoBOverround.sol\":10484:10533  current_cost - cost_after_buy(_outcome, -_amount) */\n      tag_378\n      swap2\n      swap1\n      shl(0x80, 0x01)\n        /* \"NoBOverround.sol\":10484:10496  current_cost */\n      swap1\n      div\n      0x0f\n      signextend\n        /* \"NoBOverround.sol\":10484:10533  current_cost - cost_after_buy(_outcome, -_amount) */\n      tag_379\n      jump\t// in\n    tag_378:\n        /* \"NoBOverround.sol\":10477:10533  return current_cost - cost_after_buy(_outcome, -_amount) */\n      swap4\n        /* \"NoBOverround.sol\":10374:10536  function sellingPrice(... */\n      swap3\n      pop\n      pop\n      pop\n      jump\t// out\n        /* \"NoBOverround.sol\":17942:18262  function getAccumulatedFees() public view returns (uint) {... */\n    tag_104:\n        /* \"NoBOverround.sol\":18035:18040  token */\n      sload(0x08)\n        /* \"NoBOverround.sol\":18028:18066  IERC20(token).balanceOf(address(this)) */\n      mload(0x40)\n      shl(0xe0, 0x70a08231)\n      dup2\n      mstore\n        /* \"NoBOverround.sol\":18060:18064  this */\n      address\n        /* \"NoBOverround.sol\":18028:18066  IERC20(token).balanceOf(address(this)) */\n      0x04\n      dup3\n      add\n        /* \"#utility.yul\":5222:5296   */\n      mstore\n        /* \"NoBOverround.sol\":17993:17997  uint */\n      0x00\n      swap2\n      dup3\n      swap2\n      sub(shl(0xa0, 0x01), 0x01)\n        /* \"NoBOverround.sol\":18035:18040  token */\n      swap1\n      swap2\n      and\n      swap1\n        /* \"NoBOverround.sol\":18028:18051  IERC20(token).balanceOf */\n      0x70a08231\n      swap1\n        /* \"#utility.yul\":5195:5213   */\n      0x24\n      add\n        /* \"NoBOverround.sol\":18028:18066  IERC20(token).balanceOf(address(this)) */\n      0x20\n      mload(0x40)\n      dup1\n      dup4\n      sub\n      dup2\n      dup7\n      gas\n      staticcall\n      iszero\n      dup1\n      iszero\n      tag_383\n      jumpi\n      returndatasize\n      0x00\n      dup1\n      returndatacopy\n      revert(0x00, returndatasize)\n    tag_383:\n      pop\n      pop\n      pop\n      pop\n      mload(0x40)\n      returndatasize\n      not(0x1f)\n      0x1f\n      dup3\n      add\n      and\n      dup3\n      add\n      dup1\n      0x40\n      mstore\n      pop\n      dup2\n      add\n      swap1\n      tag_384\n      swap2\n      swap1\n      tag_234\n      jump\t// in\n    tag_384:\n        /* \"NoBOverround.sol\":18107:18112  token */\n      sload(0x08)\n        /* \"NoBOverround.sol\":18114:18126  current_cost */\n      sload(0x03)\n        /* \"NoBOverround.sol\":18005:18066  uint contractBalance = IERC20(token).balanceOf(address(this)) */\n      swap2\n      swap3\n      pop\n        /* \"NoBOverround.sol\":18072:18092  uint theoreticalCost */\n      0x00\n      swap2\n        /* \"NoBOverround.sol\":18095:18127  getTokenWei(token, current_cost) */\n      tag_385\n      swap2\n      sub(shl(0xa0, 0x01), 0x01)\n        /* \"NoBOverround.sol\":18107:18112  token */\n      and\n      swap1\n      shl(0x80, 0x01)\n        /* \"NoBOverround.sol\":18114:18126  current_cost */\n      swap1\n      div\n      0x0f\n      signextend\n        /* \"NoBOverround.sol\":18095:18106  getTokenWei */\n      tag_71\n        /* \"NoBOverround.sol\":18095:18127  getTokenWei(token, current_cost) */\n      jump\t// in\n    tag_385:\n        /* \"NoBOverround.sol\":18072:18127  uint theoreticalCost = getTokenWei(token, current_cost) */\n      swap1\n      pop\n        /* \"NoBOverround.sol\":18155:18170  theoreticalCost */\n      dup1\n        /* \"NoBOverround.sol\":18137:18152  contractBalance */\n      dup3\n        /* \"NoBOverround.sol\":18137:18170  contractBalance > theoreticalCost */\n      gt\n        /* \"NoBOverround.sol\":18133:18260  if (contractBalance > theoreticalCost) {... */\n      iszero\n      tag_386\n      jumpi\n        /* \"NoBOverround.sol\":18189:18222  contractBalance - theoreticalCost */\n      tag_387\n        /* \"NoBOverround.sol\":18207:18222  theoreticalCost */\n      dup2\n        /* \"NoBOverround.sol\":18189:18204  contractBalance */\n      dup4\n        /* \"NoBOverround.sol\":18189:18222  contractBalance - theoreticalCost */\n      tag_297\n      jump\t// in\n    tag_387:\n        /* \"NoBOverround.sol\":18182:18222  return contractBalance - theoreticalCost */\n      swap3\n      pop\n      pop\n      pop\n        /* \"NoBOverround.sol\":17942:18262  function getAccumulatedFees() public view returns (uint) {... */\n      swap1\n      jump\t// out\n        /* \"NoBOverround.sol\":18133:18260  if (contractBalance > theoreticalCost) {... */\n    tag_386:\n        /* \"NoBOverround.sol\":18252:18253  0 */\n      0x00\n        /* \"NoBOverround.sol\":18245:18253  return 0 */\n      swap3\n      pop\n      pop\n      pop\n        /* \"NoBOverround.sol\":17942:18262  function getAccumulatedFees() public view returns (uint) {... */\n      swap1\n      jump\t// out\n        /* \"@openzeppelin/contracts/access/Ownable.sol\":2293:2394   */\n    tag_107:\n        /* \"@openzeppelin/contracts/access/Ownable.sol\":1531:1544   */\n      tag_390\n        /* \"@openzeppelin/contracts/access/Ownable.sol\":1531:1542   */\n      tag_228\n        /* \"@openzeppelin/contracts/access/Ownable.sol\":1531:1544   */\n      jump\t// in\n    tag_390:\n        /* \"@openzeppelin/contracts/access/Ownable.sol\":2357:2387   */\n      tag_392\n        /* \"@openzeppelin/contracts/access/Ownable.sol\":2384:2385   */\n      0x00\n        /* \"@openzeppelin/contracts/access/Ownable.sol\":2357:2375   */\n      tag_393\n        /* \"@openzeppelin/contracts/access/Ownable.sol\":2357:2387   */\n      jump\t// in\n    tag_392:\n        /* \"@openzeppelin/contracts/access/Ownable.sol\":2293:2394   */\n      jump\t// out\n        /* \"NoBOverround.sol\":8799:9444  function cost_after_buy(... */\n    tag_110:\n        /* \"NoBOverround.sol\":8890:8896  int128 */\n      0x00\n        /* \"NoBOverround.sol\":8904:8920  int128 sum_total */\n      dup1\n        /* \"NoBOverround.sol\":8926:8946  int128[] memory newq */\n      0x00\n        /* \"NoBOverround.sol\":8962:8963  q */\n      0x02\n        /* \"NoBOverround.sol\":8962:8970  q.length */\n      dup1\n      sload\n      swap1\n      pop\n        /* \"NoBOverround.sol\":8949:8971  new int128[](q.length) */\n      0xffffffffffffffff\n      dup2\n      gt\n      iszero\n      tag_396\n      jumpi\n      tag_396\n      tag_240\n      jump\t// in\n    tag_396:\n      mload(0x40)\n      swap1\n      dup1\n      dup3\n      mstore\n      dup1\n      0x20\n      mul\n      0x20\n      add\n      dup3\n      add\n      0x40\n      mstore\n      dup1\n      iszero\n      tag_397\n      jumpi\n      dup2\n      0x20\n      add\n      0x20\n      dup3\n      mul\n      dup1\n      calldatasize\n      dup4\n      calldatacopy\n      add\n      swap1\n      pop\n    tag_397:\n      pop\n        /* \"NoBOverround.sol\":9037:9038  b */\n      sload(0x03)\n        /* \"NoBOverround.sol\":8926:8971  int128[] memory newq = new int128[](q.length) */\n      swap1\n      swap2\n      pop\n        /* \"NoBOverround.sol\":9037:9038  b */\n      0x0f\n      signextend\n        /* \"NoBOverround.sol\":9021:9034  int128 used_b */\n      0x00\n        /* \"NoBOverround.sol\":9045:9218  for(uint j=0; j< numOutcomes; j++) {... */\n    tag_398:\n        /* \"NoBOverround.sol\":9062:9073  numOutcomes */\n      sload(0x01)\n        /* \"NoBOverround.sol\":9059:9060  j */\n      dup2\n        /* \"NoBOverround.sol\":9059:9073  j< numOutcomes */\n      lt\n        /* \"NoBOverround.sol\":9045:9218  for(uint j=0; j< numOutcomes; j++) {... */\n      iszero\n      tag_399\n      jumpi\n        /* \"NoBOverround.sol\":9104:9105  1 */\n      0x01\n        /* \"NoBOverround.sol\":9104:9108  1<<j */\n      dup2\n      shl\n        /* \"NoBOverround.sol\":9092:9109  _outcome & (1<<j) */\n      dup8\n      and\n        /* \"NoBOverround.sol\":9091:9115  (_outcome & (1<<j)) != 0 */\n      iszero\n        /* \"NoBOverround.sol\":9088:9212  if((_outcome & (1<<j)) != 0) {... */\n      tag_401\n      jumpi\n        /* \"NoBOverround.sol\":9137:9164  ABDKMath.add(q[j], _amount) */\n      tag_402\n        /* \"NoBOverround.sol\":9150:9151  q */\n      0x02\n        /* \"NoBOverround.sol\":9152:9153  j */\n      dup3\n        /* \"NoBOverround.sol\":9150:9154  q[j] */\n      dup2\n      sload\n      dup2\n      lt\n      tag_404\n      jumpi\n      tag_404\n      tag_216\n      jump\t// in\n    tag_404:\n      swap1\n      0x00\n      mstore\n      keccak256(0x00, 0x20)\n      swap1\n      0x02\n      swap2\n      dup3\n      dup3\n      div\n      add\n      swap2\n      swap1\n      mod\n      0x10\n      mul\n      swap1\n      sload\n      swap1\n      0x0100\n      exp\n      swap1\n      div\n      0x0f\n      signextend\n        /* \"NoBOverround.sol\":9156:9163  _amount */\n      dup8\n        /* \"NoBOverround.sol\":9137:9149  ABDKMath.add */\n      tag_220\n        /* \"NoBOverround.sol\":9137:9164  ABDKMath.add(q[j], _amount) */\n      jump\t// in\n    tag_402:\n        /* \"NoBOverround.sol\":9127:9131  newq */\n      dup4\n        /* \"NoBOverround.sol\":9132:9133  j */\n      dup3\n        /* \"NoBOverround.sol\":9127:9134  newq[j] */\n      dup2\n      mload\n      dup2\n      lt\n      tag_407\n      jumpi\n      tag_407\n      tag_216\n      jump\t// in\n    tag_407:\n      0x20\n      mul\n      0x20\n      add\n      add\n        /* \"NoBOverround.sol\":9127:9164  newq[j] = ABDKMath.add(q[j], _amount) */\n      swap1\n      0x0f\n      signextend\n      swap1\n      dup2\n      0x0f\n      signextend\n      dup2\n      mstore\n      pop\n      pop\n        /* \"NoBOverround.sol\":9088:9212  if((_outcome & (1<<j)) != 0) {... */\n      jump(tag_408)\n    tag_401:\n        /* \"NoBOverround.sol\":9199:9200  q */\n      0x02\n        /* \"NoBOverround.sol\":9201:9202  j */\n      dup2\n        /* \"NoBOverround.sol\":9199:9203  q[j] */\n      dup2\n      sload\n      dup2\n      lt\n      tag_410\n      jumpi\n      tag_410\n      tag_216\n      jump\t// in\n    tag_410:\n      swap1\n      0x00\n      mstore\n      keccak256(0x00, 0x20)\n      swap1\n      0x02\n      swap2\n      dup3\n      dup3\n      div\n      add\n      swap2\n      swap1\n      mod\n      0x10\n      mul\n      swap1\n      sload\n      swap1\n      0x0100\n      exp\n      swap1\n      div\n      0x0f\n      signextend\n        /* \"NoBOverround.sol\":9189:9193  newq */\n      dup4\n        /* \"NoBOverround.sol\":9194:9195  j */\n      dup3\n        /* \"NoBOverround.sol\":9189:9196  newq[j] */\n      dup2\n      mload\n      dup2\n      lt\n      tag_413\n      jumpi\n      tag_413\n      tag_216\n      jump\t// in\n    tag_413:\n      0x20\n      mul\n      0x20\n      add\n      add\n        /* \"NoBOverround.sol\":9189:9203  newq[j] = q[j] */\n      swap1\n      0x0f\n      signextend\n      swap1\n      dup2\n      0x0f\n      signextend\n      dup2\n      mstore\n      pop\n      pop\n        /* \"NoBOverround.sol\":9088:9212  if((_outcome & (1<<j)) != 0) {... */\n    tag_408:\n        /* \"NoBOverround.sol\":9075:9078  j++ */\n      0x01\n      add\n        /* \"NoBOverround.sol\":9045:9218  for(uint j=0; j< numOutcomes; j++) {... */\n      jump(tag_398)\n    tag_399:\n      pop\n        /* \"NoBOverround.sol\":9228:9234  uint i */\n      0x00\n        /* \"NoBOverround.sol\":9224:9384  for(uint i=0; i< numOutcomes; i++) {... */\n    tag_414:\n        /* \"NoBOverround.sol\":9241:9252  numOutcomes */\n      sload(0x01)\n        /* \"NoBOverround.sol\":9238:9239  i */\n      dup2\n        /* \"NoBOverround.sol\":9238:9252  i< numOutcomes */\n      lt\n        /* \"NoBOverround.sol\":9224:9384  for(uint i=0; i< numOutcomes; i++) {... */\n      iszero\n      tag_415\n      jumpi\n        /* \"NoBOverround.sol\":9279:9377  ABDKMath.add(sum_total,... */\n      tag_417\n        /* \"NoBOverround.sol\":9292:9301  sum_total */\n      dup5\n        /* \"NoBOverround.sol\":9311:9376  ABDKMath.exp(... */\n      tag_212\n        /* \"NoBOverround.sol\":9335:9364  ABDKMath.div(newq[i], used_b) */\n      tag_213\n        /* \"NoBOverround.sol\":9348:9352  newq */\n      dup7\n        /* \"NoBOverround.sol\":9353:9354  i */\n      dup6\n        /* \"NoBOverround.sol\":9348:9355  newq[i] */\n      dup2\n      mload\n      dup2\n      lt\n      tag_421\n      jumpi\n      tag_421\n      tag_216\n      jump\t// in\n    tag_421:\n      0x20\n      mul\n      0x20\n      add\n      add\n      mload\n        /* \"NoBOverround.sol\":9357:9363  used_b */\n      dup7\n        /* \"NoBOverround.sol\":9335:9347  ABDKMath.div */\n      tag_218\n        /* \"NoBOverround.sol\":9335:9364  ABDKMath.div(newq[i], used_b) */\n      jump\t// in\n        /* \"NoBOverround.sol\":9279:9377  ABDKMath.add(sum_total,... */\n    tag_417:\n        /* \"NoBOverround.sol\":9267:9377  sum_total = ABDKMath.add(sum_total,... */\n      swap4\n      pop\n        /* \"NoBOverround.sol\":9254:9257  i++ */\n      0x01\n      add\n        /* \"NoBOverround.sol\":9224:9384  for(uint i=0; i< numOutcomes; i++) {... */\n      jump(tag_414)\n    tag_415:\n      pop\n        /* \"NoBOverround.sol\":9397:9441  ABDKMath.mul(used_b, ABDKMath.ln(sum_total)) */\n      tag_422\n        /* \"NoBOverround.sol\":9410:9416  used_b */\n      dup2\n        /* \"NoBOverround.sol\":9418:9440  ABDKMath.ln(sum_total) */\n      tag_222\n        /* \"NoBOverround.sol\":9430:9439  sum_total */\n      dup6\n        /* \"NoBOverround.sol\":9418:9429  ABDKMath.ln */\n      tag_223\n        /* \"NoBOverround.sol\":9418:9440  ABDKMath.ln(sum_total) */\n      jump\t// in\n        /* \"NoBOverround.sol\":9397:9441  ABDKMath.mul(used_b, ABDKMath.ln(sum_total)) */\n    tag_422:\n        /* \"NoBOverround.sol\":9390:9441  return ABDKMath.mul(used_b, ABDKMath.ln(sum_total)) */\n      swap7\n        /* \"NoBOverround.sol\":8799:9444  function cost_after_buy(... */\n      swap6\n      pop\n      pop\n      pop\n      pop\n      pop\n      pop\n      jump\t// out\n        /* \"NoBOverround.sol\":7626:8051  function getPositionAndDustPositions(... */\n    tag_123:\n        /* \"NoBOverround.sol\":7707:7723  uint256[] memory */\n      0x60\n        /* \"NoBOverround.sol\":7730:7740  uint index */\n      0x00\n        /* \"NoBOverround.sol\":7760:7761  1 */\n      0x01\n        /* \"NoBOverround.sol\":7747:7758  numOutcomes */\n      dup1\n      sload\n        /* \"NoBOverround.sol\":7744:7745  1 */\n      0x01\n        /* \"NoBOverround.sol\":7744:7758  1<<numOutcomes */\n      swap1\n      shl\n        /* \"NoBOverround.sol\":7743:7761  (1<<numOutcomes)-1 */\n      tag_426\n      swap2\n      swap1\n      tag_297\n      jump\t// in\n    tag_426:\n        /* \"NoBOverround.sol\":7730:7761  uint index = (1<<numOutcomes)-1 */\n      swap1\n      pop\n        /* \"NoBOverround.sol\":7779:7780  1 */\n      0x01\n        /* \"NoBOverround.sol\":7779:7792  1 << _outcome */\n      dup4\n      shl\n        /* \"NoBOverround.sol\":7778:7801  (1 << _outcome) ^ index */\n      dup2\n      xor\n        /* \"NoBOverround.sol\":7767:7775  uint inv */\n      0x00\n        /* \"NoBOverround.sol\":7843:7855  getOnes(inv) */\n      tag_427\n        /* \"NoBOverround.sol\":7778:7801  (1 << _outcome) ^ index */\n      dup3\n        /* \"NoBOverround.sol\":7843:7850  getOnes */\n      tag_428\n        /* \"NoBOverround.sol\":7843:7855  getOnes(inv) */\n      jump\t// in\n    tag_427:\n        /* \"NoBOverround.sol\":7843:7857  getOnes(inv)+1 */\n      tag_429\n      swap1\n        /* \"NoBOverround.sol\":7856:7857  1 */\n      0x01\n        /* \"NoBOverround.sol\":7843:7857  getOnes(inv)+1 */\n      tag_197\n      jump\t// in\n    tag_429:\n        /* \"NoBOverround.sol\":7829:7858  new uint256[](getOnes(inv)+1) */\n      0xffffffffffffffff\n      dup2\n      gt\n      iszero\n      tag_431\n      jumpi\n      tag_431\n      tag_240\n      jump\t// in\n    tag_431:\n      mload(0x40)\n      swap1\n      dup1\n      dup3\n      mstore\n      dup1\n      0x20\n      mul\n      0x20\n      add\n      dup3\n      add\n      0x40\n      mstore\n      dup1\n      iszero\n      tag_432\n      jumpi\n      dup2\n      0x20\n      add\n      0x20\n      dup3\n      mul\n      dup1\n      calldatasize\n      dup4\n      calldatacopy\n      add\n      swap1\n      pop\n    tag_432:\n      pop\n        /* \"NoBOverround.sol\":7807:7858  uint[] memory partx = new uint256[](getOnes(inv)+1) */\n      swap1\n      pop\n        /* \"NoBOverround.sol\":7864:7870  uint n */\n      0x00\n        /* \"NoBOverround.sol\":7873:7874  1 */\n      0x01\n        /* \"NoBOverround.sol\":7864:7874  uint n = 1 */\n      swap1\n      pop\n        /* \"NoBOverround.sol\":7897:7905  _outcome */\n      dup6\n        /* \"NoBOverround.sol\":7892:7893  1 */\n      0x01\n        /* \"NoBOverround.sol\":7892:7905  1 << _outcome */\n      swap1\n      shl\n        /* \"NoBOverround.sol\":7880:7885  partx */\n      dup3\n        /* \"NoBOverround.sol\":7886:7887  0 */\n      0x00\n        /* \"NoBOverround.sol\":7880:7888  partx[0] */\n      dup2\n      mload\n      dup2\n      lt\n      tag_434\n      jumpi\n      tag_434\n      tag_216\n      jump\t// in\n    tag_434:\n      0x20\n      mul\n      0x20\n      add\n      add\n        /* \"NoBOverround.sol\":7880:7906  partx[0] = (1 << _outcome) */\n      dup2\n      dup2\n      mstore\n      pop\n      pop\n        /* \"NoBOverround.sol\":7916:7922  uint i */\n      0x00\n        /* \"NoBOverround.sol\":7912:8029  for(uint i=0; i<numOutcomes; i++) {... */\n    tag_435:\n        /* \"NoBOverround.sol\":7928:7939  numOutcomes */\n      sload(0x01)\n        /* \"NoBOverround.sol\":7926:7927  i */\n      dup2\n        /* \"NoBOverround.sol\":7926:7939  i<numOutcomes */\n      lt\n        /* \"NoBOverround.sol\":7912:8029  for(uint i=0; i<numOutcomes; i++) {... */\n      iszero\n      tag_436\n      jumpi\n        /* \"NoBOverround.sol\":7964:7965  1 */\n      0x01\n        /* \"NoBOverround.sol\":7964:7968  1<<i */\n      dup2\n      shl\n        /* \"NoBOverround.sol\":7958:7968  inv & 1<<i */\n      dup5\n      and\n        /* \"NoBOverround.sol\":7957:7974  (inv & 1<<i) != 0 */\n      iszero\n        /* \"NoBOverround.sol\":7954:8023  if((inv & 1<<i) != 0) {... */\n      tag_438\n      jumpi\n        /* \"NoBOverround.sol\":8000:8001  i */\n      dup1\n        /* \"NoBOverround.sol\":7997:7998  1 */\n      0x01\n        /* \"NoBOverround.sol\":7997:8001  1<<i */\n      swap1\n      shl\n        /* \"NoBOverround.sol\":7986:7991  partx */\n      dup4\n        /* \"NoBOverround.sol\":7992:7993  n */\n      dup4\n        /* \"NoBOverround.sol\":7986:7994  partx[n] */\n      dup2\n      mload\n      dup2\n      lt\n      tag_440\n      jumpi\n      tag_440\n      tag_216\n      jump\t// in\n    tag_440:\n      0x20\n      swap1\n      dup2\n      mul\n      swap2\n      swap1\n      swap2\n      add\n      add\n        /* \"NoBOverround.sol\":7986:8001  partx[n] = 1<<i */\n      mstore\n        /* \"NoBOverround.sol\":8011:8014  n++ */\n      dup2\n      tag_441\n      dup2\n      tag_442\n      jump\t// in\n    tag_441:\n      swap3\n      pop\n      pop\n        /* \"NoBOverround.sol\":7954:8023  if((inv & 1<<i) != 0) {... */\n    tag_438:\n        /* \"NoBOverround.sol\":7941:7944  i++ */\n      0x01\n      add\n        /* \"NoBOverround.sol\":7912:8029  for(uint i=0; i<numOutcomes; i++) {... */\n      jump(tag_435)\n    tag_436:\n      pop\n        /* \"NoBOverround.sol\":8041:8046  partx */\n      swap1\n      swap6\n        /* \"NoBOverround.sol\":7626:8051  function getPositionAndDustPositions(... */\n      swap5\n      pop\n      pop\n      pop\n      pop\n      pop\n      jump\t// out\n        /* \"NoBOverround.sol\":11552:11839  function getTokenWeiDown(address _token, int128 _amount) public view returns (uint) {... */\n    tag_128:\n        /* \"NoBOverround.sol\":11630:11634  uint */\n      0x00\n        /* \"NoBOverround.sol\":11642:11648  uint d */\n      dup1\n        /* \"NoBOverround.sol\":11657:11663  _token */\n      dup4\n      sub(shl(0xa0, 0x01), 0x01)\n        /* \"NoBOverround.sol\":11651:11673  ERC20(_token).decimals */\n      and\n      0x313ce567\n        /* \"NoBOverround.sol\":11651:11675  ERC20(_token).decimals() */\n      mload(0x40)\n      dup2\n      0xffffffff\n      and\n      0xe0\n      shl\n      dup2\n      mstore\n      0x04\n      add\n      0x20\n      mload(0x40)\n      dup1\n      dup4\n      sub\n      dup2\n      dup7\n      gas\n      staticcall\n      iszero\n      dup1\n      iszero\n      tag_445\n      jumpi\n      returndatasize\n      0x00\n      dup1\n      returndatacopy\n      revert(0x00, returndatasize)\n    tag_445:\n      pop\n      pop\n      pop\n      pop\n      mload(0x40)\n      returndatasize\n      not(0x1f)\n      0x1f\n      dup3\n      add\n      and\n      dup3\n      add\n      dup1\n      0x40\n      mstore\n      pop\n      dup2\n      add\n      swap1\n      tag_446\n      swap2\n      swap1\n      tag_185\n      jump\t// in\n    tag_446:\n        /* \"NoBOverround.sol\":11642:11675  uint d = ERC20(_token).decimals() */\n      0xff\n      and\n      swap1\n      pop\n        /* \"NoBOverround.sol\":11681:11696  uint multiplier */\n      0x00\n        /* \"NoBOverround.sol\":11699:11706  10 ** d */\n      tag_447\n        /* \"NoBOverround.sol\":11642:11675  uint d = ERC20(_token).decimals() */\n      dup3\n        /* \"NoBOverround.sol\":11699:11701  10 */\n      0x0a\n        /* \"NoBOverround.sol\":11699:11706  10 ** d */\n      tag_187\n      jump\t// in\n    tag_447:\n        /* \"NoBOverround.sol\":11681:11706  uint multiplier = 10 ** d */\n      swap1\n      pop\n        /* \"NoBOverround.sol\":11731:11732  0 */\n      0x00\n        /* \"NoBOverround.sol\":11720:11727  _amount */\n      dup5\n        /* \"NoBOverround.sol\":11720:11732  _amount >= 0 */\n      0x0f\n      signextend\n      slt\n      iszero\n        /* \"NoBOverround.sol\":11712:11764  require(_amount >= 0, \"Amount must be non-negative\") */\n      tag_448\n      jumpi\n      mload(0x40)\n      shl(0xe5, 0x461bcd)\n      dup2\n      mstore\n        /* \"#utility.yul\":10324:10326   */\n      0x20\n        /* \"NoBOverround.sol\":11712:11764  require(_amount >= 0, \"Amount must be non-negative\") */\n      0x04\n      dup3\n      add\n        /* \"#utility.yul\":10306:10327   */\n      mstore\n        /* \"#utility.yul\":10363:10365   */\n      0x1b\n        /* \"#utility.yul\":10343:10361   */\n      0x24\n      dup3\n      add\n        /* \"#utility.yul\":10336:10366   */\n      mstore\n        /* \"#utility.yul\":10402:10431   */\n      0x416d6f756e74206d757374206265206e6f6e2d6e656761746976650000000000\n        /* \"#utility.yul\":10382:10400   */\n      0x44\n      dup3\n      add\n        /* \"#utility.yul\":10375:10432   */\n      mstore\n        /* \"#utility.yul\":10449:10467   */\n      0x64\n      add\n        /* \"NoBOverround.sol\":11712:11764  require(_amount >= 0, \"Amount must be non-negative\") */\n      tag_189\n        /* \"#utility.yul\":10122:10473   */\n      jump\n        /* \"NoBOverround.sol\":11712:11764  require(_amount >= 0, \"Amount must be non-negative\") */\n    tag_448:\n        /* \"NoBOverround.sol\":11777:11811  ABDKMath.mulu(_amount, multiplier) */\n      tag_195\n        /* \"NoBOverround.sol\":11791:11798  _amount */\n      dup5\n        /* \"NoBOverround.sol\":11800:11810  multiplier */\n      dup3\n        /* \"NoBOverround.sol\":11777:11790  ABDKMath.mulu */\n      tag_192\n        /* \"NoBOverround.sol\":11777:11811  ABDKMath.mulu(_amount, multiplier) */\n      jump\t// in\n        /* \"NoBOverround.sol\":13840:16819  function sell(uint256 _outcome, int128 _amount) public onlyAfterInit returns (int128 refund) {... */\n    tag_136:\n        /* \"NoBOverround.sol\":12709:12713  init */\n      sload(0x08)\n        /* \"NoBOverround.sol\":13918:13931  int128 refund */\n      0x00\n      swap1\n      shl(0xa0, 0x01)\n        /* \"NoBOverround.sol\":12709:12713  init */\n      swap1\n      div\n      0xff\n      and\n        /* \"NoBOverround.sol\":12709:12721  init == true */\n      iszero\n      iszero\n        /* \"NoBOverround.sol\":12717:12721  true */\n      0x01\n        /* \"NoBOverround.sol\":12709:12721  init == true */\n      eq\n        /* \"NoBOverround.sol\":12701:12722  require(init == true) */\n      tag_453\n      jumpi\n      0x00\n      dup1\n      revert\n    tag_453:\n        /* \"NoBOverround.sol\":13958:13969  numOutcomes */\n      sload(0x01)\n        /* \"NoBOverround.sol\":13947:13955  _outcome */\n      dup4\n        /* \"NoBOverround.sol\":13947:13969  _outcome < numOutcomes */\n      lt\n        /* \"NoBOverround.sol\":13939:13995  require(_outcome < numOutcomes, \"Invalid outcome index\") */\n      tag_455\n      jumpi\n      mload(0x40)\n      shl(0xe5, 0x461bcd)\n      dup2\n      mstore\n        /* \"#utility.yul\":12033:12035   */\n      0x20\n        /* \"NoBOverround.sol\":13939:13995  require(_outcome < numOutcomes, \"Invalid outcome index\") */\n      0x04\n      dup3\n      add\n        /* \"#utility.yul\":12015:12036   */\n      mstore\n        /* \"#utility.yul\":12072:12074   */\n      0x15\n        /* \"#utility.yul\":12052:12070   */\n      0x24\n      dup3\n      add\n        /* \"#utility.yul\":12045:12075   */\n      mstore\n      shl(0x5b, 0x092dcecc2d8d2c840deeae8c6dedaca40d2dcc8caf)\n        /* \"#utility.yul\":12091:12109   */\n      0x44\n      dup3\n      add\n        /* \"#utility.yul\":12084:12135   */\n      mstore\n        /* \"#utility.yul\":12152:12170   */\n      0x64\n      add\n        /* \"NoBOverround.sol\":13939:13995  require(_outcome < numOutcomes, \"Invalid outcome index\") */\n      tag_189\n        /* \"#utility.yul\":11831:12176   */\n      jump\n        /* \"NoBOverround.sol\":13939:13995  require(_outcome < numOutcomes, \"Invalid outcome index\") */\n    tag_455:\n        /* \"NoBOverround.sol\":14019:14020  0 */\n      0x00\n        /* \"NoBOverround.sol\":14009:14016  _amount */\n      dup3\n        /* \"NoBOverround.sol\":14009:14020  _amount > 0 */\n      0x0f\n      signextend\n      sgt\n        /* \"NoBOverround.sol\":14001:14048  require(_amount > 0, \"Amount must be positive\") */\n      tag_457\n      jumpi\n      mload(0x40)\n      shl(0xe5, 0x461bcd)\n      dup2\n      mstore\n        /* \"#utility.yul\":16089:16091   */\n      0x20\n        /* \"NoBOverround.sol\":14001:14048  require(_amount > 0, \"Amount must be positive\") */\n      0x04\n      dup3\n      add\n        /* \"#utility.yul\":16071:16092   */\n      mstore\n        /* \"#utility.yul\":16128:16130   */\n      0x17\n        /* \"#utility.yul\":16108:16126   */\n      0x24\n      dup3\n      add\n        /* \"#utility.yul\":16101:16131   */\n      mstore\n        /* \"#utility.yul\":16167:16192   */\n      0x416d6f756e74206d75737420626520706f736974697665000000000000000000\n        /* \"#utility.yul\":16147:16165   */\n      0x44\n      dup3\n      add\n        /* \"#utility.yul\":16140:16193   */\n      mstore\n        /* \"#utility.yul\":16210:16228   */\n      0x64\n      add\n        /* \"NoBOverround.sol\":14001:14048  require(_amount > 0, \"Amount must be positive\") */\n      tag_189\n        /* \"#utility.yul\":15887:16234   */\n      jump\n        /* \"NoBOverround.sol\":14001:14048  require(_amount > 0, \"Amount must be positive\") */\n    tag_457:\n        /* \"NoBOverround.sol\":14062:14064  CT */\n      sload(0x07)\n        /* \"NoBOverround.sol\":14083:14092  condition */\n      sload(0x06)\n        /* \"NoBOverround.sol\":14062:14093  CT.payoutDenominator(condition) */\n      mload(0x40)\n      shl(0xe0, 0xdd34de67)\n      dup2\n      mstore\n      sub(shl(0xa0, 0x01), 0x01)\n        /* \"NoBOverround.sol\":14062:14064  CT */\n      swap1\n      swap3\n      and\n      swap2\n        /* \"NoBOverround.sol\":14062:14082  CT.payoutDenominator */\n      0xdd34de67\n      swap2\n        /* \"NoBOverround.sol\":14062:14093  CT.payoutDenominator(condition) */\n      tag_460\n      swap2\n      0x04\n      add\n        /* \"#utility.yul\":1274:1299   */\n      swap1\n      dup2\n      mstore\n        /* \"#utility.yul\":1262:1264   */\n      0x20\n        /* \"#utility.yul\":1247:1265   */\n      add\n      swap1\n        /* \"#utility.yul\":1128:1305   */\n      jump\n        /* \"NoBOverround.sol\":14062:14093  CT.payoutDenominator(condition) */\n    tag_460:\n      0x20\n      mload(0x40)\n      dup1\n      dup4\n      sub\n      dup2\n      dup7\n      gas\n      staticcall\n      iszero\n      dup1\n      iszero\n      tag_462\n      jumpi\n      returndatasize\n      0x00\n      dup1\n      returndatacopy\n      revert(0x00, returndatasize)\n    tag_462:\n      pop\n      pop\n      pop\n      pop\n      mload(0x40)\n      returndatasize\n      not(0x1f)\n      0x1f\n      dup3\n      add\n      and\n      dup3\n      add\n      dup1\n      0x40\n      mstore\n      pop\n      dup2\n      add\n      swap1\n      tag_463\n      swap2\n      swap1\n      tag_234\n      jump\t// in\n    tag_463:\n        /* \"NoBOverround.sol\":14062:14098  CT.payoutDenominator(condition) == 0 */\n      iszero\n        /* \"NoBOverround.sol\":14054:14126  require(CT.payoutDenominator(condition) == 0, \"Market already resolved\") */\n      tag_464\n      jumpi\n      mload(0x40)\n      shl(0xe5, 0x461bcd)\n      dup2\n      mstore\n        /* \"#utility.yul\":16441:16443   */\n      0x20\n        /* \"NoBOverround.sol\":14054:14126  require(CT.payoutDenominator(condition) == 0, \"Market already resolved\") */\n      0x04\n      dup3\n      add\n        /* \"#utility.yul\":16423:16444   */\n      mstore\n        /* \"#utility.yul\":16480:16482   */\n      0x17\n        /* \"#utility.yul\":16460:16478   */\n      0x24\n      dup3\n      add\n        /* \"#utility.yul\":16453:16483   */\n      mstore\n        /* \"#utility.yul\":16519:16544   */\n      0x4d61726b657420616c7265616479207265736f6c766564000000000000000000\n        /* \"#utility.yul\":16499:16517   */\n      0x44\n      dup3\n      add\n        /* \"#utility.yul\":16492:16545   */\n      mstore\n        /* \"#utility.yul\":16562:16580   */\n      0x64\n      add\n        /* \"NoBOverround.sol\":14054:14126  require(CT.payoutDenominator(condition) == 0, \"Market already resolved\") */\n      tag_189\n        /* \"#utility.yul\":16239:16586   */\n      jump\n        /* \"NoBOverround.sol\":14054:14126  require(CT.payoutDenominator(condition) == 0, \"Market already resolved\") */\n    tag_464:\n        /* \"NoBOverround.sol\":14155:14162  _amount */\n      dup2\n        /* \"NoBOverround.sol\":14140:14162  q[_outcome] >= _amount */\n      0x0f\n      signextend\n        /* \"NoBOverround.sol\":14140:14141  q */\n      0x02\n        /* \"NoBOverround.sol\":14142:14150  _outcome */\n      dup5\n        /* \"NoBOverround.sol\":14140:14151  q[_outcome] */\n      dup2\n      sload\n      dup2\n      lt\n      tag_468\n      jumpi\n      tag_468\n      tag_216\n      jump\t// in\n    tag_468:\n      0x00\n      swap2\n      dup3\n      mstore\n      0x20\n      swap1\n      swap2\n      keccak256\n      0x02\n      dup3\n      div\n      add\n      sload\n      0x01\n      swap1\n      swap2\n      and\n      0x10\n      mul\n      0x0100\n      exp\n      swap1\n      div\n      0x0f\n      signextend\n        /* \"NoBOverround.sol\":14140:14162  q[_outcome] >= _amount */\n      slt\n      iszero\n        /* \"NoBOverround.sol\":14132:14192  require(q[_outcome] >= _amount, \"Not enough shares to sell\") */\n      tag_470\n      jumpi\n      mload(0x40)\n      shl(0xe5, 0x461bcd)\n      dup2\n      mstore\n        /* \"#utility.yul\":16793:16795   */\n      0x20\n        /* \"NoBOverround.sol\":14132:14192  require(q[_outcome] >= _amount, \"Not enough shares to sell\") */\n      0x04\n      dup3\n      add\n        /* \"#utility.yul\":16775:16796   */\n      mstore\n        /* \"#utility.yul\":16832:16834   */\n      0x19\n        /* \"#utility.yul\":16812:16830   */\n      0x24\n      dup3\n      add\n        /* \"#utility.yul\":16805:16835   */\n      mstore\n        /* \"#utility.yul\":16871:16898   */\n      0x4e6f7420656e6f7567682073686172657320746f2073656c6c00000000000000\n        /* \"#utility.yul\":16851:16869   */\n      0x44\n      dup3\n      add\n        /* \"#utility.yul\":16844:16899   */\n      mstore\n        /* \"#utility.yul\":16916:16934   */\n      0x64\n      add\n        /* \"NoBOverround.sol\":14132:14192  require(q[_outcome] >= _amount, \"Not enough shares to sell\") */\n      tag_189\n        /* \"#utility.yul\":16591:16940   */\n      jump\n        /* \"NoBOverround.sol\":14132:14192  require(q[_outcome] >= _amount, \"Not enough shares to sell\") */\n    tag_470:\n        /* \"NoBOverround.sol\":14249:14264  int128 new_cost */\n      0x00\n        /* \"NoBOverround.sol\":14266:14280  int128 refund_ */\n      dup1\n        /* \"NoBOverround.sol\":14282:14305  int128 new_total_shares */\n      0x00\n        /* \"NoBOverround.sol\":14309:14406  _calculateSellRefund(... */\n      tag_473\n        /* \"NoBOverround.sol\":14339:14340  q */\n      0x02\n        /* \"NoBOverround.sol\":14309:14406  _calculateSellRefund(... */\n      dup1\n      sload\n      dup1\n      0x20\n      mul\n      0x20\n      add\n      mload(0x40)\n      swap1\n      dup2\n      add\n      0x40\n      mstore\n      dup1\n      swap3\n      swap2\n      swap1\n      dup2\n      dup2\n      mstore\n      0x20\n      add\n      dup3\n      dup1\n      sload\n      dup1\n      iszero\n      tag_474\n      jumpi\n      0x20\n      mul\n      dup3\n      add\n      swap2\n      swap1\n      0x00\n      mstore\n      keccak256(0x00, 0x20)\n      swap1\n      0x00\n      swap1\n    tag_475:\n      dup3\n      sload\n      0x0100\n      dup4\n      swap1\n      exp\n      swap1\n      div\n      0x0f\n      signextend\n      dup2\n      mstore\n      0x20\n      0x1f\n      dup4\n      add\n      dup2\n      swap1\n      div\n      swap4\n      dup5\n      add\n      swap4\n      0x01\n      sub\n      0x10\n      swap1\n      swap4\n      add\n      swap3\n      swap1\n      swap3\n      mul\n      swap2\n      add\n      dup1\n      dup5\n      gt\n      tag_475\n      jumpi\n      swap1\n      pop\n    tag_474:\n      pop\n      pop\n        /* \"NoBOverround.sol\":14361:14373  total_shares */\n      sload(0x04)\n        /* \"NoBOverround.sol\":14375:14387  current_cost */\n      sload(0x03)\n        /* \"NoBOverround.sol\":14361:14373  total_shares */\n      0x01\n        /* \"NoBOverround.sol\":14389:14400  numOutcomes */\n      sload\n        /* \"NoBOverround.sol\":14342:14350  _outcome */\n      dup14\n      swap6\n      pop\n        /* \"NoBOverround.sol\":14352:14359  _amount */\n      dup13\n      swap5\n      pop\n        /* \"NoBOverround.sol\":14361:14373  total_shares */\n      0x0f\n      swap3\n      dup4\n      signextend\n      swap4\n      pop\n      shl(0x80, 0x01)\n        /* \"NoBOverround.sol\":14375:14387  current_cost */\n      swap1\n      swap2\n      div\n      swap1\n      swap2\n      signextend\n      swap1\n        /* \"NoBOverround.sol\":14309:14329  _calculateSellRefund */\n      tag_476\n        /* \"NoBOverround.sol\":14309:14406  _calculateSellRefund(... */\n      jump\t// in\n    tag_473:\n        /* \"NoBOverround.sol\":14488:14493  token */\n      sload(0x08)\n        /* \"NoBOverround.sol\":14248:14406  (int128 new_cost, int128 refund_, int128 new_total_shares) = _calculateSellRefund(... */\n      swap3\n      swap6\n      pop\n      swap1\n      swap4\n      pop\n      swap2\n      pop\n        /* \"NoBOverround.sol\":14448:14469  uint n_outcome_tokens */\n      0x00\n      swap1\n        /* \"NoBOverround.sol\":14472:14503  getTokenWeiDown(token, _amount) */\n      tag_477\n      swap1\n      sub(shl(0xa0, 0x01), 0x01)\n        /* \"NoBOverround.sol\":14488:14493  token */\n      and\n        /* \"NoBOverround.sol\":14495:14502  _amount */\n      dup8\n        /* \"NoBOverround.sol\":14472:14487  getTokenWeiDown */\n      tag_128\n        /* \"NoBOverround.sol\":14472:14503  getTokenWeiDown(token, _amount) */\n      jump\t// in\n    tag_477:\n        /* \"NoBOverround.sol\":14520:14522  CT */\n      sload(0x07)\n        /* \"NoBOverround.sol\":14544:14549  token */\n      sload(0x08)\n        /* \"NoBOverround.sol\":14583:14592  condition */\n      sload(0x06)\n        /* \"NoBOverround.sol\":14552:14608  CT.getCollectionId(bytes32(0), condition, 1 << _outcome) */\n      mload(0x40)\n      shl(0xe0, 0x856296f7)\n      dup2\n      mstore\n        /* \"NoBOverround.sol\":14509:14517  uint pos */\n      0x00\n        /* \"NoBOverround.sol\":14552:14608  CT.getCollectionId(bytes32(0), condition, 1 << _outcome) */\n      0x04\n      dup3\n      add\n        /* \"#utility.yul\":14533:14558   */\n      dup2\n      swap1\n      mstore\n        /* \"#utility.yul\":14574:14592   */\n      0x24\n      dup3\n      add\n        /* \"#utility.yul\":14567:14601   */\n      swap3\n      swap1\n      swap3\n      mstore\n        /* \"NoBOverround.sol\":14520:14522  CT */\n      0x01\n        /* \"NoBOverround.sol\":14594:14607  1 << _outcome */\n      dup13\n      shl\n        /* \"#utility.yul\":14617:14635   */\n      0x44\n      dup3\n      add\n        /* \"#utility.yul\":14610:14644   */\n      mstore\n        /* \"NoBOverround.sol\":14448:14503  uint n_outcome_tokens = getTokenWeiDown(token, _amount) */\n      swap4\n      swap5\n      pop\n        /* \"NoBOverround.sol\":14509:14517  uint pos */\n      swap3\n      sub(shl(0xa0, 0x01), 0x01)\n        /* \"NoBOverround.sol\":14520:14522  CT */\n      swap3\n      dup4\n      and\n      swap3\n        /* \"NoBOverround.sol\":14520:14536  CT.getPositionId */\n      0x39dd7530\n      swap3\n        /* \"NoBOverround.sol\":14544:14549  token */\n      and\n      swap1\n        /* \"NoBOverround.sol\":14520:14522  CT */\n      dup4\n      swap1\n        /* \"NoBOverround.sol\":14552:14570  CT.getCollectionId */\n      0x856296f7\n      swap1\n        /* \"#utility.yul\":14506:14524   */\n      0x64\n      add\n        /* \"NoBOverround.sol\":14552:14608  CT.getCollectionId(bytes32(0), condition, 1 << _outcome) */\n      0x20\n      mload(0x40)\n      dup1\n      dup4\n      sub\n      dup2\n      dup7\n      gas\n      staticcall\n      iszero\n      dup1\n      iszero\n      tag_480\n      jumpi\n      returndatasize\n      0x00\n      dup1\n      returndatacopy\n      revert(0x00, returndatasize)\n    tag_480:\n      pop\n      pop\n      pop\n      pop\n      mload(0x40)\n      returndatasize\n      not(0x1f)\n      0x1f\n      dup3\n      add\n      and\n      dup3\n      add\n      dup1\n      0x40\n      mstore\n      pop\n      dup2\n      add\n      swap1\n      tag_481\n      swap2\n      swap1\n      tag_234\n      jump\t// in\n    tag_481:\n        /* \"NoBOverround.sol\":14520:14609  CT.getPositionId(IERC20(token), CT.getCollectionId(bytes32(0), condition, 1 << _outcome)) */\n      mload(0x40)\n      not(sub(shl(0xe0, 0x01), 0x01))\n      0xe0\n      dup6\n      swap1\n      shl\n      and\n      dup2\n      mstore\n      sub(shl(0xa0, 0x01), 0x01)\n        /* \"#utility.yul\":14863:14918   */\n      swap1\n      swap3\n      and\n        /* \"NoBOverround.sol\":14520:14609  CT.getPositionId(IERC20(token), CT.getCollectionId(bytes32(0), condition, 1 << _outcome)) */\n      0x04\n      dup4\n      add\n        /* \"#utility.yul\":14845:14919   */\n      mstore\n        /* \"#utility.yul\":14935:14953   */\n      0x24\n      dup3\n      add\n        /* \"#utility.yul\":14928:14962   */\n      mstore\n        /* \"#utility.yul\":14818:14836   */\n      0x44\n      add\n        /* \"NoBOverround.sol\":14520:14609  CT.getPositionId(IERC20(token), CT.getCollectionId(bytes32(0), condition, 1 << _outcome)) */\n      0x20\n      mload(0x40)\n      dup1\n      dup4\n      sub\n      dup2\n      dup7\n      gas\n      staticcall\n      iszero\n      dup1\n      iszero\n      tag_484\n      jumpi\n      returndatasize\n      0x00\n      dup1\n      returndatacopy\n      revert(0x00, returndatasize)\n    tag_484:\n      pop\n      pop\n      pop\n      pop\n      mload(0x40)\n      returndatasize\n      not(0x1f)\n      0x1f\n      dup3\n      add\n      and\n      dup3\n      add\n      dup1\n      0x40\n      mstore\n      pop\n      dup2\n      add\n      swap1\n      tag_485\n      swap2\n      swap1\n      tag_234\n      jump\t// in\n    tag_485:\n        /* \"NoBOverround.sol\":14624:14626  CT */\n      sload(0x07)\n        /* \"NoBOverround.sol\":14624:14697  CT.safeTransferFrom(msg.sender, address(this), pos, n_outcome_tokens, \"\") */\n      mload(0x40)\n      shl(0xe1, 0x79212195)\n      dup2\n      mstore\n        /* \"NoBOverround.sol\":14644:14654  msg.sender */\n      caller\n        /* \"NoBOverround.sol\":14624:14697  CT.safeTransferFrom(msg.sender, address(this), pos, n_outcome_tokens, \"\") */\n      0x04\n      dup3\n      add\n        /* \"#utility.yul\":17301:17335   */\n      mstore\n        /* \"NoBOverround.sol\":14664:14668  this */\n      address\n        /* \"#utility.yul\":17351:17369   */\n      0x24\n      dup3\n      add\n        /* \"#utility.yul\":17344:17387   */\n      mstore\n        /* \"#utility.yul\":17403:17421   */\n      0x44\n      dup2\n      add\n        /* \"#utility.yul\":17396:17430   */\n      dup4\n      swap1\n      mstore\n        /* \"#utility.yul\":17446:17464   */\n      0x64\n      dup2\n      add\n        /* \"#utility.yul\":17439:17473   */\n      dup6\n      swap1\n      mstore\n        /* \"#utility.yul\":17510:17513   */\n      0xa0\n        /* \"#utility.yul\":17489:17508   */\n      0x84\n      dup3\n      add\n        /* \"#utility.yul\":17482:17514   */\n      mstore\n      0x00\n        /* \"#utility.yul\":17530:17549   */\n      0xa4\n      dup3\n      add\n        /* \"#utility.yul\":17523:17553   */\n      mstore\n        /* \"NoBOverround.sol\":14509:14609  uint pos = CT.getPositionId(IERC20(token), CT.getCollectionId(bytes32(0), condition, 1 << _outcome)) */\n      swap2\n      swap3\n      pop\n      sub(shl(0xa0, 0x01), 0x01)\n        /* \"NoBOverround.sol\":14624:14626  CT */\n      and\n      swap1\n        /* \"NoBOverround.sol\":14624:14643  CT.safeTransferFrom */\n      0xf242432a\n      swap1\n        /* \"#utility.yul\":17570:17589   */\n      0xc4\n      add\n        /* \"NoBOverround.sol\":14624:14697  CT.safeTransferFrom(msg.sender, address(this), pos, n_outcome_tokens, \"\") */\n      0x00\n      mload(0x40)\n      dup1\n      dup4\n      sub\n      dup2\n      0x00\n      dup8\n      dup1\n      extcodesize\n      iszero\n      dup1\n      iszero\n      tag_488\n      jumpi\n      0x00\n      dup1\n      revert\n    tag_488:\n      pop\n      gas\n      call\n      swap3\n      pop\n      pop\n      pop\n      dup1\n      iszero\n      tag_489\n      jumpi\n      pop\n      0x01\n    tag_489:\n        /* \"NoBOverround.sol\":14620:14924  try CT.safeTransferFrom(msg.sender, address(this), pos, n_outcome_tokens, \"\") {... */\n      tag_490\n      jumpi\n      tag_494\n      tag_495\n      jump\t// in\n    tag_494:\n      dup1\n      0x08c379a0\n      sub\n      tag_493\n      jumpi\n      pop\n      tag_496\n      tag_497\n      jump\t// in\n    tag_496:\n      dup1\n      tag_498\n      jumpi\n      pop\n      jump(tag_492)\n    tag_498:\n        /* \"NoBOverround.sol\":14785:14838  SplitPositionError(\"safeTransferFrom failed\", reason) */\n      0xbd1dcaeca35ae4a65142e160b7e80d67e7d37f2145f209d9c29b7e4daf85ba37\n        /* \"NoBOverround.sol\":14831:14837  reason */\n      dup2\n        /* \"NoBOverround.sol\":14785:14838  SplitPositionError(\"safeTransferFrom failed\", reason) */\n      mload(0x40)\n      tag_499\n      swap2\n      swap1\n      tag_500\n      jump\t// in\n    tag_499:\n      mload(0x40)\n      dup1\n      swap2\n      sub\n      swap1\n      log1\n        /* \"NoBOverround.sol\":14908:14914  reason */\n      dup1\n        /* \"NoBOverround.sol\":14862:14915  abi.encodePacked(\"safeTransferFrom failed: \", reason) */\n      add(0x20, mload(0x40))\n      tag_501\n      swap2\n      swap1\n      tag_502\n      jump\t// in\n    tag_501:\n      0x40\n      dup1\n      mload\n      not(0x1f)\n      dup2\n      dup5\n      sub\n      add\n      dup2\n      mstore\n      swap1\n      dup3\n      swap1\n      mstore\n      shl(0xe5, 0x461bcd)\n        /* \"NoBOverround.sol\":14848:14917  revert(string(abi.encodePacked(\"safeTransferFrom failed: \", reason))) */\n      dup3\n      mstore\n      tag_189\n      swap2\n      0x04\n      add\n      tag_504\n      jump\t// in\n        /* \"NoBOverround.sol\":14620:14924  try CT.safeTransferFrom(msg.sender, address(this), pos, n_outcome_tokens, \"\") {... */\n    tag_493:\n      pop\n    tag_492:\n      returndatasize\n      0x00\n      dup1\n      returndatacopy\n      revert(0x00, returndatasize)\n    tag_490:\n        /* \"NoBOverround.sol\":15009:15032  uint[] memory partition */\n      0x00\n        /* \"NoBOverround.sol\":15035:15072  getPositionAndDustPositions(_outcome) */\n      tag_506\n        /* \"NoBOverround.sol\":15063:15071  _outcome */\n      dup10\n        /* \"NoBOverround.sol\":15035:15062  getPositionAndDustPositions */\n      tag_123\n        /* \"NoBOverround.sol\":15035:15072  getPositionAndDustPositions(_outcome) */\n      jump\t// in\n    tag_506:\n        /* \"NoBOverround.sol\":15009:15072  uint[] memory partition = getPositionAndDustPositions(_outcome) */\n      swap1\n      pop\n        /* \"NoBOverround.sol\":15094:15098  true */\n      0x01\n        /* \"NoBOverround.sol\":15078:15091  bool canMerge */\n      0x00\n        /* \"NoBOverround.sol\":15109:15431  for (uint i = 0; i < partition.length; i++) {... */\n    tag_507:\n        /* \"NoBOverround.sol\":15130:15139  partition */\n      dup3\n        /* \"NoBOverround.sol\":15130:15146  partition.length */\n      mload\n        /* \"NoBOverround.sol\":15126:15127  i */\n      dup2\n        /* \"NoBOverround.sol\":15126:15146  i < partition.length */\n      lt\n        /* \"NoBOverround.sol\":15109:15431  for (uint i = 0; i < partition.length; i++) {... */\n      iszero\n      tag_508\n      jumpi\n        /* \"NoBOverround.sol\":15176:15178  CT */\n      sload(0x07)\n        /* \"NoBOverround.sol\":15200:15205  token */\n      sload(0x08)\n        /* \"NoBOverround.sol\":15239:15248  condition */\n      sload(0x06)\n        /* \"NoBOverround.sol\":15250:15262  partition[i] */\n      dup6\n      mload\n        /* \"NoBOverround.sol\":15163:15173  uint posId */\n      0x00\n      swap4\n      sub(shl(0xa0, 0x01), 0x01)\n        /* \"NoBOverround.sol\":15176:15178  CT */\n      swap1\n      dup2\n      and\n      swap4\n        /* \"NoBOverround.sol\":15176:15192  CT.getPositionId */\n      0x39dd7530\n      swap4\n        /* \"NoBOverround.sol\":15200:15205  token */\n      swap2\n      and\n      swap2\n        /* \"NoBOverround.sol\":15176:15178  CT */\n      dup5\n      swap2\n        /* \"NoBOverround.sol\":15208:15226  CT.getCollectionId */\n      0x856296f7\n      swap2\n        /* \"NoBOverround.sol\":15163:15173  uint posId */\n      dup8\n      swap2\n        /* \"NoBOverround.sol\":15239:15248  condition */\n      swap1\n        /* \"NoBOverround.sol\":15250:15259  partition */\n      dup12\n      swap1\n        /* \"NoBOverround.sol\":15260:15261  i */\n      dup11\n      swap1\n        /* \"NoBOverround.sol\":15250:15262  partition[i] */\n      dup2\n      lt\n      tag_511\n      jumpi\n      tag_511\n      tag_216\n      jump\t// in\n    tag_511:\n      0x20\n      mul\n      0x20\n      add\n      add\n      mload\n        /* \"NoBOverround.sol\":15208:15263  CT.getCollectionId(bytes32(0), condition, partition[i]) */\n      mload(0x40)\n      dup5\n      0xffffffff\n      and\n      0xe0\n      shl\n      dup2\n      mstore\n      0x04\n      add\n      tag_512\n      swap4\n      swap3\n      swap2\n      swap1\n        /* \"#utility.yul\":14533:14558   */\n      swap3\n      dup4\n      mstore\n        /* \"#utility.yul\":14589:14591   */\n      0x20\n        /* \"#utility.yul\":14574:14592   */\n      dup4\n      add\n        /* \"#utility.yul\":14567:14601   */\n      swap2\n      swap1\n      swap2\n      mstore\n        /* \"#utility.yul\":14632:14634   */\n      0x40\n        /* \"#utility.yul\":14617:14635   */\n      dup3\n      add\n        /* \"#utility.yul\":14610:14644   */\n      mstore\n        /* \"#utility.yul\":14521:14523   */\n      0x60\n        /* \"#utility.yul\":14506:14524   */\n      add\n      swap1\n        /* \"#utility.yul\":14331:14650   */\n      jump\n        /* \"NoBOverround.sol\":15208:15263  CT.getCollectionId(bytes32(0), condition, partition[i]) */\n    tag_512:\n      0x20\n      mload(0x40)\n      dup1\n      dup4\n      sub\n      dup2\n      dup7\n      gas\n      staticcall\n      iszero\n      dup1\n      iszero\n      tag_514\n      jumpi\n      returndatasize\n      0x00\n      dup1\n      returndatacopy\n      revert(0x00, returndatasize)\n    tag_514:\n      pop\n      pop\n      pop\n      pop\n      mload(0x40)\n      returndatasize\n      not(0x1f)\n      0x1f\n      dup3\n      add\n      and\n      dup3\n      add\n      dup1\n      0x40\n      mstore\n      pop\n      dup2\n      add\n      swap1\n      tag_515\n      swap2\n      swap1\n      tag_234\n      jump\t// in\n    tag_515:\n        /* \"NoBOverround.sol\":15176:15264  CT.getPositionId(IERC20(token), CT.getCollectionId(bytes32(0), condition, partition[i])) */\n      mload(0x40)\n      not(sub(shl(0xe0, 0x01), 0x01))\n      0xe0\n      dup6\n      swap1\n      shl\n      and\n      dup2\n      mstore\n      sub(shl(0xa0, 0x01), 0x01)\n        /* \"#utility.yul\":14863:14918   */\n      swap1\n      swap3\n      and\n        /* \"NoBOverround.sol\":15176:15264  CT.getPositionId(IERC20(token), CT.getCollectionId(bytes32(0), condition, partition[i])) */\n      0x04\n      dup4\n      add\n        /* \"#utility.yul\":14845:14919   */\n      mstore\n        /* \"#utility.yul\":14935:14953   */\n      0x24\n      dup3\n      add\n        /* \"#utility.yul\":14928:14962   */\n      mstore\n        /* \"#utility.yul\":14818:14836   */\n      0x44\n      add\n        /* \"NoBOverround.sol\":15176:15264  CT.getPositionId(IERC20(token), CT.getCollectionId(bytes32(0), condition, partition[i])) */\n      0x20\n      mload(0x40)\n      dup1\n      dup4\n      sub\n      dup2\n      dup7\n      gas\n      staticcall\n      iszero\n      dup1\n      iszero\n      tag_518\n      jumpi\n      returndatasize\n      0x00\n      dup1\n      returndatacopy\n      revert(0x00, returndatasize)\n    tag_518:\n      pop\n      pop\n      pop\n      pop\n      mload(0x40)\n      returndatasize\n      not(0x1f)\n      0x1f\n      dup3\n      add\n      and\n      dup3\n      add\n      dup1\n      0x40\n      mstore\n      pop\n      dup2\n      add\n      swap1\n      tag_519\n      swap2\n      swap1\n      tag_234\n      jump\t// in\n    tag_519:\n        /* \"NoBOverround.sol\":15289:15291  CT */\n      sload(0x07)\n        /* \"NoBOverround.sol\":15289:15323  CT.balanceOf(address(this), posId) */\n      mload(0x40)\n      shl(0xe1, 0x7eeac7)\n      dup2\n      mstore\n        /* \"NoBOverround.sol\":15310:15314  this */\n      address\n        /* \"NoBOverround.sol\":15289:15323  CT.balanceOf(address(this), posId) */\n      0x04\n      dup3\n      add\n        /* \"#utility.yul\":14845:14919   */\n      mstore\n        /* \"#utility.yul\":14935:14953   */\n      0x24\n      dup2\n      add\n        /* \"#utility.yul\":14928:14962   */\n      dup4\n      swap1\n      mstore\n        /* \"NoBOverround.sol\":15163:15264  uint posId = CT.getPositionId(IERC20(token), CT.getCollectionId(bytes32(0), condition, partition[i])) */\n      swap2\n      swap3\n      pop\n        /* \"NoBOverround.sol\":15274:15286  uint balance */\n      0x00\n      swap2\n      sub(shl(0xa0, 0x01), 0x01)\n        /* \"NoBOverround.sol\":15289:15291  CT */\n      swap1\n      swap2\n      and\n      swap1\n        /* \"NoBOverround.sol\":15289:15301  CT.balanceOf */\n      0xfdd58e\n      swap1\n        /* \"#utility.yul\":14818:14836   */\n      0x44\n      add\n        /* \"NoBOverround.sol\":15289:15323  CT.balanceOf(address(this), posId) */\n      0x20\n      mload(0x40)\n      dup1\n      dup4\n      sub\n      dup2\n      dup7\n      gas\n      staticcall\n      iszero\n      dup1\n      iszero\n      tag_522\n      jumpi\n      returndatasize\n      0x00\n      dup1\n      returndatacopy\n      revert(0x00, returndatasize)\n    tag_522:\n      pop\n      pop\n      pop\n      pop\n      mload(0x40)\n      returndatasize\n      not(0x1f)\n      0x1f\n      dup3\n      add\n      and\n      dup3\n      add\n      dup1\n      0x40\n      mstore\n      pop\n      dup2\n      add\n      swap1\n      tag_523\n      swap2\n      swap1\n      tag_234\n      jump\t// in\n    tag_523:\n        /* \"NoBOverround.sol\":15274:15323  uint balance = CT.balanceOf(address(this), posId) */\n      swap1\n      pop\n        /* \"NoBOverround.sol\":15347:15363  n_outcome_tokens */\n      dup7\n        /* \"NoBOverround.sol\":15337:15344  balance */\n      dup2\n        /* \"NoBOverround.sol\":15337:15363  balance < n_outcome_tokens */\n      lt\n        /* \"NoBOverround.sol\":15333:15425  if (balance < n_outcome_tokens) {... */\n      iszero\n      tag_524\n      jumpi\n        /* \"NoBOverround.sol\":15390:15395  false */\n      0x00\n        /* \"NoBOverround.sol\":15379:15395  canMerge = false */\n      swap4\n      pop\n        /* \"NoBOverround.sol\":15409:15414  break */\n      pop\n      pop\n      jump(tag_508)\n        /* \"NoBOverround.sol\":15333:15425  if (balance < n_outcome_tokens) {... */\n    tag_524:\n      pop\n      pop\n        /* \"NoBOverround.sol\":15148:15151  i++ */\n      0x01\n      add\n        /* \"NoBOverround.sol\":15109:15431  for (uint i = 0; i < partition.length; i++) {... */\n      jump(tag_507)\n    tag_508:\n      pop\n        /* \"NoBOverround.sol\":15445:15453  canMerge */\n      dup1\n        /* \"NoBOverround.sol\":15441:16487  if (canMerge) {... */\n      iszero\n      tag_525\n      jumpi\n        /* \"NoBOverround.sol\":15516:15518  CT */\n      sload(0x07)\n        /* \"NoBOverround.sol\":15541:15546  token */\n      sload(0x08)\n        /* \"NoBOverround.sol\":15561:15570  condition */\n      sload(0x06)\n        /* \"NoBOverround.sol\":15516:15600  CT.mergePositions(IERC20(token), bytes32(0), condition, partition, n_outcome_tokens) */\n      mload(0x40)\n      shl(0xe0, 0x9e7212ad)\n      dup2\n      mstore\n      sub(shl(0xa0, 0x01), 0x01)\n        /* \"NoBOverround.sol\":15516:15518  CT */\n      swap4\n      dup5\n      and\n      swap4\n        /* \"NoBOverround.sol\":15516:15533  CT.mergePositions */\n      0x9e7212ad\n      swap4\n        /* \"NoBOverround.sol\":15516:15600  CT.mergePositions(IERC20(token), bytes32(0), condition, partition, n_outcome_tokens) */\n      tag_526\n      swap4\n        /* \"NoBOverround.sol\":15541:15546  token */\n      swap2\n      and\n      swap2\n        /* \"NoBOverround.sol\":15516:15518  CT */\n      0x00\n      swap2\n        /* \"NoBOverround.sol\":15561:15570  condition */\n      swap1\n        /* \"NoBOverround.sol\":15572:15581  partition */\n      dup9\n      swap1\n        /* \"NoBOverround.sol\":15583:15599  n_outcome_tokens */\n      dup12\n      swap1\n        /* \"NoBOverround.sol\":15516:15600  CT.mergePositions(IERC20(token), bytes32(0), condition, partition, n_outcome_tokens) */\n      0x04\n      add\n      tag_527\n      jump\t// in\n    tag_526:\n      0x00\n      mload(0x40)\n      dup1\n      dup4\n      sub\n      dup2\n      0x00\n      dup8\n      dup1\n      extcodesize\n      iszero\n      dup1\n      iszero\n      tag_528\n      jumpi\n      0x00\n      dup1\n      revert\n    tag_528:\n      pop\n      gas\n      call\n      iszero\n      dup1\n      iszero\n      tag_530\n      jumpi\n      returndatasize\n      0x00\n      dup1\n      returndatacopy\n      revert(0x00, returndatasize)\n    tag_530:\n      pop\n      pop\n      pop\n      pop\n        /* \"NoBOverround.sol\":15441:16487  if (canMerge) {... */\n      jump(tag_531)\n    tag_525:\n        /* \"NoBOverround.sol\":15699:15705  uint i */\n      0x00\n        /* \"NoBOverround.sol\":15694:16359  for (uint i = 0; i < partition.length; i++) {... */\n    tag_532:\n        /* \"NoBOverround.sol\":15715:15724  partition */\n      dup3\n        /* \"NoBOverround.sol\":15715:15731  partition.length */\n      mload\n        /* \"NoBOverround.sol\":15711:15712  i */\n      dup2\n        /* \"NoBOverround.sol\":15711:15731  i < partition.length */\n      lt\n        /* \"NoBOverround.sol\":15694:16359  for (uint i = 0; i < partition.length; i++) {... */\n      iszero\n      tag_533\n      jumpi\n        /* \"NoBOverround.sol\":15765:15767  CT */\n      sload(0x07)\n        /* \"NoBOverround.sol\":15789:15794  token */\n      sload(0x08)\n        /* \"NoBOverround.sol\":15828:15837  condition */\n      sload(0x06)\n        /* \"NoBOverround.sol\":15839:15851  partition[i] */\n      dup6\n      mload\n        /* \"NoBOverround.sol\":15752:15762  uint posId */\n      0x00\n      swap4\n      sub(shl(0xa0, 0x01), 0x01)\n        /* \"NoBOverround.sol\":15765:15767  CT */\n      swap1\n      dup2\n      and\n      swap4\n        /* \"NoBOverround.sol\":15765:15781  CT.getPositionId */\n      0x39dd7530\n      swap4\n        /* \"NoBOverround.sol\":15789:15794  token */\n      swap2\n      and\n      swap2\n        /* \"NoBOverround.sol\":15765:15767  CT */\n      dup5\n      swap2\n        /* \"NoBOverround.sol\":15797:15815  CT.getCollectionId */\n      0x856296f7\n      swap2\n        /* \"NoBOverround.sol\":15752:15762  uint posId */\n      dup8\n      swap2\n        /* \"NoBOverround.sol\":15828:15837  condition */\n      swap1\n        /* \"NoBOverround.sol\":15839:15848  partition */\n      dup12\n      swap1\n        /* \"NoBOverround.sol\":15849:15850  i */\n      dup11\n      swap1\n        /* \"NoBOverround.sol\":15839:15851  partition[i] */\n      dup2\n      lt\n      tag_536\n      jumpi\n      tag_536\n      tag_216\n      jump\t// in\n    tag_536:\n      0x20\n      mul\n      0x20\n      add\n      add\n      mload\n        /* \"NoBOverround.sol\":15797:15852  CT.getCollectionId(bytes32(0), condition, partition[i]) */\n      mload(0x40)\n      dup5\n      0xffffffff\n      and\n      0xe0\n      shl\n      dup2\n      mstore\n      0x04\n      add\n      tag_537\n      swap4\n      swap3\n      swap2\n      swap1\n        /* \"#utility.yul\":14533:14558   */\n      swap3\n      dup4\n      mstore\n        /* \"#utility.yul\":14589:14591   */\n      0x20\n        /* \"#utility.yul\":14574:14592   */\n      dup4\n      add\n        /* \"#utility.yul\":14567:14601   */\n      swap2\n      swap1\n      swap2\n      mstore\n        /* \"#utility.yul\":14632:14634   */\n      0x40\n        /* \"#utility.yul\":14617:14635   */\n      dup3\n      add\n        /* \"#utility.yul\":14610:14644   */\n      mstore\n        /* \"#utility.yul\":14521:14523   */\n      0x60\n        /* \"#utility.yul\":14506:14524   */\n      add\n      swap1\n        /* \"#utility.yul\":14331:14650   */\n      jump\n        /* \"NoBOverround.sol\":15797:15852  CT.getCollectionId(bytes32(0), condition, partition[i]) */\n    tag_537:\n      0x20\n      mload(0x40)\n      dup1\n      dup4\n      sub\n      dup2\n      dup7\n      gas\n      staticcall\n      iszero\n      dup1\n      iszero\n      tag_539\n      jumpi\n      returndatasize\n      0x00\n      dup1\n      returndatacopy\n      revert(0x00, returndatasize)\n    tag_539:\n      pop\n      pop\n      pop\n      pop\n      mload(0x40)\n      returndatasize\n      not(0x1f)\n      0x1f\n      dup3\n      add\n      and\n      dup3\n      add\n      dup1\n      0x40\n      mstore\n      pop\n      dup2\n      add\n      swap1\n      tag_540\n      swap2\n      swap1\n      tag_234\n      jump\t// in\n    tag_540:\n        /* \"NoBOverround.sol\":15765:15853  CT.getPositionId(IERC20(token), CT.getCollectionId(bytes32(0), condition, partition[i])) */\n      mload(0x40)\n      not(sub(shl(0xe0, 0x01), 0x01))\n      0xe0\n      dup6\n      swap1\n      shl\n      and\n      dup2\n      mstore\n      sub(shl(0xa0, 0x01), 0x01)\n        /* \"#utility.yul\":14863:14918   */\n      swap1\n      swap3\n      and\n        /* \"NoBOverround.sol\":15765:15853  CT.getPositionId(IERC20(token), CT.getCollectionId(bytes32(0), condition, partition[i])) */\n      0x04\n      dup4\n      add\n        /* \"#utility.yul\":14845:14919   */\n      mstore\n        /* \"#utility.yul\":14935:14953   */\n      0x24\n      dup3\n      add\n        /* \"#utility.yul\":14928:14962   */\n      mstore\n        /* \"#utility.yul\":14818:14836   */\n      0x44\n      add\n        /* \"NoBOverround.sol\":15765:15853  CT.getPositionId(IERC20(token), CT.getCollectionId(bytes32(0), condition, partition[i])) */\n      0x20\n      mload(0x40)\n      dup1\n      dup4\n      sub\n      dup2\n      dup7\n      gas\n      staticcall\n      iszero\n      dup1\n      iszero\n      tag_543\n      jumpi\n      returndatasize\n      0x00\n      dup1\n      returndatacopy\n      revert(0x00, returndatasize)\n    tag_543:\n      pop\n      pop\n      pop\n      pop\n      mload(0x40)\n      returndatasize\n      not(0x1f)\n      0x1f\n      dup3\n      add\n      and\n      dup3\n      add\n      dup1\n      0x40\n      mstore\n      pop\n      dup2\n      add\n      swap1\n      tag_544\n      swap2\n      swap1\n      tag_234\n      jump\t// in\n    tag_544:\n        /* \"NoBOverround.sol\":15882:15884  CT */\n      sload(0x07)\n        /* \"NoBOverround.sol\":15882:15916  CT.balanceOf(address(this), posId) */\n      mload(0x40)\n      shl(0xe1, 0x7eeac7)\n      dup2\n      mstore\n        /* \"NoBOverround.sol\":15903:15907  this */\n      address\n        /* \"NoBOverround.sol\":15882:15916  CT.balanceOf(address(this), posId) */\n      0x04\n      dup3\n      add\n        /* \"#utility.yul\":14845:14919   */\n      mstore\n        /* \"#utility.yul\":14935:14953   */\n      0x24\n      dup2\n      add\n        /* \"#utility.yul\":14928:14962   */\n      dup4\n      swap1\n      mstore\n        /* \"NoBOverround.sol\":15752:15853  uint posId = CT.getPositionId(IERC20(token), CT.getCollectionId(bytes32(0), condition, partition[i])) */\n      swap2\n      swap3\n      pop\n        /* \"NoBOverround.sol\":15867:15879  uint balance */\n      0x00\n      swap2\n      sub(shl(0xa0, 0x01), 0x01)\n        /* \"NoBOverround.sol\":15882:15884  CT */\n      swap1\n      swap2\n      and\n      swap1\n        /* \"NoBOverround.sol\":15882:15894  CT.balanceOf */\n      0xfdd58e\n      swap1\n        /* \"#utility.yul\":14818:14836   */\n      0x44\n      add\n        /* \"NoBOverround.sol\":15882:15916  CT.balanceOf(address(this), posId) */\n      0x20\n      mload(0x40)\n      dup1\n      dup4\n      sub\n      dup2\n      dup7\n      gas\n      staticcall\n      iszero\n      dup1\n      iszero\n      tag_547\n      jumpi\n      returndatasize\n      0x00\n      dup1\n      returndatacopy\n      revert(0x00, returndatasize)\n    tag_547:\n      pop\n      pop\n      pop\n      pop\n      mload(0x40)\n      returndatasize\n      not(0x1f)\n      0x1f\n      dup3\n      add\n      and\n      dup3\n      add\n      dup1\n      0x40\n      mstore\n      pop\n      dup2\n      add\n      swap1\n      tag_548\n      swap2\n      swap1\n      tag_234\n      jump\t// in\n    tag_548:\n        /* \"NoBOverround.sol\":15867:15916  uint balance = CT.balanceOf(address(this), posId) */\n      swap1\n      pop\n        /* \"NoBOverround.sol\":15944:15960  n_outcome_tokens */\n      dup7\n        /* \"NoBOverround.sol\":15934:15941  balance */\n      dup2\n        /* \"NoBOverround.sol\":15934:15960  balance < n_outcome_tokens */\n      lt\n        /* \"NoBOverround.sol\":15930:16349  if (balance < n_outcome_tokens) {... */\n      iszero\n      tag_549\n      jumpi\n        /* \"NoBOverround.sol\":15980:15991  uint needed */\n      0x00\n        /* \"NoBOverround.sol\":15994:16020  n_outcome_tokens - balance */\n      tag_550\n        /* \"NoBOverround.sol\":16013:16020  balance */\n      dup3\n        /* \"NoBOverround.sol\":15994:16010  n_outcome_tokens */\n      dup10\n        /* \"NoBOverround.sol\":15994:16020  n_outcome_tokens - balance */\n      tag_297\n      jump\t// in\n    tag_550:\n        /* \"NoBOverround.sol\":16113:16118  token */\n      sload(0x08)\n        /* \"NoBOverround.sol\":16136:16138  CT */\n      sload(0x07)\n        /* \"NoBOverround.sol\":16106:16148  IERC20(token).approve(address(CT), needed) */\n      mload(0x40)\n      shl(0xe0, 0x095ea7b3)\n      dup2\n      mstore\n      sub(shl(0xa0, 0x01), 0x01)\n        /* \"NoBOverround.sol\":16136:16138  CT */\n      swap2\n      dup3\n      and\n        /* \"NoBOverround.sol\":16106:16148  IERC20(token).approve(address(CT), needed) */\n      0x04\n      dup3\n      add\n        /* \"#utility.yul\":14845:14919   */\n      mstore\n        /* \"#utility.yul\":14935:14953   */\n      0x24\n      dup2\n      add\n        /* \"#utility.yul\":14928:14962   */\n      dup5\n      swap1\n      mstore\n        /* \"NoBOverround.sol\":15980:16020  uint needed = n_outcome_tokens - balance */\n      swap3\n      swap4\n      pop\n        /* \"NoBOverround.sol\":16113:16118  token */\n      and\n      swap1\n        /* \"NoBOverround.sol\":16106:16127  IERC20(token).approve */\n      0x095ea7b3\n      swap1\n        /* \"#utility.yul\":14818:14836   */\n      0x44\n      add\n        /* \"NoBOverround.sol\":16106:16148  IERC20(token).approve(address(CT), needed) */\n      0x20\n      mload(0x40)\n      dup1\n      dup4\n      sub\n      dup2\n      0x00\n      dup8\n      gas\n      call\n      iszero\n      dup1\n      iszero\n      tag_553\n      jumpi\n      returndatasize\n      0x00\n      dup1\n      returndatacopy\n      revert(0x00, returndatasize)\n    tag_553:\n      pop\n      pop\n      pop\n      pop\n      mload(0x40)\n      returndatasize\n      not(0x1f)\n      0x1f\n      dup3\n      add\n      and\n      dup3\n      add\n      dup1\n      0x40\n      mstore\n      pop\n      dup2\n      add\n      swap1\n      tag_554\n      swap2\n      swap1\n      tag_555\n      jump\t// in\n    tag_554:\n      pop\n        /* \"NoBOverround.sol\":16166:16168  CT */\n      sload(0x07)\n        /* \"NoBOverround.sol\":16190:16195  token */\n      sload(0x08)\n        /* \"NoBOverround.sol\":16210:16219  condition */\n      sload(0x06)\n        /* \"NoBOverround.sol\":16166:16239  CT.splitPosition(IERC20(token), bytes32(0), condition, partition, needed) */\n      mload(0x40)\n      shl(0xe0, 0x72ce4275)\n      dup2\n      mstore\n      sub(shl(0xa0, 0x01), 0x01)\n        /* \"NoBOverround.sol\":16166:16168  CT */\n      swap4\n      dup5\n      and\n      swap4\n        /* \"NoBOverround.sol\":16166:16182  CT.splitPosition */\n      0x72ce4275\n      swap4\n        /* \"NoBOverround.sol\":16166:16239  CT.splitPosition(IERC20(token), bytes32(0), condition, partition, needed) */\n      tag_556\n      swap4\n        /* \"NoBOverround.sol\":16190:16195  token */\n      swap2\n      and\n      swap2\n        /* \"NoBOverround.sol\":16166:16168  CT */\n      0x00\n      swap2\n        /* \"NoBOverround.sol\":16210:16219  condition */\n      swap1\n        /* \"NoBOverround.sol\":16221:16230  partition */\n      dup13\n      swap1\n        /* \"NoBOverround.sol\":16232:16238  needed */\n      dup9\n      swap1\n        /* \"NoBOverround.sol\":16166:16239  CT.splitPosition(IERC20(token), bytes32(0), condition, partition, needed) */\n      0x04\n      add\n      tag_527\n      jump\t// in\n    tag_556:\n      0x00\n      mload(0x40)\n      dup1\n      dup4\n      sub\n      dup2\n      0x00\n      dup8\n      dup1\n      extcodesize\n      iszero\n      dup1\n      iszero\n      tag_557\n      jumpi\n      0x00\n      dup1\n      revert\n    tag_557:\n      pop\n      gas\n      call\n      iszero\n      dup1\n      iszero\n      tag_559\n      jumpi\n      returndatasize\n      0x00\n      dup1\n      returndatacopy\n      revert(0x00, returndatasize)\n    tag_559:\n      pop\n      pop\n      pop\n      pop\n        /* \"NoBOverround.sol\":16257:16262  break */\n      pop\n      pop\n      pop\n      jump(tag_533)\n        /* \"NoBOverround.sol\":15930:16349  if (balance < n_outcome_tokens) {... */\n    tag_549:\n      pop\n      pop\n        /* \"NoBOverround.sol\":15733:15736  i++ */\n      0x01\n      add\n        /* \"NoBOverround.sol\":15694:16359  for (uint i = 0; i < partition.length; i++) {... */\n      jump(tag_532)\n    tag_533:\n      pop\n        /* \"NoBOverround.sol\":16396:16398  CT */\n      sload(0x07)\n        /* \"NoBOverround.sol\":16421:16426  token */\n      sload(0x08)\n        /* \"NoBOverround.sol\":16441:16450  condition */\n      sload(0x06)\n        /* \"NoBOverround.sol\":16396:16480  CT.mergePositions(IERC20(token), bytes32(0), condition, partition, n_outcome_tokens) */\n      mload(0x40)\n      shl(0xe0, 0x9e7212ad)\n      dup2\n      mstore\n      sub(shl(0xa0, 0x01), 0x01)\n        /* \"NoBOverround.sol\":16396:16398  CT */\n      swap4\n      dup5\n      and\n      swap4\n        /* \"NoBOverround.sol\":16396:16413  CT.mergePositions */\n      0x9e7212ad\n      swap4\n        /* \"NoBOverround.sol\":16396:16480  CT.mergePositions(IERC20(token), bytes32(0), condition, partition, n_outcome_tokens) */\n      tag_560\n      swap4\n        /* \"NoBOverround.sol\":16421:16426  token */\n      swap2\n      and\n      swap2\n        /* \"NoBOverround.sol\":16396:16398  CT */\n      0x00\n      swap2\n        /* \"NoBOverround.sol\":16441:16450  condition */\n      swap1\n        /* \"NoBOverround.sol\":16452:16461  partition */\n      dup9\n      swap1\n        /* \"NoBOverround.sol\":16463:16479  n_outcome_tokens */\n      dup12\n      swap1\n        /* \"NoBOverround.sol\":16396:16480  CT.mergePositions(IERC20(token), bytes32(0), condition, partition, n_outcome_tokens) */\n      0x04\n      add\n      tag_527\n      jump\t// in\n    tag_560:\n      0x00\n      mload(0x40)\n      dup1\n      dup4\n      sub\n      dup2\n      0x00\n      dup8\n      dup1\n      extcodesize\n      iszero\n      dup1\n      iszero\n      tag_561\n      jumpi\n      0x00\n      dup1\n      revert\n    tag_561:\n      pop\n      gas\n      call\n      iszero\n      dup1\n      iszero\n      tag_563\n      jumpi\n      returndatasize\n      0x00\n      dup1\n      returndatacopy\n      revert(0x00, returndatasize)\n    tag_563:\n      pop\n      pop\n      pop\n      pop\n        /* \"NoBOverround.sol\":15441:16487  if (canMerge) {... */\n    tag_531:\n        /* \"NoBOverround.sol\":16548:16582  ABDKMath.sub(q[_outcome], _amount) */\n      tag_564\n        /* \"NoBOverround.sol\":16561:16562  q */\n      0x02\n        /* \"NoBOverround.sol\":16563:16571  _outcome */\n      dup12\n        /* \"NoBOverround.sol\":16561:16572  q[_outcome] */\n      dup2\n      sload\n      dup2\n      lt\n      tag_566\n      jumpi\n      tag_566\n      tag_216\n      jump\t// in\n    tag_566:\n      swap1\n      0x00\n      mstore\n      keccak256(0x00, 0x20)\n      swap1\n      0x02\n      swap2\n      dup3\n      dup3\n      div\n      add\n      swap2\n      swap1\n      mod\n      0x10\n      mul\n      swap1\n      sload\n      swap1\n      0x0100\n      exp\n      swap1\n      div\n      0x0f\n      signextend\n        /* \"NoBOverround.sol\":16574:16581  _amount */\n      dup11\n        /* \"NoBOverround.sol\":16548:16560  ABDKMath.sub */\n      tag_568\n        /* \"NoBOverround.sol\":16548:16582  ABDKMath.sub(q[_outcome], _amount) */\n      jump\t// in\n    tag_564:\n        /* \"NoBOverround.sol\":16534:16535  q */\n      0x02\n        /* \"NoBOverround.sol\":16536:16544  _outcome */\n      dup12\n        /* \"NoBOverround.sol\":16534:16545  q[_outcome] */\n      dup2\n      sload\n      dup2\n      lt\n      tag_570\n      jumpi\n      tag_570\n      tag_216\n      jump\t// in\n    tag_570:\n      0x00\n      swap2\n      dup3\n      mstore\n      0x20\n      dup3\n      keccak256\n      0x02\n      dup3\n      div\n      add\n        /* \"NoBOverround.sol\":16534:16582  q[_outcome] = ABDKMath.sub(q[_outcome], _amount) */\n      dup1\n      sload\n        /* \"NoBOverround.sol\":16534:16545  q[_outcome] */\n      0x01\n      swap1\n      swap3\n      and\n      0x10\n      mul\n        /* \"NoBOverround.sol\":16534:16582  q[_outcome] = ABDKMath.sub(q[_outcome], _amount) */\n      0x0100\n      exp\n      sub(shl(0x80, 0x01), 0x01)\n      dup2\n      dup2\n      mul\n      not\n      swap1\n      swap4\n      and\n      swap5\n      dup4\n      and\n      mul\n      swap4\n      swap1\n      swap4\n      or\n      swap1\n      swap3\n      sstore\n        /* \"NoBOverround.sol\":16588:16600  total_shares */\n      0x04\n        /* \"NoBOverround.sol\":16588:16619  total_shares = new_total_shares */\n      dup1\n      sload\n      not(sub(shl(0x80, 0x01), 0x01))\n      and\n      dup9\n      dup5\n      and\n      or\n      swap1\n      sstore\n        /* \"NoBOverround.sol\":16625:16637  current_cost */\n      0x03\n        /* \"NoBOverround.sol\":16625:16648  current_cost = new_cost */\n      dup1\n      sload\n      dup4\n      and\n      shl(0x80, 0x01)\n      swap4\n      dup12\n      and\n      swap4\n      swap1\n      swap4\n      mul\n      swap3\n      swap1\n      swap3\n      or\n      swap1\n      swap2\n      sstore\n        /* \"NoBOverround.sol\":16720:16725  token */\n      sload(0x08)\n        /* \"NoBOverround.sol\":16704:16735  getTokenWeiDown(token, refund_) */\n      tag_572\n      swap1\n      sub(shl(0xa0, 0x01), 0x01)\n        /* \"NoBOverround.sol\":16720:16725  token */\n      and\n        /* \"NoBOverround.sol\":16727:16734  refund_ */\n      dup9\n        /* \"NoBOverround.sol\":16704:16719  getTokenWeiDown */\n      tag_128\n        /* \"NoBOverround.sol\":16704:16735  getTokenWeiDown(token, refund_) */\n      jump\t// in\n    tag_572:\n        /* \"NoBOverround.sol\":16748:16753  token */\n      sload(0x08)\n        /* \"NoBOverround.sol\":16684:16735  uint token_refund = getTokenWeiDown(token, refund_) */\n      swap1\n      swap2\n      pop\n        /* \"NoBOverround.sol\":16741:16793  IERC20(token).safeTransfer(msg.sender, token_refund) */\n      tag_573\n      swap1\n      sub(shl(0xa0, 0x01), 0x01)\n        /* \"NoBOverround.sol\":16748:16753  token */\n      and\n        /* \"NoBOverround.sol\":16768:16778  msg.sender */\n      caller\n        /* \"NoBOverround.sol\":16684:16735  uint token_refund = getTokenWeiDown(token, refund_) */\n      dup4\n        /* \"NoBOverround.sol\":16741:16767  IERC20(token).safeTransfer */\n      tag_257\n        /* \"NoBOverround.sol\":16741:16793  IERC20(token).safeTransfer(msg.sender, token_refund) */\n      jump\t// in\n    tag_573:\n      pop\n        /* \"NoBOverround.sol\":16807:16814  refund_ */\n      swap5\n      swap10\n        /* \"NoBOverround.sol\":13840:16819  function sell(uint256 _outcome, int128 _amount) public onlyAfterInit returns (int128 refund) {... */\n      swap9\n      pop\n      pop\n      pop\n      pop\n      pop\n      pop\n      pop\n      pop\n      pop\n      jump\t// out\n        /* \"NoBOverround.sol\":16908:17110  function getOutcomeSharesPurchased(uint256 _outcome) public view returns (int128) {... */\n    tag_140:\n        /* \"NoBOverround.sol\":16982:16988  int128 */\n      0x00\n        /* \"NoBOverround.sol\":17015:17026  numOutcomes */\n      sload(0x01)\n        /* \"NoBOverround.sol\":17004:17012  _outcome */\n      dup3\n        /* \"NoBOverround.sol\":17004:17026  _outcome < numOutcomes */\n      lt\n        /* \"NoBOverround.sol\":16996:17052  require(_outcome < numOutcomes, \"Invalid outcome index\") */\n      tag_575\n      jumpi\n      mload(0x40)\n      shl(0xe5, 0x461bcd)\n      dup2\n      mstore\n        /* \"#utility.yul\":12033:12035   */\n      0x20\n        /* \"NoBOverround.sol\":16996:17052  require(_outcome < numOutcomes, \"Invalid outcome index\") */\n      0x04\n      dup3\n      add\n        /* \"#utility.yul\":12015:12036   */\n      mstore\n        /* \"#utility.yul\":12072:12074   */\n      0x15\n        /* \"#utility.yul\":12052:12070   */\n      0x24\n      dup3\n      add\n        /* \"#utility.yul\":12045:12075   */\n      mstore\n      shl(0x5b, 0x092dcecc2d8d2c840deeae8c6dedaca40d2dcc8caf)\n        /* \"#utility.yul\":12091:12109   */\n      0x44\n      dup3\n      add\n        /* \"#utility.yul\":12084:12135   */\n      mstore\n        /* \"#utility.yul\":12152:12170   */\n      0x64\n      add\n        /* \"NoBOverround.sol\":16996:17052  require(_outcome < numOutcomes, \"Invalid outcome index\") */\n      tag_189\n        /* \"#utility.yul\":11831:12176   */\n      jump\n        /* \"NoBOverround.sol\":16996:17052  require(_outcome < numOutcomes, \"Invalid outcome index\") */\n    tag_575:\n        /* \"NoBOverround.sol\":17065:17107  ABDKMath.sub(q[_outcome], initial_subsidy) */\n      tag_181\n        /* \"NoBOverround.sol\":17078:17079  q */\n      0x02\n        /* \"NoBOverround.sol\":17080:17088  _outcome */\n      dup4\n        /* \"NoBOverround.sol\":17078:17089  q[_outcome] */\n      dup2\n      sload\n      dup2\n      lt\n      tag_579\n      jumpi\n      tag_579\n      tag_216\n      jump\t// in\n    tag_579:\n      swap1\n      0x00\n      mstore\n      keccak256(0x00, 0x20)\n      swap1\n      0x02\n      swap2\n      dup3\n      dup3\n      div\n      add\n      swap2\n      swap1\n      mod\n      0x10\n      mul\n      swap1\n      sload\n      swap1\n      0x0100\n      exp\n      swap1\n      div\n      0x0f\n      signextend\n        /* \"NoBOverround.sol\":17091:17106  initial_subsidy */\n      0x04\n      0x10\n      swap1\n      sload\n      swap1\n      0x0100\n      exp\n      swap1\n      div\n      0x0f\n      signextend\n        /* \"NoBOverround.sol\":17065:17077  ABDKMath.sub */\n      tag_568\n        /* \"NoBOverround.sol\":17065:17107  ABDKMath.sub(q[_outcome], initial_subsidy) */\n      jump\t// in\n        /* \"NoBOverround.sol\":10214:10370  function price(... */\n    tag_159:\n        /* \"NoBOverround.sol\":10353:10365  current_cost */\n      sload(0x03)\n        /* \"NoBOverround.sol\":10296:10302  int128 */\n      0x00\n      swap1\n      shl(0x80, 0x01)\n        /* \"NoBOverround.sol\":10353:10365  current_cost */\n      swap1\n      div\n      0x0f\n      signextend\n        /* \"NoBOverround.sol\":10317:10350  cost_after_buy(_outcome, _amount) */\n      tag_583\n        /* \"NoBOverround.sol\":10332:10340  _outcome */\n      dup5\n        /* \"NoBOverround.sol\":10342:10349  _amount */\n      dup5\n        /* \"NoBOverround.sol\":10317:10331  cost_after_buy */\n      tag_110\n        /* \"NoBOverround.sol\":10317:10350  cost_after_buy(_outcome, _amount) */\n      jump\t// in\n    tag_583:\n        /* \"NoBOverround.sol\":10317:10365  cost_after_buy(_outcome, _amount) - current_cost */\n      tag_378\n      swap2\n      swap1\n      tag_379\n      jump\t// in\n        /* \"NoBOverround.sol\":18698:18905  function debugFees() public view returns (uint contractBalance, uint theoreticalCost) {... */\n    tag_162:\n        /* \"NoBOverround.sol\":18815:18820  token */\n      sload(0x08)\n        /* \"NoBOverround.sol\":18808:18846  IERC20(token).balanceOf(address(this)) */\n      mload(0x40)\n      shl(0xe0, 0x70a08231)\n      dup2\n      mstore\n        /* \"NoBOverround.sol\":18840:18844  this */\n      address\n        /* \"NoBOverround.sol\":18808:18846  IERC20(token).balanceOf(address(this)) */\n      0x04\n      dup3\n      add\n        /* \"#utility.yul\":5222:5296   */\n      mstore\n        /* \"NoBOverround.sol\":18740:18760  uint contractBalance */\n      0x00\n      swap2\n      dup3\n      swap2\n      sub(shl(0xa0, 0x01), 0x01)\n        /* \"NoBOverround.sol\":18815:18820  token */\n      swap1\n      swap2\n      and\n      swap1\n        /* \"NoBOverround.sol\":18808:18831  IERC20(token).balanceOf */\n      0x70a08231\n      swap1\n        /* \"#utility.yul\":5195:5213   */\n      0x24\n      add\n        /* \"NoBOverround.sol\":18808:18846  IERC20(token).balanceOf(address(this)) */\n      0x20\n      mload(0x40)\n      dup1\n      dup4\n      sub\n      dup2\n      dup7\n      gas\n      staticcall\n      iszero\n      dup1\n      iszero\n      tag_588\n      jumpi\n      returndatasize\n      0x00\n      dup1\n      returndatacopy\n      revert(0x00, returndatasize)\n    tag_588:\n      pop\n      pop\n      pop\n      pop\n      mload(0x40)\n      returndatasize\n      not(0x1f)\n      0x1f\n      dup3\n      add\n      and\n      dup3\n      add\n      dup1\n      0x40\n      mstore\n      pop\n      dup2\n      add\n      swap1\n      tag_589\n      swap2\n      swap1\n      tag_234\n      jump\t// in\n    tag_589:\n        /* \"NoBOverround.sol\":18882:18887  token */\n      sload(0x08)\n        /* \"NoBOverround.sol\":18889:18901  current_cost */\n      sload(0x03)\n        /* \"NoBOverround.sol\":18790:18846  contractBalance = IERC20(token).balanceOf(address(this)) */\n      swap2\n      swap4\n      pop\n        /* \"NoBOverround.sol\":18870:18902  getTokenWei(token, current_cost) */\n      tag_590\n      swap2\n      sub(shl(0xa0, 0x01), 0x01)\n        /* \"NoBOverround.sol\":18882:18887  token */\n      swap1\n      swap2\n      and\n      swap1\n      shl(0x80, 0x01)\n        /* \"NoBOverround.sol\":18889:18901  current_cost */\n      swap1\n      div\n      0x0f\n      signextend\n        /* \"NoBOverround.sol\":18870:18881  getTokenWei */\n      tag_71\n        /* \"NoBOverround.sol\":18870:18902  getTokenWei(token, current_cost) */\n      jump\t// in\n    tag_590:\n        /* \"NoBOverround.sol\":18852:18902  theoreticalCost = getTokenWei(token, current_cost) */\n      swap1\n      pop\n        /* \"NoBOverround.sol\":18698:18905  function debugFees() public view returns (uint contractBalance, uint theoreticalCost) {... */\n      swap1\n      swap2\n      jump\t// out\n        /* \"@openzeppelin/contracts/access/Ownable.sol\":2543:2758   */\n    tag_172:\n        /* \"@openzeppelin/contracts/access/Ownable.sol\":1531:1544   */\n      tag_593\n        /* \"@openzeppelin/contracts/access/Ownable.sol\":1531:1542   */\n      tag_228\n        /* \"@openzeppelin/contracts/access/Ownable.sol\":1531:1544   */\n      jump\t// in\n    tag_593:\n      sub(shl(0xa0, 0x01), 0x01)\n        /* \"@openzeppelin/contracts/access/Ownable.sol\":2627:2649   */\n      dup2\n      and\n        /* \"@openzeppelin/contracts/access/Ownable.sol\":2623:2714   */\n      tag_595\n      jumpi\n        /* \"@openzeppelin/contracts/access/Ownable.sol\":2672:2703   */\n      mload(0x40)\n      shl(0xe0, 0x1e4fbdf7)\n      dup2\n      mstore\n        /* \"@openzeppelin/contracts/access/Ownable.sol\":2700:2701   */\n      0x00\n        /* \"@openzeppelin/contracts/access/Ownable.sol\":2672:2703   */\n      0x04\n      dup3\n      add\n        /* \"#utility.yul\":5222:5296   */\n      mstore\n        /* \"#utility.yul\":5195:5213   */\n      0x24\n      add\n        /* \"@openzeppelin/contracts/access/Ownable.sol\":2672:2703   */\n      tag_189\n        /* \"#utility.yul\":5076:5302   */\n      jump\n        /* \"@openzeppelin/contracts/access/Ownable.sol\":2623:2714   */\n    tag_595:\n        /* \"@openzeppelin/contracts/access/Ownable.sol\":2723:2751   */\n      tag_252\n        /* \"@openzeppelin/contracts/access/Ownable.sol\":2742:2750   */\n      dup2\n        /* \"@openzeppelin/contracts/access/Ownable.sol\":2723:2741   */\n      tag_393\n        /* \"@openzeppelin/contracts/access/Ownable.sol\":2723:2751   */\n      jump\t// in\n        /* \"NoBOverround.sol\":5797:6972  function buy(... */\n    tag_175:\n        /* \"NoBOverround.sol\":12709:12713  init */\n      sload(0x08)\n        /* \"NoBOverround.sol\":5886:5899  int128 _price */\n      0x00\n      swap1\n      shl(0xa0, 0x01)\n        /* \"NoBOverround.sol\":12709:12713  init */\n      swap1\n      div\n      0xff\n      and\n        /* \"NoBOverround.sol\":12709:12721  init == true */\n      iszero\n      iszero\n        /* \"NoBOverround.sol\":12717:12721  true */\n      0x01\n        /* \"NoBOverround.sol\":12709:12721  init == true */\n      eq\n        /* \"NoBOverround.sol\":12701:12722  require(init == true) */\n      tag_599\n      jumpi\n      0x00\n      dup1\n      revert\n    tag_599:\n        /* \"NoBOverround.sol\":5926:5937  numOutcomes */\n      sload(0x01)\n        /* \"NoBOverround.sol\":5915:5923  _outcome */\n      dup4\n        /* \"NoBOverround.sol\":5915:5937  _outcome < numOutcomes */\n      lt\n        /* \"NoBOverround.sol\":5907:5963  require(_outcome < numOutcomes, \"Invalid outcome index\") */\n      tag_601\n      jumpi\n      mload(0x40)\n      shl(0xe5, 0x461bcd)\n      dup2\n      mstore\n        /* \"#utility.yul\":12033:12035   */\n      0x20\n        /* \"NoBOverround.sol\":5907:5963  require(_outcome < numOutcomes, \"Invalid outcome index\") */\n      0x04\n      dup3\n      add\n        /* \"#utility.yul\":12015:12036   */\n      mstore\n        /* \"#utility.yul\":12072:12074   */\n      0x15\n        /* \"#utility.yul\":12052:12070   */\n      0x24\n      dup3\n      add\n        /* \"#utility.yul\":12045:12075   */\n      mstore\n      shl(0x5b, 0x092dcecc2d8d2c840deeae8c6dedaca40d2dcc8caf)\n        /* \"#utility.yul\":12091:12109   */\n      0x44\n      dup3\n      add\n        /* \"#utility.yul\":12084:12135   */\n      mstore\n        /* \"#utility.yul\":12152:12170   */\n      0x64\n      add\n        /* \"NoBOverround.sol\":5907:5963  require(_outcome < numOutcomes, \"Invalid outcome index\") */\n      tag_189\n        /* \"#utility.yul\":11831:12176   */\n      jump\n        /* \"NoBOverround.sol\":5907:5963  require(_outcome < numOutcomes, \"Invalid outcome index\") */\n    tag_601:\n        /* \"NoBOverround.sol\":5987:5988  0 */\n      0x00\n        /* \"NoBOverround.sol\":5977:5984  _amount */\n      dup3\n        /* \"NoBOverround.sol\":5977:5988  _amount > 0 */\n      0x0f\n      signextend\n      sgt\n        /* \"NoBOverround.sol\":5969:6016  require(_amount > 0, \"Amount must be positive\") */\n      tag_603\n      jumpi\n      mload(0x40)\n      shl(0xe5, 0x461bcd)\n      dup2\n      mstore\n        /* \"#utility.yul\":16089:16091   */\n      0x20\n        /* \"NoBOverround.sol\":5969:6016  require(_amount > 0, \"Amount must be positive\") */\n      0x04\n      dup3\n      add\n        /* \"#utility.yul\":16071:16092   */\n      mstore\n        /* \"#utility.yul\":16128:16130   */\n      0x17\n        /* \"#utility.yul\":16108:16126   */\n      0x24\n      dup3\n      add\n        /* \"#utility.yul\":16101:16131   */\n      mstore\n        /* \"#utility.yul\":16167:16192   */\n      0x416d6f756e74206d75737420626520706f736974697665000000000000000000\n        /* \"#utility.yul\":16147:16165   */\n      0x44\n      dup3\n      add\n        /* \"#utility.yul\":16140:16193   */\n      mstore\n        /* \"#utility.yul\":16210:16228   */\n      0x64\n      add\n        /* \"NoBOverround.sol\":5969:6016  require(_amount > 0, \"Amount must be positive\") */\n      tag_189\n        /* \"#utility.yul\":15887:16234   */\n      jump\n        /* \"NoBOverround.sol\":5969:6016  require(_amount > 0, \"Amount must be positive\") */\n    tag_603:\n        /* \"NoBOverround.sol\":6030:6032  CT */\n      sload(0x07)\n        /* \"NoBOverround.sol\":6051:6060  condition */\n      sload(0x06)\n        /* \"NoBOverround.sol\":6030:6061  CT.payoutDenominator(condition) */\n      mload(0x40)\n      shl(0xe0, 0xdd34de67)\n      dup2\n      mstore\n      sub(shl(0xa0, 0x01), 0x01)\n        /* \"NoBOverround.sol\":6030:6032  CT */\n      swap1\n      swap3\n      and\n      swap2\n        /* \"NoBOverround.sol\":6030:6050  CT.payoutDenominator */\n      0xdd34de67\n      swap2\n        /* \"NoBOverround.sol\":6030:6061  CT.payoutDenominator(condition) */\n      tag_605\n      swap2\n      0x04\n      add\n        /* \"#utility.yul\":1274:1299   */\n      swap1\n      dup2\n      mstore\n        /* \"#utility.yul\":1262:1264   */\n      0x20\n        /* \"#utility.yul\":1247:1265   */\n      add\n      swap1\n        /* \"#utility.yul\":1128:1305   */\n      jump\n        /* \"NoBOverround.sol\":6030:6061  CT.payoutDenominator(condition) */\n    tag_605:\n      0x20\n      mload(0x40)\n      dup1\n      dup4\n      sub\n      dup2\n      dup7\n      gas\n      staticcall\n      iszero\n      dup1\n      iszero\n      tag_607\n      jumpi\n      returndatasize\n      0x00\n      dup1\n      returndatacopy\n      revert(0x00, returndatasize)\n    tag_607:\n      pop\n      pop\n      pop\n      pop\n      mload(0x40)\n      returndatasize\n      not(0x1f)\n      0x1f\n      dup3\n      add\n      and\n      dup3\n      add\n      dup1\n      0x40\n      mstore\n      pop\n      dup2\n      add\n      swap1\n      tag_608\n      swap2\n      swap1\n      tag_234\n      jump\t// in\n    tag_608:\n        /* \"NoBOverround.sol\":6030:6066  CT.payoutDenominator(condition) == 0 */\n      iszero\n        /* \"NoBOverround.sol\":6022:6094  require(CT.payoutDenominator(condition) == 0, 'Market already resolved') */\n      tag_609\n      jumpi\n      mload(0x40)\n      shl(0xe5, 0x461bcd)\n      dup2\n      mstore\n        /* \"#utility.yul\":16441:16443   */\n      0x20\n        /* \"NoBOverround.sol\":6022:6094  require(CT.payoutDenominator(condition) == 0, 'Market already resolved') */\n      0x04\n      dup3\n      add\n        /* \"#utility.yul\":16423:16444   */\n      mstore\n        /* \"#utility.yul\":16480:16482   */\n      0x17\n        /* \"#utility.yul\":16460:16478   */\n      0x24\n      dup3\n      add\n        /* \"#utility.yul\":16453:16483   */\n      mstore\n        /* \"#utility.yul\":16519:16544   */\n      0x4d61726b657420616c7265616479207265736f6c766564000000000000000000\n        /* \"#utility.yul\":16499:16517   */\n      0x44\n      dup3\n      add\n        /* \"#utility.yul\":16492:16545   */\n      mstore\n        /* \"#utility.yul\":16562:16580   */\n      0x64\n      add\n        /* \"NoBOverround.sol\":6022:6094  require(CT.payoutDenominator(condition) == 0, 'Market already resolved') */\n      tag_189\n        /* \"#utility.yul\":16239:16586   */\n      jump\n        /* \"NoBOverround.sol\":6022:6094  require(CT.payoutDenominator(condition) == 0, 'Market already resolved') */\n    tag_609:\n        /* \"NoBOverround.sol\":6102:6117  int128 new_cost */\n      0x00\n        /* \"NoBOverround.sol\":6119:6132  int128 price_ */\n      dup1\n        /* \"NoBOverround.sol\":6134:6157  int128 new_total_shares */\n      0x00\n        /* \"NoBOverround.sol\":6161:6242  _calculateBuyPrice(q, _outcome, _amount, total_shares, current_cost, numOutcomes) */\n      tag_611\n        /* \"NoBOverround.sol\":6180:6181  q */\n      0x02\n        /* \"NoBOverround.sol\":6161:6242  _calculateBuyPrice(q, _outcome, _amount, total_shares, current_cost, numOutcomes) */\n      dup1\n      sload\n      dup1\n      0x20\n      mul\n      0x20\n      add\n      mload(0x40)\n      swap1\n      dup2\n      add\n      0x40\n      mstore\n      dup1\n      swap3\n      swap2\n      swap1\n      dup2\n      dup2\n      mstore\n      0x20\n      add\n      dup3\n      dup1\n      sload\n      dup1\n      iszero\n      tag_612\n      jumpi\n      0x20\n      mul\n      dup3\n      add\n      swap2\n      swap1\n      0x00\n      mstore\n      keccak256(0x00, 0x20)\n      swap1\n      0x00\n      swap1\n    tag_613:\n      dup3\n      sload\n      0x0100\n      dup4\n      swap1\n      exp\n      swap1\n      div\n      0x0f\n      signextend\n      dup2\n      mstore\n      0x20\n      0x1f\n      dup4\n      add\n      dup2\n      swap1\n      div\n      swap4\n      dup5\n      add\n      swap4\n      0x01\n      sub\n      0x10\n      swap1\n      swap4\n      add\n      swap3\n      swap1\n      swap3\n      mul\n      swap2\n      add\n      dup1\n      dup5\n      gt\n      tag_613\n      jumpi\n      swap1\n      pop\n    tag_612:\n      pop\n      pop\n        /* \"NoBOverround.sol\":6202:6214  total_shares */\n      sload(0x04)\n        /* \"NoBOverround.sol\":6216:6228  current_cost */\n      sload(0x03)\n        /* \"NoBOverround.sol\":6202:6214  total_shares */\n      0x01\n        /* \"NoBOverround.sol\":6230:6241  numOutcomes */\n      sload\n        /* \"NoBOverround.sol\":6183:6191  _outcome */\n      dup14\n      swap6\n      pop\n        /* \"NoBOverround.sol\":6193:6200  _amount */\n      dup13\n      swap5\n      pop\n        /* \"NoBOverround.sol\":6202:6214  total_shares */\n      0x0f\n      swap3\n      dup4\n      signextend\n      swap4\n      pop\n      shl(0x80, 0x01)\n        /* \"NoBOverround.sol\":6216:6228  current_cost */\n      swap1\n      swap2\n      div\n      swap1\n      swap2\n      signextend\n      swap1\n        /* \"NoBOverround.sol\":6161:6179  _calculateBuyPrice */\n      tag_614\n        /* \"NoBOverround.sol\":6161:6242  _calculateBuyPrice(q, _outcome, _amount, total_shares, current_cost, numOutcomes) */\n      jump\t// in\n    tag_611:\n        /* \"NoBOverround.sol\":6101:6242  (int128 new_cost, int128 price_, int128 new_total_shares) = _calculateBuyPrice(q, _outcome, _amount, total_shares, current_cost, numOutcomes) */\n      swap3\n      pop\n      swap3\n      pop\n      swap3\n      pop\n        /* \"NoBOverround.sol\":6305:6332  int128 overround_multiplier */\n      0x00\n        /* \"NoBOverround.sol\":6335:6380  ABDKMath.add(ABDKMath.fromUInt(1), overround) */\n      tag_615\n        /* \"NoBOverround.sol\":6348:6368  ABDKMath.fromUInt(1) */\n      tag_616\n        /* \"NoBOverround.sol\":6366:6367  1 */\n      0x01\n        /* \"NoBOverround.sol\":6348:6365  ABDKMath.fromUInt */\n      tag_322\n        /* \"NoBOverround.sol\":6348:6368  ABDKMath.fromUInt(1) */\n      jump\t// in\n    tag_616:\n        /* \"NoBOverround.sol\":6370:6379  overround */\n      signextend(0x0f, sload(0x05))\n        /* \"NoBOverround.sol\":6335:6347  ABDKMath.add */\n      tag_220\n        /* \"NoBOverround.sol\":6335:6380  ABDKMath.add(ABDKMath.fromUInt(1), overround) */\n      jump\t// in\n    tag_615:\n        /* \"NoBOverround.sol\":6305:6380  int128 overround_multiplier = ABDKMath.add(ABDKMath.fromUInt(1), overround) */\n      swap1\n      pop\n        /* \"NoBOverround.sol\":6403:6430  int128 price_with_overround */\n      0x00\n        /* \"NoBOverround.sol\":6433:6475  ABDKMath.mul(price_, overround_multiplier) */\n      tag_617\n        /* \"NoBOverround.sol\":6446:6452  price_ */\n      dup5\n        /* \"NoBOverround.sol\":6454:6474  overround_multiplier */\n      dup4\n        /* \"NoBOverround.sol\":6433:6445  ABDKMath.mul */\n      tag_194\n        /* \"NoBOverround.sol\":6433:6475  ABDKMath.mul(price_, overround_multiplier) */\n      jump\t// in\n    tag_617:\n        /* \"NoBOverround.sol\":6514:6519  token */\n      sload(0x08)\n        /* \"NoBOverround.sol\":6403:6475  int128 price_with_overround = ABDKMath.mul(price_, overround_multiplier) */\n      swap1\n      swap2\n      pop\n        /* \"NoBOverround.sol\":6482:6497  uint token_cost */\n      0x00\n      swap1\n        /* \"NoBOverround.sol\":6500:6542  getTokenWeiUp(token, price_with_overround) */\n      tag_618\n      swap1\n      sub(shl(0xa0, 0x01), 0x01)\n        /* \"NoBOverround.sol\":6514:6519  token */\n      and\n        /* \"NoBOverround.sol\":6403:6475  int128 price_with_overround = ABDKMath.mul(price_, overround_multiplier) */\n      dup4\n        /* \"NoBOverround.sol\":6500:6513  getTokenWeiUp */\n      tag_55\n        /* \"NoBOverround.sol\":6500:6542  getTokenWeiUp(token, price_with_overround) */\n      jump\t// in\n    tag_618:\n        /* \"NoBOverround.sol\":6553:6599  BuyTokenCost(token_cost, price_with_overround) */\n      0x40\n      dup1\n      mload\n        /* \"#utility.yul\":20910:20935   */\n      dup3\n      dup2\n      mstore\n        /* \"#utility.yul\":20982:20984   */\n      0x0f\n        /* \"#utility.yul\":20971:20993   */\n      dup6\n      swap1\n      signextend\n        /* \"#utility.yul\":20966:20968   */\n      0x20\n        /* \"#utility.yul\":20951:20969   */\n      dup3\n      add\n        /* \"#utility.yul\":20944:20994   */\n      mstore\n        /* \"NoBOverround.sol\":6482:6542  uint token_cost = getTokenWeiUp(token, price_with_overround) */\n      swap2\n      swap3\n      pop\n        /* \"NoBOverround.sol\":6553:6599  BuyTokenCost(token_cost, price_with_overround) */\n      0xbd58a27f98d614697f8a2d66c4c15779b5c06324bdc1f23994d9e5f93a537a4d\n      swap2\n        /* \"#utility.yul\":20883:20901   */\n      add\n        /* \"NoBOverround.sol\":6553:6599  BuyTokenCost(token_cost, price_with_overround) */\n      mload(0x40)\n      dup1\n      swap2\n      sub\n      swap1\n      log1\n        /* \"NoBOverround.sol\":6620:6625  token */\n      sload(0x08)\n        /* \"NoBOverround.sol\":6613:6678  IERC20(token).transferFrom(msg.sender, address(this), token_cost) */\n      mload(0x40)\n      shl(0xe0, 0x23b872dd)\n      dup2\n      mstore\n        /* \"NoBOverround.sol\":6640:6650  msg.sender */\n      caller\n        /* \"NoBOverround.sol\":6613:6678  IERC20(token).transferFrom(msg.sender, address(this), token_cost) */\n      0x04\n      dup3\n      add\n        /* \"#utility.yul\":21268:21302   */\n      mstore\n        /* \"NoBOverround.sol\":6660:6664  this */\n      address\n        /* \"#utility.yul\":21318:21336   */\n      0x24\n      dup3\n      add\n        /* \"#utility.yul\":21311:21354   */\n      mstore\n        /* \"#utility.yul\":21370:21388   */\n      0x44\n      dup2\n      add\n        /* \"#utility.yul\":21363:21397   */\n      dup4\n      swap1\n      mstore\n      sub(shl(0xa0, 0x01), 0x01)\n        /* \"NoBOverround.sol\":6620:6625  token */\n      swap1\n      swap2\n      and\n      swap1\n        /* \"NoBOverround.sol\":6613:6639  IERC20(token).transferFrom */\n      0x23b872dd\n      swap1\n        /* \"#utility.yul\":21180:21198   */\n      0x64\n      add\n        /* \"NoBOverround.sol\":6613:6678  IERC20(token).transferFrom(msg.sender, address(this), token_cost) */\n      0x20\n      mload(0x40)\n      dup1\n      dup4\n      sub\n      dup2\n      0x00\n      dup8\n      gas\n      call\n      iszero\n      dup1\n      iszero\n      tag_624\n      jumpi\n      returndatasize\n      0x00\n      dup1\n      returndatacopy\n      revert(0x00, returndatasize)\n    tag_624:\n      pop\n      pop\n      pop\n      pop\n      mload(0x40)\n      returndatasize\n      not(0x1f)\n      0x1f\n      dup3\n      add\n      and\n      dup3\n      add\n      dup1\n      0x40\n      mstore\n      pop\n      dup2\n      add\n      swap1\n      tag_625\n      swap2\n      swap1\n      tag_555\n      jump\t// in\n    tag_625:\n        /* \"NoBOverround.sol\":6605:6708  require(IERC20(token).transferFrom(msg.sender, address(this), token_cost), 'Error transferring tokens') */\n      tag_626\n      jumpi\n      mload(0x40)\n      shl(0xe5, 0x461bcd)\n      dup2\n      mstore\n        /* \"#utility.yul\":21610:21612   */\n      0x20\n        /* \"NoBOverround.sol\":6605:6708  require(IERC20(token).transferFrom(msg.sender, address(this), token_cost), 'Error transferring tokens') */\n      0x04\n      dup3\n      add\n        /* \"#utility.yul\":21592:21613   */\n      mstore\n        /* \"#utility.yul\":21649:21651   */\n      0x19\n        /* \"#utility.yul\":21629:21647   */\n      0x24\n      dup3\n      add\n        /* \"#utility.yul\":21622:21652   */\n      mstore\n        /* \"#utility.yul\":21688:21715   */\n      0x4572726f72207472616e7366657272696e6720746f6b656e7300000000000000\n        /* \"#utility.yul\":21668:21686   */\n      0x44\n      dup3\n      add\n        /* \"#utility.yul\":21661:21716   */\n      mstore\n        /* \"#utility.yul\":21733:21751   */\n      0x64\n      add\n        /* \"NoBOverround.sol\":6605:6708  require(IERC20(token).transferFrom(msg.sender, address(this), token_cost), 'Error transferring tokens') */\n      tag_189\n        /* \"#utility.yul\":21408:21757   */\n      jump\n        /* \"NoBOverround.sol\":6605:6708  require(IERC20(token).transferFrom(msg.sender, address(this), token_cost), 'Error transferring tokens') */\n    tag_626:\n        /* \"NoBOverround.sol\":6778:6812  ABDKMath.add(q[_outcome], _amount) */\n      tag_629\n        /* \"NoBOverround.sol\":6791:6792  q */\n      0x02\n        /* \"NoBOverround.sol\":6793:6801  _outcome */\n      dup11\n        /* \"NoBOverround.sol\":6791:6802  q[_outcome] */\n      dup2\n      sload\n      dup2\n      lt\n      tag_631\n      jumpi\n      tag_631\n      tag_216\n      jump\t// in\n    tag_631:\n      swap1\n      0x00\n      mstore\n      keccak256(0x00, 0x20)\n      swap1\n      0x02\n      swap2\n      dup3\n      dup3\n      div\n      add\n      swap2\n      swap1\n      mod\n      0x10\n      mul\n      swap1\n      sload\n      swap1\n      0x0100\n      exp\n      swap1\n      div\n      0x0f\n      signextend\n        /* \"NoBOverround.sol\":6804:6811  _amount */\n      dup10\n        /* \"NoBOverround.sol\":6778:6790  ABDKMath.add */\n      tag_220\n        /* \"NoBOverround.sol\":6778:6812  ABDKMath.add(q[_outcome], _amount) */\n      jump\t// in\n    tag_629:\n        /* \"NoBOverround.sol\":6764:6765  q */\n      0x02\n        /* \"NoBOverround.sol\":6766:6774  _outcome */\n      dup11\n        /* \"NoBOverround.sol\":6764:6775  q[_outcome] */\n      dup2\n      sload\n      dup2\n      lt\n      tag_634\n      jumpi\n      tag_634\n      tag_216\n      jump\t// in\n    tag_634:\n      0x00\n      swap2\n      dup3\n      mstore\n      0x20\n      swap1\n      swap2\n      keccak256\n      0x02\n      dup3\n      div\n      add\n        /* \"NoBOverround.sol\":6764:6812  q[_outcome] = ABDKMath.add(q[_outcome], _amount) */\n      dup1\n      sload\n        /* \"NoBOverround.sol\":6764:6775  q[_outcome] */\n      0x01\n      swap1\n      swap3\n      and\n      0x10\n      mul\n        /* \"NoBOverround.sol\":6764:6812  q[_outcome] = ABDKMath.add(q[_outcome], _amount) */\n      0x0100\n      exp\n      sub(shl(0x80, 0x01), 0x01)\n      dup2\n      dup2\n      mul\n      not\n      swap1\n      swap4\n      and\n      swap4\n      dup4\n      and\n      mul\n      swap3\n      swap1\n      swap3\n      or\n      swap1\n      swap2\n      sstore\n        /* \"NoBOverround.sol\":6818:6830  total_shares */\n      0x04\n        /* \"NoBOverround.sol\":6818:6849  total_shares = new_total_shares */\n      dup1\n      sload\n      not(sub(shl(0x80, 0x01), 0x01))\n      and\n      dup7\n      dup4\n      and\n      or\n      swap1\n      sstore\n        /* \"NoBOverround.sol\":6855:6867  current_cost */\n      0x03\n        /* \"NoBOverround.sol\":6855:6878  current_cost = new_cost */\n      dup1\n      sload\n      dup3\n      and\n      shl(0x80, 0x01)\n      swap3\n      dup10\n      and\n      swap3\n      swap1\n      swap3\n      mul\n      swap2\n      swap1\n      swap2\n      or\n      swap1\n      sstore\n        /* \"NoBOverround.sol\":6885:6933  _mintAndTransferOutcomeTokens(_outcome, _amount) */\n      tag_636\n        /* \"NoBOverround.sol\":6915:6923  _outcome */\n      dup10\n        /* \"NoBOverround.sol\":6925:6932  _amount */\n      dup10\n        /* \"NoBOverround.sol\":6885:6914  _mintAndTransferOutcomeTokens */\n      tag_637\n        /* \"NoBOverround.sol\":6885:6933  _mintAndTransferOutcomeTokens(_outcome, _amount) */\n      jump\t// in\n    tag_636:\n      pop\n        /* \"NoBOverround.sol\":6947:6967  price_with_overround */\n      swap8\n        /* \"NoBOverround.sol\":5797:6972  function buy(... */\n      swap7\n      pop\n      pop\n      pop\n      pop\n      pop\n      pop\n      pop\n      jump\t// out\n        /* \"ABDKMath64x64.sol\":6262:6775  function mulu (int128 x, uint256 y) internal pure returns (uint256) {... */\n    tag_192:\n        /* \"ABDKMath64x64.sol\":6321:6328  uint256 */\n      0x00\n        /* \"ABDKMath64x64.sol\":6358:6359  y */\n      dup2\n        /* \"ABDKMath64x64.sol\":6363:6364  0 */\n      0x00\n        /* \"ABDKMath64x64.sol\":6358:6364  y == 0 */\n      sub\n        /* \"ABDKMath64x64.sol\":6354:6374  if (y == 0) return 0 */\n      tag_639\n      jumpi\n      pop\n        /* \"ABDKMath64x64.sol\":6373:6374  0 */\n      0x00\n        /* \"ABDKMath64x64.sol\":6366:6374  return 0 */\n      jump(tag_181)\n        /* \"ABDKMath64x64.sol\":6354:6374  if (y == 0) return 0 */\n    tag_639:\n        /* \"ABDKMath64x64.sol\":6397:6398  0 */\n      0x00\n        /* \"ABDKMath64x64.sol\":6392:6393  x */\n      dup4\n        /* \"ABDKMath64x64.sol\":6392:6398  x >= 0 */\n      0x0f\n      signextend\n      slt\n      iszero\n        /* \"ABDKMath64x64.sol\":6383:6399  require (x >= 0) */\n      tag_640\n      jumpi\n      0x00\n      dup1\n      revert\n    tag_640:\n        /* \"ABDKMath64x64.sol\":6431:6441  int256 (x) */\n      0x0f\n      dup4\n      swap1\n      signextend\n      sub(shl(0x80, 0x01), 0x01)\n        /* \"ABDKMath64x64.sol\":6446:6484  y & 0xFFFFFFFFFFFFFFFFFFFFFFFFFFFFFFFF */\n      dup4\n      and\n        /* \"ABDKMath64x64.sol\":6422:6485  uint256 (int256 (x)) * (y & 0xFFFFFFFFFFFFFFFFFFFFFFFFFFFFFFFF) */\n      dup2\n      mul\n        /* \"ABDKMath64x64.sol\":6490:6492  64 */\n      0x40\n        /* \"ABDKMath64x64.sol\":6421:6492  (uint256 (int256 (x)) * (y & 0xFFFFFFFFFFFFFFFFFFFFFFFFFFFFFFFF)) >> 64 */\n      shr\n      swap1\n        /* \"ABDKMath64x64.sol\":6542:6545  128 */\n      0x80\n        /* \"ABDKMath64x64.sol\":6537:6545  y >> 128 */\n      dup5\n      swap1\n      shr\n        /* \"ABDKMath64x64.sol\":6513:6546  uint256 (int256 (x)) * (y >> 128) */\n      mul\n        /* \"ABDKMath64x64.sol\":6570:6620  0xFFFFFFFFFFFFFFFFFFFFFFFFFFFFFFFFFFFFFFFFFFFFFFFF */\n      0xffffffffffffffffffffffffffffffffffffffffffffffff\n        /* \"ABDKMath64x64.sol\":6564:6620  hi <= 0xFFFFFFFFFFFFFFFFFFFFFFFFFFFFFFFFFFFFFFFFFFFFFFFF */\n      dup2\n      gt\n      iszero\n        /* \"ABDKMath64x64.sol\":6555:6621  require (hi <= 0xFFFFFFFFFFFFFFFFFFFFFFFFFFFFFFFFFFFFFFFFFFFFFFFF) */\n      tag_641\n      jumpi\n      0x00\n      dup1\n      revert\n    tag_641:\n        /* \"ABDKMath64x64.sol\":6636:6638  64 */\n      0x40\n        /* \"ABDKMath64x64.sol\":6629:6638  hi <<= 64 */\n      shl\n        /* \"ABDKMath64x64.sol\":6670:6741  0xFFFFFFFFFFFFFFFFFFFFFFFFFFFFFFFFFFFFFFFFFFFFFFFFFFFFFFFFFFFFFFFF - lo */\n      dup2\n      not\n        /* \"ABDKMath64x64.sol\":6656:6741  hi <=... */\n      dup2\n      gt\n      iszero\n        /* \"ABDKMath64x64.sol\":6647:6742  require (hi <=... */\n      tag_642\n      jumpi\n      0x00\n      dup1\n      revert\n    tag_642:\n        /* \"ABDKMath64x64.sol\":6757:6764  hi + lo */\n      add\n      swap4\n        /* \"ABDKMath64x64.sol\":6262:6775  function mulu (int128 x, uint256 y) internal pure returns (uint256) {... */\n      swap3\n      pop\n      pop\n      pop\n      jump\t// out\n        /* \"ABDKMath64x64.sol\":4390:4615  function mul (int128 x, int128 y) internal pure returns (int128) {... */\n    tag_194:\n        /* \"ABDKMath64x64.sol\":4447:4453  int128 */\n      0x00\n        /* \"ABDKMath64x64.sol\":4495:4508  int256(x) * y */\n      0x0f\n        /* \"ABDKMath64x64.sol\":4495:4504  int256(x) */\n      dup4\n      dup2\n      signextend\n        /* \"ABDKMath64x64.sol\":4495:4508  int256(x) * y */\n      swap1\n      dup4\n      swap1\n      signextend\n      mul\n        /* \"ABDKMath64x64.sol\":4512:4514  64 */\n      0x40\n        /* \"ABDKMath64x64.sol\":4495:4514  int256(x) * y >> 64 */\n      sar\n      not(0x7fffffffffffffffffffffffffffffff)\n        /* \"ABDKMath64x64.sol\":4531:4550  result >= MIN_64x64 */\n      dup2\n      slt\n      dup1\n      iszero\n      swap1\n        /* \"ABDKMath64x64.sol\":4531:4573  result >= MIN_64x64 && result <= MAX_64x64 */\n      tag_644\n      jumpi\n      pop\n      sub(shl(0x7f, 0x01), 0x01)\n        /* \"ABDKMath64x64.sol\":4554:4573  result <= MAX_64x64 */\n      dup2\n      sgt\n      iszero\n        /* \"ABDKMath64x64.sol\":4531:4573  result >= MIN_64x64 && result <= MAX_64x64 */\n    tag_644:\n        /* \"ABDKMath64x64.sol\":4522:4574  require (result >= MIN_64x64 && result <= MAX_64x64) */\n      tag_378\n      jumpi\n      0x00\n      dup1\n      revert\n        /* \"ABDKMath64x64.sol\":8684:8917  function divu (uint256 x, uint256 y) internal pure returns (int128) {... */\n    tag_204:\n        /* \"ABDKMath64x64.sol\":8744:8750  int128 */\n      0x00\n        /* \"ABDKMath64x64.sol\":8785:8786  y */\n      dup2\n        /* \"ABDKMath64x64.sol\":8790:8791  0 */\n      0x00\n        /* \"ABDKMath64x64.sol\":8785:8791  y != 0 */\n      sub\n        /* \"ABDKMath64x64.sol\":8776:8792  require (y != 0) */\n      tag_647\n      jumpi\n      0x00\n      dup1\n      revert\n    tag_647:\n        /* \"ABDKMath64x64.sol\":8800:8814  uint128 result */\n      0x00\n        /* \"ABDKMath64x64.sol\":8817:8829  divuu (x, y) */\n      tag_648\n        /* \"ABDKMath64x64.sol\":8824:8825  x */\n      dup5\n        /* \"ABDKMath64x64.sol\":8827:8828  y */\n      dup5\n        /* \"ABDKMath64x64.sol\":8817:8822  divuu */\n      tag_649\n        /* \"ABDKMath64x64.sol\":8817:8829  divuu (x, y) */\n      jump\t// in\n    tag_648:\n        /* \"ABDKMath64x64.sol\":8800:8829  uint128 result = divuu (x, y) */\n      swap1\n      pop\n      sub(shl(0x7f, 0x01), 0x01)\n      sub(shl(0x80, 0x01), 0x01)\n        /* \"ABDKMath64x64.sol\":8846:8875  result <= uint128 (MAX_64x64) */\n      dup3\n      and\n      gt\n      iszero\n        /* \"ABDKMath64x64.sol\":8837:8876  require (result <= uint128 (MAX_64x64)) */\n      tag_378\n      jumpi\n      0x00\n      dup1\n      revert\n        /* \"ABDKMath64x64.sol\":7033:7285  function div (int128 x, int128 y) internal pure returns (int128) {... */\n    tag_218:\n        /* \"ABDKMath64x64.sol\":7090:7096  int128 */\n      0x00\n        /* \"ABDKMath64x64.sol\":7131:7132  y */\n      dup2\n        /* \"ABDKMath64x64.sol\":7131:7137  y != 0 */\n      0x0f\n      signextend\n        /* \"ABDKMath64x64.sol\":7136:7137  0 */\n      0x00\n        /* \"ABDKMath64x64.sol\":7131:7137  y != 0 */\n      sub\n        /* \"ABDKMath64x64.sol\":7122:7138  require (y != 0) */\n      tag_652\n      jumpi\n      0x00\n      dup1\n      revert\n    tag_652:\n        /* \"ABDKMath64x64.sol\":7146:7159  int256 result */\n      0x00\n        /* \"ABDKMath64x64.sol\":7183:7184  y */\n      dup3\n        /* \"ABDKMath64x64.sol\":7162:7184  (int256 (x) << 64) / y */\n      0x0f\n      signextend\n        /* \"ABDKMath64x64.sol\":7177:7179  64 */\n      0x40\n        /* \"ABDKMath64x64.sol\":7171:7172  x */\n      dup6\n        /* \"ABDKMath64x64.sol\":7163:7173  int256 (x) */\n      0x0f\n      signextend\n        /* \"ABDKMath64x64.sol\":7163:7179  int256 (x) << 64 */\n      swap1\n      shl\n        /* \"ABDKMath64x64.sol\":7162:7184  (int256 (x) << 64) / y */\n      dup2\n      tag_654\n      jumpi\n      tag_654\n      tag_655\n      jump\t// in\n    tag_654:\n      sdiv\n      swap1\n      pop\n      not(0x7fffffffffffffffffffffffffffffff)\n        /* \"ABDKMath64x64.sol\":7201:7220  result >= MIN_64x64 */\n      dup2\n      slt\n      dup1\n      iszero\n      swap1\n        /* \"ABDKMath64x64.sol\":7201:7243  result >= MIN_64x64 && result <= MAX_64x64 */\n      tag_644\n      jumpi\n      pop\n      sub(shl(0x7f, 0x01), 0x01)\n        /* \"ABDKMath64x64.sol\":7224:7243  result <= MAX_64x64 */\n      dup2\n      sgt\n      iszero\n        /* \"ABDKMath64x64.sol\":7192:7244  require (result >= MIN_64x64 && result <= MAX_64x64) */\n      tag_378\n      jumpi\n      0x00\n      dup1\n      revert\n        /* \"ABDKMath64x64.sol\":22564:22860  function exp (int128 x) internal pure returns (int128) {... */\n    tag_219:\n        /* \"ABDKMath64x64.sol\":22611:22617  int128 */\n      0x00\n        /* \"ABDKMath64x64.sol\":22656:22676  0x400000000000000000 */\n      0x400000000000000000\n        /* \"ABDKMath64x64.sol\":22652:22653  x */\n      dup3\n        /* \"ABDKMath64x64.sol\":22652:22676  x < 0x400000000000000000 */\n      0x0f\n      signextend\n      slt\n        /* \"ABDKMath64x64.sol\":22643:22677  require (x < 0x400000000000000000) */\n      tag_659\n      jumpi\n      0x00\n      dup1\n      revert\n    tag_659:\n      not(0x3fffffffffffffffff)\n        /* \"ABDKMath64x64.sol\":22702:22703  x */\n      dup3\n        /* \"ABDKMath64x64.sol\":22702:22727  x < -0x400000000000000000 */\n      0x0f\n      signextend\n      slt\n        /* \"ABDKMath64x64.sol\":22698:22737  if (x < -0x400000000000000000) return 0 */\n      iszero\n      tag_660\n      jumpi\n      pop\n        /* \"ABDKMath64x64.sol\":22736:22737  0 */\n      0x00\n      swap2\n        /* \"ABDKMath64x64.sol\":22564:22860  function exp (int128 x) internal pure returns (int128) {... */\n      swap1\n      pop\n      jump\t// out\n        /* \"ABDKMath64x64.sol\":22698:22737  if (x < -0x400000000000000000) return 0 */\n    tag_660:\n        /* \"ABDKMath64x64.sol\":22766:22849  exp_2 (... */\n      tag_181\n        /* \"ABDKMath64x64.sol\":22844:22847  128 */\n      0x80\n        /* \"ABDKMath64x64.sol\":22800:22801  x */\n      dup4\n        /* \"ABDKMath64x64.sol\":22792:22802  int256 (x) */\n      0x0f\n      signextend\n        /* \"ABDKMath64x64.sol\":22805:22840  0x171547652B82FE1777D0FFDA0D23A7D12 */\n      0x0171547652b82fe1777d0ffda0d23a7d12\n        /* \"ABDKMath64x64.sol\":22792:22840  int256 (x) * 0x171547652B82FE1777D0FFDA0D23A7D12 */\n      mul\n        /* \"ABDKMath64x64.sol\":22792:22847  int256 (x) * 0x171547652B82FE1777D0FFDA0D23A7D12 >> 128 */\n      swap1\n      sar\n        /* \"ABDKMath64x64.sol\":22766:22771  exp_2 */\n      tag_662\n        /* \"ABDKMath64x64.sol\":22766:22849  exp_2 (... */\n      jump\t// in\n        /* \"ABDKMath64x64.sol\":3512:3731  function add (int128 x, int128 y) internal pure returns (int128) {... */\n    tag_220:\n        /* \"ABDKMath64x64.sol\":3569:3575  int128 */\n      0x00\n        /* \"ABDKMath64x64.sol\":3617:3630  int256(x) + y */\n      0x0f\n        /* \"ABDKMath64x64.sol\":3617:3626  int256(x) */\n      dup4\n      dup2\n      signextend\n        /* \"ABDKMath64x64.sol\":3617:3630  int256(x) + y */\n      swap1\n      dup4\n      swap1\n      signextend\n      add\n      not(0x7fffffffffffffffffffffffffffffff)\n        /* \"ABDKMath64x64.sol\":3647:3666  result >= MIN_64x64 */\n      dup2\n      slt\n      dup1\n      iszero\n      swap1\n        /* \"ABDKMath64x64.sol\":3647:3689  result >= MIN_64x64 && result <= MAX_64x64 */\n      tag_644\n      jumpi\n      pop\n      sub(shl(0x7f, 0x01), 0x01)\n        /* \"ABDKMath64x64.sol\":3670:3689  result <= MAX_64x64 */\n      dup2\n      sgt\n      iszero\n        /* \"ABDKMath64x64.sol\":3638:3690  require (result >= MIN_64x64 && result <= MAX_64x64) */\n      tag_378\n      jumpi\n      0x00\n      dup1\n      revert\n        /* \"ABDKMath64x64.sol\":15145:15366  function ln (int128 x) internal pure returns (int128) {... */\n    tag_223:\n        /* \"ABDKMath64x64.sol\":15191:15197  int128 */\n      0x00\n        /* \"ABDKMath64x64.sol\":15236:15237  0 */\n      dup1\n        /* \"ABDKMath64x64.sol\":15232:15233  x */\n      dup3\n        /* \"ABDKMath64x64.sol\":15232:15237  x > 0 */\n      0x0f\n      signextend\n      sgt\n        /* \"ABDKMath64x64.sol\":15223:15238  require (x > 0) */\n      tag_667\n      jumpi\n      0x00\n      dup1\n      revert\n    tag_667:\n        /* \"ABDKMath64x64.sol\":15350:15353  128 */\n      0x80\n        /* \"ABDKMath64x64.sol\":15298:15307  log_2 (x) */\n      tag_668\n        /* \"ABDKMath64x64.sol\":15305:15306  x */\n      dup4\n        /* \"ABDKMath64x64.sol\":15298:15303  log_2 */\n      tag_669\n        /* \"ABDKMath64x64.sol\":15298:15307  log_2 (x) */\n      jump\t// in\n    tag_668:\n        /* \"ABDKMath64x64.sol\":15290:15308  int256 (log_2 (x)) */\n      0x0f\n      signextend\n        /* \"ABDKMath64x64.sol\":15312:15346  0xB17217F7D1CF79ABC9E3B39803F2F6AF */\n      0xb17217f7d1cf79abc9e3b39803f2f6af\n        /* \"ABDKMath64x64.sol\":15281:15346  uint256 (int256 (log_2 (x))) * 0xB17217F7D1CF79ABC9E3B39803F2F6AF */\n      mul\n        /* \"ABDKMath64x64.sol\":15281:15353  uint256 (int256 (log_2 (x))) * 0xB17217F7D1CF79ABC9E3B39803F2F6AF >> 128 */\n      swap1\n      shr\n        /* \"ABDKMath64x64.sol\":15247:15355  return int128 (int256 (... */\n      swap1\n      pop\n        /* \"ABDKMath64x64.sol\":15145:15366  function ln (int128 x) internal pure returns (int128) {... */\n      swap2\n      swap1\n      pop\n      jump\t// out\n        /* \"@openzeppelin/contracts/access/Ownable.sol\":1796:1958   */\n    tag_228:\n        /* \"@openzeppelin/contracts/access/Ownable.sol\":1684:1691   */\n      0x00\n        /* \"@openzeppelin/contracts/access/Ownable.sol\":1710:1716   */\n      sload\n      sub(shl(0xa0, 0x01), 0x01)\n      and\n        /* \"@openzeppelin/contracts/utils/Context.sol\":735:745   */\n      caller\n        /* \"@openzeppelin/contracts/access/Ownable.sol\":1855:1878   */\n      eq\n        /* \"@openzeppelin/contracts/access/Ownable.sol\":1851:1952   */\n      tag_392\n      jumpi\n        /* \"@openzeppelin/contracts/access/Ownable.sol\":1901:1941   */\n      mload(0x40)\n      shl(0xe0, 0x118cdaa7)\n      dup2\n      mstore\n        /* \"@openzeppelin/contracts/utils/Context.sol\":735:745   */\n      caller\n        /* \"@openzeppelin/contracts/access/Ownable.sol\":1901:1941   */\n      0x04\n      dup3\n      add\n        /* \"#utility.yul\":5222:5296   */\n      mstore\n        /* \"#utility.yul\":5195:5213   */\n      0x24\n      add\n        /* \"@openzeppelin/contracts/access/Ownable.sol\":1901:1941   */\n      tag_189\n        /* \"#utility.yul\":5076:5302   */\n      jump\n        /* \"@openzeppelin/contracts/token/ERC20/utils/SafeERC20.sol\":1219:1379   */\n    tag_257:\n        /* \"@openzeppelin/contracts/token/ERC20/utils/SafeERC20.sol\":1328:1371   */\n      mload(0x40)\n      sub(shl(0xa0, 0x01), 0x01)\n        /* \"#utility.yul\":14863:14918   */\n      dup4\n      dup2\n      and\n        /* \"@openzeppelin/contracts/token/ERC20/utils/SafeERC20.sol\":1328:1371   */\n      0x24\n      dup4\n      add\n        /* \"#utility.yul\":14845:14919   */\n      mstore\n        /* \"#utility.yul\":14935:14953   */\n      0x44\n      dup3\n      add\n        /* \"#utility.yul\":14928:14962   */\n      dup4\n      swap1\n      mstore\n        /* \"@openzeppelin/contracts/token/ERC20/utils/SafeERC20.sol\":1301:1372   */\n      tag_678\n      swap2\n        /* \"@openzeppelin/contracts/token/ERC20/utils/SafeERC20.sol\":1321:1326   */\n      dup6\n      swap2\n        /* \"@openzeppelin/contracts/token/ERC20/utils/SafeERC20.sol\":1343:1357   */\n      dup3\n      and\n      swap1\n      0xa9059cbb\n      swap1\n        /* \"#utility.yul\":14818:14836   */\n      0x64\n      add\n        /* \"@openzeppelin/contracts/token/ERC20/utils/SafeERC20.sol\":1328:1371   */\n    tag_679:\n      mload(0x40)\n      0x20\n      dup2\n      dup4\n      sub\n      sub\n      dup2\n      mstore\n      swap1\n      0x40\n      mstore\n      swap2\n      pop\n      0xe0\n      shl\n      0x20\n      dup3\n      add\n      dup1\n      mload\n      0xffffffffffffffffffffffffffffffffffffffffffffffffffffffff\n      dup4\n      dup2\n      dup4\n      and\n      or\n      dup4\n      mstore\n      pop\n      pop\n      pop\n      pop\n        /* \"@openzeppelin/contracts/token/ERC20/utils/SafeERC20.sol\":1301:1320   */\n      tag_680\n        /* \"@openzeppelin/contracts/token/ERC20/utils/SafeERC20.sol\":1301:1372   */\n      jump\t// in\n    tag_678:\n        /* \"@openzeppelin/contracts/token/ERC20/utils/SafeERC20.sol\":1219:1379   */\n      pop\n      pop\n      pop\n      jump\t// out\n        /* \"ABDKMath64x64.sol\":1953:2122  function fromUInt (uint256 x) internal pure returns (int128) {... */\n    tag_322:\n        /* \"ABDKMath64x64.sol\":2006:2012  int128 */\n      0x00\n        /* \"ABDKMath64x64.sol\":2052:2070  0x7FFFFFFFFFFFFFFF */\n      0x7fffffffffffffff\n        /* \"ABDKMath64x64.sol\":2047:2048  x */\n      dup3\n        /* \"ABDKMath64x64.sol\":2047:2070  x <= 0x7FFFFFFFFFFFFFFF */\n      gt\n      iszero\n        /* \"ABDKMath64x64.sol\":2038:2071  require (x <= 0x7FFFFFFFFFFFFFFF) */\n      tag_682\n      jumpi\n      0x00\n      dup1\n      revert\n    tag_682:\n      pop\n        /* \"ABDKMath64x64.sol\":2107:2109  64 */\n      0x40\n        /* \"ABDKMath64x64.sol\":2102:2109  x << 64 */\n      shl\n      swap1\n        /* \"ABDKMath64x64.sol\":1953:2122  function fromUInt (uint256 x) internal pure returns (int128) {... */\n      jump\t// out\n        /* \"@openzeppelin/contracts/token/ERC20/utils/SafeERC20.sol\":1618:1806   */\n    tag_325:\n        /* \"@openzeppelin/contracts/token/ERC20/utils/SafeERC20.sol\":1745:1798   */\n      mload(0x40)\n      sub(shl(0xa0, 0x01), 0x01)\n        /* \"#utility.yul\":21286:21301   */\n      dup5\n      dup2\n      and\n        /* \"@openzeppelin/contracts/token/ERC20/utils/SafeERC20.sol\":1745:1798   */\n      0x24\n      dup4\n      add\n        /* \"#utility.yul\":21268:21302   */\n      mstore\n        /* \"#utility.yul\":21338:21353   */\n      dup4\n      dup2\n      and\n        /* \"#utility.yul\":21318:21336   */\n      0x44\n      dup4\n      add\n        /* \"#utility.yul\":21311:21354   */\n      mstore\n        /* \"#utility.yul\":21370:21388   */\n      0x64\n      dup3\n      add\n        /* \"#utility.yul\":21363:21397   */\n      dup4\n      swap1\n      mstore\n        /* \"@openzeppelin/contracts/token/ERC20/utils/SafeERC20.sol\":1718:1799   */\n      tag_684\n      swap2\n        /* \"@openzeppelin/contracts/token/ERC20/utils/SafeERC20.sol\":1738:1743   */\n      dup7\n      swap2\n        /* \"@openzeppelin/contracts/token/ERC20/utils/SafeERC20.sol\":1760:1778   */\n      dup3\n      and\n      swap1\n      0x23b872dd\n      swap1\n        /* \"#utility.yul\":21180:21198   */\n      0x84\n      add\n        /* \"@openzeppelin/contracts/token/ERC20/utils/SafeERC20.sol\":1745:1798   */\n      tag_679\n        /* \"#utility.yul\":21005:21403   */\n      jump\n        /* \"@openzeppelin/contracts/token/ERC20/utils/SafeERC20.sol\":1718:1799   */\n    tag_684:\n        /* \"@openzeppelin/contracts/token/ERC20/utils/SafeERC20.sol\":1618:1806   */\n      pop\n      pop\n      pop\n      pop\n      jump\t// out\n        /* \"@openzeppelin/contracts/access/Ownable.sol\":2912:3099   */\n    tag_393:\n        /* \"@openzeppelin/contracts/access/Ownable.sol\":2985:3001   */\n      0x00\n        /* \"@openzeppelin/contracts/access/Ownable.sol\":3004:3010   */\n      dup1\n      sload\n      sub(shl(0xa0, 0x01), 0x01)\n        /* \"@openzeppelin/contracts/access/Ownable.sol\":3020:3037   */\n      dup4\n      dup2\n      and\n      0xffffffffffffffffffffffff0000000000000000000000000000000000000000\n      dup4\n      and\n      dup2\n      or\n      dup5\n      sstore\n        /* \"@openzeppelin/contracts/access/Ownable.sol\":3052:3092   */\n      mload(0x40)\n        /* \"@openzeppelin/contracts/access/Ownable.sol\":3004:3010   */\n      swap2\n      swap1\n      swap3\n      and\n      swap3\n      dup4\n      swap2\n        /* \"@openzeppelin/contracts/access/Ownable.sol\":3052:3092   */\n      0x8be0079c531659141344cd1fd0a4f28419497f9722a3daafe3b4186f6b6457e0\n      swap2\n        /* \"@openzeppelin/contracts/access/Ownable.sol\":2985:3001   */\n      swap1\n        /* \"@openzeppelin/contracts/access/Ownable.sol\":3052:3092   */\n      log3\n        /* \"@openzeppelin/contracts/access/Ownable.sol\":2975:3099   */\n      pop\n        /* \"@openzeppelin/contracts/access/Ownable.sol\":2912:3099   */\n      pop\n      jump\t// out\n        /* \"NoBOverround.sol\":7045:7183  function getOnes(uint n) internal pure returns (uint count) {... */\n    tag_428:\n        /* \"NoBOverround.sol\":7093:7103  uint count */\n      0x00\n        /* \"NoBOverround.sol\":7126:7179  while(n!=0) {... */\n    tag_688:\n        /* \"NoBOverround.sol\":7132:7136  n!=0 */\n      dup2\n      iszero\n        /* \"NoBOverround.sol\":7126:7179  while(n!=0) {... */\n      tag_689\n      jumpi\n        /* \"NoBOverround.sol\":7153:7156  n-1 */\n      tag_690\n        /* \"NoBOverround.sol\":7155:7156  1 */\n      0x01\n        /* \"NoBOverround.sol\":7153:7154  n */\n      dup4\n        /* \"NoBOverround.sol\":7153:7156  n-1 */\n      tag_297\n      jump\t// in\n    tag_690:\n        /* \"NoBOverround.sol\":7150:7157  n&(n-1) */\n      swap1\n      swap2\n      and\n      swap1\n        /* \"NoBOverround.sol\":7165:7172  count++ */\n      dup1\n      tag_691\n      dup2\n      tag_442\n      jump\t// in\n    tag_691:\n      swap2\n      pop\n      pop\n        /* \"NoBOverround.sol\":7126:7179  while(n!=0) {... */\n      jump(tag_688)\n    tag_689:\n        /* \"NoBOverround.sol\":7045:7183  function getOnes(uint n) internal pure returns (uint count) {... */\n      swap2\n      swap1\n      pop\n      jump\t// out\n        /* \"NoBOverround.sol\":12958:13836  function _calculateSellRefund(... */\n    tag_476:\n        /* \"NoBOverround.sol\":13154:13169  int128 new_cost */\n      0x00\n        /* \"NoBOverround.sol\":13171:13185  int128 refund_ */\n      dup1\n        /* \"NoBOverround.sol\":13187:13210  int128 new_total_shares */\n      0x00\n        /* \"NoBOverround.sol\":13218:13239  int128[] memory new_q */\n      dup1\n        /* \"NoBOverround.sol\":13255:13267  numOutcomes_ */\n      dup5\n        /* \"NoBOverround.sol\":13242:13268  new int128[](numOutcomes_) */\n      0xffffffffffffffff\n      dup2\n      gt\n      iszero\n      tag_694\n      jumpi\n      tag_694\n      tag_240\n      jump\t// in\n    tag_694:\n      mload(0x40)\n      swap1\n      dup1\n      dup3\n      mstore\n      dup1\n      0x20\n      mul\n      0x20\n      add\n      dup3\n      add\n      0x40\n      mstore\n      dup1\n      iszero\n      tag_695\n      jumpi\n      dup2\n      0x20\n      add\n      0x20\n      dup3\n      mul\n      dup1\n      calldatasize\n      dup4\n      calldatacopy\n      add\n      swap1\n      pop\n    tag_695:\n      pop\n        /* \"NoBOverround.sol\":13218:13268  int128[] memory new_q = new int128[](numOutcomes_) */\n      swap1\n      pop\n        /* \"NoBOverround.sol\":13279:13285  uint i */\n      0x00\n        /* \"NoBOverround.sol\":13274:13347  for (uint i = 0; i < numOutcomes_; i++) {... */\n    tag_696:\n        /* \"NoBOverround.sol\":13295:13307  numOutcomes_ */\n      dup6\n        /* \"NoBOverround.sol\":13291:13292  i */\n      dup2\n        /* \"NoBOverround.sol\":13291:13307  i < numOutcomes_ */\n      lt\n        /* \"NoBOverround.sol\":13274:13347  for (uint i = 0; i < numOutcomes_; i++) {... */\n      iszero\n      tag_697\n      jumpi\n        /* \"NoBOverround.sol\":13335:13337  q_ */\n      dup11\n        /* \"NoBOverround.sol\":13338:13339  i */\n      dup2\n        /* \"NoBOverround.sol\":13335:13340  q_[i] */\n      dup2\n      mload\n      dup2\n      lt\n      tag_700\n      jumpi\n      tag_700\n      tag_216\n      jump\t// in\n    tag_700:\n      0x20\n      mul\n      0x20\n      add\n      add\n      mload\n        /* \"NoBOverround.sol\":13324:13329  new_q */\n      dup3\n        /* \"NoBOverround.sol\":13330:13331  i */\n      dup3\n        /* \"NoBOverround.sol\":13324:13332  new_q[i] */\n      dup2\n      mload\n      dup2\n      lt\n      tag_702\n      jumpi\n      tag_702\n      tag_216\n      jump\t// in\n    tag_702:\n        /* \"NoBOverround.sol\":13324:13340  new_q[i] = q_[i] */\n      0x0f\n      swap3\n      swap1\n      swap3\n      signextend\n        /* \"NoBOverround.sol\":13324:13332  new_q[i] */\n      0x20\n      swap3\n      dup4\n      mul\n      swap2\n      swap1\n      swap2\n      add\n      swap1\n      swap2\n      add\n        /* \"NoBOverround.sol\":13324:13340  new_q[i] = q_[i] */\n      mstore\n        /* \"NoBOverround.sol\":13309:13312  i++ */\n      0x01\n      add\n        /* \"NoBOverround.sol\":13274:13347  for (uint i = 0; i < numOutcomes_; i++) {... */\n      jump(tag_696)\n    tag_697:\n      pop\n        /* \"NoBOverround.sol\":13370:13408  ABDKMath.sub(new_q[_outcome], _amount) */\n      tag_703\n        /* \"NoBOverround.sol\":13383:13388  new_q */\n      dup2\n        /* \"NoBOverround.sol\":13389:13397  _outcome */\n      dup11\n        /* \"NoBOverround.sol\":13383:13398  new_q[_outcome] */\n      dup2\n      mload\n      dup2\n      lt\n      tag_705\n      jumpi\n      tag_705\n      tag_216\n      jump\t// in\n    tag_705:\n      0x20\n      mul\n      0x20\n      add\n      add\n      mload\n        /* \"NoBOverround.sol\":13400:13407  _amount */\n      dup10\n        /* \"NoBOverround.sol\":13370:13382  ABDKMath.sub */\n      tag_568\n        /* \"NoBOverround.sol\":13370:13408  ABDKMath.sub(new_q[_outcome], _amount) */\n      jump\t// in\n    tag_703:\n        /* \"NoBOverround.sol\":13352:13357  new_q */\n      dup2\n        /* \"NoBOverround.sol\":13358:13366  _outcome */\n      dup11\n        /* \"NoBOverround.sol\":13352:13367  new_q[_outcome] */\n      dup2\n      mload\n      dup2\n      lt\n      tag_707\n      jumpi\n      tag_707\n      tag_216\n      jump\t// in\n    tag_707:\n      0x20\n      mul\n      0x20\n      add\n      add\n        /* \"NoBOverround.sol\":13352:13408  new_q[_outcome] = ABDKMath.sub(new_q[_outcome], _amount) */\n      swap1\n      0x0f\n      signextend\n      swap1\n      dup2\n      0x0f\n      signextend\n      dup2\n      mstore\n      pop\n      pop\n        /* \"NoBOverround.sol\":13433:13469  ABDKMath.sub(total_shares_, _amount) */\n      tag_708\n        /* \"NoBOverround.sol\":13446:13459  total_shares_ */\n      dup8\n        /* \"NoBOverround.sol\":13461:13468  _amount */\n      dup10\n        /* \"NoBOverround.sol\":13433:13445  ABDKMath.sub */\n      tag_568\n        /* \"NoBOverround.sol\":13433:13469  ABDKMath.sub(total_shares_, _amount) */\n      jump\t// in\n    tag_708:\n        /* \"NoBOverround.sol\":13552:13553  b */\n      sload(0x03)\n        /* \"NoBOverround.sol\":13414:13469  new_total_shares = ABDKMath.sub(total_shares_, _amount) */\n      swap1\n      swap3\n      pop\n        /* \"NoBOverround.sol\":13552:13553  b */\n      0x0f\n      signextend\n        /* \"NoBOverround.sol\":13536:13549  int128 used_b */\n      0x00\n      dup1\n        /* \"NoBOverround.sol\":13582:13720  for (uint i = 0; i < numOutcomes_; i++) {... */\n    tag_709:\n        /* \"NoBOverround.sol\":13603:13615  numOutcomes_ */\n      dup8\n        /* \"NoBOverround.sol\":13599:13600  i */\n      dup2\n        /* \"NoBOverround.sol\":13599:13615  i < numOutcomes_ */\n      lt\n        /* \"NoBOverround.sol\":13582:13720  for (uint i = 0; i < numOutcomes_; i++) {... */\n      iszero\n      tag_710\n      jumpi\n        /* \"NoBOverround.sol\":13644:13713  ABDKMath.add(sum_total, ABDKMath.exp(ABDKMath.div(new_q[i], used_b))) */\n      tag_712\n        /* \"NoBOverround.sol\":13657:13666  sum_total */\n      dup3\n        /* \"NoBOverround.sol\":13668:13712  ABDKMath.exp(ABDKMath.div(new_q[i], used_b)) */\n      tag_212\n        /* \"NoBOverround.sol\":13681:13711  ABDKMath.div(new_q[i], used_b) */\n      tag_213\n        /* \"NoBOverround.sol\":13694:13699  new_q */\n      dup8\n        /* \"NoBOverround.sol\":13700:13701  i */\n      dup6\n        /* \"NoBOverround.sol\":13694:13702  new_q[i] */\n      dup2\n      mload\n      dup2\n      lt\n      tag_716\n      jumpi\n      tag_716\n      tag_216\n      jump\t// in\n    tag_716:\n      0x20\n      mul\n      0x20\n      add\n      add\n      mload\n        /* \"NoBOverround.sol\":13704:13710  used_b */\n      dup8\n        /* \"NoBOverround.sol\":13681:13693  ABDKMath.div */\n      tag_218\n        /* \"NoBOverround.sol\":13681:13711  ABDKMath.div(new_q[i], used_b) */\n      jump\t// in\n        /* \"NoBOverround.sol\":13644:13713  ABDKMath.add(sum_total, ABDKMath.exp(ABDKMath.div(new_q[i], used_b))) */\n    tag_712:\n        /* \"NoBOverround.sol\":13632:13713  sum_total = ABDKMath.add(sum_total, ABDKMath.exp(ABDKMath.div(new_q[i], used_b))) */\n      swap2\n      pop\n        /* \"NoBOverround.sol\":13617:13620  i++ */\n      0x01\n      add\n        /* \"NoBOverround.sol\":13582:13720  for (uint i = 0; i < numOutcomes_; i++) {... */\n      jump(tag_709)\n    tag_710:\n      pop\n        /* \"NoBOverround.sol\":13736:13780  ABDKMath.mul(used_b, ABDKMath.ln(sum_total)) */\n      tag_717\n        /* \"NoBOverround.sol\":13749:13755  used_b */\n      dup3\n        /* \"NoBOverround.sol\":13757:13779  ABDKMath.ln(sum_total) */\n      tag_222\n        /* \"NoBOverround.sol\":13769:13778  sum_total */\n      dup4\n        /* \"NoBOverround.sol\":13757:13768  ABDKMath.ln */\n      tag_223\n        /* \"NoBOverround.sol\":13757:13779  ABDKMath.ln(sum_total) */\n      jump\t// in\n        /* \"NoBOverround.sol\":13736:13780  ABDKMath.mul(used_b, ABDKMath.ln(sum_total)) */\n    tag_717:\n        /* \"NoBOverround.sol\":13725:13780  new_cost = ABDKMath.mul(used_b, ABDKMath.ln(sum_total)) */\n      swap6\n      pop\n        /* \"NoBOverround.sol\":13796:13833  ABDKMath.sub(current_cost_, new_cost) */\n      tag_719\n        /* \"NoBOverround.sol\":13809:13822  current_cost_ */\n      dup9\n        /* \"NoBOverround.sol\":13824:13832  new_cost */\n      dup8\n        /* \"NoBOverround.sol\":13796:13808  ABDKMath.sub */\n      tag_568\n        /* \"NoBOverround.sol\":13796:13833  ABDKMath.sub(current_cost_, new_cost) */\n      jump\t// in\n    tag_719:\n        /* \"NoBOverround.sol\":13786:13833  refund_ = ABDKMath.sub(current_cost_, new_cost) */\n      swap5\n      pop\n        /* \"NoBOverround.sol\":13212:13836  {... */\n      pop\n      pop\n      pop\n        /* \"NoBOverround.sol\":12958:13836  function _calculateSellRefund(... */\n      swap7\n      pop\n      swap7\n      pop\n      swap7\n      swap4\n      pop\n      pop\n      pop\n      pop\n      jump\t// out\n        /* \"ABDKMath64x64.sol\":3944:4163  function sub (int128 x, int128 y) internal pure returns (int128) {... */\n    tag_568:\n        /* \"ABDKMath64x64.sol\":4001:4007  int128 */\n      0x00\n        /* \"ABDKMath64x64.sol\":4049:4062  int256(x) - y */\n      0x0f\n      dup3\n      dup2\n      signextend\n        /* \"ABDKMath64x64.sol\":4049:4058  int256(x) */\n      swap1\n      dup5\n      swap1\n      signextend\n        /* \"ABDKMath64x64.sol\":4049:4062  int256(x) - y */\n      sub\n      not(0x7fffffffffffffffffffffffffffffff)\n        /* \"ABDKMath64x64.sol\":4079:4098  result >= MIN_64x64 */\n      dup2\n      slt\n      dup1\n      iszero\n      swap1\n        /* \"ABDKMath64x64.sol\":4079:4121  result >= MIN_64x64 && result <= MAX_64x64 */\n      tag_644\n      jumpi\n      pop\n      sub(shl(0x7f, 0x01), 0x01)\n        /* \"ABDKMath64x64.sol\":4102:4121  result <= MAX_64x64 */\n      dup2\n      sgt\n      iszero\n        /* \"ABDKMath64x64.sol\":4070:4122  require (result >= MIN_64x64 && result <= MAX_64x64) */\n      tag_378\n      jumpi\n      0x00\n      dup1\n      revert\n        /* \"NoBOverround.sol\":4125:5003  function _calculateBuyPrice(... */\n    tag_614:\n        /* \"NoBOverround.sol\":4321:4336  int128 new_cost */\n      0x00\n        /* \"NoBOverround.sol\":4338:4351  int128 price_ */\n      dup1\n        /* \"NoBOverround.sol\":4353:4376  int128 new_total_shares */\n      0x00\n        /* \"NoBOverround.sol\":4384:4405  int128[] memory new_q */\n      dup1\n        /* \"NoBOverround.sol\":4421:4433  numOutcomes_ */\n      dup5\n        /* \"NoBOverround.sol\":4408:4434  new int128[](numOutcomes_) */\n      0xffffffffffffffff\n      dup2\n      gt\n      iszero\n      tag_725\n      jumpi\n      tag_725\n      tag_240\n      jump\t// in\n    tag_725:\n      mload(0x40)\n      swap1\n      dup1\n      dup3\n      mstore\n      dup1\n      0x20\n      mul\n      0x20\n      add\n      dup3\n      add\n      0x40\n      mstore\n      dup1\n      iszero\n      tag_726\n      jumpi\n      dup2\n      0x20\n      add\n      0x20\n      dup3\n      mul\n      dup1\n      calldatasize\n      dup4\n      calldatacopy\n      add\n      swap1\n      pop\n    tag_726:\n      pop\n        /* \"NoBOverround.sol\":4384:4434  int128[] memory new_q = new int128[](numOutcomes_) */\n      swap1\n      pop\n        /* \"NoBOverround.sol\":4445:4451  uint i */\n      0x00\n        /* \"NoBOverround.sol\":4440:4513  for (uint i = 0; i < numOutcomes_; i++) {... */\n    tag_727:\n        /* \"NoBOverround.sol\":4461:4473  numOutcomes_ */\n      dup6\n        /* \"NoBOverround.sol\":4457:4458  i */\n      dup2\n        /* \"NoBOverround.sol\":4457:4473  i < numOutcomes_ */\n      lt\n        /* \"NoBOverround.sol\":4440:4513  for (uint i = 0; i < numOutcomes_; i++) {... */\n      iszero\n      tag_728\n      jumpi\n        /* \"NoBOverround.sol\":4501:4503  q_ */\n      dup11\n        /* \"NoBOverround.sol\":4504:4505  i */\n      dup2\n        /* \"NoBOverround.sol\":4501:4506  q_[i] */\n      dup2\n      mload\n      dup2\n      lt\n      tag_731\n      jumpi\n      tag_731\n      tag_216\n      jump\t// in\n    tag_731:\n      0x20\n      mul\n      0x20\n      add\n      add\n      mload\n        /* \"NoBOverround.sol\":4490:4495  new_q */\n      dup3\n        /* \"NoBOverround.sol\":4496:4497  i */\n      dup3\n        /* \"NoBOverround.sol\":4490:4498  new_q[i] */\n      dup2\n      mload\n      dup2\n      lt\n      tag_733\n      jumpi\n      tag_733\n      tag_216\n      jump\t// in\n    tag_733:\n        /* \"NoBOverround.sol\":4490:4506  new_q[i] = q_[i] */\n      0x0f\n      swap3\n      swap1\n      swap3\n      signextend\n        /* \"NoBOverround.sol\":4490:4498  new_q[i] */\n      0x20\n      swap3\n      dup4\n      mul\n      swap2\n      swap1\n      swap2\n      add\n      swap1\n      swap2\n      add\n        /* \"NoBOverround.sol\":4490:4506  new_q[i] = q_[i] */\n      mstore\n        /* \"NoBOverround.sol\":4475:4478  i++ */\n      0x01\n      add\n        /* \"NoBOverround.sol\":4440:4513  for (uint i = 0; i < numOutcomes_; i++) {... */\n      jump(tag_727)\n    tag_728:\n      pop\n        /* \"NoBOverround.sol\":4536:4574  ABDKMath.add(new_q[_outcome], _amount) */\n      tag_734\n        /* \"NoBOverround.sol\":4549:4554  new_q */\n      dup2\n        /* \"NoBOverround.sol\":4555:4563  _outcome */\n      dup11\n        /* \"NoBOverround.sol\":4549:4564  new_q[_outcome] */\n      dup2\n      mload\n      dup2\n      lt\n      tag_736\n      jumpi\n      tag_736\n      tag_216\n      jump\t// in\n    tag_736:\n      0x20\n      mul\n      0x20\n      add\n      add\n      mload\n        /* \"NoBOverround.sol\":4566:4573  _amount */\n      dup10\n        /* \"NoBOverround.sol\":4536:4548  ABDKMath.add */\n      tag_220\n        /* \"NoBOverround.sol\":4536:4574  ABDKMath.add(new_q[_outcome], _amount) */\n      jump\t// in\n    tag_734:\n        /* \"NoBOverround.sol\":4518:4523  new_q */\n      dup2\n        /* \"NoBOverround.sol\":4524:4532  _outcome */\n      dup11\n        /* \"NoBOverround.sol\":4518:4533  new_q[_outcome] */\n      dup2\n      mload\n      dup2\n      lt\n      tag_738\n      jumpi\n      tag_738\n      tag_216\n      jump\t// in\n    tag_738:\n      0x20\n      mul\n      0x20\n      add\n      add\n        /* \"NoBOverround.sol\":4518:4574  new_q[_outcome] = ABDKMath.add(new_q[_outcome], _amount) */\n      swap1\n      0x0f\n      signextend\n      swap1\n      dup2\n      0x0f\n      signextend\n      dup2\n      mstore\n      pop\n      pop\n        /* \"NoBOverround.sol\":4599:4635  ABDKMath.add(total_shares_, _amount) */\n      tag_739\n        /* \"NoBOverround.sol\":4612:4625  total_shares_ */\n      dup8\n        /* \"NoBOverround.sol\":4627:4634  _amount */\n      dup10\n        /* \"NoBOverround.sol\":4599:4611  ABDKMath.add */\n      tag_220\n        /* \"NoBOverround.sol\":4599:4635  ABDKMath.add(total_shares_, _amount) */\n      jump\t// in\n    tag_739:\n        /* \"NoBOverround.sol\":4718:4719  b */\n      sload(0x03)\n        /* \"NoBOverround.sol\":4580:4635  new_total_shares = ABDKMath.add(total_shares_, _amount) */\n      swap1\n      swap3\n      pop\n        /* \"NoBOverround.sol\":4718:4719  b */\n      0x0f\n      signextend\n        /* \"NoBOverround.sol\":4702:4715  int128 used_b */\n      0x00\n      dup1\n        /* \"NoBOverround.sol\":4748:4886  for (uint i = 0; i < numOutcomes_; i++) {... */\n    tag_740:\n        /* \"NoBOverround.sol\":4769:4781  numOutcomes_ */\n      dup8\n        /* \"NoBOverround.sol\":4765:4766  i */\n      dup2\n        /* \"NoBOverround.sol\":4765:4781  i < numOutcomes_ */\n      lt\n        /* \"NoBOverround.sol\":4748:4886  for (uint i = 0; i < numOutcomes_; i++) {... */\n      iszero\n      tag_741\n      jumpi\n        /* \"NoBOverround.sol\":4810:4879  ABDKMath.add(sum_total, ABDKMath.exp(ABDKMath.div(new_q[i], used_b))) */\n      tag_743\n        /* \"NoBOverround.sol\":4823:4832  sum_total */\n      dup3\n        /* \"NoBOverround.sol\":4834:4878  ABDKMath.exp(ABDKMath.div(new_q[i], used_b)) */\n      tag_212\n        /* \"NoBOverround.sol\":4847:4877  ABDKMath.div(new_q[i], used_b) */\n      tag_213\n        /* \"NoBOverround.sol\":4860:4865  new_q */\n      dup8\n        /* \"NoBOverround.sol\":4866:4867  i */\n      dup6\n        /* \"NoBOverround.sol\":4860:4868  new_q[i] */\n      dup2\n      mload\n      dup2\n      lt\n      tag_716\n      jumpi\n      tag_716\n      tag_216\n      jump\t// in\n        /* \"NoBOverround.sol\":4810:4879  ABDKMath.add(sum_total, ABDKMath.exp(ABDKMath.div(new_q[i], used_b))) */\n    tag_743:\n        /* \"NoBOverround.sol\":4798:4879  sum_total = ABDKMath.add(sum_total, ABDKMath.exp(ABDKMath.div(new_q[i], used_b))) */\n      swap2\n      pop\n        /* \"NoBOverround.sol\":4783:4786  i++ */\n      0x01\n      add\n        /* \"NoBOverround.sol\":4748:4886  for (uint i = 0; i < numOutcomes_; i++) {... */\n      jump(tag_740)\n    tag_741:\n      pop\n        /* \"NoBOverround.sol\":4902:4946  ABDKMath.mul(used_b, ABDKMath.ln(sum_total)) */\n      tag_748\n        /* \"NoBOverround.sol\":4915:4921  used_b */\n      dup3\n        /* \"NoBOverround.sol\":4923:4945  ABDKMath.ln(sum_total) */\n      tag_222\n        /* \"NoBOverround.sol\":4935:4944  sum_total */\n      dup4\n        /* \"NoBOverround.sol\":4923:4934  ABDKMath.ln */\n      tag_223\n        /* \"NoBOverround.sol\":4923:4945  ABDKMath.ln(sum_total) */\n      jump\t// in\n        /* \"NoBOverround.sol\":4902:4946  ABDKMath.mul(used_b, ABDKMath.ln(sum_total)) */\n    tag_748:\n        /* \"NoBOverround.sol\":4891:4946  new_cost = ABDKMath.mul(used_b, ABDKMath.ln(sum_total)) */\n      swap6\n      pop\n        /* \"NoBOverround.sol\":4961:4998  ABDKMath.sub(new_cost, current_cost_) */\n      tag_719\n        /* \"NoBOverround.sol\":4974:4982  new_cost */\n      dup7\n        /* \"NoBOverround.sol\":4984:4997  current_cost_ */\n      dup10\n        /* \"NoBOverround.sol\":4961:4973  ABDKMath.sub */\n      tag_568\n        /* \"NoBOverround.sol\":4961:4998  ABDKMath.sub(new_cost, current_cost_) */\n      jump\t// in\n        /* \"NoBOverround.sol\":5007:5793  function _mintAndTransferOutcomeTokens(... */\n    tag_637:\n        /* \"NoBOverround.sol\":5145:5150  token */\n      sload(0x08)\n        /* \"NoBOverround.sol\":5107:5128  uint n_outcome_tokens */\n      0x00\n      swap1\n        /* \"NoBOverround.sol\":5131:5160  getTokenWeiUp(token, _amount) */\n      tag_752\n      swap1\n      sub(shl(0xa0, 0x01), 0x01)\n        /* \"NoBOverround.sol\":5145:5150  token */\n      and\n        /* \"NoBOverround.sol\":5152:5159  _amount */\n      dup4\n        /* \"NoBOverround.sol\":5131:5144  getTokenWeiUp */\n      tag_55\n        /* \"NoBOverround.sol\":5131:5160  getTokenWeiUp(token, _amount) */\n      jump\t// in\n    tag_752:\n        /* \"NoBOverround.sol\":5177:5179  CT */\n      sload(0x07)\n        /* \"NoBOverround.sol\":5201:5206  token */\n      sload(0x08)\n        /* \"NoBOverround.sol\":5248:5257  condition */\n      sload(0x06)\n        /* \"NoBOverround.sol\":5217:5273  CT.getCollectionId(bytes32(0), condition, 1 << _outcome) */\n      mload(0x40)\n      shl(0xe0, 0x856296f7)\n      dup2\n      mstore\n        /* \"NoBOverround.sol\":5166:5174  uint pos */\n      0x00\n        /* \"NoBOverround.sol\":5217:5273  CT.getCollectionId(bytes32(0), condition, 1 << _outcome) */\n      0x04\n      dup3\n      add\n        /* \"#utility.yul\":14533:14558   */\n      dup2\n      swap1\n      mstore\n        /* \"#utility.yul\":14574:14592   */\n      0x24\n      dup3\n      add\n        /* \"#utility.yul\":14567:14601   */\n      swap3\n      swap1\n      swap3\n      mstore\n        /* \"NoBOverround.sol\":5177:5179  CT */\n      0x01\n        /* \"NoBOverround.sol\":5259:5272  1 << _outcome */\n      dup9\n      shl\n        /* \"#utility.yul\":14617:14635   */\n      0x44\n      dup3\n      add\n        /* \"#utility.yul\":14610:14644   */\n      mstore\n        /* \"NoBOverround.sol\":5107:5160  uint n_outcome_tokens = getTokenWeiUp(token, _amount) */\n      swap4\n      swap5\n      pop\n        /* \"NoBOverround.sol\":5166:5174  uint pos */\n      swap3\n      sub(shl(0xa0, 0x01), 0x01)\n        /* \"NoBOverround.sol\":5177:5179  CT */\n      swap3\n      dup4\n      and\n      swap3\n        /* \"NoBOverround.sol\":5177:5193  CT.getPositionId */\n      0x39dd7530\n      swap3\n        /* \"NoBOverround.sol\":5201:5206  token */\n      and\n      swap1\n        /* \"NoBOverround.sol\":5177:5179  CT */\n      dup4\n      swap1\n        /* \"NoBOverround.sol\":5217:5235  CT.getCollectionId */\n      0x856296f7\n      swap1\n        /* \"#utility.yul\":14506:14524   */\n      0x64\n      add\n        /* \"NoBOverround.sol\":5217:5273  CT.getCollectionId(bytes32(0), condition, 1 << _outcome) */\n      0x20\n      mload(0x40)\n      dup1\n      dup4\n      sub\n      dup2\n      dup7\n      gas\n      staticcall\n      iszero\n      dup1\n      iszero\n      tag_755\n      jumpi\n      returndatasize\n      0x00\n      dup1\n      returndatacopy\n      revert(0x00, returndatasize)\n    tag_755:\n      pop\n      pop\n      pop\n      pop\n      mload(0x40)\n      returndatasize\n      not(0x1f)\n      0x1f\n      dup3\n      add\n      and\n      dup3\n      add\n      dup1\n      0x40\n      mstore\n      pop\n      dup2\n      add\n      swap1\n      tag_756\n      swap2\n      swap1\n      tag_234\n      jump\t// in\n    tag_756:\n        /* \"NoBOverround.sol\":5177:5274  CT.getPositionId(IERC20(token),... */\n      mload(0x40)\n      not(sub(shl(0xe0, 0x01), 0x01))\n      0xe0\n      dup6\n      swap1\n      shl\n      and\n      dup2\n      mstore\n      sub(shl(0xa0, 0x01), 0x01)\n        /* \"#utility.yul\":14863:14918   */\n      swap1\n      swap3\n      and\n        /* \"NoBOverround.sol\":5177:5274  CT.getPositionId(IERC20(token),... */\n      0x04\n      dup4\n      add\n        /* \"#utility.yul\":14845:14919   */\n      mstore\n        /* \"#utility.yul\":14935:14953   */\n      0x24\n      dup3\n      add\n        /* \"#utility.yul\":14928:14962   */\n      mstore\n        /* \"#utility.yul\":14818:14836   */\n      0x44\n      add\n        /* \"NoBOverround.sol\":5177:5274  CT.getPositionId(IERC20(token),... */\n      0x20\n      mload(0x40)\n      dup1\n      dup4\n      sub\n      dup2\n      dup7\n      gas\n      staticcall\n      iszero\n      dup1\n      iszero\n      tag_759\n      jumpi\n      returndatasize\n      0x00\n      dup1\n      returndatacopy\n      revert(0x00, returndatasize)\n    tag_759:\n      pop\n      pop\n      pop\n      pop\n      mload(0x40)\n      returndatasize\n      not(0x1f)\n      0x1f\n      dup3\n      add\n      and\n      dup3\n      add\n      dup1\n      0x40\n      mstore\n      pop\n      dup2\n      add\n      swap1\n      tag_760\n      swap2\n      swap1\n      tag_234\n      jump\t// in\n    tag_760:\n        /* \"NoBOverround.sol\":5304:5306  CT */\n      sload(0x07)\n        /* \"NoBOverround.sol\":5304:5336  CT.balanceOf(address(this), pos) */\n      mload(0x40)\n      shl(0xe1, 0x7eeac7)\n      dup2\n      mstore\n        /* \"NoBOverround.sol\":5325:5329  this */\n      address\n        /* \"NoBOverround.sol\":5304:5336  CT.balanceOf(address(this), pos) */\n      0x04\n      dup3\n      add\n        /* \"#utility.yul\":14845:14919   */\n      mstore\n        /* \"#utility.yul\":14935:14953   */\n      0x24\n      dup2\n      add\n        /* \"#utility.yul\":14928:14962   */\n      dup4\n      swap1\n      mstore\n        /* \"NoBOverround.sol\":5166:5274  uint pos = CT.getPositionId(IERC20(token),... */\n      swap2\n      swap3\n      pop\n        /* \"NoBOverround.sol\":5281:5301  uint contractBalance */\n      0x00\n      swap2\n      sub(shl(0xa0, 0x01), 0x01)\n        /* \"NoBOverround.sol\":5304:5306  CT */\n      swap1\n      swap2\n      and\n      swap1\n        /* \"NoBOverround.sol\":5304:5316  CT.balanceOf */\n      0xfdd58e\n      swap1\n        /* \"#utility.yul\":14818:14836   */\n      0x44\n      add\n        /* \"NoBOverround.sol\":5304:5336  CT.balanceOf(address(this), pos) */\n      0x20\n      mload(0x40)\n      dup1\n      dup4\n      sub\n      dup2\n      dup7\n      gas\n      staticcall\n      iszero\n      dup1\n      iszero\n      tag_763\n      jumpi\n      returndatasize\n      0x00\n      dup1\n      returndatacopy\n      revert(0x00, returndatasize)\n    tag_763:\n      pop\n      pop\n      pop\n      pop\n      mload(0x40)\n      returndatasize\n      not(0x1f)\n      0x1f\n      dup3\n      add\n      and\n      dup3\n      add\n      dup1\n      0x40\n      mstore\n      pop\n      dup2\n      add\n      swap1\n      tag_764\n      swap2\n      swap1\n      tag_234\n      jump\t// in\n    tag_764:\n        /* \"NoBOverround.sol\":5403:5470  DebugMinting(_outcome, contractBalance, n_outcome_tokens, willMint) */\n      0x40\n      dup1\n      mload\n        /* \"#utility.yul\":22119:22144   */\n      dup8\n      dup2\n      mstore\n        /* \"#utility.yul\":22175:22177   */\n      0x20\n        /* \"#utility.yul\":22160:22178   */\n      dup2\n      add\n        /* \"#utility.yul\":22153:22187   */\n      dup4\n      swap1\n      mstore\n        /* \"#utility.yul\":22203:22221   */\n      swap1\n      dup2\n      add\n        /* \"#utility.yul\":22196:22230   */\n      dup6\n      swap1\n      mstore\n        /* \"NoBOverround.sol\":5358:5392  contractBalance < n_outcome_tokens */\n      dup5\n      dup3\n      lt\n        /* \"#utility.yul\":22261:22263   */\n      0x60\n        /* \"#utility.yul\":22246:22264   */\n      dup3\n      add\n        /* \"#utility.yul\":22239:22289   */\n      dup2\n      swap1\n      mstore\n        /* \"NoBOverround.sol\":5281:5336  uint contractBalance = CT.balanceOf(address(this), pos) */\n      swap2\n      swap3\n      pop\n        /* \"NoBOverround.sol\":5403:5470  DebugMinting(_outcome, contractBalance, n_outcome_tokens, willMint) */\n      0xa473dc6cfd784f529bfcf1db106676ae5832ede00c2e72234a796e528bdbfbaa\n      swap1\n        /* \"#utility.yul\":22106:22109   */\n      0x80\n        /* \"#utility.yul\":22091:22110   */\n      add\n        /* \"NoBOverround.sol\":5403:5470  DebugMinting(_outcome, contractBalance, n_outcome_tokens, willMint) */\n      mload(0x40)\n      dup1\n      swap2\n      sub\n      swap1\n      log1\n        /* \"NoBOverround.sol\":5485:5493  willMint */\n      dup1\n        /* \"NoBOverround.sol\":5481:5710  if (willMint) {... */\n      iszero\n      tag_767\n      jumpi\n        /* \"NoBOverround.sol\":5512:5517  token */\n      sload(0x08)\n        /* \"NoBOverround.sol\":5535:5537  CT */\n      sload(0x07)\n      sub(shl(0xa0, 0x01), 0x01)\n        /* \"NoBOverround.sol\":5512:5517  token */\n      swap2\n      dup3\n      and\n      swap2\n        /* \"NoBOverround.sol\":5505:5526  IERC20(token).approve */\n      0x095ea7b3\n      swap2\n        /* \"NoBOverround.sol\":5535:5537  CT */\n      and\n        /* \"NoBOverround.sol\":5540:5569  getTokenWeiUp(token, _amount) */\n      tag_768\n        /* \"NoBOverround.sol\":5512:5517  token */\n      dup4\n        /* \"NoBOverround.sol\":5561:5568  _amount */\n      dup10\n        /* \"NoBOverround.sol\":5540:5553  getTokenWeiUp */\n      tag_55\n        /* \"NoBOverround.sol\":5540:5569  getTokenWeiUp(token, _amount) */\n      jump\t// in\n    tag_768:\n        /* \"NoBOverround.sol\":5505:5570  IERC20(token).approve(address(CT), getTokenWeiUp(token, _amount)) */\n      mload(0x40)\n      not(sub(shl(0xe0, 0x01), 0x01))\n      0xe0\n      dup6\n      swap1\n      shl\n      and\n      dup2\n      mstore\n      sub(shl(0xa0, 0x01), 0x01)\n        /* \"#utility.yul\":14863:14918   */\n      swap1\n      swap3\n      and\n        /* \"NoBOverround.sol\":5505:5570  IERC20(token).approve(address(CT), getTokenWeiUp(token, _amount)) */\n      0x04\n      dup4\n      add\n        /* \"#utility.yul\":14845:14919   */\n      mstore\n        /* \"#utility.yul\":14935:14953   */\n      0x24\n      dup3\n      add\n        /* \"#utility.yul\":14928:14962   */\n      mstore\n        /* \"#utility.yul\":14818:14836   */\n      0x44\n      add\n        /* \"NoBOverround.sol\":5505:5570  IERC20(token).approve(address(CT), getTokenWeiUp(token, _amount)) */\n      0x20\n      mload(0x40)\n      dup1\n      dup4\n      sub\n      dup2\n      0x00\n      dup8\n      gas\n      call\n      iszero\n      dup1\n      iszero\n      tag_771\n      jumpi\n      returndatasize\n      0x00\n      dup1\n      returndatacopy\n      revert(0x00, returndatasize)\n    tag_771:\n      pop\n      pop\n      pop\n      pop\n      mload(0x40)\n      returndatasize\n      not(0x1f)\n      0x1f\n      dup3\n      add\n      and\n      dup3\n      add\n      dup1\n      0x40\n      mstore\n      pop\n      dup2\n      add\n      swap1\n      tag_772\n      swap2\n      swap1\n      tag_555\n      jump\t// in\n    tag_772:\n      pop\n        /* \"NoBOverround.sol\":5580:5582  CT */\n      sload(0x07)\n        /* \"NoBOverround.sol\":5604:5609  token */\n      sload(0x08)\n        /* \"NoBOverround.sol\":5624:5633  condition */\n      sload(0x06)\n      sub(shl(0xa0, 0x01), 0x01)\n        /* \"NoBOverround.sol\":5580:5582  CT */\n      swap3\n      dup4\n      and\n      swap3\n        /* \"NoBOverround.sol\":5580:5596  CT.splitPosition */\n      0x72ce4275\n      swap3\n        /* \"NoBOverround.sol\":5604:5609  token */\n      and\n      swap1\n        /* \"NoBOverround.sol\":5580:5582  CT */\n      0x00\n      swap1\n        /* \"NoBOverround.sol\":5647:5684  getPositionAndDustPositions(_outcome) */\n      tag_773\n        /* \"NoBOverround.sol\":5675:5683  _outcome */\n      dup12\n        /* \"NoBOverround.sol\":5647:5674  getPositionAndDustPositions */\n      tag_123\n        /* \"NoBOverround.sol\":5647:5684  getPositionAndDustPositions(_outcome) */\n      jump\t// in\n    tag_773:\n        /* \"NoBOverround.sol\":5686:5702  n_outcome_tokens */\n      dup10\n        /* \"NoBOverround.sol\":5580:5703  CT.splitPosition(IERC20(token), bytes32(0), condition,... */\n      mload(0x40)\n      dup7\n      0xffffffff\n      and\n      0xe0\n      shl\n      dup2\n      mstore\n      0x04\n      add\n      tag_774\n      swap6\n      swap5\n      swap4\n      swap3\n      swap2\n      swap1\n      tag_527\n      jump\t// in\n    tag_774:\n      0x00\n      mload(0x40)\n      dup1\n      dup4\n      sub\n      dup2\n      0x00\n      dup8\n      dup1\n      extcodesize\n      iszero\n      dup1\n      iszero\n      tag_775\n      jumpi\n      0x00\n      dup1\n      revert\n    tag_775:\n      pop\n      gas\n      call\n      iszero\n      dup1\n      iszero\n      tag_777\n      jumpi\n      returndatasize\n      0x00\n      dup1\n      returndatacopy\n      revert(0x00, returndatasize)\n    tag_777:\n      pop\n      pop\n      pop\n      pop\n        /* \"NoBOverround.sol\":5481:5710  if (willMint) {... */\n    tag_767:\n        /* \"NoBOverround.sol\":5715:5717  CT */\n      sload(0x07)\n        /* \"NoBOverround.sol\":5715:5788  CT.safeTransferFrom(address(this), msg.sender, pos, n_outcome_tokens, '') */\n      mload(0x40)\n      shl(0xe1, 0x79212195)\n      dup2\n      mstore\n        /* \"NoBOverround.sol\":5743:5747  this */\n      address\n        /* \"NoBOverround.sol\":5715:5788  CT.safeTransferFrom(address(this), msg.sender, pos, n_outcome_tokens, '') */\n      0x04\n      dup3\n      add\n        /* \"#utility.yul\":17301:17335   */\n      mstore\n        /* \"NoBOverround.sol\":5750:5760  msg.sender */\n      caller\n        /* \"#utility.yul\":17351:17369   */\n      0x24\n      dup3\n      add\n        /* \"#utility.yul\":17344:17387   */\n      mstore\n        /* \"#utility.yul\":17403:17421   */\n      0x44\n      dup2\n      add\n        /* \"#utility.yul\":17396:17430   */\n      dup6\n      swap1\n      mstore\n        /* \"#utility.yul\":17446:17464   */\n      0x64\n      dup2\n      add\n        /* \"#utility.yul\":17439:17473   */\n      dup7\n      swap1\n      mstore\n        /* \"#utility.yul\":17510:17513   */\n      0xa0\n        /* \"#utility.yul\":17489:17508   */\n      0x84\n      dup3\n      add\n        /* \"#utility.yul\":17482:17514   */\n      mstore\n      0x00\n        /* \"#utility.yul\":17530:17549   */\n      0xa4\n      dup3\n      add\n        /* \"#utility.yul\":17523:17553   */\n      mstore\n      sub(shl(0xa0, 0x01), 0x01)\n        /* \"NoBOverround.sol\":5715:5717  CT */\n      swap1\n      swap2\n      and\n      swap1\n        /* \"NoBOverround.sol\":5715:5734  CT.safeTransferFrom */\n      0xf242432a\n      swap1\n        /* \"#utility.yul\":17570:17589   */\n      0xc4\n      add\n        /* \"NoBOverround.sol\":5715:5788  CT.safeTransferFrom(address(this), msg.sender, pos, n_outcome_tokens, '') */\n      0x00\n      mload(0x40)\n      dup1\n      dup4\n      sub\n      dup2\n      0x00\n      dup8\n      dup1\n      extcodesize\n      iszero\n      dup1\n      iszero\n      tag_779\n      jumpi\n      0x00\n      dup1\n      revert\n    tag_779:\n      pop\n      gas\n      call\n      iszero\n      dup1\n      iszero\n      tag_781\n      jumpi\n      returndatasize\n      0x00\n      dup1\n      returndatacopy\n      revert(0x00, returndatasize)\n    tag_781:\n      pop\n      pop\n      pop\n      pop\n        /* \"NoBOverround.sol\":5101:5793  {... */\n      pop\n      pop\n      pop\n      pop\n        /* \"NoBOverround.sol\":5007:5793  function _mintAndTransferOutcomeTokens(... */\n      pop\n      pop\n      jump\t// out\n        /* \"ABDKMath64x64.sol\":23164:24449  function divuu (uint256 x, uint256 y) private pure returns (uint128) {... */\n    tag_649:\n        /* \"ABDKMath64x64.sol\":23224:23231  uint128 */\n      0x00\n        /* \"ABDKMath64x64.sol\":23266:23267  y */\n      dup2\n        /* \"ABDKMath64x64.sol\":23271:23272  0 */\n      0x00\n        /* \"ABDKMath64x64.sol\":23266:23272  y != 0 */\n      sub\n        /* \"ABDKMath64x64.sol\":23257:23273  require (y != 0) */\n      tag_783\n      jumpi\n      0x00\n      dup1\n      revert\n    tag_783:\n        /* \"ABDKMath64x64.sol\":23282:23296  uint256 result */\n      0x00\n        /* \"ABDKMath64x64.sol\":23314:23364  0xFFFFFFFFFFFFFFFFFFFFFFFFFFFFFFFFFFFFFFFFFFFFFFFF */\n      0xffffffffffffffffffffffffffffffffffffffffffffffff\n        /* \"ABDKMath64x64.sol\":23309:23310  x */\n      dup5\n        /* \"ABDKMath64x64.sol\":23309:23364  x <= 0xFFFFFFFFFFFFFFFFFFFFFFFFFFFFFFFFFFFFFFFFFFFFFFFF */\n      gt\n        /* \"ABDKMath64x64.sol\":23305:24345  if (x <= 0xFFFFFFFFFFFFFFFFFFFFFFFFFFFFFFFFFFFFFFFFFFFFFFFF)... */\n      tag_784\n      jumpi\n        /* \"ABDKMath64x64.sol\":23395:23396  y */\n      dup3\n        /* \"ABDKMath64x64.sol\":23389:23391  64 */\n      0x40\n        /* \"ABDKMath64x64.sol\":23384:23385  x */\n      dup6\n        /* \"ABDKMath64x64.sol\":23384:23391  x << 64 */\n      swap1\n      shl\n        /* \"ABDKMath64x64.sol\":23383:23396  (x << 64) / y */\n      dup2\n      tag_786\n      jumpi\n      tag_786\n      tag_655\n      jump\t// in\n    tag_786:\n      div\n        /* \"ABDKMath64x64.sol\":23374:23396  result = (x << 64) / y */\n      swap1\n      pop\n        /* \"ABDKMath64x64.sol\":23305:24345  if (x <= 0xFFFFFFFFFFFFFFFFFFFFFFFFFFFFFFFFFFFFFFFFFFFFFFFF)... */\n      jump(tag_787)\n    tag_784:\n        /* \"ABDKMath64x64.sol\":23433:23436  192 */\n      0xc0\n        /* \"ABDKMath64x64.sol\":23459:23467  x >> 192 */\n      dup5\n      dup2\n      shr\n        /* \"ABDKMath64x64.sol\":23487:23498  0x100000000 */\n      0x0100000000\n        /* \"ABDKMath64x64.sol\":23481:23498  xc >= 0x100000000 */\n      dup2\n      lt\n        /* \"ABDKMath64x64.sol\":23477:23525  if (xc >= 0x100000000) { xc >>= 32; msb += 32; } */\n      tag_788\n      jumpi\n        /* \"ABDKMath64x64.sol\":23509:23511  32 */\n      0x20\n        /* \"ABDKMath64x64.sol\":23513:23522  msb += 32 */\n      swap2\n      dup3\n      add\n      swap2\n        /* \"ABDKMath64x64.sol\":23502:23511  xc >>= 32 */\n      shr\n        /* \"ABDKMath64x64.sol\":23477:23525  if (xc >= 0x100000000) { xc >>= 32; msb += 32; } */\n    tag_788:\n        /* \"ABDKMath64x64.sol\":23544:23551  0x10000 */\n      0x010000\n        /* \"ABDKMath64x64.sol\":23538:23540  xc */\n      dup2\n        /* \"ABDKMath64x64.sol\":23538:23551  xc >= 0x10000 */\n      lt\n        /* \"ABDKMath64x64.sol\":23534:23578  if (xc >= 0x10000) { xc >>= 16; msb += 16; } */\n      tag_789\n      jumpi\n        /* \"ABDKMath64x64.sol\":23562:23564  16 */\n      0x10\n        /* \"ABDKMath64x64.sol\":23566:23575  msb += 16 */\n      swap2\n      dup3\n      add\n      swap2\n        /* \"ABDKMath64x64.sol\":23555:23564  xc >>= 16 */\n      shr\n        /* \"ABDKMath64x64.sol\":23534:23578  if (xc >= 0x10000) { xc >>= 16; msb += 16; } */\n    tag_789:\n        /* \"ABDKMath64x64.sol\":23597:23602  0x100 */\n      0x0100\n        /* \"ABDKMath64x64.sol\":23591:23593  xc */\n      dup2\n        /* \"ABDKMath64x64.sol\":23591:23602  xc >= 0x100 */\n      lt\n        /* \"ABDKMath64x64.sol\":23587:23627  if (xc >= 0x100) { xc >>= 8; msb += 8; } */\n      tag_790\n      jumpi\n        /* \"ABDKMath64x64.sol\":23613:23614  8 */\n      0x08\n        /* \"ABDKMath64x64.sol\":23616:23624  msb += 8 */\n      swap2\n      dup3\n      add\n      swap2\n        /* \"ABDKMath64x64.sol\":23606:23614  xc >>= 8 */\n      shr\n        /* \"ABDKMath64x64.sol\":23587:23627  if (xc >= 0x100) { xc >>= 8; msb += 8; } */\n    tag_790:\n        /* \"ABDKMath64x64.sol\":23646:23650  0x10 */\n      0x10\n        /* \"ABDKMath64x64.sol\":23640:23642  xc */\n      dup2\n        /* \"ABDKMath64x64.sol\":23640:23650  xc >= 0x10 */\n      lt\n        /* \"ABDKMath64x64.sol\":23636:23675  if (xc >= 0x10) { xc >>= 4; msb += 4; } */\n      tag_791\n      jumpi\n        /* \"ABDKMath64x64.sol\":23661:23662  4 */\n      0x04\n        /* \"ABDKMath64x64.sol\":23664:23672  msb += 4 */\n      swap2\n      dup3\n      add\n      swap2\n        /* \"ABDKMath64x64.sol\":23654:23662  xc >>= 4 */\n      shr\n        /* \"ABDKMath64x64.sol\":23636:23675  if (xc >= 0x10) { xc >>= 4; msb += 4; } */\n    tag_791:\n        /* \"ABDKMath64x64.sol\":23694:23697  0x4 */\n      0x04\n        /* \"ABDKMath64x64.sol\":23688:23690  xc */\n      dup2\n        /* \"ABDKMath64x64.sol\":23688:23697  xc >= 0x4 */\n      lt\n        /* \"ABDKMath64x64.sol\":23684:23722  if (xc >= 0x4) { xc >>= 2; msb += 2; } */\n      tag_792\n      jumpi\n        /* \"ABDKMath64x64.sol\":23708:23709  2 */\n      0x02\n        /* \"ABDKMath64x64.sol\":23711:23719  msb += 2 */\n      swap2\n      dup3\n      add\n      swap2\n        /* \"ABDKMath64x64.sol\":23701:23709  xc >>= 2 */\n      shr\n        /* \"ABDKMath64x64.sol\":23684:23722  if (xc >= 0x4) { xc >>= 2; msb += 2; } */\n    tag_792:\n        /* \"ABDKMath64x64.sol\":23741:23744  0x2 */\n      0x02\n        /* \"ABDKMath64x64.sol\":23735:23737  xc */\n      dup2\n        /* \"ABDKMath64x64.sol\":23735:23744  xc >= 0x2 */\n      lt\n        /* \"ABDKMath64x64.sol\":23731:23754  if (xc >= 0x2) msb += 1 */\n      tag_793\n      jumpi\n        /* \"ABDKMath64x64.sol\":23753:23754  1 */\n      0x01\n        /* \"ABDKMath64x64.sol\":23746:23754  msb += 1 */\n      dup3\n      add\n      swap2\n      pop\n        /* \"ABDKMath64x64.sol\":23731:23754  if (xc >= 0x2) msb += 1 */\n    tag_793:\n        /* \"ABDKMath64x64.sol\":23842:23845  191 */\n      0xbf\n        /* \"ABDKMath64x64.sol\":23836:23839  msb */\n      dup3\n        /* \"ABDKMath64x64.sol\":23836:23845  msb - 191 */\n      sub\n        /* \"ABDKMath64x64.sol\":23831:23832  1 */\n      0x01\n        /* \"ABDKMath64x64.sol\":23827:23828  y */\n      dup7\n        /* \"ABDKMath64x64.sol\":23827:23832  y - 1 */\n      sub\n        /* \"ABDKMath64x64.sol\":23827:23845  y - 1 >> msb - 191 */\n      swap1\n      shr\n        /* \"ABDKMath64x64.sol\":23849:23850  1 */\n      0x01\n        /* \"ABDKMath64x64.sol\":23826:23850  (y - 1 >> msb - 191) + 1 */\n      add\n        /* \"ABDKMath64x64.sol\":23818:23821  msb */\n      dup3\n        /* \"ABDKMath64x64.sol\":23812:23815  255 */\n      0xff\n        /* \"ABDKMath64x64.sol\":23812:23821  255 - msb */\n      sub\n        /* \"ABDKMath64x64.sol\":23807:23808  x */\n      dup8\n        /* \"ABDKMath64x64.sol\":23807:23821  x << 255 - msb */\n      swap1\n      shl\n        /* \"ABDKMath64x64.sol\":23806:23851  (x << 255 - msb) / ((y - 1 >> msb - 191) + 1) */\n      dup2\n      tag_795\n      jumpi\n      tag_795\n      tag_655\n      jump\t// in\n    tag_795:\n      div\n        /* \"ABDKMath64x64.sol\":23797:23851  result = (x << 255 - msb) / ((y - 1 >> msb - 191) + 1) */\n      swap3\n      pop\n      sub(shl(0x80, 0x01), 0x01)\n        /* \"ABDKMath64x64.sol\":23870:23876  result */\n      dup4\n        /* \"ABDKMath64x64.sol\":23870:23914  result <= 0xFFFFFFFFFFFFFFFFFFFFFFFFFFFFFFFF */\n      gt\n      iszero\n        /* \"ABDKMath64x64.sol\":23861:23915  require (result <= 0xFFFFFFFFFFFFFFFFFFFFFFFFFFFFFFFF) */\n      tag_796\n      jumpi\n      0x00\n      dup1\n      revert\n    tag_796:\n        /* \"ABDKMath64x64.sol\":23954:23957  128 */\n      0x80\n        /* \"ABDKMath64x64.sol\":23949:23957  y >> 128 */\n      dup6\n      swap1\n      shr\n        /* \"ABDKMath64x64.sol\":23939:23958  result * (y >> 128) */\n      dup4\n      mul\n      sub(shl(0x80, 0x01), 0x01)\n        /* \"ABDKMath64x64.sol\":23991:24029  y & 0xFFFFFFFFFFFFFFFFFFFFFFFFFFFFFFFF */\n      dup7\n      and\n        /* \"ABDKMath64x64.sol\":23981:24030  result * (y & 0xFFFFFFFFFFFFFFFFFFFFFFFFFFFFFFFF) */\n      dup5\n      mul\n        /* \"ABDKMath64x64.sol\":24059:24062  192 */\n      0xc0\n        /* \"ABDKMath64x64.sol\":24054:24062  x >> 192 */\n      dup9\n      swap1\n      shr\n        /* \"ABDKMath64x64.sol\":24090:24092  64 */\n      0x40\n        /* \"ABDKMath64x64.sol\":24085:24092  x << 64 */\n      dup10\n      swap1\n      shl\n        /* \"ABDKMath64x64.sol\":24107:24114  xl < lo */\n      dup3\n      dup2\n      lt\n        /* \"ABDKMath64x64.sol\":24103:24123  if (xl < lo) xh -= 1 */\n      iszero\n      tag_797\n      jumpi\n        /* \"ABDKMath64x64.sol\":24122:24123  1 */\n      0x01\n        /* \"ABDKMath64x64.sol\":24116:24123  xh -= 1 */\n      dup3\n      sub\n      swap2\n      pop\n        /* \"ABDKMath64x64.sol\":24103:24123  if (xl < lo) xh -= 1 */\n    tag_797:\n        /* \"ABDKMath64x64.sol\":24199:24202  128 */\n      0x80\n        /* \"ABDKMath64x64.sol\":24193:24202  hi << 128 */\n      dup5\n      swap1\n      shl\n      swap3\n        /* \"ABDKMath64x64.sol\":24133:24141  xl -= lo */\n      swap1\n      sub\n        /* \"ABDKMath64x64.sol\":24216:24223  xl < lo */\n      dup3\n      dup2\n      lt\n        /* \"ABDKMath64x64.sol\":24212:24232  if (xl < lo) xh -= 1 */\n      iszero\n      tag_798\n      jumpi\n        /* \"ABDKMath64x64.sol\":24231:24232  1 */\n      0x01\n        /* \"ABDKMath64x64.sol\":24225:24232  xh -= 1 */\n      dup3\n      sub\n      swap2\n      pop\n        /* \"ABDKMath64x64.sol\":24212:24232  if (xl < lo) xh -= 1 */\n    tag_798:\n        /* \"ABDKMath64x64.sol\":24242:24250  xl -= lo */\n      dup3\n      swap1\n      sub\n        /* \"ABDKMath64x64.sol\":24320:24323  128 */\n      0x80\n        /* \"ABDKMath64x64.sol\":24314:24323  hi >> 128 */\n      dup5\n      swap1\n      shr\n        /* \"ABDKMath64x64.sol\":24308:24323  xh == hi >> 128 */\n      dup3\n      eq\n        /* \"ABDKMath64x64.sol\":24308:24336  xh == hi >> 128 ? xl / y : 1 */\n      tag_799\n      jumpi\n        /* \"ABDKMath64x64.sol\":24335:24336  1 */\n      0x01\n        /* \"ABDKMath64x64.sol\":24308:24336  xh == hi >> 128 ? xl / y : 1 */\n      jump(tag_800)\n    tag_799:\n        /* \"ABDKMath64x64.sol\":24331:24332  y */\n      dup9\n        /* \"ABDKMath64x64.sol\":24326:24328  xl */\n      dup2\n        /* \"ABDKMath64x64.sol\":24326:24332  xl / y */\n      dup2\n      tag_802\n      jumpi\n      tag_802\n      tag_655\n      jump\t// in\n    tag_802:\n      div\n        /* \"ABDKMath64x64.sol\":24308:24336  xh == hi >> 128 ? xl / y : 1 */\n    tag_800:\n        /* \"ABDKMath64x64.sol\":24298:24336  result += xh == hi >> 128 ? xl / y : 1 */\n      dup8\n      add\n      swap7\n      pop\n        /* \"ABDKMath64x64.sol\":23409:24345  {... */\n      pop\n      pop\n      pop\n      pop\n      pop\n      pop\n        /* \"ABDKMath64x64.sol\":23305:24345  if (x <= 0xFFFFFFFFFFFFFFFFFFFFFFFFFFFFFFFFFFFFFFFFFFFFFFFF)... */\n    tag_787:\n      sub(shl(0x80, 0x01), 0x01)\n        /* \"ABDKMath64x64.sol\":24362:24368  result */\n      dup2\n        /* \"ABDKMath64x64.sol\":24362:24406  result <= 0xFFFFFFFFFFFFFFFFFFFFFFFFFFFFFFFF */\n      gt\n      iszero\n        /* \"ABDKMath64x64.sol\":24353:24407  require (result <= 0xFFFFFFFFFFFFFFFFFFFFFFFFFFFFFFFF) */\n      tag_378\n      jumpi\n      0x00\n      dup1\n      revert\n        /* \"ABDKMath64x64.sol\":15544:22385  function exp_2 (int128 x) internal pure returns (int128) {... */\n    tag_662:\n        /* \"ABDKMath64x64.sol\":15593:15599  int128 */\n      0x00\n        /* \"ABDKMath64x64.sol\":15638:15658  0x400000000000000000 */\n      0x400000000000000000\n        /* \"ABDKMath64x64.sol\":15634:15635  x */\n      dup3\n        /* \"ABDKMath64x64.sol\":15634:15658  x < 0x400000000000000000 */\n      0x0f\n      signextend\n      slt\n        /* \"ABDKMath64x64.sol\":15625:15659  require (x < 0x400000000000000000) */\n      tag_805\n      jumpi\n      0x00\n      dup1\n      revert\n    tag_805:\n      not(0x3fffffffffffffffff)\n        /* \"ABDKMath64x64.sol\":15684:15685  x */\n      dup3\n        /* \"ABDKMath64x64.sol\":15684:15709  x < -0x400000000000000000 */\n      0x0f\n      signextend\n      slt\n        /* \"ABDKMath64x64.sol\":15680:15719  if (x < -0x400000000000000000) return 0 */\n      iszero\n      tag_806\n      jumpi\n      pop\n        /* \"ABDKMath64x64.sol\":15718:15719  0 */\n      0x00\n      swap2\n        /* \"ABDKMath64x64.sol\":15544:22385  function exp_2 (int128 x) internal pure returns (int128) {... */\n      swap1\n      pop\n      jump\t// out\n        /* \"ABDKMath64x64.sol\":15680:15719  if (x < -0x400000000000000000) return 0 */\n    tag_806:\n        /* \"ABDKMath64x64.sol\":15758:15792  0x80000000000000000000000000000000 */\n      0x80000000000000000000000000000000\n        /* \"ABDKMath64x64.sol\":15741:15755  uint256 result */\n      0x00\n        /* \"ABDKMath64x64.sol\":15809:15827  0x8000000000000000 */\n      0x8000000000000000\n        /* \"ABDKMath64x64.sol\":15805:15827  x & 0x8000000000000000 */\n      dup5\n      and\n        /* \"ABDKMath64x64.sol\":15805:15831  x & 0x8000000000000000 > 0 */\n      0x0f\n      signextend\n      sgt\n        /* \"ABDKMath64x64.sol\":15801:15901  if (x & 0x8000000000000000 > 0)... */\n      iszero\n      tag_807\n      jumpi\n        /* \"ABDKMath64x64.sol\":15859:15894  0x16A09E667F3BCC908B2FB1366EA957D3E */\n      0x016a09e667f3bcc908b2fb1366ea957d3e\n        /* \"ABDKMath64x64.sol\":15850:15894  result * 0x16A09E667F3BCC908B2FB1366EA957D3E */\n      mul\n        /* \"ABDKMath64x64.sol\":15898:15901  128 */\n      0x80\n        /* \"ABDKMath64x64.sol\":15850:15901  result * 0x16A09E667F3BCC908B2FB1366EA957D3E >> 128 */\n      shr\n        /* \"ABDKMath64x64.sol\":15801:15901  if (x & 0x8000000000000000 > 0)... */\n    tag_807:\n        /* \"ABDKMath64x64.sol\":15938:15939  0 */\n      0x00\n        /* \"ABDKMath64x64.sol\":15913:15914  x */\n      dup4\n        /* \"ABDKMath64x64.sol\":15917:15935  0x4000000000000000 */\n      0x4000000000000000\n        /* \"ABDKMath64x64.sol\":15913:15935  x & 0x4000000000000000 */\n      and\n        /* \"ABDKMath64x64.sol\":15913:15939  x & 0x4000000000000000 > 0 */\n      0x0f\n      signextend\n      sgt\n        /* \"ABDKMath64x64.sol\":15909:16009  if (x & 0x4000000000000000 > 0)... */\n      iszero\n      tag_808\n      jumpi\n        /* \"ABDKMath64x64.sol\":15967:16002  0x1306FE0A31B7152DE8D5A46305C85EDEC */\n      0x01306fe0a31b7152de8d5a46305c85edec\n        /* \"ABDKMath64x64.sol\":15958:16002  result * 0x1306FE0A31B7152DE8D5A46305C85EDEC */\n      mul\n        /* \"ABDKMath64x64.sol\":16006:16009  128 */\n      0x80\n        /* \"ABDKMath64x64.sol\":15958:16009  result * 0x1306FE0A31B7152DE8D5A46305C85EDEC >> 128 */\n      shr\n        /* \"ABDKMath64x64.sol\":15909:16009  if (x & 0x4000000000000000 > 0)... */\n    tag_808:\n        /* \"ABDKMath64x64.sol\":16046:16047  0 */\n      0x00\n        /* \"ABDKMath64x64.sol\":16021:16022  x */\n      dup4\n        /* \"ABDKMath64x64.sol\":16025:16043  0x2000000000000000 */\n      0x2000000000000000\n        /* \"ABDKMath64x64.sol\":16021:16043  x & 0x2000000000000000 */\n      and\n        /* \"ABDKMath64x64.sol\":16021:16047  x & 0x2000000000000000 > 0 */\n      0x0f\n      signextend\n      sgt\n        /* \"ABDKMath64x64.sol\":16017:16117  if (x & 0x2000000000000000 > 0)... */\n      iszero\n      tag_809\n      jumpi\n        /* \"ABDKMath64x64.sol\":16075:16110  0x1172B83C7D517ADCDF7C8C50EB14A791F */\n      0x01172b83c7d517adcdf7c8c50eb14a791f\n        /* \"ABDKMath64x64.sol\":16066:16110  result * 0x1172B83C7D517ADCDF7C8C50EB14A791F */\n      mul\n        /* \"ABDKMath64x64.sol\":16114:16117  128 */\n      0x80\n        /* \"ABDKMath64x64.sol\":16066:16117  result * 0x1172B83C7D517ADCDF7C8C50EB14A791F >> 128 */\n      shr\n        /* \"ABDKMath64x64.sol\":16017:16117  if (x & 0x2000000000000000 > 0)... */\n    tag_809:\n        /* \"ABDKMath64x64.sol\":16154:16155  0 */\n      0x00\n        /* \"ABDKMath64x64.sol\":16129:16130  x */\n      dup4\n        /* \"ABDKMath64x64.sol\":16133:16151  0x1000000000000000 */\n      0x1000000000000000\n        /* \"ABDKMath64x64.sol\":16129:16151  x & 0x1000000000000000 */\n      and\n        /* \"ABDKMath64x64.sol\":16129:16155  x & 0x1000000000000000 > 0 */\n      0x0f\n      signextend\n      sgt\n        /* \"ABDKMath64x64.sol\":16125:16225  if (x & 0x1000000000000000 > 0)... */\n      iszero\n      tag_810\n      jumpi\n        /* \"ABDKMath64x64.sol\":16183:16218  0x10B5586CF9890F6298B92B71842A98363 */\n      0x010b5586cf9890f6298b92b71842a98363\n        /* \"ABDKMath64x64.sol\":16174:16218  result * 0x10B5586CF9890F6298B92B71842A98363 */\n      mul\n        /* \"ABDKMath64x64.sol\":16222:16225  128 */\n      0x80\n        /* \"ABDKMath64x64.sol\":16174:16225  result * 0x10B5586CF9890F6298B92B71842A98363 >> 128 */\n      shr\n        /* \"ABDKMath64x64.sol\":16125:16225  if (x & 0x1000000000000000 > 0)... */\n    tag_810:\n        /* \"ABDKMath64x64.sol\":16261:16262  0 */\n      0x00\n        /* \"ABDKMath64x64.sol\":16237:16238  x */\n      dup4\n        /* \"ABDKMath64x64.sol\":16241:16258  0x800000000000000 */\n      0x0800000000000000\n        /* \"ABDKMath64x64.sol\":16237:16258  x & 0x800000000000000 */\n      and\n        /* \"ABDKMath64x64.sol\":16237:16262  x & 0x800000000000000 > 0 */\n      0x0f\n      signextend\n      sgt\n        /* \"ABDKMath64x64.sol\":16233:16332  if (x & 0x800000000000000 > 0)... */\n      iszero\n      tag_811\n      jumpi\n        /* \"ABDKMath64x64.sol\":16290:16325  0x1059B0D31585743AE7C548EB68CA417FD */\n      0x01059b0d31585743ae7c548eb68ca417fd\n        /* \"ABDKMath64x64.sol\":16281:16325  result * 0x1059B0D31585743AE7C548EB68CA417FD */\n      mul\n        /* \"ABDKMath64x64.sol\":16329:16332  128 */\n      0x80\n        /* \"ABDKMath64x64.sol\":16281:16332  result * 0x1059B0D31585743AE7C548EB68CA417FD >> 128 */\n      shr\n        /* \"ABDKMath64x64.sol\":16233:16332  if (x & 0x800000000000000 > 0)... */\n    tag_811:\n        /* \"ABDKMath64x64.sol\":16368:16369  0 */\n      0x00\n        /* \"ABDKMath64x64.sol\":16344:16345  x */\n      dup4\n        /* \"ABDKMath64x64.sol\":16348:16365  0x400000000000000 */\n      0x0400000000000000\n        /* \"ABDKMath64x64.sol\":16344:16365  x & 0x400000000000000 */\n      and\n        /* \"ABDKMath64x64.sol\":16344:16369  x & 0x400000000000000 > 0 */\n      0x0f\n      signextend\n      sgt\n        /* \"ABDKMath64x64.sol\":16340:16439  if (x & 0x400000000000000 > 0)... */\n      iszero\n      tag_812\n      jumpi\n        /* \"ABDKMath64x64.sol\":16397:16432  0x102C9A3E778060EE6F7CACA4F7A29BDE8 */\n      0x0102c9a3e778060ee6f7caca4f7a29bde8\n        /* \"ABDKMath64x64.sol\":16388:16432  result * 0x102C9A3E778060EE6F7CACA4F7A29BDE8 */\n      mul\n        /* \"ABDKMath64x64.sol\":16436:16439  128 */\n      0x80\n        /* \"ABDKMath64x64.sol\":16388:16439  result * 0x102C9A3E778060EE6F7CACA4F7A29BDE8 >> 128 */\n      shr\n        /* \"ABDKMath64x64.sol\":16340:16439  if (x & 0x400000000000000 > 0)... */\n    tag_812:\n        /* \"ABDKMath64x64.sol\":16475:16476  0 */\n      0x00\n        /* \"ABDKMath64x64.sol\":16451:16452  x */\n      dup4\n        /* \"ABDKMath64x64.sol\":16455:16472  0x200000000000000 */\n      0x0200000000000000\n        /* \"ABDKMath64x64.sol\":16451:16472  x & 0x200000000000000 */\n      and\n        /* \"ABDKMath64x64.sol\":16451:16476  x & 0x200000000000000 > 0 */\n      0x0f\n      signextend\n      sgt\n        /* \"ABDKMath64x64.sol\":16447:16546  if (x & 0x200000000000000 > 0)... */\n      iszero\n      tag_813\n      jumpi\n        /* \"ABDKMath64x64.sol\":16504:16539  0x10163DA9FB33356D84A66AE336DCDFA3F */\n      0x010163da9fb33356d84a66ae336dcdfa3f\n        /* \"ABDKMath64x64.sol\":16495:16539  result * 0x10163DA9FB33356D84A66AE336DCDFA3F */\n      mul\n        /* \"ABDKMath64x64.sol\":16543:16546  128 */\n      0x80\n        /* \"ABDKMath64x64.sol\":16495:16546  result * 0x10163DA9FB33356D84A66AE336DCDFA3F >> 128 */\n      shr\n        /* \"ABDKMath64x64.sol\":16447:16546  if (x & 0x200000000000000 > 0)... */\n    tag_813:\n        /* \"ABDKMath64x64.sol\":16582:16583  0 */\n      0x00\n        /* \"ABDKMath64x64.sol\":16558:16559  x */\n      dup4\n        /* \"ABDKMath64x64.sol\":16562:16579  0x100000000000000 */\n      0x0100000000000000\n        /* \"ABDKMath64x64.sol\":16558:16579  x & 0x100000000000000 */\n      and\n        /* \"ABDKMath64x64.sol\":16558:16583  x & 0x100000000000000 > 0 */\n      0x0f\n      signextend\n      sgt\n        /* \"ABDKMath64x64.sol\":16554:16653  if (x & 0x100000000000000 > 0)... */\n      iszero\n      tag_814\n      jumpi\n        /* \"ABDKMath64x64.sol\":16611:16646  0x100B1AFA5ABCBED6129AB13EC11DC9543 */\n      0x0100b1afa5abcbed6129ab13ec11dc9543\n        /* \"ABDKMath64x64.sol\":16602:16646  result * 0x100B1AFA5ABCBED6129AB13EC11DC9543 */\n      mul\n        /* \"ABDKMath64x64.sol\":16650:16653  128 */\n      0x80\n        /* \"ABDKMath64x64.sol\":16602:16653  result * 0x100B1AFA5ABCBED6129AB13EC11DC9543 >> 128 */\n      shr\n        /* \"ABDKMath64x64.sol\":16554:16653  if (x & 0x100000000000000 > 0)... */\n    tag_814:\n        /* \"ABDKMath64x64.sol\":16688:16689  0 */\n      0x00\n        /* \"ABDKMath64x64.sol\":16665:16666  x */\n      dup4\n        /* \"ABDKMath64x64.sol\":16669:16685  0x80000000000000 */\n      0x80000000000000\n        /* \"ABDKMath64x64.sol\":16665:16685  x & 0x80000000000000 */\n      and\n        /* \"ABDKMath64x64.sol\":16665:16689  x & 0x80000000000000 > 0 */\n      0x0f\n      signextend\n      sgt\n        /* \"ABDKMath64x64.sol\":16661:16759  if (x & 0x80000000000000 > 0)... */\n      iszero\n      tag_815\n      jumpi\n        /* \"ABDKMath64x64.sol\":16717:16752  0x10058C86DA1C09EA1FF19D294CF2F679B */\n      0x010058c86da1c09ea1ff19d294cf2f679b\n        /* \"ABDKMath64x64.sol\":16708:16752  result * 0x10058C86DA1C09EA1FF19D294CF2F679B */\n      mul\n        /* \"ABDKMath64x64.sol\":16756:16759  128 */\n      0x80\n        /* \"ABDKMath64x64.sol\":16708:16759  result * 0x10058C86DA1C09EA1FF19D294CF2F679B >> 128 */\n      shr\n        /* \"ABDKMath64x64.sol\":16661:16759  if (x & 0x80000000000000 > 0)... */\n    tag_815:\n        /* \"ABDKMath64x64.sol\":16794:16795  0 */\n      0x00\n        /* \"ABDKMath64x64.sol\":16771:16772  x */\n      dup4\n        /* \"ABDKMath64x64.sol\":16775:16791  0x40000000000000 */\n      0x40000000000000\n        /* \"ABDKMath64x64.sol\":16771:16791  x & 0x40000000000000 */\n      and\n        /* \"ABDKMath64x64.sol\":16771:16795  x & 0x40000000000000 > 0 */\n      0x0f\n      signextend\n      sgt\n        /* \"ABDKMath64x64.sol\":16767:16865  if (x & 0x40000000000000 > 0)... */\n      iszero\n      tag_816\n      jumpi\n        /* \"ABDKMath64x64.sol\":16823:16858  0x1002C605E2E8CEC506D21BFC89A23A00F */\n      0x01002c605e2e8cec506d21bfc89a23a00f\n        /* \"ABDKMath64x64.sol\":16814:16858  result * 0x1002C605E2E8CEC506D21BFC89A23A00F */\n      mul\n        /* \"ABDKMath64x64.sol\":16862:16865  128 */\n      0x80\n        /* \"ABDKMath64x64.sol\":16814:16865  result * 0x1002C605E2E8CEC506D21BFC89A23A00F >> 128 */\n      shr\n        /* \"ABDKMath64x64.sol\":16767:16865  if (x & 0x40000000000000 > 0)... */\n    tag_816:\n        /* \"ABDKMath64x64.sol\":16900:16901  0 */\n      0x00\n        /* \"ABDKMath64x64.sol\":16877:16878  x */\n      dup4\n        /* \"ABDKMath64x64.sol\":16881:16897  0x20000000000000 */\n      0x20000000000000\n        /* \"ABDKMath64x64.sol\":16877:16897  x & 0x20000000000000 */\n      and\n        /* \"ABDKMath64x64.sol\":16877:16901  x & 0x20000000000000 > 0 */\n      0x0f\n      signextend\n      sgt\n        /* \"ABDKMath64x64.sol\":16873:16971  if (x & 0x20000000000000 > 0)... */\n      iszero\n      tag_817\n      jumpi\n        /* \"ABDKMath64x64.sol\":16929:16964  0x100162F3904051FA128BCA9C55C31E5DF */\n      0x0100162f3904051fa128bca9c55c31e5df\n        /* \"ABDKMath64x64.sol\":16920:16964  result * 0x100162F3904051FA128BCA9C55C31E5DF */\n      mul\n        /* \"ABDKMath64x64.sol\":16968:16971  128 */\n      0x80\n        /* \"ABDKMath64x64.sol\":16920:16971  result * 0x100162F3904051FA128BCA9C55C31E5DF >> 128 */\n      shr\n        /* \"ABDKMath64x64.sol\":16873:16971  if (x & 0x20000000000000 > 0)... */\n    tag_817:\n        /* \"ABDKMath64x64.sol\":17006:17007  0 */\n      0x00\n        /* \"ABDKMath64x64.sol\":16983:16984  x */\n      dup4\n        /* \"ABDKMath64x64.sol\":16987:17003  0x10000000000000 */\n      0x10000000000000\n        /* \"ABDKMath64x64.sol\":16983:17003  x & 0x10000000000000 */\n      and\n        /* \"ABDKMath64x64.sol\":16983:17007  x & 0x10000000000000 > 0 */\n      0x0f\n      signextend\n      sgt\n        /* \"ABDKMath64x64.sol\":16979:17077  if (x & 0x10000000000000 > 0)... */\n      iszero\n      tag_818\n      jumpi\n        /* \"ABDKMath64x64.sol\":17035:17070  0x1000B175EFFDC76BA38E31671CA939725 */\n      0x01000b175effdc76ba38e31671ca939725\n        /* \"ABDKMath64x64.sol\":17026:17070  result * 0x1000B175EFFDC76BA38E31671CA939725 */\n      mul\n        /* \"ABDKMath64x64.sol\":17074:17077  128 */\n      0x80\n        /* \"ABDKMath64x64.sol\":17026:17077  result * 0x1000B175EFFDC76BA38E31671CA939725 >> 128 */\n      shr\n        /* \"ABDKMath64x64.sol\":16979:17077  if (x & 0x10000000000000 > 0)... */\n    tag_818:\n        /* \"ABDKMath64x64.sol\":17111:17112  0 */\n      0x00\n        /* \"ABDKMath64x64.sol\":17089:17090  x */\n      dup4\n        /* \"ABDKMath64x64.sol\":17093:17108  0x8000000000000 */\n      0x08000000000000\n        /* \"ABDKMath64x64.sol\":17089:17108  x & 0x8000000000000 */\n      and\n        /* \"ABDKMath64x64.sol\":17089:17112  x & 0x8000000000000 > 0 */\n      0x0f\n      signextend\n      sgt\n        /* \"ABDKMath64x64.sol\":17085:17182  if (x & 0x8000000000000 > 0)... */\n      iszero\n      tag_819\n      jumpi\n        /* \"ABDKMath64x64.sol\":17140:17175  0x100058BA01FB9F96D6CACD4B180917C3D */\n      0x0100058ba01fb9f96d6cacd4b180917c3d\n        /* \"ABDKMath64x64.sol\":17131:17175  result * 0x100058BA01FB9F96D6CACD4B180917C3D */\n      mul\n        /* \"ABDKMath64x64.sol\":17179:17182  128 */\n      0x80\n        /* \"ABDKMath64x64.sol\":17131:17182  result * 0x100058BA01FB9F96D6CACD4B180917C3D >> 128 */\n      shr\n        /* \"ABDKMath64x64.sol\":17085:17182  if (x & 0x8000000000000 > 0)... */\n    tag_819:\n        /* \"ABDKMath64x64.sol\":17216:17217  0 */\n      0x00\n        /* \"ABDKMath64x64.sol\":17194:17195  x */\n      dup4\n        /* \"ABDKMath64x64.sol\":17198:17213  0x4000000000000 */\n      0x04000000000000\n        /* \"ABDKMath64x64.sol\":17194:17213  x & 0x4000000000000 */\n      and\n        /* \"ABDKMath64x64.sol\":17194:17217  x & 0x4000000000000 > 0 */\n      0x0f\n      signextend\n      sgt\n        /* \"ABDKMath64x64.sol\":17190:17287  if (x & 0x4000000000000 > 0)... */\n      iszero\n      tag_820\n      jumpi\n        /* \"ABDKMath64x64.sol\":17245:17280  0x10002C5CC37DA9491D0985C348C68E7B3 */\n      0x010002c5cc37da9491d0985c348c68e7b3\n        /* \"ABDKMath64x64.sol\":17236:17280  result * 0x10002C5CC37DA9491D0985C348C68E7B3 */\n      mul\n        /* \"ABDKMath64x64.sol\":17284:17287  128 */\n      0x80\n        /* \"ABDKMath64x64.sol\":17236:17287  result * 0x10002C5CC37DA9491D0985C348C68E7B3 >> 128 */\n      shr\n        /* \"ABDKMath64x64.sol\":17190:17287  if (x & 0x4000000000000 > 0)... */\n    tag_820:\n        /* \"ABDKMath64x64.sol\":17321:17322  0 */\n      0x00\n        /* \"ABDKMath64x64.sol\":17299:17300  x */\n      dup4\n        /* \"ABDKMath64x64.sol\":17303:17318  0x2000000000000 */\n      0x02000000000000\n        /* \"ABDKMath64x64.sol\":17299:17318  x & 0x2000000000000 */\n      and\n        /* \"ABDKMath64x64.sol\":17299:17322  x & 0x2000000000000 > 0 */\n      0x0f\n      signextend\n      sgt\n        /* \"ABDKMath64x64.sol\":17295:17392  if (x & 0x2000000000000 > 0)... */\n      iszero\n      tag_821\n      jumpi\n        /* \"ABDKMath64x64.sol\":17350:17385  0x1000162E525EE054754457D5995292026 */\n      0x01000162e525ee054754457d5995292026\n        /* \"ABDKMath64x64.sol\":17341:17385  result * 0x1000162E525EE054754457D5995292026 */\n      mul\n        /* \"ABDKMath64x64.sol\":17389:17392  128 */\n      0x80\n        /* \"ABDKMath64x64.sol\":17341:17392  result * 0x1000162E525EE054754457D5995292026 >> 128 */\n      shr\n        /* \"ABDKMath64x64.sol\":17295:17392  if (x & 0x2000000000000 > 0)... */\n    tag_821:\n        /* \"ABDKMath64x64.sol\":17426:17427  0 */\n      0x00\n        /* \"ABDKMath64x64.sol\":17404:17405  x */\n      dup4\n        /* \"ABDKMath64x64.sol\":17408:17423  0x1000000000000 */\n      0x01000000000000\n        /* \"ABDKMath64x64.sol\":17404:17423  x & 0x1000000000000 */\n      and\n        /* \"ABDKMath64x64.sol\":17404:17427  x & 0x1000000000000 > 0 */\n      0x0f\n      signextend\n      sgt\n        /* \"ABDKMath64x64.sol\":17400:17497  if (x & 0x1000000000000 > 0)... */\n      iszero\n      tag_822\n      jumpi\n        /* \"ABDKMath64x64.sol\":17455:17490  0x10000B17255775C040618BF4A4ADE83FC */\n      0x010000b17255775c040618bf4a4ade83fc\n        /* \"ABDKMath64x64.sol\":17446:17490  result * 0x10000B17255775C040618BF4A4ADE83FC */\n      mul\n        /* \"ABDKMath64x64.sol\":17494:17497  128 */\n      0x80\n        /* \"ABDKMath64x64.sol\":17446:17497  result * 0x10000B17255775C040618BF4A4ADE83FC >> 128 */\n      shr\n        /* \"ABDKMath64x64.sol\":17400:17497  if (x & 0x1000000000000 > 0)... */\n    tag_822:\n        /* \"ABDKMath64x64.sol\":17530:17531  0 */\n      0x00\n        /* \"ABDKMath64x64.sol\":17509:17510  x */\n      dup4\n        /* \"ABDKMath64x64.sol\":17513:17527  0x800000000000 */\n      0x800000000000\n        /* \"ABDKMath64x64.sol\":17509:17527  x & 0x800000000000 */\n      and\n        /* \"ABDKMath64x64.sol\":17509:17531  x & 0x800000000000 > 0 */\n      0x0f\n      signextend\n      sgt\n        /* \"ABDKMath64x64.sol\":17505:17601  if (x & 0x800000000000 > 0)... */\n      iszero\n      tag_823\n      jumpi\n        /* \"ABDKMath64x64.sol\":17559:17594  0x1000058B91B5BC9AE2EED81E9B7D4CFAB */\n      0x01000058b91b5bc9ae2eed81e9b7d4cfab\n        /* \"ABDKMath64x64.sol\":17550:17594  result * 0x1000058B91B5BC9AE2EED81E9B7D4CFAB */\n      mul\n        /* \"ABDKMath64x64.sol\":17598:17601  128 */\n      0x80\n        /* \"ABDKMath64x64.sol\":17550:17601  result * 0x1000058B91B5BC9AE2EED81E9B7D4CFAB >> 128 */\n      shr\n        /* \"ABDKMath64x64.sol\":17505:17601  if (x & 0x800000000000 > 0)... */\n    tag_823:\n        /* \"ABDKMath64x64.sol\":17634:17635  0 */\n      0x00\n        /* \"ABDKMath64x64.sol\":17613:17614  x */\n      dup4\n        /* \"ABDKMath64x64.sol\":17617:17631  0x400000000000 */\n      0x400000000000\n        /* \"ABDKMath64x64.sol\":17613:17631  x & 0x400000000000 */\n      and\n        /* \"ABDKMath64x64.sol\":17613:17635  x & 0x400000000000 > 0 */\n      0x0f\n      signextend\n      sgt\n        /* \"ABDKMath64x64.sol\":17609:17705  if (x & 0x400000000000 > 0)... */\n      iszero\n      tag_824\n      jumpi\n        /* \"ABDKMath64x64.sol\":17663:17698  0x100002C5C89D5EC6CA4D7C8ACC017B7C9 */\n      0x0100002c5c89d5ec6ca4d7c8acc017b7c9\n        /* \"ABDKMath64x64.sol\":17654:17698  result * 0x100002C5C89D5EC6CA4D7C8ACC017B7C9 */\n      mul\n        /* \"ABDKMath64x64.sol\":17702:17705  128 */\n      0x80\n        /* \"ABDKMath64x64.sol\":17654:17705  result * 0x100002C5C89D5EC6CA4D7C8ACC017B7C9 >> 128 */\n      shr\n        /* \"ABDKMath64x64.sol\":17609:17705  if (x & 0x400000000000 > 0)... */\n    tag_824:\n        /* \"ABDKMath64x64.sol\":17738:17739  0 */\n      0x00\n        /* \"ABDKMath64x64.sol\":17717:17718  x */\n      dup4\n        /* \"ABDKMath64x64.sol\":17721:17735  0x200000000000 */\n      0x200000000000\n        /* \"ABDKMath64x64.sol\":17717:17735  x & 0x200000000000 */\n      and\n        /* \"ABDKMath64x64.sol\":17717:17739  x & 0x200000000000 > 0 */\n      0x0f\n      signextend\n      sgt\n        /* \"ABDKMath64x64.sol\":17713:17809  if (x & 0x200000000000 > 0)... */\n      iszero\n      tag_825\n      jumpi\n        /* \"ABDKMath64x64.sol\":17767:17802  0x10000162E43F4F831060E02D839A9D16D */\n      0x010000162e43f4f831060e02d839a9d16d\n        /* \"ABDKMath64x64.sol\":17758:17802  result * 0x10000162E43F4F831060E02D839A9D16D */\n      mul\n        /* \"ABDKMath64x64.sol\":17806:17809  128 */\n      0x80\n        /* \"ABDKMath64x64.sol\":17758:17809  result * 0x10000162E43F4F831060E02D839A9D16D >> 128 */\n      shr\n        /* \"ABDKMath64x64.sol\":17713:17809  if (x & 0x200000000000 > 0)... */\n    tag_825:\n        /* \"ABDKMath64x64.sol\":17842:17843  0 */\n      0x00\n        /* \"ABDKMath64x64.sol\":17821:17822  x */\n      dup4\n        /* \"ABDKMath64x64.sol\":17825:17839  0x100000000000 */\n      0x100000000000\n        /* \"ABDKMath64x64.sol\":17821:17839  x & 0x100000000000 */\n      and\n        /* \"ABDKMath64x64.sol\":17821:17843  x & 0x100000000000 > 0 */\n      0x0f\n      signextend\n      sgt\n        /* \"ABDKMath64x64.sol\":17817:17913  if (x & 0x100000000000 > 0)... */\n      iszero\n      tag_826\n      jumpi\n        /* \"ABDKMath64x64.sol\":17871:17906  0x100000B1721BCFC99D9F890EA06911763 */\n      0x0100000b1721bcfc99d9f890ea06911763\n        /* \"ABDKMath64x64.sol\":17862:17906  result * 0x100000B1721BCFC99D9F890EA06911763 */\n      mul\n        /* \"ABDKMath64x64.sol\":17910:17913  128 */\n      0x80\n        /* \"ABDKMath64x64.sol\":17862:17913  result * 0x100000B1721BCFC99D9F890EA06911763 >> 128 */\n      shr\n        /* \"ABDKMath64x64.sol\":17817:17913  if (x & 0x100000000000 > 0)... */\n    tag_826:\n        /* \"ABDKMath64x64.sol\":17945:17946  0 */\n      0x00\n        /* \"ABDKMath64x64.sol\":17925:17926  x */\n      dup4\n        /* \"ABDKMath64x64.sol\":17929:17942  0x80000000000 */\n      0x080000000000\n        /* \"ABDKMath64x64.sol\":17925:17942  x & 0x80000000000 */\n      and\n        /* \"ABDKMath64x64.sol\":17925:17946  x & 0x80000000000 > 0 */\n      0x0f\n      signextend\n      sgt\n        /* \"ABDKMath64x64.sol\":17921:18016  if (x & 0x80000000000 > 0)... */\n      iszero\n      tag_827\n      jumpi\n        /* \"ABDKMath64x64.sol\":17974:18009  0x10000058B90CF1E6D97F9CA14DBCC1628 */\n      0x010000058b90cf1e6d97f9ca14dbcc1628\n        /* \"ABDKMath64x64.sol\":17965:18009  result * 0x10000058B90CF1E6D97F9CA14DBCC1628 */\n      mul\n        /* \"ABDKMath64x64.sol\":18013:18016  128 */\n      0x80\n        /* \"ABDKMath64x64.sol\":17965:18016  result * 0x10000058B90CF1E6D97F9CA14DBCC1628 >> 128 */\n      shr\n        /* \"ABDKMath64x64.sol\":17921:18016  if (x & 0x80000000000 > 0)... */\n    tag_827:\n        /* \"ABDKMath64x64.sol\":18048:18049  0 */\n      0x00\n        /* \"ABDKMath64x64.sol\":18028:18029  x */\n      dup4\n        /* \"ABDKMath64x64.sol\":18032:18045  0x40000000000 */\n      0x040000000000\n        /* \"ABDKMath64x64.sol\":18028:18045  x & 0x40000000000 */\n      and\n        /* \"ABDKMath64x64.sol\":18028:18049  x & 0x40000000000 > 0 */\n      0x0f\n      signextend\n      sgt\n        /* \"ABDKMath64x64.sol\":18024:18119  if (x & 0x40000000000 > 0)... */\n      iszero\n      tag_828\n      jumpi\n        /* \"ABDKMath64x64.sol\":18077:18112  0x1000002C5C863B73F016468F6BAC5CA2B */\n      0x01000002c5c863b73f016468f6bac5ca2b\n        /* \"ABDKMath64x64.sol\":18068:18112  result * 0x1000002C5C863B73F016468F6BAC5CA2B */\n      mul\n        /* \"ABDKMath64x64.sol\":18116:18119  128 */\n      0x80\n        /* \"ABDKMath64x64.sol\":18068:18119  result * 0x1000002C5C863B73F016468F6BAC5CA2B >> 128 */\n      shr\n        /* \"ABDKMath64x64.sol\":18024:18119  if (x & 0x40000000000 > 0)... */\n    tag_828:\n        /* \"ABDKMath64x64.sol\":18151:18152  0 */\n      0x00\n        /* \"ABDKMath64x64.sol\":18131:18132  x */\n      dup4\n        /* \"ABDKMath64x64.sol\":18135:18148  0x20000000000 */\n      0x020000000000\n        /* \"ABDKMath64x64.sol\":18131:18148  x & 0x20000000000 */\n      and\n        /* \"ABDKMath64x64.sol\":18131:18152  x & 0x20000000000 > 0 */\n      0x0f\n      signextend\n      sgt\n        /* \"ABDKMath64x64.sol\":18127:18222  if (x & 0x20000000000 > 0)... */\n      iszero\n      tag_829\n      jumpi\n        /* \"ABDKMath64x64.sol\":18180:18215  0x100000162E430E5A18F6119E3C02282A5 */\n      0x0100000162e430e5a18f6119e3c02282a5\n        /* \"ABDKMath64x64.sol\":18171:18215  result * 0x100000162E430E5A18F6119E3C02282A5 */\n      mul\n        /* \"ABDKMath64x64.sol\":18219:18222  128 */\n      0x80\n        /* \"ABDKMath64x64.sol\":18171:18222  result * 0x100000162E430E5A18F6119E3C02282A5 >> 128 */\n      shr\n        /* \"ABDKMath64x64.sol\":18127:18222  if (x & 0x20000000000 > 0)... */\n    tag_829:\n        /* \"ABDKMath64x64.sol\":18254:18255  0 */\n      0x00\n        /* \"ABDKMath64x64.sol\":18234:18235  x */\n      dup4\n        /* \"ABDKMath64x64.sol\":18238:18251  0x10000000000 */\n      0x010000000000\n        /* \"ABDKMath64x64.sol\":18234:18251  x & 0x10000000000 */\n      and\n        /* \"ABDKMath64x64.sol\":18234:18255  x & 0x10000000000 > 0 */\n      0x0f\n      signextend\n      sgt\n        /* \"ABDKMath64x64.sol\":18230:18325  if (x & 0x10000000000 > 0)... */\n      iszero\n      tag_830\n      jumpi\n        /* \"ABDKMath64x64.sol\":18283:18318  0x1000000B1721835514B86E6D96EFD1BFE */\n      0x01000000b1721835514b86e6d96efd1bfe\n        /* \"ABDKMath64x64.sol\":18274:18318  result * 0x1000000B1721835514B86E6D96EFD1BFE */\n      mul\n        /* \"ABDKMath64x64.sol\":18322:18325  128 */\n      0x80\n        /* \"ABDKMath64x64.sol\":18274:18325  result * 0x1000000B1721835514B86E6D96EFD1BFE >> 128 */\n      shr\n        /* \"ABDKMath64x64.sol\":18230:18325  if (x & 0x10000000000 > 0)... */\n    tag_830:\n        /* \"ABDKMath64x64.sol\":18356:18357  0 */\n      0x00\n        /* \"ABDKMath64x64.sol\":18337:18338  x */\n      dup4\n        /* \"ABDKMath64x64.sol\":18341:18353  0x8000000000 */\n      0x8000000000\n        /* \"ABDKMath64x64.sol\":18337:18353  x & 0x8000000000 */\n      and\n        /* \"ABDKMath64x64.sol\":18337:18357  x & 0x8000000000 > 0 */\n      0x0f\n      signextend\n      sgt\n        /* \"ABDKMath64x64.sol\":18333:18427  if (x & 0x8000000000 > 0)... */\n      iszero\n      tag_831\n      jumpi\n        /* \"ABDKMath64x64.sol\":18385:18420  0x100000058B90C0B48C6BE5DF846C5B2EF */\n      0x0100000058b90c0b48c6be5df846c5b2ef\n        /* \"ABDKMath64x64.sol\":18376:18420  result * 0x100000058B90C0B48C6BE5DF846C5B2EF */\n      mul\n        /* \"ABDKMath64x64.sol\":18424:18427  128 */\n      0x80\n        /* \"ABDKMath64x64.sol\":18376:18427  result * 0x100000058B90C0B48C6BE5DF846C5B2EF >> 128 */\n      shr\n        /* \"ABDKMath64x64.sol\":18333:18427  if (x & 0x8000000000 > 0)... */\n    tag_831:\n        /* \"ABDKMath64x64.sol\":18458:18459  0 */\n      0x00\n        /* \"ABDKMath64x64.sol\":18439:18440  x */\n      dup4\n        /* \"ABDKMath64x64.sol\":18443:18455  0x4000000000 */\n      0x4000000000\n        /* \"ABDKMath64x64.sol\":18439:18455  x & 0x4000000000 */\n      and\n        /* \"ABDKMath64x64.sol\":18439:18459  x & 0x4000000000 > 0 */\n      0x0f\n      signextend\n      sgt\n        /* \"ABDKMath64x64.sol\":18435:18529  if (x & 0x4000000000 > 0)... */\n      iszero\n      tag_832\n      jumpi\n        /* \"ABDKMath64x64.sol\":18487:18522  0x10000002C5C8601CC6B9E94213C72737A */\n      0x010000002c5c8601cc6b9e94213c72737a\n        /* \"ABDKMath64x64.sol\":18478:18522  result * 0x10000002C5C8601CC6B9E94213C72737A */\n      mul\n        /* \"ABDKMath64x64.sol\":18526:18529  128 */\n      0x80\n        /* \"ABDKMath64x64.sol\":18478:18529  result * 0x10000002C5C8601CC6B9E94213C72737A >> 128 */\n      shr\n        /* \"ABDKMath64x64.sol\":18435:18529  if (x & 0x4000000000 > 0)... */\n    tag_832:\n        /* \"ABDKMath64x64.sol\":18560:18561  0 */\n      0x00\n        /* \"ABDKMath64x64.sol\":18541:18542  x */\n      dup4\n        /* \"ABDKMath64x64.sol\":18545:18557  0x2000000000 */\n      0x2000000000\n        /* \"ABDKMath64x64.sol\":18541:18557  x & 0x2000000000 */\n      and\n        /* \"ABDKMath64x64.sol\":18541:18561  x & 0x2000000000 > 0 */\n      0x0f\n      signextend\n      sgt\n        /* \"ABDKMath64x64.sol\":18537:18631  if (x & 0x2000000000 > 0)... */\n      iszero\n      tag_833\n      jumpi\n        /* \"ABDKMath64x64.sol\":18589:18624  0x1000000162E42FFF037DF38AA2B219F06 */\n      0x01000000162e42fff037df38aa2b219f06\n        /* \"ABDKMath64x64.sol\":18580:18624  result * 0x1000000162E42FFF037DF38AA2B219F06 */\n      mul\n        /* \"ABDKMath64x64.sol\":18628:18631  128 */\n      0x80\n        /* \"ABDKMath64x64.sol\":18580:18631  result * 0x1000000162E42FFF037DF38AA2B219F06 >> 128 */\n      shr\n        /* \"ABDKMath64x64.sol\":18537:18631  if (x & 0x2000000000 > 0)... */\n    tag_833:\n        /* \"ABDKMath64x64.sol\":18662:18663  0 */\n      0x00\n        /* \"ABDKMath64x64.sol\":18643:18644  x */\n      dup4\n        /* \"ABDKMath64x64.sol\":18647:18659  0x1000000000 */\n      0x1000000000\n        /* \"ABDKMath64x64.sol\":18643:18659  x & 0x1000000000 */\n      and\n        /* \"ABDKMath64x64.sol\":18643:18663  x & 0x1000000000 > 0 */\n      0x0f\n      signextend\n      sgt\n        /* \"ABDKMath64x64.sol\":18639:18733  if (x & 0x1000000000 > 0)... */\n      iszero\n      tag_834\n      jumpi\n        /* \"ABDKMath64x64.sol\":18691:18726  0x10000000B17217FBA9C739AA5819F44F9 */\n      0x010000000b17217fba9c739aa5819f44f9\n        /* \"ABDKMath64x64.sol\":18682:18726  result * 0x10000000B17217FBA9C739AA5819F44F9 */\n      mul\n        /* \"ABDKMath64x64.sol\":18730:18733  128 */\n      0x80\n        /* \"ABDKMath64x64.sol\":18682:18733  result * 0x10000000B17217FBA9C739AA5819F44F9 >> 128 */\n      shr\n        /* \"ABDKMath64x64.sol\":18639:18733  if (x & 0x1000000000 > 0)... */\n    tag_834:\n        /* \"ABDKMath64x64.sol\":18763:18764  0 */\n      0x00\n        /* \"ABDKMath64x64.sol\":18745:18746  x */\n      dup4\n        /* \"ABDKMath64x64.sol\":18749:18760  0x800000000 */\n      0x0800000000\n        /* \"ABDKMath64x64.sol\":18745:18760  x & 0x800000000 */\n      and\n        /* \"ABDKMath64x64.sol\":18745:18764  x & 0x800000000 > 0 */\n      0x0f\n      signextend\n      sgt\n        /* \"ABDKMath64x64.sol\":18741:18834  if (x & 0x800000000 > 0)... */\n      iszero\n      tag_835\n      jumpi\n        /* \"ABDKMath64x64.sol\":18792:18827  0x1000000058B90BFCDEE5ACD3C1CEDC823 */\n      0x01000000058b90bfcdee5acd3c1cedc823\n        /* \"ABDKMath64x64.sol\":18783:18827  result * 0x1000000058B90BFCDEE5ACD3C1CEDC823 */\n      mul\n        /* \"ABDKMath64x64.sol\":18831:18834  128 */\n      0x80\n        /* \"ABDKMath64x64.sol\":18783:18834  result * 0x1000000058B90BFCDEE5ACD3C1CEDC823 >> 128 */\n      shr\n        /* \"ABDKMath64x64.sol\":18741:18834  if (x & 0x800000000 > 0)... */\n    tag_835:\n        /* \"ABDKMath64x64.sol\":18864:18865  0 */\n      0x00\n        /* \"ABDKMath64x64.sol\":18846:18847  x */\n      dup4\n        /* \"ABDKMath64x64.sol\":18850:18861  0x400000000 */\n      0x0400000000\n        /* \"ABDKMath64x64.sol\":18846:18861  x & 0x400000000 */\n      and\n        /* \"ABDKMath64x64.sol\":18846:18865  x & 0x400000000 > 0 */\n      0x0f\n      signextend\n      sgt\n        /* \"ABDKMath64x64.sol\":18842:18935  if (x & 0x400000000 > 0)... */\n      iszero\n      tag_836\n      jumpi\n        /* \"ABDKMath64x64.sol\":18893:18928  0x100000002C5C85FE31F35A6A30DA1BE50 */\n      0x0100000002c5c85fe31f35a6a30da1be50\n        /* \"ABDKMath64x64.sol\":18884:18928  result * 0x100000002C5C85FE31F35A6A30DA1BE50 */\n      mul\n        /* \"ABDKMath64x64.sol\":18932:18935  128 */\n      0x80\n        /* \"ABDKMath64x64.sol\":18884:18935  result * 0x100000002C5C85FE31F35A6A30DA1BE50 >> 128 */\n      shr\n        /* \"ABDKMath64x64.sol\":18842:18935  if (x & 0x400000000 > 0)... */\n    tag_836:\n        /* \"ABDKMath64x64.sol\":18965:18966  0 */\n      0x00\n        /* \"ABDKMath64x64.sol\":18947:18948  x */\n      dup4\n        /* \"ABDKMath64x64.sol\":18951:18962  0x200000000 */\n      0x0200000000\n        /* \"ABDKMath64x64.sol\":18947:18962  x & 0x200000000 */\n      and\n        /* \"ABDKMath64x64.sol\":18947:18966  x & 0x200000000 > 0 */\n      0x0f\n      signextend\n      sgt\n        /* \"ABDKMath64x64.sol\":18943:19036  if (x & 0x200000000 > 0)... */\n      iszero\n      tag_837\n      jumpi\n        /* \"ABDKMath64x64.sol\":18994:19029  0x10000000162E42FF0999CE3541B9FFFCF */\n      0x010000000162e42ff0999ce3541b9fffcf\n        /* \"ABDKMath64x64.sol\":18985:19029  result * 0x10000000162E42FF0999CE3541B9FFFCF */\n      mul\n        /* \"ABDKMath64x64.sol\":19033:19036  128 */\n      0x80\n        /* \"ABDKMath64x64.sol\":18985:19036  result * 0x10000000162E42FF0999CE3541B9FFFCF >> 128 */\n      shr\n        /* \"ABDKMath64x64.sol\":18943:19036  if (x & 0x200000000 > 0)... */\n    tag_837:\n        /* \"ABDKMath64x64.sol\":19066:19067  0 */\n      0x00\n        /* \"ABDKMath64x64.sol\":19048:19049  x */\n      dup4\n        /* \"ABDKMath64x64.sol\":19052:19063  0x100000000 */\n      0x0100000000\n        /* \"ABDKMath64x64.sol\":19048:19063  x & 0x100000000 */\n      and\n        /* \"ABDKMath64x64.sol\":19048:19067  x & 0x100000000 > 0 */\n      0x0f\n      signextend\n      sgt\n        /* \"ABDKMath64x64.sol\":19044:19137  if (x & 0x100000000 > 0)... */\n      iszero\n      tag_838\n      jumpi\n        /* \"ABDKMath64x64.sol\":19095:19130  0x100000000B17217F80F4EF5AADDA45554 */\n      0x0100000000b17217f80f4ef5aadda45554\n        /* \"ABDKMath64x64.sol\":19086:19130  result * 0x100000000B17217F80F4EF5AADDA45554 */\n      mul\n        /* \"ABDKMath64x64.sol\":19134:19137  128 */\n      0x80\n        /* \"ABDKMath64x64.sol\":19086:19137  result * 0x100000000B17217F80F4EF5AADDA45554 >> 128 */\n      shr\n        /* \"ABDKMath64x64.sol\":19044:19137  if (x & 0x100000000 > 0)... */\n    tag_838:\n        /* \"ABDKMath64x64.sol\":19166:19167  0 */\n      0x00\n        /* \"ABDKMath64x64.sol\":19149:19150  x */\n      dup4\n        /* \"ABDKMath64x64.sol\":19153:19163  0x80000000 */\n      0x80000000\n        /* \"ABDKMath64x64.sol\":19149:19163  x & 0x80000000 */\n      and\n        /* \"ABDKMath64x64.sol\":19149:19167  x & 0x80000000 > 0 */\n      0x0f\n      signextend\n      sgt\n        /* \"ABDKMath64x64.sol\":19145:19237  if (x & 0x80000000 > 0)... */\n      iszero\n      tag_839\n      jumpi\n        /* \"ABDKMath64x64.sol\":19195:19230  0x10000000058B90BFBF8479BD5A81B51AD */\n      0x010000000058b90bfbf8479bd5a81b51ad\n        /* \"ABDKMath64x64.sol\":19186:19230  result * 0x10000000058B90BFBF8479BD5A81B51AD */\n      mul\n        /* \"ABDKMath64x64.sol\":19234:19237  128 */\n      0x80\n        /* \"ABDKMath64x64.sol\":19186:19237  result * 0x10000000058B90BFBF8479BD5A81B51AD >> 128 */\n      shr\n        /* \"ABDKMath64x64.sol\":19145:19237  if (x & 0x80000000 > 0)... */\n    tag_839:\n        /* \"ABDKMath64x64.sol\":19266:19267  0 */\n      0x00\n        /* \"ABDKMath64x64.sol\":19249:19250  x */\n      dup4\n        /* \"ABDKMath64x64.sol\":19253:19263  0x40000000 */\n      0x40000000\n        /* \"ABDKMath64x64.sol\":19249:19263  x & 0x40000000 */\n      and\n        /* \"ABDKMath64x64.sol\":19249:19267  x & 0x40000000 > 0 */\n      0x0f\n      signextend\n      sgt\n        /* \"ABDKMath64x64.sol\":19245:19337  if (x & 0x40000000 > 0)... */\n      iszero\n      tag_840\n      jumpi\n        /* \"ABDKMath64x64.sol\":19295:19330  0x1000000002C5C85FDF84BD62AE30A74CC */\n      0x01000000002c5c85fdf84bd62ae30a74cc\n        /* \"ABDKMath64x64.sol\":19286:19330  result * 0x1000000002C5C85FDF84BD62AE30A74CC */\n      mul\n        /* \"ABDKMath64x64.sol\":19334:19337  128 */\n      0x80\n        /* \"ABDKMath64x64.sol\":19286:19337  result * 0x1000000002C5C85FDF84BD62AE30A74CC >> 128 */\n      shr\n        /* \"ABDKMath64x64.sol\":19245:19337  if (x & 0x40000000 > 0)... */\n    tag_840:\n        /* \"ABDKMath64x64.sol\":19366:19367  0 */\n      0x00\n        /* \"ABDKMath64x64.sol\":19349:19350  x */\n      dup4\n        /* \"ABDKMath64x64.sol\":19353:19363  0x20000000 */\n      0x20000000\n        /* \"ABDKMath64x64.sol\":19349:19363  x & 0x20000000 */\n      and\n        /* \"ABDKMath64x64.sol\":19349:19367  x & 0x20000000 > 0 */\n      0x0f\n      signextend\n      sgt\n        /* \"ABDKMath64x64.sol\":19345:19437  if (x & 0x20000000 > 0)... */\n      iszero\n      tag_841\n      jumpi\n        /* \"ABDKMath64x64.sol\":19395:19430  0x100000000162E42FEFB2FED257559BDAA */\n      0x0100000000162e42fefb2fed257559bdaa\n        /* \"ABDKMath64x64.sol\":19386:19430  result * 0x100000000162E42FEFB2FED257559BDAA */\n      mul\n        /* \"ABDKMath64x64.sol\":19434:19437  128 */\n      0x80\n        /* \"ABDKMath64x64.sol\":19386:19437  result * 0x100000000162E42FEFB2FED257559BDAA >> 128 */\n      shr\n        /* \"ABDKMath64x64.sol\":19345:19437  if (x & 0x20000000 > 0)... */\n    tag_841:\n        /* \"ABDKMath64x64.sol\":19466:19467  0 */\n      0x00\n        /* \"ABDKMath64x64.sol\":19449:19450  x */\n      dup4\n        /* \"ABDKMath64x64.sol\":19453:19463  0x10000000 */\n      0x10000000\n        /* \"ABDKMath64x64.sol\":19449:19463  x & 0x10000000 */\n      and\n        /* \"ABDKMath64x64.sol\":19449:19467  x & 0x10000000 > 0 */\n      0x0f\n      signextend\n      sgt\n        /* \"ABDKMath64x64.sol\":19445:19537  if (x & 0x10000000 > 0)... */\n      iszero\n      tag_842\n      jumpi\n        /* \"ABDKMath64x64.sol\":19495:19530  0x1000000000B17217F7D5A7716BBA4A9AE */\n      0x01000000000b17217f7d5a7716bba4a9ae\n        /* \"ABDKMath64x64.sol\":19486:19530  result * 0x1000000000B17217F7D5A7716BBA4A9AE */\n      mul\n        /* \"ABDKMath64x64.sol\":19534:19537  128 */\n      0x80\n        /* \"ABDKMath64x64.sol\":19486:19537  result * 0x1000000000B17217F7D5A7716BBA4A9AE >> 128 */\n      shr\n        /* \"ABDKMath64x64.sol\":19445:19537  if (x & 0x10000000 > 0)... */\n    tag_842:\n        /* \"ABDKMath64x64.sol\":19565:19566  0 */\n      0x00\n        /* \"ABDKMath64x64.sol\":19549:19550  x */\n      dup4\n        /* \"ABDKMath64x64.sol\":19553:19562  0x8000000 */\n      0x08000000\n        /* \"ABDKMath64x64.sol\":19549:19562  x & 0x8000000 */\n      and\n        /* \"ABDKMath64x64.sol\":19549:19566  x & 0x8000000 > 0 */\n      0x0f\n      signextend\n      sgt\n        /* \"ABDKMath64x64.sol\":19545:19636  if (x & 0x8000000 > 0)... */\n      iszero\n      tag_843\n      jumpi\n        /* \"ABDKMath64x64.sol\":19594:19629  0x100000000058B90BFBE9DDBAC5E109CCE */\n      0x0100000000058b90bfbe9ddbac5e109cce\n        /* \"ABDKMath64x64.sol\":19585:19629  result * 0x100000000058B90BFBE9DDBAC5E109CCE */\n      mul\n        /* \"ABDKMath64x64.sol\":19633:19636  128 */\n      0x80\n        /* \"ABDKMath64x64.sol\":19585:19636  result * 0x100000000058B90BFBE9DDBAC5E109CCE >> 128 */\n      shr\n        /* \"ABDKMath64x64.sol\":19545:19636  if (x & 0x8000000 > 0)... */\n    tag_843:\n        /* \"ABDKMath64x64.sol\":19664:19665  0 */\n      0x00\n        /* \"ABDKMath64x64.sol\":19648:19649  x */\n      dup4\n        /* \"ABDKMath64x64.sol\":19652:19661  0x4000000 */\n      0x04000000\n        /* \"ABDKMath64x64.sol\":19648:19661  x & 0x4000000 */\n      and\n        /* \"ABDKMath64x64.sol\":19648:19665  x & 0x4000000 > 0 */\n      0x0f\n      signextend\n      sgt\n        /* \"ABDKMath64x64.sol\":19644:19735  if (x & 0x4000000 > 0)... */\n      iszero\n      tag_844\n      jumpi\n        /* \"ABDKMath64x64.sol\":19693:19728  0x10000000002C5C85FDF4B15DE6F17EB0D */\n      0x010000000002c5c85fdf4b15de6f17eb0d\n        /* \"ABDKMath64x64.sol\":19684:19728  result * 0x10000000002C5C85FDF4B15DE6F17EB0D */\n      mul\n        /* \"ABDKMath64x64.sol\":19732:19735  128 */\n      0x80\n        /* \"ABDKMath64x64.sol\":19684:19735  result * 0x10000000002C5C85FDF4B15DE6F17EB0D >> 128 */\n      shr\n        /* \"ABDKMath64x64.sol\":19644:19735  if (x & 0x4000000 > 0)... */\n    tag_844:\n        /* \"ABDKMath64x64.sol\":19763:19764  0 */\n      0x00\n        /* \"ABDKMath64x64.sol\":19747:19748  x */\n      dup4\n        /* \"ABDKMath64x64.sol\":19751:19760  0x2000000 */\n      0x02000000\n        /* \"ABDKMath64x64.sol\":19747:19760  x & 0x2000000 */\n      and\n        /* \"ABDKMath64x64.sol\":19747:19764  x & 0x2000000 > 0 */\n      0x0f\n      signextend\n      sgt\n        /* \"ABDKMath64x64.sol\":19743:19834  if (x & 0x2000000 > 0)... */\n      iszero\n      tag_845\n      jumpi\n        /* \"ABDKMath64x64.sol\":19792:19827  0x1000000000162E42FEFA494F1478FDE05 */\n      0x01000000000162e42fefa494f1478fde05\n        /* \"ABDKMath64x64.sol\":19783:19827  result * 0x1000000000162E42FEFA494F1478FDE05 */\n      mul\n        /* \"ABDKMath64x64.sol\":19831:19834  128 */\n      0x80\n        /* \"ABDKMath64x64.sol\":19783:19834  result * 0x1000000000162E42FEFA494F1478FDE05 >> 128 */\n      shr\n        /* \"ABDKMath64x64.sol\":19743:19834  if (x & 0x2000000 > 0)... */\n    tag_845:\n        /* \"ABDKMath64x64.sol\":19862:19863  0 */\n      0x00\n        /* \"ABDKMath64x64.sol\":19846:19847  x */\n      dup4\n        /* \"ABDKMath64x64.sol\":19850:19859  0x1000000 */\n      0x01000000\n        /* \"ABDKMath64x64.sol\":19846:19859  x & 0x1000000 */\n      and\n        /* \"ABDKMath64x64.sol\":19846:19863  x & 0x1000000 > 0 */\n      0x0f\n      signextend\n      sgt\n        /* \"ABDKMath64x64.sol\":19842:19933  if (x & 0x1000000 > 0)... */\n      iszero\n      tag_846\n      jumpi\n        /* \"ABDKMath64x64.sol\":19891:19926  0x10000000000B17217F7D20CF927C8E94C */\n      0x010000000000b17217f7d20cf927c8e94c\n        /* \"ABDKMath64x64.sol\":19882:19926  result * 0x10000000000B17217F7D20CF927C8E94C */\n      mul\n        /* \"ABDKMath64x64.sol\":19930:19933  128 */\n      0x80\n        /* \"ABDKMath64x64.sol\":19882:19933  result * 0x10000000000B17217F7D20CF927C8E94C >> 128 */\n      shr\n        /* \"ABDKMath64x64.sol\":19842:19933  if (x & 0x1000000 > 0)... */\n    tag_846:\n        /* \"ABDKMath64x64.sol\":19960:19961  0 */\n      0x00\n        /* \"ABDKMath64x64.sol\":19945:19946  x */\n      dup4\n        /* \"ABDKMath64x64.sol\":19949:19957  0x800000 */\n      0x800000\n        /* \"ABDKMath64x64.sol\":19945:19957  x & 0x800000 */\n      and\n        /* \"ABDKMath64x64.sol\":19945:19961  x & 0x800000 > 0 */\n      0x0f\n      signextend\n      sgt\n        /* \"ABDKMath64x64.sol\":19941:20031  if (x & 0x800000 > 0)... */\n      iszero\n      tag_847\n      jumpi\n        /* \"ABDKMath64x64.sol\":19989:20024  0x1000000000058B90BFBE8F71CB4E4B33D */\n      0x01000000000058b90bfbe8f71cb4e4b33d\n        /* \"ABDKMath64x64.sol\":19980:20024  result * 0x1000000000058B90BFBE8F71CB4E4B33D */\n      mul\n        /* \"ABDKMath64x64.sol\":20028:20031  128 */\n      0x80\n        /* \"ABDKMath64x64.sol\":19980:20031  result * 0x1000000000058B90BFBE8F71CB4E4B33D >> 128 */\n      shr\n        /* \"ABDKMath64x64.sol\":19941:20031  if (x & 0x800000 > 0)... */\n    tag_847:\n        /* \"ABDKMath64x64.sol\":20058:20059  0 */\n      0x00\n        /* \"ABDKMath64x64.sol\":20043:20044  x */\n      dup4\n        /* \"ABDKMath64x64.sol\":20047:20055  0x400000 */\n      0x400000\n        /* \"ABDKMath64x64.sol\":20043:20055  x & 0x400000 */\n      and\n        /* \"ABDKMath64x64.sol\":20043:20059  x & 0x400000 > 0 */\n      0x0f\n      signextend\n      sgt\n        /* \"ABDKMath64x64.sol\":20039:20129  if (x & 0x400000 > 0)... */\n      iszero\n      tag_848\n      jumpi\n        /* \"ABDKMath64x64.sol\":20087:20122  0x100000000002C5C85FDF477B662B26945 */\n      0x0100000000002c5c85fdf477b662b26945\n        /* \"ABDKMath64x64.sol\":20078:20122  result * 0x100000000002C5C85FDF477B662B26945 */\n      mul\n        /* \"ABDKMath64x64.sol\":20126:20129  128 */\n      0x80\n        /* \"ABDKMath64x64.sol\":20078:20129  result * 0x100000000002C5C85FDF477B662B26945 >> 128 */\n      shr\n        /* \"ABDKMath64x64.sol\":20039:20129  if (x & 0x400000 > 0)... */\n    tag_848:\n        /* \"ABDKMath64x64.sol\":20156:20157  0 */\n      0x00\n        /* \"ABDKMath64x64.sol\":20141:20142  x */\n      dup4\n        /* \"ABDKMath64x64.sol\":20145:20153  0x200000 */\n      0x200000\n        /* \"ABDKMath64x64.sol\":20141:20153  x & 0x200000 */\n      and\n        /* \"ABDKMath64x64.sol\":20141:20157  x & 0x200000 > 0 */\n      0x0f\n      signextend\n      sgt\n        /* \"ABDKMath64x64.sol\":20137:20227  if (x & 0x200000 > 0)... */\n      iszero\n      tag_849\n      jumpi\n        /* \"ABDKMath64x64.sol\":20185:20220  0x10000000000162E42FEFA3AE53369388C */\n      0x010000000000162e42fefa3ae53369388c\n        /* \"ABDKMath64x64.sol\":20176:20220  result * 0x10000000000162E42FEFA3AE53369388C */\n      mul\n        /* \"ABDKMath64x64.sol\":20224:20227  128 */\n      0x80\n        /* \"ABDKMath64x64.sol\":20176:20227  result * 0x10000000000162E42FEFA3AE53369388C >> 128 */\n      shr\n        /* \"ABDKMath64x64.sol\":20137:20227  if (x & 0x200000 > 0)... */\n    tag_849:\n        /* \"ABDKMath64x64.sol\":20254:20255  0 */\n      0x00\n        /* \"ABDKMath64x64.sol\":20239:20240  x */\n      dup4\n        /* \"ABDKMath64x64.sol\":20243:20251  0x100000 */\n      0x100000\n        /* \"ABDKMath64x64.sol\":20239:20251  x & 0x100000 */\n      and\n        /* \"ABDKMath64x64.sol\":20239:20255  x & 0x100000 > 0 */\n      0x0f\n      signextend\n      sgt\n        /* \"ABDKMath64x64.sol\":20235:20325  if (x & 0x100000 > 0)... */\n      iszero\n      tag_850\n      jumpi\n        /* \"ABDKMath64x64.sol\":20283:20318  0x100000000000B17217F7D1D351A389D40 */\n      0x0100000000000b17217f7d1d351a389d40\n        /* \"ABDKMath64x64.sol\":20274:20318  result * 0x100000000000B17217F7D1D351A389D40 */\n      mul\n        /* \"ABDKMath64x64.sol\":20322:20325  128 */\n      0x80\n        /* \"ABDKMath64x64.sol\":20274:20325  result * 0x100000000000B17217F7D1D351A389D40 >> 128 */\n      shr\n        /* \"ABDKMath64x64.sol\":20235:20325  if (x & 0x100000 > 0)... */\n    tag_850:\n        /* \"ABDKMath64x64.sol\":20351:20352  0 */\n      0x00\n        /* \"ABDKMath64x64.sol\":20337:20338  x */\n      dup4\n        /* \"ABDKMath64x64.sol\":20341:20348  0x80000 */\n      0x080000\n        /* \"ABDKMath64x64.sol\":20337:20348  x & 0x80000 */\n      and\n        /* \"ABDKMath64x64.sol\":20337:20352  x & 0x80000 > 0 */\n      0x0f\n      signextend\n      sgt\n        /* \"ABDKMath64x64.sol\":20333:20422  if (x & 0x80000 > 0)... */\n      iszero\n      tag_851\n      jumpi\n        /* \"ABDKMath64x64.sol\":20380:20415  0x10000000000058B90BFBE8E8B2D3D4EDE */\n      0x010000000000058b90bfbe8e8b2d3d4ede\n        /* \"ABDKMath64x64.sol\":20371:20415  result * 0x10000000000058B90BFBE8E8B2D3D4EDE */\n      mul\n        /* \"ABDKMath64x64.sol\":20419:20422  128 */\n      0x80\n        /* \"ABDKMath64x64.sol\":20371:20422  result * 0x10000000000058B90BFBE8E8B2D3D4EDE >> 128 */\n      shr\n        /* \"ABDKMath64x64.sol\":20333:20422  if (x & 0x80000 > 0)... */\n    tag_851:\n        /* \"ABDKMath64x64.sol\":20448:20449  0 */\n      0x00\n        /* \"ABDKMath64x64.sol\":20434:20435  x */\n      dup4\n        /* \"ABDKMath64x64.sol\":20438:20445  0x40000 */\n      0x040000\n        /* \"ABDKMath64x64.sol\":20434:20445  x & 0x40000 */\n      and\n        /* \"ABDKMath64x64.sol\":20434:20449  x & 0x40000 > 0 */\n      0x0f\n      signextend\n      sgt\n        /* \"ABDKMath64x64.sol\":20430:20519  if (x & 0x40000 > 0)... */\n      iszero\n      tag_852\n      jumpi\n        /* \"ABDKMath64x64.sol\":20477:20512  0x1000000000002C5C85FDF4741BEA6E77E */\n      0x01000000000002c5c85fdf4741bea6e77e\n        /* \"ABDKMath64x64.sol\":20468:20512  result * 0x1000000000002C5C85FDF4741BEA6E77E */\n      mul\n        /* \"ABDKMath64x64.sol\":20516:20519  128 */\n      0x80\n        /* \"ABDKMath64x64.sol\":20468:20519  result * 0x1000000000002C5C85FDF4741BEA6E77E >> 128 */\n      shr\n        /* \"ABDKMath64x64.sol\":20430:20519  if (x & 0x40000 > 0)... */\n    tag_852:\n        /* \"ABDKMath64x64.sol\":20545:20546  0 */\n      0x00\n        /* \"ABDKMath64x64.sol\":20531:20532  x */\n      dup4\n        /* \"ABDKMath64x64.sol\":20535:20542  0x20000 */\n      0x020000\n        /* \"ABDKMath64x64.sol\":20531:20542  x & 0x20000 */\n      and\n        /* \"ABDKMath64x64.sol\":20531:20546  x & 0x20000 > 0 */\n      0x0f\n      signextend\n      sgt\n        /* \"ABDKMath64x64.sol\":20527:20616  if (x & 0x20000 > 0)... */\n      iszero\n      tag_853\n      jumpi\n        /* \"ABDKMath64x64.sol\":20574:20609  0x100000000000162E42FEFA39FE95583C2 */\n      0x0100000000000162e42fefa39fe95583c2\n        /* \"ABDKMath64x64.sol\":20565:20609  result * 0x100000000000162E42FEFA39FE95583C2 */\n      mul\n        /* \"ABDKMath64x64.sol\":20613:20616  128 */\n      0x80\n        /* \"ABDKMath64x64.sol\":20565:20616  result * 0x100000000000162E42FEFA39FE95583C2 >> 128 */\n      shr\n        /* \"ABDKMath64x64.sol\":20527:20616  if (x & 0x20000 > 0)... */\n    tag_853:\n        /* \"ABDKMath64x64.sol\":20642:20643  0 */\n      0x00\n        /* \"ABDKMath64x64.sol\":20628:20629  x */\n      dup4\n        /* \"ABDKMath64x64.sol\":20632:20639  0x10000 */\n      0x010000\n        /* \"ABDKMath64x64.sol\":20628:20639  x & 0x10000 */\n      and\n        /* \"ABDKMath64x64.sol\":20628:20643  x & 0x10000 > 0 */\n      0x0f\n      signextend\n      sgt\n        /* \"ABDKMath64x64.sol\":20624:20713  if (x & 0x10000 > 0)... */\n      iszero\n      tag_854\n      jumpi\n        /* \"ABDKMath64x64.sol\":20671:20706  0x1000000000000B17217F7D1CFB72B45E1 */\n      0x01000000000000b17217f7d1cfb72b45e1\n        /* \"ABDKMath64x64.sol\":20662:20706  result * 0x1000000000000B17217F7D1CFB72B45E1 */\n      mul\n        /* \"ABDKMath64x64.sol\":20710:20713  128 */\n      0x80\n        /* \"ABDKMath64x64.sol\":20662:20713  result * 0x1000000000000B17217F7D1CFB72B45E1 >> 128 */\n      shr\n        /* \"ABDKMath64x64.sol\":20624:20713  if (x & 0x10000 > 0)... */\n    tag_854:\n        /* \"ABDKMath64x64.sol\":20738:20739  0 */\n      0x00\n        /* \"ABDKMath64x64.sol\":20725:20726  x */\n      dup4\n        /* \"ABDKMath64x64.sol\":20729:20735  0x8000 */\n      0x8000\n        /* \"ABDKMath64x64.sol\":20725:20735  x & 0x8000 */\n      and\n        /* \"ABDKMath64x64.sol\":20725:20739  x & 0x8000 > 0 */\n      0x0f\n      signextend\n      sgt\n        /* \"ABDKMath64x64.sol\":20721:20809  if (x & 0x8000 > 0)... */\n      iszero\n      tag_855\n      jumpi\n        /* \"ABDKMath64x64.sol\":20767:20802  0x100000000000058B90BFBE8E7CC35C3F0 */\n      0x0100000000000058b90bfbe8e7cc35c3f0\n        /* \"ABDKMath64x64.sol\":20758:20802  result * 0x100000000000058B90BFBE8E7CC35C3F0 */\n      mul\n        /* \"ABDKMath64x64.sol\":20806:20809  128 */\n      0x80\n        /* \"ABDKMath64x64.sol\":20758:20809  result * 0x100000000000058B90BFBE8E7CC35C3F0 >> 128 */\n      shr\n        /* \"ABDKMath64x64.sol\":20721:20809  if (x & 0x8000 > 0)... */\n    tag_855:\n        /* \"ABDKMath64x64.sol\":20834:20835  0 */\n      0x00\n        /* \"ABDKMath64x64.sol\":20821:20822  x */\n      dup4\n        /* \"ABDKMath64x64.sol\":20825:20831  0x4000 */\n      0x4000\n        /* \"ABDKMath64x64.sol\":20821:20831  x & 0x4000 */\n      and\n        /* \"ABDKMath64x64.sol\":20821:20835  x & 0x4000 > 0 */\n      0x0f\n      signextend\n      sgt\n        /* \"ABDKMath64x64.sol\":20817:20905  if (x & 0x4000 > 0)... */\n      iszero\n      tag_856\n      jumpi\n        /* \"ABDKMath64x64.sol\":20863:20898  0x10000000000002C5C85FDF473E242EA38 */\n      0x010000000000002c5c85fdf473e242ea38\n        /* \"ABDKMath64x64.sol\":20854:20898  result * 0x10000000000002C5C85FDF473E242EA38 */\n      mul\n        /* \"ABDKMath64x64.sol\":20902:20905  128 */\n      0x80\n        /* \"ABDKMath64x64.sol\":20854:20905  result * 0x10000000000002C5C85FDF473E242EA38 >> 128 */\n      shr\n        /* \"ABDKMath64x64.sol\":20817:20905  if (x & 0x4000 > 0)... */\n    tag_856:\n        /* \"ABDKMath64x64.sol\":20930:20931  0 */\n      0x00\n        /* \"ABDKMath64x64.sol\":20917:20918  x */\n      dup4\n        /* \"ABDKMath64x64.sol\":20921:20927  0x2000 */\n      0x2000\n        /* \"ABDKMath64x64.sol\":20917:20927  x & 0x2000 */\n      and\n        /* \"ABDKMath64x64.sol\":20917:20931  x & 0x2000 > 0 */\n      0x0f\n      signextend\n      sgt\n        /* \"ABDKMath64x64.sol\":20913:21001  if (x & 0x2000 > 0)... */\n      iszero\n      tag_857\n      jumpi\n        /* \"ABDKMath64x64.sol\":20959:20994  0x1000000000000162E42FEFA39F02B772C */\n      0x01000000000000162e42fefa39f02b772c\n        /* \"ABDKMath64x64.sol\":20950:20994  result * 0x1000000000000162E42FEFA39F02B772C */\n      mul\n        /* \"ABDKMath64x64.sol\":20998:21001  128 */\n      0x80\n        /* \"ABDKMath64x64.sol\":20950:21001  result * 0x1000000000000162E42FEFA39F02B772C >> 128 */\n      shr\n        /* \"ABDKMath64x64.sol\":20913:21001  if (x & 0x2000 > 0)... */\n    tag_857:\n        /* \"ABDKMath64x64.sol\":21026:21027  0 */\n      0x00\n        /* \"ABDKMath64x64.sol\":21013:21014  x */\n      dup4\n        /* \"ABDKMath64x64.sol\":21017:21023  0x1000 */\n      0x1000\n        /* \"ABDKMath64x64.sol\":21013:21023  x & 0x1000 */\n      and\n        /* \"ABDKMath64x64.sol\":21013:21027  x & 0x1000 > 0 */\n      0x0f\n      signextend\n      sgt\n        /* \"ABDKMath64x64.sol\":21009:21097  if (x & 0x1000 > 0)... */\n      iszero\n      tag_858\n      jumpi\n        /* \"ABDKMath64x64.sol\":21055:21090  0x10000000000000B17217F7D1CF7D83C1A */\n      0x010000000000000b17217f7d1cf7d83c1a\n        /* \"ABDKMath64x64.sol\":21046:21090  result * 0x10000000000000B17217F7D1CF7D83C1A */\n      mul\n        /* \"ABDKMath64x64.sol\":21094:21097  128 */\n      0x80\n        /* \"ABDKMath64x64.sol\":21046:21097  result * 0x10000000000000B17217F7D1CF7D83C1A >> 128 */\n      shr\n        /* \"ABDKMath64x64.sol\":21009:21097  if (x & 0x1000 > 0)... */\n    tag_858:\n        /* \"ABDKMath64x64.sol\":21121:21122  0 */\n      0x00\n        /* \"ABDKMath64x64.sol\":21109:21110  x */\n      dup4\n        /* \"ABDKMath64x64.sol\":21113:21118  0x800 */\n      0x0800\n        /* \"ABDKMath64x64.sol\":21109:21118  x & 0x800 */\n      and\n        /* \"ABDKMath64x64.sol\":21109:21122  x & 0x800 > 0 */\n      0x0f\n      signextend\n      sgt\n        /* \"ABDKMath64x64.sol\":21105:21192  if (x & 0x800 > 0)... */\n      iszero\n      tag_859\n      jumpi\n        /* \"ABDKMath64x64.sol\":21150:21185  0x1000000000000058B90BFBE8E7BDCBE2E */\n      0x01000000000000058b90bfbe8e7bdcbe2e\n        /* \"ABDKMath64x64.sol\":21141:21185  result * 0x1000000000000058B90BFBE8E7BDCBE2E */\n      mul\n        /* \"ABDKMath64x64.sol\":21189:21192  128 */\n      0x80\n        /* \"ABDKMath64x64.sol\":21141:21192  result * 0x1000000000000058B90BFBE8E7BDCBE2E >> 128 */\n      shr\n        /* \"ABDKMath64x64.sol\":21105:21192  if (x & 0x800 > 0)... */\n    tag_859:\n        /* \"ABDKMath64x64.sol\":21216:21217  0 */\n      0x00\n        /* \"ABDKMath64x64.sol\":21204:21205  x */\n      dup4\n        /* \"ABDKMath64x64.sol\":21208:21213  0x400 */\n      0x0400\n        /* \"ABDKMath64x64.sol\":21204:21213  x & 0x400 */\n      and\n        /* \"ABDKMath64x64.sol\":21204:21217  x & 0x400 > 0 */\n      0x0f\n      signextend\n      sgt\n        /* \"ABDKMath64x64.sol\":21200:21287  if (x & 0x400 > 0)... */\n      iszero\n      tag_860\n      jumpi\n        /* \"ABDKMath64x64.sol\":21245:21280  0x100000000000002C5C85FDF473DEA871F */\n      0x0100000000000002c5c85fdf473dea871f\n        /* \"ABDKMath64x64.sol\":21236:21280  result * 0x100000000000002C5C85FDF473DEA871F */\n      mul\n        /* \"ABDKMath64x64.sol\":21284:21287  128 */\n      0x80\n        /* \"ABDKMath64x64.sol\":21236:21287  result * 0x100000000000002C5C85FDF473DEA871F >> 128 */\n      shr\n        /* \"ABDKMath64x64.sol\":21200:21287  if (x & 0x400 > 0)... */\n    tag_860:\n        /* \"ABDKMath64x64.sol\":21311:21312  0 */\n      0x00\n        /* \"ABDKMath64x64.sol\":21299:21300  x */\n      dup4\n        /* \"ABDKMath64x64.sol\":21303:21308  0x200 */\n      0x0200\n        /* \"ABDKMath64x64.sol\":21299:21308  x & 0x200 */\n      and\n        /* \"ABDKMath64x64.sol\":21299:21312  x & 0x200 > 0 */\n      0x0f\n      signextend\n      sgt\n        /* \"ABDKMath64x64.sol\":21295:21382  if (x & 0x200 > 0)... */\n      iszero\n      tag_861\n      jumpi\n        /* \"ABDKMath64x64.sol\":21340:21375  0x10000000000000162E42FEFA39EF44D91 */\n      0x010000000000000162e42fefa39ef44d91\n        /* \"ABDKMath64x64.sol\":21331:21375  result * 0x10000000000000162E42FEFA39EF44D91 */\n      mul\n        /* \"ABDKMath64x64.sol\":21379:21382  128 */\n      0x80\n        /* \"ABDKMath64x64.sol\":21331:21382  result * 0x10000000000000162E42FEFA39EF44D91 >> 128 */\n      shr\n        /* \"ABDKMath64x64.sol\":21295:21382  if (x & 0x200 > 0)... */\n    tag_861:\n        /* \"ABDKMath64x64.sol\":21406:21407  0 */\n      0x00\n        /* \"ABDKMath64x64.sol\":21394:21395  x */\n      dup4\n        /* \"ABDKMath64x64.sol\":21398:21403  0x100 */\n      0x0100\n        /* \"ABDKMath64x64.sol\":21394:21403  x & 0x100 */\n      and\n        /* \"ABDKMath64x64.sol\":21394:21407  x & 0x100 > 0 */\n      0x0f\n      signextend\n      sgt\n        /* \"ABDKMath64x64.sol\":21390:21477  if (x & 0x100 > 0)... */\n      iszero\n      tag_862\n      jumpi\n        /* \"ABDKMath64x64.sol\":21435:21470  0x100000000000000B17217F7D1CF79E949 */\n      0x0100000000000000b17217f7d1cf79e949\n        /* \"ABDKMath64x64.sol\":21426:21470  result * 0x100000000000000B17217F7D1CF79E949 */\n      mul\n        /* \"ABDKMath64x64.sol\":21474:21477  128 */\n      0x80\n        /* \"ABDKMath64x64.sol\":21426:21477  result * 0x100000000000000B17217F7D1CF79E949 >> 128 */\n      shr\n        /* \"ABDKMath64x64.sol\":21390:21477  if (x & 0x100 > 0)... */\n    tag_862:\n        /* \"ABDKMath64x64.sol\":21500:21501  0 */\n      0x00\n        /* \"ABDKMath64x64.sol\":21489:21490  x */\n      dup4\n        /* \"ABDKMath64x64.sol\":21493:21497  0x80 */\n      0x80\n        /* \"ABDKMath64x64.sol\":21489:21497  x & 0x80 */\n      and\n        /* \"ABDKMath64x64.sol\":21489:21501  x & 0x80 > 0 */\n      0x0f\n      signextend\n      sgt\n        /* \"ABDKMath64x64.sol\":21485:21571  if (x & 0x80 > 0)... */\n      iszero\n      tag_863\n      jumpi\n        /* \"ABDKMath64x64.sol\":21529:21564  0x10000000000000058B90BFBE8E7BCE544 */\n      0x010000000000000058b90bfbe8e7bce544\n        /* \"ABDKMath64x64.sol\":21520:21564  result * 0x10000000000000058B90BFBE8E7BCE544 */\n      mul\n        /* \"ABDKMath64x64.sol\":21568:21571  128 */\n      0x80\n        /* \"ABDKMath64x64.sol\":21520:21571  result * 0x10000000000000058B90BFBE8E7BCE544 >> 128 */\n      shr\n        /* \"ABDKMath64x64.sol\":21485:21571  if (x & 0x80 > 0)... */\n    tag_863:\n        /* \"ABDKMath64x64.sol\":21594:21595  0 */\n      0x00\n        /* \"ABDKMath64x64.sol\":21583:21584  x */\n      dup4\n        /* \"ABDKMath64x64.sol\":21587:21591  0x40 */\n      0x40\n        /* \"ABDKMath64x64.sol\":21583:21591  x & 0x40 */\n      and\n        /* \"ABDKMath64x64.sol\":21583:21595  x & 0x40 > 0 */\n      0x0f\n      signextend\n      sgt\n        /* \"ABDKMath64x64.sol\":21579:21665  if (x & 0x40 > 0)... */\n      iszero\n      tag_864\n      jumpi\n        /* \"ABDKMath64x64.sol\":21623:21658  0x1000000000000002C5C85FDF473DE6ECA */\n      0x01000000000000002c5c85fdf473de6eca\n        /* \"ABDKMath64x64.sol\":21614:21658  result * 0x1000000000000002C5C85FDF473DE6ECA */\n      mul\n        /* \"ABDKMath64x64.sol\":21662:21665  128 */\n      0x80\n        /* \"ABDKMath64x64.sol\":21614:21665  result * 0x1000000000000002C5C85FDF473DE6ECA >> 128 */\n      shr\n        /* \"ABDKMath64x64.sol\":21579:21665  if (x & 0x40 > 0)... */\n    tag_864:\n        /* \"ABDKMath64x64.sol\":21688:21689  0 */\n      0x00\n        /* \"ABDKMath64x64.sol\":21677:21678  x */\n      dup4\n        /* \"ABDKMath64x64.sol\":21681:21685  0x20 */\n      0x20\n        /* \"ABDKMath64x64.sol\":21677:21685  x & 0x20 */\n      and\n        /* \"ABDKMath64x64.sol\":21677:21689  x & 0x20 > 0 */\n      0x0f\n      signextend\n      sgt\n        /* \"ABDKMath64x64.sol\":21673:21759  if (x & 0x20 > 0)... */\n      iszero\n      tag_865\n      jumpi\n        /* \"ABDKMath64x64.sol\":21717:21752  0x100000000000000162E42FEFA39EF366F */\n      0x0100000000000000162e42fefa39ef366f\n        /* \"ABDKMath64x64.sol\":21708:21752  result * 0x100000000000000162E42FEFA39EF366F */\n      mul\n        /* \"ABDKMath64x64.sol\":21756:21759  128 */\n      0x80\n        /* \"ABDKMath64x64.sol\":21708:21759  result * 0x100000000000000162E42FEFA39EF366F >> 128 */\n      shr\n        /* \"ABDKMath64x64.sol\":21673:21759  if (x & 0x20 > 0)... */\n    tag_865:\n        /* \"ABDKMath64x64.sol\":21782:21783  0 */\n      0x00\n        /* \"ABDKMath64x64.sol\":21771:21772  x */\n      dup4\n        /* \"ABDKMath64x64.sol\":21775:21779  0x10 */\n      0x10\n        /* \"ABDKMath64x64.sol\":21771:21779  x & 0x10 */\n      and\n        /* \"ABDKMath64x64.sol\":21771:21783  x & 0x10 > 0 */\n      0x0f\n      signextend\n      sgt\n        /* \"ABDKMath64x64.sol\":21767:21853  if (x & 0x10 > 0)... */\n      iszero\n      tag_866\n      jumpi\n        /* \"ABDKMath64x64.sol\":21811:21846  0x1000000000000000B17217F7D1CF79AFA */\n      0x01000000000000000b17217f7d1cf79afa\n        /* \"ABDKMath64x64.sol\":21802:21846  result * 0x1000000000000000B17217F7D1CF79AFA */\n      mul\n        /* \"ABDKMath64x64.sol\":21850:21853  128 */\n      0x80\n        /* \"ABDKMath64x64.sol\":21802:21853  result * 0x1000000000000000B17217F7D1CF79AFA >> 128 */\n      shr\n        /* \"ABDKMath64x64.sol\":21767:21853  if (x & 0x10 > 0)... */\n    tag_866:\n        /* \"ABDKMath64x64.sol\":21875:21876  0 */\n      0x00\n        /* \"ABDKMath64x64.sol\":21865:21866  x */\n      dup4\n        /* \"ABDKMath64x64.sol\":21869:21872  0x8 */\n      0x08\n        /* \"ABDKMath64x64.sol\":21865:21872  x & 0x8 */\n      and\n        /* \"ABDKMath64x64.sol\":21865:21876  x & 0x8 > 0 */\n      0x0f\n      signextend\n      sgt\n        /* \"ABDKMath64x64.sol\":21861:21946  if (x & 0x8 > 0)... */\n      iszero\n      tag_867\n      jumpi\n        /* \"ABDKMath64x64.sol\":21904:21939  0x100000000000000058B90BFBE8E7BCD6D */\n      0x0100000000000000058b90bfbe8e7bcd6d\n        /* \"ABDKMath64x64.sol\":21895:21939  result * 0x100000000000000058B90BFBE8E7BCD6D */\n      mul\n        /* \"ABDKMath64x64.sol\":21943:21946  128 */\n      0x80\n        /* \"ABDKMath64x64.sol\":21895:21946  result * 0x100000000000000058B90BFBE8E7BCD6D >> 128 */\n      shr\n        /* \"ABDKMath64x64.sol\":21861:21946  if (x & 0x8 > 0)... */\n    tag_867:\n        /* \"ABDKMath64x64.sol\":21968:21969  0 */\n      0x00\n        /* \"ABDKMath64x64.sol\":21958:21959  x */\n      dup4\n        /* \"ABDKMath64x64.sol\":21962:21965  0x4 */\n      0x04\n        /* \"ABDKMath64x64.sol\":21958:21965  x & 0x4 */\n      and\n        /* \"ABDKMath64x64.sol\":21958:21969  x & 0x4 > 0 */\n      0x0f\n      signextend\n      sgt\n        /* \"ABDKMath64x64.sol\":21954:22039  if (x & 0x4 > 0)... */\n      iszero\n      tag_868\n      jumpi\n        /* \"ABDKMath64x64.sol\":21997:22032  0x10000000000000002C5C85FDF473DE6B2 */\n      0x010000000000000002c5c85fdf473de6b2\n        /* \"ABDKMath64x64.sol\":21988:22032  result * 0x10000000000000002C5C85FDF473DE6B2 */\n      mul\n        /* \"ABDKMath64x64.sol\":22036:22039  128 */\n      0x80\n        /* \"ABDKMath64x64.sol\":21988:22039  result * 0x10000000000000002C5C85FDF473DE6B2 >> 128 */\n      shr\n        /* \"ABDKMath64x64.sol\":21954:22039  if (x & 0x4 > 0)... */\n    tag_868:\n        /* \"ABDKMath64x64.sol\":22061:22062  0 */\n      0x00\n        /* \"ABDKMath64x64.sol\":22051:22052  x */\n      dup4\n        /* \"ABDKMath64x64.sol\":22055:22058  0x2 */\n      0x02\n        /* \"ABDKMath64x64.sol\":22051:22058  x & 0x2 */\n      and\n        /* \"ABDKMath64x64.sol\":22051:22062  x & 0x2 > 0 */\n      0x0f\n      signextend\n      sgt\n        /* \"ABDKMath64x64.sol\":22047:22132  if (x & 0x2 > 0)... */\n      iszero\n      tag_869\n      jumpi\n        /* \"ABDKMath64x64.sol\":22090:22125  0x1000000000000000162E42FEFA39EF358 */\n      0x01000000000000000162e42fefa39ef358\n        /* \"ABDKMath64x64.sol\":22081:22125  result * 0x1000000000000000162E42FEFA39EF358 */\n      mul\n        /* \"ABDKMath64x64.sol\":22129:22132  128 */\n      0x80\n        /* \"ABDKMath64x64.sol\":22081:22132  result * 0x1000000000000000162E42FEFA39EF358 >> 128 */\n      shr\n        /* \"ABDKMath64x64.sol\":22047:22132  if (x & 0x2 > 0)... */\n    tag_869:\n        /* \"ABDKMath64x64.sol\":22154:22155  0 */\n      0x00\n        /* \"ABDKMath64x64.sol\":22144:22145  x */\n      dup4\n        /* \"ABDKMath64x64.sol\":22148:22151  0x1 */\n      0x01\n        /* \"ABDKMath64x64.sol\":22144:22151  x & 0x1 */\n      and\n        /* \"ABDKMath64x64.sol\":22144:22155  x & 0x1 > 0 */\n      0x0f\n      signextend\n      sgt\n        /* \"ABDKMath64x64.sol\":22140:22225  if (x & 0x1 > 0)... */\n      iszero\n      tag_870\n      jumpi\n        /* \"ABDKMath64x64.sol\":22183:22218  0x10000000000000000B17217F7D1CF79AB */\n      0x010000000000000000b17217f7d1cf79ab\n        /* \"ABDKMath64x64.sol\":22174:22218  result * 0x10000000000000000B17217F7D1CF79AB */\n      mul\n        /* \"ABDKMath64x64.sol\":22222:22225  128 */\n      0x80\n        /* \"ABDKMath64x64.sol\":22174:22225  result * 0x10000000000000000B17217F7D1CF79AB >> 128 */\n      shr\n        /* \"ABDKMath64x64.sol\":22140:22225  if (x & 0x1 > 0)... */\n    tag_870:\n        /* \"ABDKMath64x64.sol\":22268:22275  x >> 64 */\n      0x0f\n      dup4\n      dup2\n      signextend\n        /* \"ABDKMath64x64.sol\":22273:22275  64 */\n      0x40\n        /* \"ABDKMath64x64.sol\":22268:22275  x >> 64 */\n      sar\n        /* \"ABDKMath64x64.sol\":22262:22264  63 */\n      0x3f\n        /* \"ABDKMath64x64.sol\":22262:22276  63 - (x >> 64) */\n      sub\n        /* \"ABDKMath64x64.sol\":22254:22277  int256 (63 - (x >> 64)) */\n      swap1\n      signextend\n        /* \"ABDKMath64x64.sol\":22234:22278  result >>= uint256 (int256 (63 - (x >> 64))) */\n      shr\n      sub(shl(0x7f, 0x01), 0x01)\n        /* \"ABDKMath64x64.sol\":22295:22333  result <= uint256 (int256 (MAX_64x64)) */\n      dup2\n      gt\n      iszero\n        /* \"ABDKMath64x64.sol\":22286:22334  require (result <= uint256 (int256 (MAX_64x64))) */\n      tag_181\n      jumpi\n      0x00\n      dup1\n      revert\n        /* \"ABDKMath64x64.sol\":14129:14967  function log_2 (int128 x) internal pure returns (int128) {... */\n    tag_669:\n        /* \"ABDKMath64x64.sol\":14178:14184  int128 */\n      0x00\n        /* \"ABDKMath64x64.sol\":14223:14224  0 */\n      dup1\n        /* \"ABDKMath64x64.sol\":14219:14220  x */\n      dup3\n        /* \"ABDKMath64x64.sol\":14219:14224  x > 0 */\n      0x0f\n      signextend\n      sgt\n        /* \"ABDKMath64x64.sol\":14210:14225  require (x > 0) */\n      tag_873\n      jumpi\n      0x00\n      dup1\n      revert\n    tag_873:\n        /* \"ABDKMath64x64.sol\":14234:14244  int256 msb */\n      0x00\n        /* \"ABDKMath64x64.sol\":14256:14269  int256 xc = x */\n      0x0f\n      dup4\n      swap1\n      signextend\n        /* \"ABDKMath64x64.sol\":14287:14306  0x10000000000000000 */\n      0x010000000000000000\n        /* \"ABDKMath64x64.sol\":14281:14306  xc >= 0x10000000000000000 */\n      dup2\n      slt\n        /* \"ABDKMath64x64.sol\":14277:14333  if (xc >= 0x10000000000000000) { xc >>= 64; msb += 64; } */\n      tag_874\n      jumpi\n        /* \"ABDKMath64x64.sol\":14317:14319  64 */\n      0x40\n        /* \"ABDKMath64x64.sol\":14321:14330  msb += 64 */\n      swap2\n      dup3\n      add\n      swap2\n        /* \"ABDKMath64x64.sol\":14310:14319  xc >>= 64 */\n      sar\n        /* \"ABDKMath64x64.sol\":14277:14333  if (xc >= 0x10000000000000000) { xc >>= 64; msb += 64; } */\n    tag_874:\n        /* \"ABDKMath64x64.sol\":14350:14361  0x100000000 */\n      0x0100000000\n        /* \"ABDKMath64x64.sol\":14344:14346  xc */\n      dup2\n        /* \"ABDKMath64x64.sol\":14344:14361  xc >= 0x100000000 */\n      slt\n        /* \"ABDKMath64x64.sol\":14340:14388  if (xc >= 0x100000000) { xc >>= 32; msb += 32; } */\n      tag_875\n      jumpi\n        /* \"ABDKMath64x64.sol\":14372:14374  32 */\n      0x20\n        /* \"ABDKMath64x64.sol\":14376:14385  msb += 32 */\n      swap2\n      dup3\n      add\n      swap2\n        /* \"ABDKMath64x64.sol\":14365:14374  xc >>= 32 */\n      sar\n        /* \"ABDKMath64x64.sol\":14340:14388  if (xc >= 0x100000000) { xc >>= 32; msb += 32; } */\n    tag_875:\n        /* \"ABDKMath64x64.sol\":14405:14412  0x10000 */\n      0x010000\n        /* \"ABDKMath64x64.sol\":14399:14401  xc */\n      dup2\n        /* \"ABDKMath64x64.sol\":14399:14412  xc >= 0x10000 */\n      slt\n        /* \"ABDKMath64x64.sol\":14395:14439  if (xc >= 0x10000) { xc >>= 16; msb += 16; } */\n      tag_876\n      jumpi\n        /* \"ABDKMath64x64.sol\":14423:14425  16 */\n      0x10\n        /* \"ABDKMath64x64.sol\":14427:14436  msb += 16 */\n      swap2\n      dup3\n      add\n      swap2\n        /* \"ABDKMath64x64.sol\":14416:14425  xc >>= 16 */\n      sar\n        /* \"ABDKMath64x64.sol\":14395:14439  if (xc >= 0x10000) { xc >>= 16; msb += 16; } */\n    tag_876:\n        /* \"ABDKMath64x64.sol\":14456:14461  0x100 */\n      0x0100\n        /* \"ABDKMath64x64.sol\":14450:14452  xc */\n      dup2\n        /* \"ABDKMath64x64.sol\":14450:14461  xc >= 0x100 */\n      slt\n        /* \"ABDKMath64x64.sol\":14446:14486  if (xc >= 0x100) { xc >>= 8; msb += 8; } */\n      tag_877\n      jumpi\n        /* \"ABDKMath64x64.sol\":14472:14473  8 */\n      0x08\n        /* \"ABDKMath64x64.sol\":14475:14483  msb += 8 */\n      swap2\n      dup3\n      add\n      swap2\n        /* \"ABDKMath64x64.sol\":14465:14473  xc >>= 8 */\n      sar\n        /* \"ABDKMath64x64.sol\":14446:14486  if (xc >= 0x100) { xc >>= 8; msb += 8; } */\n    tag_877:\n        /* \"ABDKMath64x64.sol\":14503:14507  0x10 */\n      0x10\n        /* \"ABDKMath64x64.sol\":14497:14499  xc */\n      dup2\n        /* \"ABDKMath64x64.sol\":14497:14507  xc >= 0x10 */\n      slt\n        /* \"ABDKMath64x64.sol\":14493:14532  if (xc >= 0x10) { xc >>= 4; msb += 4; } */\n      tag_878\n      jumpi\n        /* \"ABDKMath64x64.sol\":14518:14519  4 */\n      0x04\n        /* \"ABDKMath64x64.sol\":14521:14529  msb += 4 */\n      swap2\n      dup3\n      add\n      swap2\n        /* \"ABDKMath64x64.sol\":14511:14519  xc >>= 4 */\n      sar\n        /* \"ABDKMath64x64.sol\":14493:14532  if (xc >= 0x10) { xc >>= 4; msb += 4; } */\n    tag_878:\n        /* \"ABDKMath64x64.sol\":14549:14552  0x4 */\n      0x04\n        /* \"ABDKMath64x64.sol\":14543:14545  xc */\n      dup2\n        /* \"ABDKMath64x64.sol\":14543:14552  xc >= 0x4 */\n      slt\n        /* \"ABDKMath64x64.sol\":14539:14577  if (xc >= 0x4) { xc >>= 2; msb += 2; } */\n      tag_879\n      jumpi\n        /* \"ABDKMath64x64.sol\":14563:14564  2 */\n      0x02\n        /* \"ABDKMath64x64.sol\":14566:14574  msb += 2 */\n      swap2\n      dup3\n      add\n      swap2\n        /* \"ABDKMath64x64.sol\":14556:14564  xc >>= 2 */\n      sar\n        /* \"ABDKMath64x64.sol\":14539:14577  if (xc >= 0x4) { xc >>= 2; msb += 2; } */\n    tag_879:\n        /* \"ABDKMath64x64.sol\":14594:14597  0x2 */\n      0x02\n        /* \"ABDKMath64x64.sol\":14588:14590  xc */\n      dup2\n        /* \"ABDKMath64x64.sol\":14588:14597  xc >= 0x2 */\n      slt\n        /* \"ABDKMath64x64.sol\":14584:14607  if (xc >= 0x2) msb += 1 */\n      tag_880\n      jumpi\n        /* \"ABDKMath64x64.sol\":14606:14607  1 */\n      0x01\n        /* \"ABDKMath64x64.sol\":14599:14607  msb += 1 */\n      dup3\n      add\n      swap2\n      pop\n        /* \"ABDKMath64x64.sol\":14584:14607  if (xc >= 0x2) msb += 1 */\n    tag_880:\n      not(0x3f)\n        /* \"ABDKMath64x64.sol\":14664:14672  msb - 64 */\n      dup3\n      add\n        /* \"ABDKMath64x64.sol\":14676:14678  64 */\n      0x40\n        /* \"ABDKMath64x64.sol\":14664:14678  msb - 64 << 64 */\n      shl\n        /* \"ABDKMath64x64.sol\":14708:14718  int256 (x) */\n      0x0f\n      dup6\n      swap1\n      signextend\n        /* \"ABDKMath64x64.sol\":14732:14735  127 */\n      0x7f\n        /* \"ABDKMath64x64.sol\":14732:14741  127 - msb */\n      dup5\n      swap1\n      sub\n        /* \"ABDKMath64x64.sol\":14699:14742  uint256 (int256 (x)) << uint256 (127 - msb) */\n      shl\n        /* \"ABDKMath64x64.sol\":14768:14786  0x8000000000000000 */\n      0x8000000000000000\n        /* \"ABDKMath64x64.sol\":14750:14926  for (int256 bit = 0x8000000000000000; bit > 0; bit >>= 1) {... */\n    tag_881:\n        /* \"ABDKMath64x64.sol\":14794:14795  0 */\n      0x00\n        /* \"ABDKMath64x64.sol\":14788:14791  bit */\n      dup2\n        /* \"ABDKMath64x64.sol\":14788:14795  bit > 0 */\n      sgt\n        /* \"ABDKMath64x64.sol\":14750:14926  for (int256 bit = 0x8000000000000000; bit > 0; bit >>= 1) {... */\n      iszero\n      tag_436\n      jumpi\n        /* \"ABDKMath64x64.sol\":14818:14826  ux *= ux */\n      swap1\n      dup1\n      mul\n        /* \"ABDKMath64x64.sol\":14854:14857  255 */\n      0xff\n        /* \"ABDKMath64x64.sol\":14848:14857  ux >> 255 */\n      dup2\n      swap1\n      shr\n        /* \"ABDKMath64x64.sol\":14901:14917  bit * int256 (b) */\n      dup3\n      dup2\n      mul\n        /* \"ABDKMath64x64.sol\":14891:14917  result += bit * int256 (b) */\n      swap4\n      swap1\n      swap4\n      add\n      swap3\n        /* \"ABDKMath64x64.sol\":14874:14877  127 */\n      0x7f\n        /* \"ABDKMath64x64.sol\":14874:14881  127 + b */\n      add\n        /* \"ABDKMath64x64.sol\":14867:14881  ux >>= 127 + b */\n      shr\n      swap1\n        /* \"ABDKMath64x64.sol\":14805:14806  1 */\n      0x01\n        /* \"ABDKMath64x64.sol\":14797:14806  bit >>= 1 */\n      sar\n        /* \"ABDKMath64x64.sol\":14750:14926  for (int256 bit = 0x8000000000000000; bit > 0; bit >>= 1) {... */\n      jump(tag_881)\n        /* \"@openzeppelin/contracts/token/ERC20/utils/SafeERC20.sol\":8370:9090   */\n    tag_680:\n        /* \"@openzeppelin/contracts/token/ERC20/utils/SafeERC20.sol\":8450:8468   */\n      0x00\n        /* \"@openzeppelin/contracts/token/ERC20/utils/SafeERC20.sol\":8478:8497   */\n      dup1\n        /* \"@openzeppelin/contracts/token/ERC20/utils/SafeERC20.sol\":8616:8620   */\n      0x20\n        /* \"@openzeppelin/contracts/token/ERC20/utils/SafeERC20.sol\":8613:8614   */\n      0x00\n        /* \"@openzeppelin/contracts/token/ERC20/utils/SafeERC20.sol\":8606:8610   */\n      dup5\n        /* \"@openzeppelin/contracts/token/ERC20/utils/SafeERC20.sol\":8600:8611   */\n      mload\n        /* \"@openzeppelin/contracts/token/ERC20/utils/SafeERC20.sol\":8593:8597   */\n      0x20\n        /* \"@openzeppelin/contracts/token/ERC20/utils/SafeERC20.sol\":8587:8591   */\n      dup7\n        /* \"@openzeppelin/contracts/token/ERC20/utils/SafeERC20.sol\":8583:8598   */\n      add\n        /* \"@openzeppelin/contracts/token/ERC20/utils/SafeERC20.sol\":8580:8581   */\n      0x00\n        /* \"@openzeppelin/contracts/token/ERC20/utils/SafeERC20.sol\":8573:8578   */\n      dup9\n        /* \"@openzeppelin/contracts/token/ERC20/utils/SafeERC20.sol\":8566:8571   */\n      gas\n        /* \"@openzeppelin/contracts/token/ERC20/utils/SafeERC20.sol\":8561:8621   */\n      call\n        /* \"@openzeppelin/contracts/token/ERC20/utils/SafeERC20.sol\":8673:8680   */\n      dup1\n        /* \"@openzeppelin/contracts/token/ERC20/utils/SafeERC20.sol\":8663:8839   */\n      tag_886\n      jumpi\n        /* \"@openzeppelin/contracts/token/ERC20/utils/SafeERC20.sol\":8717:8721   */\n      0x40\n        /* \"@openzeppelin/contracts/token/ERC20/utils/SafeERC20.sol\":8711:8722   */\n      mload\n        /* \"@openzeppelin/contracts/token/ERC20/utils/SafeERC20.sol\":8762:8778   */\n      returndatasize\n        /* \"@openzeppelin/contracts/token/ERC20/utils/SafeERC20.sol\":8759:8760   */\n      0x00\n        /* \"@openzeppelin/contracts/token/ERC20/utils/SafeERC20.sol\":8754:8757   */\n      dup3\n        /* \"@openzeppelin/contracts/token/ERC20/utils/SafeERC20.sol\":8739:8779   */\n      returndatacopy\n        /* \"@openzeppelin/contracts/token/ERC20/utils/SafeERC20.sol\":8808:8824   */\n      returndatasize\n        /* \"@openzeppelin/contracts/token/ERC20/utils/SafeERC20.sol\":8803:8806   */\n      dup2\n        /* \"@openzeppelin/contracts/token/ERC20/utils/SafeERC20.sol\":8796:8825   */\n      revert\n        /* \"@openzeppelin/contracts/token/ERC20/utils/SafeERC20.sol\":8663:8839   */\n    tag_886:\n      pop\n      pop\n        /* \"@openzeppelin/contracts/token/ERC20/utils/SafeERC20.sol\":8916:8917   */\n      0x00\n        /* \"@openzeppelin/contracts/token/ERC20/utils/SafeERC20.sol\":8910:8918   */\n      mload\n        /* \"@openzeppelin/contracts/token/ERC20/utils/SafeERC20.sol\":8866:8882   */\n      returndatasize\n      swap2\n      pop\n        /* \"@openzeppelin/contracts/token/ERC20/utils/SafeERC20.sol\":8942:8957   */\n      dup2\n      iszero\n        /* \"@openzeppelin/contracts/token/ERC20/utils/SafeERC20.sol\":8942:9010   */\n      tag_887\n      jumpi\n        /* \"@openzeppelin/contracts/token/ERC20/utils/SafeERC20.sol\":8994:9005   */\n      dup1\n        /* \"@openzeppelin/contracts/token/ERC20/utils/SafeERC20.sol\":9009:9010   */\n      0x01\n        /* \"@openzeppelin/contracts/token/ERC20/utils/SafeERC20.sol\":8994:9010   */\n      eq\n      iszero\n        /* \"@openzeppelin/contracts/token/ERC20/utils/SafeERC20.sol\":8942:9010   */\n      jump(tag_888)\n    tag_887:\n      sub(shl(0xa0, 0x01), 0x01)\n        /* \"@openzeppelin/contracts/token/ERC20/utils/SafeERC20.sol\":8960:8986   */\n      dup5\n      and\n      extcodesize\n        /* \"@openzeppelin/contracts/token/ERC20/utils/SafeERC20.sol\":8960:8991   */\n      iszero\n        /* \"@openzeppelin/contracts/token/ERC20/utils/SafeERC20.sol\":8942:9010   */\n    tag_888:\n        /* \"@openzeppelin/contracts/token/ERC20/utils/SafeERC20.sol\":8938:9084   */\n      iszero\n      tag_684\n      jumpi\n        /* \"@openzeppelin/contracts/token/ERC20/utils/SafeERC20.sol\":9033:9073   */\n      mload(0x40)\n      shl(0xe0, 0x5274afe7)\n      dup2\n      mstore\n      sub(shl(0xa0, 0x01), 0x01)\n        /* \"#utility.yul\":5240:5295   */\n      dup6\n      and\n        /* \"@openzeppelin/contracts/token/ERC20/utils/SafeERC20.sol\":9033:9073   */\n      0x04\n      dup3\n      add\n        /* \"#utility.yul\":5222:5296   */\n      mstore\n        /* \"#utility.yul\":5195:5213   */\n      0x24\n      add\n        /* \"@openzeppelin/contracts/token/ERC20/utils/SafeERC20.sol\":9033:9073   */\n      tag_189\n        /* \"#utility.yul\":5076:5302   */\n      jump\n        /* \"#utility.yul\":14:300   */\n    tag_48:\n        /* \"#utility.yul\":72:78   */\n      0x00\n        /* \"#utility.yul\":125:127   */\n      0x20\n        /* \"#utility.yul\":113:122   */\n      dup3\n        /* \"#utility.yul\":104:111   */\n      dup5\n        /* \"#utility.yul\":100:123   */\n      sub\n        /* \"#utility.yul\":96:128   */\n      slt\n        /* \"#utility.yul\":93:145   */\n      iszero\n      tag_904\n      jumpi\n        /* \"#utility.yul\":141:142   */\n      0x00\n        /* \"#utility.yul\":138:139   */\n      dup1\n        /* \"#utility.yul\":131:143   */\n      revert\n        /* \"#utility.yul\":93:145   */\n    tag_904:\n        /* \"#utility.yul\":167:190   */\n      dup2\n      calldataload\n      not(sub(shl(0xe0, 0x01), 0x01))\n        /* \"#utility.yul\":219:251   */\n      dup2\n      and\n        /* \"#utility.yul\":209:252   */\n      dup2\n      eq\n        /* \"#utility.yul\":199:270   */\n      tag_378\n      jumpi\n        /* \"#utility.yul\":266:267   */\n      0x00\n        /* \"#utility.yul\":263:264   */\n      dup1\n        /* \"#utility.yul\":256:268   */\n      revert\n        /* \"#utility.yul\":497:693   */\n    tag_891:\n        /* \"#utility.yul\":565:585   */\n      dup1\n      calldataload\n      sub(shl(0xa0, 0x01), 0x01)\n        /* \"#utility.yul\":614:668   */\n      dup2\n      and\n        /* \"#utility.yul\":604:669   */\n      dup2\n      eq\n        /* \"#utility.yul\":594:687   */\n      tag_689\n      jumpi\n        /* \"#utility.yul\":683:684   */\n      0x00\n        /* \"#utility.yul\":680:681   */\n      dup1\n        /* \"#utility.yul\":673:685   */\n      revert\n        /* \"#utility.yul\":698:860   */\n    tag_892:\n        /* \"#utility.yul\":765:785   */\n      dup1\n      calldataload\n        /* \"#utility.yul\":825:827   */\n      0x0f\n        /* \"#utility.yul\":814:835   */\n      dup2\n      swap1\n      signextend\n        /* \"#utility.yul\":804:836   */\n      dup2\n      eq\n        /* \"#utility.yul\":794:854   */\n      tag_689\n      jumpi\n        /* \"#utility.yul\":850:851   */\n      0x00\n        /* \"#utility.yul\":847:848   */\n      dup1\n        /* \"#utility.yul\":840:852   */\n      revert\n        /* \"#utility.yul\":865:1123   */\n    tag_54:\n        /* \"#utility.yul\":932:938   */\n      0x00\n        /* \"#utility.yul\":940:946   */\n      dup1\n        /* \"#utility.yul\":993:995   */\n      0x40\n        /* \"#utility.yul\":981:990   */\n      dup4\n        /* \"#utility.yul\":972:979   */\n      dup6\n        /* \"#utility.yul\":968:991   */\n      sub\n        /* \"#utility.yul\":964:996   */\n      slt\n        /* \"#utility.yul\":961:1013   */\n      iszero\n      tag_912\n      jumpi\n        /* \"#utility.yul\":1009:1010   */\n      0x00\n        /* \"#utility.yul\":1006:1007   */\n      dup1\n        /* \"#utility.yul\":999:1011   */\n      revert\n        /* \"#utility.yul\":961:1013   */\n    tag_912:\n        /* \"#utility.yul\":1032:1061   */\n      tag_913\n        /* \"#utility.yul\":1051:1060   */\n      dup4\n        /* \"#utility.yul\":1032:1061   */\n      tag_891\n      jump\t// in\n    tag_913:\n        /* \"#utility.yul\":1022:1061   */\n      swap2\n      pop\n        /* \"#utility.yul\":1080:1117   */\n      tag_914\n        /* \"#utility.yul\":1113:1115   */\n      0x20\n        /* \"#utility.yul\":1102:1111   */\n      dup5\n        /* \"#utility.yul\":1098:1116   */\n      add\n        /* \"#utility.yul\":1080:1117   */\n      tag_892\n      jump\t// in\n    tag_914:\n        /* \"#utility.yul\":1070:1117   */\n      swap1\n      pop\n        /* \"#utility.yul\":865:1123   */\n      swap3\n      pop\n      swap3\n      swap1\n      pop\n      jump\t// out\n        /* \"#utility.yul\":1310:1564   */\n    tag_60:\n        /* \"#utility.yul\":1378:1384   */\n      0x00\n        /* \"#utility.yul\":1386:1392   */\n      dup1\n        /* \"#utility.yul\":1439:1441   */\n      0x40\n        /* \"#utility.yul\":1427:1436   */\n      dup4\n        /* \"#utility.yul\":1418:1425   */\n      dup6\n        /* \"#utility.yul\":1414:1437   */\n      sub\n        /* \"#utility.yul\":1410:1442   */\n      slt\n        /* \"#utility.yul\":1407:1459   */\n      iszero\n      tag_917\n      jumpi\n        /* \"#utility.yul\":1455:1456   */\n      0x00\n        /* \"#utility.yul\":1452:1453   */\n      dup1\n        /* \"#utility.yul\":1445:1457   */\n      revert\n        /* \"#utility.yul\":1407:1459   */\n    tag_917:\n        /* \"#utility.yul\":1478:1507   */\n      tag_918\n        /* \"#utility.yul\":1497:1506   */\n      dup4\n        /* \"#utility.yul\":1478:1507   */\n      tag_891\n      jump\t// in\n    tag_918:\n        /* \"#utility.yul\":1468:1507   */\n      swap5\n        /* \"#utility.yul\":1554:1556   */\n      0x20\n        /* \"#utility.yul\":1539:1557   */\n      swap4\n      swap1\n      swap4\n      add\n        /* \"#utility.yul\":1526:1558   */\n      calldataload\n      swap4\n      pop\n      pop\n      pop\n        /* \"#utility.yul\":1310:1564   */\n      jump\t// out\n        /* \"#utility.yul\":1765:1945   */\n    tag_75:\n        /* \"#utility.yul\":1824:1830   */\n      0x00\n        /* \"#utility.yul\":1877:1879   */\n      0x20\n        /* \"#utility.yul\":1865:1874   */\n      dup3\n        /* \"#utility.yul\":1856:1863   */\n      dup5\n        /* \"#utility.yul\":1852:1875   */\n      sub\n        /* \"#utility.yul\":1848:1880   */\n      slt\n        /* \"#utility.yul\":1845:1897   */\n      iszero\n      tag_921\n      jumpi\n        /* \"#utility.yul\":1893:1894   */\n      0x00\n        /* \"#utility.yul\":1890:1891   */\n      dup1\n        /* \"#utility.yul\":1883:1895   */\n      revert\n        /* \"#utility.yul\":1845:1897   */\n    tag_921:\n      pop\n        /* \"#utility.yul\":1916:1939   */\n      calldataload\n      swap2\n        /* \"#utility.yul\":1765:1945   */\n      swap1\n      pop\n      jump\t// out\n        /* \"#utility.yul\":1950:2479   */\n    tag_82:\n        /* \"#utility.yul\":2054:2060   */\n      0x00\n        /* \"#utility.yul\":2062:2068   */\n      dup1\n        /* \"#utility.yul\":2070:2076   */\n      0x00\n        /* \"#utility.yul\":2078:2084   */\n      dup1\n        /* \"#utility.yul\":2086:2092   */\n      0x00\n        /* \"#utility.yul\":2094:2100   */\n      dup1\n        /* \"#utility.yul\":2147:2150   */\n      0xc0\n        /* \"#utility.yul\":2135:2144   */\n      dup8\n        /* \"#utility.yul\":2126:2133   */\n      dup10\n        /* \"#utility.yul\":2122:2145   */\n      sub\n        /* \"#utility.yul\":2118:2151   */\n      slt\n        /* \"#utility.yul\":2115:2168   */\n      iszero\n      tag_923\n      jumpi\n        /* \"#utility.yul\":2164:2165   */\n      0x00\n        /* \"#utility.yul\":2161:2162   */\n      dup1\n        /* \"#utility.yul\":2154:2166   */\n      revert\n        /* \"#utility.yul\":2115:2168   */\n    tag_923:\n        /* \"#utility.yul\":2187:2216   */\n      tag_924\n        /* \"#utility.yul\":2206:2215   */\n      dup8\n        /* \"#utility.yul\":2187:2216   */\n      tag_891\n      jump\t// in\n    tag_924:\n        /* \"#utility.yul\":2177:2216   */\n      swap9\n        /* \"#utility.yul\":2263:2265   */\n      0x20\n        /* \"#utility.yul\":2248:2266   */\n      dup9\n      add\n        /* \"#utility.yul\":2235:2267   */\n      calldataload\n      swap9\n      pop\n        /* \"#utility.yul\":2314:2316   */\n      0x40\n        /* \"#utility.yul\":2299:2317   */\n      dup9\n      add\n        /* \"#utility.yul\":2286:2318   */\n      calldataload\n      swap8\n        /* \"#utility.yul\":2365:2367   */\n      0x60\n        /* \"#utility.yul\":2350:2368   */\n      dup2\n      add\n        /* \"#utility.yul\":2337:2369   */\n      calldataload\n      swap8\n      pop\n        /* \"#utility.yul\":2416:2419   */\n      0x80\n        /* \"#utility.yul\":2401:2420   */\n      dup2\n      add\n        /* \"#utility.yul\":2388:2421   */\n      calldataload\n      swap7\n      pop\n        /* \"#utility.yul\":2468:2471   */\n      0xa0\n        /* \"#utility.yul\":2453:2472   */\n      add\n        /* \"#utility.yul\":2440:2473   */\n      calldataload\n      swap5\n      pop\n        /* \"#utility.yul\":1950:2479   */\n      swap3\n      pop\n      pop\n      pop\n      jump\t// out\n        /* \"#utility.yul\":2484:2611   */\n    tag_240:\n        /* \"#utility.yul\":2545:2555   */\n      0x4e487b71\n        /* \"#utility.yul\":2540:2543   */\n      0xe0\n        /* \"#utility.yul\":2536:2556   */\n      shl\n        /* \"#utility.yul\":2533:2534   */\n      0x00\n        /* \"#utility.yul\":2526:2557   */\n      mstore\n        /* \"#utility.yul\":2576:2580   */\n      0x41\n        /* \"#utility.yul\":2573:2574   */\n      0x04\n        /* \"#utility.yul\":2566:2581   */\n      mstore\n        /* \"#utility.yul\":2600:2604   */\n      0x24\n        /* \"#utility.yul\":2597:2598   */\n      0x00\n        /* \"#utility.yul\":2590:2605   */\n      revert\n        /* \"#utility.yul\":2616:2865   */\n    tag_893:\n        /* \"#utility.yul\":2726:2728   */\n      0x1f\n        /* \"#utility.yul\":2707:2720   */\n      dup3\n      add\n      not(0x1f)\n        /* \"#utility.yul\":2703:2730   */\n      and\n        /* \"#utility.yul\":2691:2731   */\n      dup2\n      add\n        /* \"#utility.yul\":2761:2779   */\n      0xffffffffffffffff\n        /* \"#utility.yul\":2746:2780   */\n      dup2\n      gt\n        /* \"#utility.yul\":2782:2804   */\n      dup3\n      dup3\n      lt\n        /* \"#utility.yul\":2743:2805   */\n      or\n        /* \"#utility.yul\":2740:2828   */\n      iszero\n      tag_928\n      jumpi\n        /* \"#utility.yul\":2808:2826   */\n      tag_928\n      tag_240\n      jump\t// in\n    tag_928:\n        /* \"#utility.yul\":2844:2846   */\n      0x40\n        /* \"#utility.yul\":2837:2859   */\n      mstore\n      pop\n      pop\n        /* \"#utility.yul\":2616:2865   */\n      jump\t// out\n        /* \"#utility.yul\":2870:3669   */\n    tag_86:\n        /* \"#utility.yul\":2939:2945   */\n      0x00\n        /* \"#utility.yul\":2970:2972   */\n      0x20\n        /* \"#utility.yul\":3013:3015   */\n      dup1\n        /* \"#utility.yul\":3001:3010   */\n      dup4\n        /* \"#utility.yul\":2992:2999   */\n      dup6\n        /* \"#utility.yul\":2988:3011   */\n      sub\n        /* \"#utility.yul\":2984:3016   */\n      slt\n        /* \"#utility.yul\":2981:3033   */\n      iszero\n      tag_930\n      jumpi\n        /* \"#utility.yul\":3029:3030   */\n      0x00\n        /* \"#utility.yul\":3026:3027   */\n      dup1\n        /* \"#utility.yul\":3019:3031   */\n      revert\n        /* \"#utility.yul\":2981:3033   */\n    tag_930:\n        /* \"#utility.yul\":3069:3078   */\n      dup3\n        /* \"#utility.yul\":3056:3079   */\n      calldataload\n        /* \"#utility.yul\":3098:3116   */\n      0xffffffffffffffff\n        /* \"#utility.yul\":3139:3141   */\n      dup1\n        /* \"#utility.yul\":3131:3137   */\n      dup3\n        /* \"#utility.yul\":3128:3142   */\n      gt\n        /* \"#utility.yul\":3125:3159   */\n      iszero\n      tag_931\n      jumpi\n        /* \"#utility.yul\":3155:3156   */\n      0x00\n        /* \"#utility.yul\":3152:3153   */\n      dup1\n        /* \"#utility.yul\":3145:3157   */\n      revert\n        /* \"#utility.yul\":3125:3159   */\n    tag_931:\n        /* \"#utility.yul\":3193:3199   */\n      dup2\n        /* \"#utility.yul\":3182:3191   */\n      dup6\n        /* \"#utility.yul\":3178:3200   */\n      add\n        /* \"#utility.yul\":3168:3200   */\n      swap2\n      pop\n        /* \"#utility.yul\":3238:3245   */\n      dup6\n        /* \"#utility.yul\":3231:3235   */\n      0x1f\n        /* \"#utility.yul\":3227:3229   */\n      dup4\n        /* \"#utility.yul\":3223:3236   */\n      add\n        /* \"#utility.yul\":3219:3246   */\n      slt\n        /* \"#utility.yul\":3209:3264   */\n      tag_932\n      jumpi\n        /* \"#utility.yul\":3260:3261   */\n      0x00\n        /* \"#utility.yul\":3257:3258   */\n      dup1\n        /* \"#utility.yul\":3250:3262   */\n      revert\n        /* \"#utility.yul\":3209:3264   */\n    tag_932:\n        /* \"#utility.yul\":3296:3298   */\n      dup2\n        /* \"#utility.yul\":3283:3299   */\n      calldataload\n        /* \"#utility.yul\":3318:3320   */\n      dup2\n        /* \"#utility.yul\":3314:3316   */\n      dup2\n        /* \"#utility.yul\":3311:3321   */\n      gt\n        /* \"#utility.yul\":3308:3344   */\n      iszero\n      tag_934\n      jumpi\n        /* \"#utility.yul\":3324:3342   */\n      tag_934\n      tag_240\n      jump\t// in\n    tag_934:\n        /* \"#utility.yul\":3373:3375   */\n      0x40\n        /* \"#utility.yul\":3367:3376   */\n      mload\n      swap2\n      pop\n        /* \"#utility.yul\":3385:3450   */\n      tag_935\n        /* \"#utility.yul\":3440:3442   */\n      0x1f\n        /* \"#utility.yul\":3421:3434   */\n      dup3\n      add\n      not(0x1f)\n        /* \"#utility.yul\":3417:3444   */\n      and\n        /* \"#utility.yul\":3413:3449   */\n      dup6\n      add\n        /* \"#utility.yul\":3367:3376   */\n      dup4\n        /* \"#utility.yul\":3385:3450   */\n      tag_893\n      jump\t// in\n    tag_935:\n        /* \"#utility.yul\":3474:3476   */\n      dup1\n        /* \"#utility.yul\":3466:3472   */\n      dup3\n        /* \"#utility.yul\":3459:3477   */\n      mstore\n        /* \"#utility.yul\":3514:3521   */\n      dup7\n        /* \"#utility.yul\":3509:3511   */\n      dup5\n        /* \"#utility.yul\":3504:3506   */\n      dup3\n        /* \"#utility.yul\":3500:3502   */\n      dup6\n        /* \"#utility.yul\":3496:3507   */\n      add\n        /* \"#utility.yul\":3492:3512   */\n      add\n        /* \"#utility.yul\":3489:3522   */\n      gt\n        /* \"#utility.yul\":3486:3539   */\n      iszero\n      tag_936\n      jumpi\n        /* \"#utility.yul\":3535:3536   */\n      0x00\n        /* \"#utility.yul\":3532:3533   */\n      dup1\n        /* \"#utility.yul\":3525:3537   */\n      revert\n        /* \"#utility.yul\":3486:3539   */\n    tag_936:\n        /* \"#utility.yul\":3591:3593   */\n      dup1\n        /* \"#utility.yul\":3586:3588   */\n      dup5\n        /* \"#utility.yul\":3582:3584   */\n      dup5\n        /* \"#utility.yul\":3578:3589   */\n      add\n        /* \"#utility.yul\":3573:3575   */\n      dup6\n        /* \"#utility.yul\":3565:3571   */\n      dup5\n        /* \"#utility.yul\":3561:3576   */\n      add\n        /* \"#utility.yul\":3548:3594   */\n      calldatacopy\n        /* \"#utility.yul\":3636:3637   */\n      0x00\n        /* \"#utility.yul\":3614:3629   */\n      swap1\n      dup3\n      add\n        /* \"#utility.yul\":3610:3634   */\n      swap1\n      swap4\n      add\n        /* \"#utility.yul\":3603:3638   */\n      swap3\n      swap1\n      swap3\n      mstore\n      pop\n        /* \"#utility.yul\":3618:3624   */\n      swap4\n        /* \"#utility.yul\":2870:3669   */\n      swap3\n      pop\n      pop\n      pop\n      jump\t// out\n        /* \"#utility.yul\":4109:4361   */\n    tag_100:\n        /* \"#utility.yul\":4176:4182   */\n      0x00\n        /* \"#utility.yul\":4184:4190   */\n      dup1\n        /* \"#utility.yul\":4237:4239   */\n      0x40\n        /* \"#utility.yul\":4225:4234   */\n      dup4\n        /* \"#utility.yul\":4216:4223   */\n      dup6\n        /* \"#utility.yul\":4212:4235   */\n      sub\n        /* \"#utility.yul\":4208:4240   */\n      slt\n        /* \"#utility.yul\":4205:4257   */\n      iszero\n      tag_940\n      jumpi\n        /* \"#utility.yul\":4253:4254   */\n      0x00\n        /* \"#utility.yul\":4250:4251   */\n      dup1\n        /* \"#utility.yul\":4243:4255   */\n      revert\n        /* \"#utility.yul\":4205:4257   */\n    tag_940:\n        /* \"#utility.yul\":4289:4298   */\n      dup3\n        /* \"#utility.yul\":4276:4299   */\n      calldataload\n        /* \"#utility.yul\":4266:4299   */\n      swap2\n      pop\n        /* \"#utility.yul\":4318:4355   */\n      tag_914\n        /* \"#utility.yul\":4351:4353   */\n      0x20\n        /* \"#utility.yul\":4340:4349   */\n      dup5\n        /* \"#utility.yul\":4336:4354   */\n      add\n        /* \"#utility.yul\":4318:4355   */\n      tag_892\n      jump\t// in\n        /* \"#utility.yul\":4366:4805   */\n    tag_894:\n        /* \"#utility.yul\":4419:4422   */\n      0x00\n        /* \"#utility.yul\":4457:4462   */\n      dup2\n        /* \"#utility.yul\":4451:4463   */\n      mload\n        /* \"#utility.yul\":4484:4490   */\n      dup1\n        /* \"#utility.yul\":4479:4482   */\n      dup5\n        /* \"#utility.yul\":4472:4491   */\n      mstore\n        /* \"#utility.yul\":4510:4514   */\n      0x20\n        /* \"#utility.yul\":4539:4543   */\n      dup1\n        /* \"#utility.yul\":4534:4537   */\n      dup6\n        /* \"#utility.yul\":4530:4544   */\n      add\n        /* \"#utility.yul\":4523:4544   */\n      swap5\n      pop\n        /* \"#utility.yul\":4578:4582   */\n      0x20\n        /* \"#utility.yul\":4571:4576   */\n      dup5\n        /* \"#utility.yul\":4567:4583   */\n      add\n        /* \"#utility.yul\":4601:4602   */\n      0x00\n        /* \"#utility.yul\":4611:4780   */\n    tag_943:\n        /* \"#utility.yul\":4625:4631   */\n      dup4\n        /* \"#utility.yul\":4622:4623   */\n      dup2\n        /* \"#utility.yul\":4619:4632   */\n      lt\n        /* \"#utility.yul\":4611:4780   */\n      iszero\n      tag_945\n      jumpi\n        /* \"#utility.yul\":4686:4699   */\n      dup2\n      mload\n        /* \"#utility.yul\":4674:4700   */\n      dup8\n      mstore\n        /* \"#utility.yul\":4720:4732   */\n      swap6\n      dup3\n      add\n      swap6\n        /* \"#utility.yul\":4755:4770   */\n      swap1\n      dup3\n      add\n      swap1\n        /* \"#utility.yul\":4647:4648   */\n      0x01\n        /* \"#utility.yul\":4640:4649   */\n      add\n        /* \"#utility.yul\":4611:4780   */\n      jump(tag_943)\n    tag_945:\n      pop\n        /* \"#utility.yul\":4796:4799   */\n      swap5\n      swap6\n        /* \"#utility.yul\":4366:4805   */\n      swap5\n      pop\n      pop\n      pop\n      pop\n      pop\n      jump\t// out\n        /* \"#utility.yul\":4810:5071   */\n    tag_125:\n        /* \"#utility.yul\":4989:4991   */\n      0x20\n        /* \"#utility.yul\":4978:4987   */\n      dup2\n        /* \"#utility.yul\":4971:4992   */\n      mstore\n        /* \"#utility.yul\":4952:4956   */\n      0x00\n        /* \"#utility.yul\":5009:5065   */\n      tag_378\n        /* \"#utility.yul\":5061:5063   */\n      0x20\n        /* \"#utility.yul\":5050:5059   */\n      dup4\n        /* \"#utility.yul\":5046:5064   */\n      add\n        /* \"#utility.yul\":5038:5044   */\n      dup5\n        /* \"#utility.yul\":5009:5065   */\n      tag_894\n      jump\t// in\n        /* \"#utility.yul\":5307:5674   */\n    tag_895:\n        /* \"#utility.yul\":5370:5378   */\n      0x00\n        /* \"#utility.yul\":5380:5386   */\n      dup1\n        /* \"#utility.yul\":5434:5437   */\n      dup4\n        /* \"#utility.yul\":5427:5431   */\n      0x1f\n        /* \"#utility.yul\":5419:5425   */\n      dup5\n        /* \"#utility.yul\":5415:5432   */\n      add\n        /* \"#utility.yul\":5411:5438   */\n      slt\n        /* \"#utility.yul\":5401:5456   */\n      tag_950\n      jumpi\n        /* \"#utility.yul\":5452:5453   */\n      0x00\n        /* \"#utility.yul\":5449:5450   */\n      dup1\n        /* \"#utility.yul\":5442:5454   */\n      revert\n        /* \"#utility.yul\":5401:5456   */\n    tag_950:\n      pop\n        /* \"#utility.yul\":5475:5495   */\n      dup2\n      calldataload\n        /* \"#utility.yul\":5518:5536   */\n      0xffffffffffffffff\n        /* \"#utility.yul\":5507:5537   */\n      dup2\n      gt\n        /* \"#utility.yul\":5504:5554   */\n      iszero\n      tag_951\n      jumpi\n        /* \"#utility.yul\":5550:5551   */\n      0x00\n        /* \"#utility.yul\":5547:5548   */\n      dup1\n        /* \"#utility.yul\":5540:5552   */\n      revert\n        /* \"#utility.yul\":5504:5554   */\n    tag_951:\n        /* \"#utility.yul\":5587:5591   */\n      0x20\n        /* \"#utility.yul\":5579:5585   */\n      dup4\n        /* \"#utility.yul\":5575:5592   */\n      add\n        /* \"#utility.yul\":5563:5592   */\n      swap2\n      pop\n        /* \"#utility.yul\":5647:5650   */\n      dup4\n        /* \"#utility.yul\":5640:5644   */\n      0x20\n        /* \"#utility.yul\":5630:5636   */\n      dup3\n        /* \"#utility.yul\":5627:5628   */\n      0x05\n        /* \"#utility.yul\":5623:5637   */\n      shl\n        /* \"#utility.yul\":5615:5621   */\n      dup6\n        /* \"#utility.yul\":5611:5638   */\n      add\n        /* \"#utility.yul\":5607:5645   */\n      add\n        /* \"#utility.yul\":5604:5651   */\n      gt\n        /* \"#utility.yul\":5601:5668   */\n      iszero\n      tag_952\n      jumpi\n        /* \"#utility.yul\":5664:5665   */\n      0x00\n        /* \"#utility.yul\":5661:5662   */\n      dup1\n        /* \"#utility.yul\":5654:5666   */\n      revert\n        /* \"#utility.yul\":5601:5668   */\n    tag_952:\n        /* \"#utility.yul\":5307:5674   */\n      swap3\n      pop\n      swap3\n      swap1\n      pop\n      jump\t// out\n        /* \"#utility.yul\":5679:6026   */\n    tag_896:\n        /* \"#utility.yul\":5730:5738   */\n      0x00\n        /* \"#utility.yul\":5740:5746   */\n      dup1\n        /* \"#utility.yul\":5794:5797   */\n      dup4\n        /* \"#utility.yul\":5787:5791   */\n      0x1f\n        /* \"#utility.yul\":5779:5785   */\n      dup5\n        /* \"#utility.yul\":5775:5792   */\n      add\n        /* \"#utility.yul\":5771:5798   */\n      slt\n        /* \"#utility.yul\":5761:5816   */\n      tag_954\n      jumpi\n        /* \"#utility.yul\":5812:5813   */\n      0x00\n        /* \"#utility.yul\":5809:5810   */\n      dup1\n        /* \"#utility.yul\":5802:5814   */\n      revert\n        /* \"#utility.yul\":5761:5816   */\n    tag_954:\n      pop\n        /* \"#utility.yul\":5835:5855   */\n      dup2\n      calldataload\n        /* \"#utility.yul\":5878:5896   */\n      0xffffffffffffffff\n        /* \"#utility.yul\":5867:5897   */\n      dup2\n      gt\n        /* \"#utility.yul\":5864:5914   */\n      iszero\n      tag_955\n      jumpi\n        /* \"#utility.yul\":5910:5911   */\n      0x00\n        /* \"#utility.yul\":5907:5908   */\n      dup1\n        /* \"#utility.yul\":5900:5912   */\n      revert\n        /* \"#utility.yul\":5864:5914   */\n    tag_955:\n        /* \"#utility.yul\":5947:5951   */\n      0x20\n        /* \"#utility.yul\":5939:5945   */\n      dup4\n        /* \"#utility.yul\":5935:5952   */\n      add\n        /* \"#utility.yul\":5923:5952   */\n      swap2\n      pop\n        /* \"#utility.yul\":5999:6002   */\n      dup4\n        /* \"#utility.yul\":5992:5996   */\n      0x20\n        /* \"#utility.yul\":5983:5989   */\n      dup3\n        /* \"#utility.yul\":5975:5981   */\n      dup6\n        /* \"#utility.yul\":5971:5990   */\n      add\n        /* \"#utility.yul\":5967:5997   */\n      add\n        /* \"#utility.yul\":5964:6003   */\n      gt\n        /* \"#utility.yul\":5961:6020   */\n      iszero\n      tag_952\n      jumpi\n        /* \"#utility.yul\":6016:6017   */\n      0x00\n        /* \"#utility.yul\":6013:6014   */\n      dup1\n        /* \"#utility.yul\":6006:6018   */\n      revert\n        /* \"#utility.yul\":6031:7241   */\n    tag_144:\n        /* \"#utility.yul\":6191:6197   */\n      0x00\n        /* \"#utility.yul\":6199:6205   */\n      dup1\n        /* \"#utility.yul\":6207:6213   */\n      0x00\n        /* \"#utility.yul\":6215:6221   */\n      dup1\n        /* \"#utility.yul\":6223:6229   */\n      0x00\n        /* \"#utility.yul\":6231:6237   */\n      dup1\n        /* \"#utility.yul\":6239:6245   */\n      0x00\n        /* \"#utility.yul\":6247:6253   */\n      dup1\n        /* \"#utility.yul\":6300:6303   */\n      0xa0\n        /* \"#utility.yul\":6288:6297   */\n      dup10\n        /* \"#utility.yul\":6279:6286   */\n      dup12\n        /* \"#utility.yul\":6275:6298   */\n      sub\n        /* \"#utility.yul\":6271:6304   */\n      slt\n        /* \"#utility.yul\":6268:6321   */\n      iszero\n      tag_958\n      jumpi\n        /* \"#utility.yul\":6317:6318   */\n      0x00\n        /* \"#utility.yul\":6314:6315   */\n      dup1\n        /* \"#utility.yul\":6307:6319   */\n      revert\n        /* \"#utility.yul\":6268:6321   */\n    tag_958:\n        /* \"#utility.yul\":6340:6369   */\n      tag_959\n        /* \"#utility.yul\":6359:6368   */\n      dup10\n        /* \"#utility.yul\":6340:6369   */\n      tag_891\n      jump\t// in\n    tag_959:\n        /* \"#utility.yul\":6330:6369   */\n      swap8\n      pop\n        /* \"#utility.yul\":6388:6426   */\n      tag_960\n        /* \"#utility.yul\":6422:6424   */\n      0x20\n        /* \"#utility.yul\":6411:6420   */\n      dup11\n        /* \"#utility.yul\":6407:6425   */\n      add\n        /* \"#utility.yul\":6388:6426   */\n      tag_891\n      jump\t// in\n    tag_960:\n        /* \"#utility.yul\":6378:6426   */\n      swap7\n      pop\n        /* \"#utility.yul\":6477:6479   */\n      0x40\n        /* \"#utility.yul\":6466:6475   */\n      dup10\n        /* \"#utility.yul\":6462:6480   */\n      add\n        /* \"#utility.yul\":6449:6481   */\n      calldataload\n        /* \"#utility.yul\":6500:6518   */\n      0xffffffffffffffff\n        /* \"#utility.yul\":6541:6543   */\n      dup1\n        /* \"#utility.yul\":6533:6539   */\n      dup3\n        /* \"#utility.yul\":6530:6544   */\n      gt\n        /* \"#utility.yul\":6527:6561   */\n      iszero\n      tag_961\n      jumpi\n        /* \"#utility.yul\":6557:6558   */\n      0x00\n        /* \"#utility.yul\":6554:6555   */\n      dup1\n        /* \"#utility.yul\":6547:6559   */\n      revert\n        /* \"#utility.yul\":6527:6561   */\n    tag_961:\n        /* \"#utility.yul\":6596:6666   */\n      tag_962\n        /* \"#utility.yul\":6658:6665   */\n      dup13\n        /* \"#utility.yul\":6649:6655   */\n      dup4\n        /* \"#utility.yul\":6638:6647   */\n      dup14\n        /* \"#utility.yul\":6634:6656   */\n      add\n        /* \"#utility.yul\":6596:6666   */\n      tag_895\n      jump\t// in\n    tag_962:\n        /* \"#utility.yul\":6685:6693   */\n      swap1\n      swap9\n      pop\n        /* \"#utility.yul\":6570:6666   */\n      swap7\n      pop\n        /* \"#utility.yul\":6773:6775   */\n      0x60\n        /* \"#utility.yul\":6758:6776   */\n      dup12\n      add\n        /* \"#utility.yul\":6745:6777   */\n      calldataload\n      swap2\n      pop\n        /* \"#utility.yul\":6789:6805   */\n      dup1\n      dup3\n      gt\n        /* \"#utility.yul\":6786:6822   */\n      iszero\n      tag_963\n      jumpi\n        /* \"#utility.yul\":6818:6819   */\n      0x00\n        /* \"#utility.yul\":6815:6816   */\n      dup1\n        /* \"#utility.yul\":6808:6820   */\n      revert\n        /* \"#utility.yul\":6786:6822   */\n    tag_963:\n        /* \"#utility.yul\":6857:6929   */\n      tag_964\n        /* \"#utility.yul\":6921:6928   */\n      dup13\n        /* \"#utility.yul\":6910:6918   */\n      dup4\n        /* \"#utility.yul\":6899:6908   */\n      dup14\n        /* \"#utility.yul\":6895:6919   */\n      add\n        /* \"#utility.yul\":6857:6929   */\n      tag_895\n      jump\t// in\n    tag_964:\n        /* \"#utility.yul\":6948:6956   */\n      swap1\n      swap7\n      pop\n        /* \"#utility.yul\":6831:6929   */\n      swap5\n      pop\n        /* \"#utility.yul\":7036:7039   */\n      0x80\n        /* \"#utility.yul\":7021:7040   */\n      dup12\n      add\n        /* \"#utility.yul\":7008:7041   */\n      calldataload\n      swap2\n      pop\n        /* \"#utility.yul\":7053:7069   */\n      dup1\n      dup3\n      gt\n        /* \"#utility.yul\":7050:7086   */\n      iszero\n      tag_965\n      jumpi\n        /* \"#utility.yul\":7082:7083   */\n      0x00\n        /* \"#utility.yul\":7079:7080   */\n      dup1\n        /* \"#utility.yul\":7072:7084   */\n      revert\n        /* \"#utility.yul\":7050:7086   */\n    tag_965:\n      pop\n        /* \"#utility.yul\":7121:7181   */\n      tag_966\n        /* \"#utility.yul\":7173:7180   */\n      dup12\n        /* \"#utility.yul\":7162:7170   */\n      dup3\n        /* \"#utility.yul\":7151:7160   */\n      dup13\n        /* \"#utility.yul\":7147:7171   */\n      add\n        /* \"#utility.yul\":7121:7181   */\n      tag_896\n      jump\t// in\n    tag_966:\n        /* \"#utility.yul\":6031:7241   */\n      swap10\n      swap13\n      swap9\n      swap12\n      pop\n      swap7\n      swap10\n      pop\n      swap5\n      swap8\n      swap4\n      swap7\n      swap3\n      swap6\n        /* \"#utility.yul\":7200:7208   */\n      swap5\n      pop\n      pop\n      pop\n        /* \"#utility.yul\":6031:7241   */\n      jump\t// out\n        /* \"#utility.yul\":7453:8148   */\n    tag_166:\n        /* \"#utility.yul\":7559:7565   */\n      0x00\n        /* \"#utility.yul\":7567:7573   */\n      dup1\n        /* \"#utility.yul\":7575:7581   */\n      0x00\n        /* \"#utility.yul\":7583:7589   */\n      dup1\n        /* \"#utility.yul\":7591:7597   */\n      0x00\n        /* \"#utility.yul\":7599:7605   */\n      dup1\n        /* \"#utility.yul\":7652:7655   */\n      0xa0\n        /* \"#utility.yul\":7640:7649   */\n      dup8\n        /* \"#utility.yul\":7631:7638   */\n      dup10\n        /* \"#utility.yul\":7627:7650   */\n      sub\n        /* \"#utility.yul\":7623:7656   */\n      slt\n        /* \"#utility.yul\":7620:7673   */\n      iszero\n      tag_969\n      jumpi\n        /* \"#utility.yul\":7669:7670   */\n      0x00\n        /* \"#utility.yul\":7666:7667   */\n      dup1\n        /* \"#utility.yul\":7659:7671   */\n      revert\n        /* \"#utility.yul\":7620:7673   */\n    tag_969:\n        /* \"#utility.yul\":7692:7721   */\n      tag_970\n        /* \"#utility.yul\":7711:7720   */\n      dup8\n        /* \"#utility.yul\":7692:7721   */\n      tag_891\n      jump\t// in\n    tag_970:\n        /* \"#utility.yul\":7682:7721   */\n      swap6\n      pop\n        /* \"#utility.yul\":7740:7778   */\n      tag_971\n        /* \"#utility.yul\":7774:7776   */\n      0x20\n        /* \"#utility.yul\":7763:7772   */\n      dup9\n        /* \"#utility.yul\":7759:7777   */\n      add\n        /* \"#utility.yul\":7740:7778   */\n      tag_891\n      jump\t// in\n    tag_971:\n        /* \"#utility.yul\":7730:7778   */\n      swap5\n      pop\n        /* \"#utility.yul\":7825:7827   */\n      0x40\n        /* \"#utility.yul\":7814:7823   */\n      dup8\n        /* \"#utility.yul\":7810:7828   */\n      add\n        /* \"#utility.yul\":7797:7829   */\n      calldataload\n        /* \"#utility.yul\":7787:7829   */\n      swap4\n      pop\n        /* \"#utility.yul\":7876:7878   */\n      0x60\n        /* \"#utility.yul\":7865:7874   */\n      dup8\n        /* \"#utility.yul\":7861:7879   */\n      add\n        /* \"#utility.yul\":7848:7880   */\n      calldataload\n        /* \"#utility.yul\":7838:7880   */\n      swap3\n      pop\n        /* \"#utility.yul\":7931:7934   */\n      0x80\n        /* \"#utility.yul\":7920:7929   */\n      dup8\n        /* \"#utility.yul\":7916:7935   */\n      add\n        /* \"#utility.yul\":7903:7936   */\n      calldataload\n        /* \"#utility.yul\":7959:7977   */\n      0xffffffffffffffff\n        /* \"#utility.yul\":7951:7957   */\n      dup2\n        /* \"#utility.yul\":7948:7978   */\n      gt\n        /* \"#utility.yul\":7945:7995   */\n      iszero\n      tag_972\n      jumpi\n        /* \"#utility.yul\":7991:7992   */\n      0x00\n        /* \"#utility.yul\":7988:7989   */\n      dup1\n        /* \"#utility.yul\":7981:7993   */\n      revert\n        /* \"#utility.yul\":7945:7995   */\n    tag_972:\n        /* \"#utility.yul\":8030:8088   */\n      tag_973\n        /* \"#utility.yul\":8080:8087   */\n      dup10\n        /* \"#utility.yul\":8071:8077   */\n      dup3\n        /* \"#utility.yul\":8060:8069   */\n      dup11\n        /* \"#utility.yul\":8056:8078   */\n      add\n        /* \"#utility.yul\":8030:8088   */\n      tag_896\n      jump\t// in\n    tag_973:\n        /* \"#utility.yul\":7453:8148   */\n      swap8\n      swap11\n      swap7\n      swap10\n      pop\n      swap5\n      swap8\n      pop\n      swap3\n      swap6\n        /* \"#utility.yul\":8107:8115   */\n      swap4\n      swap5\n        /* \"#utility.yul\":7453:8148   */\n      swap3\n      pop\n      pop\n      pop\n      jump\t// out\n        /* \"#utility.yul\":8153:8339   */\n    tag_171:\n        /* \"#utility.yul\":8212:8218   */\n      0x00\n        /* \"#utility.yul\":8265:8267   */\n      0x20\n        /* \"#utility.yul\":8253:8262   */\n      dup3\n        /* \"#utility.yul\":8244:8251   */\n      dup5\n        /* \"#utility.yul\":8240:8263   */\n      sub\n        /* \"#utility.yul\":8236:8268   */\n      slt\n        /* \"#utility.yul\":8233:8285   */\n      iszero\n      tag_975\n      jumpi\n        /* \"#utility.yul\":8281:8282   */\n      0x00\n        /* \"#utility.yul\":8278:8279   */\n      dup1\n        /* \"#utility.yul\":8271:8283   */\n      revert\n        /* \"#utility.yul\":8233:8285   */\n    tag_975:\n        /* \"#utility.yul\":8304:8333   */\n      tag_378\n        /* \"#utility.yul\":8323:8332   */\n      dup3\n        /* \"#utility.yul\":8304:8333   */\n      tag_891\n      jump\t// in\n        /* \"#utility.yul\":8344:8617   */\n    tag_185:\n        /* \"#utility.yul\":8412:8418   */\n      0x00\n        /* \"#utility.yul\":8465:8467   */\n      0x20\n        /* \"#utility.yul\":8453:8462   */\n      dup3\n        /* \"#utility.yul\":8444:8451   */\n      dup5\n        /* \"#utility.yul\":8440:8463   */\n      sub\n        /* \"#utility.yul\":8436:8468   */\n      slt\n        /* \"#utility.yul\":8433:8485   */\n      iszero\n      tag_978\n      jumpi\n        /* \"#utility.yul\":8481:8482   */\n      0x00\n        /* \"#utility.yul\":8478:8479   */\n      dup1\n        /* \"#utility.yul\":8471:8483   */\n      revert\n        /* \"#utility.yul\":8433:8485   */\n    tag_978:\n        /* \"#utility.yul\":8513:8522   */\n      dup2\n        /* \"#utility.yul\":8507:8523   */\n      mload\n        /* \"#utility.yul\":8563:8567   */\n      0xff\n        /* \"#utility.yul\":8556:8561   */\n      dup2\n        /* \"#utility.yul\":8552:8568   */\n      and\n        /* \"#utility.yul\":8545:8550   */\n      dup2\n        /* \"#utility.yul\":8542:8569   */\n      eq\n        /* \"#utility.yul\":8532:8587   */\n      tag_378\n      jumpi\n        /* \"#utility.yul\":8583:8584   */\n      0x00\n        /* \"#utility.yul\":8580:8581   */\n      dup1\n        /* \"#utility.yul\":8573:8585   */\n      revert\n        /* \"#utility.yul\":8622:8749   */\n    tag_897:\n        /* \"#utility.yul\":8683:8693   */\n      0x4e487b71\n        /* \"#utility.yul\":8678:8681   */\n      0xe0\n        /* \"#utility.yul\":8674:8694   */\n      shl\n        /* \"#utility.yul\":8671:8672   */\n      0x00\n        /* \"#utility.yul\":8664:8695   */\n      mstore\n        /* \"#utility.yul\":8714:8718   */\n      0x11\n        /* \"#utility.yul\":8711:8712   */\n      0x04\n        /* \"#utility.yul\":8704:8719   */\n      mstore\n        /* \"#utility.yul\":8738:8742   */\n      0x24\n        /* \"#utility.yul\":8735:8736   */\n      0x00\n        /* \"#utility.yul\":8728:8743   */\n      revert\n        /* \"#utility.yul\":8754:9170   */\n    tag_898:\n        /* \"#utility.yul\":8843:8844   */\n      0x01\n        /* \"#utility.yul\":8880:8885   */\n      dup2\n        /* \"#utility.yul\":8843:8844   */\n      dup2\n        /* \"#utility.yul\":8894:9164   */\n    tag_982:\n        /* \"#utility.yul\":8915:8922   */\n      dup1\n        /* \"#utility.yul\":8905:8913   */\n      dup6\n        /* \"#utility.yul\":8902:8923   */\n      gt\n        /* \"#utility.yul\":8894:9164   */\n      iszero\n      tag_984\n      jumpi\n        /* \"#utility.yul\":8974:8978   */\n      dup2\n        /* \"#utility.yul\":8970:8971   */\n      0x00\n        /* \"#utility.yul\":8966:8972   */\n      not\n        /* \"#utility.yul\":8962:8979   */\n      div\n        /* \"#utility.yul\":8956:8960   */\n      dup3\n        /* \"#utility.yul\":8953:8980   */\n      gt\n        /* \"#utility.yul\":8950:9003   */\n      iszero\n      tag_986\n      jumpi\n        /* \"#utility.yul\":8983:9001   */\n      tag_986\n      tag_897\n      jump\t// in\n    tag_986:\n        /* \"#utility.yul\":9033:9040   */\n      dup1\n        /* \"#utility.yul\":9023:9031   */\n      dup6\n        /* \"#utility.yul\":9019:9041   */\n      and\n        /* \"#utility.yul\":9016:9071   */\n      iszero\n      tag_987\n      jumpi\n        /* \"#utility.yul\":9053:9069   */\n      swap2\n      dup2\n      mul\n      swap2\n        /* \"#utility.yul\":9016:9071   */\n    tag_987:\n        /* \"#utility.yul\":9132:9154   */\n      swap4\n      dup5\n      shr\n      swap4\n        /* \"#utility.yul\":9092:9107   */\n      swap1\n      dup1\n      mul\n      swap1\n        /* \"#utility.yul\":8894:9164   */\n      jump(tag_982)\n    tag_984:\n        /* \"#utility.yul\":8898:8901   */\n      pop\n        /* \"#utility.yul\":8754:9170   */\n      swap3\n      pop\n      swap3\n      swap1\n      pop\n      jump\t// out\n        /* \"#utility.yul\":9175:9981   */\n    tag_899:\n        /* \"#utility.yul\":9224:9229   */\n      0x00\n        /* \"#utility.yul\":9254:9262   */\n      dup3\n        /* \"#utility.yul\":9244:9324   */\n      tag_989\n      jumpi\n      pop\n        /* \"#utility.yul\":9295:9296   */\n      0x01\n        /* \"#utility.yul\":9309:9314   */\n      jump(tag_181)\n        /* \"#utility.yul\":9244:9324   */\n    tag_989:\n        /* \"#utility.yul\":9343:9347   */\n      dup2\n        /* \"#utility.yul\":9333:9409   */\n      tag_990\n      jumpi\n      pop\n        /* \"#utility.yul\":9380:9381   */\n      0x00\n        /* \"#utility.yul\":9394:9399   */\n      jump(tag_181)\n        /* \"#utility.yul\":9333:9409   */\n    tag_990:\n        /* \"#utility.yul\":9425:9429   */\n      dup2\n        /* \"#utility.yul\":9443:9444   */\n      0x01\n        /* \"#utility.yul\":9438:9497   */\n      dup2\n      eq\n      tag_992\n      jumpi\n        /* \"#utility.yul\":9511:9512   */\n      0x02\n        /* \"#utility.yul\":9506:9636   */\n      dup2\n      eq\n      tag_993\n      jumpi\n        /* \"#utility.yul\":9418:9636   */\n      jump(tag_991)\n        /* \"#utility.yul\":9438:9497   */\n    tag_992:\n        /* \"#utility.yul\":9468:9469   */\n      0x01\n        /* \"#utility.yul\":9459:9469   */\n      swap2\n      pop\n        /* \"#utility.yul\":9482:9487   */\n      pop\n      jump(tag_181)\n        /* \"#utility.yul\":9506:9636   */\n    tag_993:\n        /* \"#utility.yul\":9543:9546   */\n      0xff\n        /* \"#utility.yul\":9533:9541   */\n      dup5\n        /* \"#utility.yul\":9530:9547   */\n      gt\n        /* \"#utility.yul\":9527:9570   */\n      iszero\n      tag_995\n      jumpi\n        /* \"#utility.yul\":9550:9568   */\n      tag_995\n      tag_897\n      jump\t// in\n    tag_995:\n      pop\n      pop\n        /* \"#utility.yul\":9606:9607   */\n      0x01\n        /* \"#utility.yul\":9592:9608   */\n      dup3\n      shl\n        /* \"#utility.yul\":9621:9626   */\n      jump(tag_181)\n        /* \"#utility.yul\":9418:9636   */\n    tag_991:\n      pop\n        /* \"#utility.yul\":9720:9722   */\n      0x20\n        /* \"#utility.yul\":9710:9718   */\n      dup4\n        /* \"#utility.yul\":9707:9723   */\n      lt\n        /* \"#utility.yul\":9701:9704   */\n      0x0133\n        /* \"#utility.yul\":9695:9699   */\n      dup4\n        /* \"#utility.yul\":9692:9705   */\n      lt\n        /* \"#utility.yul\":9688:9724   */\n      and\n        /* \"#utility.yul\":9682:9684   */\n      0x4e\n        /* \"#utility.yul\":9672:9680   */\n      dup5\n        /* \"#utility.yul\":9669:9685   */\n      lt\n        /* \"#utility.yul\":9664:9666   */\n      0x0b\n        /* \"#utility.yul\":9658:9662   */\n      dup5\n        /* \"#utility.yul\":9655:9667   */\n      lt\n        /* \"#utility.yul\":9651:9686   */\n      and\n        /* \"#utility.yul\":9648:9725   */\n      or\n        /* \"#utility.yul\":9645:9804   */\n      iszero\n      tag_996\n      jumpi\n      pop\n        /* \"#utility.yul\":9757:9776   */\n      dup2\n      dup2\n      exp\n        /* \"#utility.yul\":9789:9794   */\n      jump(tag_181)\n        /* \"#utility.yul\":9645:9804   */\n    tag_996:\n        /* \"#utility.yul\":9836:9870   */\n      tag_997\n        /* \"#utility.yul\":9861:9869   */\n      dup4\n        /* \"#utility.yul\":9855:9859   */\n      dup4\n        /* \"#utility.yul\":9836:9870   */\n      tag_898\n      jump\t// in\n    tag_997:\n        /* \"#utility.yul\":9906:9912   */\n      dup1\n        /* \"#utility.yul\":9902:9903   */\n      0x00\n        /* \"#utility.yul\":9898:9904   */\n      not\n        /* \"#utility.yul\":9894:9913   */\n      div\n        /* \"#utility.yul\":9885:9892   */\n      dup3\n        /* \"#utility.yul\":9882:9914   */\n      gt\n        /* \"#utility.yul\":9879:9937   */\n      iszero\n      tag_999\n      jumpi\n        /* \"#utility.yul\":9917:9935   */\n      tag_999\n      tag_897\n      jump\t// in\n    tag_999:\n        /* \"#utility.yul\":9955:9975   */\n      mul\n      swap4\n        /* \"#utility.yul\":9175:9981   */\n      swap3\n      pop\n      pop\n      pop\n      jump\t// out\n        /* \"#utility.yul\":9986:10117   */\n    tag_187:\n        /* \"#utility.yul\":10046:10051   */\n      0x00\n        /* \"#utility.yul\":10075:10111   */\n      tag_378\n        /* \"#utility.yul\":10102:10110   */\n      dup4\n        /* \"#utility.yul\":10096:10100   */\n      dup4\n        /* \"#utility.yul\":10075:10111   */\n      tag_899\n      jump\t// in\n        /* \"#utility.yul\":10478:10603   */\n    tag_197:\n        /* \"#utility.yul\":10543:10552   */\n      dup1\n      dup3\n      add\n        /* \"#utility.yul\":10564:10574   */\n      dup1\n      dup3\n      gt\n        /* \"#utility.yul\":10561:10597   */\n      iszero\n      tag_181\n      jumpi\n        /* \"#utility.yul\":10577:10595   */\n      tag_181\n      tag_897\n      jump\t// in\n        /* \"#utility.yul\":10608:10735   */\n    tag_216:\n        /* \"#utility.yul\":10669:10679   */\n      0x4e487b71\n        /* \"#utility.yul\":10664:10667   */\n      0xe0\n        /* \"#utility.yul\":10660:10680   */\n      shl\n        /* \"#utility.yul\":10657:10658   */\n      0x00\n        /* \"#utility.yul\":10650:10681   */\n      mstore\n        /* \"#utility.yul\":10700:10704   */\n      0x32\n        /* \"#utility.yul\":10697:10698   */\n      0x04\n        /* \"#utility.yul\":10690:10705   */\n      mstore\n        /* \"#utility.yul\":10724:10728   */\n      0x24\n        /* \"#utility.yul\":10721:10722   */\n      0x00\n        /* \"#utility.yul\":10714:10729   */\n      revert\n        /* \"#utility.yul\":10740:10924   */\n    tag_234:\n        /* \"#utility.yul\":10810:10816   */\n      0x00\n        /* \"#utility.yul\":10863:10865   */\n      0x20\n        /* \"#utility.yul\":10851:10860   */\n      dup3\n        /* \"#utility.yul\":10842:10849   */\n      dup5\n        /* \"#utility.yul\":10838:10861   */\n      sub\n        /* \"#utility.yul\":10834:10866   */\n      slt\n        /* \"#utility.yul\":10831:10883   */\n      iszero\n      tag_1008\n      jumpi\n        /* \"#utility.yul\":10879:10880   */\n      0x00\n        /* \"#utility.yul\":10876:10877   */\n      dup1\n        /* \"#utility.yul\":10869:10881   */\n      revert\n        /* \"#utility.yul\":10831:10883   */\n    tag_1008:\n      pop\n        /* \"#utility.yul\":10902:10918   */\n      mload\n      swap2\n        /* \"#utility.yul\":10740:10924   */\n      swap1\n      pop\n      jump\t// out\n        /* \"#utility.yul\":11285:11826   */\n    tag_248:\n      sub(shl(0xa0, 0x01), 0x01)\n        /* \"#utility.yul\":11568:11574   */\n      dup6\n        /* \"#utility.yul\":11564:11619   */\n      and\n        /* \"#utility.yul\":11553:11562   */\n      dup2\n        /* \"#utility.yul\":11546:11620   */\n      mstore\n        /* \"#utility.yul\":11656:11662   */\n      dup4\n        /* \"#utility.yul\":11651:11653   */\n      0x20\n        /* \"#utility.yul\":11640:11649   */\n      dup3\n        /* \"#utility.yul\":11636:11654   */\n      add\n        /* \"#utility.yul\":11629:11663   */\n      mstore\n        /* \"#utility.yul\":11699:11705   */\n      dup3\n        /* \"#utility.yul\":11694:11696   */\n      0x40\n        /* \"#utility.yul\":11683:11692   */\n      dup3\n        /* \"#utility.yul\":11679:11697   */\n      add\n        /* \"#utility.yul\":11672:11706   */\n      mstore\n        /* \"#utility.yul\":11742:11745   */\n      0x80\n        /* \"#utility.yul\":11737:11739   */\n      0x60\n        /* \"#utility.yul\":11726:11735   */\n      dup3\n        /* \"#utility.yul\":11722:11740   */\n      add\n        /* \"#utility.yul\":11715:11746   */\n      mstore\n        /* \"#utility.yul\":11527:11531   */\n      0x00\n        /* \"#utility.yul\":11763:11820   */\n      tag_422\n        /* \"#utility.yul\":11815:11818   */\n      0x80\n        /* \"#utility.yul\":11804:11813   */\n      dup4\n        /* \"#utility.yul\":11800:11819   */\n      add\n        /* \"#utility.yul\":11792:11798   */\n      dup5\n        /* \"#utility.yul\":11763:11820   */\n      tag_894\n      jump\t// in\n        /* \"#utility.yul\":12529:12657   */\n    tag_297:\n        /* \"#utility.yul\":12596:12605   */\n      dup2\n      dup2\n      sub\n        /* \"#utility.yul\":12617:12628   */\n      dup2\n      dup2\n      gt\n        /* \"#utility.yul\":12614:12651   */\n      iszero\n      tag_181\n      jumpi\n        /* \"#utility.yul\":12631:12649   */\n      tag_181\n      tag_897\n      jump\t// in\n        /* \"#utility.yul\":13917:14129   */\n    tag_900:\n        /* \"#utility.yul\":13959:13962   */\n      0x00\n        /* \"#utility.yul\":13997:14002   */\n      dup2\n        /* \"#utility.yul\":13991:14003   */\n      mload\n        /* \"#utility.yul\":14041:14047   */\n      dup1\n        /* \"#utility.yul\":14034:14038   */\n      0x20\n        /* \"#utility.yul\":14027:14032   */\n      dup5\n        /* \"#utility.yul\":14023:14039   */\n      add\n        /* \"#utility.yul\":14018:14021   */\n      dup6\n        /* \"#utility.yul\":14012:14048   */\n      mcopy\n        /* \"#utility.yul\":14103:14104   */\n      0x00\n        /* \"#utility.yul\":14067:14083   */\n      swap4\n      add\n        /* \"#utility.yul\":14092:14105   */\n      swap3\n      dup4\n      mstore\n      pop\n        /* \"#utility.yul\":14067:14083   */\n      swap1\n      swap2\n        /* \"#utility.yul\":13917:14129   */\n      swap1\n      pop\n      jump\t// out\n        /* \"#utility.yul\":14134:14326   */\n    tag_335:\n        /* \"#utility.yul\":14265:14268   */\n      0x00\n        /* \"#utility.yul\":14290:14320   */\n      tag_378\n        /* \"#utility.yul\":14316:14319   */\n      dup3\n        /* \"#utility.yul\":14308:14314   */\n      dup5\n        /* \"#utility.yul\":14290:14320   */\n      tag_900\n      jump\t// in\n        /* \"#utility.yul\":15275:15488   */\n    tag_377:\n        /* \"#utility.yul\":15310:15313   */\n      0x00\n        /* \"#utility.yul\":15358:15363   */\n      dup2\n        /* \"#utility.yul\":15354:15356   */\n      0x0f\n        /* \"#utility.yul\":15343:15364   */\n      signextend\n      sub(shl(0x7f, 0x01), 0x01)\n        /* \"#utility.yul\":15388:15427   */\n      not\n        /* \"#utility.yul\":15379:15386   */\n      dup2\n        /* \"#utility.yul\":15376:15428   */\n      sub\n        /* \"#utility.yul\":15373:15451   */\n      tag_1030\n      jumpi\n        /* \"#utility.yul\":15431:15449   */\n      tag_1030\n      tag_897\n      jump\t// in\n    tag_1030:\n        /* \"#utility.yul\":15471:15472   */\n      0x00\n        /* \"#utility.yul\":15467:15482   */\n      sub\n      swap3\n        /* \"#utility.yul\":15275:15488   */\n      swap2\n      pop\n      pop\n      jump\t// out\n        /* \"#utility.yul\":15493:15742   */\n    tag_379:\n        /* \"#utility.yul\":15593:15595   */\n      0x0f\n        /* \"#utility.yul\":15582:15599   */\n      dup3\n      dup2\n      signextend\n        /* \"#utility.yul\":15563:15580   */\n      swap1\n      dup3\n      swap1\n      signextend\n        /* \"#utility.yul\":15559:15600   */\n      sub\n      not(0x7fffffffffffffffffffffffffffffff)\n        /* \"#utility.yul\":15615:15665   */\n      dup2\n      slt\n      sub(shl(0x7f, 0x01), 0x01)\n        /* \"#utility.yul\":15667:15712   */\n      dup3\n      sgt\n        /* \"#utility.yul\":15612:15713   */\n      or\n        /* \"#utility.yul\":15609:15736   */\n      iszero\n      tag_181\n      jumpi\n        /* \"#utility.yul\":15716:15734   */\n      tag_181\n      tag_897\n      jump\t// in\n        /* \"#utility.yul\":15747:15882   */\n    tag_442:\n        /* \"#utility.yul\":15786:15789   */\n      0x00\n        /* \"#utility.yul\":15807:15824   */\n      0x01\n      dup3\n      add\n        /* \"#utility.yul\":15804:15847   */\n      tag_1036\n      jumpi\n        /* \"#utility.yul\":15827:15845   */\n      tag_1036\n      tag_897\n      jump\t// in\n    tag_1036:\n      pop\n        /* \"#utility.yul\":15874:15875   */\n      0x01\n        /* \"#utility.yul\":15863:15876   */\n      add\n      swap1\n        /* \"#utility.yul\":15747:15882   */\n      jump\t// out\n        /* \"#utility.yul\":17600:17779   */\n    tag_495:\n        /* \"#utility.yul\":17635:17638   */\n      0x00\n        /* \"#utility.yul\":17677:17678   */\n      0x03\n        /* \"#utility.yul\":17659:17675   */\n      returndatasize\n        /* \"#utility.yul\":17656:17679   */\n      gt\n        /* \"#utility.yul\":17653:17773   */\n      iszero\n      tag_207\n      jumpi\n        /* \"#utility.yul\":17723:17724   */\n      0x04\n        /* \"#utility.yul\":17720:17721   */\n      0x00\n        /* \"#utility.yul\":17717:17718   */\n      dup1\n        /* \"#utility.yul\":17702:17725   */\n      returndatacopy\n      pop\n        /* \"#utility.yul\":17760:17761   */\n      0x00\n        /* \"#utility.yul\":17754:17762   */\n      mload\n        /* \"#utility.yul\":17749:17752   */\n      0xe0\n        /* \"#utility.yul\":17745:17763   */\n      shr\n        /* \"#utility.yul\":17600:17779   */\n      swap1\n      jump\t// out\n        /* \"#utility.yul\":17784:18455   */\n    tag_497:\n        /* \"#utility.yul\":17823:17826   */\n      0x00\n        /* \"#utility.yul\":17865:17869   */\n      0x44\n        /* \"#utility.yul\":17847:17863   */\n      returndatasize\n        /* \"#utility.yul\":17844:17870   */\n      lt\n        /* \"#utility.yul\":17841:17880   */\n      iszero\n      tag_1044\n      jumpi\n        /* \"#utility.yul\":17784:18455   */\n      swap1\n      jump\t// out\n        /* \"#utility.yul\":17841:17880   */\n    tag_1044:\n        /* \"#utility.yul\":17907:17909   */\n      0x40\n        /* \"#utility.yul\":17901:17910   */\n      mload\n      not(0x03)\n        /* \"#utility.yul\":17972:17988   */\n      returndatasize\n        /* \"#utility.yul\":17968:17993   */\n      dup2\n      add\n        /* \"#utility.yul\":17965:17966   */\n      0x04\n        /* \"#utility.yul\":17901:17910   */\n      dup4\n        /* \"#utility.yul\":17944:17994   */\n      returndatacopy\n        /* \"#utility.yul\":18023:18027   */\n      dup2\n        /* \"#utility.yul\":18017:18028   */\n      mload\n        /* \"#utility.yul\":18047:18063   */\n      returndatasize\n        /* \"#utility.yul\":18082:18100   */\n      0xffffffffffffffff\n        /* \"#utility.yul\":18153:18155   */\n      dup2\n        /* \"#utility.yul\":18146:18150   */\n      0x24\n        /* \"#utility.yul\":18138:18144   */\n      dup5\n        /* \"#utility.yul\":18134:18151   */\n      add\n        /* \"#utility.yul\":18131:18156   */\n      gt\n        /* \"#utility.yul\":18126:18128   */\n      dup2\n        /* \"#utility.yul\":18118:18124   */\n      dup5\n        /* \"#utility.yul\":18115:18129   */\n      gt\n        /* \"#utility.yul\":18112:18157   */\n      or\n        /* \"#utility.yul\":18109:18167   */\n      iszero\n      tag_1045\n      jumpi\n        /* \"#utility.yul\":18160:18165   */\n      pop\n      pop\n      pop\n      pop\n      pop\n        /* \"#utility.yul\":17784:18455   */\n      swap1\n      jump\t// out\n        /* \"#utility.yul\":18109:18167   */\n    tag_1045:\n        /* \"#utility.yul\":18197:18203   */\n      dup3\n        /* \"#utility.yul\":18191:18195   */\n      dup6\n        /* \"#utility.yul\":18187:18204   */\n      add\n        /* \"#utility.yul\":18176:18204   */\n      swap2\n      pop\n        /* \"#utility.yul\":18233:18236   */\n      dup2\n        /* \"#utility.yul\":18227:18237   */\n      mload\n        /* \"#utility.yul\":18260:18262   */\n      dup2\n        /* \"#utility.yul\":18252:18258   */\n      dup2\n        /* \"#utility.yul\":18249:18263   */\n      gt\n        /* \"#utility.yul\":18246:18273   */\n      iszero\n      tag_1046\n      jumpi\n        /* \"#utility.yul\":18266:18271   */\n      pop\n      pop\n      pop\n      pop\n      pop\n      pop\n        /* \"#utility.yul\":17784:18455   */\n      swap1\n      jump\t// out\n        /* \"#utility.yul\":18246:18273   */\n    tag_1046:\n        /* \"#utility.yul\":18350:18352   */\n      dup5\n        /* \"#utility.yul\":18331:18347   */\n      returndatasize\n        /* \"#utility.yul\":18325:18329   */\n      dup8\n        /* \"#utility.yul\":18321:18348   */\n      add\n        /* \"#utility.yul\":18317:18353   */\n      add\n        /* \"#utility.yul\":18310:18314   */\n      0x20\n        /* \"#utility.yul\":18301:18307   */\n      dup3\n        /* \"#utility.yul\":18296:18299   */\n      dup6\n        /* \"#utility.yul\":18292:18308   */\n      add\n        /* \"#utility.yul\":18288:18315   */\n      add\n        /* \"#utility.yul\":18285:18354   */\n      gt\n        /* \"#utility.yul\":18282:18364   */\n      iszero\n      tag_1047\n      jumpi\n        /* \"#utility.yul\":18357:18362   */\n      pop\n      pop\n      pop\n      pop\n      pop\n      pop\n        /* \"#utility.yul\":17784:18455   */\n      swap1\n      jump\t// out\n        /* \"#utility.yul\":18282:18364   */\n    tag_1047:\n        /* \"#utility.yul\":18373:18430   */\n      tag_436\n        /* \"#utility.yul\":18424:18428   */\n      0x20\n        /* \"#utility.yul\":18415:18421   */\n      dup3\n        /* \"#utility.yul\":18407:18413   */\n      dup7\n        /* \"#utility.yul\":18403:18422   */\n      add\n        /* \"#utility.yul\":18399:18429   */\n      add\n        /* \"#utility.yul\":18393:18397   */\n      dup8\n        /* \"#utility.yul\":18373:18430   */\n      tag_893\n      jump\t// in\n        /* \"#utility.yul\":18460:18760   */\n    tag_901:\n        /* \"#utility.yul\":18513:18516   */\n      0x00\n        /* \"#utility.yul\":18551:18556   */\n      dup2\n        /* \"#utility.yul\":18545:18557   */\n      mload\n        /* \"#utility.yul\":18578:18584   */\n      dup1\n        /* \"#utility.yul\":18573:18576   */\n      dup5\n        /* \"#utility.yul\":18566:18585   */\n      mstore\n        /* \"#utility.yul\":18634:18640   */\n      dup1\n        /* \"#utility.yul\":18627:18631   */\n      0x20\n        /* \"#utility.yul\":18620:18625   */\n      dup5\n        /* \"#utility.yul\":18616:18632   */\n      add\n        /* \"#utility.yul\":18609:18613   */\n      0x20\n        /* \"#utility.yul\":18604:18607   */\n      dup7\n        /* \"#utility.yul\":18600:18614   */\n      add\n        /* \"#utility.yul\":18594:18641   */\n      mcopy\n        /* \"#utility.yul\":18686:18687   */\n      0x00\n        /* \"#utility.yul\":18679:18683   */\n      0x20\n        /* \"#utility.yul\":18670:18676   */\n      dup3\n        /* \"#utility.yul\":18665:18668   */\n      dup7\n        /* \"#utility.yul\":18661:18677   */\n      add\n        /* \"#utility.yul\":18657:18684   */\n      add\n        /* \"#utility.yul\":18650:18688   */\n      mstore\n        /* \"#utility.yul\":18749:18753   */\n      0x20\n        /* \"#utility.yul\":18742:18744   */\n      0x1f\n        /* \"#utility.yul\":18738:18745   */\n      not\n        /* \"#utility.yul\":18733:18735   */\n      0x1f\n        /* \"#utility.yul\":18725:18731   */\n      dup4\n        /* \"#utility.yul\":18721:18736   */\n      add\n        /* \"#utility.yul\":18717:18746   */\n      and\n        /* \"#utility.yul\":18712:18715   */\n      dup6\n        /* \"#utility.yul\":18708:18747   */\n      add\n        /* \"#utility.yul\":18704:18754   */\n      add\n        /* \"#utility.yul\":18697:18754   */\n      swap2\n      pop\n      pop\n        /* \"#utility.yul\":18460:18760   */\n      swap3\n      swap2\n      pop\n      pop\n      jump\t// out\n        /* \"#utility.yul\":18765:19241   */\n    tag_500:\n        /* \"#utility.yul\":19015:19017   */\n      0x40\n        /* \"#utility.yul\":19004:19013   */\n      dup2\n        /* \"#utility.yul\":18997:19018   */\n      mstore\n        /* \"#utility.yul\":19054:19056   */\n      0x17\n        /* \"#utility.yul\":19049:19051   */\n      0x40\n        /* \"#utility.yul\":19038:19047   */\n      dup3\n        /* \"#utility.yul\":19034:19052   */\n      add\n        /* \"#utility.yul\":19027:19057   */\n      mstore\n        /* \"#utility.yul\":19093:19118   */\n      0x736166655472616e7366657246726f6d206661696c6564000000000000000000\n        /* \"#utility.yul\":19088:19090   */\n      0x60\n        /* \"#utility.yul\":19077:19086   */\n      dup3\n        /* \"#utility.yul\":19073:19091   */\n      add\n        /* \"#utility.yul\":19066:19119   */\n      mstore\n        /* \"#utility.yul\":19157:19160   */\n      0x80\n        /* \"#utility.yul\":19150:19154   */\n      0x20\n        /* \"#utility.yul\":19139:19148   */\n      dup3\n        /* \"#utility.yul\":19135:19155   */\n      add\n        /* \"#utility.yul\":19128:19161   */\n      mstore\n        /* \"#utility.yul\":18978:18982   */\n      0x00\n        /* \"#utility.yul\":19178:19235   */\n      tag_378\n        /* \"#utility.yul\":19230:19233   */\n      0x80\n        /* \"#utility.yul\":19219:19228   */\n      dup4\n        /* \"#utility.yul\":19215:19234   */\n      add\n        /* \"#utility.yul\":19207:19213   */\n      dup5\n        /* \"#utility.yul\":19178:19235   */\n      tag_901\n      jump\t// in\n        /* \"#utility.yul\":19246:19597   */\n    tag_502:\n        /* \"#utility.yul\":19508:19535   */\n      0x736166655472616e7366657246726f6d206661696c65643a2000000000000000\n        /* \"#utility.yul\":19503:19506   */\n      dup2\n        /* \"#utility.yul\":19496:19536   */\n      mstore\n        /* \"#utility.yul\":19478:19481   */\n      0x00\n        /* \"#utility.yul\":19552:19591   */\n      tag_378\n        /* \"#utility.yul\":19587:19589   */\n      0x19\n        /* \"#utility.yul\":19582:19585   */\n      dup4\n        /* \"#utility.yul\":19578:19590   */\n      add\n        /* \"#utility.yul\":19570:19576   */\n      dup5\n        /* \"#utility.yul\":19552:19591   */\n      tag_900\n      jump\t// in\n        /* \"#utility.yul\":19602:19833   */\n    tag_504:\n        /* \"#utility.yul\":19751:19753   */\n      0x20\n        /* \"#utility.yul\":19740:19749   */\n      dup2\n        /* \"#utility.yul\":19733:19754   */\n      mstore\n        /* \"#utility.yul\":19714:19718   */\n      0x00\n        /* \"#utility.yul\":19771:19827   */\n      tag_378\n        /* \"#utility.yul\":19823:19825   */\n      0x20\n        /* \"#utility.yul\":19812:19821   */\n      dup4\n        /* \"#utility.yul\":19808:19826   */\n      add\n        /* \"#utility.yul\":19800:19806   */\n      dup5\n        /* \"#utility.yul\":19771:19827   */\n      tag_901\n      jump\t// in\n        /* \"#utility.yul\":19838:20451   */\n    tag_527:\n      sub(shl(0xa0, 0x01), 0x01)\n        /* \"#utility.yul\":20149:20155   */\n      dup7\n        /* \"#utility.yul\":20145:20200   */\n      and\n        /* \"#utility.yul\":20134:20143   */\n      dup2\n        /* \"#utility.yul\":20127:20201   */\n      mstore\n        /* \"#utility.yul\":20237:20243   */\n      dup5\n        /* \"#utility.yul\":20232:20234   */\n      0x20\n        /* \"#utility.yul\":20221:20230   */\n      dup3\n        /* \"#utility.yul\":20217:20235   */\n      add\n        /* \"#utility.yul\":20210:20244   */\n      mstore\n        /* \"#utility.yul\":20280:20286   */\n      dup4\n        /* \"#utility.yul\":20275:20277   */\n      0x40\n        /* \"#utility.yul\":20264:20273   */\n      dup3\n        /* \"#utility.yul\":20260:20278   */\n      add\n        /* \"#utility.yul\":20253:20287   */\n      mstore\n        /* \"#utility.yul\":20323:20326   */\n      0xa0\n        /* \"#utility.yul\":20318:20320   */\n      0x60\n        /* \"#utility.yul\":20307:20316   */\n      dup3\n        /* \"#utility.yul\":20303:20321   */\n      add\n        /* \"#utility.yul\":20296:20327   */\n      mstore\n        /* \"#utility.yul\":20108:20112   */\n      0x00\n        /* \"#utility.yul\":20344:20401   */\n      tag_1057\n        /* \"#utility.yul\":20396:20399   */\n      0xa0\n        /* \"#utility.yul\":20385:20394   */\n      dup4\n        /* \"#utility.yul\":20381:20400   */\n      add\n        /* \"#utility.yul\":20373:20379   */\n      dup6\n        /* \"#utility.yul\":20344:20401   */\n      tag_894\n      jump\t// in\n    tag_1057:\n        /* \"#utility.yul\":20336:20401   */\n      swap1\n      pop\n        /* \"#utility.yul\":20438:20444   */\n      dup3\n        /* \"#utility.yul\":20432:20435   */\n      0x80\n        /* \"#utility.yul\":20421:20430   */\n      dup4\n        /* \"#utility.yul\":20417:20436   */\n      add\n        /* \"#utility.yul\":20410:20445   */\n      mstore\n        /* \"#utility.yul\":19838:20451   */\n      swap7\n      swap6\n      pop\n      pop\n      pop\n      pop\n      pop\n      pop\n      jump\t// out\n        /* \"#utility.yul\":20456:20733   */\n    tag_555:\n        /* \"#utility.yul\":20523:20529   */\n      0x00\n        /* \"#utility.yul\":20576:20578   */\n      0x20\n        /* \"#utility.yul\":20564:20573   */\n      dup3\n        /* \"#utility.yul\":20555:20562   */\n      dup5\n        /* \"#utility.yul\":20551:20574   */\n      sub\n        /* \"#utility.yul\":20547:20579   */\n      slt\n        /* \"#utility.yul\":20544:20596   */\n      iszero\n      tag_1059\n      jumpi\n        /* \"#utility.yul\":20592:20593   */\n      0x00\n        /* \"#utility.yul\":20589:20590   */\n      dup1\n        /* \"#utility.yul\":20582:20594   */\n      revert\n        /* \"#utility.yul\":20544:20596   */\n    tag_1059:\n        /* \"#utility.yul\":20624:20633   */\n      dup2\n        /* \"#utility.yul\":20618:20634   */\n      mload\n        /* \"#utility.yul\":20677:20682   */\n      dup1\n        /* \"#utility.yul\":20670:20683   */\n      iszero\n        /* \"#utility.yul\":20663:20684   */\n      iszero\n        /* \"#utility.yul\":20656:20661   */\n      dup2\n        /* \"#utility.yul\":20653:20685   */\n      eq\n        /* \"#utility.yul\":20643:20703   */\n      tag_378\n      jumpi\n        /* \"#utility.yul\":20699:20700   */\n      0x00\n        /* \"#utility.yul\":20696:20697   */\n      dup1\n        /* \"#utility.yul\":20689:20701   */\n      revert\n        /* \"#utility.yul\":21762:21889   */\n    tag_655:\n        /* \"#utility.yul\":21823:21833   */\n      0x4e487b71\n        /* \"#utility.yul\":21818:21821   */\n      0xe0\n        /* \"#utility.yul\":21814:21834   */\n      shl\n        /* \"#utility.yul\":21811:21812   */\n      0x00\n        /* \"#utility.yul\":21804:21835   */\n      mstore\n        /* \"#utility.yul\":21854:21858   */\n      0x12\n        /* \"#utility.yul\":21851:21852   */\n      0x04\n        /* \"#utility.yul\":21844:21859   */\n      mstore\n        /* \"#utility.yul\":21878:21882   */\n      0x24\n        /* \"#utility.yul\":21875:21876   */\n      0x00\n        /* \"#utility.yul\":21868:21883   */\n      revert\n\n    auxdata: 0xa2646970667358221220a69ccd24ccc6d8862c83d2c180f0bdf94d9cf0090ba42cf554b0ddc3fcc5173664736f6c63430008190033\n}\n",
    "bytecode": {
      "linkReferences": {},
      "object": "6080604052602a600955348015610014575f80fd5b5060405161487b38038061487b83398101604081905261003391610107565b806001600160a01b03811661006157604051631e4fbdf760e01b81525f600482015260240160405180910390fd5b61006a8161009d565b5050600780546001600160a01b039384166001600160a01b03199182161790915560088054929093169116179055610147565b5f80546001600160a01b038381166001600160a01b0319831681178455604051919092169283917f8be0079c531659141344cd1fd0a4f28419497f9722a3daafe3b4186f6b6457e09190a35050565b80516001600160a01b0381168114610102575f80fd5b919050565b5f805f60608486031215610119575f80fd5b610122846100ec565b9250610130602085016100ec565b915061013e604085016100ec565b90509250925092565b614727806101545f395ff3fe608060405234801561000f575f80fd5b506004361061021b575f3560e01c80638767d64e11610123578063c5031331116100b8578063e1fc230511610088578063f2fde38b1161006e578063f2fde38b1461049f578063f76da1d9146104b2578063fc0c546a146104c5575f80fd5b8063e1fc230514610477578063f23a6e611461047f575f80fd5b8063c50313311461043a578063cd6bd6db14610443578063d8fdb38614610457578063df7bd8fc14610464575f80fd5b80638da5cb5b116100f35780638da5cb5b146103b5578063ae92a93d146103d9578063bb6f593e146103ec578063bc197c81146103ff575f80fd5b80638767d64e146103705780638ac40792146103795780638d0a6cff146103825780638d36627b146103a2575f80fd5b80634a4f72e1116101b357806352fdfecc11610183578063715018a611610169578063715018a61461034a5780638062dd93146103525780638364dfef14610365575f80fd5b806352fdfecc1461032f5780635df45a3714610342575f80fd5b80634a4f72e1146102ce5780634c395cc4146102e1578063519f5099146102f457806351c6590a1461031c575f80fd5b80633ccfd60b116101ee5780633ccfd60b1461029657806340088ee1146102a057806346156ea0146102b3578063476343ee146102c6575f80fd5b806301ffc9a71461021f578063054454051461024757806310f8625a1461026857806313faede61461028e575b5f80fd5b61023261022d366004613ef7565b505f90565b60405190151581526020015b60405180910390f35b61025a610255366004613f45565b6104d8565b60405190815260200161023e565b61027b610276366004613f76565b6105e9565b604051600f9190910b815260200161023e565b61027b61066c565b61029e610713565b005b61025a6102ae366004613f45565b610964565b61027b6102c1366004613f9e565b610a37565b61029e610adc565b61029e6102dc366004613fb5565b610c4d565b61025a6102ef36600461403c565b610f66565b610307610302366004613f9e565b610f95565b6040805192835260208301919091520161023e565b61029e61032a366004613f9e565b61114f565b61027b61033d3660046140cf565b6112c3565b61025a6112ef565b61029e6113a8565b61027b6103603660046140cf565b6113bb565b600354600f0b61027b565b61025a60015481565b61025a60095481565b610395610390366004613f9e565b61154a565b60405161023e919061412a565b61025a6103b0366004613f45565b611642565b5f546001600160a01b03165b6040516001600160a01b03909116815260200161023e565b61027b6103e73660046140cf565b611714565b61027b6103fa366004613f9e565b61222a565b61042161040d3660046141c2565b63bc197c8160e01b98975050505050505050565b6040516001600160e01b0319909116815260200161023e565b61025a60065481565b60045461027b90600160801b9004600f0b81565b60055461027b90600f0b81565b61027b6104723660046140cf565b6122c0565b6103076122e3565b61042161048d366004614275565b63f23a6e6160e01b9695505050505050565b61029e6104ad3660046142e8565b61237f565b61027b6104c03660046140cf565b6123b9565b6008546103c1906001600160a01b031681565b5f80836001600160a01b031663313ce5676040518163ffffffff1660e01b8152600401602060405180830381865afa158015610516573d5f803e3d5ffd5b505050506040513d601f19601f8201168201806040525081019061053a9190614301565b60ff1690505f61054b82600a614415565b90505f84600f0b12156105a55760405162461bcd60e51b815260206004820152601b60248201527f416d6f756e74206d757374206265206e6f6e2d6e65676174697665000000000060448201526064015b60405180910390fd5b5f6105b085836127de565b90505f6105bd8684612853565b67ffffffffffffffff16600f0b13156105de576105db600182614420565b90505b925050505b92915050565b5f80836001600160a01b031663313ce5676040518163ffffffff1660e01b8152600401602060405180830381865afa158015610627573d5f803e3d5ffd5b505050506040513d601f19601f8201168201806040525081019061064b9190614301565b60ff1690506106648361065f83600a614415565b612891565b949350505050565b6008545f90600160a01b900460ff161515600114610688575f80fd5b5f805b6001548110156106f3576106e9826106e46106df600285815481106106b2576106b2614433565b5f918252602090912060028204015460035460019092166010026101000a9004600f90810b91900b6128c6565b612921565b612978565b915060010161068b565b5060035461070c90600f0b610707836129b2565b612853565b9150505b90565b600854600160a01b900460ff16151560011461072d575f80fd5b6107356129ea565b60075460065460405163dd34de6760e01b81526001600160a01b039092169163dd34de679161076a9160040190815260200190565b602060405180830381865afa158015610785573d5f803e3d5ffd5b505050506040513d601f19601f820116820180604052508101906107a99190614447565b5f036107f75760405162461bcd60e51b815260206004820152601b60248201527f4d61726b6574206e6565647320746f206265207265736f6c7665640000000000604482015260640161059c565b5f60015467ffffffffffffffff81111561081357610813613ffb565b60405190808252806020026020018201604052801561083c578160200160208202803683370190505b5090505f5b60015481101561087557806001901b82828151811061086257610862614433565b6020908102919091010152600101610841565b50600754600854600654604051626dc0df60e21b81526001600160a01b03938416936301b7037c936108b1939116915f9190879060040161445e565b5f604051808303815f87803b1580156108c8575f80fd5b505af11580156108da573d5f803e3d5ffd5b50506008546040516370a0823160e01b815230600482015261096193503392506001600160a01b03909116906370a0823190602401602060405180830381865afa15801561092a573d5f803e3d5ffd5b505050506040513d601f19601f8201168201806040525081019061094e9190614447565b6008546001600160a01b03169190612a16565b50565b5f80836001600160a01b031663313ce5676040518163ffffffff1660e01b8152600401602060405180830381865afa1580156109a2573d5f803e3d5ffd5b505050506040513d601f19601f820116820180604052508101906109c69190614301565b60ff1690505f6109d782600a614415565b90505f84600f0b1215610a2c5760405162461bcd60e51b815260206004820152601b60248201527f416d6f756e74206d757374206265206e6f6e2d6e656761746976650000000000604482015260640161059c565b5f6105db85836127de565b5f6001548210610a815760405162461bcd60e51b8152602060048201526015602482015274092dcecc2d8d2c840deeae8c6dedaca40d2dcc8caf605b1b604482015260640161059c565b5f610a9b6106df600285815481106106b2576106b2614433565b90505f805b600154811015610ad157610ac7826106e46106df600285815481106106b2576106b2614433565b9150600101610aa0565b5061066482826128c6565b610ae46129ea565b6008546040516370a0823160e01b81523060048201525f916001600160a01b0316906370a0823190602401602060405180830381865afa158015610b2a573d5f803e3d5ffd5b505050506040513d601f19601f82011682018060405250810190610b4e9190614447565b6008546003549192505f91610b76916001600160a01b031690600160801b9004600f0b610964565b9050808211610bc75760405162461bcd60e51b815260206004820152601360248201527f4e6f206665657320746f20776974686472617700000000000000000000000000604482015260640161059c565b5f610bd2828461448b565b9050610bfb610be85f546001600160a01b031690565b6008546001600160a01b03169083612a16565b5f546001600160a01b03166001600160a01b03167fc0819c13be868895eb93e40eaceb96de976442fa1d404e5c55f14bb65a8c489a82604051610c4091815260200190565b60405180910390a2505050565b610c556129ea565b600854600160a01b900460ff1615610caf5760405162461bcd60e51b815260206004820152600c60248201527f416c726561647920696e69740000000000000000000000000000000000000000604482015260640161059c565b5f8111610cfe5760405162461bcd60e51b815260206004820152601760248201527f43616e6e6f7420686176652030206f766572726f756e64000000000000000000604482015260640161059c565b60075460405163365bb9d560e21b81526001600160a01b03888116600483015260248201889052604482018790529091169063d96ee754906064015f604051808303815f87803b158015610d50575f80fd5b505af1158015610d62573d5f803e3d5ffd5b5050600754604051634296357160e11b81526001600160a01b038a81166004830152602482018a905260448201899052909116925063852c6ae29150606401602060405180830381865afa158015610dbc573d5f803e3d5ffd5b505050506040513d601f19601f82011682018060405250810190610de09190614447565b60065560018490555f610df285612a8f565b6008549091505f90610e0d906001600160a01b0316866105e9565b600380546001600160801b0319166001600160801b038316179055600854909150610e43906001600160a01b0316333087612aab565b5f5b86811015610ea55760028054600180820183555f8390527f405787fa12a823e0f2b7631cc41b3ba8828b3321ca811111fa75cd3aa3bb5ace9282049290920180549183166010026101000a6001600160801b030219909116905501610e45565b50600880547fffffffffffffffffffffff00ffffffffffffffffffffffffffffffffffffffff16600160a01b179055600454610eeb90600160801b9004600f0b83612853565b600480546001600160801b0319166001600160801b0392909216919091179055610f1361066c565b600380546001600160801b03928316600160801b029216919091179055610f3c83612710612891565b600580546001600160801b0319166001600160801b03929092169190911790555050505050505050565b5f81604051602001610f7891906144b5565b604051602081830303815290604052805190602001209050919050565b5f806001548310610fe05760405162461bcd60e51b8152602060048201526015602482015274092dcecc2d8d2c840deeae8c6dedaca40d2dcc8caf605b1b604482015260640161059c565b60075460065460405163856296f760e01b81525f6004820181905260248201929092526001861b604482015290916001600160a01b03169063856296f790606401602060405180830381865afa15801561103c573d5f803e3d5ffd5b505050506040513d601f19601f820116820180604052508101906110609190614447565b60075460085460405163039dd75360e41b81526001600160a01b0391821660048201526024810184905292935016906339dd753090604401602060405180830381865afa1580156110b3573d5f803e3d5ffd5b505050506040513d601f19601f820116820180604052508101906110d79190614447565b600754604051627eeac760e11b8152306004820152602481018390529194506001600160a01b03169062fdd58e90604401602060405180830381865afa158015611123573d5f803e3d5ffd5b505050506040513d601f19601f820116820180604052508101906111479190614447565b915050915091565b6111576129ea565b60085461116f906001600160a01b0316333084612aab565b6008545f90611187906001600160a01b0316836105e9565b90505f5b600154811015611220576111d2600282815481106111ab576111ab614433565b905f5260205f2090600291828204019190066010029054906101000a9004600f0b83612978565b600282815481106111e5576111e5614433565b5f9182526020909120600282040180546001600160801b0393841660106001948516026101000a90810294021916929092179091550161118b565b5060045460015461123e91600f0b906106e490849061070790612a8f565b600480546001600160801b0319166001600160801b039290921691909117905561126661066c565b600380546001600160801b03928316600160801b02921691909117905560405133907fc17cea59c2955cb181b03393209566960365771dbba9dc3d510180e7cb312088906112b79085815260200190565b60405180910390a25050565b5f6112d183610360846144c0565b6003546112e89190600160801b9004600f0b6144e4565b9392505050565b6008546040516370a0823160e01b81523060048201525f9182916001600160a01b03909116906370a0823190602401602060405180830381865afa158015611339573d5f803e3d5ffd5b505050506040513d601f19601f8201168201806040525081019061135d9190614447565b6008546003549192505f91611385916001600160a01b031690600160801b9004600f0b610964565b9050808211156113a057611399818361448b565b9250505090565b5f9250505090565b6113b06129ea565b6113b95f612aea565b565b5f805f60028054905067ffffffffffffffff8111156113dc576113dc613ffb565b604051908082528060200260200182016040528015611405578160200160208202803683370190505b50600354909150600f0b5f5b6001548110156114f1576001811b87161561148e576114636002828154811061143c5761143c614433565b905f5260205f2090600291828204019190066010029054906101000a9004600f0b87612978565b83828151811061147557611475614433565b6020026020010190600f0b9081600f0b815250506114e9565b600281815481106114a1576114a1614433565b905f5260205f2090600291828204019190066010029054906101000a9004600f0b8382815181106114d4576114d4614433565b6020026020010190600f0b9081600f0b815250505b600101611411565b505f5b60015481101561153257611528846106e46106df86858151811061151a5761151a614433565b6020026020010151866128c6565b93506001016114f4565b5061154081610707856129b2565b9695505050505050565b60605f600180546001901b61155f919061448b565b90506001831b81185f61157182612b51565b61157c906001614420565b67ffffffffffffffff81111561159457611594613ffb565b6040519080825280602002602001820160405280156115bd578160200160208202803683370190505b5090505f60019050856001901b825f815181106115dc576115dc614433565b6020026020010181815250505f5b600154811015611637576001811b84161561162f57806001901b83838151811061161657611616614433565b60209081029190910101528161162b8161451a565b9250505b6001016115ea565b509095945050505050565b5f80836001600160a01b031663313ce5676040518163ffffffff1660e01b8152600401602060405180830381865afa158015611680573d5f803e3d5ffd5b505050506040513d601f19601f820116820180604052508101906116a49190614301565b60ff1690505f6116b582600a614415565b90505f84600f0b121561170a5760405162461bcd60e51b815260206004820152601b60248201527f416d6f756e74206d757374206265206e6f6e2d6e656761746976650000000000604482015260640161059c565b6105de84826127de565b6008545f90600160a01b900460ff161515600114611730575f80fd5b60015483106117795760405162461bcd60e51b8152602060048201526015602482015274092dcecc2d8d2c840deeae8c6dedaca40d2dcc8caf605b1b604482015260640161059c565b5f82600f0b136117cb5760405162461bcd60e51b815260206004820152601760248201527f416d6f756e74206d75737420626520706f736974697665000000000000000000604482015260640161059c565b60075460065460405163dd34de6760e01b81526001600160a01b039092169163dd34de67916118009160040190815260200190565b602060405180830381865afa15801561181b573d5f803e3d5ffd5b505050506040513d601f19601f8201168201806040525081019061183f9190614447565b1561188c5760405162461bcd60e51b815260206004820152601760248201527f4d61726b657420616c7265616479207265736f6c766564000000000000000000604482015260640161059c565b81600f0b600284815481106118a3576118a3614433565b5f918252602090912060028204015460019091166010026101000a9004600f0b12156119115760405162461bcd60e51b815260206004820152601960248201527f4e6f7420656e6f7567682073686172657320746f2073656c6c00000000000000604482015260640161059c565b5f805f6119ac600280548060200260200160405190810160405280929190818152602001828054801561198357602002820191905f5260205f20905f905b825461010083900a9004600f0b81526020601f830181900493840193600103601090930192909202910180841161194f5790505b50506004546003546001548d95508c9450600f92830b9350600160801b90910490910b90612b7f565b60085492955090935091505f906119cc906001600160a01b031687611642565b60075460085460065460405163856296f760e01b81525f60048201819052602482019290925260018c1b6044820152939450926001600160a01b03928316926339dd7530921690839063856296f790606401602060405180830381865afa158015611a39573d5f803e3d5ffd5b505050506040513d601f19601f82011682018060405250810190611a5d9190614447565b6040516001600160e01b031960e085901b1681526001600160a01b0390921660048301526024820152604401602060405180830381865afa158015611aa4573d5f803e3d5ffd5b505050506040513d601f19601f82011682018060405250810190611ac89190614447565b600754604051637921219560e11b8152336004820152306024820152604481018390526064810185905260a060848201525f60a48201529192506001600160a01b03169063f242432a9060c4015f604051808303815f87803b158015611b2c575f80fd5b505af1925050508015611b3d575060015b611be057611b49614532565b806308c379a003611bd65750611b5d61454a565b80611b685750611bd8565b7fbd1dcaeca35ae4a65142e160b7e80d67e7d37f2145f209d9c29b7e4daf85ba3781604051611b9791906145f6565b60405180910390a180604051602001611bb0919061463c565b60408051601f198184030181529082905262461bcd60e51b825261059c9160040161466d565b505b3d5f803e3d5ffd5b5f611bea8961154a565b905060015f5b8251811015611dab5760075460085460065485515f936001600160a01b03908116936339dd753093911691849163856296f7918791908b908a908110611c3857611c38614433565b60200260200101516040518463ffffffff1660e01b8152600401611c6f939291909283526020830191909152604082015260600190565b602060405180830381865afa158015611c8a573d5f803e3d5ffd5b505050506040513d601f19601f82011682018060405250810190611cae9190614447565b6040516001600160e01b031960e085901b1681526001600160a01b0390921660048301526024820152604401602060405180830381865afa158015611cf5573d5f803e3d5ffd5b505050506040513d601f19601f82011682018060405250810190611d199190614447565b600754604051627eeac760e11b8152306004820152602481018390529192505f916001600160a01b039091169062fdd58e90604401602060405180830381865afa158015611d69573d5f803e3d5ffd5b505050506040513d601f19601f82011682018060405250810190611d8d9190614447565b905086811015611da1575f93505050611dab565b5050600101611bf0565b508015611e2257600754600854600654604051639e7212ad60e01b81526001600160a01b0393841693639e7212ad93611df0939116915f919088908b9060040161467f565b5f604051808303815f87803b158015611e07575f80fd5b505af1158015611e19573d5f803e3d5ffd5b50505050612139565b5f5b82518110156120cc5760075460085460065485515f936001600160a01b03908116936339dd753093911691849163856296f7918791908b908a908110611e6c57611e6c614433565b60200260200101516040518463ffffffff1660e01b8152600401611ea3939291909283526020830191909152604082015260600190565b602060405180830381865afa158015611ebe573d5f803e3d5ffd5b505050506040513d601f19601f82011682018060405250810190611ee29190614447565b6040516001600160e01b031960e085901b1681526001600160a01b0390921660048301526024820152604401602060405180830381865afa158015611f29573d5f803e3d5ffd5b505050506040513d601f19601f82011682018060405250810190611f4d9190614447565b600754604051627eeac760e11b8152306004820152602481018390529192505f916001600160a01b039091169062fdd58e90604401602060405180830381865afa158015611f9d573d5f803e3d5ffd5b505050506040513d601f19601f82011682018060405250810190611fc19190614447565b9050868110156120c2575f611fd6828961448b565b60085460075460405163095ea7b360e01b81526001600160a01b03918216600482015260248101849052929350169063095ea7b3906044016020604051808303815f875af115801561202a573d5f803e3d5ffd5b505050506040513d601f19601f8201168201806040525081019061204e91906146be565b506007546008546006546040516372ce427560e01b81526001600160a01b03938416936372ce42759361208d939116915f91908c90889060040161467f565b5f604051808303815f87803b1580156120a4575f80fd5b505af11580156120b6573d5f803e3d5ffd5b505050505050506120cc565b5050600101611e24565b50600754600854600654604051639e7212ad60e01b81526001600160a01b0393841693639e7212ad9361210b939116915f919088908b9060040161467f565b5f604051808303815f87803b158015612122575f80fd5b505af1158015612134573d5f803e3d5ffd5b505050505b61217660028b8154811061214f5761214f614433565b905f5260205f2090600291828204019190066010029054906101000a9004600f0b8a612ce0565b60028b8154811061218957612189614433565b5f918252602082206002820401805460019092166010026101000a6001600160801b03818102199093169483160293909317909255600480546001600160801b031916888416179055600380548316600160801b938b169390930292909217909155600854612201906001600160a01b031688611642565b60085490915061221b906001600160a01b03163383612a16565b50949998505050505050505050565b5f60015482106122745760405162461bcd60e51b8152602060048201526015602482015274092dcecc2d8d2c840deeae8c6dedaca40d2dcc8caf605b1b604482015260640161059c565b6105e36002838154811061228a5761228a614433565b905f5260205f2090600291828204019190066010029054906101000a9004600f0b600460109054906101000a9004600f0b612ce0565b6003545f90600160801b9004600f0b6122d984846113bb565b6112e891906144e4565b6008546040516370a0823160e01b81523060048201525f9182916001600160a01b03909116906370a0823190602401602060405180830381865afa15801561232d573d5f803e3d5ffd5b505050506040513d601f19601f820116820180604052508101906123519190614447565b600854600354919350612379916001600160a01b0390911690600160801b9004600f0b610964565b90509091565b6123876129ea565b6001600160a01b0381166123b057604051631e4fbdf760e01b81525f600482015260240161059c565b61096181612aea565b6008545f90600160a01b900460ff1615156001146123d5575f80fd5b600154831061241e5760405162461bcd60e51b8152602060048201526015602482015274092dcecc2d8d2c840deeae8c6dedaca40d2dcc8caf605b1b604482015260640161059c565b5f82600f0b136124705760405162461bcd60e51b815260206004820152601760248201527f416d6f756e74206d75737420626520706f736974697665000000000000000000604482015260640161059c565b60075460065460405163dd34de6760e01b81526001600160a01b039092169163dd34de67916124a59160040190815260200190565b602060405180830381865afa1580156124c0573d5f803e3d5ffd5b505050506040513d601f19601f820116820180604052508101906124e49190614447565b156125315760405162461bcd60e51b815260206004820152601760248201527f4d61726b657420616c7265616479207265736f6c766564000000000000000000604482015260640161059c565b5f805f6125cc60028054806020026020016040519081016040528092919081815260200182805480156125a357602002820191905f5260205f20905f905b825461010083900a9004600f0b81526020601f830181900493840193600103601090930192909202910180841161256f5790505b50506004546003546001548d95508c9450600f92830b9350600160801b90910490910b90612d1a565b9250925092505f6125eb6125e06001612a8f565b600554600f0b612978565b90505f6125f88483612853565b6008549091505f90612613906001600160a01b0316836104d8565b60408051828152600f85900b60208201529192507fbd58a27f98d614697f8a2d66c4c15779b5c06324bdc1f23994d9e5f93a537a4d910160405180910390a16008546040516323b872dd60e01b8152336004820152306024820152604481018390526001600160a01b03909116906323b872dd906064016020604051808303815f875af11580156126a6573d5f803e3d5ffd5b505050506040513d601f19601f820116820180604052508101906126ca91906146be565b6127165760405162461bcd60e51b815260206004820152601960248201527f4572726f72207472616e7366657272696e6720746f6b656e7300000000000000604482015260640161059c565b61275360028a8154811061272c5761272c614433565b905f5260205f2090600291828204019190066010029054906101000a9004600f0b89612978565b60028a8154811061276657612766614433565b5f91825260209091206002820401805460019092166010026101000a6001600160801b03818102199093169383160292909217909155600480546001600160801b031916868316179055600380548216600160801b928916929092029190911790556127d28989612e5c565b50979650505050505050565b5f815f036127ed57505f6105e3565b5f83600f0b12156127fc575f80fd5b600f83900b6001600160801b038316810260401c90608084901c0277ffffffffffffffffffffffffffffffffffffffffffffffff81111561283b575f80fd5b60401b811981111561284b575f80fd5b019392505050565b5f600f83810b9083900b0260401d6f7fffffffffffffffffffffffffffffff198112801590612889575060016001607f1b038113155b6112e8575f80fd5b5f815f0361289d575f80fd5b5f6128a884846131c0565b905060016001607f1b036001600160801b03821611156112e8575f80fd5b5f81600f0b5f036128d5575f80fd5b5f82600f0b604085600f0b901b816128ef576128ef6146dd565b0590506f7fffffffffffffffffffffffffffffff198112801590612889575060016001607f1b038113156112e8575f80fd5b5f6840000000000000000082600f0b12612939575f80fd5b683fffffffffffffffff1982600f0b121561295557505f919050565b6105e3608083600f0b700171547652b82fe1777d0ffda0d23a7d1202901d613330565b5f600f83810b9083900b016f7fffffffffffffffffffffffffffffff198112801590612889575060016001607f1b038113156112e8575f80fd5b5f8082600f0b136129c1575f80fd5b60806129cc83613db6565b600f0b6fb17217f7d1cf79abc9e3b39803f2f6af02901c9050919050565b5f546001600160a01b031633146113b95760405163118cdaa760e01b815233600482015260240161059c565b6040516001600160a01b03838116602483015260448201839052612a8a91859182169063a9059cbb906064015b604051602081830303815290604052915060e01b6020820180517bffffffffffffffffffffffffffffffffffffffffffffffffffffffff8381831617835250505050613e8b565b505050565b5f677fffffffffffffff821115612aa4575f80fd5b5060401b90565b6040516001600160a01b038481166024830152838116604483015260648201839052612ae49186918216906323b872dd90608401612a43565b50505050565b5f80546001600160a01b038381167fffffffffffffffffffffffff0000000000000000000000000000000000000000831681178455604051919092169283917f8be0079c531659141344cd1fd0a4f28419497f9722a3daafe3b4186f6b6457e09190a35050565b5f5b8115612b7a57612b6460018361448b565b9091169080612b728161451a565b915050612b53565b919050565b5f805f808467ffffffffffffffff811115612b9c57612b9c613ffb565b604051908082528060200260200182016040528015612bc5578160200160208202803683370190505b5090505f5b85811015612c19578a8181518110612be457612be4614433565b6020026020010151828281518110612bfe57612bfe614433565b600f9290920b60209283029190910190910152600101612bca565b50612c3d818a81518110612c2f57612c2f614433565b602002602001015189612ce0565b818a81518110612c4f57612c4f614433565b6020026020010190600f0b9081600f0b81525050612c6d8789612ce0565b600354909250600f0b5f805b87811015612cb557612cab826106e46106df878581518110612c9d57612c9d614433565b6020026020010151876128c6565b9150600101612c79565b50612cc382610707836129b2565b9550612ccf8887612ce0565b945050505096509650969350505050565b5f600f82810b9084900b036f7fffffffffffffffffffffffffffffff198112801590612889575060016001607f1b038113156112e8575f80fd5b5f805f808467ffffffffffffffff811115612d3757612d37613ffb565b604051908082528060200260200182016040528015612d60578160200160208202803683370190505b5090505f5b85811015612db4578a8181518110612d7f57612d7f614433565b6020026020010151828281518110612d9957612d99614433565b600f9290920b60209283029190910190910152600101612d65565b50612dd8818a81518110612dca57612dca614433565b602002602001015189612978565b818a81518110612dea57612dea614433565b6020026020010190600f0b9081600f0b81525050612e088789612978565b600354909250600f0b5f805b87811015612e4257612e38826106e46106df878581518110612c9d57612c9d614433565b9150600101612e14565b50612e5082610707836129b2565b9550612ccf8689612ce0565b6008545f90612e74906001600160a01b0316836104d8565b60075460085460065460405163856296f760e01b81525f6004820181905260248201929092526001881b6044820152939450926001600160a01b03928316926339dd7530921690839063856296f790606401602060405180830381865afa158015612ee1573d5f803e3d5ffd5b505050506040513d601f19601f82011682018060405250810190612f059190614447565b6040516001600160e01b031960e085901b1681526001600160a01b0390921660048301526024820152604401602060405180830381865afa158015612f4c573d5f803e3d5ffd5b505050506040513d601f19601f82011682018060405250810190612f709190614447565b600754604051627eeac760e11b8152306004820152602481018390529192505f916001600160a01b039091169062fdd58e90604401602060405180830381865afa158015612fc0573d5f803e3d5ffd5b505050506040513d601f19601f82011682018060405250810190612fe49190614447565b6040805187815260208101839052908101859052848210606082018190529192507fa473dc6cfd784f529bfcf1db106676ae5832ede00c2e72234a796e528bdbfbaa9060800160405180910390a1801561313f576008546007546001600160a01b039182169163095ea7b3911661305b83896104d8565b6040516001600160e01b031960e085901b1681526001600160a01b03909216600483015260248201526044016020604051808303815f875af11580156130a3573d5f803e3d5ffd5b505050506040513d601f19601f820116820180604052508101906130c791906146be565b506007546008546006546001600160a01b03928316926372ce42759216905f906130f08b61154a565b896040518663ffffffff1660e01b815260040161311195949392919061467f565b5f604051808303815f87803b158015613128575f80fd5b505af115801561313a573d5f803e3d5ffd5b505050505b600754604051637921219560e11b8152306004820152336024820152604481018590526064810186905260a060848201525f60a48201526001600160a01b039091169063f242432a9060c4015f604051808303815f87803b1580156131a2575f80fd5b505af11580156131b4573d5f803e3d5ffd5b50505050505050505050565b5f815f036131cc575f80fd5b5f77ffffffffffffffffffffffffffffffffffffffffffffffff84116132075782604085901b816131ff576131ff6146dd565b04905061331d565b60c084811c6401000000008110613220576020918201911c5b620100008110613232576010918201911c5b6101008110613243576008918201911c5b60108110613253576004918201911c5b60048110613263576002918201911c5b60028110613272576001820191505b60bf820360018603901c6001018260ff0387901b81613293576132936146dd565b0492506001600160801b038311156132a9575f80fd5b608085901c83026001600160801b038616840260c088901c604089901b828110156132d5576001820391505b608084901b929003828110156132ec576001820391505b829003608084901c8214613301576001613312565b888181613310576133106146dd565b045b870196505050505050505b6001600160801b038111156112e8575f80fd5b5f6840000000000000000082600f0b12613348575f80fd5b683fffffffffffffffff1982600f0b121561336457505f919050565b6f800000000000000000000000000000005f6780000000000000008416600f0b13156133a15770016a09e667f3bcc908b2fb1366ea957d3e0260801c5b5f8367400000000000000016600f0b13156133cd577001306fe0a31b7152de8d5a46305c85edec0260801c5b5f8367200000000000000016600f0b13156133f9577001172b83c7d517adcdf7c8c50eb14a791f0260801c5b5f8367100000000000000016600f0b13156134255770010b5586cf9890f6298b92b71842a983630260801c5b5f8367080000000000000016600f0b1315613451577001059b0d31585743ae7c548eb68ca417fd0260801c5b5f8367040000000000000016600f0b131561347d57700102c9a3e778060ee6f7caca4f7a29bde80260801c5b5f8367020000000000000016600f0b13156134a95770010163da9fb33356d84a66ae336dcdfa3f0260801c5b5f8367010000000000000016600f0b13156134d557700100b1afa5abcbed6129ab13ec11dc95430260801c5b5f83668000000000000016600f0b13156135005770010058c86da1c09ea1ff19d294cf2f679b0260801c5b5f83664000000000000016600f0b131561352b577001002c605e2e8cec506d21bfc89a23a00f0260801c5b5f83662000000000000016600f0b131561355657700100162f3904051fa128bca9c55c31e5df0260801c5b5f83661000000000000016600f0b1315613581577001000b175effdc76ba38e31671ca9397250260801c5b5f83660800000000000016600f0b13156135ac57700100058ba01fb9f96d6cacd4b180917c3d0260801c5b5f83660400000000000016600f0b13156135d75770010002c5cc37da9491d0985c348c68e7b30260801c5b5f83660200000000000016600f0b1315613602577001000162e525ee054754457d59952920260260801c5b5f83660100000000000016600f0b131561362d5770010000b17255775c040618bf4a4ade83fc0260801c5b5f836580000000000016600f0b1315613657577001000058b91b5bc9ae2eed81e9b7d4cfab0260801c5b5f836540000000000016600f0b131561368157700100002c5c89d5ec6ca4d7c8acc017b7c90260801c5b5f836520000000000016600f0b13156136ab5770010000162e43f4f831060e02d839a9d16d0260801c5b5f836510000000000016600f0b13156136d557700100000b1721bcfc99d9f890ea069117630260801c5b5f836508000000000016600f0b13156136ff5770010000058b90cf1e6d97f9ca14dbcc16280260801c5b5f836504000000000016600f0b1315613729577001000002c5c863b73f016468f6bac5ca2b0260801c5b5f836502000000000016600f0b131561375357700100000162e430e5a18f6119e3c02282a50260801c5b5f836501000000000016600f0b131561377d577001000000b1721835514b86e6d96efd1bfe0260801c5b5f8364800000000016600f0b13156137a657700100000058b90c0b48c6be5df846c5b2ef0260801c5b5f8364400000000016600f0b13156137cf5770010000002c5c8601cc6b9e94213c72737a0260801c5b5f8364200000000016600f0b13156137f8577001000000162e42fff037df38aa2b219f060260801c5b5f8364100000000016600f0b13156138215770010000000b17217fba9c739aa5819f44f90260801c5b5f8364080000000016600f0b131561384a577001000000058b90bfcdee5acd3c1cedc8230260801c5b5f8364040000000016600f0b131561387357700100000002c5c85fe31f35a6a30da1be500260801c5b5f8364020000000016600f0b131561389c5770010000000162e42ff0999ce3541b9fffcf0260801c5b5f8364010000000016600f0b13156138c557700100000000b17217f80f4ef5aadda455540260801c5b5f83638000000016600f0b13156138ed5770010000000058b90bfbf8479bd5a81b51ad0260801c5b5f83634000000016600f0b1315613915577001000000002c5c85fdf84bd62ae30a74cc0260801c5b5f83632000000016600f0b131561393d57700100000000162e42fefb2fed257559bdaa0260801c5b5f83631000000016600f0b1315613965577001000000000b17217f7d5a7716bba4a9ae0260801c5b5f83630800000016600f0b131561398d57700100000000058b90bfbe9ddbac5e109cce0260801c5b5f83630400000016600f0b13156139b55770010000000002c5c85fdf4b15de6f17eb0d0260801c5b5f83630200000016600f0b13156139dd577001000000000162e42fefa494f1478fde050260801c5b5f83630100000016600f0b1315613a055770010000000000b17217f7d20cf927c8e94c0260801c5b5f836280000016600f0b1315613a2c577001000000000058b90bfbe8f71cb4e4b33d0260801c5b5f836240000016600f0b1315613a5357700100000000002c5c85fdf477b662b269450260801c5b5f836220000016600f0b1315613a7a5770010000000000162e42fefa3ae53369388c0260801c5b5f836210000016600f0b1315613aa157700100000000000b17217f7d1d351a389d400260801c5b5f836208000016600f0b1315613ac85770010000000000058b90bfbe8e8b2d3d4ede0260801c5b5f836204000016600f0b1315613aef577001000000000002c5c85fdf4741bea6e77e0260801c5b5f836202000016600f0b1315613b1657700100000000000162e42fefa39fe95583c20260801c5b5f836201000016600f0b1315613b3d577001000000000000b17217f7d1cfb72b45e10260801c5b5f8361800016600f0b1315613b6357700100000000000058b90bfbe8e7cc35c3f00260801c5b5f8361400016600f0b1315613b895770010000000000002c5c85fdf473e242ea380260801c5b5f8361200016600f0b1315613baf577001000000000000162e42fefa39f02b772c0260801c5b5f8361100016600f0b1315613bd55770010000000000000b17217f7d1cf7d83c1a0260801c5b5f8361080016600f0b1315613bfb577001000000000000058b90bfbe8e7bdcbe2e0260801c5b5f8361040016600f0b1315613c2157700100000000000002c5c85fdf473dea871f0260801c5b5f8361020016600f0b1315613c475770010000000000000162e42fefa39ef44d910260801c5b5f8361010016600f0b1315613c6d57700100000000000000b17217f7d1cf79e9490260801c5b5f83608016600f0b1315613c925770010000000000000058b90bfbe8e7bce5440260801c5b5f83604016600f0b1315613cb7577001000000000000002c5c85fdf473de6eca0260801c5b5f83602016600f0b1315613cdc57700100000000000000162e42fefa39ef366f0260801c5b5f83601016600f0b1315613d01577001000000000000000b17217f7d1cf79afa0260801c5b5f83600816600f0b1315613d2657700100000000000000058b90bfbe8e7bcd6d0260801c5b5f83600416600f0b1315613d4b5770010000000000000002c5c85fdf473de6b20260801c5b5f83600216600f0b1315613d70577001000000000000000162e42fefa39ef3580260801c5b5f83600116600f0b1315613d955770010000000000000000b17217f7d1cf79ab0260801c5b600f83810b60401d603f03900b1c60016001607f1b038111156105e3575f80fd5b5f8082600f0b13613dc5575f80fd5b5f600f83900b680100000000000000008112613de3576040918201911d5b6401000000008112613df7576020918201911d5b620100008112613e09576010918201911d5b6101008112613e1a576008918201911d5b60108112613e2a576004918201911d5b60048112613e3a576002918201911d5b60028112613e49576001820191505b603f19820160401b600f85900b607f8490031b6780000000000000005b5f8113156116375790800260ff81901c8281029390930192607f011c9060011d613e66565b5f8060205f8451602086015f885af180613eaa576040513d5f823e3d81fd5b50505f513d91508115613ec1578060011415613ece565b6001600160a01b0384163b155b15612ae457604051635274afe760e01b81526001600160a01b038516600482015260240161059c565b5f60208284031215613f07575f80fd5b81356001600160e01b0319811681146112e8575f80fd5b80356001600160a01b0381168114612b7a575f80fd5b8035600f81900b8114612b7a575f80fd5b5f8060408385031215613f56575f80fd5b613f5f83613f1e565b9150613f6d60208401613f34565b90509250929050565b5f8060408385031215613f87575f80fd5b613f9083613f1e565b946020939093013593505050565b5f60208284031215613fae575f80fd5b5035919050565b5f805f805f8060c08789031215613fca575f80fd5b613fd387613f1e565b9860208801359850604088013597606081013597506080810135965060a00135945092505050565b634e487b7160e01b5f52604160045260245ffd5b601f8201601f1916810167ffffffffffffffff8111828210171561403557614035613ffb565b6040525050565b5f602080838503121561404d575f80fd5b823567ffffffffffffffff80821115614064575f80fd5b818501915085601f830112614077575f80fd5b81358181111561408957614089613ffb565b60405191506140a1601f8201601f191685018361400f565b80825286848285010111156140b4575f80fd5b80848401858401375f90820190930192909252509392505050565b5f80604083850312156140e0575f80fd5b82359150613f6d60208401613f34565b5f815180845260208085019450602084015f5b8381101561411f57815187529582019590820190600101614103565b509495945050505050565b602081525f6112e860208301846140f0565b5f8083601f84011261414c575f80fd5b50813567ffffffffffffffff811115614163575f80fd5b6020830191508360208260051b850101111561417d575f80fd5b9250929050565b5f8083601f840112614194575f80fd5b50813567ffffffffffffffff8111156141ab575f80fd5b60208301915083602082850101111561417d575f80fd5b5f805f805f805f8060a0898b0312156141d9575f80fd5b6141e289613f1e565b97506141f060208a01613f1e565b9650604089013567ffffffffffffffff8082111561420c575f80fd5b6142188c838d0161413c565b909850965060608b0135915080821115614230575f80fd5b61423c8c838d0161413c565b909650945060808b0135915080821115614254575f80fd5b506142618b828c01614184565b999c989b5096995094979396929594505050565b5f805f805f8060a0878903121561428a575f80fd5b61429387613f1e565b95506142a160208801613f1e565b94506040870135935060608701359250608087013567ffffffffffffffff8111156142ca575f80fd5b6142d689828a01614184565b979a9699509497509295939492505050565b5f602082840312156142f8575f80fd5b6112e882613f1e565b5f60208284031215614311575f80fd5b815160ff811681146112e8575f80fd5b634e487b7160e01b5f52601160045260245ffd5b600181815b8085111561436f57815f190482111561435557614355614321565b8085161561436257918102915b93841c939080029061433a565b509250929050565b5f82614385575060016105e3565b8161439157505f6105e3565b81600181146143a757600281146143b1576143cd565b60019150506105e3565b60ff8411156143c2576143c2614321565b50506001821b6105e3565b5060208310610133831016604e8410600b84101617156143f0575081810a6105e3565b6143fa8383614335565b805f190482111561440d5761440d614321565b029392505050565b5f6112e88383614377565b808201808211156105e3576105e3614321565b634e487b7160e01b5f52603260045260245ffd5b5f60208284031215614457575f80fd5b5051919050565b6001600160a01b0385168152836020820152826040820152608060608201525f61154060808301846140f0565b818103818111156105e3576105e3614321565b5f81518060208401855e5f93019283525090919050565b5f6112e8828461449e565b5f81600f0b60016001607f1b031981036144dc576144dc614321565b5f0392915050565b600f82810b9082900b036f7fffffffffffffffffffffffffffffff19811260016001607f1b03821317156105e3576105e3614321565b5f6001820161452b5761452b614321565b5060010190565b5f60033d11156107105760045f803e505f5160e01c90565b5f60443d10156145575790565b6040516003193d81016004833e81513d67ffffffffffffffff816024840111818411171561458757505050505090565b828501915081518181111561459f5750505050505090565b843d87010160208285010111156145b95750505050505090565b6116376020828601018761400f565b5f81518084528060208401602086015e5f602082860101526020601f19601f83011685010191505092915050565b60408152601760408201527f736166655472616e7366657246726f6d206661696c65640000000000000000006060820152608060208201525f6112e860808301846145c8565b7f736166655472616e7366657246726f6d206661696c65643a200000000000000081525f6112e8601983018461449e565b602081525f6112e860208301846145c8565b6001600160a01b038616815284602082015283604082015260a060608201525f6146ac60a08301856140f0565b90508260808301529695505050505050565b5f602082840312156146ce575f80fd5b815180151581146112e8575f80fd5b634e487b7160e01b5f52601260045260245ffdfea2646970667358221220a69ccd24ccc6d8862c83d2c180f0bdf94d9cf0090ba42cf554b0ddc3fcc5173664736f6c63430008190033",
      "opcodes": "PUSH1 0x80 PUSH1 0x40 MSTORE PUSH1 0x2A PUSH1 0x9 SSTORE CALLVALUE DUP1 ISZERO PUSH2 0x14 JUMPI PUSH0 DUP1 REVERT JUMPDEST POP PUSH1 0x40 MLOAD PUSH2 0x487B CODESIZE SUB DUP1 PUSH2 0x487B DUP4 CODECOPY DUP2 ADD PUSH1 0x40 DUP2 SWAP1 MSTORE PUSH2 0x33 SWAP2 PUSH2 0x107 JUMP JUMPDEST DUP1 PUSH1 0x1 PUSH1 0x1 PUSH1 0xA0 SHL SUB DUP2 AND PUSH2 0x61 JUMPI PUSH1 0x40 MLOAD PUSH4 0x1E4FBDF7 PUSH1 0xE0 SHL DUP2 MSTORE PUSH0 PUSH1 0x4 DUP3 ADD MSTORE PUSH1 0x24 ADD PUSH1 0x40 MLOAD DUP1 SWAP2 SUB SWAP1 REVERT JUMPDEST PUSH2 0x6A DUP2 PUSH2 0x9D JUMP JUMPDEST POP POP PUSH1 0x7 DUP1 SLOAD PUSH1 0x1 PUSH1 0x1 PUSH1 0xA0 SHL SUB SWAP4 DUP5 AND PUSH1 0x1 PUSH1 0x1 PUSH1 0xA0 SHL SUB NOT SWAP2 DUP3 AND OR SWAP1 SWAP2 SSTORE PUSH1 0x8 DUP1 SLOAD SWAP3 SWAP1 SWAP4 AND SWAP2 AND OR SWAP1 SSTORE PUSH2 0x147 JUMP JUMPDEST PUSH0 DUP1 SLOAD PUSH1 0x1 PUSH1 0x1 PUSH1 0xA0 SHL SUB DUP4 DUP2 AND PUSH1 0x1 PUSH1 0x1 PUSH1 0xA0 SHL SUB NOT DUP4 AND DUP2 OR DUP5 SSTORE PUSH1 0x40 MLOAD SWAP2 SWAP1 SWAP3 AND SWAP3 DUP4 SWAP2 PUSH32 0x8BE0079C531659141344CD1FD0A4F28419497F9722A3DAAFE3B4186F6B6457E0 SWAP2 SWAP1 LOG3 POP POP JUMP JUMPDEST DUP1 MLOAD PUSH1 0x1 PUSH1 0x1 PUSH1 0xA0 SHL SUB DUP2 AND DUP2 EQ PUSH2 0x102 JUMPI PUSH0 DUP1 REVERT JUMPDEST SWAP2 SWAP1 POP JUMP JUMPDEST PUSH0 DUP1 PUSH0 PUSH1 0x60 DUP5 DUP7 SUB SLT ISZERO PUSH2 0x119 JUMPI PUSH0 DUP1 REVERT JUMPDEST PUSH2 0x122 DUP5 PUSH2 0xEC JUMP JUMPDEST SWAP3 POP PUSH2 0x130 PUSH1 0x20 DUP6 ADD PUSH2 0xEC JUMP JUMPDEST SWAP2 POP PUSH2 0x13E PUSH1 0x40 DUP6 ADD PUSH2 0xEC JUMP JUMPDEST SWAP1 POP SWAP3 POP SWAP3 POP SWAP3 JUMP JUMPDEST PUSH2 0x4727 DUP1 PUSH2 0x154 PUSH0 CODECOPY PUSH0 RETURN INVALID PUSH1 0x80 PUSH1 0x40 MSTORE CALLVALUE DUP1 ISZERO PUSH2 0xF JUMPI PUSH0 DUP1 REVERT JUMPDEST POP PUSH1 0x4 CALLDATASIZE LT PUSH2 0x21B JUMPI PUSH0 CALLDATALOAD PUSH1 0xE0 SHR DUP1 PUSH4 0x8767D64E GT PUSH2 0x123 JUMPI DUP1 PUSH4 0xC5031331 GT PUSH2 0xB8 JUMPI DUP1 PUSH4 0xE1FC2305 GT PUSH2 0x88 JUMPI DUP1 PUSH4 0xF2FDE38B GT PUSH2 0x6E JUMPI DUP1 PUSH4 0xF2FDE38B EQ PUSH2 0x49F JUMPI DUP1 PUSH4 0xF76DA1D9 EQ PUSH2 0x4B2 JUMPI DUP1 PUSH4 0xFC0C546A EQ PUSH2 0x4C5 JUMPI PUSH0 DUP1 REVERT JUMPDEST DUP1 PUSH4 0xE1FC2305 EQ PUSH2 0x477 JUMPI DUP1 PUSH4 0xF23A6E61 EQ PUSH2 0x47F JUMPI PUSH0 DUP1 REVERT JUMPDEST DUP1 PUSH4 0xC5031331 EQ PUSH2 0x43A JUMPI DUP1 PUSH4 0xCD6BD6DB EQ PUSH2 0x443 JUMPI DUP1 PUSH4 0xD8FDB386 EQ PUSH2 0x457 JUMPI DUP1 PUSH4 0xDF7BD8FC EQ PUSH2 0x464 JUMPI PUSH0 DUP1 REVERT JUMPDEST DUP1 PUSH4 0x8DA5CB5B GT PUSH2 0xF3 JUMPI DUP1 PUSH4 0x8DA5CB5B EQ PUSH2 0x3B5 JUMPI DUP1 PUSH4 0xAE92A93D EQ PUSH2 0x3D9 JUMPI DUP1 PUSH4 0xBB6F593E EQ PUSH2 0x3EC JUMPI DUP1 PUSH4 0xBC197C81 EQ PUSH2 0x3FF JUMPI PUSH0 DUP1 REVERT JUMPDEST DUP1 PUSH4 0x8767D64E EQ PUSH2 0x370 JUMPI DUP1 PUSH4 0x8AC40792 EQ PUSH2 0x379 JUMPI DUP1 PUSH4 0x8D0A6CFF EQ PUSH2 0x382 JUMPI DUP1 PUSH4 0x8D36627B EQ PUSH2 0x3A2 JUMPI PUSH0 DUP1 REVERT JUMPDEST DUP1 PUSH4 0x4A4F72E1 GT PUSH2 0x1B3 JUMPI DUP1 PUSH4 0x52FDFECC GT PUSH2 0x183 JUMPI DUP1 PUSH4 0x715018A6 GT PUSH2 0x169 JUMPI DUP1 PUSH4 0x715018A6 EQ PUSH2 0x34A JUMPI DUP1 PUSH4 0x8062DD93 EQ PUSH2 0x352 JUMPI DUP1 PUSH4 0x8364DFEF EQ PUSH2 0x365 JUMPI PUSH0 DUP1 REVERT JUMPDEST DUP1 PUSH4 0x52FDFECC EQ PUSH2 0x32F JUMPI DUP1 PUSH4 0x5DF45A37 EQ PUSH2 0x342 JUMPI PUSH0 DUP1 REVERT JUMPDEST DUP1 PUSH4 0x4A4F72E1 EQ PUSH2 0x2CE JUMPI DUP1 PUSH4 0x4C395CC4 EQ PUSH2 0x2E1 JUMPI DUP1 PUSH4 0x519F5099 EQ PUSH2 0x2F4 JUMPI DUP1 PUSH4 0x51C6590A EQ PUSH2 0x31C JUMPI PUSH0 DUP1 REVERT JUMPDEST DUP1 PUSH4 0x3CCFD60B GT PUSH2 0x1EE JUMPI DUP1 PUSH4 0x3CCFD60B EQ PUSH2 0x296 JUMPI DUP1 PUSH4 0x40088EE1 EQ PUSH2 0x2A0 JUMPI DUP1 PUSH4 0x46156EA0 EQ PUSH2 0x2B3 JUMPI DUP1 PUSH4 0x476343EE EQ PUSH2 0x2C6 JUMPI PUSH0 DUP1 REVERT JUMPDEST DUP1 PUSH4 0x1FFC9A7 EQ PUSH2 0x21F JUMPI DUP1 PUSH4 0x5445405 EQ PUSH2 0x247 JUMPI DUP1 PUSH4 0x10F8625A EQ PUSH2 0x268 JUMPI DUP1 PUSH4 0x13FAEDE6 EQ PUSH2 0x28E JUMPI JUMPDEST PUSH0 DUP1 REVERT JUMPDEST PUSH2 0x232 PUSH2 0x22D CALLDATASIZE PUSH1 0x4 PUSH2 0x3EF7 JUMP JUMPDEST POP PUSH0 SWAP1 JUMP JUMPDEST PUSH1 0x40 MLOAD SWAP1 ISZERO ISZERO DUP2 MSTORE PUSH1 0x20 ADD JUMPDEST PUSH1 0x40 MLOAD DUP1 SWAP2 SUB SWAP1 RETURN JUMPDEST PUSH2 0x25A PUSH2 0x255 CALLDATASIZE PUSH1 0x4 PUSH2 0x3F45 JUMP JUMPDEST PUSH2 0x4D8 JUMP JUMPDEST PUSH1 0x40 MLOAD SWAP1 DUP2 MSTORE PUSH1 0x20 ADD PUSH2 0x23E JUMP JUMPDEST PUSH2 0x27B PUSH2 0x276 CALLDATASIZE PUSH1 0x4 PUSH2 0x3F76 JUMP JUMPDEST PUSH2 0x5E9 JUMP JUMPDEST PUSH1 0x40 MLOAD PUSH1 0xF SWAP2 SWAP1 SWAP2 SIGNEXTEND DUP2 MSTORE PUSH1 0x20 ADD PUSH2 0x23E JUMP JUMPDEST PUSH2 0x27B PUSH2 0x66C JUMP JUMPDEST PUSH2 0x29E PUSH2 0x713 JUMP JUMPDEST STOP JUMPDEST PUSH2 0x25A PUSH2 0x2AE CALLDATASIZE PUSH1 0x4 PUSH2 0x3F45 JUMP JUMPDEST PUSH2 0x964 JUMP JUMPDEST PUSH2 0x27B PUSH2 0x2C1 CALLDATASIZE PUSH1 0x4 PUSH2 0x3F9E JUMP JUMPDEST PUSH2 0xA37 JUMP JUMPDEST PUSH2 0x29E PUSH2 0xADC JUMP JUMPDEST PUSH2 0x29E PUSH2 0x2DC CALLDATASIZE PUSH1 0x4 PUSH2 0x3FB5 JUMP JUMPDEST PUSH2 0xC4D JUMP JUMPDEST PUSH2 0x25A PUSH2 0x2EF CALLDATASIZE PUSH1 0x4 PUSH2 0x403C JUMP JUMPDEST PUSH2 0xF66 JUMP JUMPDEST PUSH2 0x307 PUSH2 0x302 CALLDATASIZE PUSH1 0x4 PUSH2 0x3F9E JUMP JUMPDEST PUSH2 0xF95 JUMP JUMPDEST PUSH1 0x40 DUP1 MLOAD SWAP3 DUP4 MSTORE PUSH1 0x20 DUP4 ADD SWAP2 SWAP1 SWAP2 MSTORE ADD PUSH2 0x23E JUMP JUMPDEST PUSH2 0x29E PUSH2 0x32A CALLDATASIZE PUSH1 0x4 PUSH2 0x3F9E JUMP JUMPDEST PUSH2 0x114F JUMP JUMPDEST PUSH2 0x27B PUSH2 0x33D CALLDATASIZE PUSH1 0x4 PUSH2 0x40CF JUMP JUMPDEST PUSH2 0x12C3 JUMP JUMPDEST PUSH2 0x25A PUSH2 0x12EF JUMP JUMPDEST PUSH2 0x29E PUSH2 0x13A8 JUMP JUMPDEST PUSH2 0x27B PUSH2 0x360 CALLDATASIZE PUSH1 0x4 PUSH2 0x40CF JUMP JUMPDEST PUSH2 0x13BB JUMP JUMPDEST PUSH1 0x3 SLOAD PUSH1 0xF SIGNEXTEND PUSH2 0x27B JUMP JUMPDEST PUSH2 0x25A PUSH1 0x1 SLOAD DUP2 JUMP JUMPDEST PUSH2 0x25A PUSH1 0x9 SLOAD DUP2 JUMP JUMPDEST PUSH2 0x395 PUSH2 0x390 CALLDATASIZE PUSH1 0x4 PUSH2 0x3F9E JUMP JUMPDEST PUSH2 0x154A JUMP JUMPDEST PUSH1 0x40 MLOAD PUSH2 0x23E SWAP2 SWAP1 PUSH2 0x412A JUMP JUMPDEST PUSH2 0x25A PUSH2 0x3B0 CALLDATASIZE PUSH1 0x4 PUSH2 0x3F45 JUMP JUMPDEST PUSH2 0x1642 JUMP JUMPDEST PUSH0 SLOAD PUSH1 0x1 PUSH1 0x1 PUSH1 0xA0 SHL SUB AND JUMPDEST PUSH1 0x40 MLOAD PUSH1 0x1 PUSH1 0x1 PUSH1 0xA0 SHL SUB SWAP1 SWAP2 AND DUP2 MSTORE PUSH1 0x20 ADD PUSH2 0x23E JUMP JUMPDEST PUSH2 0x27B PUSH2 0x3E7 CALLDATASIZE PUSH1 0x4 PUSH2 0x40CF JUMP JUMPDEST PUSH2 0x1714 JUMP JUMPDEST PUSH2 0x27B PUSH2 0x3FA CALLDATASIZE PUSH1 0x4 PUSH2 0x3F9E JUMP JUMPDEST PUSH2 0x222A JUMP JUMPDEST PUSH2 0x421 PUSH2 0x40D CALLDATASIZE PUSH1 0x4 PUSH2 0x41C2 JUMP JUMPDEST PUSH4 0xBC197C81 PUSH1 0xE0 SHL SWAP9 SWAP8 POP POP POP POP POP POP POP POP JUMP JUMPDEST PUSH1 0x40 MLOAD PUSH1 0x1 PUSH1 0x1 PUSH1 0xE0 SHL SUB NOT SWAP1 SWAP2 AND DUP2 MSTORE PUSH1 0x20 ADD PUSH2 0x23E JUMP JUMPDEST PUSH2 0x25A PUSH1 0x6 SLOAD DUP2 JUMP JUMPDEST PUSH1 0x4 SLOAD PUSH2 0x27B SWAP1 PUSH1 0x1 PUSH1 0x80 SHL SWAP1 DIV PUSH1 0xF SIGNEXTEND DUP2 JUMP JUMPDEST PUSH1 0x5 SLOAD PUSH2 0x27B SWAP1 PUSH1 0xF SIGNEXTEND DUP2 JUMP JUMPDEST PUSH2 0x27B PUSH2 0x472 CALLDATASIZE PUSH1 0x4 PUSH2 0x40CF JUMP JUMPDEST PUSH2 0x22C0 JUMP JUMPDEST PUSH2 0x307 PUSH2 0x22E3 JUMP JUMPDEST PUSH2 0x421 PUSH2 0x48D CALLDATASIZE PUSH1 0x4 PUSH2 0x4275 JUMP JUMPDEST PUSH4 0xF23A6E61 PUSH1 0xE0 SHL SWAP7 SWAP6 POP POP POP POP POP POP JUMP JUMPDEST PUSH2 0x29E PUSH2 0x4AD CALLDATASIZE PUSH1 0x4 PUSH2 0x42E8 JUMP JUMPDEST PUSH2 0x237F JUMP JUMPDEST PUSH2 0x27B PUSH2 0x4C0 CALLDATASIZE PUSH1 0x4 PUSH2 0x40CF JUMP JUMPDEST PUSH2 0x23B9 JUMP JUMPDEST PUSH1 0x8 SLOAD PUSH2 0x3C1 SWAP1 PUSH1 0x1 PUSH1 0x1 PUSH1 0xA0 SHL SUB AND DUP2 JUMP JUMPDEST PUSH0 DUP1 DUP4 PUSH1 0x1 PUSH1 0x1 PUSH1 0xA0 SHL SUB AND PUSH4 0x313CE567 PUSH1 0x40 MLOAD DUP2 PUSH4 0xFFFFFFFF AND PUSH1 0xE0 SHL DUP2 MSTORE PUSH1 0x4 ADD PUSH1 0x20 PUSH1 0x40 MLOAD DUP1 DUP4 SUB DUP2 DUP7 GAS STATICCALL ISZERO DUP1 ISZERO PUSH2 0x516 JUMPI RETURNDATASIZE PUSH0 DUP1 RETURNDATACOPY RETURNDATASIZE PUSH0 REVERT JUMPDEST POP POP POP POP PUSH1 0x40 MLOAD RETURNDATASIZE PUSH1 0x1F NOT PUSH1 0x1F DUP3 ADD AND DUP3 ADD DUP1 PUSH1 0x40 MSTORE POP DUP2 ADD SWAP1 PUSH2 0x53A SWAP2 SWAP1 PUSH2 0x4301 JUMP JUMPDEST PUSH1 0xFF AND SWAP1 POP PUSH0 PUSH2 0x54B DUP3 PUSH1 0xA PUSH2 0x4415 JUMP JUMPDEST SWAP1 POP PUSH0 DUP5 PUSH1 0xF SIGNEXTEND SLT ISZERO PUSH2 0x5A5 JUMPI PUSH1 0x40 MLOAD PUSH3 0x461BCD PUSH1 0xE5 SHL DUP2 MSTORE PUSH1 0x20 PUSH1 0x4 DUP3 ADD MSTORE PUSH1 0x1B PUSH1 0x24 DUP3 ADD MSTORE PUSH32 0x416D6F756E74206D757374206265206E6F6E2D6E656761746976650000000000 PUSH1 0x44 DUP3 ADD MSTORE PUSH1 0x64 ADD JUMPDEST PUSH1 0x40 MLOAD DUP1 SWAP2 SUB SWAP1 REVERT JUMPDEST PUSH0 PUSH2 0x5B0 DUP6 DUP4 PUSH2 0x27DE JUMP JUMPDEST SWAP1 POP PUSH0 PUSH2 0x5BD DUP7 DUP5 PUSH2 0x2853 JUMP JUMPDEST PUSH8 0xFFFFFFFFFFFFFFFF AND PUSH1 0xF SIGNEXTEND SGT ISZERO PUSH2 0x5DE JUMPI PUSH2 0x5DB PUSH1 0x1 DUP3 PUSH2 0x4420 JUMP JUMPDEST SWAP1 POP JUMPDEST SWAP3 POP POP POP JUMPDEST SWAP3 SWAP2 POP POP JUMP JUMPDEST PUSH0 DUP1 DUP4 PUSH1 0x1 PUSH1 0x1 PUSH1 0xA0 SHL SUB AND PUSH4 0x313CE567 PUSH1 0x40 MLOAD DUP2 PUSH4 0xFFFFFFFF AND PUSH1 0xE0 SHL DUP2 MSTORE PUSH1 0x4 ADD PUSH1 0x20 PUSH1 0x40 MLOAD DUP1 DUP4 SUB DUP2 DUP7 GAS STATICCALL ISZERO DUP1 ISZERO PUSH2 0x627 JUMPI RETURNDATASIZE PUSH0 DUP1 RETURNDATACOPY RETURNDATASIZE PUSH0 REVERT JUMPDEST POP POP POP POP PUSH1 0x40 MLOAD RETURNDATASIZE PUSH1 0x1F NOT PUSH1 0x1F DUP3 ADD AND DUP3 ADD DUP1 PUSH1 0x40 MSTORE POP DUP2 ADD SWAP1 PUSH2 0x64B SWAP2 SWAP1 PUSH2 0x4301 JUMP JUMPDEST PUSH1 0xFF AND SWAP1 POP PUSH2 0x664 DUP4 PUSH2 0x65F DUP4 PUSH1 0xA PUSH2 0x4415 JUMP JUMPDEST PUSH2 0x2891 JUMP JUMPDEST SWAP5 SWAP4 POP POP POP POP JUMP JUMPDEST PUSH1 0x8 SLOAD PUSH0 SWAP1 PUSH1 0x1 PUSH1 0xA0 SHL SWAP1 DIV PUSH1 0xFF AND ISZERO ISZERO PUSH1 0x1 EQ PUSH2 0x688 JUMPI PUSH0 DUP1 REVERT JUMPDEST PUSH0 DUP1 JUMPDEST PUSH1 0x1 SLOAD DUP2 LT ISZERO PUSH2 0x6F3 JUMPI PUSH2 0x6E9 DUP3 PUSH2 0x6E4 PUSH2 0x6DF PUSH1 0x2 DUP6 DUP2 SLOAD DUP2 LT PUSH2 0x6B2 JUMPI PUSH2 0x6B2 PUSH2 0x4433 JUMP JUMPDEST PUSH0 SWAP2 DUP3 MSTORE PUSH1 0x20 SWAP1 SWAP2 KECCAK256 PUSH1 0x2 DUP3 DIV ADD SLOAD PUSH1 0x3 SLOAD PUSH1 0x1 SWAP1 SWAP3 AND PUSH1 0x10 MUL PUSH2 0x100 EXP SWAP1 DIV PUSH1 0xF SWAP1 DUP2 SIGNEXTEND SWAP2 SWAP1 SIGNEXTEND PUSH2 0x28C6 JUMP JUMPDEST PUSH2 0x2921 JUMP JUMPDEST PUSH2 0x2978 JUMP JUMPDEST SWAP2 POP PUSH1 0x1 ADD PUSH2 0x68B JUMP JUMPDEST POP PUSH1 0x3 SLOAD PUSH2 0x70C SWAP1 PUSH1 0xF SIGNEXTEND PUSH2 0x707 DUP4 PUSH2 0x29B2 JUMP JUMPDEST PUSH2 0x2853 JUMP JUMPDEST SWAP2 POP POP JUMPDEST SWAP1 JUMP JUMPDEST PUSH1 0x8 SLOAD PUSH1 0x1 PUSH1 0xA0 SHL SWAP1 DIV PUSH1 0xFF AND ISZERO ISZERO PUSH1 0x1 EQ PUSH2 0x72D JUMPI PUSH0 DUP1 REVERT JUMPDEST PUSH2 0x735 PUSH2 0x29EA JUMP JUMPDEST PUSH1 0x7 SLOAD PUSH1 0x6 SLOAD PUSH1 0x40 MLOAD PUSH4 0xDD34DE67 PUSH1 0xE0 SHL DUP2 MSTORE PUSH1 0x1 PUSH1 0x1 PUSH1 0xA0 SHL SUB SWAP1 SWAP3 AND SWAP2 PUSH4 0xDD34DE67 SWAP2 PUSH2 0x76A SWAP2 PUSH1 0x4 ADD SWAP1 DUP2 MSTORE PUSH1 0x20 ADD SWAP1 JUMP JUMPDEST PUSH1 0x20 PUSH1 0x40 MLOAD DUP1 DUP4 SUB DUP2 DUP7 GAS STATICCALL ISZERO DUP1 ISZERO PUSH2 0x785 JUMPI RETURNDATASIZE PUSH0 DUP1 RETURNDATACOPY RETURNDATASIZE PUSH0 REVERT JUMPDEST POP POP POP POP PUSH1 0x40 MLOAD RETURNDATASIZE PUSH1 0x1F NOT PUSH1 0x1F DUP3 ADD AND DUP3 ADD DUP1 PUSH1 0x40 MSTORE POP DUP2 ADD SWAP1 PUSH2 0x7A9 SWAP2 SWAP1 PUSH2 0x4447 JUMP JUMPDEST PUSH0 SUB PUSH2 0x7F7 JUMPI PUSH1 0x40 MLOAD PUSH3 0x461BCD PUSH1 0xE5 SHL DUP2 MSTORE PUSH1 0x20 PUSH1 0x4 DUP3 ADD MSTORE PUSH1 0x1B PUSH1 0x24 DUP3 ADD MSTORE PUSH32 0x4D61726B6574206E6565647320746F206265207265736F6C7665640000000000 PUSH1 0x44 DUP3 ADD MSTORE PUSH1 0x64 ADD PUSH2 0x59C JUMP JUMPDEST PUSH0 PUSH1 0x1 SLOAD PUSH8 0xFFFFFFFFFFFFFFFF DUP2 GT ISZERO PUSH2 0x813 JUMPI PUSH2 0x813 PUSH2 0x3FFB JUMP JUMPDEST PUSH1 0x40 MLOAD SWAP1 DUP1 DUP3 MSTORE DUP1 PUSH1 0x20 MUL PUSH1 0x20 ADD DUP3 ADD PUSH1 0x40 MSTORE DUP1 ISZERO PUSH2 0x83C JUMPI DUP2 PUSH1 0x20 ADD PUSH1 0x20 DUP3 MUL DUP1 CALLDATASIZE DUP4 CALLDATACOPY ADD SWAP1 POP JUMPDEST POP SWAP1 POP PUSH0 JUMPDEST PUSH1 0x1 SLOAD DUP2 LT ISZERO PUSH2 0x875 JUMPI DUP1 PUSH1 0x1 SWAP1 SHL DUP3 DUP3 DUP2 MLOAD DUP2 LT PUSH2 0x862 JUMPI PUSH2 0x862 PUSH2 0x4433 JUMP JUMPDEST PUSH1 0x20 SWAP1 DUP2 MUL SWAP2 SWAP1 SWAP2 ADD ADD MSTORE PUSH1 0x1 ADD PUSH2 0x841 JUMP JUMPDEST POP PUSH1 0x7 SLOAD PUSH1 0x8 SLOAD PUSH1 0x6 SLOAD PUSH1 0x40 MLOAD PUSH3 0x6DC0DF PUSH1 0xE2 SHL DUP2 MSTORE PUSH1 0x1 PUSH1 0x1 PUSH1 0xA0 SHL SUB SWAP4 DUP5 AND SWAP4 PUSH4 0x1B7037C SWAP4 PUSH2 0x8B1 SWAP4 SWAP2 AND SWAP2 PUSH0 SWAP2 SWAP1 DUP8 SWAP1 PUSH1 0x4 ADD PUSH2 0x445E JUMP JUMPDEST PUSH0 PUSH1 0x40 MLOAD DUP1 DUP4 SUB DUP2 PUSH0 DUP8 DUP1 EXTCODESIZE ISZERO DUP1 ISZERO PUSH2 0x8C8 JUMPI PUSH0 DUP1 REVERT JUMPDEST POP GAS CALL ISZERO DUP1 ISZERO PUSH2 0x8DA JUMPI RETURNDATASIZE PUSH0 DUP1 RETURNDATACOPY RETURNDATASIZE PUSH0 REVERT JUMPDEST POP POP PUSH1 0x8 SLOAD PUSH1 0x40 MLOAD PUSH4 0x70A08231 PUSH1 0xE0 SHL DUP2 MSTORE ADDRESS PUSH1 0x4 DUP3 ADD MSTORE PUSH2 0x961 SWAP4 POP CALLER SWAP3 POP PUSH1 0x1 PUSH1 0x1 PUSH1 0xA0 SHL SUB SWAP1 SWAP2 AND SWAP1 PUSH4 0x70A08231 SWAP1 PUSH1 0x24 ADD PUSH1 0x20 PUSH1 0x40 MLOAD DUP1 DUP4 SUB DUP2 DUP7 GAS STATICCALL ISZERO DUP1 ISZERO PUSH2 0x92A JUMPI RETURNDATASIZE PUSH0 DUP1 RETURNDATACOPY RETURNDATASIZE PUSH0 REVERT JUMPDEST POP POP POP POP PUSH1 0x40 MLOAD RETURNDATASIZE PUSH1 0x1F NOT PUSH1 0x1F DUP3 ADD AND DUP3 ADD DUP1 PUSH1 0x40 MSTORE POP DUP2 ADD SWAP1 PUSH2 0x94E SWAP2 SWAP1 PUSH2 0x4447 JUMP JUMPDEST PUSH1 0x8 SLOAD PUSH1 0x1 PUSH1 0x1 PUSH1 0xA0 SHL SUB AND SWAP2 SWAP1 PUSH2 0x2A16 JUMP JUMPDEST POP JUMP JUMPDEST PUSH0 DUP1 DUP4 PUSH1 0x1 PUSH1 0x1 PUSH1 0xA0 SHL SUB AND PUSH4 0x313CE567 PUSH1 0x40 MLOAD DUP2 PUSH4 0xFFFFFFFF AND PUSH1 0xE0 SHL DUP2 MSTORE PUSH1 0x4 ADD PUSH1 0x20 PUSH1 0x40 MLOAD DUP1 DUP4 SUB DUP2 DUP7 GAS STATICCALL ISZERO DUP1 ISZERO PUSH2 0x9A2 JUMPI RETURNDATASIZE PUSH0 DUP1 RETURNDATACOPY RETURNDATASIZE PUSH0 REVERT JUMPDEST POP POP POP POP PUSH1 0x40 MLOAD RETURNDATASIZE PUSH1 0x1F NOT PUSH1 0x1F DUP3 ADD AND DUP3 ADD DUP1 PUSH1 0x40 MSTORE POP DUP2 ADD SWAP1 PUSH2 0x9C6 SWAP2 SWAP1 PUSH2 0x4301 JUMP JUMPDEST PUSH1 0xFF AND SWAP1 POP PUSH0 PUSH2 0x9D7 DUP3 PUSH1 0xA PUSH2 0x4415 JUMP JUMPDEST SWAP1 POP PUSH0 DUP5 PUSH1 0xF SIGNEXTEND SLT ISZERO PUSH2 0xA2C JUMPI PUSH1 0x40 MLOAD PUSH3 0x461BCD PUSH1 0xE5 SHL DUP2 MSTORE PUSH1 0x20 PUSH1 0x4 DUP3 ADD MSTORE PUSH1 0x1B PUSH1 0x24 DUP3 ADD MSTORE PUSH32 0x416D6F756E74206D757374206265206E6F6E2D6E656761746976650000000000 PUSH1 0x44 DUP3 ADD MSTORE PUSH1 0x64 ADD PUSH2 0x59C JUMP JUMPDEST PUSH0 PUSH2 0x5DB DUP6 DUP4 PUSH2 0x27DE JUMP JUMPDEST PUSH0 PUSH1 0x1 SLOAD DUP3 LT PUSH2 0xA81 JUMPI PUSH1 0x40 MLOAD PUSH3 0x461BCD PUSH1 0xE5 SHL DUP2 MSTORE PUSH1 0x20 PUSH1 0x4 DUP3 ADD MSTORE PUSH1 0x15 PUSH1 0x24 DUP3 ADD MSTORE PUSH21 0x92DCECC2D8D2C840DEEAE8C6DEDACA40D2DCC8CAF PUSH1 0x5B SHL PUSH1 0x44 DUP3 ADD MSTORE PUSH1 0x64 ADD PUSH2 0x59C JUMP JUMPDEST PUSH0 PUSH2 0xA9B PUSH2 0x6DF PUSH1 0x2 DUP6 DUP2 SLOAD DUP2 LT PUSH2 0x6B2 JUMPI PUSH2 0x6B2 PUSH2 0x4433 JUMP JUMPDEST SWAP1 POP PUSH0 DUP1 JUMPDEST PUSH1 0x1 SLOAD DUP2 LT ISZERO PUSH2 0xAD1 JUMPI PUSH2 0xAC7 DUP3 PUSH2 0x6E4 PUSH2 0x6DF PUSH1 0x2 DUP6 DUP2 SLOAD DUP2 LT PUSH2 0x6B2 JUMPI PUSH2 0x6B2 PUSH2 0x4433 JUMP JUMPDEST SWAP2 POP PUSH1 0x1 ADD PUSH2 0xAA0 JUMP JUMPDEST POP PUSH2 0x664 DUP3 DUP3 PUSH2 0x28C6 JUMP JUMPDEST PUSH2 0xAE4 PUSH2 0x29EA JUMP JUMPDEST PUSH1 0x8 SLOAD PUSH1 0x40 MLOAD PUSH4 0x70A08231 PUSH1 0xE0 SHL DUP2 MSTORE ADDRESS PUSH1 0x4 DUP3 ADD MSTORE PUSH0 SWAP2 PUSH1 0x1 PUSH1 0x1 PUSH1 0xA0 SHL SUB AND SWAP1 PUSH4 0x70A08231 SWAP1 PUSH1 0x24 ADD PUSH1 0x20 PUSH1 0x40 MLOAD DUP1 DUP4 SUB DUP2 DUP7 GAS STATICCALL ISZERO DUP1 ISZERO PUSH2 0xB2A JUMPI RETURNDATASIZE PUSH0 DUP1 RETURNDATACOPY RETURNDATASIZE PUSH0 REVERT JUMPDEST POP POP POP POP PUSH1 0x40 MLOAD RETURNDATASIZE PUSH1 0x1F NOT PUSH1 0x1F DUP3 ADD AND DUP3 ADD DUP1 PUSH1 0x40 MSTORE POP DUP2 ADD SWAP1 PUSH2 0xB4E SWAP2 SWAP1 PUSH2 0x4447 JUMP JUMPDEST PUSH1 0x8 SLOAD PUSH1 0x3 SLOAD SWAP2 SWAP3 POP PUSH0 SWAP2 PUSH2 0xB76 SWAP2 PUSH1 0x1 PUSH1 0x1 PUSH1 0xA0 SHL SUB AND SWAP1 PUSH1 0x1 PUSH1 0x80 SHL SWAP1 DIV PUSH1 0xF SIGNEXTEND PUSH2 0x964 JUMP JUMPDEST SWAP1 POP DUP1 DUP3 GT PUSH2 0xBC7 JUMPI PUSH1 0x40 MLOAD PUSH3 0x461BCD PUSH1 0xE5 SHL DUP2 MSTORE PUSH1 0x20 PUSH1 0x4 DUP3 ADD MSTORE PUSH1 0x13 PUSH1 0x24 DUP3 ADD MSTORE PUSH32 0x4E6F206665657320746F20776974686472617700000000000000000000000000 PUSH1 0x44 DUP3 ADD MSTORE PUSH1 0x64 ADD PUSH2 0x59C JUMP JUMPDEST PUSH0 PUSH2 0xBD2 DUP3 DUP5 PUSH2 0x448B JUMP JUMPDEST SWAP1 POP PUSH2 0xBFB PUSH2 0xBE8 PUSH0 SLOAD PUSH1 0x1 PUSH1 0x1 PUSH1 0xA0 SHL SUB AND SWAP1 JUMP JUMPDEST PUSH1 0x8 SLOAD PUSH1 0x1 PUSH1 0x1 PUSH1 0xA0 SHL SUB AND SWAP1 DUP4 PUSH2 0x2A16 JUMP JUMPDEST PUSH0 SLOAD PUSH1 0x1 PUSH1 0x1 PUSH1 0xA0 SHL SUB AND PUSH1 0x1 PUSH1 0x1 PUSH1 0xA0 SHL SUB AND PUSH32 0xC0819C13BE868895EB93E40EACEB96DE976442FA1D404E5C55F14BB65A8C489A DUP3 PUSH1 0x40 MLOAD PUSH2 0xC40 SWAP2 DUP2 MSTORE PUSH1 0x20 ADD SWAP1 JUMP JUMPDEST PUSH1 0x40 MLOAD DUP1 SWAP2 SUB SWAP1 LOG2 POP POP POP JUMP JUMPDEST PUSH2 0xC55 PUSH2 0x29EA JUMP JUMPDEST PUSH1 0x8 SLOAD PUSH1 0x1 PUSH1 0xA0 SHL SWAP1 DIV PUSH1 0xFF AND ISZERO PUSH2 0xCAF JUMPI PUSH1 0x40 MLOAD PUSH3 0x461BCD PUSH1 0xE5 SHL DUP2 MSTORE PUSH1 0x20 PUSH1 0x4 DUP3 ADD MSTORE PUSH1 0xC PUSH1 0x24 DUP3 ADD MSTORE PUSH32 0x416C726561647920696E69740000000000000000000000000000000000000000 PUSH1 0x44 DUP3 ADD MSTORE PUSH1 0x64 ADD PUSH2 0x59C JUMP JUMPDEST PUSH0 DUP2 GT PUSH2 0xCFE JUMPI PUSH1 0x40 MLOAD PUSH3 0x461BCD PUSH1 0xE5 SHL DUP2 MSTORE PUSH1 0x20 PUSH1 0x4 DUP3 ADD MSTORE PUSH1 0x17 PUSH1 0x24 DUP3 ADD MSTORE PUSH32 0x43616E6E6F7420686176652030206F766572726F756E64000000000000000000 PUSH1 0x44 DUP3 ADD MSTORE PUSH1 0x64 ADD PUSH2 0x59C JUMP JUMPDEST PUSH1 0x7 SLOAD PUSH1 0x40 MLOAD PUSH4 0x365BB9D5 PUSH1 0xE2 SHL DUP2 MSTORE PUSH1 0x1 PUSH1 0x1 PUSH1 0xA0 SHL SUB DUP9 DUP2 AND PUSH1 0x4 DUP4 ADD MSTORE PUSH1 0x24 DUP3 ADD DUP9 SWAP1 MSTORE PUSH1 0x44 DUP3 ADD DUP8 SWAP1 MSTORE SWAP1 SWAP2 AND SWAP1 PUSH4 0xD96EE754 SWAP1 PUSH1 0x64 ADD PUSH0 PUSH1 0x40 MLOAD DUP1 DUP4 SUB DUP2 PUSH0 DUP8 DUP1 EXTCODESIZE ISZERO DUP1 ISZERO PUSH2 0xD50 JUMPI PUSH0 DUP1 REVERT JUMPDEST POP GAS CALL ISZERO DUP1 ISZERO PUSH2 0xD62 JUMPI RETURNDATASIZE PUSH0 DUP1 RETURNDATACOPY RETURNDATASIZE PUSH0 REVERT JUMPDEST POP POP PUSH1 0x7 SLOAD PUSH1 0x40 MLOAD PUSH4 0x42963571 PUSH1 0xE1 SHL DUP2 MSTORE PUSH1 0x1 PUSH1 0x1 PUSH1 0xA0 SHL SUB DUP11 DUP2 AND PUSH1 0x4 DUP4 ADD MSTORE PUSH1 0x24 DUP3 ADD DUP11 SWAP1 MSTORE PUSH1 0x44 DUP3 ADD DUP10 SWAP1 MSTORE SWAP1 SWAP2 AND SWAP3 POP PUSH4 0x852C6AE2 SWAP2 POP PUSH1 0x64 ADD PUSH1 0x20 PUSH1 0x40 MLOAD DUP1 DUP4 SUB DUP2 DUP7 GAS STATICCALL ISZERO DUP1 ISZERO PUSH2 0xDBC JUMPI RETURNDATASIZE PUSH0 DUP1 RETURNDATACOPY RETURNDATASIZE PUSH0 REVERT JUMPDEST POP POP POP POP PUSH1 0x40 MLOAD RETURNDATASIZE PUSH1 0x1F NOT PUSH1 0x1F DUP3 ADD AND DUP3 ADD DUP1 PUSH1 0x40 MSTORE POP DUP2 ADD SWAP1 PUSH2 0xDE0 SWAP2 SWAP1 PUSH2 0x4447 JUMP JUMPDEST PUSH1 0x6 SSTORE PUSH1 0x1 DUP5 SWAP1 SSTORE PUSH0 PUSH2 0xDF2 DUP6 PUSH2 0x2A8F JUMP JUMPDEST PUSH1 0x8 SLOAD SWAP1 SWAP2 POP PUSH0 SWAP1 PUSH2 0xE0D SWAP1 PUSH1 0x1 PUSH1 0x1 PUSH1 0xA0 SHL SUB AND DUP7 PUSH2 0x5E9 JUMP JUMPDEST PUSH1 0x3 DUP1 SLOAD PUSH1 0x1 PUSH1 0x1 PUSH1 0x80 SHL SUB NOT AND PUSH1 0x1 PUSH1 0x1 PUSH1 0x80 SHL SUB DUP4 AND OR SWAP1 SSTORE PUSH1 0x8 SLOAD SWAP1 SWAP2 POP PUSH2 0xE43 SWAP1 PUSH1 0x1 PUSH1 0x1 PUSH1 0xA0 SHL SUB AND CALLER ADDRESS DUP8 PUSH2 0x2AAB JUMP JUMPDEST PUSH0 JUMPDEST DUP7 DUP2 LT ISZERO PUSH2 0xEA5 JUMPI PUSH1 0x2 DUP1 SLOAD PUSH1 0x1 DUP1 DUP3 ADD DUP4 SSTORE PUSH0 DUP4 SWAP1 MSTORE PUSH32 0x405787FA12A823E0F2B7631CC41B3BA8828B3321CA811111FA75CD3AA3BB5ACE SWAP3 DUP3 DIV SWAP3 SWAP1 SWAP3 ADD DUP1 SLOAD SWAP2 DUP4 AND PUSH1 0x10 MUL PUSH2 0x100 EXP PUSH1 0x1 PUSH1 0x1 PUSH1 0x80 SHL SUB MUL NOT SWAP1 SWAP2 AND SWAP1 SSTORE ADD PUSH2 0xE45 JUMP JUMPDEST POP PUSH1 0x8 DUP1 SLOAD PUSH32 0xFFFFFFFFFFFFFFFFFFFFFF00FFFFFFFFFFFFFFFFFFFFFFFFFFFFFFFFFFFFFFFF AND PUSH1 0x1 PUSH1 0xA0 SHL OR SWAP1 SSTORE PUSH1 0x4 SLOAD PUSH2 0xEEB SWAP1 PUSH1 0x1 PUSH1 0x80 SHL SWAP1 DIV PUSH1 0xF SIGNEXTEND DUP4 PUSH2 0x2853 JUMP JUMPDEST PUSH1 0x4 DUP1 SLOAD PUSH1 0x1 PUSH1 0x1 PUSH1 0x80 SHL SUB NOT AND PUSH1 0x1 PUSH1 0x1 PUSH1 0x80 SHL SUB SWAP3 SWAP1 SWAP3 AND SWAP2 SWAP1 SWAP2 OR SWAP1 SSTORE PUSH2 0xF13 PUSH2 0x66C JUMP JUMPDEST PUSH1 0x3 DUP1 SLOAD PUSH1 0x1 PUSH1 0x1 PUSH1 0x80 SHL SUB SWAP3 DUP4 AND PUSH1 0x1 PUSH1 0x80 SHL MUL SWAP3 AND SWAP2 SWAP1 SWAP2 OR SWAP1 SSTORE PUSH2 0xF3C DUP4 PUSH2 0x2710 PUSH2 0x2891 JUMP JUMPDEST PUSH1 0x5 DUP1 SLOAD PUSH1 0x1 PUSH1 0x1 PUSH1 0x80 SHL SUB NOT AND PUSH1 0x1 PUSH1 0x1 PUSH1 0x80 SHL SUB SWAP3 SWAP1 SWAP3 AND SWAP2 SWAP1 SWAP2 OR SWAP1 SSTORE POP POP POP POP POP POP POP POP JUMP JUMPDEST PUSH0 DUP2 PUSH1 0x40 MLOAD PUSH1 0x20 ADD PUSH2 0xF78 SWAP2 SWAP1 PUSH2 0x44B5 JUMP JUMPDEST PUSH1 0x40 MLOAD PUSH1 0x20 DUP2 DUP4 SUB SUB DUP2 MSTORE SWAP1 PUSH1 0x40 MSTORE DUP1 MLOAD SWAP1 PUSH1 0x20 ADD KECCAK256 SWAP1 POP SWAP2 SWAP1 POP JUMP JUMPDEST PUSH0 DUP1 PUSH1 0x1 SLOAD DUP4 LT PUSH2 0xFE0 JUMPI PUSH1 0x40 MLOAD PUSH3 0x461BCD PUSH1 0xE5 SHL DUP2 MSTORE PUSH1 0x20 PUSH1 0x4 DUP3 ADD MSTORE PUSH1 0x15 PUSH1 0x24 DUP3 ADD MSTORE PUSH21 0x92DCECC2D8D2C840DEEAE8C6DEDACA40D2DCC8CAF PUSH1 0x5B SHL PUSH1 0x44 DUP3 ADD MSTORE PUSH1 0x64 ADD PUSH2 0x59C JUMP JUMPDEST PUSH1 0x7 SLOAD PUSH1 0x6 SLOAD PUSH1 0x40 MLOAD PUSH4 0x856296F7 PUSH1 0xE0 SHL DUP2 MSTORE PUSH0 PUSH1 0x4 DUP3 ADD DUP2 SWAP1 MSTORE PUSH1 0x24 DUP3 ADD SWAP3 SWAP1 SWAP3 MSTORE PUSH1 0x1 DUP7 SHL PUSH1 0x44 DUP3 ADD MSTORE SWAP1 SWAP2 PUSH1 0x1 PUSH1 0x1 PUSH1 0xA0 SHL SUB AND SWAP1 PUSH4 0x856296F7 SWAP1 PUSH1 0x64 ADD PUSH1 0x20 PUSH1 0x40 MLOAD DUP1 DUP4 SUB DUP2 DUP7 GAS STATICCALL ISZERO DUP1 ISZERO PUSH2 0x103C JUMPI RETURNDATASIZE PUSH0 DUP1 RETURNDATACOPY RETURNDATASIZE PUSH0 REVERT JUMPDEST POP POP POP POP PUSH1 0x40 MLOAD RETURNDATASIZE PUSH1 0x1F NOT PUSH1 0x1F DUP3 ADD AND DUP3 ADD DUP1 PUSH1 0x40 MSTORE POP DUP2 ADD SWAP1 PUSH2 0x1060 SWAP2 SWAP1 PUSH2 0x4447 JUMP JUMPDEST PUSH1 0x7 SLOAD PUSH1 0x8 SLOAD PUSH1 0x40 MLOAD PUSH4 0x39DD753 PUSH1 0xE4 SHL DUP2 MSTORE PUSH1 0x1 PUSH1 0x1 PUSH1 0xA0 SHL SUB SWAP2 DUP3 AND PUSH1 0x4 DUP3 ADD MSTORE PUSH1 0x24 DUP2 ADD DUP5 SWAP1 MSTORE SWAP3 SWAP4 POP AND SWAP1 PUSH4 0x39DD7530 SWAP1 PUSH1 0x44 ADD PUSH1 0x20 PUSH1 0x40 MLOAD DUP1 DUP4 SUB DUP2 DUP7 GAS STATICCALL ISZERO DUP1 ISZERO PUSH2 0x10B3 JUMPI RETURNDATASIZE PUSH0 DUP1 RETURNDATACOPY RETURNDATASIZE PUSH0 REVERT JUMPDEST POP POP POP POP PUSH1 0x40 MLOAD RETURNDATASIZE PUSH1 0x1F NOT PUSH1 0x1F DUP3 ADD AND DUP3 ADD DUP1 PUSH1 0x40 MSTORE POP DUP2 ADD SWAP1 PUSH2 0x10D7 SWAP2 SWAP1 PUSH2 0x4447 JUMP JUMPDEST PUSH1 0x7 SLOAD PUSH1 0x40 MLOAD PUSH3 0x7EEAC7 PUSH1 0xE1 SHL DUP2 MSTORE ADDRESS PUSH1 0x4 DUP3 ADD MSTORE PUSH1 0x24 DUP2 ADD DUP4 SWAP1 MSTORE SWAP2 SWAP5 POP PUSH1 0x1 PUSH1 0x1 PUSH1 0xA0 SHL SUB AND SWAP1 PUSH3 0xFDD58E SWAP1 PUSH1 0x44 ADD PUSH1 0x20 PUSH1 0x40 MLOAD DUP1 DUP4 SUB DUP2 DUP7 GAS STATICCALL ISZERO DUP1 ISZERO PUSH2 0x1123 JUMPI RETURNDATASIZE PUSH0 DUP1 RETURNDATACOPY RETURNDATASIZE PUSH0 REVERT JUMPDEST POP POP POP POP PUSH1 0x40 MLOAD RETURNDATASIZE PUSH1 0x1F NOT PUSH1 0x1F DUP3 ADD AND DUP3 ADD DUP1 PUSH1 0x40 MSTORE POP DUP2 ADD SWAP1 PUSH2 0x1147 SWAP2 SWAP1 PUSH2 0x4447 JUMP JUMPDEST SWAP2 POP POP SWAP2 POP SWAP2 JUMP JUMPDEST PUSH2 0x1157 PUSH2 0x29EA JUMP JUMPDEST PUSH1 0x8 SLOAD PUSH2 0x116F SWAP1 PUSH1 0x1 PUSH1 0x1 PUSH1 0xA0 SHL SUB AND CALLER ADDRESS DUP5 PUSH2 0x2AAB JUMP JUMPDEST PUSH1 0x8 SLOAD PUSH0 SWAP1 PUSH2 0x1187 SWAP1 PUSH1 0x1 PUSH1 0x1 PUSH1 0xA0 SHL SUB AND DUP4 PUSH2 0x5E9 JUMP JUMPDEST SWAP1 POP PUSH0 JUMPDEST PUSH1 0x1 SLOAD DUP2 LT ISZERO PUSH2 0x1220 JUMPI PUSH2 0x11D2 PUSH1 0x2 DUP3 DUP2 SLOAD DUP2 LT PUSH2 0x11AB JUMPI PUSH2 0x11AB PUSH2 0x4433 JUMP JUMPDEST SWAP1 PUSH0 MSTORE PUSH1 0x20 PUSH0 KECCAK256 SWAP1 PUSH1 0x2 SWAP2 DUP3 DUP3 DIV ADD SWAP2 SWAP1 MOD PUSH1 0x10 MUL SWAP1 SLOAD SWAP1 PUSH2 0x100 EXP SWAP1 DIV PUSH1 0xF SIGNEXTEND DUP4 PUSH2 0x2978 JUMP JUMPDEST PUSH1 0x2 DUP3 DUP2 SLOAD DUP2 LT PUSH2 0x11E5 JUMPI PUSH2 0x11E5 PUSH2 0x4433 JUMP JUMPDEST PUSH0 SWAP2 DUP3 MSTORE PUSH1 0x20 SWAP1 SWAP2 KECCAK256 PUSH1 0x2 DUP3 DIV ADD DUP1 SLOAD PUSH1 0x1 PUSH1 0x1 PUSH1 0x80 SHL SUB SWAP4 DUP5 AND PUSH1 0x10 PUSH1 0x1 SWAP5 DUP6 AND MUL PUSH2 0x100 EXP SWAP1 DUP2 MUL SWAP5 MUL NOT AND SWAP3 SWAP1 SWAP3 OR SWAP1 SWAP2 SSTORE ADD PUSH2 0x118B JUMP JUMPDEST POP PUSH1 0x4 SLOAD PUSH1 0x1 SLOAD PUSH2 0x123E SWAP2 PUSH1 0xF SIGNEXTEND SWAP1 PUSH2 0x6E4 SWAP1 DUP5 SWAP1 PUSH2 0x707 SWAP1 PUSH2 0x2A8F JUMP JUMPDEST PUSH1 0x4 DUP1 SLOAD PUSH1 0x1 PUSH1 0x1 PUSH1 0x80 SHL SUB NOT AND PUSH1 0x1 PUSH1 0x1 PUSH1 0x80 SHL SUB SWAP3 SWAP1 SWAP3 AND SWAP2 SWAP1 SWAP2 OR SWAP1 SSTORE PUSH2 0x1266 PUSH2 0x66C JUMP JUMPDEST PUSH1 0x3 DUP1 SLOAD PUSH1 0x1 PUSH1 0x1 PUSH1 0x80 SHL SUB SWAP3 DUP4 AND PUSH1 0x1 PUSH1 0x80 SHL MUL SWAP3 AND SWAP2 SWAP1 SWAP2 OR SWAP1 SSTORE PUSH1 0x40 MLOAD CALLER SWAP1 PUSH32 0xC17CEA59C2955CB181B03393209566960365771DBBA9DC3D510180E7CB312088 SWAP1 PUSH2 0x12B7 SWAP1 DUP6 DUP2 MSTORE PUSH1 0x20 ADD SWAP1 JUMP JUMPDEST PUSH1 0x40 MLOAD DUP1 SWAP2 SUB SWAP1 LOG2 POP POP JUMP JUMPDEST PUSH0 PUSH2 0x12D1 DUP4 PUSH2 0x360 DUP5 PUSH2 0x44C0 JUMP JUMPDEST PUSH1 0x3 SLOAD PUSH2 0x12E8 SWAP2 SWAP1 PUSH1 0x1 PUSH1 0x80 SHL SWAP1 DIV PUSH1 0xF SIGNEXTEND PUSH2 0x44E4 JUMP JUMPDEST SWAP4 SWAP3 POP POP POP JUMP JUMPDEST PUSH1 0x8 SLOAD PUSH1 0x40 MLOAD PUSH4 0x70A08231 PUSH1 0xE0 SHL DUP2 MSTORE ADDRESS PUSH1 0x4 DUP3 ADD MSTORE PUSH0 SWAP2 DUP3 SWAP2 PUSH1 0x1 PUSH1 0x1 PUSH1 0xA0 SHL SUB SWAP1 SWAP2 AND SWAP1 PUSH4 0x70A08231 SWAP1 PUSH1 0x24 ADD PUSH1 0x20 PUSH1 0x40 MLOAD DUP1 DUP4 SUB DUP2 DUP7 GAS STATICCALL ISZERO DUP1 ISZERO PUSH2 0x1339 JUMPI RETURNDATASIZE PUSH0 DUP1 RETURNDATACOPY RETURNDATASIZE PUSH0 REVERT JUMPDEST POP POP POP POP PUSH1 0x40 MLOAD RETURNDATASIZE PUSH1 0x1F NOT PUSH1 0x1F DUP3 ADD AND DUP3 ADD DUP1 PUSH1 0x40 MSTORE POP DUP2 ADD SWAP1 PUSH2 0x135D SWAP2 SWAP1 PUSH2 0x4447 JUMP JUMPDEST PUSH1 0x8 SLOAD PUSH1 0x3 SLOAD SWAP2 SWAP3 POP PUSH0 SWAP2 PUSH2 0x1385 SWAP2 PUSH1 0x1 PUSH1 0x1 PUSH1 0xA0 SHL SUB AND SWAP1 PUSH1 0x1 PUSH1 0x80 SHL SWAP1 DIV PUSH1 0xF SIGNEXTEND PUSH2 0x964 JUMP JUMPDEST SWAP1 POP DUP1 DUP3 GT ISZERO PUSH2 0x13A0 JUMPI PUSH2 0x1399 DUP2 DUP4 PUSH2 0x448B JUMP JUMPDEST SWAP3 POP POP POP SWAP1 JUMP JUMPDEST PUSH0 SWAP3 POP POP POP SWAP1 JUMP JUMPDEST PUSH2 0x13B0 PUSH2 0x29EA JUMP JUMPDEST PUSH2 0x13B9 PUSH0 PUSH2 0x2AEA JUMP JUMPDEST JUMP JUMPDEST PUSH0 DUP1 PUSH0 PUSH1 0x2 DUP1 SLOAD SWAP1 POP PUSH8 0xFFFFFFFFFFFFFFFF DUP2 GT ISZERO PUSH2 0x13DC JUMPI PUSH2 0x13DC PUSH2 0x3FFB JUMP JUMPDEST PUSH1 0x40 MLOAD SWAP1 DUP1 DUP3 MSTORE DUP1 PUSH1 0x20 MUL PUSH1 0x20 ADD DUP3 ADD PUSH1 0x40 MSTORE DUP1 ISZERO PUSH2 0x1405 JUMPI DUP2 PUSH1 0x20 ADD PUSH1 0x20 DUP3 MUL DUP1 CALLDATASIZE DUP4 CALLDATACOPY ADD SWAP1 POP JUMPDEST POP PUSH1 0x3 SLOAD SWAP1 SWAP2 POP PUSH1 0xF SIGNEXTEND PUSH0 JUMPDEST PUSH1 0x1 SLOAD DUP2 LT ISZERO PUSH2 0x14F1 JUMPI PUSH1 0x1 DUP2 SHL DUP8 AND ISZERO PUSH2 0x148E JUMPI PUSH2 0x1463 PUSH1 0x2 DUP3 DUP2 SLOAD DUP2 LT PUSH2 0x143C JUMPI PUSH2 0x143C PUSH2 0x4433 JUMP JUMPDEST SWAP1 PUSH0 MSTORE PUSH1 0x20 PUSH0 KECCAK256 SWAP1 PUSH1 0x2 SWAP2 DUP3 DUP3 DIV ADD SWAP2 SWAP1 MOD PUSH1 0x10 MUL SWAP1 SLOAD SWAP1 PUSH2 0x100 EXP SWAP1 DIV PUSH1 0xF SIGNEXTEND DUP8 PUSH2 0x2978 JUMP JUMPDEST DUP4 DUP3 DUP2 MLOAD DUP2 LT PUSH2 0x1475 JUMPI PUSH2 0x1475 PUSH2 0x4433 JUMP JUMPDEST PUSH1 0x20 MUL PUSH1 0x20 ADD ADD SWAP1 PUSH1 0xF SIGNEXTEND SWAP1 DUP2 PUSH1 0xF SIGNEXTEND DUP2 MSTORE POP POP PUSH2 0x14E9 JUMP JUMPDEST PUSH1 0x2 DUP2 DUP2 SLOAD DUP2 LT PUSH2 0x14A1 JUMPI PUSH2 0x14A1 PUSH2 0x4433 JUMP JUMPDEST SWAP1 PUSH0 MSTORE PUSH1 0x20 PUSH0 KECCAK256 SWAP1 PUSH1 0x2 SWAP2 DUP3 DUP3 DIV ADD SWAP2 SWAP1 MOD PUSH1 0x10 MUL SWAP1 SLOAD SWAP1 PUSH2 0x100 EXP SWAP1 DIV PUSH1 0xF SIGNEXTEND DUP4 DUP3 DUP2 MLOAD DUP2 LT PUSH2 0x14D4 JUMPI PUSH2 0x14D4 PUSH2 0x4433 JUMP JUMPDEST PUSH1 0x20 MUL PUSH1 0x20 ADD ADD SWAP1 PUSH1 0xF SIGNEXTEND SWAP1 DUP2 PUSH1 0xF SIGNEXTEND DUP2 MSTORE POP POP JUMPDEST PUSH1 0x1 ADD PUSH2 0x1411 JUMP JUMPDEST POP PUSH0 JUMPDEST PUSH1 0x1 SLOAD DUP2 LT ISZERO PUSH2 0x1532 JUMPI PUSH2 0x1528 DUP5 PUSH2 0x6E4 PUSH2 0x6DF DUP7 DUP6 DUP2 MLOAD DUP2 LT PUSH2 0x151A JUMPI PUSH2 0x151A PUSH2 0x4433 JUMP JUMPDEST PUSH1 0x20 MUL PUSH1 0x20 ADD ADD MLOAD DUP7 PUSH2 0x28C6 JUMP JUMPDEST SWAP4 POP PUSH1 0x1 ADD PUSH2 0x14F4 JUMP JUMPDEST POP PUSH2 0x1540 DUP2 PUSH2 0x707 DUP6 PUSH2 0x29B2 JUMP JUMPDEST SWAP7 SWAP6 POP POP POP POP POP POP JUMP JUMPDEST PUSH1 0x60 PUSH0 PUSH1 0x1 DUP1 SLOAD PUSH1 0x1 SWAP1 SHL PUSH2 0x155F SWAP2 SWAP1 PUSH2 0x448B JUMP JUMPDEST SWAP1 POP PUSH1 0x1 DUP4 SHL DUP2 XOR PUSH0 PUSH2 0x1571 DUP3 PUSH2 0x2B51 JUMP JUMPDEST PUSH2 0x157C SWAP1 PUSH1 0x1 PUSH2 0x4420 JUMP JUMPDEST PUSH8 0xFFFFFFFFFFFFFFFF DUP2 GT ISZERO PUSH2 0x1594 JUMPI PUSH2 0x1594 PUSH2 0x3FFB JUMP JUMPDEST PUSH1 0x40 MLOAD SWAP1 DUP1 DUP3 MSTORE DUP1 PUSH1 0x20 MUL PUSH1 0x20 ADD DUP3 ADD PUSH1 0x40 MSTORE DUP1 ISZERO PUSH2 0x15BD JUMPI DUP2 PUSH1 0x20 ADD PUSH1 0x20 DUP3 MUL DUP1 CALLDATASIZE DUP4 CALLDATACOPY ADD SWAP1 POP JUMPDEST POP SWAP1 POP PUSH0 PUSH1 0x1 SWAP1 POP DUP6 PUSH1 0x1 SWAP1 SHL DUP3 PUSH0 DUP2 MLOAD DUP2 LT PUSH2 0x15DC JUMPI PUSH2 0x15DC PUSH2 0x4433 JUMP JUMPDEST PUSH1 0x20 MUL PUSH1 0x20 ADD ADD DUP2 DUP2 MSTORE POP POP PUSH0 JUMPDEST PUSH1 0x1 SLOAD DUP2 LT ISZERO PUSH2 0x1637 JUMPI PUSH1 0x1 DUP2 SHL DUP5 AND ISZERO PUSH2 0x162F JUMPI DUP1 PUSH1 0x1 SWAP1 SHL DUP4 DUP4 DUP2 MLOAD DUP2 LT PUSH2 0x1616 JUMPI PUSH2 0x1616 PUSH2 0x4433 JUMP JUMPDEST PUSH1 0x20 SWAP1 DUP2 MUL SWAP2 SWAP1 SWAP2 ADD ADD MSTORE DUP2 PUSH2 0x162B DUP2 PUSH2 0x451A JUMP JUMPDEST SWAP3 POP POP JUMPDEST PUSH1 0x1 ADD PUSH2 0x15EA JUMP JUMPDEST POP SWAP1 SWAP6 SWAP5 POP POP POP POP POP JUMP JUMPDEST PUSH0 DUP1 DUP4 PUSH1 0x1 PUSH1 0x1 PUSH1 0xA0 SHL SUB AND PUSH4 0x313CE567 PUSH1 0x40 MLOAD DUP2 PUSH4 0xFFFFFFFF AND PUSH1 0xE0 SHL DUP2 MSTORE PUSH1 0x4 ADD PUSH1 0x20 PUSH1 0x40 MLOAD DUP1 DUP4 SUB DUP2 DUP7 GAS STATICCALL ISZERO DUP1 ISZERO PUSH2 0x1680 JUMPI RETURNDATASIZE PUSH0 DUP1 RETURNDATACOPY RETURNDATASIZE PUSH0 REVERT JUMPDEST POP POP POP POP PUSH1 0x40 MLOAD RETURNDATASIZE PUSH1 0x1F NOT PUSH1 0x1F DUP3 ADD AND DUP3 ADD DUP1 PUSH1 0x40 MSTORE POP DUP2 ADD SWAP1 PUSH2 0x16A4 SWAP2 SWAP1 PUSH2 0x4301 JUMP JUMPDEST PUSH1 0xFF AND SWAP1 POP PUSH0 PUSH2 0x16B5 DUP3 PUSH1 0xA PUSH2 0x4415 JUMP JUMPDEST SWAP1 POP PUSH0 DUP5 PUSH1 0xF SIGNEXTEND SLT ISZERO PUSH2 0x170A JUMPI PUSH1 0x40 MLOAD PUSH3 0x461BCD PUSH1 0xE5 SHL DUP2 MSTORE PUSH1 0x20 PUSH1 0x4 DUP3 ADD MSTORE PUSH1 0x1B PUSH1 0x24 DUP3 ADD MSTORE PUSH32 0x416D6F756E74206D757374206265206E6F6E2D6E656761746976650000000000 PUSH1 0x44 DUP3 ADD MSTORE PUSH1 0x64 ADD PUSH2 0x59C JUMP JUMPDEST PUSH2 0x5DE DUP5 DUP3 PUSH2 0x27DE JUMP JUMPDEST PUSH1 0x8 SLOAD PUSH0 SWAP1 PUSH1 0x1 PUSH1 0xA0 SHL SWAP1 DIV PUSH1 0xFF AND ISZERO ISZERO PUSH1 0x1 EQ PUSH2 0x1730 JUMPI PUSH0 DUP1 REVERT JUMPDEST PUSH1 0x1 SLOAD DUP4 LT PUSH2 0x1779 JUMPI PUSH1 0x40 MLOAD PUSH3 0x461BCD PUSH1 0xE5 SHL DUP2 MSTORE PUSH1 0x20 PUSH1 0x4 DUP3 ADD MSTORE PUSH1 0x15 PUSH1 0x24 DUP3 ADD MSTORE PUSH21 0x92DCECC2D8D2C840DEEAE8C6DEDACA40D2DCC8CAF PUSH1 0x5B SHL PUSH1 0x44 DUP3 ADD MSTORE PUSH1 0x64 ADD PUSH2 0x59C JUMP JUMPDEST PUSH0 DUP3 PUSH1 0xF SIGNEXTEND SGT PUSH2 0x17CB JUMPI PUSH1 0x40 MLOAD PUSH3 0x461BCD PUSH1 0xE5 SHL DUP2 MSTORE PUSH1 0x20 PUSH1 0x4 DUP3 ADD MSTORE PUSH1 0x17 PUSH1 0x24 DUP3 ADD MSTORE PUSH32 0x416D6F756E74206D75737420626520706F736974697665000000000000000000 PUSH1 0x44 DUP3 ADD MSTORE PUSH1 0x64 ADD PUSH2 0x59C JUMP JUMPDEST PUSH1 0x7 SLOAD PUSH1 0x6 SLOAD PUSH1 0x40 MLOAD PUSH4 0xDD34DE67 PUSH1 0xE0 SHL DUP2 MSTORE PUSH1 0x1 PUSH1 0x1 PUSH1 0xA0 SHL SUB SWAP1 SWAP3 AND SWAP2 PUSH4 0xDD34DE67 SWAP2 PUSH2 0x1800 SWAP2 PUSH1 0x4 ADD SWAP1 DUP2 MSTORE PUSH1 0x20 ADD SWAP1 JUMP JUMPDEST PUSH1 0x20 PUSH1 0x40 MLOAD DUP1 DUP4 SUB DUP2 DUP7 GAS STATICCALL ISZERO DUP1 ISZERO PUSH2 0x181B JUMPI RETURNDATASIZE PUSH0 DUP1 RETURNDATACOPY RETURNDATASIZE PUSH0 REVERT JUMPDEST POP POP POP POP PUSH1 0x40 MLOAD RETURNDATASIZE PUSH1 0x1F NOT PUSH1 0x1F DUP3 ADD AND DUP3 ADD DUP1 PUSH1 0x40 MSTORE POP DUP2 ADD SWAP1 PUSH2 0x183F SWAP2 SWAP1 PUSH2 0x4447 JUMP JUMPDEST ISZERO PUSH2 0x188C JUMPI PUSH1 0x40 MLOAD PUSH3 0x461BCD PUSH1 0xE5 SHL DUP2 MSTORE PUSH1 0x20 PUSH1 0x4 DUP3 ADD MSTORE PUSH1 0x17 PUSH1 0x24 DUP3 ADD MSTORE PUSH32 0x4D61726B657420616C7265616479207265736F6C766564000000000000000000 PUSH1 0x44 DUP3 ADD MSTORE PUSH1 0x64 ADD PUSH2 0x59C JUMP JUMPDEST DUP2 PUSH1 0xF SIGNEXTEND PUSH1 0x2 DUP5 DUP2 SLOAD DUP2 LT PUSH2 0x18A3 JUMPI PUSH2 0x18A3 PUSH2 0x4433 JUMP JUMPDEST PUSH0 SWAP2 DUP3 MSTORE PUSH1 0x20 SWAP1 SWAP2 KECCAK256 PUSH1 0x2 DUP3 DIV ADD SLOAD PUSH1 0x1 SWAP1 SWAP2 AND PUSH1 0x10 MUL PUSH2 0x100 EXP SWAP1 DIV PUSH1 0xF SIGNEXTEND SLT ISZERO PUSH2 0x1911 JUMPI PUSH1 0x40 MLOAD PUSH3 0x461BCD PUSH1 0xE5 SHL DUP2 MSTORE PUSH1 0x20 PUSH1 0x4 DUP3 ADD MSTORE PUSH1 0x19 PUSH1 0x24 DUP3 ADD MSTORE PUSH32 0x4E6F7420656E6F7567682073686172657320746F2073656C6C00000000000000 PUSH1 0x44 DUP3 ADD MSTORE PUSH1 0x64 ADD PUSH2 0x59C JUMP JUMPDEST PUSH0 DUP1 PUSH0 PUSH2 0x19AC PUSH1 0x2 DUP1 SLOAD DUP1 PUSH1 0x20 MUL PUSH1 0x20 ADD PUSH1 0x40 MLOAD SWAP1 DUP2 ADD PUSH1 0x40 MSTORE DUP1 SWAP3 SWAP2 SWAP1 DUP2 DUP2 MSTORE PUSH1 0x20 ADD DUP3 DUP1 SLOAD DUP1 ISZERO PUSH2 0x1983 JUMPI PUSH1 0x20 MUL DUP3 ADD SWAP2 SWAP1 PUSH0 MSTORE PUSH1 0x20 PUSH0 KECCAK256 SWAP1 PUSH0 SWAP1 JUMPDEST DUP3 SLOAD PUSH2 0x100 DUP4 SWAP1 EXP SWAP1 DIV PUSH1 0xF SIGNEXTEND DUP2 MSTORE PUSH1 0x20 PUSH1 0x1F DUP4 ADD DUP2 SWAP1 DIV SWAP4 DUP5 ADD SWAP4 PUSH1 0x1 SUB PUSH1 0x10 SWAP1 SWAP4 ADD SWAP3 SWAP1 SWAP3 MUL SWAP2 ADD DUP1 DUP5 GT PUSH2 0x194F JUMPI SWAP1 POP JUMPDEST POP POP PUSH1 0x4 SLOAD PUSH1 0x3 SLOAD PUSH1 0x1 SLOAD DUP14 SWAP6 POP DUP13 SWAP5 POP PUSH1 0xF SWAP3 DUP4 SIGNEXTEND SWAP4 POP PUSH1 0x1 PUSH1 0x80 SHL SWAP1 SWAP2 DIV SWAP1 SWAP2 SIGNEXTEND SWAP1 PUSH2 0x2B7F JUMP JUMPDEST PUSH1 0x8 SLOAD SWAP3 SWAP6 POP SWAP1 SWAP4 POP SWAP2 POP PUSH0 SWAP1 PUSH2 0x19CC SWAP1 PUSH1 0x1 PUSH1 0x1 PUSH1 0xA0 SHL SUB AND DUP8 PUSH2 0x1642 JUMP JUMPDEST PUSH1 0x7 SLOAD PUSH1 0x8 SLOAD PUSH1 0x6 SLOAD PUSH1 0x40 MLOAD PUSH4 0x856296F7 PUSH1 0xE0 SHL DUP2 MSTORE PUSH0 PUSH1 0x4 DUP3 ADD DUP2 SWAP1 MSTORE PUSH1 0x24 DUP3 ADD SWAP3 SWAP1 SWAP3 MSTORE PUSH1 0x1 DUP13 SHL PUSH1 0x44 DUP3 ADD MSTORE SWAP4 SWAP5 POP SWAP3 PUSH1 0x1 PUSH1 0x1 PUSH1 0xA0 SHL SUB SWAP3 DUP4 AND SWAP3 PUSH4 0x39DD7530 SWAP3 AND SWAP1 DUP4 SWAP1 PUSH4 0x856296F7 SWAP1 PUSH1 0x64 ADD PUSH1 0x20 PUSH1 0x40 MLOAD DUP1 DUP4 SUB DUP2 DUP7 GAS STATICCALL ISZERO DUP1 ISZERO PUSH2 0x1A39 JUMPI RETURNDATASIZE PUSH0 DUP1 RETURNDATACOPY RETURNDATASIZE PUSH0 REVERT JUMPDEST POP POP POP POP PUSH1 0x40 MLOAD RETURNDATASIZE PUSH1 0x1F NOT PUSH1 0x1F DUP3 ADD AND DUP3 ADD DUP1 PUSH1 0x40 MSTORE POP DUP2 ADD SWAP1 PUSH2 0x1A5D SWAP2 SWAP1 PUSH2 0x4447 JUMP JUMPDEST PUSH1 0x40 MLOAD PUSH1 0x1 PUSH1 0x1 PUSH1 0xE0 SHL SUB NOT PUSH1 0xE0 DUP6 SWAP1 SHL AND DUP2 MSTORE PUSH1 0x1 PUSH1 0x1 PUSH1 0xA0 SHL SUB SWAP1 SWAP3 AND PUSH1 0x4 DUP4 ADD MSTORE PUSH1 0x24 DUP3 ADD MSTORE PUSH1 0x44 ADD PUSH1 0x20 PUSH1 0x40 MLOAD DUP1 DUP4 SUB DUP2 DUP7 GAS STATICCALL ISZERO DUP1 ISZERO PUSH2 0x1AA4 JUMPI RETURNDATASIZE PUSH0 DUP1 RETURNDATACOPY RETURNDATASIZE PUSH0 REVERT JUMPDEST POP POP POP POP PUSH1 0x40 MLOAD RETURNDATASIZE PUSH1 0x1F NOT PUSH1 0x1F DUP3 ADD AND DUP3 ADD DUP1 PUSH1 0x40 MSTORE POP DUP2 ADD SWAP1 PUSH2 0x1AC8 SWAP2 SWAP1 PUSH2 0x4447 JUMP JUMPDEST PUSH1 0x7 SLOAD PUSH1 0x40 MLOAD PUSH4 0x79212195 PUSH1 0xE1 SHL DUP2 MSTORE CALLER PUSH1 0x4 DUP3 ADD MSTORE ADDRESS PUSH1 0x24 DUP3 ADD MSTORE PUSH1 0x44 DUP2 ADD DUP4 SWAP1 MSTORE PUSH1 0x64 DUP2 ADD DUP6 SWAP1 MSTORE PUSH1 0xA0 PUSH1 0x84 DUP3 ADD MSTORE PUSH0 PUSH1 0xA4 DUP3 ADD MSTORE SWAP2 SWAP3 POP PUSH1 0x1 PUSH1 0x1 PUSH1 0xA0 SHL SUB AND SWAP1 PUSH4 0xF242432A SWAP1 PUSH1 0xC4 ADD PUSH0 PUSH1 0x40 MLOAD DUP1 DUP4 SUB DUP2 PUSH0 DUP8 DUP1 EXTCODESIZE ISZERO DUP1 ISZERO PUSH2 0x1B2C JUMPI PUSH0 DUP1 REVERT JUMPDEST POP GAS CALL SWAP3 POP POP POP DUP1 ISZERO PUSH2 0x1B3D JUMPI POP PUSH1 0x1 JUMPDEST PUSH2 0x1BE0 JUMPI PUSH2 0x1B49 PUSH2 0x4532 JUMP JUMPDEST DUP1 PUSH4 0x8C379A0 SUB PUSH2 0x1BD6 JUMPI POP PUSH2 0x1B5D PUSH2 0x454A JUMP JUMPDEST DUP1 PUSH2 0x1B68 JUMPI POP PUSH2 0x1BD8 JUMP JUMPDEST PUSH32 0xBD1DCAECA35AE4A65142E160B7E80D67E7D37F2145F209D9C29B7E4DAF85BA37 DUP2 PUSH1 0x40 MLOAD PUSH2 0x1B97 SWAP2 SWAP1 PUSH2 0x45F6 JUMP JUMPDEST PUSH1 0x40 MLOAD DUP1 SWAP2 SUB SWAP1 LOG1 DUP1 PUSH1 0x40 MLOAD PUSH1 0x20 ADD PUSH2 0x1BB0 SWAP2 SWAP1 PUSH2 0x463C JUMP JUMPDEST PUSH1 0x40 DUP1 MLOAD PUSH1 0x1F NOT DUP2 DUP5 SUB ADD DUP2 MSTORE SWAP1 DUP3 SWAP1 MSTORE PUSH3 0x461BCD PUSH1 0xE5 SHL DUP3 MSTORE PUSH2 0x59C SWAP2 PUSH1 0x4 ADD PUSH2 0x466D JUMP JUMPDEST POP JUMPDEST RETURNDATASIZE PUSH0 DUP1 RETURNDATACOPY RETURNDATASIZE PUSH0 REVERT JUMPDEST PUSH0 PUSH2 0x1BEA DUP10 PUSH2 0x154A JUMP JUMPDEST SWAP1 POP PUSH1 0x1 PUSH0 JUMPDEST DUP3 MLOAD DUP2 LT ISZERO PUSH2 0x1DAB JUMPI PUSH1 0x7 SLOAD PUSH1 0x8 SLOAD PUSH1 0x6 SLOAD DUP6 MLOAD PUSH0 SWAP4 PUSH1 0x1 PUSH1 0x1 PUSH1 0xA0 SHL SUB SWAP1 DUP2 AND SWAP4 PUSH4 0x39DD7530 SWAP4 SWAP2 AND SWAP2 DUP5 SWAP2 PUSH4 0x856296F7 SWAP2 DUP8 SWAP2 SWAP1 DUP12 SWAP1 DUP11 SWAP1 DUP2 LT PUSH2 0x1C38 JUMPI PUSH2 0x1C38 PUSH2 0x4433 JUMP JUMPDEST PUSH1 0x20 MUL PUSH1 0x20 ADD ADD MLOAD PUSH1 0x40 MLOAD DUP5 PUSH4 0xFFFFFFFF AND PUSH1 0xE0 SHL DUP2 MSTORE PUSH1 0x4 ADD PUSH2 0x1C6F SWAP4 SWAP3 SWAP2 SWAP1 SWAP3 DUP4 MSTORE PUSH1 0x20 DUP4 ADD SWAP2 SWAP1 SWAP2 MSTORE PUSH1 0x40 DUP3 ADD MSTORE PUSH1 0x60 ADD SWAP1 JUMP JUMPDEST PUSH1 0x20 PUSH1 0x40 MLOAD DUP1 DUP4 SUB DUP2 DUP7 GAS STATICCALL ISZERO DUP1 ISZERO PUSH2 0x1C8A JUMPI RETURNDATASIZE PUSH0 DUP1 RETURNDATACOPY RETURNDATASIZE PUSH0 REVERT JUMPDEST POP POP POP POP PUSH1 0x40 MLOAD RETURNDATASIZE PUSH1 0x1F NOT PUSH1 0x1F DUP3 ADD AND DUP3 ADD DUP1 PUSH1 0x40 MSTORE POP DUP2 ADD SWAP1 PUSH2 0x1CAE SWAP2 SWAP1 PUSH2 0x4447 JUMP JUMPDEST PUSH1 0x40 MLOAD PUSH1 0x1 PUSH1 0x1 PUSH1 0xE0 SHL SUB NOT PUSH1 0xE0 DUP6 SWAP1 SHL AND DUP2 MSTORE PUSH1 0x1 PUSH1 0x1 PUSH1 0xA0 SHL SUB SWAP1 SWAP3 AND PUSH1 0x4 DUP4 ADD MSTORE PUSH1 0x24 DUP3 ADD MSTORE PUSH1 0x44 ADD PUSH1 0x20 PUSH1 0x40 MLOAD DUP1 DUP4 SUB DUP2 DUP7 GAS STATICCALL ISZERO DUP1 ISZERO PUSH2 0x1CF5 JUMPI RETURNDATASIZE PUSH0 DUP1 RETURNDATACOPY RETURNDATASIZE PUSH0 REVERT JUMPDEST POP POP POP POP PUSH1 0x40 MLOAD RETURNDATASIZE PUSH1 0x1F NOT PUSH1 0x1F DUP3 ADD AND DUP3 ADD DUP1 PUSH1 0x40 MSTORE POP DUP2 ADD SWAP1 PUSH2 0x1D19 SWAP2 SWAP1 PUSH2 0x4447 JUMP JUMPDEST PUSH1 0x7 SLOAD PUSH1 0x40 MLOAD PUSH3 0x7EEAC7 PUSH1 0xE1 SHL DUP2 MSTORE ADDRESS PUSH1 0x4 DUP3 ADD MSTORE PUSH1 0x24 DUP2 ADD DUP4 SWAP1 MSTORE SWAP2 SWAP3 POP PUSH0 SWAP2 PUSH1 0x1 PUSH1 0x1 PUSH1 0xA0 SHL SUB SWAP1 SWAP2 AND SWAP1 PUSH3 0xFDD58E SWAP1 PUSH1 0x44 ADD PUSH1 0x20 PUSH1 0x40 MLOAD DUP1 DUP4 SUB DUP2 DUP7 GAS STATICCALL ISZERO DUP1 ISZERO PUSH2 0x1D69 JUMPI RETURNDATASIZE PUSH0 DUP1 RETURNDATACOPY RETURNDATASIZE PUSH0 REVERT JUMPDEST POP POP POP POP PUSH1 0x40 MLOAD RETURNDATASIZE PUSH1 0x1F NOT PUSH1 0x1F DUP3 ADD AND DUP3 ADD DUP1 PUSH1 0x40 MSTORE POP DUP2 ADD SWAP1 PUSH2 0x1D8D SWAP2 SWAP1 PUSH2 0x4447 JUMP JUMPDEST SWAP1 POP DUP7 DUP2 LT ISZERO PUSH2 0x1DA1 JUMPI PUSH0 SWAP4 POP POP POP PUSH2 0x1DAB JUMP JUMPDEST POP POP PUSH1 0x1 ADD PUSH2 0x1BF0 JUMP JUMPDEST POP DUP1 ISZERO PUSH2 0x1E22 JUMPI PUSH1 0x7 SLOAD PUSH1 0x8 SLOAD PUSH1 0x6 SLOAD PUSH1 0x40 MLOAD PUSH4 0x9E7212AD PUSH1 0xE0 SHL DUP2 MSTORE PUSH1 0x1 PUSH1 0x1 PUSH1 0xA0 SHL SUB SWAP4 DUP5 AND SWAP4 PUSH4 0x9E7212AD SWAP4 PUSH2 0x1DF0 SWAP4 SWAP2 AND SWAP2 PUSH0 SWAP2 SWAP1 DUP9 SWAP1 DUP12 SWAP1 PUSH1 0x4 ADD PUSH2 0x467F JUMP JUMPDEST PUSH0 PUSH1 0x40 MLOAD DUP1 DUP4 SUB DUP2 PUSH0 DUP8 DUP1 EXTCODESIZE ISZERO DUP1 ISZERO PUSH2 0x1E07 JUMPI PUSH0 DUP1 REVERT JUMPDEST POP GAS CALL ISZERO DUP1 ISZERO PUSH2 0x1E19 JUMPI RETURNDATASIZE PUSH0 DUP1 RETURNDATACOPY RETURNDATASIZE PUSH0 REVERT JUMPDEST POP POP POP POP PUSH2 0x2139 JUMP JUMPDEST PUSH0 JUMPDEST DUP3 MLOAD DUP2 LT ISZERO PUSH2 0x20CC JUMPI PUSH1 0x7 SLOAD PUSH1 0x8 SLOAD PUSH1 0x6 SLOAD DUP6 MLOAD PUSH0 SWAP4 PUSH1 0x1 PUSH1 0x1 PUSH1 0xA0 SHL SUB SWAP1 DUP2 AND SWAP4 PUSH4 0x39DD7530 SWAP4 SWAP2 AND SWAP2 DUP5 SWAP2 PUSH4 0x856296F7 SWAP2 DUP8 SWAP2 SWAP1 DUP12 SWAP1 DUP11 SWAP1 DUP2 LT PUSH2 0x1E6C JUMPI PUSH2 0x1E6C PUSH2 0x4433 JUMP JUMPDEST PUSH1 0x20 MUL PUSH1 0x20 ADD ADD MLOAD PUSH1 0x40 MLOAD DUP5 PUSH4 0xFFFFFFFF AND PUSH1 0xE0 SHL DUP2 MSTORE PUSH1 0x4 ADD PUSH2 0x1EA3 SWAP4 SWAP3 SWAP2 SWAP1 SWAP3 DUP4 MSTORE PUSH1 0x20 DUP4 ADD SWAP2 SWAP1 SWAP2 MSTORE PUSH1 0x40 DUP3 ADD MSTORE PUSH1 0x60 ADD SWAP1 JUMP JUMPDEST PUSH1 0x20 PUSH1 0x40 MLOAD DUP1 DUP4 SUB DUP2 DUP7 GAS STATICCALL ISZERO DUP1 ISZERO PUSH2 0x1EBE JUMPI RETURNDATASIZE PUSH0 DUP1 RETURNDATACOPY RETURNDATASIZE PUSH0 REVERT JUMPDEST POP POP POP POP PUSH1 0x40 MLOAD RETURNDATASIZE PUSH1 0x1F NOT PUSH1 0x1F DUP3 ADD AND DUP3 ADD DUP1 PUSH1 0x40 MSTORE POP DUP2 ADD SWAP1 PUSH2 0x1EE2 SWAP2 SWAP1 PUSH2 0x4447 JUMP JUMPDEST PUSH1 0x40 MLOAD PUSH1 0x1 PUSH1 0x1 PUSH1 0xE0 SHL SUB NOT PUSH1 0xE0 DUP6 SWAP1 SHL AND DUP2 MSTORE PUSH1 0x1 PUSH1 0x1 PUSH1 0xA0 SHL SUB SWAP1 SWAP3 AND PUSH1 0x4 DUP4 ADD MSTORE PUSH1 0x24 DUP3 ADD MSTORE PUSH1 0x44 ADD PUSH1 0x20 PUSH1 0x40 MLOAD DUP1 DUP4 SUB DUP2 DUP7 GAS STATICCALL ISZERO DUP1 ISZERO PUSH2 0x1F29 JUMPI RETURNDATASIZE PUSH0 DUP1 RETURNDATACOPY RETURNDATASIZE PUSH0 REVERT JUMPDEST POP POP POP POP PUSH1 0x40 MLOAD RETURNDATASIZE PUSH1 0x1F NOT PUSH1 0x1F DUP3 ADD AND DUP3 ADD DUP1 PUSH1 0x40 MSTORE POP DUP2 ADD SWAP1 PUSH2 0x1F4D SWAP2 SWAP1 PUSH2 0x4447 JUMP JUMPDEST PUSH1 0x7 SLOAD PUSH1 0x40 MLOAD PUSH3 0x7EEAC7 PUSH1 0xE1 SHL DUP2 MSTORE ADDRESS PUSH1 0x4 DUP3 ADD MSTORE PUSH1 0x24 DUP2 ADD DUP4 SWAP1 MSTORE SWAP2 SWAP3 POP PUSH0 SWAP2 PUSH1 0x1 PUSH1 0x1 PUSH1 0xA0 SHL SUB SWAP1 SWAP2 AND SWAP1 PUSH3 0xFDD58E SWAP1 PUSH1 0x44 ADD PUSH1 0x20 PUSH1 0x40 MLOAD DUP1 DUP4 SUB DUP2 DUP7 GAS STATICCALL ISZERO DUP1 ISZERO PUSH2 0x1F9D JUMPI RETURNDATASIZE PUSH0 DUP1 RETURNDATACOPY RETURNDATASIZE PUSH0 REVERT JUMPDEST POP POP POP POP PUSH1 0x40 MLOAD RETURNDATASIZE PUSH1 0x1F NOT PUSH1 0x1F DUP3 ADD AND DUP3 ADD DUP1 PUSH1 0x40 MSTORE POP DUP2 ADD SWAP1 PUSH2 0x1FC1 SWAP2 SWAP1 PUSH2 0x4447 JUMP JUMPDEST SWAP1 POP DUP7 DUP2 LT ISZERO PUSH2 0x20C2 JUMPI PUSH0 PUSH2 0x1FD6 DUP3 DUP10 PUSH2 0x448B JUMP JUMPDEST PUSH1 0x8 SLOAD PUSH1 0x7 SLOAD PUSH1 0x40 MLOAD PUSH4 0x95EA7B3 PUSH1 0xE0 SHL DUP2 MSTORE PUSH1 0x1 PUSH1 0x1 PUSH1 0xA0 SHL SUB SWAP2 DUP3 AND PUSH1 0x4 DUP3 ADD MSTORE PUSH1 0x24 DUP2 ADD DUP5 SWAP1 MSTORE SWAP3 SWAP4 POP AND SWAP1 PUSH4 0x95EA7B3 SWAP1 PUSH1 0x44 ADD PUSH1 0x20 PUSH1 0x40 MLOAD DUP1 DUP4 SUB DUP2 PUSH0 DUP8 GAS CALL ISZERO DUP1 ISZERO PUSH2 0x202A JUMPI RETURNDATASIZE PUSH0 DUP1 RETURNDATACOPY RETURNDATASIZE PUSH0 REVERT JUMPDEST POP POP POP POP PUSH1 0x40 MLOAD RETURNDATASIZE PUSH1 0x1F NOT PUSH1 0x1F DUP3 ADD AND DUP3 ADD DUP1 PUSH1 0x40 MSTORE POP DUP2 ADD SWAP1 PUSH2 0x204E SWAP2 SWAP1 PUSH2 0x46BE JUMP JUMPDEST POP PUSH1 0x7 SLOAD PUSH1 0x8 SLOAD PUSH1 0x6 SLOAD PUSH1 0x40 MLOAD PUSH4 0x72CE4275 PUSH1 0xE0 SHL DUP2 MSTORE PUSH1 0x1 PUSH1 0x1 PUSH1 0xA0 SHL SUB SWAP4 DUP5 AND SWAP4 PUSH4 0x72CE4275 SWAP4 PUSH2 0x208D SWAP4 SWAP2 AND SWAP2 PUSH0 SWAP2 SWAP1 DUP13 SWAP1 DUP9 SWAP1 PUSH1 0x4 ADD PUSH2 0x467F JUMP JUMPDEST PUSH0 PUSH1 0x40 MLOAD DUP1 DUP4 SUB DUP2 PUSH0 DUP8 DUP1 EXTCODESIZE ISZERO DUP1 ISZERO PUSH2 0x20A4 JUMPI PUSH0 DUP1 REVERT JUMPDEST POP GAS CALL ISZERO DUP1 ISZERO PUSH2 0x20B6 JUMPI RETURNDATASIZE PUSH0 DUP1 RETURNDATACOPY RETURNDATASIZE PUSH0 REVERT JUMPDEST POP POP POP POP POP POP POP PUSH2 0x20CC JUMP JUMPDEST POP POP PUSH1 0x1 ADD PUSH2 0x1E24 JUMP JUMPDEST POP PUSH1 0x7 SLOAD PUSH1 0x8 SLOAD PUSH1 0x6 SLOAD PUSH1 0x40 MLOAD PUSH4 0x9E7212AD PUSH1 0xE0 SHL DUP2 MSTORE PUSH1 0x1 PUSH1 0x1 PUSH1 0xA0 SHL SUB SWAP4 DUP5 AND SWAP4 PUSH4 0x9E7212AD SWAP4 PUSH2 0x210B SWAP4 SWAP2 AND SWAP2 PUSH0 SWAP2 SWAP1 DUP9 SWAP1 DUP12 SWAP1 PUSH1 0x4 ADD PUSH2 0x467F JUMP JUMPDEST PUSH0 PUSH1 0x40 MLOAD DUP1 DUP4 SUB DUP2 PUSH0 DUP8 DUP1 EXTCODESIZE ISZERO DUP1 ISZERO PUSH2 0x2122 JUMPI PUSH0 DUP1 REVERT JUMPDEST POP GAS CALL ISZERO DUP1 ISZERO PUSH2 0x2134 JUMPI RETURNDATASIZE PUSH0 DUP1 RETURNDATACOPY RETURNDATASIZE PUSH0 REVERT JUMPDEST POP POP POP POP JUMPDEST PUSH2 0x2176 PUSH1 0x2 DUP12 DUP2 SLOAD DUP2 LT PUSH2 0x214F JUMPI PUSH2 0x214F PUSH2 0x4433 JUMP JUMPDEST SWAP1 PUSH0 MSTORE PUSH1 0x20 PUSH0 KECCAK256 SWAP1 PUSH1 0x2 SWAP2 DUP3 DUP3 DIV ADD SWAP2 SWAP1 MOD PUSH1 0x10 MUL SWAP1 SLOAD SWAP1 PUSH2 0x100 EXP SWAP1 DIV PUSH1 0xF SIGNEXTEND DUP11 PUSH2 0x2CE0 JUMP JUMPDEST PUSH1 0x2 DUP12 DUP2 SLOAD DUP2 LT PUSH2 0x2189 JUMPI PUSH2 0x2189 PUSH2 0x4433 JUMP JUMPDEST PUSH0 SWAP2 DUP3 MSTORE PUSH1 0x20 DUP3 KECCAK256 PUSH1 0x2 DUP3 DIV ADD DUP1 SLOAD PUSH1 0x1 SWAP1 SWAP3 AND PUSH1 0x10 MUL PUSH2 0x100 EXP PUSH1 0x1 PUSH1 0x1 PUSH1 0x80 SHL SUB DUP2 DUP2 MUL NOT SWAP1 SWAP4 AND SWAP5 DUP4 AND MUL SWAP4 SWAP1 SWAP4 OR SWAP1 SWAP3 SSTORE PUSH1 0x4 DUP1 SLOAD PUSH1 0x1 PUSH1 0x1 PUSH1 0x80 SHL SUB NOT AND DUP9 DUP5 AND OR SWAP1 SSTORE PUSH1 0x3 DUP1 SLOAD DUP4 AND PUSH1 0x1 PUSH1 0x80 SHL SWAP4 DUP12 AND SWAP4 SWAP1 SWAP4 MUL SWAP3 SWAP1 SWAP3 OR SWAP1 SWAP2 SSTORE PUSH1 0x8 SLOAD PUSH2 0x2201 SWAP1 PUSH1 0x1 PUSH1 0x1 PUSH1 0xA0 SHL SUB AND DUP9 PUSH2 0x1642 JUMP JUMPDEST PUSH1 0x8 SLOAD SWAP1 SWAP2 POP PUSH2 0x221B SWAP1 PUSH1 0x1 PUSH1 0x1 PUSH1 0xA0 SHL SUB AND CALLER DUP4 PUSH2 0x2A16 JUMP JUMPDEST POP SWAP5 SWAP10 SWAP9 POP POP POP POP POP POP POP POP POP JUMP JUMPDEST PUSH0 PUSH1 0x1 SLOAD DUP3 LT PUSH2 0x2274 JUMPI PUSH1 0x40 MLOAD PUSH3 0x461BCD PUSH1 0xE5 SHL DUP2 MSTORE PUSH1 0x20 PUSH1 0x4 DUP3 ADD MSTORE PUSH1 0x15 PUSH1 0x24 DUP3 ADD MSTORE PUSH21 0x92DCECC2D8D2C840DEEAE8C6DEDACA40D2DCC8CAF PUSH1 0x5B SHL PUSH1 0x44 DUP3 ADD MSTORE PUSH1 0x64 ADD PUSH2 0x59C JUMP JUMPDEST PUSH2 0x5E3 PUSH1 0x2 DUP4 DUP2 SLOAD DUP2 LT PUSH2 0x228A JUMPI PUSH2 0x228A PUSH2 0x4433 JUMP JUMPDEST SWAP1 PUSH0 MSTORE PUSH1 0x20 PUSH0 KECCAK256 SWAP1 PUSH1 0x2 SWAP2 DUP3 DUP3 DIV ADD SWAP2 SWAP1 MOD PUSH1 0x10 MUL SWAP1 SLOAD SWAP1 PUSH2 0x100 EXP SWAP1 DIV PUSH1 0xF SIGNEXTEND PUSH1 0x4 PUSH1 0x10 SWAP1 SLOAD SWAP1 PUSH2 0x100 EXP SWAP1 DIV PUSH1 0xF SIGNEXTEND PUSH2 0x2CE0 JUMP JUMPDEST PUSH1 0x3 SLOAD PUSH0 SWAP1 PUSH1 0x1 PUSH1 0x80 SHL SWAP1 DIV PUSH1 0xF SIGNEXTEND PUSH2 0x22D9 DUP5 DUP5 PUSH2 0x13BB JUMP JUMPDEST PUSH2 0x12E8 SWAP2 SWAP1 PUSH2 0x44E4 JUMP JUMPDEST PUSH1 0x8 SLOAD PUSH1 0x40 MLOAD PUSH4 0x70A08231 PUSH1 0xE0 SHL DUP2 MSTORE ADDRESS PUSH1 0x4 DUP3 ADD MSTORE PUSH0 SWAP2 DUP3 SWAP2 PUSH1 0x1 PUSH1 0x1 PUSH1 0xA0 SHL SUB SWAP1 SWAP2 AND SWAP1 PUSH4 0x70A08231 SWAP1 PUSH1 0x24 ADD PUSH1 0x20 PUSH1 0x40 MLOAD DUP1 DUP4 SUB DUP2 DUP7 GAS STATICCALL ISZERO DUP1 ISZERO PUSH2 0x232D JUMPI RETURNDATASIZE PUSH0 DUP1 RETURNDATACOPY RETURNDATASIZE PUSH0 REVERT JUMPDEST POP POP POP POP PUSH1 0x40 MLOAD RETURNDATASIZE PUSH1 0x1F NOT PUSH1 0x1F DUP3 ADD AND DUP3 ADD DUP1 PUSH1 0x40 MSTORE POP DUP2 ADD SWAP1 PUSH2 0x2351 SWAP2 SWAP1 PUSH2 0x4447 JUMP JUMPDEST PUSH1 0x8 SLOAD PUSH1 0x3 SLOAD SWAP2 SWAP4 POP PUSH2 0x2379 SWAP2 PUSH1 0x1 PUSH1 0x1 PUSH1 0xA0 SHL SUB SWAP1 SWAP2 AND SWAP1 PUSH1 0x1 PUSH1 0x80 SHL SWAP1 DIV PUSH1 0xF SIGNEXTEND PUSH2 0x964 JUMP JUMPDEST SWAP1 POP SWAP1 SWAP2 JUMP JUMPDEST PUSH2 0x2387 PUSH2 0x29EA JUMP JUMPDEST PUSH1 0x1 PUSH1 0x1 PUSH1 0xA0 SHL SUB DUP2 AND PUSH2 0x23B0 JUMPI PUSH1 0x40 MLOAD PUSH4 0x1E4FBDF7 PUSH1 0xE0 SHL DUP2 MSTORE PUSH0 PUSH1 0x4 DUP3 ADD MSTORE PUSH1 0x24 ADD PUSH2 0x59C JUMP JUMPDEST PUSH2 0x961 DUP2 PUSH2 0x2AEA JUMP JUMPDEST PUSH1 0x8 SLOAD PUSH0 SWAP1 PUSH1 0x1 PUSH1 0xA0 SHL SWAP1 DIV PUSH1 0xFF AND ISZERO ISZERO PUSH1 0x1 EQ PUSH2 0x23D5 JUMPI PUSH0 DUP1 REVERT JUMPDEST PUSH1 0x1 SLOAD DUP4 LT PUSH2 0x241E JUMPI PUSH1 0x40 MLOAD PUSH3 0x461BCD PUSH1 0xE5 SHL DUP2 MSTORE PUSH1 0x20 PUSH1 0x4 DUP3 ADD MSTORE PUSH1 0x15 PUSH1 0x24 DUP3 ADD MSTORE PUSH21 0x92DCECC2D8D2C840DEEAE8C6DEDACA40D2DCC8CAF PUSH1 0x5B SHL PUSH1 0x44 DUP3 ADD MSTORE PUSH1 0x64 ADD PUSH2 0x59C JUMP JUMPDEST PUSH0 DUP3 PUSH1 0xF SIGNEXTEND SGT PUSH2 0x2470 JUMPI PUSH1 0x40 MLOAD PUSH3 0x461BCD PUSH1 0xE5 SHL DUP2 MSTORE PUSH1 0x20 PUSH1 0x4 DUP3 ADD MSTORE PUSH1 0x17 PUSH1 0x24 DUP3 ADD MSTORE PUSH32 0x416D6F756E74206D75737420626520706F736974697665000000000000000000 PUSH1 0x44 DUP3 ADD MSTORE PUSH1 0x64 ADD PUSH2 0x59C JUMP JUMPDEST PUSH1 0x7 SLOAD PUSH1 0x6 SLOAD PUSH1 0x40 MLOAD PUSH4 0xDD34DE67 PUSH1 0xE0 SHL DUP2 MSTORE PUSH1 0x1 PUSH1 0x1 PUSH1 0xA0 SHL SUB SWAP1 SWAP3 AND SWAP2 PUSH4 0xDD34DE67 SWAP2 PUSH2 0x24A5 SWAP2 PUSH1 0x4 ADD SWAP1 DUP2 MSTORE PUSH1 0x20 ADD SWAP1 JUMP JUMPDEST PUSH1 0x20 PUSH1 0x40 MLOAD DUP1 DUP4 SUB DUP2 DUP7 GAS STATICCALL ISZERO DUP1 ISZERO PUSH2 0x24C0 JUMPI RETURNDATASIZE PUSH0 DUP1 RETURNDATACOPY RETURNDATASIZE PUSH0 REVERT JUMPDEST POP POP POP POP PUSH1 0x40 MLOAD RETURNDATASIZE PUSH1 0x1F NOT PUSH1 0x1F DUP3 ADD AND DUP3 ADD DUP1 PUSH1 0x40 MSTORE POP DUP2 ADD SWAP1 PUSH2 0x24E4 SWAP2 SWAP1 PUSH2 0x4447 JUMP JUMPDEST ISZERO PUSH2 0x2531 JUMPI PUSH1 0x40 MLOAD PUSH3 0x461BCD PUSH1 0xE5 SHL DUP2 MSTORE PUSH1 0x20 PUSH1 0x4 DUP3 ADD MSTORE PUSH1 0x17 PUSH1 0x24 DUP3 ADD MSTORE PUSH32 0x4D61726B657420616C7265616479207265736F6C766564000000000000000000 PUSH1 0x44 DUP3 ADD MSTORE PUSH1 0x64 ADD PUSH2 0x59C JUMP JUMPDEST PUSH0 DUP1 PUSH0 PUSH2 0x25CC PUSH1 0x2 DUP1 SLOAD DUP1 PUSH1 0x20 MUL PUSH1 0x20 ADD PUSH1 0x40 MLOAD SWAP1 DUP2 ADD PUSH1 0x40 MSTORE DUP1 SWAP3 SWAP2 SWAP1 DUP2 DUP2 MSTORE PUSH1 0x20 ADD DUP3 DUP1 SLOAD DUP1 ISZERO PUSH2 0x25A3 JUMPI PUSH1 0x20 MUL DUP3 ADD SWAP2 SWAP1 PUSH0 MSTORE PUSH1 0x20 PUSH0 KECCAK256 SWAP1 PUSH0 SWAP1 JUMPDEST DUP3 SLOAD PUSH2 0x100 DUP4 SWAP1 EXP SWAP1 DIV PUSH1 0xF SIGNEXTEND DUP2 MSTORE PUSH1 0x20 PUSH1 0x1F DUP4 ADD DUP2 SWAP1 DIV SWAP4 DUP5 ADD SWAP4 PUSH1 0x1 SUB PUSH1 0x10 SWAP1 SWAP4 ADD SWAP3 SWAP1 SWAP3 MUL SWAP2 ADD DUP1 DUP5 GT PUSH2 0x256F JUMPI SWAP1 POP JUMPDEST POP POP PUSH1 0x4 SLOAD PUSH1 0x3 SLOAD PUSH1 0x1 SLOAD DUP14 SWAP6 POP DUP13 SWAP5 POP PUSH1 0xF SWAP3 DUP4 SIGNEXTEND SWAP4 POP PUSH1 0x1 PUSH1 0x80 SHL SWAP1 SWAP2 DIV SWAP1 SWAP2 SIGNEXTEND SWAP1 PUSH2 0x2D1A JUMP JUMPDEST SWAP3 POP SWAP3 POP SWAP3 POP PUSH0 PUSH2 0x25EB PUSH2 0x25E0 PUSH1 0x1 PUSH2 0x2A8F JUMP JUMPDEST PUSH1 0x5 SLOAD PUSH1 0xF SIGNEXTEND PUSH2 0x2978 JUMP JUMPDEST SWAP1 POP PUSH0 PUSH2 0x25F8 DUP5 DUP4 PUSH2 0x2853 JUMP JUMPDEST PUSH1 0x8 SLOAD SWAP1 SWAP2 POP PUSH0 SWAP1 PUSH2 0x2613 SWAP1 PUSH1 0x1 PUSH1 0x1 PUSH1 0xA0 SHL SUB AND DUP4 PUSH2 0x4D8 JUMP JUMPDEST PUSH1 0x40 DUP1 MLOAD DUP3 DUP2 MSTORE PUSH1 0xF DUP6 SWAP1 SIGNEXTEND PUSH1 0x20 DUP3 ADD MSTORE SWAP2 SWAP3 POP PUSH32 0xBD58A27F98D614697F8A2D66C4C15779B5C06324BDC1F23994D9E5F93A537A4D SWAP2 ADD PUSH1 0x40 MLOAD DUP1 SWAP2 SUB SWAP1 LOG1 PUSH1 0x8 SLOAD PUSH1 0x40 MLOAD PUSH4 0x23B872DD PUSH1 0xE0 SHL DUP2 MSTORE CALLER PUSH1 0x4 DUP3 ADD MSTORE ADDRESS PUSH1 0x24 DUP3 ADD MSTORE PUSH1 0x44 DUP2 ADD DUP4 SWAP1 MSTORE PUSH1 0x1 PUSH1 0x1 PUSH1 0xA0 SHL SUB SWAP1 SWAP2 AND SWAP1 PUSH4 0x23B872DD SWAP1 PUSH1 0x64 ADD PUSH1 0x20 PUSH1 0x40 MLOAD DUP1 DUP4 SUB DUP2 PUSH0 DUP8 GAS CALL ISZERO DUP1 ISZERO PUSH2 0x26A6 JUMPI RETURNDATASIZE PUSH0 DUP1 RETURNDATACOPY RETURNDATASIZE PUSH0 REVERT JUMPDEST POP POP POP POP PUSH1 0x40 MLOAD RETURNDATASIZE PUSH1 0x1F NOT PUSH1 0x1F DUP3 ADD AND DUP3 ADD DUP1 PUSH1 0x40 MSTORE POP DUP2 ADD SWAP1 PUSH2 0x26CA SWAP2 SWAP1 PUSH2 0x46BE JUMP JUMPDEST PUSH2 0x2716 JUMPI PUSH1 0x40 MLOAD PUSH3 0x461BCD PUSH1 0xE5 SHL DUP2 MSTORE PUSH1 0x20 PUSH1 0x4 DUP3 ADD MSTORE PUSH1 0x19 PUSH1 0x24 DUP3 ADD MSTORE PUSH32 0x4572726F72207472616E7366657272696E6720746F6B656E7300000000000000 PUSH1 0x44 DUP3 ADD MSTORE PUSH1 0x64 ADD PUSH2 0x59C JUMP JUMPDEST PUSH2 0x2753 PUSH1 0x2 DUP11 DUP2 SLOAD DUP2 LT PUSH2 0x272C JUMPI PUSH2 0x272C PUSH2 0x4433 JUMP JUMPDEST SWAP1 PUSH0 MSTORE PUSH1 0x20 PUSH0 KECCAK256 SWAP1 PUSH1 0x2 SWAP2 DUP3 DUP3 DIV ADD SWAP2 SWAP1 MOD PUSH1 0x10 MUL SWAP1 SLOAD SWAP1 PUSH2 0x100 EXP SWAP1 DIV PUSH1 0xF SIGNEXTEND DUP10 PUSH2 0x2978 JUMP JUMPDEST PUSH1 0x2 DUP11 DUP2 SLOAD DUP2 LT PUSH2 0x2766 JUMPI PUSH2 0x2766 PUSH2 0x4433 JUMP JUMPDEST PUSH0 SWAP2 DUP3 MSTORE PUSH1 0x20 SWAP1 SWAP2 KECCAK256 PUSH1 0x2 DUP3 DIV ADD DUP1 SLOAD PUSH1 0x1 SWAP1 SWAP3 AND PUSH1 0x10 MUL PUSH2 0x100 EXP PUSH1 0x1 PUSH1 0x1 PUSH1 0x80 SHL SUB DUP2 DUP2 MUL NOT SWAP1 SWAP4 AND SWAP4 DUP4 AND MUL SWAP3 SWAP1 SWAP3 OR SWAP1 SWAP2 SSTORE PUSH1 0x4 DUP1 SLOAD PUSH1 0x1 PUSH1 0x1 PUSH1 0x80 SHL SUB NOT AND DUP7 DUP4 AND OR SWAP1 SSTORE PUSH1 0x3 DUP1 SLOAD DUP3 AND PUSH1 0x1 PUSH1 0x80 SHL SWAP3 DUP10 AND SWAP3 SWAP1 SWAP3 MUL SWAP2 SWAP1 SWAP2 OR SWAP1 SSTORE PUSH2 0x27D2 DUP10 DUP10 PUSH2 0x2E5C JUMP JUMPDEST POP SWAP8 SWAP7 POP POP POP POP POP POP POP JUMP JUMPDEST PUSH0 DUP2 PUSH0 SUB PUSH2 0x27ED JUMPI POP PUSH0 PUSH2 0x5E3 JUMP JUMPDEST PUSH0 DUP4 PUSH1 0xF SIGNEXTEND SLT ISZERO PUSH2 0x27FC JUMPI PUSH0 DUP1 REVERT JUMPDEST PUSH1 0xF DUP4 SWAP1 SIGNEXTEND PUSH1 0x1 PUSH1 0x1 PUSH1 0x80 SHL SUB DUP4 AND DUP2 MUL PUSH1 0x40 SHR SWAP1 PUSH1 0x80 DUP5 SWAP1 SHR MUL PUSH24 0xFFFFFFFFFFFFFFFFFFFFFFFFFFFFFFFFFFFFFFFFFFFFFFFF DUP2 GT ISZERO PUSH2 0x283B JUMPI PUSH0 DUP1 REVERT JUMPDEST PUSH1 0x40 SHL DUP2 NOT DUP2 GT ISZERO PUSH2 0x284B JUMPI PUSH0 DUP1 REVERT JUMPDEST ADD SWAP4 SWAP3 POP POP POP JUMP JUMPDEST PUSH0 PUSH1 0xF DUP4 DUP2 SIGNEXTEND SWAP1 DUP4 SWAP1 SIGNEXTEND MUL PUSH1 0x40 SAR PUSH16 0x7FFFFFFFFFFFFFFFFFFFFFFFFFFFFFFF NOT DUP2 SLT DUP1 ISZERO SWAP1 PUSH2 0x2889 JUMPI POP PUSH1 0x1 PUSH1 0x1 PUSH1 0x7F SHL SUB DUP2 SGT ISZERO JUMPDEST PUSH2 0x12E8 JUMPI PUSH0 DUP1 REVERT JUMPDEST PUSH0 DUP2 PUSH0 SUB PUSH2 0x289D JUMPI PUSH0 DUP1 REVERT JUMPDEST PUSH0 PUSH2 0x28A8 DUP5 DUP5 PUSH2 0x31C0 JUMP JUMPDEST SWAP1 POP PUSH1 0x1 PUSH1 0x1 PUSH1 0x7F SHL SUB PUSH1 0x1 PUSH1 0x1 PUSH1 0x80 SHL SUB DUP3 AND GT ISZERO PUSH2 0x12E8 JUMPI PUSH0 DUP1 REVERT JUMPDEST PUSH0 DUP2 PUSH1 0xF SIGNEXTEND PUSH0 SUB PUSH2 0x28D5 JUMPI PUSH0 DUP1 REVERT JUMPDEST PUSH0 DUP3 PUSH1 0xF SIGNEXTEND PUSH1 0x40 DUP6 PUSH1 0xF SIGNEXTEND SWAP1 SHL DUP2 PUSH2 0x28EF JUMPI PUSH2 0x28EF PUSH2 0x46DD JUMP JUMPDEST SDIV SWAP1 POP PUSH16 0x7FFFFFFFFFFFFFFFFFFFFFFFFFFFFFFF NOT DUP2 SLT DUP1 ISZERO SWAP1 PUSH2 0x2889 JUMPI POP PUSH1 0x1 PUSH1 0x1 PUSH1 0x7F SHL SUB DUP2 SGT ISZERO PUSH2 0x12E8 JUMPI PUSH0 DUP1 REVERT JUMPDEST PUSH0 PUSH9 0x400000000000000000 DUP3 PUSH1 0xF SIGNEXTEND SLT PUSH2 0x2939 JUMPI PUSH0 DUP1 REVERT JUMPDEST PUSH9 0x3FFFFFFFFFFFFFFFFF NOT DUP3 PUSH1 0xF SIGNEXTEND SLT ISZERO PUSH2 0x2955 JUMPI POP PUSH0 SWAP2 SWAP1 POP JUMP JUMPDEST PUSH2 0x5E3 PUSH1 0x80 DUP4 PUSH1 0xF SIGNEXTEND PUSH17 0x171547652B82FE1777D0FFDA0D23A7D12 MUL SWAP1 SAR PUSH2 0x3330 JUMP JUMPDEST PUSH0 PUSH1 0xF DUP4 DUP2 SIGNEXTEND SWAP1 DUP4 SWAP1 SIGNEXTEND ADD PUSH16 0x7FFFFFFFFFFFFFFFFFFFFFFFFFFFFFFF NOT DUP2 SLT DUP1 ISZERO SWAP1 PUSH2 0x2889 JUMPI POP PUSH1 0x1 PUSH1 0x1 PUSH1 0x7F SHL SUB DUP2 SGT ISZERO PUSH2 0x12E8 JUMPI PUSH0 DUP1 REVERT JUMPDEST PUSH0 DUP1 DUP3 PUSH1 0xF SIGNEXTEND SGT PUSH2 0x29C1 JUMPI PUSH0 DUP1 REVERT JUMPDEST PUSH1 0x80 PUSH2 0x29CC DUP4 PUSH2 0x3DB6 JUMP JUMPDEST PUSH1 0xF SIGNEXTEND PUSH16 0xB17217F7D1CF79ABC9E3B39803F2F6AF MUL SWAP1 SHR SWAP1 POP SWAP2 SWAP1 POP JUMP JUMPDEST PUSH0 SLOAD PUSH1 0x1 PUSH1 0x1 PUSH1 0xA0 SHL SUB AND CALLER EQ PUSH2 0x13B9 JUMPI PUSH1 0x40 MLOAD PUSH4 0x118CDAA7 PUSH1 0xE0 SHL DUP2 MSTORE CALLER PUSH1 0x4 DUP3 ADD MSTORE PUSH1 0x24 ADD PUSH2 0x59C JUMP JUMPDEST PUSH1 0x40 MLOAD PUSH1 0x1 PUSH1 0x1 PUSH1 0xA0 SHL SUB DUP4 DUP2 AND PUSH1 0x24 DUP4 ADD MSTORE PUSH1 0x44 DUP3 ADD DUP4 SWAP1 MSTORE PUSH2 0x2A8A SWAP2 DUP6 SWAP2 DUP3 AND SWAP1 PUSH4 0xA9059CBB SWAP1 PUSH1 0x64 ADD JUMPDEST PUSH1 0x40 MLOAD PUSH1 0x20 DUP2 DUP4 SUB SUB DUP2 MSTORE SWAP1 PUSH1 0x40 MSTORE SWAP2 POP PUSH1 0xE0 SHL PUSH1 0x20 DUP3 ADD DUP1 MLOAD PUSH28 0xFFFFFFFFFFFFFFFFFFFFFFFFFFFFFFFFFFFFFFFFFFFFFFFFFFFFFFFF DUP4 DUP2 DUP4 AND OR DUP4 MSTORE POP POP POP POP PUSH2 0x3E8B JUMP JUMPDEST POP POP POP JUMP JUMPDEST PUSH0 PUSH8 0x7FFFFFFFFFFFFFFF DUP3 GT ISZERO PUSH2 0x2AA4 JUMPI PUSH0 DUP1 REVERT JUMPDEST POP PUSH1 0x40 SHL SWAP1 JUMP JUMPDEST PUSH1 0x40 MLOAD PUSH1 0x1 PUSH1 0x1 PUSH1 0xA0 SHL SUB DUP5 DUP2 AND PUSH1 0x24 DUP4 ADD MSTORE DUP4 DUP2 AND PUSH1 0x44 DUP4 ADD MSTORE PUSH1 0x64 DUP3 ADD DUP4 SWAP1 MSTORE PUSH2 0x2AE4 SWAP2 DUP7 SWAP2 DUP3 AND SWAP1 PUSH4 0x23B872DD SWAP1 PUSH1 0x84 ADD PUSH2 0x2A43 JUMP JUMPDEST POP POP POP POP JUMP JUMPDEST PUSH0 DUP1 SLOAD PUSH1 0x1 PUSH1 0x1 PUSH1 0xA0 SHL SUB DUP4 DUP2 AND PUSH32 0xFFFFFFFFFFFFFFFFFFFFFFFF0000000000000000000000000000000000000000 DUP4 AND DUP2 OR DUP5 SSTORE PUSH1 0x40 MLOAD SWAP2 SWAP1 SWAP3 AND SWAP3 DUP4 SWAP2 PUSH32 0x8BE0079C531659141344CD1FD0A4F28419497F9722A3DAAFE3B4186F6B6457E0 SWAP2 SWAP1 LOG3 POP POP JUMP JUMPDEST PUSH0 JUMPDEST DUP2 ISZERO PUSH2 0x2B7A JUMPI PUSH2 0x2B64 PUSH1 0x1 DUP4 PUSH2 0x448B JUMP JUMPDEST SWAP1 SWAP2 AND SWAP1 DUP1 PUSH2 0x2B72 DUP2 PUSH2 0x451A JUMP JUMPDEST SWAP2 POP POP PUSH2 0x2B53 JUMP JUMPDEST SWAP2 SWAP1 POP JUMP JUMPDEST PUSH0 DUP1 PUSH0 DUP1 DUP5 PUSH8 0xFFFFFFFFFFFFFFFF DUP2 GT ISZERO PUSH2 0x2B9C JUMPI PUSH2 0x2B9C PUSH2 0x3FFB JUMP JUMPDEST PUSH1 0x40 MLOAD SWAP1 DUP1 DUP3 MSTORE DUP1 PUSH1 0x20 MUL PUSH1 0x20 ADD DUP3 ADD PUSH1 0x40 MSTORE DUP1 ISZERO PUSH2 0x2BC5 JUMPI DUP2 PUSH1 0x20 ADD PUSH1 0x20 DUP3 MUL DUP1 CALLDATASIZE DUP4 CALLDATACOPY ADD SWAP1 POP JUMPDEST POP SWAP1 POP PUSH0 JUMPDEST DUP6 DUP2 LT ISZERO PUSH2 0x2C19 JUMPI DUP11 DUP2 DUP2 MLOAD DUP2 LT PUSH2 0x2BE4 JUMPI PUSH2 0x2BE4 PUSH2 0x4433 JUMP JUMPDEST PUSH1 0x20 MUL PUSH1 0x20 ADD ADD MLOAD DUP3 DUP3 DUP2 MLOAD DUP2 LT PUSH2 0x2BFE JUMPI PUSH2 0x2BFE PUSH2 0x4433 JUMP JUMPDEST PUSH1 0xF SWAP3 SWAP1 SWAP3 SIGNEXTEND PUSH1 0x20 SWAP3 DUP4 MUL SWAP2 SWAP1 SWAP2 ADD SWAP1 SWAP2 ADD MSTORE PUSH1 0x1 ADD PUSH2 0x2BCA JUMP JUMPDEST POP PUSH2 0x2C3D DUP2 DUP11 DUP2 MLOAD DUP2 LT PUSH2 0x2C2F JUMPI PUSH2 0x2C2F PUSH2 0x4433 JUMP JUMPDEST PUSH1 0x20 MUL PUSH1 0x20 ADD ADD MLOAD DUP10 PUSH2 0x2CE0 JUMP JUMPDEST DUP2 DUP11 DUP2 MLOAD DUP2 LT PUSH2 0x2C4F JUMPI PUSH2 0x2C4F PUSH2 0x4433 JUMP JUMPDEST PUSH1 0x20 MUL PUSH1 0x20 ADD ADD SWAP1 PUSH1 0xF SIGNEXTEND SWAP1 DUP2 PUSH1 0xF SIGNEXTEND DUP2 MSTORE POP POP PUSH2 0x2C6D DUP8 DUP10 PUSH2 0x2CE0 JUMP JUMPDEST PUSH1 0x3 SLOAD SWAP1 SWAP3 POP PUSH1 0xF SIGNEXTEND PUSH0 DUP1 JUMPDEST DUP8 DUP2 LT ISZERO PUSH2 0x2CB5 JUMPI PUSH2 0x2CAB DUP3 PUSH2 0x6E4 PUSH2 0x6DF DUP8 DUP6 DUP2 MLOAD DUP2 LT PUSH2 0x2C9D JUMPI PUSH2 0x2C9D PUSH2 0x4433 JUMP JUMPDEST PUSH1 0x20 MUL PUSH1 0x20 ADD ADD MLOAD DUP8 PUSH2 0x28C6 JUMP JUMPDEST SWAP2 POP PUSH1 0x1 ADD PUSH2 0x2C79 JUMP JUMPDEST POP PUSH2 0x2CC3 DUP3 PUSH2 0x707 DUP4 PUSH2 0x29B2 JUMP JUMPDEST SWAP6 POP PUSH2 0x2CCF DUP9 DUP8 PUSH2 0x2CE0 JUMP JUMPDEST SWAP5 POP POP POP POP SWAP7 POP SWAP7 POP SWAP7 SWAP4 POP POP POP POP JUMP JUMPDEST PUSH0 PUSH1 0xF DUP3 DUP2 SIGNEXTEND SWAP1 DUP5 SWAP1 SIGNEXTEND SUB PUSH16 0x7FFFFFFFFFFFFFFFFFFFFFFFFFFFFFFF NOT DUP2 SLT DUP1 ISZERO SWAP1 PUSH2 0x2889 JUMPI POP PUSH1 0x1 PUSH1 0x1 PUSH1 0x7F SHL SUB DUP2 SGT ISZERO PUSH2 0x12E8 JUMPI PUSH0 DUP1 REVERT JUMPDEST PUSH0 DUP1 PUSH0 DUP1 DUP5 PUSH8 0xFFFFFFFFFFFFFFFF DUP2 GT ISZERO PUSH2 0x2D37 JUMPI PUSH2 0x2D37 PUSH2 0x3FFB JUMP JUMPDEST PUSH1 0x40 MLOAD SWAP1 DUP1 DUP3 MSTORE DUP1 PUSH1 0x20 MUL PUSH1 0x20 ADD DUP3 ADD PUSH1 0x40 MSTORE DUP1 ISZERO PUSH2 0x2D60 JUMPI DUP2 PUSH1 0x20 ADD PUSH1 0x20 DUP3 MUL DUP1 CALLDATASIZE DUP4 CALLDATACOPY ADD SWAP1 POP JUMPDEST POP SWAP1 POP PUSH0 JUMPDEST DUP6 DUP2 LT ISZERO PUSH2 0x2DB4 JUMPI DUP11 DUP2 DUP2 MLOAD DUP2 LT PUSH2 0x2D7F JUMPI PUSH2 0x2D7F PUSH2 0x4433 JUMP JUMPDEST PUSH1 0x20 MUL PUSH1 0x20 ADD ADD MLOAD DUP3 DUP3 DUP2 MLOAD DUP2 LT PUSH2 0x2D99 JUMPI PUSH2 0x2D99 PUSH2 0x4433 JUMP JUMPDEST PUSH1 0xF SWAP3 SWAP1 SWAP3 SIGNEXTEND PUSH1 0x20 SWAP3 DUP4 MUL SWAP2 SWAP1 SWAP2 ADD SWAP1 SWAP2 ADD MSTORE PUSH1 0x1 ADD PUSH2 0x2D65 JUMP JUMPDEST POP PUSH2 0x2DD8 DUP2 DUP11 DUP2 MLOAD DUP2 LT PUSH2 0x2DCA JUMPI PUSH2 0x2DCA PUSH2 0x4433 JUMP JUMPDEST PUSH1 0x20 MUL PUSH1 0x20 ADD ADD MLOAD DUP10 PUSH2 0x2978 JUMP JUMPDEST DUP2 DUP11 DUP2 MLOAD DUP2 LT PUSH2 0x2DEA JUMPI PUSH2 0x2DEA PUSH2 0x4433 JUMP JUMPDEST PUSH1 0x20 MUL PUSH1 0x20 ADD ADD SWAP1 PUSH1 0xF SIGNEXTEND SWAP1 DUP2 PUSH1 0xF SIGNEXTEND DUP2 MSTORE POP POP PUSH2 0x2E08 DUP8 DUP10 PUSH2 0x2978 JUMP JUMPDEST PUSH1 0x3 SLOAD SWAP1 SWAP3 POP PUSH1 0xF SIGNEXTEND PUSH0 DUP1 JUMPDEST DUP8 DUP2 LT ISZERO PUSH2 0x2E42 JUMPI PUSH2 0x2E38 DUP3 PUSH2 0x6E4 PUSH2 0x6DF DUP8 DUP6 DUP2 MLOAD DUP2 LT PUSH2 0x2C9D JUMPI PUSH2 0x2C9D PUSH2 0x4433 JUMP JUMPDEST SWAP2 POP PUSH1 0x1 ADD PUSH2 0x2E14 JUMP JUMPDEST POP PUSH2 0x2E50 DUP3 PUSH2 0x707 DUP4 PUSH2 0x29B2 JUMP JUMPDEST SWAP6 POP PUSH2 0x2CCF DUP7 DUP10 PUSH2 0x2CE0 JUMP JUMPDEST PUSH1 0x8 SLOAD PUSH0 SWAP1 PUSH2 0x2E74 SWAP1 PUSH1 0x1 PUSH1 0x1 PUSH1 0xA0 SHL SUB AND DUP4 PUSH2 0x4D8 JUMP JUMPDEST PUSH1 0x7 SLOAD PUSH1 0x8 SLOAD PUSH1 0x6 SLOAD PUSH1 0x40 MLOAD PUSH4 0x856296F7 PUSH1 0xE0 SHL DUP2 MSTORE PUSH0 PUSH1 0x4 DUP3 ADD DUP2 SWAP1 MSTORE PUSH1 0x24 DUP3 ADD SWAP3 SWAP1 SWAP3 MSTORE PUSH1 0x1 DUP9 SHL PUSH1 0x44 DUP3 ADD MSTORE SWAP4 SWAP5 POP SWAP3 PUSH1 0x1 PUSH1 0x1 PUSH1 0xA0 SHL SUB SWAP3 DUP4 AND SWAP3 PUSH4 0x39DD7530 SWAP3 AND SWAP1 DUP4 SWAP1 PUSH4 0x856296F7 SWAP1 PUSH1 0x64 ADD PUSH1 0x20 PUSH1 0x40 MLOAD DUP1 DUP4 SUB DUP2 DUP7 GAS STATICCALL ISZERO DUP1 ISZERO PUSH2 0x2EE1 JUMPI RETURNDATASIZE PUSH0 DUP1 RETURNDATACOPY RETURNDATASIZE PUSH0 REVERT JUMPDEST POP POP POP POP PUSH1 0x40 MLOAD RETURNDATASIZE PUSH1 0x1F NOT PUSH1 0x1F DUP3 ADD AND DUP3 ADD DUP1 PUSH1 0x40 MSTORE POP DUP2 ADD SWAP1 PUSH2 0x2F05 SWAP2 SWAP1 PUSH2 0x4447 JUMP JUMPDEST PUSH1 0x40 MLOAD PUSH1 0x1 PUSH1 0x1 PUSH1 0xE0 SHL SUB NOT PUSH1 0xE0 DUP6 SWAP1 SHL AND DUP2 MSTORE PUSH1 0x1 PUSH1 0x1 PUSH1 0xA0 SHL SUB SWAP1 SWAP3 AND PUSH1 0x4 DUP4 ADD MSTORE PUSH1 0x24 DUP3 ADD MSTORE PUSH1 0x44 ADD PUSH1 0x20 PUSH1 0x40 MLOAD DUP1 DUP4 SUB DUP2 DUP7 GAS STATICCALL ISZERO DUP1 ISZERO PUSH2 0x2F4C JUMPI RETURNDATASIZE PUSH0 DUP1 RETURNDATACOPY RETURNDATASIZE PUSH0 REVERT JUMPDEST POP POP POP POP PUSH1 0x40 MLOAD RETURNDATASIZE PUSH1 0x1F NOT PUSH1 0x1F DUP3 ADD AND DUP3 ADD DUP1 PUSH1 0x40 MSTORE POP DUP2 ADD SWAP1 PUSH2 0x2F70 SWAP2 SWAP1 PUSH2 0x4447 JUMP JUMPDEST PUSH1 0x7 SLOAD PUSH1 0x40 MLOAD PUSH3 0x7EEAC7 PUSH1 0xE1 SHL DUP2 MSTORE ADDRESS PUSH1 0x4 DUP3 ADD MSTORE PUSH1 0x24 DUP2 ADD DUP4 SWAP1 MSTORE SWAP2 SWAP3 POP PUSH0 SWAP2 PUSH1 0x1 PUSH1 0x1 PUSH1 0xA0 SHL SUB SWAP1 SWAP2 AND SWAP1 PUSH3 0xFDD58E SWAP1 PUSH1 0x44 ADD PUSH1 0x20 PUSH1 0x40 MLOAD DUP1 DUP4 SUB DUP2 DUP7 GAS STATICCALL ISZERO DUP1 ISZERO PUSH2 0x2FC0 JUMPI RETURNDATASIZE PUSH0 DUP1 RETURNDATACOPY RETURNDATASIZE PUSH0 REVERT JUMPDEST POP POP POP POP PUSH1 0x40 MLOAD RETURNDATASIZE PUSH1 0x1F NOT PUSH1 0x1F DUP3 ADD AND DUP3 ADD DUP1 PUSH1 0x40 MSTORE POP DUP2 ADD SWAP1 PUSH2 0x2FE4 SWAP2 SWAP1 PUSH2 0x4447 JUMP JUMPDEST PUSH1 0x40 DUP1 MLOAD DUP8 DUP2 MSTORE PUSH1 0x20 DUP2 ADD DUP4 SWAP1 MSTORE SWAP1 DUP2 ADD DUP6 SWAP1 MSTORE DUP5 DUP3 LT PUSH1 0x60 DUP3 ADD DUP2 SWAP1 MSTORE SWAP2 SWAP3 POP PUSH32 0xA473DC6CFD784F529BFCF1DB106676AE5832EDE00C2E72234A796E528BDBFBAA SWAP1 PUSH1 0x80 ADD PUSH1 0x40 MLOAD DUP1 SWAP2 SUB SWAP1 LOG1 DUP1 ISZERO PUSH2 0x313F JUMPI PUSH1 0x8 SLOAD PUSH1 0x7 SLOAD PUSH1 0x1 PUSH1 0x1 PUSH1 0xA0 SHL SUB SWAP2 DUP3 AND SWAP2 PUSH4 0x95EA7B3 SWAP2 AND PUSH2 0x305B DUP4 DUP10 PUSH2 0x4D8 JUMP JUMPDEST PUSH1 0x40 MLOAD PUSH1 0x1 PUSH1 0x1 PUSH1 0xE0 SHL SUB NOT PUSH1 0xE0 DUP6 SWAP1 SHL AND DUP2 MSTORE PUSH1 0x1 PUSH1 0x1 PUSH1 0xA0 SHL SUB SWAP1 SWAP3 AND PUSH1 0x4 DUP4 ADD MSTORE PUSH1 0x24 DUP3 ADD MSTORE PUSH1 0x44 ADD PUSH1 0x20 PUSH1 0x40 MLOAD DUP1 DUP4 SUB DUP2 PUSH0 DUP8 GAS CALL ISZERO DUP1 ISZERO PUSH2 0x30A3 JUMPI RETURNDATASIZE PUSH0 DUP1 RETURNDATACOPY RETURNDATASIZE PUSH0 REVERT JUMPDEST POP POP POP POP PUSH1 0x40 MLOAD RETURNDATASIZE PUSH1 0x1F NOT PUSH1 0x1F DUP3 ADD AND DUP3 ADD DUP1 PUSH1 0x40 MSTORE POP DUP2 ADD SWAP1 PUSH2 0x30C7 SWAP2 SWAP1 PUSH2 0x46BE JUMP JUMPDEST POP PUSH1 0x7 SLOAD PUSH1 0x8 SLOAD PUSH1 0x6 SLOAD PUSH1 0x1 PUSH1 0x1 PUSH1 0xA0 SHL SUB SWAP3 DUP4 AND SWAP3 PUSH4 0x72CE4275 SWAP3 AND SWAP1 PUSH0 SWAP1 PUSH2 0x30F0 DUP12 PUSH2 0x154A JUMP JUMPDEST DUP10 PUSH1 0x40 MLOAD DUP7 PUSH4 0xFFFFFFFF AND PUSH1 0xE0 SHL DUP2 MSTORE PUSH1 0x4 ADD PUSH2 0x3111 SWAP6 SWAP5 SWAP4 SWAP3 SWAP2 SWAP1 PUSH2 0x467F JUMP JUMPDEST PUSH0 PUSH1 0x40 MLOAD DUP1 DUP4 SUB DUP2 PUSH0 DUP8 DUP1 EXTCODESIZE ISZERO DUP1 ISZERO PUSH2 0x3128 JUMPI PUSH0 DUP1 REVERT JUMPDEST POP GAS CALL ISZERO DUP1 ISZERO PUSH2 0x313A JUMPI RETURNDATASIZE PUSH0 DUP1 RETURNDATACOPY RETURNDATASIZE PUSH0 REVERT JUMPDEST POP POP POP POP JUMPDEST PUSH1 0x7 SLOAD PUSH1 0x40 MLOAD PUSH4 0x79212195 PUSH1 0xE1 SHL DUP2 MSTORE ADDRESS PUSH1 0x4 DUP3 ADD MSTORE CALLER PUSH1 0x24 DUP3 ADD MSTORE PUSH1 0x44 DUP2 ADD DUP6 SWAP1 MSTORE PUSH1 0x64 DUP2 ADD DUP7 SWAP1 MSTORE PUSH1 0xA0 PUSH1 0x84 DUP3 ADD MSTORE PUSH0 PUSH1 0xA4 DUP3 ADD MSTORE PUSH1 0x1 PUSH1 0x1 PUSH1 0xA0 SHL SUB SWAP1 SWAP2 AND SWAP1 PUSH4 0xF242432A SWAP1 PUSH1 0xC4 ADD PUSH0 PUSH1 0x40 MLOAD DUP1 DUP4 SUB DUP2 PUSH0 DUP8 DUP1 EXTCODESIZE ISZERO DUP1 ISZERO PUSH2 0x31A2 JUMPI PUSH0 DUP1 REVERT JUMPDEST POP GAS CALL ISZERO DUP1 ISZERO PUSH2 0x31B4 JUMPI RETURNDATASIZE PUSH0 DUP1 RETURNDATACOPY RETURNDATASIZE PUSH0 REVERT JUMPDEST POP POP POP POP POP POP POP POP POP POP JUMP JUMPDEST PUSH0 DUP2 PUSH0 SUB PUSH2 0x31CC JUMPI PUSH0 DUP1 REVERT JUMPDEST PUSH0 PUSH24 0xFFFFFFFFFFFFFFFFFFFFFFFFFFFFFFFFFFFFFFFFFFFFFFFF DUP5 GT PUSH2 0x3207 JUMPI DUP3 PUSH1 0x40 DUP6 SWAP1 SHL DUP2 PUSH2 0x31FF JUMPI PUSH2 0x31FF PUSH2 0x46DD JUMP JUMPDEST DIV SWAP1 POP PUSH2 0x331D JUMP JUMPDEST PUSH1 0xC0 DUP5 DUP2 SHR PUSH5 0x100000000 DUP2 LT PUSH2 0x3220 JUMPI PUSH1 0x20 SWAP2 DUP3 ADD SWAP2 SHR JUMPDEST PUSH3 0x10000 DUP2 LT PUSH2 0x3232 JUMPI PUSH1 0x10 SWAP2 DUP3 ADD SWAP2 SHR JUMPDEST PUSH2 0x100 DUP2 LT PUSH2 0x3243 JUMPI PUSH1 0x8 SWAP2 DUP3 ADD SWAP2 SHR JUMPDEST PUSH1 0x10 DUP2 LT PUSH2 0x3253 JUMPI PUSH1 0x4 SWAP2 DUP3 ADD SWAP2 SHR JUMPDEST PUSH1 0x4 DUP2 LT PUSH2 0x3263 JUMPI PUSH1 0x2 SWAP2 DUP3 ADD SWAP2 SHR JUMPDEST PUSH1 0x2 DUP2 LT PUSH2 0x3272 JUMPI PUSH1 0x1 DUP3 ADD SWAP2 POP JUMPDEST PUSH1 0xBF DUP3 SUB PUSH1 0x1 DUP7 SUB SWAP1 SHR PUSH1 0x1 ADD DUP3 PUSH1 0xFF SUB DUP8 SWAP1 SHL DUP2 PUSH2 0x3293 JUMPI PUSH2 0x3293 PUSH2 0x46DD JUMP JUMPDEST DIV SWAP3 POP PUSH1 0x1 PUSH1 0x1 PUSH1 0x80 SHL SUB DUP4 GT ISZERO PUSH2 0x32A9 JUMPI PUSH0 DUP1 REVERT JUMPDEST PUSH1 0x80 DUP6 SWAP1 SHR DUP4 MUL PUSH1 0x1 PUSH1 0x1 PUSH1 0x80 SHL SUB DUP7 AND DUP5 MUL PUSH1 0xC0 DUP9 SWAP1 SHR PUSH1 0x40 DUP10 SWAP1 SHL DUP3 DUP2 LT ISZERO PUSH2 0x32D5 JUMPI PUSH1 0x1 DUP3 SUB SWAP2 POP JUMPDEST PUSH1 0x80 DUP5 SWAP1 SHL SWAP3 SWAP1 SUB DUP3 DUP2 LT ISZERO PUSH2 0x32EC JUMPI PUSH1 0x1 DUP3 SUB SWAP2 POP JUMPDEST DUP3 SWAP1 SUB PUSH1 0x80 DUP5 SWAP1 SHR DUP3 EQ PUSH2 0x3301 JUMPI PUSH1 0x1 PUSH2 0x3312 JUMP JUMPDEST DUP9 DUP2 DUP2 PUSH2 0x3310 JUMPI PUSH2 0x3310 PUSH2 0x46DD JUMP JUMPDEST DIV JUMPDEST DUP8 ADD SWAP7 POP POP POP POP POP POP POP JUMPDEST PUSH1 0x1 PUSH1 0x1 PUSH1 0x80 SHL SUB DUP2 GT ISZERO PUSH2 0x12E8 JUMPI PUSH0 DUP1 REVERT JUMPDEST PUSH0 PUSH9 0x400000000000000000 DUP3 PUSH1 0xF SIGNEXTEND SLT PUSH2 0x3348 JUMPI PUSH0 DUP1 REVERT JUMPDEST PUSH9 0x3FFFFFFFFFFFFFFFFF NOT DUP3 PUSH1 0xF SIGNEXTEND SLT ISZERO PUSH2 0x3364 JUMPI POP PUSH0 SWAP2 SWAP1 POP JUMP JUMPDEST PUSH16 0x80000000000000000000000000000000 PUSH0 PUSH8 0x8000000000000000 DUP5 AND PUSH1 0xF SIGNEXTEND SGT ISZERO PUSH2 0x33A1 JUMPI PUSH17 0x16A09E667F3BCC908B2FB1366EA957D3E MUL PUSH1 0x80 SHR JUMPDEST PUSH0 DUP4 PUSH8 0x4000000000000000 AND PUSH1 0xF SIGNEXTEND SGT ISZERO PUSH2 0x33CD JUMPI PUSH17 0x1306FE0A31B7152DE8D5A46305C85EDEC MUL PUSH1 0x80 SHR JUMPDEST PUSH0 DUP4 PUSH8 0x2000000000000000 AND PUSH1 0xF SIGNEXTEND SGT ISZERO PUSH2 0x33F9 JUMPI PUSH17 0x1172B83C7D517ADCDF7C8C50EB14A791F MUL PUSH1 0x80 SHR JUMPDEST PUSH0 DUP4 PUSH8 0x1000000000000000 AND PUSH1 0xF SIGNEXTEND SGT ISZERO PUSH2 0x3425 JUMPI PUSH17 0x10B5586CF9890F6298B92B71842A98363 MUL PUSH1 0x80 SHR JUMPDEST PUSH0 DUP4 PUSH8 0x800000000000000 AND PUSH1 0xF SIGNEXTEND SGT ISZERO PUSH2 0x3451 JUMPI PUSH17 0x1059B0D31585743AE7C548EB68CA417FD MUL PUSH1 0x80 SHR JUMPDEST PUSH0 DUP4 PUSH8 0x400000000000000 AND PUSH1 0xF SIGNEXTEND SGT ISZERO PUSH2 0x347D JUMPI PUSH17 0x102C9A3E778060EE6F7CACA4F7A29BDE8 MUL PUSH1 0x80 SHR JUMPDEST PUSH0 DUP4 PUSH8 0x200000000000000 AND PUSH1 0xF SIGNEXTEND SGT ISZERO PUSH2 0x34A9 JUMPI PUSH17 0x10163DA9FB33356D84A66AE336DCDFA3F MUL PUSH1 0x80 SHR JUMPDEST PUSH0 DUP4 PUSH8 0x100000000000000 AND PUSH1 0xF SIGNEXTEND SGT ISZERO PUSH2 0x34D5 JUMPI PUSH17 0x100B1AFA5ABCBED6129AB13EC11DC9543 MUL PUSH1 0x80 SHR JUMPDEST PUSH0 DUP4 PUSH7 0x80000000000000 AND PUSH1 0xF SIGNEXTEND SGT ISZERO PUSH2 0x3500 JUMPI PUSH17 0x10058C86DA1C09EA1FF19D294CF2F679B MUL PUSH1 0x80 SHR JUMPDEST PUSH0 DUP4 PUSH7 0x40000000000000 AND PUSH1 0xF SIGNEXTEND SGT ISZERO PUSH2 0x352B JUMPI PUSH17 0x1002C605E2E8CEC506D21BFC89A23A00F MUL PUSH1 0x80 SHR JUMPDEST PUSH0 DUP4 PUSH7 0x20000000000000 AND PUSH1 0xF SIGNEXTEND SGT ISZERO PUSH2 0x3556 JUMPI PUSH17 0x100162F3904051FA128BCA9C55C31E5DF MUL PUSH1 0x80 SHR JUMPDEST PUSH0 DUP4 PUSH7 0x10000000000000 AND PUSH1 0xF SIGNEXTEND SGT ISZERO PUSH2 0x3581 JUMPI PUSH17 0x1000B175EFFDC76BA38E31671CA939725 MUL PUSH1 0x80 SHR JUMPDEST PUSH0 DUP4 PUSH7 0x8000000000000 AND PUSH1 0xF SIGNEXTEND SGT ISZERO PUSH2 0x35AC JUMPI PUSH17 0x100058BA01FB9F96D6CACD4B180917C3D MUL PUSH1 0x80 SHR JUMPDEST PUSH0 DUP4 PUSH7 0x4000000000000 AND PUSH1 0xF SIGNEXTEND SGT ISZERO PUSH2 0x35D7 JUMPI PUSH17 0x10002C5CC37DA9491D0985C348C68E7B3 MUL PUSH1 0x80 SHR JUMPDEST PUSH0 DUP4 PUSH7 0x2000000000000 AND PUSH1 0xF SIGNEXTEND SGT ISZERO PUSH2 0x3602 JUMPI PUSH17 0x1000162E525EE054754457D5995292026 MUL PUSH1 0x80 SHR JUMPDEST PUSH0 DUP4 PUSH7 0x1000000000000 AND PUSH1 0xF SIGNEXTEND SGT ISZERO PUSH2 0x362D JUMPI PUSH17 0x10000B17255775C040618BF4A4ADE83FC MUL PUSH1 0x80 SHR JUMPDEST PUSH0 DUP4 PUSH6 0x800000000000 AND PUSH1 0xF SIGNEXTEND SGT ISZERO PUSH2 0x3657 JUMPI PUSH17 0x1000058B91B5BC9AE2EED81E9B7D4CFAB MUL PUSH1 0x80 SHR JUMPDEST PUSH0 DUP4 PUSH6 0x400000000000 AND PUSH1 0xF SIGNEXTEND SGT ISZERO PUSH2 0x3681 JUMPI PUSH17 0x100002C5C89D5EC6CA4D7C8ACC017B7C9 MUL PUSH1 0x80 SHR JUMPDEST PUSH0 DUP4 PUSH6 0x200000000000 AND PUSH1 0xF SIGNEXTEND SGT ISZERO PUSH2 0x36AB JUMPI PUSH17 0x10000162E43F4F831060E02D839A9D16D MUL PUSH1 0x80 SHR JUMPDEST PUSH0 DUP4 PUSH6 0x100000000000 AND PUSH1 0xF SIGNEXTEND SGT ISZERO PUSH2 0x36D5 JUMPI PUSH17 0x100000B1721BCFC99D9F890EA06911763 MUL PUSH1 0x80 SHR JUMPDEST PUSH0 DUP4 PUSH6 0x80000000000 AND PUSH1 0xF SIGNEXTEND SGT ISZERO PUSH2 0x36FF JUMPI PUSH17 0x10000058B90CF1E6D97F9CA14DBCC1628 MUL PUSH1 0x80 SHR JUMPDEST PUSH0 DUP4 PUSH6 0x40000000000 AND PUSH1 0xF SIGNEXTEND SGT ISZERO PUSH2 0x3729 JUMPI PUSH17 0x1000002C5C863B73F016468F6BAC5CA2B MUL PUSH1 0x80 SHR JUMPDEST PUSH0 DUP4 PUSH6 0x20000000000 AND PUSH1 0xF SIGNEXTEND SGT ISZERO PUSH2 0x3753 JUMPI PUSH17 0x100000162E430E5A18F6119E3C02282A5 MUL PUSH1 0x80 SHR JUMPDEST PUSH0 DUP4 PUSH6 0x10000000000 AND PUSH1 0xF SIGNEXTEND SGT ISZERO PUSH2 0x377D JUMPI PUSH17 0x1000000B1721835514B86E6D96EFD1BFE MUL PUSH1 0x80 SHR JUMPDEST PUSH0 DUP4 PUSH5 0x8000000000 AND PUSH1 0xF SIGNEXTEND SGT ISZERO PUSH2 0x37A6 JUMPI PUSH17 0x100000058B90C0B48C6BE5DF846C5B2EF MUL PUSH1 0x80 SHR JUMPDEST PUSH0 DUP4 PUSH5 0x4000000000 AND PUSH1 0xF SIGNEXTEND SGT ISZERO PUSH2 0x37CF JUMPI PUSH17 0x10000002C5C8601CC6B9E94213C72737A MUL PUSH1 0x80 SHR JUMPDEST PUSH0 DUP4 PUSH5 0x2000000000 AND PUSH1 0xF SIGNEXTEND SGT ISZERO PUSH2 0x37F8 JUMPI PUSH17 0x1000000162E42FFF037DF38AA2B219F06 MUL PUSH1 0x80 SHR JUMPDEST PUSH0 DUP4 PUSH5 0x1000000000 AND PUSH1 0xF SIGNEXTEND SGT ISZERO PUSH2 0x3821 JUMPI PUSH17 0x10000000B17217FBA9C739AA5819F44F9 MUL PUSH1 0x80 SHR JUMPDEST PUSH0 DUP4 PUSH5 0x800000000 AND PUSH1 0xF SIGNEXTEND SGT ISZERO PUSH2 0x384A JUMPI PUSH17 0x1000000058B90BFCDEE5ACD3C1CEDC823 MUL PUSH1 0x80 SHR JUMPDEST PUSH0 DUP4 PUSH5 0x400000000 AND PUSH1 0xF SIGNEXTEND SGT ISZERO PUSH2 0x3873 JUMPI PUSH17 0x100000002C5C85FE31F35A6A30DA1BE50 MUL PUSH1 0x80 SHR JUMPDEST PUSH0 DUP4 PUSH5 0x200000000 AND PUSH1 0xF SIGNEXTEND SGT ISZERO PUSH2 0x389C JUMPI PUSH17 0x10000000162E42FF0999CE3541B9FFFCF MUL PUSH1 0x80 SHR JUMPDEST PUSH0 DUP4 PUSH5 0x100000000 AND PUSH1 0xF SIGNEXTEND SGT ISZERO PUSH2 0x38C5 JUMPI PUSH17 0x100000000B17217F80F4EF5AADDA45554 MUL PUSH1 0x80 SHR JUMPDEST PUSH0 DUP4 PUSH4 0x80000000 AND PUSH1 0xF SIGNEXTEND SGT ISZERO PUSH2 0x38ED JUMPI PUSH17 0x10000000058B90BFBF8479BD5A81B51AD MUL PUSH1 0x80 SHR JUMPDEST PUSH0 DUP4 PUSH4 0x40000000 AND PUSH1 0xF SIGNEXTEND SGT ISZERO PUSH2 0x3915 JUMPI PUSH17 0x1000000002C5C85FDF84BD62AE30A74CC MUL PUSH1 0x80 SHR JUMPDEST PUSH0 DUP4 PUSH4 0x20000000 AND PUSH1 0xF SIGNEXTEND SGT ISZERO PUSH2 0x393D JUMPI PUSH17 0x100000000162E42FEFB2FED257559BDAA MUL PUSH1 0x80 SHR JUMPDEST PUSH0 DUP4 PUSH4 0x10000000 AND PUSH1 0xF SIGNEXTEND SGT ISZERO PUSH2 0x3965 JUMPI PUSH17 0x1000000000B17217F7D5A7716BBA4A9AE MUL PUSH1 0x80 SHR JUMPDEST PUSH0 DUP4 PUSH4 0x8000000 AND PUSH1 0xF SIGNEXTEND SGT ISZERO PUSH2 0x398D JUMPI PUSH17 0x100000000058B90BFBE9DDBAC5E109CCE MUL PUSH1 0x80 SHR JUMPDEST PUSH0 DUP4 PUSH4 0x4000000 AND PUSH1 0xF SIGNEXTEND SGT ISZERO PUSH2 0x39B5 JUMPI PUSH17 0x10000000002C5C85FDF4B15DE6F17EB0D MUL PUSH1 0x80 SHR JUMPDEST PUSH0 DUP4 PUSH4 0x2000000 AND PUSH1 0xF SIGNEXTEND SGT ISZERO PUSH2 0x39DD JUMPI PUSH17 0x1000000000162E42FEFA494F1478FDE05 MUL PUSH1 0x80 SHR JUMPDEST PUSH0 DUP4 PUSH4 0x1000000 AND PUSH1 0xF SIGNEXTEND SGT ISZERO PUSH2 0x3A05 JUMPI PUSH17 0x10000000000B17217F7D20CF927C8E94C MUL PUSH1 0x80 SHR JUMPDEST PUSH0 DUP4 PUSH3 0x800000 AND PUSH1 0xF SIGNEXTEND SGT ISZERO PUSH2 0x3A2C JUMPI PUSH17 0x1000000000058B90BFBE8F71CB4E4B33D MUL PUSH1 0x80 SHR JUMPDEST PUSH0 DUP4 PUSH3 0x400000 AND PUSH1 0xF SIGNEXTEND SGT ISZERO PUSH2 0x3A53 JUMPI PUSH17 0x100000000002C5C85FDF477B662B26945 MUL PUSH1 0x80 SHR JUMPDEST PUSH0 DUP4 PUSH3 0x200000 AND PUSH1 0xF SIGNEXTEND SGT ISZERO PUSH2 0x3A7A JUMPI PUSH17 0x10000000000162E42FEFA3AE53369388C MUL PUSH1 0x80 SHR JUMPDEST PUSH0 DUP4 PUSH3 0x100000 AND PUSH1 0xF SIGNEXTEND SGT ISZERO PUSH2 0x3AA1 JUMPI PUSH17 0x100000000000B17217F7D1D351A389D40 MUL PUSH1 0x80 SHR JUMPDEST PUSH0 DUP4 PUSH3 0x80000 AND PUSH1 0xF SIGNEXTEND SGT ISZERO PUSH2 0x3AC8 JUMPI PUSH17 0x10000000000058B90BFBE8E8B2D3D4EDE MUL PUSH1 0x80 SHR JUMPDEST PUSH0 DUP4 PUSH3 0x40000 AND PUSH1 0xF SIGNEXTEND SGT ISZERO PUSH2 0x3AEF JUMPI PUSH17 0x1000000000002C5C85FDF4741BEA6E77E MUL PUSH1 0x80 SHR JUMPDEST PUSH0 DUP4 PUSH3 0x20000 AND PUSH1 0xF SIGNEXTEND SGT ISZERO PUSH2 0x3B16 JUMPI PUSH17 0x100000000000162E42FEFA39FE95583C2 MUL PUSH1 0x80 SHR JUMPDEST PUSH0 DUP4 PUSH3 0x10000 AND PUSH1 0xF SIGNEXTEND SGT ISZERO PUSH2 0x3B3D JUMPI PUSH17 0x1000000000000B17217F7D1CFB72B45E1 MUL PUSH1 0x80 SHR JUMPDEST PUSH0 DUP4 PUSH2 0x8000 AND PUSH1 0xF SIGNEXTEND SGT ISZERO PUSH2 0x3B63 JUMPI PUSH17 0x100000000000058B90BFBE8E7CC35C3F0 MUL PUSH1 0x80 SHR JUMPDEST PUSH0 DUP4 PUSH2 0x4000 AND PUSH1 0xF SIGNEXTEND SGT ISZERO PUSH2 0x3B89 JUMPI PUSH17 0x10000000000002C5C85FDF473E242EA38 MUL PUSH1 0x80 SHR JUMPDEST PUSH0 DUP4 PUSH2 0x2000 AND PUSH1 0xF SIGNEXTEND SGT ISZERO PUSH2 0x3BAF JUMPI PUSH17 0x1000000000000162E42FEFA39F02B772C MUL PUSH1 0x80 SHR JUMPDEST PUSH0 DUP4 PUSH2 0x1000 AND PUSH1 0xF SIGNEXTEND SGT ISZERO PUSH2 0x3BD5 JUMPI PUSH17 0x10000000000000B17217F7D1CF7D83C1A MUL PUSH1 0x80 SHR JUMPDEST PUSH0 DUP4 PUSH2 0x800 AND PUSH1 0xF SIGNEXTEND SGT ISZERO PUSH2 0x3BFB JUMPI PUSH17 0x1000000000000058B90BFBE8E7BDCBE2E MUL PUSH1 0x80 SHR JUMPDEST PUSH0 DUP4 PUSH2 0x400 AND PUSH1 0xF SIGNEXTEND SGT ISZERO PUSH2 0x3C21 JUMPI PUSH17 0x100000000000002C5C85FDF473DEA871F MUL PUSH1 0x80 SHR JUMPDEST PUSH0 DUP4 PUSH2 0x200 AND PUSH1 0xF SIGNEXTEND SGT ISZERO PUSH2 0x3C47 JUMPI PUSH17 0x10000000000000162E42FEFA39EF44D91 MUL PUSH1 0x80 SHR JUMPDEST PUSH0 DUP4 PUSH2 0x100 AND PUSH1 0xF SIGNEXTEND SGT ISZERO PUSH2 0x3C6D JUMPI PUSH17 0x100000000000000B17217F7D1CF79E949 MUL PUSH1 0x80 SHR JUMPDEST PUSH0 DUP4 PUSH1 0x80 AND PUSH1 0xF SIGNEXTEND SGT ISZERO PUSH2 0x3C92 JUMPI PUSH17 0x10000000000000058B90BFBE8E7BCE544 MUL PUSH1 0x80 SHR JUMPDEST PUSH0 DUP4 PUSH1 0x40 AND PUSH1 0xF SIGNEXTEND SGT ISZERO PUSH2 0x3CB7 JUMPI PUSH17 0x1000000000000002C5C85FDF473DE6ECA MUL PUSH1 0x80 SHR JUMPDEST PUSH0 DUP4 PUSH1 0x20 AND PUSH1 0xF SIGNEXTEND SGT ISZERO PUSH2 0x3CDC JUMPI PUSH17 0x100000000000000162E42FEFA39EF366F MUL PUSH1 0x80 SHR JUMPDEST PUSH0 DUP4 PUSH1 0x10 AND PUSH1 0xF SIGNEXTEND SGT ISZERO PUSH2 0x3D01 JUMPI PUSH17 0x1000000000000000B17217F7D1CF79AFA MUL PUSH1 0x80 SHR JUMPDEST PUSH0 DUP4 PUSH1 0x8 AND PUSH1 0xF SIGNEXTEND SGT ISZERO PUSH2 0x3D26 JUMPI PUSH17 0x100000000000000058B90BFBE8E7BCD6D MUL PUSH1 0x80 SHR JUMPDEST PUSH0 DUP4 PUSH1 0x4 AND PUSH1 0xF SIGNEXTEND SGT ISZERO PUSH2 0x3D4B JUMPI PUSH17 0x10000000000000002C5C85FDF473DE6B2 MUL PUSH1 0x80 SHR JUMPDEST PUSH0 DUP4 PUSH1 0x2 AND PUSH1 0xF SIGNEXTEND SGT ISZERO PUSH2 0x3D70 JUMPI PUSH17 0x1000000000000000162E42FEFA39EF358 MUL PUSH1 0x80 SHR JUMPDEST PUSH0 DUP4 PUSH1 0x1 AND PUSH1 0xF SIGNEXTEND SGT ISZERO PUSH2 0x3D95 JUMPI PUSH17 0x10000000000000000B17217F7D1CF79AB MUL PUSH1 0x80 SHR JUMPDEST PUSH1 0xF DUP4 DUP2 SIGNEXTEND PUSH1 0x40 SAR PUSH1 0x3F SUB SWAP1 SIGNEXTEND SHR PUSH1 0x1 PUSH1 0x1 PUSH1 0x7F SHL SUB DUP2 GT ISZERO PUSH2 0x5E3 JUMPI PUSH0 DUP1 REVERT JUMPDEST PUSH0 DUP1 DUP3 PUSH1 0xF SIGNEXTEND SGT PUSH2 0x3DC5 JUMPI PUSH0 DUP1 REVERT JUMPDEST PUSH0 PUSH1 0xF DUP4 SWAP1 SIGNEXTEND PUSH9 0x10000000000000000 DUP2 SLT PUSH2 0x3DE3 JUMPI PUSH1 0x40 SWAP2 DUP3 ADD SWAP2 SAR JUMPDEST PUSH5 0x100000000 DUP2 SLT PUSH2 0x3DF7 JUMPI PUSH1 0x20 SWAP2 DUP3 ADD SWAP2 SAR JUMPDEST PUSH3 0x10000 DUP2 SLT PUSH2 0x3E09 JUMPI PUSH1 0x10 SWAP2 DUP3 ADD SWAP2 SAR JUMPDEST PUSH2 0x100 DUP2 SLT PUSH2 0x3E1A JUMPI PUSH1 0x8 SWAP2 DUP3 ADD SWAP2 SAR JUMPDEST PUSH1 0x10 DUP2 SLT PUSH2 0x3E2A JUMPI PUSH1 0x4 SWAP2 DUP3 ADD SWAP2 SAR JUMPDEST PUSH1 0x4 DUP2 SLT PUSH2 0x3E3A JUMPI PUSH1 0x2 SWAP2 DUP3 ADD SWAP2 SAR JUMPDEST PUSH1 0x2 DUP2 SLT PUSH2 0x3E49 JUMPI PUSH1 0x1 DUP3 ADD SWAP2 POP JUMPDEST PUSH1 0x3F NOT DUP3 ADD PUSH1 0x40 SHL PUSH1 0xF DUP6 SWAP1 SIGNEXTEND PUSH1 0x7F DUP5 SWAP1 SUB SHL PUSH8 0x8000000000000000 JUMPDEST PUSH0 DUP2 SGT ISZERO PUSH2 0x1637 JUMPI SWAP1 DUP1 MUL PUSH1 0xFF DUP2 SWAP1 SHR DUP3 DUP2 MUL SWAP4 SWAP1 SWAP4 ADD SWAP3 PUSH1 0x7F ADD SHR SWAP1 PUSH1 0x1 SAR PUSH2 0x3E66 JUMP JUMPDEST PUSH0 DUP1 PUSH1 0x20 PUSH0 DUP5 MLOAD PUSH1 0x20 DUP7 ADD PUSH0 DUP9 GAS CALL DUP1 PUSH2 0x3EAA JUMPI PUSH1 0x40 MLOAD RETURNDATASIZE PUSH0 DUP3 RETURNDATACOPY RETURNDATASIZE DUP2 REVERT JUMPDEST POP POP PUSH0 MLOAD RETURNDATASIZE SWAP2 POP DUP2 ISZERO PUSH2 0x3EC1 JUMPI DUP1 PUSH1 0x1 EQ ISZERO PUSH2 0x3ECE JUMP JUMPDEST PUSH1 0x1 PUSH1 0x1 PUSH1 0xA0 SHL SUB DUP5 AND EXTCODESIZE ISZERO JUMPDEST ISZERO PUSH2 0x2AE4 JUMPI PUSH1 0x40 MLOAD PUSH4 0x5274AFE7 PUSH1 0xE0 SHL DUP2 MSTORE PUSH1 0x1 PUSH1 0x1 PUSH1 0xA0 SHL SUB DUP6 AND PUSH1 0x4 DUP3 ADD MSTORE PUSH1 0x24 ADD PUSH2 0x59C JUMP JUMPDEST PUSH0 PUSH1 0x20 DUP3 DUP5 SUB SLT ISZERO PUSH2 0x3F07 JUMPI PUSH0 DUP1 REVERT JUMPDEST DUP2 CALLDATALOAD PUSH1 0x1 PUSH1 0x1 PUSH1 0xE0 SHL SUB NOT DUP2 AND DUP2 EQ PUSH2 0x12E8 JUMPI PUSH0 DUP1 REVERT JUMPDEST DUP1 CALLDATALOAD PUSH1 0x1 PUSH1 0x1 PUSH1 0xA0 SHL SUB DUP2 AND DUP2 EQ PUSH2 0x2B7A JUMPI PUSH0 DUP1 REVERT JUMPDEST DUP1 CALLDATALOAD PUSH1 0xF DUP2 SWAP1 SIGNEXTEND DUP2 EQ PUSH2 0x2B7A JUMPI PUSH0 DUP1 REVERT JUMPDEST PUSH0 DUP1 PUSH1 0x40 DUP4 DUP6 SUB SLT ISZERO PUSH2 0x3F56 JUMPI PUSH0 DUP1 REVERT JUMPDEST PUSH2 0x3F5F DUP4 PUSH2 0x3F1E JUMP JUMPDEST SWAP2 POP PUSH2 0x3F6D PUSH1 0x20 DUP5 ADD PUSH2 0x3F34 JUMP JUMPDEST SWAP1 POP SWAP3 POP SWAP3 SWAP1 POP JUMP JUMPDEST PUSH0 DUP1 PUSH1 0x40 DUP4 DUP6 SUB SLT ISZERO PUSH2 0x3F87 JUMPI PUSH0 DUP1 REVERT JUMPDEST PUSH2 0x3F90 DUP4 PUSH2 0x3F1E JUMP JUMPDEST SWAP5 PUSH1 0x20 SWAP4 SWAP1 SWAP4 ADD CALLDATALOAD SWAP4 POP POP POP JUMP JUMPDEST PUSH0 PUSH1 0x20 DUP3 DUP5 SUB SLT ISZERO PUSH2 0x3FAE JUMPI PUSH0 DUP1 REVERT JUMPDEST POP CALLDATALOAD SWAP2 SWAP1 POP JUMP JUMPDEST PUSH0 DUP1 PUSH0 DUP1 PUSH0 DUP1 PUSH1 0xC0 DUP8 DUP10 SUB SLT ISZERO PUSH2 0x3FCA JUMPI PUSH0 DUP1 REVERT JUMPDEST PUSH2 0x3FD3 DUP8 PUSH2 0x3F1E JUMP JUMPDEST SWAP9 PUSH1 0x20 DUP9 ADD CALLDATALOAD SWAP9 POP PUSH1 0x40 DUP9 ADD CALLDATALOAD SWAP8 PUSH1 0x60 DUP2 ADD CALLDATALOAD SWAP8 POP PUSH1 0x80 DUP2 ADD CALLDATALOAD SWAP7 POP PUSH1 0xA0 ADD CALLDATALOAD SWAP5 POP SWAP3 POP POP POP JUMP JUMPDEST PUSH4 0x4E487B71 PUSH1 0xE0 SHL PUSH0 MSTORE PUSH1 0x41 PUSH1 0x4 MSTORE PUSH1 0x24 PUSH0 REVERT JUMPDEST PUSH1 0x1F DUP3 ADD PUSH1 0x1F NOT AND DUP2 ADD PUSH8 0xFFFFFFFFFFFFFFFF DUP2 GT DUP3 DUP3 LT OR ISZERO PUSH2 0x4035 JUMPI PUSH2 0x4035 PUSH2 0x3FFB JUMP JUMPDEST PUSH1 0x40 MSTORE POP POP JUMP JUMPDEST PUSH0 PUSH1 0x20 DUP1 DUP4 DUP6 SUB SLT ISZERO PUSH2 0x404D JUMPI PUSH0 DUP1 REVERT JUMPDEST DUP3 CALLDATALOAD PUSH8 0xFFFFFFFFFFFFFFFF DUP1 DUP3 GT ISZERO PUSH2 0x4064 JUMPI PUSH0 DUP1 REVERT JUMPDEST DUP2 DUP6 ADD SWAP2 POP DUP6 PUSH1 0x1F DUP4 ADD SLT PUSH2 0x4077 JUMPI PUSH0 DUP1 REVERT JUMPDEST DUP2 CALLDATALOAD DUP2 DUP2 GT ISZERO PUSH2 0x4089 JUMPI PUSH2 0x4089 PUSH2 0x3FFB JUMP JUMPDEST PUSH1 0x40 MLOAD SWAP2 POP PUSH2 0x40A1 PUSH1 0x1F DUP3 ADD PUSH1 0x1F NOT AND DUP6 ADD DUP4 PUSH2 0x400F JUMP JUMPDEST DUP1 DUP3 MSTORE DUP7 DUP5 DUP3 DUP6 ADD ADD GT ISZERO PUSH2 0x40B4 JUMPI PUSH0 DUP1 REVERT JUMPDEST DUP1 DUP5 DUP5 ADD DUP6 DUP5 ADD CALLDATACOPY PUSH0 SWAP1 DUP3 ADD SWAP1 SWAP4 ADD SWAP3 SWAP1 SWAP3 MSTORE POP SWAP4 SWAP3 POP POP POP JUMP JUMPDEST PUSH0 DUP1 PUSH1 0x40 DUP4 DUP6 SUB SLT ISZERO PUSH2 0x40E0 JUMPI PUSH0 DUP1 REVERT JUMPDEST DUP3 CALLDATALOAD SWAP2 POP PUSH2 0x3F6D PUSH1 0x20 DUP5 ADD PUSH2 0x3F34 JUMP JUMPDEST PUSH0 DUP2 MLOAD DUP1 DUP5 MSTORE PUSH1 0x20 DUP1 DUP6 ADD SWAP5 POP PUSH1 0x20 DUP5 ADD PUSH0 JUMPDEST DUP4 DUP2 LT ISZERO PUSH2 0x411F JUMPI DUP2 MLOAD DUP8 MSTORE SWAP6 DUP3 ADD SWAP6 SWAP1 DUP3 ADD SWAP1 PUSH1 0x1 ADD PUSH2 0x4103 JUMP JUMPDEST POP SWAP5 SWAP6 SWAP5 POP POP POP POP POP JUMP JUMPDEST PUSH1 0x20 DUP2 MSTORE PUSH0 PUSH2 0x12E8 PUSH1 0x20 DUP4 ADD DUP5 PUSH2 0x40F0 JUMP JUMPDEST PUSH0 DUP1 DUP4 PUSH1 0x1F DUP5 ADD SLT PUSH2 0x414C JUMPI PUSH0 DUP1 REVERT JUMPDEST POP DUP2 CALLDATALOAD PUSH8 0xFFFFFFFFFFFFFFFF DUP2 GT ISZERO PUSH2 0x4163 JUMPI PUSH0 DUP1 REVERT JUMPDEST PUSH1 0x20 DUP4 ADD SWAP2 POP DUP4 PUSH1 0x20 DUP3 PUSH1 0x5 SHL DUP6 ADD ADD GT ISZERO PUSH2 0x417D JUMPI PUSH0 DUP1 REVERT JUMPDEST SWAP3 POP SWAP3 SWAP1 POP JUMP JUMPDEST PUSH0 DUP1 DUP4 PUSH1 0x1F DUP5 ADD SLT PUSH2 0x4194 JUMPI PUSH0 DUP1 REVERT JUMPDEST POP DUP2 CALLDATALOAD PUSH8 0xFFFFFFFFFFFFFFFF DUP2 GT ISZERO PUSH2 0x41AB JUMPI PUSH0 DUP1 REVERT JUMPDEST PUSH1 0x20 DUP4 ADD SWAP2 POP DUP4 PUSH1 0x20 DUP3 DUP6 ADD ADD GT ISZERO PUSH2 0x417D JUMPI PUSH0 DUP1 REVERT JUMPDEST PUSH0 DUP1 PUSH0 DUP1 PUSH0 DUP1 PUSH0 DUP1 PUSH1 0xA0 DUP10 DUP12 SUB SLT ISZERO PUSH2 0x41D9 JUMPI PUSH0 DUP1 REVERT JUMPDEST PUSH2 0x41E2 DUP10 PUSH2 0x3F1E JUMP JUMPDEST SWAP8 POP PUSH2 0x41F0 PUSH1 0x20 DUP11 ADD PUSH2 0x3F1E JUMP JUMPDEST SWAP7 POP PUSH1 0x40 DUP10 ADD CALLDATALOAD PUSH8 0xFFFFFFFFFFFFFFFF DUP1 DUP3 GT ISZERO PUSH2 0x420C JUMPI PUSH0 DUP1 REVERT JUMPDEST PUSH2 0x4218 DUP13 DUP4 DUP14 ADD PUSH2 0x413C JUMP JUMPDEST SWAP1 SWAP9 POP SWAP7 POP PUSH1 0x60 DUP12 ADD CALLDATALOAD SWAP2 POP DUP1 DUP3 GT ISZERO PUSH2 0x4230 JUMPI PUSH0 DUP1 REVERT JUMPDEST PUSH2 0x423C DUP13 DUP4 DUP14 ADD PUSH2 0x413C JUMP JUMPDEST SWAP1 SWAP7 POP SWAP5 POP PUSH1 0x80 DUP12 ADD CALLDATALOAD SWAP2 POP DUP1 DUP3 GT ISZERO PUSH2 0x4254 JUMPI PUSH0 DUP1 REVERT JUMPDEST POP PUSH2 0x4261 DUP12 DUP3 DUP13 ADD PUSH2 0x4184 JUMP JUMPDEST SWAP10 SWAP13 SWAP9 SWAP12 POP SWAP7 SWAP10 POP SWAP5 SWAP8 SWAP4 SWAP7 SWAP3 SWAP6 SWAP5 POP POP POP JUMP JUMPDEST PUSH0 DUP1 PUSH0 DUP1 PUSH0 DUP1 PUSH1 0xA0 DUP8 DUP10 SUB SLT ISZERO PUSH2 0x428A JUMPI PUSH0 DUP1 REVERT JUMPDEST PUSH2 0x4293 DUP8 PUSH2 0x3F1E JUMP JUMPDEST SWAP6 POP PUSH2 0x42A1 PUSH1 0x20 DUP9 ADD PUSH2 0x3F1E JUMP JUMPDEST SWAP5 POP PUSH1 0x40 DUP8 ADD CALLDATALOAD SWAP4 POP PUSH1 0x60 DUP8 ADD CALLDATALOAD SWAP3 POP PUSH1 0x80 DUP8 ADD CALLDATALOAD PUSH8 0xFFFFFFFFFFFFFFFF DUP2 GT ISZERO PUSH2 0x42CA JUMPI PUSH0 DUP1 REVERT JUMPDEST PUSH2 0x42D6 DUP10 DUP3 DUP11 ADD PUSH2 0x4184 JUMP JUMPDEST SWAP8 SWAP11 SWAP7 SWAP10 POP SWAP5 SWAP8 POP SWAP3 SWAP6 SWAP4 SWAP5 SWAP3 POP POP POP JUMP JUMPDEST PUSH0 PUSH1 0x20 DUP3 DUP5 SUB SLT ISZERO PUSH2 0x42F8 JUMPI PUSH0 DUP1 REVERT JUMPDEST PUSH2 0x12E8 DUP3 PUSH2 0x3F1E JUMP JUMPDEST PUSH0 PUSH1 0x20 DUP3 DUP5 SUB SLT ISZERO PUSH2 0x4311 JUMPI PUSH0 DUP1 REVERT JUMPDEST DUP2 MLOAD PUSH1 0xFF DUP2 AND DUP2 EQ PUSH2 0x12E8 JUMPI PUSH0 DUP1 REVERT JUMPDEST PUSH4 0x4E487B71 PUSH1 0xE0 SHL PUSH0 MSTORE PUSH1 0x11 PUSH1 0x4 MSTORE PUSH1 0x24 PUSH0 REVERT JUMPDEST PUSH1 0x1 DUP2 DUP2 JUMPDEST DUP1 DUP6 GT ISZERO PUSH2 0x436F JUMPI DUP2 PUSH0 NOT DIV DUP3 GT ISZERO PUSH2 0x4355 JUMPI PUSH2 0x4355 PUSH2 0x4321 JUMP JUMPDEST DUP1 DUP6 AND ISZERO PUSH2 0x4362 JUMPI SWAP2 DUP2 MUL SWAP2 JUMPDEST SWAP4 DUP5 SHR SWAP4 SWAP1 DUP1 MUL SWAP1 PUSH2 0x433A JUMP JUMPDEST POP SWAP3 POP SWAP3 SWAP1 POP JUMP JUMPDEST PUSH0 DUP3 PUSH2 0x4385 JUMPI POP PUSH1 0x1 PUSH2 0x5E3 JUMP JUMPDEST DUP2 PUSH2 0x4391 JUMPI POP PUSH0 PUSH2 0x5E3 JUMP JUMPDEST DUP2 PUSH1 0x1 DUP2 EQ PUSH2 0x43A7 JUMPI PUSH1 0x2 DUP2 EQ PUSH2 0x43B1 JUMPI PUSH2 0x43CD JUMP JUMPDEST PUSH1 0x1 SWAP2 POP POP PUSH2 0x5E3 JUMP JUMPDEST PUSH1 0xFF DUP5 GT ISZERO PUSH2 0x43C2 JUMPI PUSH2 0x43C2 PUSH2 0x4321 JUMP JUMPDEST POP POP PUSH1 0x1 DUP3 SHL PUSH2 0x5E3 JUMP JUMPDEST POP PUSH1 0x20 DUP4 LT PUSH2 0x133 DUP4 LT AND PUSH1 0x4E DUP5 LT PUSH1 0xB DUP5 LT AND OR ISZERO PUSH2 0x43F0 JUMPI POP DUP2 DUP2 EXP PUSH2 0x5E3 JUMP JUMPDEST PUSH2 0x43FA DUP4 DUP4 PUSH2 0x4335 JUMP JUMPDEST DUP1 PUSH0 NOT DIV DUP3 GT ISZERO PUSH2 0x440D JUMPI PUSH2 0x440D PUSH2 0x4321 JUMP JUMPDEST MUL SWAP4 SWAP3 POP POP POP JUMP JUMPDEST PUSH0 PUSH2 0x12E8 DUP4 DUP4 PUSH2 0x4377 JUMP JUMPDEST DUP1 DUP3 ADD DUP1 DUP3 GT ISZERO PUSH2 0x5E3 JUMPI PUSH2 0x5E3 PUSH2 0x4321 JUMP JUMPDEST PUSH4 0x4E487B71 PUSH1 0xE0 SHL PUSH0 MSTORE PUSH1 0x32 PUSH1 0x4 MSTORE PUSH1 0x24 PUSH0 REVERT JUMPDEST PUSH0 PUSH1 0x20 DUP3 DUP5 SUB SLT ISZERO PUSH2 0x4457 JUMPI PUSH0 DUP1 REVERT JUMPDEST POP MLOAD SWAP2 SWAP1 POP JUMP JUMPDEST PUSH1 0x1 PUSH1 0x1 PUSH1 0xA0 SHL SUB DUP6 AND DUP2 MSTORE DUP4 PUSH1 0x20 DUP3 ADD MSTORE DUP3 PUSH1 0x40 DUP3 ADD MSTORE PUSH1 0x80 PUSH1 0x60 DUP3 ADD MSTORE PUSH0 PUSH2 0x1540 PUSH1 0x80 DUP4 ADD DUP5 PUSH2 0x40F0 JUMP JUMPDEST DUP2 DUP2 SUB DUP2 DUP2 GT ISZERO PUSH2 0x5E3 JUMPI PUSH2 0x5E3 PUSH2 0x4321 JUMP JUMPDEST PUSH0 DUP2 MLOAD DUP1 PUSH1 0x20 DUP5 ADD DUP6 MCOPY PUSH0 SWAP4 ADD SWAP3 DUP4 MSTORE POP SWAP1 SWAP2 SWAP1 POP JUMP JUMPDEST PUSH0 PUSH2 0x12E8 DUP3 DUP5 PUSH2 0x449E JUMP JUMPDEST PUSH0 DUP2 PUSH1 0xF SIGNEXTEND PUSH1 0x1 PUSH1 0x1 PUSH1 0x7F SHL SUB NOT DUP2 SUB PUSH2 0x44DC JUMPI PUSH2 0x44DC PUSH2 0x4321 JUMP JUMPDEST PUSH0 SUB SWAP3 SWAP2 POP POP JUMP JUMPDEST PUSH1 0xF DUP3 DUP2 SIGNEXTEND SWAP1 DUP3 SWAP1 SIGNEXTEND SUB PUSH16 0x7FFFFFFFFFFFFFFFFFFFFFFFFFFFFFFF NOT DUP2 SLT PUSH1 0x1 PUSH1 0x1 PUSH1 0x7F SHL SUB DUP3 SGT OR ISZERO PUSH2 0x5E3 JUMPI PUSH2 0x5E3 PUSH2 0x4321 JUMP JUMPDEST PUSH0 PUSH1 0x1 DUP3 ADD PUSH2 0x452B JUMPI PUSH2 0x452B PUSH2 0x4321 JUMP JUMPDEST POP PUSH1 0x1 ADD SWAP1 JUMP JUMPDEST PUSH0 PUSH1 0x3 RETURNDATASIZE GT ISZERO PUSH2 0x710 JUMPI PUSH1 0x4 PUSH0 DUP1 RETURNDATACOPY POP PUSH0 MLOAD PUSH1 0xE0 SHR SWAP1 JUMP JUMPDEST PUSH0 PUSH1 0x44 RETURNDATASIZE LT ISZERO PUSH2 0x4557 JUMPI SWAP1 JUMP JUMPDEST PUSH1 0x40 MLOAD PUSH1 0x3 NOT RETURNDATASIZE DUP2 ADD PUSH1 0x4 DUP4 RETURNDATACOPY DUP2 MLOAD RETURNDATASIZE PUSH8 0xFFFFFFFFFFFFFFFF DUP2 PUSH1 0x24 DUP5 ADD GT DUP2 DUP5 GT OR ISZERO PUSH2 0x4587 JUMPI POP POP POP POP POP SWAP1 JUMP JUMPDEST DUP3 DUP6 ADD SWAP2 POP DUP2 MLOAD DUP2 DUP2 GT ISZERO PUSH2 0x459F JUMPI POP POP POP POP POP POP SWAP1 JUMP JUMPDEST DUP5 RETURNDATASIZE DUP8 ADD ADD PUSH1 0x20 DUP3 DUP6 ADD ADD GT ISZERO PUSH2 0x45B9 JUMPI POP POP POP POP POP POP SWAP1 JUMP JUMPDEST PUSH2 0x1637 PUSH1 0x20 DUP3 DUP7 ADD ADD DUP8 PUSH2 0x400F JUMP JUMPDEST PUSH0 DUP2 MLOAD DUP1 DUP5 MSTORE DUP1 PUSH1 0x20 DUP5 ADD PUSH1 0x20 DUP7 ADD MCOPY PUSH0 PUSH1 0x20 DUP3 DUP7 ADD ADD MSTORE PUSH1 0x20 PUSH1 0x1F NOT PUSH1 0x1F DUP4 ADD AND DUP6 ADD ADD SWAP2 POP POP SWAP3 SWAP2 POP POP JUMP JUMPDEST PUSH1 0x40 DUP2 MSTORE PUSH1 0x17 PUSH1 0x40 DUP3 ADD MSTORE PUSH32 0x736166655472616E7366657246726F6D206661696C6564000000000000000000 PUSH1 0x60 DUP3 ADD MSTORE PUSH1 0x80 PUSH1 0x20 DUP3 ADD MSTORE PUSH0 PUSH2 0x12E8 PUSH1 0x80 DUP4 ADD DUP5 PUSH2 0x45C8 JUMP JUMPDEST PUSH32 0x736166655472616E7366657246726F6D206661696C65643A2000000000000000 DUP2 MSTORE PUSH0 PUSH2 0x12E8 PUSH1 0x19 DUP4 ADD DUP5 PUSH2 0x449E JUMP JUMPDEST PUSH1 0x20 DUP2 MSTORE PUSH0 PUSH2 0x12E8 PUSH1 0x20 DUP4 ADD DUP5 PUSH2 0x45C8 JUMP JUMPDEST PUSH1 0x1 PUSH1 0x1 PUSH1 0xA0 SHL SUB DUP7 AND DUP2 MSTORE DUP5 PUSH1 0x20 DUP3 ADD MSTORE DUP4 PUSH1 0x40 DUP3 ADD MSTORE PUSH1 0xA0 PUSH1 0x60 DUP3 ADD MSTORE PUSH0 PUSH2 0x46AC PUSH1 0xA0 DUP4 ADD DUP6 PUSH2 0x40F0 JUMP JUMPDEST SWAP1 POP DUP3 PUSH1 0x80 DUP4 ADD MSTORE SWAP7 SWAP6 POP POP POP POP POP POP JUMP JUMPDEST PUSH0 PUSH1 0x20 DUP3 DUP5 SUB SLT ISZERO PUSH2 0x46CE JUMPI PUSH0 DUP1 REVERT JUMPDEST DUP2 MLOAD DUP1 ISZERO ISZERO DUP2 EQ PUSH2 0x12E8 JUMPI PUSH0 DUP1 REVERT JUMPDEST PUSH4 0x4E487B71 PUSH1 0xE0 SHL PUSH0 MSTORE PUSH1 0x12 PUSH1 0x4 MSTORE PUSH1 0x24 PUSH0 REVERT INVALID LOG2 PUSH5 0x6970667358 0x22 SLT KECCAK256 0xA6 SWAP13 0xCD 0x24 0xCC 0xC6 0xD8 DUP7 0x2C DUP4 0xD2 0xC1 DUP1 CREATE 0xBD 0xF9 0x4D SWAP13 CREATE MULMOD SIGNEXTEND LOG4 0x2C CREATE2 SLOAD 0xB0 0xDD 0xC3 0xFC 0xC5 OR CALLDATASIZE PUSH5 0x736F6C6343 STOP ADDMOD NOT STOP CALLER "
    },
    "gasEstimates": {
      "creation": {
        "codeDepositCost": "3643000",
        "executionCost": "infinite",
        "totalCost": "infinite"
      },
      "external": {
        "addLiquidity(uint256)": "infinite",
        "buy(uint256,int128)": "infinite",
        "condition()": "2339",
        "cost()": "infinite",
        "cost_after_buy(uint256,int128)": "infinite",
        "debugFees()": "infinite",
        "dummyVar()": "2362",
        "generateQuestionId(string)": "infinite",
        "getAccumulatedFees()": "infinite",
        "getLiquidityParameter()": "2424",
        "getOutcomeSharesPurchased(uint256)": "10803",
        "getPositionAndDustPositions(uint256)": "infinite",
        "getPositionInfo(uint256)": "infinite",
        "getTokenEth(address,uint256)": "infinite",
        "getTokenWei(address,int128)": "infinite",
        "getTokenWeiDown(address,int128)": "infinite",
        "getTokenWeiUp(address,int128)": "infinite",
        "initial_subsidy()": "2403",
        "numOutcomes()": "2340",
        "odds(uint256)": "infinite",
        "onERC1155BatchReceived(address,address,uint256[],uint256[],bytes)": "infinite",
        "onERC1155Received(address,address,uint256,uint256,bytes)": "infinite",
        "overround()": "2408",
        "owner()": "2363",
        "price(uint256,int128)": "infinite",
        "renounceOwnership()": "infinite",
        "sell(uint256,int128)": "infinite",
        "sellingPrice(uint256,int128)": "infinite",
        "setup(address,bytes32,uint256,uint256,uint256,uint256)": "infinite",
        "supportsInterface(bytes4)": "362",
        "token()": "2446",
        "transferOwnership(address)": "28380",
        "withdraw()": "infinite",
        "withdrawFees()": "infinite"
      },
      "internal": {
        "_calculateBuyPrice(int128[] memory,uint256,int128,int128,int128,uint256)": "infinite",
        "_calculateSellRefund(int128[] memory,uint256,int128,int128,int128,uint256)": "infinite",
        "_mintAndTransferOutcomeTokens(uint256,int128)": "infinite",
        "getOnes(uint256)": "infinite"
      }
    },
    "methodIdentifiers": {
      "addLiquidity(uint256)": "51c6590a",
      "buy(uint256,int128)": "f76da1d9",
      "condition()": "c5031331",
      "cost()": "13faede6",
      "cost_after_buy(uint256,int128)": "8062dd93",
      "debugFees()": "e1fc2305",
      "dummyVar()": "8ac40792",
      "generateQuestionId(string)": "4c395cc4",
      "getAccumulatedFees()": "5df45a37",
      "getLiquidityParameter()": "8364dfef",
      "getOutcomeSharesPurchased(uint256)": "bb6f593e",
      "getPositionAndDustPositions(uint256)": "8d0a6cff",
      "getPositionInfo(uint256)": "519f5099",
      "getTokenEth(address,uint256)": "10f8625a",
      "getTokenWei(address,int128)": "40088ee1",
      "getTokenWeiDown(address,int128)": "8d36627b",
      "getTokenWeiUp(address,int128)": "05445405",
      "initial_subsidy()": "cd6bd6db",
      "numOutcomes()": "8767d64e",
      "odds(uint256)": "46156ea0",
      "onERC1155BatchReceived(address,address,uint256[],uint256[],bytes)": "bc197c81",
      "onERC1155Received(address,address,uint256,uint256,bytes)": "f23a6e61",
      "overround()": "d8fdb386",
      "owner()": "8da5cb5b",
      "price(uint256,int128)": "df7bd8fc",
      "renounceOwnership()": "715018a6",
      "sell(uint256,int128)": "ae92a93d",
      "sellingPrice(uint256,int128)": "52fdfecc",
      "setup(address,bytes32,uint256,uint256,uint256,uint256)": "4a4f72e1",
      "supportsInterface(bytes4)": "01ffc9a7",
      "token()": "fc0c546a",
      "transferOwnership(address)": "f2fde38b",
      "withdraw()": "3ccfd60b",
      "withdrawFees()": "476343ee"
    }
  },
  "storageLayout": {
    "storage": [
      {
        "astId": 11520,
        "contract": "NoBOverround.sol:LsLMSR",
        "label": "_owner",
        "offset": 0,
        "slot": "0",
        "type": "t_address"
      },
      {
        "astId": 7929,
        "contract": "NoBOverround.sol:LsLMSR",
        "label": "numOutcomes",
        "offset": 0,
        "slot": "1",
        "type": "t_uint256"
      },
      {
        "astId": 7932,
        "contract": "NoBOverround.sol:LsLMSR",
        "label": "q",
        "offset": 0,
        "slot": "2",
        "type": "t_array(t_int128)dyn_storage"
      },
      {
        "astId": 7934,
        "contract": "NoBOverround.sol:LsLMSR",
        "label": "b",
        "offset": 0,
        "slot": "3",
        "type": "t_int128"
      },
      {
        "astId": 7936,
        "contract": "NoBOverround.sol:LsLMSR",
        "label": "current_cost",
        "offset": 16,
        "slot": "3",
        "type": "t_int128"
      },
      {
        "astId": 7938,
        "contract": "NoBOverround.sol:LsLMSR",
        "label": "total_shares",
        "offset": 0,
        "slot": "4",
        "type": "t_int128"
      },
      {
        "astId": 7940,
        "contract": "NoBOverround.sol:LsLMSR",
        "label": "initial_subsidy",
        "offset": 16,
        "slot": "4",
        "type": "t_int128"
      },
      {
        "astId": 7942,
        "contract": "NoBOverround.sol:LsLMSR",
        "label": "overround",
        "offset": 0,
        "slot": "5",
        "type": "t_int128"
      },
      {
        "astId": 7944,
        "contract": "NoBOverround.sol:LsLMSR",
        "label": "condition",
        "offset": 0,
        "slot": "6",
        "type": "t_bytes32"
      },
      {
        "astId": 7947,
        "contract": "NoBOverround.sol:LsLMSR",
        "label": "CT",
        "offset": 0,
        "slot": "7",
        "type": "t_contract(ConditionalTokens)4132"
      },
      {
        "astId": 7949,
        "contract": "NoBOverround.sol:LsLMSR",
        "label": "token",
        "offset": 0,
        "slot": "8",
        "type": "t_address"
      },
      {
        "astId": 7951,
        "contract": "NoBOverround.sol:LsLMSR",
        "label": "init",
        "offset": 20,
        "slot": "8",
        "type": "t_bool"
      },
      {
        "astId": 7957,
        "contract": "NoBOverround.sol:LsLMSR",
        "label": "dummyVar",
        "offset": 0,
        "slot": "9",
        "type": "t_uint256"
      }
    ],
    "types": {
      "t_address": {
        "encoding": "inplace",
        "label": "address",
        "numberOfBytes": "20"
      },
      "t_array(t_int128)dyn_storage": {
        "base": "t_int128",
        "encoding": "dynamic_array",
        "label": "int128[]",
        "numberOfBytes": "32"
      },
      "t_bool": {
        "encoding": "inplace",
        "label": "bool",
        "numberOfBytes": "1"
      },
      "t_bytes32": {
        "encoding": "inplace",
        "label": "bytes32",
        "numberOfBytes": "32"
      },
      "t_contract(ConditionalTokens)4132": {
        "encoding": "inplace",
        "label": "contract ConditionalTokens",
        "numberOfBytes": "20"
      },
      "t_int128": {
        "encoding": "inplace",
        "label": "int128",
        "numberOfBytes": "16"
      },
      "t_uint256": {
        "encoding": "inplace",
        "label": "uint256",
        "numberOfBytes": "32"
      }
    }
  },
  "userdoc": {
    "kind": "user",
    "methods": {
      "constructor": {
        "notice": "Constructor function for the market maker"
      },
      "cost()": {
        "notice": "View function returning the cost function.  This function returns the cost for this inventory state. It will be able to tell you the total amount of collateral spent within the market maker. For example, if a pool was seeded with 100 DAI and then a further 20 DAI has been spent, this function will return 120 DAI."
      },
      "cost_after_buy(uint256,int128)": {
        "notice": "This function will tell you the cost (similar to above) after a proposed transaction."
      },
      "odds(uint256)": {
        "notice": "This function tells you how much it will cost to make a particular trade. It does this by calculating the difference between the current cost and the cost after the transaction."
      },
      "setup(address,bytes32,uint256,uint256,uint256,uint256)": {
        "notice": "Set up some of the variables for the market maker"
      }
    },
    "version": 1
  }
}