{
  "abi": [
    {
      "inputs": [
        {
          "internalType": "address",
          "name": "_ct",
          "type": "address"
        },
        {
          "internalType": "address",
          "name": "_token",
          "type": "address"
        },
        {
          "internalType": "address",
          "name": "initialOwner",
          "type": "address"
        }
      ],
      "stateMutability": "nonpayable",
      "type": "constructor"
    },
    {
      "inputs": [
        {
          "internalType": "address",
          "name": "owner",
          "type": "address"
        }
      ],
      "name": "OwnableInvalidOwner",
      "type": "error"
    },
    {
      "inputs": [
        {
          "internalType": "address",
          "name": "account",
          "type": "address"
        }
      ],
      "name": "OwnableUnauthorizedAccount",
      "type": "error"
    },
    {
      "inputs": [
        {
          "internalType": "address",
          "name": "token",
          "type": "address"
        }
      ],
      "name": "SafeERC20FailedOperation",
      "type": "error"
    },
    {
      "anonymous": false,
      "inputs": [
        {
          "indexed": true,
          "internalType": "address",
          "name": "to",
          "type": "address"
        },
        {
          "indexed": false,
          "internalType": "uint256",
          "name": "amount",
          "type": "uint256"
        }
      ],
      "name": "FeesWithdrawn",
      "type": "event"
    },
    {
      "anonymous": false,
      "inputs": [
        {
          "indexed": true,
          "internalType": "address",
          "name": "user",
          "type": "address"
        },
        {
          "indexed": false,
          "internalType": "uint256",
          "name": "amount",
          "type": "uint256"
        }
      ],
      "name": "LiquidityAdded",
      "type": "event"
    },
    {
      "anonymous": false,
      "inputs": [
        {
          "indexed": true,
          "internalType": "address",
          "name": "previousOwner",
          "type": "address"
        },
        {
          "indexed": true,
          "internalType": "address",
          "name": "newOwner",
          "type": "address"
        }
      ],
      "name": "OwnershipTransferred",
      "type": "event"
    },
    {
      "inputs": [
        {
          "internalType": "uint256",
          "name": "_amount",
          "type": "uint256"
        }
      ],
      "name": "addLiquidity",
      "outputs": [],
      "stateMutability": "nonpayable",
      "type": "function"
    },
    {
      "inputs": [
        {
          "internalType": "uint256",
          "name": "_outcome",
          "type": "uint256"
        },
        {
          "internalType": "int128",
          "name": "_amount",
          "type": "int128"
        }
      ],
      "name": "buy",
      "outputs": [
        {
          "internalType": "int128",
          "name": "_price",
          "type": "int128"
        }
      ],
      "stateMutability": "nonpayable",
      "type": "function"
    },
    {
      "inputs": [],
      "name": "condition",
      "outputs": [
        {
          "internalType": "bytes32",
          "name": "",
          "type": "bytes32"
        }
      ],
      "stateMutability": "view",
      "type": "function"
    },
    {
      "inputs": [],
      "name": "cost",
      "outputs": [
        {
          "internalType": "int128",
          "name": "",
          "type": "int128"
        }
      ],
      "stateMutability": "view",
      "type": "function"
    },
    {
      "inputs": [
        {
          "internalType": "uint256",
          "name": "_outcome",
          "type": "uint256"
        },
        {
          "internalType": "int128",
          "name": "_amount",
          "type": "int128"
        }
      ],
      "name": "cost_after_buy",
      "outputs": [
        {
          "internalType": "int128",
          "name": "",
          "type": "int128"
        }
      ],
      "stateMutability": "view",
      "type": "function"
    },
    {
      "inputs": [],
      "name": "debugFees",
      "outputs": [
        {
          "internalType": "uint256",
          "name": "contractBalance",
          "type": "uint256"
        },
        {
          "internalType": "uint256",
          "name": "theoreticalCost",
          "type": "uint256"
        }
      ],
      "stateMutability": "view",
      "type": "function"
    },
    {
      "inputs": [],
      "name": "dummyVar",
      "outputs": [
        {
          "internalType": "uint256",
          "name": "",
          "type": "uint256"
        }
      ],
      "stateMutability": "view",
      "type": "function"
    },
    {
      "inputs": [
        {
          "internalType": "string",
          "name": "uniqueString",
          "type": "string"
        }
      ],
      "name": "generateQuestionId",
      "outputs": [
        {
          "internalType": "bytes32",
          "name": "",
          "type": "bytes32"
        }
      ],
      "stateMutability": "pure",
      "type": "function"
    },
    {
      "inputs": [],
      "name": "getAccumulatedFees",
      "outputs": [
        {
          "internalType": "uint256",
          "name": "",
          "type": "uint256"
        }
      ],
      "stateMutability": "view",
      "type": "function"
    },
    {
      "inputs": [],
      "name": "getLiquidityParameter",
      "outputs": [
        {
          "internalType": "int128",
          "name": "",
          "type": "int128"
        }
      ],
      "stateMutability": "view",
      "type": "function"
    },
    {
      "inputs": [
        {
          "internalType": "uint256",
          "name": "_outcome",
          "type": "uint256"
        }
      ],
      "name": "getOutcomeSharesPurchased",
      "outputs": [
        {
          "internalType": "int128",
          "name": "",
          "type": "int128"
        }
      ],
      "stateMutability": "view",
      "type": "function"
    },
    {
      "inputs": [
        {
          "internalType": "uint256",
          "name": "_outcome",
          "type": "uint256"
        }
      ],
      "name": "getPositionAndDustPositions",
      "outputs": [
        {
          "internalType": "uint256[]",
          "name": "",
          "type": "uint256[]"
        }
      ],
      "stateMutability": "view",
      "type": "function"
    },
    {
      "inputs": [
        {
          "internalType": "address",
          "name": "_token",
          "type": "address"
        },
        {
          "internalType": "uint256",
          "name": "_amount",
          "type": "uint256"
        }
      ],
      "name": "getTokenEth",
      "outputs": [
        {
          "internalType": "int128",
          "name": "",
          "type": "int128"
        }
      ],
      "stateMutability": "view",
      "type": "function"
    },
    {
      "inputs": [
        {
          "internalType": "address",
          "name": "_token",
          "type": "address"
        },
        {
          "internalType": "int128",
          "name": "_amount",
          "type": "int128"
        }
      ],
      "name": "getTokenWei",
      "outputs": [
        {
          "internalType": "uint256",
          "name": "",
          "type": "uint256"
        }
      ],
      "stateMutability": "view",
      "type": "function"
    },
    {
      "inputs": [],
      "name": "initial_subsidy",
      "outputs": [
        {
          "internalType": "int128",
          "name": "",
          "type": "int128"
        }
      ],
      "stateMutability": "view",
      "type": "function"
    },
    {
      "inputs": [],
      "name": "numOutcomes",
      "outputs": [
        {
          "internalType": "uint256",
          "name": "",
          "type": "uint256"
        }
      ],
      "stateMutability": "view",
      "type": "function"
    },
    {
      "inputs": [
        {
          "internalType": "uint256",
          "name": "_outcome",
          "type": "uint256"
        }
      ],
      "name": "odds",
      "outputs": [
        {
          "internalType": "int128",
          "name": "",
          "type": "int128"
        }
      ],
      "stateMutability": "view",
      "type": "function"
    },
    {
      "inputs": [
        {
          "internalType": "address",
          "name": "",
          "type": "address"
        },
        {
          "internalType": "address",
          "name": "",
          "type": "address"
        },
        {
          "internalType": "uint256[]",
          "name": "",
          "type": "uint256[]"
        },
        {
          "internalType": "uint256[]",
          "name": "",
          "type": "uint256[]"
        },
        {
          "internalType": "bytes",
          "name": "",
          "type": "bytes"
        }
      ],
      "name": "onERC1155BatchReceived",
      "outputs": [
        {
          "internalType": "bytes4",
          "name": "",
          "type": "bytes4"
        }
      ],
      "stateMutability": "pure",
      "type": "function"
    },
    {
      "inputs": [
        {
          "internalType": "address",
          "name": "",
          "type": "address"
        },
        {
          "internalType": "address",
          "name": "",
          "type": "address"
        },
        {
          "internalType": "uint256",
          "name": "",
          "type": "uint256"
        },
        {
          "internalType": "uint256",
          "name": "",
          "type": "uint256"
        },
        {
          "internalType": "bytes",
          "name": "",
          "type": "bytes"
        }
      ],
      "name": "onERC1155Received",
      "outputs": [
        {
          "internalType": "bytes4",
          "name": "",
          "type": "bytes4"
        }
      ],
      "stateMutability": "pure",
      "type": "function"
    },
    {
      "inputs": [],
      "name": "owner",
      "outputs": [
        {
          "internalType": "address",
          "name": "",
          "type": "address"
        }
      ],
      "stateMutability": "view",
      "type": "function"
    },
    {
      "inputs": [
        {
          "internalType": "uint256",
          "name": "_outcome",
          "type": "uint256"
        },
        {
          "internalType": "int128",
          "name": "_amount",
          "type": "int128"
        }
      ],
      "name": "price",
      "outputs": [
        {
          "internalType": "int128",
          "name": "",
          "type": "int128"
        }
      ],
      "stateMutability": "view",
      "type": "function"
    },
    {
      "inputs": [],
      "name": "renounceOwnership",
      "outputs": [],
      "stateMutability": "nonpayable",
      "type": "function"
    },
    {
      "inputs": [
        {
          "internalType": "uint256",
          "name": "_outcome",
          "type": "uint256"
        },
        {
          "internalType": "int128",
          "name": "_amount",
          "type": "int128"
        }
      ],
      "name": "sell",
      "outputs": [
        {
          "internalType": "int128",
          "name": "refund",
          "type": "int128"
        }
      ],
      "stateMutability": "nonpayable",
      "type": "function"
    },
    {
      "inputs": [
        {
          "internalType": "uint256",
          "name": "_outcome",
          "type": "uint256"
        },
        {
          "internalType": "int128",
          "name": "_amount",
          "type": "int128"
        }
      ],
      "name": "sellingPrice",
      "outputs": [
        {
          "internalType": "int128",
          "name": "",
          "type": "int128"
        }
      ],
      "stateMutability": "view",
      "type": "function"
    },
    {
      "inputs": [
        {
          "internalType": "address",
          "name": "_oracle",
          "type": "address"
        },
        {
          "internalType": "bytes32",
          "name": "_questionId",
          "type": "bytes32"
        },
        {
          "internalType": "uint256",
          "name": "_numOutcomes",
          "type": "uint256"
        },
        {
          "internalType": "uint256",
          "name": "_subsidy",
          "type": "uint256"
        },
        {
          "internalType": "uint256",
          "name": "_overround",
          "type": "uint256"
        }
      ],
      "name": "setup",
      "outputs": [],
      "stateMutability": "nonpayable",
      "type": "function"
    },
    {
      "inputs": [
        {
          "internalType": "bytes4",
          "name": "interfaceId",
          "type": "bytes4"
        }
      ],
      "name": "supportsInterface",
      "outputs": [
        {
          "internalType": "bool",
          "name": "",
          "type": "bool"
        }
      ],
      "stateMutability": "view",
      "type": "function"
    },
    {
      "inputs": [],
      "name": "token",
      "outputs": [
        {
          "internalType": "address",
          "name": "",
          "type": "address"
        }
      ],
      "stateMutability": "view",
      "type": "function"
    },
    {
      "inputs": [
        {
          "internalType": "address",
          "name": "newOwner",
          "type": "address"
        }
      ],
      "name": "transferOwnership",
      "outputs": [],
      "stateMutability": "nonpayable",
      "type": "function"
    },
    {
      "inputs": [],
      "name": "withdraw",
      "outputs": [],
      "stateMutability": "nonpayable",
      "type": "function"
    },
    {
      "inputs": [],
      "name": "withdrawFees",
      "outputs": [],
      "stateMutability": "nonpayable",
      "type": "function"
    }
  ],
  "devdoc": {
    "errors": {
      "OwnableInvalidOwner(address)": [
        {
          "details": "The owner is not a valid owner account. (eg. `address(0)`)"
        }
      ],
      "OwnableUnauthorizedAccount(address)": [
        {
          "details": "The caller account is not authorized to perform an operation."
        }
      ],
      "SafeERC20FailedOperation(address)": [
        {
          "details": "An operation with an ERC-20 token failed."
        }
      ]
    },
    "kind": "dev",
    "methods": {
      "buy(uint256,int128)": {
        "params": {
          "_amount": "This is the number of outcome tokens purchased",
          "_outcome": "The outcome(s) which a user is buying tokens for. Note: This is the integer representation for the bit array."
        },
        "returns": {
          "_price": "The cost to purchase _amount number of tokens"
        }
      },
      "constructor": {
        "params": {
          "_ct": "The address for the deployed conditional tokens contract",
          "_token": "Which ERC-20 token will be used to purchase and redeem outcome tokens for this condition"
        }
      },
      "owner()": {
        "details": "Returns the address of the current owner."
      },
      "renounceOwnership()": {
        "details": "Leaves the contract without owner. It will not be possible to call `onlyOwner` functions. Can only be called by the current owner. NOTE: Renouncing ownership will leave the contract without an owner, thereby disabling any functionality that is only available to the owner."
      },
      "setup(address,bytes32,uint256,uint256,uint256)": {
        "params": {
          "_numOutcomes": "The number of different outcomes available _subsidyToken Which ERC-20 token will be used to purchase and redeem outcome tokens for this condition",
          "_oracle": "The address for the EOA/contract which will act as the oracle for this condition",
          "_overround": "How much 'profit' does the AMM claim? Note that this is represented in bips. Therefore inputting 300 represents 0.30%",
          "_questionId": "The question ID (needs to be unique)",
          "_subsidy": "How much initial funding is used to seed the market maker."
        }
      },
      "supportsInterface(bytes4)": {
        "details": "Returns true if this contract implements the interface defined by `interfaceId`. See the corresponding https://eips.ethereum.org/EIPS/eip-165#how-interfaces-are-identified[ERC section] to learn more about how these ids are created. This function call must use less than 30 000 gas."
      },
      "transferOwnership(address)": {
        "details": "Transfers ownership of the contract to a new account (`newOwner`). Can only be called by the current owner."
      }
    },
    "version": 1
  },
  "evm": {
    "assembly": "    /* \"LmLSMR.sol\":615:14314  contract LsLMSR is IERC1155Receiver, Ownable{... */\n  mstore(0x40, 0x80)\n    /* \"LmLSMR.sol\":1447:1449  42 */\n  0x2a\n    /* \"LmLSMR.sol\":1421:1449  uint256 public dummyVar = 42 */\n  0x09\n  sstore\n    /* \"LmLSMR.sol\":1708:1867  constructor(... */\n  callvalue\n  dup1\n  iszero\n  tag_1\n  jumpi\n  0x00\n  dup1\n  revert\ntag_1:\n  pop\n  mload(0x40)\n  sub(codesize, bytecodeSize)\n  dup1\n  bytecodeSize\n  dup4\n  codecopy\n  dup2\n  add\n  0x40\n  dup2\n  swap1\n  mstore\n  tag_2\n  swap2\n  tag_3\n  jump\t// in\ntag_2:\n    /* \"LmLSMR.sol\":1795:1807  initialOwner */\n  dup1\n  sub(shl(0xa0, 0x01), 0x01)\n    /* \"@openzeppelin/contracts/access/Ownable.sol\":1273:1299   */\n  dup2\n  and\n    /* \"@openzeppelin/contracts/access/Ownable.sol\":1269:1364   */\n  tag_7\n  jumpi\n    /* \"@openzeppelin/contracts/access/Ownable.sol\":1322:1353   */\n  mload(0x40)\n  shl(0xe0, 0x1e4fbdf7)\n  dup2\n  mstore\n    /* \"@openzeppelin/contracts/access/Ownable.sol\":1350:1351   */\n  0x00\n    /* \"@openzeppelin/contracts/access/Ownable.sol\":1322:1353   */\n  0x04\n  dup3\n  add\n    /* \"#utility.yul\":725:776   */\n  mstore\n    /* \"#utility.yul\":698:716   */\n  0x24\n  add\n    /* \"@openzeppelin/contracts/access/Ownable.sol\":1322:1353   */\n  mload(0x40)\n  dup1\n  swap2\n  sub\n  swap1\n  revert\n    /* \"@openzeppelin/contracts/access/Ownable.sol\":1269:1364   */\ntag_7:\n    /* \"@openzeppelin/contracts/access/Ownable.sol\":1373:1405   */\n  tag_10\n    /* \"@openzeppelin/contracts/access/Ownable.sol\":1392:1404   */\n  dup2\n    /* \"@openzeppelin/contracts/access/Ownable.sol\":1373:1391   */\n  tag_11\n    /* \"@openzeppelin/contracts/access/Ownable.sol\":1373:1405   */\n  jump\t// in\ntag_10:\n  pop\n  pop\n    /* \"LmLSMR.sol\":1815:1817  CT */\n  0x07\n    /* \"LmLSMR.sol\":1815:1842  CT = ConditionalTokens(_ct) */\n  dup1\n  sload\n  sub(shl(0xa0, 0x01), 0x01)\n  swap4\n  dup5\n  and\n  not(sub(shl(0xa0, 0x01), 0x01))\n  swap2\n  dup3\n  and\n  or\n  swap1\n  swap2\n  sstore\n    /* \"LmLSMR.sol\":1848:1853  token */\n  0x08\n    /* \"LmLSMR.sol\":1848:1862  token = _token */\n  dup1\n  sload\n  swap3\n  swap1\n  swap4\n  and\n  swap2\n  and\n  or\n  swap1\n  sstore\n    /* \"LmLSMR.sol\":615:14314  contract LsLMSR is IERC1155Receiver, Ownable{... */\n  jump(tag_16)\n    /* \"@openzeppelin/contracts/access/Ownable.sol\":2912:3099   */\ntag_11:\n    /* \"@openzeppelin/contracts/access/Ownable.sol\":2985:3001   */\n  0x00\n    /* \"@openzeppelin/contracts/access/Ownable.sol\":3004:3010   */\n  dup1\n  sload\n  sub(shl(0xa0, 0x01), 0x01)\n    /* \"@openzeppelin/contracts/access/Ownable.sol\":3020:3037   */\n  dup4\n  dup2\n  and\n  not(sub(shl(0xa0, 0x01), 0x01))\n  dup4\n  and\n  dup2\n  or\n  dup5\n  sstore\n    /* \"@openzeppelin/contracts/access/Ownable.sol\":3052:3092   */\n  mload(0x40)\n    /* \"@openzeppelin/contracts/access/Ownable.sol\":3004:3010   */\n  swap2\n  swap1\n  swap3\n  and\n  swap3\n  dup4\n  swap2\n    /* \"@openzeppelin/contracts/access/Ownable.sol\":3052:3092   */\n  0x8be0079c531659141344cd1fd0a4f28419497f9722a3daafe3b4186f6b6457e0\n  swap2\n    /* \"@openzeppelin/contracts/access/Ownable.sol\":2985:3001   */\n  swap1\n    /* \"@openzeppelin/contracts/access/Ownable.sol\":3052:3092   */\n  log3\n    /* \"@openzeppelin/contracts/access/Ownable.sol\":2975:3099   */\n  pop\n    /* \"@openzeppelin/contracts/access/Ownable.sol\":2912:3099   */\n  pop\n  jump\t// out\n    /* \"#utility.yul\":14:191   */\ntag_15:\n    /* \"#utility.yul\":93:106   */\n  dup1\n  mload\n  sub(shl(0xa0, 0x01), 0x01)\n    /* \"#utility.yul\":135:166   */\n  dup2\n  and\n    /* \"#utility.yul\":125:167   */\n  dup2\n  eq\n    /* \"#utility.yul\":115:185   */\n  tag_18\n  jumpi\n    /* \"#utility.yul\":181:182   */\n  0x00\n    /* \"#utility.yul\":178:179   */\n  dup1\n    /* \"#utility.yul\":171:183   */\n  revert\n    /* \"#utility.yul\":115:185   */\ntag_18:\n    /* \"#utility.yul\":14:191   */\n  swap2\n  swap1\n  pop\n  jump\t// out\n    /* \"#utility.yul\":196:574   */\ntag_3:\n    /* \"#utility.yul\":284:290   */\n  0x00\n    /* \"#utility.yul\":292:298   */\n  dup1\n    /* \"#utility.yul\":300:306   */\n  0x00\n    /* \"#utility.yul\":353:355   */\n  0x60\n    /* \"#utility.yul\":341:350   */\n  dup5\n    /* \"#utility.yul\":332:339   */\n  dup7\n    /* \"#utility.yul\":328:351   */\n  sub\n    /* \"#utility.yul\":324:356   */\n  slt\n    /* \"#utility.yul\":321:373   */\n  iszero\n  tag_20\n  jumpi\n    /* \"#utility.yul\":369:370   */\n  0x00\n    /* \"#utility.yul\":366:367   */\n  dup1\n    /* \"#utility.yul\":359:371   */\n  revert\n    /* \"#utility.yul\":321:373   */\ntag_20:\n    /* \"#utility.yul\":392:432   */\n  tag_21\n    /* \"#utility.yul\":422:431   */\n  dup5\n    /* \"#utility.yul\":392:432   */\n  tag_15\n  jump\t// in\ntag_21:\n    /* \"#utility.yul\":382:432   */\n  swap3\n  pop\n    /* \"#utility.yul\":451:500   */\n  tag_22\n    /* \"#utility.yul\":496:498   */\n  0x20\n    /* \"#utility.yul\":485:494   */\n  dup6\n    /* \"#utility.yul\":481:499   */\n  add\n    /* \"#utility.yul\":451:500   */\n  tag_15\n  jump\t// in\ntag_22:\n    /* \"#utility.yul\":441:500   */\n  swap2\n  pop\n    /* \"#utility.yul\":519:568   */\n  tag_23\n    /* \"#utility.yul\":564:566   */\n  0x40\n    /* \"#utility.yul\":553:562   */\n  dup6\n    /* \"#utility.yul\":549:567   */\n  add\n    /* \"#utility.yul\":519:568   */\n  tag_15\n  jump\t// in\ntag_23:\n    /* \"#utility.yul\":509:568   */\n  swap1\n  pop\n    /* \"#utility.yul\":196:574   */\n  swap3\n  pop\n  swap3\n  pop\n  swap3\n  jump\t// out\n    /* \"#utility.yul\":579:782   */\ntag_16:\n    /* \"LmLSMR.sol\":615:14314  contract LsLMSR is IERC1155Receiver, Ownable{... */\n  dataSize(sub_0)\n  dup1\n  dataOffset(sub_0)\n  0x00\n  codecopy\n  0x00\n  return\nstop\n\nsub_0: assembly {\n        /* \"LmLSMR.sol\":615:14314  contract LsLMSR is IERC1155Receiver, Ownable{... */\n      mstore(0x40, 0x80)\n      callvalue\n      dup1\n      iszero\n      tag_1\n      jumpi\n      0x00\n      dup1\n      revert\n    tag_1:\n      pop\n      jumpi(tag_2, lt(calldatasize, 0x04))\n      shr(0xe0, calldataload(0x00))\n      dup1\n      0x8ac40792\n      gt\n      tag_33\n      jumpi\n      dup1\n      0xc5031331\n      gt\n      tag_34\n      jumpi\n      dup1\n      0xf23a6e61\n      gt\n      tag_35\n      jumpi\n      dup1\n      0xf23a6e61\n      eq\n      tag_29\n      jumpi\n      dup1\n      0xf2fde38b\n      eq\n      tag_30\n      jumpi\n      dup1\n      0xf76da1d9\n      eq\n      tag_31\n      jumpi\n      dup1\n      0xfc0c546a\n      eq\n      tag_32\n      jumpi\n      0x00\n      dup1\n      revert\n    tag_35:\n      dup1\n      0xc5031331\n      eq\n      tag_25\n      jumpi\n      dup1\n      0xcd6bd6db\n      eq\n      tag_26\n      jumpi\n      dup1\n      0xdf7bd8fc\n      eq\n      tag_27\n      jumpi\n      dup1\n      0xe1fc2305\n      eq\n      tag_28\n      jumpi\n      0x00\n      dup1\n      revert\n    tag_34:\n      dup1\n      0x8f54f2ae\n      gt\n      tag_36\n      jumpi\n      dup1\n      0x8f54f2ae\n      eq\n      tag_21\n      jumpi\n      dup1\n      0xae92a93d\n      eq\n      tag_22\n      jumpi\n      dup1\n      0xbb6f593e\n      eq\n      tag_23\n      jumpi\n      dup1\n      0xbc197c81\n      eq\n      tag_24\n      jumpi\n      0x00\n      dup1\n      revert\n    tag_36:\n      dup1\n      0x8ac40792\n      eq\n      tag_18\n      jumpi\n      dup1\n      0x8d0a6cff\n      eq\n      tag_19\n      jumpi\n      dup1\n      0x8da5cb5b\n      eq\n      tag_20\n      jumpi\n      0x00\n      dup1\n      revert\n    tag_33:\n      dup1\n      0x4c395cc4\n      gt\n      tag_37\n      jumpi\n      dup1\n      0x715018a6\n      gt\n      tag_38\n      jumpi\n      dup1\n      0x715018a6\n      eq\n      tag_14\n      jumpi\n      dup1\n      0x8062dd93\n      eq\n      tag_15\n      jumpi\n      dup1\n      0x8364dfef\n      eq\n      tag_16\n      jumpi\n      dup1\n      0x8767d64e\n      eq\n      tag_17\n      jumpi\n      0x00\n      dup1\n      revert\n    tag_38:\n      dup1\n      0x4c395cc4\n      eq\n      tag_10\n      jumpi\n      dup1\n      0x51c6590a\n      eq\n      tag_11\n      jumpi\n      dup1\n      0x52fdfecc\n      eq\n      tag_12\n      jumpi\n      dup1\n      0x5df45a37\n      eq\n      tag_13\n      jumpi\n      0x00\n      dup1\n      revert\n    tag_37:\n      dup1\n      0x3ccfd60b\n      gt\n      tag_39\n      jumpi\n      dup1\n      0x3ccfd60b\n      eq\n      tag_6\n      jumpi\n      dup1\n      0x40088ee1\n      eq\n      tag_7\n      jumpi\n      dup1\n      0x46156ea0\n      eq\n      tag_8\n      jumpi\n      dup1\n      0x476343ee\n      eq\n      tag_9\n      jumpi\n      0x00\n      dup1\n      revert\n    tag_39:\n      dup1\n      0x01ffc9a7\n      eq\n      tag_3\n      jumpi\n      dup1\n      0x10f8625a\n      eq\n      tag_4\n      jumpi\n      dup1\n      0x13faede6\n      eq\n      tag_5\n      jumpi\n    tag_2:\n      0x00\n      dup1\n      revert\n        /* \"LmLSMR.sol\":10208:10304  function supportsInterface(... */\n    tag_3:\n      tag_40\n      tag_41\n      calldatasize\n      0x04\n      tag_42\n      jump\t// in\n    tag_41:\n      pop\n        /* \"LmLSMR.sol\":10296:10300  bool */\n      0x00\n      swap1\n        /* \"LmLSMR.sol\":10208:10304  function supportsInterface(... */\n      jump\n    tag_40:\n      mload(0x40)\n        /* \"#utility.yul\":470:484   */\n      swap1\n      iszero\n        /* \"#utility.yul\":463:485   */\n      iszero\n        /* \"#utility.yul\":445:486   */\n      dup2\n      mstore\n        /* \"#utility.yul\":433:435   */\n      0x20\n        /* \"#utility.yul\":418:436   */\n      add\n        /* \"LmLSMR.sol\":10208:10304  function supportsInterface(... */\n    tag_44:\n      mload(0x40)\n      dup1\n      swap2\n      sub\n      swap1\n      return\n        /* \"LmLSMR.sol\":9483:9663  function getTokenEth(... */\n    tag_4:\n      tag_46\n      tag_47\n      calldatasize\n      0x04\n      tag_48\n      jump\t// in\n    tag_47:\n      tag_49\n      jump\t// in\n    tag_46:\n      mload(0x40)\n        /* \"#utility.yul\":1130:1132   */\n      0x0f\n        /* \"#utility.yul\":1119:1141   */\n      swap2\n      swap1\n      swap2\n      signextend\n        /* \"#utility.yul\":1101:1142   */\n      dup2\n      mstore\n        /* \"#utility.yul\":1089:1091   */\n      0x20\n        /* \"#utility.yul\":1074:1092   */\n      add\n        /* \"LmLSMR.sol\":9483:9663  function getTokenEth(... */\n      tag_44\n        /* \"#utility.yul\":957:1148   */\n      jump\n        /* \"LmLSMR.sol\":6798:7065  function cost() public view onlyAfterInit() returns (int128) {... */\n    tag_5:\n      tag_46\n      tag_53\n      jump\t// in\n        /* \"LmLSMR.sol\":5567:6002  function withdraw() public onlyAfterInit() onlyOwner() {... */\n    tag_6:\n      tag_55\n      tag_56\n      jump\t// in\n    tag_55:\n      stop\n        /* \"LmLSMR.sol\":8959:9479  function getTokenWei(... */\n    tag_7:\n      tag_57\n      tag_58\n      calldatasize\n      0x04\n      tag_59\n      jump\t// in\n    tag_58:\n      tag_60\n      jump\t// in\n    tag_57:\n      mload(0x40)\n        /* \"#utility.yul\":1729:1754   */\n      swap1\n      dup2\n      mstore\n        /* \"#utility.yul\":1717:1719   */\n      0x20\n        /* \"#utility.yul\":1702:1720   */\n      add\n        /* \"LmLSMR.sol\":8959:9479  function getTokenWei(... */\n      tag_44\n        /* \"#utility.yul\":1583:1760   */\n      jump\n        /* \"LmLSMR.sol\":8076:8627  function odds(... */\n    tag_8:\n      tag_46\n      tag_64\n      calldatasize\n      0x04\n      tag_65\n      jump\t// in\n    tag_64:\n      tag_66\n      jump\t// in\n        /* \"LmLSMR.sol\":13728:14102  function withdrawFees() public onlyOwner {... */\n    tag_9:\n      tag_55\n      tag_69\n      jump\t// in\n        /* \"LmLSMR.sol\":10440:10591  function generateQuestionId(string memory uniqueString) public pure returns (bytes32) {... */\n    tag_10:\n      tag_57\n      tag_71\n      calldatasize\n      0x04\n      tag_72\n      jump\t// in\n    tag_71:\n      tag_73\n      jump\t// in\n        /* \"LmLSMR.sol\":12617:13346  function addLiquidity(uint _amount) public onlyOwner {... */\n    tag_11:\n      tag_55\n      tag_77\n      calldatasize\n      0x04\n      tag_65\n      jump\t// in\n    tag_77:\n      tag_78\n      jump\t// in\n        /* \"LmLSMR.sol\":8793:8955  function sellingPrice(... */\n    tag_12:\n      tag_46\n      tag_80\n      calldatasize\n      0x04\n      tag_81\n      jump\t// in\n    tag_80:\n      tag_82\n      jump\t// in\n        /* \"LmLSMR.sol\":13348:13668  function getAccumulatedFees() public view returns (uint) {... */\n    tag_13:\n      tag_57\n      tag_85\n      jump\t// in\n        /* \"@openzeppelin/contracts/access/Ownable.sol\":2293:2394   */\n    tag_14:\n      tag_55\n      tag_88\n      jump\t// in\n        /* \"LmLSMR.sol\":7179:7863  function cost_after_buy(... */\n    tag_15:\n      tag_46\n      tag_90\n      calldatasize\n      0x04\n      tag_81\n      jump\t// in\n    tag_90:\n      tag_91\n      jump\t// in\n        /* \"LmLSMR.sol\":12263:12344  function getLiquidityParameter() public view returns (int128) {... */\n    tag_16:\n        /* \"LmLSMR.sol\":12338:12339  b */\n      signextend(0x0f, sload(0x03))\n        /* \"LmLSMR.sol\":12263:12344  function getLiquidityParameter() public view returns (int128) {... */\n      jump(tag_46)\n        /* \"LmLSMR.sol\":943:966  uint public numOutcomes */\n    tag_17:\n      tag_57\n      sload(0x01)\n      dup2\n      jump\n        /* \"LmLSMR.sol\":1421:1449  uint256 public dummyVar = 42 */\n    tag_18:\n      tag_57\n      sload(0x09)\n      dup2\n      jump\n        /* \"LmLSMR.sol\":6006:6431  function getPositionAndDustPositions(... */\n    tag_19:\n      tag_102\n      tag_103\n      calldatasize\n      0x04\n      tag_65\n      jump\t// in\n    tag_103:\n      tag_104\n      jump\t// in\n    tag_102:\n      mload(0x40)\n      tag_44\n      swap2\n      swap1\n      tag_106\n      jump\t// in\n        /* \"@openzeppelin/contracts/access/Ownable.sol\":1638:1723   */\n    tag_20:\n        /* \"@openzeppelin/contracts/access/Ownable.sol\":1684:1691   */\n      0x00\n        /* \"@openzeppelin/contracts/access/Ownable.sol\":1710:1716   */\n      sload\n      sub(shl(0xa0, 0x01), 0x01)\n      and\n        /* \"@openzeppelin/contracts/access/Ownable.sol\":1638:1723   */\n    tag_107:\n      mload(0x40)\n      sub(shl(0xa0, 0x01), 0x01)\n        /* \"#utility.yul\":4322:4377   */\n      swap1\n      swap2\n      and\n        /* \"#utility.yul\":4304:4378   */\n      dup2\n      mstore\n        /* \"#utility.yul\":4292:4294   */\n      0x20\n        /* \"#utility.yul\":4277:4295   */\n      add\n        /* \"@openzeppelin/contracts/access/Ownable.sol\":1638:1723   */\n      tag_44\n        /* \"#utility.yul\":4158:4384   */\n      jump\n        /* \"LmLSMR.sol\":2522:3539  function setup(... */\n    tag_21:\n      tag_55\n      tag_112\n      calldatasize\n      0x04\n      tag_113\n      jump\t// in\n    tag_112:\n      tag_114\n      jump\t// in\n        /* \"LmLSMR.sol\":10598:12259  function sell(uint256 _outcome, int128 _amount) public onlyAfterInit returns (int128 refund) {... */\n    tag_22:\n      tag_46\n      tag_116\n      calldatasize\n      0x04\n      tag_81\n      jump\t// in\n    tag_116:\n      tag_117\n      jump\t// in\n        /* \"LmLSMR.sol\":12348:12550  function getOutcomeSharesPurchased(uint256 _outcome) public view returns (int128) {... */\n    tag_23:\n      tag_46\n      tag_120\n      calldatasize\n      0x04\n      tag_65\n      jump\t// in\n    tag_120:\n      tag_121\n      jump\t// in\n        /* \"LmLSMR.sol\":9920:10203  function onERC1155BatchReceived(... */\n    tag_24:\n      tag_123\n      tag_124\n      calldatasize\n      0x04\n      tag_125\n      jump\t// in\n    tag_124:\n      shl(0xe0, 0xbc197c81)\n      swap9\n      swap8\n      pop\n      pop\n      pop\n      pop\n      pop\n      pop\n      pop\n      pop\n      jump\n    tag_123:\n      mload(0x40)\n      not(sub(shl(0xe0, 0x01), 0x01))\n        /* \"#utility.yul\":6955:6988   */\n      swap1\n      swap2\n      and\n        /* \"#utility.yul\":6937:6989   */\n      dup2\n      mstore\n        /* \"#utility.yul\":6925:6927   */\n      0x20\n        /* \"#utility.yul\":6910:6928   */\n      add\n        /* \"LmLSMR.sol\":9920:10203  function onERC1155BatchReceived(... */\n      tag_44\n        /* \"#utility.yul\":6793:6995   */\n      jump\n        /* \"LmLSMR.sol\":1132:1156  bytes32 public condition */\n    tag_25:\n      tag_57\n      sload(0x06)\n      dup2\n      jump\n        /* \"LmLSMR.sol\":1098:1127  int128 public initial_subsidy */\n    tag_26:\n      sload(0x05)\n      tag_46\n      swap1\n      0x0f\n      signextend\n      dup2\n      jump\n        /* \"LmLSMR.sol\":8633:8789  function price(... */\n    tag_27:\n      tag_46\n      tag_136\n      calldatasize\n      0x04\n      tag_81\n      jump\t// in\n    tag_136:\n      tag_137\n      jump\t// in\n        /* \"LmLSMR.sol\":14104:14311  function debugFees() public view returns (uint contractBalance, uint theoreticalCost) {... */\n    tag_28:\n      tag_139\n      tag_140\n      jump\t// in\n    tag_139:\n      0x40\n      dup1\n      mload\n        /* \"#utility.yul\":7174:7199   */\n      swap3\n      dup4\n      mstore\n        /* \"#utility.yul\":7230:7232   */\n      0x20\n        /* \"#utility.yul\":7215:7233   */\n      dup4\n      add\n        /* \"#utility.yul\":7208:7242   */\n      swap2\n      swap1\n      swap2\n      mstore\n        /* \"#utility.yul\":7147:7165   */\n      add\n        /* \"LmLSMR.sol\":14104:14311  function debugFees() public view returns (uint contractBalance, uint theoreticalCost) {... */\n      tag_44\n        /* \"#utility.yul\":7000:7248   */\n      jump\n        /* \"LmLSMR.sol\":9667:9916  function onERC1155Received(... */\n    tag_29:\n      tag_123\n      tag_144\n      calldatasize\n      0x04\n      tag_145\n      jump\t// in\n    tag_144:\n      shl(0xe0, 0xf23a6e61)\n      swap7\n      swap6\n      pop\n      pop\n      pop\n      pop\n      pop\n      pop\n      jump\n        /* \"@openzeppelin/contracts/access/Ownable.sol\":2543:2758   */\n    tag_30:\n      tag_55\n      tag_149\n      calldatasize\n      0x04\n      tag_150\n      jump\t// in\n    tag_149:\n      tag_151\n      jump\t// in\n        /* \"LmLSMR.sol\":3883:5352  function buy(... */\n    tag_31:\n      tag_46\n      tag_153\n      calldatasize\n      0x04\n      tag_81\n      jump\t// in\n    tag_153:\n      tag_154\n      jump\t// in\n        /* \"LmLSMR.sol\":1192:1212  address public token */\n    tag_32:\n      sload(0x08)\n      tag_107\n      swap1\n      sub(shl(0xa0, 0x01), 0x01)\n      and\n      dup2\n      jump\n        /* \"LmLSMR.sol\":9483:9663  function getTokenEth(... */\n    tag_49:\n        /* \"LmLSMR.sol\":9567:9573  int128 */\n      0x00\n        /* \"LmLSMR.sol\":9581:9587  uint d */\n      dup1\n        /* \"LmLSMR.sol\":9596:9602  _token */\n      dup4\n      sub(shl(0xa0, 0x01), 0x01)\n        /* \"LmLSMR.sol\":9590:9612  ERC20(_token).decimals */\n      and\n      0x313ce567\n        /* \"LmLSMR.sol\":9590:9614  ERC20(_token).decimals() */\n      mload(0x40)\n      dup2\n      0xffffffff\n      and\n      0xe0\n      shl\n      dup2\n      mstore\n      0x04\n      add\n      0x20\n      mload(0x40)\n      dup1\n      dup4\n      sub\n      dup2\n      dup7\n      gas\n      staticcall\n      iszero\n      dup1\n      iszero\n      tag_162\n      jumpi\n      returndatasize\n      0x00\n      dup1\n      returndatacopy\n      revert(0x00, returndatasize)\n    tag_162:\n      pop\n      pop\n      pop\n      pop\n      mload(0x40)\n      returndatasize\n      not(0x1f)\n      0x1f\n      dup3\n      add\n      and\n      dup3\n      add\n      dup1\n      0x40\n      mstore\n      pop\n      dup2\n      add\n      swap1\n      tag_163\n      swap2\n      swap1\n      tag_164\n      jump\t// in\n    tag_163:\n        /* \"LmLSMR.sol\":9581:9614  uint d = ERC20(_token).decimals() */\n      0xff\n      and\n      swap1\n      pop\n        /* \"LmLSMR.sol\":9627:9658  ABDKMath.divu(_amount, 10 ** d) */\n      tag_165\n        /* \"LmLSMR.sol\":9641:9648  _amount */\n      dup4\n        /* \"LmLSMR.sol\":9650:9657  10 ** d */\n      tag_166\n        /* \"LmLSMR.sol\":9581:9614  uint d = ERC20(_token).decimals() */\n      dup4\n        /* \"LmLSMR.sol\":9650:9652  10 */\n      0x0a\n        /* \"LmLSMR.sol\":9650:9657  10 ** d */\n      tag_167\n      jump\t// in\n    tag_166:\n        /* \"LmLSMR.sol\":9627:9640  ABDKMath.divu */\n      tag_168\n        /* \"LmLSMR.sol\":9627:9658  ABDKMath.divu(_amount, 10 ** d) */\n      jump\t// in\n    tag_165:\n        /* \"LmLSMR.sol\":9620:9658  return ABDKMath.divu(_amount, 10 ** d) */\n      swap2\n      pop\n      pop\n        /* \"LmLSMR.sol\":9483:9663  function getTokenEth(... */\n    tag_160:\n      swap3\n      swap2\n      pop\n      pop\n      jump\t// out\n        /* \"LmLSMR.sol\":6798:7065  function cost() public view onlyAfterInit() returns (int128) {... */\n    tag_53:\n        /* \"LmLSMR.sol\":10349:10353  init */\n      sload(0x08)\n        /* \"LmLSMR.sol\":6851:6857  int128 */\n      0x00\n      swap1\n      shl(0xa0, 0x01)\n        /* \"LmLSMR.sol\":10349:10353  init */\n      swap1\n      div\n      0xff\n      and\n        /* \"LmLSMR.sol\":10349:10361  init == true */\n      iszero\n      iszero\n        /* \"LmLSMR.sol\":10357:10361  true */\n      0x01\n        /* \"LmLSMR.sol\":10349:10361  init == true */\n      eq\n        /* \"LmLSMR.sol\":10341:10362  require(init == true) */\n      tag_170\n      jumpi\n      0x00\n      dup1\n      revert\n    tag_170:\n        /* \"LmLSMR.sol\":6865:6881  int128 sum_total */\n      0x00\n      dup1\n        /* \"LmLSMR.sol\":6887:7009  for(uint i=0; i< numOutcomes; i++) {... */\n    tag_172:\n        /* \"LmLSMR.sol\":6904:6915  numOutcomes */\n      sload(0x01)\n        /* \"LmLSMR.sol\":6901:6902  i */\n      dup2\n        /* \"LmLSMR.sol\":6901:6915  i< numOutcomes */\n      lt\n        /* \"LmLSMR.sol\":6887:7009  for(uint i=0; i< numOutcomes; i++) {... */\n      iszero\n      tag_173\n      jumpi\n        /* \"LmLSMR.sol\":6942:7002  ABDKMath.add(sum_total, ABDKMath.exp(ABDKMath.div(q[i], b))) */\n      tag_175\n        /* \"LmLSMR.sol\":6955:6964  sum_total */\n      dup3\n        /* \"LmLSMR.sol\":6966:7001  ABDKMath.exp(ABDKMath.div(q[i], b)) */\n      tag_176\n        /* \"LmLSMR.sol\":6979:7000  ABDKMath.div(q[i], b) */\n      tag_177\n        /* \"LmLSMR.sol\":6992:6993  q */\n      0x02\n        /* \"LmLSMR.sol\":6994:6995  i */\n      dup6\n        /* \"LmLSMR.sol\":6992:6996  q[i] */\n      dup2\n      sload\n      dup2\n      lt\n      tag_179\n      jumpi\n      tag_179\n      tag_180\n      jump\t// in\n    tag_179:\n      0x00\n      swap2\n      dup3\n      mstore\n      0x20\n      swap1\n      swap2\n      keccak256\n      0x02\n      dup3\n      div\n      add\n      sload\n        /* \"LmLSMR.sol\":6998:6999  b */\n      sload(0x03)\n        /* \"LmLSMR.sol\":6992:6996  q[i] */\n      0x01\n      swap1\n      swap3\n      and\n      0x10\n      mul\n      0x0100\n      exp\n      swap1\n      div\n      0x0f\n      swap1\n      dup2\n      signextend\n      swap2\n        /* \"LmLSMR.sol\":6998:6999  b */\n      swap1\n      signextend\n        /* \"LmLSMR.sol\":6979:6991  ABDKMath.div */\n      tag_182\n        /* \"LmLSMR.sol\":6979:7000  ABDKMath.div(q[i], b) */\n      jump\t// in\n    tag_177:\n        /* \"LmLSMR.sol\":6966:6978  ABDKMath.exp */\n      tag_183\n        /* \"LmLSMR.sol\":6966:7001  ABDKMath.exp(ABDKMath.div(q[i], b)) */\n      jump\t// in\n    tag_176:\n        /* \"LmLSMR.sol\":6942:6954  ABDKMath.add */\n      tag_184\n        /* \"LmLSMR.sol\":6942:7002  ABDKMath.add(sum_total, ABDKMath.exp(ABDKMath.div(q[i], b))) */\n      jump\t// in\n    tag_175:\n        /* \"LmLSMR.sol\":6930:7002  sum_total = ABDKMath.add(sum_total, ABDKMath.exp(ABDKMath.div(q[i], b))) */\n      swap2\n      pop\n        /* \"LmLSMR.sol\":6917:6920  i++ */\n      0x01\n      add\n        /* \"LmLSMR.sol\":6887:7009  for(uint i=0; i< numOutcomes; i++) {... */\n      jump(tag_172)\n    tag_173:\n      pop\n        /* \"LmLSMR.sol\":7034:7035  b */\n      sload(0x03)\n        /* \"LmLSMR.sol\":7021:7060  ABDKMath.mul(b, ABDKMath.ln(sum_total)) */\n      tag_185\n      swap1\n        /* \"LmLSMR.sol\":7034:7035  b */\n      0x0f\n      signextend\n        /* \"LmLSMR.sol\":7037:7059  ABDKMath.ln(sum_total) */\n      tag_186\n        /* \"LmLSMR.sol\":7049:7058  sum_total */\n      dup4\n        /* \"LmLSMR.sol\":7037:7048  ABDKMath.ln */\n      tag_187\n        /* \"LmLSMR.sol\":7037:7059  ABDKMath.ln(sum_total) */\n      jump\t// in\n    tag_186:\n        /* \"LmLSMR.sol\":7021:7033  ABDKMath.mul */\n      tag_188\n        /* \"LmLSMR.sol\":7021:7060  ABDKMath.mul(b, ABDKMath.ln(sum_total)) */\n      jump\t// in\n    tag_185:\n        /* \"LmLSMR.sol\":7014:7060  return ABDKMath.mul(b, ABDKMath.ln(sum_total)) */\n      swap2\n      pop\n      pop\n        /* \"LmLSMR.sol\":6798:7065  function cost() public view onlyAfterInit() returns (int128) {... */\n      swap1\n      jump\t// out\n        /* \"LmLSMR.sol\":5567:6002  function withdraw() public onlyAfterInit() onlyOwner() {... */\n    tag_56:\n        /* \"LmLSMR.sol\":10349:10353  init */\n      sload(0x08)\n      shl(0xa0, 0x01)\n      swap1\n      div\n      0xff\n      and\n        /* \"LmLSMR.sol\":10349:10361  init == true */\n      iszero\n      iszero\n        /* \"LmLSMR.sol\":10357:10361  true */\n      0x01\n        /* \"LmLSMR.sol\":10349:10361  init == true */\n      eq\n        /* \"LmLSMR.sol\":10341:10362  require(init == true) */\n      tag_190\n      jumpi\n      0x00\n      dup1\n      revert\n    tag_190:\n        /* \"@openzeppelin/contracts/access/Ownable.sol\":1531:1544   */\n      tag_192\n        /* \"@openzeppelin/contracts/access/Ownable.sol\":1531:1542   */\n      tag_193\n        /* \"@openzeppelin/contracts/access/Ownable.sol\":1531:1544   */\n      jump\t// in\n    tag_192:\n        /* \"LmLSMR.sol\":5636:5638  CT */\n      sload(0x07)\n        /* \"LmLSMR.sol\":5657:5666  condition */\n      sload(0x06)\n        /* \"LmLSMR.sol\":5636:5667  CT.payoutDenominator(condition) */\n      mload(0x40)\n      shl(0xe0, 0xdd34de67)\n      dup2\n      mstore\n      sub(shl(0xa0, 0x01), 0x01)\n        /* \"LmLSMR.sol\":5636:5638  CT */\n      swap1\n      swap3\n      and\n      swap2\n        /* \"LmLSMR.sol\":5636:5656  CT.payoutDenominator */\n      0xdd34de67\n      swap2\n        /* \"LmLSMR.sol\":5636:5667  CT.payoutDenominator(condition) */\n      tag_195\n      swap2\n      0x04\n      add\n        /* \"#utility.yul\":1729:1754   */\n      swap1\n      dup2\n      mstore\n        /* \"#utility.yul\":1717:1719   */\n      0x20\n        /* \"#utility.yul\":1702:1720   */\n      add\n      swap1\n        /* \"#utility.yul\":1583:1760   */\n      jump\n        /* \"LmLSMR.sol\":5636:5667  CT.payoutDenominator(condition) */\n    tag_195:\n      0x20\n      mload(0x40)\n      dup1\n      dup4\n      sub\n      dup2\n      dup7\n      gas\n      staticcall\n      iszero\n      dup1\n      iszero\n      tag_197\n      jumpi\n      returndatasize\n      0x00\n      dup1\n      returndatacopy\n      revert(0x00, returndatasize)\n    tag_197:\n      pop\n      pop\n      pop\n      pop\n      mload(0x40)\n      returndatasize\n      not(0x1f)\n      0x1f\n      dup3\n      add\n      and\n      dup3\n      add\n      dup1\n      0x40\n      mstore\n      pop\n      dup2\n      add\n      swap1\n      tag_198\n      swap2\n      swap1\n      tag_199\n      jump\t// in\n    tag_198:\n        /* \"LmLSMR.sol\":5671:5672  0 */\n      0x00\n        /* \"LmLSMR.sol\":5636:5672  CT.payoutDenominator(condition) != 0 */\n      sub\n        /* \"LmLSMR.sol\":5628:5704  require(CT.payoutDenominator(condition) != 0, 'Market needs to be resolved') */\n      tag_200\n      jumpi\n      mload(0x40)\n      shl(0xe5, 0x461bcd)\n      dup2\n      mstore\n        /* \"#utility.yul\":10445:10447   */\n      0x20\n        /* \"LmLSMR.sol\":5628:5704  require(CT.payoutDenominator(condition) != 0, 'Market needs to be resolved') */\n      0x04\n      dup3\n      add\n        /* \"#utility.yul\":10427:10448   */\n      mstore\n        /* \"#utility.yul\":10484:10486   */\n      0x1b\n        /* \"#utility.yul\":10464:10482   */\n      0x24\n      dup3\n      add\n        /* \"#utility.yul\":10457:10487   */\n      mstore\n        /* \"#utility.yul\":10523:10552   */\n      0x4d61726b6574206e6565647320746f206265207265736f6c7665640000000000\n        /* \"#utility.yul\":10503:10521   */\n      0x44\n      dup3\n      add\n        /* \"#utility.yul\":10496:10553   */\n      mstore\n        /* \"#utility.yul\":10570:10588   */\n      0x64\n      add\n        /* \"LmLSMR.sol\":5628:5704  require(CT.payoutDenominator(condition) != 0, 'Market needs to be resolved') */\n    tag_201:\n      mload(0x40)\n      dup1\n      swap2\n      sub\n      swap1\n      revert\n    tag_200:\n        /* \"LmLSMR.sol\":5710:5728  uint[] memory dust */\n      0x00\n        /* \"LmLSMR.sol\":5745:5756  numOutcomes */\n      sload(0x01)\n        /* \"LmLSMR.sol\":5731:5757  new uint256[](numOutcomes) */\n      0xffffffffffffffff\n      dup2\n      gt\n      iszero\n      tag_204\n      jumpi\n      tag_204\n      tag_205\n      jump\t// in\n    tag_204:\n      mload(0x40)\n      swap1\n      dup1\n      dup3\n      mstore\n      dup1\n      0x20\n      mul\n      0x20\n      add\n      dup3\n      add\n      0x40\n      mstore\n      dup1\n      iszero\n      tag_206\n      jumpi\n      dup2\n      0x20\n      add\n      0x20\n      dup3\n      mul\n      dup1\n      calldatasize\n      dup4\n      calldatacopy\n      add\n      swap1\n      pop\n    tag_206:\n      pop\n        /* \"LmLSMR.sol\":5710:5757  uint[] memory dust = new uint256[](numOutcomes) */\n      swap1\n      pop\n        /* \"LmLSMR.sol\":5787:5793  uint i */\n      0x00\n        /* \"LmLSMR.sol\":5782:5846  for (uint i=0; i<numOutcomes; i++) {... */\n    tag_207:\n        /* \"LmLSMR.sol\":5799:5810  numOutcomes */\n      sload(0x01)\n        /* \"LmLSMR.sol\":5797:5798  i */\n      dup2\n        /* \"LmLSMR.sol\":5797:5810  i<numOutcomes */\n      lt\n        /* \"LmLSMR.sol\":5782:5846  for (uint i=0; i<numOutcomes; i++) {... */\n      iszero\n      tag_208\n      jumpi\n        /* \"LmLSMR.sol\":5838:5839  i */\n      dup1\n        /* \"LmLSMR.sol\":5835:5836  1 */\n      0x01\n        /* \"LmLSMR.sol\":5835:5839  1<<i */\n      swap1\n      shl\n        /* \"LmLSMR.sol\":5825:5829  dust */\n      dup3\n        /* \"LmLSMR.sol\":5830:5831  i */\n      dup3\n        /* \"LmLSMR.sol\":5825:5832  dust[i] */\n      dup2\n      mload\n      dup2\n      lt\n      tag_211\n      jumpi\n      tag_211\n      tag_180\n      jump\t// in\n    tag_211:\n      0x20\n      swap1\n      dup2\n      mul\n      swap2\n      swap1\n      swap2\n      add\n      add\n        /* \"LmLSMR.sol\":5825:5839  dust[i] = 1<<i */\n      mstore\n        /* \"LmLSMR.sol\":5812:5815  i++ */\n      0x01\n      add\n        /* \"LmLSMR.sol\":5782:5846  for (uint i=0; i<numOutcomes; i++) {... */\n      jump(tag_207)\n    tag_208:\n      pop\n        /* \"LmLSMR.sol\":5851:5853  CT */\n      sload(0x07)\n        /* \"LmLSMR.sol\":5877:5882  token */\n      sload(0x08)\n        /* \"LmLSMR.sol\":5897:5906  condition */\n      sload(0x06)\n        /* \"LmLSMR.sol\":5851:5913  CT.redeemPositions(IERC20(token), bytes32(0), condition, dust) */\n      mload(0x40)\n      shl(0xe2, 0x6dc0df)\n      dup2\n      mstore\n      sub(shl(0xa0, 0x01), 0x01)\n        /* \"LmLSMR.sol\":5851:5853  CT */\n      swap4\n      dup5\n      and\n      swap4\n        /* \"LmLSMR.sol\":5851:5869  CT.redeemPositions */\n      0x01b7037c\n      swap4\n        /* \"LmLSMR.sol\":5851:5913  CT.redeemPositions(IERC20(token), bytes32(0), condition, dust) */\n      tag_212\n      swap4\n        /* \"LmLSMR.sol\":5877:5882  token */\n      swap2\n      and\n      swap2\n        /* \"LmLSMR.sol\":5851:5853  CT */\n      0x00\n      swap2\n        /* \"LmLSMR.sol\":5897:5906  condition */\n      swap1\n        /* \"LmLSMR.sol\":5908:5912  dust */\n      dup8\n      swap1\n        /* \"LmLSMR.sol\":5851:5913  CT.redeemPositions(IERC20(token), bytes32(0), condition, dust) */\n      0x04\n      add\n      tag_213\n      jump\t// in\n    tag_212:\n      0x00\n      mload(0x40)\n      dup1\n      dup4\n      sub\n      dup2\n      0x00\n      dup8\n      dup1\n      extcodesize\n      iszero\n      dup1\n      iszero\n      tag_214\n      jumpi\n      0x00\n      dup1\n      revert\n    tag_214:\n      pop\n      gas\n      call\n      iszero\n      dup1\n      iszero\n      tag_216\n      jumpi\n      returndatasize\n      0x00\n      dup1\n      returndatacopy\n      revert(0x00, returndatasize)\n    tag_216:\n      pop\n      pop\n        /* \"LmLSMR.sol\":5965:5970  token */\n      sload(0x08)\n        /* \"LmLSMR.sol\":5958:5996  IERC20(token).balanceOf(address(this)) */\n      mload(0x40)\n      shl(0xe0, 0x70a08231)\n      dup2\n      mstore\n        /* \"LmLSMR.sol\":5990:5994  this */\n      address\n        /* \"LmLSMR.sol\":5958:5996  IERC20(token).balanceOf(address(this)) */\n      0x04\n      dup3\n      add\n        /* \"#utility.yul\":4304:4378   */\n      mstore\n        /* \"LmLSMR.sol\":5919:5997  IERC20(token).safeTransfer(msg.sender, IERC20(token).balanceOf(address(this))) */\n      tag_217\n      swap4\n      pop\n        /* \"LmLSMR.sol\":5946:5956  msg.sender */\n      caller\n      swap3\n      pop\n      sub(shl(0xa0, 0x01), 0x01)\n        /* \"LmLSMR.sol\":5965:5970  token */\n      swap1\n      swap2\n      and\n      swap1\n        /* \"LmLSMR.sol\":5958:5981  IERC20(token).balanceOf */\n      0x70a08231\n      swap1\n        /* \"#utility.yul\":4277:4295   */\n      0x24\n      add\n        /* \"LmLSMR.sol\":5958:5996  IERC20(token).balanceOf(address(this)) */\n      0x20\n      mload(0x40)\n      dup1\n      dup4\n      sub\n      dup2\n      dup7\n      gas\n      staticcall\n      iszero\n      dup1\n      iszero\n      tag_220\n      jumpi\n      returndatasize\n      0x00\n      dup1\n      returndatacopy\n      revert(0x00, returndatasize)\n    tag_220:\n      pop\n      pop\n      pop\n      pop\n      mload(0x40)\n      returndatasize\n      not(0x1f)\n      0x1f\n      dup3\n      add\n      and\n      dup3\n      add\n      dup1\n      0x40\n      mstore\n      pop\n      dup2\n      add\n      swap1\n      tag_221\n      swap2\n      swap1\n      tag_199\n      jump\t// in\n    tag_221:\n        /* \"LmLSMR.sol\":5926:5931  token */\n      and(sub(shl(0xa0, 0x01), 0x01), sload(0x08))\n      swap2\n        /* \"LmLSMR.sol\":5919:5997  IERC20(token).safeTransfer(msg.sender, IERC20(token).balanceOf(address(this))) */\n      swap1\n        /* \"LmLSMR.sol\":5919:5945  IERC20(token).safeTransfer */\n      tag_222\n        /* \"LmLSMR.sol\":5919:5997  IERC20(token).safeTransfer(msg.sender, IERC20(token).balanceOf(address(this))) */\n      jump\t// in\n    tag_217:\n        /* \"LmLSMR.sol\":5622:6002  {... */\n      pop\n        /* \"LmLSMR.sol\":5567:6002  function withdraw() public onlyAfterInit() onlyOwner() {... */\n      jump\t// out\n        /* \"LmLSMR.sol\":8959:9479  function getTokenWei(... */\n    tag_60:\n        /* \"LmLSMR.sol\":9045:9049  uint */\n      0x00\n        /* \"LmLSMR.sol\":9057:9063  uint d */\n      dup1\n        /* \"LmLSMR.sol\":9072:9078  _token */\n      dup4\n      sub(shl(0xa0, 0x01), 0x01)\n        /* \"LmLSMR.sol\":9066:9088  ERC20(_token).decimals */\n      and\n      0x313ce567\n        /* \"LmLSMR.sol\":9066:9090  ERC20(_token).decimals() */\n      mload(0x40)\n      dup2\n      0xffffffff\n      and\n      0xe0\n      shl\n      dup2\n      mstore\n      0x04\n      add\n      0x20\n      mload(0x40)\n      dup1\n      dup4\n      sub\n      dup2\n      dup7\n      gas\n      staticcall\n      iszero\n      dup1\n      iszero\n      tag_225\n      jumpi\n      returndatasize\n      0x00\n      dup1\n      returndatacopy\n      revert(0x00, returndatasize)\n    tag_225:\n      pop\n      pop\n      pop\n      pop\n      mload(0x40)\n      returndatasize\n      not(0x1f)\n      0x1f\n      dup3\n      add\n      and\n      dup3\n      add\n      dup1\n      0x40\n      mstore\n      pop\n      dup2\n      add\n      swap1\n      tag_226\n      swap2\n      swap1\n      tag_164\n      jump\t// in\n    tag_226:\n        /* \"LmLSMR.sol\":9057:9090  uint d = ERC20(_token).decimals() */\n      0xff\n      and\n      swap1\n      pop\n        /* \"LmLSMR.sol\":9096:9111  uint multiplier */\n      0x00\n        /* \"LmLSMR.sol\":9114:9121  10 ** d */\n      tag_227\n        /* \"LmLSMR.sol\":9057:9090  uint d = ERC20(_token).decimals() */\n      dup3\n        /* \"LmLSMR.sol\":9114:9116  10 */\n      0x0a\n        /* \"LmLSMR.sol\":9114:9121  10 ** d */\n      tag_167\n      jump\t// in\n    tag_227:\n        /* \"LmLSMR.sol\":9096:9121  uint multiplier = 10 ** d */\n      swap1\n      pop\n        /* \"LmLSMR.sol\":9194:9195  0 */\n      0x00\n        /* \"LmLSMR.sol\":9183:9190  _amount */\n      dup5\n        /* \"LmLSMR.sol\":9183:9195  _amount >= 0 */\n      0x0f\n      signextend\n      slt\n      iszero\n        /* \"LmLSMR.sol\":9175:9227  require(_amount >= 0, \"Amount must be non-negative\") */\n      tag_228\n      jumpi\n      mload(0x40)\n      shl(0xe5, 0x461bcd)\n      dup2\n      mstore\n        /* \"#utility.yul\":11346:11348   */\n      0x20\n        /* \"LmLSMR.sol\":9175:9227  require(_amount >= 0, \"Amount must be non-negative\") */\n      0x04\n      dup3\n      add\n        /* \"#utility.yul\":11328:11349   */\n      mstore\n        /* \"#utility.yul\":11385:11387   */\n      0x1b\n        /* \"#utility.yul\":11365:11383   */\n      0x24\n      dup3\n      add\n        /* \"#utility.yul\":11358:11388   */\n      mstore\n        /* \"#utility.yul\":11424:11453   */\n      0x416d6f756e74206d757374206265206e6f6e2d6e656761746976650000000000\n        /* \"#utility.yul\":11404:11422   */\n      0x44\n      dup3\n      add\n        /* \"#utility.yul\":11397:11454   */\n      mstore\n        /* \"#utility.yul\":11471:11489   */\n      0x64\n      add\n        /* \"LmLSMR.sol\":9175:9227  require(_amount >= 0, \"Amount must be non-negative\") */\n      tag_201\n        /* \"#utility.yul\":11144:11495   */\n      jump\n        /* \"LmLSMR.sol\":9175:9227  require(_amount >= 0, \"Amount must be non-negative\") */\n    tag_228:\n        /* \"LmLSMR.sol\":9402:9413  uint result */\n      0x00\n        /* \"LmLSMR.sol\":9416:9450  ABDKMath.mulu(_amount, multiplier) */\n      tag_231\n        /* \"LmLSMR.sol\":9430:9437  _amount */\n      dup6\n        /* \"LmLSMR.sol\":9439:9449  multiplier */\n      dup4\n        /* \"LmLSMR.sol\":9416:9429  ABDKMath.mulu */\n      tag_232\n        /* \"LmLSMR.sol\":9416:9450  ABDKMath.mulu(_amount, multiplier) */\n      jump\t// in\n    tag_231:\n        /* \"LmLSMR.sol\":9402:9450  uint result = ABDKMath.mulu(_amount, multiplier) */\n      swap7\n        /* \"LmLSMR.sol\":8959:9479  function getTokenWei(... */\n      swap6\n      pop\n      pop\n      pop\n      pop\n      pop\n      pop\n      jump\t// out\n        /* \"LmLSMR.sol\":8076:8627  function odds(... */\n    tag_66:\n        /* \"LmLSMR.sol\":8137:8143  int128 */\n      0x00\n        /* \"LmLSMR.sol\":8170:8181  numOutcomes */\n      sload(0x01)\n        /* \"LmLSMR.sol\":8159:8167  _outcome */\n      dup3\n        /* \"LmLSMR.sol\":8159:8181  _outcome < numOutcomes */\n      lt\n        /* \"LmLSMR.sol\":8151:8207  require(_outcome < numOutcomes, \"Invalid outcome index\") */\n      tag_234\n      jumpi\n      mload(0x40)\n      shl(0xe5, 0x461bcd)\n      dup2\n      mstore\n        /* \"#utility.yul\":11702:11704   */\n      0x20\n        /* \"LmLSMR.sol\":8151:8207  require(_outcome < numOutcomes, \"Invalid outcome index\") */\n      0x04\n      dup3\n      add\n        /* \"#utility.yul\":11684:11705   */\n      mstore\n        /* \"#utility.yul\":11741:11743   */\n      0x15\n        /* \"#utility.yul\":11721:11739   */\n      0x24\n      dup3\n      add\n        /* \"#utility.yul\":11714:11744   */\n      mstore\n      shl(0x5b, 0x092dcecc2d8d2c840deeae8c6dedaca40d2dcc8caf)\n        /* \"#utility.yul\":11760:11778   */\n      0x44\n      dup3\n      add\n        /* \"#utility.yul\":11753:11804   */\n      mstore\n        /* \"#utility.yul\":11821:11839   */\n      0x64\n      add\n        /* \"LmLSMR.sol\":8151:8207  require(_outcome < numOutcomes, \"Invalid outcome index\") */\n      tag_201\n        /* \"#utility.yul\":11500:11845   */\n      jump\n        /* \"LmLSMR.sol\":8151:8207  require(_outcome < numOutcomes, \"Invalid outcome index\") */\n    tag_234:\n        /* \"LmLSMR.sol\":8259:8275  int128 numerator */\n      0x00\n        /* \"LmLSMR.sol\":8278:8320  ABDKMath.exp(ABDKMath.div(q[_outcome], b)) */\n      tag_237\n        /* \"LmLSMR.sol\":8291:8319  ABDKMath.div(q[_outcome], b) */\n      tag_177\n        /* \"LmLSMR.sol\":8304:8305  q */\n      0x02\n        /* \"LmLSMR.sol\":8306:8314  _outcome */\n      dup6\n        /* \"LmLSMR.sol\":8304:8315  q[_outcome] */\n      dup2\n      sload\n      dup2\n      lt\n      tag_179\n      jumpi\n      tag_179\n      tag_180\n      jump\t// in\n        /* \"LmLSMR.sol\":8278:8320  ABDKMath.exp(ABDKMath.div(q[_outcome], b)) */\n    tag_237:\n        /* \"LmLSMR.sol\":8259:8320  int128 numerator = ABDKMath.exp(ABDKMath.div(q[_outcome], b)) */\n      swap1\n      pop\n        /* \"LmLSMR.sol\":8373:8391  int128 denominator */\n      0x00\n      dup1\n        /* \"LmLSMR.sol\":8397:8527  for (uint i = 0; i < numOutcomes; i++) {... */\n    tag_242:\n        /* \"LmLSMR.sol\":8418:8429  numOutcomes */\n      sload(0x01)\n        /* \"LmLSMR.sol\":8414:8415  i */\n      dup2\n        /* \"LmLSMR.sol\":8414:8429  i < numOutcomes */\n      lt\n        /* \"LmLSMR.sol\":8397:8527  for (uint i = 0; i < numOutcomes; i++) {... */\n      iszero\n      tag_243\n      jumpi\n        /* \"LmLSMR.sol\":8458:8520  ABDKMath.add(denominator, ABDKMath.exp(ABDKMath.div(q[i], b))) */\n      tag_245\n        /* \"LmLSMR.sol\":8471:8482  denominator */\n      dup3\n        /* \"LmLSMR.sol\":8484:8519  ABDKMath.exp(ABDKMath.div(q[i], b)) */\n      tag_176\n        /* \"LmLSMR.sol\":8497:8518  ABDKMath.div(q[i], b) */\n      tag_177\n        /* \"LmLSMR.sol\":8510:8511  q */\n      0x02\n        /* \"LmLSMR.sol\":8512:8513  i */\n      dup6\n        /* \"LmLSMR.sol\":8510:8514  q[i] */\n      dup2\n      sload\n      dup2\n      lt\n      tag_179\n      jumpi\n      tag_179\n      tag_180\n      jump\t// in\n        /* \"LmLSMR.sol\":8458:8520  ABDKMath.add(denominator, ABDKMath.exp(ABDKMath.div(q[i], b))) */\n    tag_245:\n        /* \"LmLSMR.sol\":8444:8520  denominator = ABDKMath.add(denominator, ABDKMath.exp(ABDKMath.div(q[i], b))) */\n      swap2\n      pop\n        /* \"LmLSMR.sol\":8431:8434  i++ */\n      0x01\n      add\n        /* \"LmLSMR.sol\":8397:8527  for (uint i = 0; i < numOutcomes; i++) {... */\n      jump(tag_242)\n    tag_243:\n      pop\n        /* \"LmLSMR.sol\":8586:8622  ABDKMath.div(numerator, denominator) */\n      tag_251\n        /* \"LmLSMR.sol\":8599:8608  numerator */\n      dup3\n        /* \"LmLSMR.sol\":8610:8621  denominator */\n      dup3\n        /* \"LmLSMR.sol\":8586:8598  ABDKMath.div */\n      tag_182\n        /* \"LmLSMR.sol\":8586:8622  ABDKMath.div(numerator, denominator) */\n      jump\t// in\n    tag_251:\n        /* \"LmLSMR.sol\":8579:8622  return ABDKMath.div(numerator, denominator) */\n      swap5\n        /* \"LmLSMR.sol\":8076:8627  function odds(... */\n      swap4\n      pop\n      pop\n      pop\n      pop\n      jump\t// out\n        /* \"LmLSMR.sol\":13728:14102  function withdrawFees() public onlyOwner {... */\n    tag_69:\n        /* \"@openzeppelin/contracts/access/Ownable.sol\":1531:1544   */\n      tag_253\n        /* \"@openzeppelin/contracts/access/Ownable.sol\":1531:1542   */\n      tag_193\n        /* \"@openzeppelin/contracts/access/Ownable.sol\":1531:1544   */\n      jump\t// in\n    tag_253:\n        /* \"LmLSMR.sol\":13803:13808  token */\n      sload(0x08)\n        /* \"LmLSMR.sol\":13796:13834  IERC20(token).balanceOf(address(this)) */\n      mload(0x40)\n      shl(0xe0, 0x70a08231)\n      dup2\n      mstore\n        /* \"LmLSMR.sol\":13828:13832  this */\n      address\n        /* \"LmLSMR.sol\":13796:13834  IERC20(token).balanceOf(address(this)) */\n      0x04\n      dup3\n      add\n        /* \"#utility.yul\":4304:4378   */\n      mstore\n        /* \"LmLSMR.sol\":13775:13793  uint actualBalance */\n      0x00\n      swap2\n      sub(shl(0xa0, 0x01), 0x01)\n        /* \"LmLSMR.sol\":13803:13808  token */\n      and\n      swap1\n        /* \"LmLSMR.sol\":13796:13819  IERC20(token).balanceOf */\n      0x70a08231\n      swap1\n        /* \"#utility.yul\":4277:4295   */\n      0x24\n      add\n        /* \"LmLSMR.sol\":13796:13834  IERC20(token).balanceOf(address(this)) */\n      0x20\n      mload(0x40)\n      dup1\n      dup4\n      sub\n      dup2\n      dup7\n      gas\n      staticcall\n      iszero\n      dup1\n      iszero\n      tag_257\n      jumpi\n      returndatasize\n      0x00\n      dup1\n      returndatacopy\n      revert(0x00, returndatasize)\n    tag_257:\n      pop\n      pop\n      pop\n      pop\n      mload(0x40)\n      returndatasize\n      not(0x1f)\n      0x1f\n      dup3\n      add\n      and\n      dup3\n      add\n      dup1\n      0x40\n      mstore\n      pop\n      dup2\n      add\n      swap1\n      tag_258\n      swap2\n      swap1\n      tag_199\n      jump\t// in\n    tag_258:\n        /* \"LmLSMR.sol\":13875:13880  token */\n      sload(0x08)\n        /* \"LmLSMR.sol\":13882:13894  current_cost */\n      sload(0x04)\n        /* \"LmLSMR.sol\":13775:13834  uint actualBalance = IERC20(token).balanceOf(address(this)) */\n      swap2\n      swap3\n      pop\n        /* \"LmLSMR.sol\":13840:13860  uint theoreticalCost */\n      0x00\n      swap2\n        /* \"LmLSMR.sol\":13863:13895  getTokenWei(token, current_cost) */\n      tag_259\n      swap2\n      sub(shl(0xa0, 0x01), 0x01)\n        /* \"LmLSMR.sol\":13875:13880  token */\n      and\n      swap1\n        /* \"LmLSMR.sol\":13882:13894  current_cost */\n      0x0f\n      signextend\n        /* \"LmLSMR.sol\":13863:13874  getTokenWei */\n      tag_60\n        /* \"LmLSMR.sol\":13863:13895  getTokenWei(token, current_cost) */\n      jump\t// in\n    tag_259:\n        /* \"LmLSMR.sol\":13840:13895  uint theoreticalCost = getTokenWei(token, current_cost) */\n      swap1\n      pop\n        /* \"LmLSMR.sol\":13925:13940  theoreticalCost */\n      dup1\n        /* \"LmLSMR.sol\":13909:13922  actualBalance */\n      dup3\n        /* \"LmLSMR.sol\":13909:13940  actualBalance > theoreticalCost */\n      gt\n        /* \"LmLSMR.sol\":13901:13964  require(actualBalance > theoreticalCost, \"No fees to withdraw\") */\n      tag_260\n      jumpi\n      mload(0x40)\n      shl(0xe5, 0x461bcd)\n      dup2\n      mstore\n        /* \"#utility.yul\":12052:12054   */\n      0x20\n        /* \"LmLSMR.sol\":13901:13964  require(actualBalance > theoreticalCost, \"No fees to withdraw\") */\n      0x04\n      dup3\n      add\n        /* \"#utility.yul\":12034:12055   */\n      mstore\n        /* \"#utility.yul\":12091:12093   */\n      0x13\n        /* \"#utility.yul\":12071:12089   */\n      0x24\n      dup3\n      add\n        /* \"#utility.yul\":12064:12094   */\n      mstore\n        /* \"#utility.yul\":12130:12151   */\n      0x4e6f206665657320746f20776974686472617700000000000000000000000000\n        /* \"#utility.yul\":12110:12128   */\n      0x44\n      dup3\n      add\n        /* \"#utility.yul\":12103:12152   */\n      mstore\n        /* \"#utility.yul\":12169:12187   */\n      0x64\n      add\n        /* \"LmLSMR.sol\":13901:13964  require(actualBalance > theoreticalCost, \"No fees to withdraw\") */\n      tag_201\n        /* \"#utility.yul\":11850:12193   */\n      jump\n        /* \"LmLSMR.sol\":13901:13964  require(actualBalance > theoreticalCost, \"No fees to withdraw\") */\n    tag_260:\n        /* \"LmLSMR.sol\":13970:13979  uint fees */\n      0x00\n        /* \"LmLSMR.sol\":13982:14013  actualBalance - theoreticalCost */\n      tag_263\n        /* \"LmLSMR.sol\":13998:14013  theoreticalCost */\n      dup3\n        /* \"LmLSMR.sol\":13982:13995  actualBalance */\n      dup5\n        /* \"LmLSMR.sol\":13982:14013  actualBalance - theoreticalCost */\n      tag_264\n      jump\t// in\n    tag_263:\n        /* \"LmLSMR.sol\":13970:14013  uint fees = actualBalance - theoreticalCost */\n      swap1\n      pop\n        /* \"LmLSMR.sol\":14019:14060  IERC20(token).safeTransfer(owner(), fees) */\n      tag_265\n        /* \"LmLSMR.sol\":14046:14053  owner() */\n      tag_266\n        /* \"@openzeppelin/contracts/access/Ownable.sol\":1684:1691   */\n      0x00\n        /* \"@openzeppelin/contracts/access/Ownable.sol\":1710:1716   */\n      sload\n      sub(shl(0xa0, 0x01), 0x01)\n      and\n      swap1\n        /* \"@openzeppelin/contracts/access/Ownable.sol\":1638:1723   */\n      jump\n        /* \"LmLSMR.sol\":14046:14053  owner() */\n    tag_266:\n        /* \"LmLSMR.sol\":14026:14031  token */\n      and(sub(shl(0xa0, 0x01), 0x01), sload(0x08))\n      swap1\n        /* \"LmLSMR.sol\":14055:14059  fees */\n      dup4\n        /* \"LmLSMR.sol\":14019:14045  IERC20(token).safeTransfer */\n      tag_222\n        /* \"LmLSMR.sol\":14019:14060  IERC20(token).safeTransfer(owner(), fees) */\n      jump\t// in\n    tag_265:\n        /* \"@openzeppelin/contracts/access/Ownable.sol\":1684:1691   */\n      0x00\n        /* \"@openzeppelin/contracts/access/Ownable.sol\":1710:1716   */\n      sload\n      sub(shl(0xa0, 0x01), 0x01)\n      and\n      sub(shl(0xa0, 0x01), 0x01)\n        /* \"LmLSMR.sol\":14071:14099  FeesWithdrawn(owner(), fees) */\n      and\n      0xc0819c13be868895eb93e40eaceb96de976442fa1d404e5c55f14bb65a8c489a\n        /* \"LmLSMR.sol\":14094:14098  fees */\n      dup3\n        /* \"LmLSMR.sol\":14071:14099  FeesWithdrawn(owner(), fees) */\n      mload(0x40)\n      tag_268\n      swap2\n        /* \"#utility.yul\":1729:1754   */\n      dup2\n      mstore\n        /* \"#utility.yul\":1717:1719   */\n      0x20\n        /* \"#utility.yul\":1702:1720   */\n      add\n      swap1\n        /* \"#utility.yul\":1583:1760   */\n      jump\n        /* \"LmLSMR.sol\":14071:14099  FeesWithdrawn(owner(), fees) */\n    tag_268:\n      mload(0x40)\n      dup1\n      swap2\n      sub\n      swap1\n      log2\n        /* \"LmLSMR.sol\":13769:14102  {... */\n      pop\n      pop\n      pop\n        /* \"LmLSMR.sol\":13728:14102  function withdrawFees() public onlyOwner {... */\n      jump\t// out\n        /* \"LmLSMR.sol\":10440:10591  function generateQuestionId(string memory uniqueString) public pure returns (bytes32) {... */\n    tag_73:\n        /* \"LmLSMR.sol\":10517:10524  bytes32 */\n      0x00\n        /* \"LmLSMR.sol\":10570:10582  uniqueString */\n      dup2\n        /* \"LmLSMR.sol\":10553:10583  abi.encodePacked(uniqueString) */\n      add(0x20, mload(0x40))\n      tag_270\n      swap2\n      swap1\n      tag_271\n      jump\t// in\n    tag_270:\n      mload(0x40)\n      0x20\n      dup2\n      dup4\n      sub\n      sub\n      dup2\n      mstore\n      swap1\n      0x40\n      mstore\n        /* \"LmLSMR.sol\":10543:10584  keccak256(abi.encodePacked(uniqueString)) */\n      dup1\n      mload\n      swap1\n      0x20\n      add\n      keccak256\n        /* \"LmLSMR.sol\":10536:10584  return keccak256(abi.encodePacked(uniqueString)) */\n      swap1\n      pop\n        /* \"LmLSMR.sol\":10440:10591  function generateQuestionId(string memory uniqueString) public pure returns (bytes32) {... */\n      swap2\n      swap1\n      pop\n      jump\t// out\n        /* \"LmLSMR.sol\":12617:13346  function addLiquidity(uint _amount) public onlyOwner {... */\n    tag_78:\n        /* \"@openzeppelin/contracts/access/Ownable.sol\":1531:1544   */\n      tag_273\n        /* \"@openzeppelin/contracts/access/Ownable.sol\":1531:1542   */\n      tag_193\n        /* \"@openzeppelin/contracts/access/Ownable.sol\":1531:1544   */\n      jump\t// in\n    tag_273:\n        /* \"LmLSMR.sol\":12733:12738  token */\n      sload(0x08)\n        /* \"LmLSMR.sol\":12726:12792  IERC20(token).safeTransferFrom(msg.sender, address(this), _amount) */\n      tag_275\n      swap1\n      sub(shl(0xa0, 0x01), 0x01)\n        /* \"LmLSMR.sol\":12733:12738  token */\n      and\n        /* \"LmLSMR.sol\":12757:12767  msg.sender */\n      caller\n        /* \"LmLSMR.sol\":12777:12781  this */\n      address\n        /* \"LmLSMR.sol\":12784:12791  _amount */\n      dup5\n        /* \"LmLSMR.sol\":12726:12756  IERC20(token).safeTransferFrom */\n      tag_276\n        /* \"LmLSMR.sol\":12726:12792  IERC20(token).safeTransferFrom(msg.sender, address(this), _amount) */\n      jump\t// in\n    tag_275:\n        /* \"LmLSMR.sol\":12867:12872  token */\n      sload(0x08)\n        /* \"LmLSMR.sol\":12838:12852  int128 subsidy */\n      0x00\n      swap1\n        /* \"LmLSMR.sol\":12855:12882  getTokenEth(token, _amount) */\n      tag_277\n      swap1\n      sub(shl(0xa0, 0x01), 0x01)\n        /* \"LmLSMR.sol\":12867:12872  token */\n      and\n        /* \"LmLSMR.sol\":12874:12881  _amount */\n      dup4\n        /* \"LmLSMR.sol\":12855:12866  getTokenEth */\n      tag_49\n        /* \"LmLSMR.sol\":12855:12882  getTokenEth(token, _amount) */\n      jump\t// in\n    tag_277:\n        /* \"LmLSMR.sol\":12838:12882  int128 subsidy = getTokenEth(token, _amount) */\n      swap1\n      pop\n        /* \"LmLSMR.sol\":12932:12938  uint i */\n      0x00\n        /* \"LmLSMR.sol\":12927:13017  for (uint i = 0; i < numOutcomes; i++) {... */\n    tag_278:\n        /* \"LmLSMR.sol\":12948:12959  numOutcomes */\n      sload(0x01)\n        /* \"LmLSMR.sol\":12944:12945  i */\n      dup2\n        /* \"LmLSMR.sol\":12944:12959  i < numOutcomes */\n      lt\n        /* \"LmLSMR.sol\":12927:13017  for (uint i = 0; i < numOutcomes; i++) {... */\n      iszero\n      tag_279\n      jumpi\n        /* \"LmLSMR.sol\":12983:13010  ABDKMath.add(q[i], subsidy) */\n      tag_281\n        /* \"LmLSMR.sol\":12996:12997  q */\n      0x02\n        /* \"LmLSMR.sol\":12998:12999  i */\n      dup3\n        /* \"LmLSMR.sol\":12996:13000  q[i] */\n      dup2\n      sload\n      dup2\n      lt\n      tag_283\n      jumpi\n      tag_283\n      tag_180\n      jump\t// in\n    tag_283:\n      swap1\n      0x00\n      mstore\n      keccak256(0x00, 0x20)\n      swap1\n      0x02\n      swap2\n      dup3\n      dup3\n      div\n      add\n      swap2\n      swap1\n      mod\n      0x10\n      mul\n      swap1\n      sload\n      swap1\n      0x0100\n      exp\n      swap1\n      div\n      0x0f\n      signextend\n        /* \"LmLSMR.sol\":13002:13009  subsidy */\n      dup4\n        /* \"LmLSMR.sol\":12983:12995  ABDKMath.add */\n      tag_184\n        /* \"LmLSMR.sol\":12983:13010  ABDKMath.add(q[i], subsidy) */\n      jump\t// in\n    tag_281:\n        /* \"LmLSMR.sol\":12976:12977  q */\n      0x02\n        /* \"LmLSMR.sol\":12978:12979  i */\n      dup3\n        /* \"LmLSMR.sol\":12976:12980  q[i] */\n      dup2\n      sload\n      dup2\n      lt\n      tag_286\n      jumpi\n      tag_286\n      tag_180\n      jump\t// in\n    tag_286:\n      0x00\n      swap2\n      dup3\n      mstore\n      0x20\n      swap1\n      swap2\n      keccak256\n      0x02\n      dup3\n      div\n      add\n        /* \"LmLSMR.sol\":12976:13010  q[i] = ABDKMath.add(q[i], subsidy) */\n      dup1\n      sload\n      sub(shl(0x80, 0x01), 0x01)\n      swap4\n      dup5\n      and\n        /* \"LmLSMR.sol\":12976:12980  q[i] */\n      0x10\n      0x01\n      swap5\n      dup6\n      and\n      mul\n        /* \"LmLSMR.sol\":12976:13010  q[i] = ABDKMath.add(q[i], subsidy) */\n      0x0100\n      exp\n      swap1\n      dup2\n      mul\n      swap5\n      mul\n      not\n      and\n      swap3\n      swap1\n      swap3\n      or\n      swap1\n      swap2\n      sstore\n        /* \"LmLSMR.sol\":12961:12964  i++ */\n      add\n        /* \"LmLSMR.sol\":12927:13017  for (uint i = 0; i < numOutcomes; i++) {... */\n      jump(tag_278)\n    tag_279:\n      pop\n        /* \"LmLSMR.sol\":13068:13149  ABDKMath.add(total_shares, ABDKMath.mul(subsidy, ABDKMath.fromUInt(numOutcomes))) */\n      tag_288\n        /* \"LmLSMR.sol\":13081:13093  total_shares */\n      0x04\n      0x10\n      swap1\n      sload\n      swap1\n      0x0100\n      exp\n      swap1\n      div\n      0x0f\n      signextend\n        /* \"LmLSMR.sol\":13095:13148  ABDKMath.mul(subsidy, ABDKMath.fromUInt(numOutcomes)) */\n      tag_176\n        /* \"LmLSMR.sol\":13108:13115  subsidy */\n      dup4\n        /* \"LmLSMR.sol\":13117:13147  ABDKMath.fromUInt(numOutcomes) */\n      tag_186\n        /* \"LmLSMR.sol\":13135:13146  numOutcomes */\n      sload(0x01)\n        /* \"LmLSMR.sol\":13117:13134  ABDKMath.fromUInt */\n      tag_291\n        /* \"LmLSMR.sol\":13117:13147  ABDKMath.fromUInt(numOutcomes) */\n      jump\t// in\n        /* \"LmLSMR.sol\":13068:13149  ABDKMath.add(total_shares, ABDKMath.mul(subsidy, ABDKMath.fromUInt(numOutcomes))) */\n    tag_288:\n        /* \"LmLSMR.sol\":13053:13065  total_shares */\n      0x04\n        /* \"LmLSMR.sol\":13053:13149  total_shares = ABDKMath.add(total_shares, ABDKMath.mul(subsidy, ABDKMath.fromUInt(numOutcomes))) */\n      dup1\n      sload\n      sub(shl(0x80, 0x01), 0x01)\n      swap1\n      dup2\n      and\n      shl(0x80, 0x01)\n      swap4\n      swap1\n      swap2\n      and\n      dup4\n      mul\n      or\n      swap1\n      dup2\n      swap1\n      sstore\n        /* \"LmLSMR.sol\":13211:13216  alpha */\n      sload(0x03)\n        /* \"LmLSMR.sol\":13184:13217  ABDKMath.mul(total_shares, alpha) */\n      tag_292\n      swap3\n        /* \"LmLSMR.sol\":13197:13209  total_shares */\n      swap2\n      dup3\n      swap1\n      div\n        /* \"LmLSMR.sol\":13053:13149  total_shares = ABDKMath.add(total_shares, ABDKMath.mul(subsidy, ABDKMath.fromUInt(numOutcomes))) */\n      0x0f\n        /* \"LmLSMR.sol\":13197:13209  total_shares */\n      swap1\n      dup2\n      signextend\n      swap3\n        /* \"LmLSMR.sol\":13211:13216  alpha */\n      swap1\n      swap2\n      div\n      swap1\n      signextend\n        /* \"LmLSMR.sol\":13184:13196  ABDKMath.mul */\n      tag_188\n        /* \"LmLSMR.sol\":13184:13217  ABDKMath.mul(total_shares, alpha) */\n      jump\t// in\n    tag_292:\n        /* \"LmLSMR.sol\":13180:13181  b */\n      0x03\n        /* \"LmLSMR.sol\":13180:13217  b = ABDKMath.mul(total_shares, alpha) */\n      dup1\n      sload\n      not(sub(shl(0x80, 0x01), 0x01))\n      and\n      sub(shl(0x80, 0x01), 0x01)\n      swap3\n      swap1\n      swap3\n      and\n      swap2\n      swap1\n      swap2\n      or\n      swap1\n      sstore\n        /* \"LmLSMR.sol\":13269:13275  cost() */\n      tag_293\n        /* \"LmLSMR.sol\":13269:13273  cost */\n      tag_53\n        /* \"LmLSMR.sol\":13269:13275  cost() */\n      jump\t// in\n    tag_293:\n        /* \"LmLSMR.sol\":13254:13266  current_cost */\n      0x04\n        /* \"LmLSMR.sol\":13254:13275  current_cost = cost() */\n      dup1\n      sload\n      not(sub(shl(0x80, 0x01), 0x01))\n      and\n      sub(shl(0x80, 0x01), 0x01)\n      swap3\n      swap1\n      swap3\n      and\n      swap2\n      swap1\n      swap2\n      or\n      swap1\n      sstore\n        /* \"LmLSMR.sol\":13308:13343  LiquidityAdded(msg.sender, _amount) */\n      mload(0x40)\n        /* \"#utility.yul\":1729:1754   */\n      dup3\n      dup2\n      mstore\n        /* \"LmLSMR.sol\":13323:13333  msg.sender */\n      caller\n      swap1\n        /* \"LmLSMR.sol\":13308:13343  LiquidityAdded(msg.sender, _amount) */\n      0xc17cea59c2955cb181b03393209566960365771dbba9dc3d510180e7cb312088\n      swap1\n        /* \"#utility.yul\":1717:1719   */\n      0x20\n        /* \"#utility.yul\":1702:1720   */\n      add\n        /* \"LmLSMR.sol\":13308:13343  LiquidityAdded(msg.sender, _amount) */\n      mload(0x40)\n      dup1\n      swap2\n      sub\n      swap1\n      log2\n        /* \"LmLSMR.sol\":12670:13346  {... */\n      pop\n        /* \"LmLSMR.sol\":12617:13346  function addLiquidity(uint _amount) public onlyOwner {... */\n      pop\n      jump\t// out\n        /* \"LmLSMR.sol\":8793:8955  function sellingPrice(... */\n    tag_82:\n        /* \"LmLSMR.sol\":8882:8888  int128 */\n      0x00\n        /* \"LmLSMR.sol\":8918:8952  cost_after_buy(_outcome, -_amount) */\n      tag_296\n        /* \"LmLSMR.sol\":8933:8941  _outcome */\n      dup4\n        /* \"LmLSMR.sol\":8943:8951  -_amount */\n      tag_90\n        /* \"LmLSMR.sol\":8944:8951  _amount */\n      dup5\n        /* \"LmLSMR.sol\":8943:8951  -_amount */\n      tag_298\n      jump\t// in\n        /* \"LmLSMR.sol\":8918:8952  cost_after_buy(_outcome, -_amount) */\n    tag_296:\n        /* \"LmLSMR.sol\":8903:8915  current_cost */\n      sload(0x04)\n        /* \"LmLSMR.sol\":8903:8952  current_cost - cost_after_buy(_outcome, -_amount) */\n      tag_299\n      swap2\n      swap1\n        /* \"LmLSMR.sol\":8903:8915  current_cost */\n      0x0f\n      signextend\n        /* \"LmLSMR.sol\":8903:8952  current_cost - cost_after_buy(_outcome, -_amount) */\n      tag_300\n      jump\t// in\n    tag_299:\n        /* \"LmLSMR.sol\":8896:8952  return current_cost - cost_after_buy(_outcome, -_amount) */\n      swap4\n        /* \"LmLSMR.sol\":8793:8955  function sellingPrice(... */\n      swap3\n      pop\n      pop\n      pop\n      jump\t// out\n        /* \"LmLSMR.sol\":13348:13668  function getAccumulatedFees() public view returns (uint) {... */\n    tag_85:\n        /* \"LmLSMR.sol\":13441:13446  token */\n      sload(0x08)\n        /* \"LmLSMR.sol\":13434:13472  IERC20(token).balanceOf(address(this)) */\n      mload(0x40)\n      shl(0xe0, 0x70a08231)\n      dup2\n      mstore\n        /* \"LmLSMR.sol\":13466:13470  this */\n      address\n        /* \"LmLSMR.sol\":13434:13472  IERC20(token).balanceOf(address(this)) */\n      0x04\n      dup3\n      add\n        /* \"#utility.yul\":4304:4378   */\n      mstore\n        /* \"LmLSMR.sol\":13399:13403  uint */\n      0x00\n      swap2\n      dup3\n      swap2\n      sub(shl(0xa0, 0x01), 0x01)\n        /* \"LmLSMR.sol\":13441:13446  token */\n      swap1\n      swap2\n      and\n      swap1\n        /* \"LmLSMR.sol\":13434:13457  IERC20(token).balanceOf */\n      0x70a08231\n      swap1\n        /* \"#utility.yul\":4277:4295   */\n      0x24\n      add\n        /* \"LmLSMR.sol\":13434:13472  IERC20(token).balanceOf(address(this)) */\n      0x20\n      mload(0x40)\n      dup1\n      dup4\n      sub\n      dup2\n      dup7\n      gas\n      staticcall\n      iszero\n      dup1\n      iszero\n      tag_304\n      jumpi\n      returndatasize\n      0x00\n      dup1\n      returndatacopy\n      revert(0x00, returndatasize)\n    tag_304:\n      pop\n      pop\n      pop\n      pop\n      mload(0x40)\n      returndatasize\n      not(0x1f)\n      0x1f\n      dup3\n      add\n      and\n      dup3\n      add\n      dup1\n      0x40\n      mstore\n      pop\n      dup2\n      add\n      swap1\n      tag_305\n      swap2\n      swap1\n      tag_199\n      jump\t// in\n    tag_305:\n        /* \"LmLSMR.sol\":13513:13518  token */\n      sload(0x08)\n        /* \"LmLSMR.sol\":13520:13532  current_cost */\n      sload(0x04)\n        /* \"LmLSMR.sol\":13411:13472  uint contractBalance = IERC20(token).balanceOf(address(this)) */\n      swap2\n      swap3\n      pop\n        /* \"LmLSMR.sol\":13478:13498  uint theoreticalCost */\n      0x00\n      swap2\n        /* \"LmLSMR.sol\":13501:13533  getTokenWei(token, current_cost) */\n      tag_306\n      swap2\n      sub(shl(0xa0, 0x01), 0x01)\n        /* \"LmLSMR.sol\":13513:13518  token */\n      and\n      swap1\n        /* \"LmLSMR.sol\":13520:13532  current_cost */\n      0x0f\n      signextend\n        /* \"LmLSMR.sol\":13501:13512  getTokenWei */\n      tag_60\n        /* \"LmLSMR.sol\":13501:13533  getTokenWei(token, current_cost) */\n      jump\t// in\n    tag_306:\n        /* \"LmLSMR.sol\":13478:13533  uint theoreticalCost = getTokenWei(token, current_cost) */\n      swap1\n      pop\n        /* \"LmLSMR.sol\":13561:13576  theoreticalCost */\n      dup1\n        /* \"LmLSMR.sol\":13543:13558  contractBalance */\n      dup3\n        /* \"LmLSMR.sol\":13543:13576  contractBalance > theoreticalCost */\n      gt\n        /* \"LmLSMR.sol\":13539:13666  if (contractBalance > theoreticalCost) {... */\n      iszero\n      tag_307\n      jumpi\n        /* \"LmLSMR.sol\":13595:13628  contractBalance - theoreticalCost */\n      tag_308\n        /* \"LmLSMR.sol\":13613:13628  theoreticalCost */\n      dup2\n        /* \"LmLSMR.sol\":13595:13610  contractBalance */\n      dup4\n        /* \"LmLSMR.sol\":13595:13628  contractBalance - theoreticalCost */\n      tag_264\n      jump\t// in\n    tag_308:\n        /* \"LmLSMR.sol\":13588:13628  return contractBalance - theoreticalCost */\n      swap3\n      pop\n      pop\n      pop\n        /* \"LmLSMR.sol\":13348:13668  function getAccumulatedFees() public view returns (uint) {... */\n      swap1\n      jump\t// out\n        /* \"LmLSMR.sol\":13539:13666  if (contractBalance > theoreticalCost) {... */\n    tag_307:\n        /* \"LmLSMR.sol\":13658:13659  0 */\n      0x00\n        /* \"LmLSMR.sol\":13651:13659  return 0 */\n      swap3\n      pop\n      pop\n      pop\n        /* \"LmLSMR.sol\":13348:13668  function getAccumulatedFees() public view returns (uint) {... */\n      swap1\n      jump\t// out\n        /* \"@openzeppelin/contracts/access/Ownable.sol\":2293:2394   */\n    tag_88:\n        /* \"@openzeppelin/contracts/access/Ownable.sol\":1531:1544   */\n      tag_311\n        /* \"@openzeppelin/contracts/access/Ownable.sol\":1531:1542   */\n      tag_193\n        /* \"@openzeppelin/contracts/access/Ownable.sol\":1531:1544   */\n      jump\t// in\n    tag_311:\n        /* \"@openzeppelin/contracts/access/Ownable.sol\":2357:2387   */\n      tag_313\n        /* \"@openzeppelin/contracts/access/Ownable.sol\":2384:2385   */\n      0x00\n        /* \"@openzeppelin/contracts/access/Ownable.sol\":2357:2375   */\n      tag_314\n        /* \"@openzeppelin/contracts/access/Ownable.sol\":2357:2387   */\n      jump\t// in\n    tag_313:\n        /* \"@openzeppelin/contracts/access/Ownable.sol\":2293:2394   */\n      jump\t// out\n        /* \"LmLSMR.sol\":7179:7863  function cost_after_buy(... */\n    tag_91:\n        /* \"LmLSMR.sol\":7270:7276  int128 */\n      0x00\n        /* \"LmLSMR.sol\":7284:7300  int128 sum_total */\n      dup1\n        /* \"LmLSMR.sol\":7306:7326  int128[] memory newq */\n      0x00\n        /* \"LmLSMR.sol\":7342:7343  q */\n      0x02\n        /* \"LmLSMR.sol\":7342:7350  q.length */\n      dup1\n      sload\n      swap1\n      pop\n        /* \"LmLSMR.sol\":7329:7351  new int128[](q.length) */\n      0xffffffffffffffff\n      dup2\n      gt\n      iszero\n      tag_317\n      jumpi\n      tag_317\n      tag_205\n      jump\t// in\n    tag_317:\n      mload(0x40)\n      swap1\n      dup1\n      dup3\n      mstore\n      dup1\n      0x20\n      mul\n      0x20\n      add\n      dup3\n      add\n      0x40\n      mstore\n      dup1\n      iszero\n      tag_318\n      jumpi\n      dup2\n      0x20\n      add\n      0x20\n      dup3\n      mul\n      dup1\n      calldatasize\n      dup4\n      calldatacopy\n      add\n      swap1\n      pop\n    tag_318:\n      pop\n        /* \"LmLSMR.sol\":7369:7381  total_shares */\n      sload(0x04)\n        /* \"LmLSMR.sol\":7306:7351  int128[] memory newq = new int128[](q.length) */\n      swap1\n      swap2\n      pop\n      shl(0x80, 0x01)\n        /* \"LmLSMR.sol\":7369:7381  total_shares */\n      swap1\n      div\n      0x0f\n      signextend\n        /* \"LmLSMR.sol\":7357:7366  int128 TB */\n      0x00\n        /* \"LmLSMR.sol\":7388:7601  for(uint j=0; j< numOutcomes; j++) {... */\n    tag_319:\n        /* \"LmLSMR.sol\":7405:7416  numOutcomes */\n      sload(0x01)\n        /* \"LmLSMR.sol\":7402:7403  j */\n      dup2\n        /* \"LmLSMR.sol\":7402:7416  j< numOutcomes */\n      lt\n        /* \"LmLSMR.sol\":7388:7601  for(uint j=0; j< numOutcomes; j++) {... */\n      iszero\n      tag_320\n      jumpi\n        /* \"LmLSMR.sol\":7447:7448  1 */\n      0x01\n        /* \"LmLSMR.sol\":7447:7451  1<<j */\n      dup2\n      shl\n        /* \"LmLSMR.sol\":7435:7452  _outcome & (1<<j) */\n      dup8\n      and\n        /* \"LmLSMR.sol\":7434:7458  (_outcome & (1<<j)) != 0 */\n      iszero\n        /* \"LmLSMR.sol\":7431:7595  if((_outcome & (1<<j)) != 0) {... */\n      tag_322\n      jumpi\n        /* \"LmLSMR.sol\":7480:7507  ABDKMath.add(q[j], _amount) */\n      tag_323\n        /* \"LmLSMR.sol\":7493:7494  q */\n      0x02\n        /* \"LmLSMR.sol\":7495:7496  j */\n      dup3\n        /* \"LmLSMR.sol\":7493:7497  q[j] */\n      dup2\n      sload\n      dup2\n      lt\n      tag_325\n      jumpi\n      tag_325\n      tag_180\n      jump\t// in\n    tag_325:\n      swap1\n      0x00\n      mstore\n      keccak256(0x00, 0x20)\n      swap1\n      0x02\n      swap2\n      dup3\n      dup3\n      div\n      add\n      swap2\n      swap1\n      mod\n      0x10\n      mul\n      swap1\n      sload\n      swap1\n      0x0100\n      exp\n      swap1\n      div\n      0x0f\n      signextend\n        /* \"LmLSMR.sol\":7499:7506  _amount */\n      dup8\n        /* \"LmLSMR.sol\":7480:7492  ABDKMath.add */\n      tag_184\n        /* \"LmLSMR.sol\":7480:7507  ABDKMath.add(q[j], _amount) */\n      jump\t// in\n    tag_323:\n        /* \"LmLSMR.sol\":7470:7474  newq */\n      dup4\n        /* \"LmLSMR.sol\":7475:7476  j */\n      dup3\n        /* \"LmLSMR.sol\":7470:7477  newq[j] */\n      dup2\n      mload\n      dup2\n      lt\n      tag_328\n      jumpi\n      tag_328\n      tag_180\n      jump\t// in\n    tag_328:\n      0x20\n      mul\n      0x20\n      add\n      add\n        /* \"LmLSMR.sol\":7470:7507  newq[j] = ABDKMath.add(q[j], _amount) */\n      swap1\n      0x0f\n      signextend\n      swap1\n      dup2\n      0x0f\n      signextend\n      dup2\n      mstore\n      pop\n      pop\n        /* \"LmLSMR.sol\":7522:7547  ABDKMath.add(TB, _amount) */\n      tag_329\n        /* \"LmLSMR.sol\":7535:7537  TB */\n      dup3\n        /* \"LmLSMR.sol\":7539:7546  _amount */\n      dup8\n        /* \"LmLSMR.sol\":7522:7534  ABDKMath.add */\n      tag_184\n        /* \"LmLSMR.sol\":7522:7547  ABDKMath.add(TB, _amount) */\n      jump\t// in\n    tag_329:\n        /* \"LmLSMR.sol\":7517:7547  TB = ABDKMath.add(TB, _amount) */\n      swap2\n      pop\n        /* \"LmLSMR.sol\":7431:7595  if((_outcome & (1<<j)) != 0) {... */\n      jump(tag_330)\n    tag_322:\n        /* \"LmLSMR.sol\":7582:7583  q */\n      0x02\n        /* \"LmLSMR.sol\":7584:7585  j */\n      dup2\n        /* \"LmLSMR.sol\":7582:7586  q[j] */\n      dup2\n      sload\n      dup2\n      lt\n      tag_332\n      jumpi\n      tag_332\n      tag_180\n      jump\t// in\n    tag_332:\n      swap1\n      0x00\n      mstore\n      keccak256(0x00, 0x20)\n      swap1\n      0x02\n      swap2\n      dup3\n      dup3\n      div\n      add\n      swap2\n      swap1\n      mod\n      0x10\n      mul\n      swap1\n      sload\n      swap1\n      0x0100\n      exp\n      swap1\n      div\n      0x0f\n      signextend\n        /* \"LmLSMR.sol\":7572:7576  newq */\n      dup4\n        /* \"LmLSMR.sol\":7577:7578  j */\n      dup3\n        /* \"LmLSMR.sol\":7572:7579  newq[j] */\n      dup2\n      mload\n      dup2\n      lt\n      tag_335\n      jumpi\n      tag_335\n      tag_180\n      jump\t// in\n    tag_335:\n      0x20\n      mul\n      0x20\n      add\n      add\n        /* \"LmLSMR.sol\":7572:7586  newq[j] = q[j] */\n      swap1\n      0x0f\n      signextend\n      swap1\n      dup2\n      0x0f\n      signextend\n      dup2\n      mstore\n      pop\n      pop\n        /* \"LmLSMR.sol\":7431:7595  if((_outcome & (1<<j)) != 0) {... */\n    tag_330:\n        /* \"LmLSMR.sol\":7418:7421  j++ */\n      0x01\n      add\n        /* \"LmLSMR.sol\":7388:7601  for(uint j=0; j< numOutcomes; j++) {... */\n      jump(tag_319)\n    tag_320:\n      pop\n        /* \"LmLSMR.sol\":7636:7641  alpha */\n      sload(0x03)\n        /* \"LmLSMR.sol\":7607:7616  int128 _b */\n      0x00\n      swap1\n        /* \"LmLSMR.sol\":7619:7642  ABDKMath.mul(TB, alpha) */\n      tag_336\n      swap1\n        /* \"LmLSMR.sol\":7632:7634  TB */\n      dup4\n      swap1\n      shl(0x80, 0x01)\n        /* \"LmLSMR.sol\":7636:7641  alpha */\n      swap1\n      div\n      0x0f\n      signextend\n        /* \"LmLSMR.sol\":7619:7631  ABDKMath.mul */\n      tag_188\n        /* \"LmLSMR.sol\":7619:7642  ABDKMath.mul(TB, alpha) */\n      jump\t// in\n    tag_336:\n        /* \"LmLSMR.sol\":7607:7642  int128 _b = ABDKMath.mul(TB, alpha) */\n      swap1\n      pop\n        /* \"LmLSMR.sol\":7653:7659  uint i */\n      0x00\n        /* \"LmLSMR.sol\":7649:7805  for(uint i=0; i< numOutcomes; i++) {... */\n    tag_337:\n        /* \"LmLSMR.sol\":7666:7677  numOutcomes */\n      sload(0x01)\n        /* \"LmLSMR.sol\":7663:7664  i */\n      dup2\n        /* \"LmLSMR.sol\":7663:7677  i< numOutcomes */\n      lt\n        /* \"LmLSMR.sol\":7649:7805  for(uint i=0; i< numOutcomes; i++) {... */\n      iszero\n      tag_338\n      jumpi\n        /* \"LmLSMR.sol\":7704:7798  ABDKMath.add(sum_total,... */\n      tag_340\n        /* \"LmLSMR.sol\":7717:7726  sum_total */\n      dup6\n        /* \"LmLSMR.sol\":7736:7797  ABDKMath.exp(... */\n      tag_176\n        /* \"LmLSMR.sol\":7760:7785  ABDKMath.div(newq[i], _b) */\n      tag_177\n        /* \"LmLSMR.sol\":7773:7777  newq */\n      dup8\n        /* \"LmLSMR.sol\":7778:7779  i */\n      dup6\n        /* \"LmLSMR.sol\":7773:7780  newq[i] */\n      dup2\n      mload\n      dup2\n      lt\n      tag_344\n      jumpi\n      tag_344\n      tag_180\n      jump\t// in\n    tag_344:\n      0x20\n      mul\n      0x20\n      add\n      add\n      mload\n        /* \"LmLSMR.sol\":7782:7784  _b */\n      dup7\n        /* \"LmLSMR.sol\":7760:7772  ABDKMath.div */\n      tag_182\n        /* \"LmLSMR.sol\":7760:7785  ABDKMath.div(newq[i], _b) */\n      jump\t// in\n        /* \"LmLSMR.sol\":7704:7798  ABDKMath.add(sum_total,... */\n    tag_340:\n        /* \"LmLSMR.sol\":7692:7798  sum_total = ABDKMath.add(sum_total,... */\n      swap5\n      pop\n        /* \"LmLSMR.sol\":7679:7682  i++ */\n      0x01\n      add\n        /* \"LmLSMR.sol\":7649:7805  for(uint i=0; i< numOutcomes; i++) {... */\n      jump(tag_337)\n    tag_338:\n      pop\n        /* \"LmLSMR.sol\":7818:7858  ABDKMath.mul(_b, ABDKMath.ln(sum_total)) */\n      tag_345\n        /* \"LmLSMR.sol\":7831:7833  _b */\n      dup2\n        /* \"LmLSMR.sol\":7835:7857  ABDKMath.ln(sum_total) */\n      tag_186\n        /* \"LmLSMR.sol\":7847:7856  sum_total */\n      dup7\n        /* \"LmLSMR.sol\":7835:7846  ABDKMath.ln */\n      tag_187\n        /* \"LmLSMR.sol\":7835:7857  ABDKMath.ln(sum_total) */\n      jump\t// in\n        /* \"LmLSMR.sol\":7818:7858  ABDKMath.mul(_b, ABDKMath.ln(sum_total)) */\n    tag_345:\n        /* \"LmLSMR.sol\":7811:7858  return ABDKMath.mul(_b, ABDKMath.ln(sum_total)) */\n      swap8\n        /* \"LmLSMR.sol\":7179:7863  function cost_after_buy(... */\n      swap7\n      pop\n      pop\n      pop\n      pop\n      pop\n      pop\n      pop\n      jump\t// out\n        /* \"LmLSMR.sol\":6006:6431  function getPositionAndDustPositions(... */\n    tag_104:\n        /* \"LmLSMR.sol\":6087:6103  uint256[] memory */\n      0x60\n        /* \"LmLSMR.sol\":6110:6120  uint index */\n      0x00\n        /* \"LmLSMR.sol\":6140:6141  1 */\n      0x01\n        /* \"LmLSMR.sol\":6127:6138  numOutcomes */\n      dup1\n      sload\n        /* \"LmLSMR.sol\":6124:6125  1 */\n      0x01\n        /* \"LmLSMR.sol\":6124:6138  1<<numOutcomes */\n      swap1\n      shl\n        /* \"LmLSMR.sol\":6123:6141  (1<<numOutcomes)-1 */\n      tag_349\n      swap2\n      swap1\n      tag_264\n      jump\t// in\n    tag_349:\n        /* \"LmLSMR.sol\":6110:6141  uint index = (1<<numOutcomes)-1 */\n      swap1\n      pop\n        /* \"LmLSMR.sol\":6159:6160  1 */\n      0x01\n        /* \"LmLSMR.sol\":6159:6172  1 << _outcome */\n      dup4\n      shl\n        /* \"LmLSMR.sol\":6158:6181  (1 << _outcome) ^ index */\n      dup2\n      xor\n        /* \"LmLSMR.sol\":6147:6155  uint inv */\n      0x00\n        /* \"LmLSMR.sol\":6223:6235  getOnes(inv) */\n      tag_350\n        /* \"LmLSMR.sol\":6158:6181  (1 << _outcome) ^ index */\n      dup3\n        /* \"LmLSMR.sol\":6223:6230  getOnes */\n      tag_351\n        /* \"LmLSMR.sol\":6223:6235  getOnes(inv) */\n      jump\t// in\n    tag_350:\n        /* \"LmLSMR.sol\":6223:6237  getOnes(inv)+1 */\n      tag_352\n      swap1\n        /* \"LmLSMR.sol\":6236:6237  1 */\n      0x01\n        /* \"LmLSMR.sol\":6223:6237  getOnes(inv)+1 */\n      tag_353\n      jump\t// in\n    tag_352:\n        /* \"LmLSMR.sol\":6209:6238  new uint256[](getOnes(inv)+1) */\n      0xffffffffffffffff\n      dup2\n      gt\n      iszero\n      tag_355\n      jumpi\n      tag_355\n      tag_205\n      jump\t// in\n    tag_355:\n      mload(0x40)\n      swap1\n      dup1\n      dup3\n      mstore\n      dup1\n      0x20\n      mul\n      0x20\n      add\n      dup3\n      add\n      0x40\n      mstore\n      dup1\n      iszero\n      tag_356\n      jumpi\n      dup2\n      0x20\n      add\n      0x20\n      dup3\n      mul\n      dup1\n      calldatasize\n      dup4\n      calldatacopy\n      add\n      swap1\n      pop\n    tag_356:\n      pop\n        /* \"LmLSMR.sol\":6187:6238  uint[] memory partx = new uint256[](getOnes(inv)+1) */\n      swap1\n      pop\n        /* \"LmLSMR.sol\":6244:6250  uint n */\n      0x00\n        /* \"LmLSMR.sol\":6253:6254  1 */\n      0x01\n        /* \"LmLSMR.sol\":6244:6254  uint n = 1 */\n      swap1\n      pop\n        /* \"LmLSMR.sol\":6277:6285  _outcome */\n      dup6\n        /* \"LmLSMR.sol\":6272:6273  1 */\n      0x01\n        /* \"LmLSMR.sol\":6272:6285  1 << _outcome */\n      swap1\n      shl\n        /* \"LmLSMR.sol\":6260:6265  partx */\n      dup3\n        /* \"LmLSMR.sol\":6266:6267  0 */\n      0x00\n        /* \"LmLSMR.sol\":6260:6268  partx[0] */\n      dup2\n      mload\n      dup2\n      lt\n      tag_358\n      jumpi\n      tag_358\n      tag_180\n      jump\t// in\n    tag_358:\n      0x20\n      mul\n      0x20\n      add\n      add\n        /* \"LmLSMR.sol\":6260:6286  partx[0] = (1 << _outcome) */\n      dup2\n      dup2\n      mstore\n      pop\n      pop\n        /* \"LmLSMR.sol\":6296:6302  uint i */\n      0x00\n        /* \"LmLSMR.sol\":6292:6409  for(uint i=0; i<numOutcomes; i++) {... */\n    tag_359:\n        /* \"LmLSMR.sol\":6308:6319  numOutcomes */\n      sload(0x01)\n        /* \"LmLSMR.sol\":6306:6307  i */\n      dup2\n        /* \"LmLSMR.sol\":6306:6319  i<numOutcomes */\n      lt\n        /* \"LmLSMR.sol\":6292:6409  for(uint i=0; i<numOutcomes; i++) {... */\n      iszero\n      tag_360\n      jumpi\n        /* \"LmLSMR.sol\":6344:6345  1 */\n      0x01\n        /* \"LmLSMR.sol\":6344:6348  1<<i */\n      dup2\n      shl\n        /* \"LmLSMR.sol\":6338:6348  inv & 1<<i */\n      dup5\n      and\n        /* \"LmLSMR.sol\":6337:6354  (inv & 1<<i) != 0 */\n      iszero\n        /* \"LmLSMR.sol\":6334:6403  if((inv & 1<<i) != 0) {... */\n      tag_362\n      jumpi\n        /* \"LmLSMR.sol\":6380:6381  i */\n      dup1\n        /* \"LmLSMR.sol\":6377:6378  1 */\n      0x01\n        /* \"LmLSMR.sol\":6377:6381  1<<i */\n      swap1\n      shl\n        /* \"LmLSMR.sol\":6366:6371  partx */\n      dup4\n        /* \"LmLSMR.sol\":6372:6373  n */\n      dup4\n        /* \"LmLSMR.sol\":6366:6374  partx[n] */\n      dup2\n      mload\n      dup2\n      lt\n      tag_364\n      jumpi\n      tag_364\n      tag_180\n      jump\t// in\n    tag_364:\n      0x20\n      swap1\n      dup2\n      mul\n      swap2\n      swap1\n      swap2\n      add\n      add\n        /* \"LmLSMR.sol\":6366:6381  partx[n] = 1<<i */\n      mstore\n        /* \"LmLSMR.sol\":6391:6394  n++ */\n      dup2\n      tag_365\n      dup2\n      tag_366\n      jump\t// in\n    tag_365:\n      swap3\n      pop\n      pop\n        /* \"LmLSMR.sol\":6334:6403  if((inv & 1<<i) != 0) {... */\n    tag_362:\n        /* \"LmLSMR.sol\":6321:6324  i++ */\n      0x01\n      add\n        /* \"LmLSMR.sol\":6292:6409  for(uint i=0; i<numOutcomes; i++) {... */\n      jump(tag_359)\n    tag_360:\n      pop\n        /* \"LmLSMR.sol\":6421:6426  partx */\n      swap1\n      swap6\n        /* \"LmLSMR.sol\":6006:6431  function getPositionAndDustPositions(... */\n      swap5\n      pop\n      pop\n      pop\n      pop\n      pop\n      jump\t// out\n        /* \"LmLSMR.sol\":2522:3539  function setup(... */\n    tag_114:\n        /* \"@openzeppelin/contracts/access/Ownable.sol\":1531:1544   */\n      tag_369\n        /* \"@openzeppelin/contracts/access/Ownable.sol\":1531:1542   */\n      tag_193\n        /* \"@openzeppelin/contracts/access/Ownable.sol\":1531:1544   */\n      jump\t// in\n    tag_369:\n        /* \"LmLSMR.sol\":2683:2687  init */\n      sload(0x08)\n      shl(0xa0, 0x01)\n      swap1\n      div\n      0xff\n      and\n        /* \"LmLSMR.sol\":2683:2696  init == false */\n      iszero\n        /* \"LmLSMR.sol\":2675:2712  require(init == false,'Already init') */\n      tag_371\n      jumpi\n      mload(0x40)\n      shl(0xe5, 0x461bcd)\n      dup2\n      mstore\n        /* \"#utility.yul\":13583:13585   */\n      0x20\n        /* \"LmLSMR.sol\":2675:2712  require(init == false,'Already init') */\n      0x04\n      dup3\n      add\n        /* \"#utility.yul\":13565:13586   */\n      mstore\n        /* \"#utility.yul\":13622:13624   */\n      0x0c\n        /* \"#utility.yul\":13602:13620   */\n      0x24\n      dup3\n      add\n        /* \"#utility.yul\":13595:13625   */\n      mstore\n        /* \"#utility.yul\":13661:13675   */\n      0x416c726561647920696e69740000000000000000000000000000000000000000\n        /* \"#utility.yul\":13641:13659   */\n      0x44\n      dup3\n      add\n        /* \"#utility.yul\":13634:13676   */\n      mstore\n        /* \"#utility.yul\":13693:13711   */\n      0x64\n      add\n        /* \"LmLSMR.sol\":2675:2712  require(init == false,'Already init') */\n      tag_201\n        /* \"#utility.yul\":13381:13717   */\n      jump\n        /* \"LmLSMR.sol\":2675:2712  require(init == false,'Already init') */\n    tag_371:\n        /* \"LmLSMR.sol\":2739:2740  0 */\n      0x00\n        /* \"LmLSMR.sol\":2726:2736  _overround */\n      dup2\n        /* \"LmLSMR.sol\":2726:2740  _overround > 0 */\n      gt\n        /* \"LmLSMR.sol\":2718:2767  require(_overround > 0,'Cannot have 0 overround') */\n      tag_374\n      jumpi\n      mload(0x40)\n      shl(0xe5, 0x461bcd)\n      dup2\n      mstore\n        /* \"#utility.yul\":13924:13926   */\n      0x20\n        /* \"LmLSMR.sol\":2718:2767  require(_overround > 0,'Cannot have 0 overround') */\n      0x04\n      dup3\n      add\n        /* \"#utility.yul\":13906:13927   */\n      mstore\n        /* \"#utility.yul\":13963:13965   */\n      0x17\n        /* \"#utility.yul\":13943:13961   */\n      0x24\n      dup3\n      add\n        /* \"#utility.yul\":13936:13966   */\n      mstore\n        /* \"#utility.yul\":14002:14027   */\n      0x43616e6e6f7420686176652030206f766572726f756e64000000000000000000\n        /* \"#utility.yul\":13982:14000   */\n      0x44\n      dup3\n      add\n        /* \"#utility.yul\":13975:14028   */\n      mstore\n        /* \"#utility.yul\":14045:14063   */\n      0x64\n      add\n        /* \"LmLSMR.sol\":2718:2767  require(_overround > 0,'Cannot have 0 overround') */\n      tag_201\n        /* \"#utility.yul\":13722:14069   */\n      jump\n        /* \"LmLSMR.sol\":2718:2767  require(_overround > 0,'Cannot have 0 overround') */\n    tag_374:\n        /* \"LmLSMR.sol\":2773:2775  CT */\n      sload(0x07)\n        /* \"LmLSMR.sol\":2773:2828  CT.prepareCondition(_oracle, _questionId, _numOutcomes) */\n      mload(0x40)\n      shl(0xe2, 0x365bb9d5)\n      dup2\n      mstore\n      sub(shl(0xa0, 0x01), 0x01)\n        /* \"#utility.yul\":14294:14349   */\n      dup8\n      dup2\n      and\n        /* \"LmLSMR.sol\":2773:2828  CT.prepareCondition(_oracle, _questionId, _numOutcomes) */\n      0x04\n      dup4\n      add\n        /* \"#utility.yul\":14276:14350   */\n      mstore\n        /* \"#utility.yul\":14366:14384   */\n      0x24\n      dup3\n      add\n        /* \"#utility.yul\":14359:14393   */\n      dup8\n      swap1\n      mstore\n        /* \"#utility.yul\":14409:14427   */\n      0x44\n      dup3\n      add\n        /* \"#utility.yul\":14402:14436   */\n      dup7\n      swap1\n      mstore\n        /* \"LmLSMR.sol\":2773:2775  CT */\n      swap1\n      swap2\n      and\n      swap1\n        /* \"LmLSMR.sol\":2773:2792  CT.prepareCondition */\n      0xd96ee754\n      swap1\n        /* \"#utility.yul\":14249:14267   */\n      0x64\n      add\n        /* \"LmLSMR.sol\":2773:2828  CT.prepareCondition(_oracle, _questionId, _numOutcomes) */\n      0x00\n      mload(0x40)\n      dup1\n      dup4\n      sub\n      dup2\n      0x00\n      dup8\n      dup1\n      extcodesize\n      iszero\n      dup1\n      iszero\n      tag_379\n      jumpi\n      0x00\n      dup1\n      revert\n    tag_379:\n      pop\n      gas\n      call\n      iszero\n      dup1\n      iszero\n      tag_381\n      jumpi\n      returndatasize\n      0x00\n      dup1\n      returndatacopy\n      revert(0x00, returndatasize)\n    tag_381:\n      pop\n      pop\n        /* \"LmLSMR.sol\":2846:2848  CT */\n      sload(0x07)\n        /* \"LmLSMR.sol\":2846:2899  CT.getConditionId(_oracle, _questionId, _numOutcomes) */\n      mload(0x40)\n      shl(0xe1, 0x42963571)\n      dup2\n      mstore\n      sub(shl(0xa0, 0x01), 0x01)\n        /* \"#utility.yul\":14294:14349   */\n      dup10\n      dup2\n      and\n        /* \"LmLSMR.sol\":2846:2899  CT.getConditionId(_oracle, _questionId, _numOutcomes) */\n      0x04\n      dup4\n      add\n        /* \"#utility.yul\":14276:14350   */\n      mstore\n        /* \"#utility.yul\":14366:14384   */\n      0x24\n      dup3\n      add\n        /* \"#utility.yul\":14359:14393   */\n      dup10\n      swap1\n      mstore\n        /* \"#utility.yul\":14409:14427   */\n      0x44\n      dup3\n      add\n        /* \"#utility.yul\":14402:14436   */\n      dup9\n      swap1\n      mstore\n        /* \"LmLSMR.sol\":2846:2848  CT */\n      swap1\n      swap2\n      and\n      swap3\n      pop\n        /* \"LmLSMR.sol\":2846:2863  CT.getConditionId */\n      0x852c6ae2\n      swap2\n      pop\n        /* \"#utility.yul\":14249:14267   */\n      0x64\n      add\n        /* \"LmLSMR.sol\":2846:2899  CT.getConditionId(_oracle, _questionId, _numOutcomes) */\n      0x20\n      mload(0x40)\n      dup1\n      dup4\n      sub\n      dup2\n      dup7\n      gas\n      staticcall\n      iszero\n      dup1\n      iszero\n      tag_384\n      jumpi\n      returndatasize\n      0x00\n      dup1\n      returndatacopy\n      revert(0x00, returndatasize)\n    tag_384:\n      pop\n      pop\n      pop\n      pop\n      mload(0x40)\n      returndatasize\n      not(0x1f)\n      0x1f\n      dup3\n      add\n      and\n      dup3\n      add\n      dup1\n      0x40\n      mstore\n      pop\n      dup2\n      add\n      swap1\n      tag_385\n      swap2\n      swap1\n      tag_199\n      jump\t// in\n    tag_385:\n        /* \"LmLSMR.sol\":2834:2843  condition */\n      0x06\n        /* \"LmLSMR.sol\":2834:2899  condition = CT.getConditionId(_oracle, _questionId, _numOutcomes) */\n      sstore\n        /* \"LmLSMR.sol\":2913:2918  token */\n      sload(0x08)\n        /* \"LmLSMR.sol\":2906:2973  IERC20(token).safeTransferFrom(msg.sender, address(this), _subsidy) */\n      tag_387\n      swap1\n      sub(shl(0xa0, 0x01), 0x01)\n        /* \"LmLSMR.sol\":2913:2918  token */\n      and\n        /* \"LmLSMR.sol\":2937:2947  msg.sender */\n      caller\n        /* \"LmLSMR.sol\":2957:2961  this */\n      address\n        /* \"LmLSMR.sol\":2964:2972  _subsidy */\n      dup6\n        /* \"LmLSMR.sol\":2906:2936  IERC20(token).safeTransferFrom */\n      tag_276\n        /* \"LmLSMR.sol\":2906:2973  IERC20(token).safeTransferFrom(msg.sender, address(this), _subsidy) */\n      jump\t// in\n    tag_387:\n        /* \"LmLSMR.sol\":2980:2991  numOutcomes */\n      0x01\n        /* \"LmLSMR.sol\":2980:3006  numOutcomes = _numOutcomes */\n      dup4\n      swap1\n      sstore\n        /* \"LmLSMR.sol\":3012:3020  int128 n */\n      0x00\n        /* \"LmLSMR.sol\":3023:3054  ABDKMath.fromUInt(_numOutcomes) */\n      tag_388\n        /* \"LmLSMR.sol\":2994:3006  _numOutcomes */\n      dup5\n        /* \"LmLSMR.sol\":3023:3040  ABDKMath.fromUInt */\n      tag_291\n        /* \"LmLSMR.sol\":3023:3054  ABDKMath.fromUInt(_numOutcomes) */\n      jump\t// in\n    tag_388:\n        /* \"LmLSMR.sol\":3090:3095  token */\n      sload(0x08)\n        /* \"LmLSMR.sol\":3012:3054  int128 n = ABDKMath.fromUInt(_numOutcomes) */\n      swap1\n      swap2\n      pop\n        /* \"LmLSMR.sol\":3078:3106  getTokenEth(token, _subsidy) */\n      tag_389\n      swap1\n      sub(shl(0xa0, 0x01), 0x01)\n        /* \"LmLSMR.sol\":3090:3095  token */\n      and\n        /* \"LmLSMR.sol\":3097:3105  _subsidy */\n      dup5\n        /* \"LmLSMR.sol\":3078:3089  getTokenEth */\n      tag_49\n        /* \"LmLSMR.sol\":3078:3106  getTokenEth(token, _subsidy) */\n      jump\t// in\n    tag_389:\n        /* \"LmLSMR.sol\":3060:3075  initial_subsidy */\n      0x05\n        /* \"LmLSMR.sol\":3060:3106  initial_subsidy = getTokenEth(token, _subsidy) */\n      dup1\n      sload\n      not(sub(shl(0x80, 0x01), 0x01))\n      and\n      sub(shl(0x80, 0x01), 0x01)\n      swap3\n      swap1\n      swap3\n      and\n      swap2\n      swap1\n      swap2\n      or\n      swap1\n      sstore\n      0x00\n        /* \"LmLSMR.sol\":3132:3164  ABDKMath.divu(_overround, 10000) */\n      tag_390\n        /* \"LmLSMR.sol\":3146:3156  _overround */\n      dup4\n        /* \"LmLSMR.sol\":3158:3163  10000 */\n      0x2710\n        /* \"LmLSMR.sol\":3132:3145  ABDKMath.divu */\n      tag_168\n        /* \"LmLSMR.sol\":3132:3164  ABDKMath.divu(_overround, 10000) */\n      jump\t// in\n    tag_390:\n        /* \"LmLSMR.sol\":3113:3164  int128 overround = ABDKMath.divu(_overround, 10000) */\n      swap1\n      pop\n        /* \"LmLSMR.sol\":3238:3293  ABDKMath.div(overround, ABDKMath.mul(n,ABDKMath.ln(n))) */\n      tag_391\n        /* \"LmLSMR.sol\":3251:3260  overround */\n      dup2\n        /* \"LmLSMR.sol\":3262:3292  ABDKMath.mul(n,ABDKMath.ln(n)) */\n      tag_392\n        /* \"LmLSMR.sol\":3275:3276  n */\n      dup5\n        /* \"LmLSMR.sol\":3277:3291  ABDKMath.ln(n) */\n      tag_186\n        /* \"LmLSMR.sol\":3289:3290  n */\n      dup7\n        /* \"LmLSMR.sol\":3277:3288  ABDKMath.ln */\n      tag_187\n        /* \"LmLSMR.sol\":3277:3291  ABDKMath.ln(n) */\n      jump\t// in\n        /* \"LmLSMR.sol\":3262:3292  ABDKMath.mul(n,ABDKMath.ln(n)) */\n    tag_392:\n        /* \"LmLSMR.sol\":3238:3250  ABDKMath.div */\n      tag_182\n        /* \"LmLSMR.sol\":3238:3293  ABDKMath.div(overround, ABDKMath.mul(n,ABDKMath.ln(n))) */\n      jump\t// in\n    tag_391:\n        /* \"LmLSMR.sol\":3230:3235  alpha */\n      0x03\n        /* \"LmLSMR.sol\":3230:3293  alpha = ABDKMath.div(overround, ABDKMath.mul(n,ABDKMath.ln(n))) */\n      dup1\n      sload\n      sub(shl(0x80, 0x01), 0x01)\n      swap3\n      dup4\n      and\n      shl(0x80, 0x01)\n      mul\n      swap3\n      and\n      swap2\n      swap1\n      swap2\n      or\n      swap1\n      sstore\n        /* \"LmLSMR.sol\":3329:3344  initial_subsidy */\n      sload(0x05)\n        /* \"LmLSMR.sol\":3303:3356  ABDKMath.mul(ABDKMath.mul(initial_subsidy, n), alpha) */\n      tag_394\n      swap1\n        /* \"LmLSMR.sol\":3316:3348  ABDKMath.mul(initial_subsidy, n) */\n      tag_395\n      swap1\n        /* \"LmLSMR.sol\":3230:3293  alpha = ABDKMath.div(overround, ABDKMath.mul(n,ABDKMath.ln(n))) */\n      0x0f\n        /* \"LmLSMR.sol\":3329:3344  initial_subsidy */\n      signextend\n        /* \"LmLSMR.sol\":3346:3347  n */\n      dup5\n        /* \"LmLSMR.sol\":3316:3328  ABDKMath.mul */\n      tag_188\n        /* \"LmLSMR.sol\":3316:3348  ABDKMath.mul(initial_subsidy, n) */\n      jump\t// in\n    tag_395:\n        /* \"LmLSMR.sol\":3350:3355  alpha */\n      sload(0x03)\n      shl(0x80, 0x01)\n      swap1\n      div\n      0x0f\n      signextend\n        /* \"LmLSMR.sol\":3303:3315  ABDKMath.mul */\n      tag_188\n        /* \"LmLSMR.sol\":3303:3356  ABDKMath.mul(ABDKMath.mul(initial_subsidy, n), alpha) */\n      jump\t// in\n    tag_394:\n        /* \"LmLSMR.sol\":3299:3300  b */\n      0x03\n        /* \"LmLSMR.sol\":3299:3356  b = ABDKMath.mul(ABDKMath.mul(initial_subsidy, n), alpha) */\n      dup1\n      sload\n      not(sub(shl(0x80, 0x01), 0x01))\n      and\n      sub(shl(0x80, 0x01), 0x01)\n      swap3\n      swap1\n      swap3\n      and\n      swap2\n      swap1\n      swap2\n      or\n      swap1\n      sstore\n      0x00\n        /* \"LmLSMR.sol\":3363:3436  for(uint i=0; i<_numOutcomes; i++) {... */\n    tag_396:\n        /* \"LmLSMR.sol\":3379:3391  _numOutcomes */\n      dup6\n        /* \"LmLSMR.sol\":3377:3378  i */\n      dup2\n        /* \"LmLSMR.sol\":3377:3391  i<_numOutcomes */\n      lt\n        /* \"LmLSMR.sol\":3363:3436  for(uint i=0; i<_numOutcomes; i++) {... */\n      iszero\n      tag_397\n      jumpi\n        /* \"LmLSMR.sol\":3413:3428  initial_subsidy */\n      sload(0x05)\n        /* \"LmLSMR.sol\":3406:3407  q */\n      0x02\n        /* \"LmLSMR.sol\":3406:3429  q.push(initial_subsidy) */\n      dup1\n      sload\n        /* \"LmLSMR.sol\":3413:3428  initial_subsidy */\n      0x01\n        /* \"LmLSMR.sol\":3406:3429  q.push(initial_subsidy) */\n      dup1\n      dup3\n      add\n      dup4\n      sstore\n      0x00\n      dup4\n      swap1\n      mstore\n      0x405787fa12a823e0f2b7631cc41b3ba8828b3321ca811111fa75cd3aa3bb5ace\n      swap3\n      dup3\n      div\n      swap3\n      swap1\n      swap3\n      add\n      dup1\n      sload\n      swap2\n      dup4\n      and\n      0x10\n      mul\n        /* \"LmLSMR.sol\":3413:3428  initial_subsidy */\n      0x0100\n        /* \"LmLSMR.sol\":3406:3429  q.push(initial_subsidy) */\n      exp\n      sub(shl(0x80, 0x01), 0x01)\n      dup2\n      dup2\n      mul\n      not\n      swap1\n      swap4\n      and\n      swap3\n      swap1\n      swap5\n      and\n      swap4\n      swap1\n      swap4\n      mul\n      or\n      swap1\n      swap2\n      sstore\n        /* \"LmLSMR.sol\":3393:3396  i++ */\n      add\n        /* \"LmLSMR.sol\":3363:3436  for(uint i=0; i<_numOutcomes; i++) {... */\n      jump(tag_396)\n    tag_397:\n      pop\n        /* \"LmLSMR.sol\":3442:3446  init */\n      0x08\n        /* \"LmLSMR.sol\":3442:3453  init = true */\n      dup1\n      sload\n      0xffffffffffffffffffffff00ffffffffffffffffffffffffffffffffffffffff\n      and\n      shl(0xa0, 0x01)\n      or\n      swap1\n      sstore\n        /* \"LmLSMR.sol\":3488:3503  initial_subsidy */\n      sload(0x05)\n        /* \"LmLSMR.sol\":3475:3507  ABDKMath.mul(initial_subsidy, n) */\n      tag_400\n      swap1\n        /* \"LmLSMR.sol\":3488:3503  initial_subsidy */\n      0x0f\n      signextend\n        /* \"LmLSMR.sol\":3505:3506  n */\n      dup4\n        /* \"LmLSMR.sol\":3475:3487  ABDKMath.mul */\n      tag_188\n        /* \"LmLSMR.sol\":3475:3507  ABDKMath.mul(initial_subsidy, n) */\n      jump\t// in\n    tag_400:\n        /* \"LmLSMR.sol\":3460:3472  total_shares */\n      0x04\n        /* \"LmLSMR.sol\":3460:3507  total_shares = ABDKMath.mul(initial_subsidy, n) */\n      dup1\n      sload\n      sub(shl(0x80, 0x01), 0x01)\n      swap3\n      dup4\n      and\n      shl(0x80, 0x01)\n      mul\n      swap3\n      and\n      swap2\n      swap1\n      swap2\n      or\n      swap1\n      sstore\n        /* \"LmLSMR.sol\":3528:3534  cost() */\n      tag_401\n        /* \"LmLSMR.sol\":3528:3532  cost */\n      tag_53\n        /* \"LmLSMR.sol\":3528:3534  cost() */\n      jump\t// in\n    tag_401:\n        /* \"LmLSMR.sol\":3513:3525  current_cost */\n      0x04\n        /* \"LmLSMR.sol\":3513:3534  current_cost = cost() */\n      dup1\n      sload\n      not(sub(shl(0x80, 0x01), 0x01))\n      and\n      sub(shl(0x80, 0x01), 0x01)\n      swap3\n      swap1\n      swap3\n      and\n      swap2\n      swap1\n      swap2\n      or\n      swap1\n      sstore\n      pop\n      pop\n      pop\n      pop\n      pop\n      pop\n      pop\n        /* \"LmLSMR.sol\":2522:3539  function setup(... */\n      jump\t// out\n        /* \"LmLSMR.sol\":10598:12259  function sell(uint256 _outcome, int128 _amount) public onlyAfterInit returns (int128 refund) {... */\n    tag_117:\n        /* \"LmLSMR.sol\":10349:10353  init */\n      sload(0x08)\n        /* \"LmLSMR.sol\":10676:10689  int128 refund */\n      0x00\n      swap1\n      shl(0xa0, 0x01)\n        /* \"LmLSMR.sol\":10349:10353  init */\n      swap1\n      div\n      0xff\n      and\n        /* \"LmLSMR.sol\":10349:10361  init == true */\n      iszero\n      iszero\n        /* \"LmLSMR.sol\":10357:10361  true */\n      0x01\n        /* \"LmLSMR.sol\":10349:10361  init == true */\n      eq\n        /* \"LmLSMR.sol\":10341:10362  require(init == true) */\n      tag_403\n      jumpi\n      0x00\n      dup1\n      revert\n    tag_403:\n        /* \"LmLSMR.sol\":10716:10727  numOutcomes */\n      sload(0x01)\n        /* \"LmLSMR.sol\":10705:10713  _outcome */\n      dup4\n        /* \"LmLSMR.sol\":10705:10727  _outcome < numOutcomes */\n      lt\n        /* \"LmLSMR.sol\":10697:10753  require(_outcome < numOutcomes, \"Invalid outcome index\") */\n      tag_405\n      jumpi\n      mload(0x40)\n      shl(0xe5, 0x461bcd)\n      dup2\n      mstore\n        /* \"#utility.yul\":11702:11704   */\n      0x20\n        /* \"LmLSMR.sol\":10697:10753  require(_outcome < numOutcomes, \"Invalid outcome index\") */\n      0x04\n      dup3\n      add\n        /* \"#utility.yul\":11684:11705   */\n      mstore\n        /* \"#utility.yul\":11741:11743   */\n      0x15\n        /* \"#utility.yul\":11721:11739   */\n      0x24\n      dup3\n      add\n        /* \"#utility.yul\":11714:11744   */\n      mstore\n      shl(0x5b, 0x092dcecc2d8d2c840deeae8c6dedaca40d2dcc8caf)\n        /* \"#utility.yul\":11760:11778   */\n      0x44\n      dup3\n      add\n        /* \"#utility.yul\":11753:11804   */\n      mstore\n        /* \"#utility.yul\":11821:11839   */\n      0x64\n      add\n        /* \"LmLSMR.sol\":10697:10753  require(_outcome < numOutcomes, \"Invalid outcome index\") */\n      tag_201\n        /* \"#utility.yul\":11500:11845   */\n      jump\n        /* \"LmLSMR.sol\":10697:10753  require(_outcome < numOutcomes, \"Invalid outcome index\") */\n    tag_405:\n        /* \"LmLSMR.sol\":10777:10778  0 */\n      0x00\n        /* \"LmLSMR.sol\":10767:10774  _amount */\n      dup3\n        /* \"LmLSMR.sol\":10767:10778  _amount > 0 */\n      0x0f\n      signextend\n      sgt\n        /* \"LmLSMR.sol\":10759:10806  require(_amount > 0, \"Amount must be positive\") */\n      tag_407\n      jumpi\n      mload(0x40)\n      shl(0xe5, 0x461bcd)\n      dup2\n      mstore\n        /* \"#utility.yul\":14838:14840   */\n      0x20\n        /* \"LmLSMR.sol\":10759:10806  require(_amount > 0, \"Amount must be positive\") */\n      0x04\n      dup3\n      add\n        /* \"#utility.yul\":14820:14841   */\n      mstore\n        /* \"#utility.yul\":14877:14879   */\n      0x17\n        /* \"#utility.yul\":14857:14875   */\n      0x24\n      dup3\n      add\n        /* \"#utility.yul\":14850:14880   */\n      mstore\n        /* \"#utility.yul\":14916:14941   */\n      0x416d6f756e74206d75737420626520706f736974697665000000000000000000\n        /* \"#utility.yul\":14896:14914   */\n      0x44\n      dup3\n      add\n        /* \"#utility.yul\":14889:14942   */\n      mstore\n        /* \"#utility.yul\":14959:14977   */\n      0x64\n      add\n        /* \"LmLSMR.sol\":10759:10806  require(_amount > 0, \"Amount must be positive\") */\n      tag_201\n        /* \"#utility.yul\":14636:14983   */\n      jump\n        /* \"LmLSMR.sol\":10759:10806  require(_amount > 0, \"Amount must be positive\") */\n    tag_407:\n        /* \"LmLSMR.sol\":10820:10822  CT */\n      sload(0x07)\n        /* \"LmLSMR.sol\":10841:10850  condition */\n      sload(0x06)\n        /* \"LmLSMR.sol\":10820:10851  CT.payoutDenominator(condition) */\n      mload(0x40)\n      shl(0xe0, 0xdd34de67)\n      dup2\n      mstore\n      sub(shl(0xa0, 0x01), 0x01)\n        /* \"LmLSMR.sol\":10820:10822  CT */\n      swap1\n      swap3\n      and\n      swap2\n        /* \"LmLSMR.sol\":10820:10840  CT.payoutDenominator */\n      0xdd34de67\n      swap2\n        /* \"LmLSMR.sol\":10820:10851  CT.payoutDenominator(condition) */\n      tag_410\n      swap2\n      0x04\n      add\n        /* \"#utility.yul\":1729:1754   */\n      swap1\n      dup2\n      mstore\n        /* \"#utility.yul\":1717:1719   */\n      0x20\n        /* \"#utility.yul\":1702:1720   */\n      add\n      swap1\n        /* \"#utility.yul\":1583:1760   */\n      jump\n        /* \"LmLSMR.sol\":10820:10851  CT.payoutDenominator(condition) */\n    tag_410:\n      0x20\n      mload(0x40)\n      dup1\n      dup4\n      sub\n      dup2\n      dup7\n      gas\n      staticcall\n      iszero\n      dup1\n      iszero\n      tag_412\n      jumpi\n      returndatasize\n      0x00\n      dup1\n      returndatacopy\n      revert(0x00, returndatasize)\n    tag_412:\n      pop\n      pop\n      pop\n      pop\n      mload(0x40)\n      returndatasize\n      not(0x1f)\n      0x1f\n      dup3\n      add\n      and\n      dup3\n      add\n      dup1\n      0x40\n      mstore\n      pop\n      dup2\n      add\n      swap1\n      tag_413\n      swap2\n      swap1\n      tag_199\n      jump\t// in\n    tag_413:\n        /* \"LmLSMR.sol\":10820:10856  CT.payoutDenominator(condition) == 0 */\n      iszero\n        /* \"LmLSMR.sol\":10812:10884  require(CT.payoutDenominator(condition) == 0, \"Market already resolved\") */\n      tag_414\n      jumpi\n      mload(0x40)\n      shl(0xe5, 0x461bcd)\n      dup2\n      mstore\n        /* \"#utility.yul\":15190:15192   */\n      0x20\n        /* \"LmLSMR.sol\":10812:10884  require(CT.payoutDenominator(condition) == 0, \"Market already resolved\") */\n      0x04\n      dup3\n      add\n        /* \"#utility.yul\":15172:15193   */\n      mstore\n        /* \"#utility.yul\":15229:15231   */\n      0x17\n        /* \"#utility.yul\":15209:15227   */\n      0x24\n      dup3\n      add\n        /* \"#utility.yul\":15202:15232   */\n      mstore\n        /* \"#utility.yul\":15268:15293   */\n      0x4d61726b657420616c7265616479207265736f6c766564000000000000000000\n        /* \"#utility.yul\":15248:15266   */\n      0x44\n      dup3\n      add\n        /* \"#utility.yul\":15241:15294   */\n      mstore\n        /* \"#utility.yul\":15311:15329   */\n      0x64\n      add\n        /* \"LmLSMR.sol\":10812:10884  require(CT.payoutDenominator(condition) == 0, \"Market already resolved\") */\n      tag_201\n        /* \"#utility.yul\":14988:15335   */\n      jump\n        /* \"LmLSMR.sol\":10812:10884  require(CT.payoutDenominator(condition) == 0, \"Market already resolved\") */\n    tag_414:\n        /* \"LmLSMR.sol\":11001:11008  _amount */\n      dup2\n        /* \"LmLSMR.sol\":10986:11008  q[_outcome] >= _amount */\n      0x0f\n      signextend\n        /* \"LmLSMR.sol\":10986:10987  q */\n      0x02\n        /* \"LmLSMR.sol\":10988:10996  _outcome */\n      dup5\n        /* \"LmLSMR.sol\":10986:10997  q[_outcome] */\n      dup2\n      sload\n      dup2\n      lt\n      tag_418\n      jumpi\n      tag_418\n      tag_180\n      jump\t// in\n    tag_418:\n      0x00\n      swap2\n      dup3\n      mstore\n      0x20\n      swap1\n      swap2\n      keccak256\n      0x02\n      dup3\n      div\n      add\n      sload\n      0x01\n      swap1\n      swap2\n      and\n      0x10\n      mul\n      0x0100\n      exp\n      swap1\n      div\n      0x0f\n      signextend\n        /* \"LmLSMR.sol\":10986:11008  q[_outcome] >= _amount */\n      slt\n      iszero\n        /* \"LmLSMR.sol\":10978:11038  require(q[_outcome] >= _amount, \"Not enough shares to sell\") */\n      tag_420\n      jumpi\n      mload(0x40)\n      shl(0xe5, 0x461bcd)\n      dup2\n      mstore\n        /* \"#utility.yul\":15542:15544   */\n      0x20\n        /* \"LmLSMR.sol\":10978:11038  require(q[_outcome] >= _amount, \"Not enough shares to sell\") */\n      0x04\n      dup3\n      add\n        /* \"#utility.yul\":15524:15545   */\n      mstore\n        /* \"#utility.yul\":15581:15583   */\n      0x19\n        /* \"#utility.yul\":15561:15579   */\n      0x24\n      dup3\n      add\n        /* \"#utility.yul\":15554:15584   */\n      mstore\n        /* \"#utility.yul\":15620:15647   */\n      0x4e6f7420656e6f7567682073686172657320746f2073656c6c00000000000000\n        /* \"#utility.yul\":15600:15618   */\n      0x44\n      dup3\n      add\n        /* \"#utility.yul\":15593:15648   */\n      mstore\n        /* \"#utility.yul\":15665:15683   */\n      0x64\n      add\n        /* \"LmLSMR.sol\":10978:11038  require(q[_outcome] >= _amount, \"Not enough shares to sell\") */\n      tag_201\n        /* \"#utility.yul\":15340:15689   */\n      jump\n        /* \"LmLSMR.sol\":10978:11038  require(q[_outcome] >= _amount, \"Not enough shares to sell\") */\n    tag_420:\n        /* \"LmLSMR.sol\":11058:11092  ABDKMath.sub(q[_outcome], _amount) */\n      tag_423\n        /* \"LmLSMR.sol\":11071:11072  q */\n      0x02\n        /* \"LmLSMR.sol\":11073:11081  _outcome */\n      dup5\n        /* \"LmLSMR.sol\":11071:11082  q[_outcome] */\n      dup2\n      sload\n      dup2\n      lt\n      tag_425\n      jumpi\n      tag_425\n      tag_180\n      jump\t// in\n    tag_425:\n      swap1\n      0x00\n      mstore\n      keccak256(0x00, 0x20)\n      swap1\n      0x02\n      swap2\n      dup3\n      dup3\n      div\n      add\n      swap2\n      swap1\n      mod\n      0x10\n      mul\n      swap1\n      sload\n      swap1\n      0x0100\n      exp\n      swap1\n      div\n      0x0f\n      signextend\n        /* \"LmLSMR.sol\":11084:11091  _amount */\n      dup4\n        /* \"LmLSMR.sol\":11058:11070  ABDKMath.sub */\n      tag_427\n        /* \"LmLSMR.sol\":11058:11092  ABDKMath.sub(q[_outcome], _amount) */\n      jump\t// in\n    tag_423:\n        /* \"LmLSMR.sol\":11044:11045  q */\n      0x02\n        /* \"LmLSMR.sol\":11046:11054  _outcome */\n      dup5\n        /* \"LmLSMR.sol\":11044:11055  q[_outcome] */\n      dup2\n      sload\n      dup2\n      lt\n      tag_429\n      jumpi\n      tag_429\n      tag_180\n      jump\t// in\n    tag_429:\n      swap1\n      0x00\n      mstore\n      keccak256(0x00, 0x20)\n      swap1\n      0x02\n      swap2\n      dup3\n      dup3\n      div\n      add\n      swap2\n      swap1\n      mod\n      0x10\n      mul\n        /* \"LmLSMR.sol\":11044:11092  q[_outcome] = ABDKMath.sub(q[_outcome], _amount) */\n      0x0100\n      exp\n      dup2\n      sload\n      dup2\n      sub(shl(0x80, 0x01), 0x01)\n      mul\n      not\n      and\n      swap1\n      dup4\n      0x0f\n      signextend\n      sub(shl(0x80, 0x01), 0x01)\n      and\n      mul\n      or\n      swap1\n      sstore\n      pop\n        /* \"LmLSMR.sol\":11113:11148  ABDKMath.sub(total_shares, _amount) */\n      tag_431\n        /* \"LmLSMR.sol\":11126:11138  total_shares */\n      0x04\n      0x10\n      swap1\n      sload\n      swap1\n      0x0100\n      exp\n      swap1\n      div\n      0x0f\n      signextend\n        /* \"LmLSMR.sol\":11140:11147  _amount */\n      dup4\n        /* \"LmLSMR.sol\":11113:11125  ABDKMath.sub */\n      tag_427\n        /* \"LmLSMR.sol\":11113:11148  ABDKMath.sub(total_shares, _amount) */\n      jump\t// in\n    tag_431:\n        /* \"LmLSMR.sol\":11098:11110  total_shares */\n      0x04\n        /* \"LmLSMR.sol\":11098:11148  total_shares = ABDKMath.sub(total_shares, _amount) */\n      dup1\n      sload\n      sub(shl(0x80, 0x01), 0x01)\n      swap1\n      dup2\n      and\n      shl(0x80, 0x01)\n      swap4\n      swap1\n      swap2\n      and\n      dup4\n      mul\n      or\n      swap1\n      dup2\n      swap1\n      sstore\n        /* \"LmLSMR.sol\":11185:11190  alpha */\n      sload(0x03)\n        /* \"LmLSMR.sol\":11158:11191  ABDKMath.mul(total_shares, alpha) */\n      tag_432\n      swap3\n        /* \"LmLSMR.sol\":11171:11183  total_shares */\n      swap2\n      dup3\n      swap1\n      div\n        /* \"LmLSMR.sol\":11098:11148  total_shares = ABDKMath.sub(total_shares, _amount) */\n      0x0f\n        /* \"LmLSMR.sol\":11171:11183  total_shares */\n      swap1\n      dup2\n      signextend\n      swap3\n        /* \"LmLSMR.sol\":11185:11190  alpha */\n      swap1\n      swap2\n      div\n      swap1\n      signextend\n        /* \"LmLSMR.sol\":11158:11170  ABDKMath.mul */\n      tag_188\n        /* \"LmLSMR.sol\":11158:11191  ABDKMath.mul(total_shares, alpha) */\n      jump\t// in\n    tag_432:\n        /* \"LmLSMR.sol\":11154:11155  b */\n      0x03\n        /* \"LmLSMR.sol\":11154:11191  b = ABDKMath.mul(total_shares, alpha) */\n      dup1\n      sload\n      not(sub(shl(0x80, 0x01), 0x01))\n      and\n      sub(shl(0x80, 0x01), 0x01)\n      swap3\n      swap1\n      swap3\n      and\n      swap2\n      swap1\n      swap2\n      or\n      swap1\n      sstore\n      0x00\n      dup1\n        /* \"LmLSMR.sol\":11325:11453  for (uint i = 0; i < numOutcomes; i++) {... */\n    tag_433:\n        /* \"LmLSMR.sol\":11346:11357  numOutcomes */\n      sload(0x01)\n        /* \"LmLSMR.sol\":11342:11343  i */\n      dup2\n        /* \"LmLSMR.sol\":11342:11357  i < numOutcomes */\n      lt\n        /* \"LmLSMR.sol\":11325:11453  for (uint i = 0; i < numOutcomes; i++) {... */\n      iszero\n      tag_434\n      jumpi\n        /* \"LmLSMR.sol\":11386:11446  ABDKMath.add(sum_total, ABDKMath.exp(ABDKMath.div(q[i], b))) */\n      tag_436\n        /* \"LmLSMR.sol\":11399:11408  sum_total */\n      dup3\n        /* \"LmLSMR.sol\":11410:11445  ABDKMath.exp(ABDKMath.div(q[i], b)) */\n      tag_176\n        /* \"LmLSMR.sol\":11423:11444  ABDKMath.div(q[i], b) */\n      tag_177\n        /* \"LmLSMR.sol\":11436:11437  q */\n      0x02\n        /* \"LmLSMR.sol\":11438:11439  i */\n      dup6\n        /* \"LmLSMR.sol\":11436:11440  q[i] */\n      dup2\n      sload\n      dup2\n      lt\n      tag_179\n      jumpi\n      tag_179\n      tag_180\n      jump\t// in\n        /* \"LmLSMR.sol\":11386:11446  ABDKMath.add(sum_total, ABDKMath.exp(ABDKMath.div(q[i], b))) */\n    tag_436:\n        /* \"LmLSMR.sol\":11374:11446  sum_total = ABDKMath.add(sum_total, ABDKMath.exp(ABDKMath.div(q[i], b))) */\n      swap2\n      pop\n        /* \"LmLSMR.sol\":11359:11362  i++ */\n      0x01\n      add\n        /* \"LmLSMR.sol\":11325:11453  for (uint i = 0; i < numOutcomes; i++) {... */\n      jump(tag_433)\n    tag_434:\n      pop\n        /* \"LmLSMR.sol\":11489:11490  b */\n      sload(0x03)\n        /* \"LmLSMR.sol\":11458:11473  int128 new_cost */\n      0x00\n      swap1\n        /* \"LmLSMR.sol\":11476:11515  ABDKMath.mul(b, ABDKMath.ln(sum_total)) */\n      tag_442\n      swap1\n        /* \"LmLSMR.sol\":11489:11490  b */\n      0x0f\n      signextend\n        /* \"LmLSMR.sol\":11492:11514  ABDKMath.ln(sum_total) */\n      tag_186\n        /* \"LmLSMR.sol\":11504:11513  sum_total */\n      dup5\n        /* \"LmLSMR.sol\":11492:11503  ABDKMath.ln */\n      tag_187\n        /* \"LmLSMR.sol\":11492:11514  ABDKMath.ln(sum_total) */\n      jump\t// in\n        /* \"LmLSMR.sol\":11476:11515  ABDKMath.mul(b, ABDKMath.ln(sum_total)) */\n    tag_442:\n        /* \"LmLSMR.sol\":11632:11644  current_cost */\n      sload(0x04)\n        /* \"LmLSMR.sol\":11458:11515  int128 new_cost = ABDKMath.mul(b, ABDKMath.ln(sum_total)) */\n      swap1\n      swap2\n      pop\n        /* \"LmLSMR.sol\":11619:11655  ABDKMath.sub(current_cost, new_cost) */\n      tag_444\n      swap1\n        /* \"LmLSMR.sol\":11632:11644  current_cost */\n      0x0f\n      signextend\n        /* \"LmLSMR.sol\":11458:11515  int128 new_cost = ABDKMath.mul(b, ABDKMath.ln(sum_total)) */\n      dup3\n        /* \"LmLSMR.sol\":11619:11631  ABDKMath.sub */\n      tag_427\n        /* \"LmLSMR.sol\":11619:11655  ABDKMath.sub(current_cost, new_cost) */\n      jump\t// in\n    tag_444:\n        /* \"LmLSMR.sol\":11770:11782  current_cost */\n      0x04\n        /* \"LmLSMR.sol\":11770:11793  current_cost = new_cost */\n      dup1\n      sload\n      not(sub(shl(0x80, 0x01), 0x01))\n      and\n      sub(shl(0x80, 0x01), 0x01)\n      dup5\n      and\n      or\n      swap1\n      sstore\n        /* \"LmLSMR.sol\":11923:11928  token */\n      sload(0x08)\n        /* \"LmLSMR.sol\":11610:11655  refund = ABDKMath.sub(current_cost, new_cost) */\n      swap1\n      swap4\n      pop\n      0x00\n      swap1\n        /* \"LmLSMR.sol\":11911:11938  getTokenWei(token, _amount) */\n      tag_445\n      swap1\n      sub(shl(0xa0, 0x01), 0x01)\n        /* \"LmLSMR.sol\":11923:11928  token */\n      and\n        /* \"LmLSMR.sol\":11930:11937  _amount */\n      dup7\n        /* \"LmLSMR.sol\":11911:11922  getTokenWei */\n      tag_60\n        /* \"LmLSMR.sol\":11911:11938  getTokenWei(token, _amount) */\n      jump\t// in\n    tag_445:\n        /* \"LmLSMR.sol\":11955:11957  CT */\n      sload(0x07)\n        /* \"LmLSMR.sol\":11979:11984  token */\n      sload(0x08)\n        /* \"LmLSMR.sol\":12018:12027  condition */\n      sload(0x06)\n        /* \"LmLSMR.sol\":11987:12043  CT.getCollectionId(bytes32(0), condition, 1 << _outcome) */\n      mload(0x40)\n      shl(0xe0, 0x856296f7)\n      dup2\n      mstore\n        /* \"LmLSMR.sol\":11944:11952  uint pos */\n      0x00\n        /* \"LmLSMR.sol\":11987:12043  CT.getCollectionId(bytes32(0), condition, 1 << _outcome) */\n      0x04\n      dup3\n      add\n        /* \"#utility.yul\":15896:15921   */\n      dup2\n      swap1\n      mstore\n        /* \"#utility.yul\":15937:15955   */\n      0x24\n      dup3\n      add\n        /* \"#utility.yul\":15930:15964   */\n      swap3\n      swap1\n      swap3\n      mstore\n        /* \"LmLSMR.sol\":11955:11957  CT */\n      0x01\n        /* \"LmLSMR.sol\":12029:12042  1 << _outcome */\n      dup12\n      shl\n        /* \"#utility.yul\":15980:15998   */\n      0x44\n      dup3\n      add\n        /* \"#utility.yul\":15973:16007   */\n      mstore\n        /* \"LmLSMR.sol\":11887:11938  uint n_outcome_tokens = getTokenWei(token, _amount) */\n      swap4\n      swap5\n      pop\n        /* \"LmLSMR.sol\":11944:11952  uint pos */\n      swap3\n      sub(shl(0xa0, 0x01), 0x01)\n        /* \"LmLSMR.sol\":11955:11957  CT */\n      swap3\n      dup4\n      and\n      swap3\n        /* \"LmLSMR.sol\":11955:11971  CT.getPositionId */\n      0x39dd7530\n      swap3\n        /* \"LmLSMR.sol\":11979:11984  token */\n      and\n      swap1\n        /* \"LmLSMR.sol\":11955:11957  CT */\n      dup4\n      swap1\n        /* \"LmLSMR.sol\":11987:12005  CT.getCollectionId */\n      0x856296f7\n      swap1\n        /* \"#utility.yul\":15869:15887   */\n      0x64\n      add\n        /* \"LmLSMR.sol\":11987:12043  CT.getCollectionId(bytes32(0), condition, 1 << _outcome) */\n      0x20\n      mload(0x40)\n      dup1\n      dup4\n      sub\n      dup2\n      dup7\n      gas\n      staticcall\n      iszero\n      dup1\n      iszero\n      tag_449\n      jumpi\n      returndatasize\n      0x00\n      dup1\n      returndatacopy\n      revert(0x00, returndatasize)\n    tag_449:\n      pop\n      pop\n      pop\n      pop\n      mload(0x40)\n      returndatasize\n      not(0x1f)\n      0x1f\n      dup3\n      add\n      and\n      dup3\n      add\n      dup1\n      0x40\n      mstore\n      pop\n      dup2\n      add\n      swap1\n      tag_450\n      swap2\n      swap1\n      tag_199\n      jump\t// in\n    tag_450:\n        /* \"LmLSMR.sol\":11955:12044  CT.getPositionId(IERC20(token), CT.getCollectionId(bytes32(0), condition, 1 << _outcome)) */\n      mload(0x40)\n      not(sub(shl(0xe0, 0x01), 0x01))\n      0xe0\n      dup6\n      swap1\n      shl\n      and\n      dup2\n      mstore\n      sub(shl(0xa0, 0x01), 0x01)\n        /* \"#utility.yul\":16225:16280   */\n      swap1\n      swap3\n      and\n        /* \"LmLSMR.sol\":11955:12044  CT.getPositionId(IERC20(token), CT.getCollectionId(bytes32(0), condition, 1 << _outcome)) */\n      0x04\n      dup4\n      add\n        /* \"#utility.yul\":16207:16281   */\n      mstore\n        /* \"#utility.yul\":16297:16315   */\n      0x24\n      dup3\n      add\n        /* \"#utility.yul\":16290:16324   */\n      mstore\n        /* \"#utility.yul\":16180:16198   */\n      0x44\n      add\n        /* \"LmLSMR.sol\":11955:12044  CT.getPositionId(IERC20(token), CT.getCollectionId(bytes32(0), condition, 1 << _outcome)) */\n      0x20\n      mload(0x40)\n      dup1\n      dup4\n      sub\n      dup2\n      dup7\n      gas\n      staticcall\n      iszero\n      dup1\n      iszero\n      tag_454\n      jumpi\n      returndatasize\n      0x00\n      dup1\n      returndatacopy\n      revert(0x00, returndatasize)\n    tag_454:\n      pop\n      pop\n      pop\n      pop\n      mload(0x40)\n      returndatasize\n      not(0x1f)\n      0x1f\n      dup3\n      add\n      and\n      dup3\n      add\n      dup1\n      0x40\n      mstore\n      pop\n      dup2\n      add\n      swap1\n      tag_455\n      swap2\n      swap1\n      tag_199\n      jump\t// in\n    tag_455:\n        /* \"LmLSMR.sol\":12050:12052  CT */\n      sload(0x07)\n        /* \"LmLSMR.sol\":12050:12123  CT.safeTransferFrom(msg.sender, address(this), pos, n_outcome_tokens, \"\") */\n      mload(0x40)\n      shl(0xe1, 0x79212195)\n      dup2\n      mstore\n        /* \"LmLSMR.sol\":12070:12080  msg.sender */\n      caller\n        /* \"LmLSMR.sol\":12050:12123  CT.safeTransferFrom(msg.sender, address(this), pos, n_outcome_tokens, \"\") */\n      0x04\n      dup3\n      add\n        /* \"#utility.yul\":16691:16725   */\n      mstore\n        /* \"LmLSMR.sol\":12090:12094  this */\n      address\n        /* \"#utility.yul\":16741:16759   */\n      0x24\n      dup3\n      add\n        /* \"#utility.yul\":16734:16777   */\n      mstore\n        /* \"#utility.yul\":16793:16811   */\n      0x44\n      dup2\n      add\n        /* \"#utility.yul\":16786:16820   */\n      dup4\n      swap1\n      mstore\n        /* \"#utility.yul\":16836:16854   */\n      0x64\n      dup2\n      add\n        /* \"#utility.yul\":16829:16863   */\n      dup6\n      swap1\n      mstore\n        /* \"#utility.yul\":16900:16903   */\n      0xa0\n        /* \"#utility.yul\":16879:16898   */\n      0x84\n      dup3\n      add\n        /* \"#utility.yul\":16872:16904   */\n      mstore\n      0x00\n        /* \"#utility.yul\":16920:16939   */\n      0xa4\n      dup3\n      add\n        /* \"#utility.yul\":16913:16943   */\n      mstore\n        /* \"LmLSMR.sol\":11944:12044  uint pos = CT.getPositionId(IERC20(token), CT.getCollectionId(bytes32(0), condition, 1 << _outcome)) */\n      swap2\n      swap3\n      pop\n      sub(shl(0xa0, 0x01), 0x01)\n        /* \"LmLSMR.sol\":12050:12052  CT */\n      and\n      swap1\n        /* \"LmLSMR.sol\":12050:12069  CT.safeTransferFrom */\n      0xf242432a\n      swap1\n        /* \"#utility.yul\":16960:16979   */\n      0xc4\n      add\n        /* \"LmLSMR.sol\":12050:12123  CT.safeTransferFrom(msg.sender, address(this), pos, n_outcome_tokens, \"\") */\n      0x00\n      mload(0x40)\n      dup1\n      dup4\n      sub\n      dup2\n      0x00\n      dup8\n      dup1\n      extcodesize\n      iszero\n      dup1\n      iszero\n      tag_458\n      jumpi\n      0x00\n      dup1\n      revert\n    tag_458:\n      pop\n      gas\n      call\n      iszero\n      dup1\n      iszero\n      tag_460\n      jumpi\n      returndatasize\n      0x00\n      dup1\n      returndatacopy\n      revert(0x00, returndatasize)\n    tag_460:\n      pop\n      pop\n        /* \"LmLSMR.sol\":12162:12167  token */\n      sload(0x08)\n        /* \"LmLSMR.sol\":12130:12147  uint token_refund */\n      0x00\n      swap3\n      pop\n        /* \"LmLSMR.sol\":12150:12176  getTokenWei(token, refund) */\n      tag_461\n      swap2\n      pop\n      sub(shl(0xa0, 0x01), 0x01)\n        /* \"LmLSMR.sol\":12162:12167  token */\n      and\n        /* \"LmLSMR.sol\":12169:12175  refund */\n      dup8\n        /* \"LmLSMR.sol\":12150:12161  getTokenWei */\n      tag_60\n        /* \"LmLSMR.sol\":12150:12176  getTokenWei(token, refund) */\n      jump\t// in\n    tag_461:\n        /* \"LmLSMR.sol\":12189:12194  token */\n      sload(0x08)\n        /* \"LmLSMR.sol\":12130:12176  uint token_refund = getTokenWei(token, refund) */\n      swap1\n      swap2\n      pop\n        /* \"LmLSMR.sol\":12182:12234  IERC20(token).safeTransfer(msg.sender, token_refund) */\n      tag_462\n      swap1\n      sub(shl(0xa0, 0x01), 0x01)\n        /* \"LmLSMR.sol\":12189:12194  token */\n      and\n        /* \"LmLSMR.sol\":12209:12219  msg.sender */\n      caller\n        /* \"LmLSMR.sol\":12130:12176  uint token_refund = getTokenWei(token, refund) */\n      dup4\n        /* \"LmLSMR.sol\":12182:12208  IERC20(token).safeTransfer */\n      tag_222\n        /* \"LmLSMR.sol\":12182:12234  IERC20(token).safeTransfer(msg.sender, token_refund) */\n      jump\t// in\n    tag_462:\n        /* \"LmLSMR.sol\":12241:12254  return refund */\n      pop\n      pop\n      pop\n      pop\n      pop\n        /* \"LmLSMR.sol\":10598:12259  function sell(uint256 _outcome, int128 _amount) public onlyAfterInit returns (int128 refund) {... */\n      swap3\n      swap2\n      pop\n      pop\n      jump\t// out\n        /* \"LmLSMR.sol\":12348:12550  function getOutcomeSharesPurchased(uint256 _outcome) public view returns (int128) {... */\n    tag_121:\n        /* \"LmLSMR.sol\":12422:12428  int128 */\n      0x00\n        /* \"LmLSMR.sol\":12455:12466  numOutcomes */\n      sload(0x01)\n        /* \"LmLSMR.sol\":12444:12452  _outcome */\n      dup3\n        /* \"LmLSMR.sol\":12444:12466  _outcome < numOutcomes */\n      lt\n        /* \"LmLSMR.sol\":12436:12492  require(_outcome < numOutcomes, \"Invalid outcome index\") */\n      tag_464\n      jumpi\n      mload(0x40)\n      shl(0xe5, 0x461bcd)\n      dup2\n      mstore\n        /* \"#utility.yul\":11702:11704   */\n      0x20\n        /* \"LmLSMR.sol\":12436:12492  require(_outcome < numOutcomes, \"Invalid outcome index\") */\n      0x04\n      dup3\n      add\n        /* \"#utility.yul\":11684:11705   */\n      mstore\n        /* \"#utility.yul\":11741:11743   */\n      0x15\n        /* \"#utility.yul\":11721:11739   */\n      0x24\n      dup3\n      add\n        /* \"#utility.yul\":11714:11744   */\n      mstore\n      shl(0x5b, 0x092dcecc2d8d2c840deeae8c6dedaca40d2dcc8caf)\n        /* \"#utility.yul\":11760:11778   */\n      0x44\n      dup3\n      add\n        /* \"#utility.yul\":11753:11804   */\n      mstore\n        /* \"#utility.yul\":11821:11839   */\n      0x64\n      add\n        /* \"LmLSMR.sol\":12436:12492  require(_outcome < numOutcomes, \"Invalid outcome index\") */\n      tag_201\n        /* \"#utility.yul\":11500:11845   */\n      jump\n        /* \"LmLSMR.sol\":12436:12492  require(_outcome < numOutcomes, \"Invalid outcome index\") */\n    tag_464:\n        /* \"LmLSMR.sol\":12505:12547  ABDKMath.sub(q[_outcome], initial_subsidy) */\n      tag_160\n        /* \"LmLSMR.sol\":12518:12519  q */\n      0x02\n        /* \"LmLSMR.sol\":12520:12528  _outcome */\n      dup4\n        /* \"LmLSMR.sol\":12518:12529  q[_outcome] */\n      dup2\n      sload\n      dup2\n      lt\n      tag_468\n      jumpi\n      tag_468\n      tag_180\n      jump\t// in\n    tag_468:\n      0x00\n      swap2\n      dup3\n      mstore\n      0x20\n      swap1\n      swap2\n      keccak256\n      0x02\n      dup3\n      div\n      add\n      sload\n        /* \"LmLSMR.sol\":12531:12546  initial_subsidy */\n      sload(0x05)\n        /* \"LmLSMR.sol\":12518:12529  q[_outcome] */\n      0x01\n      swap1\n      swap3\n      and\n      0x10\n      mul\n      0x0100\n      exp\n      swap1\n      div\n      0x0f\n      swap1\n      dup2\n      signextend\n      swap2\n        /* \"LmLSMR.sol\":12531:12546  initial_subsidy */\n      swap1\n      signextend\n        /* \"LmLSMR.sol\":12505:12517  ABDKMath.sub */\n      tag_427\n        /* \"LmLSMR.sol\":12505:12547  ABDKMath.sub(q[_outcome], initial_subsidy) */\n      jump\t// in\n        /* \"LmLSMR.sol\":8633:8789  function price(... */\n    tag_137:\n        /* \"LmLSMR.sol\":8772:8784  current_cost */\n      sload(0x04)\n        /* \"LmLSMR.sol\":8715:8721  int128 */\n      0x00\n      swap1\n        /* \"LmLSMR.sol\":8772:8784  current_cost */\n      0x0f\n      signextend\n        /* \"LmLSMR.sol\":8736:8769  cost_after_buy(_outcome, _amount) */\n      tag_472\n        /* \"LmLSMR.sol\":8751:8759  _outcome */\n      dup5\n        /* \"LmLSMR.sol\":8761:8768  _amount */\n      dup5\n        /* \"LmLSMR.sol\":8736:8750  cost_after_buy */\n      tag_91\n        /* \"LmLSMR.sol\":8736:8769  cost_after_buy(_outcome, _amount) */\n      jump\t// in\n    tag_472:\n        /* \"LmLSMR.sol\":8736:8784  cost_after_buy(_outcome, _amount) - current_cost */\n      tag_299\n      swap2\n      swap1\n      tag_300\n      jump\t// in\n        /* \"LmLSMR.sol\":14104:14311  function debugFees() public view returns (uint contractBalance, uint theoreticalCost) {... */\n    tag_140:\n        /* \"LmLSMR.sol\":14221:14226  token */\n      sload(0x08)\n        /* \"LmLSMR.sol\":14214:14252  IERC20(token).balanceOf(address(this)) */\n      mload(0x40)\n      shl(0xe0, 0x70a08231)\n      dup2\n      mstore\n        /* \"LmLSMR.sol\":14246:14250  this */\n      address\n        /* \"LmLSMR.sol\":14214:14252  IERC20(token).balanceOf(address(this)) */\n      0x04\n      dup3\n      add\n        /* \"#utility.yul\":4304:4378   */\n      mstore\n        /* \"LmLSMR.sol\":14146:14166  uint contractBalance */\n      0x00\n      swap2\n      dup3\n      swap2\n      sub(shl(0xa0, 0x01), 0x01)\n        /* \"LmLSMR.sol\":14221:14226  token */\n      swap1\n      swap2\n      and\n      swap1\n        /* \"LmLSMR.sol\":14214:14237  IERC20(token).balanceOf */\n      0x70a08231\n      swap1\n        /* \"#utility.yul\":4277:4295   */\n      0x24\n      add\n        /* \"LmLSMR.sol\":14214:14252  IERC20(token).balanceOf(address(this)) */\n      0x20\n      mload(0x40)\n      dup1\n      dup4\n      sub\n      dup2\n      dup7\n      gas\n      staticcall\n      iszero\n      dup1\n      iszero\n      tag_477\n      jumpi\n      returndatasize\n      0x00\n      dup1\n      returndatacopy\n      revert(0x00, returndatasize)\n    tag_477:\n      pop\n      pop\n      pop\n      pop\n      mload(0x40)\n      returndatasize\n      not(0x1f)\n      0x1f\n      dup3\n      add\n      and\n      dup3\n      add\n      dup1\n      0x40\n      mstore\n      pop\n      dup2\n      add\n      swap1\n      tag_478\n      swap2\n      swap1\n      tag_199\n      jump\t// in\n    tag_478:\n        /* \"LmLSMR.sol\":14288:14293  token */\n      sload(0x08)\n        /* \"LmLSMR.sol\":14295:14307  current_cost */\n      sload(0x04)\n        /* \"LmLSMR.sol\":14196:14252  contractBalance = IERC20(token).balanceOf(address(this)) */\n      swap2\n      swap4\n      pop\n        /* \"LmLSMR.sol\":14276:14308  getTokenWei(token, current_cost) */\n      tag_479\n      swap2\n      sub(shl(0xa0, 0x01), 0x01)\n        /* \"LmLSMR.sol\":14288:14293  token */\n      swap1\n      swap2\n      and\n      swap1\n        /* \"LmLSMR.sol\":14295:14307  current_cost */\n      0x0f\n      signextend\n        /* \"LmLSMR.sol\":14276:14287  getTokenWei */\n      tag_60\n        /* \"LmLSMR.sol\":14276:14308  getTokenWei(token, current_cost) */\n      jump\t// in\n    tag_479:\n        /* \"LmLSMR.sol\":14258:14308  theoreticalCost = getTokenWei(token, current_cost) */\n      swap1\n      pop\n        /* \"LmLSMR.sol\":14104:14311  function debugFees() public view returns (uint contractBalance, uint theoreticalCost) {... */\n      swap1\n      swap2\n      jump\t// out\n        /* \"@openzeppelin/contracts/access/Ownable.sol\":2543:2758   */\n    tag_151:\n        /* \"@openzeppelin/contracts/access/Ownable.sol\":1531:1544   */\n      tag_482\n        /* \"@openzeppelin/contracts/access/Ownable.sol\":1531:1542   */\n      tag_193\n        /* \"@openzeppelin/contracts/access/Ownable.sol\":1531:1544   */\n      jump\t// in\n    tag_482:\n      sub(shl(0xa0, 0x01), 0x01)\n        /* \"@openzeppelin/contracts/access/Ownable.sol\":2627:2649   */\n      dup2\n      and\n        /* \"@openzeppelin/contracts/access/Ownable.sol\":2623:2714   */\n      tag_484\n      jumpi\n        /* \"@openzeppelin/contracts/access/Ownable.sol\":2672:2703   */\n      mload(0x40)\n      shl(0xe0, 0x1e4fbdf7)\n      dup2\n      mstore\n        /* \"@openzeppelin/contracts/access/Ownable.sol\":2700:2701   */\n      0x00\n        /* \"@openzeppelin/contracts/access/Ownable.sol\":2672:2703   */\n      0x04\n      dup3\n      add\n        /* \"#utility.yul\":4304:4378   */\n      mstore\n        /* \"#utility.yul\":4277:4295   */\n      0x24\n      add\n        /* \"@openzeppelin/contracts/access/Ownable.sol\":2672:2703   */\n      tag_201\n        /* \"#utility.yul\":4158:4384   */\n      jump\n        /* \"@openzeppelin/contracts/access/Ownable.sol\":2623:2714   */\n    tag_484:\n        /* \"@openzeppelin/contracts/access/Ownable.sol\":2723:2751   */\n      tag_217\n        /* \"@openzeppelin/contracts/access/Ownable.sol\":2742:2750   */\n      dup2\n        /* \"@openzeppelin/contracts/access/Ownable.sol\":2723:2741   */\n      tag_314\n        /* \"@openzeppelin/contracts/access/Ownable.sol\":2723:2751   */\n      jump\t// in\n        /* \"LmLSMR.sol\":3883:5352  function buy(... */\n    tag_154:\n        /* \"LmLSMR.sol\":10349:10353  init */\n      sload(0x08)\n        /* \"LmLSMR.sol\":3974:3987  int128 _price */\n      0x00\n      swap1\n      shl(0xa0, 0x01)\n        /* \"LmLSMR.sol\":10349:10353  init */\n      swap1\n      div\n      0xff\n      and\n        /* \"LmLSMR.sol\":10349:10361  init == true */\n      iszero\n      iszero\n        /* \"LmLSMR.sol\":10357:10361  true */\n      0x01\n        /* \"LmLSMR.sol\":10349:10361  init == true */\n      eq\n        /* \"LmLSMR.sol\":10341:10362  require(init == true) */\n      tag_488\n      jumpi\n      0x00\n      dup1\n      revert\n    tag_488:\n        /* \"LmLSMR.sol\":4013:4024  numOutcomes */\n      sload(0x01)\n        /* \"LmLSMR.sol\":4002:4010  _outcome */\n      dup4\n        /* \"LmLSMR.sol\":4002:4024  _outcome < numOutcomes */\n      lt\n        /* \"LmLSMR.sol\":3994:4050  require(_outcome < numOutcomes, \"Invalid outcome index\") */\n      tag_490\n      jumpi\n      mload(0x40)\n      shl(0xe5, 0x461bcd)\n      dup2\n      mstore\n        /* \"#utility.yul\":11702:11704   */\n      0x20\n        /* \"LmLSMR.sol\":3994:4050  require(_outcome < numOutcomes, \"Invalid outcome index\") */\n      0x04\n      dup3\n      add\n        /* \"#utility.yul\":11684:11705   */\n      mstore\n        /* \"#utility.yul\":11741:11743   */\n      0x15\n        /* \"#utility.yul\":11721:11739   */\n      0x24\n      dup3\n      add\n        /* \"#utility.yul\":11714:11744   */\n      mstore\n      shl(0x5b, 0x092dcecc2d8d2c840deeae8c6dedaca40d2dcc8caf)\n        /* \"#utility.yul\":11760:11778   */\n      0x44\n      dup3\n      add\n        /* \"#utility.yul\":11753:11804   */\n      mstore\n        /* \"#utility.yul\":11821:11839   */\n      0x64\n      add\n        /* \"LmLSMR.sol\":3994:4050  require(_outcome < numOutcomes, \"Invalid outcome index\") */\n      tag_201\n        /* \"#utility.yul\":11500:11845   */\n      jump\n        /* \"LmLSMR.sol\":3994:4050  require(_outcome < numOutcomes, \"Invalid outcome index\") */\n    tag_490:\n        /* \"LmLSMR.sol\":4074:4075  0 */\n      0x00\n        /* \"LmLSMR.sol\":4064:4071  _amount */\n      dup3\n        /* \"LmLSMR.sol\":4064:4075  _amount > 0 */\n      0x0f\n      signextend\n      sgt\n        /* \"LmLSMR.sol\":4056:4103  require(_amount > 0, \"Amount must be positive\") */\n      tag_492\n      jumpi\n      mload(0x40)\n      shl(0xe5, 0x461bcd)\n      dup2\n      mstore\n        /* \"#utility.yul\":14838:14840   */\n      0x20\n        /* \"LmLSMR.sol\":4056:4103  require(_amount > 0, \"Amount must be positive\") */\n      0x04\n      dup3\n      add\n        /* \"#utility.yul\":14820:14841   */\n      mstore\n        /* \"#utility.yul\":14877:14879   */\n      0x17\n        /* \"#utility.yul\":14857:14875   */\n      0x24\n      dup3\n      add\n        /* \"#utility.yul\":14850:14880   */\n      mstore\n        /* \"#utility.yul\":14916:14941   */\n      0x416d6f756e74206d75737420626520706f736974697665000000000000000000\n        /* \"#utility.yul\":14896:14914   */\n      0x44\n      dup3\n      add\n        /* \"#utility.yul\":14889:14942   */\n      mstore\n        /* \"#utility.yul\":14959:14977   */\n      0x64\n      add\n        /* \"LmLSMR.sol\":4056:4103  require(_amount > 0, \"Amount must be positive\") */\n      tag_201\n        /* \"#utility.yul\":14636:14983   */\n      jump\n        /* \"LmLSMR.sol\":4056:4103  require(_amount > 0, \"Amount must be positive\") */\n    tag_492:\n        /* \"LmLSMR.sol\":4117:4119  CT */\n      sload(0x07)\n        /* \"LmLSMR.sol\":4138:4147  condition */\n      sload(0x06)\n        /* \"LmLSMR.sol\":4117:4148  CT.payoutDenominator(condition) */\n      mload(0x40)\n      shl(0xe0, 0xdd34de67)\n      dup2\n      mstore\n      sub(shl(0xa0, 0x01), 0x01)\n        /* \"LmLSMR.sol\":4117:4119  CT */\n      swap1\n      swap3\n      and\n      swap2\n        /* \"LmLSMR.sol\":4117:4137  CT.payoutDenominator */\n      0xdd34de67\n      swap2\n        /* \"LmLSMR.sol\":4117:4148  CT.payoutDenominator(condition) */\n      tag_494\n      swap2\n      0x04\n      add\n        /* \"#utility.yul\":1729:1754   */\n      swap1\n      dup2\n      mstore\n        /* \"#utility.yul\":1717:1719   */\n      0x20\n        /* \"#utility.yul\":1702:1720   */\n      add\n      swap1\n        /* \"#utility.yul\":1583:1760   */\n      jump\n        /* \"LmLSMR.sol\":4117:4148  CT.payoutDenominator(condition) */\n    tag_494:\n      0x20\n      mload(0x40)\n      dup1\n      dup4\n      sub\n      dup2\n      dup7\n      gas\n      staticcall\n      iszero\n      dup1\n      iszero\n      tag_496\n      jumpi\n      returndatasize\n      0x00\n      dup1\n      returndatacopy\n      revert(0x00, returndatasize)\n    tag_496:\n      pop\n      pop\n      pop\n      pop\n      mload(0x40)\n      returndatasize\n      not(0x1f)\n      0x1f\n      dup3\n      add\n      and\n      dup3\n      add\n      dup1\n      0x40\n      mstore\n      pop\n      dup2\n      add\n      swap1\n      tag_497\n      swap2\n      swap1\n      tag_199\n      jump\t// in\n    tag_497:\n        /* \"LmLSMR.sol\":4117:4153  CT.payoutDenominator(condition) == 0 */\n      iszero\n        /* \"LmLSMR.sol\":4109:4181  require(CT.payoutDenominator(condition) == 0, 'Market already resolved') */\n      tag_498\n      jumpi\n      mload(0x40)\n      shl(0xe5, 0x461bcd)\n      dup2\n      mstore\n        /* \"#utility.yul\":15190:15192   */\n      0x20\n        /* \"LmLSMR.sol\":4109:4181  require(CT.payoutDenominator(condition) == 0, 'Market already resolved') */\n      0x04\n      dup3\n      add\n        /* \"#utility.yul\":15172:15193   */\n      mstore\n        /* \"#utility.yul\":15229:15231   */\n      0x17\n        /* \"#utility.yul\":15209:15227   */\n      0x24\n      dup3\n      add\n        /* \"#utility.yul\":15202:15232   */\n      mstore\n        /* \"#utility.yul\":15268:15293   */\n      0x4d61726b657420616c7265616479207265736f6c766564000000000000000000\n        /* \"#utility.yul\":15248:15266   */\n      0x44\n      dup3\n      add\n        /* \"#utility.yul\":15241:15294   */\n      mstore\n        /* \"#utility.yul\":15311:15329   */\n      0x64\n      add\n        /* \"LmLSMR.sol\":4109:4181  require(CT.payoutDenominator(condition) == 0, 'Market already resolved') */\n      tag_201\n        /* \"#utility.yul\":14988:15335   */\n      jump\n        /* \"LmLSMR.sol\":4109:4181  require(CT.payoutDenominator(condition) == 0, 'Market already resolved') */\n    tag_498:\n        /* \"LmLSMR.sol\":4202:4236  ABDKMath.add(q[_outcome], _amount) */\n      tag_500\n        /* \"LmLSMR.sol\":4215:4216  q */\n      0x02\n        /* \"LmLSMR.sol\":4217:4225  _outcome */\n      dup5\n        /* \"LmLSMR.sol\":4215:4226  q[_outcome] */\n      dup2\n      sload\n      dup2\n      lt\n      tag_283\n      jumpi\n      tag_283\n      tag_180\n      jump\t// in\n        /* \"LmLSMR.sol\":4202:4236  ABDKMath.add(q[_outcome], _amount) */\n    tag_500:\n        /* \"LmLSMR.sol\":4188:4189  q */\n      0x02\n        /* \"LmLSMR.sol\":4190:4198  _outcome */\n      dup5\n        /* \"LmLSMR.sol\":4188:4199  q[_outcome] */\n      dup2\n      sload\n      dup2\n      lt\n      tag_505\n      jumpi\n      tag_505\n      tag_180\n      jump\t// in\n    tag_505:\n      swap1\n      0x00\n      mstore\n      keccak256(0x00, 0x20)\n      swap1\n      0x02\n      swap2\n      dup3\n      dup3\n      div\n      add\n      swap2\n      swap1\n      mod\n      0x10\n      mul\n        /* \"LmLSMR.sol\":4188:4236  q[_outcome] = ABDKMath.add(q[_outcome], _amount) */\n      0x0100\n      exp\n      dup2\n      sload\n      dup2\n      sub(shl(0x80, 0x01), 0x01)\n      mul\n      not\n      and\n      swap1\n      dup4\n      0x0f\n      signextend\n      sub(shl(0x80, 0x01), 0x01)\n      and\n      mul\n      or\n      swap1\n      sstore\n      pop\n        /* \"LmLSMR.sol\":4257:4292  ABDKMath.add(total_shares, _amount) */\n      tag_507\n        /* \"LmLSMR.sol\":4270:4282  total_shares */\n      0x04\n      0x10\n      swap1\n      sload\n      swap1\n      0x0100\n      exp\n      swap1\n      div\n      0x0f\n      signextend\n        /* \"LmLSMR.sol\":4284:4291  _amount */\n      dup4\n        /* \"LmLSMR.sol\":4257:4269  ABDKMath.add */\n      tag_184\n        /* \"LmLSMR.sol\":4257:4292  ABDKMath.add(total_shares, _amount) */\n      jump\t// in\n    tag_507:\n        /* \"LmLSMR.sol\":4242:4254  total_shares */\n      0x04\n        /* \"LmLSMR.sol\":4242:4292  total_shares = ABDKMath.add(total_shares, _amount) */\n      dup1\n      sload\n      sub(shl(0x80, 0x01), 0x01)\n      swap1\n      dup2\n      and\n      shl(0x80, 0x01)\n      swap4\n      swap1\n      swap2\n      and\n      dup4\n      mul\n      or\n      swap1\n      dup2\n      swap1\n      sstore\n        /* \"LmLSMR.sol\":4329:4334  alpha */\n      sload(0x03)\n        /* \"LmLSMR.sol\":4302:4335  ABDKMath.mul(total_shares, alpha) */\n      tag_508\n      swap3\n        /* \"LmLSMR.sol\":4315:4327  total_shares */\n      swap2\n      dup3\n      swap1\n      div\n        /* \"LmLSMR.sol\":4242:4292  total_shares = ABDKMath.add(total_shares, _amount) */\n      0x0f\n        /* \"LmLSMR.sol\":4315:4327  total_shares */\n      swap1\n      dup2\n      signextend\n      swap3\n        /* \"LmLSMR.sol\":4329:4334  alpha */\n      swap1\n      swap2\n      div\n      swap1\n      signextend\n        /* \"LmLSMR.sol\":4302:4314  ABDKMath.mul */\n      tag_188\n        /* \"LmLSMR.sol\":4302:4335  ABDKMath.mul(total_shares, alpha) */\n      jump\t// in\n    tag_508:\n        /* \"LmLSMR.sol\":4298:4299  b */\n      0x03\n        /* \"LmLSMR.sol\":4298:4335  b = ABDKMath.mul(total_shares, alpha) */\n      dup1\n      sload\n      not(sub(shl(0x80, 0x01), 0x01))\n      and\n      sub(shl(0x80, 0x01), 0x01)\n      swap3\n      swap1\n      swap3\n      and\n      swap2\n      swap1\n      swap2\n      or\n      swap1\n      sstore\n      0x00\n      dup1\n        /* \"LmLSMR.sol\":4364:4516  for(uint i=0; i< numOutcomes; i++) {... */\n    tag_509:\n        /* \"LmLSMR.sol\":4381:4392  numOutcomes */\n      sload(0x01)\n        /* \"LmLSMR.sol\":4378:4379  i */\n      dup2\n        /* \"LmLSMR.sol\":4378:4392  i< numOutcomes */\n      lt\n        /* \"LmLSMR.sol\":4364:4516  for(uint i=0; i< numOutcomes; i++) {... */\n      iszero\n      tag_510\n      jumpi\n        /* \"LmLSMR.sol\":4419:4509  ABDKMath.add(sum_total,... */\n      tag_512\n        /* \"LmLSMR.sol\":4432:4441  sum_total */\n      dup3\n        /* \"LmLSMR.sol\":4451:4508  ABDKMath.exp(... */\n      tag_176\n        /* \"LmLSMR.sol\":4475:4496  ABDKMath.div(q[i], b) */\n      tag_177\n        /* \"LmLSMR.sol\":4488:4489  q */\n      0x02\n        /* \"LmLSMR.sol\":4490:4491  i */\n      dup6\n        /* \"LmLSMR.sol\":4488:4492  q[i] */\n      dup2\n      sload\n      dup2\n      lt\n      tag_179\n      jumpi\n      tag_179\n      tag_180\n      jump\t// in\n        /* \"LmLSMR.sol\":4419:4509  ABDKMath.add(sum_total,... */\n    tag_512:\n        /* \"LmLSMR.sol\":4407:4509  sum_total = ABDKMath.add(sum_total,... */\n      swap2\n      pop\n        /* \"LmLSMR.sol\":4394:4397  i++ */\n      0x01\n      add\n        /* \"LmLSMR.sol\":4364:4516  for(uint i=0; i< numOutcomes; i++) {... */\n      jump(tag_509)\n    tag_510:\n      pop\n        /* \"LmLSMR.sol\":4553:4554  b */\n      sload(0x03)\n        /* \"LmLSMR.sol\":4522:4537  int128 new_cost */\n      0x00\n      swap1\n        /* \"LmLSMR.sol\":4540:4578  ABDKMath.mul(b,ABDKMath.ln(sum_total)) */\n      tag_518\n      swap1\n        /* \"LmLSMR.sol\":4553:4554  b */\n      0x0f\n      signextend\n        /* \"LmLSMR.sol\":4555:4577  ABDKMath.ln(sum_total) */\n      tag_186\n        /* \"LmLSMR.sol\":4567:4576  sum_total */\n      dup5\n        /* \"LmLSMR.sol\":4555:4566  ABDKMath.ln */\n      tag_187\n        /* \"LmLSMR.sol\":4555:4577  ABDKMath.ln(sum_total) */\n      jump\t// in\n        /* \"LmLSMR.sol\":4540:4578  ABDKMath.mul(b,ABDKMath.ln(sum_total)) */\n    tag_518:\n        /* \"LmLSMR.sol\":4615:4627  current_cost */\n      sload(0x04)\n        /* \"LmLSMR.sol\":4522:4578  int128 new_cost = ABDKMath.mul(b,ABDKMath.ln(sum_total)) */\n      swap1\n      swap2\n      pop\n        /* \"LmLSMR.sol\":4593:4628  ABDKMath.sub(new_cost,current_cost) */\n      tag_520\n      swap1\n        /* \"LmLSMR.sol\":4522:4578  int128 new_cost = ABDKMath.mul(b,ABDKMath.ln(sum_total)) */\n      dup3\n      swap1\n        /* \"LmLSMR.sol\":4615:4627  current_cost */\n      0x0f\n      signextend\n        /* \"LmLSMR.sol\":4593:4605  ABDKMath.sub */\n      tag_427\n        /* \"LmLSMR.sol\":4593:4628  ABDKMath.sub(new_cost,current_cost) */\n      jump\t// in\n    tag_520:\n        /* \"LmLSMR.sol\":4634:4646  current_cost */\n      0x04\n        /* \"LmLSMR.sol\":4634:4657  current_cost = new_cost */\n      dup1\n      sload\n      not(sub(shl(0x80, 0x01), 0x01))\n      and\n      sub(shl(0x80, 0x01), 0x01)\n      dup5\n      and\n      or\n      swap1\n      sstore\n        /* \"LmLSMR.sol\":4694:4699  token */\n      sload(0x08)\n        /* \"LmLSMR.sol\":4584:4628  _price = ABDKMath.sub(new_cost,current_cost) */\n      swap1\n      swap4\n      pop\n      0x00\n      swap1\n        /* \"LmLSMR.sol\":4682:4708  getTokenWei(token, _price) */\n      tag_521\n      swap1\n      sub(shl(0xa0, 0x01), 0x01)\n        /* \"LmLSMR.sol\":4694:4699  token */\n      and\n        /* \"LmLSMR.sol\":4584:4628  _price = ABDKMath.sub(new_cost,current_cost) */\n      dup6\n        /* \"LmLSMR.sol\":4682:4693  getTokenWei */\n      tag_60\n        /* \"LmLSMR.sol\":4682:4708  getTokenWei(token, _price) */\n      jump\t// in\n    tag_521:\n        /* \"LmLSMR.sol\":4750:4755  token */\n      sload(0x08)\n        /* \"LmLSMR.sol\":4664:4708  uint token_cost = getTokenWei(token, _price) */\n      swap1\n      swap2\n      pop\n        /* \"LmLSMR.sol\":4714:4735  uint n_outcome_tokens */\n      0x00\n      swap1\n        /* \"LmLSMR.sol\":4738:4765  getTokenWei(token, _amount) */\n      tag_522\n      swap1\n      sub(shl(0xa0, 0x01), 0x01)\n        /* \"LmLSMR.sol\":4750:4755  token */\n      and\n        /* \"LmLSMR.sol\":4757:4764  _amount */\n      dup8\n        /* \"LmLSMR.sol\":4738:4749  getTokenWei */\n      tag_60\n        /* \"LmLSMR.sol\":4738:4765  getTokenWei(token, _amount) */\n      jump\t// in\n    tag_522:\n        /* \"LmLSMR.sol\":4782:4784  CT */\n      sload(0x07)\n        /* \"LmLSMR.sol\":4806:4811  token */\n      sload(0x08)\n        /* \"LmLSMR.sol\":4851:4860  condition */\n      sload(0x06)\n        /* \"LmLSMR.sol\":4820:4876  CT.getCollectionId(bytes32(0), condition, 1 << _outcome) */\n      mload(0x40)\n      shl(0xe0, 0x856296f7)\n      dup2\n      mstore\n        /* \"LmLSMR.sol\":4771:4779  uint pos */\n      0x00\n        /* \"LmLSMR.sol\":4820:4876  CT.getCollectionId(bytes32(0), condition, 1 << _outcome) */\n      0x04\n      dup3\n      add\n        /* \"#utility.yul\":15896:15921   */\n      dup2\n      swap1\n      mstore\n        /* \"#utility.yul\":15937:15955   */\n      0x24\n      dup3\n      add\n        /* \"#utility.yul\":15930:15964   */\n      swap3\n      swap1\n      swap3\n      mstore\n        /* \"LmLSMR.sol\":4782:4784  CT */\n      0x01\n        /* \"LmLSMR.sol\":4862:4875  1 << _outcome */\n      dup13\n      shl\n        /* \"#utility.yul\":15980:15998   */\n      0x44\n      dup3\n      add\n        /* \"#utility.yul\":15973:16007   */\n      mstore\n        /* \"LmLSMR.sol\":4714:4765  uint n_outcome_tokens = getTokenWei(token, _amount) */\n      swap4\n      swap5\n      pop\n        /* \"LmLSMR.sol\":4771:4779  uint pos */\n      swap3\n      sub(shl(0xa0, 0x01), 0x01)\n        /* \"LmLSMR.sol\":4782:4784  CT */\n      swap3\n      dup4\n      and\n      swap3\n        /* \"LmLSMR.sol\":4782:4798  CT.getPositionId */\n      0x39dd7530\n      swap3\n        /* \"LmLSMR.sol\":4806:4811  token */\n      and\n      swap1\n        /* \"LmLSMR.sol\":4782:4784  CT */\n      dup4\n      swap1\n        /* \"LmLSMR.sol\":4820:4838  CT.getCollectionId */\n      0x856296f7\n      swap1\n        /* \"#utility.yul\":15869:15887   */\n      0x64\n      add\n        /* \"LmLSMR.sol\":4820:4876  CT.getCollectionId(bytes32(0), condition, 1 << _outcome) */\n      0x20\n      mload(0x40)\n      dup1\n      dup4\n      sub\n      dup2\n      dup7\n      gas\n      staticcall\n      iszero\n      dup1\n      iszero\n      tag_525\n      jumpi\n      returndatasize\n      0x00\n      dup1\n      returndatacopy\n      revert(0x00, returndatasize)\n    tag_525:\n      pop\n      pop\n      pop\n      pop\n      mload(0x40)\n      returndatasize\n      not(0x1f)\n      0x1f\n      dup3\n      add\n      and\n      dup3\n      add\n      dup1\n      0x40\n      mstore\n      pop\n      dup2\n      add\n      swap1\n      tag_526\n      swap2\n      swap1\n      tag_199\n      jump\t// in\n    tag_526:\n        /* \"LmLSMR.sol\":4782:4877  CT.getPositionId(IERC20(token),... */\n      mload(0x40)\n      not(sub(shl(0xe0, 0x01), 0x01))\n      0xe0\n      dup6\n      swap1\n      shl\n      and\n      dup2\n      mstore\n      sub(shl(0xa0, 0x01), 0x01)\n        /* \"#utility.yul\":16225:16280   */\n      swap1\n      swap3\n      and\n        /* \"LmLSMR.sol\":4782:4877  CT.getPositionId(IERC20(token),... */\n      0x04\n      dup4\n      add\n        /* \"#utility.yul\":16207:16281   */\n      mstore\n        /* \"#utility.yul\":16297:16315   */\n      0x24\n      dup3\n      add\n        /* \"#utility.yul\":16290:16324   */\n      mstore\n        /* \"#utility.yul\":16180:16198   */\n      0x44\n      add\n        /* \"LmLSMR.sol\":4782:4877  CT.getPositionId(IERC20(token),... */\n      0x20\n      mload(0x40)\n      dup1\n      dup4\n      sub\n      dup2\n      dup7\n      gas\n      staticcall\n      iszero\n      dup1\n      iszero\n      tag_529\n      jumpi\n      returndatasize\n      0x00\n      dup1\n      returndatacopy\n      revert(0x00, returndatasize)\n    tag_529:\n      pop\n      pop\n      pop\n      pop\n      mload(0x40)\n      returndatasize\n      not(0x1f)\n      0x1f\n      dup3\n      add\n      and\n      dup3\n      add\n      dup1\n      0x40\n      mstore\n      pop\n      dup2\n      add\n      swap1\n      tag_530\n      swap2\n      swap1\n      tag_199\n      jump\t// in\n    tag_530:\n        /* \"LmLSMR.sol\":4899:4904  token */\n      sload(0x08)\n        /* \"LmLSMR.sol\":4892:4957  IERC20(token).transferFrom(msg.sender, address(this), token_cost) */\n      mload(0x40)\n      shl(0xe0, 0x23b872dd)\n      dup2\n      mstore\n        /* \"LmLSMR.sol\":4919:4929  msg.sender */\n      caller\n        /* \"LmLSMR.sol\":4892:4957  IERC20(token).transferFrom(msg.sender, address(this), token_cost) */\n      0x04\n      dup3\n      add\n        /* \"#utility.yul\":17253:17287   */\n      mstore\n        /* \"LmLSMR.sol\":4939:4943  this */\n      address\n        /* \"#utility.yul\":17303:17321   */\n      0x24\n      dup3\n      add\n        /* \"#utility.yul\":17296:17339   */\n      mstore\n        /* \"#utility.yul\":17355:17373   */\n      0x44\n      dup2\n      add\n        /* \"#utility.yul\":17348:17382   */\n      dup7\n      swap1\n      mstore\n        /* \"LmLSMR.sol\":4771:4877  uint pos = CT.getPositionId(IERC20(token),... */\n      swap2\n      swap3\n      pop\n      sub(shl(0xa0, 0x01), 0x01)\n        /* \"LmLSMR.sol\":4899:4904  token */\n      and\n      swap1\n        /* \"LmLSMR.sol\":4892:4918  IERC20(token).transferFrom */\n      0x23b872dd\n      swap1\n        /* \"#utility.yul\":17165:17183   */\n      0x64\n      add\n        /* \"LmLSMR.sol\":4892:4957  IERC20(token).transferFrom(msg.sender, address(this), token_cost) */\n      0x20\n      mload(0x40)\n      dup1\n      dup4\n      sub\n      dup2\n      0x00\n      dup8\n      gas\n      call\n      iszero\n      dup1\n      iszero\n      tag_534\n      jumpi\n      returndatasize\n      0x00\n      dup1\n      returndatacopy\n      revert(0x00, returndatasize)\n    tag_534:\n      pop\n      pop\n      pop\n      pop\n      mload(0x40)\n      returndatasize\n      not(0x1f)\n      0x1f\n      dup3\n      add\n      and\n      dup3\n      add\n      dup1\n      0x40\n      mstore\n      pop\n      dup2\n      add\n      swap1\n      tag_535\n      swap2\n      swap1\n      tag_536\n      jump\t// in\n    tag_535:\n        /* \"LmLSMR.sol\":4884:4993  require(IERC20(token).transferFrom(msg.sender, address(this), token_cost),... */\n      tag_537\n      jumpi\n      mload(0x40)\n      shl(0xe5, 0x461bcd)\n      dup2\n      mstore\n        /* \"#utility.yul\":17877:17879   */\n      0x20\n        /* \"LmLSMR.sol\":4884:4993  require(IERC20(token).transferFrom(msg.sender, address(this), token_cost),... */\n      0x04\n      dup3\n      add\n        /* \"#utility.yul\":17859:17880   */\n      mstore\n        /* \"#utility.yul\":17916:17918   */\n      0x19\n        /* \"#utility.yul\":17896:17914   */\n      0x24\n      dup3\n      add\n        /* \"#utility.yul\":17889:17919   */\n      mstore\n        /* \"#utility.yul\":17955:17982   */\n      0x4572726f72207472616e7366657272696e6720746f6b656e7300000000000000\n        /* \"#utility.yul\":17935:17953   */\n      0x44\n      dup3\n      add\n        /* \"#utility.yul\":17928:17983   */\n      mstore\n        /* \"#utility.yul\":18000:18018   */\n      0x64\n      add\n        /* \"LmLSMR.sol\":4884:4993  require(IERC20(token).transferFrom(msg.sender, address(this), token_cost),... */\n      tag_201\n        /* \"#utility.yul\":17675:18024   */\n      jump\n        /* \"LmLSMR.sol\":4884:4993  require(IERC20(token).transferFrom(msg.sender, address(this), token_cost),... */\n    tag_537:\n        /* \"LmLSMR.sol\":5003:5005  CT */\n      sload(0x07)\n        /* \"LmLSMR.sol\":5003:5035  CT.balanceOf(address(this), pos) */\n      mload(0x40)\n      shl(0xe1, 0x7eeac7)\n      dup2\n      mstore\n        /* \"LmLSMR.sol\":5024:5028  this */\n      address\n        /* \"LmLSMR.sol\":5003:5035  CT.balanceOf(address(this), pos) */\n      0x04\n      dup3\n      add\n        /* \"#utility.yul\":16207:16281   */\n      mstore\n        /* \"#utility.yul\":16297:16315   */\n      0x24\n      dup2\n      add\n        /* \"#utility.yul\":16290:16324   */\n      dup4\n      swap1\n      mstore\n        /* \"LmLSMR.sol\":5038:5054  n_outcome_tokens */\n      dup4\n      swap2\n      sub(shl(0xa0, 0x01), 0x01)\n        /* \"LmLSMR.sol\":5003:5005  CT */\n      and\n      swap1\n        /* \"LmLSMR.sol\":5003:5015  CT.balanceOf */\n      0xfdd58e\n      swap1\n        /* \"#utility.yul\":16180:16198   */\n      0x44\n      add\n        /* \"LmLSMR.sol\":5003:5035  CT.balanceOf(address(this), pos) */\n      0x20\n      mload(0x40)\n      dup1\n      dup4\n      sub\n      dup2\n      dup7\n      gas\n      staticcall\n      iszero\n      dup1\n      iszero\n      tag_543\n      jumpi\n      returndatasize\n      0x00\n      dup1\n      returndatacopy\n      revert(0x00, returndatasize)\n    tag_543:\n      pop\n      pop\n      pop\n      pop\n      mload(0x40)\n      returndatasize\n      not(0x1f)\n      0x1f\n      dup3\n      add\n      and\n      dup3\n      add\n      dup1\n      0x40\n      mstore\n      pop\n      dup2\n      add\n      swap1\n      tag_544\n      swap2\n      swap1\n      tag_199\n      jump\t// in\n    tag_544:\n        /* \"LmLSMR.sol\":5003:5054  CT.balanceOf(address(this), pos) < n_outcome_tokens */\n      lt\n        /* \"LmLSMR.sol\":5000:5263  if(CT.balanceOf(address(this), pos) < n_outcome_tokens) {... */\n      iszero\n      tag_545\n      jumpi\n        /* \"LmLSMR.sol\":5071:5076  token */\n      sload(0x08)\n        /* \"LmLSMR.sol\":5094:5096  CT */\n      sload(0x07)\n      sub(shl(0xa0, 0x01), 0x01)\n        /* \"LmLSMR.sol\":5071:5076  token */\n      swap2\n      dup3\n      and\n      swap2\n        /* \"LmLSMR.sol\":5064:5085  IERC20(token).approve */\n      0x095ea7b3\n      swap2\n        /* \"LmLSMR.sol\":5094:5096  CT */\n      and\n        /* \"LmLSMR.sol\":5099:5126  getTokenWei(token, _amount) */\n      tag_546\n        /* \"LmLSMR.sol\":5071:5076  token */\n      dup4\n        /* \"LmLSMR.sol\":5118:5125  _amount */\n      dup12\n        /* \"LmLSMR.sol\":5099:5110  getTokenWei */\n      tag_60\n        /* \"LmLSMR.sol\":5099:5126  getTokenWei(token, _amount) */\n      jump\t// in\n    tag_546:\n        /* \"LmLSMR.sol\":5064:5127  IERC20(token).approve(address(CT), getTokenWei(token, _amount)) */\n      mload(0x40)\n      not(sub(shl(0xe0, 0x01), 0x01))\n      0xe0\n      dup6\n      swap1\n      shl\n      and\n      dup2\n      mstore\n      sub(shl(0xa0, 0x01), 0x01)\n        /* \"#utility.yul\":16225:16280   */\n      swap1\n      swap3\n      and\n        /* \"LmLSMR.sol\":5064:5127  IERC20(token).approve(address(CT), getTokenWei(token, _amount)) */\n      0x04\n      dup4\n      add\n        /* \"#utility.yul\":16207:16281   */\n      mstore\n        /* \"#utility.yul\":16297:16315   */\n      0x24\n      dup3\n      add\n        /* \"#utility.yul\":16290:16324   */\n      mstore\n        /* \"#utility.yul\":16180:16198   */\n      0x44\n      add\n        /* \"LmLSMR.sol\":5064:5127  IERC20(token).approve(address(CT), getTokenWei(token, _amount)) */\n      0x20\n      mload(0x40)\n      dup1\n      dup4\n      sub\n      dup2\n      0x00\n      dup8\n      gas\n      call\n      iszero\n      dup1\n      iszero\n      tag_549\n      jumpi\n      returndatasize\n      0x00\n      dup1\n      returndatacopy\n      revert(0x00, returndatasize)\n    tag_549:\n      pop\n      pop\n      pop\n      pop\n      mload(0x40)\n      returndatasize\n      not(0x1f)\n      0x1f\n      dup3\n      add\n      and\n      dup3\n      add\n      dup1\n      0x40\n      mstore\n      pop\n      dup2\n      add\n      swap1\n      tag_550\n      swap2\n      swap1\n      tag_536\n      jump\t// in\n    tag_550:\n      pop\n        /* \"LmLSMR.sol\":5135:5137  CT */\n      sload(0x07)\n        /* \"LmLSMR.sol\":5159:5164  token */\n      sload(0x08)\n        /* \"LmLSMR.sol\":5179:5188  condition */\n      sload(0x06)\n      sub(shl(0xa0, 0x01), 0x01)\n        /* \"LmLSMR.sol\":5135:5137  CT */\n      swap3\n      dup4\n      and\n      swap3\n        /* \"LmLSMR.sol\":5135:5151  CT.splitPosition */\n      0x72ce4275\n      swap3\n        /* \"LmLSMR.sol\":5159:5164  token */\n      and\n      swap1\n        /* \"LmLSMR.sol\":5135:5137  CT */\n      0x00\n      swap1\n        /* \"LmLSMR.sol\":5198:5235  getPositionAndDustPositions(_outcome) */\n      tag_551\n        /* \"LmLSMR.sol\":5226:5234  _outcome */\n      dup14\n        /* \"LmLSMR.sol\":5198:5225  getPositionAndDustPositions */\n      tag_104\n        /* \"LmLSMR.sol\":5198:5235  getPositionAndDustPositions(_outcome) */\n      jump\t// in\n    tag_551:\n        /* \"LmLSMR.sol\":5237:5253  n_outcome_tokens */\n      dup8\n        /* \"LmLSMR.sol\":5135:5254  CT.splitPosition(IERC20(token), bytes32(0), condition,... */\n      mload(0x40)\n      dup7\n      0xffffffff\n      and\n      0xe0\n      shl\n      dup2\n      mstore\n      0x04\n      add\n      tag_552\n      swap6\n      swap5\n      swap4\n      swap3\n      swap2\n      swap1\n      tag_553\n      jump\t// in\n    tag_552:\n      0x00\n      mload(0x40)\n      dup1\n      dup4\n      sub\n      dup2\n      0x00\n      dup8\n      dup1\n      extcodesize\n      iszero\n      dup1\n      iszero\n      tag_554\n      jumpi\n      0x00\n      dup1\n      revert\n    tag_554:\n      pop\n      gas\n      call\n      iszero\n      dup1\n      iszero\n      tag_556\n      jumpi\n      returndatasize\n      0x00\n      dup1\n      returndatacopy\n      revert(0x00, returndatasize)\n    tag_556:\n      pop\n      pop\n      pop\n      pop\n        /* \"LmLSMR.sol\":5000:5263  if(CT.balanceOf(address(this), pos) < n_outcome_tokens) {... */\n    tag_545:\n        /* \"LmLSMR.sol\":5268:5270  CT */\n      sload(0x07)\n        /* \"LmLSMR.sol\":5268:5347  CT.safeTransferFrom(address(this), msg.sender,... */\n      mload(0x40)\n      shl(0xe1, 0x79212195)\n      dup2\n      mstore\n        /* \"LmLSMR.sol\":5296:5300  this */\n      address\n        /* \"LmLSMR.sol\":5268:5347  CT.safeTransferFrom(address(this), msg.sender,... */\n      0x04\n      dup3\n      add\n        /* \"#utility.yul\":16691:16725   */\n      mstore\n        /* \"LmLSMR.sol\":5303:5313  msg.sender */\n      caller\n        /* \"#utility.yul\":16741:16759   */\n      0x24\n      dup3\n      add\n        /* \"#utility.yul\":16734:16777   */\n      mstore\n        /* \"#utility.yul\":16793:16811   */\n      0x44\n      dup2\n      add\n        /* \"#utility.yul\":16786:16820   */\n      dup4\n      swap1\n      mstore\n        /* \"#utility.yul\":16836:16854   */\n      0x64\n      dup2\n      add\n        /* \"#utility.yul\":16829:16863   */\n      dup5\n      swap1\n      mstore\n        /* \"#utility.yul\":16900:16903   */\n      0xa0\n        /* \"#utility.yul\":16879:16898   */\n      0x84\n      dup3\n      add\n        /* \"#utility.yul\":16872:16904   */\n      mstore\n      0x00\n        /* \"#utility.yul\":16920:16939   */\n      0xa4\n      dup3\n      add\n        /* \"#utility.yul\":16913:16943   */\n      mstore\n      sub(shl(0xa0, 0x01), 0x01)\n        /* \"LmLSMR.sol\":5268:5270  CT */\n      swap1\n      swap2\n      and\n      swap1\n        /* \"LmLSMR.sol\":5268:5287  CT.safeTransferFrom */\n      0xf242432a\n      swap1\n        /* \"#utility.yul\":16960:16979   */\n      0xc4\n      add\n        /* \"LmLSMR.sol\":5268:5347  CT.safeTransferFrom(address(this), msg.sender,... */\n      0x00\n      mload(0x40)\n      dup1\n      dup4\n      sub\n      dup2\n      0x00\n      dup8\n      dup1\n      extcodesize\n      iszero\n      dup1\n      iszero\n      tag_558\n      jumpi\n      0x00\n      dup1\n      revert\n    tag_558:\n      pop\n      gas\n      call\n      iszero\n      dup1\n      iszero\n      tag_560\n      jumpi\n      returndatasize\n      0x00\n      dup1\n      returndatacopy\n      revert(0x00, returndatasize)\n    tag_560:\n      pop\n      pop\n      pop\n      pop\n        /* \"LmLSMR.sol\":3988:5352  {... */\n      pop\n      pop\n      pop\n      pop\n      pop\n        /* \"LmLSMR.sol\":3883:5352  function buy(... */\n      swap3\n      swap2\n      pop\n      pop\n      jump\t// out\n        /* \"ABDKMath64x64.sol\":8684:8917  function divu (uint256 x, uint256 y) internal pure returns (int128) {... */\n    tag_168:\n        /* \"ABDKMath64x64.sol\":8744:8750  int128 */\n      0x00\n        /* \"ABDKMath64x64.sol\":8785:8786  y */\n      dup2\n        /* \"ABDKMath64x64.sol\":8790:8791  0 */\n      0x00\n        /* \"ABDKMath64x64.sol\":8785:8791  y != 0 */\n      sub\n        /* \"ABDKMath64x64.sol\":8776:8792  require (y != 0) */\n      tag_562\n      jumpi\n      0x00\n      dup1\n      revert\n    tag_562:\n        /* \"ABDKMath64x64.sol\":8800:8814  uint128 result */\n      0x00\n        /* \"ABDKMath64x64.sol\":8817:8829  divuu (x, y) */\n      tag_563\n        /* \"ABDKMath64x64.sol\":8824:8825  x */\n      dup5\n        /* \"ABDKMath64x64.sol\":8827:8828  y */\n      dup5\n        /* \"ABDKMath64x64.sol\":8817:8822  divuu */\n      tag_564\n        /* \"ABDKMath64x64.sol\":8817:8829  divuu (x, y) */\n      jump\t// in\n    tag_563:\n        /* \"ABDKMath64x64.sol\":8800:8829  uint128 result = divuu (x, y) */\n      swap1\n      pop\n      sub(shl(0x7f, 0x01), 0x01)\n      sub(shl(0x80, 0x01), 0x01)\n        /* \"ABDKMath64x64.sol\":8846:8875  result <= uint128 (MAX_64x64) */\n      dup3\n      and\n      gt\n      iszero\n        /* \"ABDKMath64x64.sol\":8837:8876  require (result <= uint128 (MAX_64x64)) */\n      tag_299\n      jumpi\n      0x00\n      dup1\n      revert\n        /* \"ABDKMath64x64.sol\":7033:7285  function div (int128 x, int128 y) internal pure returns (int128) {... */\n    tag_182:\n        /* \"ABDKMath64x64.sol\":7090:7096  int128 */\n      0x00\n        /* \"ABDKMath64x64.sol\":7131:7132  y */\n      dup2\n        /* \"ABDKMath64x64.sol\":7131:7137  y != 0 */\n      0x0f\n      signextend\n        /* \"ABDKMath64x64.sol\":7136:7137  0 */\n      0x00\n        /* \"ABDKMath64x64.sol\":7131:7137  y != 0 */\n      sub\n        /* \"ABDKMath64x64.sol\":7122:7138  require (y != 0) */\n      tag_567\n      jumpi\n      0x00\n      dup1\n      revert\n    tag_567:\n        /* \"ABDKMath64x64.sol\":7146:7159  int256 result */\n      0x00\n        /* \"ABDKMath64x64.sol\":7183:7184  y */\n      dup3\n        /* \"ABDKMath64x64.sol\":7162:7184  (int256 (x) << 64) / y */\n      0x0f\n      signextend\n        /* \"ABDKMath64x64.sol\":7177:7179  64 */\n      0x40\n        /* \"ABDKMath64x64.sol\":7171:7172  x */\n      dup6\n        /* \"ABDKMath64x64.sol\":7163:7173  int256 (x) */\n      0x0f\n      signextend\n        /* \"ABDKMath64x64.sol\":7163:7179  int256 (x) << 64 */\n      swap1\n      shl\n        /* \"ABDKMath64x64.sol\":7162:7184  (int256 (x) << 64) / y */\n      dup2\n      tag_569\n      jumpi\n      tag_569\n      tag_570\n      jump\t// in\n    tag_569:\n      sdiv\n      swap1\n      pop\n      not(0x7fffffffffffffffffffffffffffffff)\n        /* \"ABDKMath64x64.sol\":7201:7220  result >= MIN_64x64 */\n      dup2\n      slt\n      dup1\n      iszero\n      swap1\n        /* \"ABDKMath64x64.sol\":7201:7243  result >= MIN_64x64 && result <= MAX_64x64 */\n      tag_571\n      jumpi\n      pop\n      sub(shl(0x7f, 0x01), 0x01)\n        /* \"ABDKMath64x64.sol\":7224:7243  result <= MAX_64x64 */\n      dup2\n      sgt\n      iszero\n        /* \"ABDKMath64x64.sol\":7201:7243  result >= MIN_64x64 && result <= MAX_64x64 */\n    tag_571:\n        /* \"ABDKMath64x64.sol\":7192:7244  require (result >= MIN_64x64 && result <= MAX_64x64) */\n      tag_299\n      jumpi\n      0x00\n      dup1\n      revert\n        /* \"ABDKMath64x64.sol\":22564:22860  function exp (int128 x) internal pure returns (int128) {... */\n    tag_183:\n        /* \"ABDKMath64x64.sol\":22611:22617  int128 */\n      0x00\n        /* \"ABDKMath64x64.sol\":22656:22676  0x400000000000000000 */\n      0x400000000000000000\n        /* \"ABDKMath64x64.sol\":22652:22653  x */\n      dup3\n        /* \"ABDKMath64x64.sol\":22652:22676  x < 0x400000000000000000 */\n      0x0f\n      signextend\n      slt\n        /* \"ABDKMath64x64.sol\":22643:22677  require (x < 0x400000000000000000) */\n      tag_574\n      jumpi\n      0x00\n      dup1\n      revert\n    tag_574:\n      not(0x3fffffffffffffffff)\n        /* \"ABDKMath64x64.sol\":22702:22703  x */\n      dup3\n        /* \"ABDKMath64x64.sol\":22702:22727  x < -0x400000000000000000 */\n      0x0f\n      signextend\n      slt\n        /* \"ABDKMath64x64.sol\":22698:22737  if (x < -0x400000000000000000) return 0 */\n      iszero\n      tag_575\n      jumpi\n      pop\n        /* \"ABDKMath64x64.sol\":22736:22737  0 */\n      0x00\n      swap2\n        /* \"ABDKMath64x64.sol\":22564:22860  function exp (int128 x) internal pure returns (int128) {... */\n      swap1\n      pop\n      jump\t// out\n        /* \"ABDKMath64x64.sol\":22698:22737  if (x < -0x400000000000000000) return 0 */\n    tag_575:\n        /* \"ABDKMath64x64.sol\":22766:22849  exp_2 (... */\n      tag_160\n        /* \"ABDKMath64x64.sol\":22844:22847  128 */\n      0x80\n        /* \"ABDKMath64x64.sol\":22800:22801  x */\n      dup4\n        /* \"ABDKMath64x64.sol\":22792:22802  int256 (x) */\n      0x0f\n      signextend\n        /* \"ABDKMath64x64.sol\":22805:22840  0x171547652B82FE1777D0FFDA0D23A7D12 */\n      0x0171547652b82fe1777d0ffda0d23a7d12\n        /* \"ABDKMath64x64.sol\":22792:22840  int256 (x) * 0x171547652B82FE1777D0FFDA0D23A7D12 */\n      mul\n        /* \"ABDKMath64x64.sol\":22792:22847  int256 (x) * 0x171547652B82FE1777D0FFDA0D23A7D12 >> 128 */\n      swap1\n      sar\n        /* \"ABDKMath64x64.sol\":22766:22771  exp_2 */\n      tag_577\n        /* \"ABDKMath64x64.sol\":22766:22849  exp_2 (... */\n      jump\t// in\n        /* \"ABDKMath64x64.sol\":3512:3731  function add (int128 x, int128 y) internal pure returns (int128) {... */\n    tag_184:\n        /* \"ABDKMath64x64.sol\":3569:3575  int128 */\n      0x00\n        /* \"ABDKMath64x64.sol\":3617:3630  int256(x) + y */\n      0x0f\n        /* \"ABDKMath64x64.sol\":3617:3626  int256(x) */\n      dup4\n      dup2\n      signextend\n        /* \"ABDKMath64x64.sol\":3617:3630  int256(x) + y */\n      swap1\n      dup4\n      swap1\n      signextend\n      add\n      not(0x7fffffffffffffffffffffffffffffff)\n        /* \"ABDKMath64x64.sol\":3647:3666  result >= MIN_64x64 */\n      dup2\n      slt\n      dup1\n      iszero\n      swap1\n        /* \"ABDKMath64x64.sol\":3647:3689  result >= MIN_64x64 && result <= MAX_64x64 */\n      tag_571\n      jumpi\n      pop\n      sub(shl(0x7f, 0x01), 0x01)\n        /* \"ABDKMath64x64.sol\":3670:3689  result <= MAX_64x64 */\n      dup2\n      sgt\n      iszero\n        /* \"ABDKMath64x64.sol\":3638:3690  require (result >= MIN_64x64 && result <= MAX_64x64) */\n      tag_299\n      jumpi\n      0x00\n      dup1\n      revert\n        /* \"ABDKMath64x64.sol\":15145:15366  function ln (int128 x) internal pure returns (int128) {... */\n    tag_187:\n        /* \"ABDKMath64x64.sol\":15191:15197  int128 */\n      0x00\n        /* \"ABDKMath64x64.sol\":15236:15237  0 */\n      dup1\n        /* \"ABDKMath64x64.sol\":15232:15233  x */\n      dup3\n        /* \"ABDKMath64x64.sol\":15232:15237  x > 0 */\n      0x0f\n      signextend\n      sgt\n        /* \"ABDKMath64x64.sol\":15223:15238  require (x > 0) */\n      tag_582\n      jumpi\n      0x00\n      dup1\n      revert\n    tag_582:\n        /* \"ABDKMath64x64.sol\":15350:15353  128 */\n      0x80\n        /* \"ABDKMath64x64.sol\":15298:15307  log_2 (x) */\n      tag_583\n        /* \"ABDKMath64x64.sol\":15305:15306  x */\n      dup4\n        /* \"ABDKMath64x64.sol\":15298:15303  log_2 */\n      tag_584\n        /* \"ABDKMath64x64.sol\":15298:15307  log_2 (x) */\n      jump\t// in\n    tag_583:\n        /* \"ABDKMath64x64.sol\":15290:15308  int256 (log_2 (x)) */\n      0x0f\n      signextend\n        /* \"ABDKMath64x64.sol\":15312:15346  0xB17217F7D1CF79ABC9E3B39803F2F6AF */\n      0xb17217f7d1cf79abc9e3b39803f2f6af\n        /* \"ABDKMath64x64.sol\":15281:15346  uint256 (int256 (log_2 (x))) * 0xB17217F7D1CF79ABC9E3B39803F2F6AF */\n      mul\n        /* \"ABDKMath64x64.sol\":15281:15353  uint256 (int256 (log_2 (x))) * 0xB17217F7D1CF79ABC9E3B39803F2F6AF >> 128 */\n      swap1\n      shr\n        /* \"ABDKMath64x64.sol\":15247:15355  return int128 (int256 (... */\n      swap1\n      pop\n        /* \"ABDKMath64x64.sol\":15145:15366  function ln (int128 x) internal pure returns (int128) {... */\n      swap2\n      swap1\n      pop\n      jump\t// out\n        /* \"ABDKMath64x64.sol\":4390:4615  function mul (int128 x, int128 y) internal pure returns (int128) {... */\n    tag_188:\n        /* \"ABDKMath64x64.sol\":4447:4453  int128 */\n      0x00\n        /* \"ABDKMath64x64.sol\":4495:4508  int256(x) * y */\n      0x0f\n        /* \"ABDKMath64x64.sol\":4495:4504  int256(x) */\n      dup4\n      dup2\n      signextend\n        /* \"ABDKMath64x64.sol\":4495:4508  int256(x) * y */\n      swap1\n      dup4\n      swap1\n      signextend\n      mul\n        /* \"ABDKMath64x64.sol\":4512:4514  64 */\n      0x40\n        /* \"ABDKMath64x64.sol\":4495:4514  int256(x) * y >> 64 */\n      sar\n      not(0x7fffffffffffffffffffffffffffffff)\n        /* \"ABDKMath64x64.sol\":4531:4550  result >= MIN_64x64 */\n      dup2\n      slt\n      dup1\n      iszero\n      swap1\n        /* \"ABDKMath64x64.sol\":4531:4573  result >= MIN_64x64 && result <= MAX_64x64 */\n      tag_571\n      jumpi\n      pop\n      sub(shl(0x7f, 0x01), 0x01)\n        /* \"ABDKMath64x64.sol\":4554:4573  result <= MAX_64x64 */\n      dup2\n      sgt\n      iszero\n        /* \"ABDKMath64x64.sol\":4522:4574  require (result >= MIN_64x64 && result <= MAX_64x64) */\n      tag_299\n      jumpi\n      0x00\n      dup1\n      revert\n        /* \"@openzeppelin/contracts/access/Ownable.sol\":1796:1958   */\n    tag_193:\n        /* \"@openzeppelin/contracts/access/Ownable.sol\":1684:1691   */\n      0x00\n        /* \"@openzeppelin/contracts/access/Ownable.sol\":1710:1716   */\n      sload\n      sub(shl(0xa0, 0x01), 0x01)\n      and\n        /* \"@openzeppelin/contracts/utils/Context.sol\":735:745   */\n      caller\n        /* \"@openzeppelin/contracts/access/Ownable.sol\":1855:1878   */\n      eq\n        /* \"@openzeppelin/contracts/access/Ownable.sol\":1851:1952   */\n      tag_313\n      jumpi\n        /* \"@openzeppelin/contracts/access/Ownable.sol\":1901:1941   */\n      mload(0x40)\n      shl(0xe0, 0x118cdaa7)\n      dup2\n      mstore\n        /* \"@openzeppelin/contracts/utils/Context.sol\":735:745   */\n      caller\n        /* \"@openzeppelin/contracts/access/Ownable.sol\":1901:1941   */\n      0x04\n      dup3\n      add\n        /* \"#utility.yul\":4304:4378   */\n      mstore\n        /* \"#utility.yul\":4277:4295   */\n      0x24\n      add\n        /* \"@openzeppelin/contracts/access/Ownable.sol\":1901:1941   */\n      tag_201\n        /* \"#utility.yul\":4158:4384   */\n      jump\n        /* \"@openzeppelin/contracts/token/ERC20/utils/SafeERC20.sol\":1219:1379   */\n    tag_222:\n        /* \"@openzeppelin/contracts/token/ERC20/utils/SafeERC20.sol\":1328:1371   */\n      mload(0x40)\n      sub(shl(0xa0, 0x01), 0x01)\n        /* \"#utility.yul\":16225:16280   */\n      dup4\n      dup2\n      and\n        /* \"@openzeppelin/contracts/token/ERC20/utils/SafeERC20.sol\":1328:1371   */\n      0x24\n      dup4\n      add\n        /* \"#utility.yul\":16207:16281   */\n      mstore\n        /* \"#utility.yul\":16297:16315   */\n      0x44\n      dup3\n      add\n        /* \"#utility.yul\":16290:16324   */\n      dup4\n      swap1\n      mstore\n        /* \"@openzeppelin/contracts/token/ERC20/utils/SafeERC20.sol\":1301:1372   */\n      tag_596\n      swap2\n        /* \"@openzeppelin/contracts/token/ERC20/utils/SafeERC20.sol\":1321:1326   */\n      dup6\n      swap2\n        /* \"@openzeppelin/contracts/token/ERC20/utils/SafeERC20.sol\":1343:1357   */\n      dup3\n      and\n      swap1\n      0xa9059cbb\n      swap1\n        /* \"#utility.yul\":16180:16198   */\n      0x64\n      add\n        /* \"@openzeppelin/contracts/token/ERC20/utils/SafeERC20.sol\":1328:1371   */\n    tag_597:\n      mload(0x40)\n      0x20\n      dup2\n      dup4\n      sub\n      sub\n      dup2\n      mstore\n      swap1\n      0x40\n      mstore\n      swap2\n      pop\n      0xe0\n      shl\n      0x20\n      dup3\n      add\n      dup1\n      mload\n      0xffffffffffffffffffffffffffffffffffffffffffffffffffffffff\n      dup4\n      dup2\n      dup4\n      and\n      or\n      dup4\n      mstore\n      pop\n      pop\n      pop\n      pop\n        /* \"@openzeppelin/contracts/token/ERC20/utils/SafeERC20.sol\":1301:1320   */\n      tag_598\n        /* \"@openzeppelin/contracts/token/ERC20/utils/SafeERC20.sol\":1301:1372   */\n      jump\t// in\n    tag_596:\n        /* \"@openzeppelin/contracts/token/ERC20/utils/SafeERC20.sol\":1219:1379   */\n      pop\n      pop\n      pop\n      jump\t// out\n        /* \"ABDKMath64x64.sol\":6262:6775  function mulu (int128 x, uint256 y) internal pure returns (uint256) {... */\n    tag_232:\n        /* \"ABDKMath64x64.sol\":6321:6328  uint256 */\n      0x00\n        /* \"ABDKMath64x64.sol\":6358:6359  y */\n      dup2\n        /* \"ABDKMath64x64.sol\":6363:6364  0 */\n      0x00\n        /* \"ABDKMath64x64.sol\":6358:6364  y == 0 */\n      sub\n        /* \"ABDKMath64x64.sol\":6354:6374  if (y == 0) return 0 */\n      tag_600\n      jumpi\n      pop\n        /* \"ABDKMath64x64.sol\":6373:6374  0 */\n      0x00\n        /* \"ABDKMath64x64.sol\":6366:6374  return 0 */\n      jump(tag_160)\n        /* \"ABDKMath64x64.sol\":6354:6374  if (y == 0) return 0 */\n    tag_600:\n        /* \"ABDKMath64x64.sol\":6397:6398  0 */\n      0x00\n        /* \"ABDKMath64x64.sol\":6392:6393  x */\n      dup4\n        /* \"ABDKMath64x64.sol\":6392:6398  x >= 0 */\n      0x0f\n      signextend\n      slt\n      iszero\n        /* \"ABDKMath64x64.sol\":6383:6399  require (x >= 0) */\n      tag_601\n      jumpi\n      0x00\n      dup1\n      revert\n    tag_601:\n        /* \"ABDKMath64x64.sol\":6431:6441  int256 (x) */\n      0x0f\n      dup4\n      swap1\n      signextend\n      sub(shl(0x80, 0x01), 0x01)\n        /* \"ABDKMath64x64.sol\":6446:6484  y & 0xFFFFFFFFFFFFFFFFFFFFFFFFFFFFFFFF */\n      dup4\n      and\n        /* \"ABDKMath64x64.sol\":6422:6485  uint256 (int256 (x)) * (y & 0xFFFFFFFFFFFFFFFFFFFFFFFFFFFFFFFF) */\n      dup2\n      mul\n        /* \"ABDKMath64x64.sol\":6490:6492  64 */\n      0x40\n        /* \"ABDKMath64x64.sol\":6421:6492  (uint256 (int256 (x)) * (y & 0xFFFFFFFFFFFFFFFFFFFFFFFFFFFFFFFF)) >> 64 */\n      shr\n      swap1\n        /* \"ABDKMath64x64.sol\":6542:6545  128 */\n      0x80\n        /* \"ABDKMath64x64.sol\":6537:6545  y >> 128 */\n      dup5\n      swap1\n      shr\n        /* \"ABDKMath64x64.sol\":6513:6546  uint256 (int256 (x)) * (y >> 128) */\n      mul\n        /* \"ABDKMath64x64.sol\":6570:6620  0xFFFFFFFFFFFFFFFFFFFFFFFFFFFFFFFFFFFFFFFFFFFFFFFF */\n      0xffffffffffffffffffffffffffffffffffffffffffffffff\n        /* \"ABDKMath64x64.sol\":6564:6620  hi <= 0xFFFFFFFFFFFFFFFFFFFFFFFFFFFFFFFFFFFFFFFFFFFFFFFF */\n      dup2\n      gt\n      iszero\n        /* \"ABDKMath64x64.sol\":6555:6621  require (hi <= 0xFFFFFFFFFFFFFFFFFFFFFFFFFFFFFFFFFFFFFFFFFFFFFFFF) */\n      tag_602\n      jumpi\n      0x00\n      dup1\n      revert\n    tag_602:\n        /* \"ABDKMath64x64.sol\":6636:6638  64 */\n      0x40\n        /* \"ABDKMath64x64.sol\":6629:6638  hi <<= 64 */\n      shl\n        /* \"ABDKMath64x64.sol\":6670:6741  0xFFFFFFFFFFFFFFFFFFFFFFFFFFFFFFFFFFFFFFFFFFFFFFFFFFFFFFFFFFFFFFFF - lo */\n      dup2\n      not\n        /* \"ABDKMath64x64.sol\":6656:6741  hi <=... */\n      dup2\n      gt\n      iszero\n        /* \"ABDKMath64x64.sol\":6647:6742  require (hi <=... */\n      tag_603\n      jumpi\n      0x00\n      dup1\n      revert\n    tag_603:\n        /* \"ABDKMath64x64.sol\":6757:6764  hi + lo */\n      add\n      swap4\n        /* \"ABDKMath64x64.sol\":6262:6775  function mulu (int128 x, uint256 y) internal pure returns (uint256) {... */\n      swap3\n      pop\n      pop\n      pop\n      jump\t// out\n        /* \"@openzeppelin/contracts/token/ERC20/utils/SafeERC20.sol\":1618:1806   */\n    tag_276:\n        /* \"@openzeppelin/contracts/token/ERC20/utils/SafeERC20.sol\":1745:1798   */\n      mload(0x40)\n      sub(shl(0xa0, 0x01), 0x01)\n        /* \"#utility.yul\":17271:17286   */\n      dup5\n      dup2\n      and\n        /* \"@openzeppelin/contracts/token/ERC20/utils/SafeERC20.sol\":1745:1798   */\n      0x24\n      dup4\n      add\n        /* \"#utility.yul\":17253:17287   */\n      mstore\n        /* \"#utility.yul\":17323:17338   */\n      dup4\n      dup2\n      and\n        /* \"#utility.yul\":17303:17321   */\n      0x44\n      dup4\n      add\n        /* \"#utility.yul\":17296:17339   */\n      mstore\n        /* \"#utility.yul\":17355:17373   */\n      0x64\n      dup3\n      add\n        /* \"#utility.yul\":17348:17382   */\n      dup4\n      swap1\n      mstore\n        /* \"@openzeppelin/contracts/token/ERC20/utils/SafeERC20.sol\":1718:1799   */\n      tag_605\n      swap2\n        /* \"@openzeppelin/contracts/token/ERC20/utils/SafeERC20.sol\":1738:1743   */\n      dup7\n      swap2\n        /* \"@openzeppelin/contracts/token/ERC20/utils/SafeERC20.sol\":1760:1778   */\n      dup3\n      and\n      swap1\n      0x23b872dd\n      swap1\n        /* \"#utility.yul\":17165:17183   */\n      0x84\n      add\n        /* \"@openzeppelin/contracts/token/ERC20/utils/SafeERC20.sol\":1745:1798   */\n      tag_597\n        /* \"#utility.yul\":16990:17388   */\n      jump\n        /* \"@openzeppelin/contracts/token/ERC20/utils/SafeERC20.sol\":1718:1799   */\n    tag_605:\n        /* \"@openzeppelin/contracts/token/ERC20/utils/SafeERC20.sol\":1618:1806   */\n      pop\n      pop\n      pop\n      pop\n      jump\t// out\n        /* \"ABDKMath64x64.sol\":1953:2122  function fromUInt (uint256 x) internal pure returns (int128) {... */\n    tag_291:\n        /* \"ABDKMath64x64.sol\":2006:2012  int128 */\n      0x00\n        /* \"ABDKMath64x64.sol\":2052:2070  0x7FFFFFFFFFFFFFFF */\n      0x7fffffffffffffff\n        /* \"ABDKMath64x64.sol\":2047:2048  x */\n      dup3\n        /* \"ABDKMath64x64.sol\":2047:2070  x <= 0x7FFFFFFFFFFFFFFF */\n      gt\n      iszero\n        /* \"ABDKMath64x64.sol\":2038:2071  require (x <= 0x7FFFFFFFFFFFFFFF) */\n      tag_608\n      jumpi\n      0x00\n      dup1\n      revert\n    tag_608:\n      pop\n        /* \"ABDKMath64x64.sol\":2107:2109  64 */\n      0x40\n        /* \"ABDKMath64x64.sol\":2102:2109  x << 64 */\n      shl\n      swap1\n        /* \"ABDKMath64x64.sol\":1953:2122  function fromUInt (uint256 x) internal pure returns (int128) {... */\n      jump\t// out\n        /* \"@openzeppelin/contracts/access/Ownable.sol\":2912:3099   */\n    tag_314:\n        /* \"@openzeppelin/contracts/access/Ownable.sol\":2985:3001   */\n      0x00\n        /* \"@openzeppelin/contracts/access/Ownable.sol\":3004:3010   */\n      dup1\n      sload\n      sub(shl(0xa0, 0x01), 0x01)\n        /* \"@openzeppelin/contracts/access/Ownable.sol\":3020:3037   */\n      dup4\n      dup2\n      and\n      0xffffffffffffffffffffffff0000000000000000000000000000000000000000\n      dup4\n      and\n      dup2\n      or\n      dup5\n      sstore\n        /* \"@openzeppelin/contracts/access/Ownable.sol\":3052:3092   */\n      mload(0x40)\n        /* \"@openzeppelin/contracts/access/Ownable.sol\":3004:3010   */\n      swap2\n      swap1\n      swap3\n      and\n      swap3\n      dup4\n      swap2\n        /* \"@openzeppelin/contracts/access/Ownable.sol\":3052:3092   */\n      0x8be0079c531659141344cd1fd0a4f28419497f9722a3daafe3b4186f6b6457e0\n      swap2\n        /* \"@openzeppelin/contracts/access/Ownable.sol\":2985:3001   */\n      swap1\n        /* \"@openzeppelin/contracts/access/Ownable.sol\":3052:3092   */\n      log3\n        /* \"@openzeppelin/contracts/access/Ownable.sol\":2975:3099   */\n      pop\n        /* \"@openzeppelin/contracts/access/Ownable.sol\":2912:3099   */\n      pop\n      jump\t// out\n        /* \"LmLSMR.sol\":5425:5563  function getOnes(uint n) internal pure returns (uint count) {... */\n    tag_351:\n        /* \"LmLSMR.sol\":5473:5483  uint count */\n      0x00\n        /* \"LmLSMR.sol\":5506:5559  while(n!=0) {... */\n    tag_611:\n        /* \"LmLSMR.sol\":5512:5516  n!=0 */\n      dup2\n      iszero\n        /* \"LmLSMR.sol\":5506:5559  while(n!=0) {... */\n      tag_612\n      jumpi\n        /* \"LmLSMR.sol\":5533:5536  n-1 */\n      tag_613\n        /* \"LmLSMR.sol\":5535:5536  1 */\n      0x01\n        /* \"LmLSMR.sol\":5533:5534  n */\n      dup4\n        /* \"LmLSMR.sol\":5533:5536  n-1 */\n      tag_264\n      jump\t// in\n    tag_613:\n        /* \"LmLSMR.sol\":5530:5537  n&(n-1) */\n      swap1\n      swap2\n      and\n      swap1\n        /* \"LmLSMR.sol\":5545:5552  count++ */\n      dup1\n      tag_614\n      dup2\n      tag_366\n      jump\t// in\n    tag_614:\n      swap2\n      pop\n      pop\n        /* \"LmLSMR.sol\":5506:5559  while(n!=0) {... */\n      jump(tag_611)\n    tag_612:\n        /* \"LmLSMR.sol\":5425:5563  function getOnes(uint n) internal pure returns (uint count) {... */\n      swap2\n      swap1\n      pop\n      jump\t// out\n        /* \"ABDKMath64x64.sol\":3944:4163  function sub (int128 x, int128 y) internal pure returns (int128) {... */\n    tag_427:\n        /* \"ABDKMath64x64.sol\":4001:4007  int128 */\n      0x00\n        /* \"ABDKMath64x64.sol\":4049:4062  int256(x) - y */\n      0x0f\n      dup3\n      dup2\n      signextend\n        /* \"ABDKMath64x64.sol\":4049:4058  int256(x) */\n      swap1\n      dup5\n      swap1\n      signextend\n        /* \"ABDKMath64x64.sol\":4049:4062  int256(x) - y */\n      sub\n      not(0x7fffffffffffffffffffffffffffffff)\n        /* \"ABDKMath64x64.sol\":4079:4098  result >= MIN_64x64 */\n      dup2\n      slt\n      dup1\n      iszero\n      swap1\n        /* \"ABDKMath64x64.sol\":4079:4121  result >= MIN_64x64 && result <= MAX_64x64 */\n      tag_571\n      jumpi\n      pop\n      sub(shl(0x7f, 0x01), 0x01)\n        /* \"ABDKMath64x64.sol\":4102:4121  result <= MAX_64x64 */\n      dup2\n      sgt\n      iszero\n        /* \"ABDKMath64x64.sol\":4070:4122  require (result >= MIN_64x64 && result <= MAX_64x64) */\n      tag_299\n      jumpi\n      0x00\n      dup1\n      revert\n        /* \"ABDKMath64x64.sol\":23164:24449  function divuu (uint256 x, uint256 y) private pure returns (uint128) {... */\n    tag_564:\n        /* \"ABDKMath64x64.sol\":23224:23231  uint128 */\n      0x00\n        /* \"ABDKMath64x64.sol\":23266:23267  y */\n      dup2\n        /* \"ABDKMath64x64.sol\":23271:23272  0 */\n      0x00\n        /* \"ABDKMath64x64.sol\":23266:23272  y != 0 */\n      sub\n        /* \"ABDKMath64x64.sol\":23257:23273  require (y != 0) */\n      tag_619\n      jumpi\n      0x00\n      dup1\n      revert\n    tag_619:\n        /* \"ABDKMath64x64.sol\":23282:23296  uint256 result */\n      0x00\n        /* \"ABDKMath64x64.sol\":23314:23364  0xFFFFFFFFFFFFFFFFFFFFFFFFFFFFFFFFFFFFFFFFFFFFFFFF */\n      0xffffffffffffffffffffffffffffffffffffffffffffffff\n        /* \"ABDKMath64x64.sol\":23309:23310  x */\n      dup5\n        /* \"ABDKMath64x64.sol\":23309:23364  x <= 0xFFFFFFFFFFFFFFFFFFFFFFFFFFFFFFFFFFFFFFFFFFFFFFFF */\n      gt\n        /* \"ABDKMath64x64.sol\":23305:24345  if (x <= 0xFFFFFFFFFFFFFFFFFFFFFFFFFFFFFFFFFFFFFFFFFFFFFFFF)... */\n      tag_620\n      jumpi\n        /* \"ABDKMath64x64.sol\":23395:23396  y */\n      dup3\n        /* \"ABDKMath64x64.sol\":23389:23391  64 */\n      0x40\n        /* \"ABDKMath64x64.sol\":23384:23385  x */\n      dup6\n        /* \"ABDKMath64x64.sol\":23384:23391  x << 64 */\n      swap1\n      shl\n        /* \"ABDKMath64x64.sol\":23383:23396  (x << 64) / y */\n      dup2\n      tag_622\n      jumpi\n      tag_622\n      tag_570\n      jump\t// in\n    tag_622:\n      div\n        /* \"ABDKMath64x64.sol\":23374:23396  result = (x << 64) / y */\n      swap1\n      pop\n        /* \"ABDKMath64x64.sol\":23305:24345  if (x <= 0xFFFFFFFFFFFFFFFFFFFFFFFFFFFFFFFFFFFFFFFFFFFFFFFF)... */\n      jump(tag_623)\n    tag_620:\n        /* \"ABDKMath64x64.sol\":23433:23436  192 */\n      0xc0\n        /* \"ABDKMath64x64.sol\":23459:23467  x >> 192 */\n      dup5\n      dup2\n      shr\n        /* \"ABDKMath64x64.sol\":23487:23498  0x100000000 */\n      0x0100000000\n        /* \"ABDKMath64x64.sol\":23481:23498  xc >= 0x100000000 */\n      dup2\n      lt\n        /* \"ABDKMath64x64.sol\":23477:23525  if (xc >= 0x100000000) { xc >>= 32; msb += 32; } */\n      tag_624\n      jumpi\n        /* \"ABDKMath64x64.sol\":23509:23511  32 */\n      0x20\n        /* \"ABDKMath64x64.sol\":23513:23522  msb += 32 */\n      swap2\n      dup3\n      add\n      swap2\n        /* \"ABDKMath64x64.sol\":23502:23511  xc >>= 32 */\n      shr\n        /* \"ABDKMath64x64.sol\":23477:23525  if (xc >= 0x100000000) { xc >>= 32; msb += 32; } */\n    tag_624:\n        /* \"ABDKMath64x64.sol\":23544:23551  0x10000 */\n      0x010000\n        /* \"ABDKMath64x64.sol\":23538:23540  xc */\n      dup2\n        /* \"ABDKMath64x64.sol\":23538:23551  xc >= 0x10000 */\n      lt\n        /* \"ABDKMath64x64.sol\":23534:23578  if (xc >= 0x10000) { xc >>= 16; msb += 16; } */\n      tag_625\n      jumpi\n        /* \"ABDKMath64x64.sol\":23562:23564  16 */\n      0x10\n        /* \"ABDKMath64x64.sol\":23566:23575  msb += 16 */\n      swap2\n      dup3\n      add\n      swap2\n        /* \"ABDKMath64x64.sol\":23555:23564  xc >>= 16 */\n      shr\n        /* \"ABDKMath64x64.sol\":23534:23578  if (xc >= 0x10000) { xc >>= 16; msb += 16; } */\n    tag_625:\n        /* \"ABDKMath64x64.sol\":23597:23602  0x100 */\n      0x0100\n        /* \"ABDKMath64x64.sol\":23591:23593  xc */\n      dup2\n        /* \"ABDKMath64x64.sol\":23591:23602  xc >= 0x100 */\n      lt\n        /* \"ABDKMath64x64.sol\":23587:23627  if (xc >= 0x100) { xc >>= 8; msb += 8; } */\n      tag_626\n      jumpi\n        /* \"ABDKMath64x64.sol\":23613:23614  8 */\n      0x08\n        /* \"ABDKMath64x64.sol\":23616:23624  msb += 8 */\n      swap2\n      dup3\n      add\n      swap2\n        /* \"ABDKMath64x64.sol\":23606:23614  xc >>= 8 */\n      shr\n        /* \"ABDKMath64x64.sol\":23587:23627  if (xc >= 0x100) { xc >>= 8; msb += 8; } */\n    tag_626:\n        /* \"ABDKMath64x64.sol\":23646:23650  0x10 */\n      0x10\n        /* \"ABDKMath64x64.sol\":23640:23642  xc */\n      dup2\n        /* \"ABDKMath64x64.sol\":23640:23650  xc >= 0x10 */\n      lt\n        /* \"ABDKMath64x64.sol\":23636:23675  if (xc >= 0x10) { xc >>= 4; msb += 4; } */\n      tag_627\n      jumpi\n        /* \"ABDKMath64x64.sol\":23661:23662  4 */\n      0x04\n        /* \"ABDKMath64x64.sol\":23664:23672  msb += 4 */\n      swap2\n      dup3\n      add\n      swap2\n        /* \"ABDKMath64x64.sol\":23654:23662  xc >>= 4 */\n      shr\n        /* \"ABDKMath64x64.sol\":23636:23675  if (xc >= 0x10) { xc >>= 4; msb += 4; } */\n    tag_627:\n        /* \"ABDKMath64x64.sol\":23694:23697  0x4 */\n      0x04\n        /* \"ABDKMath64x64.sol\":23688:23690  xc */\n      dup2\n        /* \"ABDKMath64x64.sol\":23688:23697  xc >= 0x4 */\n      lt\n        /* \"ABDKMath64x64.sol\":23684:23722  if (xc >= 0x4) { xc >>= 2; msb += 2; } */\n      tag_628\n      jumpi\n        /* \"ABDKMath64x64.sol\":23708:23709  2 */\n      0x02\n        /* \"ABDKMath64x64.sol\":23711:23719  msb += 2 */\n      swap2\n      dup3\n      add\n      swap2\n        /* \"ABDKMath64x64.sol\":23701:23709  xc >>= 2 */\n      shr\n        /* \"ABDKMath64x64.sol\":23684:23722  if (xc >= 0x4) { xc >>= 2; msb += 2; } */\n    tag_628:\n        /* \"ABDKMath64x64.sol\":23741:23744  0x2 */\n      0x02\n        /* \"ABDKMath64x64.sol\":23735:23737  xc */\n      dup2\n        /* \"ABDKMath64x64.sol\":23735:23744  xc >= 0x2 */\n      lt\n        /* \"ABDKMath64x64.sol\":23731:23754  if (xc >= 0x2) msb += 1 */\n      tag_629\n      jumpi\n        /* \"ABDKMath64x64.sol\":23753:23754  1 */\n      0x01\n        /* \"ABDKMath64x64.sol\":23746:23754  msb += 1 */\n      dup3\n      add\n      swap2\n      pop\n        /* \"ABDKMath64x64.sol\":23731:23754  if (xc >= 0x2) msb += 1 */\n    tag_629:\n        /* \"ABDKMath64x64.sol\":23842:23845  191 */\n      0xbf\n        /* \"ABDKMath64x64.sol\":23836:23839  msb */\n      dup3\n        /* \"ABDKMath64x64.sol\":23836:23845  msb - 191 */\n      sub\n        /* \"ABDKMath64x64.sol\":23831:23832  1 */\n      0x01\n        /* \"ABDKMath64x64.sol\":23827:23828  y */\n      dup7\n        /* \"ABDKMath64x64.sol\":23827:23832  y - 1 */\n      sub\n        /* \"ABDKMath64x64.sol\":23827:23845  y - 1 >> msb - 191 */\n      swap1\n      shr\n        /* \"ABDKMath64x64.sol\":23849:23850  1 */\n      0x01\n        /* \"ABDKMath64x64.sol\":23826:23850  (y - 1 >> msb - 191) + 1 */\n      add\n        /* \"ABDKMath64x64.sol\":23818:23821  msb */\n      dup3\n        /* \"ABDKMath64x64.sol\":23812:23815  255 */\n      0xff\n        /* \"ABDKMath64x64.sol\":23812:23821  255 - msb */\n      sub\n        /* \"ABDKMath64x64.sol\":23807:23808  x */\n      dup8\n        /* \"ABDKMath64x64.sol\":23807:23821  x << 255 - msb */\n      swap1\n      shl\n        /* \"ABDKMath64x64.sol\":23806:23851  (x << 255 - msb) / ((y - 1 >> msb - 191) + 1) */\n      dup2\n      tag_631\n      jumpi\n      tag_631\n      tag_570\n      jump\t// in\n    tag_631:\n      div\n        /* \"ABDKMath64x64.sol\":23797:23851  result = (x << 255 - msb) / ((y - 1 >> msb - 191) + 1) */\n      swap3\n      pop\n      sub(shl(0x80, 0x01), 0x01)\n        /* \"ABDKMath64x64.sol\":23870:23876  result */\n      dup4\n        /* \"ABDKMath64x64.sol\":23870:23914  result <= 0xFFFFFFFFFFFFFFFFFFFFFFFFFFFFFFFF */\n      gt\n      iszero\n        /* \"ABDKMath64x64.sol\":23861:23915  require (result <= 0xFFFFFFFFFFFFFFFFFFFFFFFFFFFFFFFF) */\n      tag_632\n      jumpi\n      0x00\n      dup1\n      revert\n    tag_632:\n        /* \"ABDKMath64x64.sol\":23954:23957  128 */\n      0x80\n        /* \"ABDKMath64x64.sol\":23949:23957  y >> 128 */\n      dup6\n      swap1\n      shr\n        /* \"ABDKMath64x64.sol\":23939:23958  result * (y >> 128) */\n      dup4\n      mul\n      sub(shl(0x80, 0x01), 0x01)\n        /* \"ABDKMath64x64.sol\":23991:24029  y & 0xFFFFFFFFFFFFFFFFFFFFFFFFFFFFFFFF */\n      dup7\n      and\n        /* \"ABDKMath64x64.sol\":23981:24030  result * (y & 0xFFFFFFFFFFFFFFFFFFFFFFFFFFFFFFFF) */\n      dup5\n      mul\n        /* \"ABDKMath64x64.sol\":24059:24062  192 */\n      0xc0\n        /* \"ABDKMath64x64.sol\":24054:24062  x >> 192 */\n      dup9\n      swap1\n      shr\n        /* \"ABDKMath64x64.sol\":24090:24092  64 */\n      0x40\n        /* \"ABDKMath64x64.sol\":24085:24092  x << 64 */\n      dup10\n      swap1\n      shl\n        /* \"ABDKMath64x64.sol\":24107:24114  xl < lo */\n      dup3\n      dup2\n      lt\n        /* \"ABDKMath64x64.sol\":24103:24123  if (xl < lo) xh -= 1 */\n      iszero\n      tag_633\n      jumpi\n        /* \"ABDKMath64x64.sol\":24122:24123  1 */\n      0x01\n        /* \"ABDKMath64x64.sol\":24116:24123  xh -= 1 */\n      dup3\n      sub\n      swap2\n      pop\n        /* \"ABDKMath64x64.sol\":24103:24123  if (xl < lo) xh -= 1 */\n    tag_633:\n        /* \"ABDKMath64x64.sol\":24199:24202  128 */\n      0x80\n        /* \"ABDKMath64x64.sol\":24193:24202  hi << 128 */\n      dup5\n      swap1\n      shl\n      swap3\n        /* \"ABDKMath64x64.sol\":24133:24141  xl -= lo */\n      swap1\n      sub\n        /* \"ABDKMath64x64.sol\":24216:24223  xl < lo */\n      dup3\n      dup2\n      lt\n        /* \"ABDKMath64x64.sol\":24212:24232  if (xl < lo) xh -= 1 */\n      iszero\n      tag_634\n      jumpi\n        /* \"ABDKMath64x64.sol\":24231:24232  1 */\n      0x01\n        /* \"ABDKMath64x64.sol\":24225:24232  xh -= 1 */\n      dup3\n      sub\n      swap2\n      pop\n        /* \"ABDKMath64x64.sol\":24212:24232  if (xl < lo) xh -= 1 */\n    tag_634:\n        /* \"ABDKMath64x64.sol\":24242:24250  xl -= lo */\n      dup3\n      swap1\n      sub\n        /* \"ABDKMath64x64.sol\":24320:24323  128 */\n      0x80\n        /* \"ABDKMath64x64.sol\":24314:24323  hi >> 128 */\n      dup5\n      swap1\n      shr\n        /* \"ABDKMath64x64.sol\":24308:24323  xh == hi >> 128 */\n      dup3\n      eq\n        /* \"ABDKMath64x64.sol\":24308:24336  xh == hi >> 128 ? xl / y : 1 */\n      tag_635\n      jumpi\n        /* \"ABDKMath64x64.sol\":24335:24336  1 */\n      0x01\n        /* \"ABDKMath64x64.sol\":24308:24336  xh == hi >> 128 ? xl / y : 1 */\n      jump(tag_636)\n    tag_635:\n        /* \"ABDKMath64x64.sol\":24331:24332  y */\n      dup9\n        /* \"ABDKMath64x64.sol\":24326:24328  xl */\n      dup2\n        /* \"ABDKMath64x64.sol\":24326:24332  xl / y */\n      dup2\n      tag_638\n      jumpi\n      tag_638\n      tag_570\n      jump\t// in\n    tag_638:\n      div\n        /* \"ABDKMath64x64.sol\":24308:24336  xh == hi >> 128 ? xl / y : 1 */\n    tag_636:\n        /* \"ABDKMath64x64.sol\":24298:24336  result += xh == hi >> 128 ? xl / y : 1 */\n      dup8\n      add\n      swap7\n      pop\n        /* \"ABDKMath64x64.sol\":23409:24345  {... */\n      pop\n      pop\n      pop\n      pop\n      pop\n      pop\n        /* \"ABDKMath64x64.sol\":23305:24345  if (x <= 0xFFFFFFFFFFFFFFFFFFFFFFFFFFFFFFFFFFFFFFFFFFFFFFFF)... */\n    tag_623:\n      sub(shl(0x80, 0x01), 0x01)\n        /* \"ABDKMath64x64.sol\":24362:24368  result */\n      dup2\n        /* \"ABDKMath64x64.sol\":24362:24406  result <= 0xFFFFFFFFFFFFFFFFFFFFFFFFFFFFFFFF */\n      gt\n      iszero\n        /* \"ABDKMath64x64.sol\":24353:24407  require (result <= 0xFFFFFFFFFFFFFFFFFFFFFFFFFFFFFFFF) */\n      tag_299\n      jumpi\n      0x00\n      dup1\n      revert\n        /* \"ABDKMath64x64.sol\":15544:22385  function exp_2 (int128 x) internal pure returns (int128) {... */\n    tag_577:\n        /* \"ABDKMath64x64.sol\":15593:15599  int128 */\n      0x00\n        /* \"ABDKMath64x64.sol\":15638:15658  0x400000000000000000 */\n      0x400000000000000000\n        /* \"ABDKMath64x64.sol\":15634:15635  x */\n      dup3\n        /* \"ABDKMath64x64.sol\":15634:15658  x < 0x400000000000000000 */\n      0x0f\n      signextend\n      slt\n        /* \"ABDKMath64x64.sol\":15625:15659  require (x < 0x400000000000000000) */\n      tag_641\n      jumpi\n      0x00\n      dup1\n      revert\n    tag_641:\n      not(0x3fffffffffffffffff)\n        /* \"ABDKMath64x64.sol\":15684:15685  x */\n      dup3\n        /* \"ABDKMath64x64.sol\":15684:15709  x < -0x400000000000000000 */\n      0x0f\n      signextend\n      slt\n        /* \"ABDKMath64x64.sol\":15680:15719  if (x < -0x400000000000000000) return 0 */\n      iszero\n      tag_642\n      jumpi\n      pop\n        /* \"ABDKMath64x64.sol\":15718:15719  0 */\n      0x00\n      swap2\n        /* \"ABDKMath64x64.sol\":15544:22385  function exp_2 (int128 x) internal pure returns (int128) {... */\n      swap1\n      pop\n      jump\t// out\n        /* \"ABDKMath64x64.sol\":15680:15719  if (x < -0x400000000000000000) return 0 */\n    tag_642:\n        /* \"ABDKMath64x64.sol\":15758:15792  0x80000000000000000000000000000000 */\n      0x80000000000000000000000000000000\n        /* \"ABDKMath64x64.sol\":15741:15755  uint256 result */\n      0x00\n        /* \"ABDKMath64x64.sol\":15809:15827  0x8000000000000000 */\n      0x8000000000000000\n        /* \"ABDKMath64x64.sol\":15805:15827  x & 0x8000000000000000 */\n      dup5\n      and\n        /* \"ABDKMath64x64.sol\":15805:15831  x & 0x8000000000000000 > 0 */\n      0x0f\n      signextend\n      sgt\n        /* \"ABDKMath64x64.sol\":15801:15901  if (x & 0x8000000000000000 > 0)... */\n      iszero\n      tag_643\n      jumpi\n        /* \"ABDKMath64x64.sol\":15859:15894  0x16A09E667F3BCC908B2FB1366EA957D3E */\n      0x016a09e667f3bcc908b2fb1366ea957d3e\n        /* \"ABDKMath64x64.sol\":15850:15894  result * 0x16A09E667F3BCC908B2FB1366EA957D3E */\n      mul\n        /* \"ABDKMath64x64.sol\":15898:15901  128 */\n      0x80\n        /* \"ABDKMath64x64.sol\":15850:15901  result * 0x16A09E667F3BCC908B2FB1366EA957D3E >> 128 */\n      shr\n        /* \"ABDKMath64x64.sol\":15801:15901  if (x & 0x8000000000000000 > 0)... */\n    tag_643:\n        /* \"ABDKMath64x64.sol\":15938:15939  0 */\n      0x00\n        /* \"ABDKMath64x64.sol\":15913:15914  x */\n      dup4\n        /* \"ABDKMath64x64.sol\":15917:15935  0x4000000000000000 */\n      0x4000000000000000\n        /* \"ABDKMath64x64.sol\":15913:15935  x & 0x4000000000000000 */\n      and\n        /* \"ABDKMath64x64.sol\":15913:15939  x & 0x4000000000000000 > 0 */\n      0x0f\n      signextend\n      sgt\n        /* \"ABDKMath64x64.sol\":15909:16009  if (x & 0x4000000000000000 > 0)... */\n      iszero\n      tag_644\n      jumpi\n        /* \"ABDKMath64x64.sol\":15967:16002  0x1306FE0A31B7152DE8D5A46305C85EDEC */\n      0x01306fe0a31b7152de8d5a46305c85edec\n        /* \"ABDKMath64x64.sol\":15958:16002  result * 0x1306FE0A31B7152DE8D5A46305C85EDEC */\n      mul\n        /* \"ABDKMath64x64.sol\":16006:16009  128 */\n      0x80\n        /* \"ABDKMath64x64.sol\":15958:16009  result * 0x1306FE0A31B7152DE8D5A46305C85EDEC >> 128 */\n      shr\n        /* \"ABDKMath64x64.sol\":15909:16009  if (x & 0x4000000000000000 > 0)... */\n    tag_644:\n        /* \"ABDKMath64x64.sol\":16046:16047  0 */\n      0x00\n        /* \"ABDKMath64x64.sol\":16021:16022  x */\n      dup4\n        /* \"ABDKMath64x64.sol\":16025:16043  0x2000000000000000 */\n      0x2000000000000000\n        /* \"ABDKMath64x64.sol\":16021:16043  x & 0x2000000000000000 */\n      and\n        /* \"ABDKMath64x64.sol\":16021:16047  x & 0x2000000000000000 > 0 */\n      0x0f\n      signextend\n      sgt\n        /* \"ABDKMath64x64.sol\":16017:16117  if (x & 0x2000000000000000 > 0)... */\n      iszero\n      tag_645\n      jumpi\n        /* \"ABDKMath64x64.sol\":16075:16110  0x1172B83C7D517ADCDF7C8C50EB14A791F */\n      0x01172b83c7d517adcdf7c8c50eb14a791f\n        /* \"ABDKMath64x64.sol\":16066:16110  result * 0x1172B83C7D517ADCDF7C8C50EB14A791F */\n      mul\n        /* \"ABDKMath64x64.sol\":16114:16117  128 */\n      0x80\n        /* \"ABDKMath64x64.sol\":16066:16117  result * 0x1172B83C7D517ADCDF7C8C50EB14A791F >> 128 */\n      shr\n        /* \"ABDKMath64x64.sol\":16017:16117  if (x & 0x2000000000000000 > 0)... */\n    tag_645:\n        /* \"ABDKMath64x64.sol\":16154:16155  0 */\n      0x00\n        /* \"ABDKMath64x64.sol\":16129:16130  x */\n      dup4\n        /* \"ABDKMath64x64.sol\":16133:16151  0x1000000000000000 */\n      0x1000000000000000\n        /* \"ABDKMath64x64.sol\":16129:16151  x & 0x1000000000000000 */\n      and\n        /* \"ABDKMath64x64.sol\":16129:16155  x & 0x1000000000000000 > 0 */\n      0x0f\n      signextend\n      sgt\n        /* \"ABDKMath64x64.sol\":16125:16225  if (x & 0x1000000000000000 > 0)... */\n      iszero\n      tag_646\n      jumpi\n        /* \"ABDKMath64x64.sol\":16183:16218  0x10B5586CF9890F6298B92B71842A98363 */\n      0x010b5586cf9890f6298b92b71842a98363\n        /* \"ABDKMath64x64.sol\":16174:16218  result * 0x10B5586CF9890F6298B92B71842A98363 */\n      mul\n        /* \"ABDKMath64x64.sol\":16222:16225  128 */\n      0x80\n        /* \"ABDKMath64x64.sol\":16174:16225  result * 0x10B5586CF9890F6298B92B71842A98363 >> 128 */\n      shr\n        /* \"ABDKMath64x64.sol\":16125:16225  if (x & 0x1000000000000000 > 0)... */\n    tag_646:\n        /* \"ABDKMath64x64.sol\":16261:16262  0 */\n      0x00\n        /* \"ABDKMath64x64.sol\":16237:16238  x */\n      dup4\n        /* \"ABDKMath64x64.sol\":16241:16258  0x800000000000000 */\n      0x0800000000000000\n        /* \"ABDKMath64x64.sol\":16237:16258  x & 0x800000000000000 */\n      and\n        /* \"ABDKMath64x64.sol\":16237:16262  x & 0x800000000000000 > 0 */\n      0x0f\n      signextend\n      sgt\n        /* \"ABDKMath64x64.sol\":16233:16332  if (x & 0x800000000000000 > 0)... */\n      iszero\n      tag_647\n      jumpi\n        /* \"ABDKMath64x64.sol\":16290:16325  0x1059B0D31585743AE7C548EB68CA417FD */\n      0x01059b0d31585743ae7c548eb68ca417fd\n        /* \"ABDKMath64x64.sol\":16281:16325  result * 0x1059B0D31585743AE7C548EB68CA417FD */\n      mul\n        /* \"ABDKMath64x64.sol\":16329:16332  128 */\n      0x80\n        /* \"ABDKMath64x64.sol\":16281:16332  result * 0x1059B0D31585743AE7C548EB68CA417FD >> 128 */\n      shr\n        /* \"ABDKMath64x64.sol\":16233:16332  if (x & 0x800000000000000 > 0)... */\n    tag_647:\n        /* \"ABDKMath64x64.sol\":16368:16369  0 */\n      0x00\n        /* \"ABDKMath64x64.sol\":16344:16345  x */\n      dup4\n        /* \"ABDKMath64x64.sol\":16348:16365  0x400000000000000 */\n      0x0400000000000000\n        /* \"ABDKMath64x64.sol\":16344:16365  x & 0x400000000000000 */\n      and\n        /* \"ABDKMath64x64.sol\":16344:16369  x & 0x400000000000000 > 0 */\n      0x0f\n      signextend\n      sgt\n        /* \"ABDKMath64x64.sol\":16340:16439  if (x & 0x400000000000000 > 0)... */\n      iszero\n      tag_648\n      jumpi\n        /* \"ABDKMath64x64.sol\":16397:16432  0x102C9A3E778060EE6F7CACA4F7A29BDE8 */\n      0x0102c9a3e778060ee6f7caca4f7a29bde8\n        /* \"ABDKMath64x64.sol\":16388:16432  result * 0x102C9A3E778060EE6F7CACA4F7A29BDE8 */\n      mul\n        /* \"ABDKMath64x64.sol\":16436:16439  128 */\n      0x80\n        /* \"ABDKMath64x64.sol\":16388:16439  result * 0x102C9A3E778060EE6F7CACA4F7A29BDE8 >> 128 */\n      shr\n        /* \"ABDKMath64x64.sol\":16340:16439  if (x & 0x400000000000000 > 0)... */\n    tag_648:\n        /* \"ABDKMath64x64.sol\":16475:16476  0 */\n      0x00\n        /* \"ABDKMath64x64.sol\":16451:16452  x */\n      dup4\n        /* \"ABDKMath64x64.sol\":16455:16472  0x200000000000000 */\n      0x0200000000000000\n        /* \"ABDKMath64x64.sol\":16451:16472  x & 0x200000000000000 */\n      and\n        /* \"ABDKMath64x64.sol\":16451:16476  x & 0x200000000000000 > 0 */\n      0x0f\n      signextend\n      sgt\n        /* \"ABDKMath64x64.sol\":16447:16546  if (x & 0x200000000000000 > 0)... */\n      iszero\n      tag_649\n      jumpi\n        /* \"ABDKMath64x64.sol\":16504:16539  0x10163DA9FB33356D84A66AE336DCDFA3F */\n      0x010163da9fb33356d84a66ae336dcdfa3f\n        /* \"ABDKMath64x64.sol\":16495:16539  result * 0x10163DA9FB33356D84A66AE336DCDFA3F */\n      mul\n        /* \"ABDKMath64x64.sol\":16543:16546  128 */\n      0x80\n        /* \"ABDKMath64x64.sol\":16495:16546  result * 0x10163DA9FB33356D84A66AE336DCDFA3F >> 128 */\n      shr\n        /* \"ABDKMath64x64.sol\":16447:16546  if (x & 0x200000000000000 > 0)... */\n    tag_649:\n        /* \"ABDKMath64x64.sol\":16582:16583  0 */\n      0x00\n        /* \"ABDKMath64x64.sol\":16558:16559  x */\n      dup4\n        /* \"ABDKMath64x64.sol\":16562:16579  0x100000000000000 */\n      0x0100000000000000\n        /* \"ABDKMath64x64.sol\":16558:16579  x & 0x100000000000000 */\n      and\n        /* \"ABDKMath64x64.sol\":16558:16583  x & 0x100000000000000 > 0 */\n      0x0f\n      signextend\n      sgt\n        /* \"ABDKMath64x64.sol\":16554:16653  if (x & 0x100000000000000 > 0)... */\n      iszero\n      tag_650\n      jumpi\n        /* \"ABDKMath64x64.sol\":16611:16646  0x100B1AFA5ABCBED6129AB13EC11DC9543 */\n      0x0100b1afa5abcbed6129ab13ec11dc9543\n        /* \"ABDKMath64x64.sol\":16602:16646  result * 0x100B1AFA5ABCBED6129AB13EC11DC9543 */\n      mul\n        /* \"ABDKMath64x64.sol\":16650:16653  128 */\n      0x80\n        /* \"ABDKMath64x64.sol\":16602:16653  result * 0x100B1AFA5ABCBED6129AB13EC11DC9543 >> 128 */\n      shr\n        /* \"ABDKMath64x64.sol\":16554:16653  if (x & 0x100000000000000 > 0)... */\n    tag_650:\n        /* \"ABDKMath64x64.sol\":16688:16689  0 */\n      0x00\n        /* \"ABDKMath64x64.sol\":16665:16666  x */\n      dup4\n        /* \"ABDKMath64x64.sol\":16669:16685  0x80000000000000 */\n      0x80000000000000\n        /* \"ABDKMath64x64.sol\":16665:16685  x & 0x80000000000000 */\n      and\n        /* \"ABDKMath64x64.sol\":16665:16689  x & 0x80000000000000 > 0 */\n      0x0f\n      signextend\n      sgt\n        /* \"ABDKMath64x64.sol\":16661:16759  if (x & 0x80000000000000 > 0)... */\n      iszero\n      tag_651\n      jumpi\n        /* \"ABDKMath64x64.sol\":16717:16752  0x10058C86DA1C09EA1FF19D294CF2F679B */\n      0x010058c86da1c09ea1ff19d294cf2f679b\n        /* \"ABDKMath64x64.sol\":16708:16752  result * 0x10058C86DA1C09EA1FF19D294CF2F679B */\n      mul\n        /* \"ABDKMath64x64.sol\":16756:16759  128 */\n      0x80\n        /* \"ABDKMath64x64.sol\":16708:16759  result * 0x10058C86DA1C09EA1FF19D294CF2F679B >> 128 */\n      shr\n        /* \"ABDKMath64x64.sol\":16661:16759  if (x & 0x80000000000000 > 0)... */\n    tag_651:\n        /* \"ABDKMath64x64.sol\":16794:16795  0 */\n      0x00\n        /* \"ABDKMath64x64.sol\":16771:16772  x */\n      dup4\n        /* \"ABDKMath64x64.sol\":16775:16791  0x40000000000000 */\n      0x40000000000000\n        /* \"ABDKMath64x64.sol\":16771:16791  x & 0x40000000000000 */\n      and\n        /* \"ABDKMath64x64.sol\":16771:16795  x & 0x40000000000000 > 0 */\n      0x0f\n      signextend\n      sgt\n        /* \"ABDKMath64x64.sol\":16767:16865  if (x & 0x40000000000000 > 0)... */\n      iszero\n      tag_652\n      jumpi\n        /* \"ABDKMath64x64.sol\":16823:16858  0x1002C605E2E8CEC506D21BFC89A23A00F */\n      0x01002c605e2e8cec506d21bfc89a23a00f\n        /* \"ABDKMath64x64.sol\":16814:16858  result * 0x1002C605E2E8CEC506D21BFC89A23A00F */\n      mul\n        /* \"ABDKMath64x64.sol\":16862:16865  128 */\n      0x80\n        /* \"ABDKMath64x64.sol\":16814:16865  result * 0x1002C605E2E8CEC506D21BFC89A23A00F >> 128 */\n      shr\n        /* \"ABDKMath64x64.sol\":16767:16865  if (x & 0x40000000000000 > 0)... */\n    tag_652:\n        /* \"ABDKMath64x64.sol\":16900:16901  0 */\n      0x00\n        /* \"ABDKMath64x64.sol\":16877:16878  x */\n      dup4\n        /* \"ABDKMath64x64.sol\":16881:16897  0x20000000000000 */\n      0x20000000000000\n        /* \"ABDKMath64x64.sol\":16877:16897  x & 0x20000000000000 */\n      and\n        /* \"ABDKMath64x64.sol\":16877:16901  x & 0x20000000000000 > 0 */\n      0x0f\n      signextend\n      sgt\n        /* \"ABDKMath64x64.sol\":16873:16971  if (x & 0x20000000000000 > 0)... */\n      iszero\n      tag_653\n      jumpi\n        /* \"ABDKMath64x64.sol\":16929:16964  0x100162F3904051FA128BCA9C55C31E5DF */\n      0x0100162f3904051fa128bca9c55c31e5df\n        /* \"ABDKMath64x64.sol\":16920:16964  result * 0x100162F3904051FA128BCA9C55C31E5DF */\n      mul\n        /* \"ABDKMath64x64.sol\":16968:16971  128 */\n      0x80\n        /* \"ABDKMath64x64.sol\":16920:16971  result * 0x100162F3904051FA128BCA9C55C31E5DF >> 128 */\n      shr\n        /* \"ABDKMath64x64.sol\":16873:16971  if (x & 0x20000000000000 > 0)... */\n    tag_653:\n        /* \"ABDKMath64x64.sol\":17006:17007  0 */\n      0x00\n        /* \"ABDKMath64x64.sol\":16983:16984  x */\n      dup4\n        /* \"ABDKMath64x64.sol\":16987:17003  0x10000000000000 */\n      0x10000000000000\n        /* \"ABDKMath64x64.sol\":16983:17003  x & 0x10000000000000 */\n      and\n        /* \"ABDKMath64x64.sol\":16983:17007  x & 0x10000000000000 > 0 */\n      0x0f\n      signextend\n      sgt\n        /* \"ABDKMath64x64.sol\":16979:17077  if (x & 0x10000000000000 > 0)... */\n      iszero\n      tag_654\n      jumpi\n        /* \"ABDKMath64x64.sol\":17035:17070  0x1000B175EFFDC76BA38E31671CA939725 */\n      0x01000b175effdc76ba38e31671ca939725\n        /* \"ABDKMath64x64.sol\":17026:17070  result * 0x1000B175EFFDC76BA38E31671CA939725 */\n      mul\n        /* \"ABDKMath64x64.sol\":17074:17077  128 */\n      0x80\n        /* \"ABDKMath64x64.sol\":17026:17077  result * 0x1000B175EFFDC76BA38E31671CA939725 >> 128 */\n      shr\n        /* \"ABDKMath64x64.sol\":16979:17077  if (x & 0x10000000000000 > 0)... */\n    tag_654:\n        /* \"ABDKMath64x64.sol\":17111:17112  0 */\n      0x00\n        /* \"ABDKMath64x64.sol\":17089:17090  x */\n      dup4\n        /* \"ABDKMath64x64.sol\":17093:17108  0x8000000000000 */\n      0x08000000000000\n        /* \"ABDKMath64x64.sol\":17089:17108  x & 0x8000000000000 */\n      and\n        /* \"ABDKMath64x64.sol\":17089:17112  x & 0x8000000000000 > 0 */\n      0x0f\n      signextend\n      sgt\n        /* \"ABDKMath64x64.sol\":17085:17182  if (x & 0x8000000000000 > 0)... */\n      iszero\n      tag_655\n      jumpi\n        /* \"ABDKMath64x64.sol\":17140:17175  0x100058BA01FB9F96D6CACD4B180917C3D */\n      0x0100058ba01fb9f96d6cacd4b180917c3d\n        /* \"ABDKMath64x64.sol\":17131:17175  result * 0x100058BA01FB9F96D6CACD4B180917C3D */\n      mul\n        /* \"ABDKMath64x64.sol\":17179:17182  128 */\n      0x80\n        /* \"ABDKMath64x64.sol\":17131:17182  result * 0x100058BA01FB9F96D6CACD4B180917C3D >> 128 */\n      shr\n        /* \"ABDKMath64x64.sol\":17085:17182  if (x & 0x8000000000000 > 0)... */\n    tag_655:\n        /* \"ABDKMath64x64.sol\":17216:17217  0 */\n      0x00\n        /* \"ABDKMath64x64.sol\":17194:17195  x */\n      dup4\n        /* \"ABDKMath64x64.sol\":17198:17213  0x4000000000000 */\n      0x04000000000000\n        /* \"ABDKMath64x64.sol\":17194:17213  x & 0x4000000000000 */\n      and\n        /* \"ABDKMath64x64.sol\":17194:17217  x & 0x4000000000000 > 0 */\n      0x0f\n      signextend\n      sgt\n        /* \"ABDKMath64x64.sol\":17190:17287  if (x & 0x4000000000000 > 0)... */\n      iszero\n      tag_656\n      jumpi\n        /* \"ABDKMath64x64.sol\":17245:17280  0x10002C5CC37DA9491D0985C348C68E7B3 */\n      0x010002c5cc37da9491d0985c348c68e7b3\n        /* \"ABDKMath64x64.sol\":17236:17280  result * 0x10002C5CC37DA9491D0985C348C68E7B3 */\n      mul\n        /* \"ABDKMath64x64.sol\":17284:17287  128 */\n      0x80\n        /* \"ABDKMath64x64.sol\":17236:17287  result * 0x10002C5CC37DA9491D0985C348C68E7B3 >> 128 */\n      shr\n        /* \"ABDKMath64x64.sol\":17190:17287  if (x & 0x4000000000000 > 0)... */\n    tag_656:\n        /* \"ABDKMath64x64.sol\":17321:17322  0 */\n      0x00\n        /* \"ABDKMath64x64.sol\":17299:17300  x */\n      dup4\n        /* \"ABDKMath64x64.sol\":17303:17318  0x2000000000000 */\n      0x02000000000000\n        /* \"ABDKMath64x64.sol\":17299:17318  x & 0x2000000000000 */\n      and\n        /* \"ABDKMath64x64.sol\":17299:17322  x & 0x2000000000000 > 0 */\n      0x0f\n      signextend\n      sgt\n        /* \"ABDKMath64x64.sol\":17295:17392  if (x & 0x2000000000000 > 0)... */\n      iszero\n      tag_657\n      jumpi\n        /* \"ABDKMath64x64.sol\":17350:17385  0x1000162E525EE054754457D5995292026 */\n      0x01000162e525ee054754457d5995292026\n        /* \"ABDKMath64x64.sol\":17341:17385  result * 0x1000162E525EE054754457D5995292026 */\n      mul\n        /* \"ABDKMath64x64.sol\":17389:17392  128 */\n      0x80\n        /* \"ABDKMath64x64.sol\":17341:17392  result * 0x1000162E525EE054754457D5995292026 >> 128 */\n      shr\n        /* \"ABDKMath64x64.sol\":17295:17392  if (x & 0x2000000000000 > 0)... */\n    tag_657:\n        /* \"ABDKMath64x64.sol\":17426:17427  0 */\n      0x00\n        /* \"ABDKMath64x64.sol\":17404:17405  x */\n      dup4\n        /* \"ABDKMath64x64.sol\":17408:17423  0x1000000000000 */\n      0x01000000000000\n        /* \"ABDKMath64x64.sol\":17404:17423  x & 0x1000000000000 */\n      and\n        /* \"ABDKMath64x64.sol\":17404:17427  x & 0x1000000000000 > 0 */\n      0x0f\n      signextend\n      sgt\n        /* \"ABDKMath64x64.sol\":17400:17497  if (x & 0x1000000000000 > 0)... */\n      iszero\n      tag_658\n      jumpi\n        /* \"ABDKMath64x64.sol\":17455:17490  0x10000B17255775C040618BF4A4ADE83FC */\n      0x010000b17255775c040618bf4a4ade83fc\n        /* \"ABDKMath64x64.sol\":17446:17490  result * 0x10000B17255775C040618BF4A4ADE83FC */\n      mul\n        /* \"ABDKMath64x64.sol\":17494:17497  128 */\n      0x80\n        /* \"ABDKMath64x64.sol\":17446:17497  result * 0x10000B17255775C040618BF4A4ADE83FC >> 128 */\n      shr\n        /* \"ABDKMath64x64.sol\":17400:17497  if (x & 0x1000000000000 > 0)... */\n    tag_658:\n        /* \"ABDKMath64x64.sol\":17530:17531  0 */\n      0x00\n        /* \"ABDKMath64x64.sol\":17509:17510  x */\n      dup4\n        /* \"ABDKMath64x64.sol\":17513:17527  0x800000000000 */\n      0x800000000000\n        /* \"ABDKMath64x64.sol\":17509:17527  x & 0x800000000000 */\n      and\n        /* \"ABDKMath64x64.sol\":17509:17531  x & 0x800000000000 > 0 */\n      0x0f\n      signextend\n      sgt\n        /* \"ABDKMath64x64.sol\":17505:17601  if (x & 0x800000000000 > 0)... */\n      iszero\n      tag_659\n      jumpi\n        /* \"ABDKMath64x64.sol\":17559:17594  0x1000058B91B5BC9AE2EED81E9B7D4CFAB */\n      0x01000058b91b5bc9ae2eed81e9b7d4cfab\n        /* \"ABDKMath64x64.sol\":17550:17594  result * 0x1000058B91B5BC9AE2EED81E9B7D4CFAB */\n      mul\n        /* \"ABDKMath64x64.sol\":17598:17601  128 */\n      0x80\n        /* \"ABDKMath64x64.sol\":17550:17601  result * 0x1000058B91B5BC9AE2EED81E9B7D4CFAB >> 128 */\n      shr\n        /* \"ABDKMath64x64.sol\":17505:17601  if (x & 0x800000000000 > 0)... */\n    tag_659:\n        /* \"ABDKMath64x64.sol\":17634:17635  0 */\n      0x00\n        /* \"ABDKMath64x64.sol\":17613:17614  x */\n      dup4\n        /* \"ABDKMath64x64.sol\":17617:17631  0x400000000000 */\n      0x400000000000\n        /* \"ABDKMath64x64.sol\":17613:17631  x & 0x400000000000 */\n      and\n        /* \"ABDKMath64x64.sol\":17613:17635  x & 0x400000000000 > 0 */\n      0x0f\n      signextend\n      sgt\n        /* \"ABDKMath64x64.sol\":17609:17705  if (x & 0x400000000000 > 0)... */\n      iszero\n      tag_660\n      jumpi\n        /* \"ABDKMath64x64.sol\":17663:17698  0x100002C5C89D5EC6CA4D7C8ACC017B7C9 */\n      0x0100002c5c89d5ec6ca4d7c8acc017b7c9\n        /* \"ABDKMath64x64.sol\":17654:17698  result * 0x100002C5C89D5EC6CA4D7C8ACC017B7C9 */\n      mul\n        /* \"ABDKMath64x64.sol\":17702:17705  128 */\n      0x80\n        /* \"ABDKMath64x64.sol\":17654:17705  result * 0x100002C5C89D5EC6CA4D7C8ACC017B7C9 >> 128 */\n      shr\n        /* \"ABDKMath64x64.sol\":17609:17705  if (x & 0x400000000000 > 0)... */\n    tag_660:\n        /* \"ABDKMath64x64.sol\":17738:17739  0 */\n      0x00\n        /* \"ABDKMath64x64.sol\":17717:17718  x */\n      dup4\n        /* \"ABDKMath64x64.sol\":17721:17735  0x200000000000 */\n      0x200000000000\n        /* \"ABDKMath64x64.sol\":17717:17735  x & 0x200000000000 */\n      and\n        /* \"ABDKMath64x64.sol\":17717:17739  x & 0x200000000000 > 0 */\n      0x0f\n      signextend\n      sgt\n        /* \"ABDKMath64x64.sol\":17713:17809  if (x & 0x200000000000 > 0)... */\n      iszero\n      tag_661\n      jumpi\n        /* \"ABDKMath64x64.sol\":17767:17802  0x10000162E43F4F831060E02D839A9D16D */\n      0x010000162e43f4f831060e02d839a9d16d\n        /* \"ABDKMath64x64.sol\":17758:17802  result * 0x10000162E43F4F831060E02D839A9D16D */\n      mul\n        /* \"ABDKMath64x64.sol\":17806:17809  128 */\n      0x80\n        /* \"ABDKMath64x64.sol\":17758:17809  result * 0x10000162E43F4F831060E02D839A9D16D >> 128 */\n      shr\n        /* \"ABDKMath64x64.sol\":17713:17809  if (x & 0x200000000000 > 0)... */\n    tag_661:\n        /* \"ABDKMath64x64.sol\":17842:17843  0 */\n      0x00\n        /* \"ABDKMath64x64.sol\":17821:17822  x */\n      dup4\n        /* \"ABDKMath64x64.sol\":17825:17839  0x100000000000 */\n      0x100000000000\n        /* \"ABDKMath64x64.sol\":17821:17839  x & 0x100000000000 */\n      and\n        /* \"ABDKMath64x64.sol\":17821:17843  x & 0x100000000000 > 0 */\n      0x0f\n      signextend\n      sgt\n        /* \"ABDKMath64x64.sol\":17817:17913  if (x & 0x100000000000 > 0)... */\n      iszero\n      tag_662\n      jumpi\n        /* \"ABDKMath64x64.sol\":17871:17906  0x100000B1721BCFC99D9F890EA06911763 */\n      0x0100000b1721bcfc99d9f890ea06911763\n        /* \"ABDKMath64x64.sol\":17862:17906  result * 0x100000B1721BCFC99D9F890EA06911763 */\n      mul\n        /* \"ABDKMath64x64.sol\":17910:17913  128 */\n      0x80\n        /* \"ABDKMath64x64.sol\":17862:17913  result * 0x100000B1721BCFC99D9F890EA06911763 >> 128 */\n      shr\n        /* \"ABDKMath64x64.sol\":17817:17913  if (x & 0x100000000000 > 0)... */\n    tag_662:\n        /* \"ABDKMath64x64.sol\":17945:17946  0 */\n      0x00\n        /* \"ABDKMath64x64.sol\":17925:17926  x */\n      dup4\n        /* \"ABDKMath64x64.sol\":17929:17942  0x80000000000 */\n      0x080000000000\n        /* \"ABDKMath64x64.sol\":17925:17942  x & 0x80000000000 */\n      and\n        /* \"ABDKMath64x64.sol\":17925:17946  x & 0x80000000000 > 0 */\n      0x0f\n      signextend\n      sgt\n        /* \"ABDKMath64x64.sol\":17921:18016  if (x & 0x80000000000 > 0)... */\n      iszero\n      tag_663\n      jumpi\n        /* \"ABDKMath64x64.sol\":17974:18009  0x10000058B90CF1E6D97F9CA14DBCC1628 */\n      0x010000058b90cf1e6d97f9ca14dbcc1628\n        /* \"ABDKMath64x64.sol\":17965:18009  result * 0x10000058B90CF1E6D97F9CA14DBCC1628 */\n      mul\n        /* \"ABDKMath64x64.sol\":18013:18016  128 */\n      0x80\n        /* \"ABDKMath64x64.sol\":17965:18016  result * 0x10000058B90CF1E6D97F9CA14DBCC1628 >> 128 */\n      shr\n        /* \"ABDKMath64x64.sol\":17921:18016  if (x & 0x80000000000 > 0)... */\n    tag_663:\n        /* \"ABDKMath64x64.sol\":18048:18049  0 */\n      0x00\n        /* \"ABDKMath64x64.sol\":18028:18029  x */\n      dup4\n        /* \"ABDKMath64x64.sol\":18032:18045  0x40000000000 */\n      0x040000000000\n        /* \"ABDKMath64x64.sol\":18028:18045  x & 0x40000000000 */\n      and\n        /* \"ABDKMath64x64.sol\":18028:18049  x & 0x40000000000 > 0 */\n      0x0f\n      signextend\n      sgt\n        /* \"ABDKMath64x64.sol\":18024:18119  if (x & 0x40000000000 > 0)... */\n      iszero\n      tag_664\n      jumpi\n        /* \"ABDKMath64x64.sol\":18077:18112  0x1000002C5C863B73F016468F6BAC5CA2B */\n      0x01000002c5c863b73f016468f6bac5ca2b\n        /* \"ABDKMath64x64.sol\":18068:18112  result * 0x1000002C5C863B73F016468F6BAC5CA2B */\n      mul\n        /* \"ABDKMath64x64.sol\":18116:18119  128 */\n      0x80\n        /* \"ABDKMath64x64.sol\":18068:18119  result * 0x1000002C5C863B73F016468F6BAC5CA2B >> 128 */\n      shr\n        /* \"ABDKMath64x64.sol\":18024:18119  if (x & 0x40000000000 > 0)... */\n    tag_664:\n        /* \"ABDKMath64x64.sol\":18151:18152  0 */\n      0x00\n        /* \"ABDKMath64x64.sol\":18131:18132  x */\n      dup4\n        /* \"ABDKMath64x64.sol\":18135:18148  0x20000000000 */\n      0x020000000000\n        /* \"ABDKMath64x64.sol\":18131:18148  x & 0x20000000000 */\n      and\n        /* \"ABDKMath64x64.sol\":18131:18152  x & 0x20000000000 > 0 */\n      0x0f\n      signextend\n      sgt\n        /* \"ABDKMath64x64.sol\":18127:18222  if (x & 0x20000000000 > 0)... */\n      iszero\n      tag_665\n      jumpi\n        /* \"ABDKMath64x64.sol\":18180:18215  0x100000162E430E5A18F6119E3C02282A5 */\n      0x0100000162e430e5a18f6119e3c02282a5\n        /* \"ABDKMath64x64.sol\":18171:18215  result * 0x100000162E430E5A18F6119E3C02282A5 */\n      mul\n        /* \"ABDKMath64x64.sol\":18219:18222  128 */\n      0x80\n        /* \"ABDKMath64x64.sol\":18171:18222  result * 0x100000162E430E5A18F6119E3C02282A5 >> 128 */\n      shr\n        /* \"ABDKMath64x64.sol\":18127:18222  if (x & 0x20000000000 > 0)... */\n    tag_665:\n        /* \"ABDKMath64x64.sol\":18254:18255  0 */\n      0x00\n        /* \"ABDKMath64x64.sol\":18234:18235  x */\n      dup4\n        /* \"ABDKMath64x64.sol\":18238:18251  0x10000000000 */\n      0x010000000000\n        /* \"ABDKMath64x64.sol\":18234:18251  x & 0x10000000000 */\n      and\n        /* \"ABDKMath64x64.sol\":18234:18255  x & 0x10000000000 > 0 */\n      0x0f\n      signextend\n      sgt\n        /* \"ABDKMath64x64.sol\":18230:18325  if (x & 0x10000000000 > 0)... */\n      iszero\n      tag_666\n      jumpi\n        /* \"ABDKMath64x64.sol\":18283:18318  0x1000000B1721835514B86E6D96EFD1BFE */\n      0x01000000b1721835514b86e6d96efd1bfe\n        /* \"ABDKMath64x64.sol\":18274:18318  result * 0x1000000B1721835514B86E6D96EFD1BFE */\n      mul\n        /* \"ABDKMath64x64.sol\":18322:18325  128 */\n      0x80\n        /* \"ABDKMath64x64.sol\":18274:18325  result * 0x1000000B1721835514B86E6D96EFD1BFE >> 128 */\n      shr\n        /* \"ABDKMath64x64.sol\":18230:18325  if (x & 0x10000000000 > 0)... */\n    tag_666:\n        /* \"ABDKMath64x64.sol\":18356:18357  0 */\n      0x00\n        /* \"ABDKMath64x64.sol\":18337:18338  x */\n      dup4\n        /* \"ABDKMath64x64.sol\":18341:18353  0x8000000000 */\n      0x8000000000\n        /* \"ABDKMath64x64.sol\":18337:18353  x & 0x8000000000 */\n      and\n        /* \"ABDKMath64x64.sol\":18337:18357  x & 0x8000000000 > 0 */\n      0x0f\n      signextend\n      sgt\n        /* \"ABDKMath64x64.sol\":18333:18427  if (x & 0x8000000000 > 0)... */\n      iszero\n      tag_667\n      jumpi\n        /* \"ABDKMath64x64.sol\":18385:18420  0x100000058B90C0B48C6BE5DF846C5B2EF */\n      0x0100000058b90c0b48c6be5df846c5b2ef\n        /* \"ABDKMath64x64.sol\":18376:18420  result * 0x100000058B90C0B48C6BE5DF846C5B2EF */\n      mul\n        /* \"ABDKMath64x64.sol\":18424:18427  128 */\n      0x80\n        /* \"ABDKMath64x64.sol\":18376:18427  result * 0x100000058B90C0B48C6BE5DF846C5B2EF >> 128 */\n      shr\n        /* \"ABDKMath64x64.sol\":18333:18427  if (x & 0x8000000000 > 0)... */\n    tag_667:\n        /* \"ABDKMath64x64.sol\":18458:18459  0 */\n      0x00\n        /* \"ABDKMath64x64.sol\":18439:18440  x */\n      dup4\n        /* \"ABDKMath64x64.sol\":18443:18455  0x4000000000 */\n      0x4000000000\n        /* \"ABDKMath64x64.sol\":18439:18455  x & 0x4000000000 */\n      and\n        /* \"ABDKMath64x64.sol\":18439:18459  x & 0x4000000000 > 0 */\n      0x0f\n      signextend\n      sgt\n        /* \"ABDKMath64x64.sol\":18435:18529  if (x & 0x4000000000 > 0)... */\n      iszero\n      tag_668\n      jumpi\n        /* \"ABDKMath64x64.sol\":18487:18522  0x10000002C5C8601CC6B9E94213C72737A */\n      0x010000002c5c8601cc6b9e94213c72737a\n        /* \"ABDKMath64x64.sol\":18478:18522  result * 0x10000002C5C8601CC6B9E94213C72737A */\n      mul\n        /* \"ABDKMath64x64.sol\":18526:18529  128 */\n      0x80\n        /* \"ABDKMath64x64.sol\":18478:18529  result * 0x10000002C5C8601CC6B9E94213C72737A >> 128 */\n      shr\n        /* \"ABDKMath64x64.sol\":18435:18529  if (x & 0x4000000000 > 0)... */\n    tag_668:\n        /* \"ABDKMath64x64.sol\":18560:18561  0 */\n      0x00\n        /* \"ABDKMath64x64.sol\":18541:18542  x */\n      dup4\n        /* \"ABDKMath64x64.sol\":18545:18557  0x2000000000 */\n      0x2000000000\n        /* \"ABDKMath64x64.sol\":18541:18557  x & 0x2000000000 */\n      and\n        /* \"ABDKMath64x64.sol\":18541:18561  x & 0x2000000000 > 0 */\n      0x0f\n      signextend\n      sgt\n        /* \"ABDKMath64x64.sol\":18537:18631  if (x & 0x2000000000 > 0)... */\n      iszero\n      tag_669\n      jumpi\n        /* \"ABDKMath64x64.sol\":18589:18624  0x1000000162E42FFF037DF38AA2B219F06 */\n      0x01000000162e42fff037df38aa2b219f06\n        /* \"ABDKMath64x64.sol\":18580:18624  result * 0x1000000162E42FFF037DF38AA2B219F06 */\n      mul\n        /* \"ABDKMath64x64.sol\":18628:18631  128 */\n      0x80\n        /* \"ABDKMath64x64.sol\":18580:18631  result * 0x1000000162E42FFF037DF38AA2B219F06 >> 128 */\n      shr\n        /* \"ABDKMath64x64.sol\":18537:18631  if (x & 0x2000000000 > 0)... */\n    tag_669:\n        /* \"ABDKMath64x64.sol\":18662:18663  0 */\n      0x00\n        /* \"ABDKMath64x64.sol\":18643:18644  x */\n      dup4\n        /* \"ABDKMath64x64.sol\":18647:18659  0x1000000000 */\n      0x1000000000\n        /* \"ABDKMath64x64.sol\":18643:18659  x & 0x1000000000 */\n      and\n        /* \"ABDKMath64x64.sol\":18643:18663  x & 0x1000000000 > 0 */\n      0x0f\n      signextend\n      sgt\n        /* \"ABDKMath64x64.sol\":18639:18733  if (x & 0x1000000000 > 0)... */\n      iszero\n      tag_670\n      jumpi\n        /* \"ABDKMath64x64.sol\":18691:18726  0x10000000B17217FBA9C739AA5819F44F9 */\n      0x010000000b17217fba9c739aa5819f44f9\n        /* \"ABDKMath64x64.sol\":18682:18726  result * 0x10000000B17217FBA9C739AA5819F44F9 */\n      mul\n        /* \"ABDKMath64x64.sol\":18730:18733  128 */\n      0x80\n        /* \"ABDKMath64x64.sol\":18682:18733  result * 0x10000000B17217FBA9C739AA5819F44F9 >> 128 */\n      shr\n        /* \"ABDKMath64x64.sol\":18639:18733  if (x & 0x1000000000 > 0)... */\n    tag_670:\n        /* \"ABDKMath64x64.sol\":18763:18764  0 */\n      0x00\n        /* \"ABDKMath64x64.sol\":18745:18746  x */\n      dup4\n        /* \"ABDKMath64x64.sol\":18749:18760  0x800000000 */\n      0x0800000000\n        /* \"ABDKMath64x64.sol\":18745:18760  x & 0x800000000 */\n      and\n        /* \"ABDKMath64x64.sol\":18745:18764  x & 0x800000000 > 0 */\n      0x0f\n      signextend\n      sgt\n        /* \"ABDKMath64x64.sol\":18741:18834  if (x & 0x800000000 > 0)... */\n      iszero\n      tag_671\n      jumpi\n        /* \"ABDKMath64x64.sol\":18792:18827  0x1000000058B90BFCDEE5ACD3C1CEDC823 */\n      0x01000000058b90bfcdee5acd3c1cedc823\n        /* \"ABDKMath64x64.sol\":18783:18827  result * 0x1000000058B90BFCDEE5ACD3C1CEDC823 */\n      mul\n        /* \"ABDKMath64x64.sol\":18831:18834  128 */\n      0x80\n        /* \"ABDKMath64x64.sol\":18783:18834  result * 0x1000000058B90BFCDEE5ACD3C1CEDC823 >> 128 */\n      shr\n        /* \"ABDKMath64x64.sol\":18741:18834  if (x & 0x800000000 > 0)... */\n    tag_671:\n        /* \"ABDKMath64x64.sol\":18864:18865  0 */\n      0x00\n        /* \"ABDKMath64x64.sol\":18846:18847  x */\n      dup4\n        /* \"ABDKMath64x64.sol\":18850:18861  0x400000000 */\n      0x0400000000\n        /* \"ABDKMath64x64.sol\":18846:18861  x & 0x400000000 */\n      and\n        /* \"ABDKMath64x64.sol\":18846:18865  x & 0x400000000 > 0 */\n      0x0f\n      signextend\n      sgt\n        /* \"ABDKMath64x64.sol\":18842:18935  if (x & 0x400000000 > 0)... */\n      iszero\n      tag_672\n      jumpi\n        /* \"ABDKMath64x64.sol\":18893:18928  0x100000002C5C85FE31F35A6A30DA1BE50 */\n      0x0100000002c5c85fe31f35a6a30da1be50\n        /* \"ABDKMath64x64.sol\":18884:18928  result * 0x100000002C5C85FE31F35A6A30DA1BE50 */\n      mul\n        /* \"ABDKMath64x64.sol\":18932:18935  128 */\n      0x80\n        /* \"ABDKMath64x64.sol\":18884:18935  result * 0x100000002C5C85FE31F35A6A30DA1BE50 >> 128 */\n      shr\n        /* \"ABDKMath64x64.sol\":18842:18935  if (x & 0x400000000 > 0)... */\n    tag_672:\n        /* \"ABDKMath64x64.sol\":18965:18966  0 */\n      0x00\n        /* \"ABDKMath64x64.sol\":18947:18948  x */\n      dup4\n        /* \"ABDKMath64x64.sol\":18951:18962  0x200000000 */\n      0x0200000000\n        /* \"ABDKMath64x64.sol\":18947:18962  x & 0x200000000 */\n      and\n        /* \"ABDKMath64x64.sol\":18947:18966  x & 0x200000000 > 0 */\n      0x0f\n      signextend\n      sgt\n        /* \"ABDKMath64x64.sol\":18943:19036  if (x & 0x200000000 > 0)... */\n      iszero\n      tag_673\n      jumpi\n        /* \"ABDKMath64x64.sol\":18994:19029  0x10000000162E42FF0999CE3541B9FFFCF */\n      0x010000000162e42ff0999ce3541b9fffcf\n        /* \"ABDKMath64x64.sol\":18985:19029  result * 0x10000000162E42FF0999CE3541B9FFFCF */\n      mul\n        /* \"ABDKMath64x64.sol\":19033:19036  128 */\n      0x80\n        /* \"ABDKMath64x64.sol\":18985:19036  result * 0x10000000162E42FF0999CE3541B9FFFCF >> 128 */\n      shr\n        /* \"ABDKMath64x64.sol\":18943:19036  if (x & 0x200000000 > 0)... */\n    tag_673:\n        /* \"ABDKMath64x64.sol\":19066:19067  0 */\n      0x00\n        /* \"ABDKMath64x64.sol\":19048:19049  x */\n      dup4\n        /* \"ABDKMath64x64.sol\":19052:19063  0x100000000 */\n      0x0100000000\n        /* \"ABDKMath64x64.sol\":19048:19063  x & 0x100000000 */\n      and\n        /* \"ABDKMath64x64.sol\":19048:19067  x & 0x100000000 > 0 */\n      0x0f\n      signextend\n      sgt\n        /* \"ABDKMath64x64.sol\":19044:19137  if (x & 0x100000000 > 0)... */\n      iszero\n      tag_674\n      jumpi\n        /* \"ABDKMath64x64.sol\":19095:19130  0x100000000B17217F80F4EF5AADDA45554 */\n      0x0100000000b17217f80f4ef5aadda45554\n        /* \"ABDKMath64x64.sol\":19086:19130  result * 0x100000000B17217F80F4EF5AADDA45554 */\n      mul\n        /* \"ABDKMath64x64.sol\":19134:19137  128 */\n      0x80\n        /* \"ABDKMath64x64.sol\":19086:19137  result * 0x100000000B17217F80F4EF5AADDA45554 >> 128 */\n      shr\n        /* \"ABDKMath64x64.sol\":19044:19137  if (x & 0x100000000 > 0)... */\n    tag_674:\n        /* \"ABDKMath64x64.sol\":19166:19167  0 */\n      0x00\n        /* \"ABDKMath64x64.sol\":19149:19150  x */\n      dup4\n        /* \"ABDKMath64x64.sol\":19153:19163  0x80000000 */\n      0x80000000\n        /* \"ABDKMath64x64.sol\":19149:19163  x & 0x80000000 */\n      and\n        /* \"ABDKMath64x64.sol\":19149:19167  x & 0x80000000 > 0 */\n      0x0f\n      signextend\n      sgt\n        /* \"ABDKMath64x64.sol\":19145:19237  if (x & 0x80000000 > 0)... */\n      iszero\n      tag_675\n      jumpi\n        /* \"ABDKMath64x64.sol\":19195:19230  0x10000000058B90BFBF8479BD5A81B51AD */\n      0x010000000058b90bfbf8479bd5a81b51ad\n        /* \"ABDKMath64x64.sol\":19186:19230  result * 0x10000000058B90BFBF8479BD5A81B51AD */\n      mul\n        /* \"ABDKMath64x64.sol\":19234:19237  128 */\n      0x80\n        /* \"ABDKMath64x64.sol\":19186:19237  result * 0x10000000058B90BFBF8479BD5A81B51AD >> 128 */\n      shr\n        /* \"ABDKMath64x64.sol\":19145:19237  if (x & 0x80000000 > 0)... */\n    tag_675:\n        /* \"ABDKMath64x64.sol\":19266:19267  0 */\n      0x00\n        /* \"ABDKMath64x64.sol\":19249:19250  x */\n      dup4\n        /* \"ABDKMath64x64.sol\":19253:19263  0x40000000 */\n      0x40000000\n        /* \"ABDKMath64x64.sol\":19249:19263  x & 0x40000000 */\n      and\n        /* \"ABDKMath64x64.sol\":19249:19267  x & 0x40000000 > 0 */\n      0x0f\n      signextend\n      sgt\n        /* \"ABDKMath64x64.sol\":19245:19337  if (x & 0x40000000 > 0)... */\n      iszero\n      tag_676\n      jumpi\n        /* \"ABDKMath64x64.sol\":19295:19330  0x1000000002C5C85FDF84BD62AE30A74CC */\n      0x01000000002c5c85fdf84bd62ae30a74cc\n        /* \"ABDKMath64x64.sol\":19286:19330  result * 0x1000000002C5C85FDF84BD62AE30A74CC */\n      mul\n        /* \"ABDKMath64x64.sol\":19334:19337  128 */\n      0x80\n        /* \"ABDKMath64x64.sol\":19286:19337  result * 0x1000000002C5C85FDF84BD62AE30A74CC >> 128 */\n      shr\n        /* \"ABDKMath64x64.sol\":19245:19337  if (x & 0x40000000 > 0)... */\n    tag_676:\n        /* \"ABDKMath64x64.sol\":19366:19367  0 */\n      0x00\n        /* \"ABDKMath64x64.sol\":19349:19350  x */\n      dup4\n        /* \"ABDKMath64x64.sol\":19353:19363  0x20000000 */\n      0x20000000\n        /* \"ABDKMath64x64.sol\":19349:19363  x & 0x20000000 */\n      and\n        /* \"ABDKMath64x64.sol\":19349:19367  x & 0x20000000 > 0 */\n      0x0f\n      signextend\n      sgt\n        /* \"ABDKMath64x64.sol\":19345:19437  if (x & 0x20000000 > 0)... */\n      iszero\n      tag_677\n      jumpi\n        /* \"ABDKMath64x64.sol\":19395:19430  0x100000000162E42FEFB2FED257559BDAA */\n      0x0100000000162e42fefb2fed257559bdaa\n        /* \"ABDKMath64x64.sol\":19386:19430  result * 0x100000000162E42FEFB2FED257559BDAA */\n      mul\n        /* \"ABDKMath64x64.sol\":19434:19437  128 */\n      0x80\n        /* \"ABDKMath64x64.sol\":19386:19437  result * 0x100000000162E42FEFB2FED257559BDAA >> 128 */\n      shr\n        /* \"ABDKMath64x64.sol\":19345:19437  if (x & 0x20000000 > 0)... */\n    tag_677:\n        /* \"ABDKMath64x64.sol\":19466:19467  0 */\n      0x00\n        /* \"ABDKMath64x64.sol\":19449:19450  x */\n      dup4\n        /* \"ABDKMath64x64.sol\":19453:19463  0x10000000 */\n      0x10000000\n        /* \"ABDKMath64x64.sol\":19449:19463  x & 0x10000000 */\n      and\n        /* \"ABDKMath64x64.sol\":19449:19467  x & 0x10000000 > 0 */\n      0x0f\n      signextend\n      sgt\n        /* \"ABDKMath64x64.sol\":19445:19537  if (x & 0x10000000 > 0)... */\n      iszero\n      tag_678\n      jumpi\n        /* \"ABDKMath64x64.sol\":19495:19530  0x1000000000B17217F7D5A7716BBA4A9AE */\n      0x01000000000b17217f7d5a7716bba4a9ae\n        /* \"ABDKMath64x64.sol\":19486:19530  result * 0x1000000000B17217F7D5A7716BBA4A9AE */\n      mul\n        /* \"ABDKMath64x64.sol\":19534:19537  128 */\n      0x80\n        /* \"ABDKMath64x64.sol\":19486:19537  result * 0x1000000000B17217F7D5A7716BBA4A9AE >> 128 */\n      shr\n        /* \"ABDKMath64x64.sol\":19445:19537  if (x & 0x10000000 > 0)... */\n    tag_678:\n        /* \"ABDKMath64x64.sol\":19565:19566  0 */\n      0x00\n        /* \"ABDKMath64x64.sol\":19549:19550  x */\n      dup4\n        /* \"ABDKMath64x64.sol\":19553:19562  0x8000000 */\n      0x08000000\n        /* \"ABDKMath64x64.sol\":19549:19562  x & 0x8000000 */\n      and\n        /* \"ABDKMath64x64.sol\":19549:19566  x & 0x8000000 > 0 */\n      0x0f\n      signextend\n      sgt\n        /* \"ABDKMath64x64.sol\":19545:19636  if (x & 0x8000000 > 0)... */\n      iszero\n      tag_679\n      jumpi\n        /* \"ABDKMath64x64.sol\":19594:19629  0x100000000058B90BFBE9DDBAC5E109CCE */\n      0x0100000000058b90bfbe9ddbac5e109cce\n        /* \"ABDKMath64x64.sol\":19585:19629  result * 0x100000000058B90BFBE9DDBAC5E109CCE */\n      mul\n        /* \"ABDKMath64x64.sol\":19633:19636  128 */\n      0x80\n        /* \"ABDKMath64x64.sol\":19585:19636  result * 0x100000000058B90BFBE9DDBAC5E109CCE >> 128 */\n      shr\n        /* \"ABDKMath64x64.sol\":19545:19636  if (x & 0x8000000 > 0)... */\n    tag_679:\n        /* \"ABDKMath64x64.sol\":19664:19665  0 */\n      0x00\n        /* \"ABDKMath64x64.sol\":19648:19649  x */\n      dup4\n        /* \"ABDKMath64x64.sol\":19652:19661  0x4000000 */\n      0x04000000\n        /* \"ABDKMath64x64.sol\":19648:19661  x & 0x4000000 */\n      and\n        /* \"ABDKMath64x64.sol\":19648:19665  x & 0x4000000 > 0 */\n      0x0f\n      signextend\n      sgt\n        /* \"ABDKMath64x64.sol\":19644:19735  if (x & 0x4000000 > 0)... */\n      iszero\n      tag_680\n      jumpi\n        /* \"ABDKMath64x64.sol\":19693:19728  0x10000000002C5C85FDF4B15DE6F17EB0D */\n      0x010000000002c5c85fdf4b15de6f17eb0d\n        /* \"ABDKMath64x64.sol\":19684:19728  result * 0x10000000002C5C85FDF4B15DE6F17EB0D */\n      mul\n        /* \"ABDKMath64x64.sol\":19732:19735  128 */\n      0x80\n        /* \"ABDKMath64x64.sol\":19684:19735  result * 0x10000000002C5C85FDF4B15DE6F17EB0D >> 128 */\n      shr\n        /* \"ABDKMath64x64.sol\":19644:19735  if (x & 0x4000000 > 0)... */\n    tag_680:\n        /* \"ABDKMath64x64.sol\":19763:19764  0 */\n      0x00\n        /* \"ABDKMath64x64.sol\":19747:19748  x */\n      dup4\n        /* \"ABDKMath64x64.sol\":19751:19760  0x2000000 */\n      0x02000000\n        /* \"ABDKMath64x64.sol\":19747:19760  x & 0x2000000 */\n      and\n        /* \"ABDKMath64x64.sol\":19747:19764  x & 0x2000000 > 0 */\n      0x0f\n      signextend\n      sgt\n        /* \"ABDKMath64x64.sol\":19743:19834  if (x & 0x2000000 > 0)... */\n      iszero\n      tag_681\n      jumpi\n        /* \"ABDKMath64x64.sol\":19792:19827  0x1000000000162E42FEFA494F1478FDE05 */\n      0x01000000000162e42fefa494f1478fde05\n        /* \"ABDKMath64x64.sol\":19783:19827  result * 0x1000000000162E42FEFA494F1478FDE05 */\n      mul\n        /* \"ABDKMath64x64.sol\":19831:19834  128 */\n      0x80\n        /* \"ABDKMath64x64.sol\":19783:19834  result * 0x1000000000162E42FEFA494F1478FDE05 >> 128 */\n      shr\n        /* \"ABDKMath64x64.sol\":19743:19834  if (x & 0x2000000 > 0)... */\n    tag_681:\n        /* \"ABDKMath64x64.sol\":19862:19863  0 */\n      0x00\n        /* \"ABDKMath64x64.sol\":19846:19847  x */\n      dup4\n        /* \"ABDKMath64x64.sol\":19850:19859  0x1000000 */\n      0x01000000\n        /* \"ABDKMath64x64.sol\":19846:19859  x & 0x1000000 */\n      and\n        /* \"ABDKMath64x64.sol\":19846:19863  x & 0x1000000 > 0 */\n      0x0f\n      signextend\n      sgt\n        /* \"ABDKMath64x64.sol\":19842:19933  if (x & 0x1000000 > 0)... */\n      iszero\n      tag_682\n      jumpi\n        /* \"ABDKMath64x64.sol\":19891:19926  0x10000000000B17217F7D20CF927C8E94C */\n      0x010000000000b17217f7d20cf927c8e94c\n        /* \"ABDKMath64x64.sol\":19882:19926  result * 0x10000000000B17217F7D20CF927C8E94C */\n      mul\n        /* \"ABDKMath64x64.sol\":19930:19933  128 */\n      0x80\n        /* \"ABDKMath64x64.sol\":19882:19933  result * 0x10000000000B17217F7D20CF927C8E94C >> 128 */\n      shr\n        /* \"ABDKMath64x64.sol\":19842:19933  if (x & 0x1000000 > 0)... */\n    tag_682:\n        /* \"ABDKMath64x64.sol\":19960:19961  0 */\n      0x00\n        /* \"ABDKMath64x64.sol\":19945:19946  x */\n      dup4\n        /* \"ABDKMath64x64.sol\":19949:19957  0x800000 */\n      0x800000\n        /* \"ABDKMath64x64.sol\":19945:19957  x & 0x800000 */\n      and\n        /* \"ABDKMath64x64.sol\":19945:19961  x & 0x800000 > 0 */\n      0x0f\n      signextend\n      sgt\n        /* \"ABDKMath64x64.sol\":19941:20031  if (x & 0x800000 > 0)... */\n      iszero\n      tag_683\n      jumpi\n        /* \"ABDKMath64x64.sol\":19989:20024  0x1000000000058B90BFBE8F71CB4E4B33D */\n      0x01000000000058b90bfbe8f71cb4e4b33d\n        /* \"ABDKMath64x64.sol\":19980:20024  result * 0x1000000000058B90BFBE8F71CB4E4B33D */\n      mul\n        /* \"ABDKMath64x64.sol\":20028:20031  128 */\n      0x80\n        /* \"ABDKMath64x64.sol\":19980:20031  result * 0x1000000000058B90BFBE8F71CB4E4B33D >> 128 */\n      shr\n        /* \"ABDKMath64x64.sol\":19941:20031  if (x & 0x800000 > 0)... */\n    tag_683:\n        /* \"ABDKMath64x64.sol\":20058:20059  0 */\n      0x00\n        /* \"ABDKMath64x64.sol\":20043:20044  x */\n      dup4\n        /* \"ABDKMath64x64.sol\":20047:20055  0x400000 */\n      0x400000\n        /* \"ABDKMath64x64.sol\":20043:20055  x & 0x400000 */\n      and\n        /* \"ABDKMath64x64.sol\":20043:20059  x & 0x400000 > 0 */\n      0x0f\n      signextend\n      sgt\n        /* \"ABDKMath64x64.sol\":20039:20129  if (x & 0x400000 > 0)... */\n      iszero\n      tag_684\n      jumpi\n        /* \"ABDKMath64x64.sol\":20087:20122  0x100000000002C5C85FDF477B662B26945 */\n      0x0100000000002c5c85fdf477b662b26945\n        /* \"ABDKMath64x64.sol\":20078:20122  result * 0x100000000002C5C85FDF477B662B26945 */\n      mul\n        /* \"ABDKMath64x64.sol\":20126:20129  128 */\n      0x80\n        /* \"ABDKMath64x64.sol\":20078:20129  result * 0x100000000002C5C85FDF477B662B26945 >> 128 */\n      shr\n        /* \"ABDKMath64x64.sol\":20039:20129  if (x & 0x400000 > 0)... */\n    tag_684:\n        /* \"ABDKMath64x64.sol\":20156:20157  0 */\n      0x00\n        /* \"ABDKMath64x64.sol\":20141:20142  x */\n      dup4\n        /* \"ABDKMath64x64.sol\":20145:20153  0x200000 */\n      0x200000\n        /* \"ABDKMath64x64.sol\":20141:20153  x & 0x200000 */\n      and\n        /* \"ABDKMath64x64.sol\":20141:20157  x & 0x200000 > 0 */\n      0x0f\n      signextend\n      sgt\n        /* \"ABDKMath64x64.sol\":20137:20227  if (x & 0x200000 > 0)... */\n      iszero\n      tag_685\n      jumpi\n        /* \"ABDKMath64x64.sol\":20185:20220  0x10000000000162E42FEFA3AE53369388C */\n      0x010000000000162e42fefa3ae53369388c\n        /* \"ABDKMath64x64.sol\":20176:20220  result * 0x10000000000162E42FEFA3AE53369388C */\n      mul\n        /* \"ABDKMath64x64.sol\":20224:20227  128 */\n      0x80\n        /* \"ABDKMath64x64.sol\":20176:20227  result * 0x10000000000162E42FEFA3AE53369388C >> 128 */\n      shr\n        /* \"ABDKMath64x64.sol\":20137:20227  if (x & 0x200000 > 0)... */\n    tag_685:\n        /* \"ABDKMath64x64.sol\":20254:20255  0 */\n      0x00\n        /* \"ABDKMath64x64.sol\":20239:20240  x */\n      dup4\n        /* \"ABDKMath64x64.sol\":20243:20251  0x100000 */\n      0x100000\n        /* \"ABDKMath64x64.sol\":20239:20251  x & 0x100000 */\n      and\n        /* \"ABDKMath64x64.sol\":20239:20255  x & 0x100000 > 0 */\n      0x0f\n      signextend\n      sgt\n        /* \"ABDKMath64x64.sol\":20235:20325  if (x & 0x100000 > 0)... */\n      iszero\n      tag_686\n      jumpi\n        /* \"ABDKMath64x64.sol\":20283:20318  0x100000000000B17217F7D1D351A389D40 */\n      0x0100000000000b17217f7d1d351a389d40\n        /* \"ABDKMath64x64.sol\":20274:20318  result * 0x100000000000B17217F7D1D351A389D40 */\n      mul\n        /* \"ABDKMath64x64.sol\":20322:20325  128 */\n      0x80\n        /* \"ABDKMath64x64.sol\":20274:20325  result * 0x100000000000B17217F7D1D351A389D40 >> 128 */\n      shr\n        /* \"ABDKMath64x64.sol\":20235:20325  if (x & 0x100000 > 0)... */\n    tag_686:\n        /* \"ABDKMath64x64.sol\":20351:20352  0 */\n      0x00\n        /* \"ABDKMath64x64.sol\":20337:20338  x */\n      dup4\n        /* \"ABDKMath64x64.sol\":20341:20348  0x80000 */\n      0x080000\n        /* \"ABDKMath64x64.sol\":20337:20348  x & 0x80000 */\n      and\n        /* \"ABDKMath64x64.sol\":20337:20352  x & 0x80000 > 0 */\n      0x0f\n      signextend\n      sgt\n        /* \"ABDKMath64x64.sol\":20333:20422  if (x & 0x80000 > 0)... */\n      iszero\n      tag_687\n      jumpi\n        /* \"ABDKMath64x64.sol\":20380:20415  0x10000000000058B90BFBE8E8B2D3D4EDE */\n      0x010000000000058b90bfbe8e8b2d3d4ede\n        /* \"ABDKMath64x64.sol\":20371:20415  result * 0x10000000000058B90BFBE8E8B2D3D4EDE */\n      mul\n        /* \"ABDKMath64x64.sol\":20419:20422  128 */\n      0x80\n        /* \"ABDKMath64x64.sol\":20371:20422  result * 0x10000000000058B90BFBE8E8B2D3D4EDE >> 128 */\n      shr\n        /* \"ABDKMath64x64.sol\":20333:20422  if (x & 0x80000 > 0)... */\n    tag_687:\n        /* \"ABDKMath64x64.sol\":20448:20449  0 */\n      0x00\n        /* \"ABDKMath64x64.sol\":20434:20435  x */\n      dup4\n        /* \"ABDKMath64x64.sol\":20438:20445  0x40000 */\n      0x040000\n        /* \"ABDKMath64x64.sol\":20434:20445  x & 0x40000 */\n      and\n        /* \"ABDKMath64x64.sol\":20434:20449  x & 0x40000 > 0 */\n      0x0f\n      signextend\n      sgt\n        /* \"ABDKMath64x64.sol\":20430:20519  if (x & 0x40000 > 0)... */\n      iszero\n      tag_688\n      jumpi\n        /* \"ABDKMath64x64.sol\":20477:20512  0x1000000000002C5C85FDF4741BEA6E77E */\n      0x01000000000002c5c85fdf4741bea6e77e\n        /* \"ABDKMath64x64.sol\":20468:20512  result * 0x1000000000002C5C85FDF4741BEA6E77E */\n      mul\n        /* \"ABDKMath64x64.sol\":20516:20519  128 */\n      0x80\n        /* \"ABDKMath64x64.sol\":20468:20519  result * 0x1000000000002C5C85FDF4741BEA6E77E >> 128 */\n      shr\n        /* \"ABDKMath64x64.sol\":20430:20519  if (x & 0x40000 > 0)... */\n    tag_688:\n        /* \"ABDKMath64x64.sol\":20545:20546  0 */\n      0x00\n        /* \"ABDKMath64x64.sol\":20531:20532  x */\n      dup4\n        /* \"ABDKMath64x64.sol\":20535:20542  0x20000 */\n      0x020000\n        /* \"ABDKMath64x64.sol\":20531:20542  x & 0x20000 */\n      and\n        /* \"ABDKMath64x64.sol\":20531:20546  x & 0x20000 > 0 */\n      0x0f\n      signextend\n      sgt\n        /* \"ABDKMath64x64.sol\":20527:20616  if (x & 0x20000 > 0)... */\n      iszero\n      tag_689\n      jumpi\n        /* \"ABDKMath64x64.sol\":20574:20609  0x100000000000162E42FEFA39FE95583C2 */\n      0x0100000000000162e42fefa39fe95583c2\n        /* \"ABDKMath64x64.sol\":20565:20609  result * 0x100000000000162E42FEFA39FE95583C2 */\n      mul\n        /* \"ABDKMath64x64.sol\":20613:20616  128 */\n      0x80\n        /* \"ABDKMath64x64.sol\":20565:20616  result * 0x100000000000162E42FEFA39FE95583C2 >> 128 */\n      shr\n        /* \"ABDKMath64x64.sol\":20527:20616  if (x & 0x20000 > 0)... */\n    tag_689:\n        /* \"ABDKMath64x64.sol\":20642:20643  0 */\n      0x00\n        /* \"ABDKMath64x64.sol\":20628:20629  x */\n      dup4\n        /* \"ABDKMath64x64.sol\":20632:20639  0x10000 */\n      0x010000\n        /* \"ABDKMath64x64.sol\":20628:20639  x & 0x10000 */\n      and\n        /* \"ABDKMath64x64.sol\":20628:20643  x & 0x10000 > 0 */\n      0x0f\n      signextend\n      sgt\n        /* \"ABDKMath64x64.sol\":20624:20713  if (x & 0x10000 > 0)... */\n      iszero\n      tag_690\n      jumpi\n        /* \"ABDKMath64x64.sol\":20671:20706  0x1000000000000B17217F7D1CFB72B45E1 */\n      0x01000000000000b17217f7d1cfb72b45e1\n        /* \"ABDKMath64x64.sol\":20662:20706  result * 0x1000000000000B17217F7D1CFB72B45E1 */\n      mul\n        /* \"ABDKMath64x64.sol\":20710:20713  128 */\n      0x80\n        /* \"ABDKMath64x64.sol\":20662:20713  result * 0x1000000000000B17217F7D1CFB72B45E1 >> 128 */\n      shr\n        /* \"ABDKMath64x64.sol\":20624:20713  if (x & 0x10000 > 0)... */\n    tag_690:\n        /* \"ABDKMath64x64.sol\":20738:20739  0 */\n      0x00\n        /* \"ABDKMath64x64.sol\":20725:20726  x */\n      dup4\n        /* \"ABDKMath64x64.sol\":20729:20735  0x8000 */\n      0x8000\n        /* \"ABDKMath64x64.sol\":20725:20735  x & 0x8000 */\n      and\n        /* \"ABDKMath64x64.sol\":20725:20739  x & 0x8000 > 0 */\n      0x0f\n      signextend\n      sgt\n        /* \"ABDKMath64x64.sol\":20721:20809  if (x & 0x8000 > 0)... */\n      iszero\n      tag_691\n      jumpi\n        /* \"ABDKMath64x64.sol\":20767:20802  0x100000000000058B90BFBE8E7CC35C3F0 */\n      0x0100000000000058b90bfbe8e7cc35c3f0\n        /* \"ABDKMath64x64.sol\":20758:20802  result * 0x100000000000058B90BFBE8E7CC35C3F0 */\n      mul\n        /* \"ABDKMath64x64.sol\":20806:20809  128 */\n      0x80\n        /* \"ABDKMath64x64.sol\":20758:20809  result * 0x100000000000058B90BFBE8E7CC35C3F0 >> 128 */\n      shr\n        /* \"ABDKMath64x64.sol\":20721:20809  if (x & 0x8000 > 0)... */\n    tag_691:\n        /* \"ABDKMath64x64.sol\":20834:20835  0 */\n      0x00\n        /* \"ABDKMath64x64.sol\":20821:20822  x */\n      dup4\n        /* \"ABDKMath64x64.sol\":20825:20831  0x4000 */\n      0x4000\n        /* \"ABDKMath64x64.sol\":20821:20831  x & 0x4000 */\n      and\n        /* \"ABDKMath64x64.sol\":20821:20835  x & 0x4000 > 0 */\n      0x0f\n      signextend\n      sgt\n        /* \"ABDKMath64x64.sol\":20817:20905  if (x & 0x4000 > 0)... */\n      iszero\n      tag_692\n      jumpi\n        /* \"ABDKMath64x64.sol\":20863:20898  0x10000000000002C5C85FDF473E242EA38 */\n      0x010000000000002c5c85fdf473e242ea38\n        /* \"ABDKMath64x64.sol\":20854:20898  result * 0x10000000000002C5C85FDF473E242EA38 */\n      mul\n        /* \"ABDKMath64x64.sol\":20902:20905  128 */\n      0x80\n        /* \"ABDKMath64x64.sol\":20854:20905  result * 0x10000000000002C5C85FDF473E242EA38 >> 128 */\n      shr\n        /* \"ABDKMath64x64.sol\":20817:20905  if (x & 0x4000 > 0)... */\n    tag_692:\n        /* \"ABDKMath64x64.sol\":20930:20931  0 */\n      0x00\n        /* \"ABDKMath64x64.sol\":20917:20918  x */\n      dup4\n        /* \"ABDKMath64x64.sol\":20921:20927  0x2000 */\n      0x2000\n        /* \"ABDKMath64x64.sol\":20917:20927  x & 0x2000 */\n      and\n        /* \"ABDKMath64x64.sol\":20917:20931  x & 0x2000 > 0 */\n      0x0f\n      signextend\n      sgt\n        /* \"ABDKMath64x64.sol\":20913:21001  if (x & 0x2000 > 0)... */\n      iszero\n      tag_693\n      jumpi\n        /* \"ABDKMath64x64.sol\":20959:20994  0x1000000000000162E42FEFA39F02B772C */\n      0x01000000000000162e42fefa39f02b772c\n        /* \"ABDKMath64x64.sol\":20950:20994  result * 0x1000000000000162E42FEFA39F02B772C */\n      mul\n        /* \"ABDKMath64x64.sol\":20998:21001  128 */\n      0x80\n        /* \"ABDKMath64x64.sol\":20950:21001  result * 0x1000000000000162E42FEFA39F02B772C >> 128 */\n      shr\n        /* \"ABDKMath64x64.sol\":20913:21001  if (x & 0x2000 > 0)... */\n    tag_693:\n        /* \"ABDKMath64x64.sol\":21026:21027  0 */\n      0x00\n        /* \"ABDKMath64x64.sol\":21013:21014  x */\n      dup4\n        /* \"ABDKMath64x64.sol\":21017:21023  0x1000 */\n      0x1000\n        /* \"ABDKMath64x64.sol\":21013:21023  x & 0x1000 */\n      and\n        /* \"ABDKMath64x64.sol\":21013:21027  x & 0x1000 > 0 */\n      0x0f\n      signextend\n      sgt\n        /* \"ABDKMath64x64.sol\":21009:21097  if (x & 0x1000 > 0)... */\n      iszero\n      tag_694\n      jumpi\n        /* \"ABDKMath64x64.sol\":21055:21090  0x10000000000000B17217F7D1CF7D83C1A */\n      0x010000000000000b17217f7d1cf7d83c1a\n        /* \"ABDKMath64x64.sol\":21046:21090  result * 0x10000000000000B17217F7D1CF7D83C1A */\n      mul\n        /* \"ABDKMath64x64.sol\":21094:21097  128 */\n      0x80\n        /* \"ABDKMath64x64.sol\":21046:21097  result * 0x10000000000000B17217F7D1CF7D83C1A >> 128 */\n      shr\n        /* \"ABDKMath64x64.sol\":21009:21097  if (x & 0x1000 > 0)... */\n    tag_694:\n        /* \"ABDKMath64x64.sol\":21121:21122  0 */\n      0x00\n        /* \"ABDKMath64x64.sol\":21109:21110  x */\n      dup4\n        /* \"ABDKMath64x64.sol\":21113:21118  0x800 */\n      0x0800\n        /* \"ABDKMath64x64.sol\":21109:21118  x & 0x800 */\n      and\n        /* \"ABDKMath64x64.sol\":21109:21122  x & 0x800 > 0 */\n      0x0f\n      signextend\n      sgt\n        /* \"ABDKMath64x64.sol\":21105:21192  if (x & 0x800 > 0)... */\n      iszero\n      tag_695\n      jumpi\n        /* \"ABDKMath64x64.sol\":21150:21185  0x1000000000000058B90BFBE8E7BDCBE2E */\n      0x01000000000000058b90bfbe8e7bdcbe2e\n        /* \"ABDKMath64x64.sol\":21141:21185  result * 0x1000000000000058B90BFBE8E7BDCBE2E */\n      mul\n        /* \"ABDKMath64x64.sol\":21189:21192  128 */\n      0x80\n        /* \"ABDKMath64x64.sol\":21141:21192  result * 0x1000000000000058B90BFBE8E7BDCBE2E >> 128 */\n      shr\n        /* \"ABDKMath64x64.sol\":21105:21192  if (x & 0x800 > 0)... */\n    tag_695:\n        /* \"ABDKMath64x64.sol\":21216:21217  0 */\n      0x00\n        /* \"ABDKMath64x64.sol\":21204:21205  x */\n      dup4\n        /* \"ABDKMath64x64.sol\":21208:21213  0x400 */\n      0x0400\n        /* \"ABDKMath64x64.sol\":21204:21213  x & 0x400 */\n      and\n        /* \"ABDKMath64x64.sol\":21204:21217  x & 0x400 > 0 */\n      0x0f\n      signextend\n      sgt\n        /* \"ABDKMath64x64.sol\":21200:21287  if (x & 0x400 > 0)... */\n      iszero\n      tag_696\n      jumpi\n        /* \"ABDKMath64x64.sol\":21245:21280  0x100000000000002C5C85FDF473DEA871F */\n      0x0100000000000002c5c85fdf473dea871f\n        /* \"ABDKMath64x64.sol\":21236:21280  result * 0x100000000000002C5C85FDF473DEA871F */\n      mul\n        /* \"ABDKMath64x64.sol\":21284:21287  128 */\n      0x80\n        /* \"ABDKMath64x64.sol\":21236:21287  result * 0x100000000000002C5C85FDF473DEA871F >> 128 */\n      shr\n        /* \"ABDKMath64x64.sol\":21200:21287  if (x & 0x400 > 0)... */\n    tag_696:\n        /* \"ABDKMath64x64.sol\":21311:21312  0 */\n      0x00\n        /* \"ABDKMath64x64.sol\":21299:21300  x */\n      dup4\n        /* \"ABDKMath64x64.sol\":21303:21308  0x200 */\n      0x0200\n        /* \"ABDKMath64x64.sol\":21299:21308  x & 0x200 */\n      and\n        /* \"ABDKMath64x64.sol\":21299:21312  x & 0x200 > 0 */\n      0x0f\n      signextend\n      sgt\n        /* \"ABDKMath64x64.sol\":21295:21382  if (x & 0x200 > 0)... */\n      iszero\n      tag_697\n      jumpi\n        /* \"ABDKMath64x64.sol\":21340:21375  0x10000000000000162E42FEFA39EF44D91 */\n      0x010000000000000162e42fefa39ef44d91\n        /* \"ABDKMath64x64.sol\":21331:21375  result * 0x10000000000000162E42FEFA39EF44D91 */\n      mul\n        /* \"ABDKMath64x64.sol\":21379:21382  128 */\n      0x80\n        /* \"ABDKMath64x64.sol\":21331:21382  result * 0x10000000000000162E42FEFA39EF44D91 >> 128 */\n      shr\n        /* \"ABDKMath64x64.sol\":21295:21382  if (x & 0x200 > 0)... */\n    tag_697:\n        /* \"ABDKMath64x64.sol\":21406:21407  0 */\n      0x00\n        /* \"ABDKMath64x64.sol\":21394:21395  x */\n      dup4\n        /* \"ABDKMath64x64.sol\":21398:21403  0x100 */\n      0x0100\n        /* \"ABDKMath64x64.sol\":21394:21403  x & 0x100 */\n      and\n        /* \"ABDKMath64x64.sol\":21394:21407  x & 0x100 > 0 */\n      0x0f\n      signextend\n      sgt\n        /* \"ABDKMath64x64.sol\":21390:21477  if (x & 0x100 > 0)... */\n      iszero\n      tag_698\n      jumpi\n        /* \"ABDKMath64x64.sol\":21435:21470  0x100000000000000B17217F7D1CF79E949 */\n      0x0100000000000000b17217f7d1cf79e949\n        /* \"ABDKMath64x64.sol\":21426:21470  result * 0x100000000000000B17217F7D1CF79E949 */\n      mul\n        /* \"ABDKMath64x64.sol\":21474:21477  128 */\n      0x80\n        /* \"ABDKMath64x64.sol\":21426:21477  result * 0x100000000000000B17217F7D1CF79E949 >> 128 */\n      shr\n        /* \"ABDKMath64x64.sol\":21390:21477  if (x & 0x100 > 0)... */\n    tag_698:\n        /* \"ABDKMath64x64.sol\":21500:21501  0 */\n      0x00\n        /* \"ABDKMath64x64.sol\":21489:21490  x */\n      dup4\n        /* \"ABDKMath64x64.sol\":21493:21497  0x80 */\n      0x80\n        /* \"ABDKMath64x64.sol\":21489:21497  x & 0x80 */\n      and\n        /* \"ABDKMath64x64.sol\":21489:21501  x & 0x80 > 0 */\n      0x0f\n      signextend\n      sgt\n        /* \"ABDKMath64x64.sol\":21485:21571  if (x & 0x80 > 0)... */\n      iszero\n      tag_699\n      jumpi\n        /* \"ABDKMath64x64.sol\":21529:21564  0x10000000000000058B90BFBE8E7BCE544 */\n      0x010000000000000058b90bfbe8e7bce544\n        /* \"ABDKMath64x64.sol\":21520:21564  result * 0x10000000000000058B90BFBE8E7BCE544 */\n      mul\n        /* \"ABDKMath64x64.sol\":21568:21571  128 */\n      0x80\n        /* \"ABDKMath64x64.sol\":21520:21571  result * 0x10000000000000058B90BFBE8E7BCE544 >> 128 */\n      shr\n        /* \"ABDKMath64x64.sol\":21485:21571  if (x & 0x80 > 0)... */\n    tag_699:\n        /* \"ABDKMath64x64.sol\":21594:21595  0 */\n      0x00\n        /* \"ABDKMath64x64.sol\":21583:21584  x */\n      dup4\n        /* \"ABDKMath64x64.sol\":21587:21591  0x40 */\n      0x40\n        /* \"ABDKMath64x64.sol\":21583:21591  x & 0x40 */\n      and\n        /* \"ABDKMath64x64.sol\":21583:21595  x & 0x40 > 0 */\n      0x0f\n      signextend\n      sgt\n        /* \"ABDKMath64x64.sol\":21579:21665  if (x & 0x40 > 0)... */\n      iszero\n      tag_700\n      jumpi\n        /* \"ABDKMath64x64.sol\":21623:21658  0x1000000000000002C5C85FDF473DE6ECA */\n      0x01000000000000002c5c85fdf473de6eca\n        /* \"ABDKMath64x64.sol\":21614:21658  result * 0x1000000000000002C5C85FDF473DE6ECA */\n      mul\n        /* \"ABDKMath64x64.sol\":21662:21665  128 */\n      0x80\n        /* \"ABDKMath64x64.sol\":21614:21665  result * 0x1000000000000002C5C85FDF473DE6ECA >> 128 */\n      shr\n        /* \"ABDKMath64x64.sol\":21579:21665  if (x & 0x40 > 0)... */\n    tag_700:\n        /* \"ABDKMath64x64.sol\":21688:21689  0 */\n      0x00\n        /* \"ABDKMath64x64.sol\":21677:21678  x */\n      dup4\n        /* \"ABDKMath64x64.sol\":21681:21685  0x20 */\n      0x20\n        /* \"ABDKMath64x64.sol\":21677:21685  x & 0x20 */\n      and\n        /* \"ABDKMath64x64.sol\":21677:21689  x & 0x20 > 0 */\n      0x0f\n      signextend\n      sgt\n        /* \"ABDKMath64x64.sol\":21673:21759  if (x & 0x20 > 0)... */\n      iszero\n      tag_701\n      jumpi\n        /* \"ABDKMath64x64.sol\":21717:21752  0x100000000000000162E42FEFA39EF366F */\n      0x0100000000000000162e42fefa39ef366f\n        /* \"ABDKMath64x64.sol\":21708:21752  result * 0x100000000000000162E42FEFA39EF366F */\n      mul\n        /* \"ABDKMath64x64.sol\":21756:21759  128 */\n      0x80\n        /* \"ABDKMath64x64.sol\":21708:21759  result * 0x100000000000000162E42FEFA39EF366F >> 128 */\n      shr\n        /* \"ABDKMath64x64.sol\":21673:21759  if (x & 0x20 > 0)... */\n    tag_701:\n        /* \"ABDKMath64x64.sol\":21782:21783  0 */\n      0x00\n        /* \"ABDKMath64x64.sol\":21771:21772  x */\n      dup4\n        /* \"ABDKMath64x64.sol\":21775:21779  0x10 */\n      0x10\n        /* \"ABDKMath64x64.sol\":21771:21779  x & 0x10 */\n      and\n        /* \"ABDKMath64x64.sol\":21771:21783  x & 0x10 > 0 */\n      0x0f\n      signextend\n      sgt\n        /* \"ABDKMath64x64.sol\":21767:21853  if (x & 0x10 > 0)... */\n      iszero\n      tag_702\n      jumpi\n        /* \"ABDKMath64x64.sol\":21811:21846  0x1000000000000000B17217F7D1CF79AFA */\n      0x01000000000000000b17217f7d1cf79afa\n        /* \"ABDKMath64x64.sol\":21802:21846  result * 0x1000000000000000B17217F7D1CF79AFA */\n      mul\n        /* \"ABDKMath64x64.sol\":21850:21853  128 */\n      0x80\n        /* \"ABDKMath64x64.sol\":21802:21853  result * 0x1000000000000000B17217F7D1CF79AFA >> 128 */\n      shr\n        /* \"ABDKMath64x64.sol\":21767:21853  if (x & 0x10 > 0)... */\n    tag_702:\n        /* \"ABDKMath64x64.sol\":21875:21876  0 */\n      0x00\n        /* \"ABDKMath64x64.sol\":21865:21866  x */\n      dup4\n        /* \"ABDKMath64x64.sol\":21869:21872  0x8 */\n      0x08\n        /* \"ABDKMath64x64.sol\":21865:21872  x & 0x8 */\n      and\n        /* \"ABDKMath64x64.sol\":21865:21876  x & 0x8 > 0 */\n      0x0f\n      signextend\n      sgt\n        /* \"ABDKMath64x64.sol\":21861:21946  if (x & 0x8 > 0)... */\n      iszero\n      tag_703\n      jumpi\n        /* \"ABDKMath64x64.sol\":21904:21939  0x100000000000000058B90BFBE8E7BCD6D */\n      0x0100000000000000058b90bfbe8e7bcd6d\n        /* \"ABDKMath64x64.sol\":21895:21939  result * 0x100000000000000058B90BFBE8E7BCD6D */\n      mul\n        /* \"ABDKMath64x64.sol\":21943:21946  128 */\n      0x80\n        /* \"ABDKMath64x64.sol\":21895:21946  result * 0x100000000000000058B90BFBE8E7BCD6D >> 128 */\n      shr\n        /* \"ABDKMath64x64.sol\":21861:21946  if (x & 0x8 > 0)... */\n    tag_703:\n        /* \"ABDKMath64x64.sol\":21968:21969  0 */\n      0x00\n        /* \"ABDKMath64x64.sol\":21958:21959  x */\n      dup4\n        /* \"ABDKMath64x64.sol\":21962:21965  0x4 */\n      0x04\n        /* \"ABDKMath64x64.sol\":21958:21965  x & 0x4 */\n      and\n        /* \"ABDKMath64x64.sol\":21958:21969  x & 0x4 > 0 */\n      0x0f\n      signextend\n      sgt\n        /* \"ABDKMath64x64.sol\":21954:22039  if (x & 0x4 > 0)... */\n      iszero\n      tag_704\n      jumpi\n        /* \"ABDKMath64x64.sol\":21997:22032  0x10000000000000002C5C85FDF473DE6B2 */\n      0x010000000000000002c5c85fdf473de6b2\n        /* \"ABDKMath64x64.sol\":21988:22032  result * 0x10000000000000002C5C85FDF473DE6B2 */\n      mul\n        /* \"ABDKMath64x64.sol\":22036:22039  128 */\n      0x80\n        /* \"ABDKMath64x64.sol\":21988:22039  result * 0x10000000000000002C5C85FDF473DE6B2 >> 128 */\n      shr\n        /* \"ABDKMath64x64.sol\":21954:22039  if (x & 0x4 > 0)... */\n    tag_704:\n        /* \"ABDKMath64x64.sol\":22061:22062  0 */\n      0x00\n        /* \"ABDKMath64x64.sol\":22051:22052  x */\n      dup4\n        /* \"ABDKMath64x64.sol\":22055:22058  0x2 */\n      0x02\n        /* \"ABDKMath64x64.sol\":22051:22058  x & 0x2 */\n      and\n        /* \"ABDKMath64x64.sol\":22051:22062  x & 0x2 > 0 */\n      0x0f\n      signextend\n      sgt\n        /* \"ABDKMath64x64.sol\":22047:22132  if (x & 0x2 > 0)... */\n      iszero\n      tag_705\n      jumpi\n        /* \"ABDKMath64x64.sol\":22090:22125  0x1000000000000000162E42FEFA39EF358 */\n      0x01000000000000000162e42fefa39ef358\n        /* \"ABDKMath64x64.sol\":22081:22125  result * 0x1000000000000000162E42FEFA39EF358 */\n      mul\n        /* \"ABDKMath64x64.sol\":22129:22132  128 */\n      0x80\n        /* \"ABDKMath64x64.sol\":22081:22132  result * 0x1000000000000000162E42FEFA39EF358 >> 128 */\n      shr\n        /* \"ABDKMath64x64.sol\":22047:22132  if (x & 0x2 > 0)... */\n    tag_705:\n        /* \"ABDKMath64x64.sol\":22154:22155  0 */\n      0x00\n        /* \"ABDKMath64x64.sol\":22144:22145  x */\n      dup4\n        /* \"ABDKMath64x64.sol\":22148:22151  0x1 */\n      0x01\n        /* \"ABDKMath64x64.sol\":22144:22151  x & 0x1 */\n      and\n        /* \"ABDKMath64x64.sol\":22144:22155  x & 0x1 > 0 */\n      0x0f\n      signextend\n      sgt\n        /* \"ABDKMath64x64.sol\":22140:22225  if (x & 0x1 > 0)... */\n      iszero\n      tag_706\n      jumpi\n        /* \"ABDKMath64x64.sol\":22183:22218  0x10000000000000000B17217F7D1CF79AB */\n      0x010000000000000000b17217f7d1cf79ab\n        /* \"ABDKMath64x64.sol\":22174:22218  result * 0x10000000000000000B17217F7D1CF79AB */\n      mul\n        /* \"ABDKMath64x64.sol\":22222:22225  128 */\n      0x80\n        /* \"ABDKMath64x64.sol\":22174:22225  result * 0x10000000000000000B17217F7D1CF79AB >> 128 */\n      shr\n        /* \"ABDKMath64x64.sol\":22140:22225  if (x & 0x1 > 0)... */\n    tag_706:\n        /* \"ABDKMath64x64.sol\":22268:22275  x >> 64 */\n      0x0f\n      dup4\n      dup2\n      signextend\n        /* \"ABDKMath64x64.sol\":22273:22275  64 */\n      0x40\n        /* \"ABDKMath64x64.sol\":22268:22275  x >> 64 */\n      sar\n        /* \"ABDKMath64x64.sol\":22262:22264  63 */\n      0x3f\n        /* \"ABDKMath64x64.sol\":22262:22276  63 - (x >> 64) */\n      sub\n        /* \"ABDKMath64x64.sol\":22254:22277  int256 (63 - (x >> 64)) */\n      swap1\n      signextend\n        /* \"ABDKMath64x64.sol\":22234:22278  result >>= uint256 (int256 (63 - (x >> 64))) */\n      shr\n      sub(shl(0x7f, 0x01), 0x01)\n        /* \"ABDKMath64x64.sol\":22295:22333  result <= uint256 (int256 (MAX_64x64)) */\n      dup2\n      gt\n      iszero\n        /* \"ABDKMath64x64.sol\":22286:22334  require (result <= uint256 (int256 (MAX_64x64))) */\n      tag_160\n      jumpi\n      0x00\n      dup1\n      revert\n        /* \"ABDKMath64x64.sol\":14129:14967  function log_2 (int128 x) internal pure returns (int128) {... */\n    tag_584:\n        /* \"ABDKMath64x64.sol\":14178:14184  int128 */\n      0x00\n        /* \"ABDKMath64x64.sol\":14223:14224  0 */\n      dup1\n        /* \"ABDKMath64x64.sol\":14219:14220  x */\n      dup3\n        /* \"ABDKMath64x64.sol\":14219:14224  x > 0 */\n      0x0f\n      signextend\n      sgt\n        /* \"ABDKMath64x64.sol\":14210:14225  require (x > 0) */\n      tag_709\n      jumpi\n      0x00\n      dup1\n      revert\n    tag_709:\n        /* \"ABDKMath64x64.sol\":14234:14244  int256 msb */\n      0x00\n        /* \"ABDKMath64x64.sol\":14256:14269  int256 xc = x */\n      0x0f\n      dup4\n      swap1\n      signextend\n        /* \"ABDKMath64x64.sol\":14287:14306  0x10000000000000000 */\n      0x010000000000000000\n        /* \"ABDKMath64x64.sol\":14281:14306  xc >= 0x10000000000000000 */\n      dup2\n      slt\n        /* \"ABDKMath64x64.sol\":14277:14333  if (xc >= 0x10000000000000000) { xc >>= 64; msb += 64; } */\n      tag_710\n      jumpi\n        /* \"ABDKMath64x64.sol\":14317:14319  64 */\n      0x40\n        /* \"ABDKMath64x64.sol\":14321:14330  msb += 64 */\n      swap2\n      dup3\n      add\n      swap2\n        /* \"ABDKMath64x64.sol\":14310:14319  xc >>= 64 */\n      sar\n        /* \"ABDKMath64x64.sol\":14277:14333  if (xc >= 0x10000000000000000) { xc >>= 64; msb += 64; } */\n    tag_710:\n        /* \"ABDKMath64x64.sol\":14350:14361  0x100000000 */\n      0x0100000000\n        /* \"ABDKMath64x64.sol\":14344:14346  xc */\n      dup2\n        /* \"ABDKMath64x64.sol\":14344:14361  xc >= 0x100000000 */\n      slt\n        /* \"ABDKMath64x64.sol\":14340:14388  if (xc >= 0x100000000) { xc >>= 32; msb += 32; } */\n      tag_711\n      jumpi\n        /* \"ABDKMath64x64.sol\":14372:14374  32 */\n      0x20\n        /* \"ABDKMath64x64.sol\":14376:14385  msb += 32 */\n      swap2\n      dup3\n      add\n      swap2\n        /* \"ABDKMath64x64.sol\":14365:14374  xc >>= 32 */\n      sar\n        /* \"ABDKMath64x64.sol\":14340:14388  if (xc >= 0x100000000) { xc >>= 32; msb += 32; } */\n    tag_711:\n        /* \"ABDKMath64x64.sol\":14405:14412  0x10000 */\n      0x010000\n        /* \"ABDKMath64x64.sol\":14399:14401  xc */\n      dup2\n        /* \"ABDKMath64x64.sol\":14399:14412  xc >= 0x10000 */\n      slt\n        /* \"ABDKMath64x64.sol\":14395:14439  if (xc >= 0x10000) { xc >>= 16; msb += 16; } */\n      tag_712\n      jumpi\n        /* \"ABDKMath64x64.sol\":14423:14425  16 */\n      0x10\n        /* \"ABDKMath64x64.sol\":14427:14436  msb += 16 */\n      swap2\n      dup3\n      add\n      swap2\n        /* \"ABDKMath64x64.sol\":14416:14425  xc >>= 16 */\n      sar\n        /* \"ABDKMath64x64.sol\":14395:14439  if (xc >= 0x10000) { xc >>= 16; msb += 16; } */\n    tag_712:\n        /* \"ABDKMath64x64.sol\":14456:14461  0x100 */\n      0x0100\n        /* \"ABDKMath64x64.sol\":14450:14452  xc */\n      dup2\n        /* \"ABDKMath64x64.sol\":14450:14461  xc >= 0x100 */\n      slt\n        /* \"ABDKMath64x64.sol\":14446:14486  if (xc >= 0x100) { xc >>= 8; msb += 8; } */\n      tag_713\n      jumpi\n        /* \"ABDKMath64x64.sol\":14472:14473  8 */\n      0x08\n        /* \"ABDKMath64x64.sol\":14475:14483  msb += 8 */\n      swap2\n      dup3\n      add\n      swap2\n        /* \"ABDKMath64x64.sol\":14465:14473  xc >>= 8 */\n      sar\n        /* \"ABDKMath64x64.sol\":14446:14486  if (xc >= 0x100) { xc >>= 8; msb += 8; } */\n    tag_713:\n        /* \"ABDKMath64x64.sol\":14503:14507  0x10 */\n      0x10\n        /* \"ABDKMath64x64.sol\":14497:14499  xc */\n      dup2\n        /* \"ABDKMath64x64.sol\":14497:14507  xc >= 0x10 */\n      slt\n        /* \"ABDKMath64x64.sol\":14493:14532  if (xc >= 0x10) { xc >>= 4; msb += 4; } */\n      tag_714\n      jumpi\n        /* \"ABDKMath64x64.sol\":14518:14519  4 */\n      0x04\n        /* \"ABDKMath64x64.sol\":14521:14529  msb += 4 */\n      swap2\n      dup3\n      add\n      swap2\n        /* \"ABDKMath64x64.sol\":14511:14519  xc >>= 4 */\n      sar\n        /* \"ABDKMath64x64.sol\":14493:14532  if (xc >= 0x10) { xc >>= 4; msb += 4; } */\n    tag_714:\n        /* \"ABDKMath64x64.sol\":14549:14552  0x4 */\n      0x04\n        /* \"ABDKMath64x64.sol\":14543:14545  xc */\n      dup2\n        /* \"ABDKMath64x64.sol\":14543:14552  xc >= 0x4 */\n      slt\n        /* \"ABDKMath64x64.sol\":14539:14577  if (xc >= 0x4) { xc >>= 2; msb += 2; } */\n      tag_715\n      jumpi\n        /* \"ABDKMath64x64.sol\":14563:14564  2 */\n      0x02\n        /* \"ABDKMath64x64.sol\":14566:14574  msb += 2 */\n      swap2\n      dup3\n      add\n      swap2\n        /* \"ABDKMath64x64.sol\":14556:14564  xc >>= 2 */\n      sar\n        /* \"ABDKMath64x64.sol\":14539:14577  if (xc >= 0x4) { xc >>= 2; msb += 2; } */\n    tag_715:\n        /* \"ABDKMath64x64.sol\":14594:14597  0x2 */\n      0x02\n        /* \"ABDKMath64x64.sol\":14588:14590  xc */\n      dup2\n        /* \"ABDKMath64x64.sol\":14588:14597  xc >= 0x2 */\n      slt\n        /* \"ABDKMath64x64.sol\":14584:14607  if (xc >= 0x2) msb += 1 */\n      tag_716\n      jumpi\n        /* \"ABDKMath64x64.sol\":14606:14607  1 */\n      0x01\n        /* \"ABDKMath64x64.sol\":14599:14607  msb += 1 */\n      dup3\n      add\n      swap2\n      pop\n        /* \"ABDKMath64x64.sol\":14584:14607  if (xc >= 0x2) msb += 1 */\n    tag_716:\n      not(0x3f)\n        /* \"ABDKMath64x64.sol\":14664:14672  msb - 64 */\n      dup3\n      add\n        /* \"ABDKMath64x64.sol\":14676:14678  64 */\n      0x40\n        /* \"ABDKMath64x64.sol\":14664:14678  msb - 64 << 64 */\n      shl\n        /* \"ABDKMath64x64.sol\":14708:14718  int256 (x) */\n      0x0f\n      dup6\n      swap1\n      signextend\n        /* \"ABDKMath64x64.sol\":14732:14735  127 */\n      0x7f\n        /* \"ABDKMath64x64.sol\":14732:14741  127 - msb */\n      dup5\n      swap1\n      sub\n        /* \"ABDKMath64x64.sol\":14699:14742  uint256 (int256 (x)) << uint256 (127 - msb) */\n      shl\n        /* \"ABDKMath64x64.sol\":14768:14786  0x8000000000000000 */\n      0x8000000000000000\n        /* \"ABDKMath64x64.sol\":14750:14926  for (int256 bit = 0x8000000000000000; bit > 0; bit >>= 1) {... */\n    tag_717:\n        /* \"ABDKMath64x64.sol\":14794:14795  0 */\n      0x00\n        /* \"ABDKMath64x64.sol\":14788:14791  bit */\n      dup2\n        /* \"ABDKMath64x64.sol\":14788:14795  bit > 0 */\n      sgt\n        /* \"ABDKMath64x64.sol\":14750:14926  for (int256 bit = 0x8000000000000000; bit > 0; bit >>= 1) {... */\n      iszero\n      tag_360\n      jumpi\n        /* \"ABDKMath64x64.sol\":14818:14826  ux *= ux */\n      swap1\n      dup1\n      mul\n        /* \"ABDKMath64x64.sol\":14854:14857  255 */\n      0xff\n        /* \"ABDKMath64x64.sol\":14848:14857  ux >> 255 */\n      dup2\n      swap1\n      shr\n        /* \"ABDKMath64x64.sol\":14901:14917  bit * int256 (b) */\n      dup3\n      dup2\n      mul\n        /* \"ABDKMath64x64.sol\":14891:14917  result += bit * int256 (b) */\n      swap4\n      swap1\n      swap4\n      add\n      swap3\n        /* \"ABDKMath64x64.sol\":14874:14877  127 */\n      0x7f\n        /* \"ABDKMath64x64.sol\":14874:14881  127 + b */\n      add\n        /* \"ABDKMath64x64.sol\":14867:14881  ux >>= 127 + b */\n      shr\n      swap1\n        /* \"ABDKMath64x64.sol\":14805:14806  1 */\n      0x01\n        /* \"ABDKMath64x64.sol\":14797:14806  bit >>= 1 */\n      sar\n        /* \"ABDKMath64x64.sol\":14750:14926  for (int256 bit = 0x8000000000000000; bit > 0; bit >>= 1) {... */\n      jump(tag_717)\n        /* \"@openzeppelin/contracts/token/ERC20/utils/SafeERC20.sol\":8370:9090   */\n    tag_598:\n        /* \"@openzeppelin/contracts/token/ERC20/utils/SafeERC20.sol\":8450:8468   */\n      0x00\n        /* \"@openzeppelin/contracts/token/ERC20/utils/SafeERC20.sol\":8478:8497   */\n      dup1\n        /* \"@openzeppelin/contracts/token/ERC20/utils/SafeERC20.sol\":8616:8620   */\n      0x20\n        /* \"@openzeppelin/contracts/token/ERC20/utils/SafeERC20.sol\":8613:8614   */\n      0x00\n        /* \"@openzeppelin/contracts/token/ERC20/utils/SafeERC20.sol\":8606:8610   */\n      dup5\n        /* \"@openzeppelin/contracts/token/ERC20/utils/SafeERC20.sol\":8600:8611   */\n      mload\n        /* \"@openzeppelin/contracts/token/ERC20/utils/SafeERC20.sol\":8593:8597   */\n      0x20\n        /* \"@openzeppelin/contracts/token/ERC20/utils/SafeERC20.sol\":8587:8591   */\n      dup7\n        /* \"@openzeppelin/contracts/token/ERC20/utils/SafeERC20.sol\":8583:8598   */\n      add\n        /* \"@openzeppelin/contracts/token/ERC20/utils/SafeERC20.sol\":8580:8581   */\n      0x00\n        /* \"@openzeppelin/contracts/token/ERC20/utils/SafeERC20.sol\":8573:8578   */\n      dup9\n        /* \"@openzeppelin/contracts/token/ERC20/utils/SafeERC20.sol\":8566:8571   */\n      gas\n        /* \"@openzeppelin/contracts/token/ERC20/utils/SafeERC20.sol\":8561:8621   */\n      call\n        /* \"@openzeppelin/contracts/token/ERC20/utils/SafeERC20.sol\":8673:8680   */\n      dup1\n        /* \"@openzeppelin/contracts/token/ERC20/utils/SafeERC20.sol\":8663:8839   */\n      tag_722\n      jumpi\n        /* \"@openzeppelin/contracts/token/ERC20/utils/SafeERC20.sol\":8717:8721   */\n      0x40\n        /* \"@openzeppelin/contracts/token/ERC20/utils/SafeERC20.sol\":8711:8722   */\n      mload\n        /* \"@openzeppelin/contracts/token/ERC20/utils/SafeERC20.sol\":8762:8778   */\n      returndatasize\n        /* \"@openzeppelin/contracts/token/ERC20/utils/SafeERC20.sol\":8759:8760   */\n      0x00\n        /* \"@openzeppelin/contracts/token/ERC20/utils/SafeERC20.sol\":8754:8757   */\n      dup3\n        /* \"@openzeppelin/contracts/token/ERC20/utils/SafeERC20.sol\":8739:8779   */\n      returndatacopy\n        /* \"@openzeppelin/contracts/token/ERC20/utils/SafeERC20.sol\":8808:8824   */\n      returndatasize\n        /* \"@openzeppelin/contracts/token/ERC20/utils/SafeERC20.sol\":8803:8806   */\n      dup2\n        /* \"@openzeppelin/contracts/token/ERC20/utils/SafeERC20.sol\":8796:8825   */\n      revert\n        /* \"@openzeppelin/contracts/token/ERC20/utils/SafeERC20.sol\":8663:8839   */\n    tag_722:\n      pop\n      pop\n        /* \"@openzeppelin/contracts/token/ERC20/utils/SafeERC20.sol\":8916:8917   */\n      0x00\n        /* \"@openzeppelin/contracts/token/ERC20/utils/SafeERC20.sol\":8910:8918   */\n      mload\n        /* \"@openzeppelin/contracts/token/ERC20/utils/SafeERC20.sol\":8866:8882   */\n      returndatasize\n      swap2\n      pop\n        /* \"@openzeppelin/contracts/token/ERC20/utils/SafeERC20.sol\":8942:8957   */\n      dup2\n      iszero\n        /* \"@openzeppelin/contracts/token/ERC20/utils/SafeERC20.sol\":8942:9010   */\n      tag_723\n      jumpi\n        /* \"@openzeppelin/contracts/token/ERC20/utils/SafeERC20.sol\":8994:9005   */\n      dup1\n        /* \"@openzeppelin/contracts/token/ERC20/utils/SafeERC20.sol\":9009:9010   */\n      0x01\n        /* \"@openzeppelin/contracts/token/ERC20/utils/SafeERC20.sol\":8994:9010   */\n      eq\n      iszero\n        /* \"@openzeppelin/contracts/token/ERC20/utils/SafeERC20.sol\":8942:9010   */\n      jump(tag_724)\n    tag_723:\n      sub(shl(0xa0, 0x01), 0x01)\n        /* \"@openzeppelin/contracts/token/ERC20/utils/SafeERC20.sol\":8960:8986   */\n      dup5\n      and\n      extcodesize\n        /* \"@openzeppelin/contracts/token/ERC20/utils/SafeERC20.sol\":8960:8991   */\n      iszero\n        /* \"@openzeppelin/contracts/token/ERC20/utils/SafeERC20.sol\":8942:9010   */\n    tag_724:\n        /* \"@openzeppelin/contracts/token/ERC20/utils/SafeERC20.sol\":8938:9084   */\n      iszero\n      tag_605\n      jumpi\n        /* \"@openzeppelin/contracts/token/ERC20/utils/SafeERC20.sol\":9033:9073   */\n      mload(0x40)\n      shl(0xe0, 0x5274afe7)\n      dup2\n      mstore\n      sub(shl(0xa0, 0x01), 0x01)\n        /* \"#utility.yul\":4322:4377   */\n      dup6\n      and\n        /* \"@openzeppelin/contracts/token/ERC20/utils/SafeERC20.sol\":9033:9073   */\n      0x04\n      dup3\n      add\n        /* \"#utility.yul\":4304:4378   */\n      mstore\n        /* \"#utility.yul\":4277:4295   */\n      0x24\n      add\n        /* \"@openzeppelin/contracts/token/ERC20/utils/SafeERC20.sol\":9033:9073   */\n      tag_201\n        /* \"#utility.yul\":4158:4384   */\n      jump\n        /* \"#utility.yul\":14:300   */\n    tag_42:\n        /* \"#utility.yul\":72:78   */\n      0x00\n        /* \"#utility.yul\":125:127   */\n      0x20\n        /* \"#utility.yul\":113:122   */\n      dup3\n        /* \"#utility.yul\":104:111   */\n      dup5\n        /* \"#utility.yul\":100:123   */\n      sub\n        /* \"#utility.yul\":96:128   */\n      slt\n        /* \"#utility.yul\":93:145   */\n      iszero\n      tag_737\n      jumpi\n        /* \"#utility.yul\":141:142   */\n      0x00\n        /* \"#utility.yul\":138:139   */\n      dup1\n        /* \"#utility.yul\":131:143   */\n      revert\n        /* \"#utility.yul\":93:145   */\n    tag_737:\n        /* \"#utility.yul\":167:190   */\n      dup2\n      calldataload\n      not(sub(shl(0xe0, 0x01), 0x01))\n        /* \"#utility.yul\":219:251   */\n      dup2\n      and\n        /* \"#utility.yul\":209:252   */\n      dup2\n      eq\n        /* \"#utility.yul\":199:270   */\n      tag_299\n      jumpi\n        /* \"#utility.yul\":266:267   */\n      0x00\n        /* \"#utility.yul\":263:264   */\n      dup1\n        /* \"#utility.yul\":256:268   */\n      revert\n        /* \"#utility.yul\":497:693   */\n    tag_727:\n        /* \"#utility.yul\":565:585   */\n      dup1\n      calldataload\n      sub(shl(0xa0, 0x01), 0x01)\n        /* \"#utility.yul\":614:668   */\n      dup2\n      and\n        /* \"#utility.yul\":604:669   */\n      dup2\n      eq\n        /* \"#utility.yul\":594:687   */\n      tag_612\n      jumpi\n        /* \"#utility.yul\":683:684   */\n      0x00\n        /* \"#utility.yul\":680:681   */\n      dup1\n        /* \"#utility.yul\":673:685   */\n      revert\n        /* \"#utility.yul\":698:952   */\n    tag_48:\n        /* \"#utility.yul\":766:772   */\n      0x00\n        /* \"#utility.yul\":774:780   */\n      dup1\n        /* \"#utility.yul\":827:829   */\n      0x40\n        /* \"#utility.yul\":815:824   */\n      dup4\n        /* \"#utility.yul\":806:813   */\n      dup6\n        /* \"#utility.yul\":802:825   */\n      sub\n        /* \"#utility.yul\":798:830   */\n      slt\n        /* \"#utility.yul\":795:847   */\n      iszero\n      tag_743\n      jumpi\n        /* \"#utility.yul\":843:844   */\n      0x00\n        /* \"#utility.yul\":840:841   */\n      dup1\n        /* \"#utility.yul\":833:845   */\n      revert\n        /* \"#utility.yul\":795:847   */\n    tag_743:\n        /* \"#utility.yul\":866:895   */\n      tag_744\n        /* \"#utility.yul\":885:894   */\n      dup4\n        /* \"#utility.yul\":866:895   */\n      tag_727\n      jump\t// in\n    tag_744:\n        /* \"#utility.yul\":856:895   */\n      swap5\n        /* \"#utility.yul\":942:944   */\n      0x20\n        /* \"#utility.yul\":927:945   */\n      swap4\n      swap1\n      swap4\n      add\n        /* \"#utility.yul\":914:946   */\n      calldataload\n      swap4\n      pop\n      pop\n      pop\n        /* \"#utility.yul\":698:952   */\n      jump\t// out\n        /* \"#utility.yul\":1153:1315   */\n    tag_728:\n        /* \"#utility.yul\":1220:1240   */\n      dup1\n      calldataload\n        /* \"#utility.yul\":1280:1282   */\n      0x0f\n        /* \"#utility.yul\":1269:1290   */\n      dup2\n      swap1\n      signextend\n        /* \"#utility.yul\":1259:1291   */\n      dup2\n      eq\n        /* \"#utility.yul\":1249:1309   */\n      tag_612\n      jumpi\n        /* \"#utility.yul\":1305:1306   */\n      0x00\n        /* \"#utility.yul\":1302:1303   */\n      dup1\n        /* \"#utility.yul\":1295:1307   */\n      revert\n        /* \"#utility.yul\":1320:1578   */\n    tag_59:\n        /* \"#utility.yul\":1387:1393   */\n      0x00\n        /* \"#utility.yul\":1395:1401   */\n      dup1\n        /* \"#utility.yul\":1448:1450   */\n      0x40\n        /* \"#utility.yul\":1436:1445   */\n      dup4\n        /* \"#utility.yul\":1427:1434   */\n      dup6\n        /* \"#utility.yul\":1423:1446   */\n      sub\n        /* \"#utility.yul\":1419:1451   */\n      slt\n        /* \"#utility.yul\":1416:1468   */\n      iszero\n      tag_749\n      jumpi\n        /* \"#utility.yul\":1464:1465   */\n      0x00\n        /* \"#utility.yul\":1461:1462   */\n      dup1\n        /* \"#utility.yul\":1454:1466   */\n      revert\n        /* \"#utility.yul\":1416:1468   */\n    tag_749:\n        /* \"#utility.yul\":1487:1516   */\n      tag_750\n        /* \"#utility.yul\":1506:1515   */\n      dup4\n        /* \"#utility.yul\":1487:1516   */\n      tag_727\n      jump\t// in\n    tag_750:\n        /* \"#utility.yul\":1477:1516   */\n      swap2\n      pop\n        /* \"#utility.yul\":1535:1572   */\n      tag_751\n        /* \"#utility.yul\":1568:1570   */\n      0x20\n        /* \"#utility.yul\":1557:1566   */\n      dup5\n        /* \"#utility.yul\":1553:1571   */\n      add\n        /* \"#utility.yul\":1535:1572   */\n      tag_728\n      jump\t// in\n    tag_751:\n        /* \"#utility.yul\":1525:1572   */\n      swap1\n      pop\n        /* \"#utility.yul\":1320:1578   */\n      swap3\n      pop\n      swap3\n      swap1\n      pop\n      jump\t// out\n        /* \"#utility.yul\":1765:1945   */\n    tag_65:\n        /* \"#utility.yul\":1824:1830   */\n      0x00\n        /* \"#utility.yul\":1877:1879   */\n      0x20\n        /* \"#utility.yul\":1865:1874   */\n      dup3\n        /* \"#utility.yul\":1856:1863   */\n      dup5\n        /* \"#utility.yul\":1852:1875   */\n      sub\n        /* \"#utility.yul\":1848:1880   */\n      slt\n        /* \"#utility.yul\":1845:1897   */\n      iszero\n      tag_754\n      jumpi\n        /* \"#utility.yul\":1893:1894   */\n      0x00\n        /* \"#utility.yul\":1890:1891   */\n      dup1\n        /* \"#utility.yul\":1883:1895   */\n      revert\n        /* \"#utility.yul\":1845:1897   */\n    tag_754:\n      pop\n        /* \"#utility.yul\":1916:1939   */\n      calldataload\n      swap2\n        /* \"#utility.yul\":1765:1945   */\n      swap1\n      pop\n      jump\t// out\n        /* \"#utility.yul\":1950:2077   */\n    tag_205:\n        /* \"#utility.yul\":2011:2021   */\n      0x4e487b71\n        /* \"#utility.yul\":2006:2009   */\n      0xe0\n        /* \"#utility.yul\":2002:2022   */\n      shl\n        /* \"#utility.yul\":1999:2000   */\n      0x00\n        /* \"#utility.yul\":1992:2023   */\n      mstore\n        /* \"#utility.yul\":2042:2046   */\n      0x41\n        /* \"#utility.yul\":2039:2040   */\n      0x04\n        /* \"#utility.yul\":2032:2047   */\n      mstore\n        /* \"#utility.yul\":2066:2070   */\n      0x24\n        /* \"#utility.yul\":2063:2064   */\n      0x00\n        /* \"#utility.yul\":2056:2071   */\n      revert\n        /* \"#utility.yul\":2082:3004   */\n    tag_72:\n        /* \"#utility.yul\":2151:2157   */\n      0x00\n        /* \"#utility.yul\":2204:2206   */\n      0x20\n        /* \"#utility.yul\":2192:2201   */\n      dup3\n        /* \"#utility.yul\":2183:2190   */\n      dup5\n        /* \"#utility.yul\":2179:2202   */\n      sub\n        /* \"#utility.yul\":2175:2207   */\n      slt\n        /* \"#utility.yul\":2172:2224   */\n      iszero\n      tag_757\n      jumpi\n        /* \"#utility.yul\":2220:2221   */\n      0x00\n        /* \"#utility.yul\":2217:2218   */\n      dup1\n        /* \"#utility.yul\":2210:2222   */\n      revert\n        /* \"#utility.yul\":2172:2224   */\n    tag_757:\n        /* \"#utility.yul\":2260:2269   */\n      dup2\n        /* \"#utility.yul\":2247:2270   */\n      calldataload\n        /* \"#utility.yul\":2289:2307   */\n      0xffffffffffffffff\n        /* \"#utility.yul\":2330:2332   */\n      dup1\n        /* \"#utility.yul\":2322:2328   */\n      dup3\n        /* \"#utility.yul\":2319:2333   */\n      gt\n        /* \"#utility.yul\":2316:2350   */\n      iszero\n      tag_758\n      jumpi\n        /* \"#utility.yul\":2346:2347   */\n      0x00\n        /* \"#utility.yul\":2343:2344   */\n      dup1\n        /* \"#utility.yul\":2336:2348   */\n      revert\n        /* \"#utility.yul\":2316:2350   */\n    tag_758:\n        /* \"#utility.yul\":2384:2390   */\n      dup2\n        /* \"#utility.yul\":2373:2382   */\n      dup5\n        /* \"#utility.yul\":2369:2391   */\n      add\n        /* \"#utility.yul\":2359:2391   */\n      swap2\n      pop\n        /* \"#utility.yul\":2429:2436   */\n      dup5\n        /* \"#utility.yul\":2422:2426   */\n      0x1f\n        /* \"#utility.yul\":2418:2420   */\n      dup4\n        /* \"#utility.yul\":2414:2427   */\n      add\n        /* \"#utility.yul\":2410:2437   */\n      slt\n        /* \"#utility.yul\":2400:2455   */\n      tag_759\n      jumpi\n        /* \"#utility.yul\":2451:2452   */\n      0x00\n        /* \"#utility.yul\":2448:2449   */\n      dup1\n        /* \"#utility.yul\":2441:2453   */\n      revert\n        /* \"#utility.yul\":2400:2455   */\n    tag_759:\n        /* \"#utility.yul\":2487:2489   */\n      dup2\n        /* \"#utility.yul\":2474:2490   */\n      calldataload\n        /* \"#utility.yul\":2509:2511   */\n      dup2\n        /* \"#utility.yul\":2505:2507   */\n      dup2\n        /* \"#utility.yul\":2502:2512   */\n      gt\n        /* \"#utility.yul\":2499:2535   */\n      iszero\n      tag_761\n      jumpi\n        /* \"#utility.yul\":2515:2533   */\n      tag_761\n      tag_205\n      jump\t// in\n    tag_761:\n        /* \"#utility.yul\":2590:2592   */\n      0x40\n        /* \"#utility.yul\":2584:2593   */\n      mload\n        /* \"#utility.yul\":2558:2560   */\n      0x1f\n        /* \"#utility.yul\":2644:2657   */\n      dup3\n      add\n      not(0x1f)\n        /* \"#utility.yul\":2640:2662   */\n      swap1\n      dup2\n      and\n        /* \"#utility.yul\":2664:2666   */\n      0x3f\n        /* \"#utility.yul\":2636:2667   */\n      add\n        /* \"#utility.yul\":2632:2672   */\n      and\n        /* \"#utility.yul\":2620:2673   */\n      dup2\n      add\n      swap1\n        /* \"#utility.yul\":2688:2706   */\n      dup4\n      dup3\n      gt\n        /* \"#utility.yul\":2708:2730   */\n      dup2\n      dup4\n      lt\n        /* \"#utility.yul\":2685:2731   */\n      or\n        /* \"#utility.yul\":2682:2754   */\n      iszero\n      tag_763\n      jumpi\n        /* \"#utility.yul\":2734:2752   */\n      tag_763\n      tag_205\n      jump\t// in\n    tag_763:\n        /* \"#utility.yul\":2774:2784   */\n      dup2\n        /* \"#utility.yul\":2770:2772   */\n      0x40\n        /* \"#utility.yul\":2763:2785   */\n      mstore\n        /* \"#utility.yul\":2809:2811   */\n      dup3\n        /* \"#utility.yul\":2801:2807   */\n      dup2\n        /* \"#utility.yul\":2794:2812   */\n      mstore\n        /* \"#utility.yul\":2849:2856   */\n      dup8\n        /* \"#utility.yul\":2844:2846   */\n      0x20\n        /* \"#utility.yul\":2839:2841   */\n      dup5\n        /* \"#utility.yul\":2835:2837   */\n      dup8\n        /* \"#utility.yul\":2831:2842   */\n      add\n        /* \"#utility.yul\":2827:2847   */\n      add\n        /* \"#utility.yul\":2824:2857   */\n      gt\n        /* \"#utility.yul\":2821:2874   */\n      iszero\n      tag_764\n      jumpi\n        /* \"#utility.yul\":2870:2871   */\n      0x00\n        /* \"#utility.yul\":2867:2868   */\n      dup1\n        /* \"#utility.yul\":2860:2872   */\n      revert\n        /* \"#utility.yul\":2821:2874   */\n    tag_764:\n        /* \"#utility.yul\":2926:2928   */\n      dup3\n        /* \"#utility.yul\":2921:2923   */\n      0x20\n        /* \"#utility.yul\":2917:2919   */\n      dup7\n        /* \"#utility.yul\":2913:2924   */\n      add\n        /* \"#utility.yul\":2908:2910   */\n      0x20\n        /* \"#utility.yul\":2900:2906   */\n      dup4\n        /* \"#utility.yul\":2896:2911   */\n      add\n        /* \"#utility.yul\":2883:2929   */\n      calldatacopy\n        /* \"#utility.yul\":2971:2972   */\n      0x00\n        /* \"#utility.yul\":2949:2964   */\n      swap3\n      dup2\n      add\n        /* \"#utility.yul\":2966:2968   */\n      0x20\n        /* \"#utility.yul\":2945:2969   */\n      add\n        /* \"#utility.yul\":2938:2973   */\n      swap3\n      swap1\n      swap3\n      mstore\n      pop\n        /* \"#utility.yul\":2953:2959   */\n      swap6\n        /* \"#utility.yul\":2082:3004   */\n      swap5\n      pop\n      pop\n      pop\n      pop\n      pop\n      jump\t// out\n        /* \"#utility.yul\":3191:3443   */\n    tag_81:\n        /* \"#utility.yul\":3258:3264   */\n      0x00\n        /* \"#utility.yul\":3266:3272   */\n      dup1\n        /* \"#utility.yul\":3319:3321   */\n      0x40\n        /* \"#utility.yul\":3307:3316   */\n      dup4\n        /* \"#utility.yul\":3298:3305   */\n      dup6\n        /* \"#utility.yul\":3294:3317   */\n      sub\n        /* \"#utility.yul\":3290:3322   */\n      slt\n        /* \"#utility.yul\":3287:3339   */\n      iszero\n      tag_767\n      jumpi\n        /* \"#utility.yul\":3335:3336   */\n      0x00\n        /* \"#utility.yul\":3332:3333   */\n      dup1\n        /* \"#utility.yul\":3325:3337   */\n      revert\n        /* \"#utility.yul\":3287:3339   */\n    tag_767:\n        /* \"#utility.yul\":3371:3380   */\n      dup3\n        /* \"#utility.yul\":3358:3381   */\n      calldataload\n        /* \"#utility.yul\":3348:3381   */\n      swap2\n      pop\n        /* \"#utility.yul\":3400:3437   */\n      tag_751\n        /* \"#utility.yul\":3433:3435   */\n      0x20\n        /* \"#utility.yul\":3422:3431   */\n      dup5\n        /* \"#utility.yul\":3418:3436   */\n      add\n        /* \"#utility.yul\":3400:3437   */\n      tag_728\n      jump\t// in\n        /* \"#utility.yul\":3448:3887   */\n    tag_729:\n        /* \"#utility.yul\":3501:3504   */\n      0x00\n        /* \"#utility.yul\":3539:3544   */\n      dup2\n        /* \"#utility.yul\":3533:3545   */\n      mload\n        /* \"#utility.yul\":3566:3572   */\n      dup1\n        /* \"#utility.yul\":3561:3564   */\n      dup5\n        /* \"#utility.yul\":3554:3573   */\n      mstore\n        /* \"#utility.yul\":3592:3596   */\n      0x20\n        /* \"#utility.yul\":3621:3625   */\n      dup1\n        /* \"#utility.yul\":3616:3619   */\n      dup6\n        /* \"#utility.yul\":3612:3626   */\n      add\n        /* \"#utility.yul\":3605:3626   */\n      swap5\n      pop\n        /* \"#utility.yul\":3660:3664   */\n      0x20\n        /* \"#utility.yul\":3653:3658   */\n      dup5\n        /* \"#utility.yul\":3649:3665   */\n      add\n        /* \"#utility.yul\":3683:3684   */\n      0x00\n        /* \"#utility.yul\":3693:3862   */\n    tag_770:\n        /* \"#utility.yul\":3707:3713   */\n      dup4\n        /* \"#utility.yul\":3704:3705   */\n      dup2\n        /* \"#utility.yul\":3701:3714   */\n      lt\n        /* \"#utility.yul\":3693:3862   */\n      iszero\n      tag_772\n      jumpi\n        /* \"#utility.yul\":3768:3781   */\n      dup2\n      mload\n        /* \"#utility.yul\":3756:3782   */\n      dup8\n      mstore\n        /* \"#utility.yul\":3802:3814   */\n      swap6\n      dup3\n      add\n      swap6\n        /* \"#utility.yul\":3837:3852   */\n      swap1\n      dup3\n      add\n      swap1\n        /* \"#utility.yul\":3729:3730   */\n      0x01\n        /* \"#utility.yul\":3722:3731   */\n      add\n        /* \"#utility.yul\":3693:3862   */\n      jump(tag_770)\n    tag_772:\n      pop\n        /* \"#utility.yul\":3878:3881   */\n      swap5\n      swap6\n        /* \"#utility.yul\":3448:3887   */\n      swap5\n      pop\n      pop\n      pop\n      pop\n      pop\n      jump\t// out\n        /* \"#utility.yul\":3892:4153   */\n    tag_106:\n        /* \"#utility.yul\":4071:4073   */\n      0x20\n        /* \"#utility.yul\":4060:4069   */\n      dup2\n        /* \"#utility.yul\":4053:4074   */\n      mstore\n        /* \"#utility.yul\":4034:4038   */\n      0x00\n        /* \"#utility.yul\":4091:4147   */\n      tag_299\n        /* \"#utility.yul\":4143:4145   */\n      0x20\n        /* \"#utility.yul\":4132:4141   */\n      dup4\n        /* \"#utility.yul\":4128:4146   */\n      add\n        /* \"#utility.yul\":4120:4126   */\n      dup5\n        /* \"#utility.yul\":4091:4147   */\n      tag_729\n      jump\t// in\n        /* \"#utility.yul\":4389:4849   */\n    tag_113:\n        /* \"#utility.yul\":4484:4490   */\n      0x00\n        /* \"#utility.yul\":4492:4498   */\n      dup1\n        /* \"#utility.yul\":4500:4506   */\n      0x00\n        /* \"#utility.yul\":4508:4514   */\n      dup1\n        /* \"#utility.yul\":4516:4522   */\n      0x00\n        /* \"#utility.yul\":4569:4572   */\n      0xa0\n        /* \"#utility.yul\":4557:4566   */\n      dup7\n        /* \"#utility.yul\":4548:4555   */\n      dup9\n        /* \"#utility.yul\":4544:4567   */\n      sub\n        /* \"#utility.yul\":4540:4573   */\n      slt\n        /* \"#utility.yul\":4537:4590   */\n      iszero\n      tag_777\n      jumpi\n        /* \"#utility.yul\":4586:4587   */\n      0x00\n        /* \"#utility.yul\":4583:4584   */\n      dup1\n        /* \"#utility.yul\":4576:4588   */\n      revert\n        /* \"#utility.yul\":4537:4590   */\n    tag_777:\n        /* \"#utility.yul\":4609:4638   */\n      tag_778\n        /* \"#utility.yul\":4628:4637   */\n      dup7\n        /* \"#utility.yul\":4609:4638   */\n      tag_727\n      jump\t// in\n    tag_778:\n        /* \"#utility.yul\":4599:4638   */\n      swap8\n        /* \"#utility.yul\":4685:4687   */\n      0x20\n        /* \"#utility.yul\":4670:4688   */\n      dup8\n      add\n        /* \"#utility.yul\":4657:4689   */\n      calldataload\n      swap8\n      pop\n        /* \"#utility.yul\":4736:4738   */\n      0x40\n        /* \"#utility.yul\":4721:4739   */\n      dup8\n      add\n        /* \"#utility.yul\":4708:4740   */\n      calldataload\n      swap7\n        /* \"#utility.yul\":4787:4789   */\n      0x60\n        /* \"#utility.yul\":4772:4790   */\n      dup2\n      add\n        /* \"#utility.yul\":4759:4791   */\n      calldataload\n      swap7\n      pop\n        /* \"#utility.yul\":4838:4841   */\n      0x80\n        /* \"#utility.yul\":4823:4842   */\n      add\n        /* \"#utility.yul\":4810:4843   */\n      calldataload\n      swap5\n      pop\n        /* \"#utility.yul\":4389:4849   */\n      swap3\n      pop\n      pop\n      pop\n      jump\t// out\n        /* \"#utility.yul\":4854:5221   */\n    tag_730:\n        /* \"#utility.yul\":4917:4925   */\n      0x00\n        /* \"#utility.yul\":4927:4933   */\n      dup1\n        /* \"#utility.yul\":4981:4984   */\n      dup4\n        /* \"#utility.yul\":4974:4978   */\n      0x1f\n        /* \"#utility.yul\":4966:4972   */\n      dup5\n        /* \"#utility.yul\":4962:4979   */\n      add\n        /* \"#utility.yul\":4958:4985   */\n      slt\n        /* \"#utility.yul\":4948:5003   */\n      tag_780\n      jumpi\n        /* \"#utility.yul\":4999:5000   */\n      0x00\n        /* \"#utility.yul\":4996:4997   */\n      dup1\n        /* \"#utility.yul\":4989:5001   */\n      revert\n        /* \"#utility.yul\":4948:5003   */\n    tag_780:\n      pop\n        /* \"#utility.yul\":5022:5042   */\n      dup2\n      calldataload\n        /* \"#utility.yul\":5065:5083   */\n      0xffffffffffffffff\n        /* \"#utility.yul\":5054:5084   */\n      dup2\n      gt\n        /* \"#utility.yul\":5051:5101   */\n      iszero\n      tag_781\n      jumpi\n        /* \"#utility.yul\":5097:5098   */\n      0x00\n        /* \"#utility.yul\":5094:5095   */\n      dup1\n        /* \"#utility.yul\":5087:5099   */\n      revert\n        /* \"#utility.yul\":5051:5101   */\n    tag_781:\n        /* \"#utility.yul\":5134:5138   */\n      0x20\n        /* \"#utility.yul\":5126:5132   */\n      dup4\n        /* \"#utility.yul\":5122:5139   */\n      add\n        /* \"#utility.yul\":5110:5139   */\n      swap2\n      pop\n        /* \"#utility.yul\":5194:5197   */\n      dup4\n        /* \"#utility.yul\":5187:5191   */\n      0x20\n        /* \"#utility.yul\":5177:5183   */\n      dup3\n        /* \"#utility.yul\":5174:5175   */\n      0x05\n        /* \"#utility.yul\":5170:5184   */\n      shl\n        /* \"#utility.yul\":5162:5168   */\n      dup6\n        /* \"#utility.yul\":5158:5185   */\n      add\n        /* \"#utility.yul\":5154:5192   */\n      add\n        /* \"#utility.yul\":5151:5198   */\n      gt\n        /* \"#utility.yul\":5148:5215   */\n      iszero\n      tag_782\n      jumpi\n        /* \"#utility.yul\":5211:5212   */\n      0x00\n        /* \"#utility.yul\":5208:5209   */\n      dup1\n        /* \"#utility.yul\":5201:5213   */\n      revert\n        /* \"#utility.yul\":5148:5215   */\n    tag_782:\n        /* \"#utility.yul\":4854:5221   */\n      swap3\n      pop\n      swap3\n      swap1\n      pop\n      jump\t// out\n        /* \"#utility.yul\":5226:5573   */\n    tag_731:\n        /* \"#utility.yul\":5277:5285   */\n      0x00\n        /* \"#utility.yul\":5287:5293   */\n      dup1\n        /* \"#utility.yul\":5341:5344   */\n      dup4\n        /* \"#utility.yul\":5334:5338   */\n      0x1f\n        /* \"#utility.yul\":5326:5332   */\n      dup5\n        /* \"#utility.yul\":5322:5339   */\n      add\n        /* \"#utility.yul\":5318:5345   */\n      slt\n        /* \"#utility.yul\":5308:5363   */\n      tag_784\n      jumpi\n        /* \"#utility.yul\":5359:5360   */\n      0x00\n        /* \"#utility.yul\":5356:5357   */\n      dup1\n        /* \"#utility.yul\":5349:5361   */\n      revert\n        /* \"#utility.yul\":5308:5363   */\n    tag_784:\n      pop\n        /* \"#utility.yul\":5382:5402   */\n      dup2\n      calldataload\n        /* \"#utility.yul\":5425:5443   */\n      0xffffffffffffffff\n        /* \"#utility.yul\":5414:5444   */\n      dup2\n      gt\n        /* \"#utility.yul\":5411:5461   */\n      iszero\n      tag_785\n      jumpi\n        /* \"#utility.yul\":5457:5458   */\n      0x00\n        /* \"#utility.yul\":5454:5455   */\n      dup1\n        /* \"#utility.yul\":5447:5459   */\n      revert\n        /* \"#utility.yul\":5411:5461   */\n    tag_785:\n        /* \"#utility.yul\":5494:5498   */\n      0x20\n        /* \"#utility.yul\":5486:5492   */\n      dup4\n        /* \"#utility.yul\":5482:5499   */\n      add\n        /* \"#utility.yul\":5470:5499   */\n      swap2\n      pop\n        /* \"#utility.yul\":5546:5549   */\n      dup4\n        /* \"#utility.yul\":5539:5543   */\n      0x20\n        /* \"#utility.yul\":5530:5536   */\n      dup3\n        /* \"#utility.yul\":5522:5528   */\n      dup6\n        /* \"#utility.yul\":5518:5537   */\n      add\n        /* \"#utility.yul\":5514:5544   */\n      add\n        /* \"#utility.yul\":5511:5550   */\n      gt\n        /* \"#utility.yul\":5508:5567   */\n      iszero\n      tag_782\n      jumpi\n        /* \"#utility.yul\":5563:5564   */\n      0x00\n        /* \"#utility.yul\":5560:5561   */\n      dup1\n        /* \"#utility.yul\":5553:5565   */\n      revert\n        /* \"#utility.yul\":5578:6788   */\n    tag_125:\n        /* \"#utility.yul\":5738:5744   */\n      0x00\n        /* \"#utility.yul\":5746:5752   */\n      dup1\n        /* \"#utility.yul\":5754:5760   */\n      0x00\n        /* \"#utility.yul\":5762:5768   */\n      dup1\n        /* \"#utility.yul\":5770:5776   */\n      0x00\n        /* \"#utility.yul\":5778:5784   */\n      dup1\n        /* \"#utility.yul\":5786:5792   */\n      0x00\n        /* \"#utility.yul\":5794:5800   */\n      dup1\n        /* \"#utility.yul\":5847:5850   */\n      0xa0\n        /* \"#utility.yul\":5835:5844   */\n      dup10\n        /* \"#utility.yul\":5826:5833   */\n      dup12\n        /* \"#utility.yul\":5822:5845   */\n      sub\n        /* \"#utility.yul\":5818:5851   */\n      slt\n        /* \"#utility.yul\":5815:5868   */\n      iszero\n      tag_788\n      jumpi\n        /* \"#utility.yul\":5864:5865   */\n      0x00\n        /* \"#utility.yul\":5861:5862   */\n      dup1\n        /* \"#utility.yul\":5854:5866   */\n      revert\n        /* \"#utility.yul\":5815:5868   */\n    tag_788:\n        /* \"#utility.yul\":5887:5916   */\n      tag_789\n        /* \"#utility.yul\":5906:5915   */\n      dup10\n        /* \"#utility.yul\":5887:5916   */\n      tag_727\n      jump\t// in\n    tag_789:\n        /* \"#utility.yul\":5877:5916   */\n      swap8\n      pop\n        /* \"#utility.yul\":5935:5973   */\n      tag_790\n        /* \"#utility.yul\":5969:5971   */\n      0x20\n        /* \"#utility.yul\":5958:5967   */\n      dup11\n        /* \"#utility.yul\":5954:5972   */\n      add\n        /* \"#utility.yul\":5935:5973   */\n      tag_727\n      jump\t// in\n    tag_790:\n        /* \"#utility.yul\":5925:5973   */\n      swap7\n      pop\n        /* \"#utility.yul\":6024:6026   */\n      0x40\n        /* \"#utility.yul\":6013:6022   */\n      dup10\n        /* \"#utility.yul\":6009:6027   */\n      add\n        /* \"#utility.yul\":5996:6028   */\n      calldataload\n        /* \"#utility.yul\":6047:6065   */\n      0xffffffffffffffff\n        /* \"#utility.yul\":6088:6090   */\n      dup1\n        /* \"#utility.yul\":6080:6086   */\n      dup3\n        /* \"#utility.yul\":6077:6091   */\n      gt\n        /* \"#utility.yul\":6074:6108   */\n      iszero\n      tag_791\n      jumpi\n        /* \"#utility.yul\":6104:6105   */\n      0x00\n        /* \"#utility.yul\":6101:6102   */\n      dup1\n        /* \"#utility.yul\":6094:6106   */\n      revert\n        /* \"#utility.yul\":6074:6108   */\n    tag_791:\n        /* \"#utility.yul\":6143:6213   */\n      tag_792\n        /* \"#utility.yul\":6205:6212   */\n      dup13\n        /* \"#utility.yul\":6196:6202   */\n      dup4\n        /* \"#utility.yul\":6185:6194   */\n      dup14\n        /* \"#utility.yul\":6181:6203   */\n      add\n        /* \"#utility.yul\":6143:6213   */\n      tag_730\n      jump\t// in\n    tag_792:\n        /* \"#utility.yul\":6232:6240   */\n      swap1\n      swap9\n      pop\n        /* \"#utility.yul\":6117:6213   */\n      swap7\n      pop\n        /* \"#utility.yul\":6320:6322   */\n      0x60\n        /* \"#utility.yul\":6305:6323   */\n      dup12\n      add\n        /* \"#utility.yul\":6292:6324   */\n      calldataload\n      swap2\n      pop\n        /* \"#utility.yul\":6336:6352   */\n      dup1\n      dup3\n      gt\n        /* \"#utility.yul\":6333:6369   */\n      iszero\n      tag_793\n      jumpi\n        /* \"#utility.yul\":6365:6366   */\n      0x00\n        /* \"#utility.yul\":6362:6363   */\n      dup1\n        /* \"#utility.yul\":6355:6367   */\n      revert\n        /* \"#utility.yul\":6333:6369   */\n    tag_793:\n        /* \"#utility.yul\":6404:6476   */\n      tag_794\n        /* \"#utility.yul\":6468:6475   */\n      dup13\n        /* \"#utility.yul\":6457:6465   */\n      dup4\n        /* \"#utility.yul\":6446:6455   */\n      dup14\n        /* \"#utility.yul\":6442:6466   */\n      add\n        /* \"#utility.yul\":6404:6476   */\n      tag_730\n      jump\t// in\n    tag_794:\n        /* \"#utility.yul\":6495:6503   */\n      swap1\n      swap7\n      pop\n        /* \"#utility.yul\":6378:6476   */\n      swap5\n      pop\n        /* \"#utility.yul\":6583:6586   */\n      0x80\n        /* \"#utility.yul\":6568:6587   */\n      dup12\n      add\n        /* \"#utility.yul\":6555:6588   */\n      calldataload\n      swap2\n      pop\n        /* \"#utility.yul\":6600:6616   */\n      dup1\n      dup3\n      gt\n        /* \"#utility.yul\":6597:6633   */\n      iszero\n      tag_795\n      jumpi\n        /* \"#utility.yul\":6629:6630   */\n      0x00\n        /* \"#utility.yul\":6626:6627   */\n      dup1\n        /* \"#utility.yul\":6619:6631   */\n      revert\n        /* \"#utility.yul\":6597:6633   */\n    tag_795:\n      pop\n        /* \"#utility.yul\":6668:6728   */\n      tag_796\n        /* \"#utility.yul\":6720:6727   */\n      dup12\n        /* \"#utility.yul\":6709:6717   */\n      dup3\n        /* \"#utility.yul\":6698:6707   */\n      dup13\n        /* \"#utility.yul\":6694:6718   */\n      add\n        /* \"#utility.yul\":6668:6728   */\n      tag_731\n      jump\t// in\n    tag_796:\n        /* \"#utility.yul\":5578:6788   */\n      swap10\n      swap13\n      swap9\n      swap12\n      pop\n      swap7\n      swap10\n      pop\n      swap5\n      swap8\n      swap4\n      swap7\n      swap3\n      swap6\n        /* \"#utility.yul\":6747:6755   */\n      swap5\n      pop\n      pop\n      pop\n        /* \"#utility.yul\":5578:6788   */\n      jump\t// out\n        /* \"#utility.yul\":7253:7948   */\n    tag_145:\n        /* \"#utility.yul\":7359:7365   */\n      0x00\n        /* \"#utility.yul\":7367:7373   */\n      dup1\n        /* \"#utility.yul\":7375:7381   */\n      0x00\n        /* \"#utility.yul\":7383:7389   */\n      dup1\n        /* \"#utility.yul\":7391:7397   */\n      0x00\n        /* \"#utility.yul\":7399:7405   */\n      dup1\n        /* \"#utility.yul\":7452:7455   */\n      0xa0\n        /* \"#utility.yul\":7440:7449   */\n      dup8\n        /* \"#utility.yul\":7431:7438   */\n      dup10\n        /* \"#utility.yul\":7427:7450   */\n      sub\n        /* \"#utility.yul\":7423:7456   */\n      slt\n        /* \"#utility.yul\":7420:7473   */\n      iszero\n      tag_800\n      jumpi\n        /* \"#utility.yul\":7469:7470   */\n      0x00\n        /* \"#utility.yul\":7466:7467   */\n      dup1\n        /* \"#utility.yul\":7459:7471   */\n      revert\n        /* \"#utility.yul\":7420:7473   */\n    tag_800:\n        /* \"#utility.yul\":7492:7521   */\n      tag_801\n        /* \"#utility.yul\":7511:7520   */\n      dup8\n        /* \"#utility.yul\":7492:7521   */\n      tag_727\n      jump\t// in\n    tag_801:\n        /* \"#utility.yul\":7482:7521   */\n      swap6\n      pop\n        /* \"#utility.yul\":7540:7578   */\n      tag_802\n        /* \"#utility.yul\":7574:7576   */\n      0x20\n        /* \"#utility.yul\":7563:7572   */\n      dup9\n        /* \"#utility.yul\":7559:7577   */\n      add\n        /* \"#utility.yul\":7540:7578   */\n      tag_727\n      jump\t// in\n    tag_802:\n        /* \"#utility.yul\":7530:7578   */\n      swap5\n      pop\n        /* \"#utility.yul\":7625:7627   */\n      0x40\n        /* \"#utility.yul\":7614:7623   */\n      dup8\n        /* \"#utility.yul\":7610:7628   */\n      add\n        /* \"#utility.yul\":7597:7629   */\n      calldataload\n        /* \"#utility.yul\":7587:7629   */\n      swap4\n      pop\n        /* \"#utility.yul\":7676:7678   */\n      0x60\n        /* \"#utility.yul\":7665:7674   */\n      dup8\n        /* \"#utility.yul\":7661:7679   */\n      add\n        /* \"#utility.yul\":7648:7680   */\n      calldataload\n        /* \"#utility.yul\":7638:7680   */\n      swap3\n      pop\n        /* \"#utility.yul\":7731:7734   */\n      0x80\n        /* \"#utility.yul\":7720:7729   */\n      dup8\n        /* \"#utility.yul\":7716:7735   */\n      add\n        /* \"#utility.yul\":7703:7736   */\n      calldataload\n        /* \"#utility.yul\":7759:7777   */\n      0xffffffffffffffff\n        /* \"#utility.yul\":7751:7757   */\n      dup2\n        /* \"#utility.yul\":7748:7778   */\n      gt\n        /* \"#utility.yul\":7745:7795   */\n      iszero\n      tag_803\n      jumpi\n        /* \"#utility.yul\":7791:7792   */\n      0x00\n        /* \"#utility.yul\":7788:7789   */\n      dup1\n        /* \"#utility.yul\":7781:7793   */\n      revert\n        /* \"#utility.yul\":7745:7795   */\n    tag_803:\n        /* \"#utility.yul\":7830:7888   */\n      tag_804\n        /* \"#utility.yul\":7880:7887   */\n      dup10\n        /* \"#utility.yul\":7871:7877   */\n      dup3\n        /* \"#utility.yul\":7860:7869   */\n      dup11\n        /* \"#utility.yul\":7856:7878   */\n      add\n        /* \"#utility.yul\":7830:7888   */\n      tag_731\n      jump\t// in\n    tag_804:\n        /* \"#utility.yul\":7253:7948   */\n      swap8\n      swap11\n      swap7\n      swap10\n      pop\n      swap5\n      swap8\n      pop\n      swap3\n      swap6\n        /* \"#utility.yul\":7907:7915   */\n      swap4\n      swap5\n        /* \"#utility.yul\":7253:7948   */\n      swap3\n      pop\n      pop\n      pop\n      jump\t// out\n        /* \"#utility.yul\":7953:8139   */\n    tag_150:\n        /* \"#utility.yul\":8012:8018   */\n      0x00\n        /* \"#utility.yul\":8065:8067   */\n      0x20\n        /* \"#utility.yul\":8053:8062   */\n      dup3\n        /* \"#utility.yul\":8044:8051   */\n      dup5\n        /* \"#utility.yul\":8040:8063   */\n      sub\n        /* \"#utility.yul\":8036:8068   */\n      slt\n        /* \"#utility.yul\":8033:8085   */\n      iszero\n      tag_806\n      jumpi\n        /* \"#utility.yul\":8081:8082   */\n      0x00\n        /* \"#utility.yul\":8078:8079   */\n      dup1\n        /* \"#utility.yul\":8071:8083   */\n      revert\n        /* \"#utility.yul\":8033:8085   */\n    tag_806:\n        /* \"#utility.yul\":8104:8133   */\n      tag_299\n        /* \"#utility.yul\":8123:8132   */\n      dup3\n        /* \"#utility.yul\":8104:8133   */\n      tag_727\n      jump\t// in\n        /* \"#utility.yul\":8144:8417   */\n    tag_164:\n        /* \"#utility.yul\":8212:8218   */\n      0x00\n        /* \"#utility.yul\":8265:8267   */\n      0x20\n        /* \"#utility.yul\":8253:8262   */\n      dup3\n        /* \"#utility.yul\":8244:8251   */\n      dup5\n        /* \"#utility.yul\":8240:8263   */\n      sub\n        /* \"#utility.yul\":8236:8268   */\n      slt\n        /* \"#utility.yul\":8233:8285   */\n      iszero\n      tag_809\n      jumpi\n        /* \"#utility.yul\":8281:8282   */\n      0x00\n        /* \"#utility.yul\":8278:8279   */\n      dup1\n        /* \"#utility.yul\":8271:8283   */\n      revert\n        /* \"#utility.yul\":8233:8285   */\n    tag_809:\n        /* \"#utility.yul\":8313:8322   */\n      dup2\n        /* \"#utility.yul\":8307:8323   */\n      mload\n        /* \"#utility.yul\":8363:8367   */\n      0xff\n        /* \"#utility.yul\":8356:8361   */\n      dup2\n        /* \"#utility.yul\":8352:8368   */\n      and\n        /* \"#utility.yul\":8345:8350   */\n      dup2\n        /* \"#utility.yul\":8342:8369   */\n      eq\n        /* \"#utility.yul\":8332:8387   */\n      tag_299\n      jumpi\n        /* \"#utility.yul\":8383:8384   */\n      0x00\n        /* \"#utility.yul\":8380:8381   */\n      dup1\n        /* \"#utility.yul\":8373:8385   */\n      revert\n        /* \"#utility.yul\":8422:8549   */\n    tag_732:\n        /* \"#utility.yul\":8483:8493   */\n      0x4e487b71\n        /* \"#utility.yul\":8478:8481   */\n      0xe0\n        /* \"#utility.yul\":8474:8494   */\n      shl\n        /* \"#utility.yul\":8471:8472   */\n      0x00\n        /* \"#utility.yul\":8464:8495   */\n      mstore\n        /* \"#utility.yul\":8514:8518   */\n      0x11\n        /* \"#utility.yul\":8511:8512   */\n      0x04\n        /* \"#utility.yul\":8504:8519   */\n      mstore\n        /* \"#utility.yul\":8538:8542   */\n      0x24\n        /* \"#utility.yul\":8535:8536   */\n      0x00\n        /* \"#utility.yul\":8528:8543   */\n      revert\n        /* \"#utility.yul\":8554:8970   */\n    tag_733:\n        /* \"#utility.yul\":8643:8644   */\n      0x01\n        /* \"#utility.yul\":8680:8685   */\n      dup2\n        /* \"#utility.yul\":8643:8644   */\n      dup2\n        /* \"#utility.yul\":8694:8964   */\n    tag_813:\n        /* \"#utility.yul\":8715:8722   */\n      dup1\n        /* \"#utility.yul\":8705:8713   */\n      dup6\n        /* \"#utility.yul\":8702:8723   */\n      gt\n        /* \"#utility.yul\":8694:8964   */\n      iszero\n      tag_815\n      jumpi\n        /* \"#utility.yul\":8774:8778   */\n      dup2\n        /* \"#utility.yul\":8770:8771   */\n      0x00\n        /* \"#utility.yul\":8766:8772   */\n      not\n        /* \"#utility.yul\":8762:8779   */\n      div\n        /* \"#utility.yul\":8756:8760   */\n      dup3\n        /* \"#utility.yul\":8753:8780   */\n      gt\n        /* \"#utility.yul\":8750:8803   */\n      iszero\n      tag_817\n      jumpi\n        /* \"#utility.yul\":8783:8801   */\n      tag_817\n      tag_732\n      jump\t// in\n    tag_817:\n        /* \"#utility.yul\":8833:8840   */\n      dup1\n        /* \"#utility.yul\":8823:8831   */\n      dup6\n        /* \"#utility.yul\":8819:8841   */\n      and\n        /* \"#utility.yul\":8816:8871   */\n      iszero\n      tag_818\n      jumpi\n        /* \"#utility.yul\":8853:8869   */\n      swap2\n      dup2\n      mul\n      swap2\n        /* \"#utility.yul\":8816:8871   */\n    tag_818:\n        /* \"#utility.yul\":8932:8954   */\n      swap4\n      dup5\n      shr\n      swap4\n        /* \"#utility.yul\":8892:8907   */\n      swap1\n      dup1\n      mul\n      swap1\n        /* \"#utility.yul\":8694:8964   */\n      jump(tag_813)\n    tag_815:\n        /* \"#utility.yul\":8698:8701   */\n      pop\n        /* \"#utility.yul\":8554:8970   */\n      swap3\n      pop\n      swap3\n      swap1\n      pop\n      jump\t// out\n        /* \"#utility.yul\":8975:9781   */\n    tag_734:\n        /* \"#utility.yul\":9024:9029   */\n      0x00\n        /* \"#utility.yul\":9054:9062   */\n      dup3\n        /* \"#utility.yul\":9044:9124   */\n      tag_820\n      jumpi\n      pop\n        /* \"#utility.yul\":9095:9096   */\n      0x01\n        /* \"#utility.yul\":9109:9114   */\n      jump(tag_160)\n        /* \"#utility.yul\":9044:9124   */\n    tag_820:\n        /* \"#utility.yul\":9143:9147   */\n      dup2\n        /* \"#utility.yul\":9133:9209   */\n      tag_821\n      jumpi\n      pop\n        /* \"#utility.yul\":9180:9181   */\n      0x00\n        /* \"#utility.yul\":9194:9199   */\n      jump(tag_160)\n        /* \"#utility.yul\":9133:9209   */\n    tag_821:\n        /* \"#utility.yul\":9225:9229   */\n      dup2\n        /* \"#utility.yul\":9243:9244   */\n      0x01\n        /* \"#utility.yul\":9238:9297   */\n      dup2\n      eq\n      tag_823\n      jumpi\n        /* \"#utility.yul\":9311:9312   */\n      0x02\n        /* \"#utility.yul\":9306:9436   */\n      dup2\n      eq\n      tag_824\n      jumpi\n        /* \"#utility.yul\":9218:9436   */\n      jump(tag_822)\n        /* \"#utility.yul\":9238:9297   */\n    tag_823:\n        /* \"#utility.yul\":9268:9269   */\n      0x01\n        /* \"#utility.yul\":9259:9269   */\n      swap2\n      pop\n        /* \"#utility.yul\":9282:9287   */\n      pop\n      jump(tag_160)\n        /* \"#utility.yul\":9306:9436   */\n    tag_824:\n        /* \"#utility.yul\":9343:9346   */\n      0xff\n        /* \"#utility.yul\":9333:9341   */\n      dup5\n        /* \"#utility.yul\":9330:9347   */\n      gt\n        /* \"#utility.yul\":9327:9370   */\n      iszero\n      tag_826\n      jumpi\n        /* \"#utility.yul\":9350:9368   */\n      tag_826\n      tag_732\n      jump\t// in\n    tag_826:\n      pop\n      pop\n        /* \"#utility.yul\":9406:9407   */\n      0x01\n        /* \"#utility.yul\":9392:9408   */\n      dup3\n      shl\n        /* \"#utility.yul\":9421:9426   */\n      jump(tag_160)\n        /* \"#utility.yul\":9218:9436   */\n    tag_822:\n      pop\n        /* \"#utility.yul\":9520:9522   */\n      0x20\n        /* \"#utility.yul\":9510:9518   */\n      dup4\n        /* \"#utility.yul\":9507:9523   */\n      lt\n        /* \"#utility.yul\":9501:9504   */\n      0x0133\n        /* \"#utility.yul\":9495:9499   */\n      dup4\n        /* \"#utility.yul\":9492:9505   */\n      lt\n        /* \"#utility.yul\":9488:9524   */\n      and\n        /* \"#utility.yul\":9482:9484   */\n      0x4e\n        /* \"#utility.yul\":9472:9480   */\n      dup5\n        /* \"#utility.yul\":9469:9485   */\n      lt\n        /* \"#utility.yul\":9464:9466   */\n      0x0b\n        /* \"#utility.yul\":9458:9462   */\n      dup5\n        /* \"#utility.yul\":9455:9467   */\n      lt\n        /* \"#utility.yul\":9451:9486   */\n      and\n        /* \"#utility.yul\":9448:9525   */\n      or\n        /* \"#utility.yul\":9445:9604   */\n      iszero\n      tag_827\n      jumpi\n      pop\n        /* \"#utility.yul\":9557:9576   */\n      dup2\n      dup2\n      exp\n        /* \"#utility.yul\":9589:9594   */\n      jump(tag_160)\n        /* \"#utility.yul\":9445:9604   */\n    tag_827:\n        /* \"#utility.yul\":9636:9670   */\n      tag_828\n        /* \"#utility.yul\":9661:9669   */\n      dup4\n        /* \"#utility.yul\":9655:9659   */\n      dup4\n        /* \"#utility.yul\":9636:9670   */\n      tag_733\n      jump\t// in\n    tag_828:\n        /* \"#utility.yul\":9706:9712   */\n      dup1\n        /* \"#utility.yul\":9702:9703   */\n      0x00\n        /* \"#utility.yul\":9698:9704   */\n      not\n        /* \"#utility.yul\":9694:9713   */\n      div\n        /* \"#utility.yul\":9685:9692   */\n      dup3\n        /* \"#utility.yul\":9682:9714   */\n      gt\n        /* \"#utility.yul\":9679:9737   */\n      iszero\n      tag_830\n      jumpi\n        /* \"#utility.yul\":9717:9735   */\n      tag_830\n      tag_732\n      jump\t// in\n    tag_830:\n        /* \"#utility.yul\":9755:9775   */\n      mul\n      swap4\n        /* \"#utility.yul\":8975:9781   */\n      swap3\n      pop\n      pop\n      pop\n      jump\t// out\n        /* \"#utility.yul\":9786:9917   */\n    tag_167:\n        /* \"#utility.yul\":9846:9851   */\n      0x00\n        /* \"#utility.yul\":9875:9911   */\n      tag_299\n        /* \"#utility.yul\":9902:9910   */\n      dup4\n        /* \"#utility.yul\":9896:9900   */\n      dup4\n        /* \"#utility.yul\":9875:9911   */\n      tag_734\n      jump\t// in\n        /* \"#utility.yul\":9922:10049   */\n    tag_180:\n        /* \"#utility.yul\":9983:9993   */\n      0x4e487b71\n        /* \"#utility.yul\":9978:9981   */\n      0xe0\n        /* \"#utility.yul\":9974:9994   */\n      shl\n        /* \"#utility.yul\":9971:9972   */\n      0x00\n        /* \"#utility.yul\":9964:9995   */\n      mstore\n        /* \"#utility.yul\":10014:10018   */\n      0x32\n        /* \"#utility.yul\":10011:10012   */\n      0x04\n        /* \"#utility.yul\":10004:10019   */\n      mstore\n        /* \"#utility.yul\":10038:10042   */\n      0x24\n        /* \"#utility.yul\":10035:10036   */\n      0x00\n        /* \"#utility.yul\":10028:10043   */\n      revert\n        /* \"#utility.yul\":10054:10238   */\n    tag_199:\n        /* \"#utility.yul\":10124:10130   */\n      0x00\n        /* \"#utility.yul\":10177:10179   */\n      0x20\n        /* \"#utility.yul\":10165:10174   */\n      dup3\n        /* \"#utility.yul\":10156:10163   */\n      dup5\n        /* \"#utility.yul\":10152:10175   */\n      sub\n        /* \"#utility.yul\":10148:10180   */\n      slt\n        /* \"#utility.yul\":10145:10197   */\n      iszero\n      tag_835\n      jumpi\n        /* \"#utility.yul\":10193:10194   */\n      0x00\n        /* \"#utility.yul\":10190:10191   */\n      dup1\n        /* \"#utility.yul\":10183:10195   */\n      revert\n        /* \"#utility.yul\":10145:10197   */\n    tag_835:\n      pop\n        /* \"#utility.yul\":10216:10232   */\n      mload\n      swap2\n        /* \"#utility.yul\":10054:10238   */\n      swap1\n      pop\n      jump\t// out\n        /* \"#utility.yul\":10599:11139   */\n    tag_213:\n      sub(shl(0xa0, 0x01), 0x01)\n        /* \"#utility.yul\":10881:10887   */\n      dup6\n        /* \"#utility.yul\":10877:10932   */\n      and\n        /* \"#utility.yul\":10866:10875   */\n      dup2\n        /* \"#utility.yul\":10859:10933   */\n      mstore\n        /* \"#utility.yul\":10969:10975   */\n      dup4\n        /* \"#utility.yul\":10964:10966   */\n      0x20\n        /* \"#utility.yul\":10953:10962   */\n      dup3\n        /* \"#utility.yul\":10949:10967   */\n      add\n        /* \"#utility.yul\":10942:10976   */\n      mstore\n        /* \"#utility.yul\":11012:11018   */\n      dup3\n        /* \"#utility.yul\":11007:11009   */\n      0x40\n        /* \"#utility.yul\":10996:11005   */\n      dup3\n        /* \"#utility.yul\":10992:11010   */\n      add\n        /* \"#utility.yul\":10985:11019   */\n      mstore\n        /* \"#utility.yul\":11055:11058   */\n      0x80\n        /* \"#utility.yul\":11050:11052   */\n      0x60\n        /* \"#utility.yul\":11039:11048   */\n      dup3\n        /* \"#utility.yul\":11035:11053   */\n      add\n        /* \"#utility.yul\":11028:11059   */\n      mstore\n        /* \"#utility.yul\":10840:10844   */\n      0x00\n        /* \"#utility.yul\":11076:11133   */\n      tag_231\n        /* \"#utility.yul\":11128:11131   */\n      0x80\n        /* \"#utility.yul\":11117:11126   */\n      dup4\n        /* \"#utility.yul\":11113:11132   */\n      add\n        /* \"#utility.yul\":11105:11111   */\n      dup5\n        /* \"#utility.yul\":11076:11133   */\n      tag_729\n      jump\t// in\n        /* \"#utility.yul\":12198:12326   */\n    tag_264:\n        /* \"#utility.yul\":12265:12274   */\n      dup2\n      dup2\n      sub\n        /* \"#utility.yul\":12286:12297   */\n      dup2\n      dup2\n      gt\n        /* \"#utility.yul\":12283:12320   */\n      iszero\n      tag_160\n      jumpi\n        /* \"#utility.yul\":12300:12318   */\n      tag_160\n      tag_732\n      jump\t// in\n        /* \"#utility.yul\":12331:12634   */\n    tag_271:\n        /* \"#utility.yul\":12462:12465   */\n      0x00\n        /* \"#utility.yul\":12500:12506   */\n      dup3\n        /* \"#utility.yul\":12494:12507   */\n      mload\n        /* \"#utility.yul\":12546:12552   */\n      dup1\n        /* \"#utility.yul\":12539:12543   */\n      0x20\n        /* \"#utility.yul\":12531:12537   */\n      dup6\n        /* \"#utility.yul\":12527:12544   */\n      add\n        /* \"#utility.yul\":12522:12525   */\n      dup5\n        /* \"#utility.yul\":12516:12553   */\n      mcopy\n        /* \"#utility.yul\":12608:12609   */\n      0x00\n        /* \"#utility.yul\":12572:12588   */\n      swap3\n      add\n        /* \"#utility.yul\":12597:12610   */\n      swap2\n      dup3\n      mstore\n      pop\n        /* \"#utility.yul\":12572:12588   */\n      swap2\n        /* \"#utility.yul\":12331:12634   */\n      swap1\n      pop\n      jump\t// out\n        /* \"#utility.yul\":12639:12852   */\n    tag_298:\n        /* \"#utility.yul\":12674:12677   */\n      0x00\n        /* \"#utility.yul\":12722:12727   */\n      dup2\n        /* \"#utility.yul\":12718:12720   */\n      0x0f\n        /* \"#utility.yul\":12707:12728   */\n      signextend\n      sub(shl(0x7f, 0x01), 0x01)\n        /* \"#utility.yul\":12752:12791   */\n      not\n        /* \"#utility.yul\":12743:12750   */\n      dup2\n        /* \"#utility.yul\":12740:12792   */\n      sub\n        /* \"#utility.yul\":12737:12815   */\n      tag_848\n      jumpi\n        /* \"#utility.yul\":12795:12813   */\n      tag_848\n      tag_732\n      jump\t// in\n    tag_848:\n        /* \"#utility.yul\":12835:12836   */\n      0x00\n        /* \"#utility.yul\":12831:12846   */\n      sub\n      swap3\n        /* \"#utility.yul\":12639:12852   */\n      swap2\n      pop\n      pop\n      jump\t// out\n        /* \"#utility.yul\":12857:13106   */\n    tag_300:\n        /* \"#utility.yul\":12957:12959   */\n      0x0f\n        /* \"#utility.yul\":12946:12963   */\n      dup3\n      dup2\n      signextend\n        /* \"#utility.yul\":12927:12944   */\n      swap1\n      dup3\n      swap1\n      signextend\n        /* \"#utility.yul\":12923:12964   */\n      sub\n      not(0x7fffffffffffffffffffffffffffffff)\n        /* \"#utility.yul\":12979:13029   */\n      dup2\n      slt\n      sub(shl(0x7f, 0x01), 0x01)\n        /* \"#utility.yul\":13031:13076   */\n      dup3\n      sgt\n        /* \"#utility.yul\":12976:13077   */\n      or\n        /* \"#utility.yul\":12973:13100   */\n      iszero\n      tag_160\n      jumpi\n        /* \"#utility.yul\":13080:13098   */\n      tag_160\n      tag_732\n      jump\t// in\n        /* \"#utility.yul\":13111:13236   */\n    tag_353:\n        /* \"#utility.yul\":13176:13185   */\n      dup1\n      dup3\n      add\n        /* \"#utility.yul\":13197:13207   */\n      dup1\n      dup3\n      gt\n        /* \"#utility.yul\":13194:13230   */\n      iszero\n      tag_160\n      jumpi\n        /* \"#utility.yul\":13210:13228   */\n      tag_160\n      tag_732\n      jump\t// in\n        /* \"#utility.yul\":13241:13376   */\n    tag_366:\n        /* \"#utility.yul\":13280:13283   */\n      0x00\n        /* \"#utility.yul\":13301:13318   */\n      0x01\n      dup3\n      add\n        /* \"#utility.yul\":13298:13341   */\n      tag_857\n      jumpi\n        /* \"#utility.yul\":13321:13339   */\n      tag_857\n      tag_732\n      jump\t// in\n    tag_857:\n      pop\n        /* \"#utility.yul\":13368:13369   */\n      0x01\n        /* \"#utility.yul\":13357:13370   */\n      add\n      swap1\n        /* \"#utility.yul\":13241:13376   */\n      jump\t// out\n        /* \"#utility.yul\":17393:17670   */\n    tag_536:\n        /* \"#utility.yul\":17460:17466   */\n      0x00\n        /* \"#utility.yul\":17513:17515   */\n      0x20\n        /* \"#utility.yul\":17501:17510   */\n      dup3\n        /* \"#utility.yul\":17492:17499   */\n      dup5\n        /* \"#utility.yul\":17488:17511   */\n      sub\n        /* \"#utility.yul\":17484:17516   */\n      slt\n        /* \"#utility.yul\":17481:17533   */\n      iszero\n      tag_871\n      jumpi\n        /* \"#utility.yul\":17529:17530   */\n      0x00\n        /* \"#utility.yul\":17526:17527   */\n      dup1\n        /* \"#utility.yul\":17519:17531   */\n      revert\n        /* \"#utility.yul\":17481:17533   */\n    tag_871:\n        /* \"#utility.yul\":17561:17570   */\n      dup2\n        /* \"#utility.yul\":17555:17571   */\n      mload\n        /* \"#utility.yul\":17614:17619   */\n      dup1\n        /* \"#utility.yul\":17607:17620   */\n      iszero\n        /* \"#utility.yul\":17600:17621   */\n      iszero\n        /* \"#utility.yul\":17593:17598   */\n      dup2\n        /* \"#utility.yul\":17590:17622   */\n      eq\n        /* \"#utility.yul\":17580:17640   */\n      tag_299\n      jumpi\n        /* \"#utility.yul\":17636:17637   */\n      0x00\n        /* \"#utility.yul\":17633:17634   */\n      dup1\n        /* \"#utility.yul\":17626:17638   */\n      revert\n        /* \"#utility.yul\":18331:18943   */\n    tag_553:\n      sub(shl(0xa0, 0x01), 0x01)\n        /* \"#utility.yul\":18641:18647   */\n      dup7\n        /* \"#utility.yul\":18637:18692   */\n      and\n        /* \"#utility.yul\":18626:18635   */\n      dup2\n        /* \"#utility.yul\":18619:18693   */\n      mstore\n        /* \"#utility.yul\":18729:18735   */\n      dup5\n        /* \"#utility.yul\":18724:18726   */\n      0x20\n        /* \"#utility.yul\":18713:18722   */\n      dup3\n        /* \"#utility.yul\":18709:18727   */\n      add\n        /* \"#utility.yul\":18702:18736   */\n      mstore\n        /* \"#utility.yul\":18772:18778   */\n      dup4\n        /* \"#utility.yul\":18767:18769   */\n      0x40\n        /* \"#utility.yul\":18756:18765   */\n      dup3\n        /* \"#utility.yul\":18752:18770   */\n      add\n        /* \"#utility.yul\":18745:18779   */\n      mstore\n        /* \"#utility.yul\":18815:18818   */\n      0xa0\n        /* \"#utility.yul\":18810:18812   */\n      0x60\n        /* \"#utility.yul\":18799:18808   */\n      dup3\n        /* \"#utility.yul\":18795:18813   */\n      add\n        /* \"#utility.yul\":18788:18819   */\n      mstore\n        /* \"#utility.yul\":18600:18604   */\n      0x00\n        /* \"#utility.yul\":18836:18893   */\n      tag_876\n        /* \"#utility.yul\":18888:18891   */\n      0xa0\n        /* \"#utility.yul\":18877:18886   */\n      dup4\n        /* \"#utility.yul\":18873:18892   */\n      add\n        /* \"#utility.yul\":18865:18871   */\n      dup6\n        /* \"#utility.yul\":18836:18893   */\n      tag_729\n      jump\t// in\n    tag_876:\n        /* \"#utility.yul\":18828:18893   */\n      swap1\n      pop\n        /* \"#utility.yul\":18930:18936   */\n      dup3\n        /* \"#utility.yul\":18924:18927   */\n      0x80\n        /* \"#utility.yul\":18913:18922   */\n      dup4\n        /* \"#utility.yul\":18909:18928   */\n      add\n        /* \"#utility.yul\":18902:18937   */\n      mstore\n        /* \"#utility.yul\":18331:18943   */\n      swap7\n      swap6\n      pop\n      pop\n      pop\n      pop\n      pop\n      pop\n      jump\t// out\n        /* \"#utility.yul\":18948:19075   */\n    tag_570:\n        /* \"#utility.yul\":19009:19019   */\n      0x4e487b71\n        /* \"#utility.yul\":19004:19007   */\n      0xe0\n        /* \"#utility.yul\":19000:19020   */\n      shl\n        /* \"#utility.yul\":18997:18998   */\n      0x00\n        /* \"#utility.yul\":18990:19021   */\n      mstore\n        /* \"#utility.yul\":19040:19044   */\n      0x12\n        /* \"#utility.yul\":19037:19038   */\n      0x04\n        /* \"#utility.yul\":19030:19045   */\n      mstore\n        /* \"#utility.yul\":19064:19068   */\n      0x24\n        /* \"#utility.yul\":19061:19062   */\n      0x00\n        /* \"#utility.yul\":19054:19069   */\n      revert\n\n    auxdata: 0xa2646970667358221220808a828528226785bb5f89492fcb043432e9f7d001a52f077fcab638e1aeca0764736f6c63430008190033\n}\n",
    "bytecode": {
      "linkReferences": {},
      "object": "6080604052602a600955348015610014575f80fd5b50604051613a47380380613a4783398101604081905261003391610107565b806001600160a01b03811661006157604051631e4fbdf760e01b81525f600482015260240160405180910390fd5b61006a8161009d565b5050600780546001600160a01b039384166001600160a01b03199182161790915560088054929093169116179055610147565b5f80546001600160a01b038381166001600160a01b0319831681178455604051919092169283917f8be0079c531659141344cd1fd0a4f28419497f9722a3daafe3b4186f6b6457e09190a35050565b80516001600160a01b0381168114610102575f80fd5b919050565b5f805f60608486031215610119575f80fd5b610122846100ec565b9250610130602085016100ec565b915061013e604085016100ec565b90509250925092565b6138f3806101545f395ff3fe608060405234801561000f575f80fd5b50600436106101d1575f3560e01c80638ac40792116100fe578063c50313311161009e578063f23a6e611161006e578063f23a6e61146103e8578063f2fde38b14610408578063f76da1d91461041b578063fc0c546a1461042e575f80fd5b8063c5031331146103a2578063cd6bd6db146103ab578063df7bd8fc146103b8578063e1fc2305146103cb575f80fd5b80638f54f2ae116100d95780638f54f2ae1461032e578063ae92a93d14610341578063bb6f593e14610354578063bc197c8114610367575f80fd5b80638ac40792146102e15780638d0a6cff146102ea5780638da5cb5b1461030a575f80fd5b80634c395cc411610174578063715018a611610144578063715018a6146102b25780638062dd93146102ba5780638364dfef146102cd5780638767d64e146102d8575f80fd5b80634c395cc41461027157806351c6590a1461028457806352fdfecc146102975780635df45a37146102aa575f80fd5b80633ccfd60b116101af5780633ccfd60b1461022b57806340088ee11461023557806346156ea014610256578063476343ee14610269575f80fd5b806301ffc9a7146101d557806310f8625a146101fd57806313faede614610223575b5f80fd5b6101e86101e3366004613239565b505f90565b60405190151581526020015b60405180910390f35b61021061020b366004613276565b610441565b604051600f9190910b81526020016101f4565b6102106104c6565b61023361056c565b005b6102486102433660046132af565b6107c2565b6040519081526020016101f4565b6102106102643660046132e0565b61089f565b61023361094c565b61024861027f36600461330b565b610ab6565b6102336102923660046132e0565b610ae5565b6102106102a53660046133b6565b610c94565b610248610cb9565b610233610d6b565b6102106102c83660046133b6565b610d7e565b600354600f0b610210565b61024860015481565b61024860095481565b6102fd6102f83660046132e0565b610f3d565b6040516101f49190613411565b5f546001600160a01b03165b6040516001600160a01b0390911681526020016101f4565b61023361033c366004613423565b611035565b61021061034f3660046133b6565b6113b1565b6102106103623660046132e0565b6118f1565b6103896103753660046134e7565b63bc197c8160e01b98975050505050505050565b6040516001600160e01b031990911681526020016101f4565b61024860065481565b60055461021090600f0b81565b6102106103c63660046133b6565b61197e565b6103d361199a565b604080519283526020830191909152016101f4565b6103896103f636600461359a565b63f23a6e6160e01b9695505050505050565b61023361041636600461360d565b611a2f565b6102106104293660046133b6565b611a69565b600854610316906001600160a01b031681565b5f80836001600160a01b031663313ce5676040518163ffffffff1660e01b8152600401602060405180830381865afa15801561047f573d5f803e3d5ffd5b505050506040513d601f19601f820116820180604052508101906104a39190613626565b60ff1690506104bc836104b783600a61373a565b612127565b9150505b92915050565b6008545f90600160a01b900460ff1615156001146104e2575f80fd5b5f805b60015481101561054d576105438261053e6105396002858154811061050c5761050c613745565b5f918252602090912060028204015460035460019092166010026101000a9004600f90810b91900b61215c565b6121b8565b61220f565b91506001016104e5565b5060035461056690600f0b61056183612249565b612281565b91505090565b600854600160a01b900460ff161515600114610586575f80fd5b61058e6122be565b60075460065460405163dd34de6760e01b81526001600160a01b039092169163dd34de67916105c39160040190815260200190565b602060405180830381865afa1580156105de573d5f803e3d5ffd5b505050506040513d601f19601f820116820180604052508101906106029190613759565b5f036106555760405162461bcd60e51b815260206004820152601b60248201527f4d61726b6574206e6565647320746f206265207265736f6c766564000000000060448201526064015b60405180910390fd5b5f60015467ffffffffffffffff811115610671576106716132f7565b60405190808252806020026020018201604052801561069a578160200160208202803683370190505b5090505f5b6001548110156106d357806001901b8282815181106106c0576106c0613745565b602090810291909101015260010161069f565b50600754600854600654604051626dc0df60e21b81526001600160a01b03938416936301b7037c9361070f939116915f91908790600401613770565b5f604051808303815f87803b158015610726575f80fd5b505af1158015610738573d5f803e3d5ffd5b50506008546040516370a0823160e01b81523060048201526107bf93503392506001600160a01b03909116906370a0823190602401602060405180830381865afa158015610788573d5f803e3d5ffd5b505050506040513d601f19601f820116820180604052508101906107ac9190613759565b6008546001600160a01b031691906122ea565b50565b5f80836001600160a01b031663313ce5676040518163ffffffff1660e01b8152600401602060405180830381865afa158015610800573d5f803e3d5ffd5b505050506040513d601f19601f820116820180604052508101906108249190613626565b60ff1690505f61083582600a61373a565b90505f84600f0b121561088a5760405162461bcd60e51b815260206004820152601b60248201527f416d6f756e74206d757374206265206e6f6e2d6e656761746976650000000000604482015260640161064c565b5f6108958583612363565b9695505050505050565b5f60015482106108e95760405162461bcd60e51b8152602060048201526015602482015274092dcecc2d8d2c840deeae8c6dedaca40d2dcc8caf605b1b604482015260640161064c565b5f6109036105396002858154811061050c5761050c613745565b90505f805b6001548110156109395761092f8261053e6105396002858154811061050c5761050c613745565b9150600101610908565b50610944828261215c565b949350505050565b6109546122be565b6008546040516370a0823160e01b81523060048201525f916001600160a01b0316906370a0823190602401602060405180830381865afa15801561099a573d5f803e3d5ffd5b505050506040513d601f19601f820116820180604052508101906109be9190613759565b6008546004549192505f916109df916001600160a01b031690600f0b6107c2565b9050808211610a305760405162461bcd60e51b815260206004820152601360248201527f4e6f206665657320746f20776974686472617700000000000000000000000000604482015260640161064c565b5f610a3b828461379d565b9050610a64610a515f546001600160a01b031690565b6008546001600160a01b031690836122ea565b5f546001600160a01b03166001600160a01b03167fc0819c13be868895eb93e40eaceb96de976442fa1d404e5c55f14bb65a8c489a82604051610aa991815260200190565b60405180910390a2505050565b5f81604051602001610ac891906137b0565b604051602081830303815290604052805190602001209050919050565b610aed6122be565b600854610b05906001600160a01b03163330846123d8565b6008545f90610b1d906001600160a01b031683610441565b90505f5b600154811015610bb657610b6860028281548110610b4157610b41613745565b905f5260205f2090600291828204019190066010029054906101000a9004600f0b8361220f565b60028281548110610b7b57610b7b613745565b5f9182526020909120600282040180546001600160801b0393841660106001948516026101000a908102940219169290921790915501610b21565b50610bd9600460109054906101000a9004600f0b61053e83610561600154612417565b600480546001600160801b03908116600160801b9390911683021790819055600354610c139291829004600f90810b92909104900b612281565b600380546001600160801b0319166001600160801b0392909216919091179055610c3b6104c6565b600480546001600160801b0319166001600160801b039290921691909117905560405182815233907fc17cea59c2955cb181b03393209566960365771dbba9dc3d510180e7cb3120889060200160405180910390a25050565b5f610ca2836102c8846137c6565b600454610cb29190600f0b6137ea565b9392505050565b6008546040516370a0823160e01b81523060048201525f9182916001600160a01b03909116906370a0823190602401602060405180830381865afa158015610d03573d5f803e3d5ffd5b505050506040513d601f19601f82011682018060405250810190610d279190613759565b6008546004549192505f91610d48916001600160a01b031690600f0b6107c2565b905080821115610d6357610d5c818361379d565b9250505090565b5f9250505090565b610d736122be565b610d7c5f612433565b565b5f805f60028054905067ffffffffffffffff811115610d9f57610d9f6132f7565b604051908082528060200260200182016040528015610dc8578160200160208202803683370190505b50600454909150600160801b9004600f0b5f5b600154811015610ec7576001811b871615610e6457610e2d60028281548110610e0657610e06613745565b905f5260205f2090600291828204019190066010029054906101000a9004600f0b8761220f565b838281518110610e3f57610e3f613745565b6020026020010190600f0b9081600f0b81525050610e5d828761220f565b9150610ebf565b60028181548110610e7757610e77613745565b905f5260205f2090600291828204019190066010029054906101000a9004600f0b838281518110610eaa57610eaa613745565b6020026020010190600f0b9081600f0b815250505b600101610ddb565b506003545f90610ee2908390600160801b9004600f0b612281565b90505f5b600154811015610f2457610f1a8561053e610539878581518110610f0c57610f0c613745565b60200260200101518661215c565b9450600101610ee6565b50610f328161056186612249565b979650505050505050565b60605f600180546001901b610f52919061379d565b90506001831b81185f610f648261249a565b610f6f906001613820565b67ffffffffffffffff811115610f8757610f876132f7565b604051908082528060200260200182016040528015610fb0578160200160208202803683370190505b5090505f60019050856001901b825f81518110610fcf57610fcf613745565b6020026020010181815250505f5b60015481101561102a576001811b84161561102257806001901b83838151811061100957611009613745565b60209081029190910101528161101e81613833565b9250505b600101610fdd565b509095945050505050565b61103d6122be565b600854600160a01b900460ff16156110975760405162461bcd60e51b815260206004820152600c60248201527f416c726561647920696e69740000000000000000000000000000000000000000604482015260640161064c565b5f81116110e65760405162461bcd60e51b815260206004820152601760248201527f43616e6e6f7420686176652030206f766572726f756e64000000000000000000604482015260640161064c565b60075460405163365bb9d560e21b81526001600160a01b03878116600483015260248201879052604482018690529091169063d96ee754906064015f604051808303815f87803b158015611138575f80fd5b505af115801561114a573d5f803e3d5ffd5b5050600754604051634296357160e11b81526001600160a01b0389811660048301526024820189905260448201889052909116925063852c6ae29150606401602060405180830381865afa1580156111a4573d5f803e3d5ffd5b505050506040513d601f19601f820116820180604052508101906111c89190613759565b6006556008546111e3906001600160a01b03163330856123d8565b60018390555f6111f284612417565b60085490915061120b906001600160a01b031684610441565b600580546001600160801b0319166001600160801b03929092169190911790555f61123883612710612127565b90506112508161124b8461056186612249565b61215c565b600380546001600160801b03928316600160801b0292169190911790556005546112939061128190600f0b84612281565b600354600160801b9004600f0b612281565b600380546001600160801b0319166001600160801b03929092169190911790555f5b858110156113245760055460028054600180820183555f8390527f405787fa12a823e0f2b7631cc41b3ba8828b3321ca811111fa75cd3aa3bb5ace9282049290920180549183166010026101000a6001600160801b0381810219909316929094169390930217909155016112b5565b50600880547fffffffffffffffffffffff00ffffffffffffffffffffffffffffffffffffffff16600160a01b17905560055461136390600f0b83612281565b600480546001600160801b03928316600160801b0292169190911790556113886104c6565b600480546001600160801b0319166001600160801b039290921691909117905550505050505050565b6008545f90600160a01b900460ff1615156001146113cd575f80fd5b60015483106114165760405162461bcd60e51b8152602060048201526015602482015274092dcecc2d8d2c840deeae8c6dedaca40d2dcc8caf605b1b604482015260640161064c565b5f82600f0b136114685760405162461bcd60e51b815260206004820152601760248201527f416d6f756e74206d75737420626520706f736974697665000000000000000000604482015260640161064c565b60075460065460405163dd34de6760e01b81526001600160a01b039092169163dd34de679161149d9160040190815260200190565b602060405180830381865afa1580156114b8573d5f803e3d5ffd5b505050506040513d601f19601f820116820180604052508101906114dc9190613759565b156115295760405162461bcd60e51b815260206004820152601760248201527f4d61726b657420616c7265616479207265736f6c766564000000000000000000604482015260640161064c565b81600f0b6002848154811061154057611540613745565b5f918252602090912060028204015460019091166010026101000a9004600f0b12156115ae5760405162461bcd60e51b815260206004820152601960248201527f4e6f7420656e6f7567682073686172657320746f2073656c6c00000000000000604482015260640161064c565b6115eb600284815481106115c4576115c4613745565b905f5260205f2090600291828204019190066010029054906101000a9004600f0b836124c8565b600284815481106115fe576115fe613745565b905f5260205f2090600291828204019190066010026101000a8154816001600160801b030219169083600f0b6001600160801b03160217905550611651600460109054906101000a9004600f0b836124c8565b600480546001600160801b03908116600160801b939091168302179081905560035461168b9291829004600f90810b92909104900b612281565b600380546001600160801b0319166001600160801b03929092169190911790555f805b6001548110156116df576116d58261053e6105396002858154811061050c5761050c613745565b91506001016116ae565b506003545f906116f590600f0b61056184612249565b60045490915061170890600f0b826124c8565b600480546001600160801b0319166001600160801b0384161790556008549093505f9061173e906001600160a01b0316866107c2565b60075460085460065460405163856296f760e01b81525f60048201819052602482019290925260018b1b6044820152939450926001600160a01b03928316926339dd7530921690839063856296f790606401602060405180830381865afa1580156117ab573d5f803e3d5ffd5b505050506040513d601f19601f820116820180604052508101906117cf9190613759565b6040516001600160e01b031960e085901b1681526001600160a01b0390921660048301526024820152604401602060405180830381865afa158015611816573d5f803e3d5ffd5b505050506040513d601f19601f8201168201806040525081019061183a9190613759565b600754604051637921219560e11b8152336004820152306024820152604481018390526064810185905260a060848201525f60a48201529192506001600160a01b03169063f242432a9060c4015f604051808303815f87803b15801561189e575f80fd5b505af11580156118b0573d5f803e3d5ffd5b50506008545f92506118cc91506001600160a01b0316876107c2565b6008549091506118e6906001600160a01b031633836122ea565b505050505092915050565b5f600154821061193b5760405162461bcd60e51b8152602060048201526015602482015274092dcecc2d8d2c840deeae8c6dedaca40d2dcc8caf605b1b604482015260640161064c565b6104c06002838154811061195157611951613745565b5f918252602090912060028204015460055460019092166010026101000a9004600f90810b91900b6124c8565b6004545f90600f0b6119908484610d7e565b610cb291906137ea565b6008546040516370a0823160e01b81523060048201525f9182916001600160a01b03909116906370a0823190602401602060405180830381865afa1580156119e4573d5f803e3d5ffd5b505050506040513d601f19601f82011682018060405250810190611a089190613759565b600854600454919350611a29916001600160a01b0390911690600f0b6107c2565b90509091565b611a376122be565b6001600160a01b038116611a6057604051631e4fbdf760e01b81525f600482015260240161064c565b6107bf81612433565b6008545f90600160a01b900460ff161515600114611a85575f80fd5b6001548310611ace5760405162461bcd60e51b8152602060048201526015602482015274092dcecc2d8d2c840deeae8c6dedaca40d2dcc8caf605b1b604482015260640161064c565b5f82600f0b13611b205760405162461bcd60e51b815260206004820152601760248201527f416d6f756e74206d75737420626520706f736974697665000000000000000000604482015260640161064c565b60075460065460405163dd34de6760e01b81526001600160a01b039092169163dd34de6791611b559160040190815260200190565b602060405180830381865afa158015611b70573d5f803e3d5ffd5b505050506040513d601f19601f82011682018060405250810190611b949190613759565b15611be15760405162461bcd60e51b815260206004820152601760248201527f4d61726b657420616c7265616479207265736f6c766564000000000000000000604482015260640161064c565b611bf760028481548110610b4157610b41613745565b60028481548110611c0a57611c0a613745565b905f5260205f2090600291828204019190066010026101000a8154816001600160801b030219169083600f0b6001600160801b03160217905550611c5d600460109054906101000a9004600f0b8361220f565b600480546001600160801b03908116600160801b9390911683021790819055600354611c979291829004600f90810b92909104900b612281565b600380546001600160801b0319166001600160801b03929092169190911790555f805b600154811015611ceb57611ce18261053e6105396002858154811061050c5761050c613745565b9150600101611cba565b506003545f90611d0190600f0b61056184612249565b600454909150611d15908290600f0b6124c8565b600480546001600160801b0319166001600160801b0384161790556008549093505f90611d4b906001600160a01b0316856107c2565b6008549091505f90611d66906001600160a01b0316876107c2565b60075460085460065460405163856296f760e01b81525f60048201819052602482019290925260018c1b6044820152939450926001600160a01b03928316926339dd7530921690839063856296f790606401602060405180830381865afa158015611dd3573d5f803e3d5ffd5b505050506040513d601f19601f82011682018060405250810190611df79190613759565b6040516001600160e01b031960e085901b1681526001600160a01b0390921660048301526024820152604401602060405180830381865afa158015611e3e573d5f803e3d5ffd5b505050506040513d601f19601f82011682018060405250810190611e629190613759565b6008546040516323b872dd60e01b8152336004820152306024820152604481018690529192506001600160a01b0316906323b872dd906064016020604051808303815f875af1158015611eb7573d5f803e3d5ffd5b505050506040513d601f19601f82011682018060405250810190611edb919061384b565b611f275760405162461bcd60e51b815260206004820152601960248201527f4572726f72207472616e7366657272696e6720746f6b656e7300000000000000604482015260640161064c565b600754604051627eeac760e11b81523060048201526024810183905283916001600160a01b03169062fdd58e90604401602060405180830381865afa158015611f72573d5f803e3d5ffd5b505050506040513d601f19601f82011682018060405250810190611f969190613759565b10156120a3576008546007546001600160a01b039182169163095ea7b39116611fbf838b6107c2565b6040516001600160e01b031960e085901b1681526001600160a01b03909216600483015260248201526044016020604051808303815f875af1158015612007573d5f803e3d5ffd5b505050506040513d601f19601f8201168201806040525081019061202b919061384b565b506007546008546006546001600160a01b03928316926372ce42759216905f906120548d610f3d565b876040518663ffffffff1660e01b815260040161207595949392919061386a565b5f604051808303815f87803b15801561208c575f80fd5b505af115801561209e573d5f803e3d5ffd5b505050505b600754604051637921219560e11b8152306004820152336024820152604481018390526064810184905260a060848201525f60a48201526001600160a01b039091169063f242432a9060c4015f604051808303815f87803b158015612106575f80fd5b505af1158015612118573d5f803e3d5ffd5b50505050505050505092915050565b5f815f03612133575f80fd5b5f61213e8484612502565b905060016001607f1b036001600160801b0382161115610cb2575f80fd5b5f81600f0b5f0361216b575f80fd5b5f82600f0b604085600f0b901b81612185576121856138a9565b0590506f7fffffffffffffffffffffffffffffff1981128015906121b0575060016001607f1b038113155b610cb2575f80fd5b5f6840000000000000000082600f0b126121d0575f80fd5b683fffffffffffffffff1982600f0b12156121ec57505f919050565b6104c0608083600f0b700171547652b82fe1777d0ffda0d23a7d1202901d612672565b5f600f83810b9083900b016f7fffffffffffffffffffffffffffffff1981128015906121b0575060016001607f1b03811315610cb2575f80fd5b5f8082600f0b13612258575f80fd5b6080612263836130f8565b600f0b6fb17217f7d1cf79abc9e3b39803f2f6af02901c9050919050565b5f600f83810b9083900b0260401d6f7fffffffffffffffffffffffffffffff1981128015906121b0575060016001607f1b03811315610cb2575f80fd5b5f546001600160a01b03163314610d7c5760405163118cdaa760e01b815233600482015260240161064c565b6040516001600160a01b0383811660248301526044820183905261235e91859182169063a9059cbb906064015b604051602081830303815290604052915060e01b6020820180517bffffffffffffffffffffffffffffffffffffffffffffffffffffffff83818316178352505050506131cd565b505050565b5f815f0361237257505f6104c0565b5f83600f0b1215612381575f80fd5b600f83900b6001600160801b038316810260401c90608084901c0277ffffffffffffffffffffffffffffffffffffffffffffffff8111156123c0575f80fd5b60401b81198111156123d0575f80fd5b019392505050565b6040516001600160a01b0384811660248301528381166044830152606482018390526124119186918216906323b872dd90608401612317565b50505050565b5f677fffffffffffffff82111561242c575f80fd5b5060401b90565b5f80546001600160a01b038381167fffffffffffffffffffffffff0000000000000000000000000000000000000000831681178455604051919092169283917f8be0079c531659141344cd1fd0a4f28419497f9722a3daafe3b4186f6b6457e09190a35050565b5f5b81156124c3576124ad60018361379d565b90911690806124bb81613833565b91505061249c565b919050565b5f600f82810b9084900b036f7fffffffffffffffffffffffffffffff1981128015906121b0575060016001607f1b03811315610cb2575f80fd5b5f815f0361250e575f80fd5b5f77ffffffffffffffffffffffffffffffffffffffffffffffff84116125495782604085901b81612541576125416138a9565b04905061265f565b60c084811c6401000000008110612562576020918201911c5b620100008110612574576010918201911c5b6101008110612585576008918201911c5b60108110612595576004918201911c5b600481106125a5576002918201911c5b600281106125b4576001820191505b60bf820360018603901c6001018260ff0387901b816125d5576125d56138a9565b0492506001600160801b038311156125eb575f80fd5b608085901c83026001600160801b038616840260c088901c604089901b82811015612617576001820391505b608084901b9290038281101561262e576001820391505b829003608084901c8214612643576001612654565b888181612652576126526138a9565b045b870196505050505050505b6001600160801b03811115610cb2575f80fd5b5f6840000000000000000082600f0b1261268a575f80fd5b683fffffffffffffffff1982600f0b12156126a657505f919050565b6f800000000000000000000000000000005f6780000000000000008416600f0b13156126e35770016a09e667f3bcc908b2fb1366ea957d3e0260801c5b5f8367400000000000000016600f0b131561270f577001306fe0a31b7152de8d5a46305c85edec0260801c5b5f8367200000000000000016600f0b131561273b577001172b83c7d517adcdf7c8c50eb14a791f0260801c5b5f8367100000000000000016600f0b13156127675770010b5586cf9890f6298b92b71842a983630260801c5b5f8367080000000000000016600f0b1315612793577001059b0d31585743ae7c548eb68ca417fd0260801c5b5f8367040000000000000016600f0b13156127bf57700102c9a3e778060ee6f7caca4f7a29bde80260801c5b5f8367020000000000000016600f0b13156127eb5770010163da9fb33356d84a66ae336dcdfa3f0260801c5b5f8367010000000000000016600f0b131561281757700100b1afa5abcbed6129ab13ec11dc95430260801c5b5f83668000000000000016600f0b13156128425770010058c86da1c09ea1ff19d294cf2f679b0260801c5b5f83664000000000000016600f0b131561286d577001002c605e2e8cec506d21bfc89a23a00f0260801c5b5f83662000000000000016600f0b131561289857700100162f3904051fa128bca9c55c31e5df0260801c5b5f83661000000000000016600f0b13156128c3577001000b175effdc76ba38e31671ca9397250260801c5b5f83660800000000000016600f0b13156128ee57700100058ba01fb9f96d6cacd4b180917c3d0260801c5b5f83660400000000000016600f0b13156129195770010002c5cc37da9491d0985c348c68e7b30260801c5b5f83660200000000000016600f0b1315612944577001000162e525ee054754457d59952920260260801c5b5f83660100000000000016600f0b131561296f5770010000b17255775c040618bf4a4ade83fc0260801c5b5f836580000000000016600f0b1315612999577001000058b91b5bc9ae2eed81e9b7d4cfab0260801c5b5f836540000000000016600f0b13156129c357700100002c5c89d5ec6ca4d7c8acc017b7c90260801c5b5f836520000000000016600f0b13156129ed5770010000162e43f4f831060e02d839a9d16d0260801c5b5f836510000000000016600f0b1315612a1757700100000b1721bcfc99d9f890ea069117630260801c5b5f836508000000000016600f0b1315612a415770010000058b90cf1e6d97f9ca14dbcc16280260801c5b5f836504000000000016600f0b1315612a6b577001000002c5c863b73f016468f6bac5ca2b0260801c5b5f836502000000000016600f0b1315612a9557700100000162e430e5a18f6119e3c02282a50260801c5b5f836501000000000016600f0b1315612abf577001000000b1721835514b86e6d96efd1bfe0260801c5b5f8364800000000016600f0b1315612ae857700100000058b90c0b48c6be5df846c5b2ef0260801c5b5f8364400000000016600f0b1315612b115770010000002c5c8601cc6b9e94213c72737a0260801c5b5f8364200000000016600f0b1315612b3a577001000000162e42fff037df38aa2b219f060260801c5b5f8364100000000016600f0b1315612b635770010000000b17217fba9c739aa5819f44f90260801c5b5f8364080000000016600f0b1315612b8c577001000000058b90bfcdee5acd3c1cedc8230260801c5b5f8364040000000016600f0b1315612bb557700100000002c5c85fe31f35a6a30da1be500260801c5b5f8364020000000016600f0b1315612bde5770010000000162e42ff0999ce3541b9fffcf0260801c5b5f8364010000000016600f0b1315612c0757700100000000b17217f80f4ef5aadda455540260801c5b5f83638000000016600f0b1315612c2f5770010000000058b90bfbf8479bd5a81b51ad0260801c5b5f83634000000016600f0b1315612c57577001000000002c5c85fdf84bd62ae30a74cc0260801c5b5f83632000000016600f0b1315612c7f57700100000000162e42fefb2fed257559bdaa0260801c5b5f83631000000016600f0b1315612ca7577001000000000b17217f7d5a7716bba4a9ae0260801c5b5f83630800000016600f0b1315612ccf57700100000000058b90bfbe9ddbac5e109cce0260801c5b5f83630400000016600f0b1315612cf75770010000000002c5c85fdf4b15de6f17eb0d0260801c5b5f83630200000016600f0b1315612d1f577001000000000162e42fefa494f1478fde050260801c5b5f83630100000016600f0b1315612d475770010000000000b17217f7d20cf927c8e94c0260801c5b5f836280000016600f0b1315612d6e577001000000000058b90bfbe8f71cb4e4b33d0260801c5b5f836240000016600f0b1315612d9557700100000000002c5c85fdf477b662b269450260801c5b5f836220000016600f0b1315612dbc5770010000000000162e42fefa3ae53369388c0260801c5b5f836210000016600f0b1315612de357700100000000000b17217f7d1d351a389d400260801c5b5f836208000016600f0b1315612e0a5770010000000000058b90bfbe8e8b2d3d4ede0260801c5b5f836204000016600f0b1315612e31577001000000000002c5c85fdf4741bea6e77e0260801c5b5f836202000016600f0b1315612e5857700100000000000162e42fefa39fe95583c20260801c5b5f836201000016600f0b1315612e7f577001000000000000b17217f7d1cfb72b45e10260801c5b5f8361800016600f0b1315612ea557700100000000000058b90bfbe8e7cc35c3f00260801c5b5f8361400016600f0b1315612ecb5770010000000000002c5c85fdf473e242ea380260801c5b5f8361200016600f0b1315612ef1577001000000000000162e42fefa39f02b772c0260801c5b5f8361100016600f0b1315612f175770010000000000000b17217f7d1cf7d83c1a0260801c5b5f8361080016600f0b1315612f3d577001000000000000058b90bfbe8e7bdcbe2e0260801c5b5f8361040016600f0b1315612f6357700100000000000002c5c85fdf473dea871f0260801c5b5f8361020016600f0b1315612f895770010000000000000162e42fefa39ef44d910260801c5b5f8361010016600f0b1315612faf57700100000000000000b17217f7d1cf79e9490260801c5b5f83608016600f0b1315612fd45770010000000000000058b90bfbe8e7bce5440260801c5b5f83604016600f0b1315612ff9577001000000000000002c5c85fdf473de6eca0260801c5b5f83602016600f0b131561301e57700100000000000000162e42fefa39ef366f0260801c5b5f83601016600f0b1315613043577001000000000000000b17217f7d1cf79afa0260801c5b5f83600816600f0b131561306857700100000000000000058b90bfbe8e7bcd6d0260801c5b5f83600416600f0b131561308d5770010000000000000002c5c85fdf473de6b20260801c5b5f83600216600f0b13156130b2577001000000000000000162e42fefa39ef3580260801c5b5f83600116600f0b13156130d75770010000000000000000b17217f7d1cf79ab0260801c5b600f83810b60401d603f03900b1c60016001607f1b038111156104c0575f80fd5b5f8082600f0b13613107575f80fd5b5f600f83900b680100000000000000008112613125576040918201911d5b6401000000008112613139576020918201911d5b62010000811261314b576010918201911d5b610100811261315c576008918201911d5b6010811261316c576004918201911d5b6004811261317c576002918201911d5b6002811261318b576001820191505b603f19820160401b600f85900b607f8490031b6780000000000000005b5f81131561102a5790800260ff81901c8281029390930192607f011c9060011d6131a8565b5f8060205f8451602086015f885af1806131ec576040513d5f823e3d81fd5b50505f513d91508115613203578060011415613210565b6001600160a01b0384163b155b1561241157604051635274afe760e01b81526001600160a01b038516600482015260240161064c565b5f60208284031215613249575f80fd5b81356001600160e01b031981168114610cb2575f80fd5b80356001600160a01b03811681146124c3575f80fd5b5f8060408385031215613287575f80fd5b61329083613260565b946020939093013593505050565b8035600f81900b81146124c3575f80fd5b5f80604083850312156132c0575f80fd5b6132c983613260565b91506132d76020840161329e565b90509250929050565b5f602082840312156132f0575f80fd5b5035919050565b634e487b7160e01b5f52604160045260245ffd5b5f6020828403121561331b575f80fd5b813567ffffffffffffffff80821115613332575f80fd5b818401915084601f830112613345575f80fd5b813581811115613357576133576132f7565b604051601f8201601f19908116603f0116810190838211818310171561337f5761337f6132f7565b81604052828152876020848701011115613397575f80fd5b826020860160208301375f928101602001929092525095945050505050565b5f80604083850312156133c7575f80fd5b823591506132d76020840161329e565b5f815180845260208085019450602084015f5b83811015613406578151875295820195908201906001016133ea565b509495945050505050565b602081525f610cb260208301846133d7565b5f805f805f60a08688031215613437575f80fd5b61344086613260565b97602087013597506040870135966060810135965060800135945092505050565b5f8083601f840112613471575f80fd5b50813567ffffffffffffffff811115613488575f80fd5b6020830191508360208260051b85010111156134a2575f80fd5b9250929050565b5f8083601f8401126134b9575f80fd5b50813567ffffffffffffffff8111156134d0575f80fd5b6020830191508360208285010111156134a2575f80fd5b5f805f805f805f8060a0898b0312156134fe575f80fd5b61350789613260565b975061351560208a01613260565b9650604089013567ffffffffffffffff80821115613531575f80fd5b61353d8c838d01613461565b909850965060608b0135915080821115613555575f80fd5b6135618c838d01613461565b909650945060808b0135915080821115613579575f80fd5b506135868b828c016134a9565b999c989b5096995094979396929594505050565b5f805f805f8060a087890312156135af575f80fd5b6135b887613260565b95506135c660208801613260565b94506040870135935060608701359250608087013567ffffffffffffffff8111156135ef575f80fd5b6135fb89828a016134a9565b979a9699509497509295939492505050565b5f6020828403121561361d575f80fd5b610cb282613260565b5f60208284031215613636575f80fd5b815160ff81168114610cb2575f80fd5b634e487b7160e01b5f52601160045260245ffd5b600181815b8085111561369457815f190482111561367a5761367a613646565b8085161561368757918102915b93841c939080029061365f565b509250929050565b5f826136aa575060016104c0565b816136b657505f6104c0565b81600181146136cc57600281146136d6576136f2565b60019150506104c0565b60ff8411156136e7576136e7613646565b50506001821b6104c0565b5060208310610133831016604e8410600b8410161715613715575081810a6104c0565b61371f838361365a565b805f190482111561373257613732613646565b029392505050565b5f610cb2838361369c565b634e487b7160e01b5f52603260045260245ffd5b5f60208284031215613769575f80fd5b5051919050565b6001600160a01b0385168152836020820152826040820152608060608201525f61089560808301846133d7565b818103818111156104c0576104c0613646565b5f82518060208501845e5f920191825250919050565b5f81600f0b60016001607f1b031981036137e2576137e2613646565b5f0392915050565b600f82810b9082900b036f7fffffffffffffffffffffffffffffff19811260016001607f1b03821317156104c0576104c0613646565b808201808211156104c0576104c0613646565b5f6001820161384457613844613646565b5060010190565b5f6020828403121561385b575f80fd5b81518015158114610cb2575f80fd5b6001600160a01b038616815284602082015283604082015260a060608201525f61389760a08301856133d7565b90508260808301529695505050505050565b634e487b7160e01b5f52601260045260245ffdfea2646970667358221220808a828528226785bb5f89492fcb043432e9f7d001a52f077fcab638e1aeca0764736f6c63430008190033",
      "opcodes": "PUSH1 0x80 PUSH1 0x40 MSTORE PUSH1 0x2A PUSH1 0x9 SSTORE CALLVALUE DUP1 ISZERO PUSH2 0x14 JUMPI PUSH0 DUP1 REVERT JUMPDEST POP PUSH1 0x40 MLOAD PUSH2 0x3A47 CODESIZE SUB DUP1 PUSH2 0x3A47 DUP4 CODECOPY DUP2 ADD PUSH1 0x40 DUP2 SWAP1 MSTORE PUSH2 0x33 SWAP2 PUSH2 0x107 JUMP JUMPDEST DUP1 PUSH1 0x1 PUSH1 0x1 PUSH1 0xA0 SHL SUB DUP2 AND PUSH2 0x61 JUMPI PUSH1 0x40 MLOAD PUSH4 0x1E4FBDF7 PUSH1 0xE0 SHL DUP2 MSTORE PUSH0 PUSH1 0x4 DUP3 ADD MSTORE PUSH1 0x24 ADD PUSH1 0x40 MLOAD DUP1 SWAP2 SUB SWAP1 REVERT JUMPDEST PUSH2 0x6A DUP2 PUSH2 0x9D JUMP JUMPDEST POP POP PUSH1 0x7 DUP1 SLOAD PUSH1 0x1 PUSH1 0x1 PUSH1 0xA0 SHL SUB SWAP4 DUP5 AND PUSH1 0x1 PUSH1 0x1 PUSH1 0xA0 SHL SUB NOT SWAP2 DUP3 AND OR SWAP1 SWAP2 SSTORE PUSH1 0x8 DUP1 SLOAD SWAP3 SWAP1 SWAP4 AND SWAP2 AND OR SWAP1 SSTORE PUSH2 0x147 JUMP JUMPDEST PUSH0 DUP1 SLOAD PUSH1 0x1 PUSH1 0x1 PUSH1 0xA0 SHL SUB DUP4 DUP2 AND PUSH1 0x1 PUSH1 0x1 PUSH1 0xA0 SHL SUB NOT DUP4 AND DUP2 OR DUP5 SSTORE PUSH1 0x40 MLOAD SWAP2 SWAP1 SWAP3 AND SWAP3 DUP4 SWAP2 PUSH32 0x8BE0079C531659141344CD1FD0A4F28419497F9722A3DAAFE3B4186F6B6457E0 SWAP2 SWAP1 LOG3 POP POP JUMP JUMPDEST DUP1 MLOAD PUSH1 0x1 PUSH1 0x1 PUSH1 0xA0 SHL SUB DUP2 AND DUP2 EQ PUSH2 0x102 JUMPI PUSH0 DUP1 REVERT JUMPDEST SWAP2 SWAP1 POP JUMP JUMPDEST PUSH0 DUP1 PUSH0 PUSH1 0x60 DUP5 DUP7 SUB SLT ISZERO PUSH2 0x119 JUMPI PUSH0 DUP1 REVERT JUMPDEST PUSH2 0x122 DUP5 PUSH2 0xEC JUMP JUMPDEST SWAP3 POP PUSH2 0x130 PUSH1 0x20 DUP6 ADD PUSH2 0xEC JUMP JUMPDEST SWAP2 POP PUSH2 0x13E PUSH1 0x40 DUP6 ADD PUSH2 0xEC JUMP JUMPDEST SWAP1 POP SWAP3 POP SWAP3 POP SWAP3 JUMP JUMPDEST PUSH2 0x38F3 DUP1 PUSH2 0x154 PUSH0 CODECOPY PUSH0 RETURN INVALID PUSH1 0x80 PUSH1 0x40 MSTORE CALLVALUE DUP1 ISZERO PUSH2 0xF JUMPI PUSH0 DUP1 REVERT JUMPDEST POP PUSH1 0x4 CALLDATASIZE LT PUSH2 0x1D1 JUMPI PUSH0 CALLDATALOAD PUSH1 0xE0 SHR DUP1 PUSH4 0x8AC40792 GT PUSH2 0xFE JUMPI DUP1 PUSH4 0xC5031331 GT PUSH2 0x9E JUMPI DUP1 PUSH4 0xF23A6E61 GT PUSH2 0x6E JUMPI DUP1 PUSH4 0xF23A6E61 EQ PUSH2 0x3E8 JUMPI DUP1 PUSH4 0xF2FDE38B EQ PUSH2 0x408 JUMPI DUP1 PUSH4 0xF76DA1D9 EQ PUSH2 0x41B JUMPI DUP1 PUSH4 0xFC0C546A EQ PUSH2 0x42E JUMPI PUSH0 DUP1 REVERT JUMPDEST DUP1 PUSH4 0xC5031331 EQ PUSH2 0x3A2 JUMPI DUP1 PUSH4 0xCD6BD6DB EQ PUSH2 0x3AB JUMPI DUP1 PUSH4 0xDF7BD8FC EQ PUSH2 0x3B8 JUMPI DUP1 PUSH4 0xE1FC2305 EQ PUSH2 0x3CB JUMPI PUSH0 DUP1 REVERT JUMPDEST DUP1 PUSH4 0x8F54F2AE GT PUSH2 0xD9 JUMPI DUP1 PUSH4 0x8F54F2AE EQ PUSH2 0x32E JUMPI DUP1 PUSH4 0xAE92A93D EQ PUSH2 0x341 JUMPI DUP1 PUSH4 0xBB6F593E EQ PUSH2 0x354 JUMPI DUP1 PUSH4 0xBC197C81 EQ PUSH2 0x367 JUMPI PUSH0 DUP1 REVERT JUMPDEST DUP1 PUSH4 0x8AC40792 EQ PUSH2 0x2E1 JUMPI DUP1 PUSH4 0x8D0A6CFF EQ PUSH2 0x2EA JUMPI DUP1 PUSH4 0x8DA5CB5B EQ PUSH2 0x30A JUMPI PUSH0 DUP1 REVERT JUMPDEST DUP1 PUSH4 0x4C395CC4 GT PUSH2 0x174 JUMPI DUP1 PUSH4 0x715018A6 GT PUSH2 0x144 JUMPI DUP1 PUSH4 0x715018A6 EQ PUSH2 0x2B2 JUMPI DUP1 PUSH4 0x8062DD93 EQ PUSH2 0x2BA JUMPI DUP1 PUSH4 0x8364DFEF EQ PUSH2 0x2CD JUMPI DUP1 PUSH4 0x8767D64E EQ PUSH2 0x2D8 JUMPI PUSH0 DUP1 REVERT JUMPDEST DUP1 PUSH4 0x4C395CC4 EQ PUSH2 0x271 JUMPI DUP1 PUSH4 0x51C6590A EQ PUSH2 0x284 JUMPI DUP1 PUSH4 0x52FDFECC EQ PUSH2 0x297 JUMPI DUP1 PUSH4 0x5DF45A37 EQ PUSH2 0x2AA JUMPI PUSH0 DUP1 REVERT JUMPDEST DUP1 PUSH4 0x3CCFD60B GT PUSH2 0x1AF JUMPI DUP1 PUSH4 0x3CCFD60B EQ PUSH2 0x22B JUMPI DUP1 PUSH4 0x40088EE1 EQ PUSH2 0x235 JUMPI DUP1 PUSH4 0x46156EA0 EQ PUSH2 0x256 JUMPI DUP1 PUSH4 0x476343EE EQ PUSH2 0x269 JUMPI PUSH0 DUP1 REVERT JUMPDEST DUP1 PUSH4 0x1FFC9A7 EQ PUSH2 0x1D5 JUMPI DUP1 PUSH4 0x10F8625A EQ PUSH2 0x1FD JUMPI DUP1 PUSH4 0x13FAEDE6 EQ PUSH2 0x223 JUMPI JUMPDEST PUSH0 DUP1 REVERT JUMPDEST PUSH2 0x1E8 PUSH2 0x1E3 CALLDATASIZE PUSH1 0x4 PUSH2 0x3239 JUMP JUMPDEST POP PUSH0 SWAP1 JUMP JUMPDEST PUSH1 0x40 MLOAD SWAP1 ISZERO ISZERO DUP2 MSTORE PUSH1 0x20 ADD JUMPDEST PUSH1 0x40 MLOAD DUP1 SWAP2 SUB SWAP1 RETURN JUMPDEST PUSH2 0x210 PUSH2 0x20B CALLDATASIZE PUSH1 0x4 PUSH2 0x3276 JUMP JUMPDEST PUSH2 0x441 JUMP JUMPDEST PUSH1 0x40 MLOAD PUSH1 0xF SWAP2 SWAP1 SWAP2 SIGNEXTEND DUP2 MSTORE PUSH1 0x20 ADD PUSH2 0x1F4 JUMP JUMPDEST PUSH2 0x210 PUSH2 0x4C6 JUMP JUMPDEST PUSH2 0x233 PUSH2 0x56C JUMP JUMPDEST STOP JUMPDEST PUSH2 0x248 PUSH2 0x243 CALLDATASIZE PUSH1 0x4 PUSH2 0x32AF JUMP JUMPDEST PUSH2 0x7C2 JUMP JUMPDEST PUSH1 0x40 MLOAD SWAP1 DUP2 MSTORE PUSH1 0x20 ADD PUSH2 0x1F4 JUMP JUMPDEST PUSH2 0x210 PUSH2 0x264 CALLDATASIZE PUSH1 0x4 PUSH2 0x32E0 JUMP JUMPDEST PUSH2 0x89F JUMP JUMPDEST PUSH2 0x233 PUSH2 0x94C JUMP JUMPDEST PUSH2 0x248 PUSH2 0x27F CALLDATASIZE PUSH1 0x4 PUSH2 0x330B JUMP JUMPDEST PUSH2 0xAB6 JUMP JUMPDEST PUSH2 0x233 PUSH2 0x292 CALLDATASIZE PUSH1 0x4 PUSH2 0x32E0 JUMP JUMPDEST PUSH2 0xAE5 JUMP JUMPDEST PUSH2 0x210 PUSH2 0x2A5 CALLDATASIZE PUSH1 0x4 PUSH2 0x33B6 JUMP JUMPDEST PUSH2 0xC94 JUMP JUMPDEST PUSH2 0x248 PUSH2 0xCB9 JUMP JUMPDEST PUSH2 0x233 PUSH2 0xD6B JUMP JUMPDEST PUSH2 0x210 PUSH2 0x2C8 CALLDATASIZE PUSH1 0x4 PUSH2 0x33B6 JUMP JUMPDEST PUSH2 0xD7E JUMP JUMPDEST PUSH1 0x3 SLOAD PUSH1 0xF SIGNEXTEND PUSH2 0x210 JUMP JUMPDEST PUSH2 0x248 PUSH1 0x1 SLOAD DUP2 JUMP JUMPDEST PUSH2 0x248 PUSH1 0x9 SLOAD DUP2 JUMP JUMPDEST PUSH2 0x2FD PUSH2 0x2F8 CALLDATASIZE PUSH1 0x4 PUSH2 0x32E0 JUMP JUMPDEST PUSH2 0xF3D JUMP JUMPDEST PUSH1 0x40 MLOAD PUSH2 0x1F4 SWAP2 SWAP1 PUSH2 0x3411 JUMP JUMPDEST PUSH0 SLOAD PUSH1 0x1 PUSH1 0x1 PUSH1 0xA0 SHL SUB AND JUMPDEST PUSH1 0x40 MLOAD PUSH1 0x1 PUSH1 0x1 PUSH1 0xA0 SHL SUB SWAP1 SWAP2 AND DUP2 MSTORE PUSH1 0x20 ADD PUSH2 0x1F4 JUMP JUMPDEST PUSH2 0x233 PUSH2 0x33C CALLDATASIZE PUSH1 0x4 PUSH2 0x3423 JUMP JUMPDEST PUSH2 0x1035 JUMP JUMPDEST PUSH2 0x210 PUSH2 0x34F CALLDATASIZE PUSH1 0x4 PUSH2 0x33B6 JUMP JUMPDEST PUSH2 0x13B1 JUMP JUMPDEST PUSH2 0x210 PUSH2 0x362 CALLDATASIZE PUSH1 0x4 PUSH2 0x32E0 JUMP JUMPDEST PUSH2 0x18F1 JUMP JUMPDEST PUSH2 0x389 PUSH2 0x375 CALLDATASIZE PUSH1 0x4 PUSH2 0x34E7 JUMP JUMPDEST PUSH4 0xBC197C81 PUSH1 0xE0 SHL SWAP9 SWAP8 POP POP POP POP POP POP POP POP JUMP JUMPDEST PUSH1 0x40 MLOAD PUSH1 0x1 PUSH1 0x1 PUSH1 0xE0 SHL SUB NOT SWAP1 SWAP2 AND DUP2 MSTORE PUSH1 0x20 ADD PUSH2 0x1F4 JUMP JUMPDEST PUSH2 0x248 PUSH1 0x6 SLOAD DUP2 JUMP JUMPDEST PUSH1 0x5 SLOAD PUSH2 0x210 SWAP1 PUSH1 0xF SIGNEXTEND DUP2 JUMP JUMPDEST PUSH2 0x210 PUSH2 0x3C6 CALLDATASIZE PUSH1 0x4 PUSH2 0x33B6 JUMP JUMPDEST PUSH2 0x197E JUMP JUMPDEST PUSH2 0x3D3 PUSH2 0x199A JUMP JUMPDEST PUSH1 0x40 DUP1 MLOAD SWAP3 DUP4 MSTORE PUSH1 0x20 DUP4 ADD SWAP2 SWAP1 SWAP2 MSTORE ADD PUSH2 0x1F4 JUMP JUMPDEST PUSH2 0x389 PUSH2 0x3F6 CALLDATASIZE PUSH1 0x4 PUSH2 0x359A JUMP JUMPDEST PUSH4 0xF23A6E61 PUSH1 0xE0 SHL SWAP7 SWAP6 POP POP POP POP POP POP JUMP JUMPDEST PUSH2 0x233 PUSH2 0x416 CALLDATASIZE PUSH1 0x4 PUSH2 0x360D JUMP JUMPDEST PUSH2 0x1A2F JUMP JUMPDEST PUSH2 0x210 PUSH2 0x429 CALLDATASIZE PUSH1 0x4 PUSH2 0x33B6 JUMP JUMPDEST PUSH2 0x1A69 JUMP JUMPDEST PUSH1 0x8 SLOAD PUSH2 0x316 SWAP1 PUSH1 0x1 PUSH1 0x1 PUSH1 0xA0 SHL SUB AND DUP2 JUMP JUMPDEST PUSH0 DUP1 DUP4 PUSH1 0x1 PUSH1 0x1 PUSH1 0xA0 SHL SUB AND PUSH4 0x313CE567 PUSH1 0x40 MLOAD DUP2 PUSH4 0xFFFFFFFF AND PUSH1 0xE0 SHL DUP2 MSTORE PUSH1 0x4 ADD PUSH1 0x20 PUSH1 0x40 MLOAD DUP1 DUP4 SUB DUP2 DUP7 GAS STATICCALL ISZERO DUP1 ISZERO PUSH2 0x47F JUMPI RETURNDATASIZE PUSH0 DUP1 RETURNDATACOPY RETURNDATASIZE PUSH0 REVERT JUMPDEST POP POP POP POP PUSH1 0x40 MLOAD RETURNDATASIZE PUSH1 0x1F NOT PUSH1 0x1F DUP3 ADD AND DUP3 ADD DUP1 PUSH1 0x40 MSTORE POP DUP2 ADD SWAP1 PUSH2 0x4A3 SWAP2 SWAP1 PUSH2 0x3626 JUMP JUMPDEST PUSH1 0xFF AND SWAP1 POP PUSH2 0x4BC DUP4 PUSH2 0x4B7 DUP4 PUSH1 0xA PUSH2 0x373A JUMP JUMPDEST PUSH2 0x2127 JUMP JUMPDEST SWAP2 POP POP JUMPDEST SWAP3 SWAP2 POP POP JUMP JUMPDEST PUSH1 0x8 SLOAD PUSH0 SWAP1 PUSH1 0x1 PUSH1 0xA0 SHL SWAP1 DIV PUSH1 0xFF AND ISZERO ISZERO PUSH1 0x1 EQ PUSH2 0x4E2 JUMPI PUSH0 DUP1 REVERT JUMPDEST PUSH0 DUP1 JUMPDEST PUSH1 0x1 SLOAD DUP2 LT ISZERO PUSH2 0x54D JUMPI PUSH2 0x543 DUP3 PUSH2 0x53E PUSH2 0x539 PUSH1 0x2 DUP6 DUP2 SLOAD DUP2 LT PUSH2 0x50C JUMPI PUSH2 0x50C PUSH2 0x3745 JUMP JUMPDEST PUSH0 SWAP2 DUP3 MSTORE PUSH1 0x20 SWAP1 SWAP2 KECCAK256 PUSH1 0x2 DUP3 DIV ADD SLOAD PUSH1 0x3 SLOAD PUSH1 0x1 SWAP1 SWAP3 AND PUSH1 0x10 MUL PUSH2 0x100 EXP SWAP1 DIV PUSH1 0xF SWAP1 DUP2 SIGNEXTEND SWAP2 SWAP1 SIGNEXTEND PUSH2 0x215C JUMP JUMPDEST PUSH2 0x21B8 JUMP JUMPDEST PUSH2 0x220F JUMP JUMPDEST SWAP2 POP PUSH1 0x1 ADD PUSH2 0x4E5 JUMP JUMPDEST POP PUSH1 0x3 SLOAD PUSH2 0x566 SWAP1 PUSH1 0xF SIGNEXTEND PUSH2 0x561 DUP4 PUSH2 0x2249 JUMP JUMPDEST PUSH2 0x2281 JUMP JUMPDEST SWAP2 POP POP SWAP1 JUMP JUMPDEST PUSH1 0x8 SLOAD PUSH1 0x1 PUSH1 0xA0 SHL SWAP1 DIV PUSH1 0xFF AND ISZERO ISZERO PUSH1 0x1 EQ PUSH2 0x586 JUMPI PUSH0 DUP1 REVERT JUMPDEST PUSH2 0x58E PUSH2 0x22BE JUMP JUMPDEST PUSH1 0x7 SLOAD PUSH1 0x6 SLOAD PUSH1 0x40 MLOAD PUSH4 0xDD34DE67 PUSH1 0xE0 SHL DUP2 MSTORE PUSH1 0x1 PUSH1 0x1 PUSH1 0xA0 SHL SUB SWAP1 SWAP3 AND SWAP2 PUSH4 0xDD34DE67 SWAP2 PUSH2 0x5C3 SWAP2 PUSH1 0x4 ADD SWAP1 DUP2 MSTORE PUSH1 0x20 ADD SWAP1 JUMP JUMPDEST PUSH1 0x20 PUSH1 0x40 MLOAD DUP1 DUP4 SUB DUP2 DUP7 GAS STATICCALL ISZERO DUP1 ISZERO PUSH2 0x5DE JUMPI RETURNDATASIZE PUSH0 DUP1 RETURNDATACOPY RETURNDATASIZE PUSH0 REVERT JUMPDEST POP POP POP POP PUSH1 0x40 MLOAD RETURNDATASIZE PUSH1 0x1F NOT PUSH1 0x1F DUP3 ADD AND DUP3 ADD DUP1 PUSH1 0x40 MSTORE POP DUP2 ADD SWAP1 PUSH2 0x602 SWAP2 SWAP1 PUSH2 0x3759 JUMP JUMPDEST PUSH0 SUB PUSH2 0x655 JUMPI PUSH1 0x40 MLOAD PUSH3 0x461BCD PUSH1 0xE5 SHL DUP2 MSTORE PUSH1 0x20 PUSH1 0x4 DUP3 ADD MSTORE PUSH1 0x1B PUSH1 0x24 DUP3 ADD MSTORE PUSH32 0x4D61726B6574206E6565647320746F206265207265736F6C7665640000000000 PUSH1 0x44 DUP3 ADD MSTORE PUSH1 0x64 ADD JUMPDEST PUSH1 0x40 MLOAD DUP1 SWAP2 SUB SWAP1 REVERT JUMPDEST PUSH0 PUSH1 0x1 SLOAD PUSH8 0xFFFFFFFFFFFFFFFF DUP2 GT ISZERO PUSH2 0x671 JUMPI PUSH2 0x671 PUSH2 0x32F7 JUMP JUMPDEST PUSH1 0x40 MLOAD SWAP1 DUP1 DUP3 MSTORE DUP1 PUSH1 0x20 MUL PUSH1 0x20 ADD DUP3 ADD PUSH1 0x40 MSTORE DUP1 ISZERO PUSH2 0x69A JUMPI DUP2 PUSH1 0x20 ADD PUSH1 0x20 DUP3 MUL DUP1 CALLDATASIZE DUP4 CALLDATACOPY ADD SWAP1 POP JUMPDEST POP SWAP1 POP PUSH0 JUMPDEST PUSH1 0x1 SLOAD DUP2 LT ISZERO PUSH2 0x6D3 JUMPI DUP1 PUSH1 0x1 SWAP1 SHL DUP3 DUP3 DUP2 MLOAD DUP2 LT PUSH2 0x6C0 JUMPI PUSH2 0x6C0 PUSH2 0x3745 JUMP JUMPDEST PUSH1 0x20 SWAP1 DUP2 MUL SWAP2 SWAP1 SWAP2 ADD ADD MSTORE PUSH1 0x1 ADD PUSH2 0x69F JUMP JUMPDEST POP PUSH1 0x7 SLOAD PUSH1 0x8 SLOAD PUSH1 0x6 SLOAD PUSH1 0x40 MLOAD PUSH3 0x6DC0DF PUSH1 0xE2 SHL DUP2 MSTORE PUSH1 0x1 PUSH1 0x1 PUSH1 0xA0 SHL SUB SWAP4 DUP5 AND SWAP4 PUSH4 0x1B7037C SWAP4 PUSH2 0x70F SWAP4 SWAP2 AND SWAP2 PUSH0 SWAP2 SWAP1 DUP8 SWAP1 PUSH1 0x4 ADD PUSH2 0x3770 JUMP JUMPDEST PUSH0 PUSH1 0x40 MLOAD DUP1 DUP4 SUB DUP2 PUSH0 DUP8 DUP1 EXTCODESIZE ISZERO DUP1 ISZERO PUSH2 0x726 JUMPI PUSH0 DUP1 REVERT JUMPDEST POP GAS CALL ISZERO DUP1 ISZERO PUSH2 0x738 JUMPI RETURNDATASIZE PUSH0 DUP1 RETURNDATACOPY RETURNDATASIZE PUSH0 REVERT JUMPDEST POP POP PUSH1 0x8 SLOAD PUSH1 0x40 MLOAD PUSH4 0x70A08231 PUSH1 0xE0 SHL DUP2 MSTORE ADDRESS PUSH1 0x4 DUP3 ADD MSTORE PUSH2 0x7BF SWAP4 POP CALLER SWAP3 POP PUSH1 0x1 PUSH1 0x1 PUSH1 0xA0 SHL SUB SWAP1 SWAP2 AND SWAP1 PUSH4 0x70A08231 SWAP1 PUSH1 0x24 ADD PUSH1 0x20 PUSH1 0x40 MLOAD DUP1 DUP4 SUB DUP2 DUP7 GAS STATICCALL ISZERO DUP1 ISZERO PUSH2 0x788 JUMPI RETURNDATASIZE PUSH0 DUP1 RETURNDATACOPY RETURNDATASIZE PUSH0 REVERT JUMPDEST POP POP POP POP PUSH1 0x40 MLOAD RETURNDATASIZE PUSH1 0x1F NOT PUSH1 0x1F DUP3 ADD AND DUP3 ADD DUP1 PUSH1 0x40 MSTORE POP DUP2 ADD SWAP1 PUSH2 0x7AC SWAP2 SWAP1 PUSH2 0x3759 JUMP JUMPDEST PUSH1 0x8 SLOAD PUSH1 0x1 PUSH1 0x1 PUSH1 0xA0 SHL SUB AND SWAP2 SWAP1 PUSH2 0x22EA JUMP JUMPDEST POP JUMP JUMPDEST PUSH0 DUP1 DUP4 PUSH1 0x1 PUSH1 0x1 PUSH1 0xA0 SHL SUB AND PUSH4 0x313CE567 PUSH1 0x40 MLOAD DUP2 PUSH4 0xFFFFFFFF AND PUSH1 0xE0 SHL DUP2 MSTORE PUSH1 0x4 ADD PUSH1 0x20 PUSH1 0x40 MLOAD DUP1 DUP4 SUB DUP2 DUP7 GAS STATICCALL ISZERO DUP1 ISZERO PUSH2 0x800 JUMPI RETURNDATASIZE PUSH0 DUP1 RETURNDATACOPY RETURNDATASIZE PUSH0 REVERT JUMPDEST POP POP POP POP PUSH1 0x40 MLOAD RETURNDATASIZE PUSH1 0x1F NOT PUSH1 0x1F DUP3 ADD AND DUP3 ADD DUP1 PUSH1 0x40 MSTORE POP DUP2 ADD SWAP1 PUSH2 0x824 SWAP2 SWAP1 PUSH2 0x3626 JUMP JUMPDEST PUSH1 0xFF AND SWAP1 POP PUSH0 PUSH2 0x835 DUP3 PUSH1 0xA PUSH2 0x373A JUMP JUMPDEST SWAP1 POP PUSH0 DUP5 PUSH1 0xF SIGNEXTEND SLT ISZERO PUSH2 0x88A JUMPI PUSH1 0x40 MLOAD PUSH3 0x461BCD PUSH1 0xE5 SHL DUP2 MSTORE PUSH1 0x20 PUSH1 0x4 DUP3 ADD MSTORE PUSH1 0x1B PUSH1 0x24 DUP3 ADD MSTORE PUSH32 0x416D6F756E74206D757374206265206E6F6E2D6E656761746976650000000000 PUSH1 0x44 DUP3 ADD MSTORE PUSH1 0x64 ADD PUSH2 0x64C JUMP JUMPDEST PUSH0 PUSH2 0x895 DUP6 DUP4 PUSH2 0x2363 JUMP JUMPDEST SWAP7 SWAP6 POP POP POP POP POP POP JUMP JUMPDEST PUSH0 PUSH1 0x1 SLOAD DUP3 LT PUSH2 0x8E9 JUMPI PUSH1 0x40 MLOAD PUSH3 0x461BCD PUSH1 0xE5 SHL DUP2 MSTORE PUSH1 0x20 PUSH1 0x4 DUP3 ADD MSTORE PUSH1 0x15 PUSH1 0x24 DUP3 ADD MSTORE PUSH21 0x92DCECC2D8D2C840DEEAE8C6DEDACA40D2DCC8CAF PUSH1 0x5B SHL PUSH1 0x44 DUP3 ADD MSTORE PUSH1 0x64 ADD PUSH2 0x64C JUMP JUMPDEST PUSH0 PUSH2 0x903 PUSH2 0x539 PUSH1 0x2 DUP6 DUP2 SLOAD DUP2 LT PUSH2 0x50C JUMPI PUSH2 0x50C PUSH2 0x3745 JUMP JUMPDEST SWAP1 POP PUSH0 DUP1 JUMPDEST PUSH1 0x1 SLOAD DUP2 LT ISZERO PUSH2 0x939 JUMPI PUSH2 0x92F DUP3 PUSH2 0x53E PUSH2 0x539 PUSH1 0x2 DUP6 DUP2 SLOAD DUP2 LT PUSH2 0x50C JUMPI PUSH2 0x50C PUSH2 0x3745 JUMP JUMPDEST SWAP2 POP PUSH1 0x1 ADD PUSH2 0x908 JUMP JUMPDEST POP PUSH2 0x944 DUP3 DUP3 PUSH2 0x215C JUMP JUMPDEST SWAP5 SWAP4 POP POP POP POP JUMP JUMPDEST PUSH2 0x954 PUSH2 0x22BE JUMP JUMPDEST PUSH1 0x8 SLOAD PUSH1 0x40 MLOAD PUSH4 0x70A08231 PUSH1 0xE0 SHL DUP2 MSTORE ADDRESS PUSH1 0x4 DUP3 ADD MSTORE PUSH0 SWAP2 PUSH1 0x1 PUSH1 0x1 PUSH1 0xA0 SHL SUB AND SWAP1 PUSH4 0x70A08231 SWAP1 PUSH1 0x24 ADD PUSH1 0x20 PUSH1 0x40 MLOAD DUP1 DUP4 SUB DUP2 DUP7 GAS STATICCALL ISZERO DUP1 ISZERO PUSH2 0x99A JUMPI RETURNDATASIZE PUSH0 DUP1 RETURNDATACOPY RETURNDATASIZE PUSH0 REVERT JUMPDEST POP POP POP POP PUSH1 0x40 MLOAD RETURNDATASIZE PUSH1 0x1F NOT PUSH1 0x1F DUP3 ADD AND DUP3 ADD DUP1 PUSH1 0x40 MSTORE POP DUP2 ADD SWAP1 PUSH2 0x9BE SWAP2 SWAP1 PUSH2 0x3759 JUMP JUMPDEST PUSH1 0x8 SLOAD PUSH1 0x4 SLOAD SWAP2 SWAP3 POP PUSH0 SWAP2 PUSH2 0x9DF SWAP2 PUSH1 0x1 PUSH1 0x1 PUSH1 0xA0 SHL SUB AND SWAP1 PUSH1 0xF SIGNEXTEND PUSH2 0x7C2 JUMP JUMPDEST SWAP1 POP DUP1 DUP3 GT PUSH2 0xA30 JUMPI PUSH1 0x40 MLOAD PUSH3 0x461BCD PUSH1 0xE5 SHL DUP2 MSTORE PUSH1 0x20 PUSH1 0x4 DUP3 ADD MSTORE PUSH1 0x13 PUSH1 0x24 DUP3 ADD MSTORE PUSH32 0x4E6F206665657320746F20776974686472617700000000000000000000000000 PUSH1 0x44 DUP3 ADD MSTORE PUSH1 0x64 ADD PUSH2 0x64C JUMP JUMPDEST PUSH0 PUSH2 0xA3B DUP3 DUP5 PUSH2 0x379D JUMP JUMPDEST SWAP1 POP PUSH2 0xA64 PUSH2 0xA51 PUSH0 SLOAD PUSH1 0x1 PUSH1 0x1 PUSH1 0xA0 SHL SUB AND SWAP1 JUMP JUMPDEST PUSH1 0x8 SLOAD PUSH1 0x1 PUSH1 0x1 PUSH1 0xA0 SHL SUB AND SWAP1 DUP4 PUSH2 0x22EA JUMP JUMPDEST PUSH0 SLOAD PUSH1 0x1 PUSH1 0x1 PUSH1 0xA0 SHL SUB AND PUSH1 0x1 PUSH1 0x1 PUSH1 0xA0 SHL SUB AND PUSH32 0xC0819C13BE868895EB93E40EACEB96DE976442FA1D404E5C55F14BB65A8C489A DUP3 PUSH1 0x40 MLOAD PUSH2 0xAA9 SWAP2 DUP2 MSTORE PUSH1 0x20 ADD SWAP1 JUMP JUMPDEST PUSH1 0x40 MLOAD DUP1 SWAP2 SUB SWAP1 LOG2 POP POP POP JUMP JUMPDEST PUSH0 DUP2 PUSH1 0x40 MLOAD PUSH1 0x20 ADD PUSH2 0xAC8 SWAP2 SWAP1 PUSH2 0x37B0 JUMP JUMPDEST PUSH1 0x40 MLOAD PUSH1 0x20 DUP2 DUP4 SUB SUB DUP2 MSTORE SWAP1 PUSH1 0x40 MSTORE DUP1 MLOAD SWAP1 PUSH1 0x20 ADD KECCAK256 SWAP1 POP SWAP2 SWAP1 POP JUMP JUMPDEST PUSH2 0xAED PUSH2 0x22BE JUMP JUMPDEST PUSH1 0x8 SLOAD PUSH2 0xB05 SWAP1 PUSH1 0x1 PUSH1 0x1 PUSH1 0xA0 SHL SUB AND CALLER ADDRESS DUP5 PUSH2 0x23D8 JUMP JUMPDEST PUSH1 0x8 SLOAD PUSH0 SWAP1 PUSH2 0xB1D SWAP1 PUSH1 0x1 PUSH1 0x1 PUSH1 0xA0 SHL SUB AND DUP4 PUSH2 0x441 JUMP JUMPDEST SWAP1 POP PUSH0 JUMPDEST PUSH1 0x1 SLOAD DUP2 LT ISZERO PUSH2 0xBB6 JUMPI PUSH2 0xB68 PUSH1 0x2 DUP3 DUP2 SLOAD DUP2 LT PUSH2 0xB41 JUMPI PUSH2 0xB41 PUSH2 0x3745 JUMP JUMPDEST SWAP1 PUSH0 MSTORE PUSH1 0x20 PUSH0 KECCAK256 SWAP1 PUSH1 0x2 SWAP2 DUP3 DUP3 DIV ADD SWAP2 SWAP1 MOD PUSH1 0x10 MUL SWAP1 SLOAD SWAP1 PUSH2 0x100 EXP SWAP1 DIV PUSH1 0xF SIGNEXTEND DUP4 PUSH2 0x220F JUMP JUMPDEST PUSH1 0x2 DUP3 DUP2 SLOAD DUP2 LT PUSH2 0xB7B JUMPI PUSH2 0xB7B PUSH2 0x3745 JUMP JUMPDEST PUSH0 SWAP2 DUP3 MSTORE PUSH1 0x20 SWAP1 SWAP2 KECCAK256 PUSH1 0x2 DUP3 DIV ADD DUP1 SLOAD PUSH1 0x1 PUSH1 0x1 PUSH1 0x80 SHL SUB SWAP4 DUP5 AND PUSH1 0x10 PUSH1 0x1 SWAP5 DUP6 AND MUL PUSH2 0x100 EXP SWAP1 DUP2 MUL SWAP5 MUL NOT AND SWAP3 SWAP1 SWAP3 OR SWAP1 SWAP2 SSTORE ADD PUSH2 0xB21 JUMP JUMPDEST POP PUSH2 0xBD9 PUSH1 0x4 PUSH1 0x10 SWAP1 SLOAD SWAP1 PUSH2 0x100 EXP SWAP1 DIV PUSH1 0xF SIGNEXTEND PUSH2 0x53E DUP4 PUSH2 0x561 PUSH1 0x1 SLOAD PUSH2 0x2417 JUMP JUMPDEST PUSH1 0x4 DUP1 SLOAD PUSH1 0x1 PUSH1 0x1 PUSH1 0x80 SHL SUB SWAP1 DUP2 AND PUSH1 0x1 PUSH1 0x80 SHL SWAP4 SWAP1 SWAP2 AND DUP4 MUL OR SWAP1 DUP2 SWAP1 SSTORE PUSH1 0x3 SLOAD PUSH2 0xC13 SWAP3 SWAP2 DUP3 SWAP1 DIV PUSH1 0xF SWAP1 DUP2 SIGNEXTEND SWAP3 SWAP1 SWAP2 DIV SWAP1 SIGNEXTEND PUSH2 0x2281 JUMP JUMPDEST PUSH1 0x3 DUP1 SLOAD PUSH1 0x1 PUSH1 0x1 PUSH1 0x80 SHL SUB NOT AND PUSH1 0x1 PUSH1 0x1 PUSH1 0x80 SHL SUB SWAP3 SWAP1 SWAP3 AND SWAP2 SWAP1 SWAP2 OR SWAP1 SSTORE PUSH2 0xC3B PUSH2 0x4C6 JUMP JUMPDEST PUSH1 0x4 DUP1 SLOAD PUSH1 0x1 PUSH1 0x1 PUSH1 0x80 SHL SUB NOT AND PUSH1 0x1 PUSH1 0x1 PUSH1 0x80 SHL SUB SWAP3 SWAP1 SWAP3 AND SWAP2 SWAP1 SWAP2 OR SWAP1 SSTORE PUSH1 0x40 MLOAD DUP3 DUP2 MSTORE CALLER SWAP1 PUSH32 0xC17CEA59C2955CB181B03393209566960365771DBBA9DC3D510180E7CB312088 SWAP1 PUSH1 0x20 ADD PUSH1 0x40 MLOAD DUP1 SWAP2 SUB SWAP1 LOG2 POP POP JUMP JUMPDEST PUSH0 PUSH2 0xCA2 DUP4 PUSH2 0x2C8 DUP5 PUSH2 0x37C6 JUMP JUMPDEST PUSH1 0x4 SLOAD PUSH2 0xCB2 SWAP2 SWAP1 PUSH1 0xF SIGNEXTEND PUSH2 0x37EA JUMP JUMPDEST SWAP4 SWAP3 POP POP POP JUMP JUMPDEST PUSH1 0x8 SLOAD PUSH1 0x40 MLOAD PUSH4 0x70A08231 PUSH1 0xE0 SHL DUP2 MSTORE ADDRESS PUSH1 0x4 DUP3 ADD MSTORE PUSH0 SWAP2 DUP3 SWAP2 PUSH1 0x1 PUSH1 0x1 PUSH1 0xA0 SHL SUB SWAP1 SWAP2 AND SWAP1 PUSH4 0x70A08231 SWAP1 PUSH1 0x24 ADD PUSH1 0x20 PUSH1 0x40 MLOAD DUP1 DUP4 SUB DUP2 DUP7 GAS STATICCALL ISZERO DUP1 ISZERO PUSH2 0xD03 JUMPI RETURNDATASIZE PUSH0 DUP1 RETURNDATACOPY RETURNDATASIZE PUSH0 REVERT JUMPDEST POP POP POP POP PUSH1 0x40 MLOAD RETURNDATASIZE PUSH1 0x1F NOT PUSH1 0x1F DUP3 ADD AND DUP3 ADD DUP1 PUSH1 0x40 MSTORE POP DUP2 ADD SWAP1 PUSH2 0xD27 SWAP2 SWAP1 PUSH2 0x3759 JUMP JUMPDEST PUSH1 0x8 SLOAD PUSH1 0x4 SLOAD SWAP2 SWAP3 POP PUSH0 SWAP2 PUSH2 0xD48 SWAP2 PUSH1 0x1 PUSH1 0x1 PUSH1 0xA0 SHL SUB AND SWAP1 PUSH1 0xF SIGNEXTEND PUSH2 0x7C2 JUMP JUMPDEST SWAP1 POP DUP1 DUP3 GT ISZERO PUSH2 0xD63 JUMPI PUSH2 0xD5C DUP2 DUP4 PUSH2 0x379D JUMP JUMPDEST SWAP3 POP POP POP SWAP1 JUMP JUMPDEST PUSH0 SWAP3 POP POP POP SWAP1 JUMP JUMPDEST PUSH2 0xD73 PUSH2 0x22BE JUMP JUMPDEST PUSH2 0xD7C PUSH0 PUSH2 0x2433 JUMP JUMPDEST JUMP JUMPDEST PUSH0 DUP1 PUSH0 PUSH1 0x2 DUP1 SLOAD SWAP1 POP PUSH8 0xFFFFFFFFFFFFFFFF DUP2 GT ISZERO PUSH2 0xD9F JUMPI PUSH2 0xD9F PUSH2 0x32F7 JUMP JUMPDEST PUSH1 0x40 MLOAD SWAP1 DUP1 DUP3 MSTORE DUP1 PUSH1 0x20 MUL PUSH1 0x20 ADD DUP3 ADD PUSH1 0x40 MSTORE DUP1 ISZERO PUSH2 0xDC8 JUMPI DUP2 PUSH1 0x20 ADD PUSH1 0x20 DUP3 MUL DUP1 CALLDATASIZE DUP4 CALLDATACOPY ADD SWAP1 POP JUMPDEST POP PUSH1 0x4 SLOAD SWAP1 SWAP2 POP PUSH1 0x1 PUSH1 0x80 SHL SWAP1 DIV PUSH1 0xF SIGNEXTEND PUSH0 JUMPDEST PUSH1 0x1 SLOAD DUP2 LT ISZERO PUSH2 0xEC7 JUMPI PUSH1 0x1 DUP2 SHL DUP8 AND ISZERO PUSH2 0xE64 JUMPI PUSH2 0xE2D PUSH1 0x2 DUP3 DUP2 SLOAD DUP2 LT PUSH2 0xE06 JUMPI PUSH2 0xE06 PUSH2 0x3745 JUMP JUMPDEST SWAP1 PUSH0 MSTORE PUSH1 0x20 PUSH0 KECCAK256 SWAP1 PUSH1 0x2 SWAP2 DUP3 DUP3 DIV ADD SWAP2 SWAP1 MOD PUSH1 0x10 MUL SWAP1 SLOAD SWAP1 PUSH2 0x100 EXP SWAP1 DIV PUSH1 0xF SIGNEXTEND DUP8 PUSH2 0x220F JUMP JUMPDEST DUP4 DUP3 DUP2 MLOAD DUP2 LT PUSH2 0xE3F JUMPI PUSH2 0xE3F PUSH2 0x3745 JUMP JUMPDEST PUSH1 0x20 MUL PUSH1 0x20 ADD ADD SWAP1 PUSH1 0xF SIGNEXTEND SWAP1 DUP2 PUSH1 0xF SIGNEXTEND DUP2 MSTORE POP POP PUSH2 0xE5D DUP3 DUP8 PUSH2 0x220F JUMP JUMPDEST SWAP2 POP PUSH2 0xEBF JUMP JUMPDEST PUSH1 0x2 DUP2 DUP2 SLOAD DUP2 LT PUSH2 0xE77 JUMPI PUSH2 0xE77 PUSH2 0x3745 JUMP JUMPDEST SWAP1 PUSH0 MSTORE PUSH1 0x20 PUSH0 KECCAK256 SWAP1 PUSH1 0x2 SWAP2 DUP3 DUP3 DIV ADD SWAP2 SWAP1 MOD PUSH1 0x10 MUL SWAP1 SLOAD SWAP1 PUSH2 0x100 EXP SWAP1 DIV PUSH1 0xF SIGNEXTEND DUP4 DUP3 DUP2 MLOAD DUP2 LT PUSH2 0xEAA JUMPI PUSH2 0xEAA PUSH2 0x3745 JUMP JUMPDEST PUSH1 0x20 MUL PUSH1 0x20 ADD ADD SWAP1 PUSH1 0xF SIGNEXTEND SWAP1 DUP2 PUSH1 0xF SIGNEXTEND DUP2 MSTORE POP POP JUMPDEST PUSH1 0x1 ADD PUSH2 0xDDB JUMP JUMPDEST POP PUSH1 0x3 SLOAD PUSH0 SWAP1 PUSH2 0xEE2 SWAP1 DUP4 SWAP1 PUSH1 0x1 PUSH1 0x80 SHL SWAP1 DIV PUSH1 0xF SIGNEXTEND PUSH2 0x2281 JUMP JUMPDEST SWAP1 POP PUSH0 JUMPDEST PUSH1 0x1 SLOAD DUP2 LT ISZERO PUSH2 0xF24 JUMPI PUSH2 0xF1A DUP6 PUSH2 0x53E PUSH2 0x539 DUP8 DUP6 DUP2 MLOAD DUP2 LT PUSH2 0xF0C JUMPI PUSH2 0xF0C PUSH2 0x3745 JUMP JUMPDEST PUSH1 0x20 MUL PUSH1 0x20 ADD ADD MLOAD DUP7 PUSH2 0x215C JUMP JUMPDEST SWAP5 POP PUSH1 0x1 ADD PUSH2 0xEE6 JUMP JUMPDEST POP PUSH2 0xF32 DUP2 PUSH2 0x561 DUP7 PUSH2 0x2249 JUMP JUMPDEST SWAP8 SWAP7 POP POP POP POP POP POP POP JUMP JUMPDEST PUSH1 0x60 PUSH0 PUSH1 0x1 DUP1 SLOAD PUSH1 0x1 SWAP1 SHL PUSH2 0xF52 SWAP2 SWAP1 PUSH2 0x379D JUMP JUMPDEST SWAP1 POP PUSH1 0x1 DUP4 SHL DUP2 XOR PUSH0 PUSH2 0xF64 DUP3 PUSH2 0x249A JUMP JUMPDEST PUSH2 0xF6F SWAP1 PUSH1 0x1 PUSH2 0x3820 JUMP JUMPDEST PUSH8 0xFFFFFFFFFFFFFFFF DUP2 GT ISZERO PUSH2 0xF87 JUMPI PUSH2 0xF87 PUSH2 0x32F7 JUMP JUMPDEST PUSH1 0x40 MLOAD SWAP1 DUP1 DUP3 MSTORE DUP1 PUSH1 0x20 MUL PUSH1 0x20 ADD DUP3 ADD PUSH1 0x40 MSTORE DUP1 ISZERO PUSH2 0xFB0 JUMPI DUP2 PUSH1 0x20 ADD PUSH1 0x20 DUP3 MUL DUP1 CALLDATASIZE DUP4 CALLDATACOPY ADD SWAP1 POP JUMPDEST POP SWAP1 POP PUSH0 PUSH1 0x1 SWAP1 POP DUP6 PUSH1 0x1 SWAP1 SHL DUP3 PUSH0 DUP2 MLOAD DUP2 LT PUSH2 0xFCF JUMPI PUSH2 0xFCF PUSH2 0x3745 JUMP JUMPDEST PUSH1 0x20 MUL PUSH1 0x20 ADD ADD DUP2 DUP2 MSTORE POP POP PUSH0 JUMPDEST PUSH1 0x1 SLOAD DUP2 LT ISZERO PUSH2 0x102A JUMPI PUSH1 0x1 DUP2 SHL DUP5 AND ISZERO PUSH2 0x1022 JUMPI DUP1 PUSH1 0x1 SWAP1 SHL DUP4 DUP4 DUP2 MLOAD DUP2 LT PUSH2 0x1009 JUMPI PUSH2 0x1009 PUSH2 0x3745 JUMP JUMPDEST PUSH1 0x20 SWAP1 DUP2 MUL SWAP2 SWAP1 SWAP2 ADD ADD MSTORE DUP2 PUSH2 0x101E DUP2 PUSH2 0x3833 JUMP JUMPDEST SWAP3 POP POP JUMPDEST PUSH1 0x1 ADD PUSH2 0xFDD JUMP JUMPDEST POP SWAP1 SWAP6 SWAP5 POP POP POP POP POP JUMP JUMPDEST PUSH2 0x103D PUSH2 0x22BE JUMP JUMPDEST PUSH1 0x8 SLOAD PUSH1 0x1 PUSH1 0xA0 SHL SWAP1 DIV PUSH1 0xFF AND ISZERO PUSH2 0x1097 JUMPI PUSH1 0x40 MLOAD PUSH3 0x461BCD PUSH1 0xE5 SHL DUP2 MSTORE PUSH1 0x20 PUSH1 0x4 DUP3 ADD MSTORE PUSH1 0xC PUSH1 0x24 DUP3 ADD MSTORE PUSH32 0x416C726561647920696E69740000000000000000000000000000000000000000 PUSH1 0x44 DUP3 ADD MSTORE PUSH1 0x64 ADD PUSH2 0x64C JUMP JUMPDEST PUSH0 DUP2 GT PUSH2 0x10E6 JUMPI PUSH1 0x40 MLOAD PUSH3 0x461BCD PUSH1 0xE5 SHL DUP2 MSTORE PUSH1 0x20 PUSH1 0x4 DUP3 ADD MSTORE PUSH1 0x17 PUSH1 0x24 DUP3 ADD MSTORE PUSH32 0x43616E6E6F7420686176652030206F766572726F756E64000000000000000000 PUSH1 0x44 DUP3 ADD MSTORE PUSH1 0x64 ADD PUSH2 0x64C JUMP JUMPDEST PUSH1 0x7 SLOAD PUSH1 0x40 MLOAD PUSH4 0x365BB9D5 PUSH1 0xE2 SHL DUP2 MSTORE PUSH1 0x1 PUSH1 0x1 PUSH1 0xA0 SHL SUB DUP8 DUP2 AND PUSH1 0x4 DUP4 ADD MSTORE PUSH1 0x24 DUP3 ADD DUP8 SWAP1 MSTORE PUSH1 0x44 DUP3 ADD DUP7 SWAP1 MSTORE SWAP1 SWAP2 AND SWAP1 PUSH4 0xD96EE754 SWAP1 PUSH1 0x64 ADD PUSH0 PUSH1 0x40 MLOAD DUP1 DUP4 SUB DUP2 PUSH0 DUP8 DUP1 EXTCODESIZE ISZERO DUP1 ISZERO PUSH2 0x1138 JUMPI PUSH0 DUP1 REVERT JUMPDEST POP GAS CALL ISZERO DUP1 ISZERO PUSH2 0x114A JUMPI RETURNDATASIZE PUSH0 DUP1 RETURNDATACOPY RETURNDATASIZE PUSH0 REVERT JUMPDEST POP POP PUSH1 0x7 SLOAD PUSH1 0x40 MLOAD PUSH4 0x42963571 PUSH1 0xE1 SHL DUP2 MSTORE PUSH1 0x1 PUSH1 0x1 PUSH1 0xA0 SHL SUB DUP10 DUP2 AND PUSH1 0x4 DUP4 ADD MSTORE PUSH1 0x24 DUP3 ADD DUP10 SWAP1 MSTORE PUSH1 0x44 DUP3 ADD DUP9 SWAP1 MSTORE SWAP1 SWAP2 AND SWAP3 POP PUSH4 0x852C6AE2 SWAP2 POP PUSH1 0x64 ADD PUSH1 0x20 PUSH1 0x40 MLOAD DUP1 DUP4 SUB DUP2 DUP7 GAS STATICCALL ISZERO DUP1 ISZERO PUSH2 0x11A4 JUMPI RETURNDATASIZE PUSH0 DUP1 RETURNDATACOPY RETURNDATASIZE PUSH0 REVERT JUMPDEST POP POP POP POP PUSH1 0x40 MLOAD RETURNDATASIZE PUSH1 0x1F NOT PUSH1 0x1F DUP3 ADD AND DUP3 ADD DUP1 PUSH1 0x40 MSTORE POP DUP2 ADD SWAP1 PUSH2 0x11C8 SWAP2 SWAP1 PUSH2 0x3759 JUMP JUMPDEST PUSH1 0x6 SSTORE PUSH1 0x8 SLOAD PUSH2 0x11E3 SWAP1 PUSH1 0x1 PUSH1 0x1 PUSH1 0xA0 SHL SUB AND CALLER ADDRESS DUP6 PUSH2 0x23D8 JUMP JUMPDEST PUSH1 0x1 DUP4 SWAP1 SSTORE PUSH0 PUSH2 0x11F2 DUP5 PUSH2 0x2417 JUMP JUMPDEST PUSH1 0x8 SLOAD SWAP1 SWAP2 POP PUSH2 0x120B SWAP1 PUSH1 0x1 PUSH1 0x1 PUSH1 0xA0 SHL SUB AND DUP5 PUSH2 0x441 JUMP JUMPDEST PUSH1 0x5 DUP1 SLOAD PUSH1 0x1 PUSH1 0x1 PUSH1 0x80 SHL SUB NOT AND PUSH1 0x1 PUSH1 0x1 PUSH1 0x80 SHL SUB SWAP3 SWAP1 SWAP3 AND SWAP2 SWAP1 SWAP2 OR SWAP1 SSTORE PUSH0 PUSH2 0x1238 DUP4 PUSH2 0x2710 PUSH2 0x2127 JUMP JUMPDEST SWAP1 POP PUSH2 0x1250 DUP2 PUSH2 0x124B DUP5 PUSH2 0x561 DUP7 PUSH2 0x2249 JUMP JUMPDEST PUSH2 0x215C JUMP JUMPDEST PUSH1 0x3 DUP1 SLOAD PUSH1 0x1 PUSH1 0x1 PUSH1 0x80 SHL SUB SWAP3 DUP4 AND PUSH1 0x1 PUSH1 0x80 SHL MUL SWAP3 AND SWAP2 SWAP1 SWAP2 OR SWAP1 SSTORE PUSH1 0x5 SLOAD PUSH2 0x1293 SWAP1 PUSH2 0x1281 SWAP1 PUSH1 0xF SIGNEXTEND DUP5 PUSH2 0x2281 JUMP JUMPDEST PUSH1 0x3 SLOAD PUSH1 0x1 PUSH1 0x80 SHL SWAP1 DIV PUSH1 0xF SIGNEXTEND PUSH2 0x2281 JUMP JUMPDEST PUSH1 0x3 DUP1 SLOAD PUSH1 0x1 PUSH1 0x1 PUSH1 0x80 SHL SUB NOT AND PUSH1 0x1 PUSH1 0x1 PUSH1 0x80 SHL SUB SWAP3 SWAP1 SWAP3 AND SWAP2 SWAP1 SWAP2 OR SWAP1 SSTORE PUSH0 JUMPDEST DUP6 DUP2 LT ISZERO PUSH2 0x1324 JUMPI PUSH1 0x5 SLOAD PUSH1 0x2 DUP1 SLOAD PUSH1 0x1 DUP1 DUP3 ADD DUP4 SSTORE PUSH0 DUP4 SWAP1 MSTORE PUSH32 0x405787FA12A823E0F2B7631CC41B3BA8828B3321CA811111FA75CD3AA3BB5ACE SWAP3 DUP3 DIV SWAP3 SWAP1 SWAP3 ADD DUP1 SLOAD SWAP2 DUP4 AND PUSH1 0x10 MUL PUSH2 0x100 EXP PUSH1 0x1 PUSH1 0x1 PUSH1 0x80 SHL SUB DUP2 DUP2 MUL NOT SWAP1 SWAP4 AND SWAP3 SWAP1 SWAP5 AND SWAP4 SWAP1 SWAP4 MUL OR SWAP1 SWAP2 SSTORE ADD PUSH2 0x12B5 JUMP JUMPDEST POP PUSH1 0x8 DUP1 SLOAD PUSH32 0xFFFFFFFFFFFFFFFFFFFFFF00FFFFFFFFFFFFFFFFFFFFFFFFFFFFFFFFFFFFFFFF AND PUSH1 0x1 PUSH1 0xA0 SHL OR SWAP1 SSTORE PUSH1 0x5 SLOAD PUSH2 0x1363 SWAP1 PUSH1 0xF SIGNEXTEND DUP4 PUSH2 0x2281 JUMP JUMPDEST PUSH1 0x4 DUP1 SLOAD PUSH1 0x1 PUSH1 0x1 PUSH1 0x80 SHL SUB SWAP3 DUP4 AND PUSH1 0x1 PUSH1 0x80 SHL MUL SWAP3 AND SWAP2 SWAP1 SWAP2 OR SWAP1 SSTORE PUSH2 0x1388 PUSH2 0x4C6 JUMP JUMPDEST PUSH1 0x4 DUP1 SLOAD PUSH1 0x1 PUSH1 0x1 PUSH1 0x80 SHL SUB NOT AND PUSH1 0x1 PUSH1 0x1 PUSH1 0x80 SHL SUB SWAP3 SWAP1 SWAP3 AND SWAP2 SWAP1 SWAP2 OR SWAP1 SSTORE POP POP POP POP POP POP POP JUMP JUMPDEST PUSH1 0x8 SLOAD PUSH0 SWAP1 PUSH1 0x1 PUSH1 0xA0 SHL SWAP1 DIV PUSH1 0xFF AND ISZERO ISZERO PUSH1 0x1 EQ PUSH2 0x13CD JUMPI PUSH0 DUP1 REVERT JUMPDEST PUSH1 0x1 SLOAD DUP4 LT PUSH2 0x1416 JUMPI PUSH1 0x40 MLOAD PUSH3 0x461BCD PUSH1 0xE5 SHL DUP2 MSTORE PUSH1 0x20 PUSH1 0x4 DUP3 ADD MSTORE PUSH1 0x15 PUSH1 0x24 DUP3 ADD MSTORE PUSH21 0x92DCECC2D8D2C840DEEAE8C6DEDACA40D2DCC8CAF PUSH1 0x5B SHL PUSH1 0x44 DUP3 ADD MSTORE PUSH1 0x64 ADD PUSH2 0x64C JUMP JUMPDEST PUSH0 DUP3 PUSH1 0xF SIGNEXTEND SGT PUSH2 0x1468 JUMPI PUSH1 0x40 MLOAD PUSH3 0x461BCD PUSH1 0xE5 SHL DUP2 MSTORE PUSH1 0x20 PUSH1 0x4 DUP3 ADD MSTORE PUSH1 0x17 PUSH1 0x24 DUP3 ADD MSTORE PUSH32 0x416D6F756E74206D75737420626520706F736974697665000000000000000000 PUSH1 0x44 DUP3 ADD MSTORE PUSH1 0x64 ADD PUSH2 0x64C JUMP JUMPDEST PUSH1 0x7 SLOAD PUSH1 0x6 SLOAD PUSH1 0x40 MLOAD PUSH4 0xDD34DE67 PUSH1 0xE0 SHL DUP2 MSTORE PUSH1 0x1 PUSH1 0x1 PUSH1 0xA0 SHL SUB SWAP1 SWAP3 AND SWAP2 PUSH4 0xDD34DE67 SWAP2 PUSH2 0x149D SWAP2 PUSH1 0x4 ADD SWAP1 DUP2 MSTORE PUSH1 0x20 ADD SWAP1 JUMP JUMPDEST PUSH1 0x20 PUSH1 0x40 MLOAD DUP1 DUP4 SUB DUP2 DUP7 GAS STATICCALL ISZERO DUP1 ISZERO PUSH2 0x14B8 JUMPI RETURNDATASIZE PUSH0 DUP1 RETURNDATACOPY RETURNDATASIZE PUSH0 REVERT JUMPDEST POP POP POP POP PUSH1 0x40 MLOAD RETURNDATASIZE PUSH1 0x1F NOT PUSH1 0x1F DUP3 ADD AND DUP3 ADD DUP1 PUSH1 0x40 MSTORE POP DUP2 ADD SWAP1 PUSH2 0x14DC SWAP2 SWAP1 PUSH2 0x3759 JUMP JUMPDEST ISZERO PUSH2 0x1529 JUMPI PUSH1 0x40 MLOAD PUSH3 0x461BCD PUSH1 0xE5 SHL DUP2 MSTORE PUSH1 0x20 PUSH1 0x4 DUP3 ADD MSTORE PUSH1 0x17 PUSH1 0x24 DUP3 ADD MSTORE PUSH32 0x4D61726B657420616C7265616479207265736F6C766564000000000000000000 PUSH1 0x44 DUP3 ADD MSTORE PUSH1 0x64 ADD PUSH2 0x64C JUMP JUMPDEST DUP2 PUSH1 0xF SIGNEXTEND PUSH1 0x2 DUP5 DUP2 SLOAD DUP2 LT PUSH2 0x1540 JUMPI PUSH2 0x1540 PUSH2 0x3745 JUMP JUMPDEST PUSH0 SWAP2 DUP3 MSTORE PUSH1 0x20 SWAP1 SWAP2 KECCAK256 PUSH1 0x2 DUP3 DIV ADD SLOAD PUSH1 0x1 SWAP1 SWAP2 AND PUSH1 0x10 MUL PUSH2 0x100 EXP SWAP1 DIV PUSH1 0xF SIGNEXTEND SLT ISZERO PUSH2 0x15AE JUMPI PUSH1 0x40 MLOAD PUSH3 0x461BCD PUSH1 0xE5 SHL DUP2 MSTORE PUSH1 0x20 PUSH1 0x4 DUP3 ADD MSTORE PUSH1 0x19 PUSH1 0x24 DUP3 ADD MSTORE PUSH32 0x4E6F7420656E6F7567682073686172657320746F2073656C6C00000000000000 PUSH1 0x44 DUP3 ADD MSTORE PUSH1 0x64 ADD PUSH2 0x64C JUMP JUMPDEST PUSH2 0x15EB PUSH1 0x2 DUP5 DUP2 SLOAD DUP2 LT PUSH2 0x15C4 JUMPI PUSH2 0x15C4 PUSH2 0x3745 JUMP JUMPDEST SWAP1 PUSH0 MSTORE PUSH1 0x20 PUSH0 KECCAK256 SWAP1 PUSH1 0x2 SWAP2 DUP3 DUP3 DIV ADD SWAP2 SWAP1 MOD PUSH1 0x10 MUL SWAP1 SLOAD SWAP1 PUSH2 0x100 EXP SWAP1 DIV PUSH1 0xF SIGNEXTEND DUP4 PUSH2 0x24C8 JUMP JUMPDEST PUSH1 0x2 DUP5 DUP2 SLOAD DUP2 LT PUSH2 0x15FE JUMPI PUSH2 0x15FE PUSH2 0x3745 JUMP JUMPDEST SWAP1 PUSH0 MSTORE PUSH1 0x20 PUSH0 KECCAK256 SWAP1 PUSH1 0x2 SWAP2 DUP3 DUP3 DIV ADD SWAP2 SWAP1 MOD PUSH1 0x10 MUL PUSH2 0x100 EXP DUP2 SLOAD DUP2 PUSH1 0x1 PUSH1 0x1 PUSH1 0x80 SHL SUB MUL NOT AND SWAP1 DUP4 PUSH1 0xF SIGNEXTEND PUSH1 0x1 PUSH1 0x1 PUSH1 0x80 SHL SUB AND MUL OR SWAP1 SSTORE POP PUSH2 0x1651 PUSH1 0x4 PUSH1 0x10 SWAP1 SLOAD SWAP1 PUSH2 0x100 EXP SWAP1 DIV PUSH1 0xF SIGNEXTEND DUP4 PUSH2 0x24C8 JUMP JUMPDEST PUSH1 0x4 DUP1 SLOAD PUSH1 0x1 PUSH1 0x1 PUSH1 0x80 SHL SUB SWAP1 DUP2 AND PUSH1 0x1 PUSH1 0x80 SHL SWAP4 SWAP1 SWAP2 AND DUP4 MUL OR SWAP1 DUP2 SWAP1 SSTORE PUSH1 0x3 SLOAD PUSH2 0x168B SWAP3 SWAP2 DUP3 SWAP1 DIV PUSH1 0xF SWAP1 DUP2 SIGNEXTEND SWAP3 SWAP1 SWAP2 DIV SWAP1 SIGNEXTEND PUSH2 0x2281 JUMP JUMPDEST PUSH1 0x3 DUP1 SLOAD PUSH1 0x1 PUSH1 0x1 PUSH1 0x80 SHL SUB NOT AND PUSH1 0x1 PUSH1 0x1 PUSH1 0x80 SHL SUB SWAP3 SWAP1 SWAP3 AND SWAP2 SWAP1 SWAP2 OR SWAP1 SSTORE PUSH0 DUP1 JUMPDEST PUSH1 0x1 SLOAD DUP2 LT ISZERO PUSH2 0x16DF JUMPI PUSH2 0x16D5 DUP3 PUSH2 0x53E PUSH2 0x539 PUSH1 0x2 DUP6 DUP2 SLOAD DUP2 LT PUSH2 0x50C JUMPI PUSH2 0x50C PUSH2 0x3745 JUMP JUMPDEST SWAP2 POP PUSH1 0x1 ADD PUSH2 0x16AE JUMP JUMPDEST POP PUSH1 0x3 SLOAD PUSH0 SWAP1 PUSH2 0x16F5 SWAP1 PUSH1 0xF SIGNEXTEND PUSH2 0x561 DUP5 PUSH2 0x2249 JUMP JUMPDEST PUSH1 0x4 SLOAD SWAP1 SWAP2 POP PUSH2 0x1708 SWAP1 PUSH1 0xF SIGNEXTEND DUP3 PUSH2 0x24C8 JUMP JUMPDEST PUSH1 0x4 DUP1 SLOAD PUSH1 0x1 PUSH1 0x1 PUSH1 0x80 SHL SUB NOT AND PUSH1 0x1 PUSH1 0x1 PUSH1 0x80 SHL SUB DUP5 AND OR SWAP1 SSTORE PUSH1 0x8 SLOAD SWAP1 SWAP4 POP PUSH0 SWAP1 PUSH2 0x173E SWAP1 PUSH1 0x1 PUSH1 0x1 PUSH1 0xA0 SHL SUB AND DUP7 PUSH2 0x7C2 JUMP JUMPDEST PUSH1 0x7 SLOAD PUSH1 0x8 SLOAD PUSH1 0x6 SLOAD PUSH1 0x40 MLOAD PUSH4 0x856296F7 PUSH1 0xE0 SHL DUP2 MSTORE PUSH0 PUSH1 0x4 DUP3 ADD DUP2 SWAP1 MSTORE PUSH1 0x24 DUP3 ADD SWAP3 SWAP1 SWAP3 MSTORE PUSH1 0x1 DUP12 SHL PUSH1 0x44 DUP3 ADD MSTORE SWAP4 SWAP5 POP SWAP3 PUSH1 0x1 PUSH1 0x1 PUSH1 0xA0 SHL SUB SWAP3 DUP4 AND SWAP3 PUSH4 0x39DD7530 SWAP3 AND SWAP1 DUP4 SWAP1 PUSH4 0x856296F7 SWAP1 PUSH1 0x64 ADD PUSH1 0x20 PUSH1 0x40 MLOAD DUP1 DUP4 SUB DUP2 DUP7 GAS STATICCALL ISZERO DUP1 ISZERO PUSH2 0x17AB JUMPI RETURNDATASIZE PUSH0 DUP1 RETURNDATACOPY RETURNDATASIZE PUSH0 REVERT JUMPDEST POP POP POP POP PUSH1 0x40 MLOAD RETURNDATASIZE PUSH1 0x1F NOT PUSH1 0x1F DUP3 ADD AND DUP3 ADD DUP1 PUSH1 0x40 MSTORE POP DUP2 ADD SWAP1 PUSH2 0x17CF SWAP2 SWAP1 PUSH2 0x3759 JUMP JUMPDEST PUSH1 0x40 MLOAD PUSH1 0x1 PUSH1 0x1 PUSH1 0xE0 SHL SUB NOT PUSH1 0xE0 DUP6 SWAP1 SHL AND DUP2 MSTORE PUSH1 0x1 PUSH1 0x1 PUSH1 0xA0 SHL SUB SWAP1 SWAP3 AND PUSH1 0x4 DUP4 ADD MSTORE PUSH1 0x24 DUP3 ADD MSTORE PUSH1 0x44 ADD PUSH1 0x20 PUSH1 0x40 MLOAD DUP1 DUP4 SUB DUP2 DUP7 GAS STATICCALL ISZERO DUP1 ISZERO PUSH2 0x1816 JUMPI RETURNDATASIZE PUSH0 DUP1 RETURNDATACOPY RETURNDATASIZE PUSH0 REVERT JUMPDEST POP POP POP POP PUSH1 0x40 MLOAD RETURNDATASIZE PUSH1 0x1F NOT PUSH1 0x1F DUP3 ADD AND DUP3 ADD DUP1 PUSH1 0x40 MSTORE POP DUP2 ADD SWAP1 PUSH2 0x183A SWAP2 SWAP1 PUSH2 0x3759 JUMP JUMPDEST PUSH1 0x7 SLOAD PUSH1 0x40 MLOAD PUSH4 0x79212195 PUSH1 0xE1 SHL DUP2 MSTORE CALLER PUSH1 0x4 DUP3 ADD MSTORE ADDRESS PUSH1 0x24 DUP3 ADD MSTORE PUSH1 0x44 DUP2 ADD DUP4 SWAP1 MSTORE PUSH1 0x64 DUP2 ADD DUP6 SWAP1 MSTORE PUSH1 0xA0 PUSH1 0x84 DUP3 ADD MSTORE PUSH0 PUSH1 0xA4 DUP3 ADD MSTORE SWAP2 SWAP3 POP PUSH1 0x1 PUSH1 0x1 PUSH1 0xA0 SHL SUB AND SWAP1 PUSH4 0xF242432A SWAP1 PUSH1 0xC4 ADD PUSH0 PUSH1 0x40 MLOAD DUP1 DUP4 SUB DUP2 PUSH0 DUP8 DUP1 EXTCODESIZE ISZERO DUP1 ISZERO PUSH2 0x189E JUMPI PUSH0 DUP1 REVERT JUMPDEST POP GAS CALL ISZERO DUP1 ISZERO PUSH2 0x18B0 JUMPI RETURNDATASIZE PUSH0 DUP1 RETURNDATACOPY RETURNDATASIZE PUSH0 REVERT JUMPDEST POP POP PUSH1 0x8 SLOAD PUSH0 SWAP3 POP PUSH2 0x18CC SWAP2 POP PUSH1 0x1 PUSH1 0x1 PUSH1 0xA0 SHL SUB AND DUP8 PUSH2 0x7C2 JUMP JUMPDEST PUSH1 0x8 SLOAD SWAP1 SWAP2 POP PUSH2 0x18E6 SWAP1 PUSH1 0x1 PUSH1 0x1 PUSH1 0xA0 SHL SUB AND CALLER DUP4 PUSH2 0x22EA JUMP JUMPDEST POP POP POP POP POP SWAP3 SWAP2 POP POP JUMP JUMPDEST PUSH0 PUSH1 0x1 SLOAD DUP3 LT PUSH2 0x193B JUMPI PUSH1 0x40 MLOAD PUSH3 0x461BCD PUSH1 0xE5 SHL DUP2 MSTORE PUSH1 0x20 PUSH1 0x4 DUP3 ADD MSTORE PUSH1 0x15 PUSH1 0x24 DUP3 ADD MSTORE PUSH21 0x92DCECC2D8D2C840DEEAE8C6DEDACA40D2DCC8CAF PUSH1 0x5B SHL PUSH1 0x44 DUP3 ADD MSTORE PUSH1 0x64 ADD PUSH2 0x64C JUMP JUMPDEST PUSH2 0x4C0 PUSH1 0x2 DUP4 DUP2 SLOAD DUP2 LT PUSH2 0x1951 JUMPI PUSH2 0x1951 PUSH2 0x3745 JUMP JUMPDEST PUSH0 SWAP2 DUP3 MSTORE PUSH1 0x20 SWAP1 SWAP2 KECCAK256 PUSH1 0x2 DUP3 DIV ADD SLOAD PUSH1 0x5 SLOAD PUSH1 0x1 SWAP1 SWAP3 AND PUSH1 0x10 MUL PUSH2 0x100 EXP SWAP1 DIV PUSH1 0xF SWAP1 DUP2 SIGNEXTEND SWAP2 SWAP1 SIGNEXTEND PUSH2 0x24C8 JUMP JUMPDEST PUSH1 0x4 SLOAD PUSH0 SWAP1 PUSH1 0xF SIGNEXTEND PUSH2 0x1990 DUP5 DUP5 PUSH2 0xD7E JUMP JUMPDEST PUSH2 0xCB2 SWAP2 SWAP1 PUSH2 0x37EA JUMP JUMPDEST PUSH1 0x8 SLOAD PUSH1 0x40 MLOAD PUSH4 0x70A08231 PUSH1 0xE0 SHL DUP2 MSTORE ADDRESS PUSH1 0x4 DUP3 ADD MSTORE PUSH0 SWAP2 DUP3 SWAP2 PUSH1 0x1 PUSH1 0x1 PUSH1 0xA0 SHL SUB SWAP1 SWAP2 AND SWAP1 PUSH4 0x70A08231 SWAP1 PUSH1 0x24 ADD PUSH1 0x20 PUSH1 0x40 MLOAD DUP1 DUP4 SUB DUP2 DUP7 GAS STATICCALL ISZERO DUP1 ISZERO PUSH2 0x19E4 JUMPI RETURNDATASIZE PUSH0 DUP1 RETURNDATACOPY RETURNDATASIZE PUSH0 REVERT JUMPDEST POP POP POP POP PUSH1 0x40 MLOAD RETURNDATASIZE PUSH1 0x1F NOT PUSH1 0x1F DUP3 ADD AND DUP3 ADD DUP1 PUSH1 0x40 MSTORE POP DUP2 ADD SWAP1 PUSH2 0x1A08 SWAP2 SWAP1 PUSH2 0x3759 JUMP JUMPDEST PUSH1 0x8 SLOAD PUSH1 0x4 SLOAD SWAP2 SWAP4 POP PUSH2 0x1A29 SWAP2 PUSH1 0x1 PUSH1 0x1 PUSH1 0xA0 SHL SUB SWAP1 SWAP2 AND SWAP1 PUSH1 0xF SIGNEXTEND PUSH2 0x7C2 JUMP JUMPDEST SWAP1 POP SWAP1 SWAP2 JUMP JUMPDEST PUSH2 0x1A37 PUSH2 0x22BE JUMP JUMPDEST PUSH1 0x1 PUSH1 0x1 PUSH1 0xA0 SHL SUB DUP2 AND PUSH2 0x1A60 JUMPI PUSH1 0x40 MLOAD PUSH4 0x1E4FBDF7 PUSH1 0xE0 SHL DUP2 MSTORE PUSH0 PUSH1 0x4 DUP3 ADD MSTORE PUSH1 0x24 ADD PUSH2 0x64C JUMP JUMPDEST PUSH2 0x7BF DUP2 PUSH2 0x2433 JUMP JUMPDEST PUSH1 0x8 SLOAD PUSH0 SWAP1 PUSH1 0x1 PUSH1 0xA0 SHL SWAP1 DIV PUSH1 0xFF AND ISZERO ISZERO PUSH1 0x1 EQ PUSH2 0x1A85 JUMPI PUSH0 DUP1 REVERT JUMPDEST PUSH1 0x1 SLOAD DUP4 LT PUSH2 0x1ACE JUMPI PUSH1 0x40 MLOAD PUSH3 0x461BCD PUSH1 0xE5 SHL DUP2 MSTORE PUSH1 0x20 PUSH1 0x4 DUP3 ADD MSTORE PUSH1 0x15 PUSH1 0x24 DUP3 ADD MSTORE PUSH21 0x92DCECC2D8D2C840DEEAE8C6DEDACA40D2DCC8CAF PUSH1 0x5B SHL PUSH1 0x44 DUP3 ADD MSTORE PUSH1 0x64 ADD PUSH2 0x64C JUMP JUMPDEST PUSH0 DUP3 PUSH1 0xF SIGNEXTEND SGT PUSH2 0x1B20 JUMPI PUSH1 0x40 MLOAD PUSH3 0x461BCD PUSH1 0xE5 SHL DUP2 MSTORE PUSH1 0x20 PUSH1 0x4 DUP3 ADD MSTORE PUSH1 0x17 PUSH1 0x24 DUP3 ADD MSTORE PUSH32 0x416D6F756E74206D75737420626520706F736974697665000000000000000000 PUSH1 0x44 DUP3 ADD MSTORE PUSH1 0x64 ADD PUSH2 0x64C JUMP JUMPDEST PUSH1 0x7 SLOAD PUSH1 0x6 SLOAD PUSH1 0x40 MLOAD PUSH4 0xDD34DE67 PUSH1 0xE0 SHL DUP2 MSTORE PUSH1 0x1 PUSH1 0x1 PUSH1 0xA0 SHL SUB SWAP1 SWAP3 AND SWAP2 PUSH4 0xDD34DE67 SWAP2 PUSH2 0x1B55 SWAP2 PUSH1 0x4 ADD SWAP1 DUP2 MSTORE PUSH1 0x20 ADD SWAP1 JUMP JUMPDEST PUSH1 0x20 PUSH1 0x40 MLOAD DUP1 DUP4 SUB DUP2 DUP7 GAS STATICCALL ISZERO DUP1 ISZERO PUSH2 0x1B70 JUMPI RETURNDATASIZE PUSH0 DUP1 RETURNDATACOPY RETURNDATASIZE PUSH0 REVERT JUMPDEST POP POP POP POP PUSH1 0x40 MLOAD RETURNDATASIZE PUSH1 0x1F NOT PUSH1 0x1F DUP3 ADD AND DUP3 ADD DUP1 PUSH1 0x40 MSTORE POP DUP2 ADD SWAP1 PUSH2 0x1B94 SWAP2 SWAP1 PUSH2 0x3759 JUMP JUMPDEST ISZERO PUSH2 0x1BE1 JUMPI PUSH1 0x40 MLOAD PUSH3 0x461BCD PUSH1 0xE5 SHL DUP2 MSTORE PUSH1 0x20 PUSH1 0x4 DUP3 ADD MSTORE PUSH1 0x17 PUSH1 0x24 DUP3 ADD MSTORE PUSH32 0x4D61726B657420616C7265616479207265736F6C766564000000000000000000 PUSH1 0x44 DUP3 ADD MSTORE PUSH1 0x64 ADD PUSH2 0x64C JUMP JUMPDEST PUSH2 0x1BF7 PUSH1 0x2 DUP5 DUP2 SLOAD DUP2 LT PUSH2 0xB41 JUMPI PUSH2 0xB41 PUSH2 0x3745 JUMP JUMPDEST PUSH1 0x2 DUP5 DUP2 SLOAD DUP2 LT PUSH2 0x1C0A JUMPI PUSH2 0x1C0A PUSH2 0x3745 JUMP JUMPDEST SWAP1 PUSH0 MSTORE PUSH1 0x20 PUSH0 KECCAK256 SWAP1 PUSH1 0x2 SWAP2 DUP3 DUP3 DIV ADD SWAP2 SWAP1 MOD PUSH1 0x10 MUL PUSH2 0x100 EXP DUP2 SLOAD DUP2 PUSH1 0x1 PUSH1 0x1 PUSH1 0x80 SHL SUB MUL NOT AND SWAP1 DUP4 PUSH1 0xF SIGNEXTEND PUSH1 0x1 PUSH1 0x1 PUSH1 0x80 SHL SUB AND MUL OR SWAP1 SSTORE POP PUSH2 0x1C5D PUSH1 0x4 PUSH1 0x10 SWAP1 SLOAD SWAP1 PUSH2 0x100 EXP SWAP1 DIV PUSH1 0xF SIGNEXTEND DUP4 PUSH2 0x220F JUMP JUMPDEST PUSH1 0x4 DUP1 SLOAD PUSH1 0x1 PUSH1 0x1 PUSH1 0x80 SHL SUB SWAP1 DUP2 AND PUSH1 0x1 PUSH1 0x80 SHL SWAP4 SWAP1 SWAP2 AND DUP4 MUL OR SWAP1 DUP2 SWAP1 SSTORE PUSH1 0x3 SLOAD PUSH2 0x1C97 SWAP3 SWAP2 DUP3 SWAP1 DIV PUSH1 0xF SWAP1 DUP2 SIGNEXTEND SWAP3 SWAP1 SWAP2 DIV SWAP1 SIGNEXTEND PUSH2 0x2281 JUMP JUMPDEST PUSH1 0x3 DUP1 SLOAD PUSH1 0x1 PUSH1 0x1 PUSH1 0x80 SHL SUB NOT AND PUSH1 0x1 PUSH1 0x1 PUSH1 0x80 SHL SUB SWAP3 SWAP1 SWAP3 AND SWAP2 SWAP1 SWAP2 OR SWAP1 SSTORE PUSH0 DUP1 JUMPDEST PUSH1 0x1 SLOAD DUP2 LT ISZERO PUSH2 0x1CEB JUMPI PUSH2 0x1CE1 DUP3 PUSH2 0x53E PUSH2 0x539 PUSH1 0x2 DUP6 DUP2 SLOAD DUP2 LT PUSH2 0x50C JUMPI PUSH2 0x50C PUSH2 0x3745 JUMP JUMPDEST SWAP2 POP PUSH1 0x1 ADD PUSH2 0x1CBA JUMP JUMPDEST POP PUSH1 0x3 SLOAD PUSH0 SWAP1 PUSH2 0x1D01 SWAP1 PUSH1 0xF SIGNEXTEND PUSH2 0x561 DUP5 PUSH2 0x2249 JUMP JUMPDEST PUSH1 0x4 SLOAD SWAP1 SWAP2 POP PUSH2 0x1D15 SWAP1 DUP3 SWAP1 PUSH1 0xF SIGNEXTEND PUSH2 0x24C8 JUMP JUMPDEST PUSH1 0x4 DUP1 SLOAD PUSH1 0x1 PUSH1 0x1 PUSH1 0x80 SHL SUB NOT AND PUSH1 0x1 PUSH1 0x1 PUSH1 0x80 SHL SUB DUP5 AND OR SWAP1 SSTORE PUSH1 0x8 SLOAD SWAP1 SWAP4 POP PUSH0 SWAP1 PUSH2 0x1D4B SWAP1 PUSH1 0x1 PUSH1 0x1 PUSH1 0xA0 SHL SUB AND DUP6 PUSH2 0x7C2 JUMP JUMPDEST PUSH1 0x8 SLOAD SWAP1 SWAP2 POP PUSH0 SWAP1 PUSH2 0x1D66 SWAP1 PUSH1 0x1 PUSH1 0x1 PUSH1 0xA0 SHL SUB AND DUP8 PUSH2 0x7C2 JUMP JUMPDEST PUSH1 0x7 SLOAD PUSH1 0x8 SLOAD PUSH1 0x6 SLOAD PUSH1 0x40 MLOAD PUSH4 0x856296F7 PUSH1 0xE0 SHL DUP2 MSTORE PUSH0 PUSH1 0x4 DUP3 ADD DUP2 SWAP1 MSTORE PUSH1 0x24 DUP3 ADD SWAP3 SWAP1 SWAP3 MSTORE PUSH1 0x1 DUP13 SHL PUSH1 0x44 DUP3 ADD MSTORE SWAP4 SWAP5 POP SWAP3 PUSH1 0x1 PUSH1 0x1 PUSH1 0xA0 SHL SUB SWAP3 DUP4 AND SWAP3 PUSH4 0x39DD7530 SWAP3 AND SWAP1 DUP4 SWAP1 PUSH4 0x856296F7 SWAP1 PUSH1 0x64 ADD PUSH1 0x20 PUSH1 0x40 MLOAD DUP1 DUP4 SUB DUP2 DUP7 GAS STATICCALL ISZERO DUP1 ISZERO PUSH2 0x1DD3 JUMPI RETURNDATASIZE PUSH0 DUP1 RETURNDATACOPY RETURNDATASIZE PUSH0 REVERT JUMPDEST POP POP POP POP PUSH1 0x40 MLOAD RETURNDATASIZE PUSH1 0x1F NOT PUSH1 0x1F DUP3 ADD AND DUP3 ADD DUP1 PUSH1 0x40 MSTORE POP DUP2 ADD SWAP1 PUSH2 0x1DF7 SWAP2 SWAP1 PUSH2 0x3759 JUMP JUMPDEST PUSH1 0x40 MLOAD PUSH1 0x1 PUSH1 0x1 PUSH1 0xE0 SHL SUB NOT PUSH1 0xE0 DUP6 SWAP1 SHL AND DUP2 MSTORE PUSH1 0x1 PUSH1 0x1 PUSH1 0xA0 SHL SUB SWAP1 SWAP3 AND PUSH1 0x4 DUP4 ADD MSTORE PUSH1 0x24 DUP3 ADD MSTORE PUSH1 0x44 ADD PUSH1 0x20 PUSH1 0x40 MLOAD DUP1 DUP4 SUB DUP2 DUP7 GAS STATICCALL ISZERO DUP1 ISZERO PUSH2 0x1E3E JUMPI RETURNDATASIZE PUSH0 DUP1 RETURNDATACOPY RETURNDATASIZE PUSH0 REVERT JUMPDEST POP POP POP POP PUSH1 0x40 MLOAD RETURNDATASIZE PUSH1 0x1F NOT PUSH1 0x1F DUP3 ADD AND DUP3 ADD DUP1 PUSH1 0x40 MSTORE POP DUP2 ADD SWAP1 PUSH2 0x1E62 SWAP2 SWAP1 PUSH2 0x3759 JUMP JUMPDEST PUSH1 0x8 SLOAD PUSH1 0x40 MLOAD PUSH4 0x23B872DD PUSH1 0xE0 SHL DUP2 MSTORE CALLER PUSH1 0x4 DUP3 ADD MSTORE ADDRESS PUSH1 0x24 DUP3 ADD MSTORE PUSH1 0x44 DUP2 ADD DUP7 SWAP1 MSTORE SWAP2 SWAP3 POP PUSH1 0x1 PUSH1 0x1 PUSH1 0xA0 SHL SUB AND SWAP1 PUSH4 0x23B872DD SWAP1 PUSH1 0x64 ADD PUSH1 0x20 PUSH1 0x40 MLOAD DUP1 DUP4 SUB DUP2 PUSH0 DUP8 GAS CALL ISZERO DUP1 ISZERO PUSH2 0x1EB7 JUMPI RETURNDATASIZE PUSH0 DUP1 RETURNDATACOPY RETURNDATASIZE PUSH0 REVERT JUMPDEST POP POP POP POP PUSH1 0x40 MLOAD RETURNDATASIZE PUSH1 0x1F NOT PUSH1 0x1F DUP3 ADD AND DUP3 ADD DUP1 PUSH1 0x40 MSTORE POP DUP2 ADD SWAP1 PUSH2 0x1EDB SWAP2 SWAP1 PUSH2 0x384B JUMP JUMPDEST PUSH2 0x1F27 JUMPI PUSH1 0x40 MLOAD PUSH3 0x461BCD PUSH1 0xE5 SHL DUP2 MSTORE PUSH1 0x20 PUSH1 0x4 DUP3 ADD MSTORE PUSH1 0x19 PUSH1 0x24 DUP3 ADD MSTORE PUSH32 0x4572726F72207472616E7366657272696E6720746F6B656E7300000000000000 PUSH1 0x44 DUP3 ADD MSTORE PUSH1 0x64 ADD PUSH2 0x64C JUMP JUMPDEST PUSH1 0x7 SLOAD PUSH1 0x40 MLOAD PUSH3 0x7EEAC7 PUSH1 0xE1 SHL DUP2 MSTORE ADDRESS PUSH1 0x4 DUP3 ADD MSTORE PUSH1 0x24 DUP2 ADD DUP4 SWAP1 MSTORE DUP4 SWAP2 PUSH1 0x1 PUSH1 0x1 PUSH1 0xA0 SHL SUB AND SWAP1 PUSH3 0xFDD58E SWAP1 PUSH1 0x44 ADD PUSH1 0x20 PUSH1 0x40 MLOAD DUP1 DUP4 SUB DUP2 DUP7 GAS STATICCALL ISZERO DUP1 ISZERO PUSH2 0x1F72 JUMPI RETURNDATASIZE PUSH0 DUP1 RETURNDATACOPY RETURNDATASIZE PUSH0 REVERT JUMPDEST POP POP POP POP PUSH1 0x40 MLOAD RETURNDATASIZE PUSH1 0x1F NOT PUSH1 0x1F DUP3 ADD AND DUP3 ADD DUP1 PUSH1 0x40 MSTORE POP DUP2 ADD SWAP1 PUSH2 0x1F96 SWAP2 SWAP1 PUSH2 0x3759 JUMP JUMPDEST LT ISZERO PUSH2 0x20A3 JUMPI PUSH1 0x8 SLOAD PUSH1 0x7 SLOAD PUSH1 0x1 PUSH1 0x1 PUSH1 0xA0 SHL SUB SWAP2 DUP3 AND SWAP2 PUSH4 0x95EA7B3 SWAP2 AND PUSH2 0x1FBF DUP4 DUP12 PUSH2 0x7C2 JUMP JUMPDEST PUSH1 0x40 MLOAD PUSH1 0x1 PUSH1 0x1 PUSH1 0xE0 SHL SUB NOT PUSH1 0xE0 DUP6 SWAP1 SHL AND DUP2 MSTORE PUSH1 0x1 PUSH1 0x1 PUSH1 0xA0 SHL SUB SWAP1 SWAP3 AND PUSH1 0x4 DUP4 ADD MSTORE PUSH1 0x24 DUP3 ADD MSTORE PUSH1 0x44 ADD PUSH1 0x20 PUSH1 0x40 MLOAD DUP1 DUP4 SUB DUP2 PUSH0 DUP8 GAS CALL ISZERO DUP1 ISZERO PUSH2 0x2007 JUMPI RETURNDATASIZE PUSH0 DUP1 RETURNDATACOPY RETURNDATASIZE PUSH0 REVERT JUMPDEST POP POP POP POP PUSH1 0x40 MLOAD RETURNDATASIZE PUSH1 0x1F NOT PUSH1 0x1F DUP3 ADD AND DUP3 ADD DUP1 PUSH1 0x40 MSTORE POP DUP2 ADD SWAP1 PUSH2 0x202B SWAP2 SWAP1 PUSH2 0x384B JUMP JUMPDEST POP PUSH1 0x7 SLOAD PUSH1 0x8 SLOAD PUSH1 0x6 SLOAD PUSH1 0x1 PUSH1 0x1 PUSH1 0xA0 SHL SUB SWAP3 DUP4 AND SWAP3 PUSH4 0x72CE4275 SWAP3 AND SWAP1 PUSH0 SWAP1 PUSH2 0x2054 DUP14 PUSH2 0xF3D JUMP JUMPDEST DUP8 PUSH1 0x40 MLOAD DUP7 PUSH4 0xFFFFFFFF AND PUSH1 0xE0 SHL DUP2 MSTORE PUSH1 0x4 ADD PUSH2 0x2075 SWAP6 SWAP5 SWAP4 SWAP3 SWAP2 SWAP1 PUSH2 0x386A JUMP JUMPDEST PUSH0 PUSH1 0x40 MLOAD DUP1 DUP4 SUB DUP2 PUSH0 DUP8 DUP1 EXTCODESIZE ISZERO DUP1 ISZERO PUSH2 0x208C JUMPI PUSH0 DUP1 REVERT JUMPDEST POP GAS CALL ISZERO DUP1 ISZERO PUSH2 0x209E JUMPI RETURNDATASIZE PUSH0 DUP1 RETURNDATACOPY RETURNDATASIZE PUSH0 REVERT JUMPDEST POP POP POP POP JUMPDEST PUSH1 0x7 SLOAD PUSH1 0x40 MLOAD PUSH4 0x79212195 PUSH1 0xE1 SHL DUP2 MSTORE ADDRESS PUSH1 0x4 DUP3 ADD MSTORE CALLER PUSH1 0x24 DUP3 ADD MSTORE PUSH1 0x44 DUP2 ADD DUP4 SWAP1 MSTORE PUSH1 0x64 DUP2 ADD DUP5 SWAP1 MSTORE PUSH1 0xA0 PUSH1 0x84 DUP3 ADD MSTORE PUSH0 PUSH1 0xA4 DUP3 ADD MSTORE PUSH1 0x1 PUSH1 0x1 PUSH1 0xA0 SHL SUB SWAP1 SWAP2 AND SWAP1 PUSH4 0xF242432A SWAP1 PUSH1 0xC4 ADD PUSH0 PUSH1 0x40 MLOAD DUP1 DUP4 SUB DUP2 PUSH0 DUP8 DUP1 EXTCODESIZE ISZERO DUP1 ISZERO PUSH2 0x2106 JUMPI PUSH0 DUP1 REVERT JUMPDEST POP GAS CALL ISZERO DUP1 ISZERO PUSH2 0x2118 JUMPI RETURNDATASIZE PUSH0 DUP1 RETURNDATACOPY RETURNDATASIZE PUSH0 REVERT JUMPDEST POP POP POP POP POP POP POP POP POP SWAP3 SWAP2 POP POP JUMP JUMPDEST PUSH0 DUP2 PUSH0 SUB PUSH2 0x2133 JUMPI PUSH0 DUP1 REVERT JUMPDEST PUSH0 PUSH2 0x213E DUP5 DUP5 PUSH2 0x2502 JUMP JUMPDEST SWAP1 POP PUSH1 0x1 PUSH1 0x1 PUSH1 0x7F SHL SUB PUSH1 0x1 PUSH1 0x1 PUSH1 0x80 SHL SUB DUP3 AND GT ISZERO PUSH2 0xCB2 JUMPI PUSH0 DUP1 REVERT JUMPDEST PUSH0 DUP2 PUSH1 0xF SIGNEXTEND PUSH0 SUB PUSH2 0x216B JUMPI PUSH0 DUP1 REVERT JUMPDEST PUSH0 DUP3 PUSH1 0xF SIGNEXTEND PUSH1 0x40 DUP6 PUSH1 0xF SIGNEXTEND SWAP1 SHL DUP2 PUSH2 0x2185 JUMPI PUSH2 0x2185 PUSH2 0x38A9 JUMP JUMPDEST SDIV SWAP1 POP PUSH16 0x7FFFFFFFFFFFFFFFFFFFFFFFFFFFFFFF NOT DUP2 SLT DUP1 ISZERO SWAP1 PUSH2 0x21B0 JUMPI POP PUSH1 0x1 PUSH1 0x1 PUSH1 0x7F SHL SUB DUP2 SGT ISZERO JUMPDEST PUSH2 0xCB2 JUMPI PUSH0 DUP1 REVERT JUMPDEST PUSH0 PUSH9 0x400000000000000000 DUP3 PUSH1 0xF SIGNEXTEND SLT PUSH2 0x21D0 JUMPI PUSH0 DUP1 REVERT JUMPDEST PUSH9 0x3FFFFFFFFFFFFFFFFF NOT DUP3 PUSH1 0xF SIGNEXTEND SLT ISZERO PUSH2 0x21EC JUMPI POP PUSH0 SWAP2 SWAP1 POP JUMP JUMPDEST PUSH2 0x4C0 PUSH1 0x80 DUP4 PUSH1 0xF SIGNEXTEND PUSH17 0x171547652B82FE1777D0FFDA0D23A7D12 MUL SWAP1 SAR PUSH2 0x2672 JUMP JUMPDEST PUSH0 PUSH1 0xF DUP4 DUP2 SIGNEXTEND SWAP1 DUP4 SWAP1 SIGNEXTEND ADD PUSH16 0x7FFFFFFFFFFFFFFFFFFFFFFFFFFFFFFF NOT DUP2 SLT DUP1 ISZERO SWAP1 PUSH2 0x21B0 JUMPI POP PUSH1 0x1 PUSH1 0x1 PUSH1 0x7F SHL SUB DUP2 SGT ISZERO PUSH2 0xCB2 JUMPI PUSH0 DUP1 REVERT JUMPDEST PUSH0 DUP1 DUP3 PUSH1 0xF SIGNEXTEND SGT PUSH2 0x2258 JUMPI PUSH0 DUP1 REVERT JUMPDEST PUSH1 0x80 PUSH2 0x2263 DUP4 PUSH2 0x30F8 JUMP JUMPDEST PUSH1 0xF SIGNEXTEND PUSH16 0xB17217F7D1CF79ABC9E3B39803F2F6AF MUL SWAP1 SHR SWAP1 POP SWAP2 SWAP1 POP JUMP JUMPDEST PUSH0 PUSH1 0xF DUP4 DUP2 SIGNEXTEND SWAP1 DUP4 SWAP1 SIGNEXTEND MUL PUSH1 0x40 SAR PUSH16 0x7FFFFFFFFFFFFFFFFFFFFFFFFFFFFFFF NOT DUP2 SLT DUP1 ISZERO SWAP1 PUSH2 0x21B0 JUMPI POP PUSH1 0x1 PUSH1 0x1 PUSH1 0x7F SHL SUB DUP2 SGT ISZERO PUSH2 0xCB2 JUMPI PUSH0 DUP1 REVERT JUMPDEST PUSH0 SLOAD PUSH1 0x1 PUSH1 0x1 PUSH1 0xA0 SHL SUB AND CALLER EQ PUSH2 0xD7C JUMPI PUSH1 0x40 MLOAD PUSH4 0x118CDAA7 PUSH1 0xE0 SHL DUP2 MSTORE CALLER PUSH1 0x4 DUP3 ADD MSTORE PUSH1 0x24 ADD PUSH2 0x64C JUMP JUMPDEST PUSH1 0x40 MLOAD PUSH1 0x1 PUSH1 0x1 PUSH1 0xA0 SHL SUB DUP4 DUP2 AND PUSH1 0x24 DUP4 ADD MSTORE PUSH1 0x44 DUP3 ADD DUP4 SWAP1 MSTORE PUSH2 0x235E SWAP2 DUP6 SWAP2 DUP3 AND SWAP1 PUSH4 0xA9059CBB SWAP1 PUSH1 0x64 ADD JUMPDEST PUSH1 0x40 MLOAD PUSH1 0x20 DUP2 DUP4 SUB SUB DUP2 MSTORE SWAP1 PUSH1 0x40 MSTORE SWAP2 POP PUSH1 0xE0 SHL PUSH1 0x20 DUP3 ADD DUP1 MLOAD PUSH28 0xFFFFFFFFFFFFFFFFFFFFFFFFFFFFFFFFFFFFFFFFFFFFFFFFFFFFFFFF DUP4 DUP2 DUP4 AND OR DUP4 MSTORE POP POP POP POP PUSH2 0x31CD JUMP JUMPDEST POP POP POP JUMP JUMPDEST PUSH0 DUP2 PUSH0 SUB PUSH2 0x2372 JUMPI POP PUSH0 PUSH2 0x4C0 JUMP JUMPDEST PUSH0 DUP4 PUSH1 0xF SIGNEXTEND SLT ISZERO PUSH2 0x2381 JUMPI PUSH0 DUP1 REVERT JUMPDEST PUSH1 0xF DUP4 SWAP1 SIGNEXTEND PUSH1 0x1 PUSH1 0x1 PUSH1 0x80 SHL SUB DUP4 AND DUP2 MUL PUSH1 0x40 SHR SWAP1 PUSH1 0x80 DUP5 SWAP1 SHR MUL PUSH24 0xFFFFFFFFFFFFFFFFFFFFFFFFFFFFFFFFFFFFFFFFFFFFFFFF DUP2 GT ISZERO PUSH2 0x23C0 JUMPI PUSH0 DUP1 REVERT JUMPDEST PUSH1 0x40 SHL DUP2 NOT DUP2 GT ISZERO PUSH2 0x23D0 JUMPI PUSH0 DUP1 REVERT JUMPDEST ADD SWAP4 SWAP3 POP POP POP JUMP JUMPDEST PUSH1 0x40 MLOAD PUSH1 0x1 PUSH1 0x1 PUSH1 0xA0 SHL SUB DUP5 DUP2 AND PUSH1 0x24 DUP4 ADD MSTORE DUP4 DUP2 AND PUSH1 0x44 DUP4 ADD MSTORE PUSH1 0x64 DUP3 ADD DUP4 SWAP1 MSTORE PUSH2 0x2411 SWAP2 DUP7 SWAP2 DUP3 AND SWAP1 PUSH4 0x23B872DD SWAP1 PUSH1 0x84 ADD PUSH2 0x2317 JUMP JUMPDEST POP POP POP POP JUMP JUMPDEST PUSH0 PUSH8 0x7FFFFFFFFFFFFFFF DUP3 GT ISZERO PUSH2 0x242C JUMPI PUSH0 DUP1 REVERT JUMPDEST POP PUSH1 0x40 SHL SWAP1 JUMP JUMPDEST PUSH0 DUP1 SLOAD PUSH1 0x1 PUSH1 0x1 PUSH1 0xA0 SHL SUB DUP4 DUP2 AND PUSH32 0xFFFFFFFFFFFFFFFFFFFFFFFF0000000000000000000000000000000000000000 DUP4 AND DUP2 OR DUP5 SSTORE PUSH1 0x40 MLOAD SWAP2 SWAP1 SWAP3 AND SWAP3 DUP4 SWAP2 PUSH32 0x8BE0079C531659141344CD1FD0A4F28419497F9722A3DAAFE3B4186F6B6457E0 SWAP2 SWAP1 LOG3 POP POP JUMP JUMPDEST PUSH0 JUMPDEST DUP2 ISZERO PUSH2 0x24C3 JUMPI PUSH2 0x24AD PUSH1 0x1 DUP4 PUSH2 0x379D JUMP JUMPDEST SWAP1 SWAP2 AND SWAP1 DUP1 PUSH2 0x24BB DUP2 PUSH2 0x3833 JUMP JUMPDEST SWAP2 POP POP PUSH2 0x249C JUMP JUMPDEST SWAP2 SWAP1 POP JUMP JUMPDEST PUSH0 PUSH1 0xF DUP3 DUP2 SIGNEXTEND SWAP1 DUP5 SWAP1 SIGNEXTEND SUB PUSH16 0x7FFFFFFFFFFFFFFFFFFFFFFFFFFFFFFF NOT DUP2 SLT DUP1 ISZERO SWAP1 PUSH2 0x21B0 JUMPI POP PUSH1 0x1 PUSH1 0x1 PUSH1 0x7F SHL SUB DUP2 SGT ISZERO PUSH2 0xCB2 JUMPI PUSH0 DUP1 REVERT JUMPDEST PUSH0 DUP2 PUSH0 SUB PUSH2 0x250E JUMPI PUSH0 DUP1 REVERT JUMPDEST PUSH0 PUSH24 0xFFFFFFFFFFFFFFFFFFFFFFFFFFFFFFFFFFFFFFFFFFFFFFFF DUP5 GT PUSH2 0x2549 JUMPI DUP3 PUSH1 0x40 DUP6 SWAP1 SHL DUP2 PUSH2 0x2541 JUMPI PUSH2 0x2541 PUSH2 0x38A9 JUMP JUMPDEST DIV SWAP1 POP PUSH2 0x265F JUMP JUMPDEST PUSH1 0xC0 DUP5 DUP2 SHR PUSH5 0x100000000 DUP2 LT PUSH2 0x2562 JUMPI PUSH1 0x20 SWAP2 DUP3 ADD SWAP2 SHR JUMPDEST PUSH3 0x10000 DUP2 LT PUSH2 0x2574 JUMPI PUSH1 0x10 SWAP2 DUP3 ADD SWAP2 SHR JUMPDEST PUSH2 0x100 DUP2 LT PUSH2 0x2585 JUMPI PUSH1 0x8 SWAP2 DUP3 ADD SWAP2 SHR JUMPDEST PUSH1 0x10 DUP2 LT PUSH2 0x2595 JUMPI PUSH1 0x4 SWAP2 DUP3 ADD SWAP2 SHR JUMPDEST PUSH1 0x4 DUP2 LT PUSH2 0x25A5 JUMPI PUSH1 0x2 SWAP2 DUP3 ADD SWAP2 SHR JUMPDEST PUSH1 0x2 DUP2 LT PUSH2 0x25B4 JUMPI PUSH1 0x1 DUP3 ADD SWAP2 POP JUMPDEST PUSH1 0xBF DUP3 SUB PUSH1 0x1 DUP7 SUB SWAP1 SHR PUSH1 0x1 ADD DUP3 PUSH1 0xFF SUB DUP8 SWAP1 SHL DUP2 PUSH2 0x25D5 JUMPI PUSH2 0x25D5 PUSH2 0x38A9 JUMP JUMPDEST DIV SWAP3 POP PUSH1 0x1 PUSH1 0x1 PUSH1 0x80 SHL SUB DUP4 GT ISZERO PUSH2 0x25EB JUMPI PUSH0 DUP1 REVERT JUMPDEST PUSH1 0x80 DUP6 SWAP1 SHR DUP4 MUL PUSH1 0x1 PUSH1 0x1 PUSH1 0x80 SHL SUB DUP7 AND DUP5 MUL PUSH1 0xC0 DUP9 SWAP1 SHR PUSH1 0x40 DUP10 SWAP1 SHL DUP3 DUP2 LT ISZERO PUSH2 0x2617 JUMPI PUSH1 0x1 DUP3 SUB SWAP2 POP JUMPDEST PUSH1 0x80 DUP5 SWAP1 SHL SWAP3 SWAP1 SUB DUP3 DUP2 LT ISZERO PUSH2 0x262E JUMPI PUSH1 0x1 DUP3 SUB SWAP2 POP JUMPDEST DUP3 SWAP1 SUB PUSH1 0x80 DUP5 SWAP1 SHR DUP3 EQ PUSH2 0x2643 JUMPI PUSH1 0x1 PUSH2 0x2654 JUMP JUMPDEST DUP9 DUP2 DUP2 PUSH2 0x2652 JUMPI PUSH2 0x2652 PUSH2 0x38A9 JUMP JUMPDEST DIV JUMPDEST DUP8 ADD SWAP7 POP POP POP POP POP POP POP JUMPDEST PUSH1 0x1 PUSH1 0x1 PUSH1 0x80 SHL SUB DUP2 GT ISZERO PUSH2 0xCB2 JUMPI PUSH0 DUP1 REVERT JUMPDEST PUSH0 PUSH9 0x400000000000000000 DUP3 PUSH1 0xF SIGNEXTEND SLT PUSH2 0x268A JUMPI PUSH0 DUP1 REVERT JUMPDEST PUSH9 0x3FFFFFFFFFFFFFFFFF NOT DUP3 PUSH1 0xF SIGNEXTEND SLT ISZERO PUSH2 0x26A6 JUMPI POP PUSH0 SWAP2 SWAP1 POP JUMP JUMPDEST PUSH16 0x80000000000000000000000000000000 PUSH0 PUSH8 0x8000000000000000 DUP5 AND PUSH1 0xF SIGNEXTEND SGT ISZERO PUSH2 0x26E3 JUMPI PUSH17 0x16A09E667F3BCC908B2FB1366EA957D3E MUL PUSH1 0x80 SHR JUMPDEST PUSH0 DUP4 PUSH8 0x4000000000000000 AND PUSH1 0xF SIGNEXTEND SGT ISZERO PUSH2 0x270F JUMPI PUSH17 0x1306FE0A31B7152DE8D5A46305C85EDEC MUL PUSH1 0x80 SHR JUMPDEST PUSH0 DUP4 PUSH8 0x2000000000000000 AND PUSH1 0xF SIGNEXTEND SGT ISZERO PUSH2 0x273B JUMPI PUSH17 0x1172B83C7D517ADCDF7C8C50EB14A791F MUL PUSH1 0x80 SHR JUMPDEST PUSH0 DUP4 PUSH8 0x1000000000000000 AND PUSH1 0xF SIGNEXTEND SGT ISZERO PUSH2 0x2767 JUMPI PUSH17 0x10B5586CF9890F6298B92B71842A98363 MUL PUSH1 0x80 SHR JUMPDEST PUSH0 DUP4 PUSH8 0x800000000000000 AND PUSH1 0xF SIGNEXTEND SGT ISZERO PUSH2 0x2793 JUMPI PUSH17 0x1059B0D31585743AE7C548EB68CA417FD MUL PUSH1 0x80 SHR JUMPDEST PUSH0 DUP4 PUSH8 0x400000000000000 AND PUSH1 0xF SIGNEXTEND SGT ISZERO PUSH2 0x27BF JUMPI PUSH17 0x102C9A3E778060EE6F7CACA4F7A29BDE8 MUL PUSH1 0x80 SHR JUMPDEST PUSH0 DUP4 PUSH8 0x200000000000000 AND PUSH1 0xF SIGNEXTEND SGT ISZERO PUSH2 0x27EB JUMPI PUSH17 0x10163DA9FB33356D84A66AE336DCDFA3F MUL PUSH1 0x80 SHR JUMPDEST PUSH0 DUP4 PUSH8 0x100000000000000 AND PUSH1 0xF SIGNEXTEND SGT ISZERO PUSH2 0x2817 JUMPI PUSH17 0x100B1AFA5ABCBED6129AB13EC11DC9543 MUL PUSH1 0x80 SHR JUMPDEST PUSH0 DUP4 PUSH7 0x80000000000000 AND PUSH1 0xF SIGNEXTEND SGT ISZERO PUSH2 0x2842 JUMPI PUSH17 0x10058C86DA1C09EA1FF19D294CF2F679B MUL PUSH1 0x80 SHR JUMPDEST PUSH0 DUP4 PUSH7 0x40000000000000 AND PUSH1 0xF SIGNEXTEND SGT ISZERO PUSH2 0x286D JUMPI PUSH17 0x1002C605E2E8CEC506D21BFC89A23A00F MUL PUSH1 0x80 SHR JUMPDEST PUSH0 DUP4 PUSH7 0x20000000000000 AND PUSH1 0xF SIGNEXTEND SGT ISZERO PUSH2 0x2898 JUMPI PUSH17 0x100162F3904051FA128BCA9C55C31E5DF MUL PUSH1 0x80 SHR JUMPDEST PUSH0 DUP4 PUSH7 0x10000000000000 AND PUSH1 0xF SIGNEXTEND SGT ISZERO PUSH2 0x28C3 JUMPI PUSH17 0x1000B175EFFDC76BA38E31671CA939725 MUL PUSH1 0x80 SHR JUMPDEST PUSH0 DUP4 PUSH7 0x8000000000000 AND PUSH1 0xF SIGNEXTEND SGT ISZERO PUSH2 0x28EE JUMPI PUSH17 0x100058BA01FB9F96D6CACD4B180917C3D MUL PUSH1 0x80 SHR JUMPDEST PUSH0 DUP4 PUSH7 0x4000000000000 AND PUSH1 0xF SIGNEXTEND SGT ISZERO PUSH2 0x2919 JUMPI PUSH17 0x10002C5CC37DA9491D0985C348C68E7B3 MUL PUSH1 0x80 SHR JUMPDEST PUSH0 DUP4 PUSH7 0x2000000000000 AND PUSH1 0xF SIGNEXTEND SGT ISZERO PUSH2 0x2944 JUMPI PUSH17 0x1000162E525EE054754457D5995292026 MUL PUSH1 0x80 SHR JUMPDEST PUSH0 DUP4 PUSH7 0x1000000000000 AND PUSH1 0xF SIGNEXTEND SGT ISZERO PUSH2 0x296F JUMPI PUSH17 0x10000B17255775C040618BF4A4ADE83FC MUL PUSH1 0x80 SHR JUMPDEST PUSH0 DUP4 PUSH6 0x800000000000 AND PUSH1 0xF SIGNEXTEND SGT ISZERO PUSH2 0x2999 JUMPI PUSH17 0x1000058B91B5BC9AE2EED81E9B7D4CFAB MUL PUSH1 0x80 SHR JUMPDEST PUSH0 DUP4 PUSH6 0x400000000000 AND PUSH1 0xF SIGNEXTEND SGT ISZERO PUSH2 0x29C3 JUMPI PUSH17 0x100002C5C89D5EC6CA4D7C8ACC017B7C9 MUL PUSH1 0x80 SHR JUMPDEST PUSH0 DUP4 PUSH6 0x200000000000 AND PUSH1 0xF SIGNEXTEND SGT ISZERO PUSH2 0x29ED JUMPI PUSH17 0x10000162E43F4F831060E02D839A9D16D MUL PUSH1 0x80 SHR JUMPDEST PUSH0 DUP4 PUSH6 0x100000000000 AND PUSH1 0xF SIGNEXTEND SGT ISZERO PUSH2 0x2A17 JUMPI PUSH17 0x100000B1721BCFC99D9F890EA06911763 MUL PUSH1 0x80 SHR JUMPDEST PUSH0 DUP4 PUSH6 0x80000000000 AND PUSH1 0xF SIGNEXTEND SGT ISZERO PUSH2 0x2A41 JUMPI PUSH17 0x10000058B90CF1E6D97F9CA14DBCC1628 MUL PUSH1 0x80 SHR JUMPDEST PUSH0 DUP4 PUSH6 0x40000000000 AND PUSH1 0xF SIGNEXTEND SGT ISZERO PUSH2 0x2A6B JUMPI PUSH17 0x1000002C5C863B73F016468F6BAC5CA2B MUL PUSH1 0x80 SHR JUMPDEST PUSH0 DUP4 PUSH6 0x20000000000 AND PUSH1 0xF SIGNEXTEND SGT ISZERO PUSH2 0x2A95 JUMPI PUSH17 0x100000162E430E5A18F6119E3C02282A5 MUL PUSH1 0x80 SHR JUMPDEST PUSH0 DUP4 PUSH6 0x10000000000 AND PUSH1 0xF SIGNEXTEND SGT ISZERO PUSH2 0x2ABF JUMPI PUSH17 0x1000000B1721835514B86E6D96EFD1BFE MUL PUSH1 0x80 SHR JUMPDEST PUSH0 DUP4 PUSH5 0x8000000000 AND PUSH1 0xF SIGNEXTEND SGT ISZERO PUSH2 0x2AE8 JUMPI PUSH17 0x100000058B90C0B48C6BE5DF846C5B2EF MUL PUSH1 0x80 SHR JUMPDEST PUSH0 DUP4 PUSH5 0x4000000000 AND PUSH1 0xF SIGNEXTEND SGT ISZERO PUSH2 0x2B11 JUMPI PUSH17 0x10000002C5C8601CC6B9E94213C72737A MUL PUSH1 0x80 SHR JUMPDEST PUSH0 DUP4 PUSH5 0x2000000000 AND PUSH1 0xF SIGNEXTEND SGT ISZERO PUSH2 0x2B3A JUMPI PUSH17 0x1000000162E42FFF037DF38AA2B219F06 MUL PUSH1 0x80 SHR JUMPDEST PUSH0 DUP4 PUSH5 0x1000000000 AND PUSH1 0xF SIGNEXTEND SGT ISZERO PUSH2 0x2B63 JUMPI PUSH17 0x10000000B17217FBA9C739AA5819F44F9 MUL PUSH1 0x80 SHR JUMPDEST PUSH0 DUP4 PUSH5 0x800000000 AND PUSH1 0xF SIGNEXTEND SGT ISZERO PUSH2 0x2B8C JUMPI PUSH17 0x1000000058B90BFCDEE5ACD3C1CEDC823 MUL PUSH1 0x80 SHR JUMPDEST PUSH0 DUP4 PUSH5 0x400000000 AND PUSH1 0xF SIGNEXTEND SGT ISZERO PUSH2 0x2BB5 JUMPI PUSH17 0x100000002C5C85FE31F35A6A30DA1BE50 MUL PUSH1 0x80 SHR JUMPDEST PUSH0 DUP4 PUSH5 0x200000000 AND PUSH1 0xF SIGNEXTEND SGT ISZERO PUSH2 0x2BDE JUMPI PUSH17 0x10000000162E42FF0999CE3541B9FFFCF MUL PUSH1 0x80 SHR JUMPDEST PUSH0 DUP4 PUSH5 0x100000000 AND PUSH1 0xF SIGNEXTEND SGT ISZERO PUSH2 0x2C07 JUMPI PUSH17 0x100000000B17217F80F4EF5AADDA45554 MUL PUSH1 0x80 SHR JUMPDEST PUSH0 DUP4 PUSH4 0x80000000 AND PUSH1 0xF SIGNEXTEND SGT ISZERO PUSH2 0x2C2F JUMPI PUSH17 0x10000000058B90BFBF8479BD5A81B51AD MUL PUSH1 0x80 SHR JUMPDEST PUSH0 DUP4 PUSH4 0x40000000 AND PUSH1 0xF SIGNEXTEND SGT ISZERO PUSH2 0x2C57 JUMPI PUSH17 0x1000000002C5C85FDF84BD62AE30A74CC MUL PUSH1 0x80 SHR JUMPDEST PUSH0 DUP4 PUSH4 0x20000000 AND PUSH1 0xF SIGNEXTEND SGT ISZERO PUSH2 0x2C7F JUMPI PUSH17 0x100000000162E42FEFB2FED257559BDAA MUL PUSH1 0x80 SHR JUMPDEST PUSH0 DUP4 PUSH4 0x10000000 AND PUSH1 0xF SIGNEXTEND SGT ISZERO PUSH2 0x2CA7 JUMPI PUSH17 0x1000000000B17217F7D5A7716BBA4A9AE MUL PUSH1 0x80 SHR JUMPDEST PUSH0 DUP4 PUSH4 0x8000000 AND PUSH1 0xF SIGNEXTEND SGT ISZERO PUSH2 0x2CCF JUMPI PUSH17 0x100000000058B90BFBE9DDBAC5E109CCE MUL PUSH1 0x80 SHR JUMPDEST PUSH0 DUP4 PUSH4 0x4000000 AND PUSH1 0xF SIGNEXTEND SGT ISZERO PUSH2 0x2CF7 JUMPI PUSH17 0x10000000002C5C85FDF4B15DE6F17EB0D MUL PUSH1 0x80 SHR JUMPDEST PUSH0 DUP4 PUSH4 0x2000000 AND PUSH1 0xF SIGNEXTEND SGT ISZERO PUSH2 0x2D1F JUMPI PUSH17 0x1000000000162E42FEFA494F1478FDE05 MUL PUSH1 0x80 SHR JUMPDEST PUSH0 DUP4 PUSH4 0x1000000 AND PUSH1 0xF SIGNEXTEND SGT ISZERO PUSH2 0x2D47 JUMPI PUSH17 0x10000000000B17217F7D20CF927C8E94C MUL PUSH1 0x80 SHR JUMPDEST PUSH0 DUP4 PUSH3 0x800000 AND PUSH1 0xF SIGNEXTEND SGT ISZERO PUSH2 0x2D6E JUMPI PUSH17 0x1000000000058B90BFBE8F71CB4E4B33D MUL PUSH1 0x80 SHR JUMPDEST PUSH0 DUP4 PUSH3 0x400000 AND PUSH1 0xF SIGNEXTEND SGT ISZERO PUSH2 0x2D95 JUMPI PUSH17 0x100000000002C5C85FDF477B662B26945 MUL PUSH1 0x80 SHR JUMPDEST PUSH0 DUP4 PUSH3 0x200000 AND PUSH1 0xF SIGNEXTEND SGT ISZERO PUSH2 0x2DBC JUMPI PUSH17 0x10000000000162E42FEFA3AE53369388C MUL PUSH1 0x80 SHR JUMPDEST PUSH0 DUP4 PUSH3 0x100000 AND PUSH1 0xF SIGNEXTEND SGT ISZERO PUSH2 0x2DE3 JUMPI PUSH17 0x100000000000B17217F7D1D351A389D40 MUL PUSH1 0x80 SHR JUMPDEST PUSH0 DUP4 PUSH3 0x80000 AND PUSH1 0xF SIGNEXTEND SGT ISZERO PUSH2 0x2E0A JUMPI PUSH17 0x10000000000058B90BFBE8E8B2D3D4EDE MUL PUSH1 0x80 SHR JUMPDEST PUSH0 DUP4 PUSH3 0x40000 AND PUSH1 0xF SIGNEXTEND SGT ISZERO PUSH2 0x2E31 JUMPI PUSH17 0x1000000000002C5C85FDF4741BEA6E77E MUL PUSH1 0x80 SHR JUMPDEST PUSH0 DUP4 PUSH3 0x20000 AND PUSH1 0xF SIGNEXTEND SGT ISZERO PUSH2 0x2E58 JUMPI PUSH17 0x100000000000162E42FEFA39FE95583C2 MUL PUSH1 0x80 SHR JUMPDEST PUSH0 DUP4 PUSH3 0x10000 AND PUSH1 0xF SIGNEXTEND SGT ISZERO PUSH2 0x2E7F JUMPI PUSH17 0x1000000000000B17217F7D1CFB72B45E1 MUL PUSH1 0x80 SHR JUMPDEST PUSH0 DUP4 PUSH2 0x8000 AND PUSH1 0xF SIGNEXTEND SGT ISZERO PUSH2 0x2EA5 JUMPI PUSH17 0x100000000000058B90BFBE8E7CC35C3F0 MUL PUSH1 0x80 SHR JUMPDEST PUSH0 DUP4 PUSH2 0x4000 AND PUSH1 0xF SIGNEXTEND SGT ISZERO PUSH2 0x2ECB JUMPI PUSH17 0x10000000000002C5C85FDF473E242EA38 MUL PUSH1 0x80 SHR JUMPDEST PUSH0 DUP4 PUSH2 0x2000 AND PUSH1 0xF SIGNEXTEND SGT ISZERO PUSH2 0x2EF1 JUMPI PUSH17 0x1000000000000162E42FEFA39F02B772C MUL PUSH1 0x80 SHR JUMPDEST PUSH0 DUP4 PUSH2 0x1000 AND PUSH1 0xF SIGNEXTEND SGT ISZERO PUSH2 0x2F17 JUMPI PUSH17 0x10000000000000B17217F7D1CF7D83C1A MUL PUSH1 0x80 SHR JUMPDEST PUSH0 DUP4 PUSH2 0x800 AND PUSH1 0xF SIGNEXTEND SGT ISZERO PUSH2 0x2F3D JUMPI PUSH17 0x1000000000000058B90BFBE8E7BDCBE2E MUL PUSH1 0x80 SHR JUMPDEST PUSH0 DUP4 PUSH2 0x400 AND PUSH1 0xF SIGNEXTEND SGT ISZERO PUSH2 0x2F63 JUMPI PUSH17 0x100000000000002C5C85FDF473DEA871F MUL PUSH1 0x80 SHR JUMPDEST PUSH0 DUP4 PUSH2 0x200 AND PUSH1 0xF SIGNEXTEND SGT ISZERO PUSH2 0x2F89 JUMPI PUSH17 0x10000000000000162E42FEFA39EF44D91 MUL PUSH1 0x80 SHR JUMPDEST PUSH0 DUP4 PUSH2 0x100 AND PUSH1 0xF SIGNEXTEND SGT ISZERO PUSH2 0x2FAF JUMPI PUSH17 0x100000000000000B17217F7D1CF79E949 MUL PUSH1 0x80 SHR JUMPDEST PUSH0 DUP4 PUSH1 0x80 AND PUSH1 0xF SIGNEXTEND SGT ISZERO PUSH2 0x2FD4 JUMPI PUSH17 0x10000000000000058B90BFBE8E7BCE544 MUL PUSH1 0x80 SHR JUMPDEST PUSH0 DUP4 PUSH1 0x40 AND PUSH1 0xF SIGNEXTEND SGT ISZERO PUSH2 0x2FF9 JUMPI PUSH17 0x1000000000000002C5C85FDF473DE6ECA MUL PUSH1 0x80 SHR JUMPDEST PUSH0 DUP4 PUSH1 0x20 AND PUSH1 0xF SIGNEXTEND SGT ISZERO PUSH2 0x301E JUMPI PUSH17 0x100000000000000162E42FEFA39EF366F MUL PUSH1 0x80 SHR JUMPDEST PUSH0 DUP4 PUSH1 0x10 AND PUSH1 0xF SIGNEXTEND SGT ISZERO PUSH2 0x3043 JUMPI PUSH17 0x1000000000000000B17217F7D1CF79AFA MUL PUSH1 0x80 SHR JUMPDEST PUSH0 DUP4 PUSH1 0x8 AND PUSH1 0xF SIGNEXTEND SGT ISZERO PUSH2 0x3068 JUMPI PUSH17 0x100000000000000058B90BFBE8E7BCD6D MUL PUSH1 0x80 SHR JUMPDEST PUSH0 DUP4 PUSH1 0x4 AND PUSH1 0xF SIGNEXTEND SGT ISZERO PUSH2 0x308D JUMPI PUSH17 0x10000000000000002C5C85FDF473DE6B2 MUL PUSH1 0x80 SHR JUMPDEST PUSH0 DUP4 PUSH1 0x2 AND PUSH1 0xF SIGNEXTEND SGT ISZERO PUSH2 0x30B2 JUMPI PUSH17 0x1000000000000000162E42FEFA39EF358 MUL PUSH1 0x80 SHR JUMPDEST PUSH0 DUP4 PUSH1 0x1 AND PUSH1 0xF SIGNEXTEND SGT ISZERO PUSH2 0x30D7 JUMPI PUSH17 0x10000000000000000B17217F7D1CF79AB MUL PUSH1 0x80 SHR JUMPDEST PUSH1 0xF DUP4 DUP2 SIGNEXTEND PUSH1 0x40 SAR PUSH1 0x3F SUB SWAP1 SIGNEXTEND SHR PUSH1 0x1 PUSH1 0x1 PUSH1 0x7F SHL SUB DUP2 GT ISZERO PUSH2 0x4C0 JUMPI PUSH0 DUP1 REVERT JUMPDEST PUSH0 DUP1 DUP3 PUSH1 0xF SIGNEXTEND SGT PUSH2 0x3107 JUMPI PUSH0 DUP1 REVERT JUMPDEST PUSH0 PUSH1 0xF DUP4 SWAP1 SIGNEXTEND PUSH9 0x10000000000000000 DUP2 SLT PUSH2 0x3125 JUMPI PUSH1 0x40 SWAP2 DUP3 ADD SWAP2 SAR JUMPDEST PUSH5 0x100000000 DUP2 SLT PUSH2 0x3139 JUMPI PUSH1 0x20 SWAP2 DUP3 ADD SWAP2 SAR JUMPDEST PUSH3 0x10000 DUP2 SLT PUSH2 0x314B JUMPI PUSH1 0x10 SWAP2 DUP3 ADD SWAP2 SAR JUMPDEST PUSH2 0x100 DUP2 SLT PUSH2 0x315C JUMPI PUSH1 0x8 SWAP2 DUP3 ADD SWAP2 SAR JUMPDEST PUSH1 0x10 DUP2 SLT PUSH2 0x316C JUMPI PUSH1 0x4 SWAP2 DUP3 ADD SWAP2 SAR JUMPDEST PUSH1 0x4 DUP2 SLT PUSH2 0x317C JUMPI PUSH1 0x2 SWAP2 DUP3 ADD SWAP2 SAR JUMPDEST PUSH1 0x2 DUP2 SLT PUSH2 0x318B JUMPI PUSH1 0x1 DUP3 ADD SWAP2 POP JUMPDEST PUSH1 0x3F NOT DUP3 ADD PUSH1 0x40 SHL PUSH1 0xF DUP6 SWAP1 SIGNEXTEND PUSH1 0x7F DUP5 SWAP1 SUB SHL PUSH8 0x8000000000000000 JUMPDEST PUSH0 DUP2 SGT ISZERO PUSH2 0x102A JUMPI SWAP1 DUP1 MUL PUSH1 0xFF DUP2 SWAP1 SHR DUP3 DUP2 MUL SWAP4 SWAP1 SWAP4 ADD SWAP3 PUSH1 0x7F ADD SHR SWAP1 PUSH1 0x1 SAR PUSH2 0x31A8 JUMP JUMPDEST PUSH0 DUP1 PUSH1 0x20 PUSH0 DUP5 MLOAD PUSH1 0x20 DUP7 ADD PUSH0 DUP9 GAS CALL DUP1 PUSH2 0x31EC JUMPI PUSH1 0x40 MLOAD RETURNDATASIZE PUSH0 DUP3 RETURNDATACOPY RETURNDATASIZE DUP2 REVERT JUMPDEST POP POP PUSH0 MLOAD RETURNDATASIZE SWAP2 POP DUP2 ISZERO PUSH2 0x3203 JUMPI DUP1 PUSH1 0x1 EQ ISZERO PUSH2 0x3210 JUMP JUMPDEST PUSH1 0x1 PUSH1 0x1 PUSH1 0xA0 SHL SUB DUP5 AND EXTCODESIZE ISZERO JUMPDEST ISZERO PUSH2 0x2411 JUMPI PUSH1 0x40 MLOAD PUSH4 0x5274AFE7 PUSH1 0xE0 SHL DUP2 MSTORE PUSH1 0x1 PUSH1 0x1 PUSH1 0xA0 SHL SUB DUP6 AND PUSH1 0x4 DUP3 ADD MSTORE PUSH1 0x24 ADD PUSH2 0x64C JUMP JUMPDEST PUSH0 PUSH1 0x20 DUP3 DUP5 SUB SLT ISZERO PUSH2 0x3249 JUMPI PUSH0 DUP1 REVERT JUMPDEST DUP2 CALLDATALOAD PUSH1 0x1 PUSH1 0x1 PUSH1 0xE0 SHL SUB NOT DUP2 AND DUP2 EQ PUSH2 0xCB2 JUMPI PUSH0 DUP1 REVERT JUMPDEST DUP1 CALLDATALOAD PUSH1 0x1 PUSH1 0x1 PUSH1 0xA0 SHL SUB DUP2 AND DUP2 EQ PUSH2 0x24C3 JUMPI PUSH0 DUP1 REVERT JUMPDEST PUSH0 DUP1 PUSH1 0x40 DUP4 DUP6 SUB SLT ISZERO PUSH2 0x3287 JUMPI PUSH0 DUP1 REVERT JUMPDEST PUSH2 0x3290 DUP4 PUSH2 0x3260 JUMP JUMPDEST SWAP5 PUSH1 0x20 SWAP4 SWAP1 SWAP4 ADD CALLDATALOAD SWAP4 POP POP POP JUMP JUMPDEST DUP1 CALLDATALOAD PUSH1 0xF DUP2 SWAP1 SIGNEXTEND DUP2 EQ PUSH2 0x24C3 JUMPI PUSH0 DUP1 REVERT JUMPDEST PUSH0 DUP1 PUSH1 0x40 DUP4 DUP6 SUB SLT ISZERO PUSH2 0x32C0 JUMPI PUSH0 DUP1 REVERT JUMPDEST PUSH2 0x32C9 DUP4 PUSH2 0x3260 JUMP JUMPDEST SWAP2 POP PUSH2 0x32D7 PUSH1 0x20 DUP5 ADD PUSH2 0x329E JUMP JUMPDEST SWAP1 POP SWAP3 POP SWAP3 SWAP1 POP JUMP JUMPDEST PUSH0 PUSH1 0x20 DUP3 DUP5 SUB SLT ISZERO PUSH2 0x32F0 JUMPI PUSH0 DUP1 REVERT JUMPDEST POP CALLDATALOAD SWAP2 SWAP1 POP JUMP JUMPDEST PUSH4 0x4E487B71 PUSH1 0xE0 SHL PUSH0 MSTORE PUSH1 0x41 PUSH1 0x4 MSTORE PUSH1 0x24 PUSH0 REVERT JUMPDEST PUSH0 PUSH1 0x20 DUP3 DUP5 SUB SLT ISZERO PUSH2 0x331B JUMPI PUSH0 DUP1 REVERT JUMPDEST DUP2 CALLDATALOAD PUSH8 0xFFFFFFFFFFFFFFFF DUP1 DUP3 GT ISZERO PUSH2 0x3332 JUMPI PUSH0 DUP1 REVERT JUMPDEST DUP2 DUP5 ADD SWAP2 POP DUP5 PUSH1 0x1F DUP4 ADD SLT PUSH2 0x3345 JUMPI PUSH0 DUP1 REVERT JUMPDEST DUP2 CALLDATALOAD DUP2 DUP2 GT ISZERO PUSH2 0x3357 JUMPI PUSH2 0x3357 PUSH2 0x32F7 JUMP JUMPDEST PUSH1 0x40 MLOAD PUSH1 0x1F DUP3 ADD PUSH1 0x1F NOT SWAP1 DUP2 AND PUSH1 0x3F ADD AND DUP2 ADD SWAP1 DUP4 DUP3 GT DUP2 DUP4 LT OR ISZERO PUSH2 0x337F JUMPI PUSH2 0x337F PUSH2 0x32F7 JUMP JUMPDEST DUP2 PUSH1 0x40 MSTORE DUP3 DUP2 MSTORE DUP8 PUSH1 0x20 DUP5 DUP8 ADD ADD GT ISZERO PUSH2 0x3397 JUMPI PUSH0 DUP1 REVERT JUMPDEST DUP3 PUSH1 0x20 DUP7 ADD PUSH1 0x20 DUP4 ADD CALLDATACOPY PUSH0 SWAP3 DUP2 ADD PUSH1 0x20 ADD SWAP3 SWAP1 SWAP3 MSTORE POP SWAP6 SWAP5 POP POP POP POP POP JUMP JUMPDEST PUSH0 DUP1 PUSH1 0x40 DUP4 DUP6 SUB SLT ISZERO PUSH2 0x33C7 JUMPI PUSH0 DUP1 REVERT JUMPDEST DUP3 CALLDATALOAD SWAP2 POP PUSH2 0x32D7 PUSH1 0x20 DUP5 ADD PUSH2 0x329E JUMP JUMPDEST PUSH0 DUP2 MLOAD DUP1 DUP5 MSTORE PUSH1 0x20 DUP1 DUP6 ADD SWAP5 POP PUSH1 0x20 DUP5 ADD PUSH0 JUMPDEST DUP4 DUP2 LT ISZERO PUSH2 0x3406 JUMPI DUP2 MLOAD DUP8 MSTORE SWAP6 DUP3 ADD SWAP6 SWAP1 DUP3 ADD SWAP1 PUSH1 0x1 ADD PUSH2 0x33EA JUMP JUMPDEST POP SWAP5 SWAP6 SWAP5 POP POP POP POP POP JUMP JUMPDEST PUSH1 0x20 DUP2 MSTORE PUSH0 PUSH2 0xCB2 PUSH1 0x20 DUP4 ADD DUP5 PUSH2 0x33D7 JUMP JUMPDEST PUSH0 DUP1 PUSH0 DUP1 PUSH0 PUSH1 0xA0 DUP7 DUP9 SUB SLT ISZERO PUSH2 0x3437 JUMPI PUSH0 DUP1 REVERT JUMPDEST PUSH2 0x3440 DUP7 PUSH2 0x3260 JUMP JUMPDEST SWAP8 PUSH1 0x20 DUP8 ADD CALLDATALOAD SWAP8 POP PUSH1 0x40 DUP8 ADD CALLDATALOAD SWAP7 PUSH1 0x60 DUP2 ADD CALLDATALOAD SWAP7 POP PUSH1 0x80 ADD CALLDATALOAD SWAP5 POP SWAP3 POP POP POP JUMP JUMPDEST PUSH0 DUP1 DUP4 PUSH1 0x1F DUP5 ADD SLT PUSH2 0x3471 JUMPI PUSH0 DUP1 REVERT JUMPDEST POP DUP2 CALLDATALOAD PUSH8 0xFFFFFFFFFFFFFFFF DUP2 GT ISZERO PUSH2 0x3488 JUMPI PUSH0 DUP1 REVERT JUMPDEST PUSH1 0x20 DUP4 ADD SWAP2 POP DUP4 PUSH1 0x20 DUP3 PUSH1 0x5 SHL DUP6 ADD ADD GT ISZERO PUSH2 0x34A2 JUMPI PUSH0 DUP1 REVERT JUMPDEST SWAP3 POP SWAP3 SWAP1 POP JUMP JUMPDEST PUSH0 DUP1 DUP4 PUSH1 0x1F DUP5 ADD SLT PUSH2 0x34B9 JUMPI PUSH0 DUP1 REVERT JUMPDEST POP DUP2 CALLDATALOAD PUSH8 0xFFFFFFFFFFFFFFFF DUP2 GT ISZERO PUSH2 0x34D0 JUMPI PUSH0 DUP1 REVERT JUMPDEST PUSH1 0x20 DUP4 ADD SWAP2 POP DUP4 PUSH1 0x20 DUP3 DUP6 ADD ADD GT ISZERO PUSH2 0x34A2 JUMPI PUSH0 DUP1 REVERT JUMPDEST PUSH0 DUP1 PUSH0 DUP1 PUSH0 DUP1 PUSH0 DUP1 PUSH1 0xA0 DUP10 DUP12 SUB SLT ISZERO PUSH2 0x34FE JUMPI PUSH0 DUP1 REVERT JUMPDEST PUSH2 0x3507 DUP10 PUSH2 0x3260 JUMP JUMPDEST SWAP8 POP PUSH2 0x3515 PUSH1 0x20 DUP11 ADD PUSH2 0x3260 JUMP JUMPDEST SWAP7 POP PUSH1 0x40 DUP10 ADD CALLDATALOAD PUSH8 0xFFFFFFFFFFFFFFFF DUP1 DUP3 GT ISZERO PUSH2 0x3531 JUMPI PUSH0 DUP1 REVERT JUMPDEST PUSH2 0x353D DUP13 DUP4 DUP14 ADD PUSH2 0x3461 JUMP JUMPDEST SWAP1 SWAP9 POP SWAP7 POP PUSH1 0x60 DUP12 ADD CALLDATALOAD SWAP2 POP DUP1 DUP3 GT ISZERO PUSH2 0x3555 JUMPI PUSH0 DUP1 REVERT JUMPDEST PUSH2 0x3561 DUP13 DUP4 DUP14 ADD PUSH2 0x3461 JUMP JUMPDEST SWAP1 SWAP7 POP SWAP5 POP PUSH1 0x80 DUP12 ADD CALLDATALOAD SWAP2 POP DUP1 DUP3 GT ISZERO PUSH2 0x3579 JUMPI PUSH0 DUP1 REVERT JUMPDEST POP PUSH2 0x3586 DUP12 DUP3 DUP13 ADD PUSH2 0x34A9 JUMP JUMPDEST SWAP10 SWAP13 SWAP9 SWAP12 POP SWAP7 SWAP10 POP SWAP5 SWAP8 SWAP4 SWAP7 SWAP3 SWAP6 SWAP5 POP POP POP JUMP JUMPDEST PUSH0 DUP1 PUSH0 DUP1 PUSH0 DUP1 PUSH1 0xA0 DUP8 DUP10 SUB SLT ISZERO PUSH2 0x35AF JUMPI PUSH0 DUP1 REVERT JUMPDEST PUSH2 0x35B8 DUP8 PUSH2 0x3260 JUMP JUMPDEST SWAP6 POP PUSH2 0x35C6 PUSH1 0x20 DUP9 ADD PUSH2 0x3260 JUMP JUMPDEST SWAP5 POP PUSH1 0x40 DUP8 ADD CALLDATALOAD SWAP4 POP PUSH1 0x60 DUP8 ADD CALLDATALOAD SWAP3 POP PUSH1 0x80 DUP8 ADD CALLDATALOAD PUSH8 0xFFFFFFFFFFFFFFFF DUP2 GT ISZERO PUSH2 0x35EF JUMPI PUSH0 DUP1 REVERT JUMPDEST PUSH2 0x35FB DUP10 DUP3 DUP11 ADD PUSH2 0x34A9 JUMP JUMPDEST SWAP8 SWAP11 SWAP7 SWAP10 POP SWAP5 SWAP8 POP SWAP3 SWAP6 SWAP4 SWAP5 SWAP3 POP POP POP JUMP JUMPDEST PUSH0 PUSH1 0x20 DUP3 DUP5 SUB SLT ISZERO PUSH2 0x361D JUMPI PUSH0 DUP1 REVERT JUMPDEST PUSH2 0xCB2 DUP3 PUSH2 0x3260 JUMP JUMPDEST PUSH0 PUSH1 0x20 DUP3 DUP5 SUB SLT ISZERO PUSH2 0x3636 JUMPI PUSH0 DUP1 REVERT JUMPDEST DUP2 MLOAD PUSH1 0xFF DUP2 AND DUP2 EQ PUSH2 0xCB2 JUMPI PUSH0 DUP1 REVERT JUMPDEST PUSH4 0x4E487B71 PUSH1 0xE0 SHL PUSH0 MSTORE PUSH1 0x11 PUSH1 0x4 MSTORE PUSH1 0x24 PUSH0 REVERT JUMPDEST PUSH1 0x1 DUP2 DUP2 JUMPDEST DUP1 DUP6 GT ISZERO PUSH2 0x3694 JUMPI DUP2 PUSH0 NOT DIV DUP3 GT ISZERO PUSH2 0x367A JUMPI PUSH2 0x367A PUSH2 0x3646 JUMP JUMPDEST DUP1 DUP6 AND ISZERO PUSH2 0x3687 JUMPI SWAP2 DUP2 MUL SWAP2 JUMPDEST SWAP4 DUP5 SHR SWAP4 SWAP1 DUP1 MUL SWAP1 PUSH2 0x365F JUMP JUMPDEST POP SWAP3 POP SWAP3 SWAP1 POP JUMP JUMPDEST PUSH0 DUP3 PUSH2 0x36AA JUMPI POP PUSH1 0x1 PUSH2 0x4C0 JUMP JUMPDEST DUP2 PUSH2 0x36B6 JUMPI POP PUSH0 PUSH2 0x4C0 JUMP JUMPDEST DUP2 PUSH1 0x1 DUP2 EQ PUSH2 0x36CC JUMPI PUSH1 0x2 DUP2 EQ PUSH2 0x36D6 JUMPI PUSH2 0x36F2 JUMP JUMPDEST PUSH1 0x1 SWAP2 POP POP PUSH2 0x4C0 JUMP JUMPDEST PUSH1 0xFF DUP5 GT ISZERO PUSH2 0x36E7 JUMPI PUSH2 0x36E7 PUSH2 0x3646 JUMP JUMPDEST POP POP PUSH1 0x1 DUP3 SHL PUSH2 0x4C0 JUMP JUMPDEST POP PUSH1 0x20 DUP4 LT PUSH2 0x133 DUP4 LT AND PUSH1 0x4E DUP5 LT PUSH1 0xB DUP5 LT AND OR ISZERO PUSH2 0x3715 JUMPI POP DUP2 DUP2 EXP PUSH2 0x4C0 JUMP JUMPDEST PUSH2 0x371F DUP4 DUP4 PUSH2 0x365A JUMP JUMPDEST DUP1 PUSH0 NOT DIV DUP3 GT ISZERO PUSH2 0x3732 JUMPI PUSH2 0x3732 PUSH2 0x3646 JUMP JUMPDEST MUL SWAP4 SWAP3 POP POP POP JUMP JUMPDEST PUSH0 PUSH2 0xCB2 DUP4 DUP4 PUSH2 0x369C JUMP JUMPDEST PUSH4 0x4E487B71 PUSH1 0xE0 SHL PUSH0 MSTORE PUSH1 0x32 PUSH1 0x4 MSTORE PUSH1 0x24 PUSH0 REVERT JUMPDEST PUSH0 PUSH1 0x20 DUP3 DUP5 SUB SLT ISZERO PUSH2 0x3769 JUMPI PUSH0 DUP1 REVERT JUMPDEST POP MLOAD SWAP2 SWAP1 POP JUMP JUMPDEST PUSH1 0x1 PUSH1 0x1 PUSH1 0xA0 SHL SUB DUP6 AND DUP2 MSTORE DUP4 PUSH1 0x20 DUP3 ADD MSTORE DUP3 PUSH1 0x40 DUP3 ADD MSTORE PUSH1 0x80 PUSH1 0x60 DUP3 ADD MSTORE PUSH0 PUSH2 0x895 PUSH1 0x80 DUP4 ADD DUP5 PUSH2 0x33D7 JUMP JUMPDEST DUP2 DUP2 SUB DUP2 DUP2 GT ISZERO PUSH2 0x4C0 JUMPI PUSH2 0x4C0 PUSH2 0x3646 JUMP JUMPDEST PUSH0 DUP3 MLOAD DUP1 PUSH1 0x20 DUP6 ADD DUP5 MCOPY PUSH0 SWAP3 ADD SWAP2 DUP3 MSTORE POP SWAP2 SWAP1 POP JUMP JUMPDEST PUSH0 DUP2 PUSH1 0xF SIGNEXTEND PUSH1 0x1 PUSH1 0x1 PUSH1 0x7F SHL SUB NOT DUP2 SUB PUSH2 0x37E2 JUMPI PUSH2 0x37E2 PUSH2 0x3646 JUMP JUMPDEST PUSH0 SUB SWAP3 SWAP2 POP POP JUMP JUMPDEST PUSH1 0xF DUP3 DUP2 SIGNEXTEND SWAP1 DUP3 SWAP1 SIGNEXTEND SUB PUSH16 0x7FFFFFFFFFFFFFFFFFFFFFFFFFFFFFFF NOT DUP2 SLT PUSH1 0x1 PUSH1 0x1 PUSH1 0x7F SHL SUB DUP3 SGT OR ISZERO PUSH2 0x4C0 JUMPI PUSH2 0x4C0 PUSH2 0x3646 JUMP JUMPDEST DUP1 DUP3 ADD DUP1 DUP3 GT ISZERO PUSH2 0x4C0 JUMPI PUSH2 0x4C0 PUSH2 0x3646 JUMP JUMPDEST PUSH0 PUSH1 0x1 DUP3 ADD PUSH2 0x3844 JUMPI PUSH2 0x3844 PUSH2 0x3646 JUMP JUMPDEST POP PUSH1 0x1 ADD SWAP1 JUMP JUMPDEST PUSH0 PUSH1 0x20 DUP3 DUP5 SUB SLT ISZERO PUSH2 0x385B JUMPI PUSH0 DUP1 REVERT JUMPDEST DUP2 MLOAD DUP1 ISZERO ISZERO DUP2 EQ PUSH2 0xCB2 JUMPI PUSH0 DUP1 REVERT JUMPDEST PUSH1 0x1 PUSH1 0x1 PUSH1 0xA0 SHL SUB DUP7 AND DUP2 MSTORE DUP5 PUSH1 0x20 DUP3 ADD MSTORE DUP4 PUSH1 0x40 DUP3 ADD MSTORE PUSH1 0xA0 PUSH1 0x60 DUP3 ADD MSTORE PUSH0 PUSH2 0x3897 PUSH1 0xA0 DUP4 ADD DUP6 PUSH2 0x33D7 JUMP JUMPDEST SWAP1 POP DUP3 PUSH1 0x80 DUP4 ADD MSTORE SWAP7 SWAP6 POP POP POP POP POP POP JUMP JUMPDEST PUSH4 0x4E487B71 PUSH1 0xE0 SHL PUSH0 MSTORE PUSH1 0x12 PUSH1 0x4 MSTORE PUSH1 0x24 PUSH0 REVERT INVALID LOG2 PUSH5 0x6970667358 0x22 SLT KECCAK256 DUP1 DUP11 DUP3 DUP6 0x28 0x22 PUSH8 0x85BB5F89492FCB04 CALLVALUE ORIGIN 0xE9 0xF7 0xD0 ADD 0xA5 0x2F SMOD PUSH32 0xCAB638E1AECA0764736F6C634300081900330000000000000000000000000000 "
    },
    "gasEstimates": {
      "creation": {
        "codeDepositCost": "2915800",
        "executionCost": "infinite",
        "totalCost": "infinite"
      },
      "external": {
        "addLiquidity(uint256)": "infinite",
        "buy(uint256,int128)": "infinite",
        "condition()": "2339",
        "cost()": "infinite",
        "cost_after_buy(uint256,int128)": "infinite",
        "debugFees()": "infinite",
        "dummyVar()": "2340",
        "generateQuestionId(string)": "infinite",
        "getAccumulatedFees()": "infinite",
        "getLiquidityParameter()": "2402",
        "getOutcomeSharesPurchased(uint256)": "10725",
        "getPositionAndDustPositions(uint256)": "infinite",
        "getTokenEth(address,uint256)": "infinite",
        "getTokenWei(address,int128)": "infinite",
        "initial_subsidy()": "2386",
        "numOutcomes()": "2405",
        "odds(uint256)": "infinite",
        "onERC1155BatchReceived(address,address,uint256[],uint256[],bytes)": "infinite",
        "onERC1155Received(address,address,uint256,uint256,bytes)": "infinite",
        "owner()": "2408",
        "price(uint256,int128)": "infinite",
        "renounceOwnership()": "infinite",
        "sell(uint256,int128)": "infinite",
        "sellingPrice(uint256,int128)": "infinite",
        "setup(address,bytes32,uint256,uint256,uint256)": "infinite",
        "supportsInterface(bytes4)": "362",
        "token()": "2446",
        "transferOwnership(address)": "28380",
        "withdraw()": "infinite",
        "withdrawFees()": "infinite"
      },
      "internal": {
        "getOnes(uint256)": "infinite"
      }
    },
    "methodIdentifiers": {
      "addLiquidity(uint256)": "51c6590a",
      "buy(uint256,int128)": "f76da1d9",
      "condition()": "c5031331",
      "cost()": "13faede6",
      "cost_after_buy(uint256,int128)": "8062dd93",
      "debugFees()": "e1fc2305",
      "dummyVar()": "8ac40792",
      "generateQuestionId(string)": "4c395cc4",
      "getAccumulatedFees()": "5df45a37",
      "getLiquidityParameter()": "8364dfef",
      "getOutcomeSharesPurchased(uint256)": "bb6f593e",
      "getPositionAndDustPositions(uint256)": "8d0a6cff",
      "getTokenEth(address,uint256)": "10f8625a",
      "getTokenWei(address,int128)": "40088ee1",
      "initial_subsidy()": "cd6bd6db",
      "numOutcomes()": "8767d64e",
      "odds(uint256)": "46156ea0",
      "onERC1155BatchReceived(address,address,uint256[],uint256[],bytes)": "bc197c81",
      "onERC1155Received(address,address,uint256,uint256,bytes)": "f23a6e61",
      "owner()": "8da5cb5b",
      "price(uint256,int128)": "df7bd8fc",
      "renounceOwnership()": "715018a6",
      "sell(uint256,int128)": "ae92a93d",
      "sellingPrice(uint256,int128)": "52fdfecc",
      "setup(address,bytes32,uint256,uint256,uint256)": "8f54f2ae",
      "supportsInterface(bytes4)": "01ffc9a7",
      "token()": "fc0c546a",
      "transferOwnership(address)": "f2fde38b",
      "withdraw()": "3ccfd60b",
      "withdrawFees()": "476343ee"
    }
  },
  "storageLayout": {
    "storage": [
      {
        "astId": 7187,
        "contract": "LmLSMR.sol:LsLMSR",
        "label": "_owner",
        "offset": 0,
        "slot": "0",
        "type": "t_address"
      },
      {
        "astId": 4182,
        "contract": "LmLSMR.sol:LsLMSR",
        "label": "numOutcomes",
        "offset": 0,
        "slot": "1",
        "type": "t_uint256"
      },
      {
        "astId": 4185,
        "contract": "LmLSMR.sol:LsLMSR",
        "label": "q",
        "offset": 0,
        "slot": "2",
        "type": "t_array(t_int128)dyn_storage"
      },
      {
        "astId": 4187,
        "contract": "LmLSMR.sol:LsLMSR",
        "label": "b",
        "offset": 0,
        "slot": "3",
        "type": "t_int128"
      },
      {
        "astId": 4189,
        "contract": "LmLSMR.sol:LsLMSR",
        "label": "alpha",
        "offset": 16,
        "slot": "3",
        "type": "t_int128"
      },
      {
        "astId": 4191,
        "contract": "LmLSMR.sol:LsLMSR",
        "label": "current_cost",
        "offset": 0,
        "slot": "4",
        "type": "t_int128"
      },
      {
        "astId": 4193,
        "contract": "LmLSMR.sol:LsLMSR",
        "label": "total_shares",
        "offset": 16,
        "slot": "4",
        "type": "t_int128"
      },
      {
        "astId": 4195,
        "contract": "LmLSMR.sol:LsLMSR",
        "label": "initial_subsidy",
        "offset": 0,
        "slot": "5",
        "type": "t_int128"
      },
      {
        "astId": 4197,
        "contract": "LmLSMR.sol:LsLMSR",
        "label": "condition",
        "offset": 0,
        "slot": "6",
        "type": "t_bytes32"
      },
      {
        "astId": 4200,
        "contract": "LmLSMR.sol:LsLMSR",
        "label": "CT",
        "offset": 0,
        "slot": "7",
        "type": "t_contract(ConditionalTokens)4132"
      },
      {
        "astId": 4202,
        "contract": "LmLSMR.sol:LsLMSR",
        "label": "token",
        "offset": 0,
        "slot": "8",
        "type": "t_address"
      },
      {
        "astId": 4204,
        "contract": "LmLSMR.sol:LsLMSR",
        "label": "init",
        "offset": 20,
        "slot": "8",
        "type": "t_bool"
      },
      {
        "astId": 4210,
        "contract": "LmLSMR.sol:LsLMSR",
        "label": "dummyVar",
        "offset": 0,
        "slot": "9",
        "type": "t_uint256"
      }
    ],
    "types": {
      "t_address": {
        "encoding": "inplace",
        "label": "address",
        "numberOfBytes": "20"
      },
      "t_array(t_int128)dyn_storage": {
        "base": "t_int128",
        "encoding": "dynamic_array",
        "label": "int128[]",
        "numberOfBytes": "32"
      },
      "t_bool": {
        "encoding": "inplace",
        "label": "bool",
        "numberOfBytes": "1"
      },
      "t_bytes32": {
        "encoding": "inplace",
        "label": "bytes32",
        "numberOfBytes": "32"
      },
      "t_contract(ConditionalTokens)4132": {
        "encoding": "inplace",
        "label": "contract ConditionalTokens",
        "numberOfBytes": "20"
      },
      "t_int128": {
        "encoding": "inplace",
        "label": "int128",
        "numberOfBytes": "16"
      },
      "t_uint256": {
        "encoding": "inplace",
        "label": "uint256",
        "numberOfBytes": "32"
      }
    }
  },
  "userdoc": {
    "kind": "user",
    "methods": {
      "buy(uint256,int128)": {
        "notice": "This function is used to buy outcome tokens."
      },
      "constructor": {
        "notice": "Constructor function for the market maker"
      },
      "cost()": {
        "notice": "View function returning the cost function.  This function returns the cost for this inventory state. It will be able to tell you the total amount of collateral spent within the market maker. For example, if a pool was seeded with 100 DAI and then a further 20 DAI has been spent, this function will return 120 DAI."
      },
      "cost_after_buy(uint256,int128)": {
        "notice": "This function will tell you the cost (similar to above) after a proposed transaction."
      },
      "odds(uint256)": {
        "notice": "This function tells you how much it will cost to make a particular trade. It does this by calculating the difference between the current cost and the cost after the transaction."
      },
      "setup(address,bytes32,uint256,uint256,uint256)": {
        "notice": "Set up some of the variables for the market maker"
      }
    },
    "version": 1
  }
}