{
  "abi": [
    {
      "inputs": [
        {
          "internalType": "address",
          "name": "_ct",
          "type": "address"
        },
        {
          "internalType": "address",
          "name": "_token",
          "type": "address"
        },
        {
          "internalType": "address",
          "name": "initialOwner",
          "type": "address"
        }
      ],
      "stateMutability": "nonpayable",
      "type": "constructor"
    },
    {
      "inputs": [
        {
          "internalType": "address",
          "name": "owner",
          "type": "address"
        }
      ],
      "name": "OwnableInvalidOwner",
      "type": "error"
    },
    {
      "inputs": [
        {
          "internalType": "address",
          "name": "account",
          "type": "address"
        }
      ],
      "name": "OwnableUnauthorizedAccount",
      "type": "error"
    },
    {
      "inputs": [
        {
          "internalType": "address",
          "name": "token",
          "type": "address"
        }
      ],
      "name": "SafeERC20FailedOperation",
      "type": "error"
    },
    {
      "anonymous": false,
      "inputs": [
        {
          "indexed": true,
          "internalType": "address",
          "name": "to",
          "type": "address"
        },
        {
          "indexed": false,
          "internalType": "uint256",
          "name": "amount",
          "type": "uint256"
        }
      ],
      "name": "FeesWithdrawn",
      "type": "event"
    },
    {
      "anonymous": false,
      "inputs": [
        {
          "indexed": true,
          "internalType": "address",
          "name": "user",
          "type": "address"
        },
        {
          "indexed": false,
          "internalType": "uint256",
          "name": "amount",
          "type": "uint256"
        }
      ],
      "name": "LiquidityAdded",
      "type": "event"
    },
    {
      "anonymous": false,
      "inputs": [
        {
          "indexed": true,
          "internalType": "address",
          "name": "previousOwner",
          "type": "address"
        },
        {
          "indexed": true,
          "internalType": "address",
          "name": "newOwner",
          "type": "address"
        }
      ],
      "name": "OwnershipTransferred",
      "type": "event"
    },
    {
      "inputs": [
        {
          "internalType": "uint256",
          "name": "_amount",
          "type": "uint256"
        }
      ],
      "name": "addLiquidity",
      "outputs": [],
      "stateMutability": "nonpayable",
      "type": "function"
    },
    {
      "inputs": [
        {
          "internalType": "uint256",
          "name": "_outcome",
          "type": "uint256"
        },
        {
          "internalType": "int128",
          "name": "_amount",
          "type": "int128"
        }
      ],
      "name": "buy",
      "outputs": [
        {
          "internalType": "int128",
          "name": "_price",
          "type": "int128"
        }
      ],
      "stateMutability": "nonpayable",
      "type": "function"
    },
    {
      "inputs": [],
      "name": "condition",
      "outputs": [
        {
          "internalType": "bytes32",
          "name": "",
          "type": "bytes32"
        }
      ],
      "stateMutability": "view",
      "type": "function"
    },
    {
      "inputs": [],
      "name": "cost",
      "outputs": [
        {
          "internalType": "int128",
          "name": "",
          "type": "int128"
        }
      ],
      "stateMutability": "view",
      "type": "function"
    },
    {
      "inputs": [
        {
          "internalType": "uint256",
          "name": "_outcome",
          "type": "uint256"
        },
        {
          "internalType": "int128",
          "name": "_amount",
          "type": "int128"
        }
      ],
      "name": "cost_after_buy",
      "outputs": [
        {
          "internalType": "int128",
          "name": "",
          "type": "int128"
        }
      ],
      "stateMutability": "view",
      "type": "function"
    },
    {
      "inputs": [],
      "name": "debugFees",
      "outputs": [
        {
          "internalType": "uint256",
          "name": "contractBalance",
          "type": "uint256"
        },
        {
          "internalType": "uint256",
          "name": "theoreticalCost",
          "type": "uint256"
        }
      ],
      "stateMutability": "view",
      "type": "function"
    },
    {
      "inputs": [],
      "name": "dummyVar",
      "outputs": [
        {
          "internalType": "uint256",
          "name": "",
          "type": "uint256"
        }
      ],
      "stateMutability": "view",
      "type": "function"
    },
    {
      "inputs": [
        {
          "internalType": "string",
          "name": "uniqueString",
          "type": "string"
        }
      ],
      "name": "generateQuestionId",
      "outputs": [
        {
          "internalType": "bytes32",
          "name": "",
          "type": "bytes32"
        }
      ],
      "stateMutability": "pure",
      "type": "function"
    },
    {
      "inputs": [],
      "name": "getAccumulatedFees",
      "outputs": [
        {
          "internalType": "uint256",
          "name": "",
          "type": "uint256"
        }
      ],
      "stateMutability": "view",
      "type": "function"
    },
    {
      "inputs": [],
      "name": "getLiquidityParameter",
      "outputs": [
        {
          "internalType": "int128",
          "name": "",
          "type": "int128"
        }
      ],
      "stateMutability": "view",
      "type": "function"
    },
    {
      "inputs": [
        {
          "internalType": "uint256",
          "name": "_outcome",
          "type": "uint256"
        }
      ],
      "name": "getOutcomeSharesPurchased",
      "outputs": [
        {
          "internalType": "int128",
          "name": "",
          "type": "int128"
        }
      ],
      "stateMutability": "view",
      "type": "function"
    },
    {
      "inputs": [
        {
          "internalType": "uint256",
          "name": "_outcome",
          "type": "uint256"
        }
      ],
      "name": "getPositionAndDustPositions",
      "outputs": [
        {
          "internalType": "uint256[]",
          "name": "",
          "type": "uint256[]"
        }
      ],
      "stateMutability": "view",
      "type": "function"
    },
    {
      "inputs": [
        {
          "internalType": "address",
          "name": "_token",
          "type": "address"
        },
        {
          "internalType": "uint256",
          "name": "_amount",
          "type": "uint256"
        }
      ],
      "name": "getTokenEth",
      "outputs": [
        {
          "internalType": "int128",
          "name": "",
          "type": "int128"
        }
      ],
      "stateMutability": "view",
      "type": "function"
    },
    {
      "inputs": [
        {
          "internalType": "address",
          "name": "_token",
          "type": "address"
        },
        {
          "internalType": "int128",
          "name": "_amount",
          "type": "int128"
        }
      ],
      "name": "getTokenWei",
      "outputs": [
        {
          "internalType": "uint256",
          "name": "",
          "type": "uint256"
        }
      ],
      "stateMutability": "view",
      "type": "function"
    },
    {
      "inputs": [
        {
          "internalType": "address",
          "name": "_token",
          "type": "address"
        },
        {
          "internalType": "int128",
          "name": "_amount",
          "type": "int128"
        }
      ],
      "name": "getTokenWeiDown",
      "outputs": [
        {
          "internalType": "uint256",
          "name": "",
          "type": "uint256"
        }
      ],
      "stateMutability": "view",
      "type": "function"
    },
    {
      "inputs": [
        {
          "internalType": "address",
          "name": "_token",
          "type": "address"
        },
        {
          "internalType": "int128",
          "name": "_amount",
          "type": "int128"
        }
      ],
      "name": "getTokenWeiUp",
      "outputs": [
        {
          "internalType": "uint256",
          "name": "",
          "type": "uint256"
        }
      ],
      "stateMutability": "view",
      "type": "function"
    },
    {
      "inputs": [],
      "name": "initial_subsidy",
      "outputs": [
        {
          "internalType": "int128",
          "name": "",
          "type": "int128"
        }
      ],
      "stateMutability": "view",
      "type": "function"
    },
    {
      "inputs": [],
      "name": "numOutcomes",
      "outputs": [
        {
          "internalType": "uint256",
          "name": "",
          "type": "uint256"
        }
      ],
      "stateMutability": "view",
      "type": "function"
    },
    {
      "inputs": [
        {
          "internalType": "uint256",
          "name": "_outcome",
          "type": "uint256"
        }
      ],
      "name": "odds",
      "outputs": [
        {
          "internalType": "int128",
          "name": "",
          "type": "int128"
        }
      ],
      "stateMutability": "view",
      "type": "function"
    },
    {
      "inputs": [
        {
          "internalType": "address",
          "name": "",
          "type": "address"
        },
        {
          "internalType": "address",
          "name": "",
          "type": "address"
        },
        {
          "internalType": "uint256[]",
          "name": "",
          "type": "uint256[]"
        },
        {
          "internalType": "uint256[]",
          "name": "",
          "type": "uint256[]"
        },
        {
          "internalType": "bytes",
          "name": "",
          "type": "bytes"
        }
      ],
      "name": "onERC1155BatchReceived",
      "outputs": [
        {
          "internalType": "bytes4",
          "name": "",
          "type": "bytes4"
        }
      ],
      "stateMutability": "pure",
      "type": "function"
    },
    {
      "inputs": [
        {
          "internalType": "address",
          "name": "",
          "type": "address"
        },
        {
          "internalType": "address",
          "name": "",
          "type": "address"
        },
        {
          "internalType": "uint256",
          "name": "",
          "type": "uint256"
        },
        {
          "internalType": "uint256",
          "name": "",
          "type": "uint256"
        },
        {
          "internalType": "bytes",
          "name": "",
          "type": "bytes"
        }
      ],
      "name": "onERC1155Received",
      "outputs": [
        {
          "internalType": "bytes4",
          "name": "",
          "type": "bytes4"
        }
      ],
      "stateMutability": "pure",
      "type": "function"
    },
    {
      "inputs": [],
      "name": "owner",
      "outputs": [
        {
          "internalType": "address",
          "name": "",
          "type": "address"
        }
      ],
      "stateMutability": "view",
      "type": "function"
    },
    {
      "inputs": [
        {
          "internalType": "uint256",
          "name": "_outcome",
          "type": "uint256"
        },
        {
          "internalType": "int128",
          "name": "_amount",
          "type": "int128"
        }
      ],
      "name": "price",
      "outputs": [
        {
          "internalType": "int128",
          "name": "",
          "type": "int128"
        }
      ],
      "stateMutability": "view",
      "type": "function"
    },
    {
      "inputs": [],
      "name": "renounceOwnership",
      "outputs": [],
      "stateMutability": "nonpayable",
      "type": "function"
    },
    {
      "inputs": [
        {
          "internalType": "uint256",
          "name": "_outcome",
          "type": "uint256"
        },
        {
          "internalType": "int128",
          "name": "_amount",
          "type": "int128"
        }
      ],
      "name": "sell",
      "outputs": [
        {
          "internalType": "int128",
          "name": "refund",
          "type": "int128"
        }
      ],
      "stateMutability": "nonpayable",
      "type": "function"
    },
    {
      "inputs": [
        {
          "internalType": "uint256",
          "name": "_outcome",
          "type": "uint256"
        },
        {
          "internalType": "int128",
          "name": "_amount",
          "type": "int128"
        }
      ],
      "name": "sellingPrice",
      "outputs": [
        {
          "internalType": "int128",
          "name": "",
          "type": "int128"
        }
      ],
      "stateMutability": "view",
      "type": "function"
    },
    {
      "inputs": [
        {
          "internalType": "address",
          "name": "_oracle",
          "type": "address"
        },
        {
          "internalType": "bytes32",
          "name": "_questionId",
          "type": "bytes32"
        },
        {
          "internalType": "uint256",
          "name": "_numOutcomes",
          "type": "uint256"
        },
        {
          "internalType": "uint256",
          "name": "_subsidy",
          "type": "uint256"
        },
        {
          "internalType": "uint256",
          "name": "_overround",
          "type": "uint256"
        }
      ],
      "name": "setup",
      "outputs": [],
      "stateMutability": "nonpayable",
      "type": "function"
    },
    {
      "inputs": [
        {
          "internalType": "bytes4",
          "name": "interfaceId",
          "type": "bytes4"
        }
      ],
      "name": "supportsInterface",
      "outputs": [
        {
          "internalType": "bool",
          "name": "",
          "type": "bool"
        }
      ],
      "stateMutability": "view",
      "type": "function"
    },
    {
      "inputs": [],
      "name": "token",
      "outputs": [
        {
          "internalType": "address",
          "name": "",
          "type": "address"
        }
      ],
      "stateMutability": "view",
      "type": "function"
    },
    {
      "inputs": [
        {
          "internalType": "address",
          "name": "newOwner",
          "type": "address"
        }
      ],
      "name": "transferOwnership",
      "outputs": [],
      "stateMutability": "nonpayable",
      "type": "function"
    },
    {
      "inputs": [],
      "name": "withdraw",
      "outputs": [],
      "stateMutability": "nonpayable",
      "type": "function"
    },
    {
      "inputs": [],
      "name": "withdrawFees",
      "outputs": [],
      "stateMutability": "nonpayable",
      "type": "function"
    }
  ],
  "devdoc": {
    "errors": {
      "OwnableInvalidOwner(address)": [
        {
          "details": "The owner is not a valid owner account. (eg. `address(0)`)"
        }
      ],
      "OwnableUnauthorizedAccount(address)": [
        {
          "details": "The caller account is not authorized to perform an operation."
        }
      ],
      "SafeERC20FailedOperation(address)": [
        {
          "details": "An operation with an ERC-20 token failed."
        }
      ]
    },
    "kind": "dev",
    "methods": {
      "constructor": {
        "params": {
          "_ct": "The address for the deployed conditional tokens contract",
          "_token": "Which ERC-20 token will be used to purchase and redeem outcome tokens for this condition"
        }
      },
      "owner()": {
        "details": "Returns the address of the current owner."
      },
      "renounceOwnership()": {
        "details": "Leaves the contract without owner. It will not be possible to call `onlyOwner` functions. Can only be called by the current owner. NOTE: Renouncing ownership will leave the contract without an owner, thereby disabling any functionality that is only available to the owner."
      },
      "setup(address,bytes32,uint256,uint256,uint256)": {
        "params": {
          "_numOutcomes": "The number of different outcomes available _subsidyToken Which ERC-20 token will be used to purchase and redeem outcome tokens for this condition",
          "_oracle": "The address for the EOA/contract which will act as the oracle for this condition",
          "_overround": "How much 'profit' does the AMM claim? Note that this is represented in bips. Therefore inputting 300 represents 0.30%",
          "_questionId": "The question ID (needs to be unique)",
          "_subsidy": "How much initial funding is used to seed the market maker."
        }
      },
      "supportsInterface(bytes4)": {
        "details": "Returns true if this contract implements the interface defined by `interfaceId`. See the corresponding https://eips.ethereum.org/EIPS/eip-165#how-interfaces-are-identified[ERC section] to learn more about how these ids are created. This function call must use less than 30 000 gas."
      },
      "transferOwnership(address)": {
        "details": "Transfers ownership of the contract to a new account (`newOwner`). Can only be called by the current owner."
      }
    },
    "version": 1
  },
  "evm": {
    "assembly": "    /* \"LmLSMR.sol\":615:15691  contract LsLMSR is IERC1155Receiver, Ownable{... */\n  mstore(0x40, 0x80)\n    /* \"LmLSMR.sol\":1447:1449  42 */\n  0x2a\n    /* \"LmLSMR.sol\":1421:1449  uint256 public dummyVar = 42 */\n  0x09\n  sstore\n    /* \"LmLSMR.sol\":1708:1867  constructor(... */\n  callvalue\n  dup1\n  iszero\n  tag_1\n  jumpi\n  0x00\n  dup1\n  revert\ntag_1:\n  pop\n  mload(0x40)\n  sub(codesize, bytecodeSize)\n  dup1\n  bytecodeSize\n  dup4\n  codecopy\n  dup2\n  add\n  0x40\n  dup2\n  swap1\n  mstore\n  tag_2\n  swap2\n  tag_3\n  jump\t// in\ntag_2:\n    /* \"LmLSMR.sol\":1795:1807  initialOwner */\n  dup1\n  sub(shl(0xa0, 0x01), 0x01)\n    /* \"@openzeppelin/contracts/access/Ownable.sol\":1273:1299   */\n  dup2\n  and\n    /* \"@openzeppelin/contracts/access/Ownable.sol\":1269:1364   */\n  tag_7\n  jumpi\n    /* \"@openzeppelin/contracts/access/Ownable.sol\":1322:1353   */\n  mload(0x40)\n  shl(0xe0, 0x1e4fbdf7)\n  dup2\n  mstore\n    /* \"@openzeppelin/contracts/access/Ownable.sol\":1350:1351   */\n  0x00\n    /* \"@openzeppelin/contracts/access/Ownable.sol\":1322:1353   */\n  0x04\n  dup3\n  add\n    /* \"#utility.yul\":725:776   */\n  mstore\n    /* \"#utility.yul\":698:716   */\n  0x24\n  add\n    /* \"@openzeppelin/contracts/access/Ownable.sol\":1322:1353   */\n  mload(0x40)\n  dup1\n  swap2\n  sub\n  swap1\n  revert\n    /* \"@openzeppelin/contracts/access/Ownable.sol\":1269:1364   */\ntag_7:\n    /* \"@openzeppelin/contracts/access/Ownable.sol\":1373:1405   */\n  tag_10\n    /* \"@openzeppelin/contracts/access/Ownable.sol\":1392:1404   */\n  dup2\n    /* \"@openzeppelin/contracts/access/Ownable.sol\":1373:1391   */\n  tag_11\n    /* \"@openzeppelin/contracts/access/Ownable.sol\":1373:1405   */\n  jump\t// in\ntag_10:\n  pop\n  pop\n    /* \"LmLSMR.sol\":1815:1817  CT */\n  0x07\n    /* \"LmLSMR.sol\":1815:1842  CT = ConditionalTokens(_ct) */\n  dup1\n  sload\n  sub(shl(0xa0, 0x01), 0x01)\n  swap4\n  dup5\n  and\n  not(sub(shl(0xa0, 0x01), 0x01))\n  swap2\n  dup3\n  and\n  or\n  swap1\n  swap2\n  sstore\n    /* \"LmLSMR.sol\":1848:1853  token */\n  0x08\n    /* \"LmLSMR.sol\":1848:1862  token = _token */\n  dup1\n  sload\n  swap3\n  swap1\n  swap4\n  and\n  swap2\n  and\n  or\n  swap1\n  sstore\n    /* \"LmLSMR.sol\":615:15691  contract LsLMSR is IERC1155Receiver, Ownable{... */\n  jump(tag_16)\n    /* \"@openzeppelin/contracts/access/Ownable.sol\":2912:3099   */\ntag_11:\n    /* \"@openzeppelin/contracts/access/Ownable.sol\":2985:3001   */\n  0x00\n    /* \"@openzeppelin/contracts/access/Ownable.sol\":3004:3010   */\n  dup1\n  sload\n  sub(shl(0xa0, 0x01), 0x01)\n    /* \"@openzeppelin/contracts/access/Ownable.sol\":3020:3037   */\n  dup4\n  dup2\n  and\n  not(sub(shl(0xa0, 0x01), 0x01))\n  dup4\n  and\n  dup2\n  or\n  dup5\n  sstore\n    /* \"@openzeppelin/contracts/access/Ownable.sol\":3052:3092   */\n  mload(0x40)\n    /* \"@openzeppelin/contracts/access/Ownable.sol\":3004:3010   */\n  swap2\n  swap1\n  swap3\n  and\n  swap3\n  dup4\n  swap2\n    /* \"@openzeppelin/contracts/access/Ownable.sol\":3052:3092   */\n  0x8be0079c531659141344cd1fd0a4f28419497f9722a3daafe3b4186f6b6457e0\n  swap2\n    /* \"@openzeppelin/contracts/access/Ownable.sol\":2985:3001   */\n  swap1\n    /* \"@openzeppelin/contracts/access/Ownable.sol\":3052:3092   */\n  log3\n    /* \"@openzeppelin/contracts/access/Ownable.sol\":2975:3099   */\n  pop\n    /* \"@openzeppelin/contracts/access/Ownable.sol\":2912:3099   */\n  pop\n  jump\t// out\n    /* \"#utility.yul\":14:191   */\ntag_15:\n    /* \"#utility.yul\":93:106   */\n  dup1\n  mload\n  sub(shl(0xa0, 0x01), 0x01)\n    /* \"#utility.yul\":135:166   */\n  dup2\n  and\n    /* \"#utility.yul\":125:167   */\n  dup2\n  eq\n    /* \"#utility.yul\":115:185   */\n  tag_18\n  jumpi\n    /* \"#utility.yul\":181:182   */\n  0x00\n    /* \"#utility.yul\":178:179   */\n  dup1\n    /* \"#utility.yul\":171:183   */\n  revert\n    /* \"#utility.yul\":115:185   */\ntag_18:\n    /* \"#utility.yul\":14:191   */\n  swap2\n  swap1\n  pop\n  jump\t// out\n    /* \"#utility.yul\":196:574   */\ntag_3:\n    /* \"#utility.yul\":284:290   */\n  0x00\n    /* \"#utility.yul\":292:298   */\n  dup1\n    /* \"#utility.yul\":300:306   */\n  0x00\n    /* \"#utility.yul\":353:355   */\n  0x60\n    /* \"#utility.yul\":341:350   */\n  dup5\n    /* \"#utility.yul\":332:339   */\n  dup7\n    /* \"#utility.yul\":328:351   */\n  sub\n    /* \"#utility.yul\":324:356   */\n  slt\n    /* \"#utility.yul\":321:373   */\n  iszero\n  tag_20\n  jumpi\n    /* \"#utility.yul\":369:370   */\n  0x00\n    /* \"#utility.yul\":366:367   */\n  dup1\n    /* \"#utility.yul\":359:371   */\n  revert\n    /* \"#utility.yul\":321:373   */\ntag_20:\n    /* \"#utility.yul\":392:432   */\n  tag_21\n    /* \"#utility.yul\":422:431   */\n  dup5\n    /* \"#utility.yul\":392:432   */\n  tag_15\n  jump\t// in\ntag_21:\n    /* \"#utility.yul\":382:432   */\n  swap3\n  pop\n    /* \"#utility.yul\":451:500   */\n  tag_22\n    /* \"#utility.yul\":496:498   */\n  0x20\n    /* \"#utility.yul\":485:494   */\n  dup6\n    /* \"#utility.yul\":481:499   */\n  add\n    /* \"#utility.yul\":451:500   */\n  tag_15\n  jump\t// in\ntag_22:\n    /* \"#utility.yul\":441:500   */\n  swap2\n  pop\n    /* \"#utility.yul\":519:568   */\n  tag_23\n    /* \"#utility.yul\":564:566   */\n  0x40\n    /* \"#utility.yul\":553:562   */\n  dup6\n    /* \"#utility.yul\":549:567   */\n  add\n    /* \"#utility.yul\":519:568   */\n  tag_15\n  jump\t// in\ntag_23:\n    /* \"#utility.yul\":509:568   */\n  swap1\n  pop\n    /* \"#utility.yul\":196:574   */\n  swap3\n  pop\n  swap3\n  pop\n  swap3\n  jump\t// out\n    /* \"#utility.yul\":579:782   */\ntag_16:\n    /* \"LmLSMR.sol\":615:15691  contract LsLMSR is IERC1155Receiver, Ownable{... */\n  dataSize(sub_0)\n  dup1\n  dataOffset(sub_0)\n  0x00\n  codecopy\n  0x00\n  return\nstop\n\nsub_0: assembly {\n        /* \"LmLSMR.sol\":615:15691  contract LsLMSR is IERC1155Receiver, Ownable{... */\n      mstore(0x40, 0x80)\n      callvalue\n      dup1\n      iszero\n      tag_1\n      jumpi\n      0x00\n      dup1\n      revert\n    tag_1:\n      pop\n      jumpi(tag_2, lt(calldatasize, 0x04))\n      shr(0xe0, calldataload(0x00))\n      dup1\n      0x8ac40792\n      gt\n      tag_35\n      jumpi\n      dup1\n      0xc5031331\n      gt\n      tag_36\n      jumpi\n      dup1\n      0xf23a6e61\n      gt\n      tag_37\n      jumpi\n      dup1\n      0xf23a6e61\n      eq\n      tag_31\n      jumpi\n      dup1\n      0xf2fde38b\n      eq\n      tag_32\n      jumpi\n      dup1\n      0xf76da1d9\n      eq\n      tag_33\n      jumpi\n      dup1\n      0xfc0c546a\n      eq\n      tag_34\n      jumpi\n      0x00\n      dup1\n      revert\n    tag_37:\n      dup1\n      0xc5031331\n      eq\n      tag_27\n      jumpi\n      dup1\n      0xcd6bd6db\n      eq\n      tag_28\n      jumpi\n      dup1\n      0xdf7bd8fc\n      eq\n      tag_29\n      jumpi\n      dup1\n      0xe1fc2305\n      eq\n      tag_30\n      jumpi\n      0x00\n      dup1\n      revert\n    tag_36:\n      dup1\n      0x8f54f2ae\n      gt\n      tag_38\n      jumpi\n      dup1\n      0x8f54f2ae\n      eq\n      tag_23\n      jumpi\n      dup1\n      0xae92a93d\n      eq\n      tag_24\n      jumpi\n      dup1\n      0xbb6f593e\n      eq\n      tag_25\n      jumpi\n      dup1\n      0xbc197c81\n      eq\n      tag_26\n      jumpi\n      0x00\n      dup1\n      revert\n    tag_38:\n      dup1\n      0x8ac40792\n      eq\n      tag_19\n      jumpi\n      dup1\n      0x8d0a6cff\n      eq\n      tag_20\n      jumpi\n      dup1\n      0x8d36627b\n      eq\n      tag_21\n      jumpi\n      dup1\n      0x8da5cb5b\n      eq\n      tag_22\n      jumpi\n      0x00\n      dup1\n      revert\n    tag_35:\n      dup1\n      0x4c395cc4\n      gt\n      tag_39\n      jumpi\n      dup1\n      0x715018a6\n      gt\n      tag_40\n      jumpi\n      dup1\n      0x715018a6\n      eq\n      tag_15\n      jumpi\n      dup1\n      0x8062dd93\n      eq\n      tag_16\n      jumpi\n      dup1\n      0x8364dfef\n      eq\n      tag_17\n      jumpi\n      dup1\n      0x8767d64e\n      eq\n      tag_18\n      jumpi\n      0x00\n      dup1\n      revert\n    tag_40:\n      dup1\n      0x4c395cc4\n      eq\n      tag_11\n      jumpi\n      dup1\n      0x51c6590a\n      eq\n      tag_12\n      jumpi\n      dup1\n      0x52fdfecc\n      eq\n      tag_13\n      jumpi\n      dup1\n      0x5df45a37\n      eq\n      tag_14\n      jumpi\n      0x00\n      dup1\n      revert\n    tag_39:\n      dup1\n      0x3ccfd60b\n      gt\n      tag_41\n      jumpi\n      dup1\n      0x3ccfd60b\n      eq\n      tag_7\n      jumpi\n      dup1\n      0x40088ee1\n      eq\n      tag_8\n      jumpi\n      dup1\n      0x46156ea0\n      eq\n      tag_9\n      jumpi\n      dup1\n      0x476343ee\n      eq\n      tag_10\n      jumpi\n      0x00\n      dup1\n      revert\n    tag_41:\n      dup1\n      0x01ffc9a7\n      eq\n      tag_3\n      jumpi\n      dup1\n      0x05445405\n      eq\n      tag_4\n      jumpi\n      dup1\n      0x10f8625a\n      eq\n      tag_5\n      jumpi\n      dup1\n      0x13faede6\n      eq\n      tag_6\n      jumpi\n    tag_2:\n      0x00\n      dup1\n      revert\n        /* \"LmLSMR.sol\":11586:11682  function supportsInterface(... */\n    tag_3:\n      tag_42\n      tag_43\n      calldatasize\n      0x04\n      tag_44\n      jump\t// in\n    tag_43:\n      pop\n        /* \"LmLSMR.sol\":11674:11678  bool */\n      0x00\n      swap1\n        /* \"LmLSMR.sol\":11586:11682  function supportsInterface(... */\n      jump\n    tag_42:\n      mload(0x40)\n        /* \"#utility.yul\":470:484   */\n      swap1\n      iszero\n        /* \"#utility.yul\":463:485   */\n      iszero\n        /* \"#utility.yul\":445:486   */\n      dup2\n      mstore\n        /* \"#utility.yul\":433:435   */\n      0x20\n        /* \"#utility.yul\":418:436   */\n      add\n        /* \"LmLSMR.sol\":11586:11682  function supportsInterface(... */\n    tag_46:\n      mload(0x40)\n      dup1\n      swap2\n      sub\n      swap1\n      return\n        /* \"LmLSMR.sol\":9942:10566  function getTokenWeiUp(address _token, int128 _amount) public view returns (uint) {... */\n    tag_4:\n      tag_48\n      tag_49\n      calldatasize\n      0x04\n      tag_50\n      jump\t// in\n    tag_49:\n      tag_51\n      jump\t// in\n    tag_48:\n      mload(0x40)\n        /* \"#utility.yul\":1274:1299   */\n      swap1\n      dup2\n      mstore\n        /* \"#utility.yul\":1262:1264   */\n      0x20\n        /* \"#utility.yul\":1247:1265   */\n      add\n        /* \"LmLSMR.sol\":9942:10566  function getTokenWeiUp(address _token, int128 _amount) public view returns (uint) {... */\n      tag_46\n        /* \"#utility.yul\":1128:1305   */\n      jump\n        /* \"LmLSMR.sol\":10861:11041  function getTokenEth(... */\n    tag_5:\n      tag_54\n      tag_55\n      calldatasize\n      0x04\n      tag_56\n      jump\t// in\n    tag_55:\n      tag_57\n      jump\t// in\n    tag_54:\n      mload(0x40)\n        /* \"#utility.yul\":1742:1744   */\n      0x0f\n        /* \"#utility.yul\":1731:1753   */\n      swap2\n      swap1\n      swap2\n      signextend\n        /* \"#utility.yul\":1713:1754   */\n      dup2\n      mstore\n        /* \"#utility.yul\":1701:1703   */\n      0x20\n        /* \"#utility.yul\":1686:1704   */\n      add\n        /* \"LmLSMR.sol\":10861:11041  function getTokenEth(... */\n      tag_46\n        /* \"#utility.yul\":1569:1760   */\n      jump\n        /* \"LmLSMR.sol\":7397:7664  function cost() public view onlyAfterInit() returns (int128) {... */\n    tag_6:\n      tag_54\n      tag_61\n      jump\t// in\n        /* \"LmLSMR.sol\":6166:6601  function withdraw() public onlyAfterInit() onlyOwner() {... */\n    tag_7:\n      tag_63\n      tag_64\n      jump\t// in\n    tag_63:\n      stop\n        /* \"LmLSMR.sol\":9558:9938  function getTokenWei(address _token, int128 _amount) public view returns (uint) {... */\n    tag_8:\n      tag_48\n      tag_66\n      calldatasize\n      0x04\n      tag_50\n      jump\t// in\n    tag_66:\n      tag_67\n      jump\t// in\n        /* \"LmLSMR.sol\":8675:9226  function odds(... */\n    tag_9:\n      tag_54\n      tag_70\n      calldatasize\n      0x04\n      tag_71\n      jump\t// in\n    tag_70:\n      tag_72\n      jump\t// in\n        /* \"LmLSMR.sol\":15105:15479  function withdrawFees() public onlyOwner {... */\n    tag_10:\n      tag_63\n      tag_75\n      jump\t// in\n        /* \"LmLSMR.sol\":11818:11969  function generateQuestionId(string memory uniqueString) public pure returns (bytes32) {... */\n    tag_11:\n      tag_48\n      tag_77\n      calldatasize\n      0x04\n      tag_78\n      jump\t// in\n    tag_77:\n      tag_79\n      jump\t// in\n        /* \"LmLSMR.sol\":13994:14723  function addLiquidity(uint _amount) public onlyOwner {... */\n    tag_12:\n      tag_63\n      tag_83\n      calldatasize\n      0x04\n      tag_71\n      jump\t// in\n    tag_83:\n      tag_84\n      jump\t// in\n        /* \"LmLSMR.sol\":9392:9554  function sellingPrice(... */\n    tag_13:\n      tag_54\n      tag_86\n      calldatasize\n      0x04\n      tag_87\n      jump\t// in\n    tag_86:\n      tag_88\n      jump\t// in\n        /* \"LmLSMR.sol\":14725:15045  function getAccumulatedFees() public view returns (uint) {... */\n    tag_14:\n      tag_48\n      tag_91\n      jump\t// in\n        /* \"@openzeppelin/contracts/access/Ownable.sol\":2293:2394   */\n    tag_15:\n      tag_63\n      tag_94\n      jump\t// in\n        /* \"LmLSMR.sol\":7778:8462  function cost_after_buy(... */\n    tag_16:\n      tag_54\n      tag_96\n      calldatasize\n      0x04\n      tag_87\n      jump\t// in\n    tag_96:\n      tag_97\n      jump\t// in\n        /* \"LmLSMR.sol\":13640:13721  function getLiquidityParameter() public view returns (int128) {... */\n    tag_17:\n        /* \"LmLSMR.sol\":13715:13716  b */\n      signextend(0x0f, sload(0x03))\n        /* \"LmLSMR.sol\":13640:13721  function getLiquidityParameter() public view returns (int128) {... */\n      jump(tag_54)\n        /* \"LmLSMR.sol\":943:966  uint public numOutcomes */\n    tag_18:\n      tag_48\n      sload(0x01)\n      dup2\n      jump\n        /* \"LmLSMR.sol\":1421:1449  uint256 public dummyVar = 42 */\n    tag_19:\n      tag_48\n      sload(0x09)\n      dup2\n      jump\n        /* \"LmLSMR.sol\":6605:7030  function getPositionAndDustPositions(... */\n    tag_20:\n      tag_108\n      tag_109\n      calldatasize\n      0x04\n      tag_71\n      jump\t// in\n    tag_109:\n      tag_110\n      jump\t// in\n    tag_108:\n      mload(0x40)\n      tag_46\n      swap2\n      swap1\n      tag_112\n      jump\t// in\n        /* \"LmLSMR.sol\":10570:10857  function getTokenWeiDown(address _token, int128 _amount) public view returns (uint) {... */\n    tag_21:\n      tag_48\n      tag_114\n      calldatasize\n      0x04\n      tag_50\n      jump\t// in\n    tag_114:\n      tag_115\n      jump\t// in\n        /* \"@openzeppelin/contracts/access/Ownable.sol\":1638:1723   */\n    tag_22:\n        /* \"@openzeppelin/contracts/access/Ownable.sol\":1684:1691   */\n      0x00\n        /* \"@openzeppelin/contracts/access/Ownable.sol\":1710:1716   */\n      sload\n      sub(shl(0xa0, 0x01), 0x01)\n      and\n        /* \"@openzeppelin/contracts/access/Ownable.sol\":1638:1723   */\n    tag_117:\n      mload(0x40)\n      sub(shl(0xa0, 0x01), 0x01)\n        /* \"#utility.yul\":4322:4377   */\n      swap1\n      swap2\n      and\n        /* \"#utility.yul\":4304:4378   */\n      dup2\n      mstore\n        /* \"#utility.yul\":4292:4294   */\n      0x20\n        /* \"#utility.yul\":4277:4295   */\n      add\n        /* \"@openzeppelin/contracts/access/Ownable.sol\":1638:1723   */\n      tag_46\n        /* \"#utility.yul\":4158:4384   */\n      jump\n        /* \"LmLSMR.sol\":2522:3539  function setup(... */\n    tag_23:\n      tag_63\n      tag_122\n      calldatasize\n      0x04\n      tag_123\n      jump\t// in\n    tag_122:\n      tag_124\n      jump\t// in\n        /* \"LmLSMR.sol\":11976:13636  function sell(uint256 _outcome, int128 _amount) public onlyAfterInit returns (int128 refund) {... */\n    tag_24:\n      tag_54\n      tag_126\n      calldatasize\n      0x04\n      tag_87\n      jump\t// in\n    tag_126:\n      tag_127\n      jump\t// in\n        /* \"LmLSMR.sol\":13725:13927  function getOutcomeSharesPurchased(uint256 _outcome) public view returns (int128) {... */\n    tag_25:\n      tag_54\n      tag_130\n      calldatasize\n      0x04\n      tag_71\n      jump\t// in\n    tag_130:\n      tag_131\n      jump\t// in\n        /* \"LmLSMR.sol\":11298:11581  function onERC1155BatchReceived(... */\n    tag_26:\n      tag_133\n      tag_134\n      calldatasize\n      0x04\n      tag_135\n      jump\t// in\n    tag_134:\n      shl(0xe0, 0xbc197c81)\n      swap9\n      swap8\n      pop\n      pop\n      pop\n      pop\n      pop\n      pop\n      pop\n      pop\n      jump\n    tag_133:\n      mload(0x40)\n      not(sub(shl(0xe0, 0x01), 0x01))\n        /* \"#utility.yul\":6955:6988   */\n      swap1\n      swap2\n      and\n        /* \"#utility.yul\":6937:6989   */\n      dup2\n      mstore\n        /* \"#utility.yul\":6925:6927   */\n      0x20\n        /* \"#utility.yul\":6910:6928   */\n      add\n        /* \"LmLSMR.sol\":11298:11581  function onERC1155BatchReceived(... */\n      tag_46\n        /* \"#utility.yul\":6793:6995   */\n      jump\n        /* \"LmLSMR.sol\":1132:1156  bytes32 public condition */\n    tag_27:\n      tag_48\n      sload(0x06)\n      dup2\n      jump\n        /* \"LmLSMR.sol\":1098:1127  int128 public initial_subsidy */\n    tag_28:\n      sload(0x05)\n      tag_54\n      swap1\n      0x0f\n      signextend\n      dup2\n      jump\n        /* \"LmLSMR.sol\":9232:9388  function price(... */\n    tag_29:\n      tag_54\n      tag_146\n      calldatasize\n      0x04\n      tag_87\n      jump\t// in\n    tag_146:\n      tag_147\n      jump\t// in\n        /* \"LmLSMR.sol\":15481:15688  function debugFees() public view returns (uint contractBalance, uint theoreticalCost) {... */\n    tag_30:\n      tag_149\n      tag_150\n      jump\t// in\n    tag_149:\n      0x40\n      dup1\n      mload\n        /* \"#utility.yul\":7174:7199   */\n      swap3\n      dup4\n      mstore\n        /* \"#utility.yul\":7230:7232   */\n      0x20\n        /* \"#utility.yul\":7215:7233   */\n      dup4\n      add\n        /* \"#utility.yul\":7208:7242   */\n      swap2\n      swap1\n      swap2\n      mstore\n        /* \"#utility.yul\":7147:7165   */\n      add\n        /* \"LmLSMR.sol\":15481:15688  function debugFees() public view returns (uint contractBalance, uint theoreticalCost) {... */\n      tag_46\n        /* \"#utility.yul\":7000:7248   */\n      jump\n        /* \"LmLSMR.sol\":11045:11294  function onERC1155Received(... */\n    tag_31:\n      tag_133\n      tag_154\n      calldatasize\n      0x04\n      tag_155\n      jump\t// in\n    tag_154:\n      shl(0xe0, 0xf23a6e61)\n      swap7\n      swap6\n      pop\n      pop\n      pop\n      pop\n      pop\n      pop\n      jump\n        /* \"@openzeppelin/contracts/access/Ownable.sol\":2543:2758   */\n    tag_32:\n      tag_63\n      tag_159\n      calldatasize\n      0x04\n      tag_160\n      jump\t// in\n    tag_159:\n      tag_161\n      jump\t// in\n        /* \"LmLSMR.sol\":5057:5951  function buy(... */\n    tag_33:\n      tag_54\n      tag_163\n      calldatasize\n      0x04\n      tag_87\n      jump\t// in\n    tag_163:\n      tag_164\n      jump\t// in\n        /* \"LmLSMR.sol\":1192:1212  address public token */\n    tag_34:\n      sload(0x08)\n      tag_117\n      swap1\n      sub(shl(0xa0, 0x01), 0x01)\n      and\n      dup2\n      jump\n        /* \"LmLSMR.sol\":9942:10566  function getTokenWeiUp(address _token, int128 _amount) public view returns (uint) {... */\n    tag_51:\n        /* \"LmLSMR.sol\":10018:10022  uint */\n      0x00\n        /* \"LmLSMR.sol\":10030:10036  uint d */\n      dup1\n        /* \"LmLSMR.sol\":10045:10051  _token */\n      dup4\n      sub(shl(0xa0, 0x01), 0x01)\n        /* \"LmLSMR.sol\":10039:10061  ERC20(_token).decimals */\n      and\n      0x313ce567\n        /* \"LmLSMR.sol\":10039:10063  ERC20(_token).decimals() */\n      mload(0x40)\n      dup2\n      0xffffffff\n      and\n      0xe0\n      shl\n      dup2\n      mstore\n      0x04\n      add\n      0x20\n      mload(0x40)\n      dup1\n      dup4\n      sub\n      dup2\n      dup7\n      gas\n      staticcall\n      iszero\n      dup1\n      iszero\n      tag_172\n      jumpi\n      returndatasize\n      0x00\n      dup1\n      returndatacopy\n      revert(0x00, returndatasize)\n    tag_172:\n      pop\n      pop\n      pop\n      pop\n      mload(0x40)\n      returndatasize\n      not(0x1f)\n      0x1f\n      dup3\n      add\n      and\n      dup3\n      add\n      dup1\n      0x40\n      mstore\n      pop\n      dup2\n      add\n      swap1\n      tag_173\n      swap2\n      swap1\n      tag_174\n      jump\t// in\n    tag_173:\n        /* \"LmLSMR.sol\":10030:10063  uint d = ERC20(_token).decimals() */\n      0xff\n      and\n      swap1\n      pop\n        /* \"LmLSMR.sol\":10069:10084  uint multiplier */\n      0x00\n        /* \"LmLSMR.sol\":10087:10094  10 ** d */\n      tag_175\n        /* \"LmLSMR.sol\":10030:10063  uint d = ERC20(_token).decimals() */\n      dup3\n        /* \"LmLSMR.sol\":10087:10089  10 */\n      0x0a\n        /* \"LmLSMR.sol\":10087:10094  10 ** d */\n      tag_176\n      jump\t// in\n    tag_175:\n        /* \"LmLSMR.sol\":10069:10094  uint multiplier = 10 ** d */\n      swap1\n      pop\n        /* \"LmLSMR.sol\":10119:10120  0 */\n      0x00\n        /* \"LmLSMR.sol\":10108:10115  _amount */\n      dup5\n        /* \"LmLSMR.sol\":10108:10120  _amount >= 0 */\n      0x0f\n      signextend\n      slt\n      iszero\n        /* \"LmLSMR.sol\":10100:10152  require(_amount >= 0, \"Amount must be non-negative\") */\n      tag_177\n      jumpi\n      mload(0x40)\n      shl(0xe5, 0x461bcd)\n      dup2\n      mstore\n        /* \"#utility.yul\":10124:10126   */\n      0x20\n        /* \"LmLSMR.sol\":10100:10152  require(_amount >= 0, \"Amount must be non-negative\") */\n      0x04\n      dup3\n      add\n        /* \"#utility.yul\":10106:10127   */\n      mstore\n        /* \"#utility.yul\":10163:10165   */\n      0x1b\n        /* \"#utility.yul\":10143:10161   */\n      0x24\n      dup3\n      add\n        /* \"#utility.yul\":10136:10166   */\n      mstore\n        /* \"#utility.yul\":10202:10231   */\n      0x416d6f756e74206d757374206265206e6f6e2d6e656761746976650000000000\n        /* \"#utility.yul\":10182:10200   */\n      0x44\n      dup3\n      add\n        /* \"#utility.yul\":10175:10232   */\n      mstore\n        /* \"#utility.yul\":10249:10267   */\n      0x64\n      add\n        /* \"LmLSMR.sol\":10100:10152  require(_amount >= 0, \"Amount must be non-negative\") */\n    tag_178:\n      mload(0x40)\n      dup1\n      swap2\n      sub\n      swap1\n      revert\n    tag_177:\n        /* \"LmLSMR.sol\":10204:10215  uint result */\n      0x00\n        /* \"LmLSMR.sol\":10218:10252  ABDKMath.mulu(_amount, multiplier) */\n      tag_180\n        /* \"LmLSMR.sol\":10232:10239  _amount */\n      dup6\n        /* \"LmLSMR.sol\":10241:10251  multiplier */\n      dup4\n        /* \"LmLSMR.sol\":10218:10231  ABDKMath.mulu */\n      tag_181\n        /* \"LmLSMR.sol\":10218:10252  ABDKMath.mulu(_amount, multiplier) */\n      jump\t// in\n    tag_180:\n        /* \"LmLSMR.sol\":10204:10252  uint result = ABDKMath.mulu(_amount, multiplier) */\n      swap1\n      pop\n        /* \"LmLSMR.sol\":10514:10515  0 */\n      0x00\n        /* \"LmLSMR.sol\":10441:10490  ABDKMath.mul(_amount, int128(int256(multiplier))) */\n      tag_182\n        /* \"LmLSMR.sol\":10454:10461  _amount */\n      dup7\n        /* \"LmLSMR.sol\":10477:10487  multiplier */\n      dup5\n        /* \"LmLSMR.sol\":10441:10453  ABDKMath.mul */\n      tag_183\n        /* \"LmLSMR.sol\":10441:10490  ABDKMath.mul(_amount, int128(int256(multiplier))) */\n      jump\t// in\n    tag_182:\n        /* \"LmLSMR.sol\":10493:10511  0xFFFFFFFFFFFFFFFF */\n      0xffffffffffffffff\n        /* \"LmLSMR.sol\":10441:10511  ABDKMath.mul(_amount, int128(int256(multiplier))) & 0xFFFFFFFFFFFFFFFF */\n      and\n        /* \"LmLSMR.sol\":10441:10515  ABDKMath.mul(_amount, int128(int256(multiplier))) & 0xFFFFFFFFFFFFFFFF > 0 */\n      0x0f\n      signextend\n      sgt\n        /* \"LmLSMR.sol\":10437:10545  if (ABDKMath.mul(_amount, int128(int256(multiplier))) & 0xFFFFFFFFFFFFFFFF > 0) {... */\n      iszero\n      tag_184\n      jumpi\n        /* \"LmLSMR.sol\":10527:10538  result += 1 */\n      tag_185\n        /* \"LmLSMR.sol\":10537:10538  1 */\n      0x01\n        /* \"LmLSMR.sol\":10527:10538  result += 1 */\n      dup3\n      tag_186\n      jump\t// in\n    tag_185:\n      swap1\n      pop\n        /* \"LmLSMR.sol\":10437:10545  if (ABDKMath.mul(_amount, int128(int256(multiplier))) & 0xFFFFFFFFFFFFFFFF > 0) {... */\n    tag_184:\n        /* \"LmLSMR.sol\":10557:10563  result */\n      swap3\n      pop\n      pop\n      pop\n        /* \"LmLSMR.sol\":9942:10566  function getTokenWeiUp(address _token, int128 _amount) public view returns (uint) {... */\n    tag_170:\n      swap3\n      swap2\n      pop\n      pop\n      jump\t// out\n        /* \"LmLSMR.sol\":10861:11041  function getTokenEth(... */\n    tag_57:\n        /* \"LmLSMR.sol\":10945:10951  int128 */\n      0x00\n        /* \"LmLSMR.sol\":10959:10965  uint d */\n      dup1\n        /* \"LmLSMR.sol\":10974:10980  _token */\n      dup4\n      sub(shl(0xa0, 0x01), 0x01)\n        /* \"LmLSMR.sol\":10968:10990  ERC20(_token).decimals */\n      and\n      0x313ce567\n        /* \"LmLSMR.sol\":10968:10992  ERC20(_token).decimals() */\n      mload(0x40)\n      dup2\n      0xffffffff\n      and\n      0xe0\n      shl\n      dup2\n      mstore\n      0x04\n      add\n      0x20\n      mload(0x40)\n      dup1\n      dup4\n      sub\n      dup2\n      dup7\n      gas\n      staticcall\n      iszero\n      dup1\n      iszero\n      tag_189\n      jumpi\n      returndatasize\n      0x00\n      dup1\n      returndatacopy\n      revert(0x00, returndatasize)\n    tag_189:\n      pop\n      pop\n      pop\n      pop\n      mload(0x40)\n      returndatasize\n      not(0x1f)\n      0x1f\n      dup3\n      add\n      and\n      dup3\n      add\n      dup1\n      0x40\n      mstore\n      pop\n      dup2\n      add\n      swap1\n      tag_190\n      swap2\n      swap1\n      tag_174\n      jump\t// in\n    tag_190:\n        /* \"LmLSMR.sol\":10959:10992  uint d = ERC20(_token).decimals() */\n      0xff\n      and\n      swap1\n      pop\n        /* \"LmLSMR.sol\":11005:11036  ABDKMath.divu(_amount, 10 ** d) */\n      tag_191\n        /* \"LmLSMR.sol\":11019:11026  _amount */\n      dup4\n        /* \"LmLSMR.sol\":11028:11035  10 ** d */\n      tag_192\n        /* \"LmLSMR.sol\":10959:10992  uint d = ERC20(_token).decimals() */\n      dup4\n        /* \"LmLSMR.sol\":11028:11030  10 */\n      0x0a\n        /* \"LmLSMR.sol\":11028:11035  10 ** d */\n      tag_176\n      jump\t// in\n    tag_192:\n        /* \"LmLSMR.sol\":11005:11018  ABDKMath.divu */\n      tag_193\n        /* \"LmLSMR.sol\":11005:11036  ABDKMath.divu(_amount, 10 ** d) */\n      jump\t// in\n    tag_191:\n        /* \"LmLSMR.sol\":10998:11036  return ABDKMath.divu(_amount, 10 ** d) */\n      swap5\n        /* \"LmLSMR.sol\":10861:11041  function getTokenEth(... */\n      swap4\n      pop\n      pop\n      pop\n      pop\n      jump\t// out\n        /* \"LmLSMR.sol\":7397:7664  function cost() public view onlyAfterInit() returns (int128) {... */\n    tag_61:\n        /* \"LmLSMR.sol\":11727:11731  init */\n      sload(0x08)\n        /* \"LmLSMR.sol\":7450:7456  int128 */\n      0x00\n      swap1\n      shl(0xa0, 0x01)\n        /* \"LmLSMR.sol\":11727:11731  init */\n      swap1\n      div\n      0xff\n      and\n        /* \"LmLSMR.sol\":11727:11739  init == true */\n      iszero\n      iszero\n        /* \"LmLSMR.sol\":11735:11739  true */\n      0x01\n        /* \"LmLSMR.sol\":11727:11739  init == true */\n      eq\n        /* \"LmLSMR.sol\":11719:11740  require(init == true) */\n      tag_195\n      jumpi\n      0x00\n      dup1\n      revert\n    tag_195:\n        /* \"LmLSMR.sol\":7464:7480  int128 sum_total */\n      0x00\n      dup1\n        /* \"LmLSMR.sol\":7486:7608  for(uint i=0; i< numOutcomes; i++) {... */\n    tag_197:\n        /* \"LmLSMR.sol\":7503:7514  numOutcomes */\n      sload(0x01)\n        /* \"LmLSMR.sol\":7500:7501  i */\n      dup2\n        /* \"LmLSMR.sol\":7500:7514  i< numOutcomes */\n      lt\n        /* \"LmLSMR.sol\":7486:7608  for(uint i=0; i< numOutcomes; i++) {... */\n      iszero\n      tag_198\n      jumpi\n        /* \"LmLSMR.sol\":7541:7601  ABDKMath.add(sum_total, ABDKMath.exp(ABDKMath.div(q[i], b))) */\n      tag_200\n        /* \"LmLSMR.sol\":7554:7563  sum_total */\n      dup3\n        /* \"LmLSMR.sol\":7565:7600  ABDKMath.exp(ABDKMath.div(q[i], b)) */\n      tag_201\n        /* \"LmLSMR.sol\":7578:7599  ABDKMath.div(q[i], b) */\n      tag_202\n        /* \"LmLSMR.sol\":7591:7592  q */\n      0x02\n        /* \"LmLSMR.sol\":7593:7594  i */\n      dup6\n        /* \"LmLSMR.sol\":7591:7595  q[i] */\n      dup2\n      sload\n      dup2\n      lt\n      tag_204\n      jumpi\n      tag_204\n      tag_205\n      jump\t// in\n    tag_204:\n      0x00\n      swap2\n      dup3\n      mstore\n      0x20\n      swap1\n      swap2\n      keccak256\n      0x02\n      dup3\n      div\n      add\n      sload\n        /* \"LmLSMR.sol\":7597:7598  b */\n      sload(0x03)\n        /* \"LmLSMR.sol\":7591:7595  q[i] */\n      0x01\n      swap1\n      swap3\n      and\n      0x10\n      mul\n      0x0100\n      exp\n      swap1\n      div\n      0x0f\n      swap1\n      dup2\n      signextend\n      swap2\n        /* \"LmLSMR.sol\":7597:7598  b */\n      swap1\n      signextend\n        /* \"LmLSMR.sol\":7578:7590  ABDKMath.div */\n      tag_207\n        /* \"LmLSMR.sol\":7578:7599  ABDKMath.div(q[i], b) */\n      jump\t// in\n    tag_202:\n        /* \"LmLSMR.sol\":7565:7577  ABDKMath.exp */\n      tag_208\n        /* \"LmLSMR.sol\":7565:7600  ABDKMath.exp(ABDKMath.div(q[i], b)) */\n      jump\t// in\n    tag_201:\n        /* \"LmLSMR.sol\":7541:7553  ABDKMath.add */\n      tag_209\n        /* \"LmLSMR.sol\":7541:7601  ABDKMath.add(sum_total, ABDKMath.exp(ABDKMath.div(q[i], b))) */\n      jump\t// in\n    tag_200:\n        /* \"LmLSMR.sol\":7529:7601  sum_total = ABDKMath.add(sum_total, ABDKMath.exp(ABDKMath.div(q[i], b))) */\n      swap2\n      pop\n        /* \"LmLSMR.sol\":7516:7519  i++ */\n      0x01\n      add\n        /* \"LmLSMR.sol\":7486:7608  for(uint i=0; i< numOutcomes; i++) {... */\n      jump(tag_197)\n    tag_198:\n      pop\n        /* \"LmLSMR.sol\":7633:7634  b */\n      sload(0x03)\n        /* \"LmLSMR.sol\":7620:7659  ABDKMath.mul(b, ABDKMath.ln(sum_total)) */\n      tag_210\n      swap1\n        /* \"LmLSMR.sol\":7633:7634  b */\n      0x0f\n      signextend\n        /* \"LmLSMR.sol\":7636:7658  ABDKMath.ln(sum_total) */\n      tag_211\n        /* \"LmLSMR.sol\":7648:7657  sum_total */\n      dup4\n        /* \"LmLSMR.sol\":7636:7647  ABDKMath.ln */\n      tag_212\n        /* \"LmLSMR.sol\":7636:7658  ABDKMath.ln(sum_total) */\n      jump\t// in\n    tag_211:\n        /* \"LmLSMR.sol\":7620:7632  ABDKMath.mul */\n      tag_183\n        /* \"LmLSMR.sol\":7620:7659  ABDKMath.mul(b, ABDKMath.ln(sum_total)) */\n      jump\t// in\n    tag_210:\n        /* \"LmLSMR.sol\":7613:7659  return ABDKMath.mul(b, ABDKMath.ln(sum_total)) */\n      swap2\n      pop\n      pop\n        /* \"LmLSMR.sol\":7397:7664  function cost() public view onlyAfterInit() returns (int128) {... */\n      swap1\n      jump\t// out\n        /* \"LmLSMR.sol\":6166:6601  function withdraw() public onlyAfterInit() onlyOwner() {... */\n    tag_64:\n        /* \"LmLSMR.sol\":11727:11731  init */\n      sload(0x08)\n      shl(0xa0, 0x01)\n      swap1\n      div\n      0xff\n      and\n        /* \"LmLSMR.sol\":11727:11739  init == true */\n      iszero\n      iszero\n        /* \"LmLSMR.sol\":11735:11739  true */\n      0x01\n        /* \"LmLSMR.sol\":11727:11739  init == true */\n      eq\n        /* \"LmLSMR.sol\":11719:11740  require(init == true) */\n      tag_214\n      jumpi\n      0x00\n      dup1\n      revert\n    tag_214:\n        /* \"@openzeppelin/contracts/access/Ownable.sol\":1531:1544   */\n      tag_216\n        /* \"@openzeppelin/contracts/access/Ownable.sol\":1531:1542   */\n      tag_217\n        /* \"@openzeppelin/contracts/access/Ownable.sol\":1531:1544   */\n      jump\t// in\n    tag_216:\n        /* \"LmLSMR.sol\":6235:6237  CT */\n      sload(0x07)\n        /* \"LmLSMR.sol\":6256:6265  condition */\n      sload(0x06)\n        /* \"LmLSMR.sol\":6235:6266  CT.payoutDenominator(condition) */\n      mload(0x40)\n      shl(0xe0, 0xdd34de67)\n      dup2\n      mstore\n      sub(shl(0xa0, 0x01), 0x01)\n        /* \"LmLSMR.sol\":6235:6237  CT */\n      swap1\n      swap3\n      and\n      swap2\n        /* \"LmLSMR.sol\":6235:6255  CT.payoutDenominator */\n      0xdd34de67\n      swap2\n        /* \"LmLSMR.sol\":6235:6266  CT.payoutDenominator(condition) */\n      tag_219\n      swap2\n      0x04\n      add\n        /* \"#utility.yul\":1274:1299   */\n      swap1\n      dup2\n      mstore\n        /* \"#utility.yul\":1262:1264   */\n      0x20\n        /* \"#utility.yul\":1247:1265   */\n      add\n      swap1\n        /* \"#utility.yul\":1128:1305   */\n      jump\n        /* \"LmLSMR.sol\":6235:6266  CT.payoutDenominator(condition) */\n    tag_219:\n      0x20\n      mload(0x40)\n      dup1\n      dup4\n      sub\n      dup2\n      dup7\n      gas\n      staticcall\n      iszero\n      dup1\n      iszero\n      tag_221\n      jumpi\n      returndatasize\n      0x00\n      dup1\n      returndatacopy\n      revert(0x00, returndatasize)\n    tag_221:\n      pop\n      pop\n      pop\n      pop\n      mload(0x40)\n      returndatasize\n      not(0x1f)\n      0x1f\n      dup3\n      add\n      and\n      dup3\n      add\n      dup1\n      0x40\n      mstore\n      pop\n      dup2\n      add\n      swap1\n      tag_222\n      swap2\n      swap1\n      tag_223\n      jump\t// in\n    tag_222:\n        /* \"LmLSMR.sol\":6270:6271  0 */\n      0x00\n        /* \"LmLSMR.sol\":6235:6271  CT.payoutDenominator(condition) != 0 */\n      sub\n        /* \"LmLSMR.sol\":6227:6303  require(CT.payoutDenominator(condition) != 0, 'Market needs to be resolved') */\n      tag_224\n      jumpi\n      mload(0x40)\n      shl(0xe5, 0x461bcd)\n      dup2\n      mstore\n        /* \"#utility.yul\":10931:10933   */\n      0x20\n        /* \"LmLSMR.sol\":6227:6303  require(CT.payoutDenominator(condition) != 0, 'Market needs to be resolved') */\n      0x04\n      dup3\n      add\n        /* \"#utility.yul\":10913:10934   */\n      mstore\n        /* \"#utility.yul\":10970:10972   */\n      0x1b\n        /* \"#utility.yul\":10950:10968   */\n      0x24\n      dup3\n      add\n        /* \"#utility.yul\":10943:10973   */\n      mstore\n        /* \"#utility.yul\":11009:11038   */\n      0x4d61726b6574206e6565647320746f206265207265736f6c7665640000000000\n        /* \"#utility.yul\":10989:11007   */\n      0x44\n      dup3\n      add\n        /* \"#utility.yul\":10982:11039   */\n      mstore\n        /* \"#utility.yul\":11056:11074   */\n      0x64\n      add\n        /* \"LmLSMR.sol\":6227:6303  require(CT.payoutDenominator(condition) != 0, 'Market needs to be resolved') */\n      tag_178\n        /* \"#utility.yul\":10729:11080   */\n      jump\n        /* \"LmLSMR.sol\":6227:6303  require(CT.payoutDenominator(condition) != 0, 'Market needs to be resolved') */\n    tag_224:\n        /* \"LmLSMR.sol\":6309:6327  uint[] memory dust */\n      0x00\n        /* \"LmLSMR.sol\":6344:6355  numOutcomes */\n      sload(0x01)\n        /* \"LmLSMR.sol\":6330:6356  new uint256[](numOutcomes) */\n      0xffffffffffffffff\n      dup2\n      gt\n      iszero\n      tag_228\n      jumpi\n      tag_228\n      tag_229\n      jump\t// in\n    tag_228:\n      mload(0x40)\n      swap1\n      dup1\n      dup3\n      mstore\n      dup1\n      0x20\n      mul\n      0x20\n      add\n      dup3\n      add\n      0x40\n      mstore\n      dup1\n      iszero\n      tag_230\n      jumpi\n      dup2\n      0x20\n      add\n      0x20\n      dup3\n      mul\n      dup1\n      calldatasize\n      dup4\n      calldatacopy\n      add\n      swap1\n      pop\n    tag_230:\n      pop\n        /* \"LmLSMR.sol\":6309:6356  uint[] memory dust = new uint256[](numOutcomes) */\n      swap1\n      pop\n        /* \"LmLSMR.sol\":6386:6392  uint i */\n      0x00\n        /* \"LmLSMR.sol\":6381:6445  for (uint i=0; i<numOutcomes; i++) {... */\n    tag_231:\n        /* \"LmLSMR.sol\":6398:6409  numOutcomes */\n      sload(0x01)\n        /* \"LmLSMR.sol\":6396:6397  i */\n      dup2\n        /* \"LmLSMR.sol\":6396:6409  i<numOutcomes */\n      lt\n        /* \"LmLSMR.sol\":6381:6445  for (uint i=0; i<numOutcomes; i++) {... */\n      iszero\n      tag_232\n      jumpi\n        /* \"LmLSMR.sol\":6437:6438  i */\n      dup1\n        /* \"LmLSMR.sol\":6434:6435  1 */\n      0x01\n        /* \"LmLSMR.sol\":6434:6438  1<<i */\n      swap1\n      shl\n        /* \"LmLSMR.sol\":6424:6428  dust */\n      dup3\n        /* \"LmLSMR.sol\":6429:6430  i */\n      dup3\n        /* \"LmLSMR.sol\":6424:6431  dust[i] */\n      dup2\n      mload\n      dup2\n      lt\n      tag_235\n      jumpi\n      tag_235\n      tag_205\n      jump\t// in\n    tag_235:\n      0x20\n      swap1\n      dup2\n      mul\n      swap2\n      swap1\n      swap2\n      add\n      add\n        /* \"LmLSMR.sol\":6424:6438  dust[i] = 1<<i */\n      mstore\n        /* \"LmLSMR.sol\":6411:6414  i++ */\n      0x01\n      add\n        /* \"LmLSMR.sol\":6381:6445  for (uint i=0; i<numOutcomes; i++) {... */\n      jump(tag_231)\n    tag_232:\n      pop\n        /* \"LmLSMR.sol\":6450:6452  CT */\n      sload(0x07)\n        /* \"LmLSMR.sol\":6476:6481  token */\n      sload(0x08)\n        /* \"LmLSMR.sol\":6496:6505  condition */\n      sload(0x06)\n        /* \"LmLSMR.sol\":6450:6512  CT.redeemPositions(IERC20(token), bytes32(0), condition, dust) */\n      mload(0x40)\n      shl(0xe2, 0x6dc0df)\n      dup2\n      mstore\n      sub(shl(0xa0, 0x01), 0x01)\n        /* \"LmLSMR.sol\":6450:6452  CT */\n      swap4\n      dup5\n      and\n      swap4\n        /* \"LmLSMR.sol\":6450:6468  CT.redeemPositions */\n      0x01b7037c\n      swap4\n        /* \"LmLSMR.sol\":6450:6512  CT.redeemPositions(IERC20(token), bytes32(0), condition, dust) */\n      tag_236\n      swap4\n        /* \"LmLSMR.sol\":6476:6481  token */\n      swap2\n      and\n      swap2\n        /* \"LmLSMR.sol\":6450:6452  CT */\n      0x00\n      swap2\n        /* \"LmLSMR.sol\":6496:6505  condition */\n      swap1\n        /* \"LmLSMR.sol\":6507:6511  dust */\n      dup8\n      swap1\n        /* \"LmLSMR.sol\":6450:6512  CT.redeemPositions(IERC20(token), bytes32(0), condition, dust) */\n      0x04\n      add\n      tag_237\n      jump\t// in\n    tag_236:\n      0x00\n      mload(0x40)\n      dup1\n      dup4\n      sub\n      dup2\n      0x00\n      dup8\n      dup1\n      extcodesize\n      iszero\n      dup1\n      iszero\n      tag_238\n      jumpi\n      0x00\n      dup1\n      revert\n    tag_238:\n      pop\n      gas\n      call\n      iszero\n      dup1\n      iszero\n      tag_240\n      jumpi\n      returndatasize\n      0x00\n      dup1\n      returndatacopy\n      revert(0x00, returndatasize)\n    tag_240:\n      pop\n      pop\n        /* \"LmLSMR.sol\":6564:6569  token */\n      sload(0x08)\n        /* \"LmLSMR.sol\":6557:6595  IERC20(token).balanceOf(address(this)) */\n      mload(0x40)\n      shl(0xe0, 0x70a08231)\n      dup2\n      mstore\n        /* \"LmLSMR.sol\":6589:6593  this */\n      address\n        /* \"LmLSMR.sol\":6557:6595  IERC20(token).balanceOf(address(this)) */\n      0x04\n      dup3\n      add\n        /* \"#utility.yul\":4304:4378   */\n      mstore\n        /* \"LmLSMR.sol\":6518:6596  IERC20(token).safeTransfer(msg.sender, IERC20(token).balanceOf(address(this))) */\n      tag_241\n      swap4\n      pop\n        /* \"LmLSMR.sol\":6545:6555  msg.sender */\n      caller\n      swap3\n      pop\n      sub(shl(0xa0, 0x01), 0x01)\n        /* \"LmLSMR.sol\":6564:6569  token */\n      swap1\n      swap2\n      and\n      swap1\n        /* \"LmLSMR.sol\":6557:6580  IERC20(token).balanceOf */\n      0x70a08231\n      swap1\n        /* \"#utility.yul\":4277:4295   */\n      0x24\n      add\n        /* \"LmLSMR.sol\":6557:6595  IERC20(token).balanceOf(address(this)) */\n      0x20\n      mload(0x40)\n      dup1\n      dup4\n      sub\n      dup2\n      dup7\n      gas\n      staticcall\n      iszero\n      dup1\n      iszero\n      tag_244\n      jumpi\n      returndatasize\n      0x00\n      dup1\n      returndatacopy\n      revert(0x00, returndatasize)\n    tag_244:\n      pop\n      pop\n      pop\n      pop\n      mload(0x40)\n      returndatasize\n      not(0x1f)\n      0x1f\n      dup3\n      add\n      and\n      dup3\n      add\n      dup1\n      0x40\n      mstore\n      pop\n      dup2\n      add\n      swap1\n      tag_245\n      swap2\n      swap1\n      tag_223\n      jump\t// in\n    tag_245:\n        /* \"LmLSMR.sol\":6525:6530  token */\n      and(sub(shl(0xa0, 0x01), 0x01), sload(0x08))\n      swap2\n        /* \"LmLSMR.sol\":6518:6596  IERC20(token).safeTransfer(msg.sender, IERC20(token).balanceOf(address(this))) */\n      swap1\n        /* \"LmLSMR.sol\":6518:6544  IERC20(token).safeTransfer */\n      tag_246\n        /* \"LmLSMR.sol\":6518:6596  IERC20(token).safeTransfer(msg.sender, IERC20(token).balanceOf(address(this))) */\n      jump\t// in\n    tag_241:\n        /* \"LmLSMR.sol\":6221:6601  {... */\n      pop\n        /* \"LmLSMR.sol\":6166:6601  function withdraw() public onlyAfterInit() onlyOwner() {... */\n      jump\t// out\n        /* \"LmLSMR.sol\":9558:9938  function getTokenWei(address _token, int128 _amount) public view returns (uint) {... */\n    tag_67:\n        /* \"LmLSMR.sol\":9632:9636  uint */\n      0x00\n        /* \"LmLSMR.sol\":9644:9650  uint d */\n      dup1\n        /* \"LmLSMR.sol\":9659:9665  _token */\n      dup4\n      sub(shl(0xa0, 0x01), 0x01)\n        /* \"LmLSMR.sol\":9653:9675  ERC20(_token).decimals */\n      and\n      0x313ce567\n        /* \"LmLSMR.sol\":9653:9677  ERC20(_token).decimals() */\n      mload(0x40)\n      dup2\n      0xffffffff\n      and\n      0xe0\n      shl\n      dup2\n      mstore\n      0x04\n      add\n      0x20\n      mload(0x40)\n      dup1\n      dup4\n      sub\n      dup2\n      dup7\n      gas\n      staticcall\n      iszero\n      dup1\n      iszero\n      tag_249\n      jumpi\n      returndatasize\n      0x00\n      dup1\n      returndatacopy\n      revert(0x00, returndatasize)\n    tag_249:\n      pop\n      pop\n      pop\n      pop\n      mload(0x40)\n      returndatasize\n      not(0x1f)\n      0x1f\n      dup3\n      add\n      and\n      dup3\n      add\n      dup1\n      0x40\n      mstore\n      pop\n      dup2\n      add\n      swap1\n      tag_250\n      swap2\n      swap1\n      tag_174\n      jump\t// in\n    tag_250:\n        /* \"LmLSMR.sol\":9644:9677  uint d = ERC20(_token).decimals() */\n      0xff\n      and\n      swap1\n      pop\n        /* \"LmLSMR.sol\":9683:9698  uint multiplier */\n      0x00\n        /* \"LmLSMR.sol\":9701:9708  10 ** d */\n      tag_251\n        /* \"LmLSMR.sol\":9644:9677  uint d = ERC20(_token).decimals() */\n      dup3\n        /* \"LmLSMR.sol\":9701:9703  10 */\n      0x0a\n        /* \"LmLSMR.sol\":9701:9708  10 ** d */\n      tag_176\n      jump\t// in\n    tag_251:\n        /* \"LmLSMR.sol\":9683:9708  uint multiplier = 10 ** d */\n      swap1\n      pop\n        /* \"LmLSMR.sol\":9733:9734  0 */\n      0x00\n        /* \"LmLSMR.sol\":9722:9729  _amount */\n      dup5\n        /* \"LmLSMR.sol\":9722:9734  _amount >= 0 */\n      0x0f\n      signextend\n      slt\n      iszero\n        /* \"LmLSMR.sol\":9714:9766  require(_amount >= 0, \"Amount must be non-negative\") */\n      tag_252\n      jumpi\n      mload(0x40)\n      shl(0xe5, 0x461bcd)\n      dup2\n      mstore\n        /* \"#utility.yul\":10124:10126   */\n      0x20\n        /* \"LmLSMR.sol\":9714:9766  require(_amount >= 0, \"Amount must be non-negative\") */\n      0x04\n      dup3\n      add\n        /* \"#utility.yul\":10106:10127   */\n      mstore\n        /* \"#utility.yul\":10163:10165   */\n      0x1b\n        /* \"#utility.yul\":10143:10161   */\n      0x24\n      dup3\n      add\n        /* \"#utility.yul\":10136:10166   */\n      mstore\n        /* \"#utility.yul\":10202:10231   */\n      0x416d6f756e74206d757374206265206e6f6e2d6e656761746976650000000000\n        /* \"#utility.yul\":10182:10200   */\n      0x44\n      dup3\n      add\n        /* \"#utility.yul\":10175:10232   */\n      mstore\n        /* \"#utility.yul\":10249:10267   */\n      0x64\n      add\n        /* \"LmLSMR.sol\":9714:9766  require(_amount >= 0, \"Amount must be non-negative\") */\n      tag_178\n        /* \"#utility.yul\":9922:10273   */\n      jump\n        /* \"LmLSMR.sol\":9714:9766  require(_amount >= 0, \"Amount must be non-negative\") */\n    tag_252:\n        /* \"LmLSMR.sol\":9816:9827  uint result */\n      0x00\n        /* \"LmLSMR.sol\":9830:9864  ABDKMath.mulu(_amount, multiplier) */\n      tag_185\n        /* \"LmLSMR.sol\":9844:9851  _amount */\n      dup6\n        /* \"LmLSMR.sol\":9853:9863  multiplier */\n      dup4\n        /* \"LmLSMR.sol\":9830:9843  ABDKMath.mulu */\n      tag_181\n        /* \"LmLSMR.sol\":9830:9864  ABDKMath.mulu(_amount, multiplier) */\n      jump\t// in\n        /* \"LmLSMR.sol\":8675:9226  function odds(... */\n    tag_72:\n        /* \"LmLSMR.sol\":8736:8742  int128 */\n      0x00\n        /* \"LmLSMR.sol\":8769:8780  numOutcomes */\n      sload(0x01)\n        /* \"LmLSMR.sol\":8758:8766  _outcome */\n      dup3\n        /* \"LmLSMR.sol\":8758:8780  _outcome < numOutcomes */\n      lt\n        /* \"LmLSMR.sol\":8750:8806  require(_outcome < numOutcomes, \"Invalid outcome index\") */\n      tag_256\n      jumpi\n      mload(0x40)\n      shl(0xe5, 0x461bcd)\n      dup2\n      mstore\n        /* \"#utility.yul\":11832:11834   */\n      0x20\n        /* \"LmLSMR.sol\":8750:8806  require(_outcome < numOutcomes, \"Invalid outcome index\") */\n      0x04\n      dup3\n      add\n        /* \"#utility.yul\":11814:11835   */\n      mstore\n        /* \"#utility.yul\":11871:11873   */\n      0x15\n        /* \"#utility.yul\":11851:11869   */\n      0x24\n      dup3\n      add\n        /* \"#utility.yul\":11844:11874   */\n      mstore\n      shl(0x5b, 0x092dcecc2d8d2c840deeae8c6dedaca40d2dcc8caf)\n        /* \"#utility.yul\":11890:11908   */\n      0x44\n      dup3\n      add\n        /* \"#utility.yul\":11883:11934   */\n      mstore\n        /* \"#utility.yul\":11951:11969   */\n      0x64\n      add\n        /* \"LmLSMR.sol\":8750:8806  require(_outcome < numOutcomes, \"Invalid outcome index\") */\n      tag_178\n        /* \"#utility.yul\":11630:11975   */\n      jump\n        /* \"LmLSMR.sol\":8750:8806  require(_outcome < numOutcomes, \"Invalid outcome index\") */\n    tag_256:\n        /* \"LmLSMR.sol\":8858:8874  int128 numerator */\n      0x00\n        /* \"LmLSMR.sol\":8877:8919  ABDKMath.exp(ABDKMath.div(q[_outcome], b)) */\n      tag_259\n        /* \"LmLSMR.sol\":8890:8918  ABDKMath.div(q[_outcome], b) */\n      tag_202\n        /* \"LmLSMR.sol\":8903:8904  q */\n      0x02\n        /* \"LmLSMR.sol\":8905:8913  _outcome */\n      dup6\n        /* \"LmLSMR.sol\":8903:8914  q[_outcome] */\n      dup2\n      sload\n      dup2\n      lt\n      tag_204\n      jumpi\n      tag_204\n      tag_205\n      jump\t// in\n        /* \"LmLSMR.sol\":8877:8919  ABDKMath.exp(ABDKMath.div(q[_outcome], b)) */\n    tag_259:\n        /* \"LmLSMR.sol\":8858:8919  int128 numerator = ABDKMath.exp(ABDKMath.div(q[_outcome], b)) */\n      swap1\n      pop\n        /* \"LmLSMR.sol\":8972:8990  int128 denominator */\n      0x00\n      dup1\n        /* \"LmLSMR.sol\":8996:9126  for (uint i = 0; i < numOutcomes; i++) {... */\n    tag_264:\n        /* \"LmLSMR.sol\":9017:9028  numOutcomes */\n      sload(0x01)\n        /* \"LmLSMR.sol\":9013:9014  i */\n      dup2\n        /* \"LmLSMR.sol\":9013:9028  i < numOutcomes */\n      lt\n        /* \"LmLSMR.sol\":8996:9126  for (uint i = 0; i < numOutcomes; i++) {... */\n      iszero\n      tag_265\n      jumpi\n        /* \"LmLSMR.sol\":9057:9119  ABDKMath.add(denominator, ABDKMath.exp(ABDKMath.div(q[i], b))) */\n      tag_267\n        /* \"LmLSMR.sol\":9070:9081  denominator */\n      dup3\n        /* \"LmLSMR.sol\":9083:9118  ABDKMath.exp(ABDKMath.div(q[i], b)) */\n      tag_201\n        /* \"LmLSMR.sol\":9096:9117  ABDKMath.div(q[i], b) */\n      tag_202\n        /* \"LmLSMR.sol\":9109:9110  q */\n      0x02\n        /* \"LmLSMR.sol\":9111:9112  i */\n      dup6\n        /* \"LmLSMR.sol\":9109:9113  q[i] */\n      dup2\n      sload\n      dup2\n      lt\n      tag_204\n      jumpi\n      tag_204\n      tag_205\n      jump\t// in\n        /* \"LmLSMR.sol\":9057:9119  ABDKMath.add(denominator, ABDKMath.exp(ABDKMath.div(q[i], b))) */\n    tag_267:\n        /* \"LmLSMR.sol\":9043:9119  denominator = ABDKMath.add(denominator, ABDKMath.exp(ABDKMath.div(q[i], b))) */\n      swap2\n      pop\n        /* \"LmLSMR.sol\":9030:9033  i++ */\n      0x01\n      add\n        /* \"LmLSMR.sol\":8996:9126  for (uint i = 0; i < numOutcomes; i++) {... */\n      jump(tag_264)\n    tag_265:\n      pop\n        /* \"LmLSMR.sol\":9185:9221  ABDKMath.div(numerator, denominator) */\n      tag_191\n        /* \"LmLSMR.sol\":9198:9207  numerator */\n      dup3\n        /* \"LmLSMR.sol\":9209:9220  denominator */\n      dup3\n        /* \"LmLSMR.sol\":9185:9197  ABDKMath.div */\n      tag_207\n        /* \"LmLSMR.sol\":9185:9221  ABDKMath.div(numerator, denominator) */\n      jump\t// in\n        /* \"LmLSMR.sol\":15105:15479  function withdrawFees() public onlyOwner {... */\n    tag_75:\n        /* \"@openzeppelin/contracts/access/Ownable.sol\":1531:1544   */\n      tag_275\n        /* \"@openzeppelin/contracts/access/Ownable.sol\":1531:1542   */\n      tag_217\n        /* \"@openzeppelin/contracts/access/Ownable.sol\":1531:1544   */\n      jump\t// in\n    tag_275:\n        /* \"LmLSMR.sol\":15180:15185  token */\n      sload(0x08)\n        /* \"LmLSMR.sol\":15173:15211  IERC20(token).balanceOf(address(this)) */\n      mload(0x40)\n      shl(0xe0, 0x70a08231)\n      dup2\n      mstore\n        /* \"LmLSMR.sol\":15205:15209  this */\n      address\n        /* \"LmLSMR.sol\":15173:15211  IERC20(token).balanceOf(address(this)) */\n      0x04\n      dup3\n      add\n        /* \"#utility.yul\":4304:4378   */\n      mstore\n        /* \"LmLSMR.sol\":15152:15170  uint actualBalance */\n      0x00\n      swap2\n      sub(shl(0xa0, 0x01), 0x01)\n        /* \"LmLSMR.sol\":15180:15185  token */\n      and\n      swap1\n        /* \"LmLSMR.sol\":15173:15196  IERC20(token).balanceOf */\n      0x70a08231\n      swap1\n        /* \"#utility.yul\":4277:4295   */\n      0x24\n      add\n        /* \"LmLSMR.sol\":15173:15211  IERC20(token).balanceOf(address(this)) */\n      0x20\n      mload(0x40)\n      dup1\n      dup4\n      sub\n      dup2\n      dup7\n      gas\n      staticcall\n      iszero\n      dup1\n      iszero\n      tag_279\n      jumpi\n      returndatasize\n      0x00\n      dup1\n      returndatacopy\n      revert(0x00, returndatasize)\n    tag_279:\n      pop\n      pop\n      pop\n      pop\n      mload(0x40)\n      returndatasize\n      not(0x1f)\n      0x1f\n      dup3\n      add\n      and\n      dup3\n      add\n      dup1\n      0x40\n      mstore\n      pop\n      dup2\n      add\n      swap1\n      tag_280\n      swap2\n      swap1\n      tag_223\n      jump\t// in\n    tag_280:\n        /* \"LmLSMR.sol\":15252:15257  token */\n      sload(0x08)\n        /* \"LmLSMR.sol\":15259:15271  current_cost */\n      sload(0x04)\n        /* \"LmLSMR.sol\":15152:15211  uint actualBalance = IERC20(token).balanceOf(address(this)) */\n      swap2\n      swap3\n      pop\n        /* \"LmLSMR.sol\":15217:15237  uint theoreticalCost */\n      0x00\n      swap2\n        /* \"LmLSMR.sol\":15240:15272  getTokenWei(token, current_cost) */\n      tag_281\n      swap2\n      sub(shl(0xa0, 0x01), 0x01)\n        /* \"LmLSMR.sol\":15252:15257  token */\n      and\n      swap1\n        /* \"LmLSMR.sol\":15259:15271  current_cost */\n      0x0f\n      signextend\n        /* \"LmLSMR.sol\":15240:15251  getTokenWei */\n      tag_67\n        /* \"LmLSMR.sol\":15240:15272  getTokenWei(token, current_cost) */\n      jump\t// in\n    tag_281:\n        /* \"LmLSMR.sol\":15217:15272  uint theoreticalCost = getTokenWei(token, current_cost) */\n      swap1\n      pop\n        /* \"LmLSMR.sol\":15302:15317  theoreticalCost */\n      dup1\n        /* \"LmLSMR.sol\":15286:15299  actualBalance */\n      dup3\n        /* \"LmLSMR.sol\":15286:15317  actualBalance > theoreticalCost */\n      gt\n        /* \"LmLSMR.sol\":15278:15341  require(actualBalance > theoreticalCost, \"No fees to withdraw\") */\n      tag_282\n      jumpi\n      mload(0x40)\n      shl(0xe5, 0x461bcd)\n      dup2\n      mstore\n        /* \"#utility.yul\":12182:12184   */\n      0x20\n        /* \"LmLSMR.sol\":15278:15341  require(actualBalance > theoreticalCost, \"No fees to withdraw\") */\n      0x04\n      dup3\n      add\n        /* \"#utility.yul\":12164:12185   */\n      mstore\n        /* \"#utility.yul\":12221:12223   */\n      0x13\n        /* \"#utility.yul\":12201:12219   */\n      0x24\n      dup3\n      add\n        /* \"#utility.yul\":12194:12224   */\n      mstore\n        /* \"#utility.yul\":12260:12281   */\n      0x4e6f206665657320746f20776974686472617700000000000000000000000000\n        /* \"#utility.yul\":12240:12258   */\n      0x44\n      dup3\n      add\n        /* \"#utility.yul\":12233:12282   */\n      mstore\n        /* \"#utility.yul\":12299:12317   */\n      0x64\n      add\n        /* \"LmLSMR.sol\":15278:15341  require(actualBalance > theoreticalCost, \"No fees to withdraw\") */\n      tag_178\n        /* \"#utility.yul\":11980:12323   */\n      jump\n        /* \"LmLSMR.sol\":15278:15341  require(actualBalance > theoreticalCost, \"No fees to withdraw\") */\n    tag_282:\n        /* \"LmLSMR.sol\":15347:15356  uint fees */\n      0x00\n        /* \"LmLSMR.sol\":15359:15390  actualBalance - theoreticalCost */\n      tag_285\n        /* \"LmLSMR.sol\":15375:15390  theoreticalCost */\n      dup3\n        /* \"LmLSMR.sol\":15359:15372  actualBalance */\n      dup5\n        /* \"LmLSMR.sol\":15359:15390  actualBalance - theoreticalCost */\n      tag_286\n      jump\t// in\n    tag_285:\n        /* \"LmLSMR.sol\":15347:15390  uint fees = actualBalance - theoreticalCost */\n      swap1\n      pop\n        /* \"LmLSMR.sol\":15396:15437  IERC20(token).safeTransfer(owner(), fees) */\n      tag_287\n        /* \"LmLSMR.sol\":15423:15430  owner() */\n      tag_288\n        /* \"@openzeppelin/contracts/access/Ownable.sol\":1684:1691   */\n      0x00\n        /* \"@openzeppelin/contracts/access/Ownable.sol\":1710:1716   */\n      sload\n      sub(shl(0xa0, 0x01), 0x01)\n      and\n      swap1\n        /* \"@openzeppelin/contracts/access/Ownable.sol\":1638:1723   */\n      jump\n        /* \"LmLSMR.sol\":15423:15430  owner() */\n    tag_288:\n        /* \"LmLSMR.sol\":15403:15408  token */\n      and(sub(shl(0xa0, 0x01), 0x01), sload(0x08))\n      swap1\n        /* \"LmLSMR.sol\":15432:15436  fees */\n      dup4\n        /* \"LmLSMR.sol\":15396:15422  IERC20(token).safeTransfer */\n      tag_246\n        /* \"LmLSMR.sol\":15396:15437  IERC20(token).safeTransfer(owner(), fees) */\n      jump\t// in\n    tag_287:\n        /* \"@openzeppelin/contracts/access/Ownable.sol\":1684:1691   */\n      0x00\n        /* \"@openzeppelin/contracts/access/Ownable.sol\":1710:1716   */\n      sload\n      sub(shl(0xa0, 0x01), 0x01)\n      and\n      sub(shl(0xa0, 0x01), 0x01)\n        /* \"LmLSMR.sol\":15448:15476  FeesWithdrawn(owner(), fees) */\n      and\n      0xc0819c13be868895eb93e40eaceb96de976442fa1d404e5c55f14bb65a8c489a\n        /* \"LmLSMR.sol\":15471:15475  fees */\n      dup3\n        /* \"LmLSMR.sol\":15448:15476  FeesWithdrawn(owner(), fees) */\n      mload(0x40)\n      tag_290\n      swap2\n        /* \"#utility.yul\":1274:1299   */\n      dup2\n      mstore\n        /* \"#utility.yul\":1262:1264   */\n      0x20\n        /* \"#utility.yul\":1247:1265   */\n      add\n      swap1\n        /* \"#utility.yul\":1128:1305   */\n      jump\n        /* \"LmLSMR.sol\":15448:15476  FeesWithdrawn(owner(), fees) */\n    tag_290:\n      mload(0x40)\n      dup1\n      swap2\n      sub\n      swap1\n      log2\n        /* \"LmLSMR.sol\":15146:15479  {... */\n      pop\n      pop\n      pop\n        /* \"LmLSMR.sol\":15105:15479  function withdrawFees() public onlyOwner {... */\n      jump\t// out\n        /* \"LmLSMR.sol\":11818:11969  function generateQuestionId(string memory uniqueString) public pure returns (bytes32) {... */\n    tag_79:\n        /* \"LmLSMR.sol\":11895:11902  bytes32 */\n      0x00\n        /* \"LmLSMR.sol\":11948:11960  uniqueString */\n      dup2\n        /* \"LmLSMR.sol\":11931:11961  abi.encodePacked(uniqueString) */\n      add(0x20, mload(0x40))\n      tag_292\n      swap2\n      swap1\n      tag_293\n      jump\t// in\n    tag_292:\n      mload(0x40)\n      0x20\n      dup2\n      dup4\n      sub\n      sub\n      dup2\n      mstore\n      swap1\n      0x40\n      mstore\n        /* \"LmLSMR.sol\":11921:11962  keccak256(abi.encodePacked(uniqueString)) */\n      dup1\n      mload\n      swap1\n      0x20\n      add\n      keccak256\n        /* \"LmLSMR.sol\":11914:11962  return keccak256(abi.encodePacked(uniqueString)) */\n      swap1\n      pop\n        /* \"LmLSMR.sol\":11818:11969  function generateQuestionId(string memory uniqueString) public pure returns (bytes32) {... */\n      swap2\n      swap1\n      pop\n      jump\t// out\n        /* \"LmLSMR.sol\":13994:14723  function addLiquidity(uint _amount) public onlyOwner {... */\n    tag_84:\n        /* \"@openzeppelin/contracts/access/Ownable.sol\":1531:1544   */\n      tag_295\n        /* \"@openzeppelin/contracts/access/Ownable.sol\":1531:1542   */\n      tag_217\n        /* \"@openzeppelin/contracts/access/Ownable.sol\":1531:1544   */\n      jump\t// in\n    tag_295:\n        /* \"LmLSMR.sol\":14110:14115  token */\n      sload(0x08)\n        /* \"LmLSMR.sol\":14103:14169  IERC20(token).safeTransferFrom(msg.sender, address(this), _amount) */\n      tag_297\n      swap1\n      sub(shl(0xa0, 0x01), 0x01)\n        /* \"LmLSMR.sol\":14110:14115  token */\n      and\n        /* \"LmLSMR.sol\":14134:14144  msg.sender */\n      caller\n        /* \"LmLSMR.sol\":14154:14158  this */\n      address\n        /* \"LmLSMR.sol\":14161:14168  _amount */\n      dup5\n        /* \"LmLSMR.sol\":14103:14133  IERC20(token).safeTransferFrom */\n      tag_298\n        /* \"LmLSMR.sol\":14103:14169  IERC20(token).safeTransferFrom(msg.sender, address(this), _amount) */\n      jump\t// in\n    tag_297:\n        /* \"LmLSMR.sol\":14244:14249  token */\n      sload(0x08)\n        /* \"LmLSMR.sol\":14215:14229  int128 subsidy */\n      0x00\n      swap1\n        /* \"LmLSMR.sol\":14232:14259  getTokenEth(token, _amount) */\n      tag_299\n      swap1\n      sub(shl(0xa0, 0x01), 0x01)\n        /* \"LmLSMR.sol\":14244:14249  token */\n      and\n        /* \"LmLSMR.sol\":14251:14258  _amount */\n      dup4\n        /* \"LmLSMR.sol\":14232:14243  getTokenEth */\n      tag_57\n        /* \"LmLSMR.sol\":14232:14259  getTokenEth(token, _amount) */\n      jump\t// in\n    tag_299:\n        /* \"LmLSMR.sol\":14215:14259  int128 subsidy = getTokenEth(token, _amount) */\n      swap1\n      pop\n        /* \"LmLSMR.sol\":14309:14315  uint i */\n      0x00\n        /* \"LmLSMR.sol\":14304:14394  for (uint i = 0; i < numOutcomes; i++) {... */\n    tag_300:\n        /* \"LmLSMR.sol\":14325:14336  numOutcomes */\n      sload(0x01)\n        /* \"LmLSMR.sol\":14321:14322  i */\n      dup2\n        /* \"LmLSMR.sol\":14321:14336  i < numOutcomes */\n      lt\n        /* \"LmLSMR.sol\":14304:14394  for (uint i = 0; i < numOutcomes; i++) {... */\n      iszero\n      tag_301\n      jumpi\n        /* \"LmLSMR.sol\":14360:14387  ABDKMath.add(q[i], subsidy) */\n      tag_303\n        /* \"LmLSMR.sol\":14373:14374  q */\n      0x02\n        /* \"LmLSMR.sol\":14375:14376  i */\n      dup3\n        /* \"LmLSMR.sol\":14373:14377  q[i] */\n      dup2\n      sload\n      dup2\n      lt\n      tag_305\n      jumpi\n      tag_305\n      tag_205\n      jump\t// in\n    tag_305:\n      swap1\n      0x00\n      mstore\n      keccak256(0x00, 0x20)\n      swap1\n      0x02\n      swap2\n      dup3\n      dup3\n      div\n      add\n      swap2\n      swap1\n      mod\n      0x10\n      mul\n      swap1\n      sload\n      swap1\n      0x0100\n      exp\n      swap1\n      div\n      0x0f\n      signextend\n        /* \"LmLSMR.sol\":14379:14386  subsidy */\n      dup4\n        /* \"LmLSMR.sol\":14360:14372  ABDKMath.add */\n      tag_209\n        /* \"LmLSMR.sol\":14360:14387  ABDKMath.add(q[i], subsidy) */\n      jump\t// in\n    tag_303:\n        /* \"LmLSMR.sol\":14353:14354  q */\n      0x02\n        /* \"LmLSMR.sol\":14355:14356  i */\n      dup3\n        /* \"LmLSMR.sol\":14353:14357  q[i] */\n      dup2\n      sload\n      dup2\n      lt\n      tag_308\n      jumpi\n      tag_308\n      tag_205\n      jump\t// in\n    tag_308:\n      0x00\n      swap2\n      dup3\n      mstore\n      0x20\n      swap1\n      swap2\n      keccak256\n      0x02\n      dup3\n      div\n      add\n        /* \"LmLSMR.sol\":14353:14387  q[i] = ABDKMath.add(q[i], subsidy) */\n      dup1\n      sload\n      sub(shl(0x80, 0x01), 0x01)\n      swap4\n      dup5\n      and\n        /* \"LmLSMR.sol\":14353:14357  q[i] */\n      0x10\n      0x01\n      swap5\n      dup6\n      and\n      mul\n        /* \"LmLSMR.sol\":14353:14387  q[i] = ABDKMath.add(q[i], subsidy) */\n      0x0100\n      exp\n      swap1\n      dup2\n      mul\n      swap5\n      mul\n      not\n      and\n      swap3\n      swap1\n      swap3\n      or\n      swap1\n      swap2\n      sstore\n        /* \"LmLSMR.sol\":14338:14341  i++ */\n      add\n        /* \"LmLSMR.sol\":14304:14394  for (uint i = 0; i < numOutcomes; i++) {... */\n      jump(tag_300)\n    tag_301:\n      pop\n        /* \"LmLSMR.sol\":14445:14526  ABDKMath.add(total_shares, ABDKMath.mul(subsidy, ABDKMath.fromUInt(numOutcomes))) */\n      tag_310\n        /* \"LmLSMR.sol\":14458:14470  total_shares */\n      0x04\n      0x10\n      swap1\n      sload\n      swap1\n      0x0100\n      exp\n      swap1\n      div\n      0x0f\n      signextend\n        /* \"LmLSMR.sol\":14472:14525  ABDKMath.mul(subsidy, ABDKMath.fromUInt(numOutcomes)) */\n      tag_201\n        /* \"LmLSMR.sol\":14485:14492  subsidy */\n      dup4\n        /* \"LmLSMR.sol\":14494:14524  ABDKMath.fromUInt(numOutcomes) */\n      tag_211\n        /* \"LmLSMR.sol\":14512:14523  numOutcomes */\n      sload(0x01)\n        /* \"LmLSMR.sol\":14494:14511  ABDKMath.fromUInt */\n      tag_313\n        /* \"LmLSMR.sol\":14494:14524  ABDKMath.fromUInt(numOutcomes) */\n      jump\t// in\n        /* \"LmLSMR.sol\":14445:14526  ABDKMath.add(total_shares, ABDKMath.mul(subsidy, ABDKMath.fromUInt(numOutcomes))) */\n    tag_310:\n        /* \"LmLSMR.sol\":14430:14442  total_shares */\n      0x04\n        /* \"LmLSMR.sol\":14430:14526  total_shares = ABDKMath.add(total_shares, ABDKMath.mul(subsidy, ABDKMath.fromUInt(numOutcomes))) */\n      dup1\n      sload\n      sub(shl(0x80, 0x01), 0x01)\n      swap1\n      dup2\n      and\n      shl(0x80, 0x01)\n      swap4\n      swap1\n      swap2\n      and\n      dup4\n      mul\n      or\n      swap1\n      dup2\n      swap1\n      sstore\n        /* \"LmLSMR.sol\":14588:14593  alpha */\n      sload(0x03)\n        /* \"LmLSMR.sol\":14561:14594  ABDKMath.mul(total_shares, alpha) */\n      tag_314\n      swap3\n        /* \"LmLSMR.sol\":14574:14586  total_shares */\n      swap2\n      dup3\n      swap1\n      div\n        /* \"LmLSMR.sol\":14430:14526  total_shares = ABDKMath.add(total_shares, ABDKMath.mul(subsidy, ABDKMath.fromUInt(numOutcomes))) */\n      0x0f\n        /* \"LmLSMR.sol\":14574:14586  total_shares */\n      swap1\n      dup2\n      signextend\n      swap3\n        /* \"LmLSMR.sol\":14588:14593  alpha */\n      swap1\n      swap2\n      div\n      swap1\n      signextend\n        /* \"LmLSMR.sol\":14561:14573  ABDKMath.mul */\n      tag_183\n        /* \"LmLSMR.sol\":14561:14594  ABDKMath.mul(total_shares, alpha) */\n      jump\t// in\n    tag_314:\n        /* \"LmLSMR.sol\":14557:14558  b */\n      0x03\n        /* \"LmLSMR.sol\":14557:14594  b = ABDKMath.mul(total_shares, alpha) */\n      dup1\n      sload\n      not(sub(shl(0x80, 0x01), 0x01))\n      and\n      sub(shl(0x80, 0x01), 0x01)\n      swap3\n      swap1\n      swap3\n      and\n      swap2\n      swap1\n      swap2\n      or\n      swap1\n      sstore\n        /* \"LmLSMR.sol\":14646:14652  cost() */\n      tag_315\n        /* \"LmLSMR.sol\":14646:14650  cost */\n      tag_61\n        /* \"LmLSMR.sol\":14646:14652  cost() */\n      jump\t// in\n    tag_315:\n        /* \"LmLSMR.sol\":14631:14643  current_cost */\n      0x04\n        /* \"LmLSMR.sol\":14631:14652  current_cost = cost() */\n      dup1\n      sload\n      not(sub(shl(0x80, 0x01), 0x01))\n      and\n      sub(shl(0x80, 0x01), 0x01)\n      swap3\n      swap1\n      swap3\n      and\n      swap2\n      swap1\n      swap2\n      or\n      swap1\n      sstore\n        /* \"LmLSMR.sol\":14685:14720  LiquidityAdded(msg.sender, _amount) */\n      mload(0x40)\n        /* \"#utility.yul\":1274:1299   */\n      dup3\n      dup2\n      mstore\n        /* \"LmLSMR.sol\":14700:14710  msg.sender */\n      caller\n      swap1\n        /* \"LmLSMR.sol\":14685:14720  LiquidityAdded(msg.sender, _amount) */\n      0xc17cea59c2955cb181b03393209566960365771dbba9dc3d510180e7cb312088\n      swap1\n        /* \"#utility.yul\":1262:1264   */\n      0x20\n        /* \"#utility.yul\":1247:1265   */\n      add\n        /* \"LmLSMR.sol\":14685:14720  LiquidityAdded(msg.sender, _amount) */\n      mload(0x40)\n      dup1\n      swap2\n      sub\n      swap1\n      log2\n        /* \"LmLSMR.sol\":14047:14723  {... */\n      pop\n        /* \"LmLSMR.sol\":13994:14723  function addLiquidity(uint _amount) public onlyOwner {... */\n      pop\n      jump\t// out\n        /* \"LmLSMR.sol\":9392:9554  function sellingPrice(... */\n    tag_88:\n        /* \"LmLSMR.sol\":9481:9487  int128 */\n      0x00\n        /* \"LmLSMR.sol\":9517:9551  cost_after_buy(_outcome, -_amount) */\n      tag_318\n        /* \"LmLSMR.sol\":9532:9540  _outcome */\n      dup4\n        /* \"LmLSMR.sol\":9542:9550  -_amount */\n      tag_96\n        /* \"LmLSMR.sol\":9543:9550  _amount */\n      dup5\n        /* \"LmLSMR.sol\":9542:9550  -_amount */\n      tag_320\n      jump\t// in\n        /* \"LmLSMR.sol\":9517:9551  cost_after_buy(_outcome, -_amount) */\n    tag_318:\n        /* \"LmLSMR.sol\":9502:9514  current_cost */\n      sload(0x04)\n        /* \"LmLSMR.sol\":9502:9551  current_cost - cost_after_buy(_outcome, -_amount) */\n      tag_321\n      swap2\n      swap1\n        /* \"LmLSMR.sol\":9502:9514  current_cost */\n      0x0f\n      signextend\n        /* \"LmLSMR.sol\":9502:9551  current_cost - cost_after_buy(_outcome, -_amount) */\n      tag_322\n      jump\t// in\n    tag_321:\n        /* \"LmLSMR.sol\":9495:9551  return current_cost - cost_after_buy(_outcome, -_amount) */\n      swap4\n        /* \"LmLSMR.sol\":9392:9554  function sellingPrice(... */\n      swap3\n      pop\n      pop\n      pop\n      jump\t// out\n        /* \"LmLSMR.sol\":14725:15045  function getAccumulatedFees() public view returns (uint) {... */\n    tag_91:\n        /* \"LmLSMR.sol\":14818:14823  token */\n      sload(0x08)\n        /* \"LmLSMR.sol\":14811:14849  IERC20(token).balanceOf(address(this)) */\n      mload(0x40)\n      shl(0xe0, 0x70a08231)\n      dup2\n      mstore\n        /* \"LmLSMR.sol\":14843:14847  this */\n      address\n        /* \"LmLSMR.sol\":14811:14849  IERC20(token).balanceOf(address(this)) */\n      0x04\n      dup3\n      add\n        /* \"#utility.yul\":4304:4378   */\n      mstore\n        /* \"LmLSMR.sol\":14776:14780  uint */\n      0x00\n      swap2\n      dup3\n      swap2\n      sub(shl(0xa0, 0x01), 0x01)\n        /* \"LmLSMR.sol\":14818:14823  token */\n      swap1\n      swap2\n      and\n      swap1\n        /* \"LmLSMR.sol\":14811:14834  IERC20(token).balanceOf */\n      0x70a08231\n      swap1\n        /* \"#utility.yul\":4277:4295   */\n      0x24\n      add\n        /* \"LmLSMR.sol\":14811:14849  IERC20(token).balanceOf(address(this)) */\n      0x20\n      mload(0x40)\n      dup1\n      dup4\n      sub\n      dup2\n      dup7\n      gas\n      staticcall\n      iszero\n      dup1\n      iszero\n      tag_326\n      jumpi\n      returndatasize\n      0x00\n      dup1\n      returndatacopy\n      revert(0x00, returndatasize)\n    tag_326:\n      pop\n      pop\n      pop\n      pop\n      mload(0x40)\n      returndatasize\n      not(0x1f)\n      0x1f\n      dup3\n      add\n      and\n      dup3\n      add\n      dup1\n      0x40\n      mstore\n      pop\n      dup2\n      add\n      swap1\n      tag_327\n      swap2\n      swap1\n      tag_223\n      jump\t// in\n    tag_327:\n        /* \"LmLSMR.sol\":14890:14895  token */\n      sload(0x08)\n        /* \"LmLSMR.sol\":14897:14909  current_cost */\n      sload(0x04)\n        /* \"LmLSMR.sol\":14788:14849  uint contractBalance = IERC20(token).balanceOf(address(this)) */\n      swap2\n      swap3\n      pop\n        /* \"LmLSMR.sol\":14855:14875  uint theoreticalCost */\n      0x00\n      swap2\n        /* \"LmLSMR.sol\":14878:14910  getTokenWei(token, current_cost) */\n      tag_328\n      swap2\n      sub(shl(0xa0, 0x01), 0x01)\n        /* \"LmLSMR.sol\":14890:14895  token */\n      and\n      swap1\n        /* \"LmLSMR.sol\":14897:14909  current_cost */\n      0x0f\n      signextend\n        /* \"LmLSMR.sol\":14878:14889  getTokenWei */\n      tag_67\n        /* \"LmLSMR.sol\":14878:14910  getTokenWei(token, current_cost) */\n      jump\t// in\n    tag_328:\n        /* \"LmLSMR.sol\":14855:14910  uint theoreticalCost = getTokenWei(token, current_cost) */\n      swap1\n      pop\n        /* \"LmLSMR.sol\":14938:14953  theoreticalCost */\n      dup1\n        /* \"LmLSMR.sol\":14920:14935  contractBalance */\n      dup3\n        /* \"LmLSMR.sol\":14920:14953  contractBalance > theoreticalCost */\n      gt\n        /* \"LmLSMR.sol\":14916:15043  if (contractBalance > theoreticalCost) {... */\n      iszero\n      tag_329\n      jumpi\n        /* \"LmLSMR.sol\":14972:15005  contractBalance - theoreticalCost */\n      tag_330\n        /* \"LmLSMR.sol\":14990:15005  theoreticalCost */\n      dup2\n        /* \"LmLSMR.sol\":14972:14987  contractBalance */\n      dup4\n        /* \"LmLSMR.sol\":14972:15005  contractBalance - theoreticalCost */\n      tag_286\n      jump\t// in\n    tag_330:\n        /* \"LmLSMR.sol\":14965:15005  return contractBalance - theoreticalCost */\n      swap3\n      pop\n      pop\n      pop\n        /* \"LmLSMR.sol\":14725:15045  function getAccumulatedFees() public view returns (uint) {... */\n      swap1\n      jump\t// out\n        /* \"LmLSMR.sol\":14916:15043  if (contractBalance > theoreticalCost) {... */\n    tag_329:\n        /* \"LmLSMR.sol\":15035:15036  0 */\n      0x00\n        /* \"LmLSMR.sol\":15028:15036  return 0 */\n      swap3\n      pop\n      pop\n      pop\n        /* \"LmLSMR.sol\":14725:15045  function getAccumulatedFees() public view returns (uint) {... */\n      swap1\n      jump\t// out\n        /* \"@openzeppelin/contracts/access/Ownable.sol\":2293:2394   */\n    tag_94:\n        /* \"@openzeppelin/contracts/access/Ownable.sol\":1531:1544   */\n      tag_333\n        /* \"@openzeppelin/contracts/access/Ownable.sol\":1531:1542   */\n      tag_217\n        /* \"@openzeppelin/contracts/access/Ownable.sol\":1531:1544   */\n      jump\t// in\n    tag_333:\n        /* \"@openzeppelin/contracts/access/Ownable.sol\":2357:2387   */\n      tag_335\n        /* \"@openzeppelin/contracts/access/Ownable.sol\":2384:2385   */\n      0x00\n        /* \"@openzeppelin/contracts/access/Ownable.sol\":2357:2375   */\n      tag_336\n        /* \"@openzeppelin/contracts/access/Ownable.sol\":2357:2387   */\n      jump\t// in\n    tag_335:\n        /* \"@openzeppelin/contracts/access/Ownable.sol\":2293:2394   */\n      jump\t// out\n        /* \"LmLSMR.sol\":7778:8462  function cost_after_buy(... */\n    tag_97:\n        /* \"LmLSMR.sol\":7869:7875  int128 */\n      0x00\n        /* \"LmLSMR.sol\":7883:7899  int128 sum_total */\n      dup1\n        /* \"LmLSMR.sol\":7905:7925  int128[] memory newq */\n      0x00\n        /* \"LmLSMR.sol\":7941:7942  q */\n      0x02\n        /* \"LmLSMR.sol\":7941:7949  q.length */\n      dup1\n      sload\n      swap1\n      pop\n        /* \"LmLSMR.sol\":7928:7950  new int128[](q.length) */\n      0xffffffffffffffff\n      dup2\n      gt\n      iszero\n      tag_339\n      jumpi\n      tag_339\n      tag_229\n      jump\t// in\n    tag_339:\n      mload(0x40)\n      swap1\n      dup1\n      dup3\n      mstore\n      dup1\n      0x20\n      mul\n      0x20\n      add\n      dup3\n      add\n      0x40\n      mstore\n      dup1\n      iszero\n      tag_340\n      jumpi\n      dup2\n      0x20\n      add\n      0x20\n      dup3\n      mul\n      dup1\n      calldatasize\n      dup4\n      calldatacopy\n      add\n      swap1\n      pop\n    tag_340:\n      pop\n        /* \"LmLSMR.sol\":7968:7980  total_shares */\n      sload(0x04)\n        /* \"LmLSMR.sol\":7905:7950  int128[] memory newq = new int128[](q.length) */\n      swap1\n      swap2\n      pop\n      shl(0x80, 0x01)\n        /* \"LmLSMR.sol\":7968:7980  total_shares */\n      swap1\n      div\n      0x0f\n      signextend\n        /* \"LmLSMR.sol\":7956:7965  int128 TB */\n      0x00\n        /* \"LmLSMR.sol\":7987:8200  for(uint j=0; j< numOutcomes; j++) {... */\n    tag_341:\n        /* \"LmLSMR.sol\":8004:8015  numOutcomes */\n      sload(0x01)\n        /* \"LmLSMR.sol\":8001:8002  j */\n      dup2\n        /* \"LmLSMR.sol\":8001:8015  j< numOutcomes */\n      lt\n        /* \"LmLSMR.sol\":7987:8200  for(uint j=0; j< numOutcomes; j++) {... */\n      iszero\n      tag_342\n      jumpi\n        /* \"LmLSMR.sol\":8046:8047  1 */\n      0x01\n        /* \"LmLSMR.sol\":8046:8050  1<<j */\n      dup2\n      shl\n        /* \"LmLSMR.sol\":8034:8051  _outcome & (1<<j) */\n      dup8\n      and\n        /* \"LmLSMR.sol\":8033:8057  (_outcome & (1<<j)) != 0 */\n      iszero\n        /* \"LmLSMR.sol\":8030:8194  if((_outcome & (1<<j)) != 0) {... */\n      tag_344\n      jumpi\n        /* \"LmLSMR.sol\":8079:8106  ABDKMath.add(q[j], _amount) */\n      tag_345\n        /* \"LmLSMR.sol\":8092:8093  q */\n      0x02\n        /* \"LmLSMR.sol\":8094:8095  j */\n      dup3\n        /* \"LmLSMR.sol\":8092:8096  q[j] */\n      dup2\n      sload\n      dup2\n      lt\n      tag_347\n      jumpi\n      tag_347\n      tag_205\n      jump\t// in\n    tag_347:\n      swap1\n      0x00\n      mstore\n      keccak256(0x00, 0x20)\n      swap1\n      0x02\n      swap2\n      dup3\n      dup3\n      div\n      add\n      swap2\n      swap1\n      mod\n      0x10\n      mul\n      swap1\n      sload\n      swap1\n      0x0100\n      exp\n      swap1\n      div\n      0x0f\n      signextend\n        /* \"LmLSMR.sol\":8098:8105  _amount */\n      dup8\n        /* \"LmLSMR.sol\":8079:8091  ABDKMath.add */\n      tag_209\n        /* \"LmLSMR.sol\":8079:8106  ABDKMath.add(q[j], _amount) */\n      jump\t// in\n    tag_345:\n        /* \"LmLSMR.sol\":8069:8073  newq */\n      dup4\n        /* \"LmLSMR.sol\":8074:8075  j */\n      dup3\n        /* \"LmLSMR.sol\":8069:8076  newq[j] */\n      dup2\n      mload\n      dup2\n      lt\n      tag_350\n      jumpi\n      tag_350\n      tag_205\n      jump\t// in\n    tag_350:\n      0x20\n      mul\n      0x20\n      add\n      add\n        /* \"LmLSMR.sol\":8069:8106  newq[j] = ABDKMath.add(q[j], _amount) */\n      swap1\n      0x0f\n      signextend\n      swap1\n      dup2\n      0x0f\n      signextend\n      dup2\n      mstore\n      pop\n      pop\n        /* \"LmLSMR.sol\":8121:8146  ABDKMath.add(TB, _amount) */\n      tag_351\n        /* \"LmLSMR.sol\":8134:8136  TB */\n      dup3\n        /* \"LmLSMR.sol\":8138:8145  _amount */\n      dup8\n        /* \"LmLSMR.sol\":8121:8133  ABDKMath.add */\n      tag_209\n        /* \"LmLSMR.sol\":8121:8146  ABDKMath.add(TB, _amount) */\n      jump\t// in\n    tag_351:\n        /* \"LmLSMR.sol\":8116:8146  TB = ABDKMath.add(TB, _amount) */\n      swap2\n      pop\n        /* \"LmLSMR.sol\":8030:8194  if((_outcome & (1<<j)) != 0) {... */\n      jump(tag_352)\n    tag_344:\n        /* \"LmLSMR.sol\":8181:8182  q */\n      0x02\n        /* \"LmLSMR.sol\":8183:8184  j */\n      dup2\n        /* \"LmLSMR.sol\":8181:8185  q[j] */\n      dup2\n      sload\n      dup2\n      lt\n      tag_354\n      jumpi\n      tag_354\n      tag_205\n      jump\t// in\n    tag_354:\n      swap1\n      0x00\n      mstore\n      keccak256(0x00, 0x20)\n      swap1\n      0x02\n      swap2\n      dup3\n      dup3\n      div\n      add\n      swap2\n      swap1\n      mod\n      0x10\n      mul\n      swap1\n      sload\n      swap1\n      0x0100\n      exp\n      swap1\n      div\n      0x0f\n      signextend\n        /* \"LmLSMR.sol\":8171:8175  newq */\n      dup4\n        /* \"LmLSMR.sol\":8176:8177  j */\n      dup3\n        /* \"LmLSMR.sol\":8171:8178  newq[j] */\n      dup2\n      mload\n      dup2\n      lt\n      tag_357\n      jumpi\n      tag_357\n      tag_205\n      jump\t// in\n    tag_357:\n      0x20\n      mul\n      0x20\n      add\n      add\n        /* \"LmLSMR.sol\":8171:8185  newq[j] = q[j] */\n      swap1\n      0x0f\n      signextend\n      swap1\n      dup2\n      0x0f\n      signextend\n      dup2\n      mstore\n      pop\n      pop\n        /* \"LmLSMR.sol\":8030:8194  if((_outcome & (1<<j)) != 0) {... */\n    tag_352:\n        /* \"LmLSMR.sol\":8017:8020  j++ */\n      0x01\n      add\n        /* \"LmLSMR.sol\":7987:8200  for(uint j=0; j< numOutcomes; j++) {... */\n      jump(tag_341)\n    tag_342:\n      pop\n        /* \"LmLSMR.sol\":8235:8240  alpha */\n      sload(0x03)\n        /* \"LmLSMR.sol\":8206:8215  int128 _b */\n      0x00\n      swap1\n        /* \"LmLSMR.sol\":8218:8241  ABDKMath.mul(TB, alpha) */\n      tag_358\n      swap1\n        /* \"LmLSMR.sol\":8231:8233  TB */\n      dup4\n      swap1\n      shl(0x80, 0x01)\n        /* \"LmLSMR.sol\":8235:8240  alpha */\n      swap1\n      div\n      0x0f\n      signextend\n        /* \"LmLSMR.sol\":8218:8230  ABDKMath.mul */\n      tag_183\n        /* \"LmLSMR.sol\":8218:8241  ABDKMath.mul(TB, alpha) */\n      jump\t// in\n    tag_358:\n        /* \"LmLSMR.sol\":8206:8241  int128 _b = ABDKMath.mul(TB, alpha) */\n      swap1\n      pop\n        /* \"LmLSMR.sol\":8252:8258  uint i */\n      0x00\n        /* \"LmLSMR.sol\":8248:8404  for(uint i=0; i< numOutcomes; i++) {... */\n    tag_359:\n        /* \"LmLSMR.sol\":8265:8276  numOutcomes */\n      sload(0x01)\n        /* \"LmLSMR.sol\":8262:8263  i */\n      dup2\n        /* \"LmLSMR.sol\":8262:8276  i< numOutcomes */\n      lt\n        /* \"LmLSMR.sol\":8248:8404  for(uint i=0; i< numOutcomes; i++) {... */\n      iszero\n      tag_360\n      jumpi\n        /* \"LmLSMR.sol\":8303:8397  ABDKMath.add(sum_total,... */\n      tag_362\n        /* \"LmLSMR.sol\":8316:8325  sum_total */\n      dup6\n        /* \"LmLSMR.sol\":8335:8396  ABDKMath.exp(... */\n      tag_201\n        /* \"LmLSMR.sol\":8359:8384  ABDKMath.div(newq[i], _b) */\n      tag_202\n        /* \"LmLSMR.sol\":8372:8376  newq */\n      dup8\n        /* \"LmLSMR.sol\":8377:8378  i */\n      dup6\n        /* \"LmLSMR.sol\":8372:8379  newq[i] */\n      dup2\n      mload\n      dup2\n      lt\n      tag_366\n      jumpi\n      tag_366\n      tag_205\n      jump\t// in\n    tag_366:\n      0x20\n      mul\n      0x20\n      add\n      add\n      mload\n        /* \"LmLSMR.sol\":8381:8383  _b */\n      dup7\n        /* \"LmLSMR.sol\":8359:8371  ABDKMath.div */\n      tag_207\n        /* \"LmLSMR.sol\":8359:8384  ABDKMath.div(newq[i], _b) */\n      jump\t// in\n        /* \"LmLSMR.sol\":8303:8397  ABDKMath.add(sum_total,... */\n    tag_362:\n        /* \"LmLSMR.sol\":8291:8397  sum_total = ABDKMath.add(sum_total,... */\n      swap5\n      pop\n        /* \"LmLSMR.sol\":8278:8281  i++ */\n      0x01\n      add\n        /* \"LmLSMR.sol\":8248:8404  for(uint i=0; i< numOutcomes; i++) {... */\n      jump(tag_359)\n    tag_360:\n      pop\n        /* \"LmLSMR.sol\":8417:8457  ABDKMath.mul(_b, ABDKMath.ln(sum_total)) */\n      tag_367\n        /* \"LmLSMR.sol\":8430:8432  _b */\n      dup2\n        /* \"LmLSMR.sol\":8434:8456  ABDKMath.ln(sum_total) */\n      tag_211\n        /* \"LmLSMR.sol\":8446:8455  sum_total */\n      dup7\n        /* \"LmLSMR.sol\":8434:8445  ABDKMath.ln */\n      tag_212\n        /* \"LmLSMR.sol\":8434:8456  ABDKMath.ln(sum_total) */\n      jump\t// in\n        /* \"LmLSMR.sol\":8417:8457  ABDKMath.mul(_b, ABDKMath.ln(sum_total)) */\n    tag_367:\n        /* \"LmLSMR.sol\":8410:8457  return ABDKMath.mul(_b, ABDKMath.ln(sum_total)) */\n      swap8\n        /* \"LmLSMR.sol\":7778:8462  function cost_after_buy(... */\n      swap7\n      pop\n      pop\n      pop\n      pop\n      pop\n      pop\n      pop\n      jump\t// out\n        /* \"LmLSMR.sol\":6605:7030  function getPositionAndDustPositions(... */\n    tag_110:\n        /* \"LmLSMR.sol\":6686:6702  uint256[] memory */\n      0x60\n        /* \"LmLSMR.sol\":6709:6719  uint index */\n      0x00\n        /* \"LmLSMR.sol\":6739:6740  1 */\n      0x01\n        /* \"LmLSMR.sol\":6726:6737  numOutcomes */\n      dup1\n      sload\n        /* \"LmLSMR.sol\":6723:6724  1 */\n      0x01\n        /* \"LmLSMR.sol\":6723:6737  1<<numOutcomes */\n      swap1\n      shl\n        /* \"LmLSMR.sol\":6722:6740  (1<<numOutcomes)-1 */\n      tag_371\n      swap2\n      swap1\n      tag_286\n      jump\t// in\n    tag_371:\n        /* \"LmLSMR.sol\":6709:6740  uint index = (1<<numOutcomes)-1 */\n      swap1\n      pop\n        /* \"LmLSMR.sol\":6758:6759  1 */\n      0x01\n        /* \"LmLSMR.sol\":6758:6771  1 << _outcome */\n      dup4\n      shl\n        /* \"LmLSMR.sol\":6757:6780  (1 << _outcome) ^ index */\n      dup2\n      xor\n        /* \"LmLSMR.sol\":6746:6754  uint inv */\n      0x00\n        /* \"LmLSMR.sol\":6822:6834  getOnes(inv) */\n      tag_372\n        /* \"LmLSMR.sol\":6757:6780  (1 << _outcome) ^ index */\n      dup3\n        /* \"LmLSMR.sol\":6822:6829  getOnes */\n      tag_373\n        /* \"LmLSMR.sol\":6822:6834  getOnes(inv) */\n      jump\t// in\n    tag_372:\n        /* \"LmLSMR.sol\":6822:6836  getOnes(inv)+1 */\n      tag_374\n      swap1\n        /* \"LmLSMR.sol\":6835:6836  1 */\n      0x01\n        /* \"LmLSMR.sol\":6822:6836  getOnes(inv)+1 */\n      tag_186\n      jump\t// in\n    tag_374:\n        /* \"LmLSMR.sol\":6808:6837  new uint256[](getOnes(inv)+1) */\n      0xffffffffffffffff\n      dup2\n      gt\n      iszero\n      tag_376\n      jumpi\n      tag_376\n      tag_229\n      jump\t// in\n    tag_376:\n      mload(0x40)\n      swap1\n      dup1\n      dup3\n      mstore\n      dup1\n      0x20\n      mul\n      0x20\n      add\n      dup3\n      add\n      0x40\n      mstore\n      dup1\n      iszero\n      tag_377\n      jumpi\n      dup2\n      0x20\n      add\n      0x20\n      dup3\n      mul\n      dup1\n      calldatasize\n      dup4\n      calldatacopy\n      add\n      swap1\n      pop\n    tag_377:\n      pop\n        /* \"LmLSMR.sol\":6786:6837  uint[] memory partx = new uint256[](getOnes(inv)+1) */\n      swap1\n      pop\n        /* \"LmLSMR.sol\":6843:6849  uint n */\n      0x00\n        /* \"LmLSMR.sol\":6852:6853  1 */\n      0x01\n        /* \"LmLSMR.sol\":6843:6853  uint n = 1 */\n      swap1\n      pop\n        /* \"LmLSMR.sol\":6876:6884  _outcome */\n      dup6\n        /* \"LmLSMR.sol\":6871:6872  1 */\n      0x01\n        /* \"LmLSMR.sol\":6871:6884  1 << _outcome */\n      swap1\n      shl\n        /* \"LmLSMR.sol\":6859:6864  partx */\n      dup3\n        /* \"LmLSMR.sol\":6865:6866  0 */\n      0x00\n        /* \"LmLSMR.sol\":6859:6867  partx[0] */\n      dup2\n      mload\n      dup2\n      lt\n      tag_379\n      jumpi\n      tag_379\n      tag_205\n      jump\t// in\n    tag_379:\n      0x20\n      mul\n      0x20\n      add\n      add\n        /* \"LmLSMR.sol\":6859:6885  partx[0] = (1 << _outcome) */\n      dup2\n      dup2\n      mstore\n      pop\n      pop\n        /* \"LmLSMR.sol\":6895:6901  uint i */\n      0x00\n        /* \"LmLSMR.sol\":6891:7008  for(uint i=0; i<numOutcomes; i++) {... */\n    tag_380:\n        /* \"LmLSMR.sol\":6907:6918  numOutcomes */\n      sload(0x01)\n        /* \"LmLSMR.sol\":6905:6906  i */\n      dup2\n        /* \"LmLSMR.sol\":6905:6918  i<numOutcomes */\n      lt\n        /* \"LmLSMR.sol\":6891:7008  for(uint i=0; i<numOutcomes; i++) {... */\n      iszero\n      tag_381\n      jumpi\n        /* \"LmLSMR.sol\":6943:6944  1 */\n      0x01\n        /* \"LmLSMR.sol\":6943:6947  1<<i */\n      dup2\n      shl\n        /* \"LmLSMR.sol\":6937:6947  inv & 1<<i */\n      dup5\n      and\n        /* \"LmLSMR.sol\":6936:6953  (inv & 1<<i) != 0 */\n      iszero\n        /* \"LmLSMR.sol\":6933:7002  if((inv & 1<<i) != 0) {... */\n      tag_383\n      jumpi\n        /* \"LmLSMR.sol\":6979:6980  i */\n      dup1\n        /* \"LmLSMR.sol\":6976:6977  1 */\n      0x01\n        /* \"LmLSMR.sol\":6976:6980  1<<i */\n      swap1\n      shl\n        /* \"LmLSMR.sol\":6965:6970  partx */\n      dup4\n        /* \"LmLSMR.sol\":6971:6972  n */\n      dup4\n        /* \"LmLSMR.sol\":6965:6973  partx[n] */\n      dup2\n      mload\n      dup2\n      lt\n      tag_385\n      jumpi\n      tag_385\n      tag_205\n      jump\t// in\n    tag_385:\n      0x20\n      swap1\n      dup2\n      mul\n      swap2\n      swap1\n      swap2\n      add\n      add\n        /* \"LmLSMR.sol\":6965:6980  partx[n] = 1<<i */\n      mstore\n        /* \"LmLSMR.sol\":6990:6993  n++ */\n      dup2\n      tag_386\n      dup2\n      tag_387\n      jump\t// in\n    tag_386:\n      swap3\n      pop\n      pop\n        /* \"LmLSMR.sol\":6933:7002  if((inv & 1<<i) != 0) {... */\n    tag_383:\n        /* \"LmLSMR.sol\":6920:6923  i++ */\n      0x01\n      add\n        /* \"LmLSMR.sol\":6891:7008  for(uint i=0; i<numOutcomes; i++) {... */\n      jump(tag_380)\n    tag_381:\n      pop\n        /* \"LmLSMR.sol\":7020:7025  partx */\n      swap1\n      swap6\n        /* \"LmLSMR.sol\":6605:7030  function getPositionAndDustPositions(... */\n      swap5\n      pop\n      pop\n      pop\n      pop\n      pop\n      jump\t// out\n        /* \"LmLSMR.sol\":10570:10857  function getTokenWeiDown(address _token, int128 _amount) public view returns (uint) {... */\n    tag_115:\n        /* \"LmLSMR.sol\":10648:10652  uint */\n      0x00\n        /* \"LmLSMR.sol\":10660:10666  uint d */\n      dup1\n        /* \"LmLSMR.sol\":10675:10681  _token */\n      dup4\n      sub(shl(0xa0, 0x01), 0x01)\n        /* \"LmLSMR.sol\":10669:10691  ERC20(_token).decimals */\n      and\n      0x313ce567\n        /* \"LmLSMR.sol\":10669:10693  ERC20(_token).decimals() */\n      mload(0x40)\n      dup2\n      0xffffffff\n      and\n      0xe0\n      shl\n      dup2\n      mstore\n      0x04\n      add\n      0x20\n      mload(0x40)\n      dup1\n      dup4\n      sub\n      dup2\n      dup7\n      gas\n      staticcall\n      iszero\n      dup1\n      iszero\n      tag_390\n      jumpi\n      returndatasize\n      0x00\n      dup1\n      returndatacopy\n      revert(0x00, returndatasize)\n    tag_390:\n      pop\n      pop\n      pop\n      pop\n      mload(0x40)\n      returndatasize\n      not(0x1f)\n      0x1f\n      dup3\n      add\n      and\n      dup3\n      add\n      dup1\n      0x40\n      mstore\n      pop\n      dup2\n      add\n      swap1\n      tag_391\n      swap2\n      swap1\n      tag_174\n      jump\t// in\n    tag_391:\n        /* \"LmLSMR.sol\":10660:10693  uint d = ERC20(_token).decimals() */\n      0xff\n      and\n      swap1\n      pop\n        /* \"LmLSMR.sol\":10699:10714  uint multiplier */\n      0x00\n        /* \"LmLSMR.sol\":10717:10724  10 ** d */\n      tag_392\n        /* \"LmLSMR.sol\":10660:10693  uint d = ERC20(_token).decimals() */\n      dup3\n        /* \"LmLSMR.sol\":10717:10719  10 */\n      0x0a\n        /* \"LmLSMR.sol\":10717:10724  10 ** d */\n      tag_176\n      jump\t// in\n    tag_392:\n        /* \"LmLSMR.sol\":10699:10724  uint multiplier = 10 ** d */\n      swap1\n      pop\n        /* \"LmLSMR.sol\":10749:10750  0 */\n      0x00\n        /* \"LmLSMR.sol\":10738:10745  _amount */\n      dup5\n        /* \"LmLSMR.sol\":10738:10750  _amount >= 0 */\n      0x0f\n      signextend\n      slt\n      iszero\n        /* \"LmLSMR.sol\":10730:10782  require(_amount >= 0, \"Amount must be non-negative\") */\n      tag_393\n      jumpi\n      mload(0x40)\n      shl(0xe5, 0x461bcd)\n      dup2\n      mstore\n        /* \"#utility.yul\":10124:10126   */\n      0x20\n        /* \"LmLSMR.sol\":10730:10782  require(_amount >= 0, \"Amount must be non-negative\") */\n      0x04\n      dup3\n      add\n        /* \"#utility.yul\":10106:10127   */\n      mstore\n        /* \"#utility.yul\":10163:10165   */\n      0x1b\n        /* \"#utility.yul\":10143:10161   */\n      0x24\n      dup3\n      add\n        /* \"#utility.yul\":10136:10166   */\n      mstore\n        /* \"#utility.yul\":10202:10231   */\n      0x416d6f756e74206d757374206265206e6f6e2d6e656761746976650000000000\n        /* \"#utility.yul\":10182:10200   */\n      0x44\n      dup3\n      add\n        /* \"#utility.yul\":10175:10232   */\n      mstore\n        /* \"#utility.yul\":10249:10267   */\n      0x64\n      add\n        /* \"LmLSMR.sol\":10730:10782  require(_amount >= 0, \"Amount must be non-negative\") */\n      tag_178\n        /* \"#utility.yul\":9922:10273   */\n      jump\n        /* \"LmLSMR.sol\":10730:10782  require(_amount >= 0, \"Amount must be non-negative\") */\n    tag_393:\n        /* \"LmLSMR.sol\":10795:10829  ABDKMath.mulu(_amount, multiplier) */\n      tag_184\n        /* \"LmLSMR.sol\":10809:10816  _amount */\n      dup5\n        /* \"LmLSMR.sol\":10818:10828  multiplier */\n      dup3\n        /* \"LmLSMR.sol\":10795:10808  ABDKMath.mulu */\n      tag_181\n        /* \"LmLSMR.sol\":10795:10829  ABDKMath.mulu(_amount, multiplier) */\n      jump\t// in\n        /* \"LmLSMR.sol\":2522:3539  function setup(... */\n    tag_124:\n        /* \"@openzeppelin/contracts/access/Ownable.sol\":1531:1544   */\n      tag_398\n        /* \"@openzeppelin/contracts/access/Ownable.sol\":1531:1542   */\n      tag_217\n        /* \"@openzeppelin/contracts/access/Ownable.sol\":1531:1544   */\n      jump\t// in\n    tag_398:\n        /* \"LmLSMR.sol\":2683:2687  init */\n      sload(0x08)\n      shl(0xa0, 0x01)\n      swap1\n      div\n      0xff\n      and\n        /* \"LmLSMR.sol\":2683:2696  init == false */\n      iszero\n        /* \"LmLSMR.sol\":2675:2712  require(init == false,'Already init') */\n      tag_400\n      jumpi\n      mload(0x40)\n      shl(0xe5, 0x461bcd)\n      dup2\n      mstore\n        /* \"#utility.yul\":13583:13585   */\n      0x20\n        /* \"LmLSMR.sol\":2675:2712  require(init == false,'Already init') */\n      0x04\n      dup3\n      add\n        /* \"#utility.yul\":13565:13586   */\n      mstore\n        /* \"#utility.yul\":13622:13624   */\n      0x0c\n        /* \"#utility.yul\":13602:13620   */\n      0x24\n      dup3\n      add\n        /* \"#utility.yul\":13595:13625   */\n      mstore\n        /* \"#utility.yul\":13661:13675   */\n      0x416c726561647920696e69740000000000000000000000000000000000000000\n        /* \"#utility.yul\":13641:13659   */\n      0x44\n      dup3\n      add\n        /* \"#utility.yul\":13634:13676   */\n      mstore\n        /* \"#utility.yul\":13693:13711   */\n      0x64\n      add\n        /* \"LmLSMR.sol\":2675:2712  require(init == false,'Already init') */\n      tag_178\n        /* \"#utility.yul\":13381:13717   */\n      jump\n        /* \"LmLSMR.sol\":2675:2712  require(init == false,'Already init') */\n    tag_400:\n        /* \"LmLSMR.sol\":2739:2740  0 */\n      0x00\n        /* \"LmLSMR.sol\":2726:2736  _overround */\n      dup2\n        /* \"LmLSMR.sol\":2726:2740  _overround > 0 */\n      gt\n        /* \"LmLSMR.sol\":2718:2767  require(_overround > 0,'Cannot have 0 overround') */\n      tag_403\n      jumpi\n      mload(0x40)\n      shl(0xe5, 0x461bcd)\n      dup2\n      mstore\n        /* \"#utility.yul\":13924:13926   */\n      0x20\n        /* \"LmLSMR.sol\":2718:2767  require(_overround > 0,'Cannot have 0 overround') */\n      0x04\n      dup3\n      add\n        /* \"#utility.yul\":13906:13927   */\n      mstore\n        /* \"#utility.yul\":13963:13965   */\n      0x17\n        /* \"#utility.yul\":13943:13961   */\n      0x24\n      dup3\n      add\n        /* \"#utility.yul\":13936:13966   */\n      mstore\n        /* \"#utility.yul\":14002:14027   */\n      0x43616e6e6f7420686176652030206f766572726f756e64000000000000000000\n        /* \"#utility.yul\":13982:14000   */\n      0x44\n      dup3\n      add\n        /* \"#utility.yul\":13975:14028   */\n      mstore\n        /* \"#utility.yul\":14045:14063   */\n      0x64\n      add\n        /* \"LmLSMR.sol\":2718:2767  require(_overround > 0,'Cannot have 0 overround') */\n      tag_178\n        /* \"#utility.yul\":13722:14069   */\n      jump\n        /* \"LmLSMR.sol\":2718:2767  require(_overround > 0,'Cannot have 0 overround') */\n    tag_403:\n        /* \"LmLSMR.sol\":2773:2775  CT */\n      sload(0x07)\n        /* \"LmLSMR.sol\":2773:2828  CT.prepareCondition(_oracle, _questionId, _numOutcomes) */\n      mload(0x40)\n      shl(0xe2, 0x365bb9d5)\n      dup2\n      mstore\n      sub(shl(0xa0, 0x01), 0x01)\n        /* \"#utility.yul\":14294:14349   */\n      dup8\n      dup2\n      and\n        /* \"LmLSMR.sol\":2773:2828  CT.prepareCondition(_oracle, _questionId, _numOutcomes) */\n      0x04\n      dup4\n      add\n        /* \"#utility.yul\":14276:14350   */\n      mstore\n        /* \"#utility.yul\":14366:14384   */\n      0x24\n      dup3\n      add\n        /* \"#utility.yul\":14359:14393   */\n      dup8\n      swap1\n      mstore\n        /* \"#utility.yul\":14409:14427   */\n      0x44\n      dup3\n      add\n        /* \"#utility.yul\":14402:14436   */\n      dup7\n      swap1\n      mstore\n        /* \"LmLSMR.sol\":2773:2775  CT */\n      swap1\n      swap2\n      and\n      swap1\n        /* \"LmLSMR.sol\":2773:2792  CT.prepareCondition */\n      0xd96ee754\n      swap1\n        /* \"#utility.yul\":14249:14267   */\n      0x64\n      add\n        /* \"LmLSMR.sol\":2773:2828  CT.prepareCondition(_oracle, _questionId, _numOutcomes) */\n      0x00\n      mload(0x40)\n      dup1\n      dup4\n      sub\n      dup2\n      0x00\n      dup8\n      dup1\n      extcodesize\n      iszero\n      dup1\n      iszero\n      tag_408\n      jumpi\n      0x00\n      dup1\n      revert\n    tag_408:\n      pop\n      gas\n      call\n      iszero\n      dup1\n      iszero\n      tag_410\n      jumpi\n      returndatasize\n      0x00\n      dup1\n      returndatacopy\n      revert(0x00, returndatasize)\n    tag_410:\n      pop\n      pop\n        /* \"LmLSMR.sol\":2846:2848  CT */\n      sload(0x07)\n        /* \"LmLSMR.sol\":2846:2899  CT.getConditionId(_oracle, _questionId, _numOutcomes) */\n      mload(0x40)\n      shl(0xe1, 0x42963571)\n      dup2\n      mstore\n      sub(shl(0xa0, 0x01), 0x01)\n        /* \"#utility.yul\":14294:14349   */\n      dup10\n      dup2\n      and\n        /* \"LmLSMR.sol\":2846:2899  CT.getConditionId(_oracle, _questionId, _numOutcomes) */\n      0x04\n      dup4\n      add\n        /* \"#utility.yul\":14276:14350   */\n      mstore\n        /* \"#utility.yul\":14366:14384   */\n      0x24\n      dup3\n      add\n        /* \"#utility.yul\":14359:14393   */\n      dup10\n      swap1\n      mstore\n        /* \"#utility.yul\":14409:14427   */\n      0x44\n      dup3\n      add\n        /* \"#utility.yul\":14402:14436   */\n      dup9\n      swap1\n      mstore\n        /* \"LmLSMR.sol\":2846:2848  CT */\n      swap1\n      swap2\n      and\n      swap3\n      pop\n        /* \"LmLSMR.sol\":2846:2863  CT.getConditionId */\n      0x852c6ae2\n      swap2\n      pop\n        /* \"#utility.yul\":14249:14267   */\n      0x64\n      add\n        /* \"LmLSMR.sol\":2846:2899  CT.getConditionId(_oracle, _questionId, _numOutcomes) */\n      0x20\n      mload(0x40)\n      dup1\n      dup4\n      sub\n      dup2\n      dup7\n      gas\n      staticcall\n      iszero\n      dup1\n      iszero\n      tag_413\n      jumpi\n      returndatasize\n      0x00\n      dup1\n      returndatacopy\n      revert(0x00, returndatasize)\n    tag_413:\n      pop\n      pop\n      pop\n      pop\n      mload(0x40)\n      returndatasize\n      not(0x1f)\n      0x1f\n      dup3\n      add\n      and\n      dup3\n      add\n      dup1\n      0x40\n      mstore\n      pop\n      dup2\n      add\n      swap1\n      tag_414\n      swap2\n      swap1\n      tag_223\n      jump\t// in\n    tag_414:\n        /* \"LmLSMR.sol\":2834:2843  condition */\n      0x06\n        /* \"LmLSMR.sol\":2834:2899  condition = CT.getConditionId(_oracle, _questionId, _numOutcomes) */\n      sstore\n        /* \"LmLSMR.sol\":2913:2918  token */\n      sload(0x08)\n        /* \"LmLSMR.sol\":2906:2973  IERC20(token).safeTransferFrom(msg.sender, address(this), _subsidy) */\n      tag_416\n      swap1\n      sub(shl(0xa0, 0x01), 0x01)\n        /* \"LmLSMR.sol\":2913:2918  token */\n      and\n        /* \"LmLSMR.sol\":2937:2947  msg.sender */\n      caller\n        /* \"LmLSMR.sol\":2957:2961  this */\n      address\n        /* \"LmLSMR.sol\":2964:2972  _subsidy */\n      dup6\n        /* \"LmLSMR.sol\":2906:2936  IERC20(token).safeTransferFrom */\n      tag_298\n        /* \"LmLSMR.sol\":2906:2973  IERC20(token).safeTransferFrom(msg.sender, address(this), _subsidy) */\n      jump\t// in\n    tag_416:\n        /* \"LmLSMR.sol\":2980:2991  numOutcomes */\n      0x01\n        /* \"LmLSMR.sol\":2980:3006  numOutcomes = _numOutcomes */\n      dup4\n      swap1\n      sstore\n        /* \"LmLSMR.sol\":3012:3020  int128 n */\n      0x00\n        /* \"LmLSMR.sol\":3023:3054  ABDKMath.fromUInt(_numOutcomes) */\n      tag_417\n        /* \"LmLSMR.sol\":2994:3006  _numOutcomes */\n      dup5\n        /* \"LmLSMR.sol\":3023:3040  ABDKMath.fromUInt */\n      tag_313\n        /* \"LmLSMR.sol\":3023:3054  ABDKMath.fromUInt(_numOutcomes) */\n      jump\t// in\n    tag_417:\n        /* \"LmLSMR.sol\":3090:3095  token */\n      sload(0x08)\n        /* \"LmLSMR.sol\":3012:3054  int128 n = ABDKMath.fromUInt(_numOutcomes) */\n      swap1\n      swap2\n      pop\n        /* \"LmLSMR.sol\":3078:3106  getTokenEth(token, _subsidy) */\n      tag_418\n      swap1\n      sub(shl(0xa0, 0x01), 0x01)\n        /* \"LmLSMR.sol\":3090:3095  token */\n      and\n        /* \"LmLSMR.sol\":3097:3105  _subsidy */\n      dup5\n        /* \"LmLSMR.sol\":3078:3089  getTokenEth */\n      tag_57\n        /* \"LmLSMR.sol\":3078:3106  getTokenEth(token, _subsidy) */\n      jump\t// in\n    tag_418:\n        /* \"LmLSMR.sol\":3060:3075  initial_subsidy */\n      0x05\n        /* \"LmLSMR.sol\":3060:3106  initial_subsidy = getTokenEth(token, _subsidy) */\n      dup1\n      sload\n      not(sub(shl(0x80, 0x01), 0x01))\n      and\n      sub(shl(0x80, 0x01), 0x01)\n      swap3\n      swap1\n      swap3\n      and\n      swap2\n      swap1\n      swap2\n      or\n      swap1\n      sstore\n      0x00\n        /* \"LmLSMR.sol\":3132:3164  ABDKMath.divu(_overround, 10000) */\n      tag_419\n        /* \"LmLSMR.sol\":3146:3156  _overround */\n      dup4\n        /* \"LmLSMR.sol\":3158:3163  10000 */\n      0x2710\n        /* \"LmLSMR.sol\":3132:3145  ABDKMath.divu */\n      tag_193\n        /* \"LmLSMR.sol\":3132:3164  ABDKMath.divu(_overround, 10000) */\n      jump\t// in\n    tag_419:\n        /* \"LmLSMR.sol\":3113:3164  int128 overround = ABDKMath.divu(_overround, 10000) */\n      swap1\n      pop\n        /* \"LmLSMR.sol\":3238:3293  ABDKMath.div(overround, ABDKMath.mul(n,ABDKMath.ln(n))) */\n      tag_420\n        /* \"LmLSMR.sol\":3251:3260  overround */\n      dup2\n        /* \"LmLSMR.sol\":3262:3292  ABDKMath.mul(n,ABDKMath.ln(n)) */\n      tag_421\n        /* \"LmLSMR.sol\":3275:3276  n */\n      dup5\n        /* \"LmLSMR.sol\":3277:3291  ABDKMath.ln(n) */\n      tag_211\n        /* \"LmLSMR.sol\":3289:3290  n */\n      dup7\n        /* \"LmLSMR.sol\":3277:3288  ABDKMath.ln */\n      tag_212\n        /* \"LmLSMR.sol\":3277:3291  ABDKMath.ln(n) */\n      jump\t// in\n        /* \"LmLSMR.sol\":3262:3292  ABDKMath.mul(n,ABDKMath.ln(n)) */\n    tag_421:\n        /* \"LmLSMR.sol\":3238:3250  ABDKMath.div */\n      tag_207\n        /* \"LmLSMR.sol\":3238:3293  ABDKMath.div(overround, ABDKMath.mul(n,ABDKMath.ln(n))) */\n      jump\t// in\n    tag_420:\n        /* \"LmLSMR.sol\":3230:3235  alpha */\n      0x03\n        /* \"LmLSMR.sol\":3230:3293  alpha = ABDKMath.div(overround, ABDKMath.mul(n,ABDKMath.ln(n))) */\n      dup1\n      sload\n      sub(shl(0x80, 0x01), 0x01)\n      swap3\n      dup4\n      and\n      shl(0x80, 0x01)\n      mul\n      swap3\n      and\n      swap2\n      swap1\n      swap2\n      or\n      swap1\n      sstore\n        /* \"LmLSMR.sol\":3329:3344  initial_subsidy */\n      sload(0x05)\n        /* \"LmLSMR.sol\":3303:3356  ABDKMath.mul(ABDKMath.mul(initial_subsidy, n), alpha) */\n      tag_423\n      swap1\n        /* \"LmLSMR.sol\":3316:3348  ABDKMath.mul(initial_subsidy, n) */\n      tag_424\n      swap1\n        /* \"LmLSMR.sol\":3230:3293  alpha = ABDKMath.div(overround, ABDKMath.mul(n,ABDKMath.ln(n))) */\n      0x0f\n        /* \"LmLSMR.sol\":3329:3344  initial_subsidy */\n      signextend\n        /* \"LmLSMR.sol\":3346:3347  n */\n      dup5\n        /* \"LmLSMR.sol\":3316:3328  ABDKMath.mul */\n      tag_183\n        /* \"LmLSMR.sol\":3316:3348  ABDKMath.mul(initial_subsidy, n) */\n      jump\t// in\n    tag_424:\n        /* \"LmLSMR.sol\":3350:3355  alpha */\n      sload(0x03)\n      shl(0x80, 0x01)\n      swap1\n      div\n      0x0f\n      signextend\n        /* \"LmLSMR.sol\":3303:3315  ABDKMath.mul */\n      tag_183\n        /* \"LmLSMR.sol\":3303:3356  ABDKMath.mul(ABDKMath.mul(initial_subsidy, n), alpha) */\n      jump\t// in\n    tag_423:\n        /* \"LmLSMR.sol\":3299:3300  b */\n      0x03\n        /* \"LmLSMR.sol\":3299:3356  b = ABDKMath.mul(ABDKMath.mul(initial_subsidy, n), alpha) */\n      dup1\n      sload\n      not(sub(shl(0x80, 0x01), 0x01))\n      and\n      sub(shl(0x80, 0x01), 0x01)\n      swap3\n      swap1\n      swap3\n      and\n      swap2\n      swap1\n      swap2\n      or\n      swap1\n      sstore\n      0x00\n        /* \"LmLSMR.sol\":3363:3436  for(uint i=0; i<_numOutcomes; i++) {... */\n    tag_425:\n        /* \"LmLSMR.sol\":3379:3391  _numOutcomes */\n      dup6\n        /* \"LmLSMR.sol\":3377:3378  i */\n      dup2\n        /* \"LmLSMR.sol\":3377:3391  i<_numOutcomes */\n      lt\n        /* \"LmLSMR.sol\":3363:3436  for(uint i=0; i<_numOutcomes; i++) {... */\n      iszero\n      tag_426\n      jumpi\n        /* \"LmLSMR.sol\":3413:3428  initial_subsidy */\n      sload(0x05)\n        /* \"LmLSMR.sol\":3406:3407  q */\n      0x02\n        /* \"LmLSMR.sol\":3406:3429  q.push(initial_subsidy) */\n      dup1\n      sload\n        /* \"LmLSMR.sol\":3413:3428  initial_subsidy */\n      0x01\n        /* \"LmLSMR.sol\":3406:3429  q.push(initial_subsidy) */\n      dup1\n      dup3\n      add\n      dup4\n      sstore\n      0x00\n      dup4\n      swap1\n      mstore\n      0x405787fa12a823e0f2b7631cc41b3ba8828b3321ca811111fa75cd3aa3bb5ace\n      swap3\n      dup3\n      div\n      swap3\n      swap1\n      swap3\n      add\n      dup1\n      sload\n      swap2\n      dup4\n      and\n      0x10\n      mul\n        /* \"LmLSMR.sol\":3413:3428  initial_subsidy */\n      0x0100\n        /* \"LmLSMR.sol\":3406:3429  q.push(initial_subsidy) */\n      exp\n      sub(shl(0x80, 0x01), 0x01)\n      dup2\n      dup2\n      mul\n      not\n      swap1\n      swap4\n      and\n      swap3\n      swap1\n      swap5\n      and\n      swap4\n      swap1\n      swap4\n      mul\n      or\n      swap1\n      swap2\n      sstore\n        /* \"LmLSMR.sol\":3393:3396  i++ */\n      add\n        /* \"LmLSMR.sol\":3363:3436  for(uint i=0; i<_numOutcomes; i++) {... */\n      jump(tag_425)\n    tag_426:\n      pop\n        /* \"LmLSMR.sol\":3442:3446  init */\n      0x08\n        /* \"LmLSMR.sol\":3442:3453  init = true */\n      dup1\n      sload\n      0xffffffffffffffffffffff00ffffffffffffffffffffffffffffffffffffffff\n      and\n      shl(0xa0, 0x01)\n      or\n      swap1\n      sstore\n        /* \"LmLSMR.sol\":3488:3503  initial_subsidy */\n      sload(0x05)\n        /* \"LmLSMR.sol\":3475:3507  ABDKMath.mul(initial_subsidy, n) */\n      tag_429\n      swap1\n        /* \"LmLSMR.sol\":3488:3503  initial_subsidy */\n      0x0f\n      signextend\n        /* \"LmLSMR.sol\":3505:3506  n */\n      dup4\n        /* \"LmLSMR.sol\":3475:3487  ABDKMath.mul */\n      tag_183\n        /* \"LmLSMR.sol\":3475:3507  ABDKMath.mul(initial_subsidy, n) */\n      jump\t// in\n    tag_429:\n        /* \"LmLSMR.sol\":3460:3472  total_shares */\n      0x04\n        /* \"LmLSMR.sol\":3460:3507  total_shares = ABDKMath.mul(initial_subsidy, n) */\n      dup1\n      sload\n      sub(shl(0x80, 0x01), 0x01)\n      swap3\n      dup4\n      and\n      shl(0x80, 0x01)\n      mul\n      swap3\n      and\n      swap2\n      swap1\n      swap2\n      or\n      swap1\n      sstore\n        /* \"LmLSMR.sol\":3528:3534  cost() */\n      tag_430\n        /* \"LmLSMR.sol\":3528:3532  cost */\n      tag_61\n        /* \"LmLSMR.sol\":3528:3534  cost() */\n      jump\t// in\n    tag_430:\n        /* \"LmLSMR.sol\":3513:3525  current_cost */\n      0x04\n        /* \"LmLSMR.sol\":3513:3534  current_cost = cost() */\n      dup1\n      sload\n      not(sub(shl(0x80, 0x01), 0x01))\n      and\n      sub(shl(0x80, 0x01), 0x01)\n      swap3\n      swap1\n      swap3\n      and\n      swap2\n      swap1\n      swap2\n      or\n      swap1\n      sstore\n      pop\n      pop\n      pop\n      pop\n      pop\n      pop\n      pop\n        /* \"LmLSMR.sol\":2522:3539  function setup(... */\n      jump\t// out\n        /* \"LmLSMR.sol\":11976:13636  function sell(uint256 _outcome, int128 _amount) public onlyAfterInit returns (int128 refund) {... */\n    tag_127:\n        /* \"LmLSMR.sol\":11727:11731  init */\n      sload(0x08)\n        /* \"LmLSMR.sol\":12054:12067  int128 refund */\n      0x00\n      swap1\n      shl(0xa0, 0x01)\n        /* \"LmLSMR.sol\":11727:11731  init */\n      swap1\n      div\n      0xff\n      and\n        /* \"LmLSMR.sol\":11727:11739  init == true */\n      iszero\n      iszero\n        /* \"LmLSMR.sol\":11735:11739  true */\n      0x01\n        /* \"LmLSMR.sol\":11727:11739  init == true */\n      eq\n        /* \"LmLSMR.sol\":11719:11740  require(init == true) */\n      tag_432\n      jumpi\n      0x00\n      dup1\n      revert\n    tag_432:\n        /* \"LmLSMR.sol\":12094:12105  numOutcomes */\n      sload(0x01)\n        /* \"LmLSMR.sol\":12083:12091  _outcome */\n      dup4\n        /* \"LmLSMR.sol\":12083:12105  _outcome < numOutcomes */\n      lt\n        /* \"LmLSMR.sol\":12075:12131  require(_outcome < numOutcomes, \"Invalid outcome index\") */\n      tag_434\n      jumpi\n      mload(0x40)\n      shl(0xe5, 0x461bcd)\n      dup2\n      mstore\n        /* \"#utility.yul\":11832:11834   */\n      0x20\n        /* \"LmLSMR.sol\":12075:12131  require(_outcome < numOutcomes, \"Invalid outcome index\") */\n      0x04\n      dup3\n      add\n        /* \"#utility.yul\":11814:11835   */\n      mstore\n        /* \"#utility.yul\":11871:11873   */\n      0x15\n        /* \"#utility.yul\":11851:11869   */\n      0x24\n      dup3\n      add\n        /* \"#utility.yul\":11844:11874   */\n      mstore\n      shl(0x5b, 0x092dcecc2d8d2c840deeae8c6dedaca40d2dcc8caf)\n        /* \"#utility.yul\":11890:11908   */\n      0x44\n      dup3\n      add\n        /* \"#utility.yul\":11883:11934   */\n      mstore\n        /* \"#utility.yul\":11951:11969   */\n      0x64\n      add\n        /* \"LmLSMR.sol\":12075:12131  require(_outcome < numOutcomes, \"Invalid outcome index\") */\n      tag_178\n        /* \"#utility.yul\":11630:11975   */\n      jump\n        /* \"LmLSMR.sol\":12075:12131  require(_outcome < numOutcomes, \"Invalid outcome index\") */\n    tag_434:\n        /* \"LmLSMR.sol\":12155:12156  0 */\n      0x00\n        /* \"LmLSMR.sol\":12145:12152  _amount */\n      dup3\n        /* \"LmLSMR.sol\":12145:12156  _amount > 0 */\n      0x0f\n      signextend\n      sgt\n        /* \"LmLSMR.sol\":12137:12184  require(_amount > 0, \"Amount must be positive\") */\n      tag_436\n      jumpi\n      mload(0x40)\n      shl(0xe5, 0x461bcd)\n      dup2\n      mstore\n        /* \"#utility.yul\":14838:14840   */\n      0x20\n        /* \"LmLSMR.sol\":12137:12184  require(_amount > 0, \"Amount must be positive\") */\n      0x04\n      dup3\n      add\n        /* \"#utility.yul\":14820:14841   */\n      mstore\n        /* \"#utility.yul\":14877:14879   */\n      0x17\n        /* \"#utility.yul\":14857:14875   */\n      0x24\n      dup3\n      add\n        /* \"#utility.yul\":14850:14880   */\n      mstore\n        /* \"#utility.yul\":14916:14941   */\n      0x416d6f756e74206d75737420626520706f736974697665000000000000000000\n        /* \"#utility.yul\":14896:14914   */\n      0x44\n      dup3\n      add\n        /* \"#utility.yul\":14889:14942   */\n      mstore\n        /* \"#utility.yul\":14959:14977   */\n      0x64\n      add\n        /* \"LmLSMR.sol\":12137:12184  require(_amount > 0, \"Amount must be positive\") */\n      tag_178\n        /* \"#utility.yul\":14636:14983   */\n      jump\n        /* \"LmLSMR.sol\":12137:12184  require(_amount > 0, \"Amount must be positive\") */\n    tag_436:\n        /* \"LmLSMR.sol\":12198:12200  CT */\n      sload(0x07)\n        /* \"LmLSMR.sol\":12219:12228  condition */\n      sload(0x06)\n        /* \"LmLSMR.sol\":12198:12229  CT.payoutDenominator(condition) */\n      mload(0x40)\n      shl(0xe0, 0xdd34de67)\n      dup2\n      mstore\n      sub(shl(0xa0, 0x01), 0x01)\n        /* \"LmLSMR.sol\":12198:12200  CT */\n      swap1\n      swap3\n      and\n      swap2\n        /* \"LmLSMR.sol\":12198:12218  CT.payoutDenominator */\n      0xdd34de67\n      swap2\n        /* \"LmLSMR.sol\":12198:12229  CT.payoutDenominator(condition) */\n      tag_439\n      swap2\n      0x04\n      add\n        /* \"#utility.yul\":1274:1299   */\n      swap1\n      dup2\n      mstore\n        /* \"#utility.yul\":1262:1264   */\n      0x20\n        /* \"#utility.yul\":1247:1265   */\n      add\n      swap1\n        /* \"#utility.yul\":1128:1305   */\n      jump\n        /* \"LmLSMR.sol\":12198:12229  CT.payoutDenominator(condition) */\n    tag_439:\n      0x20\n      mload(0x40)\n      dup1\n      dup4\n      sub\n      dup2\n      dup7\n      gas\n      staticcall\n      iszero\n      dup1\n      iszero\n      tag_441\n      jumpi\n      returndatasize\n      0x00\n      dup1\n      returndatacopy\n      revert(0x00, returndatasize)\n    tag_441:\n      pop\n      pop\n      pop\n      pop\n      mload(0x40)\n      returndatasize\n      not(0x1f)\n      0x1f\n      dup3\n      add\n      and\n      dup3\n      add\n      dup1\n      0x40\n      mstore\n      pop\n      dup2\n      add\n      swap1\n      tag_442\n      swap2\n      swap1\n      tag_223\n      jump\t// in\n    tag_442:\n        /* \"LmLSMR.sol\":12198:12234  CT.payoutDenominator(condition) == 0 */\n      iszero\n        /* \"LmLSMR.sol\":12190:12262  require(CT.payoutDenominator(condition) == 0, \"Market already resolved\") */\n      tag_443\n      jumpi\n      mload(0x40)\n      shl(0xe5, 0x461bcd)\n      dup2\n      mstore\n        /* \"#utility.yul\":15190:15192   */\n      0x20\n        /* \"LmLSMR.sol\":12190:12262  require(CT.payoutDenominator(condition) == 0, \"Market already resolved\") */\n      0x04\n      dup3\n      add\n        /* \"#utility.yul\":15172:15193   */\n      mstore\n        /* \"#utility.yul\":15229:15231   */\n      0x17\n        /* \"#utility.yul\":15209:15227   */\n      0x24\n      dup3\n      add\n        /* \"#utility.yul\":15202:15232   */\n      mstore\n        /* \"#utility.yul\":15268:15293   */\n      0x4d61726b657420616c7265616479207265736f6c766564000000000000000000\n        /* \"#utility.yul\":15248:15266   */\n      0x44\n      dup3\n      add\n        /* \"#utility.yul\":15241:15294   */\n      mstore\n        /* \"#utility.yul\":15311:15329   */\n      0x64\n      add\n        /* \"LmLSMR.sol\":12190:12262  require(CT.payoutDenominator(condition) == 0, \"Market already resolved\") */\n      tag_178\n        /* \"#utility.yul\":14988:15335   */\n      jump\n        /* \"LmLSMR.sol\":12190:12262  require(CT.payoutDenominator(condition) == 0, \"Market already resolved\") */\n    tag_443:\n        /* \"LmLSMR.sol\":12379:12386  _amount */\n      dup2\n        /* \"LmLSMR.sol\":12364:12386  q[_outcome] >= _amount */\n      0x0f\n      signextend\n        /* \"LmLSMR.sol\":12364:12365  q */\n      0x02\n        /* \"LmLSMR.sol\":12366:12374  _outcome */\n      dup5\n        /* \"LmLSMR.sol\":12364:12375  q[_outcome] */\n      dup2\n      sload\n      dup2\n      lt\n      tag_447\n      jumpi\n      tag_447\n      tag_205\n      jump\t// in\n    tag_447:\n      0x00\n      swap2\n      dup3\n      mstore\n      0x20\n      swap1\n      swap2\n      keccak256\n      0x02\n      dup3\n      div\n      add\n      sload\n      0x01\n      swap1\n      swap2\n      and\n      0x10\n      mul\n      0x0100\n      exp\n      swap1\n      div\n      0x0f\n      signextend\n        /* \"LmLSMR.sol\":12364:12386  q[_outcome] >= _amount */\n      slt\n      iszero\n        /* \"LmLSMR.sol\":12356:12416  require(q[_outcome] >= _amount, \"Not enough shares to sell\") */\n      tag_449\n      jumpi\n      mload(0x40)\n      shl(0xe5, 0x461bcd)\n      dup2\n      mstore\n        /* \"#utility.yul\":15542:15544   */\n      0x20\n        /* \"LmLSMR.sol\":12356:12416  require(q[_outcome] >= _amount, \"Not enough shares to sell\") */\n      0x04\n      dup3\n      add\n        /* \"#utility.yul\":15524:15545   */\n      mstore\n        /* \"#utility.yul\":15581:15583   */\n      0x19\n        /* \"#utility.yul\":15561:15579   */\n      0x24\n      dup3\n      add\n        /* \"#utility.yul\":15554:15584   */\n      mstore\n        /* \"#utility.yul\":15620:15647   */\n      0x4e6f7420656e6f7567682073686172657320746f2073656c6c00000000000000\n        /* \"#utility.yul\":15600:15618   */\n      0x44\n      dup3\n      add\n        /* \"#utility.yul\":15593:15648   */\n      mstore\n        /* \"#utility.yul\":15665:15683   */\n      0x64\n      add\n        /* \"LmLSMR.sol\":12356:12416  require(q[_outcome] >= _amount, \"Not enough shares to sell\") */\n      tag_178\n        /* \"#utility.yul\":15340:15689   */\n      jump\n        /* \"LmLSMR.sol\":12356:12416  require(q[_outcome] >= _amount, \"Not enough shares to sell\") */\n    tag_449:\n        /* \"LmLSMR.sol\":12436:12470  ABDKMath.sub(q[_outcome], _amount) */\n      tag_452\n        /* \"LmLSMR.sol\":12449:12450  q */\n      0x02\n        /* \"LmLSMR.sol\":12451:12459  _outcome */\n      dup5\n        /* \"LmLSMR.sol\":12449:12460  q[_outcome] */\n      dup2\n      sload\n      dup2\n      lt\n      tag_454\n      jumpi\n      tag_454\n      tag_205\n      jump\t// in\n    tag_454:\n      swap1\n      0x00\n      mstore\n      keccak256(0x00, 0x20)\n      swap1\n      0x02\n      swap2\n      dup3\n      dup3\n      div\n      add\n      swap2\n      swap1\n      mod\n      0x10\n      mul\n      swap1\n      sload\n      swap1\n      0x0100\n      exp\n      swap1\n      div\n      0x0f\n      signextend\n        /* \"LmLSMR.sol\":12462:12469  _amount */\n      dup4\n        /* \"LmLSMR.sol\":12436:12448  ABDKMath.sub */\n      tag_456\n        /* \"LmLSMR.sol\":12436:12470  ABDKMath.sub(q[_outcome], _amount) */\n      jump\t// in\n    tag_452:\n        /* \"LmLSMR.sol\":12422:12423  q */\n      0x02\n        /* \"LmLSMR.sol\":12424:12432  _outcome */\n      dup5\n        /* \"LmLSMR.sol\":12422:12433  q[_outcome] */\n      dup2\n      sload\n      dup2\n      lt\n      tag_458\n      jumpi\n      tag_458\n      tag_205\n      jump\t// in\n    tag_458:\n      swap1\n      0x00\n      mstore\n      keccak256(0x00, 0x20)\n      swap1\n      0x02\n      swap2\n      dup3\n      dup3\n      div\n      add\n      swap2\n      swap1\n      mod\n      0x10\n      mul\n        /* \"LmLSMR.sol\":12422:12470  q[_outcome] = ABDKMath.sub(q[_outcome], _amount) */\n      0x0100\n      exp\n      dup2\n      sload\n      dup2\n      sub(shl(0x80, 0x01), 0x01)\n      mul\n      not\n      and\n      swap1\n      dup4\n      0x0f\n      signextend\n      sub(shl(0x80, 0x01), 0x01)\n      and\n      mul\n      or\n      swap1\n      sstore\n      pop\n        /* \"LmLSMR.sol\":12491:12526  ABDKMath.sub(total_shares, _amount) */\n      tag_460\n        /* \"LmLSMR.sol\":12504:12516  total_shares */\n      0x04\n      0x10\n      swap1\n      sload\n      swap1\n      0x0100\n      exp\n      swap1\n      div\n      0x0f\n      signextend\n        /* \"LmLSMR.sol\":12518:12525  _amount */\n      dup4\n        /* \"LmLSMR.sol\":12491:12503  ABDKMath.sub */\n      tag_456\n        /* \"LmLSMR.sol\":12491:12526  ABDKMath.sub(total_shares, _amount) */\n      jump\t// in\n    tag_460:\n        /* \"LmLSMR.sol\":12476:12488  total_shares */\n      0x04\n        /* \"LmLSMR.sol\":12476:12526  total_shares = ABDKMath.sub(total_shares, _amount) */\n      dup1\n      sload\n      sub(shl(0x80, 0x01), 0x01)\n      swap1\n      dup2\n      and\n      shl(0x80, 0x01)\n      swap4\n      swap1\n      swap2\n      and\n      dup4\n      mul\n      or\n      swap1\n      dup2\n      swap1\n      sstore\n        /* \"LmLSMR.sol\":12563:12568  alpha */\n      sload(0x03)\n        /* \"LmLSMR.sol\":12536:12569  ABDKMath.mul(total_shares, alpha) */\n      tag_461\n      swap3\n        /* \"LmLSMR.sol\":12549:12561  total_shares */\n      swap2\n      dup3\n      swap1\n      div\n        /* \"LmLSMR.sol\":12476:12526  total_shares = ABDKMath.sub(total_shares, _amount) */\n      0x0f\n        /* \"LmLSMR.sol\":12549:12561  total_shares */\n      swap1\n      dup2\n      signextend\n      swap3\n        /* \"LmLSMR.sol\":12563:12568  alpha */\n      swap1\n      swap2\n      div\n      swap1\n      signextend\n        /* \"LmLSMR.sol\":12536:12548  ABDKMath.mul */\n      tag_183\n        /* \"LmLSMR.sol\":12536:12569  ABDKMath.mul(total_shares, alpha) */\n      jump\t// in\n    tag_461:\n        /* \"LmLSMR.sol\":12532:12533  b */\n      0x03\n        /* \"LmLSMR.sol\":12532:12569  b = ABDKMath.mul(total_shares, alpha) */\n      dup1\n      sload\n      not(sub(shl(0x80, 0x01), 0x01))\n      and\n      sub(shl(0x80, 0x01), 0x01)\n      swap3\n      swap1\n      swap3\n      and\n      swap2\n      swap1\n      swap2\n      or\n      swap1\n      sstore\n      0x00\n      dup1\n        /* \"LmLSMR.sol\":12703:12831  for (uint i = 0; i < numOutcomes; i++) {... */\n    tag_462:\n        /* \"LmLSMR.sol\":12724:12735  numOutcomes */\n      sload(0x01)\n        /* \"LmLSMR.sol\":12720:12721  i */\n      dup2\n        /* \"LmLSMR.sol\":12720:12735  i < numOutcomes */\n      lt\n        /* \"LmLSMR.sol\":12703:12831  for (uint i = 0; i < numOutcomes; i++) {... */\n      iszero\n      tag_463\n      jumpi\n        /* \"LmLSMR.sol\":12764:12824  ABDKMath.add(sum_total, ABDKMath.exp(ABDKMath.div(q[i], b))) */\n      tag_465\n        /* \"LmLSMR.sol\":12777:12786  sum_total */\n      dup3\n        /* \"LmLSMR.sol\":12788:12823  ABDKMath.exp(ABDKMath.div(q[i], b)) */\n      tag_201\n        /* \"LmLSMR.sol\":12801:12822  ABDKMath.div(q[i], b) */\n      tag_202\n        /* \"LmLSMR.sol\":12814:12815  q */\n      0x02\n        /* \"LmLSMR.sol\":12816:12817  i */\n      dup6\n        /* \"LmLSMR.sol\":12814:12818  q[i] */\n      dup2\n      sload\n      dup2\n      lt\n      tag_204\n      jumpi\n      tag_204\n      tag_205\n      jump\t// in\n        /* \"LmLSMR.sol\":12764:12824  ABDKMath.add(sum_total, ABDKMath.exp(ABDKMath.div(q[i], b))) */\n    tag_465:\n        /* \"LmLSMR.sol\":12752:12824  sum_total = ABDKMath.add(sum_total, ABDKMath.exp(ABDKMath.div(q[i], b))) */\n      swap2\n      pop\n        /* \"LmLSMR.sol\":12737:12740  i++ */\n      0x01\n      add\n        /* \"LmLSMR.sol\":12703:12831  for (uint i = 0; i < numOutcomes; i++) {... */\n      jump(tag_462)\n    tag_463:\n      pop\n        /* \"LmLSMR.sol\":12867:12868  b */\n      sload(0x03)\n        /* \"LmLSMR.sol\":12836:12851  int128 new_cost */\n      0x00\n      swap1\n        /* \"LmLSMR.sol\":12854:12893  ABDKMath.mul(b, ABDKMath.ln(sum_total)) */\n      tag_471\n      swap1\n        /* \"LmLSMR.sol\":12867:12868  b */\n      0x0f\n      signextend\n        /* \"LmLSMR.sol\":12870:12892  ABDKMath.ln(sum_total) */\n      tag_211\n        /* \"LmLSMR.sol\":12882:12891  sum_total */\n      dup5\n        /* \"LmLSMR.sol\":12870:12881  ABDKMath.ln */\n      tag_212\n        /* \"LmLSMR.sol\":12870:12892  ABDKMath.ln(sum_total) */\n      jump\t// in\n        /* \"LmLSMR.sol\":12854:12893  ABDKMath.mul(b, ABDKMath.ln(sum_total)) */\n    tag_471:\n        /* \"LmLSMR.sol\":13010:13022  current_cost */\n      sload(0x04)\n        /* \"LmLSMR.sol\":12836:12893  int128 new_cost = ABDKMath.mul(b, ABDKMath.ln(sum_total)) */\n      swap1\n      swap2\n      pop\n        /* \"LmLSMR.sol\":12997:13033  ABDKMath.sub(current_cost, new_cost) */\n      tag_473\n      swap1\n        /* \"LmLSMR.sol\":13010:13022  current_cost */\n      0x0f\n      signextend\n        /* \"LmLSMR.sol\":12836:12893  int128 new_cost = ABDKMath.mul(b, ABDKMath.ln(sum_total)) */\n      dup3\n        /* \"LmLSMR.sol\":12997:13009  ABDKMath.sub */\n      tag_456\n        /* \"LmLSMR.sol\":12997:13033  ABDKMath.sub(current_cost, new_cost) */\n      jump\t// in\n    tag_473:\n        /* \"LmLSMR.sol\":13167:13172  token */\n      sload(0x08)\n        /* \"LmLSMR.sol\":12988:13033  refund = ABDKMath.sub(current_cost, new_cost) */\n      swap1\n      swap4\n      pop\n        /* \"LmLSMR.sol\":13127:13148  uint n_outcome_tokens */\n      0x00\n      swap1\n        /* \"LmLSMR.sol\":13151:13182  getTokenWeiDown(token, _amount) */\n      tag_474\n      swap1\n      sub(shl(0xa0, 0x01), 0x01)\n        /* \"LmLSMR.sol\":13167:13172  token */\n      and\n        /* \"LmLSMR.sol\":13174:13181  _amount */\n      dup7\n        /* \"LmLSMR.sol\":13151:13166  getTokenWeiDown */\n      tag_115\n        /* \"LmLSMR.sol\":13151:13182  getTokenWeiDown(token, _amount) */\n      jump\t// in\n    tag_474:\n        /* \"LmLSMR.sol\":13199:13201  CT */\n      sload(0x07)\n        /* \"LmLSMR.sol\":13223:13228  token */\n      sload(0x08)\n        /* \"LmLSMR.sol\":13262:13271  condition */\n      sload(0x06)\n        /* \"LmLSMR.sol\":13231:13287  CT.getCollectionId(bytes32(0), condition, 1 << _outcome) */\n      mload(0x40)\n      shl(0xe0, 0x856296f7)\n      dup2\n      mstore\n        /* \"LmLSMR.sol\":13188:13196  uint pos */\n      0x00\n        /* \"LmLSMR.sol\":13231:13287  CT.getCollectionId(bytes32(0), condition, 1 << _outcome) */\n      0x04\n      dup3\n      add\n        /* \"#utility.yul\":15896:15921   */\n      dup2\n      swap1\n      mstore\n        /* \"#utility.yul\":15937:15955   */\n      0x24\n      dup3\n      add\n        /* \"#utility.yul\":15930:15964   */\n      swap3\n      swap1\n      swap3\n      mstore\n        /* \"LmLSMR.sol\":13199:13201  CT */\n      0x01\n        /* \"LmLSMR.sol\":13273:13286  1 << _outcome */\n      dup12\n      shl\n        /* \"#utility.yul\":15980:15998   */\n      0x44\n      dup3\n      add\n        /* \"#utility.yul\":15973:16007   */\n      mstore\n        /* \"LmLSMR.sol\":13127:13182  uint n_outcome_tokens = getTokenWeiDown(token, _amount) */\n      swap4\n      swap5\n      pop\n        /* \"LmLSMR.sol\":13188:13196  uint pos */\n      swap3\n      sub(shl(0xa0, 0x01), 0x01)\n        /* \"LmLSMR.sol\":13199:13201  CT */\n      swap3\n      dup4\n      and\n      swap3\n        /* \"LmLSMR.sol\":13199:13215  CT.getPositionId */\n      0x39dd7530\n      swap3\n        /* \"LmLSMR.sol\":13223:13228  token */\n      and\n      swap1\n        /* \"LmLSMR.sol\":13199:13201  CT */\n      dup4\n      swap1\n        /* \"LmLSMR.sol\":13231:13249  CT.getCollectionId */\n      0x856296f7\n      swap1\n        /* \"#utility.yul\":15869:15887   */\n      0x64\n      add\n        /* \"LmLSMR.sol\":13231:13287  CT.getCollectionId(bytes32(0), condition, 1 << _outcome) */\n      0x20\n      mload(0x40)\n      dup1\n      dup4\n      sub\n      dup2\n      dup7\n      gas\n      staticcall\n      iszero\n      dup1\n      iszero\n      tag_478\n      jumpi\n      returndatasize\n      0x00\n      dup1\n      returndatacopy\n      revert(0x00, returndatasize)\n    tag_478:\n      pop\n      pop\n      pop\n      pop\n      mload(0x40)\n      returndatasize\n      not(0x1f)\n      0x1f\n      dup3\n      add\n      and\n      dup3\n      add\n      dup1\n      0x40\n      mstore\n      pop\n      dup2\n      add\n      swap1\n      tag_479\n      swap2\n      swap1\n      tag_223\n      jump\t// in\n    tag_479:\n        /* \"LmLSMR.sol\":13199:13288  CT.getPositionId(IERC20(token), CT.getCollectionId(bytes32(0), condition, 1 << _outcome)) */\n      mload(0x40)\n      not(sub(shl(0xe0, 0x01), 0x01))\n      0xe0\n      dup6\n      swap1\n      shl\n      and\n      dup2\n      mstore\n      sub(shl(0xa0, 0x01), 0x01)\n        /* \"#utility.yul\":16225:16280   */\n      swap1\n      swap3\n      and\n        /* \"LmLSMR.sol\":13199:13288  CT.getPositionId(IERC20(token), CT.getCollectionId(bytes32(0), condition, 1 << _outcome)) */\n      0x04\n      dup4\n      add\n        /* \"#utility.yul\":16207:16281   */\n      mstore\n        /* \"#utility.yul\":16297:16315   */\n      0x24\n      dup3\n      add\n        /* \"#utility.yul\":16290:16324   */\n      mstore\n        /* \"#utility.yul\":16180:16198   */\n      0x44\n      add\n        /* \"LmLSMR.sol\":13199:13288  CT.getPositionId(IERC20(token), CT.getCollectionId(bytes32(0), condition, 1 << _outcome)) */\n      0x20\n      mload(0x40)\n      dup1\n      dup4\n      sub\n      dup2\n      dup7\n      gas\n      staticcall\n      iszero\n      dup1\n      iszero\n      tag_483\n      jumpi\n      returndatasize\n      0x00\n      dup1\n      returndatacopy\n      revert(0x00, returndatasize)\n    tag_483:\n      pop\n      pop\n      pop\n      pop\n      mload(0x40)\n      returndatasize\n      not(0x1f)\n      0x1f\n      dup3\n      add\n      and\n      dup3\n      add\n      dup1\n      0x40\n      mstore\n      pop\n      dup2\n      add\n      swap1\n      tag_484\n      swap2\n      swap1\n      tag_223\n      jump\t// in\n    tag_484:\n        /* \"LmLSMR.sol\":13337:13339  CT */\n      sload(0x07)\n        /* \"LmLSMR.sol\":13337:13410  CT.safeTransferFrom(msg.sender, address(this), pos, n_outcome_tokens, \"\") */\n      mload(0x40)\n      shl(0xe1, 0x79212195)\n      dup2\n      mstore\n        /* \"LmLSMR.sol\":13357:13367  msg.sender */\n      caller\n        /* \"LmLSMR.sol\":13337:13410  CT.safeTransferFrom(msg.sender, address(this), pos, n_outcome_tokens, \"\") */\n      0x04\n      dup3\n      add\n        /* \"#utility.yul\":16691:16725   */\n      mstore\n        /* \"LmLSMR.sol\":13377:13381  this */\n      address\n        /* \"#utility.yul\":16741:16759   */\n      0x24\n      dup3\n      add\n        /* \"#utility.yul\":16734:16777   */\n      mstore\n        /* \"#utility.yul\":16793:16811   */\n      0x44\n      dup2\n      add\n        /* \"#utility.yul\":16786:16820   */\n      dup4\n      swap1\n      mstore\n        /* \"#utility.yul\":16836:16854   */\n      0x64\n      dup2\n      add\n        /* \"#utility.yul\":16829:16863   */\n      dup6\n      swap1\n      mstore\n        /* \"#utility.yul\":16900:16903   */\n      0xa0\n        /* \"#utility.yul\":16879:16898   */\n      0x84\n      dup3\n      add\n        /* \"#utility.yul\":16872:16904   */\n      mstore\n      0x00\n        /* \"#utility.yul\":16920:16939   */\n      0xa4\n      dup3\n      add\n        /* \"#utility.yul\":16913:16943   */\n      mstore\n        /* \"LmLSMR.sol\":13188:13288  uint pos = CT.getPositionId(IERC20(token), CT.getCollectionId(bytes32(0), condition, 1 << _outcome)) */\n      swap2\n      swap3\n      pop\n      sub(shl(0xa0, 0x01), 0x01)\n        /* \"LmLSMR.sol\":13337:13339  CT */\n      and\n      swap1\n        /* \"LmLSMR.sol\":13337:13356  CT.safeTransferFrom */\n      0xf242432a\n      swap1\n        /* \"#utility.yul\":16960:16979   */\n      0xc4\n      add\n        /* \"LmLSMR.sol\":13337:13410  CT.safeTransferFrom(msg.sender, address(this), pos, n_outcome_tokens, \"\") */\n      0x00\n      mload(0x40)\n      dup1\n      dup4\n      sub\n      dup2\n      0x00\n      dup8\n      dup1\n      extcodesize\n      iszero\n      dup1\n      iszero\n      tag_487\n      jumpi\n      0x00\n      dup1\n      revert\n    tag_487:\n      pop\n      gas\n      call\n      iszero\n      dup1\n      iszero\n      tag_489\n      jumpi\n      returndatasize\n      0x00\n      dup1\n      returndatacopy\n      revert(0x00, returndatasize)\n    tag_489:\n      pop\n      pop\n        /* \"LmLSMR.sol\":13449:13461  current_cost */\n      0x04\n        /* \"LmLSMR.sol\":13449:13472  current_cost = new_cost */\n      dup1\n      sload\n      not(sub(shl(0x80, 0x01), 0x01))\n      and\n      sub(shl(0x80, 0x01), 0x01)\n      dup8\n      and\n      or\n      swap1\n      sstore\n      pop\n      pop\n        /* \"LmLSMR.sol\":13541:13546  token */\n      sload(0x08)\n      0x00\n      swap1\n        /* \"LmLSMR.sol\":13525:13555  getTokenWeiDown(token, refund) */\n      tag_490\n      swap1\n      sub(shl(0xa0, 0x01), 0x01)\n        /* \"LmLSMR.sol\":13541:13546  token */\n      and\n        /* \"LmLSMR.sol\":13548:13554  refund */\n      dup8\n        /* \"LmLSMR.sol\":13525:13540  getTokenWeiDown */\n      tag_115\n        /* \"LmLSMR.sol\":13525:13555  getTokenWeiDown(token, refund) */\n      jump\t// in\n    tag_490:\n        /* \"LmLSMR.sol\":13568:13573  token */\n      sload(0x08)\n        /* \"LmLSMR.sol\":13505:13555  uint token_refund = getTokenWeiDown(token, refund) */\n      swap1\n      swap2\n      pop\n        /* \"LmLSMR.sol\":13561:13613  IERC20(token).safeTransfer(msg.sender, token_refund) */\n      tag_491\n      swap1\n      sub(shl(0xa0, 0x01), 0x01)\n        /* \"LmLSMR.sol\":13568:13573  token */\n      and\n        /* \"LmLSMR.sol\":13588:13598  msg.sender */\n      caller\n        /* \"LmLSMR.sol\":13505:13555  uint token_refund = getTokenWeiDown(token, refund) */\n      dup4\n        /* \"LmLSMR.sol\":13561:13587  IERC20(token).safeTransfer */\n      tag_246\n        /* \"LmLSMR.sol\":13561:13613  IERC20(token).safeTransfer(msg.sender, token_refund) */\n      jump\t// in\n    tag_491:\n        /* \"LmLSMR.sol\":13620:13633  return refund */\n      pop\n      pop\n      pop\n      pop\n      pop\n        /* \"LmLSMR.sol\":11976:13636  function sell(uint256 _outcome, int128 _amount) public onlyAfterInit returns (int128 refund) {... */\n      swap3\n      swap2\n      pop\n      pop\n      jump\t// out\n        /* \"LmLSMR.sol\":13725:13927  function getOutcomeSharesPurchased(uint256 _outcome) public view returns (int128) {... */\n    tag_131:\n        /* \"LmLSMR.sol\":13799:13805  int128 */\n      0x00\n        /* \"LmLSMR.sol\":13832:13843  numOutcomes */\n      sload(0x01)\n        /* \"LmLSMR.sol\":13821:13829  _outcome */\n      dup3\n        /* \"LmLSMR.sol\":13821:13843  _outcome < numOutcomes */\n      lt\n        /* \"LmLSMR.sol\":13813:13869  require(_outcome < numOutcomes, \"Invalid outcome index\") */\n      tag_493\n      jumpi\n      mload(0x40)\n      shl(0xe5, 0x461bcd)\n      dup2\n      mstore\n        /* \"#utility.yul\":11832:11834   */\n      0x20\n        /* \"LmLSMR.sol\":13813:13869  require(_outcome < numOutcomes, \"Invalid outcome index\") */\n      0x04\n      dup3\n      add\n        /* \"#utility.yul\":11814:11835   */\n      mstore\n        /* \"#utility.yul\":11871:11873   */\n      0x15\n        /* \"#utility.yul\":11851:11869   */\n      0x24\n      dup3\n      add\n        /* \"#utility.yul\":11844:11874   */\n      mstore\n      shl(0x5b, 0x092dcecc2d8d2c840deeae8c6dedaca40d2dcc8caf)\n        /* \"#utility.yul\":11890:11908   */\n      0x44\n      dup3\n      add\n        /* \"#utility.yul\":11883:11934   */\n      mstore\n        /* \"#utility.yul\":11951:11969   */\n      0x64\n      add\n        /* \"LmLSMR.sol\":13813:13869  require(_outcome < numOutcomes, \"Invalid outcome index\") */\n      tag_178\n        /* \"#utility.yul\":11630:11975   */\n      jump\n        /* \"LmLSMR.sol\":13813:13869  require(_outcome < numOutcomes, \"Invalid outcome index\") */\n    tag_493:\n        /* \"LmLSMR.sol\":13882:13924  ABDKMath.sub(q[_outcome], initial_subsidy) */\n      tag_170\n        /* \"LmLSMR.sol\":13895:13896  q */\n      0x02\n        /* \"LmLSMR.sol\":13897:13905  _outcome */\n      dup4\n        /* \"LmLSMR.sol\":13895:13906  q[_outcome] */\n      dup2\n      sload\n      dup2\n      lt\n      tag_497\n      jumpi\n      tag_497\n      tag_205\n      jump\t// in\n    tag_497:\n      0x00\n      swap2\n      dup3\n      mstore\n      0x20\n      swap1\n      swap2\n      keccak256\n      0x02\n      dup3\n      div\n      add\n      sload\n        /* \"LmLSMR.sol\":13908:13923  initial_subsidy */\n      sload(0x05)\n        /* \"LmLSMR.sol\":13895:13906  q[_outcome] */\n      0x01\n      swap1\n      swap3\n      and\n      0x10\n      mul\n      0x0100\n      exp\n      swap1\n      div\n      0x0f\n      swap1\n      dup2\n      signextend\n      swap2\n        /* \"LmLSMR.sol\":13908:13923  initial_subsidy */\n      swap1\n      signextend\n        /* \"LmLSMR.sol\":13882:13894  ABDKMath.sub */\n      tag_456\n        /* \"LmLSMR.sol\":13882:13924  ABDKMath.sub(q[_outcome], initial_subsidy) */\n      jump\t// in\n        /* \"LmLSMR.sol\":9232:9388  function price(... */\n    tag_147:\n        /* \"LmLSMR.sol\":9371:9383  current_cost */\n      sload(0x04)\n        /* \"LmLSMR.sol\":9314:9320  int128 */\n      0x00\n      swap1\n        /* \"LmLSMR.sol\":9371:9383  current_cost */\n      0x0f\n      signextend\n        /* \"LmLSMR.sol\":9335:9368  cost_after_buy(_outcome, _amount) */\n      tag_501\n        /* \"LmLSMR.sol\":9350:9358  _outcome */\n      dup5\n        /* \"LmLSMR.sol\":9360:9367  _amount */\n      dup5\n        /* \"LmLSMR.sol\":9335:9349  cost_after_buy */\n      tag_97\n        /* \"LmLSMR.sol\":9335:9368  cost_after_buy(_outcome, _amount) */\n      jump\t// in\n    tag_501:\n        /* \"LmLSMR.sol\":9335:9383  cost_after_buy(_outcome, _amount) - current_cost */\n      tag_321\n      swap2\n      swap1\n      tag_322\n      jump\t// in\n        /* \"LmLSMR.sol\":15481:15688  function debugFees() public view returns (uint contractBalance, uint theoreticalCost) {... */\n    tag_150:\n        /* \"LmLSMR.sol\":15598:15603  token */\n      sload(0x08)\n        /* \"LmLSMR.sol\":15591:15629  IERC20(token).balanceOf(address(this)) */\n      mload(0x40)\n      shl(0xe0, 0x70a08231)\n      dup2\n      mstore\n        /* \"LmLSMR.sol\":15623:15627  this */\n      address\n        /* \"LmLSMR.sol\":15591:15629  IERC20(token).balanceOf(address(this)) */\n      0x04\n      dup3\n      add\n        /* \"#utility.yul\":4304:4378   */\n      mstore\n        /* \"LmLSMR.sol\":15523:15543  uint contractBalance */\n      0x00\n      swap2\n      dup3\n      swap2\n      sub(shl(0xa0, 0x01), 0x01)\n        /* \"LmLSMR.sol\":15598:15603  token */\n      swap1\n      swap2\n      and\n      swap1\n        /* \"LmLSMR.sol\":15591:15614  IERC20(token).balanceOf */\n      0x70a08231\n      swap1\n        /* \"#utility.yul\":4277:4295   */\n      0x24\n      add\n        /* \"LmLSMR.sol\":15591:15629  IERC20(token).balanceOf(address(this)) */\n      0x20\n      mload(0x40)\n      dup1\n      dup4\n      sub\n      dup2\n      dup7\n      gas\n      staticcall\n      iszero\n      dup1\n      iszero\n      tag_506\n      jumpi\n      returndatasize\n      0x00\n      dup1\n      returndatacopy\n      revert(0x00, returndatasize)\n    tag_506:\n      pop\n      pop\n      pop\n      pop\n      mload(0x40)\n      returndatasize\n      not(0x1f)\n      0x1f\n      dup3\n      add\n      and\n      dup3\n      add\n      dup1\n      0x40\n      mstore\n      pop\n      dup2\n      add\n      swap1\n      tag_507\n      swap2\n      swap1\n      tag_223\n      jump\t// in\n    tag_507:\n        /* \"LmLSMR.sol\":15665:15670  token */\n      sload(0x08)\n        /* \"LmLSMR.sol\":15672:15684  current_cost */\n      sload(0x04)\n        /* \"LmLSMR.sol\":15573:15629  contractBalance = IERC20(token).balanceOf(address(this)) */\n      swap2\n      swap4\n      pop\n        /* \"LmLSMR.sol\":15653:15685  getTokenWei(token, current_cost) */\n      tag_508\n      swap2\n      sub(shl(0xa0, 0x01), 0x01)\n        /* \"LmLSMR.sol\":15665:15670  token */\n      swap1\n      swap2\n      and\n      swap1\n        /* \"LmLSMR.sol\":15672:15684  current_cost */\n      0x0f\n      signextend\n        /* \"LmLSMR.sol\":15653:15664  getTokenWei */\n      tag_67\n        /* \"LmLSMR.sol\":15653:15685  getTokenWei(token, current_cost) */\n      jump\t// in\n    tag_508:\n        /* \"LmLSMR.sol\":15635:15685  theoreticalCost = getTokenWei(token, current_cost) */\n      swap1\n      pop\n        /* \"LmLSMR.sol\":15481:15688  function debugFees() public view returns (uint contractBalance, uint theoreticalCost) {... */\n      swap1\n      swap2\n      jump\t// out\n        /* \"@openzeppelin/contracts/access/Ownable.sol\":2543:2758   */\n    tag_161:\n        /* \"@openzeppelin/contracts/access/Ownable.sol\":1531:1544   */\n      tag_511\n        /* \"@openzeppelin/contracts/access/Ownable.sol\":1531:1542   */\n      tag_217\n        /* \"@openzeppelin/contracts/access/Ownable.sol\":1531:1544   */\n      jump\t// in\n    tag_511:\n      sub(shl(0xa0, 0x01), 0x01)\n        /* \"@openzeppelin/contracts/access/Ownable.sol\":2627:2649   */\n      dup2\n      and\n        /* \"@openzeppelin/contracts/access/Ownable.sol\":2623:2714   */\n      tag_513\n      jumpi\n        /* \"@openzeppelin/contracts/access/Ownable.sol\":2672:2703   */\n      mload(0x40)\n      shl(0xe0, 0x1e4fbdf7)\n      dup2\n      mstore\n        /* \"@openzeppelin/contracts/access/Ownable.sol\":2700:2701   */\n      0x00\n        /* \"@openzeppelin/contracts/access/Ownable.sol\":2672:2703   */\n      0x04\n      dup3\n      add\n        /* \"#utility.yul\":4304:4378   */\n      mstore\n        /* \"#utility.yul\":4277:4295   */\n      0x24\n      add\n        /* \"@openzeppelin/contracts/access/Ownable.sol\":2672:2703   */\n      tag_178\n        /* \"#utility.yul\":4158:4384   */\n      jump\n        /* \"@openzeppelin/contracts/access/Ownable.sol\":2623:2714   */\n    tag_513:\n        /* \"@openzeppelin/contracts/access/Ownable.sol\":2723:2751   */\n      tag_241\n        /* \"@openzeppelin/contracts/access/Ownable.sol\":2742:2750   */\n      dup2\n        /* \"@openzeppelin/contracts/access/Ownable.sol\":2723:2741   */\n      tag_336\n        /* \"@openzeppelin/contracts/access/Ownable.sol\":2723:2751   */\n      jump\t// in\n        /* \"LmLSMR.sol\":5057:5951  function buy(... */\n    tag_164:\n        /* \"LmLSMR.sol\":11727:11731  init */\n      sload(0x08)\n        /* \"LmLSMR.sol\":5146:5159  int128 _price */\n      0x00\n      swap1\n      shl(0xa0, 0x01)\n        /* \"LmLSMR.sol\":11727:11731  init */\n      swap1\n      div\n      0xff\n      and\n        /* \"LmLSMR.sol\":11727:11739  init == true */\n      iszero\n      iszero\n        /* \"LmLSMR.sol\":11735:11739  true */\n      0x01\n        /* \"LmLSMR.sol\":11727:11739  init == true */\n      eq\n        /* \"LmLSMR.sol\":11719:11740  require(init == true) */\n      tag_517\n      jumpi\n      0x00\n      dup1\n      revert\n    tag_517:\n        /* \"LmLSMR.sol\":5186:5197  numOutcomes */\n      sload(0x01)\n        /* \"LmLSMR.sol\":5175:5183  _outcome */\n      dup4\n        /* \"LmLSMR.sol\":5175:5197  _outcome < numOutcomes */\n      lt\n        /* \"LmLSMR.sol\":5167:5223  require(_outcome < numOutcomes, \"Invalid outcome index\") */\n      tag_519\n      jumpi\n      mload(0x40)\n      shl(0xe5, 0x461bcd)\n      dup2\n      mstore\n        /* \"#utility.yul\":11832:11834   */\n      0x20\n        /* \"LmLSMR.sol\":5167:5223  require(_outcome < numOutcomes, \"Invalid outcome index\") */\n      0x04\n      dup3\n      add\n        /* \"#utility.yul\":11814:11835   */\n      mstore\n        /* \"#utility.yul\":11871:11873   */\n      0x15\n        /* \"#utility.yul\":11851:11869   */\n      0x24\n      dup3\n      add\n        /* \"#utility.yul\":11844:11874   */\n      mstore\n      shl(0x5b, 0x092dcecc2d8d2c840deeae8c6dedaca40d2dcc8caf)\n        /* \"#utility.yul\":11890:11908   */\n      0x44\n      dup3\n      add\n        /* \"#utility.yul\":11883:11934   */\n      mstore\n        /* \"#utility.yul\":11951:11969   */\n      0x64\n      add\n        /* \"LmLSMR.sol\":5167:5223  require(_outcome < numOutcomes, \"Invalid outcome index\") */\n      tag_178\n        /* \"#utility.yul\":11630:11975   */\n      jump\n        /* \"LmLSMR.sol\":5167:5223  require(_outcome < numOutcomes, \"Invalid outcome index\") */\n    tag_519:\n        /* \"LmLSMR.sol\":5247:5248  0 */\n      0x00\n        /* \"LmLSMR.sol\":5237:5244  _amount */\n      dup3\n        /* \"LmLSMR.sol\":5237:5248  _amount > 0 */\n      0x0f\n      signextend\n      sgt\n        /* \"LmLSMR.sol\":5229:5276  require(_amount > 0, \"Amount must be positive\") */\n      tag_521\n      jumpi\n      mload(0x40)\n      shl(0xe5, 0x461bcd)\n      dup2\n      mstore\n        /* \"#utility.yul\":14838:14840   */\n      0x20\n        /* \"LmLSMR.sol\":5229:5276  require(_amount > 0, \"Amount must be positive\") */\n      0x04\n      dup3\n      add\n        /* \"#utility.yul\":14820:14841   */\n      mstore\n        /* \"#utility.yul\":14877:14879   */\n      0x17\n        /* \"#utility.yul\":14857:14875   */\n      0x24\n      dup3\n      add\n        /* \"#utility.yul\":14850:14880   */\n      mstore\n        /* \"#utility.yul\":14916:14941   */\n      0x416d6f756e74206d75737420626520706f736974697665000000000000000000\n        /* \"#utility.yul\":14896:14914   */\n      0x44\n      dup3\n      add\n        /* \"#utility.yul\":14889:14942   */\n      mstore\n        /* \"#utility.yul\":14959:14977   */\n      0x64\n      add\n        /* \"LmLSMR.sol\":5229:5276  require(_amount > 0, \"Amount must be positive\") */\n      tag_178\n        /* \"#utility.yul\":14636:14983   */\n      jump\n        /* \"LmLSMR.sol\":5229:5276  require(_amount > 0, \"Amount must be positive\") */\n    tag_521:\n        /* \"LmLSMR.sol\":5290:5292  CT */\n      sload(0x07)\n        /* \"LmLSMR.sol\":5311:5320  condition */\n      sload(0x06)\n        /* \"LmLSMR.sol\":5290:5321  CT.payoutDenominator(condition) */\n      mload(0x40)\n      shl(0xe0, 0xdd34de67)\n      dup2\n      mstore\n      sub(shl(0xa0, 0x01), 0x01)\n        /* \"LmLSMR.sol\":5290:5292  CT */\n      swap1\n      swap3\n      and\n      swap2\n        /* \"LmLSMR.sol\":5290:5310  CT.payoutDenominator */\n      0xdd34de67\n      swap2\n        /* \"LmLSMR.sol\":5290:5321  CT.payoutDenominator(condition) */\n      tag_523\n      swap2\n      0x04\n      add\n        /* \"#utility.yul\":1274:1299   */\n      swap1\n      dup2\n      mstore\n        /* \"#utility.yul\":1262:1264   */\n      0x20\n        /* \"#utility.yul\":1247:1265   */\n      add\n      swap1\n        /* \"#utility.yul\":1128:1305   */\n      jump\n        /* \"LmLSMR.sol\":5290:5321  CT.payoutDenominator(condition) */\n    tag_523:\n      0x20\n      mload(0x40)\n      dup1\n      dup4\n      sub\n      dup2\n      dup7\n      gas\n      staticcall\n      iszero\n      dup1\n      iszero\n      tag_525\n      jumpi\n      returndatasize\n      0x00\n      dup1\n      returndatacopy\n      revert(0x00, returndatasize)\n    tag_525:\n      pop\n      pop\n      pop\n      pop\n      mload(0x40)\n      returndatasize\n      not(0x1f)\n      0x1f\n      dup3\n      add\n      and\n      dup3\n      add\n      dup1\n      0x40\n      mstore\n      pop\n      dup2\n      add\n      swap1\n      tag_526\n      swap2\n      swap1\n      tag_223\n      jump\t// in\n    tag_526:\n        /* \"LmLSMR.sol\":5290:5326  CT.payoutDenominator(condition) == 0 */\n      iszero\n        /* \"LmLSMR.sol\":5282:5354  require(CT.payoutDenominator(condition) == 0, 'Market already resolved') */\n      tag_527\n      jumpi\n      mload(0x40)\n      shl(0xe5, 0x461bcd)\n      dup2\n      mstore\n        /* \"#utility.yul\":15190:15192   */\n      0x20\n        /* \"LmLSMR.sol\":5282:5354  require(CT.payoutDenominator(condition) == 0, 'Market already resolved') */\n      0x04\n      dup3\n      add\n        /* \"#utility.yul\":15172:15193   */\n      mstore\n        /* \"#utility.yul\":15229:15231   */\n      0x17\n        /* \"#utility.yul\":15209:15227   */\n      0x24\n      dup3\n      add\n        /* \"#utility.yul\":15202:15232   */\n      mstore\n        /* \"#utility.yul\":15268:15293   */\n      0x4d61726b657420616c7265616479207265736f6c766564000000000000000000\n        /* \"#utility.yul\":15248:15266   */\n      0x44\n      dup3\n      add\n        /* \"#utility.yul\":15241:15294   */\n      mstore\n        /* \"#utility.yul\":15311:15329   */\n      0x64\n      add\n        /* \"LmLSMR.sol\":5282:5354  require(CT.payoutDenominator(condition) == 0, 'Market already resolved') */\n      tag_178\n        /* \"#utility.yul\":14988:15335   */\n      jump\n        /* \"LmLSMR.sol\":5282:5354  require(CT.payoutDenominator(condition) == 0, 'Market already resolved') */\n    tag_527:\n        /* \"LmLSMR.sol\":5363:5378  int128 new_cost */\n      0x00\n        /* \"LmLSMR.sol\":5380:5393  int128 price_ */\n      dup1\n        /* \"LmLSMR.sol\":5395:5418  int128 new_total_shares */\n      0x00\n        /* \"LmLSMR.sol\":5420:5432  int128 new_b */\n      dup1\n        /* \"LmLSMR.sol\":5436:5524  _calculateBuyPrice(q, _outcome, _amount, total_shares, alpha, current_cost, numOutcomes) */\n      tag_529\n        /* \"LmLSMR.sol\":5455:5456  q */\n      0x02\n        /* \"LmLSMR.sol\":5436:5524  _calculateBuyPrice(q, _outcome, _amount, total_shares, alpha, current_cost, numOutcomes) */\n      dup1\n      sload\n      dup1\n      0x20\n      mul\n      0x20\n      add\n      mload(0x40)\n      swap1\n      dup2\n      add\n      0x40\n      mstore\n      dup1\n      swap3\n      swap2\n      swap1\n      dup2\n      dup2\n      mstore\n      0x20\n      add\n      dup3\n      dup1\n      sload\n      dup1\n      iszero\n      tag_530\n      jumpi\n      0x20\n      mul\n      dup3\n      add\n      swap2\n      swap1\n      0x00\n      mstore\n      keccak256(0x00, 0x20)\n      swap1\n      0x00\n      swap1\n    tag_531:\n      dup3\n      sload\n      0x0100\n      dup4\n      swap1\n      exp\n      swap1\n      div\n      0x0f\n      signextend\n      dup2\n      mstore\n      0x20\n      0x1f\n      dup4\n      add\n      dup2\n      swap1\n      div\n      swap4\n      dup5\n      add\n      swap4\n      0x01\n      sub\n      0x10\n      swap1\n      swap4\n      add\n      swap3\n      swap1\n      swap3\n      mul\n      swap2\n      add\n      dup1\n      dup5\n      gt\n      tag_531\n      jumpi\n      swap1\n      pop\n    tag_530:\n      pop\n      pop\n        /* \"LmLSMR.sol\":5477:5489  total_shares */\n      sload(0x04)\n        /* \"LmLSMR.sol\":5491:5496  alpha */\n      sload(0x03)\n        /* \"LmLSMR.sol\":5498:5510  current_cost */\n      0x01\n        /* \"LmLSMR.sol\":5512:5523  numOutcomes */\n      sload\n        /* \"LmLSMR.sol\":5458:5466  _outcome */\n      dup15\n      swap6\n      pop\n        /* \"LmLSMR.sol\":5468:5475  _amount */\n      dup14\n      swap5\n      pop\n      shl(0x80, 0x01)\n        /* \"LmLSMR.sol\":5477:5489  total_shares */\n      dup1\n      dup5\n      div\n      0x0f\n      swap1\n      dup2\n      signextend\n      swap6\n      pop\n        /* \"LmLSMR.sol\":5491:5496  alpha */\n      swap3\n      div\n      dup3\n      signextend\n      swap3\n        /* \"LmLSMR.sol\":5498:5510  current_cost */\n      swap1\n      swap2\n      signextend\n      swap1\n        /* \"LmLSMR.sol\":5436:5454  _calculateBuyPrice */\n      tag_532\n        /* \"LmLSMR.sol\":5436:5524  _calculateBuyPrice(q, _outcome, _amount, total_shares, alpha, current_cost, numOutcomes) */\n      jump\t// in\n    tag_529:\n        /* \"LmLSMR.sol\":5563:5568  token */\n      sload(0x08)\n        /* \"LmLSMR.sol\":5362:5524  (int128 new_cost, int128 price_, int128 new_total_shares, int128 new_b) = _calculateBuyPrice(q, _outcome, _amount, total_shares, alpha, current_cost, numOutcomes) */\n      swap4\n      swap8\n      pop\n      swap2\n      swap6\n      pop\n      swap4\n      pop\n      swap2\n      pop\n        /* \"LmLSMR.sol\":5531:5546  uint token_cost */\n      0x00\n      swap1\n        /* \"LmLSMR.sol\":5549:5577  getTokenWeiUp(token, price_) */\n      tag_533\n      swap1\n      sub(shl(0xa0, 0x01), 0x01)\n        /* \"LmLSMR.sol\":5563:5568  token */\n      and\n        /* \"LmLSMR.sol\":5362:5524  (int128 new_cost, int128 price_, int128 new_total_shares, int128 new_b) = _calculateBuyPrice(q, _outcome, _amount, total_shares, alpha, current_cost, numOutcomes) */\n      dup6\n        /* \"LmLSMR.sol\":5549:5562  getTokenWeiUp */\n      tag_51\n        /* \"LmLSMR.sol\":5549:5577  getTokenWeiUp(token, price_) */\n      jump\t// in\n    tag_533:\n        /* \"LmLSMR.sol\":5598:5603  token */\n      sload(0x08)\n        /* \"LmLSMR.sol\":5591:5656  IERC20(token).transferFrom(msg.sender, address(this), token_cost) */\n      mload(0x40)\n      shl(0xe0, 0x23b872dd)\n      dup2\n      mstore\n        /* \"LmLSMR.sol\":5618:5628  msg.sender */\n      caller\n        /* \"LmLSMR.sol\":5591:5656  IERC20(token).transferFrom(msg.sender, address(this), token_cost) */\n      0x04\n      dup3\n      add\n        /* \"#utility.yul\":17253:17287   */\n      mstore\n        /* \"LmLSMR.sol\":5638:5642  this */\n      address\n        /* \"#utility.yul\":17303:17321   */\n      0x24\n      dup3\n      add\n        /* \"#utility.yul\":17296:17339   */\n      mstore\n        /* \"#utility.yul\":17355:17373   */\n      0x44\n      dup2\n      add\n        /* \"#utility.yul\":17348:17382   */\n      dup4\n      swap1\n      mstore\n        /* \"LmLSMR.sol\":5531:5577  uint token_cost = getTokenWeiUp(token, price_) */\n      swap2\n      swap3\n      pop\n      sub(shl(0xa0, 0x01), 0x01)\n        /* \"LmLSMR.sol\":5598:5603  token */\n      and\n      swap1\n        /* \"LmLSMR.sol\":5591:5617  IERC20(token).transferFrom */\n      0x23b872dd\n      swap1\n        /* \"#utility.yul\":17165:17183   */\n      0x64\n      add\n        /* \"LmLSMR.sol\":5591:5656  IERC20(token).transferFrom(msg.sender, address(this), token_cost) */\n      0x20\n      mload(0x40)\n      dup1\n      dup4\n      sub\n      dup2\n      0x00\n      dup8\n      gas\n      call\n      iszero\n      dup1\n      iszero\n      tag_537\n      jumpi\n      returndatasize\n      0x00\n      dup1\n      returndatacopy\n      revert(0x00, returndatasize)\n    tag_537:\n      pop\n      pop\n      pop\n      pop\n      mload(0x40)\n      returndatasize\n      not(0x1f)\n      0x1f\n      dup3\n      add\n      and\n      dup3\n      add\n      dup1\n      0x40\n      mstore\n      pop\n      dup2\n      add\n      swap1\n      tag_538\n      swap2\n      swap1\n      tag_539\n      jump\t// in\n    tag_538:\n        /* \"LmLSMR.sol\":5583:5686  require(IERC20(token).transferFrom(msg.sender, address(this), token_cost), 'Error transferring tokens') */\n      tag_540\n      jumpi\n      mload(0x40)\n      shl(0xe5, 0x461bcd)\n      dup2\n      mstore\n        /* \"#utility.yul\":17877:17879   */\n      0x20\n        /* \"LmLSMR.sol\":5583:5686  require(IERC20(token).transferFrom(msg.sender, address(this), token_cost), 'Error transferring tokens') */\n      0x04\n      dup3\n      add\n        /* \"#utility.yul\":17859:17880   */\n      mstore\n        /* \"#utility.yul\":17916:17918   */\n      0x19\n        /* \"#utility.yul\":17896:17914   */\n      0x24\n      dup3\n      add\n        /* \"#utility.yul\":17889:17919   */\n      mstore\n        /* \"#utility.yul\":17955:17982   */\n      0x4572726f72207472616e7366657272696e6720746f6b656e7300000000000000\n        /* \"#utility.yul\":17935:17953   */\n      0x44\n      dup3\n      add\n        /* \"#utility.yul\":17928:17983   */\n      mstore\n        /* \"#utility.yul\":18000:18018   */\n      0x64\n      add\n        /* \"LmLSMR.sol\":5583:5686  require(IERC20(token).transferFrom(msg.sender, address(this), token_cost), 'Error transferring tokens') */\n      tag_178\n        /* \"#utility.yul\":17675:18024   */\n      jump\n        /* \"LmLSMR.sol\":5583:5686  require(IERC20(token).transferFrom(msg.sender, address(this), token_cost), 'Error transferring tokens') */\n    tag_540:\n        /* \"LmLSMR.sol\":5756:5790  ABDKMath.add(q[_outcome], _amount) */\n      tag_543\n        /* \"LmLSMR.sol\":5769:5770  q */\n      0x02\n        /* \"LmLSMR.sol\":5771:5779  _outcome */\n      dup10\n        /* \"LmLSMR.sol\":5769:5780  q[_outcome] */\n      dup2\n      sload\n      dup2\n      lt\n      tag_545\n      jumpi\n      tag_545\n      tag_205\n      jump\t// in\n    tag_545:\n      swap1\n      0x00\n      mstore\n      keccak256(0x00, 0x20)\n      swap1\n      0x02\n      swap2\n      dup3\n      dup3\n      div\n      add\n      swap2\n      swap1\n      mod\n      0x10\n      mul\n      swap1\n      sload\n      swap1\n      0x0100\n      exp\n      swap1\n      div\n      0x0f\n      signextend\n        /* \"LmLSMR.sol\":5782:5789  _amount */\n      dup9\n        /* \"LmLSMR.sol\":5756:5768  ABDKMath.add */\n      tag_209\n        /* \"LmLSMR.sol\":5756:5790  ABDKMath.add(q[_outcome], _amount) */\n      jump\t// in\n    tag_543:\n        /* \"LmLSMR.sol\":5742:5743  q */\n      0x02\n        /* \"LmLSMR.sol\":5744:5752  _outcome */\n      dup10\n        /* \"LmLSMR.sol\":5742:5753  q[_outcome] */\n      dup2\n      sload\n      dup2\n      lt\n      tag_548\n      jumpi\n      tag_548\n      tag_205\n      jump\t// in\n    tag_548:\n      0x00\n      swap2\n      dup3\n      mstore\n      0x20\n      swap1\n      swap2\n      keccak256\n      0x02\n      dup3\n      div\n      add\n        /* \"LmLSMR.sol\":5742:5790  q[_outcome] = ABDKMath.add(q[_outcome], _amount) */\n      dup1\n      sload\n        /* \"LmLSMR.sol\":5742:5753  q[_outcome] */\n      0x01\n      swap1\n      swap3\n      and\n      0x10\n      mul\n        /* \"LmLSMR.sol\":5742:5790  q[_outcome] = ABDKMath.add(q[_outcome], _amount) */\n      0x0100\n      exp\n      sub(shl(0x80, 0x01), 0x01)\n      dup2\n      dup2\n      mul\n      not\n      swap1\n      swap4\n      and\n      swap4\n      dup4\n      and\n      mul\n      swap3\n      swap1\n      swap3\n      or\n      swap1\n      swap2\n      sstore\n        /* \"LmLSMR.sol\":5833:5834  b */\n      0x03\n        /* \"LmLSMR.sol\":5833:5842  b = new_b */\n      dup1\n      sload\n      not(sub(shl(0x80, 0x01), 0x01))\n      swap1\n      dup2\n      and\n      dup6\n      dup5\n      and\n      or\n      swap1\n      swap2\n      sstore\n      shl(0x80, 0x01)\n        /* \"LmLSMR.sol\":5796:5827  total_shares = new_total_shares */\n      dup6\n      dup4\n      and\n      mul\n        /* \"LmLSMR.sol\":5848:5871  current_cost = new_cost */\n      and\n      swap1\n      dup7\n      and\n      or\n        /* \"LmLSMR.sol\":5796:5808  total_shares */\n      0x04\n        /* \"LmLSMR.sol\":5848:5871  current_cost = new_cost */\n      sstore\n        /* \"LmLSMR.sol\":5878:5926  _mintAndTransferOutcomeTokens(_outcome, _amount) */\n      tag_550\n        /* \"LmLSMR.sol\":5908:5916  _outcome */\n      dup9\n        /* \"LmLSMR.sol\":5918:5925  _amount */\n      dup9\n        /* \"LmLSMR.sol\":5878:5907  _mintAndTransferOutcomeTokens */\n      tag_551\n        /* \"LmLSMR.sol\":5878:5926  _mintAndTransferOutcomeTokens(_outcome, _amount) */\n      jump\t// in\n    tag_550:\n      pop\n        /* \"LmLSMR.sol\":5940:5946  price_ */\n      swap2\n      swap7\n        /* \"LmLSMR.sol\":5057:5951  function buy(... */\n      swap6\n      pop\n      pop\n      pop\n      pop\n      pop\n      pop\n      jump\t// out\n        /* \"ABDKMath64x64.sol\":6262:6775  function mulu (int128 x, uint256 y) internal pure returns (uint256) {... */\n    tag_181:\n        /* \"ABDKMath64x64.sol\":6321:6328  uint256 */\n      0x00\n        /* \"ABDKMath64x64.sol\":6358:6359  y */\n      dup2\n        /* \"ABDKMath64x64.sol\":6363:6364  0 */\n      0x00\n        /* \"ABDKMath64x64.sol\":6358:6364  y == 0 */\n      sub\n        /* \"ABDKMath64x64.sol\":6354:6374  if (y == 0) return 0 */\n      tag_553\n      jumpi\n      pop\n        /* \"ABDKMath64x64.sol\":6373:6374  0 */\n      0x00\n        /* \"ABDKMath64x64.sol\":6366:6374  return 0 */\n      jump(tag_170)\n        /* \"ABDKMath64x64.sol\":6354:6374  if (y == 0) return 0 */\n    tag_553:\n        /* \"ABDKMath64x64.sol\":6397:6398  0 */\n      0x00\n        /* \"ABDKMath64x64.sol\":6392:6393  x */\n      dup4\n        /* \"ABDKMath64x64.sol\":6392:6398  x >= 0 */\n      0x0f\n      signextend\n      slt\n      iszero\n        /* \"ABDKMath64x64.sol\":6383:6399  require (x >= 0) */\n      tag_554\n      jumpi\n      0x00\n      dup1\n      revert\n    tag_554:\n        /* \"ABDKMath64x64.sol\":6431:6441  int256 (x) */\n      0x0f\n      dup4\n      swap1\n      signextend\n      sub(shl(0x80, 0x01), 0x01)\n        /* \"ABDKMath64x64.sol\":6446:6484  y & 0xFFFFFFFFFFFFFFFFFFFFFFFFFFFFFFFF */\n      dup4\n      and\n        /* \"ABDKMath64x64.sol\":6422:6485  uint256 (int256 (x)) * (y & 0xFFFFFFFFFFFFFFFFFFFFFFFFFFFFFFFF) */\n      dup2\n      mul\n        /* \"ABDKMath64x64.sol\":6490:6492  64 */\n      0x40\n        /* \"ABDKMath64x64.sol\":6421:6492  (uint256 (int256 (x)) * (y & 0xFFFFFFFFFFFFFFFFFFFFFFFFFFFFFFFF)) >> 64 */\n      shr\n      swap1\n        /* \"ABDKMath64x64.sol\":6542:6545  128 */\n      0x80\n        /* \"ABDKMath64x64.sol\":6537:6545  y >> 128 */\n      dup5\n      swap1\n      shr\n        /* \"ABDKMath64x64.sol\":6513:6546  uint256 (int256 (x)) * (y >> 128) */\n      mul\n        /* \"ABDKMath64x64.sol\":6570:6620  0xFFFFFFFFFFFFFFFFFFFFFFFFFFFFFFFFFFFFFFFFFFFFFFFF */\n      0xffffffffffffffffffffffffffffffffffffffffffffffff\n        /* \"ABDKMath64x64.sol\":6564:6620  hi <= 0xFFFFFFFFFFFFFFFFFFFFFFFFFFFFFFFFFFFFFFFFFFFFFFFF */\n      dup2\n      gt\n      iszero\n        /* \"ABDKMath64x64.sol\":6555:6621  require (hi <= 0xFFFFFFFFFFFFFFFFFFFFFFFFFFFFFFFFFFFFFFFFFFFFFFFF) */\n      tag_555\n      jumpi\n      0x00\n      dup1\n      revert\n    tag_555:\n        /* \"ABDKMath64x64.sol\":6636:6638  64 */\n      0x40\n        /* \"ABDKMath64x64.sol\":6629:6638  hi <<= 64 */\n      shl\n        /* \"ABDKMath64x64.sol\":6670:6741  0xFFFFFFFFFFFFFFFFFFFFFFFFFFFFFFFFFFFFFFFFFFFFFFFFFFFFFFFFFFFFFFFF - lo */\n      dup2\n      not\n        /* \"ABDKMath64x64.sol\":6656:6741  hi <=... */\n      dup2\n      gt\n      iszero\n        /* \"ABDKMath64x64.sol\":6647:6742  require (hi <=... */\n      tag_556\n      jumpi\n      0x00\n      dup1\n      revert\n    tag_556:\n        /* \"ABDKMath64x64.sol\":6757:6764  hi + lo */\n      add\n      swap4\n        /* \"ABDKMath64x64.sol\":6262:6775  function mulu (int128 x, uint256 y) internal pure returns (uint256) {... */\n      swap3\n      pop\n      pop\n      pop\n      jump\t// out\n        /* \"ABDKMath64x64.sol\":4390:4615  function mul (int128 x, int128 y) internal pure returns (int128) {... */\n    tag_183:\n        /* \"ABDKMath64x64.sol\":4447:4453  int128 */\n      0x00\n        /* \"ABDKMath64x64.sol\":4495:4508  int256(x) * y */\n      0x0f\n        /* \"ABDKMath64x64.sol\":4495:4504  int256(x) */\n      dup4\n      dup2\n      signextend\n        /* \"ABDKMath64x64.sol\":4495:4508  int256(x) * y */\n      swap1\n      dup4\n      swap1\n      signextend\n      mul\n        /* \"ABDKMath64x64.sol\":4512:4514  64 */\n      0x40\n        /* \"ABDKMath64x64.sol\":4495:4514  int256(x) * y >> 64 */\n      sar\n      not(0x7fffffffffffffffffffffffffffffff)\n        /* \"ABDKMath64x64.sol\":4531:4550  result >= MIN_64x64 */\n      dup2\n      slt\n      dup1\n      iszero\n      swap1\n        /* \"ABDKMath64x64.sol\":4531:4573  result >= MIN_64x64 && result <= MAX_64x64 */\n      tag_558\n      jumpi\n      pop\n      sub(shl(0x7f, 0x01), 0x01)\n        /* \"ABDKMath64x64.sol\":4554:4573  result <= MAX_64x64 */\n      dup2\n      sgt\n      iszero\n        /* \"ABDKMath64x64.sol\":4531:4573  result >= MIN_64x64 && result <= MAX_64x64 */\n    tag_558:\n        /* \"ABDKMath64x64.sol\":4522:4574  require (result >= MIN_64x64 && result <= MAX_64x64) */\n      tag_321\n      jumpi\n      0x00\n      dup1\n      revert\n        /* \"ABDKMath64x64.sol\":8684:8917  function divu (uint256 x, uint256 y) internal pure returns (int128) {... */\n    tag_193:\n        /* \"ABDKMath64x64.sol\":8744:8750  int128 */\n      0x00\n        /* \"ABDKMath64x64.sol\":8785:8786  y */\n      dup2\n        /* \"ABDKMath64x64.sol\":8790:8791  0 */\n      0x00\n        /* \"ABDKMath64x64.sol\":8785:8791  y != 0 */\n      sub\n        /* \"ABDKMath64x64.sol\":8776:8792  require (y != 0) */\n      tag_561\n      jumpi\n      0x00\n      dup1\n      revert\n    tag_561:\n        /* \"ABDKMath64x64.sol\":8800:8814  uint128 result */\n      0x00\n        /* \"ABDKMath64x64.sol\":8817:8829  divuu (x, y) */\n      tag_562\n        /* \"ABDKMath64x64.sol\":8824:8825  x */\n      dup5\n        /* \"ABDKMath64x64.sol\":8827:8828  y */\n      dup5\n        /* \"ABDKMath64x64.sol\":8817:8822  divuu */\n      tag_563\n        /* \"ABDKMath64x64.sol\":8817:8829  divuu (x, y) */\n      jump\t// in\n    tag_562:\n        /* \"ABDKMath64x64.sol\":8800:8829  uint128 result = divuu (x, y) */\n      swap1\n      pop\n      sub(shl(0x7f, 0x01), 0x01)\n      sub(shl(0x80, 0x01), 0x01)\n        /* \"ABDKMath64x64.sol\":8846:8875  result <= uint128 (MAX_64x64) */\n      dup3\n      and\n      gt\n      iszero\n        /* \"ABDKMath64x64.sol\":8837:8876  require (result <= uint128 (MAX_64x64)) */\n      tag_321\n      jumpi\n      0x00\n      dup1\n      revert\n        /* \"ABDKMath64x64.sol\":7033:7285  function div (int128 x, int128 y) internal pure returns (int128) {... */\n    tag_207:\n        /* \"ABDKMath64x64.sol\":7090:7096  int128 */\n      0x00\n        /* \"ABDKMath64x64.sol\":7131:7132  y */\n      dup2\n        /* \"ABDKMath64x64.sol\":7131:7137  y != 0 */\n      0x0f\n      signextend\n        /* \"ABDKMath64x64.sol\":7136:7137  0 */\n      0x00\n        /* \"ABDKMath64x64.sol\":7131:7137  y != 0 */\n      sub\n        /* \"ABDKMath64x64.sol\":7122:7138  require (y != 0) */\n      tag_566\n      jumpi\n      0x00\n      dup1\n      revert\n    tag_566:\n        /* \"ABDKMath64x64.sol\":7146:7159  int256 result */\n      0x00\n        /* \"ABDKMath64x64.sol\":7183:7184  y */\n      dup3\n        /* \"ABDKMath64x64.sol\":7162:7184  (int256 (x) << 64) / y */\n      0x0f\n      signextend\n        /* \"ABDKMath64x64.sol\":7177:7179  64 */\n      0x40\n        /* \"ABDKMath64x64.sol\":7171:7172  x */\n      dup6\n        /* \"ABDKMath64x64.sol\":7163:7173  int256 (x) */\n      0x0f\n      signextend\n        /* \"ABDKMath64x64.sol\":7163:7179  int256 (x) << 64 */\n      swap1\n      shl\n        /* \"ABDKMath64x64.sol\":7162:7184  (int256 (x) << 64) / y */\n      dup2\n      tag_568\n      jumpi\n      tag_568\n      tag_569\n      jump\t// in\n    tag_568:\n      sdiv\n      swap1\n      pop\n      not(0x7fffffffffffffffffffffffffffffff)\n        /* \"ABDKMath64x64.sol\":7201:7220  result >= MIN_64x64 */\n      dup2\n      slt\n      dup1\n      iszero\n      swap1\n        /* \"ABDKMath64x64.sol\":7201:7243  result >= MIN_64x64 && result <= MAX_64x64 */\n      tag_558\n      jumpi\n      pop\n      sub(shl(0x7f, 0x01), 0x01)\n        /* \"ABDKMath64x64.sol\":7224:7243  result <= MAX_64x64 */\n      dup2\n      sgt\n      iszero\n        /* \"ABDKMath64x64.sol\":7192:7244  require (result >= MIN_64x64 && result <= MAX_64x64) */\n      tag_321\n      jumpi\n      0x00\n      dup1\n      revert\n        /* \"ABDKMath64x64.sol\":22564:22860  function exp (int128 x) internal pure returns (int128) {... */\n    tag_208:\n        /* \"ABDKMath64x64.sol\":22611:22617  int128 */\n      0x00\n        /* \"ABDKMath64x64.sol\":22656:22676  0x400000000000000000 */\n      0x400000000000000000\n        /* \"ABDKMath64x64.sol\":22652:22653  x */\n      dup3\n        /* \"ABDKMath64x64.sol\":22652:22676  x < 0x400000000000000000 */\n      0x0f\n      signextend\n      slt\n        /* \"ABDKMath64x64.sol\":22643:22677  require (x < 0x400000000000000000) */\n      tag_573\n      jumpi\n      0x00\n      dup1\n      revert\n    tag_573:\n      not(0x3fffffffffffffffff)\n        /* \"ABDKMath64x64.sol\":22702:22703  x */\n      dup3\n        /* \"ABDKMath64x64.sol\":22702:22727  x < -0x400000000000000000 */\n      0x0f\n      signextend\n      slt\n        /* \"ABDKMath64x64.sol\":22698:22737  if (x < -0x400000000000000000) return 0 */\n      iszero\n      tag_574\n      jumpi\n      pop\n        /* \"ABDKMath64x64.sol\":22736:22737  0 */\n      0x00\n      swap2\n        /* \"ABDKMath64x64.sol\":22564:22860  function exp (int128 x) internal pure returns (int128) {... */\n      swap1\n      pop\n      jump\t// out\n        /* \"ABDKMath64x64.sol\":22698:22737  if (x < -0x400000000000000000) return 0 */\n    tag_574:\n        /* \"ABDKMath64x64.sol\":22766:22849  exp_2 (... */\n      tag_170\n        /* \"ABDKMath64x64.sol\":22844:22847  128 */\n      0x80\n        /* \"ABDKMath64x64.sol\":22800:22801  x */\n      dup4\n        /* \"ABDKMath64x64.sol\":22792:22802  int256 (x) */\n      0x0f\n      signextend\n        /* \"ABDKMath64x64.sol\":22805:22840  0x171547652B82FE1777D0FFDA0D23A7D12 */\n      0x0171547652b82fe1777d0ffda0d23a7d12\n        /* \"ABDKMath64x64.sol\":22792:22840  int256 (x) * 0x171547652B82FE1777D0FFDA0D23A7D12 */\n      mul\n        /* \"ABDKMath64x64.sol\":22792:22847  int256 (x) * 0x171547652B82FE1777D0FFDA0D23A7D12 >> 128 */\n      swap1\n      sar\n        /* \"ABDKMath64x64.sol\":22766:22771  exp_2 */\n      tag_576\n        /* \"ABDKMath64x64.sol\":22766:22849  exp_2 (... */\n      jump\t// in\n        /* \"ABDKMath64x64.sol\":3512:3731  function add (int128 x, int128 y) internal pure returns (int128) {... */\n    tag_209:\n        /* \"ABDKMath64x64.sol\":3569:3575  int128 */\n      0x00\n        /* \"ABDKMath64x64.sol\":3617:3630  int256(x) + y */\n      0x0f\n        /* \"ABDKMath64x64.sol\":3617:3626  int256(x) */\n      dup4\n      dup2\n      signextend\n        /* \"ABDKMath64x64.sol\":3617:3630  int256(x) + y */\n      swap1\n      dup4\n      swap1\n      signextend\n      add\n      not(0x7fffffffffffffffffffffffffffffff)\n        /* \"ABDKMath64x64.sol\":3647:3666  result >= MIN_64x64 */\n      dup2\n      slt\n      dup1\n      iszero\n      swap1\n        /* \"ABDKMath64x64.sol\":3647:3689  result >= MIN_64x64 && result <= MAX_64x64 */\n      tag_558\n      jumpi\n      pop\n      sub(shl(0x7f, 0x01), 0x01)\n        /* \"ABDKMath64x64.sol\":3670:3689  result <= MAX_64x64 */\n      dup2\n      sgt\n      iszero\n        /* \"ABDKMath64x64.sol\":3638:3690  require (result >= MIN_64x64 && result <= MAX_64x64) */\n      tag_321\n      jumpi\n      0x00\n      dup1\n      revert\n        /* \"ABDKMath64x64.sol\":15145:15366  function ln (int128 x) internal pure returns (int128) {... */\n    tag_212:\n        /* \"ABDKMath64x64.sol\":15191:15197  int128 */\n      0x00\n        /* \"ABDKMath64x64.sol\":15236:15237  0 */\n      dup1\n        /* \"ABDKMath64x64.sol\":15232:15233  x */\n      dup3\n        /* \"ABDKMath64x64.sol\":15232:15237  x > 0 */\n      0x0f\n      signextend\n      sgt\n        /* \"ABDKMath64x64.sol\":15223:15238  require (x > 0) */\n      tag_581\n      jumpi\n      0x00\n      dup1\n      revert\n    tag_581:\n        /* \"ABDKMath64x64.sol\":15350:15353  128 */\n      0x80\n        /* \"ABDKMath64x64.sol\":15298:15307  log_2 (x) */\n      tag_582\n        /* \"ABDKMath64x64.sol\":15305:15306  x */\n      dup4\n        /* \"ABDKMath64x64.sol\":15298:15303  log_2 */\n      tag_583\n        /* \"ABDKMath64x64.sol\":15298:15307  log_2 (x) */\n      jump\t// in\n    tag_582:\n        /* \"ABDKMath64x64.sol\":15290:15308  int256 (log_2 (x)) */\n      0x0f\n      signextend\n        /* \"ABDKMath64x64.sol\":15312:15346  0xB17217F7D1CF79ABC9E3B39803F2F6AF */\n      0xb17217f7d1cf79abc9e3b39803f2f6af\n        /* \"ABDKMath64x64.sol\":15281:15346  uint256 (int256 (log_2 (x))) * 0xB17217F7D1CF79ABC9E3B39803F2F6AF */\n      mul\n        /* \"ABDKMath64x64.sol\":15281:15353  uint256 (int256 (log_2 (x))) * 0xB17217F7D1CF79ABC9E3B39803F2F6AF >> 128 */\n      swap1\n      shr\n        /* \"ABDKMath64x64.sol\":15247:15355  return int128 (int256 (... */\n      swap1\n      pop\n        /* \"ABDKMath64x64.sol\":15145:15366  function ln (int128 x) internal pure returns (int128) {... */\n      swap2\n      swap1\n      pop\n      jump\t// out\n        /* \"@openzeppelin/contracts/access/Ownable.sol\":1796:1958   */\n    tag_217:\n        /* \"@openzeppelin/contracts/access/Ownable.sol\":1684:1691   */\n      0x00\n        /* \"@openzeppelin/contracts/access/Ownable.sol\":1710:1716   */\n      sload\n      sub(shl(0xa0, 0x01), 0x01)\n      and\n        /* \"@openzeppelin/contracts/utils/Context.sol\":735:745   */\n      caller\n        /* \"@openzeppelin/contracts/access/Ownable.sol\":1855:1878   */\n      eq\n        /* \"@openzeppelin/contracts/access/Ownable.sol\":1851:1952   */\n      tag_335\n      jumpi\n        /* \"@openzeppelin/contracts/access/Ownable.sol\":1901:1941   */\n      mload(0x40)\n      shl(0xe0, 0x118cdaa7)\n      dup2\n      mstore\n        /* \"@openzeppelin/contracts/utils/Context.sol\":735:745   */\n      caller\n        /* \"@openzeppelin/contracts/access/Ownable.sol\":1901:1941   */\n      0x04\n      dup3\n      add\n        /* \"#utility.yul\":4304:4378   */\n      mstore\n        /* \"#utility.yul\":4277:4295   */\n      0x24\n      add\n        /* \"@openzeppelin/contracts/access/Ownable.sol\":1901:1941   */\n      tag_178\n        /* \"#utility.yul\":4158:4384   */\n      jump\n        /* \"@openzeppelin/contracts/token/ERC20/utils/SafeERC20.sol\":1219:1379   */\n    tag_246:\n        /* \"@openzeppelin/contracts/token/ERC20/utils/SafeERC20.sol\":1328:1371   */\n      mload(0x40)\n      sub(shl(0xa0, 0x01), 0x01)\n        /* \"#utility.yul\":16225:16280   */\n      dup4\n      dup2\n      and\n        /* \"@openzeppelin/contracts/token/ERC20/utils/SafeERC20.sol\":1328:1371   */\n      0x24\n      dup4\n      add\n        /* \"#utility.yul\":16207:16281   */\n      mstore\n        /* \"#utility.yul\":16297:16315   */\n      0x44\n      dup3\n      add\n        /* \"#utility.yul\":16290:16324   */\n      dup4\n      swap1\n      mstore\n        /* \"@openzeppelin/contracts/token/ERC20/utils/SafeERC20.sol\":1301:1372   */\n      tag_592\n      swap2\n        /* \"@openzeppelin/contracts/token/ERC20/utils/SafeERC20.sol\":1321:1326   */\n      dup6\n      swap2\n        /* \"@openzeppelin/contracts/token/ERC20/utils/SafeERC20.sol\":1343:1357   */\n      dup3\n      and\n      swap1\n      0xa9059cbb\n      swap1\n        /* \"#utility.yul\":16180:16198   */\n      0x64\n      add\n        /* \"@openzeppelin/contracts/token/ERC20/utils/SafeERC20.sol\":1328:1371   */\n    tag_593:\n      mload(0x40)\n      0x20\n      dup2\n      dup4\n      sub\n      sub\n      dup2\n      mstore\n      swap1\n      0x40\n      mstore\n      swap2\n      pop\n      0xe0\n      shl\n      0x20\n      dup3\n      add\n      dup1\n      mload\n      0xffffffffffffffffffffffffffffffffffffffffffffffffffffffff\n      dup4\n      dup2\n      dup4\n      and\n      or\n      dup4\n      mstore\n      pop\n      pop\n      pop\n      pop\n        /* \"@openzeppelin/contracts/token/ERC20/utils/SafeERC20.sol\":1301:1320   */\n      tag_595\n        /* \"@openzeppelin/contracts/token/ERC20/utils/SafeERC20.sol\":1301:1372   */\n      jump\t// in\n    tag_592:\n        /* \"@openzeppelin/contracts/token/ERC20/utils/SafeERC20.sol\":1219:1379   */\n      pop\n      pop\n      pop\n      jump\t// out\n        /* \"@openzeppelin/contracts/token/ERC20/utils/SafeERC20.sol\":1618:1806   */\n    tag_298:\n        /* \"@openzeppelin/contracts/token/ERC20/utils/SafeERC20.sol\":1745:1798   */\n      mload(0x40)\n      sub(shl(0xa0, 0x01), 0x01)\n        /* \"#utility.yul\":17271:17286   */\n      dup5\n      dup2\n      and\n        /* \"@openzeppelin/contracts/token/ERC20/utils/SafeERC20.sol\":1745:1798   */\n      0x24\n      dup4\n      add\n        /* \"#utility.yul\":17253:17287   */\n      mstore\n        /* \"#utility.yul\":17323:17338   */\n      dup4\n      dup2\n      and\n        /* \"#utility.yul\":17303:17321   */\n      0x44\n      dup4\n      add\n        /* \"#utility.yul\":17296:17339   */\n      mstore\n        /* \"#utility.yul\":17355:17373   */\n      0x64\n      dup3\n      add\n        /* \"#utility.yul\":17348:17382   */\n      dup4\n      swap1\n      mstore\n        /* \"@openzeppelin/contracts/token/ERC20/utils/SafeERC20.sol\":1718:1799   */\n      tag_597\n      swap2\n        /* \"@openzeppelin/contracts/token/ERC20/utils/SafeERC20.sol\":1738:1743   */\n      dup7\n      swap2\n        /* \"@openzeppelin/contracts/token/ERC20/utils/SafeERC20.sol\":1760:1778   */\n      dup3\n      and\n      swap1\n      0x23b872dd\n      swap1\n        /* \"#utility.yul\":17165:17183   */\n      0x84\n      add\n        /* \"@openzeppelin/contracts/token/ERC20/utils/SafeERC20.sol\":1745:1798   */\n      tag_593\n        /* \"#utility.yul\":16990:17388   */\n      jump\n        /* \"@openzeppelin/contracts/token/ERC20/utils/SafeERC20.sol\":1718:1799   */\n    tag_597:\n        /* \"@openzeppelin/contracts/token/ERC20/utils/SafeERC20.sol\":1618:1806   */\n      pop\n      pop\n      pop\n      pop\n      jump\t// out\n        /* \"ABDKMath64x64.sol\":1953:2122  function fromUInt (uint256 x) internal pure returns (int128) {... */\n    tag_313:\n        /* \"ABDKMath64x64.sol\":2006:2012  int128 */\n      0x00\n        /* \"ABDKMath64x64.sol\":2052:2070  0x7FFFFFFFFFFFFFFF */\n      0x7fffffffffffffff\n        /* \"ABDKMath64x64.sol\":2047:2048  x */\n      dup3\n        /* \"ABDKMath64x64.sol\":2047:2070  x <= 0x7FFFFFFFFFFFFFFF */\n      gt\n      iszero\n        /* \"ABDKMath64x64.sol\":2038:2071  require (x <= 0x7FFFFFFFFFFFFFFF) */\n      tag_600\n      jumpi\n      0x00\n      dup1\n      revert\n    tag_600:\n      pop\n        /* \"ABDKMath64x64.sol\":2107:2109  64 */\n      0x40\n        /* \"ABDKMath64x64.sol\":2102:2109  x << 64 */\n      shl\n      swap1\n        /* \"ABDKMath64x64.sol\":1953:2122  function fromUInt (uint256 x) internal pure returns (int128) {... */\n      jump\t// out\n        /* \"@openzeppelin/contracts/access/Ownable.sol\":2912:3099   */\n    tag_336:\n        /* \"@openzeppelin/contracts/access/Ownable.sol\":2985:3001   */\n      0x00\n        /* \"@openzeppelin/contracts/access/Ownable.sol\":3004:3010   */\n      dup1\n      sload\n      sub(shl(0xa0, 0x01), 0x01)\n        /* \"@openzeppelin/contracts/access/Ownable.sol\":3020:3037   */\n      dup4\n      dup2\n      and\n      0xffffffffffffffffffffffff0000000000000000000000000000000000000000\n      dup4\n      and\n      dup2\n      or\n      dup5\n      sstore\n        /* \"@openzeppelin/contracts/access/Ownable.sol\":3052:3092   */\n      mload(0x40)\n        /* \"@openzeppelin/contracts/access/Ownable.sol\":3004:3010   */\n      swap2\n      swap1\n      swap3\n      and\n      swap3\n      dup4\n      swap2\n        /* \"@openzeppelin/contracts/access/Ownable.sol\":3052:3092   */\n      0x8be0079c531659141344cd1fd0a4f28419497f9722a3daafe3b4186f6b6457e0\n      swap2\n        /* \"@openzeppelin/contracts/access/Ownable.sol\":2985:3001   */\n      swap1\n        /* \"@openzeppelin/contracts/access/Ownable.sol\":3052:3092   */\n      log3\n        /* \"@openzeppelin/contracts/access/Ownable.sol\":2975:3099   */\n      pop\n        /* \"@openzeppelin/contracts/access/Ownable.sol\":2912:3099   */\n      pop\n      jump\t// out\n        /* \"LmLSMR.sol\":6024:6162  function getOnes(uint n) internal pure returns (uint count) {... */\n    tag_373:\n        /* \"LmLSMR.sol\":6072:6082  uint count */\n      0x00\n        /* \"LmLSMR.sol\":6105:6158  while(n!=0) {... */\n    tag_603:\n        /* \"LmLSMR.sol\":6111:6115  n!=0 */\n      dup2\n      iszero\n        /* \"LmLSMR.sol\":6105:6158  while(n!=0) {... */\n      tag_604\n      jumpi\n        /* \"LmLSMR.sol\":6132:6135  n-1 */\n      tag_605\n        /* \"LmLSMR.sol\":6134:6135  1 */\n      0x01\n        /* \"LmLSMR.sol\":6132:6133  n */\n      dup4\n        /* \"LmLSMR.sol\":6132:6135  n-1 */\n      tag_286\n      jump\t// in\n    tag_605:\n        /* \"LmLSMR.sol\":6129:6136  n&(n-1) */\n      swap1\n      swap2\n      and\n      swap1\n        /* \"LmLSMR.sol\":6144:6151  count++ */\n      dup1\n      tag_606\n      dup2\n      tag_387\n      jump\t// in\n    tag_606:\n      swap2\n      pop\n      pop\n        /* \"LmLSMR.sol\":6105:6158  while(n!=0) {... */\n      jump(tag_603)\n    tag_604:\n        /* \"LmLSMR.sol\":6024:6162  function getOnes(uint n) internal pure returns (uint count) {... */\n      swap2\n      swap1\n      pop\n      jump\t// out\n        /* \"ABDKMath64x64.sol\":3944:4163  function sub (int128 x, int128 y) internal pure returns (int128) {... */\n    tag_456:\n        /* \"ABDKMath64x64.sol\":4001:4007  int128 */\n      0x00\n        /* \"ABDKMath64x64.sol\":4049:4062  int256(x) - y */\n      0x0f\n      dup3\n      dup2\n      signextend\n        /* \"ABDKMath64x64.sol\":4049:4058  int256(x) */\n      swap1\n      dup5\n      swap1\n      signextend\n        /* \"ABDKMath64x64.sol\":4049:4062  int256(x) - y */\n      sub\n      not(0x7fffffffffffffffffffffffffffffff)\n        /* \"ABDKMath64x64.sol\":4079:4098  result >= MIN_64x64 */\n      dup2\n      slt\n      dup1\n      iszero\n      swap1\n        /* \"ABDKMath64x64.sol\":4079:4121  result >= MIN_64x64 && result <= MAX_64x64 */\n      tag_558\n      jumpi\n      pop\n      sub(shl(0x7f, 0x01), 0x01)\n        /* \"ABDKMath64x64.sol\":4102:4121  result <= MAX_64x64 */\n      dup2\n      sgt\n      iszero\n        /* \"ABDKMath64x64.sol\":4070:4122  require (result >= MIN_64x64 && result <= MAX_64x64) */\n      tag_321\n      jumpi\n      0x00\n      dup1\n      revert\n        /* \"LmLSMR.sol\":3543:4420  function _calculateBuyPrice(... */\n    tag_532:\n        /* \"LmLSMR.sol\":3758:3773  int128 new_cost */\n      0x00\n        /* \"LmLSMR.sol\":3775:3788  int128 price_ */\n      dup1\n        /* \"LmLSMR.sol\":3790:3813  int128 new_total_shares */\n      0x00\n        /* \"LmLSMR.sol\":3815:3827  int128 new_b */\n      dup1\n        /* \"LmLSMR.sol\":3835:3856  int128[] memory new_q */\n      0x00\n        /* \"LmLSMR.sol\":3872:3884  numOutcomes_ */\n      dup6\n        /* \"LmLSMR.sol\":3859:3885  new int128[](numOutcomes_) */\n      0xffffffffffffffff\n      dup2\n      gt\n      iszero\n      tag_612\n      jumpi\n      tag_612\n      tag_229\n      jump\t// in\n    tag_612:\n      mload(0x40)\n      swap1\n      dup1\n      dup3\n      mstore\n      dup1\n      0x20\n      mul\n      0x20\n      add\n      dup3\n      add\n      0x40\n      mstore\n      dup1\n      iszero\n      tag_613\n      jumpi\n      dup2\n      0x20\n      add\n      0x20\n      dup3\n      mul\n      dup1\n      calldatasize\n      dup4\n      calldatacopy\n      add\n      swap1\n      pop\n    tag_613:\n      pop\n        /* \"LmLSMR.sol\":3835:3885  int128[] memory new_q = new int128[](numOutcomes_) */\n      swap1\n      pop\n        /* \"LmLSMR.sol\":3896:3902  uint i */\n      0x00\n        /* \"LmLSMR.sol\":3891:3964  for (uint i = 0; i < numOutcomes_; i++) {... */\n    tag_614:\n        /* \"LmLSMR.sol\":3912:3924  numOutcomes_ */\n      dup7\n        /* \"LmLSMR.sol\":3908:3909  i */\n      dup2\n        /* \"LmLSMR.sol\":3908:3924  i < numOutcomes_ */\n      lt\n        /* \"LmLSMR.sol\":3891:3964  for (uint i = 0; i < numOutcomes_; i++) {... */\n      iszero\n      tag_615\n      jumpi\n        /* \"LmLSMR.sol\":3952:3954  q_ */\n      dup13\n        /* \"LmLSMR.sol\":3955:3956  i */\n      dup2\n        /* \"LmLSMR.sol\":3952:3957  q_[i] */\n      dup2\n      mload\n      dup2\n      lt\n      tag_618\n      jumpi\n      tag_618\n      tag_205\n      jump\t// in\n    tag_618:\n      0x20\n      mul\n      0x20\n      add\n      add\n      mload\n        /* \"LmLSMR.sol\":3941:3946  new_q */\n      dup3\n        /* \"LmLSMR.sol\":3947:3948  i */\n      dup3\n        /* \"LmLSMR.sol\":3941:3949  new_q[i] */\n      dup2\n      mload\n      dup2\n      lt\n      tag_620\n      jumpi\n      tag_620\n      tag_205\n      jump\t// in\n    tag_620:\n        /* \"LmLSMR.sol\":3941:3957  new_q[i] = q_[i] */\n      0x0f\n      swap3\n      swap1\n      swap3\n      signextend\n        /* \"LmLSMR.sol\":3941:3949  new_q[i] */\n      0x20\n      swap3\n      dup4\n      mul\n      swap2\n      swap1\n      swap2\n      add\n      swap1\n      swap2\n      add\n        /* \"LmLSMR.sol\":3941:3957  new_q[i] = q_[i] */\n      mstore\n        /* \"LmLSMR.sol\":3926:3929  i++ */\n      0x01\n      add\n        /* \"LmLSMR.sol\":3891:3964  for (uint i = 0; i < numOutcomes_; i++) {... */\n      jump(tag_614)\n    tag_615:\n      pop\n        /* \"LmLSMR.sol\":3987:4025  ABDKMath.add(new_q[_outcome], _amount) */\n      tag_621\n        /* \"LmLSMR.sol\":4000:4005  new_q */\n      dup2\n        /* \"LmLSMR.sol\":4006:4014  _outcome */\n      dup13\n        /* \"LmLSMR.sol\":4000:4015  new_q[_outcome] */\n      dup2\n      mload\n      dup2\n      lt\n      tag_623\n      jumpi\n      tag_623\n      tag_205\n      jump\t// in\n    tag_623:\n      0x20\n      mul\n      0x20\n      add\n      add\n      mload\n        /* \"LmLSMR.sol\":4017:4024  _amount */\n      dup12\n        /* \"LmLSMR.sol\":3987:3999  ABDKMath.add */\n      tag_209\n        /* \"LmLSMR.sol\":3987:4025  ABDKMath.add(new_q[_outcome], _amount) */\n      jump\t// in\n    tag_621:\n        /* \"LmLSMR.sol\":3969:3974  new_q */\n      dup2\n        /* \"LmLSMR.sol\":3975:3983  _outcome */\n      dup13\n        /* \"LmLSMR.sol\":3969:3984  new_q[_outcome] */\n      dup2\n      mload\n      dup2\n      lt\n      tag_625\n      jumpi\n      tag_625\n      tag_205\n      jump\t// in\n    tag_625:\n      0x20\n      mul\n      0x20\n      add\n      add\n        /* \"LmLSMR.sol\":3969:4025  new_q[_outcome] = ABDKMath.add(new_q[_outcome], _amount) */\n      swap1\n      0x0f\n      signextend\n      swap1\n      dup2\n      0x0f\n      signextend\n      dup2\n      mstore\n      pop\n      pop\n        /* \"LmLSMR.sol\":4050:4086  ABDKMath.add(total_shares_, _amount) */\n      tag_626\n        /* \"LmLSMR.sol\":4063:4076  total_shares_ */\n      dup10\n        /* \"LmLSMR.sol\":4078:4085  _amount */\n      dup12\n        /* \"LmLSMR.sol\":4050:4062  ABDKMath.add */\n      tag_209\n        /* \"LmLSMR.sol\":4050:4086  ABDKMath.add(total_shares_, _amount) */\n      jump\t// in\n    tag_626:\n        /* \"LmLSMR.sol\":4031:4086  new_total_shares = ABDKMath.add(total_shares_, _amount) */\n      swap3\n      pop\n        /* \"LmLSMR.sol\":4100:4138  ABDKMath.mul(new_total_shares, alpha_) */\n      tag_627\n        /* \"LmLSMR.sol\":4113:4129  new_total_shares */\n      dup4\n        /* \"LmLSMR.sol\":4131:4137  alpha_ */\n      dup10\n        /* \"LmLSMR.sol\":4100:4112  ABDKMath.mul */\n      tag_183\n        /* \"LmLSMR.sol\":4100:4138  ABDKMath.mul(new_total_shares, alpha_) */\n      jump\t// in\n    tag_627:\n        /* \"LmLSMR.sol\":4092:4138  new_b = ABDKMath.mul(new_total_shares, alpha_) */\n      swap2\n      pop\n        /* \"LmLSMR.sol\":4145:4161  int128 sum_total */\n      0x00\n      dup1\n        /* \"LmLSMR.sol\":4167:4304  for (uint i = 0; i < numOutcomes_; i++) {... */\n    tag_628:\n        /* \"LmLSMR.sol\":4188:4200  numOutcomes_ */\n      dup8\n        /* \"LmLSMR.sol\":4184:4185  i */\n      dup2\n        /* \"LmLSMR.sol\":4184:4200  i < numOutcomes_ */\n      lt\n        /* \"LmLSMR.sol\":4167:4304  for (uint i = 0; i < numOutcomes_; i++) {... */\n      iszero\n      tag_629\n      jumpi\n        /* \"LmLSMR.sol\":4229:4297  ABDKMath.add(sum_total, ABDKMath.exp(ABDKMath.div(new_q[i], new_b))) */\n      tag_631\n        /* \"LmLSMR.sol\":4242:4251  sum_total */\n      dup3\n        /* \"LmLSMR.sol\":4253:4296  ABDKMath.exp(ABDKMath.div(new_q[i], new_b)) */\n      tag_201\n        /* \"LmLSMR.sol\":4266:4295  ABDKMath.div(new_q[i], new_b) */\n      tag_202\n        /* \"LmLSMR.sol\":4279:4284  new_q */\n      dup7\n        /* \"LmLSMR.sol\":4285:4286  i */\n      dup6\n        /* \"LmLSMR.sol\":4279:4287  new_q[i] */\n      dup2\n      mload\n      dup2\n      lt\n      tag_635\n      jumpi\n      tag_635\n      tag_205\n      jump\t// in\n    tag_635:\n      0x20\n      mul\n      0x20\n      add\n      add\n      mload\n        /* \"LmLSMR.sol\":4289:4294  new_b */\n      dup9\n        /* \"LmLSMR.sol\":4266:4278  ABDKMath.div */\n      tag_207\n        /* \"LmLSMR.sol\":4266:4295  ABDKMath.div(new_q[i], new_b) */\n      jump\t// in\n        /* \"LmLSMR.sol\":4229:4297  ABDKMath.add(sum_total, ABDKMath.exp(ABDKMath.div(new_q[i], new_b))) */\n    tag_631:\n        /* \"LmLSMR.sol\":4217:4297  sum_total = ABDKMath.add(sum_total, ABDKMath.exp(ABDKMath.div(new_q[i], new_b))) */\n      swap2\n      pop\n        /* \"LmLSMR.sol\":4202:4205  i++ */\n      0x01\n      add\n        /* \"LmLSMR.sol\":4167:4304  for (uint i = 0; i < numOutcomes_; i++) {... */\n      jump(tag_628)\n    tag_629:\n      pop\n        /* \"LmLSMR.sol\":4320:4363  ABDKMath.mul(new_b, ABDKMath.ln(sum_total)) */\n      tag_636\n        /* \"LmLSMR.sol\":4333:4338  new_b */\n      dup4\n        /* \"LmLSMR.sol\":4340:4362  ABDKMath.ln(sum_total) */\n      tag_211\n        /* \"LmLSMR.sol\":4352:4361  sum_total */\n      dup4\n        /* \"LmLSMR.sol\":4340:4351  ABDKMath.ln */\n      tag_212\n        /* \"LmLSMR.sol\":4340:4362  ABDKMath.ln(sum_total) */\n      jump\t// in\n        /* \"LmLSMR.sol\":4320:4363  ABDKMath.mul(new_b, ABDKMath.ln(sum_total)) */\n    tag_636:\n        /* \"LmLSMR.sol\":4309:4363  new_cost = ABDKMath.mul(new_b, ABDKMath.ln(sum_total)) */\n      swap6\n      pop\n        /* \"LmLSMR.sol\":4378:4415  ABDKMath.sub(new_cost, current_cost_) */\n      tag_638\n        /* \"LmLSMR.sol\":4391:4399  new_cost */\n      dup7\n        /* \"LmLSMR.sol\":4401:4414  current_cost_ */\n      dup10\n        /* \"LmLSMR.sol\":4378:4390  ABDKMath.sub */\n      tag_456\n        /* \"LmLSMR.sol\":4378:4415  ABDKMath.sub(new_cost, current_cost_) */\n      jump\t// in\n    tag_638:\n        /* \"LmLSMR.sol\":4369:4415  price_ = ABDKMath.sub(new_cost, current_cost_) */\n      swap5\n      pop\n        /* \"LmLSMR.sol\":3829:4420  {... */\n      pop\n      pop\n        /* \"LmLSMR.sol\":3543:4420  function _calculateBuyPrice(... */\n      swap8\n      pop\n      swap8\n      pop\n      swap8\n      pop\n      swap8\n      swap4\n      pop\n      pop\n      pop\n      pop\n      jump\t// out\n        /* \"LmLSMR.sol\":4424:5053  function _mintAndTransferOutcomeTokens(... */\n    tag_551:\n        /* \"LmLSMR.sol\":4562:4567  token */\n      sload(0x08)\n        /* \"LmLSMR.sol\":4524:4545  uint n_outcome_tokens */\n      0x00\n      swap1\n        /* \"LmLSMR.sol\":4548:4577  getTokenWeiUp(token, _amount) */\n      tag_640\n      swap1\n      sub(shl(0xa0, 0x01), 0x01)\n        /* \"LmLSMR.sol\":4562:4567  token */\n      and\n        /* \"LmLSMR.sol\":4569:4576  _amount */\n      dup4\n        /* \"LmLSMR.sol\":4548:4561  getTokenWeiUp */\n      tag_51\n        /* \"LmLSMR.sol\":4548:4577  getTokenWeiUp(token, _amount) */\n      jump\t// in\n    tag_640:\n        /* \"LmLSMR.sol\":4594:4596  CT */\n      sload(0x07)\n        /* \"LmLSMR.sol\":4618:4623  token */\n      sload(0x08)\n        /* \"LmLSMR.sol\":4665:4674  condition */\n      sload(0x06)\n        /* \"LmLSMR.sol\":4634:4690  CT.getCollectionId(bytes32(0), condition, 1 << _outcome) */\n      mload(0x40)\n      shl(0xe0, 0x856296f7)\n      dup2\n      mstore\n        /* \"LmLSMR.sol\":4583:4591  uint pos */\n      0x00\n        /* \"LmLSMR.sol\":4634:4690  CT.getCollectionId(bytes32(0), condition, 1 << _outcome) */\n      0x04\n      dup3\n      add\n        /* \"#utility.yul\":15896:15921   */\n      dup2\n      swap1\n      mstore\n        /* \"#utility.yul\":15937:15955   */\n      0x24\n      dup3\n      add\n        /* \"#utility.yul\":15930:15964   */\n      swap3\n      swap1\n      swap3\n      mstore\n        /* \"LmLSMR.sol\":4594:4596  CT */\n      0x01\n        /* \"LmLSMR.sol\":4676:4689  1 << _outcome */\n      dup9\n      shl\n        /* \"#utility.yul\":15980:15998   */\n      0x44\n      dup3\n      add\n        /* \"#utility.yul\":15973:16007   */\n      mstore\n        /* \"LmLSMR.sol\":4524:4577  uint n_outcome_tokens = getTokenWeiUp(token, _amount) */\n      swap4\n      swap5\n      pop\n        /* \"LmLSMR.sol\":4583:4591  uint pos */\n      swap3\n      sub(shl(0xa0, 0x01), 0x01)\n        /* \"LmLSMR.sol\":4594:4596  CT */\n      swap3\n      dup4\n      and\n      swap3\n        /* \"LmLSMR.sol\":4594:4610  CT.getPositionId */\n      0x39dd7530\n      swap3\n        /* \"LmLSMR.sol\":4618:4623  token */\n      and\n      swap1\n        /* \"LmLSMR.sol\":4594:4596  CT */\n      dup4\n      swap1\n        /* \"LmLSMR.sol\":4634:4652  CT.getCollectionId */\n      0x856296f7\n      swap1\n        /* \"#utility.yul\":15869:15887   */\n      0x64\n      add\n        /* \"LmLSMR.sol\":4634:4690  CT.getCollectionId(bytes32(0), condition, 1 << _outcome) */\n      0x20\n      mload(0x40)\n      dup1\n      dup4\n      sub\n      dup2\n      dup7\n      gas\n      staticcall\n      iszero\n      dup1\n      iszero\n      tag_643\n      jumpi\n      returndatasize\n      0x00\n      dup1\n      returndatacopy\n      revert(0x00, returndatasize)\n    tag_643:\n      pop\n      pop\n      pop\n      pop\n      mload(0x40)\n      returndatasize\n      not(0x1f)\n      0x1f\n      dup3\n      add\n      and\n      dup3\n      add\n      dup1\n      0x40\n      mstore\n      pop\n      dup2\n      add\n      swap1\n      tag_644\n      swap2\n      swap1\n      tag_223\n      jump\t// in\n    tag_644:\n        /* \"LmLSMR.sol\":4594:4691  CT.getPositionId(IERC20(token),... */\n      mload(0x40)\n      not(sub(shl(0xe0, 0x01), 0x01))\n      0xe0\n      dup6\n      swap1\n      shl\n      and\n      dup2\n      mstore\n      sub(shl(0xa0, 0x01), 0x01)\n        /* \"#utility.yul\":16225:16280   */\n      swap1\n      swap3\n      and\n        /* \"LmLSMR.sol\":4594:4691  CT.getPositionId(IERC20(token),... */\n      0x04\n      dup4\n      add\n        /* \"#utility.yul\":16207:16281   */\n      mstore\n        /* \"#utility.yul\":16297:16315   */\n      0x24\n      dup3\n      add\n        /* \"#utility.yul\":16290:16324   */\n      mstore\n        /* \"#utility.yul\":16180:16198   */\n      0x44\n      add\n        /* \"LmLSMR.sol\":4594:4691  CT.getPositionId(IERC20(token),... */\n      0x20\n      mload(0x40)\n      dup1\n      dup4\n      sub\n      dup2\n      dup7\n      gas\n      staticcall\n      iszero\n      dup1\n      iszero\n      tag_647\n      jumpi\n      returndatasize\n      0x00\n      dup1\n      returndatacopy\n      revert(0x00, returndatasize)\n    tag_647:\n      pop\n      pop\n      pop\n      pop\n      mload(0x40)\n      returndatasize\n      not(0x1f)\n      0x1f\n      dup3\n      add\n      and\n      dup3\n      add\n      dup1\n      0x40\n      mstore\n      pop\n      dup2\n      add\n      swap1\n      tag_648\n      swap2\n      swap1\n      tag_223\n      jump\t// in\n    tag_648:\n        /* \"LmLSMR.sol\":4702:4704  CT */\n      sload(0x07)\n        /* \"LmLSMR.sol\":4702:4734  CT.balanceOf(address(this), pos) */\n      mload(0x40)\n      shl(0xe1, 0x7eeac7)\n      dup2\n      mstore\n        /* \"LmLSMR.sol\":4723:4727  this */\n      address\n        /* \"LmLSMR.sol\":4702:4734  CT.balanceOf(address(this), pos) */\n      0x04\n      dup3\n      add\n        /* \"#utility.yul\":16207:16281   */\n      mstore\n        /* \"#utility.yul\":16297:16315   */\n      0x24\n      dup2\n      add\n        /* \"#utility.yul\":16290:16324   */\n      dup4\n      swap1\n      mstore\n        /* \"LmLSMR.sol\":4583:4691  uint pos = CT.getPositionId(IERC20(token),... */\n      swap2\n      swap3\n      pop\n        /* \"LmLSMR.sol\":4737:4753  n_outcome_tokens */\n      dup4\n      swap2\n      sub(shl(0xa0, 0x01), 0x01)\n        /* \"LmLSMR.sol\":4702:4704  CT */\n      swap1\n      swap2\n      and\n      swap1\n        /* \"LmLSMR.sol\":4702:4714  CT.balanceOf */\n      0xfdd58e\n      swap1\n        /* \"#utility.yul\":16180:16198   */\n      0x44\n      add\n        /* \"LmLSMR.sol\":4702:4734  CT.balanceOf(address(this), pos) */\n      0x20\n      mload(0x40)\n      dup1\n      dup4\n      sub\n      dup2\n      dup7\n      gas\n      staticcall\n      iszero\n      dup1\n      iszero\n      tag_651\n      jumpi\n      returndatasize\n      0x00\n      dup1\n      returndatacopy\n      revert(0x00, returndatasize)\n    tag_651:\n      pop\n      pop\n      pop\n      pop\n      mload(0x40)\n      returndatasize\n      not(0x1f)\n      0x1f\n      dup3\n      add\n      and\n      dup3\n      add\n      dup1\n      0x40\n      mstore\n      pop\n      dup2\n      add\n      swap1\n      tag_652\n      swap2\n      swap1\n      tag_223\n      jump\t// in\n    tag_652:\n        /* \"LmLSMR.sol\":4702:4753  CT.balanceOf(address(this), pos) < n_outcome_tokens */\n      lt\n        /* \"LmLSMR.sol\":4698:4970  if (CT.balanceOf(address(this), pos) < n_outcome_tokens) {... */\n      iszero\n      tag_653\n      jumpi\n        /* \"LmLSMR.sol\":4772:4777  token */\n      sload(0x08)\n        /* \"LmLSMR.sol\":4795:4797  CT */\n      sload(0x07)\n      sub(shl(0xa0, 0x01), 0x01)\n        /* \"LmLSMR.sol\":4772:4777  token */\n      swap2\n      dup3\n      and\n      swap2\n        /* \"LmLSMR.sol\":4765:4786  IERC20(token).approve */\n      0x095ea7b3\n      swap2\n        /* \"LmLSMR.sol\":4795:4797  CT */\n      and\n        /* \"LmLSMR.sol\":4800:4829  getTokenWeiUp(token, _amount) */\n      tag_654\n        /* \"LmLSMR.sol\":4772:4777  token */\n      dup4\n        /* \"LmLSMR.sol\":4821:4828  _amount */\n      dup8\n        /* \"LmLSMR.sol\":4800:4813  getTokenWeiUp */\n      tag_51\n        /* \"LmLSMR.sol\":4800:4829  getTokenWeiUp(token, _amount) */\n      jump\t// in\n    tag_654:\n        /* \"LmLSMR.sol\":4765:4830  IERC20(token).approve(address(CT), getTokenWeiUp(token, _amount)) */\n      mload(0x40)\n      not(sub(shl(0xe0, 0x01), 0x01))\n      0xe0\n      dup6\n      swap1\n      shl\n      and\n      dup2\n      mstore\n      sub(shl(0xa0, 0x01), 0x01)\n        /* \"#utility.yul\":16225:16280   */\n      swap1\n      swap3\n      and\n        /* \"LmLSMR.sol\":4765:4830  IERC20(token).approve(address(CT), getTokenWeiUp(token, _amount)) */\n      0x04\n      dup4\n      add\n        /* \"#utility.yul\":16207:16281   */\n      mstore\n        /* \"#utility.yul\":16297:16315   */\n      0x24\n      dup3\n      add\n        /* \"#utility.yul\":16290:16324   */\n      mstore\n        /* \"#utility.yul\":16180:16198   */\n      0x44\n      add\n        /* \"LmLSMR.sol\":4765:4830  IERC20(token).approve(address(CT), getTokenWeiUp(token, _amount)) */\n      0x20\n      mload(0x40)\n      dup1\n      dup4\n      sub\n      dup2\n      0x00\n      dup8\n      gas\n      call\n      iszero\n      dup1\n      iszero\n      tag_657\n      jumpi\n      returndatasize\n      0x00\n      dup1\n      returndatacopy\n      revert(0x00, returndatasize)\n    tag_657:\n      pop\n      pop\n      pop\n      pop\n      mload(0x40)\n      returndatasize\n      not(0x1f)\n      0x1f\n      dup3\n      add\n      and\n      dup3\n      add\n      dup1\n      0x40\n      mstore\n      pop\n      dup2\n      add\n      swap1\n      tag_658\n      swap2\n      swap1\n      tag_539\n      jump\t// in\n    tag_658:\n      pop\n        /* \"LmLSMR.sol\":4840:4842  CT */\n      sload(0x07)\n        /* \"LmLSMR.sol\":4864:4869  token */\n      sload(0x08)\n        /* \"LmLSMR.sol\":4884:4893  condition */\n      sload(0x06)\n      sub(shl(0xa0, 0x01), 0x01)\n        /* \"LmLSMR.sol\":4840:4842  CT */\n      swap3\n      dup4\n      and\n      swap3\n        /* \"LmLSMR.sol\":4840:4856  CT.splitPosition */\n      0x72ce4275\n      swap3\n        /* \"LmLSMR.sol\":4864:4869  token */\n      and\n      swap1\n        /* \"LmLSMR.sol\":4840:4842  CT */\n      0x00\n      swap1\n        /* \"LmLSMR.sol\":4907:4944  getPositionAndDustPositions(_outcome) */\n      tag_659\n        /* \"LmLSMR.sol\":4935:4943  _outcome */\n      dup10\n        /* \"LmLSMR.sol\":4907:4934  getPositionAndDustPositions */\n      tag_110\n        /* \"LmLSMR.sol\":4907:4944  getPositionAndDustPositions(_outcome) */\n      jump\t// in\n    tag_659:\n        /* \"LmLSMR.sol\":4946:4962  n_outcome_tokens */\n      dup8\n        /* \"LmLSMR.sol\":4840:4963  CT.splitPosition(IERC20(token), bytes32(0), condition,... */\n      mload(0x40)\n      dup7\n      0xffffffff\n      and\n      0xe0\n      shl\n      dup2\n      mstore\n      0x04\n      add\n      tag_660\n      swap6\n      swap5\n      swap4\n      swap3\n      swap2\n      swap1\n      tag_661\n      jump\t// in\n    tag_660:\n      0x00\n      mload(0x40)\n      dup1\n      dup4\n      sub\n      dup2\n      0x00\n      dup8\n      dup1\n      extcodesize\n      iszero\n      dup1\n      iszero\n      tag_662\n      jumpi\n      0x00\n      dup1\n      revert\n    tag_662:\n      pop\n      gas\n      call\n      iszero\n      dup1\n      iszero\n      tag_664\n      jumpi\n      returndatasize\n      0x00\n      dup1\n      returndatacopy\n      revert(0x00, returndatasize)\n    tag_664:\n      pop\n      pop\n      pop\n      pop\n        /* \"LmLSMR.sol\":4698:4970  if (CT.balanceOf(address(this), pos) < n_outcome_tokens) {... */\n    tag_653:\n        /* \"LmLSMR.sol\":4975:4977  CT */\n      sload(0x07)\n        /* \"LmLSMR.sol\":4975:5048  CT.safeTransferFrom(address(this), msg.sender, pos, n_outcome_tokens, '') */\n      mload(0x40)\n      shl(0xe1, 0x79212195)\n      dup2\n      mstore\n        /* \"LmLSMR.sol\":5003:5007  this */\n      address\n        /* \"LmLSMR.sol\":4975:5048  CT.safeTransferFrom(address(this), msg.sender, pos, n_outcome_tokens, '') */\n      0x04\n      dup3\n      add\n        /* \"#utility.yul\":16691:16725   */\n      mstore\n        /* \"LmLSMR.sol\":5010:5020  msg.sender */\n      caller\n        /* \"#utility.yul\":16741:16759   */\n      0x24\n      dup3\n      add\n        /* \"#utility.yul\":16734:16777   */\n      mstore\n        /* \"#utility.yul\":16793:16811   */\n      0x44\n      dup2\n      add\n        /* \"#utility.yul\":16786:16820   */\n      dup4\n      swap1\n      mstore\n        /* \"#utility.yul\":16836:16854   */\n      0x64\n      dup2\n      add\n        /* \"#utility.yul\":16829:16863   */\n      dup5\n      swap1\n      mstore\n        /* \"#utility.yul\":16900:16903   */\n      0xa0\n        /* \"#utility.yul\":16879:16898   */\n      0x84\n      dup3\n      add\n        /* \"#utility.yul\":16872:16904   */\n      mstore\n      0x00\n        /* \"#utility.yul\":16920:16939   */\n      0xa4\n      dup3\n      add\n        /* \"#utility.yul\":16913:16943   */\n      mstore\n      sub(shl(0xa0, 0x01), 0x01)\n        /* \"LmLSMR.sol\":4975:4977  CT */\n      swap1\n      swap2\n      and\n      swap1\n        /* \"LmLSMR.sol\":4975:4994  CT.safeTransferFrom */\n      0xf242432a\n      swap1\n        /* \"#utility.yul\":16960:16979   */\n      0xc4\n      add\n        /* \"LmLSMR.sol\":4975:5048  CT.safeTransferFrom(address(this), msg.sender, pos, n_outcome_tokens, '') */\n      0x00\n      mload(0x40)\n      dup1\n      dup4\n      sub\n      dup2\n      0x00\n      dup8\n      dup1\n      extcodesize\n      iszero\n      dup1\n      iszero\n      tag_666\n      jumpi\n      0x00\n      dup1\n      revert\n    tag_666:\n      pop\n      gas\n      call\n      iszero\n      dup1\n      iszero\n      tag_668\n      jumpi\n      returndatasize\n      0x00\n      dup1\n      returndatacopy\n      revert(0x00, returndatasize)\n    tag_668:\n      pop\n      pop\n      pop\n      pop\n        /* \"LmLSMR.sol\":4518:5053  {... */\n      pop\n      pop\n        /* \"LmLSMR.sol\":4424:5053  function _mintAndTransferOutcomeTokens(... */\n      pop\n      pop\n      jump\t// out\n        /* \"ABDKMath64x64.sol\":23164:24449  function divuu (uint256 x, uint256 y) private pure returns (uint128) {... */\n    tag_563:\n        /* \"ABDKMath64x64.sol\":23224:23231  uint128 */\n      0x00\n        /* \"ABDKMath64x64.sol\":23266:23267  y */\n      dup2\n        /* \"ABDKMath64x64.sol\":23271:23272  0 */\n      0x00\n        /* \"ABDKMath64x64.sol\":23266:23272  y != 0 */\n      sub\n        /* \"ABDKMath64x64.sol\":23257:23273  require (y != 0) */\n      tag_670\n      jumpi\n      0x00\n      dup1\n      revert\n    tag_670:\n        /* \"ABDKMath64x64.sol\":23282:23296  uint256 result */\n      0x00\n        /* \"ABDKMath64x64.sol\":23314:23364  0xFFFFFFFFFFFFFFFFFFFFFFFFFFFFFFFFFFFFFFFFFFFFFFFF */\n      0xffffffffffffffffffffffffffffffffffffffffffffffff\n        /* \"ABDKMath64x64.sol\":23309:23310  x */\n      dup5\n        /* \"ABDKMath64x64.sol\":23309:23364  x <= 0xFFFFFFFFFFFFFFFFFFFFFFFFFFFFFFFFFFFFFFFFFFFFFFFF */\n      gt\n        /* \"ABDKMath64x64.sol\":23305:24345  if (x <= 0xFFFFFFFFFFFFFFFFFFFFFFFFFFFFFFFFFFFFFFFFFFFFFFFF)... */\n      tag_671\n      jumpi\n        /* \"ABDKMath64x64.sol\":23395:23396  y */\n      dup3\n        /* \"ABDKMath64x64.sol\":23389:23391  64 */\n      0x40\n        /* \"ABDKMath64x64.sol\":23384:23385  x */\n      dup6\n        /* \"ABDKMath64x64.sol\":23384:23391  x << 64 */\n      swap1\n      shl\n        /* \"ABDKMath64x64.sol\":23383:23396  (x << 64) / y */\n      dup2\n      tag_673\n      jumpi\n      tag_673\n      tag_569\n      jump\t// in\n    tag_673:\n      div\n        /* \"ABDKMath64x64.sol\":23374:23396  result = (x << 64) / y */\n      swap1\n      pop\n        /* \"ABDKMath64x64.sol\":23305:24345  if (x <= 0xFFFFFFFFFFFFFFFFFFFFFFFFFFFFFFFFFFFFFFFFFFFFFFFF)... */\n      jump(tag_674)\n    tag_671:\n        /* \"ABDKMath64x64.sol\":23433:23436  192 */\n      0xc0\n        /* \"ABDKMath64x64.sol\":23459:23467  x >> 192 */\n      dup5\n      dup2\n      shr\n        /* \"ABDKMath64x64.sol\":23487:23498  0x100000000 */\n      0x0100000000\n        /* \"ABDKMath64x64.sol\":23481:23498  xc >= 0x100000000 */\n      dup2\n      lt\n        /* \"ABDKMath64x64.sol\":23477:23525  if (xc >= 0x100000000) { xc >>= 32; msb += 32; } */\n      tag_675\n      jumpi\n        /* \"ABDKMath64x64.sol\":23509:23511  32 */\n      0x20\n        /* \"ABDKMath64x64.sol\":23513:23522  msb += 32 */\n      swap2\n      dup3\n      add\n      swap2\n        /* \"ABDKMath64x64.sol\":23502:23511  xc >>= 32 */\n      shr\n        /* \"ABDKMath64x64.sol\":23477:23525  if (xc >= 0x100000000) { xc >>= 32; msb += 32; } */\n    tag_675:\n        /* \"ABDKMath64x64.sol\":23544:23551  0x10000 */\n      0x010000\n        /* \"ABDKMath64x64.sol\":23538:23540  xc */\n      dup2\n        /* \"ABDKMath64x64.sol\":23538:23551  xc >= 0x10000 */\n      lt\n        /* \"ABDKMath64x64.sol\":23534:23578  if (xc >= 0x10000) { xc >>= 16; msb += 16; } */\n      tag_676\n      jumpi\n        /* \"ABDKMath64x64.sol\":23562:23564  16 */\n      0x10\n        /* \"ABDKMath64x64.sol\":23566:23575  msb += 16 */\n      swap2\n      dup3\n      add\n      swap2\n        /* \"ABDKMath64x64.sol\":23555:23564  xc >>= 16 */\n      shr\n        /* \"ABDKMath64x64.sol\":23534:23578  if (xc >= 0x10000) { xc >>= 16; msb += 16; } */\n    tag_676:\n        /* \"ABDKMath64x64.sol\":23597:23602  0x100 */\n      0x0100\n        /* \"ABDKMath64x64.sol\":23591:23593  xc */\n      dup2\n        /* \"ABDKMath64x64.sol\":23591:23602  xc >= 0x100 */\n      lt\n        /* \"ABDKMath64x64.sol\":23587:23627  if (xc >= 0x100) { xc >>= 8; msb += 8; } */\n      tag_677\n      jumpi\n        /* \"ABDKMath64x64.sol\":23613:23614  8 */\n      0x08\n        /* \"ABDKMath64x64.sol\":23616:23624  msb += 8 */\n      swap2\n      dup3\n      add\n      swap2\n        /* \"ABDKMath64x64.sol\":23606:23614  xc >>= 8 */\n      shr\n        /* \"ABDKMath64x64.sol\":23587:23627  if (xc >= 0x100) { xc >>= 8; msb += 8; } */\n    tag_677:\n        /* \"ABDKMath64x64.sol\":23646:23650  0x10 */\n      0x10\n        /* \"ABDKMath64x64.sol\":23640:23642  xc */\n      dup2\n        /* \"ABDKMath64x64.sol\":23640:23650  xc >= 0x10 */\n      lt\n        /* \"ABDKMath64x64.sol\":23636:23675  if (xc >= 0x10) { xc >>= 4; msb += 4; } */\n      tag_678\n      jumpi\n        /* \"ABDKMath64x64.sol\":23661:23662  4 */\n      0x04\n        /* \"ABDKMath64x64.sol\":23664:23672  msb += 4 */\n      swap2\n      dup3\n      add\n      swap2\n        /* \"ABDKMath64x64.sol\":23654:23662  xc >>= 4 */\n      shr\n        /* \"ABDKMath64x64.sol\":23636:23675  if (xc >= 0x10) { xc >>= 4; msb += 4; } */\n    tag_678:\n        /* \"ABDKMath64x64.sol\":23694:23697  0x4 */\n      0x04\n        /* \"ABDKMath64x64.sol\":23688:23690  xc */\n      dup2\n        /* \"ABDKMath64x64.sol\":23688:23697  xc >= 0x4 */\n      lt\n        /* \"ABDKMath64x64.sol\":23684:23722  if (xc >= 0x4) { xc >>= 2; msb += 2; } */\n      tag_679\n      jumpi\n        /* \"ABDKMath64x64.sol\":23708:23709  2 */\n      0x02\n        /* \"ABDKMath64x64.sol\":23711:23719  msb += 2 */\n      swap2\n      dup3\n      add\n      swap2\n        /* \"ABDKMath64x64.sol\":23701:23709  xc >>= 2 */\n      shr\n        /* \"ABDKMath64x64.sol\":23684:23722  if (xc >= 0x4) { xc >>= 2; msb += 2; } */\n    tag_679:\n        /* \"ABDKMath64x64.sol\":23741:23744  0x2 */\n      0x02\n        /* \"ABDKMath64x64.sol\":23735:23737  xc */\n      dup2\n        /* \"ABDKMath64x64.sol\":23735:23744  xc >= 0x2 */\n      lt\n        /* \"ABDKMath64x64.sol\":23731:23754  if (xc >= 0x2) msb += 1 */\n      tag_680\n      jumpi\n        /* \"ABDKMath64x64.sol\":23753:23754  1 */\n      0x01\n        /* \"ABDKMath64x64.sol\":23746:23754  msb += 1 */\n      dup3\n      add\n      swap2\n      pop\n        /* \"ABDKMath64x64.sol\":23731:23754  if (xc >= 0x2) msb += 1 */\n    tag_680:\n        /* \"ABDKMath64x64.sol\":23842:23845  191 */\n      0xbf\n        /* \"ABDKMath64x64.sol\":23836:23839  msb */\n      dup3\n        /* \"ABDKMath64x64.sol\":23836:23845  msb - 191 */\n      sub\n        /* \"ABDKMath64x64.sol\":23831:23832  1 */\n      0x01\n        /* \"ABDKMath64x64.sol\":23827:23828  y */\n      dup7\n        /* \"ABDKMath64x64.sol\":23827:23832  y - 1 */\n      sub\n        /* \"ABDKMath64x64.sol\":23827:23845  y - 1 >> msb - 191 */\n      swap1\n      shr\n        /* \"ABDKMath64x64.sol\":23849:23850  1 */\n      0x01\n        /* \"ABDKMath64x64.sol\":23826:23850  (y - 1 >> msb - 191) + 1 */\n      add\n        /* \"ABDKMath64x64.sol\":23818:23821  msb */\n      dup3\n        /* \"ABDKMath64x64.sol\":23812:23815  255 */\n      0xff\n        /* \"ABDKMath64x64.sol\":23812:23821  255 - msb */\n      sub\n        /* \"ABDKMath64x64.sol\":23807:23808  x */\n      dup8\n        /* \"ABDKMath64x64.sol\":23807:23821  x << 255 - msb */\n      swap1\n      shl\n        /* \"ABDKMath64x64.sol\":23806:23851  (x << 255 - msb) / ((y - 1 >> msb - 191) + 1) */\n      dup2\n      tag_682\n      jumpi\n      tag_682\n      tag_569\n      jump\t// in\n    tag_682:\n      div\n        /* \"ABDKMath64x64.sol\":23797:23851  result = (x << 255 - msb) / ((y - 1 >> msb - 191) + 1) */\n      swap3\n      pop\n      sub(shl(0x80, 0x01), 0x01)\n        /* \"ABDKMath64x64.sol\":23870:23876  result */\n      dup4\n        /* \"ABDKMath64x64.sol\":23870:23914  result <= 0xFFFFFFFFFFFFFFFFFFFFFFFFFFFFFFFF */\n      gt\n      iszero\n        /* \"ABDKMath64x64.sol\":23861:23915  require (result <= 0xFFFFFFFFFFFFFFFFFFFFFFFFFFFFFFFF) */\n      tag_683\n      jumpi\n      0x00\n      dup1\n      revert\n    tag_683:\n        /* \"ABDKMath64x64.sol\":23954:23957  128 */\n      0x80\n        /* \"ABDKMath64x64.sol\":23949:23957  y >> 128 */\n      dup6\n      swap1\n      shr\n        /* \"ABDKMath64x64.sol\":23939:23958  result * (y >> 128) */\n      dup4\n      mul\n      sub(shl(0x80, 0x01), 0x01)\n        /* \"ABDKMath64x64.sol\":23991:24029  y & 0xFFFFFFFFFFFFFFFFFFFFFFFFFFFFFFFF */\n      dup7\n      and\n        /* \"ABDKMath64x64.sol\":23981:24030  result * (y & 0xFFFFFFFFFFFFFFFFFFFFFFFFFFFFFFFF) */\n      dup5\n      mul\n        /* \"ABDKMath64x64.sol\":24059:24062  192 */\n      0xc0\n        /* \"ABDKMath64x64.sol\":24054:24062  x >> 192 */\n      dup9\n      swap1\n      shr\n        /* \"ABDKMath64x64.sol\":24090:24092  64 */\n      0x40\n        /* \"ABDKMath64x64.sol\":24085:24092  x << 64 */\n      dup10\n      swap1\n      shl\n        /* \"ABDKMath64x64.sol\":24107:24114  xl < lo */\n      dup3\n      dup2\n      lt\n        /* \"ABDKMath64x64.sol\":24103:24123  if (xl < lo) xh -= 1 */\n      iszero\n      tag_684\n      jumpi\n        /* \"ABDKMath64x64.sol\":24122:24123  1 */\n      0x01\n        /* \"ABDKMath64x64.sol\":24116:24123  xh -= 1 */\n      dup3\n      sub\n      swap2\n      pop\n        /* \"ABDKMath64x64.sol\":24103:24123  if (xl < lo) xh -= 1 */\n    tag_684:\n        /* \"ABDKMath64x64.sol\":24199:24202  128 */\n      0x80\n        /* \"ABDKMath64x64.sol\":24193:24202  hi << 128 */\n      dup5\n      swap1\n      shl\n      swap3\n        /* \"ABDKMath64x64.sol\":24133:24141  xl -= lo */\n      swap1\n      sub\n        /* \"ABDKMath64x64.sol\":24216:24223  xl < lo */\n      dup3\n      dup2\n      lt\n        /* \"ABDKMath64x64.sol\":24212:24232  if (xl < lo) xh -= 1 */\n      iszero\n      tag_685\n      jumpi\n        /* \"ABDKMath64x64.sol\":24231:24232  1 */\n      0x01\n        /* \"ABDKMath64x64.sol\":24225:24232  xh -= 1 */\n      dup3\n      sub\n      swap2\n      pop\n        /* \"ABDKMath64x64.sol\":24212:24232  if (xl < lo) xh -= 1 */\n    tag_685:\n        /* \"ABDKMath64x64.sol\":24242:24250  xl -= lo */\n      dup3\n      swap1\n      sub\n        /* \"ABDKMath64x64.sol\":24320:24323  128 */\n      0x80\n        /* \"ABDKMath64x64.sol\":24314:24323  hi >> 128 */\n      dup5\n      swap1\n      shr\n        /* \"ABDKMath64x64.sol\":24308:24323  xh == hi >> 128 */\n      dup3\n      eq\n        /* \"ABDKMath64x64.sol\":24308:24336  xh == hi >> 128 ? xl / y : 1 */\n      tag_686\n      jumpi\n        /* \"ABDKMath64x64.sol\":24335:24336  1 */\n      0x01\n        /* \"ABDKMath64x64.sol\":24308:24336  xh == hi >> 128 ? xl / y : 1 */\n      jump(tag_687)\n    tag_686:\n        /* \"ABDKMath64x64.sol\":24331:24332  y */\n      dup9\n        /* \"ABDKMath64x64.sol\":24326:24328  xl */\n      dup2\n        /* \"ABDKMath64x64.sol\":24326:24332  xl / y */\n      dup2\n      tag_689\n      jumpi\n      tag_689\n      tag_569\n      jump\t// in\n    tag_689:\n      div\n        /* \"ABDKMath64x64.sol\":24308:24336  xh == hi >> 128 ? xl / y : 1 */\n    tag_687:\n        /* \"ABDKMath64x64.sol\":24298:24336  result += xh == hi >> 128 ? xl / y : 1 */\n      dup8\n      add\n      swap7\n      pop\n        /* \"ABDKMath64x64.sol\":23409:24345  {... */\n      pop\n      pop\n      pop\n      pop\n      pop\n      pop\n        /* \"ABDKMath64x64.sol\":23305:24345  if (x <= 0xFFFFFFFFFFFFFFFFFFFFFFFFFFFFFFFFFFFFFFFFFFFFFFFF)... */\n    tag_674:\n      sub(shl(0x80, 0x01), 0x01)\n        /* \"ABDKMath64x64.sol\":24362:24368  result */\n      dup2\n        /* \"ABDKMath64x64.sol\":24362:24406  result <= 0xFFFFFFFFFFFFFFFFFFFFFFFFFFFFFFFF */\n      gt\n      iszero\n        /* \"ABDKMath64x64.sol\":24353:24407  require (result <= 0xFFFFFFFFFFFFFFFFFFFFFFFFFFFFFFFF) */\n      tag_321\n      jumpi\n      0x00\n      dup1\n      revert\n        /* \"ABDKMath64x64.sol\":15544:22385  function exp_2 (int128 x) internal pure returns (int128) {... */\n    tag_576:\n        /* \"ABDKMath64x64.sol\":15593:15599  int128 */\n      0x00\n        /* \"ABDKMath64x64.sol\":15638:15658  0x400000000000000000 */\n      0x400000000000000000\n        /* \"ABDKMath64x64.sol\":15634:15635  x */\n      dup3\n        /* \"ABDKMath64x64.sol\":15634:15658  x < 0x400000000000000000 */\n      0x0f\n      signextend\n      slt\n        /* \"ABDKMath64x64.sol\":15625:15659  require (x < 0x400000000000000000) */\n      tag_692\n      jumpi\n      0x00\n      dup1\n      revert\n    tag_692:\n      not(0x3fffffffffffffffff)\n        /* \"ABDKMath64x64.sol\":15684:15685  x */\n      dup3\n        /* \"ABDKMath64x64.sol\":15684:15709  x < -0x400000000000000000 */\n      0x0f\n      signextend\n      slt\n        /* \"ABDKMath64x64.sol\":15680:15719  if (x < -0x400000000000000000) return 0 */\n      iszero\n      tag_693\n      jumpi\n      pop\n        /* \"ABDKMath64x64.sol\":15718:15719  0 */\n      0x00\n      swap2\n        /* \"ABDKMath64x64.sol\":15544:22385  function exp_2 (int128 x) internal pure returns (int128) {... */\n      swap1\n      pop\n      jump\t// out\n        /* \"ABDKMath64x64.sol\":15680:15719  if (x < -0x400000000000000000) return 0 */\n    tag_693:\n        /* \"ABDKMath64x64.sol\":15758:15792  0x80000000000000000000000000000000 */\n      0x80000000000000000000000000000000\n        /* \"ABDKMath64x64.sol\":15741:15755  uint256 result */\n      0x00\n        /* \"ABDKMath64x64.sol\":15809:15827  0x8000000000000000 */\n      0x8000000000000000\n        /* \"ABDKMath64x64.sol\":15805:15827  x & 0x8000000000000000 */\n      dup5\n      and\n        /* \"ABDKMath64x64.sol\":15805:15831  x & 0x8000000000000000 > 0 */\n      0x0f\n      signextend\n      sgt\n        /* \"ABDKMath64x64.sol\":15801:15901  if (x & 0x8000000000000000 > 0)... */\n      iszero\n      tag_694\n      jumpi\n        /* \"ABDKMath64x64.sol\":15859:15894  0x16A09E667F3BCC908B2FB1366EA957D3E */\n      0x016a09e667f3bcc908b2fb1366ea957d3e\n        /* \"ABDKMath64x64.sol\":15850:15894  result * 0x16A09E667F3BCC908B2FB1366EA957D3E */\n      mul\n        /* \"ABDKMath64x64.sol\":15898:15901  128 */\n      0x80\n        /* \"ABDKMath64x64.sol\":15850:15901  result * 0x16A09E667F3BCC908B2FB1366EA957D3E >> 128 */\n      shr\n        /* \"ABDKMath64x64.sol\":15801:15901  if (x & 0x8000000000000000 > 0)... */\n    tag_694:\n        /* \"ABDKMath64x64.sol\":15938:15939  0 */\n      0x00\n        /* \"ABDKMath64x64.sol\":15913:15914  x */\n      dup4\n        /* \"ABDKMath64x64.sol\":15917:15935  0x4000000000000000 */\n      0x4000000000000000\n        /* \"ABDKMath64x64.sol\":15913:15935  x & 0x4000000000000000 */\n      and\n        /* \"ABDKMath64x64.sol\":15913:15939  x & 0x4000000000000000 > 0 */\n      0x0f\n      signextend\n      sgt\n        /* \"ABDKMath64x64.sol\":15909:16009  if (x & 0x4000000000000000 > 0)... */\n      iszero\n      tag_695\n      jumpi\n        /* \"ABDKMath64x64.sol\":15967:16002  0x1306FE0A31B7152DE8D5A46305C85EDEC */\n      0x01306fe0a31b7152de8d5a46305c85edec\n        /* \"ABDKMath64x64.sol\":15958:16002  result * 0x1306FE0A31B7152DE8D5A46305C85EDEC */\n      mul\n        /* \"ABDKMath64x64.sol\":16006:16009  128 */\n      0x80\n        /* \"ABDKMath64x64.sol\":15958:16009  result * 0x1306FE0A31B7152DE8D5A46305C85EDEC >> 128 */\n      shr\n        /* \"ABDKMath64x64.sol\":15909:16009  if (x & 0x4000000000000000 > 0)... */\n    tag_695:\n        /* \"ABDKMath64x64.sol\":16046:16047  0 */\n      0x00\n        /* \"ABDKMath64x64.sol\":16021:16022  x */\n      dup4\n        /* \"ABDKMath64x64.sol\":16025:16043  0x2000000000000000 */\n      0x2000000000000000\n        /* \"ABDKMath64x64.sol\":16021:16043  x & 0x2000000000000000 */\n      and\n        /* \"ABDKMath64x64.sol\":16021:16047  x & 0x2000000000000000 > 0 */\n      0x0f\n      signextend\n      sgt\n        /* \"ABDKMath64x64.sol\":16017:16117  if (x & 0x2000000000000000 > 0)... */\n      iszero\n      tag_696\n      jumpi\n        /* \"ABDKMath64x64.sol\":16075:16110  0x1172B83C7D517ADCDF7C8C50EB14A791F */\n      0x01172b83c7d517adcdf7c8c50eb14a791f\n        /* \"ABDKMath64x64.sol\":16066:16110  result * 0x1172B83C7D517ADCDF7C8C50EB14A791F */\n      mul\n        /* \"ABDKMath64x64.sol\":16114:16117  128 */\n      0x80\n        /* \"ABDKMath64x64.sol\":16066:16117  result * 0x1172B83C7D517ADCDF7C8C50EB14A791F >> 128 */\n      shr\n        /* \"ABDKMath64x64.sol\":16017:16117  if (x & 0x2000000000000000 > 0)... */\n    tag_696:\n        /* \"ABDKMath64x64.sol\":16154:16155  0 */\n      0x00\n        /* \"ABDKMath64x64.sol\":16129:16130  x */\n      dup4\n        /* \"ABDKMath64x64.sol\":16133:16151  0x1000000000000000 */\n      0x1000000000000000\n        /* \"ABDKMath64x64.sol\":16129:16151  x & 0x1000000000000000 */\n      and\n        /* \"ABDKMath64x64.sol\":16129:16155  x & 0x1000000000000000 > 0 */\n      0x0f\n      signextend\n      sgt\n        /* \"ABDKMath64x64.sol\":16125:16225  if (x & 0x1000000000000000 > 0)... */\n      iszero\n      tag_697\n      jumpi\n        /* \"ABDKMath64x64.sol\":16183:16218  0x10B5586CF9890F6298B92B71842A98363 */\n      0x010b5586cf9890f6298b92b71842a98363\n        /* \"ABDKMath64x64.sol\":16174:16218  result * 0x10B5586CF9890F6298B92B71842A98363 */\n      mul\n        /* \"ABDKMath64x64.sol\":16222:16225  128 */\n      0x80\n        /* \"ABDKMath64x64.sol\":16174:16225  result * 0x10B5586CF9890F6298B92B71842A98363 >> 128 */\n      shr\n        /* \"ABDKMath64x64.sol\":16125:16225  if (x & 0x1000000000000000 > 0)... */\n    tag_697:\n        /* \"ABDKMath64x64.sol\":16261:16262  0 */\n      0x00\n        /* \"ABDKMath64x64.sol\":16237:16238  x */\n      dup4\n        /* \"ABDKMath64x64.sol\":16241:16258  0x800000000000000 */\n      0x0800000000000000\n        /* \"ABDKMath64x64.sol\":16237:16258  x & 0x800000000000000 */\n      and\n        /* \"ABDKMath64x64.sol\":16237:16262  x & 0x800000000000000 > 0 */\n      0x0f\n      signextend\n      sgt\n        /* \"ABDKMath64x64.sol\":16233:16332  if (x & 0x800000000000000 > 0)... */\n      iszero\n      tag_698\n      jumpi\n        /* \"ABDKMath64x64.sol\":16290:16325  0x1059B0D31585743AE7C548EB68CA417FD */\n      0x01059b0d31585743ae7c548eb68ca417fd\n        /* \"ABDKMath64x64.sol\":16281:16325  result * 0x1059B0D31585743AE7C548EB68CA417FD */\n      mul\n        /* \"ABDKMath64x64.sol\":16329:16332  128 */\n      0x80\n        /* \"ABDKMath64x64.sol\":16281:16332  result * 0x1059B0D31585743AE7C548EB68CA417FD >> 128 */\n      shr\n        /* \"ABDKMath64x64.sol\":16233:16332  if (x & 0x800000000000000 > 0)... */\n    tag_698:\n        /* \"ABDKMath64x64.sol\":16368:16369  0 */\n      0x00\n        /* \"ABDKMath64x64.sol\":16344:16345  x */\n      dup4\n        /* \"ABDKMath64x64.sol\":16348:16365  0x400000000000000 */\n      0x0400000000000000\n        /* \"ABDKMath64x64.sol\":16344:16365  x & 0x400000000000000 */\n      and\n        /* \"ABDKMath64x64.sol\":16344:16369  x & 0x400000000000000 > 0 */\n      0x0f\n      signextend\n      sgt\n        /* \"ABDKMath64x64.sol\":16340:16439  if (x & 0x400000000000000 > 0)... */\n      iszero\n      tag_699\n      jumpi\n        /* \"ABDKMath64x64.sol\":16397:16432  0x102C9A3E778060EE6F7CACA4F7A29BDE8 */\n      0x0102c9a3e778060ee6f7caca4f7a29bde8\n        /* \"ABDKMath64x64.sol\":16388:16432  result * 0x102C9A3E778060EE6F7CACA4F7A29BDE8 */\n      mul\n        /* \"ABDKMath64x64.sol\":16436:16439  128 */\n      0x80\n        /* \"ABDKMath64x64.sol\":16388:16439  result * 0x102C9A3E778060EE6F7CACA4F7A29BDE8 >> 128 */\n      shr\n        /* \"ABDKMath64x64.sol\":16340:16439  if (x & 0x400000000000000 > 0)... */\n    tag_699:\n        /* \"ABDKMath64x64.sol\":16475:16476  0 */\n      0x00\n        /* \"ABDKMath64x64.sol\":16451:16452  x */\n      dup4\n        /* \"ABDKMath64x64.sol\":16455:16472  0x200000000000000 */\n      0x0200000000000000\n        /* \"ABDKMath64x64.sol\":16451:16472  x & 0x200000000000000 */\n      and\n        /* \"ABDKMath64x64.sol\":16451:16476  x & 0x200000000000000 > 0 */\n      0x0f\n      signextend\n      sgt\n        /* \"ABDKMath64x64.sol\":16447:16546  if (x & 0x200000000000000 > 0)... */\n      iszero\n      tag_700\n      jumpi\n        /* \"ABDKMath64x64.sol\":16504:16539  0x10163DA9FB33356D84A66AE336DCDFA3F */\n      0x010163da9fb33356d84a66ae336dcdfa3f\n        /* \"ABDKMath64x64.sol\":16495:16539  result * 0x10163DA9FB33356D84A66AE336DCDFA3F */\n      mul\n        /* \"ABDKMath64x64.sol\":16543:16546  128 */\n      0x80\n        /* \"ABDKMath64x64.sol\":16495:16546  result * 0x10163DA9FB33356D84A66AE336DCDFA3F >> 128 */\n      shr\n        /* \"ABDKMath64x64.sol\":16447:16546  if (x & 0x200000000000000 > 0)... */\n    tag_700:\n        /* \"ABDKMath64x64.sol\":16582:16583  0 */\n      0x00\n        /* \"ABDKMath64x64.sol\":16558:16559  x */\n      dup4\n        /* \"ABDKMath64x64.sol\":16562:16579  0x100000000000000 */\n      0x0100000000000000\n        /* \"ABDKMath64x64.sol\":16558:16579  x & 0x100000000000000 */\n      and\n        /* \"ABDKMath64x64.sol\":16558:16583  x & 0x100000000000000 > 0 */\n      0x0f\n      signextend\n      sgt\n        /* \"ABDKMath64x64.sol\":16554:16653  if (x & 0x100000000000000 > 0)... */\n      iszero\n      tag_701\n      jumpi\n        /* \"ABDKMath64x64.sol\":16611:16646  0x100B1AFA5ABCBED6129AB13EC11DC9543 */\n      0x0100b1afa5abcbed6129ab13ec11dc9543\n        /* \"ABDKMath64x64.sol\":16602:16646  result * 0x100B1AFA5ABCBED6129AB13EC11DC9543 */\n      mul\n        /* \"ABDKMath64x64.sol\":16650:16653  128 */\n      0x80\n        /* \"ABDKMath64x64.sol\":16602:16653  result * 0x100B1AFA5ABCBED6129AB13EC11DC9543 >> 128 */\n      shr\n        /* \"ABDKMath64x64.sol\":16554:16653  if (x & 0x100000000000000 > 0)... */\n    tag_701:\n        /* \"ABDKMath64x64.sol\":16688:16689  0 */\n      0x00\n        /* \"ABDKMath64x64.sol\":16665:16666  x */\n      dup4\n        /* \"ABDKMath64x64.sol\":16669:16685  0x80000000000000 */\n      0x80000000000000\n        /* \"ABDKMath64x64.sol\":16665:16685  x & 0x80000000000000 */\n      and\n        /* \"ABDKMath64x64.sol\":16665:16689  x & 0x80000000000000 > 0 */\n      0x0f\n      signextend\n      sgt\n        /* \"ABDKMath64x64.sol\":16661:16759  if (x & 0x80000000000000 > 0)... */\n      iszero\n      tag_702\n      jumpi\n        /* \"ABDKMath64x64.sol\":16717:16752  0x10058C86DA1C09EA1FF19D294CF2F679B */\n      0x010058c86da1c09ea1ff19d294cf2f679b\n        /* \"ABDKMath64x64.sol\":16708:16752  result * 0x10058C86DA1C09EA1FF19D294CF2F679B */\n      mul\n        /* \"ABDKMath64x64.sol\":16756:16759  128 */\n      0x80\n        /* \"ABDKMath64x64.sol\":16708:16759  result * 0x10058C86DA1C09EA1FF19D294CF2F679B >> 128 */\n      shr\n        /* \"ABDKMath64x64.sol\":16661:16759  if (x & 0x80000000000000 > 0)... */\n    tag_702:\n        /* \"ABDKMath64x64.sol\":16794:16795  0 */\n      0x00\n        /* \"ABDKMath64x64.sol\":16771:16772  x */\n      dup4\n        /* \"ABDKMath64x64.sol\":16775:16791  0x40000000000000 */\n      0x40000000000000\n        /* \"ABDKMath64x64.sol\":16771:16791  x & 0x40000000000000 */\n      and\n        /* \"ABDKMath64x64.sol\":16771:16795  x & 0x40000000000000 > 0 */\n      0x0f\n      signextend\n      sgt\n        /* \"ABDKMath64x64.sol\":16767:16865  if (x & 0x40000000000000 > 0)... */\n      iszero\n      tag_703\n      jumpi\n        /* \"ABDKMath64x64.sol\":16823:16858  0x1002C605E2E8CEC506D21BFC89A23A00F */\n      0x01002c605e2e8cec506d21bfc89a23a00f\n        /* \"ABDKMath64x64.sol\":16814:16858  result * 0x1002C605E2E8CEC506D21BFC89A23A00F */\n      mul\n        /* \"ABDKMath64x64.sol\":16862:16865  128 */\n      0x80\n        /* \"ABDKMath64x64.sol\":16814:16865  result * 0x1002C605E2E8CEC506D21BFC89A23A00F >> 128 */\n      shr\n        /* \"ABDKMath64x64.sol\":16767:16865  if (x & 0x40000000000000 > 0)... */\n    tag_703:\n        /* \"ABDKMath64x64.sol\":16900:16901  0 */\n      0x00\n        /* \"ABDKMath64x64.sol\":16877:16878  x */\n      dup4\n        /* \"ABDKMath64x64.sol\":16881:16897  0x20000000000000 */\n      0x20000000000000\n        /* \"ABDKMath64x64.sol\":16877:16897  x & 0x20000000000000 */\n      and\n        /* \"ABDKMath64x64.sol\":16877:16901  x & 0x20000000000000 > 0 */\n      0x0f\n      signextend\n      sgt\n        /* \"ABDKMath64x64.sol\":16873:16971  if (x & 0x20000000000000 > 0)... */\n      iszero\n      tag_704\n      jumpi\n        /* \"ABDKMath64x64.sol\":16929:16964  0x100162F3904051FA128BCA9C55C31E5DF */\n      0x0100162f3904051fa128bca9c55c31e5df\n        /* \"ABDKMath64x64.sol\":16920:16964  result * 0x100162F3904051FA128BCA9C55C31E5DF */\n      mul\n        /* \"ABDKMath64x64.sol\":16968:16971  128 */\n      0x80\n        /* \"ABDKMath64x64.sol\":16920:16971  result * 0x100162F3904051FA128BCA9C55C31E5DF >> 128 */\n      shr\n        /* \"ABDKMath64x64.sol\":16873:16971  if (x & 0x20000000000000 > 0)... */\n    tag_704:\n        /* \"ABDKMath64x64.sol\":17006:17007  0 */\n      0x00\n        /* \"ABDKMath64x64.sol\":16983:16984  x */\n      dup4\n        /* \"ABDKMath64x64.sol\":16987:17003  0x10000000000000 */\n      0x10000000000000\n        /* \"ABDKMath64x64.sol\":16983:17003  x & 0x10000000000000 */\n      and\n        /* \"ABDKMath64x64.sol\":16983:17007  x & 0x10000000000000 > 0 */\n      0x0f\n      signextend\n      sgt\n        /* \"ABDKMath64x64.sol\":16979:17077  if (x & 0x10000000000000 > 0)... */\n      iszero\n      tag_705\n      jumpi\n        /* \"ABDKMath64x64.sol\":17035:17070  0x1000B175EFFDC76BA38E31671CA939725 */\n      0x01000b175effdc76ba38e31671ca939725\n        /* \"ABDKMath64x64.sol\":17026:17070  result * 0x1000B175EFFDC76BA38E31671CA939725 */\n      mul\n        /* \"ABDKMath64x64.sol\":17074:17077  128 */\n      0x80\n        /* \"ABDKMath64x64.sol\":17026:17077  result * 0x1000B175EFFDC76BA38E31671CA939725 >> 128 */\n      shr\n        /* \"ABDKMath64x64.sol\":16979:17077  if (x & 0x10000000000000 > 0)... */\n    tag_705:\n        /* \"ABDKMath64x64.sol\":17111:17112  0 */\n      0x00\n        /* \"ABDKMath64x64.sol\":17089:17090  x */\n      dup4\n        /* \"ABDKMath64x64.sol\":17093:17108  0x8000000000000 */\n      0x08000000000000\n        /* \"ABDKMath64x64.sol\":17089:17108  x & 0x8000000000000 */\n      and\n        /* \"ABDKMath64x64.sol\":17089:17112  x & 0x8000000000000 > 0 */\n      0x0f\n      signextend\n      sgt\n        /* \"ABDKMath64x64.sol\":17085:17182  if (x & 0x8000000000000 > 0)... */\n      iszero\n      tag_706\n      jumpi\n        /* \"ABDKMath64x64.sol\":17140:17175  0x100058BA01FB9F96D6CACD4B180917C3D */\n      0x0100058ba01fb9f96d6cacd4b180917c3d\n        /* \"ABDKMath64x64.sol\":17131:17175  result * 0x100058BA01FB9F96D6CACD4B180917C3D */\n      mul\n        /* \"ABDKMath64x64.sol\":17179:17182  128 */\n      0x80\n        /* \"ABDKMath64x64.sol\":17131:17182  result * 0x100058BA01FB9F96D6CACD4B180917C3D >> 128 */\n      shr\n        /* \"ABDKMath64x64.sol\":17085:17182  if (x & 0x8000000000000 > 0)... */\n    tag_706:\n        /* \"ABDKMath64x64.sol\":17216:17217  0 */\n      0x00\n        /* \"ABDKMath64x64.sol\":17194:17195  x */\n      dup4\n        /* \"ABDKMath64x64.sol\":17198:17213  0x4000000000000 */\n      0x04000000000000\n        /* \"ABDKMath64x64.sol\":17194:17213  x & 0x4000000000000 */\n      and\n        /* \"ABDKMath64x64.sol\":17194:17217  x & 0x4000000000000 > 0 */\n      0x0f\n      signextend\n      sgt\n        /* \"ABDKMath64x64.sol\":17190:17287  if (x & 0x4000000000000 > 0)... */\n      iszero\n      tag_707\n      jumpi\n        /* \"ABDKMath64x64.sol\":17245:17280  0x10002C5CC37DA9491D0985C348C68E7B3 */\n      0x010002c5cc37da9491d0985c348c68e7b3\n        /* \"ABDKMath64x64.sol\":17236:17280  result * 0x10002C5CC37DA9491D0985C348C68E7B3 */\n      mul\n        /* \"ABDKMath64x64.sol\":17284:17287  128 */\n      0x80\n        /* \"ABDKMath64x64.sol\":17236:17287  result * 0x10002C5CC37DA9491D0985C348C68E7B3 >> 128 */\n      shr\n        /* \"ABDKMath64x64.sol\":17190:17287  if (x & 0x4000000000000 > 0)... */\n    tag_707:\n        /* \"ABDKMath64x64.sol\":17321:17322  0 */\n      0x00\n        /* \"ABDKMath64x64.sol\":17299:17300  x */\n      dup4\n        /* \"ABDKMath64x64.sol\":17303:17318  0x2000000000000 */\n      0x02000000000000\n        /* \"ABDKMath64x64.sol\":17299:17318  x & 0x2000000000000 */\n      and\n        /* \"ABDKMath64x64.sol\":17299:17322  x & 0x2000000000000 > 0 */\n      0x0f\n      signextend\n      sgt\n        /* \"ABDKMath64x64.sol\":17295:17392  if (x & 0x2000000000000 > 0)... */\n      iszero\n      tag_708\n      jumpi\n        /* \"ABDKMath64x64.sol\":17350:17385  0x1000162E525EE054754457D5995292026 */\n      0x01000162e525ee054754457d5995292026\n        /* \"ABDKMath64x64.sol\":17341:17385  result * 0x1000162E525EE054754457D5995292026 */\n      mul\n        /* \"ABDKMath64x64.sol\":17389:17392  128 */\n      0x80\n        /* \"ABDKMath64x64.sol\":17341:17392  result * 0x1000162E525EE054754457D5995292026 >> 128 */\n      shr\n        /* \"ABDKMath64x64.sol\":17295:17392  if (x & 0x2000000000000 > 0)... */\n    tag_708:\n        /* \"ABDKMath64x64.sol\":17426:17427  0 */\n      0x00\n        /* \"ABDKMath64x64.sol\":17404:17405  x */\n      dup4\n        /* \"ABDKMath64x64.sol\":17408:17423  0x1000000000000 */\n      0x01000000000000\n        /* \"ABDKMath64x64.sol\":17404:17423  x & 0x1000000000000 */\n      and\n        /* \"ABDKMath64x64.sol\":17404:17427  x & 0x1000000000000 > 0 */\n      0x0f\n      signextend\n      sgt\n        /* \"ABDKMath64x64.sol\":17400:17497  if (x & 0x1000000000000 > 0)... */\n      iszero\n      tag_709\n      jumpi\n        /* \"ABDKMath64x64.sol\":17455:17490  0x10000B17255775C040618BF4A4ADE83FC */\n      0x010000b17255775c040618bf4a4ade83fc\n        /* \"ABDKMath64x64.sol\":17446:17490  result * 0x10000B17255775C040618BF4A4ADE83FC */\n      mul\n        /* \"ABDKMath64x64.sol\":17494:17497  128 */\n      0x80\n        /* \"ABDKMath64x64.sol\":17446:17497  result * 0x10000B17255775C040618BF4A4ADE83FC >> 128 */\n      shr\n        /* \"ABDKMath64x64.sol\":17400:17497  if (x & 0x1000000000000 > 0)... */\n    tag_709:\n        /* \"ABDKMath64x64.sol\":17530:17531  0 */\n      0x00\n        /* \"ABDKMath64x64.sol\":17509:17510  x */\n      dup4\n        /* \"ABDKMath64x64.sol\":17513:17527  0x800000000000 */\n      0x800000000000\n        /* \"ABDKMath64x64.sol\":17509:17527  x & 0x800000000000 */\n      and\n        /* \"ABDKMath64x64.sol\":17509:17531  x & 0x800000000000 > 0 */\n      0x0f\n      signextend\n      sgt\n        /* \"ABDKMath64x64.sol\":17505:17601  if (x & 0x800000000000 > 0)... */\n      iszero\n      tag_710\n      jumpi\n        /* \"ABDKMath64x64.sol\":17559:17594  0x1000058B91B5BC9AE2EED81E9B7D4CFAB */\n      0x01000058b91b5bc9ae2eed81e9b7d4cfab\n        /* \"ABDKMath64x64.sol\":17550:17594  result * 0x1000058B91B5BC9AE2EED81E9B7D4CFAB */\n      mul\n        /* \"ABDKMath64x64.sol\":17598:17601  128 */\n      0x80\n        /* \"ABDKMath64x64.sol\":17550:17601  result * 0x1000058B91B5BC9AE2EED81E9B7D4CFAB >> 128 */\n      shr\n        /* \"ABDKMath64x64.sol\":17505:17601  if (x & 0x800000000000 > 0)... */\n    tag_710:\n        /* \"ABDKMath64x64.sol\":17634:17635  0 */\n      0x00\n        /* \"ABDKMath64x64.sol\":17613:17614  x */\n      dup4\n        /* \"ABDKMath64x64.sol\":17617:17631  0x400000000000 */\n      0x400000000000\n        /* \"ABDKMath64x64.sol\":17613:17631  x & 0x400000000000 */\n      and\n        /* \"ABDKMath64x64.sol\":17613:17635  x & 0x400000000000 > 0 */\n      0x0f\n      signextend\n      sgt\n        /* \"ABDKMath64x64.sol\":17609:17705  if (x & 0x400000000000 > 0)... */\n      iszero\n      tag_711\n      jumpi\n        /* \"ABDKMath64x64.sol\":17663:17698  0x100002C5C89D5EC6CA4D7C8ACC017B7C9 */\n      0x0100002c5c89d5ec6ca4d7c8acc017b7c9\n        /* \"ABDKMath64x64.sol\":17654:17698  result * 0x100002C5C89D5EC6CA4D7C8ACC017B7C9 */\n      mul\n        /* \"ABDKMath64x64.sol\":17702:17705  128 */\n      0x80\n        /* \"ABDKMath64x64.sol\":17654:17705  result * 0x100002C5C89D5EC6CA4D7C8ACC017B7C9 >> 128 */\n      shr\n        /* \"ABDKMath64x64.sol\":17609:17705  if (x & 0x400000000000 > 0)... */\n    tag_711:\n        /* \"ABDKMath64x64.sol\":17738:17739  0 */\n      0x00\n        /* \"ABDKMath64x64.sol\":17717:17718  x */\n      dup4\n        /* \"ABDKMath64x64.sol\":17721:17735  0x200000000000 */\n      0x200000000000\n        /* \"ABDKMath64x64.sol\":17717:17735  x & 0x200000000000 */\n      and\n        /* \"ABDKMath64x64.sol\":17717:17739  x & 0x200000000000 > 0 */\n      0x0f\n      signextend\n      sgt\n        /* \"ABDKMath64x64.sol\":17713:17809  if (x & 0x200000000000 > 0)... */\n      iszero\n      tag_712\n      jumpi\n        /* \"ABDKMath64x64.sol\":17767:17802  0x10000162E43F4F831060E02D839A9D16D */\n      0x010000162e43f4f831060e02d839a9d16d\n        /* \"ABDKMath64x64.sol\":17758:17802  result * 0x10000162E43F4F831060E02D839A9D16D */\n      mul\n        /* \"ABDKMath64x64.sol\":17806:17809  128 */\n      0x80\n        /* \"ABDKMath64x64.sol\":17758:17809  result * 0x10000162E43F4F831060E02D839A9D16D >> 128 */\n      shr\n        /* \"ABDKMath64x64.sol\":17713:17809  if (x & 0x200000000000 > 0)... */\n    tag_712:\n        /* \"ABDKMath64x64.sol\":17842:17843  0 */\n      0x00\n        /* \"ABDKMath64x64.sol\":17821:17822  x */\n      dup4\n        /* \"ABDKMath64x64.sol\":17825:17839  0x100000000000 */\n      0x100000000000\n        /* \"ABDKMath64x64.sol\":17821:17839  x & 0x100000000000 */\n      and\n        /* \"ABDKMath64x64.sol\":17821:17843  x & 0x100000000000 > 0 */\n      0x0f\n      signextend\n      sgt\n        /* \"ABDKMath64x64.sol\":17817:17913  if (x & 0x100000000000 > 0)... */\n      iszero\n      tag_713\n      jumpi\n        /* \"ABDKMath64x64.sol\":17871:17906  0x100000B1721BCFC99D9F890EA06911763 */\n      0x0100000b1721bcfc99d9f890ea06911763\n        /* \"ABDKMath64x64.sol\":17862:17906  result * 0x100000B1721BCFC99D9F890EA06911763 */\n      mul\n        /* \"ABDKMath64x64.sol\":17910:17913  128 */\n      0x80\n        /* \"ABDKMath64x64.sol\":17862:17913  result * 0x100000B1721BCFC99D9F890EA06911763 >> 128 */\n      shr\n        /* \"ABDKMath64x64.sol\":17817:17913  if (x & 0x100000000000 > 0)... */\n    tag_713:\n        /* \"ABDKMath64x64.sol\":17945:17946  0 */\n      0x00\n        /* \"ABDKMath64x64.sol\":17925:17926  x */\n      dup4\n        /* \"ABDKMath64x64.sol\":17929:17942  0x80000000000 */\n      0x080000000000\n        /* \"ABDKMath64x64.sol\":17925:17942  x & 0x80000000000 */\n      and\n        /* \"ABDKMath64x64.sol\":17925:17946  x & 0x80000000000 > 0 */\n      0x0f\n      signextend\n      sgt\n        /* \"ABDKMath64x64.sol\":17921:18016  if (x & 0x80000000000 > 0)... */\n      iszero\n      tag_714\n      jumpi\n        /* \"ABDKMath64x64.sol\":17974:18009  0x10000058B90CF1E6D97F9CA14DBCC1628 */\n      0x010000058b90cf1e6d97f9ca14dbcc1628\n        /* \"ABDKMath64x64.sol\":17965:18009  result * 0x10000058B90CF1E6D97F9CA14DBCC1628 */\n      mul\n        /* \"ABDKMath64x64.sol\":18013:18016  128 */\n      0x80\n        /* \"ABDKMath64x64.sol\":17965:18016  result * 0x10000058B90CF1E6D97F9CA14DBCC1628 >> 128 */\n      shr\n        /* \"ABDKMath64x64.sol\":17921:18016  if (x & 0x80000000000 > 0)... */\n    tag_714:\n        /* \"ABDKMath64x64.sol\":18048:18049  0 */\n      0x00\n        /* \"ABDKMath64x64.sol\":18028:18029  x */\n      dup4\n        /* \"ABDKMath64x64.sol\":18032:18045  0x40000000000 */\n      0x040000000000\n        /* \"ABDKMath64x64.sol\":18028:18045  x & 0x40000000000 */\n      and\n        /* \"ABDKMath64x64.sol\":18028:18049  x & 0x40000000000 > 0 */\n      0x0f\n      signextend\n      sgt\n        /* \"ABDKMath64x64.sol\":18024:18119  if (x & 0x40000000000 > 0)... */\n      iszero\n      tag_715\n      jumpi\n        /* \"ABDKMath64x64.sol\":18077:18112  0x1000002C5C863B73F016468F6BAC5CA2B */\n      0x01000002c5c863b73f016468f6bac5ca2b\n        /* \"ABDKMath64x64.sol\":18068:18112  result * 0x1000002C5C863B73F016468F6BAC5CA2B */\n      mul\n        /* \"ABDKMath64x64.sol\":18116:18119  128 */\n      0x80\n        /* \"ABDKMath64x64.sol\":18068:18119  result * 0x1000002C5C863B73F016468F6BAC5CA2B >> 128 */\n      shr\n        /* \"ABDKMath64x64.sol\":18024:18119  if (x & 0x40000000000 > 0)... */\n    tag_715:\n        /* \"ABDKMath64x64.sol\":18151:18152  0 */\n      0x00\n        /* \"ABDKMath64x64.sol\":18131:18132  x */\n      dup4\n        /* \"ABDKMath64x64.sol\":18135:18148  0x20000000000 */\n      0x020000000000\n        /* \"ABDKMath64x64.sol\":18131:18148  x & 0x20000000000 */\n      and\n        /* \"ABDKMath64x64.sol\":18131:18152  x & 0x20000000000 > 0 */\n      0x0f\n      signextend\n      sgt\n        /* \"ABDKMath64x64.sol\":18127:18222  if (x & 0x20000000000 > 0)... */\n      iszero\n      tag_716\n      jumpi\n        /* \"ABDKMath64x64.sol\":18180:18215  0x100000162E430E5A18F6119E3C02282A5 */\n      0x0100000162e430e5a18f6119e3c02282a5\n        /* \"ABDKMath64x64.sol\":18171:18215  result * 0x100000162E430E5A18F6119E3C02282A5 */\n      mul\n        /* \"ABDKMath64x64.sol\":18219:18222  128 */\n      0x80\n        /* \"ABDKMath64x64.sol\":18171:18222  result * 0x100000162E430E5A18F6119E3C02282A5 >> 128 */\n      shr\n        /* \"ABDKMath64x64.sol\":18127:18222  if (x & 0x20000000000 > 0)... */\n    tag_716:\n        /* \"ABDKMath64x64.sol\":18254:18255  0 */\n      0x00\n        /* \"ABDKMath64x64.sol\":18234:18235  x */\n      dup4\n        /* \"ABDKMath64x64.sol\":18238:18251  0x10000000000 */\n      0x010000000000\n        /* \"ABDKMath64x64.sol\":18234:18251  x & 0x10000000000 */\n      and\n        /* \"ABDKMath64x64.sol\":18234:18255  x & 0x10000000000 > 0 */\n      0x0f\n      signextend\n      sgt\n        /* \"ABDKMath64x64.sol\":18230:18325  if (x & 0x10000000000 > 0)... */\n      iszero\n      tag_717\n      jumpi\n        /* \"ABDKMath64x64.sol\":18283:18318  0x1000000B1721835514B86E6D96EFD1BFE */\n      0x01000000b1721835514b86e6d96efd1bfe\n        /* \"ABDKMath64x64.sol\":18274:18318  result * 0x1000000B1721835514B86E6D96EFD1BFE */\n      mul\n        /* \"ABDKMath64x64.sol\":18322:18325  128 */\n      0x80\n        /* \"ABDKMath64x64.sol\":18274:18325  result * 0x1000000B1721835514B86E6D96EFD1BFE >> 128 */\n      shr\n        /* \"ABDKMath64x64.sol\":18230:18325  if (x & 0x10000000000 > 0)... */\n    tag_717:\n        /* \"ABDKMath64x64.sol\":18356:18357  0 */\n      0x00\n        /* \"ABDKMath64x64.sol\":18337:18338  x */\n      dup4\n        /* \"ABDKMath64x64.sol\":18341:18353  0x8000000000 */\n      0x8000000000\n        /* \"ABDKMath64x64.sol\":18337:18353  x & 0x8000000000 */\n      and\n        /* \"ABDKMath64x64.sol\":18337:18357  x & 0x8000000000 > 0 */\n      0x0f\n      signextend\n      sgt\n        /* \"ABDKMath64x64.sol\":18333:18427  if (x & 0x8000000000 > 0)... */\n      iszero\n      tag_718\n      jumpi\n        /* \"ABDKMath64x64.sol\":18385:18420  0x100000058B90C0B48C6BE5DF846C5B2EF */\n      0x0100000058b90c0b48c6be5df846c5b2ef\n        /* \"ABDKMath64x64.sol\":18376:18420  result * 0x100000058B90C0B48C6BE5DF846C5B2EF */\n      mul\n        /* \"ABDKMath64x64.sol\":18424:18427  128 */\n      0x80\n        /* \"ABDKMath64x64.sol\":18376:18427  result * 0x100000058B90C0B48C6BE5DF846C5B2EF >> 128 */\n      shr\n        /* \"ABDKMath64x64.sol\":18333:18427  if (x & 0x8000000000 > 0)... */\n    tag_718:\n        /* \"ABDKMath64x64.sol\":18458:18459  0 */\n      0x00\n        /* \"ABDKMath64x64.sol\":18439:18440  x */\n      dup4\n        /* \"ABDKMath64x64.sol\":18443:18455  0x4000000000 */\n      0x4000000000\n        /* \"ABDKMath64x64.sol\":18439:18455  x & 0x4000000000 */\n      and\n        /* \"ABDKMath64x64.sol\":18439:18459  x & 0x4000000000 > 0 */\n      0x0f\n      signextend\n      sgt\n        /* \"ABDKMath64x64.sol\":18435:18529  if (x & 0x4000000000 > 0)... */\n      iszero\n      tag_719\n      jumpi\n        /* \"ABDKMath64x64.sol\":18487:18522  0x10000002C5C8601CC6B9E94213C72737A */\n      0x010000002c5c8601cc6b9e94213c72737a\n        /* \"ABDKMath64x64.sol\":18478:18522  result * 0x10000002C5C8601CC6B9E94213C72737A */\n      mul\n        /* \"ABDKMath64x64.sol\":18526:18529  128 */\n      0x80\n        /* \"ABDKMath64x64.sol\":18478:18529  result * 0x10000002C5C8601CC6B9E94213C72737A >> 128 */\n      shr\n        /* \"ABDKMath64x64.sol\":18435:18529  if (x & 0x4000000000 > 0)... */\n    tag_719:\n        /* \"ABDKMath64x64.sol\":18560:18561  0 */\n      0x00\n        /* \"ABDKMath64x64.sol\":18541:18542  x */\n      dup4\n        /* \"ABDKMath64x64.sol\":18545:18557  0x2000000000 */\n      0x2000000000\n        /* \"ABDKMath64x64.sol\":18541:18557  x & 0x2000000000 */\n      and\n        /* \"ABDKMath64x64.sol\":18541:18561  x & 0x2000000000 > 0 */\n      0x0f\n      signextend\n      sgt\n        /* \"ABDKMath64x64.sol\":18537:18631  if (x & 0x2000000000 > 0)... */\n      iszero\n      tag_720\n      jumpi\n        /* \"ABDKMath64x64.sol\":18589:18624  0x1000000162E42FFF037DF38AA2B219F06 */\n      0x01000000162e42fff037df38aa2b219f06\n        /* \"ABDKMath64x64.sol\":18580:18624  result * 0x1000000162E42FFF037DF38AA2B219F06 */\n      mul\n        /* \"ABDKMath64x64.sol\":18628:18631  128 */\n      0x80\n        /* \"ABDKMath64x64.sol\":18580:18631  result * 0x1000000162E42FFF037DF38AA2B219F06 >> 128 */\n      shr\n        /* \"ABDKMath64x64.sol\":18537:18631  if (x & 0x2000000000 > 0)... */\n    tag_720:\n        /* \"ABDKMath64x64.sol\":18662:18663  0 */\n      0x00\n        /* \"ABDKMath64x64.sol\":18643:18644  x */\n      dup4\n        /* \"ABDKMath64x64.sol\":18647:18659  0x1000000000 */\n      0x1000000000\n        /* \"ABDKMath64x64.sol\":18643:18659  x & 0x1000000000 */\n      and\n        /* \"ABDKMath64x64.sol\":18643:18663  x & 0x1000000000 > 0 */\n      0x0f\n      signextend\n      sgt\n        /* \"ABDKMath64x64.sol\":18639:18733  if (x & 0x1000000000 > 0)... */\n      iszero\n      tag_721\n      jumpi\n        /* \"ABDKMath64x64.sol\":18691:18726  0x10000000B17217FBA9C739AA5819F44F9 */\n      0x010000000b17217fba9c739aa5819f44f9\n        /* \"ABDKMath64x64.sol\":18682:18726  result * 0x10000000B17217FBA9C739AA5819F44F9 */\n      mul\n        /* \"ABDKMath64x64.sol\":18730:18733  128 */\n      0x80\n        /* \"ABDKMath64x64.sol\":18682:18733  result * 0x10000000B17217FBA9C739AA5819F44F9 >> 128 */\n      shr\n        /* \"ABDKMath64x64.sol\":18639:18733  if (x & 0x1000000000 > 0)... */\n    tag_721:\n        /* \"ABDKMath64x64.sol\":18763:18764  0 */\n      0x00\n        /* \"ABDKMath64x64.sol\":18745:18746  x */\n      dup4\n        /* \"ABDKMath64x64.sol\":18749:18760  0x800000000 */\n      0x0800000000\n        /* \"ABDKMath64x64.sol\":18745:18760  x & 0x800000000 */\n      and\n        /* \"ABDKMath64x64.sol\":18745:18764  x & 0x800000000 > 0 */\n      0x0f\n      signextend\n      sgt\n        /* \"ABDKMath64x64.sol\":18741:18834  if (x & 0x800000000 > 0)... */\n      iszero\n      tag_722\n      jumpi\n        /* \"ABDKMath64x64.sol\":18792:18827  0x1000000058B90BFCDEE5ACD3C1CEDC823 */\n      0x01000000058b90bfcdee5acd3c1cedc823\n        /* \"ABDKMath64x64.sol\":18783:18827  result * 0x1000000058B90BFCDEE5ACD3C1CEDC823 */\n      mul\n        /* \"ABDKMath64x64.sol\":18831:18834  128 */\n      0x80\n        /* \"ABDKMath64x64.sol\":18783:18834  result * 0x1000000058B90BFCDEE5ACD3C1CEDC823 >> 128 */\n      shr\n        /* \"ABDKMath64x64.sol\":18741:18834  if (x & 0x800000000 > 0)... */\n    tag_722:\n        /* \"ABDKMath64x64.sol\":18864:18865  0 */\n      0x00\n        /* \"ABDKMath64x64.sol\":18846:18847  x */\n      dup4\n        /* \"ABDKMath64x64.sol\":18850:18861  0x400000000 */\n      0x0400000000\n        /* \"ABDKMath64x64.sol\":18846:18861  x & 0x400000000 */\n      and\n        /* \"ABDKMath64x64.sol\":18846:18865  x & 0x400000000 > 0 */\n      0x0f\n      signextend\n      sgt\n        /* \"ABDKMath64x64.sol\":18842:18935  if (x & 0x400000000 > 0)... */\n      iszero\n      tag_723\n      jumpi\n        /* \"ABDKMath64x64.sol\":18893:18928  0x100000002C5C85FE31F35A6A30DA1BE50 */\n      0x0100000002c5c85fe31f35a6a30da1be50\n        /* \"ABDKMath64x64.sol\":18884:18928  result * 0x100000002C5C85FE31F35A6A30DA1BE50 */\n      mul\n        /* \"ABDKMath64x64.sol\":18932:18935  128 */\n      0x80\n        /* \"ABDKMath64x64.sol\":18884:18935  result * 0x100000002C5C85FE31F35A6A30DA1BE50 >> 128 */\n      shr\n        /* \"ABDKMath64x64.sol\":18842:18935  if (x & 0x400000000 > 0)... */\n    tag_723:\n        /* \"ABDKMath64x64.sol\":18965:18966  0 */\n      0x00\n        /* \"ABDKMath64x64.sol\":18947:18948  x */\n      dup4\n        /* \"ABDKMath64x64.sol\":18951:18962  0x200000000 */\n      0x0200000000\n        /* \"ABDKMath64x64.sol\":18947:18962  x & 0x200000000 */\n      and\n        /* \"ABDKMath64x64.sol\":18947:18966  x & 0x200000000 > 0 */\n      0x0f\n      signextend\n      sgt\n        /* \"ABDKMath64x64.sol\":18943:19036  if (x & 0x200000000 > 0)... */\n      iszero\n      tag_724\n      jumpi\n        /* \"ABDKMath64x64.sol\":18994:19029  0x10000000162E42FF0999CE3541B9FFFCF */\n      0x010000000162e42ff0999ce3541b9fffcf\n        /* \"ABDKMath64x64.sol\":18985:19029  result * 0x10000000162E42FF0999CE3541B9FFFCF */\n      mul\n        /* \"ABDKMath64x64.sol\":19033:19036  128 */\n      0x80\n        /* \"ABDKMath64x64.sol\":18985:19036  result * 0x10000000162E42FF0999CE3541B9FFFCF >> 128 */\n      shr\n        /* \"ABDKMath64x64.sol\":18943:19036  if (x & 0x200000000 > 0)... */\n    tag_724:\n        /* \"ABDKMath64x64.sol\":19066:19067  0 */\n      0x00\n        /* \"ABDKMath64x64.sol\":19048:19049  x */\n      dup4\n        /* \"ABDKMath64x64.sol\":19052:19063  0x100000000 */\n      0x0100000000\n        /* \"ABDKMath64x64.sol\":19048:19063  x & 0x100000000 */\n      and\n        /* \"ABDKMath64x64.sol\":19048:19067  x & 0x100000000 > 0 */\n      0x0f\n      signextend\n      sgt\n        /* \"ABDKMath64x64.sol\":19044:19137  if (x & 0x100000000 > 0)... */\n      iszero\n      tag_725\n      jumpi\n        /* \"ABDKMath64x64.sol\":19095:19130  0x100000000B17217F80F4EF5AADDA45554 */\n      0x0100000000b17217f80f4ef5aadda45554\n        /* \"ABDKMath64x64.sol\":19086:19130  result * 0x100000000B17217F80F4EF5AADDA45554 */\n      mul\n        /* \"ABDKMath64x64.sol\":19134:19137  128 */\n      0x80\n        /* \"ABDKMath64x64.sol\":19086:19137  result * 0x100000000B17217F80F4EF5AADDA45554 >> 128 */\n      shr\n        /* \"ABDKMath64x64.sol\":19044:19137  if (x & 0x100000000 > 0)... */\n    tag_725:\n        /* \"ABDKMath64x64.sol\":19166:19167  0 */\n      0x00\n        /* \"ABDKMath64x64.sol\":19149:19150  x */\n      dup4\n        /* \"ABDKMath64x64.sol\":19153:19163  0x80000000 */\n      0x80000000\n        /* \"ABDKMath64x64.sol\":19149:19163  x & 0x80000000 */\n      and\n        /* \"ABDKMath64x64.sol\":19149:19167  x & 0x80000000 > 0 */\n      0x0f\n      signextend\n      sgt\n        /* \"ABDKMath64x64.sol\":19145:19237  if (x & 0x80000000 > 0)... */\n      iszero\n      tag_726\n      jumpi\n        /* \"ABDKMath64x64.sol\":19195:19230  0x10000000058B90BFBF8479BD5A81B51AD */\n      0x010000000058b90bfbf8479bd5a81b51ad\n        /* \"ABDKMath64x64.sol\":19186:19230  result * 0x10000000058B90BFBF8479BD5A81B51AD */\n      mul\n        /* \"ABDKMath64x64.sol\":19234:19237  128 */\n      0x80\n        /* \"ABDKMath64x64.sol\":19186:19237  result * 0x10000000058B90BFBF8479BD5A81B51AD >> 128 */\n      shr\n        /* \"ABDKMath64x64.sol\":19145:19237  if (x & 0x80000000 > 0)... */\n    tag_726:\n        /* \"ABDKMath64x64.sol\":19266:19267  0 */\n      0x00\n        /* \"ABDKMath64x64.sol\":19249:19250  x */\n      dup4\n        /* \"ABDKMath64x64.sol\":19253:19263  0x40000000 */\n      0x40000000\n        /* \"ABDKMath64x64.sol\":19249:19263  x & 0x40000000 */\n      and\n        /* \"ABDKMath64x64.sol\":19249:19267  x & 0x40000000 > 0 */\n      0x0f\n      signextend\n      sgt\n        /* \"ABDKMath64x64.sol\":19245:19337  if (x & 0x40000000 > 0)... */\n      iszero\n      tag_727\n      jumpi\n        /* \"ABDKMath64x64.sol\":19295:19330  0x1000000002C5C85FDF84BD62AE30A74CC */\n      0x01000000002c5c85fdf84bd62ae30a74cc\n        /* \"ABDKMath64x64.sol\":19286:19330  result * 0x1000000002C5C85FDF84BD62AE30A74CC */\n      mul\n        /* \"ABDKMath64x64.sol\":19334:19337  128 */\n      0x80\n        /* \"ABDKMath64x64.sol\":19286:19337  result * 0x1000000002C5C85FDF84BD62AE30A74CC >> 128 */\n      shr\n        /* \"ABDKMath64x64.sol\":19245:19337  if (x & 0x40000000 > 0)... */\n    tag_727:\n        /* \"ABDKMath64x64.sol\":19366:19367  0 */\n      0x00\n        /* \"ABDKMath64x64.sol\":19349:19350  x */\n      dup4\n        /* \"ABDKMath64x64.sol\":19353:19363  0x20000000 */\n      0x20000000\n        /* \"ABDKMath64x64.sol\":19349:19363  x & 0x20000000 */\n      and\n        /* \"ABDKMath64x64.sol\":19349:19367  x & 0x20000000 > 0 */\n      0x0f\n      signextend\n      sgt\n        /* \"ABDKMath64x64.sol\":19345:19437  if (x & 0x20000000 > 0)... */\n      iszero\n      tag_728\n      jumpi\n        /* \"ABDKMath64x64.sol\":19395:19430  0x100000000162E42FEFB2FED257559BDAA */\n      0x0100000000162e42fefb2fed257559bdaa\n        /* \"ABDKMath64x64.sol\":19386:19430  result * 0x100000000162E42FEFB2FED257559BDAA */\n      mul\n        /* \"ABDKMath64x64.sol\":19434:19437  128 */\n      0x80\n        /* \"ABDKMath64x64.sol\":19386:19437  result * 0x100000000162E42FEFB2FED257559BDAA >> 128 */\n      shr\n        /* \"ABDKMath64x64.sol\":19345:19437  if (x & 0x20000000 > 0)... */\n    tag_728:\n        /* \"ABDKMath64x64.sol\":19466:19467  0 */\n      0x00\n        /* \"ABDKMath64x64.sol\":19449:19450  x */\n      dup4\n        /* \"ABDKMath64x64.sol\":19453:19463  0x10000000 */\n      0x10000000\n        /* \"ABDKMath64x64.sol\":19449:19463  x & 0x10000000 */\n      and\n        /* \"ABDKMath64x64.sol\":19449:19467  x & 0x10000000 > 0 */\n      0x0f\n      signextend\n      sgt\n        /* \"ABDKMath64x64.sol\":19445:19537  if (x & 0x10000000 > 0)... */\n      iszero\n      tag_729\n      jumpi\n        /* \"ABDKMath64x64.sol\":19495:19530  0x1000000000B17217F7D5A7716BBA4A9AE */\n      0x01000000000b17217f7d5a7716bba4a9ae\n        /* \"ABDKMath64x64.sol\":19486:19530  result * 0x1000000000B17217F7D5A7716BBA4A9AE */\n      mul\n        /* \"ABDKMath64x64.sol\":19534:19537  128 */\n      0x80\n        /* \"ABDKMath64x64.sol\":19486:19537  result * 0x1000000000B17217F7D5A7716BBA4A9AE >> 128 */\n      shr\n        /* \"ABDKMath64x64.sol\":19445:19537  if (x & 0x10000000 > 0)... */\n    tag_729:\n        /* \"ABDKMath64x64.sol\":19565:19566  0 */\n      0x00\n        /* \"ABDKMath64x64.sol\":19549:19550  x */\n      dup4\n        /* \"ABDKMath64x64.sol\":19553:19562  0x8000000 */\n      0x08000000\n        /* \"ABDKMath64x64.sol\":19549:19562  x & 0x8000000 */\n      and\n        /* \"ABDKMath64x64.sol\":19549:19566  x & 0x8000000 > 0 */\n      0x0f\n      signextend\n      sgt\n        /* \"ABDKMath64x64.sol\":19545:19636  if (x & 0x8000000 > 0)... */\n      iszero\n      tag_730\n      jumpi\n        /* \"ABDKMath64x64.sol\":19594:19629  0x100000000058B90BFBE9DDBAC5E109CCE */\n      0x0100000000058b90bfbe9ddbac5e109cce\n        /* \"ABDKMath64x64.sol\":19585:19629  result * 0x100000000058B90BFBE9DDBAC5E109CCE */\n      mul\n        /* \"ABDKMath64x64.sol\":19633:19636  128 */\n      0x80\n        /* \"ABDKMath64x64.sol\":19585:19636  result * 0x100000000058B90BFBE9DDBAC5E109CCE >> 128 */\n      shr\n        /* \"ABDKMath64x64.sol\":19545:19636  if (x & 0x8000000 > 0)... */\n    tag_730:\n        /* \"ABDKMath64x64.sol\":19664:19665  0 */\n      0x00\n        /* \"ABDKMath64x64.sol\":19648:19649  x */\n      dup4\n        /* \"ABDKMath64x64.sol\":19652:19661  0x4000000 */\n      0x04000000\n        /* \"ABDKMath64x64.sol\":19648:19661  x & 0x4000000 */\n      and\n        /* \"ABDKMath64x64.sol\":19648:19665  x & 0x4000000 > 0 */\n      0x0f\n      signextend\n      sgt\n        /* \"ABDKMath64x64.sol\":19644:19735  if (x & 0x4000000 > 0)... */\n      iszero\n      tag_731\n      jumpi\n        /* \"ABDKMath64x64.sol\":19693:19728  0x10000000002C5C85FDF4B15DE6F17EB0D */\n      0x010000000002c5c85fdf4b15de6f17eb0d\n        /* \"ABDKMath64x64.sol\":19684:19728  result * 0x10000000002C5C85FDF4B15DE6F17EB0D */\n      mul\n        /* \"ABDKMath64x64.sol\":19732:19735  128 */\n      0x80\n        /* \"ABDKMath64x64.sol\":19684:19735  result * 0x10000000002C5C85FDF4B15DE6F17EB0D >> 128 */\n      shr\n        /* \"ABDKMath64x64.sol\":19644:19735  if (x & 0x4000000 > 0)... */\n    tag_731:\n        /* \"ABDKMath64x64.sol\":19763:19764  0 */\n      0x00\n        /* \"ABDKMath64x64.sol\":19747:19748  x */\n      dup4\n        /* \"ABDKMath64x64.sol\":19751:19760  0x2000000 */\n      0x02000000\n        /* \"ABDKMath64x64.sol\":19747:19760  x & 0x2000000 */\n      and\n        /* \"ABDKMath64x64.sol\":19747:19764  x & 0x2000000 > 0 */\n      0x0f\n      signextend\n      sgt\n        /* \"ABDKMath64x64.sol\":19743:19834  if (x & 0x2000000 > 0)... */\n      iszero\n      tag_732\n      jumpi\n        /* \"ABDKMath64x64.sol\":19792:19827  0x1000000000162E42FEFA494F1478FDE05 */\n      0x01000000000162e42fefa494f1478fde05\n        /* \"ABDKMath64x64.sol\":19783:19827  result * 0x1000000000162E42FEFA494F1478FDE05 */\n      mul\n        /* \"ABDKMath64x64.sol\":19831:19834  128 */\n      0x80\n        /* \"ABDKMath64x64.sol\":19783:19834  result * 0x1000000000162E42FEFA494F1478FDE05 >> 128 */\n      shr\n        /* \"ABDKMath64x64.sol\":19743:19834  if (x & 0x2000000 > 0)... */\n    tag_732:\n        /* \"ABDKMath64x64.sol\":19862:19863  0 */\n      0x00\n        /* \"ABDKMath64x64.sol\":19846:19847  x */\n      dup4\n        /* \"ABDKMath64x64.sol\":19850:19859  0x1000000 */\n      0x01000000\n        /* \"ABDKMath64x64.sol\":19846:19859  x & 0x1000000 */\n      and\n        /* \"ABDKMath64x64.sol\":19846:19863  x & 0x1000000 > 0 */\n      0x0f\n      signextend\n      sgt\n        /* \"ABDKMath64x64.sol\":19842:19933  if (x & 0x1000000 > 0)... */\n      iszero\n      tag_733\n      jumpi\n        /* \"ABDKMath64x64.sol\":19891:19926  0x10000000000B17217F7D20CF927C8E94C */\n      0x010000000000b17217f7d20cf927c8e94c\n        /* \"ABDKMath64x64.sol\":19882:19926  result * 0x10000000000B17217F7D20CF927C8E94C */\n      mul\n        /* \"ABDKMath64x64.sol\":19930:19933  128 */\n      0x80\n        /* \"ABDKMath64x64.sol\":19882:19933  result * 0x10000000000B17217F7D20CF927C8E94C >> 128 */\n      shr\n        /* \"ABDKMath64x64.sol\":19842:19933  if (x & 0x1000000 > 0)... */\n    tag_733:\n        /* \"ABDKMath64x64.sol\":19960:19961  0 */\n      0x00\n        /* \"ABDKMath64x64.sol\":19945:19946  x */\n      dup4\n        /* \"ABDKMath64x64.sol\":19949:19957  0x800000 */\n      0x800000\n        /* \"ABDKMath64x64.sol\":19945:19957  x & 0x800000 */\n      and\n        /* \"ABDKMath64x64.sol\":19945:19961  x & 0x800000 > 0 */\n      0x0f\n      signextend\n      sgt\n        /* \"ABDKMath64x64.sol\":19941:20031  if (x & 0x800000 > 0)... */\n      iszero\n      tag_734\n      jumpi\n        /* \"ABDKMath64x64.sol\":19989:20024  0x1000000000058B90BFBE8F71CB4E4B33D */\n      0x01000000000058b90bfbe8f71cb4e4b33d\n        /* \"ABDKMath64x64.sol\":19980:20024  result * 0x1000000000058B90BFBE8F71CB4E4B33D */\n      mul\n        /* \"ABDKMath64x64.sol\":20028:20031  128 */\n      0x80\n        /* \"ABDKMath64x64.sol\":19980:20031  result * 0x1000000000058B90BFBE8F71CB4E4B33D >> 128 */\n      shr\n        /* \"ABDKMath64x64.sol\":19941:20031  if (x & 0x800000 > 0)... */\n    tag_734:\n        /* \"ABDKMath64x64.sol\":20058:20059  0 */\n      0x00\n        /* \"ABDKMath64x64.sol\":20043:20044  x */\n      dup4\n        /* \"ABDKMath64x64.sol\":20047:20055  0x400000 */\n      0x400000\n        /* \"ABDKMath64x64.sol\":20043:20055  x & 0x400000 */\n      and\n        /* \"ABDKMath64x64.sol\":20043:20059  x & 0x400000 > 0 */\n      0x0f\n      signextend\n      sgt\n        /* \"ABDKMath64x64.sol\":20039:20129  if (x & 0x400000 > 0)... */\n      iszero\n      tag_735\n      jumpi\n        /* \"ABDKMath64x64.sol\":20087:20122  0x100000000002C5C85FDF477B662B26945 */\n      0x0100000000002c5c85fdf477b662b26945\n        /* \"ABDKMath64x64.sol\":20078:20122  result * 0x100000000002C5C85FDF477B662B26945 */\n      mul\n        /* \"ABDKMath64x64.sol\":20126:20129  128 */\n      0x80\n        /* \"ABDKMath64x64.sol\":20078:20129  result * 0x100000000002C5C85FDF477B662B26945 >> 128 */\n      shr\n        /* \"ABDKMath64x64.sol\":20039:20129  if (x & 0x400000 > 0)... */\n    tag_735:\n        /* \"ABDKMath64x64.sol\":20156:20157  0 */\n      0x00\n        /* \"ABDKMath64x64.sol\":20141:20142  x */\n      dup4\n        /* \"ABDKMath64x64.sol\":20145:20153  0x200000 */\n      0x200000\n        /* \"ABDKMath64x64.sol\":20141:20153  x & 0x200000 */\n      and\n        /* \"ABDKMath64x64.sol\":20141:20157  x & 0x200000 > 0 */\n      0x0f\n      signextend\n      sgt\n        /* \"ABDKMath64x64.sol\":20137:20227  if (x & 0x200000 > 0)... */\n      iszero\n      tag_736\n      jumpi\n        /* \"ABDKMath64x64.sol\":20185:20220  0x10000000000162E42FEFA3AE53369388C */\n      0x010000000000162e42fefa3ae53369388c\n        /* \"ABDKMath64x64.sol\":20176:20220  result * 0x10000000000162E42FEFA3AE53369388C */\n      mul\n        /* \"ABDKMath64x64.sol\":20224:20227  128 */\n      0x80\n        /* \"ABDKMath64x64.sol\":20176:20227  result * 0x10000000000162E42FEFA3AE53369388C >> 128 */\n      shr\n        /* \"ABDKMath64x64.sol\":20137:20227  if (x & 0x200000 > 0)... */\n    tag_736:\n        /* \"ABDKMath64x64.sol\":20254:20255  0 */\n      0x00\n        /* \"ABDKMath64x64.sol\":20239:20240  x */\n      dup4\n        /* \"ABDKMath64x64.sol\":20243:20251  0x100000 */\n      0x100000\n        /* \"ABDKMath64x64.sol\":20239:20251  x & 0x100000 */\n      and\n        /* \"ABDKMath64x64.sol\":20239:20255  x & 0x100000 > 0 */\n      0x0f\n      signextend\n      sgt\n        /* \"ABDKMath64x64.sol\":20235:20325  if (x & 0x100000 > 0)... */\n      iszero\n      tag_737\n      jumpi\n        /* \"ABDKMath64x64.sol\":20283:20318  0x100000000000B17217F7D1D351A389D40 */\n      0x0100000000000b17217f7d1d351a389d40\n        /* \"ABDKMath64x64.sol\":20274:20318  result * 0x100000000000B17217F7D1D351A389D40 */\n      mul\n        /* \"ABDKMath64x64.sol\":20322:20325  128 */\n      0x80\n        /* \"ABDKMath64x64.sol\":20274:20325  result * 0x100000000000B17217F7D1D351A389D40 >> 128 */\n      shr\n        /* \"ABDKMath64x64.sol\":20235:20325  if (x & 0x100000 > 0)... */\n    tag_737:\n        /* \"ABDKMath64x64.sol\":20351:20352  0 */\n      0x00\n        /* \"ABDKMath64x64.sol\":20337:20338  x */\n      dup4\n        /* \"ABDKMath64x64.sol\":20341:20348  0x80000 */\n      0x080000\n        /* \"ABDKMath64x64.sol\":20337:20348  x & 0x80000 */\n      and\n        /* \"ABDKMath64x64.sol\":20337:20352  x & 0x80000 > 0 */\n      0x0f\n      signextend\n      sgt\n        /* \"ABDKMath64x64.sol\":20333:20422  if (x & 0x80000 > 0)... */\n      iszero\n      tag_738\n      jumpi\n        /* \"ABDKMath64x64.sol\":20380:20415  0x10000000000058B90BFBE8E8B2D3D4EDE */\n      0x010000000000058b90bfbe8e8b2d3d4ede\n        /* \"ABDKMath64x64.sol\":20371:20415  result * 0x10000000000058B90BFBE8E8B2D3D4EDE */\n      mul\n        /* \"ABDKMath64x64.sol\":20419:20422  128 */\n      0x80\n        /* \"ABDKMath64x64.sol\":20371:20422  result * 0x10000000000058B90BFBE8E8B2D3D4EDE >> 128 */\n      shr\n        /* \"ABDKMath64x64.sol\":20333:20422  if (x & 0x80000 > 0)... */\n    tag_738:\n        /* \"ABDKMath64x64.sol\":20448:20449  0 */\n      0x00\n        /* \"ABDKMath64x64.sol\":20434:20435  x */\n      dup4\n        /* \"ABDKMath64x64.sol\":20438:20445  0x40000 */\n      0x040000\n        /* \"ABDKMath64x64.sol\":20434:20445  x & 0x40000 */\n      and\n        /* \"ABDKMath64x64.sol\":20434:20449  x & 0x40000 > 0 */\n      0x0f\n      signextend\n      sgt\n        /* \"ABDKMath64x64.sol\":20430:20519  if (x & 0x40000 > 0)... */\n      iszero\n      tag_739\n      jumpi\n        /* \"ABDKMath64x64.sol\":20477:20512  0x1000000000002C5C85FDF4741BEA6E77E */\n      0x01000000000002c5c85fdf4741bea6e77e\n        /* \"ABDKMath64x64.sol\":20468:20512  result * 0x1000000000002C5C85FDF4741BEA6E77E */\n      mul\n        /* \"ABDKMath64x64.sol\":20516:20519  128 */\n      0x80\n        /* \"ABDKMath64x64.sol\":20468:20519  result * 0x1000000000002C5C85FDF4741BEA6E77E >> 128 */\n      shr\n        /* \"ABDKMath64x64.sol\":20430:20519  if (x & 0x40000 > 0)... */\n    tag_739:\n        /* \"ABDKMath64x64.sol\":20545:20546  0 */\n      0x00\n        /* \"ABDKMath64x64.sol\":20531:20532  x */\n      dup4\n        /* \"ABDKMath64x64.sol\":20535:20542  0x20000 */\n      0x020000\n        /* \"ABDKMath64x64.sol\":20531:20542  x & 0x20000 */\n      and\n        /* \"ABDKMath64x64.sol\":20531:20546  x & 0x20000 > 0 */\n      0x0f\n      signextend\n      sgt\n        /* \"ABDKMath64x64.sol\":20527:20616  if (x & 0x20000 > 0)... */\n      iszero\n      tag_740\n      jumpi\n        /* \"ABDKMath64x64.sol\":20574:20609  0x100000000000162E42FEFA39FE95583C2 */\n      0x0100000000000162e42fefa39fe95583c2\n        /* \"ABDKMath64x64.sol\":20565:20609  result * 0x100000000000162E42FEFA39FE95583C2 */\n      mul\n        /* \"ABDKMath64x64.sol\":20613:20616  128 */\n      0x80\n        /* \"ABDKMath64x64.sol\":20565:20616  result * 0x100000000000162E42FEFA39FE95583C2 >> 128 */\n      shr\n        /* \"ABDKMath64x64.sol\":20527:20616  if (x & 0x20000 > 0)... */\n    tag_740:\n        /* \"ABDKMath64x64.sol\":20642:20643  0 */\n      0x00\n        /* \"ABDKMath64x64.sol\":20628:20629  x */\n      dup4\n        /* \"ABDKMath64x64.sol\":20632:20639  0x10000 */\n      0x010000\n        /* \"ABDKMath64x64.sol\":20628:20639  x & 0x10000 */\n      and\n        /* \"ABDKMath64x64.sol\":20628:20643  x & 0x10000 > 0 */\n      0x0f\n      signextend\n      sgt\n        /* \"ABDKMath64x64.sol\":20624:20713  if (x & 0x10000 > 0)... */\n      iszero\n      tag_741\n      jumpi\n        /* \"ABDKMath64x64.sol\":20671:20706  0x1000000000000B17217F7D1CFB72B45E1 */\n      0x01000000000000b17217f7d1cfb72b45e1\n        /* \"ABDKMath64x64.sol\":20662:20706  result * 0x1000000000000B17217F7D1CFB72B45E1 */\n      mul\n        /* \"ABDKMath64x64.sol\":20710:20713  128 */\n      0x80\n        /* \"ABDKMath64x64.sol\":20662:20713  result * 0x1000000000000B17217F7D1CFB72B45E1 >> 128 */\n      shr\n        /* \"ABDKMath64x64.sol\":20624:20713  if (x & 0x10000 > 0)... */\n    tag_741:\n        /* \"ABDKMath64x64.sol\":20738:20739  0 */\n      0x00\n        /* \"ABDKMath64x64.sol\":20725:20726  x */\n      dup4\n        /* \"ABDKMath64x64.sol\":20729:20735  0x8000 */\n      0x8000\n        /* \"ABDKMath64x64.sol\":20725:20735  x & 0x8000 */\n      and\n        /* \"ABDKMath64x64.sol\":20725:20739  x & 0x8000 > 0 */\n      0x0f\n      signextend\n      sgt\n        /* \"ABDKMath64x64.sol\":20721:20809  if (x & 0x8000 > 0)... */\n      iszero\n      tag_742\n      jumpi\n        /* \"ABDKMath64x64.sol\":20767:20802  0x100000000000058B90BFBE8E7CC35C3F0 */\n      0x0100000000000058b90bfbe8e7cc35c3f0\n        /* \"ABDKMath64x64.sol\":20758:20802  result * 0x100000000000058B90BFBE8E7CC35C3F0 */\n      mul\n        /* \"ABDKMath64x64.sol\":20806:20809  128 */\n      0x80\n        /* \"ABDKMath64x64.sol\":20758:20809  result * 0x100000000000058B90BFBE8E7CC35C3F0 >> 128 */\n      shr\n        /* \"ABDKMath64x64.sol\":20721:20809  if (x & 0x8000 > 0)... */\n    tag_742:\n        /* \"ABDKMath64x64.sol\":20834:20835  0 */\n      0x00\n        /* \"ABDKMath64x64.sol\":20821:20822  x */\n      dup4\n        /* \"ABDKMath64x64.sol\":20825:20831  0x4000 */\n      0x4000\n        /* \"ABDKMath64x64.sol\":20821:20831  x & 0x4000 */\n      and\n        /* \"ABDKMath64x64.sol\":20821:20835  x & 0x4000 > 0 */\n      0x0f\n      signextend\n      sgt\n        /* \"ABDKMath64x64.sol\":20817:20905  if (x & 0x4000 > 0)... */\n      iszero\n      tag_743\n      jumpi\n        /* \"ABDKMath64x64.sol\":20863:20898  0x10000000000002C5C85FDF473E242EA38 */\n      0x010000000000002c5c85fdf473e242ea38\n        /* \"ABDKMath64x64.sol\":20854:20898  result * 0x10000000000002C5C85FDF473E242EA38 */\n      mul\n        /* \"ABDKMath64x64.sol\":20902:20905  128 */\n      0x80\n        /* \"ABDKMath64x64.sol\":20854:20905  result * 0x10000000000002C5C85FDF473E242EA38 >> 128 */\n      shr\n        /* \"ABDKMath64x64.sol\":20817:20905  if (x & 0x4000 > 0)... */\n    tag_743:\n        /* \"ABDKMath64x64.sol\":20930:20931  0 */\n      0x00\n        /* \"ABDKMath64x64.sol\":20917:20918  x */\n      dup4\n        /* \"ABDKMath64x64.sol\":20921:20927  0x2000 */\n      0x2000\n        /* \"ABDKMath64x64.sol\":20917:20927  x & 0x2000 */\n      and\n        /* \"ABDKMath64x64.sol\":20917:20931  x & 0x2000 > 0 */\n      0x0f\n      signextend\n      sgt\n        /* \"ABDKMath64x64.sol\":20913:21001  if (x & 0x2000 > 0)... */\n      iszero\n      tag_744\n      jumpi\n        /* \"ABDKMath64x64.sol\":20959:20994  0x1000000000000162E42FEFA39F02B772C */\n      0x01000000000000162e42fefa39f02b772c\n        /* \"ABDKMath64x64.sol\":20950:20994  result * 0x1000000000000162E42FEFA39F02B772C */\n      mul\n        /* \"ABDKMath64x64.sol\":20998:21001  128 */\n      0x80\n        /* \"ABDKMath64x64.sol\":20950:21001  result * 0x1000000000000162E42FEFA39F02B772C >> 128 */\n      shr\n        /* \"ABDKMath64x64.sol\":20913:21001  if (x & 0x2000 > 0)... */\n    tag_744:\n        /* \"ABDKMath64x64.sol\":21026:21027  0 */\n      0x00\n        /* \"ABDKMath64x64.sol\":21013:21014  x */\n      dup4\n        /* \"ABDKMath64x64.sol\":21017:21023  0x1000 */\n      0x1000\n        /* \"ABDKMath64x64.sol\":21013:21023  x & 0x1000 */\n      and\n        /* \"ABDKMath64x64.sol\":21013:21027  x & 0x1000 > 0 */\n      0x0f\n      signextend\n      sgt\n        /* \"ABDKMath64x64.sol\":21009:21097  if (x & 0x1000 > 0)... */\n      iszero\n      tag_745\n      jumpi\n        /* \"ABDKMath64x64.sol\":21055:21090  0x10000000000000B17217F7D1CF7D83C1A */\n      0x010000000000000b17217f7d1cf7d83c1a\n        /* \"ABDKMath64x64.sol\":21046:21090  result * 0x10000000000000B17217F7D1CF7D83C1A */\n      mul\n        /* \"ABDKMath64x64.sol\":21094:21097  128 */\n      0x80\n        /* \"ABDKMath64x64.sol\":21046:21097  result * 0x10000000000000B17217F7D1CF7D83C1A >> 128 */\n      shr\n        /* \"ABDKMath64x64.sol\":21009:21097  if (x & 0x1000 > 0)... */\n    tag_745:\n        /* \"ABDKMath64x64.sol\":21121:21122  0 */\n      0x00\n        /* \"ABDKMath64x64.sol\":21109:21110  x */\n      dup4\n        /* \"ABDKMath64x64.sol\":21113:21118  0x800 */\n      0x0800\n        /* \"ABDKMath64x64.sol\":21109:21118  x & 0x800 */\n      and\n        /* \"ABDKMath64x64.sol\":21109:21122  x & 0x800 > 0 */\n      0x0f\n      signextend\n      sgt\n        /* \"ABDKMath64x64.sol\":21105:21192  if (x & 0x800 > 0)... */\n      iszero\n      tag_746\n      jumpi\n        /* \"ABDKMath64x64.sol\":21150:21185  0x1000000000000058B90BFBE8E7BDCBE2E */\n      0x01000000000000058b90bfbe8e7bdcbe2e\n        /* \"ABDKMath64x64.sol\":21141:21185  result * 0x1000000000000058B90BFBE8E7BDCBE2E */\n      mul\n        /* \"ABDKMath64x64.sol\":21189:21192  128 */\n      0x80\n        /* \"ABDKMath64x64.sol\":21141:21192  result * 0x1000000000000058B90BFBE8E7BDCBE2E >> 128 */\n      shr\n        /* \"ABDKMath64x64.sol\":21105:21192  if (x & 0x800 > 0)... */\n    tag_746:\n        /* \"ABDKMath64x64.sol\":21216:21217  0 */\n      0x00\n        /* \"ABDKMath64x64.sol\":21204:21205  x */\n      dup4\n        /* \"ABDKMath64x64.sol\":21208:21213  0x400 */\n      0x0400\n        /* \"ABDKMath64x64.sol\":21204:21213  x & 0x400 */\n      and\n        /* \"ABDKMath64x64.sol\":21204:21217  x & 0x400 > 0 */\n      0x0f\n      signextend\n      sgt\n        /* \"ABDKMath64x64.sol\":21200:21287  if (x & 0x400 > 0)... */\n      iszero\n      tag_747\n      jumpi\n        /* \"ABDKMath64x64.sol\":21245:21280  0x100000000000002C5C85FDF473DEA871F */\n      0x0100000000000002c5c85fdf473dea871f\n        /* \"ABDKMath64x64.sol\":21236:21280  result * 0x100000000000002C5C85FDF473DEA871F */\n      mul\n        /* \"ABDKMath64x64.sol\":21284:21287  128 */\n      0x80\n        /* \"ABDKMath64x64.sol\":21236:21287  result * 0x100000000000002C5C85FDF473DEA871F >> 128 */\n      shr\n        /* \"ABDKMath64x64.sol\":21200:21287  if (x & 0x400 > 0)... */\n    tag_747:\n        /* \"ABDKMath64x64.sol\":21311:21312  0 */\n      0x00\n        /* \"ABDKMath64x64.sol\":21299:21300  x */\n      dup4\n        /* \"ABDKMath64x64.sol\":21303:21308  0x200 */\n      0x0200\n        /* \"ABDKMath64x64.sol\":21299:21308  x & 0x200 */\n      and\n        /* \"ABDKMath64x64.sol\":21299:21312  x & 0x200 > 0 */\n      0x0f\n      signextend\n      sgt\n        /* \"ABDKMath64x64.sol\":21295:21382  if (x & 0x200 > 0)... */\n      iszero\n      tag_748\n      jumpi\n        /* \"ABDKMath64x64.sol\":21340:21375  0x10000000000000162E42FEFA39EF44D91 */\n      0x010000000000000162e42fefa39ef44d91\n        /* \"ABDKMath64x64.sol\":21331:21375  result * 0x10000000000000162E42FEFA39EF44D91 */\n      mul\n        /* \"ABDKMath64x64.sol\":21379:21382  128 */\n      0x80\n        /* \"ABDKMath64x64.sol\":21331:21382  result * 0x10000000000000162E42FEFA39EF44D91 >> 128 */\n      shr\n        /* \"ABDKMath64x64.sol\":21295:21382  if (x & 0x200 > 0)... */\n    tag_748:\n        /* \"ABDKMath64x64.sol\":21406:21407  0 */\n      0x00\n        /* \"ABDKMath64x64.sol\":21394:21395  x */\n      dup4\n        /* \"ABDKMath64x64.sol\":21398:21403  0x100 */\n      0x0100\n        /* \"ABDKMath64x64.sol\":21394:21403  x & 0x100 */\n      and\n        /* \"ABDKMath64x64.sol\":21394:21407  x & 0x100 > 0 */\n      0x0f\n      signextend\n      sgt\n        /* \"ABDKMath64x64.sol\":21390:21477  if (x & 0x100 > 0)... */\n      iszero\n      tag_749\n      jumpi\n        /* \"ABDKMath64x64.sol\":21435:21470  0x100000000000000B17217F7D1CF79E949 */\n      0x0100000000000000b17217f7d1cf79e949\n        /* \"ABDKMath64x64.sol\":21426:21470  result * 0x100000000000000B17217F7D1CF79E949 */\n      mul\n        /* \"ABDKMath64x64.sol\":21474:21477  128 */\n      0x80\n        /* \"ABDKMath64x64.sol\":21426:21477  result * 0x100000000000000B17217F7D1CF79E949 >> 128 */\n      shr\n        /* \"ABDKMath64x64.sol\":21390:21477  if (x & 0x100 > 0)... */\n    tag_749:\n        /* \"ABDKMath64x64.sol\":21500:21501  0 */\n      0x00\n        /* \"ABDKMath64x64.sol\":21489:21490  x */\n      dup4\n        /* \"ABDKMath64x64.sol\":21493:21497  0x80 */\n      0x80\n        /* \"ABDKMath64x64.sol\":21489:21497  x & 0x80 */\n      and\n        /* \"ABDKMath64x64.sol\":21489:21501  x & 0x80 > 0 */\n      0x0f\n      signextend\n      sgt\n        /* \"ABDKMath64x64.sol\":21485:21571  if (x & 0x80 > 0)... */\n      iszero\n      tag_750\n      jumpi\n        /* \"ABDKMath64x64.sol\":21529:21564  0x10000000000000058B90BFBE8E7BCE544 */\n      0x010000000000000058b90bfbe8e7bce544\n        /* \"ABDKMath64x64.sol\":21520:21564  result * 0x10000000000000058B90BFBE8E7BCE544 */\n      mul\n        /* \"ABDKMath64x64.sol\":21568:21571  128 */\n      0x80\n        /* \"ABDKMath64x64.sol\":21520:21571  result * 0x10000000000000058B90BFBE8E7BCE544 >> 128 */\n      shr\n        /* \"ABDKMath64x64.sol\":21485:21571  if (x & 0x80 > 0)... */\n    tag_750:\n        /* \"ABDKMath64x64.sol\":21594:21595  0 */\n      0x00\n        /* \"ABDKMath64x64.sol\":21583:21584  x */\n      dup4\n        /* \"ABDKMath64x64.sol\":21587:21591  0x40 */\n      0x40\n        /* \"ABDKMath64x64.sol\":21583:21591  x & 0x40 */\n      and\n        /* \"ABDKMath64x64.sol\":21583:21595  x & 0x40 > 0 */\n      0x0f\n      signextend\n      sgt\n        /* \"ABDKMath64x64.sol\":21579:21665  if (x & 0x40 > 0)... */\n      iszero\n      tag_751\n      jumpi\n        /* \"ABDKMath64x64.sol\":21623:21658  0x1000000000000002C5C85FDF473DE6ECA */\n      0x01000000000000002c5c85fdf473de6eca\n        /* \"ABDKMath64x64.sol\":21614:21658  result * 0x1000000000000002C5C85FDF473DE6ECA */\n      mul\n        /* \"ABDKMath64x64.sol\":21662:21665  128 */\n      0x80\n        /* \"ABDKMath64x64.sol\":21614:21665  result * 0x1000000000000002C5C85FDF473DE6ECA >> 128 */\n      shr\n        /* \"ABDKMath64x64.sol\":21579:21665  if (x & 0x40 > 0)... */\n    tag_751:\n        /* \"ABDKMath64x64.sol\":21688:21689  0 */\n      0x00\n        /* \"ABDKMath64x64.sol\":21677:21678  x */\n      dup4\n        /* \"ABDKMath64x64.sol\":21681:21685  0x20 */\n      0x20\n        /* \"ABDKMath64x64.sol\":21677:21685  x & 0x20 */\n      and\n        /* \"ABDKMath64x64.sol\":21677:21689  x & 0x20 > 0 */\n      0x0f\n      signextend\n      sgt\n        /* \"ABDKMath64x64.sol\":21673:21759  if (x & 0x20 > 0)... */\n      iszero\n      tag_752\n      jumpi\n        /* \"ABDKMath64x64.sol\":21717:21752  0x100000000000000162E42FEFA39EF366F */\n      0x0100000000000000162e42fefa39ef366f\n        /* \"ABDKMath64x64.sol\":21708:21752  result * 0x100000000000000162E42FEFA39EF366F */\n      mul\n        /* \"ABDKMath64x64.sol\":21756:21759  128 */\n      0x80\n        /* \"ABDKMath64x64.sol\":21708:21759  result * 0x100000000000000162E42FEFA39EF366F >> 128 */\n      shr\n        /* \"ABDKMath64x64.sol\":21673:21759  if (x & 0x20 > 0)... */\n    tag_752:\n        /* \"ABDKMath64x64.sol\":21782:21783  0 */\n      0x00\n        /* \"ABDKMath64x64.sol\":21771:21772  x */\n      dup4\n        /* \"ABDKMath64x64.sol\":21775:21779  0x10 */\n      0x10\n        /* \"ABDKMath64x64.sol\":21771:21779  x & 0x10 */\n      and\n        /* \"ABDKMath64x64.sol\":21771:21783  x & 0x10 > 0 */\n      0x0f\n      signextend\n      sgt\n        /* \"ABDKMath64x64.sol\":21767:21853  if (x & 0x10 > 0)... */\n      iszero\n      tag_753\n      jumpi\n        /* \"ABDKMath64x64.sol\":21811:21846  0x1000000000000000B17217F7D1CF79AFA */\n      0x01000000000000000b17217f7d1cf79afa\n        /* \"ABDKMath64x64.sol\":21802:21846  result * 0x1000000000000000B17217F7D1CF79AFA */\n      mul\n        /* \"ABDKMath64x64.sol\":21850:21853  128 */\n      0x80\n        /* \"ABDKMath64x64.sol\":21802:21853  result * 0x1000000000000000B17217F7D1CF79AFA >> 128 */\n      shr\n        /* \"ABDKMath64x64.sol\":21767:21853  if (x & 0x10 > 0)... */\n    tag_753:\n        /* \"ABDKMath64x64.sol\":21875:21876  0 */\n      0x00\n        /* \"ABDKMath64x64.sol\":21865:21866  x */\n      dup4\n        /* \"ABDKMath64x64.sol\":21869:21872  0x8 */\n      0x08\n        /* \"ABDKMath64x64.sol\":21865:21872  x & 0x8 */\n      and\n        /* \"ABDKMath64x64.sol\":21865:21876  x & 0x8 > 0 */\n      0x0f\n      signextend\n      sgt\n        /* \"ABDKMath64x64.sol\":21861:21946  if (x & 0x8 > 0)... */\n      iszero\n      tag_754\n      jumpi\n        /* \"ABDKMath64x64.sol\":21904:21939  0x100000000000000058B90BFBE8E7BCD6D */\n      0x0100000000000000058b90bfbe8e7bcd6d\n        /* \"ABDKMath64x64.sol\":21895:21939  result * 0x100000000000000058B90BFBE8E7BCD6D */\n      mul\n        /* \"ABDKMath64x64.sol\":21943:21946  128 */\n      0x80\n        /* \"ABDKMath64x64.sol\":21895:21946  result * 0x100000000000000058B90BFBE8E7BCD6D >> 128 */\n      shr\n        /* \"ABDKMath64x64.sol\":21861:21946  if (x & 0x8 > 0)... */\n    tag_754:\n        /* \"ABDKMath64x64.sol\":21968:21969  0 */\n      0x00\n        /* \"ABDKMath64x64.sol\":21958:21959  x */\n      dup4\n        /* \"ABDKMath64x64.sol\":21962:21965  0x4 */\n      0x04\n        /* \"ABDKMath64x64.sol\":21958:21965  x & 0x4 */\n      and\n        /* \"ABDKMath64x64.sol\":21958:21969  x & 0x4 > 0 */\n      0x0f\n      signextend\n      sgt\n        /* \"ABDKMath64x64.sol\":21954:22039  if (x & 0x4 > 0)... */\n      iszero\n      tag_755\n      jumpi\n        /* \"ABDKMath64x64.sol\":21997:22032  0x10000000000000002C5C85FDF473DE6B2 */\n      0x010000000000000002c5c85fdf473de6b2\n        /* \"ABDKMath64x64.sol\":21988:22032  result * 0x10000000000000002C5C85FDF473DE6B2 */\n      mul\n        /* \"ABDKMath64x64.sol\":22036:22039  128 */\n      0x80\n        /* \"ABDKMath64x64.sol\":21988:22039  result * 0x10000000000000002C5C85FDF473DE6B2 >> 128 */\n      shr\n        /* \"ABDKMath64x64.sol\":21954:22039  if (x & 0x4 > 0)... */\n    tag_755:\n        /* \"ABDKMath64x64.sol\":22061:22062  0 */\n      0x00\n        /* \"ABDKMath64x64.sol\":22051:22052  x */\n      dup4\n        /* \"ABDKMath64x64.sol\":22055:22058  0x2 */\n      0x02\n        /* \"ABDKMath64x64.sol\":22051:22058  x & 0x2 */\n      and\n        /* \"ABDKMath64x64.sol\":22051:22062  x & 0x2 > 0 */\n      0x0f\n      signextend\n      sgt\n        /* \"ABDKMath64x64.sol\":22047:22132  if (x & 0x2 > 0)... */\n      iszero\n      tag_756\n      jumpi\n        /* \"ABDKMath64x64.sol\":22090:22125  0x1000000000000000162E42FEFA39EF358 */\n      0x01000000000000000162e42fefa39ef358\n        /* \"ABDKMath64x64.sol\":22081:22125  result * 0x1000000000000000162E42FEFA39EF358 */\n      mul\n        /* \"ABDKMath64x64.sol\":22129:22132  128 */\n      0x80\n        /* \"ABDKMath64x64.sol\":22081:22132  result * 0x1000000000000000162E42FEFA39EF358 >> 128 */\n      shr\n        /* \"ABDKMath64x64.sol\":22047:22132  if (x & 0x2 > 0)... */\n    tag_756:\n        /* \"ABDKMath64x64.sol\":22154:22155  0 */\n      0x00\n        /* \"ABDKMath64x64.sol\":22144:22145  x */\n      dup4\n        /* \"ABDKMath64x64.sol\":22148:22151  0x1 */\n      0x01\n        /* \"ABDKMath64x64.sol\":22144:22151  x & 0x1 */\n      and\n        /* \"ABDKMath64x64.sol\":22144:22155  x & 0x1 > 0 */\n      0x0f\n      signextend\n      sgt\n        /* \"ABDKMath64x64.sol\":22140:22225  if (x & 0x1 > 0)... */\n      iszero\n      tag_757\n      jumpi\n        /* \"ABDKMath64x64.sol\":22183:22218  0x10000000000000000B17217F7D1CF79AB */\n      0x010000000000000000b17217f7d1cf79ab\n        /* \"ABDKMath64x64.sol\":22174:22218  result * 0x10000000000000000B17217F7D1CF79AB */\n      mul\n        /* \"ABDKMath64x64.sol\":22222:22225  128 */\n      0x80\n        /* \"ABDKMath64x64.sol\":22174:22225  result * 0x10000000000000000B17217F7D1CF79AB >> 128 */\n      shr\n        /* \"ABDKMath64x64.sol\":22140:22225  if (x & 0x1 > 0)... */\n    tag_757:\n        /* \"ABDKMath64x64.sol\":22268:22275  x >> 64 */\n      0x0f\n      dup4\n      dup2\n      signextend\n        /* \"ABDKMath64x64.sol\":22273:22275  64 */\n      0x40\n        /* \"ABDKMath64x64.sol\":22268:22275  x >> 64 */\n      sar\n        /* \"ABDKMath64x64.sol\":22262:22264  63 */\n      0x3f\n        /* \"ABDKMath64x64.sol\":22262:22276  63 - (x >> 64) */\n      sub\n        /* \"ABDKMath64x64.sol\":22254:22277  int256 (63 - (x >> 64)) */\n      swap1\n      signextend\n        /* \"ABDKMath64x64.sol\":22234:22278  result >>= uint256 (int256 (63 - (x >> 64))) */\n      shr\n      sub(shl(0x7f, 0x01), 0x01)\n        /* \"ABDKMath64x64.sol\":22295:22333  result <= uint256 (int256 (MAX_64x64)) */\n      dup2\n      gt\n      iszero\n        /* \"ABDKMath64x64.sol\":22286:22334  require (result <= uint256 (int256 (MAX_64x64))) */\n      tag_170\n      jumpi\n      0x00\n      dup1\n      revert\n        /* \"ABDKMath64x64.sol\":14129:14967  function log_2 (int128 x) internal pure returns (int128) {... */\n    tag_583:\n        /* \"ABDKMath64x64.sol\":14178:14184  int128 */\n      0x00\n        /* \"ABDKMath64x64.sol\":14223:14224  0 */\n      dup1\n        /* \"ABDKMath64x64.sol\":14219:14220  x */\n      dup3\n        /* \"ABDKMath64x64.sol\":14219:14224  x > 0 */\n      0x0f\n      signextend\n      sgt\n        /* \"ABDKMath64x64.sol\":14210:14225  require (x > 0) */\n      tag_760\n      jumpi\n      0x00\n      dup1\n      revert\n    tag_760:\n        /* \"ABDKMath64x64.sol\":14234:14244  int256 msb */\n      0x00\n        /* \"ABDKMath64x64.sol\":14256:14269  int256 xc = x */\n      0x0f\n      dup4\n      swap1\n      signextend\n        /* \"ABDKMath64x64.sol\":14287:14306  0x10000000000000000 */\n      0x010000000000000000\n        /* \"ABDKMath64x64.sol\":14281:14306  xc >= 0x10000000000000000 */\n      dup2\n      slt\n        /* \"ABDKMath64x64.sol\":14277:14333  if (xc >= 0x10000000000000000) { xc >>= 64; msb += 64; } */\n      tag_761\n      jumpi\n        /* \"ABDKMath64x64.sol\":14317:14319  64 */\n      0x40\n        /* \"ABDKMath64x64.sol\":14321:14330  msb += 64 */\n      swap2\n      dup3\n      add\n      swap2\n        /* \"ABDKMath64x64.sol\":14310:14319  xc >>= 64 */\n      sar\n        /* \"ABDKMath64x64.sol\":14277:14333  if (xc >= 0x10000000000000000) { xc >>= 64; msb += 64; } */\n    tag_761:\n        /* \"ABDKMath64x64.sol\":14350:14361  0x100000000 */\n      0x0100000000\n        /* \"ABDKMath64x64.sol\":14344:14346  xc */\n      dup2\n        /* \"ABDKMath64x64.sol\":14344:14361  xc >= 0x100000000 */\n      slt\n        /* \"ABDKMath64x64.sol\":14340:14388  if (xc >= 0x100000000) { xc >>= 32; msb += 32; } */\n      tag_762\n      jumpi\n        /* \"ABDKMath64x64.sol\":14372:14374  32 */\n      0x20\n        /* \"ABDKMath64x64.sol\":14376:14385  msb += 32 */\n      swap2\n      dup3\n      add\n      swap2\n        /* \"ABDKMath64x64.sol\":14365:14374  xc >>= 32 */\n      sar\n        /* \"ABDKMath64x64.sol\":14340:14388  if (xc >= 0x100000000) { xc >>= 32; msb += 32; } */\n    tag_762:\n        /* \"ABDKMath64x64.sol\":14405:14412  0x10000 */\n      0x010000\n        /* \"ABDKMath64x64.sol\":14399:14401  xc */\n      dup2\n        /* \"ABDKMath64x64.sol\":14399:14412  xc >= 0x10000 */\n      slt\n        /* \"ABDKMath64x64.sol\":14395:14439  if (xc >= 0x10000) { xc >>= 16; msb += 16; } */\n      tag_763\n      jumpi\n        /* \"ABDKMath64x64.sol\":14423:14425  16 */\n      0x10\n        /* \"ABDKMath64x64.sol\":14427:14436  msb += 16 */\n      swap2\n      dup3\n      add\n      swap2\n        /* \"ABDKMath64x64.sol\":14416:14425  xc >>= 16 */\n      sar\n        /* \"ABDKMath64x64.sol\":14395:14439  if (xc >= 0x10000) { xc >>= 16; msb += 16; } */\n    tag_763:\n        /* \"ABDKMath64x64.sol\":14456:14461  0x100 */\n      0x0100\n        /* \"ABDKMath64x64.sol\":14450:14452  xc */\n      dup2\n        /* \"ABDKMath64x64.sol\":14450:14461  xc >= 0x100 */\n      slt\n        /* \"ABDKMath64x64.sol\":14446:14486  if (xc >= 0x100) { xc >>= 8; msb += 8; } */\n      tag_764\n      jumpi\n        /* \"ABDKMath64x64.sol\":14472:14473  8 */\n      0x08\n        /* \"ABDKMath64x64.sol\":14475:14483  msb += 8 */\n      swap2\n      dup3\n      add\n      swap2\n        /* \"ABDKMath64x64.sol\":14465:14473  xc >>= 8 */\n      sar\n        /* \"ABDKMath64x64.sol\":14446:14486  if (xc >= 0x100) { xc >>= 8; msb += 8; } */\n    tag_764:\n        /* \"ABDKMath64x64.sol\":14503:14507  0x10 */\n      0x10\n        /* \"ABDKMath64x64.sol\":14497:14499  xc */\n      dup2\n        /* \"ABDKMath64x64.sol\":14497:14507  xc >= 0x10 */\n      slt\n        /* \"ABDKMath64x64.sol\":14493:14532  if (xc >= 0x10) { xc >>= 4; msb += 4; } */\n      tag_765\n      jumpi\n        /* \"ABDKMath64x64.sol\":14518:14519  4 */\n      0x04\n        /* \"ABDKMath64x64.sol\":14521:14529  msb += 4 */\n      swap2\n      dup3\n      add\n      swap2\n        /* \"ABDKMath64x64.sol\":14511:14519  xc >>= 4 */\n      sar\n        /* \"ABDKMath64x64.sol\":14493:14532  if (xc >= 0x10) { xc >>= 4; msb += 4; } */\n    tag_765:\n        /* \"ABDKMath64x64.sol\":14549:14552  0x4 */\n      0x04\n        /* \"ABDKMath64x64.sol\":14543:14545  xc */\n      dup2\n        /* \"ABDKMath64x64.sol\":14543:14552  xc >= 0x4 */\n      slt\n        /* \"ABDKMath64x64.sol\":14539:14577  if (xc >= 0x4) { xc >>= 2; msb += 2; } */\n      tag_766\n      jumpi\n        /* \"ABDKMath64x64.sol\":14563:14564  2 */\n      0x02\n        /* \"ABDKMath64x64.sol\":14566:14574  msb += 2 */\n      swap2\n      dup3\n      add\n      swap2\n        /* \"ABDKMath64x64.sol\":14556:14564  xc >>= 2 */\n      sar\n        /* \"ABDKMath64x64.sol\":14539:14577  if (xc >= 0x4) { xc >>= 2; msb += 2; } */\n    tag_766:\n        /* \"ABDKMath64x64.sol\":14594:14597  0x2 */\n      0x02\n        /* \"ABDKMath64x64.sol\":14588:14590  xc */\n      dup2\n        /* \"ABDKMath64x64.sol\":14588:14597  xc >= 0x2 */\n      slt\n        /* \"ABDKMath64x64.sol\":14584:14607  if (xc >= 0x2) msb += 1 */\n      tag_767\n      jumpi\n        /* \"ABDKMath64x64.sol\":14606:14607  1 */\n      0x01\n        /* \"ABDKMath64x64.sol\":14599:14607  msb += 1 */\n      dup3\n      add\n      swap2\n      pop\n        /* \"ABDKMath64x64.sol\":14584:14607  if (xc >= 0x2) msb += 1 */\n    tag_767:\n      not(0x3f)\n        /* \"ABDKMath64x64.sol\":14664:14672  msb - 64 */\n      dup3\n      add\n        /* \"ABDKMath64x64.sol\":14676:14678  64 */\n      0x40\n        /* \"ABDKMath64x64.sol\":14664:14678  msb - 64 << 64 */\n      shl\n        /* \"ABDKMath64x64.sol\":14708:14718  int256 (x) */\n      0x0f\n      dup6\n      swap1\n      signextend\n        /* \"ABDKMath64x64.sol\":14732:14735  127 */\n      0x7f\n        /* \"ABDKMath64x64.sol\":14732:14741  127 - msb */\n      dup5\n      swap1\n      sub\n        /* \"ABDKMath64x64.sol\":14699:14742  uint256 (int256 (x)) << uint256 (127 - msb) */\n      shl\n        /* \"ABDKMath64x64.sol\":14768:14786  0x8000000000000000 */\n      0x8000000000000000\n        /* \"ABDKMath64x64.sol\":14750:14926  for (int256 bit = 0x8000000000000000; bit > 0; bit >>= 1) {... */\n    tag_768:\n        /* \"ABDKMath64x64.sol\":14794:14795  0 */\n      0x00\n        /* \"ABDKMath64x64.sol\":14788:14791  bit */\n      dup2\n        /* \"ABDKMath64x64.sol\":14788:14795  bit > 0 */\n      sgt\n        /* \"ABDKMath64x64.sol\":14750:14926  for (int256 bit = 0x8000000000000000; bit > 0; bit >>= 1) {... */\n      iszero\n      tag_381\n      jumpi\n        /* \"ABDKMath64x64.sol\":14818:14826  ux *= ux */\n      swap1\n      dup1\n      mul\n        /* \"ABDKMath64x64.sol\":14854:14857  255 */\n      0xff\n        /* \"ABDKMath64x64.sol\":14848:14857  ux >> 255 */\n      dup2\n      swap1\n      shr\n        /* \"ABDKMath64x64.sol\":14901:14917  bit * int256 (b) */\n      dup3\n      dup2\n      mul\n        /* \"ABDKMath64x64.sol\":14891:14917  result += bit * int256 (b) */\n      swap4\n      swap1\n      swap4\n      add\n      swap3\n        /* \"ABDKMath64x64.sol\":14874:14877  127 */\n      0x7f\n        /* \"ABDKMath64x64.sol\":14874:14881  127 + b */\n      add\n        /* \"ABDKMath64x64.sol\":14867:14881  ux >>= 127 + b */\n      shr\n      swap1\n        /* \"ABDKMath64x64.sol\":14805:14806  1 */\n      0x01\n        /* \"ABDKMath64x64.sol\":14797:14806  bit >>= 1 */\n      sar\n        /* \"ABDKMath64x64.sol\":14750:14926  for (int256 bit = 0x8000000000000000; bit > 0; bit >>= 1) {... */\n      jump(tag_768)\n        /* \"@openzeppelin/contracts/token/ERC20/utils/SafeERC20.sol\":8370:9090   */\n    tag_595:\n        /* \"@openzeppelin/contracts/token/ERC20/utils/SafeERC20.sol\":8450:8468   */\n      0x00\n        /* \"@openzeppelin/contracts/token/ERC20/utils/SafeERC20.sol\":8478:8497   */\n      dup1\n        /* \"@openzeppelin/contracts/token/ERC20/utils/SafeERC20.sol\":8616:8620   */\n      0x20\n        /* \"@openzeppelin/contracts/token/ERC20/utils/SafeERC20.sol\":8613:8614   */\n      0x00\n        /* \"@openzeppelin/contracts/token/ERC20/utils/SafeERC20.sol\":8606:8610   */\n      dup5\n        /* \"@openzeppelin/contracts/token/ERC20/utils/SafeERC20.sol\":8600:8611   */\n      mload\n        /* \"@openzeppelin/contracts/token/ERC20/utils/SafeERC20.sol\":8593:8597   */\n      0x20\n        /* \"@openzeppelin/contracts/token/ERC20/utils/SafeERC20.sol\":8587:8591   */\n      dup7\n        /* \"@openzeppelin/contracts/token/ERC20/utils/SafeERC20.sol\":8583:8598   */\n      add\n        /* \"@openzeppelin/contracts/token/ERC20/utils/SafeERC20.sol\":8580:8581   */\n      0x00\n        /* \"@openzeppelin/contracts/token/ERC20/utils/SafeERC20.sol\":8573:8578   */\n      dup9\n        /* \"@openzeppelin/contracts/token/ERC20/utils/SafeERC20.sol\":8566:8571   */\n      gas\n        /* \"@openzeppelin/contracts/token/ERC20/utils/SafeERC20.sol\":8561:8621   */\n      call\n        /* \"@openzeppelin/contracts/token/ERC20/utils/SafeERC20.sol\":8673:8680   */\n      dup1\n        /* \"@openzeppelin/contracts/token/ERC20/utils/SafeERC20.sol\":8663:8839   */\n      tag_773\n      jumpi\n        /* \"@openzeppelin/contracts/token/ERC20/utils/SafeERC20.sol\":8717:8721   */\n      0x40\n        /* \"@openzeppelin/contracts/token/ERC20/utils/SafeERC20.sol\":8711:8722   */\n      mload\n        /* \"@openzeppelin/contracts/token/ERC20/utils/SafeERC20.sol\":8762:8778   */\n      returndatasize\n        /* \"@openzeppelin/contracts/token/ERC20/utils/SafeERC20.sol\":8759:8760   */\n      0x00\n        /* \"@openzeppelin/contracts/token/ERC20/utils/SafeERC20.sol\":8754:8757   */\n      dup3\n        /* \"@openzeppelin/contracts/token/ERC20/utils/SafeERC20.sol\":8739:8779   */\n      returndatacopy\n        /* \"@openzeppelin/contracts/token/ERC20/utils/SafeERC20.sol\":8808:8824   */\n      returndatasize\n        /* \"@openzeppelin/contracts/token/ERC20/utils/SafeERC20.sol\":8803:8806   */\n      dup2\n        /* \"@openzeppelin/contracts/token/ERC20/utils/SafeERC20.sol\":8796:8825   */\n      revert\n        /* \"@openzeppelin/contracts/token/ERC20/utils/SafeERC20.sol\":8663:8839   */\n    tag_773:\n      pop\n      pop\n        /* \"@openzeppelin/contracts/token/ERC20/utils/SafeERC20.sol\":8916:8917   */\n      0x00\n        /* \"@openzeppelin/contracts/token/ERC20/utils/SafeERC20.sol\":8910:8918   */\n      mload\n        /* \"@openzeppelin/contracts/token/ERC20/utils/SafeERC20.sol\":8866:8882   */\n      returndatasize\n      swap2\n      pop\n        /* \"@openzeppelin/contracts/token/ERC20/utils/SafeERC20.sol\":8942:8957   */\n      dup2\n      iszero\n        /* \"@openzeppelin/contracts/token/ERC20/utils/SafeERC20.sol\":8942:9010   */\n      tag_774\n      jumpi\n        /* \"@openzeppelin/contracts/token/ERC20/utils/SafeERC20.sol\":8994:9005   */\n      dup1\n        /* \"@openzeppelin/contracts/token/ERC20/utils/SafeERC20.sol\":9009:9010   */\n      0x01\n        /* \"@openzeppelin/contracts/token/ERC20/utils/SafeERC20.sol\":8994:9010   */\n      eq\n      iszero\n        /* \"@openzeppelin/contracts/token/ERC20/utils/SafeERC20.sol\":8942:9010   */\n      jump(tag_775)\n    tag_774:\n      sub(shl(0xa0, 0x01), 0x01)\n        /* \"@openzeppelin/contracts/token/ERC20/utils/SafeERC20.sol\":8960:8986   */\n      dup5\n      and\n      extcodesize\n        /* \"@openzeppelin/contracts/token/ERC20/utils/SafeERC20.sol\":8960:8991   */\n      iszero\n        /* \"@openzeppelin/contracts/token/ERC20/utils/SafeERC20.sol\":8942:9010   */\n    tag_775:\n        /* \"@openzeppelin/contracts/token/ERC20/utils/SafeERC20.sol\":8938:9084   */\n      iszero\n      tag_597\n      jumpi\n        /* \"@openzeppelin/contracts/token/ERC20/utils/SafeERC20.sol\":9033:9073   */\n      mload(0x40)\n      shl(0xe0, 0x5274afe7)\n      dup2\n      mstore\n      sub(shl(0xa0, 0x01), 0x01)\n        /* \"#utility.yul\":4322:4377   */\n      dup6\n      and\n        /* \"@openzeppelin/contracts/token/ERC20/utils/SafeERC20.sol\":9033:9073   */\n      0x04\n      dup3\n      add\n        /* \"#utility.yul\":4304:4378   */\n      mstore\n        /* \"#utility.yul\":4277:4295   */\n      0x24\n      add\n        /* \"@openzeppelin/contracts/token/ERC20/utils/SafeERC20.sol\":9033:9073   */\n      tag_178\n        /* \"#utility.yul\":4158:4384   */\n      jump\n        /* \"#utility.yul\":14:300   */\n    tag_44:\n        /* \"#utility.yul\":72:78   */\n      0x00\n        /* \"#utility.yul\":125:127   */\n      0x20\n        /* \"#utility.yul\":113:122   */\n      dup3\n        /* \"#utility.yul\":104:111   */\n      dup5\n        /* \"#utility.yul\":100:123   */\n      sub\n        /* \"#utility.yul\":96:128   */\n      slt\n        /* \"#utility.yul\":93:145   */\n      iszero\n      tag_788\n      jumpi\n        /* \"#utility.yul\":141:142   */\n      0x00\n        /* \"#utility.yul\":138:139   */\n      dup1\n        /* \"#utility.yul\":131:143   */\n      revert\n        /* \"#utility.yul\":93:145   */\n    tag_788:\n        /* \"#utility.yul\":167:190   */\n      dup2\n      calldataload\n      not(sub(shl(0xe0, 0x01), 0x01))\n        /* \"#utility.yul\":219:251   */\n      dup2\n      and\n        /* \"#utility.yul\":209:252   */\n      dup2\n      eq\n        /* \"#utility.yul\":199:270   */\n      tag_321\n      jumpi\n        /* \"#utility.yul\":266:267   */\n      0x00\n        /* \"#utility.yul\":263:264   */\n      dup1\n        /* \"#utility.yul\":256:268   */\n      revert\n        /* \"#utility.yul\":497:693   */\n    tag_778:\n        /* \"#utility.yul\":565:585   */\n      dup1\n      calldataload\n      sub(shl(0xa0, 0x01), 0x01)\n        /* \"#utility.yul\":614:668   */\n      dup2\n      and\n        /* \"#utility.yul\":604:669   */\n      dup2\n      eq\n        /* \"#utility.yul\":594:687   */\n      tag_604\n      jumpi\n        /* \"#utility.yul\":683:684   */\n      0x00\n        /* \"#utility.yul\":680:681   */\n      dup1\n        /* \"#utility.yul\":673:685   */\n      revert\n        /* \"#utility.yul\":698:860   */\n    tag_779:\n        /* \"#utility.yul\":765:785   */\n      dup1\n      calldataload\n        /* \"#utility.yul\":825:827   */\n      0x0f\n        /* \"#utility.yul\":814:835   */\n      dup2\n      swap1\n      signextend\n        /* \"#utility.yul\":804:836   */\n      dup2\n      eq\n        /* \"#utility.yul\":794:854   */\n      tag_604\n      jumpi\n        /* \"#utility.yul\":850:851   */\n      0x00\n        /* \"#utility.yul\":847:848   */\n      dup1\n        /* \"#utility.yul\":840:852   */\n      revert\n        /* \"#utility.yul\":865:1123   */\n    tag_50:\n        /* \"#utility.yul\":932:938   */\n      0x00\n        /* \"#utility.yul\":940:946   */\n      dup1\n        /* \"#utility.yul\":993:995   */\n      0x40\n        /* \"#utility.yul\":981:990   */\n      dup4\n        /* \"#utility.yul\":972:979   */\n      dup6\n        /* \"#utility.yul\":968:991   */\n      sub\n        /* \"#utility.yul\":964:996   */\n      slt\n        /* \"#utility.yul\":961:1013   */\n      iszero\n      tag_796\n      jumpi\n        /* \"#utility.yul\":1009:1010   */\n      0x00\n        /* \"#utility.yul\":1006:1007   */\n      dup1\n        /* \"#utility.yul\":999:1011   */\n      revert\n        /* \"#utility.yul\":961:1013   */\n    tag_796:\n        /* \"#utility.yul\":1032:1061   */\n      tag_797\n        /* \"#utility.yul\":1051:1060   */\n      dup4\n        /* \"#utility.yul\":1032:1061   */\n      tag_778\n      jump\t// in\n    tag_797:\n        /* \"#utility.yul\":1022:1061   */\n      swap2\n      pop\n        /* \"#utility.yul\":1080:1117   */\n      tag_798\n        /* \"#utility.yul\":1113:1115   */\n      0x20\n        /* \"#utility.yul\":1102:1111   */\n      dup5\n        /* \"#utility.yul\":1098:1116   */\n      add\n        /* \"#utility.yul\":1080:1117   */\n      tag_779\n      jump\t// in\n    tag_798:\n        /* \"#utility.yul\":1070:1117   */\n      swap1\n      pop\n        /* \"#utility.yul\":865:1123   */\n      swap3\n      pop\n      swap3\n      swap1\n      pop\n      jump\t// out\n        /* \"#utility.yul\":1310:1564   */\n    tag_56:\n        /* \"#utility.yul\":1378:1384   */\n      0x00\n        /* \"#utility.yul\":1386:1392   */\n      dup1\n        /* \"#utility.yul\":1439:1441   */\n      0x40\n        /* \"#utility.yul\":1427:1436   */\n      dup4\n        /* \"#utility.yul\":1418:1425   */\n      dup6\n        /* \"#utility.yul\":1414:1437   */\n      sub\n        /* \"#utility.yul\":1410:1442   */\n      slt\n        /* \"#utility.yul\":1407:1459   */\n      iszero\n      tag_801\n      jumpi\n        /* \"#utility.yul\":1455:1456   */\n      0x00\n        /* \"#utility.yul\":1452:1453   */\n      dup1\n        /* \"#utility.yul\":1445:1457   */\n      revert\n        /* \"#utility.yul\":1407:1459   */\n    tag_801:\n        /* \"#utility.yul\":1478:1507   */\n      tag_802\n        /* \"#utility.yul\":1497:1506   */\n      dup4\n        /* \"#utility.yul\":1478:1507   */\n      tag_778\n      jump\t// in\n    tag_802:\n        /* \"#utility.yul\":1468:1507   */\n      swap5\n        /* \"#utility.yul\":1554:1556   */\n      0x20\n        /* \"#utility.yul\":1539:1557   */\n      swap4\n      swap1\n      swap4\n      add\n        /* \"#utility.yul\":1526:1558   */\n      calldataload\n      swap4\n      pop\n      pop\n      pop\n        /* \"#utility.yul\":1310:1564   */\n      jump\t// out\n        /* \"#utility.yul\":1765:1945   */\n    tag_71:\n        /* \"#utility.yul\":1824:1830   */\n      0x00\n        /* \"#utility.yul\":1877:1879   */\n      0x20\n        /* \"#utility.yul\":1865:1874   */\n      dup3\n        /* \"#utility.yul\":1856:1863   */\n      dup5\n        /* \"#utility.yul\":1852:1875   */\n      sub\n        /* \"#utility.yul\":1848:1880   */\n      slt\n        /* \"#utility.yul\":1845:1897   */\n      iszero\n      tag_805\n      jumpi\n        /* \"#utility.yul\":1893:1894   */\n      0x00\n        /* \"#utility.yul\":1890:1891   */\n      dup1\n        /* \"#utility.yul\":1883:1895   */\n      revert\n        /* \"#utility.yul\":1845:1897   */\n    tag_805:\n      pop\n        /* \"#utility.yul\":1916:1939   */\n      calldataload\n      swap2\n        /* \"#utility.yul\":1765:1945   */\n      swap1\n      pop\n      jump\t// out\n        /* \"#utility.yul\":1950:2077   */\n    tag_229:\n        /* \"#utility.yul\":2011:2021   */\n      0x4e487b71\n        /* \"#utility.yul\":2006:2009   */\n      0xe0\n        /* \"#utility.yul\":2002:2022   */\n      shl\n        /* \"#utility.yul\":1999:2000   */\n      0x00\n        /* \"#utility.yul\":1992:2023   */\n      mstore\n        /* \"#utility.yul\":2042:2046   */\n      0x41\n        /* \"#utility.yul\":2039:2040   */\n      0x04\n        /* \"#utility.yul\":2032:2047   */\n      mstore\n        /* \"#utility.yul\":2066:2070   */\n      0x24\n        /* \"#utility.yul\":2063:2064   */\n      0x00\n        /* \"#utility.yul\":2056:2071   */\n      revert\n        /* \"#utility.yul\":2082:3004   */\n    tag_78:\n        /* \"#utility.yul\":2151:2157   */\n      0x00\n        /* \"#utility.yul\":2204:2206   */\n      0x20\n        /* \"#utility.yul\":2192:2201   */\n      dup3\n        /* \"#utility.yul\":2183:2190   */\n      dup5\n        /* \"#utility.yul\":2179:2202   */\n      sub\n        /* \"#utility.yul\":2175:2207   */\n      slt\n        /* \"#utility.yul\":2172:2224   */\n      iszero\n      tag_808\n      jumpi\n        /* \"#utility.yul\":2220:2221   */\n      0x00\n        /* \"#utility.yul\":2217:2218   */\n      dup1\n        /* \"#utility.yul\":2210:2222   */\n      revert\n        /* \"#utility.yul\":2172:2224   */\n    tag_808:\n        /* \"#utility.yul\":2260:2269   */\n      dup2\n        /* \"#utility.yul\":2247:2270   */\n      calldataload\n        /* \"#utility.yul\":2289:2307   */\n      0xffffffffffffffff\n        /* \"#utility.yul\":2330:2332   */\n      dup1\n        /* \"#utility.yul\":2322:2328   */\n      dup3\n        /* \"#utility.yul\":2319:2333   */\n      gt\n        /* \"#utility.yul\":2316:2350   */\n      iszero\n      tag_809\n      jumpi\n        /* \"#utility.yul\":2346:2347   */\n      0x00\n        /* \"#utility.yul\":2343:2344   */\n      dup1\n        /* \"#utility.yul\":2336:2348   */\n      revert\n        /* \"#utility.yul\":2316:2350   */\n    tag_809:\n        /* \"#utility.yul\":2384:2390   */\n      dup2\n        /* \"#utility.yul\":2373:2382   */\n      dup5\n        /* \"#utility.yul\":2369:2391   */\n      add\n        /* \"#utility.yul\":2359:2391   */\n      swap2\n      pop\n        /* \"#utility.yul\":2429:2436   */\n      dup5\n        /* \"#utility.yul\":2422:2426   */\n      0x1f\n        /* \"#utility.yul\":2418:2420   */\n      dup4\n        /* \"#utility.yul\":2414:2427   */\n      add\n        /* \"#utility.yul\":2410:2437   */\n      slt\n        /* \"#utility.yul\":2400:2455   */\n      tag_810\n      jumpi\n        /* \"#utility.yul\":2451:2452   */\n      0x00\n        /* \"#utility.yul\":2448:2449   */\n      dup1\n        /* \"#utility.yul\":2441:2453   */\n      revert\n        /* \"#utility.yul\":2400:2455   */\n    tag_810:\n        /* \"#utility.yul\":2487:2489   */\n      dup2\n        /* \"#utility.yul\":2474:2490   */\n      calldataload\n        /* \"#utility.yul\":2509:2511   */\n      dup2\n        /* \"#utility.yul\":2505:2507   */\n      dup2\n        /* \"#utility.yul\":2502:2512   */\n      gt\n        /* \"#utility.yul\":2499:2535   */\n      iszero\n      tag_812\n      jumpi\n        /* \"#utility.yul\":2515:2533   */\n      tag_812\n      tag_229\n      jump\t// in\n    tag_812:\n        /* \"#utility.yul\":2590:2592   */\n      0x40\n        /* \"#utility.yul\":2584:2593   */\n      mload\n        /* \"#utility.yul\":2558:2560   */\n      0x1f\n        /* \"#utility.yul\":2644:2657   */\n      dup3\n      add\n      not(0x1f)\n        /* \"#utility.yul\":2640:2662   */\n      swap1\n      dup2\n      and\n        /* \"#utility.yul\":2664:2666   */\n      0x3f\n        /* \"#utility.yul\":2636:2667   */\n      add\n        /* \"#utility.yul\":2632:2672   */\n      and\n        /* \"#utility.yul\":2620:2673   */\n      dup2\n      add\n      swap1\n        /* \"#utility.yul\":2688:2706   */\n      dup4\n      dup3\n      gt\n        /* \"#utility.yul\":2708:2730   */\n      dup2\n      dup4\n      lt\n        /* \"#utility.yul\":2685:2731   */\n      or\n        /* \"#utility.yul\":2682:2754   */\n      iszero\n      tag_814\n      jumpi\n        /* \"#utility.yul\":2734:2752   */\n      tag_814\n      tag_229\n      jump\t// in\n    tag_814:\n        /* \"#utility.yul\":2774:2784   */\n      dup2\n        /* \"#utility.yul\":2770:2772   */\n      0x40\n        /* \"#utility.yul\":2763:2785   */\n      mstore\n        /* \"#utility.yul\":2809:2811   */\n      dup3\n        /* \"#utility.yul\":2801:2807   */\n      dup2\n        /* \"#utility.yul\":2794:2812   */\n      mstore\n        /* \"#utility.yul\":2849:2856   */\n      dup8\n        /* \"#utility.yul\":2844:2846   */\n      0x20\n        /* \"#utility.yul\":2839:2841   */\n      dup5\n        /* \"#utility.yul\":2835:2837   */\n      dup8\n        /* \"#utility.yul\":2831:2842   */\n      add\n        /* \"#utility.yul\":2827:2847   */\n      add\n        /* \"#utility.yul\":2824:2857   */\n      gt\n        /* \"#utility.yul\":2821:2874   */\n      iszero\n      tag_815\n      jumpi\n        /* \"#utility.yul\":2870:2871   */\n      0x00\n        /* \"#utility.yul\":2867:2868   */\n      dup1\n        /* \"#utility.yul\":2860:2872   */\n      revert\n        /* \"#utility.yul\":2821:2874   */\n    tag_815:\n        /* \"#utility.yul\":2926:2928   */\n      dup3\n        /* \"#utility.yul\":2921:2923   */\n      0x20\n        /* \"#utility.yul\":2917:2919   */\n      dup7\n        /* \"#utility.yul\":2913:2924   */\n      add\n        /* \"#utility.yul\":2908:2910   */\n      0x20\n        /* \"#utility.yul\":2900:2906   */\n      dup4\n        /* \"#utility.yul\":2896:2911   */\n      add\n        /* \"#utility.yul\":2883:2929   */\n      calldatacopy\n        /* \"#utility.yul\":2971:2972   */\n      0x00\n        /* \"#utility.yul\":2949:2964   */\n      swap3\n      dup2\n      add\n        /* \"#utility.yul\":2966:2968   */\n      0x20\n        /* \"#utility.yul\":2945:2969   */\n      add\n        /* \"#utility.yul\":2938:2973   */\n      swap3\n      swap1\n      swap3\n      mstore\n      pop\n        /* \"#utility.yul\":2953:2959   */\n      swap6\n        /* \"#utility.yul\":2082:3004   */\n      swap5\n      pop\n      pop\n      pop\n      pop\n      pop\n      jump\t// out\n        /* \"#utility.yul\":3191:3443   */\n    tag_87:\n        /* \"#utility.yul\":3258:3264   */\n      0x00\n        /* \"#utility.yul\":3266:3272   */\n      dup1\n        /* \"#utility.yul\":3319:3321   */\n      0x40\n        /* \"#utility.yul\":3307:3316   */\n      dup4\n        /* \"#utility.yul\":3298:3305   */\n      dup6\n        /* \"#utility.yul\":3294:3317   */\n      sub\n        /* \"#utility.yul\":3290:3322   */\n      slt\n        /* \"#utility.yul\":3287:3339   */\n      iszero\n      tag_818\n      jumpi\n        /* \"#utility.yul\":3335:3336   */\n      0x00\n        /* \"#utility.yul\":3332:3333   */\n      dup1\n        /* \"#utility.yul\":3325:3337   */\n      revert\n        /* \"#utility.yul\":3287:3339   */\n    tag_818:\n        /* \"#utility.yul\":3371:3380   */\n      dup3\n        /* \"#utility.yul\":3358:3381   */\n      calldataload\n        /* \"#utility.yul\":3348:3381   */\n      swap2\n      pop\n        /* \"#utility.yul\":3400:3437   */\n      tag_798\n        /* \"#utility.yul\":3433:3435   */\n      0x20\n        /* \"#utility.yul\":3422:3431   */\n      dup5\n        /* \"#utility.yul\":3418:3436   */\n      add\n        /* \"#utility.yul\":3400:3437   */\n      tag_779\n      jump\t// in\n        /* \"#utility.yul\":3448:3887   */\n    tag_780:\n        /* \"#utility.yul\":3501:3504   */\n      0x00\n        /* \"#utility.yul\":3539:3544   */\n      dup2\n        /* \"#utility.yul\":3533:3545   */\n      mload\n        /* \"#utility.yul\":3566:3572   */\n      dup1\n        /* \"#utility.yul\":3561:3564   */\n      dup5\n        /* \"#utility.yul\":3554:3573   */\n      mstore\n        /* \"#utility.yul\":3592:3596   */\n      0x20\n        /* \"#utility.yul\":3621:3625   */\n      dup1\n        /* \"#utility.yul\":3616:3619   */\n      dup6\n        /* \"#utility.yul\":3612:3626   */\n      add\n        /* \"#utility.yul\":3605:3626   */\n      swap5\n      pop\n        /* \"#utility.yul\":3660:3664   */\n      0x20\n        /* \"#utility.yul\":3653:3658   */\n      dup5\n        /* \"#utility.yul\":3649:3665   */\n      add\n        /* \"#utility.yul\":3683:3684   */\n      0x00\n        /* \"#utility.yul\":3693:3862   */\n    tag_821:\n        /* \"#utility.yul\":3707:3713   */\n      dup4\n        /* \"#utility.yul\":3704:3705   */\n      dup2\n        /* \"#utility.yul\":3701:3714   */\n      lt\n        /* \"#utility.yul\":3693:3862   */\n      iszero\n      tag_823\n      jumpi\n        /* \"#utility.yul\":3768:3781   */\n      dup2\n      mload\n        /* \"#utility.yul\":3756:3782   */\n      dup8\n      mstore\n        /* \"#utility.yul\":3802:3814   */\n      swap6\n      dup3\n      add\n      swap6\n        /* \"#utility.yul\":3837:3852   */\n      swap1\n      dup3\n      add\n      swap1\n        /* \"#utility.yul\":3729:3730   */\n      0x01\n        /* \"#utility.yul\":3722:3731   */\n      add\n        /* \"#utility.yul\":3693:3862   */\n      jump(tag_821)\n    tag_823:\n      pop\n        /* \"#utility.yul\":3878:3881   */\n      swap5\n      swap6\n        /* \"#utility.yul\":3448:3887   */\n      swap5\n      pop\n      pop\n      pop\n      pop\n      pop\n      jump\t// out\n        /* \"#utility.yul\":3892:4153   */\n    tag_112:\n        /* \"#utility.yul\":4071:4073   */\n      0x20\n        /* \"#utility.yul\":4060:4069   */\n      dup2\n        /* \"#utility.yul\":4053:4074   */\n      mstore\n        /* \"#utility.yul\":4034:4038   */\n      0x00\n        /* \"#utility.yul\":4091:4147   */\n      tag_321\n        /* \"#utility.yul\":4143:4145   */\n      0x20\n        /* \"#utility.yul\":4132:4141   */\n      dup4\n        /* \"#utility.yul\":4128:4146   */\n      add\n        /* \"#utility.yul\":4120:4126   */\n      dup5\n        /* \"#utility.yul\":4091:4147   */\n      tag_780\n      jump\t// in\n        /* \"#utility.yul\":4389:4849   */\n    tag_123:\n        /* \"#utility.yul\":4484:4490   */\n      0x00\n        /* \"#utility.yul\":4492:4498   */\n      dup1\n        /* \"#utility.yul\":4500:4506   */\n      0x00\n        /* \"#utility.yul\":4508:4514   */\n      dup1\n        /* \"#utility.yul\":4516:4522   */\n      0x00\n        /* \"#utility.yul\":4569:4572   */\n      0xa0\n        /* \"#utility.yul\":4557:4566   */\n      dup7\n        /* \"#utility.yul\":4548:4555   */\n      dup9\n        /* \"#utility.yul\":4544:4567   */\n      sub\n        /* \"#utility.yul\":4540:4573   */\n      slt\n        /* \"#utility.yul\":4537:4590   */\n      iszero\n      tag_828\n      jumpi\n        /* \"#utility.yul\":4586:4587   */\n      0x00\n        /* \"#utility.yul\":4583:4584   */\n      dup1\n        /* \"#utility.yul\":4576:4588   */\n      revert\n        /* \"#utility.yul\":4537:4590   */\n    tag_828:\n        /* \"#utility.yul\":4609:4638   */\n      tag_829\n        /* \"#utility.yul\":4628:4637   */\n      dup7\n        /* \"#utility.yul\":4609:4638   */\n      tag_778\n      jump\t// in\n    tag_829:\n        /* \"#utility.yul\":4599:4638   */\n      swap8\n        /* \"#utility.yul\":4685:4687   */\n      0x20\n        /* \"#utility.yul\":4670:4688   */\n      dup8\n      add\n        /* \"#utility.yul\":4657:4689   */\n      calldataload\n      swap8\n      pop\n        /* \"#utility.yul\":4736:4738   */\n      0x40\n        /* \"#utility.yul\":4721:4739   */\n      dup8\n      add\n        /* \"#utility.yul\":4708:4740   */\n      calldataload\n      swap7\n        /* \"#utility.yul\":4787:4789   */\n      0x60\n        /* \"#utility.yul\":4772:4790   */\n      dup2\n      add\n        /* \"#utility.yul\":4759:4791   */\n      calldataload\n      swap7\n      pop\n        /* \"#utility.yul\":4838:4841   */\n      0x80\n        /* \"#utility.yul\":4823:4842   */\n      add\n        /* \"#utility.yul\":4810:4843   */\n      calldataload\n      swap5\n      pop\n        /* \"#utility.yul\":4389:4849   */\n      swap3\n      pop\n      pop\n      pop\n      jump\t// out\n        /* \"#utility.yul\":4854:5221   */\n    tag_781:\n        /* \"#utility.yul\":4917:4925   */\n      0x00\n        /* \"#utility.yul\":4927:4933   */\n      dup1\n        /* \"#utility.yul\":4981:4984   */\n      dup4\n        /* \"#utility.yul\":4974:4978   */\n      0x1f\n        /* \"#utility.yul\":4966:4972   */\n      dup5\n        /* \"#utility.yul\":4962:4979   */\n      add\n        /* \"#utility.yul\":4958:4985   */\n      slt\n        /* \"#utility.yul\":4948:5003   */\n      tag_831\n      jumpi\n        /* \"#utility.yul\":4999:5000   */\n      0x00\n        /* \"#utility.yul\":4996:4997   */\n      dup1\n        /* \"#utility.yul\":4989:5001   */\n      revert\n        /* \"#utility.yul\":4948:5003   */\n    tag_831:\n      pop\n        /* \"#utility.yul\":5022:5042   */\n      dup2\n      calldataload\n        /* \"#utility.yul\":5065:5083   */\n      0xffffffffffffffff\n        /* \"#utility.yul\":5054:5084   */\n      dup2\n      gt\n        /* \"#utility.yul\":5051:5101   */\n      iszero\n      tag_832\n      jumpi\n        /* \"#utility.yul\":5097:5098   */\n      0x00\n        /* \"#utility.yul\":5094:5095   */\n      dup1\n        /* \"#utility.yul\":5087:5099   */\n      revert\n        /* \"#utility.yul\":5051:5101   */\n    tag_832:\n        /* \"#utility.yul\":5134:5138   */\n      0x20\n        /* \"#utility.yul\":5126:5132   */\n      dup4\n        /* \"#utility.yul\":5122:5139   */\n      add\n        /* \"#utility.yul\":5110:5139   */\n      swap2\n      pop\n        /* \"#utility.yul\":5194:5197   */\n      dup4\n        /* \"#utility.yul\":5187:5191   */\n      0x20\n        /* \"#utility.yul\":5177:5183   */\n      dup3\n        /* \"#utility.yul\":5174:5175   */\n      0x05\n        /* \"#utility.yul\":5170:5184   */\n      shl\n        /* \"#utility.yul\":5162:5168   */\n      dup6\n        /* \"#utility.yul\":5158:5185   */\n      add\n        /* \"#utility.yul\":5154:5192   */\n      add\n        /* \"#utility.yul\":5151:5198   */\n      gt\n        /* \"#utility.yul\":5148:5215   */\n      iszero\n      tag_833\n      jumpi\n        /* \"#utility.yul\":5211:5212   */\n      0x00\n        /* \"#utility.yul\":5208:5209   */\n      dup1\n        /* \"#utility.yul\":5201:5213   */\n      revert\n        /* \"#utility.yul\":5148:5215   */\n    tag_833:\n        /* \"#utility.yul\":4854:5221   */\n      swap3\n      pop\n      swap3\n      swap1\n      pop\n      jump\t// out\n        /* \"#utility.yul\":5226:5573   */\n    tag_782:\n        /* \"#utility.yul\":5277:5285   */\n      0x00\n        /* \"#utility.yul\":5287:5293   */\n      dup1\n        /* \"#utility.yul\":5341:5344   */\n      dup4\n        /* \"#utility.yul\":5334:5338   */\n      0x1f\n        /* \"#utility.yul\":5326:5332   */\n      dup5\n        /* \"#utility.yul\":5322:5339   */\n      add\n        /* \"#utility.yul\":5318:5345   */\n      slt\n        /* \"#utility.yul\":5308:5363   */\n      tag_835\n      jumpi\n        /* \"#utility.yul\":5359:5360   */\n      0x00\n        /* \"#utility.yul\":5356:5357   */\n      dup1\n        /* \"#utility.yul\":5349:5361   */\n      revert\n        /* \"#utility.yul\":5308:5363   */\n    tag_835:\n      pop\n        /* \"#utility.yul\":5382:5402   */\n      dup2\n      calldataload\n        /* \"#utility.yul\":5425:5443   */\n      0xffffffffffffffff\n        /* \"#utility.yul\":5414:5444   */\n      dup2\n      gt\n        /* \"#utility.yul\":5411:5461   */\n      iszero\n      tag_836\n      jumpi\n        /* \"#utility.yul\":5457:5458   */\n      0x00\n        /* \"#utility.yul\":5454:5455   */\n      dup1\n        /* \"#utility.yul\":5447:5459   */\n      revert\n        /* \"#utility.yul\":5411:5461   */\n    tag_836:\n        /* \"#utility.yul\":5494:5498   */\n      0x20\n        /* \"#utility.yul\":5486:5492   */\n      dup4\n        /* \"#utility.yul\":5482:5499   */\n      add\n        /* \"#utility.yul\":5470:5499   */\n      swap2\n      pop\n        /* \"#utility.yul\":5546:5549   */\n      dup4\n        /* \"#utility.yul\":5539:5543   */\n      0x20\n        /* \"#utility.yul\":5530:5536   */\n      dup3\n        /* \"#utility.yul\":5522:5528   */\n      dup6\n        /* \"#utility.yul\":5518:5537   */\n      add\n        /* \"#utility.yul\":5514:5544   */\n      add\n        /* \"#utility.yul\":5511:5550   */\n      gt\n        /* \"#utility.yul\":5508:5567   */\n      iszero\n      tag_833\n      jumpi\n        /* \"#utility.yul\":5563:5564   */\n      0x00\n        /* \"#utility.yul\":5560:5561   */\n      dup1\n        /* \"#utility.yul\":5553:5565   */\n      revert\n        /* \"#utility.yul\":5578:6788   */\n    tag_135:\n        /* \"#utility.yul\":5738:5744   */\n      0x00\n        /* \"#utility.yul\":5746:5752   */\n      dup1\n        /* \"#utility.yul\":5754:5760   */\n      0x00\n        /* \"#utility.yul\":5762:5768   */\n      dup1\n        /* \"#utility.yul\":5770:5776   */\n      0x00\n        /* \"#utility.yul\":5778:5784   */\n      dup1\n        /* \"#utility.yul\":5786:5792   */\n      0x00\n        /* \"#utility.yul\":5794:5800   */\n      dup1\n        /* \"#utility.yul\":5847:5850   */\n      0xa0\n        /* \"#utility.yul\":5835:5844   */\n      dup10\n        /* \"#utility.yul\":5826:5833   */\n      dup12\n        /* \"#utility.yul\":5822:5845   */\n      sub\n        /* \"#utility.yul\":5818:5851   */\n      slt\n        /* \"#utility.yul\":5815:5868   */\n      iszero\n      tag_839\n      jumpi\n        /* \"#utility.yul\":5864:5865   */\n      0x00\n        /* \"#utility.yul\":5861:5862   */\n      dup1\n        /* \"#utility.yul\":5854:5866   */\n      revert\n        /* \"#utility.yul\":5815:5868   */\n    tag_839:\n        /* \"#utility.yul\":5887:5916   */\n      tag_840\n        /* \"#utility.yul\":5906:5915   */\n      dup10\n        /* \"#utility.yul\":5887:5916   */\n      tag_778\n      jump\t// in\n    tag_840:\n        /* \"#utility.yul\":5877:5916   */\n      swap8\n      pop\n        /* \"#utility.yul\":5935:5973   */\n      tag_841\n        /* \"#utility.yul\":5969:5971   */\n      0x20\n        /* \"#utility.yul\":5958:5967   */\n      dup11\n        /* \"#utility.yul\":5954:5972   */\n      add\n        /* \"#utility.yul\":5935:5973   */\n      tag_778\n      jump\t// in\n    tag_841:\n        /* \"#utility.yul\":5925:5973   */\n      swap7\n      pop\n        /* \"#utility.yul\":6024:6026   */\n      0x40\n        /* \"#utility.yul\":6013:6022   */\n      dup10\n        /* \"#utility.yul\":6009:6027   */\n      add\n        /* \"#utility.yul\":5996:6028   */\n      calldataload\n        /* \"#utility.yul\":6047:6065   */\n      0xffffffffffffffff\n        /* \"#utility.yul\":6088:6090   */\n      dup1\n        /* \"#utility.yul\":6080:6086   */\n      dup3\n        /* \"#utility.yul\":6077:6091   */\n      gt\n        /* \"#utility.yul\":6074:6108   */\n      iszero\n      tag_842\n      jumpi\n        /* \"#utility.yul\":6104:6105   */\n      0x00\n        /* \"#utility.yul\":6101:6102   */\n      dup1\n        /* \"#utility.yul\":6094:6106   */\n      revert\n        /* \"#utility.yul\":6074:6108   */\n    tag_842:\n        /* \"#utility.yul\":6143:6213   */\n      tag_843\n        /* \"#utility.yul\":6205:6212   */\n      dup13\n        /* \"#utility.yul\":6196:6202   */\n      dup4\n        /* \"#utility.yul\":6185:6194   */\n      dup14\n        /* \"#utility.yul\":6181:6203   */\n      add\n        /* \"#utility.yul\":6143:6213   */\n      tag_781\n      jump\t// in\n    tag_843:\n        /* \"#utility.yul\":6232:6240   */\n      swap1\n      swap9\n      pop\n        /* \"#utility.yul\":6117:6213   */\n      swap7\n      pop\n        /* \"#utility.yul\":6320:6322   */\n      0x60\n        /* \"#utility.yul\":6305:6323   */\n      dup12\n      add\n        /* \"#utility.yul\":6292:6324   */\n      calldataload\n      swap2\n      pop\n        /* \"#utility.yul\":6336:6352   */\n      dup1\n      dup3\n      gt\n        /* \"#utility.yul\":6333:6369   */\n      iszero\n      tag_844\n      jumpi\n        /* \"#utility.yul\":6365:6366   */\n      0x00\n        /* \"#utility.yul\":6362:6363   */\n      dup1\n        /* \"#utility.yul\":6355:6367   */\n      revert\n        /* \"#utility.yul\":6333:6369   */\n    tag_844:\n        /* \"#utility.yul\":6404:6476   */\n      tag_845\n        /* \"#utility.yul\":6468:6475   */\n      dup13\n        /* \"#utility.yul\":6457:6465   */\n      dup4\n        /* \"#utility.yul\":6446:6455   */\n      dup14\n        /* \"#utility.yul\":6442:6466   */\n      add\n        /* \"#utility.yul\":6404:6476   */\n      tag_781\n      jump\t// in\n    tag_845:\n        /* \"#utility.yul\":6495:6503   */\n      swap1\n      swap7\n      pop\n        /* \"#utility.yul\":6378:6476   */\n      swap5\n      pop\n        /* \"#utility.yul\":6583:6586   */\n      0x80\n        /* \"#utility.yul\":6568:6587   */\n      dup12\n      add\n        /* \"#utility.yul\":6555:6588   */\n      calldataload\n      swap2\n      pop\n        /* \"#utility.yul\":6600:6616   */\n      dup1\n      dup3\n      gt\n        /* \"#utility.yul\":6597:6633   */\n      iszero\n      tag_846\n      jumpi\n        /* \"#utility.yul\":6629:6630   */\n      0x00\n        /* \"#utility.yul\":6626:6627   */\n      dup1\n        /* \"#utility.yul\":6619:6631   */\n      revert\n        /* \"#utility.yul\":6597:6633   */\n    tag_846:\n      pop\n        /* \"#utility.yul\":6668:6728   */\n      tag_847\n        /* \"#utility.yul\":6720:6727   */\n      dup12\n        /* \"#utility.yul\":6709:6717   */\n      dup3\n        /* \"#utility.yul\":6698:6707   */\n      dup13\n        /* \"#utility.yul\":6694:6718   */\n      add\n        /* \"#utility.yul\":6668:6728   */\n      tag_782\n      jump\t// in\n    tag_847:\n        /* \"#utility.yul\":5578:6788   */\n      swap10\n      swap13\n      swap9\n      swap12\n      pop\n      swap7\n      swap10\n      pop\n      swap5\n      swap8\n      swap4\n      swap7\n      swap3\n      swap6\n        /* \"#utility.yul\":6747:6755   */\n      swap5\n      pop\n      pop\n      pop\n        /* \"#utility.yul\":5578:6788   */\n      jump\t// out\n        /* \"#utility.yul\":7253:7948   */\n    tag_155:\n        /* \"#utility.yul\":7359:7365   */\n      0x00\n        /* \"#utility.yul\":7367:7373   */\n      dup1\n        /* \"#utility.yul\":7375:7381   */\n      0x00\n        /* \"#utility.yul\":7383:7389   */\n      dup1\n        /* \"#utility.yul\":7391:7397   */\n      0x00\n        /* \"#utility.yul\":7399:7405   */\n      dup1\n        /* \"#utility.yul\":7452:7455   */\n      0xa0\n        /* \"#utility.yul\":7440:7449   */\n      dup8\n        /* \"#utility.yul\":7431:7438   */\n      dup10\n        /* \"#utility.yul\":7427:7450   */\n      sub\n        /* \"#utility.yul\":7423:7456   */\n      slt\n        /* \"#utility.yul\":7420:7473   */\n      iszero\n      tag_851\n      jumpi\n        /* \"#utility.yul\":7469:7470   */\n      0x00\n        /* \"#utility.yul\":7466:7467   */\n      dup1\n        /* \"#utility.yul\":7459:7471   */\n      revert\n        /* \"#utility.yul\":7420:7473   */\n    tag_851:\n        /* \"#utility.yul\":7492:7521   */\n      tag_852\n        /* \"#utility.yul\":7511:7520   */\n      dup8\n        /* \"#utility.yul\":7492:7521   */\n      tag_778\n      jump\t// in\n    tag_852:\n        /* \"#utility.yul\":7482:7521   */\n      swap6\n      pop\n        /* \"#utility.yul\":7540:7578   */\n      tag_853\n        /* \"#utility.yul\":7574:7576   */\n      0x20\n        /* \"#utility.yul\":7563:7572   */\n      dup9\n        /* \"#utility.yul\":7559:7577   */\n      add\n        /* \"#utility.yul\":7540:7578   */\n      tag_778\n      jump\t// in\n    tag_853:\n        /* \"#utility.yul\":7530:7578   */\n      swap5\n      pop\n        /* \"#utility.yul\":7625:7627   */\n      0x40\n        /* \"#utility.yul\":7614:7623   */\n      dup8\n        /* \"#utility.yul\":7610:7628   */\n      add\n        /* \"#utility.yul\":7597:7629   */\n      calldataload\n        /* \"#utility.yul\":7587:7629   */\n      swap4\n      pop\n        /* \"#utility.yul\":7676:7678   */\n      0x60\n        /* \"#utility.yul\":7665:7674   */\n      dup8\n        /* \"#utility.yul\":7661:7679   */\n      add\n        /* \"#utility.yul\":7648:7680   */\n      calldataload\n        /* \"#utility.yul\":7638:7680   */\n      swap3\n      pop\n        /* \"#utility.yul\":7731:7734   */\n      0x80\n        /* \"#utility.yul\":7720:7729   */\n      dup8\n        /* \"#utility.yul\":7716:7735   */\n      add\n        /* \"#utility.yul\":7703:7736   */\n      calldataload\n        /* \"#utility.yul\":7759:7777   */\n      0xffffffffffffffff\n        /* \"#utility.yul\":7751:7757   */\n      dup2\n        /* \"#utility.yul\":7748:7778   */\n      gt\n        /* \"#utility.yul\":7745:7795   */\n      iszero\n      tag_854\n      jumpi\n        /* \"#utility.yul\":7791:7792   */\n      0x00\n        /* \"#utility.yul\":7788:7789   */\n      dup1\n        /* \"#utility.yul\":7781:7793   */\n      revert\n        /* \"#utility.yul\":7745:7795   */\n    tag_854:\n        /* \"#utility.yul\":7830:7888   */\n      tag_855\n        /* \"#utility.yul\":7880:7887   */\n      dup10\n        /* \"#utility.yul\":7871:7877   */\n      dup3\n        /* \"#utility.yul\":7860:7869   */\n      dup11\n        /* \"#utility.yul\":7856:7878   */\n      add\n        /* \"#utility.yul\":7830:7888   */\n      tag_782\n      jump\t// in\n    tag_855:\n        /* \"#utility.yul\":7253:7948   */\n      swap8\n      swap11\n      swap7\n      swap10\n      pop\n      swap5\n      swap8\n      pop\n      swap3\n      swap6\n        /* \"#utility.yul\":7907:7915   */\n      swap4\n      swap5\n        /* \"#utility.yul\":7253:7948   */\n      swap3\n      pop\n      pop\n      pop\n      jump\t// out\n        /* \"#utility.yul\":7953:8139   */\n    tag_160:\n        /* \"#utility.yul\":8012:8018   */\n      0x00\n        /* \"#utility.yul\":8065:8067   */\n      0x20\n        /* \"#utility.yul\":8053:8062   */\n      dup3\n        /* \"#utility.yul\":8044:8051   */\n      dup5\n        /* \"#utility.yul\":8040:8063   */\n      sub\n        /* \"#utility.yul\":8036:8068   */\n      slt\n        /* \"#utility.yul\":8033:8085   */\n      iszero\n      tag_857\n      jumpi\n        /* \"#utility.yul\":8081:8082   */\n      0x00\n        /* \"#utility.yul\":8078:8079   */\n      dup1\n        /* \"#utility.yul\":8071:8083   */\n      revert\n        /* \"#utility.yul\":8033:8085   */\n    tag_857:\n        /* \"#utility.yul\":8104:8133   */\n      tag_321\n        /* \"#utility.yul\":8123:8132   */\n      dup3\n        /* \"#utility.yul\":8104:8133   */\n      tag_778\n      jump\t// in\n        /* \"#utility.yul\":8144:8417   */\n    tag_174:\n        /* \"#utility.yul\":8212:8218   */\n      0x00\n        /* \"#utility.yul\":8265:8267   */\n      0x20\n        /* \"#utility.yul\":8253:8262   */\n      dup3\n        /* \"#utility.yul\":8244:8251   */\n      dup5\n        /* \"#utility.yul\":8240:8263   */\n      sub\n        /* \"#utility.yul\":8236:8268   */\n      slt\n        /* \"#utility.yul\":8233:8285   */\n      iszero\n      tag_860\n      jumpi\n        /* \"#utility.yul\":8281:8282   */\n      0x00\n        /* \"#utility.yul\":8278:8279   */\n      dup1\n        /* \"#utility.yul\":8271:8283   */\n      revert\n        /* \"#utility.yul\":8233:8285   */\n    tag_860:\n        /* \"#utility.yul\":8313:8322   */\n      dup2\n        /* \"#utility.yul\":8307:8323   */\n      mload\n        /* \"#utility.yul\":8363:8367   */\n      0xff\n        /* \"#utility.yul\":8356:8361   */\n      dup2\n        /* \"#utility.yul\":8352:8368   */\n      and\n        /* \"#utility.yul\":8345:8350   */\n      dup2\n        /* \"#utility.yul\":8342:8369   */\n      eq\n        /* \"#utility.yul\":8332:8387   */\n      tag_321\n      jumpi\n        /* \"#utility.yul\":8383:8384   */\n      0x00\n        /* \"#utility.yul\":8380:8381   */\n      dup1\n        /* \"#utility.yul\":8373:8385   */\n      revert\n        /* \"#utility.yul\":8422:8549   */\n    tag_783:\n        /* \"#utility.yul\":8483:8493   */\n      0x4e487b71\n        /* \"#utility.yul\":8478:8481   */\n      0xe0\n        /* \"#utility.yul\":8474:8494   */\n      shl\n        /* \"#utility.yul\":8471:8472   */\n      0x00\n        /* \"#utility.yul\":8464:8495   */\n      mstore\n        /* \"#utility.yul\":8514:8518   */\n      0x11\n        /* \"#utility.yul\":8511:8512   */\n      0x04\n        /* \"#utility.yul\":8504:8519   */\n      mstore\n        /* \"#utility.yul\":8538:8542   */\n      0x24\n        /* \"#utility.yul\":8535:8536   */\n      0x00\n        /* \"#utility.yul\":8528:8543   */\n      revert\n        /* \"#utility.yul\":8554:8970   */\n    tag_784:\n        /* \"#utility.yul\":8643:8644   */\n      0x01\n        /* \"#utility.yul\":8680:8685   */\n      dup2\n        /* \"#utility.yul\":8643:8644   */\n      dup2\n        /* \"#utility.yul\":8694:8964   */\n    tag_864:\n        /* \"#utility.yul\":8715:8722   */\n      dup1\n        /* \"#utility.yul\":8705:8713   */\n      dup6\n        /* \"#utility.yul\":8702:8723   */\n      gt\n        /* \"#utility.yul\":8694:8964   */\n      iszero\n      tag_866\n      jumpi\n        /* \"#utility.yul\":8774:8778   */\n      dup2\n        /* \"#utility.yul\":8770:8771   */\n      0x00\n        /* \"#utility.yul\":8766:8772   */\n      not\n        /* \"#utility.yul\":8762:8779   */\n      div\n        /* \"#utility.yul\":8756:8760   */\n      dup3\n        /* \"#utility.yul\":8753:8780   */\n      gt\n        /* \"#utility.yul\":8750:8803   */\n      iszero\n      tag_868\n      jumpi\n        /* \"#utility.yul\":8783:8801   */\n      tag_868\n      tag_783\n      jump\t// in\n    tag_868:\n        /* \"#utility.yul\":8833:8840   */\n      dup1\n        /* \"#utility.yul\":8823:8831   */\n      dup6\n        /* \"#utility.yul\":8819:8841   */\n      and\n        /* \"#utility.yul\":8816:8871   */\n      iszero\n      tag_869\n      jumpi\n        /* \"#utility.yul\":8853:8869   */\n      swap2\n      dup2\n      mul\n      swap2\n        /* \"#utility.yul\":8816:8871   */\n    tag_869:\n        /* \"#utility.yul\":8932:8954   */\n      swap4\n      dup5\n      shr\n      swap4\n        /* \"#utility.yul\":8892:8907   */\n      swap1\n      dup1\n      mul\n      swap1\n        /* \"#utility.yul\":8694:8964   */\n      jump(tag_864)\n    tag_866:\n        /* \"#utility.yul\":8698:8701   */\n      pop\n        /* \"#utility.yul\":8554:8970   */\n      swap3\n      pop\n      swap3\n      swap1\n      pop\n      jump\t// out\n        /* \"#utility.yul\":8975:9781   */\n    tag_785:\n        /* \"#utility.yul\":9024:9029   */\n      0x00\n        /* \"#utility.yul\":9054:9062   */\n      dup3\n        /* \"#utility.yul\":9044:9124   */\n      tag_871\n      jumpi\n      pop\n        /* \"#utility.yul\":9095:9096   */\n      0x01\n        /* \"#utility.yul\":9109:9114   */\n      jump(tag_170)\n        /* \"#utility.yul\":9044:9124   */\n    tag_871:\n        /* \"#utility.yul\":9143:9147   */\n      dup2\n        /* \"#utility.yul\":9133:9209   */\n      tag_872\n      jumpi\n      pop\n        /* \"#utility.yul\":9180:9181   */\n      0x00\n        /* \"#utility.yul\":9194:9199   */\n      jump(tag_170)\n        /* \"#utility.yul\":9133:9209   */\n    tag_872:\n        /* \"#utility.yul\":9225:9229   */\n      dup2\n        /* \"#utility.yul\":9243:9244   */\n      0x01\n        /* \"#utility.yul\":9238:9297   */\n      dup2\n      eq\n      tag_874\n      jumpi\n        /* \"#utility.yul\":9311:9312   */\n      0x02\n        /* \"#utility.yul\":9306:9436   */\n      dup2\n      eq\n      tag_875\n      jumpi\n        /* \"#utility.yul\":9218:9436   */\n      jump(tag_873)\n        /* \"#utility.yul\":9238:9297   */\n    tag_874:\n        /* \"#utility.yul\":9268:9269   */\n      0x01\n        /* \"#utility.yul\":9259:9269   */\n      swap2\n      pop\n        /* \"#utility.yul\":9282:9287   */\n      pop\n      jump(tag_170)\n        /* \"#utility.yul\":9306:9436   */\n    tag_875:\n        /* \"#utility.yul\":9343:9346   */\n      0xff\n        /* \"#utility.yul\":9333:9341   */\n      dup5\n        /* \"#utility.yul\":9330:9347   */\n      gt\n        /* \"#utility.yul\":9327:9370   */\n      iszero\n      tag_877\n      jumpi\n        /* \"#utility.yul\":9350:9368   */\n      tag_877\n      tag_783\n      jump\t// in\n    tag_877:\n      pop\n      pop\n        /* \"#utility.yul\":9406:9407   */\n      0x01\n        /* \"#utility.yul\":9392:9408   */\n      dup3\n      shl\n        /* \"#utility.yul\":9421:9426   */\n      jump(tag_170)\n        /* \"#utility.yul\":9218:9436   */\n    tag_873:\n      pop\n        /* \"#utility.yul\":9520:9522   */\n      0x20\n        /* \"#utility.yul\":9510:9518   */\n      dup4\n        /* \"#utility.yul\":9507:9523   */\n      lt\n        /* \"#utility.yul\":9501:9504   */\n      0x0133\n        /* \"#utility.yul\":9495:9499   */\n      dup4\n        /* \"#utility.yul\":9492:9505   */\n      lt\n        /* \"#utility.yul\":9488:9524   */\n      and\n        /* \"#utility.yul\":9482:9484   */\n      0x4e\n        /* \"#utility.yul\":9472:9480   */\n      dup5\n        /* \"#utility.yul\":9469:9485   */\n      lt\n        /* \"#utility.yul\":9464:9466   */\n      0x0b\n        /* \"#utility.yul\":9458:9462   */\n      dup5\n        /* \"#utility.yul\":9455:9467   */\n      lt\n        /* \"#utility.yul\":9451:9486   */\n      and\n        /* \"#utility.yul\":9448:9525   */\n      or\n        /* \"#utility.yul\":9445:9604   */\n      iszero\n      tag_878\n      jumpi\n      pop\n        /* \"#utility.yul\":9557:9576   */\n      dup2\n      dup2\n      exp\n        /* \"#utility.yul\":9589:9594   */\n      jump(tag_170)\n        /* \"#utility.yul\":9445:9604   */\n    tag_878:\n        /* \"#utility.yul\":9636:9670   */\n      tag_879\n        /* \"#utility.yul\":9661:9669   */\n      dup4\n        /* \"#utility.yul\":9655:9659   */\n      dup4\n        /* \"#utility.yul\":9636:9670   */\n      tag_784\n      jump\t// in\n    tag_879:\n        /* \"#utility.yul\":9706:9712   */\n      dup1\n        /* \"#utility.yul\":9702:9703   */\n      0x00\n        /* \"#utility.yul\":9698:9704   */\n      not\n        /* \"#utility.yul\":9694:9713   */\n      div\n        /* \"#utility.yul\":9685:9692   */\n      dup3\n        /* \"#utility.yul\":9682:9714   */\n      gt\n        /* \"#utility.yul\":9679:9737   */\n      iszero\n      tag_881\n      jumpi\n        /* \"#utility.yul\":9717:9735   */\n      tag_881\n      tag_783\n      jump\t// in\n    tag_881:\n        /* \"#utility.yul\":9755:9775   */\n      mul\n      swap4\n        /* \"#utility.yul\":8975:9781   */\n      swap3\n      pop\n      pop\n      pop\n      jump\t// out\n        /* \"#utility.yul\":9786:9917   */\n    tag_176:\n        /* \"#utility.yul\":9846:9851   */\n      0x00\n        /* \"#utility.yul\":9875:9911   */\n      tag_321\n        /* \"#utility.yul\":9902:9910   */\n      dup4\n        /* \"#utility.yul\":9896:9900   */\n      dup4\n        /* \"#utility.yul\":9875:9911   */\n      tag_785\n      jump\t// in\n        /* \"#utility.yul\":10278:10403   */\n    tag_186:\n        /* \"#utility.yul\":10343:10352   */\n      dup1\n      dup3\n      add\n        /* \"#utility.yul\":10364:10374   */\n      dup1\n      dup3\n      gt\n        /* \"#utility.yul\":10361:10397   */\n      iszero\n      tag_170\n      jumpi\n        /* \"#utility.yul\":10377:10395   */\n      tag_170\n      tag_783\n      jump\t// in\n        /* \"#utility.yul\":10408:10535   */\n    tag_205:\n        /* \"#utility.yul\":10469:10479   */\n      0x4e487b71\n        /* \"#utility.yul\":10464:10467   */\n      0xe0\n        /* \"#utility.yul\":10460:10480   */\n      shl\n        /* \"#utility.yul\":10457:10458   */\n      0x00\n        /* \"#utility.yul\":10450:10481   */\n      mstore\n        /* \"#utility.yul\":10500:10504   */\n      0x32\n        /* \"#utility.yul\":10497:10498   */\n      0x04\n        /* \"#utility.yul\":10490:10505   */\n      mstore\n        /* \"#utility.yul\":10524:10528   */\n      0x24\n        /* \"#utility.yul\":10521:10522   */\n      0x00\n        /* \"#utility.yul\":10514:10529   */\n      revert\n        /* \"#utility.yul\":10540:10724   */\n    tag_223:\n        /* \"#utility.yul\":10610:10616   */\n      0x00\n        /* \"#utility.yul\":10663:10665   */\n      0x20\n        /* \"#utility.yul\":10651:10660   */\n      dup3\n        /* \"#utility.yul\":10642:10649   */\n      dup5\n        /* \"#utility.yul\":10638:10661   */\n      sub\n        /* \"#utility.yul\":10634:10666   */\n      slt\n        /* \"#utility.yul\":10631:10683   */\n      iszero\n      tag_890\n      jumpi\n        /* \"#utility.yul\":10679:10680   */\n      0x00\n        /* \"#utility.yul\":10676:10677   */\n      dup1\n        /* \"#utility.yul\":10669:10681   */\n      revert\n        /* \"#utility.yul\":10631:10683   */\n    tag_890:\n      pop\n        /* \"#utility.yul\":10702:10718   */\n      mload\n      swap2\n        /* \"#utility.yul\":10540:10724   */\n      swap1\n      pop\n      jump\t// out\n        /* \"#utility.yul\":11085:11625   */\n    tag_237:\n      sub(shl(0xa0, 0x01), 0x01)\n        /* \"#utility.yul\":11367:11373   */\n      dup6\n        /* \"#utility.yul\":11363:11418   */\n      and\n        /* \"#utility.yul\":11352:11361   */\n      dup2\n        /* \"#utility.yul\":11345:11419   */\n      mstore\n        /* \"#utility.yul\":11455:11461   */\n      dup4\n        /* \"#utility.yul\":11450:11452   */\n      0x20\n        /* \"#utility.yul\":11439:11448   */\n      dup3\n        /* \"#utility.yul\":11435:11453   */\n      add\n        /* \"#utility.yul\":11428:11462   */\n      mstore\n        /* \"#utility.yul\":11498:11504   */\n      dup3\n        /* \"#utility.yul\":11493:11495   */\n      0x40\n        /* \"#utility.yul\":11482:11491   */\n      dup3\n        /* \"#utility.yul\":11478:11496   */\n      add\n        /* \"#utility.yul\":11471:11505   */\n      mstore\n        /* \"#utility.yul\":11541:11544   */\n      0x80\n        /* \"#utility.yul\":11536:11538   */\n      0x60\n        /* \"#utility.yul\":11525:11534   */\n      dup3\n        /* \"#utility.yul\":11521:11539   */\n      add\n        /* \"#utility.yul\":11514:11545   */\n      mstore\n        /* \"#utility.yul\":11326:11330   */\n      0x00\n        /* \"#utility.yul\":11562:11619   */\n      tag_893\n        /* \"#utility.yul\":11614:11617   */\n      0x80\n        /* \"#utility.yul\":11603:11612   */\n      dup4\n        /* \"#utility.yul\":11599:11618   */\n      add\n        /* \"#utility.yul\":11591:11597   */\n      dup5\n        /* \"#utility.yul\":11562:11619   */\n      tag_780\n      jump\t// in\n    tag_893:\n        /* \"#utility.yul\":11554:11619   */\n      swap7\n        /* \"#utility.yul\":11085:11625   */\n      swap6\n      pop\n      pop\n      pop\n      pop\n      pop\n      pop\n      jump\t// out\n        /* \"#utility.yul\":12328:12456   */\n    tag_286:\n        /* \"#utility.yul\":12395:12404   */\n      dup2\n      dup2\n      sub\n        /* \"#utility.yul\":12416:12427   */\n      dup2\n      dup2\n      gt\n        /* \"#utility.yul\":12413:12450   */\n      iszero\n      tag_170\n      jumpi\n        /* \"#utility.yul\":12430:12448   */\n      tag_170\n      tag_783\n      jump\t// in\n        /* \"#utility.yul\":12461:12764   */\n    tag_293:\n        /* \"#utility.yul\":12592:12595   */\n      0x00\n        /* \"#utility.yul\":12630:12636   */\n      dup3\n        /* \"#utility.yul\":12624:12637   */\n      mload\n        /* \"#utility.yul\":12676:12682   */\n      dup1\n        /* \"#utility.yul\":12669:12673   */\n      0x20\n        /* \"#utility.yul\":12661:12667   */\n      dup6\n        /* \"#utility.yul\":12657:12674   */\n      add\n        /* \"#utility.yul\":12652:12655   */\n      dup5\n        /* \"#utility.yul\":12646:12683   */\n      mcopy\n        /* \"#utility.yul\":12738:12739   */\n      0x00\n        /* \"#utility.yul\":12702:12718   */\n      swap3\n      add\n        /* \"#utility.yul\":12727:12740   */\n      swap2\n      dup3\n      mstore\n      pop\n        /* \"#utility.yul\":12702:12718   */\n      swap2\n        /* \"#utility.yul\":12461:12764   */\n      swap1\n      pop\n      jump\t// out\n        /* \"#utility.yul\":12769:12982   */\n    tag_320:\n        /* \"#utility.yul\":12804:12807   */\n      0x00\n        /* \"#utility.yul\":12852:12857   */\n      dup2\n        /* \"#utility.yul\":12848:12850   */\n      0x0f\n        /* \"#utility.yul\":12837:12858   */\n      signextend\n      sub(shl(0x7f, 0x01), 0x01)\n        /* \"#utility.yul\":12882:12921   */\n      not\n        /* \"#utility.yul\":12873:12880   */\n      dup2\n        /* \"#utility.yul\":12870:12922   */\n      sub\n        /* \"#utility.yul\":12867:12945   */\n      tag_902\n      jumpi\n        /* \"#utility.yul\":12925:12943   */\n      tag_902\n      tag_783\n      jump\t// in\n    tag_902:\n        /* \"#utility.yul\":12965:12966   */\n      0x00\n        /* \"#utility.yul\":12961:12976   */\n      sub\n      swap3\n        /* \"#utility.yul\":12769:12982   */\n      swap2\n      pop\n      pop\n      jump\t// out\n        /* \"#utility.yul\":12987:13236   */\n    tag_322:\n        /* \"#utility.yul\":13087:13089   */\n      0x0f\n        /* \"#utility.yul\":13076:13093   */\n      dup3\n      dup2\n      signextend\n        /* \"#utility.yul\":13057:13074   */\n      swap1\n      dup3\n      swap1\n      signextend\n        /* \"#utility.yul\":13053:13094   */\n      sub\n      not(0x7fffffffffffffffffffffffffffffff)\n        /* \"#utility.yul\":13109:13159   */\n      dup2\n      slt\n      sub(shl(0x7f, 0x01), 0x01)\n        /* \"#utility.yul\":13161:13206   */\n      dup3\n      sgt\n        /* \"#utility.yul\":13106:13207   */\n      or\n        /* \"#utility.yul\":13103:13230   */\n      iszero\n      tag_170\n      jumpi\n        /* \"#utility.yul\":13210:13228   */\n      tag_170\n      tag_783\n      jump\t// in\n        /* \"#utility.yul\":13241:13376   */\n    tag_387:\n        /* \"#utility.yul\":13280:13283   */\n      0x00\n        /* \"#utility.yul\":13301:13318   */\n      0x01\n      dup3\n      add\n        /* \"#utility.yul\":13298:13341   */\n      tag_908\n      jumpi\n        /* \"#utility.yul\":13321:13339   */\n      tag_908\n      tag_783\n      jump\t// in\n    tag_908:\n      pop\n        /* \"#utility.yul\":13368:13369   */\n      0x01\n        /* \"#utility.yul\":13357:13370   */\n      add\n      swap1\n        /* \"#utility.yul\":13241:13376   */\n      jump\t// out\n        /* \"#utility.yul\":17393:17670   */\n    tag_539:\n        /* \"#utility.yul\":17460:17466   */\n      0x00\n        /* \"#utility.yul\":17513:17515   */\n      0x20\n        /* \"#utility.yul\":17501:17510   */\n      dup3\n        /* \"#utility.yul\":17492:17499   */\n      dup5\n        /* \"#utility.yul\":17488:17511   */\n      sub\n        /* \"#utility.yul\":17484:17516   */\n      slt\n        /* \"#utility.yul\":17481:17533   */\n      iszero\n      tag_922\n      jumpi\n        /* \"#utility.yul\":17529:17530   */\n      0x00\n        /* \"#utility.yul\":17526:17527   */\n      dup1\n        /* \"#utility.yul\":17519:17531   */\n      revert\n        /* \"#utility.yul\":17481:17533   */\n    tag_922:\n        /* \"#utility.yul\":17561:17570   */\n      dup2\n        /* \"#utility.yul\":17555:17571   */\n      mload\n        /* \"#utility.yul\":17614:17619   */\n      dup1\n        /* \"#utility.yul\":17607:17620   */\n      iszero\n        /* \"#utility.yul\":17600:17621   */\n      iszero\n        /* \"#utility.yul\":17593:17598   */\n      dup2\n        /* \"#utility.yul\":17590:17622   */\n      eq\n        /* \"#utility.yul\":17580:17640   */\n      tag_321\n      jumpi\n        /* \"#utility.yul\":17636:17637   */\n      0x00\n        /* \"#utility.yul\":17633:17634   */\n      dup1\n        /* \"#utility.yul\":17626:17638   */\n      revert\n        /* \"#utility.yul\":18029:18156   */\n    tag_569:\n        /* \"#utility.yul\":18090:18100   */\n      0x4e487b71\n        /* \"#utility.yul\":18085:18088   */\n      0xe0\n        /* \"#utility.yul\":18081:18101   */\n      shl\n        /* \"#utility.yul\":18078:18079   */\n      0x00\n        /* \"#utility.yul\":18071:18102   */\n      mstore\n        /* \"#utility.yul\":18121:18125   */\n      0x12\n        /* \"#utility.yul\":18118:18119   */\n      0x04\n        /* \"#utility.yul\":18111:18126   */\n      mstore\n        /* \"#utility.yul\":18145:18149   */\n      0x24\n        /* \"#utility.yul\":18142:18143   */\n      0x00\n        /* \"#utility.yul\":18135:18150   */\n      revert\n        /* \"#utility.yul\":18463:19075   */\n    tag_661:\n      sub(shl(0xa0, 0x01), 0x01)\n        /* \"#utility.yul\":18773:18779   */\n      dup7\n        /* \"#utility.yul\":18769:18824   */\n      and\n        /* \"#utility.yul\":18758:18767   */\n      dup2\n        /* \"#utility.yul\":18751:18825   */\n      mstore\n        /* \"#utility.yul\":18861:18867   */\n      dup5\n        /* \"#utility.yul\":18856:18858   */\n      0x20\n        /* \"#utility.yul\":18845:18854   */\n      dup3\n        /* \"#utility.yul\":18841:18859   */\n      add\n        /* \"#utility.yul\":18834:18868   */\n      mstore\n        /* \"#utility.yul\":18904:18910   */\n      dup4\n        /* \"#utility.yul\":18899:18901   */\n      0x40\n        /* \"#utility.yul\":18888:18897   */\n      dup3\n        /* \"#utility.yul\":18884:18902   */\n      add\n        /* \"#utility.yul\":18877:18911   */\n      mstore\n        /* \"#utility.yul\":18947:18950   */\n      0xa0\n        /* \"#utility.yul\":18942:18944   */\n      0x60\n        /* \"#utility.yul\":18931:18940   */\n      dup3\n        /* \"#utility.yul\":18927:18945   */\n      add\n        /* \"#utility.yul\":18920:18951   */\n      mstore\n        /* \"#utility.yul\":18732:18736   */\n      0x00\n        /* \"#utility.yul\":18968:19025   */\n      tag_928\n        /* \"#utility.yul\":19020:19023   */\n      0xa0\n        /* \"#utility.yul\":19009:19018   */\n      dup4\n        /* \"#utility.yul\":19005:19024   */\n      add\n        /* \"#utility.yul\":18997:19003   */\n      dup6\n        /* \"#utility.yul\":18968:19025   */\n      tag_780\n      jump\t// in\n    tag_928:\n        /* \"#utility.yul\":18960:19025   */\n      swap1\n      pop\n        /* \"#utility.yul\":19062:19068   */\n      dup3\n        /* \"#utility.yul\":19056:19059   */\n      0x80\n        /* \"#utility.yul\":19045:19054   */\n      dup4\n        /* \"#utility.yul\":19041:19060   */\n      add\n        /* \"#utility.yul\":19034:19069   */\n      mstore\n        /* \"#utility.yul\":18463:19075   */\n      swap7\n      swap6\n      pop\n      pop\n      pop\n      pop\n      pop\n      pop\n      jump\t// out\n\n    auxdata: 0xa264697066735822122072591f6ed1cab019db8010cb42f6c52709f89b105a469a64960bc4118c3381fa64736f6c63430008190033\n}\n",
    "bytecode": {
      "linkReferences": {},
      "object": "6080604052602a600955348015610014575f80fd5b50604051613dd9380380613dd983398101604081905261003391610107565b806001600160a01b03811661006157604051631e4fbdf760e01b81525f600482015260240160405180910390fd5b61006a8161009d565b5050600780546001600160a01b039384166001600160a01b03199182161790915560088054929093169116179055610147565b5f80546001600160a01b038381166001600160a01b0319831681178455604051919092169283917f8be0079c531659141344cd1fd0a4f28419497f9722a3daafe3b4186f6b6457e09190a35050565b80516001600160a01b0381168114610102575f80fd5b919050565b5f805f60608486031215610119575f80fd5b610122846100ec565b9250610130602085016100ec565b915061013e604085016100ec565b90509250925092565b613c85806101545f395ff3fe608060405234801561000f575f80fd5b50600436106101e7575f3560e01c80638ac4079211610109578063c50313311161009e578063f23a6e611161006e578063f23a6e6114610424578063f2fde38b14610444578063f76da1d914610457578063fc0c546a1461046a575f80fd5b8063c5031331146103de578063cd6bd6db146103e7578063df7bd8fc146103f4578063e1fc230514610407575f80fd5b80638f54f2ae116100d95780638f54f2ae1461036a578063ae92a93d1461037d578063bb6f593e14610390578063bc197c81146103a3575f80fd5b80638ac407921461030a5780638d0a6cff146103135780638d36627b146103335780638da5cb5b14610346575f80fd5b80634c395cc41161017f578063715018a61161014f578063715018a6146102db5780638062dd93146102e35780638364dfef146102f65780638767d64e14610301575f80fd5b80634c395cc41461029a57806351c6590a146102ad57806352fdfecc146102c05780635df45a37146102d3575f80fd5b80633ccfd60b116101ba5780633ccfd60b1461026257806340088ee11461026c57806346156ea01461027f578063476343ee14610292575f80fd5b806301ffc9a7146101eb578063054454051461021357806310f8625a1461023457806313faede61461025a575b5f80fd5b6101fe6101f93660046135c1565b505f90565b60405190151581526020015b60405180910390f35b61022661022136600461360f565b61047d565b60405190815260200161020a565b610247610242366004613640565b61058e565b604051600f9190910b815260200161020a565b610247610611565b61026a6106b7565b005b61022661027a36600461360f565b610908565b61024761028d366004613668565b6109db565b61026a610a80565b6102266102a8366004613693565b610bea565b61026a6102bb366004613668565b610c19565b6102476102ce36600461373e565b610dc8565b610226610ded565b61026a610e9f565b6102476102f136600461373e565b610eb2565b600354600f0b610247565b61022660015481565b61022660095481565b610326610321366004613668565b611071565b60405161020a9190613799565b61022661034136600461360f565b611169565b5f546001600160a01b03165b6040516001600160a01b03909116815260200161020a565b61026a6103783660046137ab565b61123b565b61024761038b36600461373e565b6115b7565b61024761039e366004613668565b611af7565b6103c56103b136600461386f565b63bc197c8160e01b98975050505050505050565b6040516001600160e01b0319909116815260200161020a565b61022660065481565b60055461024790600f0b81565b61024761040236600461373e565b611b84565b61040f611ba0565b6040805192835260208301919091520161020a565b6103c5610432366004613922565b63f23a6e6160e01b9695505050505050565b61026a610452366004613995565b611c35565b61024761046536600461373e565b611c6f565b600854610352906001600160a01b031681565b5f80836001600160a01b031663313ce5676040518163ffffffff1660e01b8152600401602060405180830381865afa1580156104bb573d5f803e3d5ffd5b505050506040513d601f19601f820116820180604052508101906104df91906139ae565b60ff1690505f6104f082600a613ac2565b90505f84600f0b121561054a5760405162461bcd60e51b815260206004820152601b60248201527f416d6f756e74206d757374206265206e6f6e2d6e65676174697665000000000060448201526064015b60405180910390fd5b5f6105558583612033565b90505f61056286846120a8565b67ffffffffffffffff16600f0b131561058357610580600182613acd565b90505b925050505b92915050565b5f80836001600160a01b031663313ce5676040518163ffffffff1660e01b8152600401602060405180830381865afa1580156105cc573d5f803e3d5ffd5b505050506040513d601f19601f820116820180604052508101906105f091906139ae565b60ff1690506106098361060483600a613ac2565b6120e6565b949350505050565b6008545f90600160a01b900460ff16151560011461062d575f80fd5b5f805b6001548110156106985761068e826106896106846002858154811061065757610657613ae0565b5f918252602090912060028204015460035460019092166010026101000a9004600f90810b91900b61211b565b612176565b6121cd565b9150600101610630565b506003546106b190600f0b6106ac83612207565b6120a8565b91505090565b600854600160a01b900460ff1615156001146106d1575f80fd5b6106d961223f565b60075460065460405163dd34de6760e01b81526001600160a01b039092169163dd34de679161070e9160040190815260200190565b602060405180830381865afa158015610729573d5f803e3d5ffd5b505050506040513d601f19601f8201168201806040525081019061074d9190613af4565b5f0361079b5760405162461bcd60e51b815260206004820152601b60248201527f4d61726b6574206e6565647320746f206265207265736f6c76656400000000006044820152606401610541565b5f60015467ffffffffffffffff8111156107b7576107b761367f565b6040519080825280602002602001820160405280156107e0578160200160208202803683370190505b5090505f5b60015481101561081957806001901b82828151811061080657610806613ae0565b60209081029190910101526001016107e5565b50600754600854600654604051626dc0df60e21b81526001600160a01b03938416936301b7037c93610855939116915f91908790600401613b0b565b5f604051808303815f87803b15801561086c575f80fd5b505af115801561087e573d5f803e3d5ffd5b50506008546040516370a0823160e01b815230600482015261090593503392506001600160a01b03909116906370a0823190602401602060405180830381865afa1580156108ce573d5f803e3d5ffd5b505050506040513d601f19601f820116820180604052508101906108f29190613af4565b6008546001600160a01b0316919061226b565b50565b5f80836001600160a01b031663313ce5676040518163ffffffff1660e01b8152600401602060405180830381865afa158015610946573d5f803e3d5ffd5b505050506040513d601f19601f8201168201806040525081019061096a91906139ae565b60ff1690505f61097b82600a613ac2565b90505f84600f0b12156109d05760405162461bcd60e51b815260206004820152601b60248201527f416d6f756e74206d757374206265206e6f6e2d6e6567617469766500000000006044820152606401610541565b5f6105808583612033565b5f6001548210610a255760405162461bcd60e51b8152602060048201526015602482015274092dcecc2d8d2c840deeae8c6dedaca40d2dcc8caf605b1b6044820152606401610541565b5f610a3f6106846002858154811061065757610657613ae0565b90505f805b600154811015610a7557610a6b826106896106846002858154811061065757610657613ae0565b9150600101610a44565b50610609828261211b565b610a8861223f565b6008546040516370a0823160e01b81523060048201525f916001600160a01b0316906370a0823190602401602060405180830381865afa158015610ace573d5f803e3d5ffd5b505050506040513d601f19601f82011682018060405250810190610af29190613af4565b6008546004549192505f91610b13916001600160a01b031690600f0b610908565b9050808211610b645760405162461bcd60e51b815260206004820152601360248201527f4e6f206665657320746f207769746864726177000000000000000000000000006044820152606401610541565b5f610b6f8284613b42565b9050610b98610b855f546001600160a01b031690565b6008546001600160a01b0316908361226b565b5f546001600160a01b03166001600160a01b03167fc0819c13be868895eb93e40eaceb96de976442fa1d404e5c55f14bb65a8c489a82604051610bdd91815260200190565b60405180910390a2505050565b5f81604051602001610bfc9190613b55565b604051602081830303815290604052805190602001209050919050565b610c2161223f565b600854610c39906001600160a01b03163330846122e4565b6008545f90610c51906001600160a01b03168361058e565b90505f5b600154811015610cea57610c9c60028281548110610c7557610c75613ae0565b905f5260205f2090600291828204019190066010029054906101000a9004600f0b836121cd565b60028281548110610caf57610caf613ae0565b5f9182526020909120600282040180546001600160801b0393841660106001948516026101000a908102940219169290921790915501610c55565b50610d0d600460109054906101000a9004600f0b610689836106ac600154612323565b600480546001600160801b03908116600160801b9390911683021790819055600354610d479291829004600f90810b92909104900b6120a8565b600380546001600160801b0319166001600160801b0392909216919091179055610d6f610611565b600480546001600160801b0319166001600160801b039290921691909117905560405182815233907fc17cea59c2955cb181b03393209566960365771dbba9dc3d510180e7cb3120889060200160405180910390a25050565b5f610dd6836102f184613b6b565b600454610de69190600f0b613b8f565b9392505050565b6008546040516370a0823160e01b81523060048201525f9182916001600160a01b03909116906370a0823190602401602060405180830381865afa158015610e37573d5f803e3d5ffd5b505050506040513d601f19601f82011682018060405250810190610e5b9190613af4565b6008546004549192505f91610e7c916001600160a01b031690600f0b610908565b905080821115610e9757610e908183613b42565b9250505090565b5f9250505090565b610ea761223f565b610eb05f61233f565b565b5f805f60028054905067ffffffffffffffff811115610ed357610ed361367f565b604051908082528060200260200182016040528015610efc578160200160208202803683370190505b50600454909150600160801b9004600f0b5f5b600154811015610ffb576001811b871615610f9857610f6160028281548110610f3a57610f3a613ae0565b905f5260205f2090600291828204019190066010029054906101000a9004600f0b876121cd565b838281518110610f7357610f73613ae0565b6020026020010190600f0b9081600f0b81525050610f9182876121cd565b9150610ff3565b60028181548110610fab57610fab613ae0565b905f5260205f2090600291828204019190066010029054906101000a9004600f0b838281518110610fde57610fde613ae0565b6020026020010190600f0b9081600f0b815250505b600101610f0f565b506003545f90611016908390600160801b9004600f0b6120a8565b90505f5b6001548110156110585761104e8561068961068487858151811061104057611040613ae0565b60200260200101518661211b565b945060010161101a565b50611066816106ac86612207565b979650505050505050565b60605f600180546001901b6110869190613b42565b90506001831b81185f611098826123a6565b6110a3906001613acd565b67ffffffffffffffff8111156110bb576110bb61367f565b6040519080825280602002602001820160405280156110e4578160200160208202803683370190505b5090505f60019050856001901b825f8151811061110357611103613ae0565b6020026020010181815250505f5b60015481101561115e576001811b84161561115657806001901b83838151811061113d5761113d613ae0565b60209081029190910101528161115281613bc5565b9250505b600101611111565b509095945050505050565b5f80836001600160a01b031663313ce5676040518163ffffffff1660e01b8152600401602060405180830381865afa1580156111a7573d5f803e3d5ffd5b505050506040513d601f19601f820116820180604052508101906111cb91906139ae565b60ff1690505f6111dc82600a613ac2565b90505f84600f0b12156112315760405162461bcd60e51b815260206004820152601b60248201527f416d6f756e74206d757374206265206e6f6e2d6e6567617469766500000000006044820152606401610541565b6105838482612033565b61124361223f565b600854600160a01b900460ff161561129d5760405162461bcd60e51b815260206004820152600c60248201527f416c726561647920696e697400000000000000000000000000000000000000006044820152606401610541565b5f81116112ec5760405162461bcd60e51b815260206004820152601760248201527f43616e6e6f7420686176652030206f766572726f756e640000000000000000006044820152606401610541565b60075460405163365bb9d560e21b81526001600160a01b03878116600483015260248201879052604482018690529091169063d96ee754906064015f604051808303815f87803b15801561133e575f80fd5b505af1158015611350573d5f803e3d5ffd5b5050600754604051634296357160e11b81526001600160a01b0389811660048301526024820189905260448201889052909116925063852c6ae29150606401602060405180830381865afa1580156113aa573d5f803e3d5ffd5b505050506040513d601f19601f820116820180604052508101906113ce9190613af4565b6006556008546113e9906001600160a01b03163330856122e4565b60018390555f6113f884612323565b600854909150611411906001600160a01b03168461058e565b600580546001600160801b0319166001600160801b03929092169190911790555f61143e836127106120e6565b905061145681611451846106ac86612207565b61211b565b600380546001600160801b03928316600160801b0292169190911790556005546114999061148790600f0b846120a8565b600354600160801b9004600f0b6120a8565b600380546001600160801b0319166001600160801b03929092169190911790555f5b8581101561152a5760055460028054600180820183555f8390527f405787fa12a823e0f2b7631cc41b3ba8828b3321ca811111fa75cd3aa3bb5ace9282049290920180549183166010026101000a6001600160801b0381810219909316929094169390930217909155016114bb565b50600880547fffffffffffffffffffffff00ffffffffffffffffffffffffffffffffffffffff16600160a01b17905560055461156990600f0b836120a8565b600480546001600160801b03928316600160801b02921691909117905561158e610611565b600480546001600160801b0319166001600160801b039290921691909117905550505050505050565b6008545f90600160a01b900460ff1615156001146115d3575f80fd5b600154831061161c5760405162461bcd60e51b8152602060048201526015602482015274092dcecc2d8d2c840deeae8c6dedaca40d2dcc8caf605b1b6044820152606401610541565b5f82600f0b1361166e5760405162461bcd60e51b815260206004820152601760248201527f416d6f756e74206d75737420626520706f7369746976650000000000000000006044820152606401610541565b60075460065460405163dd34de6760e01b81526001600160a01b039092169163dd34de67916116a39160040190815260200190565b602060405180830381865afa1580156116be573d5f803e3d5ffd5b505050506040513d601f19601f820116820180604052508101906116e29190613af4565b1561172f5760405162461bcd60e51b815260206004820152601760248201527f4d61726b657420616c7265616479207265736f6c7665640000000000000000006044820152606401610541565b81600f0b6002848154811061174657611746613ae0565b5f918252602090912060028204015460019091166010026101000a9004600f0b12156117b45760405162461bcd60e51b815260206004820152601960248201527f4e6f7420656e6f7567682073686172657320746f2073656c6c000000000000006044820152606401610541565b6117f1600284815481106117ca576117ca613ae0565b905f5260205f2090600291828204019190066010029054906101000a9004600f0b836123d4565b6002848154811061180457611804613ae0565b905f5260205f2090600291828204019190066010026101000a8154816001600160801b030219169083600f0b6001600160801b03160217905550611857600460109054906101000a9004600f0b836123d4565b600480546001600160801b03908116600160801b93909116830217908190556003546118919291829004600f90810b92909104900b6120a8565b600380546001600160801b0319166001600160801b03929092169190911790555f805b6001548110156118e5576118db826106896106846002858154811061065757610657613ae0565b91506001016118b4565b506003545f906118fb90600f0b6106ac84612207565b60045490915061190e90600f0b826123d4565b6008549093505f90611929906001600160a01b031686611169565b60075460085460065460405163856296f760e01b81525f60048201819052602482019290925260018b1b6044820152939450926001600160a01b03928316926339dd7530921690839063856296f790606401602060405180830381865afa158015611996573d5f803e3d5ffd5b505050506040513d601f19601f820116820180604052508101906119ba9190613af4565b6040516001600160e01b031960e085901b1681526001600160a01b0390921660048301526024820152604401602060405180830381865afa158015611a01573d5f803e3d5ffd5b505050506040513d601f19601f82011682018060405250810190611a259190613af4565b600754604051637921219560e11b8152336004820152306024820152604481018390526064810185905260a060848201525f60a48201529192506001600160a01b03169063f242432a9060c4015f604051808303815f87803b158015611a89575f80fd5b505af1158015611a9b573d5f803e3d5ffd5b5050600480546001600160801b0319166001600160801b03871617905550506008545f90611ad2906001600160a01b031687611169565b600854909150611aec906001600160a01b0316338361226b565b505050505092915050565b5f6001548210611b415760405162461bcd60e51b8152602060048201526015602482015274092dcecc2d8d2c840deeae8c6dedaca40d2dcc8caf605b1b6044820152606401610541565b61058860028381548110611b5757611b57613ae0565b5f918252602090912060028204015460055460019092166010026101000a9004600f90810b91900b6123d4565b6004545f90600f0b611b968484610eb2565b610de69190613b8f565b6008546040516370a0823160e01b81523060048201525f9182916001600160a01b03909116906370a0823190602401602060405180830381865afa158015611bea573d5f803e3d5ffd5b505050506040513d601f19601f82011682018060405250810190611c0e9190613af4565b600854600454919350611c2f916001600160a01b0390911690600f0b610908565b90509091565b611c3d61223f565b6001600160a01b038116611c6657604051631e4fbdf760e01b81525f6004820152602401610541565b6109058161233f565b6008545f90600160a01b900460ff161515600114611c8b575f80fd5b6001548310611cd45760405162461bcd60e51b8152602060048201526015602482015274092dcecc2d8d2c840deeae8c6dedaca40d2dcc8caf605b1b6044820152606401610541565b5f82600f0b13611d265760405162461bcd60e51b815260206004820152601760248201527f416d6f756e74206d75737420626520706f7369746976650000000000000000006044820152606401610541565b60075460065460405163dd34de6760e01b81526001600160a01b039092169163dd34de6791611d5b9160040190815260200190565b602060405180830381865afa158015611d76573d5f803e3d5ffd5b505050506040513d601f19601f82011682018060405250810190611d9a9190613af4565b15611de75760405162461bcd60e51b815260206004820152601760248201527f4d61726b657420616c7265616479207265736f6c7665640000000000000000006044820152606401610541565b5f805f80611e886002805480602002602001604051908101604052809291908181526020018280548015611e5a57602002820191905f5260205f20905f905b825461010083900a9004600f0b81526020601f8301819004938401936001036010909301929092029101808411611e265790505b50506004546003546001548e95508d9450600160801b808404600f90810b95509204820b9290910b9061240e565b600854939750919550935091505f90611eaa906001600160a01b03168561047d565b6008546040516323b872dd60e01b8152336004820152306024820152604481018390529192506001600160a01b0316906323b872dd906064016020604051808303815f875af1158015611eff573d5f803e3d5ffd5b505050506040513d601f19601f82011682018060405250810190611f239190613bdd565b611f6f5760405162461bcd60e51b815260206004820152601960248201527f4572726f72207472616e7366657272696e6720746f6b656e73000000000000006044820152606401610541565b611fac60028981548110611f8557611f85613ae0565b905f5260205f2090600291828204019190066010029054906101000a9004600f0b886121cd565b60028981548110611fbf57611fbf613ae0565b5f91825260209091206002820401805460019092166010026101000a6001600160801b03818102199093169383160292909217909155600380546001600160801b031990811685841617909155600160801b8583160216908616176004556120278888612576565b50919695505050505050565b5f815f0361204257505f610588565b5f83600f0b1215612051575f80fd5b600f83900b6001600160801b038316810260401c90608084901c0277ffffffffffffffffffffffffffffffffffffffffffffffff811115612090575f80fd5b60401b81198111156120a0575f80fd5b019392505050565b5f600f83810b9083900b0260401d6f7fffffffffffffffffffffffffffffff1981128015906120de575060016001607f1b038113155b610de6575f80fd5b5f815f036120f2575f80fd5b5f6120fd848461288a565b905060016001607f1b036001600160801b0382161115610de6575f80fd5b5f81600f0b5f0361212a575f80fd5b5f82600f0b604085600f0b901b8161214457612144613bfc565b0590506f7fffffffffffffffffffffffffffffff1981128015906120de575060016001607f1b03811315610de6575f80fd5b5f6840000000000000000082600f0b1261218e575f80fd5b683fffffffffffffffff1982600f0b12156121aa57505f919050565b610588608083600f0b700171547652b82fe1777d0ffda0d23a7d1202901d6129fa565b5f600f83810b9083900b016f7fffffffffffffffffffffffffffffff1981128015906120de575060016001607f1b03811315610de6575f80fd5b5f8082600f0b13612216575f80fd5b608061222183613480565b600f0b6fb17217f7d1cf79abc9e3b39803f2f6af02901c9050919050565b5f546001600160a01b03163314610eb05760405163118cdaa760e01b8152336004820152602401610541565b6040516001600160a01b038381166024830152604482018390526122df91859182169063a9059cbb906064015b604051602081830303815290604052915060e01b6020820180517bffffffffffffffffffffffffffffffffffffffffffffffffffffffff8381831617835250505050613555565b505050565b6040516001600160a01b03848116602483015283811660448301526064820183905261231d9186918216906323b872dd90608401612298565b50505050565b5f677fffffffffffffff821115612338575f80fd5b5060401b90565b5f80546001600160a01b038381167fffffffffffffffffffffffff0000000000000000000000000000000000000000831681178455604051919092169283917f8be0079c531659141344cd1fd0a4f28419497f9722a3daafe3b4186f6b6457e09190a35050565b5f5b81156123cf576123b9600183613b42565b90911690806123c781613bc5565b9150506123a8565b919050565b5f600f82810b9084900b036f7fffffffffffffffffffffffffffffff1981128015906120de575060016001607f1b03811315610de6575f80fd5b5f805f805f8567ffffffffffffffff81111561242c5761242c61367f565b604051908082528060200260200182016040528015612455578160200160208202803683370190505b5090505f5b868110156124a9578c818151811061247457612474613ae0565b602002602001015182828151811061248e5761248e613ae0565b600f9290920b6020928302919091019091015260010161245a565b506124cd818c815181106124bf576124bf613ae0565b60200260200101518b6121cd565b818c815181106124df576124df613ae0565b6020026020010190600f0b9081600f0b815250506124fd898b6121cd565b925061250983896120a8565b91505f805b8781101561254a576125408261068961068486858151811061253257612532613ae0565b60200260200101518861211b565b915060010161250e565b50612558836106ac83612207565b955061256486896123d4565b94505050975097509750979350505050565b6008545f9061258e906001600160a01b03168361047d565b60075460085460065460405163856296f760e01b81525f6004820181905260248201929092526001881b6044820152939450926001600160a01b03928316926339dd7530921690839063856296f790606401602060405180830381865afa1580156125fb573d5f803e3d5ffd5b505050506040513d601f19601f8201168201806040525081019061261f9190613af4565b6040516001600160e01b031960e085901b1681526001600160a01b0390921660048301526024820152604401602060405180830381865afa158015612666573d5f803e3d5ffd5b505050506040513d601f19601f8201168201806040525081019061268a9190613af4565b600754604051627eeac760e11b81523060048201526024810183905291925083916001600160a01b039091169062fdd58e90604401602060405180830381865afa1580156126da573d5f803e3d5ffd5b505050506040513d601f19601f820116820180604052508101906126fe9190613af4565b101561280b576008546007546001600160a01b039182169163095ea7b39116612727838761047d565b6040516001600160e01b031960e085901b1681526001600160a01b03909216600483015260248201526044016020604051808303815f875af115801561276f573d5f803e3d5ffd5b505050506040513d601f19601f820116820180604052508101906127939190613bdd565b506007546008546006546001600160a01b03928316926372ce42759216905f906127bc89611071565b876040518663ffffffff1660e01b81526004016127dd959493929190613c10565b5f604051808303815f87803b1580156127f4575f80fd5b505af1158015612806573d5f803e3d5ffd5b505050505b600754604051637921219560e11b8152306004820152336024820152604481018390526064810184905260a060848201525f60a48201526001600160a01b039091169063f242432a9060c4015f604051808303815f87803b15801561286e575f80fd5b505af1158015612880573d5f803e3d5ffd5b5050505050505050565b5f815f03612896575f80fd5b5f77ffffffffffffffffffffffffffffffffffffffffffffffff84116128d15782604085901b816128c9576128c9613bfc565b0490506129e7565b60c084811c64010000000081106128ea576020918201911c5b6201000081106128fc576010918201911c5b610100811061290d576008918201911c5b6010811061291d576004918201911c5b6004811061292d576002918201911c5b6002811061293c576001820191505b60bf820360018603901c6001018260ff0387901b8161295d5761295d613bfc565b0492506001600160801b03831115612973575f80fd5b608085901c83026001600160801b038616840260c088901c604089901b8281101561299f576001820391505b608084901b929003828110156129b6576001820391505b829003608084901c82146129cb5760016129dc565b8881816129da576129da613bfc565b045b870196505050505050505b6001600160801b03811115610de6575f80fd5b5f6840000000000000000082600f0b12612a12575f80fd5b683fffffffffffffffff1982600f0b1215612a2e57505f919050565b6f800000000000000000000000000000005f6780000000000000008416600f0b1315612a6b5770016a09e667f3bcc908b2fb1366ea957d3e0260801c5b5f8367400000000000000016600f0b1315612a97577001306fe0a31b7152de8d5a46305c85edec0260801c5b5f8367200000000000000016600f0b1315612ac3577001172b83c7d517adcdf7c8c50eb14a791f0260801c5b5f8367100000000000000016600f0b1315612aef5770010b5586cf9890f6298b92b71842a983630260801c5b5f8367080000000000000016600f0b1315612b1b577001059b0d31585743ae7c548eb68ca417fd0260801c5b5f8367040000000000000016600f0b1315612b4757700102c9a3e778060ee6f7caca4f7a29bde80260801c5b5f8367020000000000000016600f0b1315612b735770010163da9fb33356d84a66ae336dcdfa3f0260801c5b5f8367010000000000000016600f0b1315612b9f57700100b1afa5abcbed6129ab13ec11dc95430260801c5b5f83668000000000000016600f0b1315612bca5770010058c86da1c09ea1ff19d294cf2f679b0260801c5b5f83664000000000000016600f0b1315612bf5577001002c605e2e8cec506d21bfc89a23a00f0260801c5b5f83662000000000000016600f0b1315612c2057700100162f3904051fa128bca9c55c31e5df0260801c5b5f83661000000000000016600f0b1315612c4b577001000b175effdc76ba38e31671ca9397250260801c5b5f83660800000000000016600f0b1315612c7657700100058ba01fb9f96d6cacd4b180917c3d0260801c5b5f83660400000000000016600f0b1315612ca15770010002c5cc37da9491d0985c348c68e7b30260801c5b5f83660200000000000016600f0b1315612ccc577001000162e525ee054754457d59952920260260801c5b5f83660100000000000016600f0b1315612cf75770010000b17255775c040618bf4a4ade83fc0260801c5b5f836580000000000016600f0b1315612d21577001000058b91b5bc9ae2eed81e9b7d4cfab0260801c5b5f836540000000000016600f0b1315612d4b57700100002c5c89d5ec6ca4d7c8acc017b7c90260801c5b5f836520000000000016600f0b1315612d755770010000162e43f4f831060e02d839a9d16d0260801c5b5f836510000000000016600f0b1315612d9f57700100000b1721bcfc99d9f890ea069117630260801c5b5f836508000000000016600f0b1315612dc95770010000058b90cf1e6d97f9ca14dbcc16280260801c5b5f836504000000000016600f0b1315612df3577001000002c5c863b73f016468f6bac5ca2b0260801c5b5f836502000000000016600f0b1315612e1d57700100000162e430e5a18f6119e3c02282a50260801c5b5f836501000000000016600f0b1315612e47577001000000b1721835514b86e6d96efd1bfe0260801c5b5f8364800000000016600f0b1315612e7057700100000058b90c0b48c6be5df846c5b2ef0260801c5b5f8364400000000016600f0b1315612e995770010000002c5c8601cc6b9e94213c72737a0260801c5b5f8364200000000016600f0b1315612ec2577001000000162e42fff037df38aa2b219f060260801c5b5f8364100000000016600f0b1315612eeb5770010000000b17217fba9c739aa5819f44f90260801c5b5f8364080000000016600f0b1315612f14577001000000058b90bfcdee5acd3c1cedc8230260801c5b5f8364040000000016600f0b1315612f3d57700100000002c5c85fe31f35a6a30da1be500260801c5b5f8364020000000016600f0b1315612f665770010000000162e42ff0999ce3541b9fffcf0260801c5b5f8364010000000016600f0b1315612f8f57700100000000b17217f80f4ef5aadda455540260801c5b5f83638000000016600f0b1315612fb75770010000000058b90bfbf8479bd5a81b51ad0260801c5b5f83634000000016600f0b1315612fdf577001000000002c5c85fdf84bd62ae30a74cc0260801c5b5f83632000000016600f0b131561300757700100000000162e42fefb2fed257559bdaa0260801c5b5f83631000000016600f0b131561302f577001000000000b17217f7d5a7716bba4a9ae0260801c5b5f83630800000016600f0b131561305757700100000000058b90bfbe9ddbac5e109cce0260801c5b5f83630400000016600f0b131561307f5770010000000002c5c85fdf4b15de6f17eb0d0260801c5b5f83630200000016600f0b13156130a7577001000000000162e42fefa494f1478fde050260801c5b5f83630100000016600f0b13156130cf5770010000000000b17217f7d20cf927c8e94c0260801c5b5f836280000016600f0b13156130f6577001000000000058b90bfbe8f71cb4e4b33d0260801c5b5f836240000016600f0b131561311d57700100000000002c5c85fdf477b662b269450260801c5b5f836220000016600f0b13156131445770010000000000162e42fefa3ae53369388c0260801c5b5f836210000016600f0b131561316b57700100000000000b17217f7d1d351a389d400260801c5b5f836208000016600f0b13156131925770010000000000058b90bfbe8e8b2d3d4ede0260801c5b5f836204000016600f0b13156131b9577001000000000002c5c85fdf4741bea6e77e0260801c5b5f836202000016600f0b13156131e057700100000000000162e42fefa39fe95583c20260801c5b5f836201000016600f0b1315613207577001000000000000b17217f7d1cfb72b45e10260801c5b5f8361800016600f0b131561322d57700100000000000058b90bfbe8e7cc35c3f00260801c5b5f8361400016600f0b13156132535770010000000000002c5c85fdf473e242ea380260801c5b5f8361200016600f0b1315613279577001000000000000162e42fefa39f02b772c0260801c5b5f8361100016600f0b131561329f5770010000000000000b17217f7d1cf7d83c1a0260801c5b5f8361080016600f0b13156132c5577001000000000000058b90bfbe8e7bdcbe2e0260801c5b5f8361040016600f0b13156132eb57700100000000000002c5c85fdf473dea871f0260801c5b5f8361020016600f0b13156133115770010000000000000162e42fefa39ef44d910260801c5b5f8361010016600f0b131561333757700100000000000000b17217f7d1cf79e9490260801c5b5f83608016600f0b131561335c5770010000000000000058b90bfbe8e7bce5440260801c5b5f83604016600f0b1315613381577001000000000000002c5c85fdf473de6eca0260801c5b5f83602016600f0b13156133a657700100000000000000162e42fefa39ef366f0260801c5b5f83601016600f0b13156133cb577001000000000000000b17217f7d1cf79afa0260801c5b5f83600816600f0b13156133f057700100000000000000058b90bfbe8e7bcd6d0260801c5b5f83600416600f0b13156134155770010000000000000002c5c85fdf473de6b20260801c5b5f83600216600f0b131561343a577001000000000000000162e42fefa39ef3580260801c5b5f83600116600f0b131561345f5770010000000000000000b17217f7d1cf79ab0260801c5b600f83810b60401d603f03900b1c60016001607f1b03811115610588575f80fd5b5f8082600f0b1361348f575f80fd5b5f600f83900b6801000000000000000081126134ad576040918201911d5b64010000000081126134c1576020918201911d5b6201000081126134d3576010918201911d5b61010081126134e4576008918201911d5b601081126134f4576004918201911d5b60048112613504576002918201911d5b60028112613513576001820191505b603f19820160401b600f85900b607f8490031b6780000000000000005b5f81131561115e5790800260ff81901c8281029390930192607f011c9060011d613530565b5f8060205f8451602086015f885af180613574576040513d5f823e3d81fd5b50505f513d9150811561358b578060011415613598565b6001600160a01b0384163b155b1561231d57604051635274afe760e01b81526001600160a01b0385166004820152602401610541565b5f602082840312156135d1575f80fd5b81356001600160e01b031981168114610de6575f80fd5b80356001600160a01b03811681146123cf575f80fd5b8035600f81900b81146123cf575f80fd5b5f8060408385031215613620575f80fd5b613629836135e8565b9150613637602084016135fe565b90509250929050565b5f8060408385031215613651575f80fd5b61365a836135e8565b946020939093013593505050565b5f60208284031215613678575f80fd5b5035919050565b634e487b7160e01b5f52604160045260245ffd5b5f602082840312156136a3575f80fd5b813567ffffffffffffffff808211156136ba575f80fd5b818401915084601f8301126136cd575f80fd5b8135818111156136df576136df61367f565b604051601f8201601f19908116603f011681019083821181831017156137075761370761367f565b8160405282815287602084870101111561371f575f80fd5b826020860160208301375f928101602001929092525095945050505050565b5f806040838503121561374f575f80fd5b82359150613637602084016135fe565b5f815180845260208085019450602084015f5b8381101561378e57815187529582019590820190600101613772565b509495945050505050565b602081525f610de6602083018461375f565b5f805f805f60a086880312156137bf575f80fd5b6137c8866135e8565b97602087013597506040870135966060810135965060800135945092505050565b5f8083601f8401126137f9575f80fd5b50813567ffffffffffffffff811115613810575f80fd5b6020830191508360208260051b850101111561382a575f80fd5b9250929050565b5f8083601f840112613841575f80fd5b50813567ffffffffffffffff811115613858575f80fd5b60208301915083602082850101111561382a575f80fd5b5f805f805f805f8060a0898b031215613886575f80fd5b61388f896135e8565b975061389d60208a016135e8565b9650604089013567ffffffffffffffff808211156138b9575f80fd5b6138c58c838d016137e9565b909850965060608b01359150808211156138dd575f80fd5b6138e98c838d016137e9565b909650945060808b0135915080821115613901575f80fd5b5061390e8b828c01613831565b999c989b5096995094979396929594505050565b5f805f805f8060a08789031215613937575f80fd5b613940876135e8565b955061394e602088016135e8565b94506040870135935060608701359250608087013567ffffffffffffffff811115613977575f80fd5b61398389828a01613831565b979a9699509497509295939492505050565b5f602082840312156139a5575f80fd5b610de6826135e8565b5f602082840312156139be575f80fd5b815160ff81168114610de6575f80fd5b634e487b7160e01b5f52601160045260245ffd5b600181815b80851115613a1c57815f1904821115613a0257613a026139ce565b80851615613a0f57918102915b93841c93908002906139e7565b509250929050565b5f82613a3257506001610588565b81613a3e57505f610588565b8160018114613a545760028114613a5e57613a7a565b6001915050610588565b60ff841115613a6f57613a6f6139ce565b50506001821b610588565b5060208310610133831016604e8410600b8410161715613a9d575081810a610588565b613aa783836139e2565b805f1904821115613aba57613aba6139ce565b029392505050565b5f610de68383613a24565b80820180821115610588576105886139ce565b634e487b7160e01b5f52603260045260245ffd5b5f60208284031215613b04575f80fd5b5051919050565b6001600160a01b0385168152836020820152826040820152608060608201525f613b38608083018461375f565b9695505050505050565b81810381811115610588576105886139ce565b5f82518060208501845e5f920191825250919050565b5f81600f0b60016001607f1b03198103613b8757613b876139ce565b5f0392915050565b600f82810b9082900b036f7fffffffffffffffffffffffffffffff19811260016001607f1b0382131715610588576105886139ce565b5f60018201613bd657613bd66139ce565b5060010190565b5f60208284031215613bed575f80fd5b81518015158114610de6575f80fd5b634e487b7160e01b5f52601260045260245ffd5b6001600160a01b038616815284602082015283604082015260a060608201525f613c3d60a083018561375f565b9050826080830152969550505050505056fea264697066735822122072591f6ed1cab019db8010cb42f6c52709f89b105a469a64960bc4118c3381fa64736f6c63430008190033",
      "opcodes": "PUSH1 0x80 PUSH1 0x40 MSTORE PUSH1 0x2A PUSH1 0x9 SSTORE CALLVALUE DUP1 ISZERO PUSH2 0x14 JUMPI PUSH0 DUP1 REVERT JUMPDEST POP PUSH1 0x40 MLOAD PUSH2 0x3DD9 CODESIZE SUB DUP1 PUSH2 0x3DD9 DUP4 CODECOPY DUP2 ADD PUSH1 0x40 DUP2 SWAP1 MSTORE PUSH2 0x33 SWAP2 PUSH2 0x107 JUMP JUMPDEST DUP1 PUSH1 0x1 PUSH1 0x1 PUSH1 0xA0 SHL SUB DUP2 AND PUSH2 0x61 JUMPI PUSH1 0x40 MLOAD PUSH4 0x1E4FBDF7 PUSH1 0xE0 SHL DUP2 MSTORE PUSH0 PUSH1 0x4 DUP3 ADD MSTORE PUSH1 0x24 ADD PUSH1 0x40 MLOAD DUP1 SWAP2 SUB SWAP1 REVERT JUMPDEST PUSH2 0x6A DUP2 PUSH2 0x9D JUMP JUMPDEST POP POP PUSH1 0x7 DUP1 SLOAD PUSH1 0x1 PUSH1 0x1 PUSH1 0xA0 SHL SUB SWAP4 DUP5 AND PUSH1 0x1 PUSH1 0x1 PUSH1 0xA0 SHL SUB NOT SWAP2 DUP3 AND OR SWAP1 SWAP2 SSTORE PUSH1 0x8 DUP1 SLOAD SWAP3 SWAP1 SWAP4 AND SWAP2 AND OR SWAP1 SSTORE PUSH2 0x147 JUMP JUMPDEST PUSH0 DUP1 SLOAD PUSH1 0x1 PUSH1 0x1 PUSH1 0xA0 SHL SUB DUP4 DUP2 AND PUSH1 0x1 PUSH1 0x1 PUSH1 0xA0 SHL SUB NOT DUP4 AND DUP2 OR DUP5 SSTORE PUSH1 0x40 MLOAD SWAP2 SWAP1 SWAP3 AND SWAP3 DUP4 SWAP2 PUSH32 0x8BE0079C531659141344CD1FD0A4F28419497F9722A3DAAFE3B4186F6B6457E0 SWAP2 SWAP1 LOG3 POP POP JUMP JUMPDEST DUP1 MLOAD PUSH1 0x1 PUSH1 0x1 PUSH1 0xA0 SHL SUB DUP2 AND DUP2 EQ PUSH2 0x102 JUMPI PUSH0 DUP1 REVERT JUMPDEST SWAP2 SWAP1 POP JUMP JUMPDEST PUSH0 DUP1 PUSH0 PUSH1 0x60 DUP5 DUP7 SUB SLT ISZERO PUSH2 0x119 JUMPI PUSH0 DUP1 REVERT JUMPDEST PUSH2 0x122 DUP5 PUSH2 0xEC JUMP JUMPDEST SWAP3 POP PUSH2 0x130 PUSH1 0x20 DUP6 ADD PUSH2 0xEC JUMP JUMPDEST SWAP2 POP PUSH2 0x13E PUSH1 0x40 DUP6 ADD PUSH2 0xEC JUMP JUMPDEST SWAP1 POP SWAP3 POP SWAP3 POP SWAP3 JUMP JUMPDEST PUSH2 0x3C85 DUP1 PUSH2 0x154 PUSH0 CODECOPY PUSH0 RETURN INVALID PUSH1 0x80 PUSH1 0x40 MSTORE CALLVALUE DUP1 ISZERO PUSH2 0xF JUMPI PUSH0 DUP1 REVERT JUMPDEST POP PUSH1 0x4 CALLDATASIZE LT PUSH2 0x1E7 JUMPI PUSH0 CALLDATALOAD PUSH1 0xE0 SHR DUP1 PUSH4 0x8AC40792 GT PUSH2 0x109 JUMPI DUP1 PUSH4 0xC5031331 GT PUSH2 0x9E JUMPI DUP1 PUSH4 0xF23A6E61 GT PUSH2 0x6E JUMPI DUP1 PUSH4 0xF23A6E61 EQ PUSH2 0x424 JUMPI DUP1 PUSH4 0xF2FDE38B EQ PUSH2 0x444 JUMPI DUP1 PUSH4 0xF76DA1D9 EQ PUSH2 0x457 JUMPI DUP1 PUSH4 0xFC0C546A EQ PUSH2 0x46A JUMPI PUSH0 DUP1 REVERT JUMPDEST DUP1 PUSH4 0xC5031331 EQ PUSH2 0x3DE JUMPI DUP1 PUSH4 0xCD6BD6DB EQ PUSH2 0x3E7 JUMPI DUP1 PUSH4 0xDF7BD8FC EQ PUSH2 0x3F4 JUMPI DUP1 PUSH4 0xE1FC2305 EQ PUSH2 0x407 JUMPI PUSH0 DUP1 REVERT JUMPDEST DUP1 PUSH4 0x8F54F2AE GT PUSH2 0xD9 JUMPI DUP1 PUSH4 0x8F54F2AE EQ PUSH2 0x36A JUMPI DUP1 PUSH4 0xAE92A93D EQ PUSH2 0x37D JUMPI DUP1 PUSH4 0xBB6F593E EQ PUSH2 0x390 JUMPI DUP1 PUSH4 0xBC197C81 EQ PUSH2 0x3A3 JUMPI PUSH0 DUP1 REVERT JUMPDEST DUP1 PUSH4 0x8AC40792 EQ PUSH2 0x30A JUMPI DUP1 PUSH4 0x8D0A6CFF EQ PUSH2 0x313 JUMPI DUP1 PUSH4 0x8D36627B EQ PUSH2 0x333 JUMPI DUP1 PUSH4 0x8DA5CB5B EQ PUSH2 0x346 JUMPI PUSH0 DUP1 REVERT JUMPDEST DUP1 PUSH4 0x4C395CC4 GT PUSH2 0x17F JUMPI DUP1 PUSH4 0x715018A6 GT PUSH2 0x14F JUMPI DUP1 PUSH4 0x715018A6 EQ PUSH2 0x2DB JUMPI DUP1 PUSH4 0x8062DD93 EQ PUSH2 0x2E3 JUMPI DUP1 PUSH4 0x8364DFEF EQ PUSH2 0x2F6 JUMPI DUP1 PUSH4 0x8767D64E EQ PUSH2 0x301 JUMPI PUSH0 DUP1 REVERT JUMPDEST DUP1 PUSH4 0x4C395CC4 EQ PUSH2 0x29A JUMPI DUP1 PUSH4 0x51C6590A EQ PUSH2 0x2AD JUMPI DUP1 PUSH4 0x52FDFECC EQ PUSH2 0x2C0 JUMPI DUP1 PUSH4 0x5DF45A37 EQ PUSH2 0x2D3 JUMPI PUSH0 DUP1 REVERT JUMPDEST DUP1 PUSH4 0x3CCFD60B GT PUSH2 0x1BA JUMPI DUP1 PUSH4 0x3CCFD60B EQ PUSH2 0x262 JUMPI DUP1 PUSH4 0x40088EE1 EQ PUSH2 0x26C JUMPI DUP1 PUSH4 0x46156EA0 EQ PUSH2 0x27F JUMPI DUP1 PUSH4 0x476343EE EQ PUSH2 0x292 JUMPI PUSH0 DUP1 REVERT JUMPDEST DUP1 PUSH4 0x1FFC9A7 EQ PUSH2 0x1EB JUMPI DUP1 PUSH4 0x5445405 EQ PUSH2 0x213 JUMPI DUP1 PUSH4 0x10F8625A EQ PUSH2 0x234 JUMPI DUP1 PUSH4 0x13FAEDE6 EQ PUSH2 0x25A JUMPI JUMPDEST PUSH0 DUP1 REVERT JUMPDEST PUSH2 0x1FE PUSH2 0x1F9 CALLDATASIZE PUSH1 0x4 PUSH2 0x35C1 JUMP JUMPDEST POP PUSH0 SWAP1 JUMP JUMPDEST PUSH1 0x40 MLOAD SWAP1 ISZERO ISZERO DUP2 MSTORE PUSH1 0x20 ADD JUMPDEST PUSH1 0x40 MLOAD DUP1 SWAP2 SUB SWAP1 RETURN JUMPDEST PUSH2 0x226 PUSH2 0x221 CALLDATASIZE PUSH1 0x4 PUSH2 0x360F JUMP JUMPDEST PUSH2 0x47D JUMP JUMPDEST PUSH1 0x40 MLOAD SWAP1 DUP2 MSTORE PUSH1 0x20 ADD PUSH2 0x20A JUMP JUMPDEST PUSH2 0x247 PUSH2 0x242 CALLDATASIZE PUSH1 0x4 PUSH2 0x3640 JUMP JUMPDEST PUSH2 0x58E JUMP JUMPDEST PUSH1 0x40 MLOAD PUSH1 0xF SWAP2 SWAP1 SWAP2 SIGNEXTEND DUP2 MSTORE PUSH1 0x20 ADD PUSH2 0x20A JUMP JUMPDEST PUSH2 0x247 PUSH2 0x611 JUMP JUMPDEST PUSH2 0x26A PUSH2 0x6B7 JUMP JUMPDEST STOP JUMPDEST PUSH2 0x226 PUSH2 0x27A CALLDATASIZE PUSH1 0x4 PUSH2 0x360F JUMP JUMPDEST PUSH2 0x908 JUMP JUMPDEST PUSH2 0x247 PUSH2 0x28D CALLDATASIZE PUSH1 0x4 PUSH2 0x3668 JUMP JUMPDEST PUSH2 0x9DB JUMP JUMPDEST PUSH2 0x26A PUSH2 0xA80 JUMP JUMPDEST PUSH2 0x226 PUSH2 0x2A8 CALLDATASIZE PUSH1 0x4 PUSH2 0x3693 JUMP JUMPDEST PUSH2 0xBEA JUMP JUMPDEST PUSH2 0x26A PUSH2 0x2BB CALLDATASIZE PUSH1 0x4 PUSH2 0x3668 JUMP JUMPDEST PUSH2 0xC19 JUMP JUMPDEST PUSH2 0x247 PUSH2 0x2CE CALLDATASIZE PUSH1 0x4 PUSH2 0x373E JUMP JUMPDEST PUSH2 0xDC8 JUMP JUMPDEST PUSH2 0x226 PUSH2 0xDED JUMP JUMPDEST PUSH2 0x26A PUSH2 0xE9F JUMP JUMPDEST PUSH2 0x247 PUSH2 0x2F1 CALLDATASIZE PUSH1 0x4 PUSH2 0x373E JUMP JUMPDEST PUSH2 0xEB2 JUMP JUMPDEST PUSH1 0x3 SLOAD PUSH1 0xF SIGNEXTEND PUSH2 0x247 JUMP JUMPDEST PUSH2 0x226 PUSH1 0x1 SLOAD DUP2 JUMP JUMPDEST PUSH2 0x226 PUSH1 0x9 SLOAD DUP2 JUMP JUMPDEST PUSH2 0x326 PUSH2 0x321 CALLDATASIZE PUSH1 0x4 PUSH2 0x3668 JUMP JUMPDEST PUSH2 0x1071 JUMP JUMPDEST PUSH1 0x40 MLOAD PUSH2 0x20A SWAP2 SWAP1 PUSH2 0x3799 JUMP JUMPDEST PUSH2 0x226 PUSH2 0x341 CALLDATASIZE PUSH1 0x4 PUSH2 0x360F JUMP JUMPDEST PUSH2 0x1169 JUMP JUMPDEST PUSH0 SLOAD PUSH1 0x1 PUSH1 0x1 PUSH1 0xA0 SHL SUB AND JUMPDEST PUSH1 0x40 MLOAD PUSH1 0x1 PUSH1 0x1 PUSH1 0xA0 SHL SUB SWAP1 SWAP2 AND DUP2 MSTORE PUSH1 0x20 ADD PUSH2 0x20A JUMP JUMPDEST PUSH2 0x26A PUSH2 0x378 CALLDATASIZE PUSH1 0x4 PUSH2 0x37AB JUMP JUMPDEST PUSH2 0x123B JUMP JUMPDEST PUSH2 0x247 PUSH2 0x38B CALLDATASIZE PUSH1 0x4 PUSH2 0x373E JUMP JUMPDEST PUSH2 0x15B7 JUMP JUMPDEST PUSH2 0x247 PUSH2 0x39E CALLDATASIZE PUSH1 0x4 PUSH2 0x3668 JUMP JUMPDEST PUSH2 0x1AF7 JUMP JUMPDEST PUSH2 0x3C5 PUSH2 0x3B1 CALLDATASIZE PUSH1 0x4 PUSH2 0x386F JUMP JUMPDEST PUSH4 0xBC197C81 PUSH1 0xE0 SHL SWAP9 SWAP8 POP POP POP POP POP POP POP POP JUMP JUMPDEST PUSH1 0x40 MLOAD PUSH1 0x1 PUSH1 0x1 PUSH1 0xE0 SHL SUB NOT SWAP1 SWAP2 AND DUP2 MSTORE PUSH1 0x20 ADD PUSH2 0x20A JUMP JUMPDEST PUSH2 0x226 PUSH1 0x6 SLOAD DUP2 JUMP JUMPDEST PUSH1 0x5 SLOAD PUSH2 0x247 SWAP1 PUSH1 0xF SIGNEXTEND DUP2 JUMP JUMPDEST PUSH2 0x247 PUSH2 0x402 CALLDATASIZE PUSH1 0x4 PUSH2 0x373E JUMP JUMPDEST PUSH2 0x1B84 JUMP JUMPDEST PUSH2 0x40F PUSH2 0x1BA0 JUMP JUMPDEST PUSH1 0x40 DUP1 MLOAD SWAP3 DUP4 MSTORE PUSH1 0x20 DUP4 ADD SWAP2 SWAP1 SWAP2 MSTORE ADD PUSH2 0x20A JUMP JUMPDEST PUSH2 0x3C5 PUSH2 0x432 CALLDATASIZE PUSH1 0x4 PUSH2 0x3922 JUMP JUMPDEST PUSH4 0xF23A6E61 PUSH1 0xE0 SHL SWAP7 SWAP6 POP POP POP POP POP POP JUMP JUMPDEST PUSH2 0x26A PUSH2 0x452 CALLDATASIZE PUSH1 0x4 PUSH2 0x3995 JUMP JUMPDEST PUSH2 0x1C35 JUMP JUMPDEST PUSH2 0x247 PUSH2 0x465 CALLDATASIZE PUSH1 0x4 PUSH2 0x373E JUMP JUMPDEST PUSH2 0x1C6F JUMP JUMPDEST PUSH1 0x8 SLOAD PUSH2 0x352 SWAP1 PUSH1 0x1 PUSH1 0x1 PUSH1 0xA0 SHL SUB AND DUP2 JUMP JUMPDEST PUSH0 DUP1 DUP4 PUSH1 0x1 PUSH1 0x1 PUSH1 0xA0 SHL SUB AND PUSH4 0x313CE567 PUSH1 0x40 MLOAD DUP2 PUSH4 0xFFFFFFFF AND PUSH1 0xE0 SHL DUP2 MSTORE PUSH1 0x4 ADD PUSH1 0x20 PUSH1 0x40 MLOAD DUP1 DUP4 SUB DUP2 DUP7 GAS STATICCALL ISZERO DUP1 ISZERO PUSH2 0x4BB JUMPI RETURNDATASIZE PUSH0 DUP1 RETURNDATACOPY RETURNDATASIZE PUSH0 REVERT JUMPDEST POP POP POP POP PUSH1 0x40 MLOAD RETURNDATASIZE PUSH1 0x1F NOT PUSH1 0x1F DUP3 ADD AND DUP3 ADD DUP1 PUSH1 0x40 MSTORE POP DUP2 ADD SWAP1 PUSH2 0x4DF SWAP2 SWAP1 PUSH2 0x39AE JUMP JUMPDEST PUSH1 0xFF AND SWAP1 POP PUSH0 PUSH2 0x4F0 DUP3 PUSH1 0xA PUSH2 0x3AC2 JUMP JUMPDEST SWAP1 POP PUSH0 DUP5 PUSH1 0xF SIGNEXTEND SLT ISZERO PUSH2 0x54A JUMPI PUSH1 0x40 MLOAD PUSH3 0x461BCD PUSH1 0xE5 SHL DUP2 MSTORE PUSH1 0x20 PUSH1 0x4 DUP3 ADD MSTORE PUSH1 0x1B PUSH1 0x24 DUP3 ADD MSTORE PUSH32 0x416D6F756E74206D757374206265206E6F6E2D6E656761746976650000000000 PUSH1 0x44 DUP3 ADD MSTORE PUSH1 0x64 ADD JUMPDEST PUSH1 0x40 MLOAD DUP1 SWAP2 SUB SWAP1 REVERT JUMPDEST PUSH0 PUSH2 0x555 DUP6 DUP4 PUSH2 0x2033 JUMP JUMPDEST SWAP1 POP PUSH0 PUSH2 0x562 DUP7 DUP5 PUSH2 0x20A8 JUMP JUMPDEST PUSH8 0xFFFFFFFFFFFFFFFF AND PUSH1 0xF SIGNEXTEND SGT ISZERO PUSH2 0x583 JUMPI PUSH2 0x580 PUSH1 0x1 DUP3 PUSH2 0x3ACD JUMP JUMPDEST SWAP1 POP JUMPDEST SWAP3 POP POP POP JUMPDEST SWAP3 SWAP2 POP POP JUMP JUMPDEST PUSH0 DUP1 DUP4 PUSH1 0x1 PUSH1 0x1 PUSH1 0xA0 SHL SUB AND PUSH4 0x313CE567 PUSH1 0x40 MLOAD DUP2 PUSH4 0xFFFFFFFF AND PUSH1 0xE0 SHL DUP2 MSTORE PUSH1 0x4 ADD PUSH1 0x20 PUSH1 0x40 MLOAD DUP1 DUP4 SUB DUP2 DUP7 GAS STATICCALL ISZERO DUP1 ISZERO PUSH2 0x5CC JUMPI RETURNDATASIZE PUSH0 DUP1 RETURNDATACOPY RETURNDATASIZE PUSH0 REVERT JUMPDEST POP POP POP POP PUSH1 0x40 MLOAD RETURNDATASIZE PUSH1 0x1F NOT PUSH1 0x1F DUP3 ADD AND DUP3 ADD DUP1 PUSH1 0x40 MSTORE POP DUP2 ADD SWAP1 PUSH2 0x5F0 SWAP2 SWAP1 PUSH2 0x39AE JUMP JUMPDEST PUSH1 0xFF AND SWAP1 POP PUSH2 0x609 DUP4 PUSH2 0x604 DUP4 PUSH1 0xA PUSH2 0x3AC2 JUMP JUMPDEST PUSH2 0x20E6 JUMP JUMPDEST SWAP5 SWAP4 POP POP POP POP JUMP JUMPDEST PUSH1 0x8 SLOAD PUSH0 SWAP1 PUSH1 0x1 PUSH1 0xA0 SHL SWAP1 DIV PUSH1 0xFF AND ISZERO ISZERO PUSH1 0x1 EQ PUSH2 0x62D JUMPI PUSH0 DUP1 REVERT JUMPDEST PUSH0 DUP1 JUMPDEST PUSH1 0x1 SLOAD DUP2 LT ISZERO PUSH2 0x698 JUMPI PUSH2 0x68E DUP3 PUSH2 0x689 PUSH2 0x684 PUSH1 0x2 DUP6 DUP2 SLOAD DUP2 LT PUSH2 0x657 JUMPI PUSH2 0x657 PUSH2 0x3AE0 JUMP JUMPDEST PUSH0 SWAP2 DUP3 MSTORE PUSH1 0x20 SWAP1 SWAP2 KECCAK256 PUSH1 0x2 DUP3 DIV ADD SLOAD PUSH1 0x3 SLOAD PUSH1 0x1 SWAP1 SWAP3 AND PUSH1 0x10 MUL PUSH2 0x100 EXP SWAP1 DIV PUSH1 0xF SWAP1 DUP2 SIGNEXTEND SWAP2 SWAP1 SIGNEXTEND PUSH2 0x211B JUMP JUMPDEST PUSH2 0x2176 JUMP JUMPDEST PUSH2 0x21CD JUMP JUMPDEST SWAP2 POP PUSH1 0x1 ADD PUSH2 0x630 JUMP JUMPDEST POP PUSH1 0x3 SLOAD PUSH2 0x6B1 SWAP1 PUSH1 0xF SIGNEXTEND PUSH2 0x6AC DUP4 PUSH2 0x2207 JUMP JUMPDEST PUSH2 0x20A8 JUMP JUMPDEST SWAP2 POP POP SWAP1 JUMP JUMPDEST PUSH1 0x8 SLOAD PUSH1 0x1 PUSH1 0xA0 SHL SWAP1 DIV PUSH1 0xFF AND ISZERO ISZERO PUSH1 0x1 EQ PUSH2 0x6D1 JUMPI PUSH0 DUP1 REVERT JUMPDEST PUSH2 0x6D9 PUSH2 0x223F JUMP JUMPDEST PUSH1 0x7 SLOAD PUSH1 0x6 SLOAD PUSH1 0x40 MLOAD PUSH4 0xDD34DE67 PUSH1 0xE0 SHL DUP2 MSTORE PUSH1 0x1 PUSH1 0x1 PUSH1 0xA0 SHL SUB SWAP1 SWAP3 AND SWAP2 PUSH4 0xDD34DE67 SWAP2 PUSH2 0x70E SWAP2 PUSH1 0x4 ADD SWAP1 DUP2 MSTORE PUSH1 0x20 ADD SWAP1 JUMP JUMPDEST PUSH1 0x20 PUSH1 0x40 MLOAD DUP1 DUP4 SUB DUP2 DUP7 GAS STATICCALL ISZERO DUP1 ISZERO PUSH2 0x729 JUMPI RETURNDATASIZE PUSH0 DUP1 RETURNDATACOPY RETURNDATASIZE PUSH0 REVERT JUMPDEST POP POP POP POP PUSH1 0x40 MLOAD RETURNDATASIZE PUSH1 0x1F NOT PUSH1 0x1F DUP3 ADD AND DUP3 ADD DUP1 PUSH1 0x40 MSTORE POP DUP2 ADD SWAP1 PUSH2 0x74D SWAP2 SWAP1 PUSH2 0x3AF4 JUMP JUMPDEST PUSH0 SUB PUSH2 0x79B JUMPI PUSH1 0x40 MLOAD PUSH3 0x461BCD PUSH1 0xE5 SHL DUP2 MSTORE PUSH1 0x20 PUSH1 0x4 DUP3 ADD MSTORE PUSH1 0x1B PUSH1 0x24 DUP3 ADD MSTORE PUSH32 0x4D61726B6574206E6565647320746F206265207265736F6C7665640000000000 PUSH1 0x44 DUP3 ADD MSTORE PUSH1 0x64 ADD PUSH2 0x541 JUMP JUMPDEST PUSH0 PUSH1 0x1 SLOAD PUSH8 0xFFFFFFFFFFFFFFFF DUP2 GT ISZERO PUSH2 0x7B7 JUMPI PUSH2 0x7B7 PUSH2 0x367F JUMP JUMPDEST PUSH1 0x40 MLOAD SWAP1 DUP1 DUP3 MSTORE DUP1 PUSH1 0x20 MUL PUSH1 0x20 ADD DUP3 ADD PUSH1 0x40 MSTORE DUP1 ISZERO PUSH2 0x7E0 JUMPI DUP2 PUSH1 0x20 ADD PUSH1 0x20 DUP3 MUL DUP1 CALLDATASIZE DUP4 CALLDATACOPY ADD SWAP1 POP JUMPDEST POP SWAP1 POP PUSH0 JUMPDEST PUSH1 0x1 SLOAD DUP2 LT ISZERO PUSH2 0x819 JUMPI DUP1 PUSH1 0x1 SWAP1 SHL DUP3 DUP3 DUP2 MLOAD DUP2 LT PUSH2 0x806 JUMPI PUSH2 0x806 PUSH2 0x3AE0 JUMP JUMPDEST PUSH1 0x20 SWAP1 DUP2 MUL SWAP2 SWAP1 SWAP2 ADD ADD MSTORE PUSH1 0x1 ADD PUSH2 0x7E5 JUMP JUMPDEST POP PUSH1 0x7 SLOAD PUSH1 0x8 SLOAD PUSH1 0x6 SLOAD PUSH1 0x40 MLOAD PUSH3 0x6DC0DF PUSH1 0xE2 SHL DUP2 MSTORE PUSH1 0x1 PUSH1 0x1 PUSH1 0xA0 SHL SUB SWAP4 DUP5 AND SWAP4 PUSH4 0x1B7037C SWAP4 PUSH2 0x855 SWAP4 SWAP2 AND SWAP2 PUSH0 SWAP2 SWAP1 DUP8 SWAP1 PUSH1 0x4 ADD PUSH2 0x3B0B JUMP JUMPDEST PUSH0 PUSH1 0x40 MLOAD DUP1 DUP4 SUB DUP2 PUSH0 DUP8 DUP1 EXTCODESIZE ISZERO DUP1 ISZERO PUSH2 0x86C JUMPI PUSH0 DUP1 REVERT JUMPDEST POP GAS CALL ISZERO DUP1 ISZERO PUSH2 0x87E JUMPI RETURNDATASIZE PUSH0 DUP1 RETURNDATACOPY RETURNDATASIZE PUSH0 REVERT JUMPDEST POP POP PUSH1 0x8 SLOAD PUSH1 0x40 MLOAD PUSH4 0x70A08231 PUSH1 0xE0 SHL DUP2 MSTORE ADDRESS PUSH1 0x4 DUP3 ADD MSTORE PUSH2 0x905 SWAP4 POP CALLER SWAP3 POP PUSH1 0x1 PUSH1 0x1 PUSH1 0xA0 SHL SUB SWAP1 SWAP2 AND SWAP1 PUSH4 0x70A08231 SWAP1 PUSH1 0x24 ADD PUSH1 0x20 PUSH1 0x40 MLOAD DUP1 DUP4 SUB DUP2 DUP7 GAS STATICCALL ISZERO DUP1 ISZERO PUSH2 0x8CE JUMPI RETURNDATASIZE PUSH0 DUP1 RETURNDATACOPY RETURNDATASIZE PUSH0 REVERT JUMPDEST POP POP POP POP PUSH1 0x40 MLOAD RETURNDATASIZE PUSH1 0x1F NOT PUSH1 0x1F DUP3 ADD AND DUP3 ADD DUP1 PUSH1 0x40 MSTORE POP DUP2 ADD SWAP1 PUSH2 0x8F2 SWAP2 SWAP1 PUSH2 0x3AF4 JUMP JUMPDEST PUSH1 0x8 SLOAD PUSH1 0x1 PUSH1 0x1 PUSH1 0xA0 SHL SUB AND SWAP2 SWAP1 PUSH2 0x226B JUMP JUMPDEST POP JUMP JUMPDEST PUSH0 DUP1 DUP4 PUSH1 0x1 PUSH1 0x1 PUSH1 0xA0 SHL SUB AND PUSH4 0x313CE567 PUSH1 0x40 MLOAD DUP2 PUSH4 0xFFFFFFFF AND PUSH1 0xE0 SHL DUP2 MSTORE PUSH1 0x4 ADD PUSH1 0x20 PUSH1 0x40 MLOAD DUP1 DUP4 SUB DUP2 DUP7 GAS STATICCALL ISZERO DUP1 ISZERO PUSH2 0x946 JUMPI RETURNDATASIZE PUSH0 DUP1 RETURNDATACOPY RETURNDATASIZE PUSH0 REVERT JUMPDEST POP POP POP POP PUSH1 0x40 MLOAD RETURNDATASIZE PUSH1 0x1F NOT PUSH1 0x1F DUP3 ADD AND DUP3 ADD DUP1 PUSH1 0x40 MSTORE POP DUP2 ADD SWAP1 PUSH2 0x96A SWAP2 SWAP1 PUSH2 0x39AE JUMP JUMPDEST PUSH1 0xFF AND SWAP1 POP PUSH0 PUSH2 0x97B DUP3 PUSH1 0xA PUSH2 0x3AC2 JUMP JUMPDEST SWAP1 POP PUSH0 DUP5 PUSH1 0xF SIGNEXTEND SLT ISZERO PUSH2 0x9D0 JUMPI PUSH1 0x40 MLOAD PUSH3 0x461BCD PUSH1 0xE5 SHL DUP2 MSTORE PUSH1 0x20 PUSH1 0x4 DUP3 ADD MSTORE PUSH1 0x1B PUSH1 0x24 DUP3 ADD MSTORE PUSH32 0x416D6F756E74206D757374206265206E6F6E2D6E656761746976650000000000 PUSH1 0x44 DUP3 ADD MSTORE PUSH1 0x64 ADD PUSH2 0x541 JUMP JUMPDEST PUSH0 PUSH2 0x580 DUP6 DUP4 PUSH2 0x2033 JUMP JUMPDEST PUSH0 PUSH1 0x1 SLOAD DUP3 LT PUSH2 0xA25 JUMPI PUSH1 0x40 MLOAD PUSH3 0x461BCD PUSH1 0xE5 SHL DUP2 MSTORE PUSH1 0x20 PUSH1 0x4 DUP3 ADD MSTORE PUSH1 0x15 PUSH1 0x24 DUP3 ADD MSTORE PUSH21 0x92DCECC2D8D2C840DEEAE8C6DEDACA40D2DCC8CAF PUSH1 0x5B SHL PUSH1 0x44 DUP3 ADD MSTORE PUSH1 0x64 ADD PUSH2 0x541 JUMP JUMPDEST PUSH0 PUSH2 0xA3F PUSH2 0x684 PUSH1 0x2 DUP6 DUP2 SLOAD DUP2 LT PUSH2 0x657 JUMPI PUSH2 0x657 PUSH2 0x3AE0 JUMP JUMPDEST SWAP1 POP PUSH0 DUP1 JUMPDEST PUSH1 0x1 SLOAD DUP2 LT ISZERO PUSH2 0xA75 JUMPI PUSH2 0xA6B DUP3 PUSH2 0x689 PUSH2 0x684 PUSH1 0x2 DUP6 DUP2 SLOAD DUP2 LT PUSH2 0x657 JUMPI PUSH2 0x657 PUSH2 0x3AE0 JUMP JUMPDEST SWAP2 POP PUSH1 0x1 ADD PUSH2 0xA44 JUMP JUMPDEST POP PUSH2 0x609 DUP3 DUP3 PUSH2 0x211B JUMP JUMPDEST PUSH2 0xA88 PUSH2 0x223F JUMP JUMPDEST PUSH1 0x8 SLOAD PUSH1 0x40 MLOAD PUSH4 0x70A08231 PUSH1 0xE0 SHL DUP2 MSTORE ADDRESS PUSH1 0x4 DUP3 ADD MSTORE PUSH0 SWAP2 PUSH1 0x1 PUSH1 0x1 PUSH1 0xA0 SHL SUB AND SWAP1 PUSH4 0x70A08231 SWAP1 PUSH1 0x24 ADD PUSH1 0x20 PUSH1 0x40 MLOAD DUP1 DUP4 SUB DUP2 DUP7 GAS STATICCALL ISZERO DUP1 ISZERO PUSH2 0xACE JUMPI RETURNDATASIZE PUSH0 DUP1 RETURNDATACOPY RETURNDATASIZE PUSH0 REVERT JUMPDEST POP POP POP POP PUSH1 0x40 MLOAD RETURNDATASIZE PUSH1 0x1F NOT PUSH1 0x1F DUP3 ADD AND DUP3 ADD DUP1 PUSH1 0x40 MSTORE POP DUP2 ADD SWAP1 PUSH2 0xAF2 SWAP2 SWAP1 PUSH2 0x3AF4 JUMP JUMPDEST PUSH1 0x8 SLOAD PUSH1 0x4 SLOAD SWAP2 SWAP3 POP PUSH0 SWAP2 PUSH2 0xB13 SWAP2 PUSH1 0x1 PUSH1 0x1 PUSH1 0xA0 SHL SUB AND SWAP1 PUSH1 0xF SIGNEXTEND PUSH2 0x908 JUMP JUMPDEST SWAP1 POP DUP1 DUP3 GT PUSH2 0xB64 JUMPI PUSH1 0x40 MLOAD PUSH3 0x461BCD PUSH1 0xE5 SHL DUP2 MSTORE PUSH1 0x20 PUSH1 0x4 DUP3 ADD MSTORE PUSH1 0x13 PUSH1 0x24 DUP3 ADD MSTORE PUSH32 0x4E6F206665657320746F20776974686472617700000000000000000000000000 PUSH1 0x44 DUP3 ADD MSTORE PUSH1 0x64 ADD PUSH2 0x541 JUMP JUMPDEST PUSH0 PUSH2 0xB6F DUP3 DUP5 PUSH2 0x3B42 JUMP JUMPDEST SWAP1 POP PUSH2 0xB98 PUSH2 0xB85 PUSH0 SLOAD PUSH1 0x1 PUSH1 0x1 PUSH1 0xA0 SHL SUB AND SWAP1 JUMP JUMPDEST PUSH1 0x8 SLOAD PUSH1 0x1 PUSH1 0x1 PUSH1 0xA0 SHL SUB AND SWAP1 DUP4 PUSH2 0x226B JUMP JUMPDEST PUSH0 SLOAD PUSH1 0x1 PUSH1 0x1 PUSH1 0xA0 SHL SUB AND PUSH1 0x1 PUSH1 0x1 PUSH1 0xA0 SHL SUB AND PUSH32 0xC0819C13BE868895EB93E40EACEB96DE976442FA1D404E5C55F14BB65A8C489A DUP3 PUSH1 0x40 MLOAD PUSH2 0xBDD SWAP2 DUP2 MSTORE PUSH1 0x20 ADD SWAP1 JUMP JUMPDEST PUSH1 0x40 MLOAD DUP1 SWAP2 SUB SWAP1 LOG2 POP POP POP JUMP JUMPDEST PUSH0 DUP2 PUSH1 0x40 MLOAD PUSH1 0x20 ADD PUSH2 0xBFC SWAP2 SWAP1 PUSH2 0x3B55 JUMP JUMPDEST PUSH1 0x40 MLOAD PUSH1 0x20 DUP2 DUP4 SUB SUB DUP2 MSTORE SWAP1 PUSH1 0x40 MSTORE DUP1 MLOAD SWAP1 PUSH1 0x20 ADD KECCAK256 SWAP1 POP SWAP2 SWAP1 POP JUMP JUMPDEST PUSH2 0xC21 PUSH2 0x223F JUMP JUMPDEST PUSH1 0x8 SLOAD PUSH2 0xC39 SWAP1 PUSH1 0x1 PUSH1 0x1 PUSH1 0xA0 SHL SUB AND CALLER ADDRESS DUP5 PUSH2 0x22E4 JUMP JUMPDEST PUSH1 0x8 SLOAD PUSH0 SWAP1 PUSH2 0xC51 SWAP1 PUSH1 0x1 PUSH1 0x1 PUSH1 0xA0 SHL SUB AND DUP4 PUSH2 0x58E JUMP JUMPDEST SWAP1 POP PUSH0 JUMPDEST PUSH1 0x1 SLOAD DUP2 LT ISZERO PUSH2 0xCEA JUMPI PUSH2 0xC9C PUSH1 0x2 DUP3 DUP2 SLOAD DUP2 LT PUSH2 0xC75 JUMPI PUSH2 0xC75 PUSH2 0x3AE0 JUMP JUMPDEST SWAP1 PUSH0 MSTORE PUSH1 0x20 PUSH0 KECCAK256 SWAP1 PUSH1 0x2 SWAP2 DUP3 DUP3 DIV ADD SWAP2 SWAP1 MOD PUSH1 0x10 MUL SWAP1 SLOAD SWAP1 PUSH2 0x100 EXP SWAP1 DIV PUSH1 0xF SIGNEXTEND DUP4 PUSH2 0x21CD JUMP JUMPDEST PUSH1 0x2 DUP3 DUP2 SLOAD DUP2 LT PUSH2 0xCAF JUMPI PUSH2 0xCAF PUSH2 0x3AE0 JUMP JUMPDEST PUSH0 SWAP2 DUP3 MSTORE PUSH1 0x20 SWAP1 SWAP2 KECCAK256 PUSH1 0x2 DUP3 DIV ADD DUP1 SLOAD PUSH1 0x1 PUSH1 0x1 PUSH1 0x80 SHL SUB SWAP4 DUP5 AND PUSH1 0x10 PUSH1 0x1 SWAP5 DUP6 AND MUL PUSH2 0x100 EXP SWAP1 DUP2 MUL SWAP5 MUL NOT AND SWAP3 SWAP1 SWAP3 OR SWAP1 SWAP2 SSTORE ADD PUSH2 0xC55 JUMP JUMPDEST POP PUSH2 0xD0D PUSH1 0x4 PUSH1 0x10 SWAP1 SLOAD SWAP1 PUSH2 0x100 EXP SWAP1 DIV PUSH1 0xF SIGNEXTEND PUSH2 0x689 DUP4 PUSH2 0x6AC PUSH1 0x1 SLOAD PUSH2 0x2323 JUMP JUMPDEST PUSH1 0x4 DUP1 SLOAD PUSH1 0x1 PUSH1 0x1 PUSH1 0x80 SHL SUB SWAP1 DUP2 AND PUSH1 0x1 PUSH1 0x80 SHL SWAP4 SWAP1 SWAP2 AND DUP4 MUL OR SWAP1 DUP2 SWAP1 SSTORE PUSH1 0x3 SLOAD PUSH2 0xD47 SWAP3 SWAP2 DUP3 SWAP1 DIV PUSH1 0xF SWAP1 DUP2 SIGNEXTEND SWAP3 SWAP1 SWAP2 DIV SWAP1 SIGNEXTEND PUSH2 0x20A8 JUMP JUMPDEST PUSH1 0x3 DUP1 SLOAD PUSH1 0x1 PUSH1 0x1 PUSH1 0x80 SHL SUB NOT AND PUSH1 0x1 PUSH1 0x1 PUSH1 0x80 SHL SUB SWAP3 SWAP1 SWAP3 AND SWAP2 SWAP1 SWAP2 OR SWAP1 SSTORE PUSH2 0xD6F PUSH2 0x611 JUMP JUMPDEST PUSH1 0x4 DUP1 SLOAD PUSH1 0x1 PUSH1 0x1 PUSH1 0x80 SHL SUB NOT AND PUSH1 0x1 PUSH1 0x1 PUSH1 0x80 SHL SUB SWAP3 SWAP1 SWAP3 AND SWAP2 SWAP1 SWAP2 OR SWAP1 SSTORE PUSH1 0x40 MLOAD DUP3 DUP2 MSTORE CALLER SWAP1 PUSH32 0xC17CEA59C2955CB181B03393209566960365771DBBA9DC3D510180E7CB312088 SWAP1 PUSH1 0x20 ADD PUSH1 0x40 MLOAD DUP1 SWAP2 SUB SWAP1 LOG2 POP POP JUMP JUMPDEST PUSH0 PUSH2 0xDD6 DUP4 PUSH2 0x2F1 DUP5 PUSH2 0x3B6B JUMP JUMPDEST PUSH1 0x4 SLOAD PUSH2 0xDE6 SWAP2 SWAP1 PUSH1 0xF SIGNEXTEND PUSH2 0x3B8F JUMP JUMPDEST SWAP4 SWAP3 POP POP POP JUMP JUMPDEST PUSH1 0x8 SLOAD PUSH1 0x40 MLOAD PUSH4 0x70A08231 PUSH1 0xE0 SHL DUP2 MSTORE ADDRESS PUSH1 0x4 DUP3 ADD MSTORE PUSH0 SWAP2 DUP3 SWAP2 PUSH1 0x1 PUSH1 0x1 PUSH1 0xA0 SHL SUB SWAP1 SWAP2 AND SWAP1 PUSH4 0x70A08231 SWAP1 PUSH1 0x24 ADD PUSH1 0x20 PUSH1 0x40 MLOAD DUP1 DUP4 SUB DUP2 DUP7 GAS STATICCALL ISZERO DUP1 ISZERO PUSH2 0xE37 JUMPI RETURNDATASIZE PUSH0 DUP1 RETURNDATACOPY RETURNDATASIZE PUSH0 REVERT JUMPDEST POP POP POP POP PUSH1 0x40 MLOAD RETURNDATASIZE PUSH1 0x1F NOT PUSH1 0x1F DUP3 ADD AND DUP3 ADD DUP1 PUSH1 0x40 MSTORE POP DUP2 ADD SWAP1 PUSH2 0xE5B SWAP2 SWAP1 PUSH2 0x3AF4 JUMP JUMPDEST PUSH1 0x8 SLOAD PUSH1 0x4 SLOAD SWAP2 SWAP3 POP PUSH0 SWAP2 PUSH2 0xE7C SWAP2 PUSH1 0x1 PUSH1 0x1 PUSH1 0xA0 SHL SUB AND SWAP1 PUSH1 0xF SIGNEXTEND PUSH2 0x908 JUMP JUMPDEST SWAP1 POP DUP1 DUP3 GT ISZERO PUSH2 0xE97 JUMPI PUSH2 0xE90 DUP2 DUP4 PUSH2 0x3B42 JUMP JUMPDEST SWAP3 POP POP POP SWAP1 JUMP JUMPDEST PUSH0 SWAP3 POP POP POP SWAP1 JUMP JUMPDEST PUSH2 0xEA7 PUSH2 0x223F JUMP JUMPDEST PUSH2 0xEB0 PUSH0 PUSH2 0x233F JUMP JUMPDEST JUMP JUMPDEST PUSH0 DUP1 PUSH0 PUSH1 0x2 DUP1 SLOAD SWAP1 POP PUSH8 0xFFFFFFFFFFFFFFFF DUP2 GT ISZERO PUSH2 0xED3 JUMPI PUSH2 0xED3 PUSH2 0x367F JUMP JUMPDEST PUSH1 0x40 MLOAD SWAP1 DUP1 DUP3 MSTORE DUP1 PUSH1 0x20 MUL PUSH1 0x20 ADD DUP3 ADD PUSH1 0x40 MSTORE DUP1 ISZERO PUSH2 0xEFC JUMPI DUP2 PUSH1 0x20 ADD PUSH1 0x20 DUP3 MUL DUP1 CALLDATASIZE DUP4 CALLDATACOPY ADD SWAP1 POP JUMPDEST POP PUSH1 0x4 SLOAD SWAP1 SWAP2 POP PUSH1 0x1 PUSH1 0x80 SHL SWAP1 DIV PUSH1 0xF SIGNEXTEND PUSH0 JUMPDEST PUSH1 0x1 SLOAD DUP2 LT ISZERO PUSH2 0xFFB JUMPI PUSH1 0x1 DUP2 SHL DUP8 AND ISZERO PUSH2 0xF98 JUMPI PUSH2 0xF61 PUSH1 0x2 DUP3 DUP2 SLOAD DUP2 LT PUSH2 0xF3A JUMPI PUSH2 0xF3A PUSH2 0x3AE0 JUMP JUMPDEST SWAP1 PUSH0 MSTORE PUSH1 0x20 PUSH0 KECCAK256 SWAP1 PUSH1 0x2 SWAP2 DUP3 DUP3 DIV ADD SWAP2 SWAP1 MOD PUSH1 0x10 MUL SWAP1 SLOAD SWAP1 PUSH2 0x100 EXP SWAP1 DIV PUSH1 0xF SIGNEXTEND DUP8 PUSH2 0x21CD JUMP JUMPDEST DUP4 DUP3 DUP2 MLOAD DUP2 LT PUSH2 0xF73 JUMPI PUSH2 0xF73 PUSH2 0x3AE0 JUMP JUMPDEST PUSH1 0x20 MUL PUSH1 0x20 ADD ADD SWAP1 PUSH1 0xF SIGNEXTEND SWAP1 DUP2 PUSH1 0xF SIGNEXTEND DUP2 MSTORE POP POP PUSH2 0xF91 DUP3 DUP8 PUSH2 0x21CD JUMP JUMPDEST SWAP2 POP PUSH2 0xFF3 JUMP JUMPDEST PUSH1 0x2 DUP2 DUP2 SLOAD DUP2 LT PUSH2 0xFAB JUMPI PUSH2 0xFAB PUSH2 0x3AE0 JUMP JUMPDEST SWAP1 PUSH0 MSTORE PUSH1 0x20 PUSH0 KECCAK256 SWAP1 PUSH1 0x2 SWAP2 DUP3 DUP3 DIV ADD SWAP2 SWAP1 MOD PUSH1 0x10 MUL SWAP1 SLOAD SWAP1 PUSH2 0x100 EXP SWAP1 DIV PUSH1 0xF SIGNEXTEND DUP4 DUP3 DUP2 MLOAD DUP2 LT PUSH2 0xFDE JUMPI PUSH2 0xFDE PUSH2 0x3AE0 JUMP JUMPDEST PUSH1 0x20 MUL PUSH1 0x20 ADD ADD SWAP1 PUSH1 0xF SIGNEXTEND SWAP1 DUP2 PUSH1 0xF SIGNEXTEND DUP2 MSTORE POP POP JUMPDEST PUSH1 0x1 ADD PUSH2 0xF0F JUMP JUMPDEST POP PUSH1 0x3 SLOAD PUSH0 SWAP1 PUSH2 0x1016 SWAP1 DUP4 SWAP1 PUSH1 0x1 PUSH1 0x80 SHL SWAP1 DIV PUSH1 0xF SIGNEXTEND PUSH2 0x20A8 JUMP JUMPDEST SWAP1 POP PUSH0 JUMPDEST PUSH1 0x1 SLOAD DUP2 LT ISZERO PUSH2 0x1058 JUMPI PUSH2 0x104E DUP6 PUSH2 0x689 PUSH2 0x684 DUP8 DUP6 DUP2 MLOAD DUP2 LT PUSH2 0x1040 JUMPI PUSH2 0x1040 PUSH2 0x3AE0 JUMP JUMPDEST PUSH1 0x20 MUL PUSH1 0x20 ADD ADD MLOAD DUP7 PUSH2 0x211B JUMP JUMPDEST SWAP5 POP PUSH1 0x1 ADD PUSH2 0x101A JUMP JUMPDEST POP PUSH2 0x1066 DUP2 PUSH2 0x6AC DUP7 PUSH2 0x2207 JUMP JUMPDEST SWAP8 SWAP7 POP POP POP POP POP POP POP JUMP JUMPDEST PUSH1 0x60 PUSH0 PUSH1 0x1 DUP1 SLOAD PUSH1 0x1 SWAP1 SHL PUSH2 0x1086 SWAP2 SWAP1 PUSH2 0x3B42 JUMP JUMPDEST SWAP1 POP PUSH1 0x1 DUP4 SHL DUP2 XOR PUSH0 PUSH2 0x1098 DUP3 PUSH2 0x23A6 JUMP JUMPDEST PUSH2 0x10A3 SWAP1 PUSH1 0x1 PUSH2 0x3ACD JUMP JUMPDEST PUSH8 0xFFFFFFFFFFFFFFFF DUP2 GT ISZERO PUSH2 0x10BB JUMPI PUSH2 0x10BB PUSH2 0x367F JUMP JUMPDEST PUSH1 0x40 MLOAD SWAP1 DUP1 DUP3 MSTORE DUP1 PUSH1 0x20 MUL PUSH1 0x20 ADD DUP3 ADD PUSH1 0x40 MSTORE DUP1 ISZERO PUSH2 0x10E4 JUMPI DUP2 PUSH1 0x20 ADD PUSH1 0x20 DUP3 MUL DUP1 CALLDATASIZE DUP4 CALLDATACOPY ADD SWAP1 POP JUMPDEST POP SWAP1 POP PUSH0 PUSH1 0x1 SWAP1 POP DUP6 PUSH1 0x1 SWAP1 SHL DUP3 PUSH0 DUP2 MLOAD DUP2 LT PUSH2 0x1103 JUMPI PUSH2 0x1103 PUSH2 0x3AE0 JUMP JUMPDEST PUSH1 0x20 MUL PUSH1 0x20 ADD ADD DUP2 DUP2 MSTORE POP POP PUSH0 JUMPDEST PUSH1 0x1 SLOAD DUP2 LT ISZERO PUSH2 0x115E JUMPI PUSH1 0x1 DUP2 SHL DUP5 AND ISZERO PUSH2 0x1156 JUMPI DUP1 PUSH1 0x1 SWAP1 SHL DUP4 DUP4 DUP2 MLOAD DUP2 LT PUSH2 0x113D JUMPI PUSH2 0x113D PUSH2 0x3AE0 JUMP JUMPDEST PUSH1 0x20 SWAP1 DUP2 MUL SWAP2 SWAP1 SWAP2 ADD ADD MSTORE DUP2 PUSH2 0x1152 DUP2 PUSH2 0x3BC5 JUMP JUMPDEST SWAP3 POP POP JUMPDEST PUSH1 0x1 ADD PUSH2 0x1111 JUMP JUMPDEST POP SWAP1 SWAP6 SWAP5 POP POP POP POP POP JUMP JUMPDEST PUSH0 DUP1 DUP4 PUSH1 0x1 PUSH1 0x1 PUSH1 0xA0 SHL SUB AND PUSH4 0x313CE567 PUSH1 0x40 MLOAD DUP2 PUSH4 0xFFFFFFFF AND PUSH1 0xE0 SHL DUP2 MSTORE PUSH1 0x4 ADD PUSH1 0x20 PUSH1 0x40 MLOAD DUP1 DUP4 SUB DUP2 DUP7 GAS STATICCALL ISZERO DUP1 ISZERO PUSH2 0x11A7 JUMPI RETURNDATASIZE PUSH0 DUP1 RETURNDATACOPY RETURNDATASIZE PUSH0 REVERT JUMPDEST POP POP POP POP PUSH1 0x40 MLOAD RETURNDATASIZE PUSH1 0x1F NOT PUSH1 0x1F DUP3 ADD AND DUP3 ADD DUP1 PUSH1 0x40 MSTORE POP DUP2 ADD SWAP1 PUSH2 0x11CB SWAP2 SWAP1 PUSH2 0x39AE JUMP JUMPDEST PUSH1 0xFF AND SWAP1 POP PUSH0 PUSH2 0x11DC DUP3 PUSH1 0xA PUSH2 0x3AC2 JUMP JUMPDEST SWAP1 POP PUSH0 DUP5 PUSH1 0xF SIGNEXTEND SLT ISZERO PUSH2 0x1231 JUMPI PUSH1 0x40 MLOAD PUSH3 0x461BCD PUSH1 0xE5 SHL DUP2 MSTORE PUSH1 0x20 PUSH1 0x4 DUP3 ADD MSTORE PUSH1 0x1B PUSH1 0x24 DUP3 ADD MSTORE PUSH32 0x416D6F756E74206D757374206265206E6F6E2D6E656761746976650000000000 PUSH1 0x44 DUP3 ADD MSTORE PUSH1 0x64 ADD PUSH2 0x541 JUMP JUMPDEST PUSH2 0x583 DUP5 DUP3 PUSH2 0x2033 JUMP JUMPDEST PUSH2 0x1243 PUSH2 0x223F JUMP JUMPDEST PUSH1 0x8 SLOAD PUSH1 0x1 PUSH1 0xA0 SHL SWAP1 DIV PUSH1 0xFF AND ISZERO PUSH2 0x129D JUMPI PUSH1 0x40 MLOAD PUSH3 0x461BCD PUSH1 0xE5 SHL DUP2 MSTORE PUSH1 0x20 PUSH1 0x4 DUP3 ADD MSTORE PUSH1 0xC PUSH1 0x24 DUP3 ADD MSTORE PUSH32 0x416C726561647920696E69740000000000000000000000000000000000000000 PUSH1 0x44 DUP3 ADD MSTORE PUSH1 0x64 ADD PUSH2 0x541 JUMP JUMPDEST PUSH0 DUP2 GT PUSH2 0x12EC JUMPI PUSH1 0x40 MLOAD PUSH3 0x461BCD PUSH1 0xE5 SHL DUP2 MSTORE PUSH1 0x20 PUSH1 0x4 DUP3 ADD MSTORE PUSH1 0x17 PUSH1 0x24 DUP3 ADD MSTORE PUSH32 0x43616E6E6F7420686176652030206F766572726F756E64000000000000000000 PUSH1 0x44 DUP3 ADD MSTORE PUSH1 0x64 ADD PUSH2 0x541 JUMP JUMPDEST PUSH1 0x7 SLOAD PUSH1 0x40 MLOAD PUSH4 0x365BB9D5 PUSH1 0xE2 SHL DUP2 MSTORE PUSH1 0x1 PUSH1 0x1 PUSH1 0xA0 SHL SUB DUP8 DUP2 AND PUSH1 0x4 DUP4 ADD MSTORE PUSH1 0x24 DUP3 ADD DUP8 SWAP1 MSTORE PUSH1 0x44 DUP3 ADD DUP7 SWAP1 MSTORE SWAP1 SWAP2 AND SWAP1 PUSH4 0xD96EE754 SWAP1 PUSH1 0x64 ADD PUSH0 PUSH1 0x40 MLOAD DUP1 DUP4 SUB DUP2 PUSH0 DUP8 DUP1 EXTCODESIZE ISZERO DUP1 ISZERO PUSH2 0x133E JUMPI PUSH0 DUP1 REVERT JUMPDEST POP GAS CALL ISZERO DUP1 ISZERO PUSH2 0x1350 JUMPI RETURNDATASIZE PUSH0 DUP1 RETURNDATACOPY RETURNDATASIZE PUSH0 REVERT JUMPDEST POP POP PUSH1 0x7 SLOAD PUSH1 0x40 MLOAD PUSH4 0x42963571 PUSH1 0xE1 SHL DUP2 MSTORE PUSH1 0x1 PUSH1 0x1 PUSH1 0xA0 SHL SUB DUP10 DUP2 AND PUSH1 0x4 DUP4 ADD MSTORE PUSH1 0x24 DUP3 ADD DUP10 SWAP1 MSTORE PUSH1 0x44 DUP3 ADD DUP9 SWAP1 MSTORE SWAP1 SWAP2 AND SWAP3 POP PUSH4 0x852C6AE2 SWAP2 POP PUSH1 0x64 ADD PUSH1 0x20 PUSH1 0x40 MLOAD DUP1 DUP4 SUB DUP2 DUP7 GAS STATICCALL ISZERO DUP1 ISZERO PUSH2 0x13AA JUMPI RETURNDATASIZE PUSH0 DUP1 RETURNDATACOPY RETURNDATASIZE PUSH0 REVERT JUMPDEST POP POP POP POP PUSH1 0x40 MLOAD RETURNDATASIZE PUSH1 0x1F NOT PUSH1 0x1F DUP3 ADD AND DUP3 ADD DUP1 PUSH1 0x40 MSTORE POP DUP2 ADD SWAP1 PUSH2 0x13CE SWAP2 SWAP1 PUSH2 0x3AF4 JUMP JUMPDEST PUSH1 0x6 SSTORE PUSH1 0x8 SLOAD PUSH2 0x13E9 SWAP1 PUSH1 0x1 PUSH1 0x1 PUSH1 0xA0 SHL SUB AND CALLER ADDRESS DUP6 PUSH2 0x22E4 JUMP JUMPDEST PUSH1 0x1 DUP4 SWAP1 SSTORE PUSH0 PUSH2 0x13F8 DUP5 PUSH2 0x2323 JUMP JUMPDEST PUSH1 0x8 SLOAD SWAP1 SWAP2 POP PUSH2 0x1411 SWAP1 PUSH1 0x1 PUSH1 0x1 PUSH1 0xA0 SHL SUB AND DUP5 PUSH2 0x58E JUMP JUMPDEST PUSH1 0x5 DUP1 SLOAD PUSH1 0x1 PUSH1 0x1 PUSH1 0x80 SHL SUB NOT AND PUSH1 0x1 PUSH1 0x1 PUSH1 0x80 SHL SUB SWAP3 SWAP1 SWAP3 AND SWAP2 SWAP1 SWAP2 OR SWAP1 SSTORE PUSH0 PUSH2 0x143E DUP4 PUSH2 0x2710 PUSH2 0x20E6 JUMP JUMPDEST SWAP1 POP PUSH2 0x1456 DUP2 PUSH2 0x1451 DUP5 PUSH2 0x6AC DUP7 PUSH2 0x2207 JUMP JUMPDEST PUSH2 0x211B JUMP JUMPDEST PUSH1 0x3 DUP1 SLOAD PUSH1 0x1 PUSH1 0x1 PUSH1 0x80 SHL SUB SWAP3 DUP4 AND PUSH1 0x1 PUSH1 0x80 SHL MUL SWAP3 AND SWAP2 SWAP1 SWAP2 OR SWAP1 SSTORE PUSH1 0x5 SLOAD PUSH2 0x1499 SWAP1 PUSH2 0x1487 SWAP1 PUSH1 0xF SIGNEXTEND DUP5 PUSH2 0x20A8 JUMP JUMPDEST PUSH1 0x3 SLOAD PUSH1 0x1 PUSH1 0x80 SHL SWAP1 DIV PUSH1 0xF SIGNEXTEND PUSH2 0x20A8 JUMP JUMPDEST PUSH1 0x3 DUP1 SLOAD PUSH1 0x1 PUSH1 0x1 PUSH1 0x80 SHL SUB NOT AND PUSH1 0x1 PUSH1 0x1 PUSH1 0x80 SHL SUB SWAP3 SWAP1 SWAP3 AND SWAP2 SWAP1 SWAP2 OR SWAP1 SSTORE PUSH0 JUMPDEST DUP6 DUP2 LT ISZERO PUSH2 0x152A JUMPI PUSH1 0x5 SLOAD PUSH1 0x2 DUP1 SLOAD PUSH1 0x1 DUP1 DUP3 ADD DUP4 SSTORE PUSH0 DUP4 SWAP1 MSTORE PUSH32 0x405787FA12A823E0F2B7631CC41B3BA8828B3321CA811111FA75CD3AA3BB5ACE SWAP3 DUP3 DIV SWAP3 SWAP1 SWAP3 ADD DUP1 SLOAD SWAP2 DUP4 AND PUSH1 0x10 MUL PUSH2 0x100 EXP PUSH1 0x1 PUSH1 0x1 PUSH1 0x80 SHL SUB DUP2 DUP2 MUL NOT SWAP1 SWAP4 AND SWAP3 SWAP1 SWAP5 AND SWAP4 SWAP1 SWAP4 MUL OR SWAP1 SWAP2 SSTORE ADD PUSH2 0x14BB JUMP JUMPDEST POP PUSH1 0x8 DUP1 SLOAD PUSH32 0xFFFFFFFFFFFFFFFFFFFFFF00FFFFFFFFFFFFFFFFFFFFFFFFFFFFFFFFFFFFFFFF AND PUSH1 0x1 PUSH1 0xA0 SHL OR SWAP1 SSTORE PUSH1 0x5 SLOAD PUSH2 0x1569 SWAP1 PUSH1 0xF SIGNEXTEND DUP4 PUSH2 0x20A8 JUMP JUMPDEST PUSH1 0x4 DUP1 SLOAD PUSH1 0x1 PUSH1 0x1 PUSH1 0x80 SHL SUB SWAP3 DUP4 AND PUSH1 0x1 PUSH1 0x80 SHL MUL SWAP3 AND SWAP2 SWAP1 SWAP2 OR SWAP1 SSTORE PUSH2 0x158E PUSH2 0x611 JUMP JUMPDEST PUSH1 0x4 DUP1 SLOAD PUSH1 0x1 PUSH1 0x1 PUSH1 0x80 SHL SUB NOT AND PUSH1 0x1 PUSH1 0x1 PUSH1 0x80 SHL SUB SWAP3 SWAP1 SWAP3 AND SWAP2 SWAP1 SWAP2 OR SWAP1 SSTORE POP POP POP POP POP POP POP JUMP JUMPDEST PUSH1 0x8 SLOAD PUSH0 SWAP1 PUSH1 0x1 PUSH1 0xA0 SHL SWAP1 DIV PUSH1 0xFF AND ISZERO ISZERO PUSH1 0x1 EQ PUSH2 0x15D3 JUMPI PUSH0 DUP1 REVERT JUMPDEST PUSH1 0x1 SLOAD DUP4 LT PUSH2 0x161C JUMPI PUSH1 0x40 MLOAD PUSH3 0x461BCD PUSH1 0xE5 SHL DUP2 MSTORE PUSH1 0x20 PUSH1 0x4 DUP3 ADD MSTORE PUSH1 0x15 PUSH1 0x24 DUP3 ADD MSTORE PUSH21 0x92DCECC2D8D2C840DEEAE8C6DEDACA40D2DCC8CAF PUSH1 0x5B SHL PUSH1 0x44 DUP3 ADD MSTORE PUSH1 0x64 ADD PUSH2 0x541 JUMP JUMPDEST PUSH0 DUP3 PUSH1 0xF SIGNEXTEND SGT PUSH2 0x166E JUMPI PUSH1 0x40 MLOAD PUSH3 0x461BCD PUSH1 0xE5 SHL DUP2 MSTORE PUSH1 0x20 PUSH1 0x4 DUP3 ADD MSTORE PUSH1 0x17 PUSH1 0x24 DUP3 ADD MSTORE PUSH32 0x416D6F756E74206D75737420626520706F736974697665000000000000000000 PUSH1 0x44 DUP3 ADD MSTORE PUSH1 0x64 ADD PUSH2 0x541 JUMP JUMPDEST PUSH1 0x7 SLOAD PUSH1 0x6 SLOAD PUSH1 0x40 MLOAD PUSH4 0xDD34DE67 PUSH1 0xE0 SHL DUP2 MSTORE PUSH1 0x1 PUSH1 0x1 PUSH1 0xA0 SHL SUB SWAP1 SWAP3 AND SWAP2 PUSH4 0xDD34DE67 SWAP2 PUSH2 0x16A3 SWAP2 PUSH1 0x4 ADD SWAP1 DUP2 MSTORE PUSH1 0x20 ADD SWAP1 JUMP JUMPDEST PUSH1 0x20 PUSH1 0x40 MLOAD DUP1 DUP4 SUB DUP2 DUP7 GAS STATICCALL ISZERO DUP1 ISZERO PUSH2 0x16BE JUMPI RETURNDATASIZE PUSH0 DUP1 RETURNDATACOPY RETURNDATASIZE PUSH0 REVERT JUMPDEST POP POP POP POP PUSH1 0x40 MLOAD RETURNDATASIZE PUSH1 0x1F NOT PUSH1 0x1F DUP3 ADD AND DUP3 ADD DUP1 PUSH1 0x40 MSTORE POP DUP2 ADD SWAP1 PUSH2 0x16E2 SWAP2 SWAP1 PUSH2 0x3AF4 JUMP JUMPDEST ISZERO PUSH2 0x172F JUMPI PUSH1 0x40 MLOAD PUSH3 0x461BCD PUSH1 0xE5 SHL DUP2 MSTORE PUSH1 0x20 PUSH1 0x4 DUP3 ADD MSTORE PUSH1 0x17 PUSH1 0x24 DUP3 ADD MSTORE PUSH32 0x4D61726B657420616C7265616479207265736F6C766564000000000000000000 PUSH1 0x44 DUP3 ADD MSTORE PUSH1 0x64 ADD PUSH2 0x541 JUMP JUMPDEST DUP2 PUSH1 0xF SIGNEXTEND PUSH1 0x2 DUP5 DUP2 SLOAD DUP2 LT PUSH2 0x1746 JUMPI PUSH2 0x1746 PUSH2 0x3AE0 JUMP JUMPDEST PUSH0 SWAP2 DUP3 MSTORE PUSH1 0x20 SWAP1 SWAP2 KECCAK256 PUSH1 0x2 DUP3 DIV ADD SLOAD PUSH1 0x1 SWAP1 SWAP2 AND PUSH1 0x10 MUL PUSH2 0x100 EXP SWAP1 DIV PUSH1 0xF SIGNEXTEND SLT ISZERO PUSH2 0x17B4 JUMPI PUSH1 0x40 MLOAD PUSH3 0x461BCD PUSH1 0xE5 SHL DUP2 MSTORE PUSH1 0x20 PUSH1 0x4 DUP3 ADD MSTORE PUSH1 0x19 PUSH1 0x24 DUP3 ADD MSTORE PUSH32 0x4E6F7420656E6F7567682073686172657320746F2073656C6C00000000000000 PUSH1 0x44 DUP3 ADD MSTORE PUSH1 0x64 ADD PUSH2 0x541 JUMP JUMPDEST PUSH2 0x17F1 PUSH1 0x2 DUP5 DUP2 SLOAD DUP2 LT PUSH2 0x17CA JUMPI PUSH2 0x17CA PUSH2 0x3AE0 JUMP JUMPDEST SWAP1 PUSH0 MSTORE PUSH1 0x20 PUSH0 KECCAK256 SWAP1 PUSH1 0x2 SWAP2 DUP3 DUP3 DIV ADD SWAP2 SWAP1 MOD PUSH1 0x10 MUL SWAP1 SLOAD SWAP1 PUSH2 0x100 EXP SWAP1 DIV PUSH1 0xF SIGNEXTEND DUP4 PUSH2 0x23D4 JUMP JUMPDEST PUSH1 0x2 DUP5 DUP2 SLOAD DUP2 LT PUSH2 0x1804 JUMPI PUSH2 0x1804 PUSH2 0x3AE0 JUMP JUMPDEST SWAP1 PUSH0 MSTORE PUSH1 0x20 PUSH0 KECCAK256 SWAP1 PUSH1 0x2 SWAP2 DUP3 DUP3 DIV ADD SWAP2 SWAP1 MOD PUSH1 0x10 MUL PUSH2 0x100 EXP DUP2 SLOAD DUP2 PUSH1 0x1 PUSH1 0x1 PUSH1 0x80 SHL SUB MUL NOT AND SWAP1 DUP4 PUSH1 0xF SIGNEXTEND PUSH1 0x1 PUSH1 0x1 PUSH1 0x80 SHL SUB AND MUL OR SWAP1 SSTORE POP PUSH2 0x1857 PUSH1 0x4 PUSH1 0x10 SWAP1 SLOAD SWAP1 PUSH2 0x100 EXP SWAP1 DIV PUSH1 0xF SIGNEXTEND DUP4 PUSH2 0x23D4 JUMP JUMPDEST PUSH1 0x4 DUP1 SLOAD PUSH1 0x1 PUSH1 0x1 PUSH1 0x80 SHL SUB SWAP1 DUP2 AND PUSH1 0x1 PUSH1 0x80 SHL SWAP4 SWAP1 SWAP2 AND DUP4 MUL OR SWAP1 DUP2 SWAP1 SSTORE PUSH1 0x3 SLOAD PUSH2 0x1891 SWAP3 SWAP2 DUP3 SWAP1 DIV PUSH1 0xF SWAP1 DUP2 SIGNEXTEND SWAP3 SWAP1 SWAP2 DIV SWAP1 SIGNEXTEND PUSH2 0x20A8 JUMP JUMPDEST PUSH1 0x3 DUP1 SLOAD PUSH1 0x1 PUSH1 0x1 PUSH1 0x80 SHL SUB NOT AND PUSH1 0x1 PUSH1 0x1 PUSH1 0x80 SHL SUB SWAP3 SWAP1 SWAP3 AND SWAP2 SWAP1 SWAP2 OR SWAP1 SSTORE PUSH0 DUP1 JUMPDEST PUSH1 0x1 SLOAD DUP2 LT ISZERO PUSH2 0x18E5 JUMPI PUSH2 0x18DB DUP3 PUSH2 0x689 PUSH2 0x684 PUSH1 0x2 DUP6 DUP2 SLOAD DUP2 LT PUSH2 0x657 JUMPI PUSH2 0x657 PUSH2 0x3AE0 JUMP JUMPDEST SWAP2 POP PUSH1 0x1 ADD PUSH2 0x18B4 JUMP JUMPDEST POP PUSH1 0x3 SLOAD PUSH0 SWAP1 PUSH2 0x18FB SWAP1 PUSH1 0xF SIGNEXTEND PUSH2 0x6AC DUP5 PUSH2 0x2207 JUMP JUMPDEST PUSH1 0x4 SLOAD SWAP1 SWAP2 POP PUSH2 0x190E SWAP1 PUSH1 0xF SIGNEXTEND DUP3 PUSH2 0x23D4 JUMP JUMPDEST PUSH1 0x8 SLOAD SWAP1 SWAP4 POP PUSH0 SWAP1 PUSH2 0x1929 SWAP1 PUSH1 0x1 PUSH1 0x1 PUSH1 0xA0 SHL SUB AND DUP7 PUSH2 0x1169 JUMP JUMPDEST PUSH1 0x7 SLOAD PUSH1 0x8 SLOAD PUSH1 0x6 SLOAD PUSH1 0x40 MLOAD PUSH4 0x856296F7 PUSH1 0xE0 SHL DUP2 MSTORE PUSH0 PUSH1 0x4 DUP3 ADD DUP2 SWAP1 MSTORE PUSH1 0x24 DUP3 ADD SWAP3 SWAP1 SWAP3 MSTORE PUSH1 0x1 DUP12 SHL PUSH1 0x44 DUP3 ADD MSTORE SWAP4 SWAP5 POP SWAP3 PUSH1 0x1 PUSH1 0x1 PUSH1 0xA0 SHL SUB SWAP3 DUP4 AND SWAP3 PUSH4 0x39DD7530 SWAP3 AND SWAP1 DUP4 SWAP1 PUSH4 0x856296F7 SWAP1 PUSH1 0x64 ADD PUSH1 0x20 PUSH1 0x40 MLOAD DUP1 DUP4 SUB DUP2 DUP7 GAS STATICCALL ISZERO DUP1 ISZERO PUSH2 0x1996 JUMPI RETURNDATASIZE PUSH0 DUP1 RETURNDATACOPY RETURNDATASIZE PUSH0 REVERT JUMPDEST POP POP POP POP PUSH1 0x40 MLOAD RETURNDATASIZE PUSH1 0x1F NOT PUSH1 0x1F DUP3 ADD AND DUP3 ADD DUP1 PUSH1 0x40 MSTORE POP DUP2 ADD SWAP1 PUSH2 0x19BA SWAP2 SWAP1 PUSH2 0x3AF4 JUMP JUMPDEST PUSH1 0x40 MLOAD PUSH1 0x1 PUSH1 0x1 PUSH1 0xE0 SHL SUB NOT PUSH1 0xE0 DUP6 SWAP1 SHL AND DUP2 MSTORE PUSH1 0x1 PUSH1 0x1 PUSH1 0xA0 SHL SUB SWAP1 SWAP3 AND PUSH1 0x4 DUP4 ADD MSTORE PUSH1 0x24 DUP3 ADD MSTORE PUSH1 0x44 ADD PUSH1 0x20 PUSH1 0x40 MLOAD DUP1 DUP4 SUB DUP2 DUP7 GAS STATICCALL ISZERO DUP1 ISZERO PUSH2 0x1A01 JUMPI RETURNDATASIZE PUSH0 DUP1 RETURNDATACOPY RETURNDATASIZE PUSH0 REVERT JUMPDEST POP POP POP POP PUSH1 0x40 MLOAD RETURNDATASIZE PUSH1 0x1F NOT PUSH1 0x1F DUP3 ADD AND DUP3 ADD DUP1 PUSH1 0x40 MSTORE POP DUP2 ADD SWAP1 PUSH2 0x1A25 SWAP2 SWAP1 PUSH2 0x3AF4 JUMP JUMPDEST PUSH1 0x7 SLOAD PUSH1 0x40 MLOAD PUSH4 0x79212195 PUSH1 0xE1 SHL DUP2 MSTORE CALLER PUSH1 0x4 DUP3 ADD MSTORE ADDRESS PUSH1 0x24 DUP3 ADD MSTORE PUSH1 0x44 DUP2 ADD DUP4 SWAP1 MSTORE PUSH1 0x64 DUP2 ADD DUP6 SWAP1 MSTORE PUSH1 0xA0 PUSH1 0x84 DUP3 ADD MSTORE PUSH0 PUSH1 0xA4 DUP3 ADD MSTORE SWAP2 SWAP3 POP PUSH1 0x1 PUSH1 0x1 PUSH1 0xA0 SHL SUB AND SWAP1 PUSH4 0xF242432A SWAP1 PUSH1 0xC4 ADD PUSH0 PUSH1 0x40 MLOAD DUP1 DUP4 SUB DUP2 PUSH0 DUP8 DUP1 EXTCODESIZE ISZERO DUP1 ISZERO PUSH2 0x1A89 JUMPI PUSH0 DUP1 REVERT JUMPDEST POP GAS CALL ISZERO DUP1 ISZERO PUSH2 0x1A9B JUMPI RETURNDATASIZE PUSH0 DUP1 RETURNDATACOPY RETURNDATASIZE PUSH0 REVERT JUMPDEST POP POP PUSH1 0x4 DUP1 SLOAD PUSH1 0x1 PUSH1 0x1 PUSH1 0x80 SHL SUB NOT AND PUSH1 0x1 PUSH1 0x1 PUSH1 0x80 SHL SUB DUP8 AND OR SWAP1 SSTORE POP POP PUSH1 0x8 SLOAD PUSH0 SWAP1 PUSH2 0x1AD2 SWAP1 PUSH1 0x1 PUSH1 0x1 PUSH1 0xA0 SHL SUB AND DUP8 PUSH2 0x1169 JUMP JUMPDEST PUSH1 0x8 SLOAD SWAP1 SWAP2 POP PUSH2 0x1AEC SWAP1 PUSH1 0x1 PUSH1 0x1 PUSH1 0xA0 SHL SUB AND CALLER DUP4 PUSH2 0x226B JUMP JUMPDEST POP POP POP POP POP SWAP3 SWAP2 POP POP JUMP JUMPDEST PUSH0 PUSH1 0x1 SLOAD DUP3 LT PUSH2 0x1B41 JUMPI PUSH1 0x40 MLOAD PUSH3 0x461BCD PUSH1 0xE5 SHL DUP2 MSTORE PUSH1 0x20 PUSH1 0x4 DUP3 ADD MSTORE PUSH1 0x15 PUSH1 0x24 DUP3 ADD MSTORE PUSH21 0x92DCECC2D8D2C840DEEAE8C6DEDACA40D2DCC8CAF PUSH1 0x5B SHL PUSH1 0x44 DUP3 ADD MSTORE PUSH1 0x64 ADD PUSH2 0x541 JUMP JUMPDEST PUSH2 0x588 PUSH1 0x2 DUP4 DUP2 SLOAD DUP2 LT PUSH2 0x1B57 JUMPI PUSH2 0x1B57 PUSH2 0x3AE0 JUMP JUMPDEST PUSH0 SWAP2 DUP3 MSTORE PUSH1 0x20 SWAP1 SWAP2 KECCAK256 PUSH1 0x2 DUP3 DIV ADD SLOAD PUSH1 0x5 SLOAD PUSH1 0x1 SWAP1 SWAP3 AND PUSH1 0x10 MUL PUSH2 0x100 EXP SWAP1 DIV PUSH1 0xF SWAP1 DUP2 SIGNEXTEND SWAP2 SWAP1 SIGNEXTEND PUSH2 0x23D4 JUMP JUMPDEST PUSH1 0x4 SLOAD PUSH0 SWAP1 PUSH1 0xF SIGNEXTEND PUSH2 0x1B96 DUP5 DUP5 PUSH2 0xEB2 JUMP JUMPDEST PUSH2 0xDE6 SWAP2 SWAP1 PUSH2 0x3B8F JUMP JUMPDEST PUSH1 0x8 SLOAD PUSH1 0x40 MLOAD PUSH4 0x70A08231 PUSH1 0xE0 SHL DUP2 MSTORE ADDRESS PUSH1 0x4 DUP3 ADD MSTORE PUSH0 SWAP2 DUP3 SWAP2 PUSH1 0x1 PUSH1 0x1 PUSH1 0xA0 SHL SUB SWAP1 SWAP2 AND SWAP1 PUSH4 0x70A08231 SWAP1 PUSH1 0x24 ADD PUSH1 0x20 PUSH1 0x40 MLOAD DUP1 DUP4 SUB DUP2 DUP7 GAS STATICCALL ISZERO DUP1 ISZERO PUSH2 0x1BEA JUMPI RETURNDATASIZE PUSH0 DUP1 RETURNDATACOPY RETURNDATASIZE PUSH0 REVERT JUMPDEST POP POP POP POP PUSH1 0x40 MLOAD RETURNDATASIZE PUSH1 0x1F NOT PUSH1 0x1F DUP3 ADD AND DUP3 ADD DUP1 PUSH1 0x40 MSTORE POP DUP2 ADD SWAP1 PUSH2 0x1C0E SWAP2 SWAP1 PUSH2 0x3AF4 JUMP JUMPDEST PUSH1 0x8 SLOAD PUSH1 0x4 SLOAD SWAP2 SWAP4 POP PUSH2 0x1C2F SWAP2 PUSH1 0x1 PUSH1 0x1 PUSH1 0xA0 SHL SUB SWAP1 SWAP2 AND SWAP1 PUSH1 0xF SIGNEXTEND PUSH2 0x908 JUMP JUMPDEST SWAP1 POP SWAP1 SWAP2 JUMP JUMPDEST PUSH2 0x1C3D PUSH2 0x223F JUMP JUMPDEST PUSH1 0x1 PUSH1 0x1 PUSH1 0xA0 SHL SUB DUP2 AND PUSH2 0x1C66 JUMPI PUSH1 0x40 MLOAD PUSH4 0x1E4FBDF7 PUSH1 0xE0 SHL DUP2 MSTORE PUSH0 PUSH1 0x4 DUP3 ADD MSTORE PUSH1 0x24 ADD PUSH2 0x541 JUMP JUMPDEST PUSH2 0x905 DUP2 PUSH2 0x233F JUMP JUMPDEST PUSH1 0x8 SLOAD PUSH0 SWAP1 PUSH1 0x1 PUSH1 0xA0 SHL SWAP1 DIV PUSH1 0xFF AND ISZERO ISZERO PUSH1 0x1 EQ PUSH2 0x1C8B JUMPI PUSH0 DUP1 REVERT JUMPDEST PUSH1 0x1 SLOAD DUP4 LT PUSH2 0x1CD4 JUMPI PUSH1 0x40 MLOAD PUSH3 0x461BCD PUSH1 0xE5 SHL DUP2 MSTORE PUSH1 0x20 PUSH1 0x4 DUP3 ADD MSTORE PUSH1 0x15 PUSH1 0x24 DUP3 ADD MSTORE PUSH21 0x92DCECC2D8D2C840DEEAE8C6DEDACA40D2DCC8CAF PUSH1 0x5B SHL PUSH1 0x44 DUP3 ADD MSTORE PUSH1 0x64 ADD PUSH2 0x541 JUMP JUMPDEST PUSH0 DUP3 PUSH1 0xF SIGNEXTEND SGT PUSH2 0x1D26 JUMPI PUSH1 0x40 MLOAD PUSH3 0x461BCD PUSH1 0xE5 SHL DUP2 MSTORE PUSH1 0x20 PUSH1 0x4 DUP3 ADD MSTORE PUSH1 0x17 PUSH1 0x24 DUP3 ADD MSTORE PUSH32 0x416D6F756E74206D75737420626520706F736974697665000000000000000000 PUSH1 0x44 DUP3 ADD MSTORE PUSH1 0x64 ADD PUSH2 0x541 JUMP JUMPDEST PUSH1 0x7 SLOAD PUSH1 0x6 SLOAD PUSH1 0x40 MLOAD PUSH4 0xDD34DE67 PUSH1 0xE0 SHL DUP2 MSTORE PUSH1 0x1 PUSH1 0x1 PUSH1 0xA0 SHL SUB SWAP1 SWAP3 AND SWAP2 PUSH4 0xDD34DE67 SWAP2 PUSH2 0x1D5B SWAP2 PUSH1 0x4 ADD SWAP1 DUP2 MSTORE PUSH1 0x20 ADD SWAP1 JUMP JUMPDEST PUSH1 0x20 PUSH1 0x40 MLOAD DUP1 DUP4 SUB DUP2 DUP7 GAS STATICCALL ISZERO DUP1 ISZERO PUSH2 0x1D76 JUMPI RETURNDATASIZE PUSH0 DUP1 RETURNDATACOPY RETURNDATASIZE PUSH0 REVERT JUMPDEST POP POP POP POP PUSH1 0x40 MLOAD RETURNDATASIZE PUSH1 0x1F NOT PUSH1 0x1F DUP3 ADD AND DUP3 ADD DUP1 PUSH1 0x40 MSTORE POP DUP2 ADD SWAP1 PUSH2 0x1D9A SWAP2 SWAP1 PUSH2 0x3AF4 JUMP JUMPDEST ISZERO PUSH2 0x1DE7 JUMPI PUSH1 0x40 MLOAD PUSH3 0x461BCD PUSH1 0xE5 SHL DUP2 MSTORE PUSH1 0x20 PUSH1 0x4 DUP3 ADD MSTORE PUSH1 0x17 PUSH1 0x24 DUP3 ADD MSTORE PUSH32 0x4D61726B657420616C7265616479207265736F6C766564000000000000000000 PUSH1 0x44 DUP3 ADD MSTORE PUSH1 0x64 ADD PUSH2 0x541 JUMP JUMPDEST PUSH0 DUP1 PUSH0 DUP1 PUSH2 0x1E88 PUSH1 0x2 DUP1 SLOAD DUP1 PUSH1 0x20 MUL PUSH1 0x20 ADD PUSH1 0x40 MLOAD SWAP1 DUP2 ADD PUSH1 0x40 MSTORE DUP1 SWAP3 SWAP2 SWAP1 DUP2 DUP2 MSTORE PUSH1 0x20 ADD DUP3 DUP1 SLOAD DUP1 ISZERO PUSH2 0x1E5A JUMPI PUSH1 0x20 MUL DUP3 ADD SWAP2 SWAP1 PUSH0 MSTORE PUSH1 0x20 PUSH0 KECCAK256 SWAP1 PUSH0 SWAP1 JUMPDEST DUP3 SLOAD PUSH2 0x100 DUP4 SWAP1 EXP SWAP1 DIV PUSH1 0xF SIGNEXTEND DUP2 MSTORE PUSH1 0x20 PUSH1 0x1F DUP4 ADD DUP2 SWAP1 DIV SWAP4 DUP5 ADD SWAP4 PUSH1 0x1 SUB PUSH1 0x10 SWAP1 SWAP4 ADD SWAP3 SWAP1 SWAP3 MUL SWAP2 ADD DUP1 DUP5 GT PUSH2 0x1E26 JUMPI SWAP1 POP JUMPDEST POP POP PUSH1 0x4 SLOAD PUSH1 0x3 SLOAD PUSH1 0x1 SLOAD DUP15 SWAP6 POP DUP14 SWAP5 POP PUSH1 0x1 PUSH1 0x80 SHL DUP1 DUP5 DIV PUSH1 0xF SWAP1 DUP2 SIGNEXTEND SWAP6 POP SWAP3 DIV DUP3 SIGNEXTEND SWAP3 SWAP1 SWAP2 SIGNEXTEND SWAP1 PUSH2 0x240E JUMP JUMPDEST PUSH1 0x8 SLOAD SWAP4 SWAP8 POP SWAP2 SWAP6 POP SWAP4 POP SWAP2 POP PUSH0 SWAP1 PUSH2 0x1EAA SWAP1 PUSH1 0x1 PUSH1 0x1 PUSH1 0xA0 SHL SUB AND DUP6 PUSH2 0x47D JUMP JUMPDEST PUSH1 0x8 SLOAD PUSH1 0x40 MLOAD PUSH4 0x23B872DD PUSH1 0xE0 SHL DUP2 MSTORE CALLER PUSH1 0x4 DUP3 ADD MSTORE ADDRESS PUSH1 0x24 DUP3 ADD MSTORE PUSH1 0x44 DUP2 ADD DUP4 SWAP1 MSTORE SWAP2 SWAP3 POP PUSH1 0x1 PUSH1 0x1 PUSH1 0xA0 SHL SUB AND SWAP1 PUSH4 0x23B872DD SWAP1 PUSH1 0x64 ADD PUSH1 0x20 PUSH1 0x40 MLOAD DUP1 DUP4 SUB DUP2 PUSH0 DUP8 GAS CALL ISZERO DUP1 ISZERO PUSH2 0x1EFF JUMPI RETURNDATASIZE PUSH0 DUP1 RETURNDATACOPY RETURNDATASIZE PUSH0 REVERT JUMPDEST POP POP POP POP PUSH1 0x40 MLOAD RETURNDATASIZE PUSH1 0x1F NOT PUSH1 0x1F DUP3 ADD AND DUP3 ADD DUP1 PUSH1 0x40 MSTORE POP DUP2 ADD SWAP1 PUSH2 0x1F23 SWAP2 SWAP1 PUSH2 0x3BDD JUMP JUMPDEST PUSH2 0x1F6F JUMPI PUSH1 0x40 MLOAD PUSH3 0x461BCD PUSH1 0xE5 SHL DUP2 MSTORE PUSH1 0x20 PUSH1 0x4 DUP3 ADD MSTORE PUSH1 0x19 PUSH1 0x24 DUP3 ADD MSTORE PUSH32 0x4572726F72207472616E7366657272696E6720746F6B656E7300000000000000 PUSH1 0x44 DUP3 ADD MSTORE PUSH1 0x64 ADD PUSH2 0x541 JUMP JUMPDEST PUSH2 0x1FAC PUSH1 0x2 DUP10 DUP2 SLOAD DUP2 LT PUSH2 0x1F85 JUMPI PUSH2 0x1F85 PUSH2 0x3AE0 JUMP JUMPDEST SWAP1 PUSH0 MSTORE PUSH1 0x20 PUSH0 KECCAK256 SWAP1 PUSH1 0x2 SWAP2 DUP3 DUP3 DIV ADD SWAP2 SWAP1 MOD PUSH1 0x10 MUL SWAP1 SLOAD SWAP1 PUSH2 0x100 EXP SWAP1 DIV PUSH1 0xF SIGNEXTEND DUP9 PUSH2 0x21CD JUMP JUMPDEST PUSH1 0x2 DUP10 DUP2 SLOAD DUP2 LT PUSH2 0x1FBF JUMPI PUSH2 0x1FBF PUSH2 0x3AE0 JUMP JUMPDEST PUSH0 SWAP2 DUP3 MSTORE PUSH1 0x20 SWAP1 SWAP2 KECCAK256 PUSH1 0x2 DUP3 DIV ADD DUP1 SLOAD PUSH1 0x1 SWAP1 SWAP3 AND PUSH1 0x10 MUL PUSH2 0x100 EXP PUSH1 0x1 PUSH1 0x1 PUSH1 0x80 SHL SUB DUP2 DUP2 MUL NOT SWAP1 SWAP4 AND SWAP4 DUP4 AND MUL SWAP3 SWAP1 SWAP3 OR SWAP1 SWAP2 SSTORE PUSH1 0x3 DUP1 SLOAD PUSH1 0x1 PUSH1 0x1 PUSH1 0x80 SHL SUB NOT SWAP1 DUP2 AND DUP6 DUP5 AND OR SWAP1 SWAP2 SSTORE PUSH1 0x1 PUSH1 0x80 SHL DUP6 DUP4 AND MUL AND SWAP1 DUP7 AND OR PUSH1 0x4 SSTORE PUSH2 0x2027 DUP9 DUP9 PUSH2 0x2576 JUMP JUMPDEST POP SWAP2 SWAP7 SWAP6 POP POP POP POP POP POP JUMP JUMPDEST PUSH0 DUP2 PUSH0 SUB PUSH2 0x2042 JUMPI POP PUSH0 PUSH2 0x588 JUMP JUMPDEST PUSH0 DUP4 PUSH1 0xF SIGNEXTEND SLT ISZERO PUSH2 0x2051 JUMPI PUSH0 DUP1 REVERT JUMPDEST PUSH1 0xF DUP4 SWAP1 SIGNEXTEND PUSH1 0x1 PUSH1 0x1 PUSH1 0x80 SHL SUB DUP4 AND DUP2 MUL PUSH1 0x40 SHR SWAP1 PUSH1 0x80 DUP5 SWAP1 SHR MUL PUSH24 0xFFFFFFFFFFFFFFFFFFFFFFFFFFFFFFFFFFFFFFFFFFFFFFFF DUP2 GT ISZERO PUSH2 0x2090 JUMPI PUSH0 DUP1 REVERT JUMPDEST PUSH1 0x40 SHL DUP2 NOT DUP2 GT ISZERO PUSH2 0x20A0 JUMPI PUSH0 DUP1 REVERT JUMPDEST ADD SWAP4 SWAP3 POP POP POP JUMP JUMPDEST PUSH0 PUSH1 0xF DUP4 DUP2 SIGNEXTEND SWAP1 DUP4 SWAP1 SIGNEXTEND MUL PUSH1 0x40 SAR PUSH16 0x7FFFFFFFFFFFFFFFFFFFFFFFFFFFFFFF NOT DUP2 SLT DUP1 ISZERO SWAP1 PUSH2 0x20DE JUMPI POP PUSH1 0x1 PUSH1 0x1 PUSH1 0x7F SHL SUB DUP2 SGT ISZERO JUMPDEST PUSH2 0xDE6 JUMPI PUSH0 DUP1 REVERT JUMPDEST PUSH0 DUP2 PUSH0 SUB PUSH2 0x20F2 JUMPI PUSH0 DUP1 REVERT JUMPDEST PUSH0 PUSH2 0x20FD DUP5 DUP5 PUSH2 0x288A JUMP JUMPDEST SWAP1 POP PUSH1 0x1 PUSH1 0x1 PUSH1 0x7F SHL SUB PUSH1 0x1 PUSH1 0x1 PUSH1 0x80 SHL SUB DUP3 AND GT ISZERO PUSH2 0xDE6 JUMPI PUSH0 DUP1 REVERT JUMPDEST PUSH0 DUP2 PUSH1 0xF SIGNEXTEND PUSH0 SUB PUSH2 0x212A JUMPI PUSH0 DUP1 REVERT JUMPDEST PUSH0 DUP3 PUSH1 0xF SIGNEXTEND PUSH1 0x40 DUP6 PUSH1 0xF SIGNEXTEND SWAP1 SHL DUP2 PUSH2 0x2144 JUMPI PUSH2 0x2144 PUSH2 0x3BFC JUMP JUMPDEST SDIV SWAP1 POP PUSH16 0x7FFFFFFFFFFFFFFFFFFFFFFFFFFFFFFF NOT DUP2 SLT DUP1 ISZERO SWAP1 PUSH2 0x20DE JUMPI POP PUSH1 0x1 PUSH1 0x1 PUSH1 0x7F SHL SUB DUP2 SGT ISZERO PUSH2 0xDE6 JUMPI PUSH0 DUP1 REVERT JUMPDEST PUSH0 PUSH9 0x400000000000000000 DUP3 PUSH1 0xF SIGNEXTEND SLT PUSH2 0x218E JUMPI PUSH0 DUP1 REVERT JUMPDEST PUSH9 0x3FFFFFFFFFFFFFFFFF NOT DUP3 PUSH1 0xF SIGNEXTEND SLT ISZERO PUSH2 0x21AA JUMPI POP PUSH0 SWAP2 SWAP1 POP JUMP JUMPDEST PUSH2 0x588 PUSH1 0x80 DUP4 PUSH1 0xF SIGNEXTEND PUSH17 0x171547652B82FE1777D0FFDA0D23A7D12 MUL SWAP1 SAR PUSH2 0x29FA JUMP JUMPDEST PUSH0 PUSH1 0xF DUP4 DUP2 SIGNEXTEND SWAP1 DUP4 SWAP1 SIGNEXTEND ADD PUSH16 0x7FFFFFFFFFFFFFFFFFFFFFFFFFFFFFFF NOT DUP2 SLT DUP1 ISZERO SWAP1 PUSH2 0x20DE JUMPI POP PUSH1 0x1 PUSH1 0x1 PUSH1 0x7F SHL SUB DUP2 SGT ISZERO PUSH2 0xDE6 JUMPI PUSH0 DUP1 REVERT JUMPDEST PUSH0 DUP1 DUP3 PUSH1 0xF SIGNEXTEND SGT PUSH2 0x2216 JUMPI PUSH0 DUP1 REVERT JUMPDEST PUSH1 0x80 PUSH2 0x2221 DUP4 PUSH2 0x3480 JUMP JUMPDEST PUSH1 0xF SIGNEXTEND PUSH16 0xB17217F7D1CF79ABC9E3B39803F2F6AF MUL SWAP1 SHR SWAP1 POP SWAP2 SWAP1 POP JUMP JUMPDEST PUSH0 SLOAD PUSH1 0x1 PUSH1 0x1 PUSH1 0xA0 SHL SUB AND CALLER EQ PUSH2 0xEB0 JUMPI PUSH1 0x40 MLOAD PUSH4 0x118CDAA7 PUSH1 0xE0 SHL DUP2 MSTORE CALLER PUSH1 0x4 DUP3 ADD MSTORE PUSH1 0x24 ADD PUSH2 0x541 JUMP JUMPDEST PUSH1 0x40 MLOAD PUSH1 0x1 PUSH1 0x1 PUSH1 0xA0 SHL SUB DUP4 DUP2 AND PUSH1 0x24 DUP4 ADD MSTORE PUSH1 0x44 DUP3 ADD DUP4 SWAP1 MSTORE PUSH2 0x22DF SWAP2 DUP6 SWAP2 DUP3 AND SWAP1 PUSH4 0xA9059CBB SWAP1 PUSH1 0x64 ADD JUMPDEST PUSH1 0x40 MLOAD PUSH1 0x20 DUP2 DUP4 SUB SUB DUP2 MSTORE SWAP1 PUSH1 0x40 MSTORE SWAP2 POP PUSH1 0xE0 SHL PUSH1 0x20 DUP3 ADD DUP1 MLOAD PUSH28 0xFFFFFFFFFFFFFFFFFFFFFFFFFFFFFFFFFFFFFFFFFFFFFFFFFFFFFFFF DUP4 DUP2 DUP4 AND OR DUP4 MSTORE POP POP POP POP PUSH2 0x3555 JUMP JUMPDEST POP POP POP JUMP JUMPDEST PUSH1 0x40 MLOAD PUSH1 0x1 PUSH1 0x1 PUSH1 0xA0 SHL SUB DUP5 DUP2 AND PUSH1 0x24 DUP4 ADD MSTORE DUP4 DUP2 AND PUSH1 0x44 DUP4 ADD MSTORE PUSH1 0x64 DUP3 ADD DUP4 SWAP1 MSTORE PUSH2 0x231D SWAP2 DUP7 SWAP2 DUP3 AND SWAP1 PUSH4 0x23B872DD SWAP1 PUSH1 0x84 ADD PUSH2 0x2298 JUMP JUMPDEST POP POP POP POP JUMP JUMPDEST PUSH0 PUSH8 0x7FFFFFFFFFFFFFFF DUP3 GT ISZERO PUSH2 0x2338 JUMPI PUSH0 DUP1 REVERT JUMPDEST POP PUSH1 0x40 SHL SWAP1 JUMP JUMPDEST PUSH0 DUP1 SLOAD PUSH1 0x1 PUSH1 0x1 PUSH1 0xA0 SHL SUB DUP4 DUP2 AND PUSH32 0xFFFFFFFFFFFFFFFFFFFFFFFF0000000000000000000000000000000000000000 DUP4 AND DUP2 OR DUP5 SSTORE PUSH1 0x40 MLOAD SWAP2 SWAP1 SWAP3 AND SWAP3 DUP4 SWAP2 PUSH32 0x8BE0079C531659141344CD1FD0A4F28419497F9722A3DAAFE3B4186F6B6457E0 SWAP2 SWAP1 LOG3 POP POP JUMP JUMPDEST PUSH0 JUMPDEST DUP2 ISZERO PUSH2 0x23CF JUMPI PUSH2 0x23B9 PUSH1 0x1 DUP4 PUSH2 0x3B42 JUMP JUMPDEST SWAP1 SWAP2 AND SWAP1 DUP1 PUSH2 0x23C7 DUP2 PUSH2 0x3BC5 JUMP JUMPDEST SWAP2 POP POP PUSH2 0x23A8 JUMP JUMPDEST SWAP2 SWAP1 POP JUMP JUMPDEST PUSH0 PUSH1 0xF DUP3 DUP2 SIGNEXTEND SWAP1 DUP5 SWAP1 SIGNEXTEND SUB PUSH16 0x7FFFFFFFFFFFFFFFFFFFFFFFFFFFFFFF NOT DUP2 SLT DUP1 ISZERO SWAP1 PUSH2 0x20DE JUMPI POP PUSH1 0x1 PUSH1 0x1 PUSH1 0x7F SHL SUB DUP2 SGT ISZERO PUSH2 0xDE6 JUMPI PUSH0 DUP1 REVERT JUMPDEST PUSH0 DUP1 PUSH0 DUP1 PUSH0 DUP6 PUSH8 0xFFFFFFFFFFFFFFFF DUP2 GT ISZERO PUSH2 0x242C JUMPI PUSH2 0x242C PUSH2 0x367F JUMP JUMPDEST PUSH1 0x40 MLOAD SWAP1 DUP1 DUP3 MSTORE DUP1 PUSH1 0x20 MUL PUSH1 0x20 ADD DUP3 ADD PUSH1 0x40 MSTORE DUP1 ISZERO PUSH2 0x2455 JUMPI DUP2 PUSH1 0x20 ADD PUSH1 0x20 DUP3 MUL DUP1 CALLDATASIZE DUP4 CALLDATACOPY ADD SWAP1 POP JUMPDEST POP SWAP1 POP PUSH0 JUMPDEST DUP7 DUP2 LT ISZERO PUSH2 0x24A9 JUMPI DUP13 DUP2 DUP2 MLOAD DUP2 LT PUSH2 0x2474 JUMPI PUSH2 0x2474 PUSH2 0x3AE0 JUMP JUMPDEST PUSH1 0x20 MUL PUSH1 0x20 ADD ADD MLOAD DUP3 DUP3 DUP2 MLOAD DUP2 LT PUSH2 0x248E JUMPI PUSH2 0x248E PUSH2 0x3AE0 JUMP JUMPDEST PUSH1 0xF SWAP3 SWAP1 SWAP3 SIGNEXTEND PUSH1 0x20 SWAP3 DUP4 MUL SWAP2 SWAP1 SWAP2 ADD SWAP1 SWAP2 ADD MSTORE PUSH1 0x1 ADD PUSH2 0x245A JUMP JUMPDEST POP PUSH2 0x24CD DUP2 DUP13 DUP2 MLOAD DUP2 LT PUSH2 0x24BF JUMPI PUSH2 0x24BF PUSH2 0x3AE0 JUMP JUMPDEST PUSH1 0x20 MUL PUSH1 0x20 ADD ADD MLOAD DUP12 PUSH2 0x21CD JUMP JUMPDEST DUP2 DUP13 DUP2 MLOAD DUP2 LT PUSH2 0x24DF JUMPI PUSH2 0x24DF PUSH2 0x3AE0 JUMP JUMPDEST PUSH1 0x20 MUL PUSH1 0x20 ADD ADD SWAP1 PUSH1 0xF SIGNEXTEND SWAP1 DUP2 PUSH1 0xF SIGNEXTEND DUP2 MSTORE POP POP PUSH2 0x24FD DUP10 DUP12 PUSH2 0x21CD JUMP JUMPDEST SWAP3 POP PUSH2 0x2509 DUP4 DUP10 PUSH2 0x20A8 JUMP JUMPDEST SWAP2 POP PUSH0 DUP1 JUMPDEST DUP8 DUP2 LT ISZERO PUSH2 0x254A JUMPI PUSH2 0x2540 DUP3 PUSH2 0x689 PUSH2 0x684 DUP7 DUP6 DUP2 MLOAD DUP2 LT PUSH2 0x2532 JUMPI PUSH2 0x2532 PUSH2 0x3AE0 JUMP JUMPDEST PUSH1 0x20 MUL PUSH1 0x20 ADD ADD MLOAD DUP9 PUSH2 0x211B JUMP JUMPDEST SWAP2 POP PUSH1 0x1 ADD PUSH2 0x250E JUMP JUMPDEST POP PUSH2 0x2558 DUP4 PUSH2 0x6AC DUP4 PUSH2 0x2207 JUMP JUMPDEST SWAP6 POP PUSH2 0x2564 DUP7 DUP10 PUSH2 0x23D4 JUMP JUMPDEST SWAP5 POP POP POP SWAP8 POP SWAP8 POP SWAP8 POP SWAP8 SWAP4 POP POP POP POP JUMP JUMPDEST PUSH1 0x8 SLOAD PUSH0 SWAP1 PUSH2 0x258E SWAP1 PUSH1 0x1 PUSH1 0x1 PUSH1 0xA0 SHL SUB AND DUP4 PUSH2 0x47D JUMP JUMPDEST PUSH1 0x7 SLOAD PUSH1 0x8 SLOAD PUSH1 0x6 SLOAD PUSH1 0x40 MLOAD PUSH4 0x856296F7 PUSH1 0xE0 SHL DUP2 MSTORE PUSH0 PUSH1 0x4 DUP3 ADD DUP2 SWAP1 MSTORE PUSH1 0x24 DUP3 ADD SWAP3 SWAP1 SWAP3 MSTORE PUSH1 0x1 DUP9 SHL PUSH1 0x44 DUP3 ADD MSTORE SWAP4 SWAP5 POP SWAP3 PUSH1 0x1 PUSH1 0x1 PUSH1 0xA0 SHL SUB SWAP3 DUP4 AND SWAP3 PUSH4 0x39DD7530 SWAP3 AND SWAP1 DUP4 SWAP1 PUSH4 0x856296F7 SWAP1 PUSH1 0x64 ADD PUSH1 0x20 PUSH1 0x40 MLOAD DUP1 DUP4 SUB DUP2 DUP7 GAS STATICCALL ISZERO DUP1 ISZERO PUSH2 0x25FB JUMPI RETURNDATASIZE PUSH0 DUP1 RETURNDATACOPY RETURNDATASIZE PUSH0 REVERT JUMPDEST POP POP POP POP PUSH1 0x40 MLOAD RETURNDATASIZE PUSH1 0x1F NOT PUSH1 0x1F DUP3 ADD AND DUP3 ADD DUP1 PUSH1 0x40 MSTORE POP DUP2 ADD SWAP1 PUSH2 0x261F SWAP2 SWAP1 PUSH2 0x3AF4 JUMP JUMPDEST PUSH1 0x40 MLOAD PUSH1 0x1 PUSH1 0x1 PUSH1 0xE0 SHL SUB NOT PUSH1 0xE0 DUP6 SWAP1 SHL AND DUP2 MSTORE PUSH1 0x1 PUSH1 0x1 PUSH1 0xA0 SHL SUB SWAP1 SWAP3 AND PUSH1 0x4 DUP4 ADD MSTORE PUSH1 0x24 DUP3 ADD MSTORE PUSH1 0x44 ADD PUSH1 0x20 PUSH1 0x40 MLOAD DUP1 DUP4 SUB DUP2 DUP7 GAS STATICCALL ISZERO DUP1 ISZERO PUSH2 0x2666 JUMPI RETURNDATASIZE PUSH0 DUP1 RETURNDATACOPY RETURNDATASIZE PUSH0 REVERT JUMPDEST POP POP POP POP PUSH1 0x40 MLOAD RETURNDATASIZE PUSH1 0x1F NOT PUSH1 0x1F DUP3 ADD AND DUP3 ADD DUP1 PUSH1 0x40 MSTORE POP DUP2 ADD SWAP1 PUSH2 0x268A SWAP2 SWAP1 PUSH2 0x3AF4 JUMP JUMPDEST PUSH1 0x7 SLOAD PUSH1 0x40 MLOAD PUSH3 0x7EEAC7 PUSH1 0xE1 SHL DUP2 MSTORE ADDRESS PUSH1 0x4 DUP3 ADD MSTORE PUSH1 0x24 DUP2 ADD DUP4 SWAP1 MSTORE SWAP2 SWAP3 POP DUP4 SWAP2 PUSH1 0x1 PUSH1 0x1 PUSH1 0xA0 SHL SUB SWAP1 SWAP2 AND SWAP1 PUSH3 0xFDD58E SWAP1 PUSH1 0x44 ADD PUSH1 0x20 PUSH1 0x40 MLOAD DUP1 DUP4 SUB DUP2 DUP7 GAS STATICCALL ISZERO DUP1 ISZERO PUSH2 0x26DA JUMPI RETURNDATASIZE PUSH0 DUP1 RETURNDATACOPY RETURNDATASIZE PUSH0 REVERT JUMPDEST POP POP POP POP PUSH1 0x40 MLOAD RETURNDATASIZE PUSH1 0x1F NOT PUSH1 0x1F DUP3 ADD AND DUP3 ADD DUP1 PUSH1 0x40 MSTORE POP DUP2 ADD SWAP1 PUSH2 0x26FE SWAP2 SWAP1 PUSH2 0x3AF4 JUMP JUMPDEST LT ISZERO PUSH2 0x280B JUMPI PUSH1 0x8 SLOAD PUSH1 0x7 SLOAD PUSH1 0x1 PUSH1 0x1 PUSH1 0xA0 SHL SUB SWAP2 DUP3 AND SWAP2 PUSH4 0x95EA7B3 SWAP2 AND PUSH2 0x2727 DUP4 DUP8 PUSH2 0x47D JUMP JUMPDEST PUSH1 0x40 MLOAD PUSH1 0x1 PUSH1 0x1 PUSH1 0xE0 SHL SUB NOT PUSH1 0xE0 DUP6 SWAP1 SHL AND DUP2 MSTORE PUSH1 0x1 PUSH1 0x1 PUSH1 0xA0 SHL SUB SWAP1 SWAP3 AND PUSH1 0x4 DUP4 ADD MSTORE PUSH1 0x24 DUP3 ADD MSTORE PUSH1 0x44 ADD PUSH1 0x20 PUSH1 0x40 MLOAD DUP1 DUP4 SUB DUP2 PUSH0 DUP8 GAS CALL ISZERO DUP1 ISZERO PUSH2 0x276F JUMPI RETURNDATASIZE PUSH0 DUP1 RETURNDATACOPY RETURNDATASIZE PUSH0 REVERT JUMPDEST POP POP POP POP PUSH1 0x40 MLOAD RETURNDATASIZE PUSH1 0x1F NOT PUSH1 0x1F DUP3 ADD AND DUP3 ADD DUP1 PUSH1 0x40 MSTORE POP DUP2 ADD SWAP1 PUSH2 0x2793 SWAP2 SWAP1 PUSH2 0x3BDD JUMP JUMPDEST POP PUSH1 0x7 SLOAD PUSH1 0x8 SLOAD PUSH1 0x6 SLOAD PUSH1 0x1 PUSH1 0x1 PUSH1 0xA0 SHL SUB SWAP3 DUP4 AND SWAP3 PUSH4 0x72CE4275 SWAP3 AND SWAP1 PUSH0 SWAP1 PUSH2 0x27BC DUP10 PUSH2 0x1071 JUMP JUMPDEST DUP8 PUSH1 0x40 MLOAD DUP7 PUSH4 0xFFFFFFFF AND PUSH1 0xE0 SHL DUP2 MSTORE PUSH1 0x4 ADD PUSH2 0x27DD SWAP6 SWAP5 SWAP4 SWAP3 SWAP2 SWAP1 PUSH2 0x3C10 JUMP JUMPDEST PUSH0 PUSH1 0x40 MLOAD DUP1 DUP4 SUB DUP2 PUSH0 DUP8 DUP1 EXTCODESIZE ISZERO DUP1 ISZERO PUSH2 0x27F4 JUMPI PUSH0 DUP1 REVERT JUMPDEST POP GAS CALL ISZERO DUP1 ISZERO PUSH2 0x2806 JUMPI RETURNDATASIZE PUSH0 DUP1 RETURNDATACOPY RETURNDATASIZE PUSH0 REVERT JUMPDEST POP POP POP POP JUMPDEST PUSH1 0x7 SLOAD PUSH1 0x40 MLOAD PUSH4 0x79212195 PUSH1 0xE1 SHL DUP2 MSTORE ADDRESS PUSH1 0x4 DUP3 ADD MSTORE CALLER PUSH1 0x24 DUP3 ADD MSTORE PUSH1 0x44 DUP2 ADD DUP4 SWAP1 MSTORE PUSH1 0x64 DUP2 ADD DUP5 SWAP1 MSTORE PUSH1 0xA0 PUSH1 0x84 DUP3 ADD MSTORE PUSH0 PUSH1 0xA4 DUP3 ADD MSTORE PUSH1 0x1 PUSH1 0x1 PUSH1 0xA0 SHL SUB SWAP1 SWAP2 AND SWAP1 PUSH4 0xF242432A SWAP1 PUSH1 0xC4 ADD PUSH0 PUSH1 0x40 MLOAD DUP1 DUP4 SUB DUP2 PUSH0 DUP8 DUP1 EXTCODESIZE ISZERO DUP1 ISZERO PUSH2 0x286E JUMPI PUSH0 DUP1 REVERT JUMPDEST POP GAS CALL ISZERO DUP1 ISZERO PUSH2 0x2880 JUMPI RETURNDATASIZE PUSH0 DUP1 RETURNDATACOPY RETURNDATASIZE PUSH0 REVERT JUMPDEST POP POP POP POP POP POP POP POP JUMP JUMPDEST PUSH0 DUP2 PUSH0 SUB PUSH2 0x2896 JUMPI PUSH0 DUP1 REVERT JUMPDEST PUSH0 PUSH24 0xFFFFFFFFFFFFFFFFFFFFFFFFFFFFFFFFFFFFFFFFFFFFFFFF DUP5 GT PUSH2 0x28D1 JUMPI DUP3 PUSH1 0x40 DUP6 SWAP1 SHL DUP2 PUSH2 0x28C9 JUMPI PUSH2 0x28C9 PUSH2 0x3BFC JUMP JUMPDEST DIV SWAP1 POP PUSH2 0x29E7 JUMP JUMPDEST PUSH1 0xC0 DUP5 DUP2 SHR PUSH5 0x100000000 DUP2 LT PUSH2 0x28EA JUMPI PUSH1 0x20 SWAP2 DUP3 ADD SWAP2 SHR JUMPDEST PUSH3 0x10000 DUP2 LT PUSH2 0x28FC JUMPI PUSH1 0x10 SWAP2 DUP3 ADD SWAP2 SHR JUMPDEST PUSH2 0x100 DUP2 LT PUSH2 0x290D JUMPI PUSH1 0x8 SWAP2 DUP3 ADD SWAP2 SHR JUMPDEST PUSH1 0x10 DUP2 LT PUSH2 0x291D JUMPI PUSH1 0x4 SWAP2 DUP3 ADD SWAP2 SHR JUMPDEST PUSH1 0x4 DUP2 LT PUSH2 0x292D JUMPI PUSH1 0x2 SWAP2 DUP3 ADD SWAP2 SHR JUMPDEST PUSH1 0x2 DUP2 LT PUSH2 0x293C JUMPI PUSH1 0x1 DUP3 ADD SWAP2 POP JUMPDEST PUSH1 0xBF DUP3 SUB PUSH1 0x1 DUP7 SUB SWAP1 SHR PUSH1 0x1 ADD DUP3 PUSH1 0xFF SUB DUP8 SWAP1 SHL DUP2 PUSH2 0x295D JUMPI PUSH2 0x295D PUSH2 0x3BFC JUMP JUMPDEST DIV SWAP3 POP PUSH1 0x1 PUSH1 0x1 PUSH1 0x80 SHL SUB DUP4 GT ISZERO PUSH2 0x2973 JUMPI PUSH0 DUP1 REVERT JUMPDEST PUSH1 0x80 DUP6 SWAP1 SHR DUP4 MUL PUSH1 0x1 PUSH1 0x1 PUSH1 0x80 SHL SUB DUP7 AND DUP5 MUL PUSH1 0xC0 DUP9 SWAP1 SHR PUSH1 0x40 DUP10 SWAP1 SHL DUP3 DUP2 LT ISZERO PUSH2 0x299F JUMPI PUSH1 0x1 DUP3 SUB SWAP2 POP JUMPDEST PUSH1 0x80 DUP5 SWAP1 SHL SWAP3 SWAP1 SUB DUP3 DUP2 LT ISZERO PUSH2 0x29B6 JUMPI PUSH1 0x1 DUP3 SUB SWAP2 POP JUMPDEST DUP3 SWAP1 SUB PUSH1 0x80 DUP5 SWAP1 SHR DUP3 EQ PUSH2 0x29CB JUMPI PUSH1 0x1 PUSH2 0x29DC JUMP JUMPDEST DUP9 DUP2 DUP2 PUSH2 0x29DA JUMPI PUSH2 0x29DA PUSH2 0x3BFC JUMP JUMPDEST DIV JUMPDEST DUP8 ADD SWAP7 POP POP POP POP POP POP POP JUMPDEST PUSH1 0x1 PUSH1 0x1 PUSH1 0x80 SHL SUB DUP2 GT ISZERO PUSH2 0xDE6 JUMPI PUSH0 DUP1 REVERT JUMPDEST PUSH0 PUSH9 0x400000000000000000 DUP3 PUSH1 0xF SIGNEXTEND SLT PUSH2 0x2A12 JUMPI PUSH0 DUP1 REVERT JUMPDEST PUSH9 0x3FFFFFFFFFFFFFFFFF NOT DUP3 PUSH1 0xF SIGNEXTEND SLT ISZERO PUSH2 0x2A2E JUMPI POP PUSH0 SWAP2 SWAP1 POP JUMP JUMPDEST PUSH16 0x80000000000000000000000000000000 PUSH0 PUSH8 0x8000000000000000 DUP5 AND PUSH1 0xF SIGNEXTEND SGT ISZERO PUSH2 0x2A6B JUMPI PUSH17 0x16A09E667F3BCC908B2FB1366EA957D3E MUL PUSH1 0x80 SHR JUMPDEST PUSH0 DUP4 PUSH8 0x4000000000000000 AND PUSH1 0xF SIGNEXTEND SGT ISZERO PUSH2 0x2A97 JUMPI PUSH17 0x1306FE0A31B7152DE8D5A46305C85EDEC MUL PUSH1 0x80 SHR JUMPDEST PUSH0 DUP4 PUSH8 0x2000000000000000 AND PUSH1 0xF SIGNEXTEND SGT ISZERO PUSH2 0x2AC3 JUMPI PUSH17 0x1172B83C7D517ADCDF7C8C50EB14A791F MUL PUSH1 0x80 SHR JUMPDEST PUSH0 DUP4 PUSH8 0x1000000000000000 AND PUSH1 0xF SIGNEXTEND SGT ISZERO PUSH2 0x2AEF JUMPI PUSH17 0x10B5586CF9890F6298B92B71842A98363 MUL PUSH1 0x80 SHR JUMPDEST PUSH0 DUP4 PUSH8 0x800000000000000 AND PUSH1 0xF SIGNEXTEND SGT ISZERO PUSH2 0x2B1B JUMPI PUSH17 0x1059B0D31585743AE7C548EB68CA417FD MUL PUSH1 0x80 SHR JUMPDEST PUSH0 DUP4 PUSH8 0x400000000000000 AND PUSH1 0xF SIGNEXTEND SGT ISZERO PUSH2 0x2B47 JUMPI PUSH17 0x102C9A3E778060EE6F7CACA4F7A29BDE8 MUL PUSH1 0x80 SHR JUMPDEST PUSH0 DUP4 PUSH8 0x200000000000000 AND PUSH1 0xF SIGNEXTEND SGT ISZERO PUSH2 0x2B73 JUMPI PUSH17 0x10163DA9FB33356D84A66AE336DCDFA3F MUL PUSH1 0x80 SHR JUMPDEST PUSH0 DUP4 PUSH8 0x100000000000000 AND PUSH1 0xF SIGNEXTEND SGT ISZERO PUSH2 0x2B9F JUMPI PUSH17 0x100B1AFA5ABCBED6129AB13EC11DC9543 MUL PUSH1 0x80 SHR JUMPDEST PUSH0 DUP4 PUSH7 0x80000000000000 AND PUSH1 0xF SIGNEXTEND SGT ISZERO PUSH2 0x2BCA JUMPI PUSH17 0x10058C86DA1C09EA1FF19D294CF2F679B MUL PUSH1 0x80 SHR JUMPDEST PUSH0 DUP4 PUSH7 0x40000000000000 AND PUSH1 0xF SIGNEXTEND SGT ISZERO PUSH2 0x2BF5 JUMPI PUSH17 0x1002C605E2E8CEC506D21BFC89A23A00F MUL PUSH1 0x80 SHR JUMPDEST PUSH0 DUP4 PUSH7 0x20000000000000 AND PUSH1 0xF SIGNEXTEND SGT ISZERO PUSH2 0x2C20 JUMPI PUSH17 0x100162F3904051FA128BCA9C55C31E5DF MUL PUSH1 0x80 SHR JUMPDEST PUSH0 DUP4 PUSH7 0x10000000000000 AND PUSH1 0xF SIGNEXTEND SGT ISZERO PUSH2 0x2C4B JUMPI PUSH17 0x1000B175EFFDC76BA38E31671CA939725 MUL PUSH1 0x80 SHR JUMPDEST PUSH0 DUP4 PUSH7 0x8000000000000 AND PUSH1 0xF SIGNEXTEND SGT ISZERO PUSH2 0x2C76 JUMPI PUSH17 0x100058BA01FB9F96D6CACD4B180917C3D MUL PUSH1 0x80 SHR JUMPDEST PUSH0 DUP4 PUSH7 0x4000000000000 AND PUSH1 0xF SIGNEXTEND SGT ISZERO PUSH2 0x2CA1 JUMPI PUSH17 0x10002C5CC37DA9491D0985C348C68E7B3 MUL PUSH1 0x80 SHR JUMPDEST PUSH0 DUP4 PUSH7 0x2000000000000 AND PUSH1 0xF SIGNEXTEND SGT ISZERO PUSH2 0x2CCC JUMPI PUSH17 0x1000162E525EE054754457D5995292026 MUL PUSH1 0x80 SHR JUMPDEST PUSH0 DUP4 PUSH7 0x1000000000000 AND PUSH1 0xF SIGNEXTEND SGT ISZERO PUSH2 0x2CF7 JUMPI PUSH17 0x10000B17255775C040618BF4A4ADE83FC MUL PUSH1 0x80 SHR JUMPDEST PUSH0 DUP4 PUSH6 0x800000000000 AND PUSH1 0xF SIGNEXTEND SGT ISZERO PUSH2 0x2D21 JUMPI PUSH17 0x1000058B91B5BC9AE2EED81E9B7D4CFAB MUL PUSH1 0x80 SHR JUMPDEST PUSH0 DUP4 PUSH6 0x400000000000 AND PUSH1 0xF SIGNEXTEND SGT ISZERO PUSH2 0x2D4B JUMPI PUSH17 0x100002C5C89D5EC6CA4D7C8ACC017B7C9 MUL PUSH1 0x80 SHR JUMPDEST PUSH0 DUP4 PUSH6 0x200000000000 AND PUSH1 0xF SIGNEXTEND SGT ISZERO PUSH2 0x2D75 JUMPI PUSH17 0x10000162E43F4F831060E02D839A9D16D MUL PUSH1 0x80 SHR JUMPDEST PUSH0 DUP4 PUSH6 0x100000000000 AND PUSH1 0xF SIGNEXTEND SGT ISZERO PUSH2 0x2D9F JUMPI PUSH17 0x100000B1721BCFC99D9F890EA06911763 MUL PUSH1 0x80 SHR JUMPDEST PUSH0 DUP4 PUSH6 0x80000000000 AND PUSH1 0xF SIGNEXTEND SGT ISZERO PUSH2 0x2DC9 JUMPI PUSH17 0x10000058B90CF1E6D97F9CA14DBCC1628 MUL PUSH1 0x80 SHR JUMPDEST PUSH0 DUP4 PUSH6 0x40000000000 AND PUSH1 0xF SIGNEXTEND SGT ISZERO PUSH2 0x2DF3 JUMPI PUSH17 0x1000002C5C863B73F016468F6BAC5CA2B MUL PUSH1 0x80 SHR JUMPDEST PUSH0 DUP4 PUSH6 0x20000000000 AND PUSH1 0xF SIGNEXTEND SGT ISZERO PUSH2 0x2E1D JUMPI PUSH17 0x100000162E430E5A18F6119E3C02282A5 MUL PUSH1 0x80 SHR JUMPDEST PUSH0 DUP4 PUSH6 0x10000000000 AND PUSH1 0xF SIGNEXTEND SGT ISZERO PUSH2 0x2E47 JUMPI PUSH17 0x1000000B1721835514B86E6D96EFD1BFE MUL PUSH1 0x80 SHR JUMPDEST PUSH0 DUP4 PUSH5 0x8000000000 AND PUSH1 0xF SIGNEXTEND SGT ISZERO PUSH2 0x2E70 JUMPI PUSH17 0x100000058B90C0B48C6BE5DF846C5B2EF MUL PUSH1 0x80 SHR JUMPDEST PUSH0 DUP4 PUSH5 0x4000000000 AND PUSH1 0xF SIGNEXTEND SGT ISZERO PUSH2 0x2E99 JUMPI PUSH17 0x10000002C5C8601CC6B9E94213C72737A MUL PUSH1 0x80 SHR JUMPDEST PUSH0 DUP4 PUSH5 0x2000000000 AND PUSH1 0xF SIGNEXTEND SGT ISZERO PUSH2 0x2EC2 JUMPI PUSH17 0x1000000162E42FFF037DF38AA2B219F06 MUL PUSH1 0x80 SHR JUMPDEST PUSH0 DUP4 PUSH5 0x1000000000 AND PUSH1 0xF SIGNEXTEND SGT ISZERO PUSH2 0x2EEB JUMPI PUSH17 0x10000000B17217FBA9C739AA5819F44F9 MUL PUSH1 0x80 SHR JUMPDEST PUSH0 DUP4 PUSH5 0x800000000 AND PUSH1 0xF SIGNEXTEND SGT ISZERO PUSH2 0x2F14 JUMPI PUSH17 0x1000000058B90BFCDEE5ACD3C1CEDC823 MUL PUSH1 0x80 SHR JUMPDEST PUSH0 DUP4 PUSH5 0x400000000 AND PUSH1 0xF SIGNEXTEND SGT ISZERO PUSH2 0x2F3D JUMPI PUSH17 0x100000002C5C85FE31F35A6A30DA1BE50 MUL PUSH1 0x80 SHR JUMPDEST PUSH0 DUP4 PUSH5 0x200000000 AND PUSH1 0xF SIGNEXTEND SGT ISZERO PUSH2 0x2F66 JUMPI PUSH17 0x10000000162E42FF0999CE3541B9FFFCF MUL PUSH1 0x80 SHR JUMPDEST PUSH0 DUP4 PUSH5 0x100000000 AND PUSH1 0xF SIGNEXTEND SGT ISZERO PUSH2 0x2F8F JUMPI PUSH17 0x100000000B17217F80F4EF5AADDA45554 MUL PUSH1 0x80 SHR JUMPDEST PUSH0 DUP4 PUSH4 0x80000000 AND PUSH1 0xF SIGNEXTEND SGT ISZERO PUSH2 0x2FB7 JUMPI PUSH17 0x10000000058B90BFBF8479BD5A81B51AD MUL PUSH1 0x80 SHR JUMPDEST PUSH0 DUP4 PUSH4 0x40000000 AND PUSH1 0xF SIGNEXTEND SGT ISZERO PUSH2 0x2FDF JUMPI PUSH17 0x1000000002C5C85FDF84BD62AE30A74CC MUL PUSH1 0x80 SHR JUMPDEST PUSH0 DUP4 PUSH4 0x20000000 AND PUSH1 0xF SIGNEXTEND SGT ISZERO PUSH2 0x3007 JUMPI PUSH17 0x100000000162E42FEFB2FED257559BDAA MUL PUSH1 0x80 SHR JUMPDEST PUSH0 DUP4 PUSH4 0x10000000 AND PUSH1 0xF SIGNEXTEND SGT ISZERO PUSH2 0x302F JUMPI PUSH17 0x1000000000B17217F7D5A7716BBA4A9AE MUL PUSH1 0x80 SHR JUMPDEST PUSH0 DUP4 PUSH4 0x8000000 AND PUSH1 0xF SIGNEXTEND SGT ISZERO PUSH2 0x3057 JUMPI PUSH17 0x100000000058B90BFBE9DDBAC5E109CCE MUL PUSH1 0x80 SHR JUMPDEST PUSH0 DUP4 PUSH4 0x4000000 AND PUSH1 0xF SIGNEXTEND SGT ISZERO PUSH2 0x307F JUMPI PUSH17 0x10000000002C5C85FDF4B15DE6F17EB0D MUL PUSH1 0x80 SHR JUMPDEST PUSH0 DUP4 PUSH4 0x2000000 AND PUSH1 0xF SIGNEXTEND SGT ISZERO PUSH2 0x30A7 JUMPI PUSH17 0x1000000000162E42FEFA494F1478FDE05 MUL PUSH1 0x80 SHR JUMPDEST PUSH0 DUP4 PUSH4 0x1000000 AND PUSH1 0xF SIGNEXTEND SGT ISZERO PUSH2 0x30CF JUMPI PUSH17 0x10000000000B17217F7D20CF927C8E94C MUL PUSH1 0x80 SHR JUMPDEST PUSH0 DUP4 PUSH3 0x800000 AND PUSH1 0xF SIGNEXTEND SGT ISZERO PUSH2 0x30F6 JUMPI PUSH17 0x1000000000058B90BFBE8F71CB4E4B33D MUL PUSH1 0x80 SHR JUMPDEST PUSH0 DUP4 PUSH3 0x400000 AND PUSH1 0xF SIGNEXTEND SGT ISZERO PUSH2 0x311D JUMPI PUSH17 0x100000000002C5C85FDF477B662B26945 MUL PUSH1 0x80 SHR JUMPDEST PUSH0 DUP4 PUSH3 0x200000 AND PUSH1 0xF SIGNEXTEND SGT ISZERO PUSH2 0x3144 JUMPI PUSH17 0x10000000000162E42FEFA3AE53369388C MUL PUSH1 0x80 SHR JUMPDEST PUSH0 DUP4 PUSH3 0x100000 AND PUSH1 0xF SIGNEXTEND SGT ISZERO PUSH2 0x316B JUMPI PUSH17 0x100000000000B17217F7D1D351A389D40 MUL PUSH1 0x80 SHR JUMPDEST PUSH0 DUP4 PUSH3 0x80000 AND PUSH1 0xF SIGNEXTEND SGT ISZERO PUSH2 0x3192 JUMPI PUSH17 0x10000000000058B90BFBE8E8B2D3D4EDE MUL PUSH1 0x80 SHR JUMPDEST PUSH0 DUP4 PUSH3 0x40000 AND PUSH1 0xF SIGNEXTEND SGT ISZERO PUSH2 0x31B9 JUMPI PUSH17 0x1000000000002C5C85FDF4741BEA6E77E MUL PUSH1 0x80 SHR JUMPDEST PUSH0 DUP4 PUSH3 0x20000 AND PUSH1 0xF SIGNEXTEND SGT ISZERO PUSH2 0x31E0 JUMPI PUSH17 0x100000000000162E42FEFA39FE95583C2 MUL PUSH1 0x80 SHR JUMPDEST PUSH0 DUP4 PUSH3 0x10000 AND PUSH1 0xF SIGNEXTEND SGT ISZERO PUSH2 0x3207 JUMPI PUSH17 0x1000000000000B17217F7D1CFB72B45E1 MUL PUSH1 0x80 SHR JUMPDEST PUSH0 DUP4 PUSH2 0x8000 AND PUSH1 0xF SIGNEXTEND SGT ISZERO PUSH2 0x322D JUMPI PUSH17 0x100000000000058B90BFBE8E7CC35C3F0 MUL PUSH1 0x80 SHR JUMPDEST PUSH0 DUP4 PUSH2 0x4000 AND PUSH1 0xF SIGNEXTEND SGT ISZERO PUSH2 0x3253 JUMPI PUSH17 0x10000000000002C5C85FDF473E242EA38 MUL PUSH1 0x80 SHR JUMPDEST PUSH0 DUP4 PUSH2 0x2000 AND PUSH1 0xF SIGNEXTEND SGT ISZERO PUSH2 0x3279 JUMPI PUSH17 0x1000000000000162E42FEFA39F02B772C MUL PUSH1 0x80 SHR JUMPDEST PUSH0 DUP4 PUSH2 0x1000 AND PUSH1 0xF SIGNEXTEND SGT ISZERO PUSH2 0x329F JUMPI PUSH17 0x10000000000000B17217F7D1CF7D83C1A MUL PUSH1 0x80 SHR JUMPDEST PUSH0 DUP4 PUSH2 0x800 AND PUSH1 0xF SIGNEXTEND SGT ISZERO PUSH2 0x32C5 JUMPI PUSH17 0x1000000000000058B90BFBE8E7BDCBE2E MUL PUSH1 0x80 SHR JUMPDEST PUSH0 DUP4 PUSH2 0x400 AND PUSH1 0xF SIGNEXTEND SGT ISZERO PUSH2 0x32EB JUMPI PUSH17 0x100000000000002C5C85FDF473DEA871F MUL PUSH1 0x80 SHR JUMPDEST PUSH0 DUP4 PUSH2 0x200 AND PUSH1 0xF SIGNEXTEND SGT ISZERO PUSH2 0x3311 JUMPI PUSH17 0x10000000000000162E42FEFA39EF44D91 MUL PUSH1 0x80 SHR JUMPDEST PUSH0 DUP4 PUSH2 0x100 AND PUSH1 0xF SIGNEXTEND SGT ISZERO PUSH2 0x3337 JUMPI PUSH17 0x100000000000000B17217F7D1CF79E949 MUL PUSH1 0x80 SHR JUMPDEST PUSH0 DUP4 PUSH1 0x80 AND PUSH1 0xF SIGNEXTEND SGT ISZERO PUSH2 0x335C JUMPI PUSH17 0x10000000000000058B90BFBE8E7BCE544 MUL PUSH1 0x80 SHR JUMPDEST PUSH0 DUP4 PUSH1 0x40 AND PUSH1 0xF SIGNEXTEND SGT ISZERO PUSH2 0x3381 JUMPI PUSH17 0x1000000000000002C5C85FDF473DE6ECA MUL PUSH1 0x80 SHR JUMPDEST PUSH0 DUP4 PUSH1 0x20 AND PUSH1 0xF SIGNEXTEND SGT ISZERO PUSH2 0x33A6 JUMPI PUSH17 0x100000000000000162E42FEFA39EF366F MUL PUSH1 0x80 SHR JUMPDEST PUSH0 DUP4 PUSH1 0x10 AND PUSH1 0xF SIGNEXTEND SGT ISZERO PUSH2 0x33CB JUMPI PUSH17 0x1000000000000000B17217F7D1CF79AFA MUL PUSH1 0x80 SHR JUMPDEST PUSH0 DUP4 PUSH1 0x8 AND PUSH1 0xF SIGNEXTEND SGT ISZERO PUSH2 0x33F0 JUMPI PUSH17 0x100000000000000058B90BFBE8E7BCD6D MUL PUSH1 0x80 SHR JUMPDEST PUSH0 DUP4 PUSH1 0x4 AND PUSH1 0xF SIGNEXTEND SGT ISZERO PUSH2 0x3415 JUMPI PUSH17 0x10000000000000002C5C85FDF473DE6B2 MUL PUSH1 0x80 SHR JUMPDEST PUSH0 DUP4 PUSH1 0x2 AND PUSH1 0xF SIGNEXTEND SGT ISZERO PUSH2 0x343A JUMPI PUSH17 0x1000000000000000162E42FEFA39EF358 MUL PUSH1 0x80 SHR JUMPDEST PUSH0 DUP4 PUSH1 0x1 AND PUSH1 0xF SIGNEXTEND SGT ISZERO PUSH2 0x345F JUMPI PUSH17 0x10000000000000000B17217F7D1CF79AB MUL PUSH1 0x80 SHR JUMPDEST PUSH1 0xF DUP4 DUP2 SIGNEXTEND PUSH1 0x40 SAR PUSH1 0x3F SUB SWAP1 SIGNEXTEND SHR PUSH1 0x1 PUSH1 0x1 PUSH1 0x7F SHL SUB DUP2 GT ISZERO PUSH2 0x588 JUMPI PUSH0 DUP1 REVERT JUMPDEST PUSH0 DUP1 DUP3 PUSH1 0xF SIGNEXTEND SGT PUSH2 0x348F JUMPI PUSH0 DUP1 REVERT JUMPDEST PUSH0 PUSH1 0xF DUP4 SWAP1 SIGNEXTEND PUSH9 0x10000000000000000 DUP2 SLT PUSH2 0x34AD JUMPI PUSH1 0x40 SWAP2 DUP3 ADD SWAP2 SAR JUMPDEST PUSH5 0x100000000 DUP2 SLT PUSH2 0x34C1 JUMPI PUSH1 0x20 SWAP2 DUP3 ADD SWAP2 SAR JUMPDEST PUSH3 0x10000 DUP2 SLT PUSH2 0x34D3 JUMPI PUSH1 0x10 SWAP2 DUP3 ADD SWAP2 SAR JUMPDEST PUSH2 0x100 DUP2 SLT PUSH2 0x34E4 JUMPI PUSH1 0x8 SWAP2 DUP3 ADD SWAP2 SAR JUMPDEST PUSH1 0x10 DUP2 SLT PUSH2 0x34F4 JUMPI PUSH1 0x4 SWAP2 DUP3 ADD SWAP2 SAR JUMPDEST PUSH1 0x4 DUP2 SLT PUSH2 0x3504 JUMPI PUSH1 0x2 SWAP2 DUP3 ADD SWAP2 SAR JUMPDEST PUSH1 0x2 DUP2 SLT PUSH2 0x3513 JUMPI PUSH1 0x1 DUP3 ADD SWAP2 POP JUMPDEST PUSH1 0x3F NOT DUP3 ADD PUSH1 0x40 SHL PUSH1 0xF DUP6 SWAP1 SIGNEXTEND PUSH1 0x7F DUP5 SWAP1 SUB SHL PUSH8 0x8000000000000000 JUMPDEST PUSH0 DUP2 SGT ISZERO PUSH2 0x115E JUMPI SWAP1 DUP1 MUL PUSH1 0xFF DUP2 SWAP1 SHR DUP3 DUP2 MUL SWAP4 SWAP1 SWAP4 ADD SWAP3 PUSH1 0x7F ADD SHR SWAP1 PUSH1 0x1 SAR PUSH2 0x3530 JUMP JUMPDEST PUSH0 DUP1 PUSH1 0x20 PUSH0 DUP5 MLOAD PUSH1 0x20 DUP7 ADD PUSH0 DUP9 GAS CALL DUP1 PUSH2 0x3574 JUMPI PUSH1 0x40 MLOAD RETURNDATASIZE PUSH0 DUP3 RETURNDATACOPY RETURNDATASIZE DUP2 REVERT JUMPDEST POP POP PUSH0 MLOAD RETURNDATASIZE SWAP2 POP DUP2 ISZERO PUSH2 0x358B JUMPI DUP1 PUSH1 0x1 EQ ISZERO PUSH2 0x3598 JUMP JUMPDEST PUSH1 0x1 PUSH1 0x1 PUSH1 0xA0 SHL SUB DUP5 AND EXTCODESIZE ISZERO JUMPDEST ISZERO PUSH2 0x231D JUMPI PUSH1 0x40 MLOAD PUSH4 0x5274AFE7 PUSH1 0xE0 SHL DUP2 MSTORE PUSH1 0x1 PUSH1 0x1 PUSH1 0xA0 SHL SUB DUP6 AND PUSH1 0x4 DUP3 ADD MSTORE PUSH1 0x24 ADD PUSH2 0x541 JUMP JUMPDEST PUSH0 PUSH1 0x20 DUP3 DUP5 SUB SLT ISZERO PUSH2 0x35D1 JUMPI PUSH0 DUP1 REVERT JUMPDEST DUP2 CALLDATALOAD PUSH1 0x1 PUSH1 0x1 PUSH1 0xE0 SHL SUB NOT DUP2 AND DUP2 EQ PUSH2 0xDE6 JUMPI PUSH0 DUP1 REVERT JUMPDEST DUP1 CALLDATALOAD PUSH1 0x1 PUSH1 0x1 PUSH1 0xA0 SHL SUB DUP2 AND DUP2 EQ PUSH2 0x23CF JUMPI PUSH0 DUP1 REVERT JUMPDEST DUP1 CALLDATALOAD PUSH1 0xF DUP2 SWAP1 SIGNEXTEND DUP2 EQ PUSH2 0x23CF JUMPI PUSH0 DUP1 REVERT JUMPDEST PUSH0 DUP1 PUSH1 0x40 DUP4 DUP6 SUB SLT ISZERO PUSH2 0x3620 JUMPI PUSH0 DUP1 REVERT JUMPDEST PUSH2 0x3629 DUP4 PUSH2 0x35E8 JUMP JUMPDEST SWAP2 POP PUSH2 0x3637 PUSH1 0x20 DUP5 ADD PUSH2 0x35FE JUMP JUMPDEST SWAP1 POP SWAP3 POP SWAP3 SWAP1 POP JUMP JUMPDEST PUSH0 DUP1 PUSH1 0x40 DUP4 DUP6 SUB SLT ISZERO PUSH2 0x3651 JUMPI PUSH0 DUP1 REVERT JUMPDEST PUSH2 0x365A DUP4 PUSH2 0x35E8 JUMP JUMPDEST SWAP5 PUSH1 0x20 SWAP4 SWAP1 SWAP4 ADD CALLDATALOAD SWAP4 POP POP POP JUMP JUMPDEST PUSH0 PUSH1 0x20 DUP3 DUP5 SUB SLT ISZERO PUSH2 0x3678 JUMPI PUSH0 DUP1 REVERT JUMPDEST POP CALLDATALOAD SWAP2 SWAP1 POP JUMP JUMPDEST PUSH4 0x4E487B71 PUSH1 0xE0 SHL PUSH0 MSTORE PUSH1 0x41 PUSH1 0x4 MSTORE PUSH1 0x24 PUSH0 REVERT JUMPDEST PUSH0 PUSH1 0x20 DUP3 DUP5 SUB SLT ISZERO PUSH2 0x36A3 JUMPI PUSH0 DUP1 REVERT JUMPDEST DUP2 CALLDATALOAD PUSH8 0xFFFFFFFFFFFFFFFF DUP1 DUP3 GT ISZERO PUSH2 0x36BA JUMPI PUSH0 DUP1 REVERT JUMPDEST DUP2 DUP5 ADD SWAP2 POP DUP5 PUSH1 0x1F DUP4 ADD SLT PUSH2 0x36CD JUMPI PUSH0 DUP1 REVERT JUMPDEST DUP2 CALLDATALOAD DUP2 DUP2 GT ISZERO PUSH2 0x36DF JUMPI PUSH2 0x36DF PUSH2 0x367F JUMP JUMPDEST PUSH1 0x40 MLOAD PUSH1 0x1F DUP3 ADD PUSH1 0x1F NOT SWAP1 DUP2 AND PUSH1 0x3F ADD AND DUP2 ADD SWAP1 DUP4 DUP3 GT DUP2 DUP4 LT OR ISZERO PUSH2 0x3707 JUMPI PUSH2 0x3707 PUSH2 0x367F JUMP JUMPDEST DUP2 PUSH1 0x40 MSTORE DUP3 DUP2 MSTORE DUP8 PUSH1 0x20 DUP5 DUP8 ADD ADD GT ISZERO PUSH2 0x371F JUMPI PUSH0 DUP1 REVERT JUMPDEST DUP3 PUSH1 0x20 DUP7 ADD PUSH1 0x20 DUP4 ADD CALLDATACOPY PUSH0 SWAP3 DUP2 ADD PUSH1 0x20 ADD SWAP3 SWAP1 SWAP3 MSTORE POP SWAP6 SWAP5 POP POP POP POP POP JUMP JUMPDEST PUSH0 DUP1 PUSH1 0x40 DUP4 DUP6 SUB SLT ISZERO PUSH2 0x374F JUMPI PUSH0 DUP1 REVERT JUMPDEST DUP3 CALLDATALOAD SWAP2 POP PUSH2 0x3637 PUSH1 0x20 DUP5 ADD PUSH2 0x35FE JUMP JUMPDEST PUSH0 DUP2 MLOAD DUP1 DUP5 MSTORE PUSH1 0x20 DUP1 DUP6 ADD SWAP5 POP PUSH1 0x20 DUP5 ADD PUSH0 JUMPDEST DUP4 DUP2 LT ISZERO PUSH2 0x378E JUMPI DUP2 MLOAD DUP8 MSTORE SWAP6 DUP3 ADD SWAP6 SWAP1 DUP3 ADD SWAP1 PUSH1 0x1 ADD PUSH2 0x3772 JUMP JUMPDEST POP SWAP5 SWAP6 SWAP5 POP POP POP POP POP JUMP JUMPDEST PUSH1 0x20 DUP2 MSTORE PUSH0 PUSH2 0xDE6 PUSH1 0x20 DUP4 ADD DUP5 PUSH2 0x375F JUMP JUMPDEST PUSH0 DUP1 PUSH0 DUP1 PUSH0 PUSH1 0xA0 DUP7 DUP9 SUB SLT ISZERO PUSH2 0x37BF JUMPI PUSH0 DUP1 REVERT JUMPDEST PUSH2 0x37C8 DUP7 PUSH2 0x35E8 JUMP JUMPDEST SWAP8 PUSH1 0x20 DUP8 ADD CALLDATALOAD SWAP8 POP PUSH1 0x40 DUP8 ADD CALLDATALOAD SWAP7 PUSH1 0x60 DUP2 ADD CALLDATALOAD SWAP7 POP PUSH1 0x80 ADD CALLDATALOAD SWAP5 POP SWAP3 POP POP POP JUMP JUMPDEST PUSH0 DUP1 DUP4 PUSH1 0x1F DUP5 ADD SLT PUSH2 0x37F9 JUMPI PUSH0 DUP1 REVERT JUMPDEST POP DUP2 CALLDATALOAD PUSH8 0xFFFFFFFFFFFFFFFF DUP2 GT ISZERO PUSH2 0x3810 JUMPI PUSH0 DUP1 REVERT JUMPDEST PUSH1 0x20 DUP4 ADD SWAP2 POP DUP4 PUSH1 0x20 DUP3 PUSH1 0x5 SHL DUP6 ADD ADD GT ISZERO PUSH2 0x382A JUMPI PUSH0 DUP1 REVERT JUMPDEST SWAP3 POP SWAP3 SWAP1 POP JUMP JUMPDEST PUSH0 DUP1 DUP4 PUSH1 0x1F DUP5 ADD SLT PUSH2 0x3841 JUMPI PUSH0 DUP1 REVERT JUMPDEST POP DUP2 CALLDATALOAD PUSH8 0xFFFFFFFFFFFFFFFF DUP2 GT ISZERO PUSH2 0x3858 JUMPI PUSH0 DUP1 REVERT JUMPDEST PUSH1 0x20 DUP4 ADD SWAP2 POP DUP4 PUSH1 0x20 DUP3 DUP6 ADD ADD GT ISZERO PUSH2 0x382A JUMPI PUSH0 DUP1 REVERT JUMPDEST PUSH0 DUP1 PUSH0 DUP1 PUSH0 DUP1 PUSH0 DUP1 PUSH1 0xA0 DUP10 DUP12 SUB SLT ISZERO PUSH2 0x3886 JUMPI PUSH0 DUP1 REVERT JUMPDEST PUSH2 0x388F DUP10 PUSH2 0x35E8 JUMP JUMPDEST SWAP8 POP PUSH2 0x389D PUSH1 0x20 DUP11 ADD PUSH2 0x35E8 JUMP JUMPDEST SWAP7 POP PUSH1 0x40 DUP10 ADD CALLDATALOAD PUSH8 0xFFFFFFFFFFFFFFFF DUP1 DUP3 GT ISZERO PUSH2 0x38B9 JUMPI PUSH0 DUP1 REVERT JUMPDEST PUSH2 0x38C5 DUP13 DUP4 DUP14 ADD PUSH2 0x37E9 JUMP JUMPDEST SWAP1 SWAP9 POP SWAP7 POP PUSH1 0x60 DUP12 ADD CALLDATALOAD SWAP2 POP DUP1 DUP3 GT ISZERO PUSH2 0x38DD JUMPI PUSH0 DUP1 REVERT JUMPDEST PUSH2 0x38E9 DUP13 DUP4 DUP14 ADD PUSH2 0x37E9 JUMP JUMPDEST SWAP1 SWAP7 POP SWAP5 POP PUSH1 0x80 DUP12 ADD CALLDATALOAD SWAP2 POP DUP1 DUP3 GT ISZERO PUSH2 0x3901 JUMPI PUSH0 DUP1 REVERT JUMPDEST POP PUSH2 0x390E DUP12 DUP3 DUP13 ADD PUSH2 0x3831 JUMP JUMPDEST SWAP10 SWAP13 SWAP9 SWAP12 POP SWAP7 SWAP10 POP SWAP5 SWAP8 SWAP4 SWAP7 SWAP3 SWAP6 SWAP5 POP POP POP JUMP JUMPDEST PUSH0 DUP1 PUSH0 DUP1 PUSH0 DUP1 PUSH1 0xA0 DUP8 DUP10 SUB SLT ISZERO PUSH2 0x3937 JUMPI PUSH0 DUP1 REVERT JUMPDEST PUSH2 0x3940 DUP8 PUSH2 0x35E8 JUMP JUMPDEST SWAP6 POP PUSH2 0x394E PUSH1 0x20 DUP9 ADD PUSH2 0x35E8 JUMP JUMPDEST SWAP5 POP PUSH1 0x40 DUP8 ADD CALLDATALOAD SWAP4 POP PUSH1 0x60 DUP8 ADD CALLDATALOAD SWAP3 POP PUSH1 0x80 DUP8 ADD CALLDATALOAD PUSH8 0xFFFFFFFFFFFFFFFF DUP2 GT ISZERO PUSH2 0x3977 JUMPI PUSH0 DUP1 REVERT JUMPDEST PUSH2 0x3983 DUP10 DUP3 DUP11 ADD PUSH2 0x3831 JUMP JUMPDEST SWAP8 SWAP11 SWAP7 SWAP10 POP SWAP5 SWAP8 POP SWAP3 SWAP6 SWAP4 SWAP5 SWAP3 POP POP POP JUMP JUMPDEST PUSH0 PUSH1 0x20 DUP3 DUP5 SUB SLT ISZERO PUSH2 0x39A5 JUMPI PUSH0 DUP1 REVERT JUMPDEST PUSH2 0xDE6 DUP3 PUSH2 0x35E8 JUMP JUMPDEST PUSH0 PUSH1 0x20 DUP3 DUP5 SUB SLT ISZERO PUSH2 0x39BE JUMPI PUSH0 DUP1 REVERT JUMPDEST DUP2 MLOAD PUSH1 0xFF DUP2 AND DUP2 EQ PUSH2 0xDE6 JUMPI PUSH0 DUP1 REVERT JUMPDEST PUSH4 0x4E487B71 PUSH1 0xE0 SHL PUSH0 MSTORE PUSH1 0x11 PUSH1 0x4 MSTORE PUSH1 0x24 PUSH0 REVERT JUMPDEST PUSH1 0x1 DUP2 DUP2 JUMPDEST DUP1 DUP6 GT ISZERO PUSH2 0x3A1C JUMPI DUP2 PUSH0 NOT DIV DUP3 GT ISZERO PUSH2 0x3A02 JUMPI PUSH2 0x3A02 PUSH2 0x39CE JUMP JUMPDEST DUP1 DUP6 AND ISZERO PUSH2 0x3A0F JUMPI SWAP2 DUP2 MUL SWAP2 JUMPDEST SWAP4 DUP5 SHR SWAP4 SWAP1 DUP1 MUL SWAP1 PUSH2 0x39E7 JUMP JUMPDEST POP SWAP3 POP SWAP3 SWAP1 POP JUMP JUMPDEST PUSH0 DUP3 PUSH2 0x3A32 JUMPI POP PUSH1 0x1 PUSH2 0x588 JUMP JUMPDEST DUP2 PUSH2 0x3A3E JUMPI POP PUSH0 PUSH2 0x588 JUMP JUMPDEST DUP2 PUSH1 0x1 DUP2 EQ PUSH2 0x3A54 JUMPI PUSH1 0x2 DUP2 EQ PUSH2 0x3A5E JUMPI PUSH2 0x3A7A JUMP JUMPDEST PUSH1 0x1 SWAP2 POP POP PUSH2 0x588 JUMP JUMPDEST PUSH1 0xFF DUP5 GT ISZERO PUSH2 0x3A6F JUMPI PUSH2 0x3A6F PUSH2 0x39CE JUMP JUMPDEST POP POP PUSH1 0x1 DUP3 SHL PUSH2 0x588 JUMP JUMPDEST POP PUSH1 0x20 DUP4 LT PUSH2 0x133 DUP4 LT AND PUSH1 0x4E DUP5 LT PUSH1 0xB DUP5 LT AND OR ISZERO PUSH2 0x3A9D JUMPI POP DUP2 DUP2 EXP PUSH2 0x588 JUMP JUMPDEST PUSH2 0x3AA7 DUP4 DUP4 PUSH2 0x39E2 JUMP JUMPDEST DUP1 PUSH0 NOT DIV DUP3 GT ISZERO PUSH2 0x3ABA JUMPI PUSH2 0x3ABA PUSH2 0x39CE JUMP JUMPDEST MUL SWAP4 SWAP3 POP POP POP JUMP JUMPDEST PUSH0 PUSH2 0xDE6 DUP4 DUP4 PUSH2 0x3A24 JUMP JUMPDEST DUP1 DUP3 ADD DUP1 DUP3 GT ISZERO PUSH2 0x588 JUMPI PUSH2 0x588 PUSH2 0x39CE JUMP JUMPDEST PUSH4 0x4E487B71 PUSH1 0xE0 SHL PUSH0 MSTORE PUSH1 0x32 PUSH1 0x4 MSTORE PUSH1 0x24 PUSH0 REVERT JUMPDEST PUSH0 PUSH1 0x20 DUP3 DUP5 SUB SLT ISZERO PUSH2 0x3B04 JUMPI PUSH0 DUP1 REVERT JUMPDEST POP MLOAD SWAP2 SWAP1 POP JUMP JUMPDEST PUSH1 0x1 PUSH1 0x1 PUSH1 0xA0 SHL SUB DUP6 AND DUP2 MSTORE DUP4 PUSH1 0x20 DUP3 ADD MSTORE DUP3 PUSH1 0x40 DUP3 ADD MSTORE PUSH1 0x80 PUSH1 0x60 DUP3 ADD MSTORE PUSH0 PUSH2 0x3B38 PUSH1 0x80 DUP4 ADD DUP5 PUSH2 0x375F JUMP JUMPDEST SWAP7 SWAP6 POP POP POP POP POP POP JUMP JUMPDEST DUP2 DUP2 SUB DUP2 DUP2 GT ISZERO PUSH2 0x588 JUMPI PUSH2 0x588 PUSH2 0x39CE JUMP JUMPDEST PUSH0 DUP3 MLOAD DUP1 PUSH1 0x20 DUP6 ADD DUP5 MCOPY PUSH0 SWAP3 ADD SWAP2 DUP3 MSTORE POP SWAP2 SWAP1 POP JUMP JUMPDEST PUSH0 DUP2 PUSH1 0xF SIGNEXTEND PUSH1 0x1 PUSH1 0x1 PUSH1 0x7F SHL SUB NOT DUP2 SUB PUSH2 0x3B87 JUMPI PUSH2 0x3B87 PUSH2 0x39CE JUMP JUMPDEST PUSH0 SUB SWAP3 SWAP2 POP POP JUMP JUMPDEST PUSH1 0xF DUP3 DUP2 SIGNEXTEND SWAP1 DUP3 SWAP1 SIGNEXTEND SUB PUSH16 0x7FFFFFFFFFFFFFFFFFFFFFFFFFFFFFFF NOT DUP2 SLT PUSH1 0x1 PUSH1 0x1 PUSH1 0x7F SHL SUB DUP3 SGT OR ISZERO PUSH2 0x588 JUMPI PUSH2 0x588 PUSH2 0x39CE JUMP JUMPDEST PUSH0 PUSH1 0x1 DUP3 ADD PUSH2 0x3BD6 JUMPI PUSH2 0x3BD6 PUSH2 0x39CE JUMP JUMPDEST POP PUSH1 0x1 ADD SWAP1 JUMP JUMPDEST PUSH0 PUSH1 0x20 DUP3 DUP5 SUB SLT ISZERO PUSH2 0x3BED JUMPI PUSH0 DUP1 REVERT JUMPDEST DUP2 MLOAD DUP1 ISZERO ISZERO DUP2 EQ PUSH2 0xDE6 JUMPI PUSH0 DUP1 REVERT JUMPDEST PUSH4 0x4E487B71 PUSH1 0xE0 SHL PUSH0 MSTORE PUSH1 0x12 PUSH1 0x4 MSTORE PUSH1 0x24 PUSH0 REVERT JUMPDEST PUSH1 0x1 PUSH1 0x1 PUSH1 0xA0 SHL SUB DUP7 AND DUP2 MSTORE DUP5 PUSH1 0x20 DUP3 ADD MSTORE DUP4 PUSH1 0x40 DUP3 ADD MSTORE PUSH1 0xA0 PUSH1 0x60 DUP3 ADD MSTORE PUSH0 PUSH2 0x3C3D PUSH1 0xA0 DUP4 ADD DUP6 PUSH2 0x375F JUMP JUMPDEST SWAP1 POP DUP3 PUSH1 0x80 DUP4 ADD MSTORE SWAP7 SWAP6 POP POP POP POP POP POP JUMP INVALID LOG2 PUSH5 0x6970667358 0x22 SLT KECCAK256 PUSH19 0x591F6ED1CAB019DB8010CB42F6C52709F89B10 GAS CHAINID SWAP11 PUSH5 0x960BC4118C CALLER DUP2 STATICCALL PUSH5 0x736F6C6343 STOP ADDMOD NOT STOP CALLER "
    },
    "gasEstimates": {
      "creation": {
        "codeDepositCost": "3098600",
        "executionCost": "infinite",
        "totalCost": "infinite"
      },
      "external": {
        "addLiquidity(uint256)": "infinite",
        "buy(uint256,int128)": "infinite",
        "condition()": "2339",
        "cost()": "infinite",
        "cost_after_buy(uint256,int128)": "infinite",
        "debugFees()": "infinite",
        "dummyVar()": "2340",
        "generateQuestionId(string)": "infinite",
        "getAccumulatedFees()": "infinite",
        "getLiquidityParameter()": "2402",
        "getOutcomeSharesPurchased(uint256)": "10725",
        "getPositionAndDustPositions(uint256)": "infinite",
        "getTokenEth(address,uint256)": "infinite",
        "getTokenWei(address,int128)": "infinite",
        "getTokenWeiDown(address,int128)": "infinite",
        "getTokenWeiUp(address,int128)": "infinite",
        "initial_subsidy()": "2386",
        "numOutcomes()": "2405",
        "odds(uint256)": "infinite",
        "onERC1155BatchReceived(address,address,uint256[],uint256[],bytes)": "infinite",
        "onERC1155Received(address,address,uint256,uint256,bytes)": "infinite",
        "owner()": "2430",
        "price(uint256,int128)": "infinite",
        "renounceOwnership()": "infinite",
        "sell(uint256,int128)": "infinite",
        "sellingPrice(uint256,int128)": "infinite",
        "setup(address,bytes32,uint256,uint256,uint256)": "infinite",
        "supportsInterface(bytes4)": "362",
        "token()": "2446",
        "transferOwnership(address)": "28380",
        "withdraw()": "infinite",
        "withdrawFees()": "infinite"
      },
      "internal": {
        "_calculateBuyPrice(int128[] memory,uint256,int128,int128,int128,int128,uint256)": "infinite",
        "_mintAndTransferOutcomeTokens(uint256,int128)": "infinite",
        "getOnes(uint256)": "infinite"
      }
    },
    "methodIdentifiers": {
      "addLiquidity(uint256)": "51c6590a",
      "buy(uint256,int128)": "f76da1d9",
      "condition()": "c5031331",
      "cost()": "13faede6",
      "cost_after_buy(uint256,int128)": "8062dd93",
      "debugFees()": "e1fc2305",
      "dummyVar()": "8ac40792",
      "generateQuestionId(string)": "4c395cc4",
      "getAccumulatedFees()": "5df45a37",
      "getLiquidityParameter()": "8364dfef",
      "getOutcomeSharesPurchased(uint256)": "bb6f593e",
      "getPositionAndDustPositions(uint256)": "8d0a6cff",
      "getTokenEth(address,uint256)": "10f8625a",
      "getTokenWei(address,int128)": "40088ee1",
      "getTokenWeiDown(address,int128)": "8d36627b",
      "getTokenWeiUp(address,int128)": "05445405",
      "initial_subsidy()": "cd6bd6db",
      "numOutcomes()": "8767d64e",
      "odds(uint256)": "46156ea0",
      "onERC1155BatchReceived(address,address,uint256[],uint256[],bytes)": "bc197c81",
      "onERC1155Received(address,address,uint256,uint256,bytes)": "f23a6e61",
      "owner()": "8da5cb5b",
      "price(uint256,int128)": "df7bd8fc",
      "renounceOwnership()": "715018a6",
      "sell(uint256,int128)": "ae92a93d",
      "sellingPrice(uint256,int128)": "52fdfecc",
      "setup(address,bytes32,uint256,uint256,uint256)": "8f54f2ae",
      "supportsInterface(bytes4)": "01ffc9a7",
      "token()": "fc0c546a",
      "transferOwnership(address)": "f2fde38b",
      "withdraw()": "3ccfd60b",
      "withdrawFees()": "476343ee"
    }
  },
  "storageLayout": {
    "storage": [
      {
        "astId": 7396,
        "contract": "LmLSMR.sol:LsLMSR",
        "label": "_owner",
        "offset": 0,
        "slot": "0",
        "type": "t_address"
      },
      {
        "astId": 4182,
        "contract": "LmLSMR.sol:LsLMSR",
        "label": "numOutcomes",
        "offset": 0,
        "slot": "1",
        "type": "t_uint256"
      },
      {
        "astId": 4185,
        "contract": "LmLSMR.sol:LsLMSR",
        "label": "q",
        "offset": 0,
        "slot": "2",
        "type": "t_array(t_int128)dyn_storage"
      },
      {
        "astId": 4187,
        "contract": "LmLSMR.sol:LsLMSR",
        "label": "b",
        "offset": 0,
        "slot": "3",
        "type": "t_int128"
      },
      {
        "astId": 4189,
        "contract": "LmLSMR.sol:LsLMSR",
        "label": "alpha",
        "offset": 16,
        "slot": "3",
        "type": "t_int128"
      },
      {
        "astId": 4191,
        "contract": "LmLSMR.sol:LsLMSR",
        "label": "current_cost",
        "offset": 0,
        "slot": "4",
        "type": "t_int128"
      },
      {
        "astId": 4193,
        "contract": "LmLSMR.sol:LsLMSR",
        "label": "total_shares",
        "offset": 16,
        "slot": "4",
        "type": "t_int128"
      },
      {
        "astId": 4195,
        "contract": "LmLSMR.sol:LsLMSR",
        "label": "initial_subsidy",
        "offset": 0,
        "slot": "5",
        "type": "t_int128"
      },
      {
        "astId": 4197,
        "contract": "LmLSMR.sol:LsLMSR",
        "label": "condition",
        "offset": 0,
        "slot": "6",
        "type": "t_bytes32"
      },
      {
        "astId": 4200,
        "contract": "LmLSMR.sol:LsLMSR",
        "label": "CT",
        "offset": 0,
        "slot": "7",
        "type": "t_contract(ConditionalTokens)4132"
      },
      {
        "astId": 4202,
        "contract": "LmLSMR.sol:LsLMSR",
        "label": "token",
        "offset": 0,
        "slot": "8",
        "type": "t_address"
      },
      {
        "astId": 4204,
        "contract": "LmLSMR.sol:LsLMSR",
        "label": "init",
        "offset": 20,
        "slot": "8",
        "type": "t_bool"
      },
      {
        "astId": 4210,
        "contract": "LmLSMR.sol:LsLMSR",
        "label": "dummyVar",
        "offset": 0,
        "slot": "9",
        "type": "t_uint256"
      }
    ],
    "types": {
      "t_address": {
        "encoding": "inplace",
        "label": "address",
        "numberOfBytes": "20"
      },
      "t_array(t_int128)dyn_storage": {
        "base": "t_int128",
        "encoding": "dynamic_array",
        "label": "int128[]",
        "numberOfBytes": "32"
      },
      "t_bool": {
        "encoding": "inplace",
        "label": "bool",
        "numberOfBytes": "1"
      },
      "t_bytes32": {
        "encoding": "inplace",
        "label": "bytes32",
        "numberOfBytes": "32"
      },
      "t_contract(ConditionalTokens)4132": {
        "encoding": "inplace",
        "label": "contract ConditionalTokens",
        "numberOfBytes": "20"
      },
      "t_int128": {
        "encoding": "inplace",
        "label": "int128",
        "numberOfBytes": "16"
      },
      "t_uint256": {
        "encoding": "inplace",
        "label": "uint256",
        "numberOfBytes": "32"
      }
    }
  },
  "userdoc": {
    "kind": "user",
    "methods": {
      "constructor": {
        "notice": "Constructor function for the market maker"
      },
      "cost()": {
        "notice": "View function returning the cost function.  This function returns the cost for this inventory state. It will be able to tell you the total amount of collateral spent within the market maker. For example, if a pool was seeded with 100 DAI and then a further 20 DAI has been spent, this function will return 120 DAI."
      },
      "cost_after_buy(uint256,int128)": {
        "notice": "This function will tell you the cost (similar to above) after a proposed transaction."
      },
      "odds(uint256)": {
        "notice": "This function tells you how much it will cost to make a particular trade. It does this by calculating the difference between the current cost and the cost after the transaction."
      },
      "setup(address,bytes32,uint256,uint256,uint256)": {
        "notice": "Set up some of the variables for the market maker"
      }
    },
    "version": 1
  }
}