{
  "abi": [
    {
      "inputs": [],
      "stateMutability": "nonpayable",
      "type": "constructor"
    },
    {
      "inputs": [
        {
          "internalType": "address",
          "name": "sender",
          "type": "address"
        },
        {
          "internalType": "uint256",
          "name": "balance",
          "type": "uint256"
        },
        {
          "internalType": "uint256",
          "name": "needed",
          "type": "uint256"
        },
        {
          "internalType": "uint256",
          "name": "tokenId",
          "type": "uint256"
        }
      ],
      "name": "ERC1155InsufficientBalance",
      "type": "error"
    },
    {
      "inputs": [
        {
          "internalType": "address",
          "name": "approver",
          "type": "address"
        }
      ],
      "name": "ERC1155InvalidApprover",
      "type": "error"
    },
    {
      "inputs": [
        {
          "internalType": "uint256",
          "name": "idsLength",
          "type": "uint256"
        },
        {
          "internalType": "uint256",
          "name": "valuesLength",
          "type": "uint256"
        }
      ],
      "name": "ERC1155InvalidArrayLength",
      "type": "error"
    },
    {
      "inputs": [
        {
          "internalType": "address",
          "name": "operator",
          "type": "address"
        }
      ],
      "name": "ERC1155InvalidOperator",
      "type": "error"
    },
    {
      "inputs": [
        {
          "internalType": "address",
          "name": "receiver",
          "type": "address"
        }
      ],
      "name": "ERC1155InvalidReceiver",
      "type": "error"
    },
    {
      "inputs": [
        {
          "internalType": "address",
          "name": "sender",
          "type": "address"
        }
      ],
      "name": "ERC1155InvalidSender",
      "type": "error"
    },
    {
      "inputs": [
        {
          "internalType": "address",
          "name": "operator",
          "type": "address"
        },
        {
          "internalType": "address",
          "name": "owner",
          "type": "address"
        }
      ],
      "name": "ERC1155MissingApprovalForAll",
      "type": "error"
    },
    {
      "anonymous": false,
      "inputs": [
        {
          "indexed": true,
          "internalType": "address",
          "name": "account",
          "type": "address"
        },
        {
          "indexed": true,
          "internalType": "address",
          "name": "operator",
          "type": "address"
        },
        {
          "indexed": false,
          "internalType": "bool",
          "name": "approved",
          "type": "bool"
        }
      ],
      "name": "ApprovalForAll",
      "type": "event"
    },
    {
      "anonymous": false,
      "inputs": [
        {
          "indexed": true,
          "internalType": "bytes32",
          "name": "conditionId",
          "type": "bytes32"
        },
        {
          "indexed": true,
          "internalType": "address",
          "name": "oracle",
          "type": "address"
        },
        {
          "indexed": true,
          "internalType": "bytes32",
          "name": "questionId",
          "type": "bytes32"
        },
        {
          "indexed": false,
          "internalType": "uint256",
          "name": "outcomeSlotCount",
          "type": "uint256"
        }
      ],
      "name": "ConditionPreparation",
      "type": "event"
    },
    {
      "anonymous": false,
      "inputs": [
        {
          "indexed": true,
          "internalType": "bytes32",
          "name": "conditionId",
          "type": "bytes32"
        },
        {
          "indexed": true,
          "internalType": "address",
          "name": "oracle",
          "type": "address"
        },
        {
          "indexed": true,
          "internalType": "bytes32",
          "name": "questionId",
          "type": "bytes32"
        },
        {
          "indexed": false,
          "internalType": "uint256",
          "name": "outcomeSlotCount",
          "type": "uint256"
        },
        {
          "indexed": false,
          "internalType": "uint256[]",
          "name": "payoutNumerators",
          "type": "uint256[]"
        }
      ],
      "name": "ConditionResolution",
      "type": "event"
    },
    {
      "anonymous": false,
      "inputs": [
        {
          "indexed": true,
          "internalType": "address",
          "name": "redeemer",
          "type": "address"
        },
        {
          "indexed": true,
          "internalType": "contract IERC20",
          "name": "collateralToken",
          "type": "address"
        },
        {
          "indexed": true,
          "internalType": "bytes32",
          "name": "parentCollectionId",
          "type": "bytes32"
        },
        {
          "indexed": false,
          "internalType": "bytes32",
          "name": "conditionId",
          "type": "bytes32"
        },
        {
          "indexed": false,
          "internalType": "uint256[]",
          "name": "indexSets",
          "type": "uint256[]"
        },
        {
          "indexed": false,
          "internalType": "uint256",
          "name": "payout",
          "type": "uint256"
        }
      ],
      "name": "PayoutRedemption",
      "type": "event"
    },
    {
      "anonymous": false,
      "inputs": [
        {
          "indexed": true,
          "internalType": "address",
          "name": "stakeholder",
          "type": "address"
        },
        {
          "indexed": false,
          "internalType": "contract IERC20",
          "name": "collateralToken",
          "type": "address"
        },
        {
          "indexed": true,
          "internalType": "bytes32",
          "name": "parentCollectionId",
          "type": "bytes32"
        },
        {
          "indexed": true,
          "internalType": "bytes32",
          "name": "conditionId",
          "type": "bytes32"
        },
        {
          "indexed": false,
          "internalType": "uint256[]",
          "name": "partition",
          "type": "uint256[]"
        },
        {
          "indexed": false,
          "internalType": "uint256",
          "name": "amount",
          "type": "uint256"
        }
      ],
      "name": "PositionSplit",
      "type": "event"
    },
    {
      "anonymous": false,
      "inputs": [
        {
          "indexed": true,
          "internalType": "address",
          "name": "stakeholder",
          "type": "address"
        },
        {
          "indexed": false,
          "internalType": "contract IERC20",
          "name": "collateralToken",
          "type": "address"
        },
        {
          "indexed": true,
          "internalType": "bytes32",
          "name": "parentCollectionId",
          "type": "bytes32"
        },
        {
          "indexed": true,
          "internalType": "bytes32",
          "name": "conditionId",
          "type": "bytes32"
        },
        {
          "indexed": false,
          "internalType": "uint256[]",
          "name": "partition",
          "type": "uint256[]"
        },
        {
          "indexed": false,
          "internalType": "uint256",
          "name": "amount",
          "type": "uint256"
        }
      ],
      "name": "PositionsMerge",
      "type": "event"
    },
    {
      "anonymous": false,
      "inputs": [
        {
          "indexed": true,
          "internalType": "address",
          "name": "operator",
          "type": "address"
        },
        {
          "indexed": true,
          "internalType": "address",
          "name": "from",
          "type": "address"
        },
        {
          "indexed": true,
          "internalType": "address",
          "name": "to",
          "type": "address"
        },
        {
          "indexed": false,
          "internalType": "uint256[]",
          "name": "ids",
          "type": "uint256[]"
        },
        {
          "indexed": false,
          "internalType": "uint256[]",
          "name": "values",
          "type": "uint256[]"
        }
      ],
      "name": "TransferBatch",
      "type": "event"
    },
    {
      "anonymous": false,
      "inputs": [
        {
          "indexed": true,
          "internalType": "address",
          "name": "operator",
          "type": "address"
        },
        {
          "indexed": true,
          "internalType": "address",
          "name": "from",
          "type": "address"
        },
        {
          "indexed": true,
          "internalType": "address",
          "name": "to",
          "type": "address"
        },
        {
          "indexed": false,
          "internalType": "uint256",
          "name": "id",
          "type": "uint256"
        },
        {
          "indexed": false,
          "internalType": "uint256",
          "name": "value",
          "type": "uint256"
        }
      ],
      "name": "TransferSingle",
      "type": "event"
    },
    {
      "anonymous": false,
      "inputs": [
        {
          "indexed": false,
          "internalType": "string",
          "name": "value",
          "type": "string"
        },
        {
          "indexed": true,
          "internalType": "uint256",
          "name": "id",
          "type": "uint256"
        }
      ],
      "name": "URI",
      "type": "event"
    },
    {
      "inputs": [
        {
          "internalType": "address",
          "name": "account",
          "type": "address"
        },
        {
          "internalType": "uint256",
          "name": "id",
          "type": "uint256"
        }
      ],
      "name": "balanceOf",
      "outputs": [
        {
          "internalType": "uint256",
          "name": "",
          "type": "uint256"
        }
      ],
      "stateMutability": "view",
      "type": "function"
    },
    {
      "inputs": [
        {
          "internalType": "address[]",
          "name": "accounts",
          "type": "address[]"
        },
        {
          "internalType": "uint256[]",
          "name": "ids",
          "type": "uint256[]"
        }
      ],
      "name": "balanceOfBatch",
      "outputs": [
        {
          "internalType": "uint256[]",
          "name": "",
          "type": "uint256[]"
        }
      ],
      "stateMutability": "view",
      "type": "function"
    },
    {
      "inputs": [
        {
          "internalType": "bytes32",
          "name": "parentCollectionId",
          "type": "bytes32"
        },
        {
          "internalType": "bytes32",
          "name": "conditionId",
          "type": "bytes32"
        },
        {
          "internalType": "uint256",
          "name": "indexSet",
          "type": "uint256"
        }
      ],
      "name": "getCollectionId",
      "outputs": [
        {
          "internalType": "bytes32",
          "name": "",
          "type": "bytes32"
        }
      ],
      "stateMutability": "view",
      "type": "function"
    },
    {
      "inputs": [
        {
          "internalType": "address",
          "name": "oracle",
          "type": "address"
        },
        {
          "internalType": "bytes32",
          "name": "questionId",
          "type": "bytes32"
        },
        {
          "internalType": "uint256",
          "name": "outcomeSlotCount",
          "type": "uint256"
        }
      ],
      "name": "getConditionId",
      "outputs": [
        {
          "internalType": "bytes32",
          "name": "",
          "type": "bytes32"
        }
      ],
      "stateMutability": "pure",
      "type": "function"
    },
    {
      "inputs": [
        {
          "internalType": "bytes32",
          "name": "conditionId",
          "type": "bytes32"
        }
      ],
      "name": "getOutcomeSlotCount",
      "outputs": [
        {
          "internalType": "uint256",
          "name": "",
          "type": "uint256"
        }
      ],
      "stateMutability": "view",
      "type": "function"
    },
    {
      "inputs": [
        {
          "internalType": "contract IERC20",
          "name": "collateralToken",
          "type": "address"
        },
        {
          "internalType": "bytes32",
          "name": "collectionId",
          "type": "bytes32"
        }
      ],
      "name": "getPositionId",
      "outputs": [
        {
          "internalType": "uint256",
          "name": "",
          "type": "uint256"
        }
      ],
      "stateMutability": "pure",
      "type": "function"
    },
    {
      "inputs": [
        {
          "internalType": "address",
          "name": "account",
          "type": "address"
        },
        {
          "internalType": "address",
          "name": "operator",
          "type": "address"
        }
      ],
      "name": "isApprovedForAll",
      "outputs": [
        {
          "internalType": "bool",
          "name": "",
          "type": "bool"
        }
      ],
      "stateMutability": "view",
      "type": "function"
    },
    {
      "inputs": [
        {
          "internalType": "contract IERC20",
          "name": "collateralToken",
          "type": "address"
        },
        {
          "internalType": "bytes32",
          "name": "parentCollectionId",
          "type": "bytes32"
        },
        {
          "internalType": "bytes32",
          "name": "conditionId",
          "type": "bytes32"
        },
        {
          "internalType": "uint256[]",
          "name": "partition",
          "type": "uint256[]"
        },
        {
          "internalType": "uint256",
          "name": "amount",
          "type": "uint256"
        }
      ],
      "name": "mergePositions",
      "outputs": [],
      "stateMutability": "nonpayable",
      "type": "function"
    },
    {
      "inputs": [
        {
          "internalType": "bytes32",
          "name": "",
          "type": "bytes32"
        }
      ],
      "name": "payoutDenominator",
      "outputs": [
        {
          "internalType": "uint256",
          "name": "",
          "type": "uint256"
        }
      ],
      "stateMutability": "view",
      "type": "function"
    },
    {
      "inputs": [
        {
          "internalType": "bytes32",
          "name": "",
          "type": "bytes32"
        },
        {
          "internalType": "uint256",
          "name": "",
          "type": "uint256"
        }
      ],
      "name": "payoutNumerators",
      "outputs": [
        {
          "internalType": "uint256",
          "name": "",
          "type": "uint256"
        }
      ],
      "stateMutability": "view",
      "type": "function"
    },
    {
      "inputs": [
        {
          "internalType": "address",
          "name": "oracle",
          "type": "address"
        },
        {
          "internalType": "bytes32",
          "name": "questionId",
          "type": "bytes32"
        },
        {
          "internalType": "uint256",
          "name": "outcomeSlotCount",
          "type": "uint256"
        }
      ],
      "name": "prepareCondition",
      "outputs": [],
      "stateMutability": "nonpayable",
      "type": "function"
    },
    {
      "inputs": [
        {
          "internalType": "contract IERC20",
          "name": "collateralToken",
          "type": "address"
        },
        {
          "internalType": "bytes32",
          "name": "parentCollectionId",
          "type": "bytes32"
        },
        {
          "internalType": "bytes32",
          "name": "conditionId",
          "type": "bytes32"
        },
        {
          "internalType": "uint256[]",
          "name": "indexSets",
          "type": "uint256[]"
        }
      ],
      "name": "redeemPositions",
      "outputs": [],
      "stateMutability": "nonpayable",
      "type": "function"
    },
    {
      "inputs": [
        {
          "internalType": "bytes32",
          "name": "questionId",
          "type": "bytes32"
        },
        {
          "internalType": "uint256[]",
          "name": "payouts",
          "type": "uint256[]"
        }
      ],
      "name": "reportPayouts",
      "outputs": [],
      "stateMutability": "nonpayable",
      "type": "function"
    },
    {
      "inputs": [
        {
          "internalType": "address",
          "name": "from",
          "type": "address"
        },
        {
          "internalType": "address",
          "name": "to",
          "type": "address"
        },
        {
          "internalType": "uint256[]",
          "name": "ids",
          "type": "uint256[]"
        },
        {
          "internalType": "uint256[]",
          "name": "values",
          "type": "uint256[]"
        },
        {
          "internalType": "bytes",
          "name": "data",
          "type": "bytes"
        }
      ],
      "name": "safeBatchTransferFrom",
      "outputs": [],
      "stateMutability": "nonpayable",
      "type": "function"
    },
    {
      "inputs": [
        {
          "internalType": "address",
          "name": "from",
          "type": "address"
        },
        {
          "internalType": "address",
          "name": "to",
          "type": "address"
        },
        {
          "internalType": "uint256",
          "name": "id",
          "type": "uint256"
        },
        {
          "internalType": "uint256",
          "name": "value",
          "type": "uint256"
        },
        {
          "internalType": "bytes",
          "name": "data",
          "type": "bytes"
        }
      ],
      "name": "safeTransferFrom",
      "outputs": [],
      "stateMutability": "nonpayable",
      "type": "function"
    },
    {
      "inputs": [
        {
          "internalType": "address",
          "name": "operator",
          "type": "address"
        },
        {
          "internalType": "bool",
          "name": "approved",
          "type": "bool"
        }
      ],
      "name": "setApprovalForAll",
      "outputs": [],
      "stateMutability": "nonpayable",
      "type": "function"
    },
    {
      "inputs": [
        {
          "internalType": "contract IERC20",
          "name": "collateralToken",
          "type": "address"
        },
        {
          "internalType": "bytes32",
          "name": "parentCollectionId",
          "type": "bytes32"
        },
        {
          "internalType": "bytes32",
          "name": "conditionId",
          "type": "bytes32"
        },
        {
          "internalType": "uint256[]",
          "name": "partition",
          "type": "uint256[]"
        },
        {
          "internalType": "uint256",
          "name": "amount",
          "type": "uint256"
        }
      ],
      "name": "splitPosition",
      "outputs": [],
      "stateMutability": "nonpayable",
      "type": "function"
    },
    {
      "inputs": [
        {
          "internalType": "bytes4",
          "name": "interfaceId",
          "type": "bytes4"
        }
      ],
      "name": "supportsInterface",
      "outputs": [
        {
          "internalType": "bool",
          "name": "",
          "type": "bool"
        }
      ],
      "stateMutability": "view",
      "type": "function"
    },
    {
      "inputs": [
        {
          "internalType": "uint256",
          "name": "",
          "type": "uint256"
        }
      ],
      "name": "uri",
      "outputs": [
        {
          "internalType": "string",
          "name": "",
          "type": "string"
        }
      ],
      "stateMutability": "view",
      "type": "function"
    }
  ],
  "devdoc": {
    "errors": {
      "ERC1155InsufficientBalance(address,uint256,uint256,uint256)": [
        {
          "details": "Indicates an error related to the current `balance` of a `sender`. Used in transfers.",
          "params": {
            "balance": "Current balance for the interacting account.",
            "needed": "Minimum amount required to perform a transfer.",
            "sender": "Address whose tokens are being transferred.",
            "tokenId": "Identifier number of a token."
          }
        }
      ],
      "ERC1155InvalidApprover(address)": [
        {
          "details": "Indicates a failure with the `approver` of a token to be approved. Used in approvals.",
          "params": {
            "approver": "Address initiating an approval operation."
          }
        }
      ],
      "ERC1155InvalidArrayLength(uint256,uint256)": [
        {
          "details": "Indicates an array length mismatch between ids and values in a safeBatchTransferFrom operation. Used in batch transfers.",
          "params": {
            "idsLength": "Length of the array of token identifiers",
            "valuesLength": "Length of the array of token amounts"
          }
        }
      ],
      "ERC1155InvalidOperator(address)": [
        {
          "details": "Indicates a failure with the `operator` to be approved. Used in approvals.",
          "params": {
            "operator": "Address that may be allowed to operate on tokens without being their owner."
          }
        }
      ],
      "ERC1155InvalidReceiver(address)": [
        {
          "details": "Indicates a failure with the token `receiver`. Used in transfers.",
          "params": {
            "receiver": "Address to which tokens are being transferred."
          }
        }
      ],
      "ERC1155InvalidSender(address)": [
        {
          "details": "Indicates a failure with the token `sender`. Used in transfers.",
          "params": {
            "sender": "Address whose tokens are being transferred."
          }
        }
      ],
      "ERC1155MissingApprovalForAll(address,address)": [
        {
          "details": "Indicates a failure with the `operator`’s approval. Used in transfers.",
          "params": {
            "operator": "Address that may be allowed to operate on tokens without being their owner.",
            "owner": "Address of the current owner of a token."
          }
        }
      ]
    },
    "events": {
      "ApprovalForAll(address,address,bool)": {
        "details": "Emitted when `account` grants or revokes permission to `operator` to transfer their tokens, according to `approved`."
      },
      "ConditionPreparation(bytes32,address,bytes32,uint256)": {
        "details": "Emitted upon the successful preparation of a condition.",
        "params": {
          "conditionId": "The condition's ID. This ID may be derived from the other three parameters via ``keccak256(abi.encodePacked(oracle, questionId, outcomeSlotCount))``.",
          "oracle": "The account assigned to report the result for the prepared condition.",
          "outcomeSlotCount": "The number of outcome slots which should be used for this condition. Must not exceed 256.",
          "questionId": "An identifier for the question to be answered by the oracle."
        }
      },
      "PositionSplit(address,address,bytes32,bytes32,uint256[],uint256)": {
        "details": "Emitted when a position is successfully split."
      },
      "PositionsMerge(address,address,bytes32,bytes32,uint256[],uint256)": {
        "details": "Emitted when positions are successfully merged."
      },
      "TransferBatch(address,address,address,uint256[],uint256[])": {
        "details": "Equivalent to multiple {TransferSingle} events, where `operator`, `from` and `to` are the same for all transfers."
      },
      "TransferSingle(address,address,address,uint256,uint256)": {
        "details": "Emitted when `value` amount of tokens of type `id` are transferred from `from` to `to` by `operator`."
      },
      "URI(string,uint256)": {
        "details": "Emitted when the URI for token type `id` changes to `value`, if it is a non-programmatic URI. If an {URI} event was emitted for `id`, the standard https://eips.ethereum.org/EIPS/eip-1155#metadata-extensions[guarantees] that `value` will equal the value returned by {IERC1155MetadataURI-uri}."
      }
    },
    "kind": "dev",
    "methods": {
      "balanceOf(address,uint256)": {
        "details": "See {IERC1155-balanceOf}."
      },
      "balanceOfBatch(address[],uint256[])": {
        "details": "See {IERC1155-balanceOfBatch}. Requirements: - `accounts` and `ids` must have the same length."
      },
      "getCollectionId(bytes32,bytes32,uint256)": {
        "details": "Constructs an outcome collection ID from a parent collection and an outcome collection.",
        "params": {
          "conditionId": "Condition ID of the outcome collection to combine with the parent outcome collection.",
          "indexSet": "Index set of the outcome collection to combine with the parent outcome collection.",
          "parentCollectionId": "Collection ID of the parent outcome collection, or bytes32(0) if there's no parent."
        }
      },
      "getConditionId(address,bytes32,uint256)": {
        "details": "Constructs a condition ID from an oracle, a question ID, and the outcome slot count for the question.",
        "params": {
          "oracle": "The account assigned to report the result for the prepared condition.",
          "outcomeSlotCount": "The number of outcome slots which should be used for this condition. Must not exceed 256.",
          "questionId": "An identifier for the question to be answered by the oracle."
        }
      },
      "getOutcomeSlotCount(bytes32)": {
        "details": "Gets the outcome slot count of a condition.",
        "params": {
          "conditionId": "ID of the condition."
        },
        "returns": {
          "_0": "Number of outcome slots associated with a condition, or zero if condition has not been prepared yet."
        }
      },
      "getPositionId(address,bytes32)": {
        "details": "Constructs a position ID from a collateral token and an outcome collection. These IDs are used as the ERC-1155 ID for this contract.",
        "params": {
          "collateralToken": "Collateral token which backs the position.",
          "collectionId": "ID of the outcome collection associated with this position."
        }
      },
      "isApprovedForAll(address,address)": {
        "details": "See {IERC1155-isApprovedForAll}."
      },
      "prepareCondition(address,bytes32,uint256)": {
        "details": "This function prepares a condition by initializing a payout vector associated with the condition.",
        "params": {
          "oracle": "The account assigned to report the result for the prepared condition.",
          "outcomeSlotCount": "The number of outcome slots which should be used for this condition. Must not exceed 256.",
          "questionId": "An identifier for the question to be answered by the oracle."
        }
      },
      "reportPayouts(bytes32,uint256[])": {
        "details": "Called by the oracle for reporting results of conditions. Will set the payout vector for the condition with the ID ``keccak256(abi.encodePacked(oracle, questionId, outcomeSlotCount))``, where oracle is the message sender, questionId is one of the parameters of this function, and outcomeSlotCount is the length of the payouts parameter, which contains the payoutNumerators for each outcome slot of the condition.",
        "params": {
          "payouts": "The oracle's answer",
          "questionId": "The question ID the oracle is answering for"
        }
      },
      "safeBatchTransferFrom(address,address,uint256[],uint256[],bytes)": {
        "details": "See {IERC1155-safeBatchTransferFrom}."
      },
      "safeTransferFrom(address,address,uint256,uint256,bytes)": {
        "details": "See {IERC1155-safeTransferFrom}."
      },
      "setApprovalForAll(address,bool)": {
        "details": "See {IERC1155-setApprovalForAll}."
      },
      "splitPosition(address,bytes32,bytes32,uint256[],uint256)": {
        "details": "This function splits a position. If splitting from the collateral, this contract will attempt to transfer `amount` collateral from the message sender to itself. Otherwise, this contract will burn `amount` stake held by the message sender in the position being split worth of EIP 1155 tokens. Regardless, if successful, `amount` stake will be minted in the split target positions. If any of the transfers, mints, or burns fail, the transaction will revert. The transaction will also revert if the given partition is trivial, invalid, or refers to more slots than the condition is prepared with.",
        "params": {
          "amount": "The amount of collateral or stake to split.",
          "collateralToken": "The address of the positions' backing collateral token.",
          "conditionId": "The ID of the condition to split on.",
          "parentCollectionId": "The ID of the outcome collections common to the position being split and the split target positions. May be null, in which only the collateral is shared.",
          "partition": "An array of disjoint index sets representing a nontrivial partition of the outcome slots of the given condition. E.g. A|B and C but not A|B and B|C (is not disjoint). Each element's a number which, together with the condition, represents the outcome collection. E.g. 0b110 is A|B, 0b010 is B, etc."
        }
      },
      "supportsInterface(bytes4)": {
        "details": "See {IERC165-supportsInterface}."
      },
      "uri(uint256)": {
        "details": "See {IERC1155MetadataURI-uri}. This implementation returns the same URI for *all* token types. It relies on the token type ID substitution mechanism https://eips.ethereum.org/EIPS/eip-1155#metadata[defined in the ERC]. Clients calling this function must replace the `\\{id\\}` substring with the actual token type ID."
      }
    },
    "version": 1
  },
  "evm": {
    "assembly": "    /* \"ConditionalTokens.sol\":415:16173  contract ConditionalTokens is ERC1155 {... */\n  mstore(0x40, 0x80)\n    /* \"ConditionalTokens.sol\":3195:3223  constructor() ERC1155('') {} */\n  callvalue\n  dup1\n  iszero\n  tag_1\n  jumpi\n  0x00\n  dup1\n  revert\ntag_1:\n  pop\n    /* \"@openzeppelin/contracts/token/ERC1155/ERC1155.sol\":1249:1311   */\n  0x40\n  dup1\n  mload\n  0x20\n  dup2\n  add\n  swap1\n  swap2\n  mstore\n  0x00\n  dup2\n  mstore\n    /* \"@openzeppelin/contracts/token/ERC1155/ERC1155.sol\":1291:1304   */\n  tag_5\n    /* \"@openzeppelin/contracts/token/ERC1155/ERC1155.sol\":1249:1311   */\n  dup2\n    /* \"@openzeppelin/contracts/token/ERC1155/ERC1155.sol\":1291:1298   */\n  tag_6\n    /* \"@openzeppelin/contracts/token/ERC1155/ERC1155.sol\":1291:1304   */\n  jump\t// in\ntag_5:\n    /* \"@openzeppelin/contracts/token/ERC1155/ERC1155.sol\":1249:1311   */\n  pop\n    /* \"ConditionalTokens.sol\":415:16173  contract ConditionalTokens is ERC1155 {... */\n  jump(tag_17)\n    /* \"@openzeppelin/contracts/token/ERC1155/ERC1155.sol\":10290:10376   */\ntag_6:\n    /* \"@openzeppelin/contracts/token/ERC1155/ERC1155.sol\":10356:10360   */\n  0x02\n    /* \"@openzeppelin/contracts/token/ERC1155/ERC1155.sol\":10356:10369   */\n  tag_10\n    /* \"@openzeppelin/contracts/token/ERC1155/ERC1155.sol\":10363:10369   */\n  dup3\n    /* \"@openzeppelin/contracts/token/ERC1155/ERC1155.sol\":10356:10360   */\n  dup3\n    /* \"@openzeppelin/contracts/token/ERC1155/ERC1155.sol\":10356:10369   */\n  tag_11\n  jump\t// in\ntag_10:\n  pop\n    /* \"@openzeppelin/contracts/token/ERC1155/ERC1155.sol\":10290:10376   */\n  pop\n  jump\t// out\n    /* \"#utility.yul\":14:141   */\ntag_12:\n    /* \"#utility.yul\":75:85   */\n  0x4e487b71\n    /* \"#utility.yul\":70:73   */\n  0xe0\n    /* \"#utility.yul\":66:86   */\n  shl\n    /* \"#utility.yul\":63:64   */\n  0x00\n    /* \"#utility.yul\":56:87   */\n  mstore\n    /* \"#utility.yul\":106:110   */\n  0x41\n    /* \"#utility.yul\":103:104   */\n  0x04\n    /* \"#utility.yul\":96:111   */\n  mstore\n    /* \"#utility.yul\":130:134   */\n  0x24\n    /* \"#utility.yul\":127:128   */\n  0x00\n    /* \"#utility.yul\":120:135   */\n  revert\n    /* \"#utility.yul\":146:526   */\ntag_13:\n    /* \"#utility.yul\":225:226   */\n  0x01\n    /* \"#utility.yul\":221:233   */\n  dup2\n  dup2\n  shr\n  swap1\n    /* \"#utility.yul\":268:280   */\n  dup3\n  and\n  dup1\n    /* \"#utility.yul\":289:350   */\n  tag_20\n  jumpi\n    /* \"#utility.yul\":343:347   */\n  0x7f\n    /* \"#utility.yul\":335:341   */\n  dup3\n    /* \"#utility.yul\":331:348   */\n  and\n    /* \"#utility.yul\":321:348   */\n  swap2\n  pop\n    /* \"#utility.yul\":289:350   */\ntag_20:\n    /* \"#utility.yul\":396:398   */\n  0x20\n    /* \"#utility.yul\":388:394   */\n  dup3\n    /* \"#utility.yul\":385:399   */\n  lt\n    /* \"#utility.yul\":365:383   */\n  dup2\n    /* \"#utility.yul\":362:400   */\n  sub\n    /* \"#utility.yul\":359:520   */\n  tag_21\n  jumpi\n    /* \"#utility.yul\":442:452   */\n  0x4e487b71\n    /* \"#utility.yul\":437:440   */\n  0xe0\n    /* \"#utility.yul\":433:453   */\n  shl\n    /* \"#utility.yul\":430:431   */\n  0x00\n    /* \"#utility.yul\":423:454   */\n  mstore\n    /* \"#utility.yul\":477:481   */\n  0x22\n    /* \"#utility.yul\":474:475   */\n  0x04\n    /* \"#utility.yul\":467:482   */\n  mstore\n    /* \"#utility.yul\":505:509   */\n  0x24\n    /* \"#utility.yul\":502:503   */\n  0x00\n    /* \"#utility.yul\":495:510   */\n  revert\n    /* \"#utility.yul\":359:520   */\ntag_21:\n  pop\n    /* \"#utility.yul\":146:526   */\n  swap2\n  swap1\n  pop\n  jump\t// out\n    /* \"#utility.yul\":657:1175   */\ntag_15:\n    /* \"#utility.yul\":759:761   */\n  0x1f\n    /* \"#utility.yul\":754:757   */\n  dup3\n    /* \"#utility.yul\":751:762   */\n  gt\n    /* \"#utility.yul\":748:1169   */\n  iszero\n  tag_24\n  jumpi\n    /* \"#utility.yul\":795:800   */\n  dup1\n    /* \"#utility.yul\":792:793   */\n  0x00\n    /* \"#utility.yul\":785:801   */\n  mstore\n    /* \"#utility.yul\":839:843   */\n  0x20\n    /* \"#utility.yul\":836:837   */\n  0x00\n    /* \"#utility.yul\":826:844   */\n  keccak256\n    /* \"#utility.yul\":909:911   */\n  0x1f\n    /* \"#utility.yul\":897:907   */\n  dup5\n    /* \"#utility.yul\":893:912   */\n  add\n    /* \"#utility.yul\":890:891   */\n  0x05\n    /* \"#utility.yul\":886:913   */\n  shr\n    /* \"#utility.yul\":880:884   */\n  dup2\n    /* \"#utility.yul\":876:914   */\n  add\n    /* \"#utility.yul\":945:949   */\n  0x20\n    /* \"#utility.yul\":933:943   */\n  dup6\n    /* \"#utility.yul\":930:950   */\n  lt\n    /* \"#utility.yul\":927:974   */\n  iszero\n  tag_25\n  jumpi\n  pop\n    /* \"#utility.yul\":968:972   */\n  dup1\n    /* \"#utility.yul\":927:974   */\ntag_25:\n    /* \"#utility.yul\":1023:1025   */\n  0x1f\n    /* \"#utility.yul\":1018:1021   */\n  dup5\n    /* \"#utility.yul\":1014:1026   */\n  add\n    /* \"#utility.yul\":1011:1012   */\n  0x05\n    /* \"#utility.yul\":1007:1027   */\n  shr\n    /* \"#utility.yul\":1001:1005   */\n  dup3\n    /* \"#utility.yul\":997:1028   */\n  add\n    /* \"#utility.yul\":987:1028   */\n  swap2\n  pop\n    /* \"#utility.yul\":1078:1159   */\ntag_26:\n    /* \"#utility.yul\":1096:1098   */\n  dup2\n    /* \"#utility.yul\":1089:1094   */\n  dup2\n    /* \"#utility.yul\":1086:1099   */\n  lt\n    /* \"#utility.yul\":1078:1159   */\n  iszero\n  tag_28\n  jumpi\n    /* \"#utility.yul\":1155:1156   */\n  0x00\n    /* \"#utility.yul\":1141:1157   */\n  dup2\n  sstore\n    /* \"#utility.yul\":1122:1123   */\n  0x01\n    /* \"#utility.yul\":1111:1124   */\n  add\n    /* \"#utility.yul\":1078:1159   */\n  jump(tag_26)\ntag_28:\n    /* \"#utility.yul\":1082:1085   */\n  pop\n  pop\n    /* \"#utility.yul\":748:1169   */\ntag_24:\n    /* \"#utility.yul\":657:1175   */\n  pop\n  pop\n  pop\n  jump\t// out\n    /* \"#utility.yul\":1351:2696   */\ntag_11:\n    /* \"#utility.yul\":1471:1481   */\n  dup2\n  mload\n  sub(shl(0x40, 0x01), 0x01)\n    /* \"#utility.yul\":1493:1523   */\n  dup2\n  gt\n    /* \"#utility.yul\":1490:1546   */\n  iszero\n  tag_32\n  jumpi\n    /* \"#utility.yul\":1526:1544   */\n  tag_32\n  tag_12\n  jump\t// in\ntag_32:\n    /* \"#utility.yul\":1555:1652   */\n  tag_33\n    /* \"#utility.yul\":1645:1651   */\n  dup2\n    /* \"#utility.yul\":1605:1643   */\n  tag_34\n    /* \"#utility.yul\":1637:1641   */\n  dup5\n    /* \"#utility.yul\":1631:1642   */\n  sload\n    /* \"#utility.yul\":1605:1643   */\n  tag_13\n  jump\t// in\ntag_34:\n    /* \"#utility.yul\":1599:1603   */\n  dup5\n    /* \"#utility.yul\":1555:1652   */\n  tag_15\n  jump\t// in\ntag_33:\n    /* \"#utility.yul\":1707:1711   */\n  0x20\n  dup1\n    /* \"#utility.yul\":1764:1766   */\n  0x1f\n    /* \"#utility.yul\":1753:1767   */\n  dup4\n  gt\n    /* \"#utility.yul\":1781:1782   */\n  0x01\n    /* \"#utility.yul\":1776:2439   */\n  dup2\n  eq\n  tag_36\n  jumpi\n    /* \"#utility.yul\":2483:2484   */\n  0x00\n    /* \"#utility.yul\":2500:2506   */\n  dup5\n    /* \"#utility.yul\":2497:2586   */\n  iszero\n  tag_37\n  jumpi\n  pop\n    /* \"#utility.yul\":2552:2571   */\n  dup6\n  dup4\n  add\n    /* \"#utility.yul\":2546:2572   */\n  mload\n    /* \"#utility.yul\":2497:2586   */\ntag_37:\n  not(0x00)\n    /* \"#utility.yul\":1308:1309   */\n  0x03\n    /* \"#utility.yul\":1304:1315   */\n  dup7\n  swap1\n  shl\n    /* \"#utility.yul\":1300:1324   */\n  shr\n    /* \"#utility.yul\":1296:1325   */\n  not\n    /* \"#utility.yul\":1286:1326   */\n  and\n    /* \"#utility.yul\":1332:1333   */\n  0x01\n    /* \"#utility.yul\":1328:1339   */\n  dup6\n  swap1\n  shl\n    /* \"#utility.yul\":1283:1340   */\n  or\n    /* \"#utility.yul\":2599:2680   */\n  dup6\n  sstore\n    /* \"#utility.yul\":1746:2690   */\n  jump(tag_35)\n    /* \"#utility.yul\":1776:2439   */\ntag_36:\n    /* \"#utility.yul\":604:605   */\n  0x00\n    /* \"#utility.yul\":597:611   */\n  dup6\n  dup2\n  mstore\n    /* \"#utility.yul\":641:645   */\n  0x20\n    /* \"#utility.yul\":628:646   */\n  dup2\n  keccak256\n  not(0x1f)\n    /* \"#utility.yul\":1812:1832   */\n  dup7\n  and\n  swap2\n    /* \"#utility.yul\":1930:2166   */\ntag_40:\n    /* \"#utility.yul\":1944:1951   */\n  dup3\n    /* \"#utility.yul\":1941:1942   */\n  dup2\n    /* \"#utility.yul\":1938:1952   */\n  lt\n    /* \"#utility.yul\":1930:2166   */\n  iszero\n  tag_42\n  jumpi\n    /* \"#utility.yul\":2033:2052   */\n  dup9\n  dup7\n  add\n    /* \"#utility.yul\":2027:2053   */\n  mload\n    /* \"#utility.yul\":2012:2054   */\n  dup3\n  sstore\n    /* \"#utility.yul\":2125:2152   */\n  swap5\n  dup5\n  add\n  swap5\n    /* \"#utility.yul\":2093:2094   */\n  0x01\n    /* \"#utility.yul\":2081:2095   */\n  swap1\n  swap2\n  add\n  swap1\n    /* \"#utility.yul\":1960:1979   */\n  dup5\n  add\n    /* \"#utility.yul\":1930:2166   */\n  jump(tag_40)\ntag_42:\n    /* \"#utility.yul\":1934:1937   */\n  pop\n    /* \"#utility.yul\":2194:2200   */\n  dup6\n    /* \"#utility.yul\":2185:2192   */\n  dup3\n    /* \"#utility.yul\":2182:2201   */\n  lt\n    /* \"#utility.yul\":2179:2380   */\n  iszero\n  tag_43\n  jumpi\n    /* \"#utility.yul\":2255:2274   */\n  dup8\n  dup6\n  add\n    /* \"#utility.yul\":2249:2275   */\n  mload\n  not(0x00)\n    /* \"#utility.yul\":2338:2339   */\n  0x03\n    /* \"#utility.yul\":2334:2348   */\n  dup9\n  swap1\n  shl\n    /* \"#utility.yul\":2350:2353   */\n  0xf8\n    /* \"#utility.yul\":2330:2354   */\n  and\n    /* \"#utility.yul\":2326:2363   */\n  shr\n    /* \"#utility.yul\":2322:2364   */\n  not\n    /* \"#utility.yul\":2307:2365   */\n  and\n    /* \"#utility.yul\":2292:2366   */\n  dup2\n  sstore\n    /* \"#utility.yul\":2179:2380   */\ntag_43:\n  pop\n  pop\n    /* \"#utility.yul\":2426:2427   */\n  0x01\n    /* \"#utility.yul\":2417:2423   */\n  dup5\n    /* \"#utility.yul\":2414:2415   */\n  0x01\n    /* \"#utility.yul\":2410:2424   */\n  shl\n    /* \"#utility.yul\":2406:2428   */\n  add\n    /* \"#utility.yul\":2400:2404   */\n  dup6\n    /* \"#utility.yul\":2393:2429   */\n  sstore\n    /* \"#utility.yul\":1746:2690   */\ntag_35:\n  pop\n  pop\n  pop\n  pop\n    /* \"#utility.yul\":1351:2696   */\n  pop\n  pop\n  jump\t// out\ntag_17:\n    /* \"ConditionalTokens.sol\":415:16173  contract ConditionalTokens is ERC1155 {... */\n  dataSize(sub_0)\n  dup1\n  dataOffset(sub_0)\n  0x00\n  codecopy\n  0x00\n  return\nstop\n\nsub_0: assembly {\n        /* \"ConditionalTokens.sol\":415:16173  contract ConditionalTokens is ERC1155 {... */\n      mstore(0x40, 0x80)\n      callvalue\n      dup1\n      iszero\n      tag_1\n      jumpi\n      0x00\n      dup1\n      revert\n    tag_1:\n      pop\n      jumpi(tag_2, lt(calldatasize, 0x04))\n      shr(0xe0, calldataload(0x00))\n      dup1\n      0x852c6ae2\n      gt\n      tag_22\n      jumpi\n      dup1\n      0xd42dc0c2\n      gt\n      tag_23\n      jumpi\n      dup1\n      0xdd34de67\n      gt\n      tag_24\n      jumpi\n      dup1\n      0xdd34de67\n      eq\n      tag_19\n      jumpi\n      dup1\n      0xe985e9c5\n      eq\n      tag_20\n      jumpi\n      dup1\n      0xf242432a\n      eq\n      tag_21\n      jumpi\n      0x00\n      dup1\n      revert\n    tag_24:\n      dup1\n      0xd42dc0c2\n      eq\n      tag_17\n      jumpi\n      dup1\n      0xd96ee754\n      eq\n      tag_18\n      jumpi\n      0x00\n      dup1\n      revert\n    tag_23:\n      dup1\n      0x9e7212ad\n      gt\n      tag_25\n      jumpi\n      dup1\n      0x9e7212ad\n      eq\n      tag_14\n      jumpi\n      dup1\n      0xa22cb465\n      eq\n      tag_15\n      jumpi\n      dup1\n      0xc49298ac\n      eq\n      tag_16\n      jumpi\n      0x00\n      dup1\n      revert\n    tag_25:\n      dup1\n      0x852c6ae2\n      eq\n      tag_12\n      jumpi\n      dup1\n      0x856296f7\n      eq\n      tag_13\n      jumpi\n      0x00\n      dup1\n      revert\n    tag_22:\n      dup1\n      0x0e89341c\n      gt\n      tag_26\n      jumpi\n      dup1\n      0x39dd7530\n      gt\n      tag_27\n      jumpi\n      dup1\n      0x39dd7530\n      eq\n      tag_9\n      jumpi\n      dup1\n      0x4e1273f4\n      eq\n      tag_10\n      jumpi\n      dup1\n      0x72ce4275\n      eq\n      tag_11\n      jumpi\n      0x00\n      dup1\n      revert\n    tag_27:\n      dup1\n      0x0e89341c\n      eq\n      tag_7\n      jumpi\n      dup1\n      0x2eb2c2d6\n      eq\n      tag_8\n      jumpi\n      0x00\n      dup1\n      revert\n    tag_26:\n      dup1\n      0xfdd58e\n      eq\n      tag_3\n      jumpi\n      dup1\n      0x01b7037c\n      eq\n      tag_4\n      jumpi\n      dup1\n      0x01ffc9a7\n      eq\n      tag_5\n      jumpi\n      dup1\n      0x0504c814\n      eq\n      tag_6\n      jumpi\n    tag_2:\n      0x00\n      dup1\n      revert\n        /* \"@openzeppelin/contracts/token/ERC1155/ERC1155.sol\":2245:2377   */\n    tag_3:\n      tag_28\n      tag_29\n      calldatasize\n      0x04\n      tag_30\n      jump\t// in\n    tag_29:\n      tag_31\n      jump\t// in\n    tag_28:\n      mload(0x40)\n        /* \"#utility.yul\":639:664   */\n      swap1\n      dup2\n      mstore\n        /* \"#utility.yul\":627:629   */\n      0x20\n        /* \"#utility.yul\":612:630   */\n      add\n        /* \"@openzeppelin/contracts/token/ERC1155/ERC1155.sol\":2245:2377   */\n    tag_32:\n      mload(0x40)\n      dup1\n      swap2\n      sub\n      swap1\n      return\n        /* \"ConditionalTokens.sol\":12174:14029  function redeemPositions(IERC20 collateralToken, bytes32 parentCollectionId, bytes32 conditionId, uint[] calldata indexSets) external {... */\n    tag_4:\n      tag_34\n      tag_35\n      calldatasize\n      0x04\n      tag_36\n      jump\t// in\n    tag_35:\n      tag_37\n      jump\t// in\n    tag_34:\n      stop\n        /* \"@openzeppelin/contracts/token/ERC1155/ERC1155.sol\":1378:1683   */\n    tag_5:\n      tag_38\n      tag_39\n      calldatasize\n      0x04\n      tag_40\n      jump\t// in\n    tag_39:\n      tag_41\n      jump\t// in\n    tag_38:\n      mload(0x40)\n        /* \"#utility.yul\":2327:2341   */\n      swap1\n      iszero\n        /* \"#utility.yul\":2320:2342   */\n      iszero\n        /* \"#utility.yul\":2302:2343   */\n      dup2\n      mstore\n        /* \"#utility.yul\":2290:2292   */\n      0x20\n        /* \"#utility.yul\":2275:2293   */\n      add\n        /* \"@openzeppelin/contracts/token/ERC1155/ERC1155.sol\":1378:1683   */\n      tag_32\n        /* \"#utility.yul\":2162:2349   */\n      jump\n        /* \"ConditionalTokens.sol\":3114:3164  mapping(bytes32 => uint[]) public payoutNumerators */\n    tag_6:\n      tag_28\n      tag_45\n      calldatasize\n      0x04\n      tag_46\n      jump\t// in\n    tag_45:\n      tag_47\n      jump\t// in\n        /* \"@openzeppelin/contracts/token/ERC1155/ERC1155.sol\":2082:2185   */\n    tag_7:\n      tag_49\n      tag_50\n      calldatasize\n      0x04\n      tag_51\n      jump\t// in\n    tag_50:\n      tag_52\n      jump\t// in\n    tag_49:\n      mload(0x40)\n      tag_32\n      swap2\n      swap1\n      tag_54\n      jump\t// in\n        /* \"@openzeppelin/contracts/token/ERC1155/ERC1155.sol\":4012:4441   */\n    tag_8:\n      tag_34\n      tag_56\n      calldatasize\n      0x04\n      tag_57\n      jump\t// in\n    tag_56:\n      tag_58\n      jump\t// in\n        /* \"ConditionalTokens.sol\":15995:16171  function getPositionId(IERC20 collateralToken, bytes32 collectionId) external pure returns (uint) {... */\n    tag_9:\n      tag_28\n      tag_60\n      calldatasize\n      0x04\n      tag_30\n      jump\t// in\n    tag_60:\n      tag_62\n      jump\t// in\n        /* \"@openzeppelin/contracts/token/ERC1155/ERC1155.sol\":2534:3086   */\n    tag_10:\n      tag_64\n      tag_65\n      calldatasize\n      0x04\n      tag_66\n      jump\t// in\n    tag_65:\n      tag_67\n      jump\t// in\n    tag_64:\n      mload(0x40)\n      tag_32\n      swap2\n      swap1\n      tag_69\n      jump\t// in\n        /* \"ConditionalTokens.sol\":9442:12168  function splitPosition(... */\n    tag_11:\n      tag_34\n      tag_71\n      calldatasize\n      0x04\n      tag_72\n      jump\t// in\n    tag_71:\n      tag_73\n      jump\t// in\n        /* \"ConditionalTokens.sol\":15480:15681  function getConditionId(address oracle, bytes32 questionId, uint outcomeSlotCount) external pure returns (bytes32) {... */\n    tag_12:\n      tag_28\n      tag_75\n      calldatasize\n      0x04\n      tag_76\n      jump\t// in\n    tag_75:\n      tag_77\n      jump\t// in\n        /* \"ConditionalTokens.sol\":14841:15054  function getCollectionId(bytes32 parentCollectionId, bytes32 conditionId, uint indexSet) external view returns (bytes32) {... */\n    tag_13:\n      tag_28\n      tag_81\n      calldatasize\n      0x04\n      tag_82\n      jump\t// in\n    tag_81:\n      tag_83\n      jump\t// in\n        /* \"ConditionalTokens.sol\":6021:8100  function mergePositions(... */\n    tag_14:\n      tag_34\n      tag_86\n      calldatasize\n      0x04\n      tag_72\n      jump\t// in\n    tag_86:\n      tag_87\n      jump\t// in\n        /* \"@openzeppelin/contracts/token/ERC1155/ERC1155.sol\":3154:3298   */\n    tag_15:\n      tag_34\n      tag_89\n      calldatasize\n      0x04\n      tag_90\n      jump\t// in\n    tag_89:\n      tag_91\n      jump\t// in\n        /* \"ConditionalTokens.sol\":4895:6015  function reportPayouts(bytes32 questionId, uint[] calldata payouts) external {... */\n    tag_16:\n      tag_34\n      tag_93\n      calldatasize\n      0x04\n      tag_94\n      jump\t// in\n    tag_93:\n      tag_95\n      jump\t// in\n        /* \"ConditionalTokens.sol\":14257:14396  function getOutcomeSlotCount(bytes32 conditionId) external view returns (uint) {... */\n    tag_17:\n      tag_28\n      tag_97\n      calldatasize\n      0x04\n      tag_51\n      jump\t// in\n    tag_97:\n        /* \"ConditionalTokens.sol\":14330:14334  uint */\n      0x00\n        /* \"ConditionalTokens.sol\":14353:14382  payoutNumerators[conditionId] */\n      swap1\n      dup2\n      mstore\n        /* \"ConditionalTokens.sol\":14353:14369  payoutNumerators */\n      0x04\n        /* \"ConditionalTokens.sol\":14353:14382  payoutNumerators[conditionId] */\n      0x20\n      mstore\n      0x40\n      swap1\n      keccak256\n        /* \"ConditionalTokens.sol\":14353:14389  payoutNumerators[conditionId].length */\n      sload\n      swap1\n        /* \"ConditionalTokens.sol\":14257:14396  function getOutcomeSlotCount(bytes32 conditionId) external view returns (uint) {... */\n      jump\n        /* \"ConditionalTokens.sol\":3669:4350  function prepareCondition(address oracle, bytes32 questionId, uint outcomeSlotCount) external {... */\n    tag_18:\n      tag_34\n      tag_102\n      calldatasize\n      0x04\n      tag_76\n      jump\t// in\n    tag_102:\n      tag_103\n      jump\t// in\n        /* \"ConditionalTokens.sol\":2454:2503  mapping(bytes32 => uint) public payoutDenominator */\n    tag_19:\n      tag_28\n      tag_105\n      calldatasize\n      0x04\n      tag_51\n      jump\t// in\n    tag_105:\n      mstore(0x20, 0x03)\n      0x00\n      swap1\n      dup2\n      mstore\n      0x40\n      swap1\n      keccak256\n      sload\n      dup2\n      jump\n        /* \"@openzeppelin/contracts/token/ERC1155/ERC1155.sol\":3365:3522   */\n    tag_20:\n      tag_38\n      tag_109\n      calldatasize\n      0x04\n      tag_110\n      jump\t// in\n    tag_109:\n      sub(shl(0xa0, 0x01), 0x01)\n        /* \"@openzeppelin/contracts/token/ERC1155/ERC1155.sol\":3478:3505   */\n      swap2\n      dup3\n      and\n        /* \"@openzeppelin/contracts/token/ERC1155/ERC1155.sol\":3455:3459   */\n      0x00\n        /* \"@openzeppelin/contracts/token/ERC1155/ERC1155.sol\":3478:3505   */\n      swap1\n      dup2\n      mstore\n        /* \"@openzeppelin/contracts/token/ERC1155/ERC1155.sol\":3478:3496   */\n      0x01\n        /* \"@openzeppelin/contracts/token/ERC1155/ERC1155.sol\":3478:3505   */\n      0x20\n      swap1\n      dup2\n      mstore\n      0x40\n      dup1\n      dup4\n      keccak256\n        /* \"@openzeppelin/contracts/token/ERC1155/ERC1155.sol\":3478:3515   */\n      swap4\n      swap1\n      swap5\n      and\n      dup3\n      mstore\n      swap2\n      swap1\n      swap2\n      mstore\n      keccak256\n      sload\n      0xff\n      and\n      swap1\n        /* \"@openzeppelin/contracts/token/ERC1155/ERC1155.sol\":3365:3522   */\n      jump\n        /* \"@openzeppelin/contracts/token/ERC1155/ERC1155.sol\":3589:3940   */\n    tag_21:\n      tag_34\n      tag_114\n      calldatasize\n      0x04\n      tag_115\n      jump\t// in\n    tag_114:\n      tag_116\n      jump\t// in\n        /* \"@openzeppelin/contracts/token/ERC1155/ERC1155.sol\":2245:2377   */\n    tag_31:\n        /* \"@openzeppelin/contracts/token/ERC1155/ERC1155.sol\":2322:2329   */\n      0x00\n        /* \"@openzeppelin/contracts/token/ERC1155/ERC1155.sol\":2348:2361   */\n      dup2\n      dup2\n      mstore\n      0x20\n      dup2\n      dup2\n      mstore\n      0x40\n      dup1\n      dup4\n      keccak256\n      sub(shl(0xa0, 0x01), 0x01)\n        /* \"@openzeppelin/contracts/token/ERC1155/ERC1155.sol\":2348:2370   */\n      dup7\n      and\n      dup5\n      mstore\n      swap1\n      swap2\n      mstore\n      swap1\n      keccak256\n      sload\n        /* \"@openzeppelin/contracts/token/ERC1155/ERC1155.sol\":2245:2377   */\n    tag_117:\n      swap3\n      swap2\n      pop\n      pop\n      jump\t// out\n        /* \"ConditionalTokens.sol\":12174:14029  function redeemPositions(IERC20 collateralToken, bytes32 parentCollectionId, bytes32 conditionId, uint[] calldata indexSets) external {... */\n    tag_37:\n        /* \"ConditionalTokens.sol\":12318:12326  uint den */\n      0x00\n        /* \"ConditionalTokens.sol\":12329:12359  payoutDenominator[conditionId] */\n      dup4\n      dup2\n      mstore\n        /* \"ConditionalTokens.sol\":12329:12346  payoutDenominator */\n      0x03\n        /* \"ConditionalTokens.sol\":12329:12359  payoutDenominator[conditionId] */\n      0x20\n      mstore\n      0x40\n      swap1\n      keccak256\n      sload\n        /* \"ConditionalTokens.sol\":12377:12384  den > 0 */\n      dup1\n        /* \"ConditionalTokens.sol\":12369:12426  require(den > 0, \"result for condition not received yet\") */\n      tag_119\n      jumpi\n      mload(0x40)\n      shl(0xe5, 0x461bcd)\n      dup2\n      mstore\n        /* \"#utility.yul\":12688:12690   */\n      0x20\n        /* \"ConditionalTokens.sol\":12369:12426  require(den > 0, \"result for condition not received yet\") */\n      0x04\n      dup3\n      add\n        /* \"#utility.yul\":12670:12691   */\n      mstore\n        /* \"#utility.yul\":12727:12729   */\n      0x25\n        /* \"#utility.yul\":12707:12725   */\n      0x24\n      dup3\n      add\n        /* \"#utility.yul\":12700:12730   */\n      mstore\n        /* \"#utility.yul\":12766:12800   */\n      0x726573756c7420666f7220636f6e646974696f6e206e6f742072656365697665\n        /* \"#utility.yul\":12746:12764   */\n      0x44\n      dup3\n      add\n        /* \"#utility.yul\":12739:12801   */\n      mstore\n        /* \"#utility.yul\":12837:12844   */\n      0x6420796574000000000000000000000000000000000000000000000000000000\n        /* \"#utility.yul\":12817:12835   */\n      0x64\n      dup3\n      add\n        /* \"#utility.yul\":12810:12845   */\n      mstore\n        /* \"#utility.yul\":12862:12881   */\n      0x84\n      add\n        /* \"ConditionalTokens.sol\":12369:12426  require(den > 0, \"result for condition not received yet\") */\n    tag_120:\n      mload(0x40)\n      dup1\n      swap2\n      sub\n      swap1\n      revert\n    tag_119:\n        /* \"ConditionalTokens.sol\":12436:12457  uint outcomeSlotCount */\n      0x00\n        /* \"ConditionalTokens.sol\":12460:12489  payoutNumerators[conditionId] */\n      dup5\n      dup2\n      mstore\n        /* \"ConditionalTokens.sol\":12460:12476  payoutNumerators */\n      0x04\n        /* \"ConditionalTokens.sol\":12460:12489  payoutNumerators[conditionId] */\n      0x20\n      mstore\n      0x40\n      swap1\n      keccak256\n        /* \"ConditionalTokens.sol\":12460:12496  payoutNumerators[conditionId].length */\n      sload\n        /* \"ConditionalTokens.sol\":12514:12534  outcomeSlotCount > 0 */\n      dup1\n        /* \"ConditionalTokens.sol\":12506:12565  require(outcomeSlotCount > 0, \"condition not prepared yet\") */\n      tag_122\n      jumpi\n      mload(0x40)\n      shl(0xe5, 0x461bcd)\n      dup2\n      mstore\n        /* \"#utility.yul\":13094:13096   */\n      0x20\n        /* \"ConditionalTokens.sol\":12506:12565  require(outcomeSlotCount > 0, \"condition not prepared yet\") */\n      0x04\n      dup3\n      add\n        /* \"#utility.yul\":13076:13097   */\n      mstore\n        /* \"#utility.yul\":13133:13135   */\n      0x1a\n        /* \"#utility.yul\":13113:13131   */\n      0x24\n      dup3\n      add\n        /* \"#utility.yul\":13106:13136   */\n      mstore\n        /* \"#utility.yul\":13172:13200   */\n      0x636f6e646974696f6e206e6f7420707265706172656420796574000000000000\n        /* \"#utility.yul\":13152:13170   */\n      0x44\n      dup3\n      add\n        /* \"#utility.yul\":13145:13201   */\n      mstore\n        /* \"#utility.yul\":13218:13236   */\n      0x64\n      add\n        /* \"ConditionalTokens.sol\":12506:12565  require(outcomeSlotCount > 0, \"condition not prepared yet\") */\n      tag_120\n        /* \"#utility.yul\":12892:13242   */\n      jump\n        /* \"ConditionalTokens.sol\":12506:12565  require(outcomeSlotCount > 0, \"condition not prepared yet\") */\n    tag_122:\n        /* \"ConditionalTokens.sol\":12576:12592  uint totalPayout */\n      0x00\n      dup1\n        /* \"ConditionalTokens.sol\":12627:12654  (1 << outcomeSlotCount) - 1 */\n      tag_125\n        /* \"ConditionalTokens.sol\":12653:12654  1 */\n      0x01\n        /* \"ConditionalTokens.sol\":12628:12649  1 << outcomeSlotCount */\n      dup1\n      dup6\n      shl\n        /* \"ConditionalTokens.sol\":12627:12654  (1 << outcomeSlotCount) - 1 */\n      tag_126\n      jump\t// in\n    tag_125:\n        /* \"ConditionalTokens.sol\":12607:12654  uint fullIndexSet = (1 << outcomeSlotCount) - 1 */\n      swap1\n      pop\n        /* \"ConditionalTokens.sol\":12669:12675  uint i */\n      0x00\n        /* \"ConditionalTokens.sol\":12664:13540  for (uint i = 0; i < indexSets.length; i++) {... */\n    tag_127:\n        /* \"ConditionalTokens.sol\":12681:12701  i < indexSets.length */\n      dup6\n      dup2\n      lt\n        /* \"ConditionalTokens.sol\":12664:13540  for (uint i = 0; i < indexSets.length; i++) {... */\n      iszero\n      tag_128\n      jumpi\n        /* \"ConditionalTokens.sol\":12722:12735  uint indexSet */\n      0x00\n        /* \"ConditionalTokens.sol\":12738:12747  indexSets */\n      dup8\n      dup8\n        /* \"ConditionalTokens.sol\":12748:12749  i */\n      dup4\n        /* \"ConditionalTokens.sol\":12738:12750  indexSets[i] */\n      dup2\n      dup2\n      lt\n      tag_131\n      jumpi\n      tag_131\n      tag_132\n      jump\t// in\n    tag_131:\n      swap1\n      pop\n      0x20\n      mul\n      add\n      calldataload\n        /* \"ConditionalTokens.sol\":12722:12750  uint indexSet = indexSets[i] */\n      swap1\n      pop\n        /* \"ConditionalTokens.sol\":12783:12784  0 */\n      0x00\n        /* \"ConditionalTokens.sol\":12772:12780  indexSet */\n      dup2\n        /* \"ConditionalTokens.sol\":12772:12784  indexSet > 0 */\n      gt\n        /* \"ConditionalTokens.sol\":12772:12811  indexSet > 0 && indexSet < fullIndexSet */\n      dup1\n      iszero\n      tag_133\n      jumpi\n      pop\n        /* \"ConditionalTokens.sol\":12799:12811  fullIndexSet */\n      dup3\n        /* \"ConditionalTokens.sol\":12788:12796  indexSet */\n      dup2\n        /* \"ConditionalTokens.sol\":12788:12811  indexSet < fullIndexSet */\n      lt\n        /* \"ConditionalTokens.sol\":12772:12811  indexSet > 0 && indexSet < fullIndexSet */\n    tag_133:\n        /* \"ConditionalTokens.sol\":12764:12839  require(indexSet > 0 && indexSet < fullIndexSet, \"got invalid index set 3\") */\n      tag_134\n      jumpi\n      mload(0x40)\n      shl(0xe5, 0x461bcd)\n      dup2\n      mstore\n        /* \"#utility.yul\":13846:13848   */\n      0x20\n        /* \"ConditionalTokens.sol\":12764:12839  require(indexSet > 0 && indexSet < fullIndexSet, \"got invalid index set 3\") */\n      0x04\n      dup3\n      add\n        /* \"#utility.yul\":13828:13849   */\n      mstore\n        /* \"#utility.yul\":13885:13887   */\n      0x17\n        /* \"#utility.yul\":13865:13883   */\n      0x24\n      dup3\n      add\n        /* \"#utility.yul\":13858:13888   */\n      mstore\n        /* \"#utility.yul\":13924:13949   */\n      0x676f7420696e76616c696420696e646578207365742033000000000000000000\n        /* \"#utility.yul\":13904:13922   */\n      0x44\n      dup3\n      add\n        /* \"#utility.yul\":13897:13950   */\n      mstore\n        /* \"#utility.yul\":13967:13985   */\n      0x64\n      add\n        /* \"ConditionalTokens.sol\":12764:12839  require(indexSet > 0 && indexSet < fullIndexSet, \"got invalid index set 3\") */\n      tag_120\n        /* \"#utility.yul\":13644:13991   */\n      jump\n        /* \"ConditionalTokens.sol\":12764:12839  require(indexSet > 0 && indexSet < fullIndexSet, \"got invalid index set 3\") */\n    tag_134:\n        /* \"ConditionalTokens.sol\":12853:12868  uint positionId */\n      0x00\n        /* \"ConditionalTokens.sol\":12871:12997  CTHelpers.getPositionId(collateralToken,... */\n      tag_137\n        /* \"ConditionalTokens.sol\":12895:12910  collateralToken */\n      dup13\n        /* \"ConditionalTokens.sol\":12928:12996  CTHelpers.getCollectionId(parentCollectionId, conditionId, indexSet) */\n      tag_138\n        /* \"ConditionalTokens.sol\":12954:12972  parentCollectionId */\n      dup14\n        /* \"ConditionalTokens.sol\":12974:12985  conditionId */\n      dup14\n        /* \"ConditionalTokens.sol\":12987:12995  indexSet */\n      dup7\n        /* \"ConditionalTokens.sol\":12928:12953  CTHelpers.getCollectionId */\n      tag_139\n        /* \"ConditionalTokens.sol\":12928:12996  CTHelpers.getCollectionId(parentCollectionId, conditionId, indexSet) */\n      jump\t// in\n    tag_138:\n        /* \"CTHelpers.sol\":18386:18433  abi.encodePacked(collateralToken, collectionId) */\n      mload(0x40)\n      not(0xffffffffffffffffffffffff)\n        /* \"#utility.yul\":25855:25857   */\n      0x60\n        /* \"#utility.yul\":25851:25866   */\n      dup5\n      swap1\n      shl\n        /* \"#utility.yul\":25847:25900   */\n      and\n        /* \"CTHelpers.sol\":18386:18433  abi.encodePacked(collateralToken, collectionId) */\n      0x20\n      dup3\n      add\n        /* \"#utility.yul\":25835:25901   */\n      mstore\n        /* \"#utility.yul\":25917:25929   */\n      0x34\n      dup2\n      add\n        /* \"#utility.yul\":25910:25938   */\n      dup3\n      swap1\n      mstore\n        /* \"CTHelpers.sol\":18348:18352  uint */\n      0x00\n      swap1\n        /* \"#utility.yul\":25954:25966   */\n      0x54\n      add\n        /* \"CTHelpers.sol\":18386:18433  abi.encodePacked(collateralToken, collectionId) */\n      0x40\n      dup1\n      mload\n      not(0x1f)\n      dup2\n      dup5\n      sub\n      add\n      dup2\n      mstore\n      swap2\n      swap1\n      mstore\n        /* \"CTHelpers.sol\":18376:18434  keccak256(abi.encodePacked(collateralToken, collectionId)) */\n      dup1\n      mload\n        /* \"CTHelpers.sol\":18386:18433  abi.encodePacked(collateralToken, collectionId) */\n      0x20\n        /* \"CTHelpers.sol\":18376:18434  keccak256(abi.encodePacked(collateralToken, collectionId)) */\n      swap1\n      swap2\n      add\n      keccak256\n      swap4\n        /* \"CTHelpers.sol\":18256:18442  function getPositionId(IERC20 collateralToken, bytes32 collectionId) internal pure returns (uint) {... */\n      swap3\n      pop\n      pop\n      pop\n      jump\n        /* \"ConditionalTokens.sol\":12871:12997  CTHelpers.getPositionId(collateralToken,... */\n    tag_137:\n        /* \"ConditionalTokens.sol\":12853:12997  uint positionId = CTHelpers.getPositionId(collateralToken,... */\n      swap1\n      pop\n        /* \"ConditionalTokens.sol\":13012:13032  uint payoutNumerator */\n      0x00\n        /* \"ConditionalTokens.sol\":13055:13061  uint j */\n      dup1\n        /* \"ConditionalTokens.sol\":13050:13267  for (uint j = 0; j < outcomeSlotCount; j++) {... */\n    tag_141:\n        /* \"ConditionalTokens.sol\":13071:13087  outcomeSlotCount */\n      dup8\n        /* \"ConditionalTokens.sol\":13067:13068  j */\n      dup2\n        /* \"ConditionalTokens.sol\":13067:13087  j < outcomeSlotCount */\n      lt\n        /* \"ConditionalTokens.sol\":13050:13267  for (uint j = 0; j < outcomeSlotCount; j++) {... */\n      iszero\n      tag_142\n      jumpi\n        /* \"ConditionalTokens.sol\":13128:13129  1 */\n      0x01\n        /* \"ConditionalTokens.sol\":13128:13134  1 << j */\n      dup2\n      shl\n        /* \"ConditionalTokens.sol\":13116:13135  indexSet & (1 << j) */\n      dup5\n      and\n        /* \"ConditionalTokens.sol\":13116:13140  indexSet & (1 << j) != 0 */\n      iszero\n        /* \"ConditionalTokens.sol\":13112:13253  if (indexSet & (1 << j) != 0) {... */\n      tag_144\n      jumpi\n        /* \"ConditionalTokens.sol\":13201:13230  payoutNumerators[conditionId] */\n      0x00\n      dup13\n      dup2\n      mstore\n        /* \"ConditionalTokens.sol\":13201:13217  payoutNumerators */\n      0x04\n        /* \"ConditionalTokens.sol\":13201:13230  payoutNumerators[conditionId] */\n      0x20\n      mstore\n      0x40\n      swap1\n      keccak256\n        /* \"ConditionalTokens.sol\":13201:13233  payoutNumerators[conditionId][j] */\n      dup1\n      sload\n        /* \"ConditionalTokens.sol\":13231:13232  j */\n      dup3\n      swap1\n        /* \"ConditionalTokens.sol\":13201:13233  payoutNumerators[conditionId][j] */\n      dup2\n      lt\n      tag_146\n      jumpi\n      tag_146\n      tag_132\n      jump\t// in\n    tag_146:\n      swap1\n      0x00\n      mstore\n      keccak256(0x00, 0x20)\n      add\n      sload\n        /* \"ConditionalTokens.sol\":13182:13197  payoutNumerator */\n      dup3\n        /* \"ConditionalTokens.sol\":13182:13234  payoutNumerator + (payoutNumerators[conditionId][j]) */\n      tag_148\n      swap2\n      swap1\n      tag_149\n      jump\t// in\n    tag_148:\n        /* \"ConditionalTokens.sol\":13164:13234  payoutNumerator = payoutNumerator + (payoutNumerators[conditionId][j]) */\n      swap2\n      pop\n        /* \"ConditionalTokens.sol\":13112:13253  if (indexSet & (1 << j) != 0) {... */\n    tag_144:\n        /* \"ConditionalTokens.sol\":13089:13092  j++ */\n      0x01\n      add\n        /* \"ConditionalTokens.sol\":13050:13267  for (uint j = 0; j < outcomeSlotCount; j++) {... */\n      jump(tag_141)\n    tag_142:\n      pop\n        /* \"ConditionalTokens.sol\":13281:13297  uint payoutStake */\n      0x00\n        /* \"ConditionalTokens.sol\":13300:13333  balanceOf(msg.sender, positionId) */\n      tag_150\n        /* \"ConditionalTokens.sol\":13310:13320  msg.sender */\n      caller\n        /* \"ConditionalTokens.sol\":13322:13332  positionId */\n      dup5\n        /* \"ConditionalTokens.sol\":13300:13309  balanceOf */\n      tag_31\n        /* \"ConditionalTokens.sol\":13300:13333  balanceOf(msg.sender, positionId) */\n      jump\t// in\n    tag_150:\n        /* \"ConditionalTokens.sol\":13281:13333  uint payoutStake = balanceOf(msg.sender, positionId) */\n      swap1\n      pop\n        /* \"ConditionalTokens.sol\":13351:13366  payoutStake > 0 */\n      dup1\n      iszero\n        /* \"ConditionalTokens.sol\":13347:13530  if (payoutStake > 0) {... */\n      tag_157\n      jumpi\n        /* \"ConditionalTokens.sol\":13430:13453  payoutNumerator / (den) */\n      tag_152\n        /* \"ConditionalTokens.sol\":13449:13452  den */\n      dup10\n        /* \"ConditionalTokens.sol\":13430:13445  payoutNumerator */\n      dup4\n        /* \"ConditionalTokens.sol\":13430:13453  payoutNumerator / (den) */\n      tag_153\n      jump\t// in\n    tag_152:\n        /* \"ConditionalTokens.sol\":13415:13454  payoutStake * (payoutNumerator / (den)) */\n      tag_154\n      swap1\n        /* \"ConditionalTokens.sol\":13415:13426  payoutStake */\n      dup3\n        /* \"ConditionalTokens.sol\":13415:13454  payoutStake * (payoutNumerator / (den)) */\n      tag_155\n      jump\t// in\n    tag_154:\n        /* \"ConditionalTokens.sol\":13400:13455  totalPayout + (payoutStake * (payoutNumerator / (den))) */\n      tag_156\n      swap1\n        /* \"ConditionalTokens.sol\":13400:13411  totalPayout */\n      dup9\n        /* \"ConditionalTokens.sol\":13400:13455  totalPayout + (payoutStake * (payoutNumerator / (den))) */\n      tag_149\n      jump\t// in\n    tag_156:\n        /* \"ConditionalTokens.sol\":13386:13455  totalPayout = totalPayout + (payoutStake * (payoutNumerator / (den))) */\n      swap7\n      pop\n        /* \"ConditionalTokens.sol\":13473:13515  _burn(msg.sender, positionId, payoutStake) */\n      tag_157\n        /* \"ConditionalTokens.sol\":13479:13489  msg.sender */\n      caller\n        /* \"ConditionalTokens.sol\":13491:13501  positionId */\n      dup5\n        /* \"ConditionalTokens.sol\":13503:13514  payoutStake */\n      dup4\n        /* \"ConditionalTokens.sol\":13473:13478  _burn */\n      tag_158\n        /* \"ConditionalTokens.sol\":13473:13515  _burn(msg.sender, positionId, payoutStake) */\n      jump\t// in\n    tag_157:\n      pop\n      pop\n        /* \"ConditionalTokens.sol\":12703:12706  i++ */\n      0x01\n      swap1\n      swap3\n      add\n      swap2\n      pop\n        /* \"ConditionalTokens.sol\":12664:13540  for (uint i = 0; i < indexSets.length; i++) {... */\n      tag_127\n      swap1\n      pop\n      jump\n    tag_128:\n      pop\n        /* \"ConditionalTokens.sol\":13554:13569  totalPayout > 0 */\n      dup2\n      iszero\n        /* \"ConditionalTokens.sol\":13550:13906  if (totalPayout > 0) {... */\n      tag_171\n      jumpi\n        /* \"ConditionalTokens.sol\":13589:13607  parentCollectionId */\n      dup8\n        /* \"ConditionalTokens.sol\":13585:13896  if (parentCollectionId == bytes32(0)) {... */\n      tag_160\n      jumpi\n        /* \"ConditionalTokens.sol\":13649:13698  collateralToken.transfer(msg.sender, totalPayout) */\n      mload(0x40)\n      shl(0xe0, 0xa9059cbb)\n      dup2\n      mstore\n        /* \"ConditionalTokens.sol\":13674:13684  msg.sender */\n      caller\n        /* \"ConditionalTokens.sol\":13649:13698  collateralToken.transfer(msg.sender, totalPayout) */\n      0x04\n      dup3\n      add\n        /* \"#utility.yul\":14730:14804   */\n      mstore\n        /* \"#utility.yul\":14820:14838   */\n      0x24\n      dup2\n      add\n        /* \"#utility.yul\":14813:14847   */\n      dup4\n      swap1\n      mstore\n      sub(shl(0xa0, 0x01), 0x01)\n        /* \"ConditionalTokens.sol\":13649:13673  collateralToken.transfer */\n      dup11\n      and\n      swap1\n      0xa9059cbb\n      swap1\n        /* \"#utility.yul\":14703:14721   */\n      0x44\n      add\n        /* \"ConditionalTokens.sol\":13649:13698  collateralToken.transfer(msg.sender, totalPayout) */\n      0x20\n      mload(0x40)\n      dup1\n      dup4\n      sub\n      dup2\n      0x00\n      dup8\n      gas\n      call\n      iszero\n      dup1\n      iszero\n      tag_164\n      jumpi\n      returndatasize\n      0x00\n      dup1\n      returndatacopy\n      revert(0x00, returndatasize)\n    tag_164:\n      pop\n      pop\n      pop\n      pop\n      mload(0x40)\n      returndatasize\n      not(0x1f)\n      0x1f\n      dup3\n      add\n      and\n      dup3\n      add\n      dup1\n      0x40\n      mstore\n      pop\n      dup2\n      add\n      swap1\n      tag_165\n      swap2\n      swap1\n      tag_166\n      jump\t// in\n    tag_165:\n        /* \"ConditionalTokens.sol\":13641:13746  require(collateralToken.transfer(msg.sender, totalPayout), \"could not transfer payout to message sender\") */\n      tag_167\n      jumpi\n      mload(0x40)\n      shl(0xe5, 0x461bcd)\n      dup2\n      mstore\n        /* \"#utility.yul\":15310:15312   */\n      0x20\n        /* \"ConditionalTokens.sol\":13641:13746  require(collateralToken.transfer(msg.sender, totalPayout), \"could not transfer payout to message sender\") */\n      0x04\n      dup3\n      add\n        /* \"#utility.yul\":15292:15313   */\n      mstore\n        /* \"#utility.yul\":15349:15351   */\n      0x2b\n        /* \"#utility.yul\":15329:15347   */\n      0x24\n      dup3\n      add\n        /* \"#utility.yul\":15322:15352   */\n      mstore\n        /* \"#utility.yul\":15388:15422   */\n      0x636f756c64206e6f74207472616e73666572207061796f757420746f206d6573\n        /* \"#utility.yul\":15368:15386   */\n      0x44\n      dup3\n      add\n        /* \"#utility.yul\":15361:15423   */\n      mstore\n        /* \"#utility.yul\":15459:15472   */\n      0x736167652073656e646572000000000000000000000000000000000000000000\n        /* \"#utility.yul\":15439:15457   */\n      0x64\n      dup3\n      add\n        /* \"#utility.yul\":15432:15473   */\n      mstore\n        /* \"#utility.yul\":15490:15509   */\n      0x84\n      add\n        /* \"ConditionalTokens.sol\":13641:13746  require(collateralToken.transfer(msg.sender, totalPayout), \"could not transfer payout to message sender\") */\n      tag_120\n        /* \"#utility.yul\":15108:15515   */\n      jump\n        /* \"ConditionalTokens.sol\":13641:13746  require(collateralToken.transfer(msg.sender, totalPayout), \"could not transfer payout to message sender\") */\n    tag_167:\n        /* \"ConditionalTokens.sol\":13585:13896  if (parentCollectionId == bytes32(0)) {... */\n      jump(tag_171)\n    tag_160:\n        /* \"CTHelpers.sol\":18386:18433  abi.encodePacked(collateralToken, collectionId) */\n      0x40\n      dup1\n      mload\n        /* \"#utility.yul\":25855:25857   */\n      0x60\n        /* \"#utility.yul\":25851:25866   */\n      dup12\n      swap1\n      shl\n      not(0xffffffffffffffffffffffff)\n        /* \"#utility.yul\":25847:25900   */\n      and\n        /* \"CTHelpers.sol\":18386:18433  abi.encodePacked(collateralToken, collectionId) */\n      0x20\n      dup1\n      dup4\n      add\n        /* \"#utility.yul\":25835:25901   */\n      swap2\n      swap1\n      swap2\n      mstore\n        /* \"#utility.yul\":25917:25929   */\n      0x34\n      dup1\n      dup4\n      add\n        /* \"#utility.yul\":25910:25938   */\n      dup13\n      swap1\n      mstore\n        /* \"CTHelpers.sol\":18386:18433  abi.encodePacked(collateralToken, collectionId) */\n      dup4\n      mload\n      dup1\n      dup5\n      sub\n      swap1\n      swap2\n      add\n      dup2\n      mstore\n        /* \"#utility.yul\":25954:25966   */\n      0x54\n      swap1\n      swap3\n      add\n        /* \"CTHelpers.sol\":18386:18433  abi.encodePacked(collateralToken, collectionId) */\n      swap1\n      swap3\n      mstore\n        /* \"CTHelpers.sol\":18376:18434  keccak256(abi.encodePacked(collateralToken, collectionId)) */\n      dup1\n      mload\n      swap2\n      add\n      keccak256\n        /* \"ConditionalTokens.sol\":13785:13881  _mint(msg.sender, CTHelpers.getPositionId(collateralToken, parentCollectionId), totalPayout, \"\") */\n      tag_171\n      swap1\n        /* \"ConditionalTokens.sol\":13791:13801  msg.sender */\n      caller\n      swap1\n        /* \"ConditionalTokens.sol\":13865:13876  totalPayout */\n      dup5\n        /* \"ConditionalTokens.sol\":13785:13881  _mint(msg.sender, CTHelpers.getPositionId(collateralToken, parentCollectionId), totalPayout, \"\") */\n      mload(0x40)\n      dup1\n      0x20\n      add\n      0x40\n      mstore\n      dup1\n      0x00\n      dup2\n      mstore\n      pop\n        /* \"ConditionalTokens.sol\":13785:13790  _mint */\n      tag_173\n        /* \"ConditionalTokens.sol\":13785:13881  _mint(msg.sender, CTHelpers.getPositionId(collateralToken, parentCollectionId), totalPayout, \"\") */\n      jump\t// in\n    tag_171:\n        /* \"ConditionalTokens.sol\":13966:13984  parentCollectionId */\n      dup8\n        /* \"ConditionalTokens.sol\":13949:13964  collateralToken */\n      dup10\n      sub(shl(0xa0, 0x01), 0x01)\n        /* \"ConditionalTokens.sol\":13920:14022  PayoutRedemption(msg.sender, collateralToken, parentCollectionId, conditionId, indexSets, totalPayout) */\n      and\n        /* \"ConditionalTokens.sol\":13937:13947  msg.sender */\n      caller\n      sub(shl(0xa0, 0x01), 0x01)\n        /* \"ConditionalTokens.sol\":13920:14022  PayoutRedemption(msg.sender, collateralToken, parentCollectionId, conditionId, indexSets, totalPayout) */\n      and\n      0x2682012a4a4f1973119f1c9b90745d1bd91fa2bab387344f044cb3586864d18d\n        /* \"ConditionalTokens.sol\":13986:13997  conditionId */\n      dup11\n        /* \"ConditionalTokens.sol\":13999:14008  indexSets */\n      dup11\n      dup11\n        /* \"ConditionalTokens.sol\":14010:14021  totalPayout */\n      dup9\n        /* \"ConditionalTokens.sol\":13920:14022  PayoutRedemption(msg.sender, collateralToken, parentCollectionId, conditionId, indexSets, totalPayout) */\n      mload(0x40)\n      tag_174\n      swap5\n      swap4\n      swap3\n      swap2\n      swap1\n      tag_175\n      jump\t// in\n    tag_174:\n      mload(0x40)\n      dup1\n      swap2\n      sub\n      swap1\n      log4\n        /* \"ConditionalTokens.sol\":12308:14029  {... */\n      pop\n      pop\n      pop\n      pop\n        /* \"ConditionalTokens.sol\":12174:14029  function redeemPositions(IERC20 collateralToken, bytes32 parentCollectionId, bytes32 conditionId, uint[] calldata indexSets) external {... */\n      pop\n      pop\n      pop\n      pop\n      pop\n      jump\t// out\n        /* \"@openzeppelin/contracts/token/ERC1155/ERC1155.sol\":1378:1683   */\n    tag_41:\n        /* \"@openzeppelin/contracts/token/ERC1155/ERC1155.sol\":1480:1484   */\n      0x00\n      not(sub(shl(0xe0, 0x01), 0x01))\n        /* \"@openzeppelin/contracts/token/ERC1155/ERC1155.sol\":1515:1556   */\n      dup3\n      and\n      shl(0xe1, 0x6cdb3d13)\n      eq\n      dup1\n        /* \"@openzeppelin/contracts/token/ERC1155/ERC1155.sol\":1515:1624   */\n      tag_177\n      jumpi\n      pop\n      not(sub(shl(0xe0, 0x01), 0x01))\n        /* \"@openzeppelin/contracts/token/ERC1155/ERC1155.sol\":1572:1624   */\n      dup3\n      and\n      shl(0xe2, 0x03a24d07)\n      eq\n        /* \"@openzeppelin/contracts/token/ERC1155/ERC1155.sol\":1515:1624   */\n    tag_177:\n        /* \"@openzeppelin/contracts/token/ERC1155/ERC1155.sol\":1515:1676   */\n      dup1\n      tag_117\n      jumpi\n      pop\n      shl(0xe0, 0x01ffc9a7)\n      not(sub(shl(0xe0, 0x01), 0x01))\n        /* \"@openzeppelin/contracts/utils/introspection/ERC165.sol\":862:902   */\n      dup4\n      and\n      eq\n        /* \"@openzeppelin/contracts/token/ERC1155/ERC1155.sol\":1640:1676   */\n      tag_117\n        /* \"@openzeppelin/contracts/utils/introspection/ERC165.sol\":763:909   */\n      jump\n        /* \"ConditionalTokens.sol\":3114:3164  mapping(bytes32 => uint[]) public payoutNumerators */\n    tag_47:\n      mstore(0x20, 0x04)\n      dup2\n      0x00\n      mstore\n      keccak256(0x00, 0x40)\n      dup2\n      dup2\n      sload\n      dup2\n      lt\n      tag_181\n      jumpi\n      0x00\n      dup1\n      revert\n    tag_181:\n      swap1\n      0x00\n      mstore\n      keccak256(0x00, 0x20)\n      add\n      0x00\n      swap2\n      pop\n      swap2\n      pop\n      pop\n      sload\n      dup2\n      jump\t// out\n        /* \"@openzeppelin/contracts/token/ERC1155/ERC1155.sol\":2082:2185   */\n    tag_52:\n        /* \"@openzeppelin/contracts/token/ERC1155/ERC1155.sol\":2142:2155   */\n      0x60\n        /* \"@openzeppelin/contracts/token/ERC1155/ERC1155.sol\":2174:2178   */\n      0x02\n        /* \"@openzeppelin/contracts/token/ERC1155/ERC1155.sol\":2167:2178   */\n      dup1\n      sload\n      tag_184\n      swap1\n      tag_185\n      jump\t// in\n    tag_184:\n      dup1\n      0x1f\n      add\n      0x20\n      dup1\n      swap2\n      div\n      mul\n      0x20\n      add\n      mload(0x40)\n      swap1\n      dup2\n      add\n      0x40\n      mstore\n      dup1\n      swap3\n      swap2\n      swap1\n      dup2\n      dup2\n      mstore\n      0x20\n      add\n      dup3\n      dup1\n      sload\n      tag_186\n      swap1\n      tag_185\n      jump\t// in\n    tag_186:\n      dup1\n      iszero\n      tag_187\n      jumpi\n      dup1\n      0x1f\n      lt\n      tag_188\n      jumpi\n      0x0100\n      dup1\n      dup4\n      sload\n      div\n      mul\n      dup4\n      mstore\n      swap2\n      0x20\n      add\n      swap2\n      jump(tag_187)\n    tag_188:\n      dup3\n      add\n      swap2\n      swap1\n      0x00\n      mstore\n      keccak256(0x00, 0x20)\n      swap1\n    tag_189:\n      dup2\n      sload\n      dup2\n      mstore\n      swap1\n      0x01\n      add\n      swap1\n      0x20\n      add\n      dup1\n      dup4\n      gt\n      tag_189\n      jumpi\n      dup3\n      swap1\n      sub\n      0x1f\n      and\n      dup3\n      add\n      swap2\n    tag_187:\n      pop\n      pop\n      pop\n      pop\n      pop\n      swap1\n      pop\n        /* \"@openzeppelin/contracts/token/ERC1155/ERC1155.sol\":2082:2185   */\n      swap2\n      swap1\n      pop\n      jump\t// out\n        /* \"@openzeppelin/contracts/token/ERC1155/ERC1155.sol\":4012:4441   */\n    tag_58:\n        /* \"@openzeppelin/contracts/utils/Context.sol\":735:745   */\n      caller\n      sub(shl(0xa0, 0x01), 0x01)\n        /* \"@openzeppelin/contracts/token/ERC1155/ERC1155.sol\":4249:4263   */\n      dup7\n      and\n      dup2\n      eq\n      dup1\n      iszero\n      swap1\n        /* \"@openzeppelin/contracts/token/ERC1155/ERC1155.sol\":4249:4298   */\n      tag_193\n      jumpi\n      pop\n      sub(shl(0xa0, 0x01), 0x01)\n        /* \"@openzeppelin/contracts/token/ERC1155/ERC1155.sol\":3478:3505   */\n      dup1\n      dup8\n      and\n        /* \"@openzeppelin/contracts/token/ERC1155/ERC1155.sol\":3455:3459   */\n      0x00\n        /* \"@openzeppelin/contracts/token/ERC1155/ERC1155.sol\":3478:3505   */\n      swap1\n      dup2\n      mstore\n        /* \"@openzeppelin/contracts/token/ERC1155/ERC1155.sol\":3478:3496   */\n      0x01\n        /* \"@openzeppelin/contracts/token/ERC1155/ERC1155.sol\":3478:3505   */\n      0x20\n      swap1\n      dup2\n      mstore\n      0x40\n      dup1\n      dup4\n      keccak256\n        /* \"@openzeppelin/contracts/token/ERC1155/ERC1155.sol\":3478:3515   */\n      swap4\n      dup6\n      and\n      dup4\n      mstore\n      swap3\n      swap1\n      mstore\n      keccak256\n      sload\n      0xff\n      and\n        /* \"@openzeppelin/contracts/token/ERC1155/ERC1155.sol\":4267:4298   */\n      iszero\n        /* \"@openzeppelin/contracts/token/ERC1155/ERC1155.sol\":4249:4298   */\n    tag_193:\n        /* \"@openzeppelin/contracts/token/ERC1155/ERC1155.sol\":4245:4374   */\n      iszero\n      tag_195\n      jumpi\n        /* \"@openzeppelin/contracts/token/ERC1155/ERC1155.sol\":4321:4363   */\n      mload(0x40)\n      shl(0xe1, 0x711bec91)\n      dup2\n      mstore\n      sub(shl(0xa0, 0x01), 0x01)\n        /* \"#utility.yul\":16956:16971   */\n      dup1\n      dup4\n      and\n        /* \"@openzeppelin/contracts/token/ERC1155/ERC1155.sol\":4321:4363   */\n      0x04\n      dup4\n      add\n        /* \"#utility.yul\":16938:16972   */\n      mstore\n        /* \"#utility.yul\":17008:17023   */\n      dup8\n      and\n        /* \"#utility.yul\":16988:17006   */\n      0x24\n      dup3\n      add\n        /* \"#utility.yul\":16981:17024   */\n      mstore\n        /* \"#utility.yul\":16850:16868   */\n      0x44\n      add\n        /* \"@openzeppelin/contracts/token/ERC1155/ERC1155.sol\":4321:4363   */\n      tag_120\n        /* \"#utility.yul\":16703:17030   */\n      jump\n        /* \"@openzeppelin/contracts/token/ERC1155/ERC1155.sol\":4245:4374   */\n    tag_195:\n        /* \"@openzeppelin/contracts/token/ERC1155/ERC1155.sol\":4383:4434   */\n      tag_198\n        /* \"@openzeppelin/contracts/token/ERC1155/ERC1155.sol\":4406:4410   */\n      dup7\n        /* \"@openzeppelin/contracts/token/ERC1155/ERC1155.sol\":4412:4414   */\n      dup7\n        /* \"@openzeppelin/contracts/token/ERC1155/ERC1155.sol\":4416:4419   */\n      dup7\n        /* \"@openzeppelin/contracts/token/ERC1155/ERC1155.sol\":4421:4427   */\n      dup7\n        /* \"@openzeppelin/contracts/token/ERC1155/ERC1155.sol\":4429:4433   */\n      dup7\n        /* \"@openzeppelin/contracts/token/ERC1155/ERC1155.sol\":4383:4405   */\n      tag_199\n        /* \"@openzeppelin/contracts/token/ERC1155/ERC1155.sol\":4383:4434   */\n      jump\t// in\n    tag_198:\n        /* \"@openzeppelin/contracts/token/ERC1155/ERC1155.sol\":4196:4441   */\n      pop\n        /* \"@openzeppelin/contracts/token/ERC1155/ERC1155.sol\":4012:4441   */\n      pop\n      pop\n      pop\n      pop\n      pop\n      jump\t// out\n        /* \"ConditionalTokens.sol\":15995:16171  function getPositionId(IERC20 collateralToken, bytes32 collectionId) external pure returns (uint) {... */\n    tag_62:\n        /* \"CTHelpers.sol\":18386:18433  abi.encodePacked(collateralToken, collectionId) */\n      0x40\n      dup1\n      mload\n        /* \"#utility.yul\":25855:25857   */\n      0x60\n        /* \"#utility.yul\":25851:25866   */\n      dup5\n      swap1\n      shl\n      not(0xffffffffffffffffffffffff)\n        /* \"#utility.yul\":25847:25900   */\n      and\n        /* \"CTHelpers.sol\":18386:18433  abi.encodePacked(collateralToken, collectionId) */\n      0x20\n      dup1\n      dup4\n      add\n        /* \"#utility.yul\":25835:25901   */\n      swap2\n      swap1\n      swap2\n      mstore\n        /* \"#utility.yul\":25917:25929   */\n      0x34\n      dup1\n      dup4\n      add\n        /* \"#utility.yul\":25910:25938   */\n      dup6\n      swap1\n      mstore\n        /* \"CTHelpers.sol\":18386:18433  abi.encodePacked(collateralToken, collectionId) */\n      dup4\n      mload\n      dup1\n      dup5\n      sub\n      swap1\n      swap2\n      add\n      dup2\n      mstore\n        /* \"#utility.yul\":25954:25966   */\n      0x54\n      swap1\n      swap3\n      add\n        /* \"CTHelpers.sol\":18386:18433  abi.encodePacked(collateralToken, collectionId) */\n      swap1\n      swap3\n      mstore\n        /* \"CTHelpers.sol\":18376:18434  keccak256(abi.encodePacked(collateralToken, collectionId)) */\n      dup1\n      mload\n      swap2\n      add\n      keccak256\n        /* \"ConditionalTokens.sol\":16087:16091  uint */\n      0x00\n      swap1\n        /* \"ConditionalTokens.sol\":16110:16164  CTHelpers.getPositionId(collateralToken, collectionId) */\n    tag_201:\n        /* \"ConditionalTokens.sol\":16103:16164  return CTHelpers.getPositionId(collateralToken, collectionId) */\n      swap4\n        /* \"ConditionalTokens.sol\":15995:16171  function getPositionId(IERC20 collateralToken, bytes32 collectionId) external pure returns (uint) {... */\n      swap3\n      pop\n      pop\n      pop\n      jump\t// out\n        /* \"@openzeppelin/contracts/token/ERC1155/ERC1155.sol\":2534:3086   */\n    tag_67:\n        /* \"@openzeppelin/contracts/token/ERC1155/ERC1155.sol\":2658:2674   */\n      0x60\n        /* \"@openzeppelin/contracts/token/ERC1155/ERC1155.sol\":2709:2712   */\n      dup2\n        /* \"@openzeppelin/contracts/token/ERC1155/ERC1155.sol\":2709:2719   */\n      mload\n        /* \"@openzeppelin/contracts/token/ERC1155/ERC1155.sol\":2690:2698   */\n      dup4\n        /* \"@openzeppelin/contracts/token/ERC1155/ERC1155.sol\":2690:2705   */\n      mload\n        /* \"@openzeppelin/contracts/token/ERC1155/ERC1155.sol\":2690:2719   */\n      eq\n        /* \"@openzeppelin/contracts/token/ERC1155/ERC1155.sol\":2686:2807   */\n      tag_203\n      jumpi\n        /* \"@openzeppelin/contracts/token/ERC1155/ERC1155.sol\":2768:2778   */\n      dup2\n      mload\n        /* \"@openzeppelin/contracts/token/ERC1155/ERC1155.sol\":2780:2795   */\n      dup4\n      mload\n        /* \"@openzeppelin/contracts/token/ERC1155/ERC1155.sol\":2742:2796   */\n      mload(0x40)\n      shl(0xe0, 0x5b059991)\n      dup2\n      mstore\n      0x04\n      dup2\n      add\n        /* \"#utility.yul\":17209:17234   */\n      swap3\n      swap1\n      swap3\n      mstore\n        /* \"#utility.yul\":17250:17268   */\n      0x24\n      dup3\n      add\n        /* \"#utility.yul\":17243:17277   */\n      mstore\n        /* \"#utility.yul\":17182:17200   */\n      0x44\n      add\n        /* \"@openzeppelin/contracts/token/ERC1155/ERC1155.sol\":2742:2796   */\n      tag_120\n        /* \"#utility.yul\":17035:17283   */\n      jump\n        /* \"@openzeppelin/contracts/token/ERC1155/ERC1155.sol\":2686:2807   */\n    tag_203:\n        /* \"@openzeppelin/contracts/token/ERC1155/ERC1155.sol\":2817:2847   */\n      0x00\n        /* \"@openzeppelin/contracts/token/ERC1155/ERC1155.sol\":2864:2872   */\n      dup4\n        /* \"@openzeppelin/contracts/token/ERC1155/ERC1155.sol\":2864:2879   */\n      mload\n        /* \"@openzeppelin/contracts/token/ERC1155/ERC1155.sol\":2850:2880   */\n      0xffffffffffffffff\n      dup2\n      gt\n      iszero\n      tag_207\n      jumpi\n      tag_207\n      tag_208\n      jump\t// in\n    tag_207:\n      mload(0x40)\n      swap1\n      dup1\n      dup3\n      mstore\n      dup1\n      0x20\n      mul\n      0x20\n      add\n      dup3\n      add\n      0x40\n      mstore\n      dup1\n      iszero\n      tag_209\n      jumpi\n      dup2\n      0x20\n      add\n      0x20\n      dup3\n      mul\n      dup1\n      calldatasize\n      dup4\n      calldatacopy\n      add\n      swap1\n      pop\n    tag_209:\n      pop\n        /* \"@openzeppelin/contracts/token/ERC1155/ERC1155.sol\":2817:2880   */\n      swap1\n      pop\n        /* \"@openzeppelin/contracts/token/ERC1155/ERC1155.sol\":2896:2905   */\n      0x00\n        /* \"@openzeppelin/contracts/token/ERC1155/ERC1155.sol\":2891:3049   */\n    tag_210:\n        /* \"@openzeppelin/contracts/token/ERC1155/ERC1155.sol\":2915:2923   */\n      dup5\n        /* \"@openzeppelin/contracts/token/ERC1155/ERC1155.sol\":2915:2930   */\n      mload\n        /* \"@openzeppelin/contracts/token/ERC1155/ERC1155.sol\":2911:2912   */\n      dup2\n        /* \"@openzeppelin/contracts/token/ERC1155/ERC1155.sol\":2911:2930   */\n      lt\n        /* \"@openzeppelin/contracts/token/ERC1155/ERC1155.sol\":2891:3049   */\n      iszero\n      tag_211\n      jumpi\n        /* \"@openzeppelin/contracts/utils/Arrays.sol\":16302:16306   */\n      0x20\n        /* \"@openzeppelin/contracts/utils/Arrays.sol\":16293:16307   */\n      dup1\n      dup3\n      mul\n        /* \"@openzeppelin/contracts/utils/Arrays.sol\":16273:16308   */\n      dup7\n      add\n      add\n        /* \"@openzeppelin/contracts/utils/Arrays.sol\":16267:16309   */\n      mload\n        /* \"@openzeppelin/contracts/token/ERC1155/ERC1155.sol\":2970:3038   */\n      tag_213\n      swap1\n        /* \"@openzeppelin/contracts/utils/Arrays.sol\":16302:16306   */\n      0x20\n        /* \"@openzeppelin/contracts/utils/Arrays.sol\":16293:16307   */\n      dup1\n      dup5\n      mul\n        /* \"@openzeppelin/contracts/utils/Arrays.sol\":16273:16308   */\n      dup8\n      add\n      add\n        /* \"@openzeppelin/contracts/utils/Arrays.sol\":16267:16309   */\n      mload\n        /* \"@openzeppelin/contracts/token/ERC1155/ERC1155.sol\":2245:2377   */\n      tag_31\n      jump\t// in\n        /* \"@openzeppelin/contracts/token/ERC1155/ERC1155.sol\":2970:3038   */\n    tag_213:\n        /* \"@openzeppelin/contracts/token/ERC1155/ERC1155.sol\":2951:2964   */\n      dup3\n        /* \"@openzeppelin/contracts/token/ERC1155/ERC1155.sol\":2965:2966   */\n      dup3\n        /* \"@openzeppelin/contracts/token/ERC1155/ERC1155.sol\":2951:2967   */\n      dup2\n      mload\n      dup2\n      lt\n      tag_219\n      jumpi\n      tag_219\n      tag_132\n      jump\t// in\n    tag_219:\n      0x20\n      swap1\n      dup2\n      mul\n      swap2\n      swap1\n      swap2\n      add\n      add\n        /* \"@openzeppelin/contracts/token/ERC1155/ERC1155.sol\":2951:3038   */\n      mstore\n        /* \"@openzeppelin/contracts/token/ERC1155/ERC1155.sol\":2932:2935   */\n      0x01\n      add\n        /* \"@openzeppelin/contracts/token/ERC1155/ERC1155.sol\":2891:3049   */\n      jump(tag_210)\n    tag_211:\n      pop\n        /* \"@openzeppelin/contracts/token/ERC1155/ERC1155.sol\":3066:3079   */\n      swap4\n        /* \"@openzeppelin/contracts/token/ERC1155/ERC1155.sol\":2534:3086   */\n      swap3\n      pop\n      pop\n      pop\n      jump\t// out\n        /* \"ConditionalTokens.sol\":9442:12168  function splitPosition(... */\n    tag_73:\n        /* \"ConditionalTokens.sol\":9670:9671  1 */\n      0x01\n        /* \"ConditionalTokens.sol\":9651:9671  partition.length > 1 */\n      dup3\n      gt\n        /* \"ConditionalTokens.sol\":9643:9708  require(partition.length > 1, \"got empty or singleton partition\") */\n      tag_221\n      jumpi\n      mload(0x40)\n      shl(0xe5, 0x461bcd)\n      dup2\n      mstore\n        /* \"#utility.yul\":17490:17492   */\n      0x20\n        /* \"ConditionalTokens.sol\":9643:9708  require(partition.length > 1, \"got empty or singleton partition\") */\n      0x04\n      dup3\n      add\n        /* \"#utility.yul\":17472:17493   */\n      dup2\n      swap1\n      mstore\n        /* \"#utility.yul\":17509:17527   */\n      0x24\n      dup3\n      add\n        /* \"#utility.yul\":17502:17532   */\n      mstore\n        /* \"#utility.yul\":17568:17602   */\n      0x676f7420656d707479206f722073696e676c65746f6e20706172746974696f6e\n        /* \"#utility.yul\":17548:17566   */\n      0x44\n      dup3\n      add\n        /* \"#utility.yul\":17541:17603   */\n      mstore\n        /* \"#utility.yul\":17620:17638   */\n      0x64\n      add\n        /* \"ConditionalTokens.sol\":9643:9708  require(partition.length > 1, \"got empty or singleton partition\") */\n      tag_120\n        /* \"#utility.yul\":17288:17644   */\n      jump\n        /* \"ConditionalTokens.sol\":9643:9708  require(partition.length > 1, \"got empty or singleton partition\") */\n    tag_221:\n        /* \"ConditionalTokens.sol\":9718:9739  uint outcomeSlotCount */\n      0x00\n        /* \"ConditionalTokens.sol\":9742:9771  payoutNumerators[conditionId] */\n      dup5\n      dup2\n      mstore\n        /* \"ConditionalTokens.sol\":9742:9758  payoutNumerators */\n      0x04\n        /* \"ConditionalTokens.sol\":9742:9771  payoutNumerators[conditionId] */\n      0x20\n      mstore\n      0x40\n      swap1\n      keccak256\n        /* \"ConditionalTokens.sol\":9742:9778  payoutNumerators[conditionId].length */\n      sload\n        /* \"ConditionalTokens.sol\":9796:9816  outcomeSlotCount > 0 */\n      dup1\n        /* \"ConditionalTokens.sol\":9788:9847  require(outcomeSlotCount > 0, \"condition not prepared yet\") */\n      tag_224\n      jumpi\n      mload(0x40)\n      shl(0xe5, 0x461bcd)\n      dup2\n      mstore\n        /* \"#utility.yul\":13094:13096   */\n      0x20\n        /* \"ConditionalTokens.sol\":9788:9847  require(outcomeSlotCount > 0, \"condition not prepared yet\") */\n      0x04\n      dup3\n      add\n        /* \"#utility.yul\":13076:13097   */\n      mstore\n        /* \"#utility.yul\":13133:13135   */\n      0x1a\n        /* \"#utility.yul\":13113:13131   */\n      0x24\n      dup3\n      add\n        /* \"#utility.yul\":13106:13136   */\n      mstore\n        /* \"#utility.yul\":13172:13200   */\n      0x636f6e646974696f6e206e6f7420707265706172656420796574000000000000\n        /* \"#utility.yul\":13152:13170   */\n      0x44\n      dup3\n      add\n        /* \"#utility.yul\":13145:13201   */\n      mstore\n        /* \"#utility.yul\":13218:13236   */\n      0x64\n      add\n        /* \"ConditionalTokens.sol\":9788:9847  require(outcomeSlotCount > 0, \"condition not prepared yet\") */\n      tag_120\n        /* \"#utility.yul\":12892:13242   */\n      jump\n        /* \"ConditionalTokens.sol\":9788:9847  require(outcomeSlotCount > 0, \"condition not prepared yet\") */\n    tag_224:\n        /* \"ConditionalTokens.sol\":9946:9963  uint fullIndexSet */\n      0x00\n        /* \"ConditionalTokens.sol\":9966:9993  (1 << outcomeSlotCount) - 1 */\n      tag_226\n        /* \"ConditionalTokens.sol\":9992:9993  1 */\n      0x01\n        /* \"ConditionalTokens.sol\":9967:9988  1 << outcomeSlotCount */\n      dup1\n      dup5\n      shl\n        /* \"ConditionalTokens.sol\":9966:9993  (1 << outcomeSlotCount) - 1 */\n      tag_126\n      jump\t// in\n    tag_226:\n        /* \"ConditionalTokens.sol\":9946:9993  uint fullIndexSet = (1 << outcomeSlotCount) - 1 */\n      swap1\n      pop\n      dup1\n        /* \"ConditionalTokens.sol\":10057:10074  uint freeIndexSet */\n      0x00\n        /* \"ConditionalTokens.sol\":10253:10262  partition */\n      dup6\n        /* \"ConditionalTokens.sol\":10242:10270  new uint[](partition.length) */\n      0xffffffffffffffff\n      dup2\n      gt\n      iszero\n      tag_228\n      jumpi\n      tag_228\n      tag_208\n      jump\t// in\n    tag_228:\n      mload(0x40)\n      swap1\n      dup1\n      dup3\n      mstore\n      dup1\n      0x20\n      mul\n      0x20\n      add\n      dup3\n      add\n      0x40\n      mstore\n      dup1\n      iszero\n      tag_229\n      jumpi\n      dup2\n      0x20\n      add\n      0x20\n      dup3\n      mul\n      dup1\n      calldatasize\n      dup4\n      calldatacopy\n      add\n      swap1\n      pop\n    tag_229:\n      pop\n        /* \"ConditionalTokens.sol\":10214:10270  uint[] memory positionIds = new uint[](partition.length) */\n      swap1\n      pop\n        /* \"ConditionalTokens.sol\":10280:10301  uint[] memory amounts */\n      0x00\n        /* \"ConditionalTokens.sol\":10315:10324  partition */\n      dup7\n        /* \"ConditionalTokens.sol\":10304:10332  new uint[](partition.length) */\n      0xffffffffffffffff\n      dup2\n      gt\n      iszero\n      tag_231\n      jumpi\n      tag_231\n      tag_208\n      jump\t// in\n    tag_231:\n      mload(0x40)\n      swap1\n      dup1\n      dup3\n      mstore\n      dup1\n      0x20\n      mul\n      0x20\n      add\n      dup3\n      add\n      0x40\n      mstore\n      dup1\n      iszero\n      tag_232\n      jumpi\n      dup2\n      0x20\n      add\n      0x20\n      dup3\n      mul\n      dup1\n      calldatasize\n      dup4\n      calldatacopy\n      add\n      swap1\n      pop\n    tag_232:\n      pop\n        /* \"ConditionalTokens.sol\":10280:10332  uint[] memory amounts = new uint[](partition.length) */\n      swap1\n      pop\n        /* \"ConditionalTokens.sol\":10347:10353  uint i */\n      0x00\n        /* \"ConditionalTokens.sol\":10342:10826  for (uint i = 0; i < partition.length; i++) {... */\n    tag_233:\n        /* \"ConditionalTokens.sol\":10359:10379  i < partition.length */\n      dup8\n      dup2\n      lt\n        /* \"ConditionalTokens.sol\":10342:10826  for (uint i = 0; i < partition.length; i++) {... */\n      iszero\n      tag_234\n      jumpi\n        /* \"ConditionalTokens.sol\":10400:10413  uint indexSet */\n      0x00\n        /* \"ConditionalTokens.sol\":10416:10425  partition */\n      dup10\n      dup10\n        /* \"ConditionalTokens.sol\":10426:10427  i */\n      dup4\n        /* \"ConditionalTokens.sol\":10416:10428  partition[i] */\n      dup2\n      dup2\n      lt\n      tag_237\n      jumpi\n      tag_237\n      tag_132\n      jump\t// in\n    tag_237:\n      swap1\n      pop\n      0x20\n      mul\n      add\n      calldataload\n        /* \"ConditionalTokens.sol\":10400:10428  uint indexSet = partition[i] */\n      swap1\n      pop\n        /* \"ConditionalTokens.sol\":10461:10462  0 */\n      0x00\n        /* \"ConditionalTokens.sol\":10450:10458  indexSet */\n      dup2\n        /* \"ConditionalTokens.sol\":10450:10462  indexSet > 0 */\n      gt\n        /* \"ConditionalTokens.sol\":10450:10489  indexSet > 0 && indexSet < fullIndexSet */\n      dup1\n      iszero\n      tag_238\n      jumpi\n      pop\n        /* \"ConditionalTokens.sol\":10477:10489  fullIndexSet */\n      dup6\n        /* \"ConditionalTokens.sol\":10466:10474  indexSet */\n      dup2\n        /* \"ConditionalTokens.sol\":10466:10489  indexSet < fullIndexSet */\n      lt\n        /* \"ConditionalTokens.sol\":10450:10489  indexSet > 0 && indexSet < fullIndexSet */\n    tag_238:\n        /* \"ConditionalTokens.sol\":10442:10517  require(indexSet > 0 && indexSet < fullIndexSet, \"got invalid index set 2\") */\n      tag_239\n      jumpi\n      mload(0x40)\n      shl(0xe5, 0x461bcd)\n      dup2\n      mstore\n        /* \"#utility.yul\":17851:17853   */\n      0x20\n        /* \"ConditionalTokens.sol\":10442:10517  require(indexSet > 0 && indexSet < fullIndexSet, \"got invalid index set 2\") */\n      0x04\n      dup3\n      add\n        /* \"#utility.yul\":17833:17854   */\n      mstore\n        /* \"#utility.yul\":17890:17892   */\n      0x17\n        /* \"#utility.yul\":17870:17888   */\n      0x24\n      dup3\n      add\n        /* \"#utility.yul\":17863:17893   */\n      mstore\n        /* \"#utility.yul\":17929:17954   */\n      0x676f7420696e76616c696420696e646578207365742032000000000000000000\n        /* \"#utility.yul\":17909:17927   */\n      0x44\n      dup3\n      add\n        /* \"#utility.yul\":17902:17955   */\n      mstore\n        /* \"#utility.yul\":17972:17990   */\n      0x64\n      add\n        /* \"ConditionalTokens.sol\":10442:10517  require(indexSet > 0 && indexSet < fullIndexSet, \"got invalid index set 2\") */\n      tag_120\n        /* \"#utility.yul\":17649:17996   */\n      jump\n        /* \"ConditionalTokens.sol\":10442:10517  require(indexSet > 0 && indexSet < fullIndexSet, \"got invalid index set 2\") */\n    tag_239:\n        /* \"ConditionalTokens.sol\":10568:10576  indexSet */\n      dup1\n        /* \"ConditionalTokens.sol\":10551:10563  freeIndexSet */\n      dup6\n        /* \"ConditionalTokens.sol\":10540:10548  indexSet */\n      dup3\n        /* \"ConditionalTokens.sol\":10540:10563  indexSet & freeIndexSet */\n      and\n        /* \"ConditionalTokens.sol\":10539:10576  (indexSet & freeIndexSet) == indexSet */\n      eq\n        /* \"ConditionalTokens.sol\":10531:10603  require((indexSet & freeIndexSet) == indexSet, \"partition not disjoint\") */\n      tag_242\n      jumpi\n      mload(0x40)\n      shl(0xe5, 0x461bcd)\n      dup2\n      mstore\n        /* \"#utility.yul\":18203:18205   */\n      0x20\n        /* \"ConditionalTokens.sol\":10531:10603  require((indexSet & freeIndexSet) == indexSet, \"partition not disjoint\") */\n      0x04\n      dup3\n      add\n        /* \"#utility.yul\":18185:18206   */\n      mstore\n        /* \"#utility.yul\":18242:18244   */\n      0x16\n        /* \"#utility.yul\":18222:18240   */\n      0x24\n      dup3\n      add\n        /* \"#utility.yul\":18215:18245   */\n      mstore\n        /* \"#utility.yul\":18281:18305   */\n      0x706172746974696f6e206e6f74206469736a6f696e7400000000000000000000\n        /* \"#utility.yul\":18261:18279   */\n      0x44\n      dup3\n      add\n        /* \"#utility.yul\":18254:18306   */\n      mstore\n        /* \"#utility.yul\":18323:18341   */\n      0x64\n      add\n        /* \"ConditionalTokens.sol\":10531:10603  require((indexSet & freeIndexSet) == indexSet, \"partition not disjoint\") */\n      tag_120\n        /* \"#utility.yul\":18001:18347   */\n      jump\n        /* \"ConditionalTokens.sol\":10531:10603  require((indexSet & freeIndexSet) == indexSet, \"partition not disjoint\") */\n    tag_242:\n        /* \"ConditionalTokens.sol\":10617:10641  freeIndexSet ^= indexSet */\n      swap4\n      dup5\n      xor\n      swap4\n        /* \"ConditionalTokens.sol\":10672:10782  CTHelpers.getPositionId(collateralToken, CTHelpers.getCollectionId(parentCollectionId, conditionId, indexSet)) */\n      tag_245\n        /* \"ConditionalTokens.sol\":10696:10711  collateralToken */\n      dup14\n        /* \"ConditionalTokens.sol\":10713:10781  CTHelpers.getCollectionId(parentCollectionId, conditionId, indexSet) */\n      tag_138\n        /* \"ConditionalTokens.sol\":10739:10757  parentCollectionId */\n      dup15\n        /* \"ConditionalTokens.sol\":10759:10770  conditionId */\n      dup15\n        /* \"ConditionalTokens.sol\":10633:10641  indexSet */\n      dup6\n        /* \"ConditionalTokens.sol\":10713:10738  CTHelpers.getCollectionId */\n      tag_139\n        /* \"ConditionalTokens.sol\":10713:10781  CTHelpers.getCollectionId(parentCollectionId, conditionId, indexSet) */\n      jump\t// in\n        /* \"ConditionalTokens.sol\":10672:10782  CTHelpers.getPositionId(collateralToken, CTHelpers.getCollectionId(parentCollectionId, conditionId, indexSet)) */\n    tag_245:\n        /* \"ConditionalTokens.sol\":10655:10666  positionIds */\n      dup5\n        /* \"ConditionalTokens.sol\":10667:10668  i */\n      dup4\n        /* \"ConditionalTokens.sol\":10655:10669  positionIds[i] */\n      dup2\n      mload\n      dup2\n      lt\n      tag_248\n      jumpi\n      tag_248\n      tag_132\n      jump\t// in\n    tag_248:\n      0x20\n      mul\n      0x20\n      add\n      add\n        /* \"ConditionalTokens.sol\":10655:10782  positionIds[i] = CTHelpers.getPositionId(collateralToken, CTHelpers.getCollectionId(parentCollectionId, conditionId, indexSet)) */\n      dup2\n      dup2\n      mstore\n      pop\n      pop\n        /* \"ConditionalTokens.sol\":10809:10815  amount */\n      dup8\n        /* \"ConditionalTokens.sol\":10796:10803  amounts */\n      dup4\n        /* \"ConditionalTokens.sol\":10804:10805  i */\n      dup4\n        /* \"ConditionalTokens.sol\":10796:10806  amounts[i] */\n      dup2\n      mload\n      dup2\n      lt\n      tag_250\n      jumpi\n      tag_250\n      tag_132\n      jump\t// in\n    tag_250:\n      0x20\n      swap1\n      dup2\n      mul\n      swap2\n      swap1\n      swap2\n      add\n      add\n        /* \"ConditionalTokens.sol\":10796:10815  amounts[i] = amount */\n      mstore\n      pop\n        /* \"ConditionalTokens.sol\":10381:10384  i++ */\n      0x01\n      add\n        /* \"ConditionalTokens.sol\":10342:10826  for (uint i = 0; i < partition.length; i++) {... */\n      jump(tag_233)\n    tag_234:\n      pop\n        /* \"ConditionalTokens.sol\":10840:10852  freeIndexSet */\n      dup3\n        /* \"ConditionalTokens.sol\":10856:10857  0 */\n      0x00\n        /* \"ConditionalTokens.sol\":10840:10857  freeIndexSet == 0 */\n      sub\n        /* \"ConditionalTokens.sol\":10836:11884  if (freeIndexSet == 0) {... */\n      tag_251\n      jumpi\n        /* \"ConditionalTokens.sol\":10963:10981  parentCollectionId */\n      dup10\n        /* \"ConditionalTokens.sol\":10959:11345  if (parentCollectionId == bytes32(0)) {... */\n      tag_252\n      jumpi\n        /* \"ConditionalTokens.sol\":11023:11086  collateralToken.transferFrom(msg.sender, address(this), amount) */\n      mload(0x40)\n      shl(0xe0, 0x23b872dd)\n      dup2\n      mstore\n        /* \"ConditionalTokens.sol\":11052:11062  msg.sender */\n      caller\n        /* \"ConditionalTokens.sol\":11023:11086  collateralToken.transferFrom(msg.sender, address(this), amount) */\n      0x04\n      dup3\n      add\n        /* \"#utility.yul\":18615:18649   */\n      mstore\n        /* \"ConditionalTokens.sol\":11072:11076  this */\n      address\n        /* \"#utility.yul\":18665:18683   */\n      0x24\n      dup3\n      add\n        /* \"#utility.yul\":18658:18701   */\n      mstore\n        /* \"#utility.yul\":18717:18735   */\n      0x44\n      dup2\n      add\n        /* \"#utility.yul\":18710:18744   */\n      dup8\n      swap1\n      mstore\n      sub(shl(0xa0, 0x01), 0x01)\n        /* \"ConditionalTokens.sol\":11023:11051  collateralToken.transferFrom */\n      dup13\n      and\n      swap1\n      0x23b872dd\n      swap1\n        /* \"#utility.yul\":18527:18545   */\n      0x64\n      add\n        /* \"ConditionalTokens.sol\":11023:11086  collateralToken.transferFrom(msg.sender, address(this), amount) */\n      0x20\n      mload(0x40)\n      dup1\n      dup4\n      sub\n      dup2\n      0x00\n      dup8\n      gas\n      call\n      iszero\n      dup1\n      iszero\n      tag_256\n      jumpi\n      returndatasize\n      0x00\n      dup1\n      returndatacopy\n      revert(0x00, returndatasize)\n    tag_256:\n      pop\n      pop\n      pop\n      pop\n      mload(0x40)\n      returndatasize\n      not(0x1f)\n      0x1f\n      dup3\n      add\n      and\n      dup3\n      add\n      dup1\n      0x40\n      mstore\n      pop\n      dup2\n      add\n      swap1\n      tag_257\n      swap2\n      swap1\n      tag_166\n      jump\t// in\n    tag_257:\n        /* \"ConditionalTokens.sol\":11015:11126  require(collateralToken.transferFrom(msg.sender, address(this), amount), \"could not receive collateral tokens\") */\n      tag_258\n      jumpi\n      mload(0x40)\n      shl(0xe5, 0x461bcd)\n      dup2\n      mstore\n        /* \"#utility.yul\":18957:18959   */\n      0x20\n        /* \"ConditionalTokens.sol\":11015:11126  require(collateralToken.transferFrom(msg.sender, address(this), amount), \"could not receive collateral tokens\") */\n      0x04\n      dup3\n      add\n        /* \"#utility.yul\":18939:18960   */\n      mstore\n        /* \"#utility.yul\":18996:18998   */\n      0x23\n        /* \"#utility.yul\":18976:18994   */\n      0x24\n      dup3\n      add\n        /* \"#utility.yul\":18969:18999   */\n      mstore\n        /* \"#utility.yul\":19035:19069   */\n      0x636f756c64206e6f74207265636569766520636f6c6c61746572616c20746f6b\n        /* \"#utility.yul\":19015:19033   */\n      0x44\n      dup3\n      add\n        /* \"#utility.yul\":19008:19070   */\n      mstore\n      shl(0xe8, 0x656e73)\n        /* \"#utility.yul\":19086:19104   */\n      0x64\n      dup3\n      add\n        /* \"#utility.yul\":19079:19112   */\n      mstore\n        /* \"#utility.yul\":19129:19148   */\n      0x84\n      add\n        /* \"ConditionalTokens.sol\":11015:11126  require(collateralToken.transferFrom(msg.sender, address(this), amount), \"could not receive collateral tokens\") */\n      tag_120\n        /* \"#utility.yul\":18755:19154   */\n      jump\n        /* \"ConditionalTokens.sol\":11015:11126  require(collateralToken.transferFrom(msg.sender, address(this), amount), \"could not receive collateral tokens\") */\n    tag_258:\n        /* \"ConditionalTokens.sol\":10836:11884  if (freeIndexSet == 0) {... */\n      jump(tag_265)\n        /* \"ConditionalTokens.sol\":10959:11345  if (parentCollectionId == bytes32(0)) {... */\n    tag_252:\n        /* \"CTHelpers.sol\":18386:18433  abi.encodePacked(collateralToken, collectionId) */\n      0x40\n      dup1\n      mload\n        /* \"#utility.yul\":25855:25857   */\n      0x60\n        /* \"#utility.yul\":25851:25866   */\n      dup14\n      swap1\n      shl\n      not(0xffffffffffffffffffffffff)\n        /* \"#utility.yul\":25847:25900   */\n      and\n        /* \"CTHelpers.sol\":18386:18433  abi.encodePacked(collateralToken, collectionId) */\n      0x20\n      dup1\n      dup4\n      add\n        /* \"#utility.yul\":25835:25901   */\n      swap2\n      swap1\n      swap2\n      mstore\n        /* \"#utility.yul\":25917:25929   */\n      0x34\n      dup1\n      dup4\n      add\n        /* \"#utility.yul\":25910:25938   */\n      dup15\n      swap1\n      mstore\n        /* \"CTHelpers.sol\":18386:18433  abi.encodePacked(collateralToken, collectionId) */\n      dup4\n      mload\n      dup1\n      dup5\n      sub\n      swap1\n      swap2\n      add\n      dup2\n      mstore\n        /* \"#utility.yul\":25954:25966   */\n      0x54\n      swap1\n      swap3\n      add\n        /* \"CTHelpers.sol\":18386:18433  abi.encodePacked(collateralToken, collectionId) */\n      swap1\n      swap3\n      mstore\n        /* \"CTHelpers.sol\":18376:18434  keccak256(abi.encodePacked(collateralToken, collectionId)) */\n      dup1\n      mload\n      swap2\n      add\n      keccak256\n        /* \"ConditionalTokens.sol\":11165:11330  _burn(... */\n      tag_258\n      swap1\n        /* \"ConditionalTokens.sol\":11192:11202  msg.sender */\n      caller\n      swap1\n        /* \"ConditionalTokens.sol\":11224:11284  CTHelpers.getPositionId(collateralToken, parentCollectionId) */\n    tag_263:\n        /* \"ConditionalTokens.sol\":11306:11312  amount */\n      dup9\n        /* \"ConditionalTokens.sol\":11165:11170  _burn */\n      tag_158\n        /* \"ConditionalTokens.sol\":11165:11330  _burn(... */\n      jump\t// in\n        /* \"ConditionalTokens.sol\":10836:11884  if (freeIndexSet == 0) {... */\n    tag_251:\n        /* \"ConditionalTokens.sol\":11635:11873  _burn(... */\n      tag_265\n        /* \"ConditionalTokens.sol\":11658:11668  msg.sender */\n      caller\n        /* \"ConditionalTokens.sol\":11686:11835  CTHelpers.getPositionId(collateralToken,... */\n      tag_263\n        /* \"ConditionalTokens.sol\":11710:11725  collateralToken */\n      dup14\n        /* \"ConditionalTokens.sol\":11747:11834  CTHelpers.getCollectionId(parentCollectionId, conditionId, fullIndexSet ^ freeIndexSet) */\n      tag_138\n        /* \"ConditionalTokens.sol\":11773:11791  parentCollectionId */\n      dup15\n        /* \"ConditionalTokens.sol\":11793:11804  conditionId */\n      dup15\n        /* \"ConditionalTokens.sol\":11821:11833  freeIndexSet */\n      dup10\n        /* \"ConditionalTokens.sol\":11806:11818  fullIndexSet */\n      dup12\n        /* \"ConditionalTokens.sol\":11806:11833  fullIndexSet ^ freeIndexSet */\n      xor\n        /* \"ConditionalTokens.sol\":11747:11772  CTHelpers.getCollectionId */\n      tag_139\n        /* \"ConditionalTokens.sol\":11747:11834  CTHelpers.getCollectionId(parentCollectionId, conditionId, fullIndexSet ^ freeIndexSet) */\n      jump\t// in\n        /* \"ConditionalTokens.sol\":11635:11873  _burn(... */\n    tag_265:\n        /* \"ConditionalTokens.sol\":11894:12052  _mintBatch(... */\n      tag_268\n        /* \"ConditionalTokens.sol\":11918:11928  msg.sender */\n      caller\n        /* \"ConditionalTokens.sol\":11994:12005  positionIds */\n      dup4\n        /* \"ConditionalTokens.sol\":12019:12026  amounts */\n      dup4\n        /* \"ConditionalTokens.sol\":11894:12052  _mintBatch(... */\n      mload(0x40)\n      dup1\n      0x20\n      add\n      0x40\n      mstore\n      dup1\n      0x00\n      dup2\n      mstore\n      pop\n        /* \"ConditionalTokens.sol\":11894:11904  _mintBatch */\n      tag_269\n        /* \"ConditionalTokens.sol\":11894:12052  _mintBatch(... */\n      jump\t// in\n    tag_268:\n        /* \"ConditionalTokens.sol\":12130:12141  conditionId */\n      dup9\n        /* \"ConditionalTokens.sol\":12110:12128  parentCollectionId */\n      dup11\n        /* \"ConditionalTokens.sol\":12081:12091  msg.sender */\n      caller\n      sub(shl(0xa0, 0x01), 0x01)\n        /* \"ConditionalTokens.sol\":12067:12161  PositionSplit(msg.sender, collateralToken, parentCollectionId, conditionId, partition, amount) */\n      and\n      0x2e6bb91f8cbcda0c93623c54d0403a43514fabc40084ec96b6d5379a74786298\n        /* \"ConditionalTokens.sol\":12093:12108  collateralToken */\n      dup15\n        /* \"ConditionalTokens.sol\":12143:12152  partition */\n      dup13\n      dup13\n        /* \"ConditionalTokens.sol\":12154:12160  amount */\n      dup13\n        /* \"ConditionalTokens.sol\":12067:12161  PositionSplit(msg.sender, collateralToken, parentCollectionId, conditionId, partition, amount) */\n      mload(0x40)\n      tag_270\n      swap5\n      swap4\n      swap3\n      swap2\n      swap1\n      tag_271\n      jump\t// in\n    tag_270:\n      mload(0x40)\n      dup1\n      swap2\n      sub\n      swap1\n      log4\n        /* \"ConditionalTokens.sol\":9633:12168  {... */\n      pop\n      pop\n      pop\n      pop\n      pop\n        /* \"ConditionalTokens.sol\":9442:12168  function splitPosition(... */\n      pop\n      pop\n      pop\n      pop\n      pop\n      pop\n      jump\t// out\n        /* \"ConditionalTokens.sol\":15480:15681  function getConditionId(address oracle, bytes32 questionId, uint outcomeSlotCount) external pure returns (bytes32) {... */\n    tag_77:\n        /* \"CTHelpers.sol\":713:767  abi.encodePacked(oracle, questionId, outcomeSlotCount) */\n      0x40\n      dup1\n      mload\n        /* \"#utility.yul\":26413:26415   */\n      0x60\n        /* \"#utility.yul\":26409:26424   */\n      dup6\n      swap1\n      shl\n      not(0xffffffffffffffffffffffff)\n        /* \"#utility.yul\":26405:26458   */\n      and\n        /* \"CTHelpers.sol\":713:767  abi.encodePacked(oracle, questionId, outcomeSlotCount) */\n      0x20\n      dup1\n      dup4\n      add\n        /* \"#utility.yul\":26393:26459   */\n      swap2\n      swap1\n      swap2\n      mstore\n        /* \"#utility.yul\":26475:26487   */\n      0x34\n      dup3\n      add\n        /* \"#utility.yul\":26468:26496   */\n      dup6\n      swap1\n      mstore\n        /* \"#utility.yul\":26512:26524   */\n      0x54\n      dup1\n      dup4\n      add\n        /* \"#utility.yul\":26505:26533   */\n      dup6\n      swap1\n      mstore\n        /* \"CTHelpers.sol\":713:767  abi.encodePacked(oracle, questionId, outcomeSlotCount) */\n      dup4\n      mload\n      dup1\n      dup5\n      sub\n      swap1\n      swap2\n      add\n      dup2\n      mstore\n        /* \"#utility.yul\":26549:26561   */\n      0x74\n      swap1\n      swap3\n      add\n        /* \"CTHelpers.sol\":713:767  abi.encodePacked(oracle, questionId, outcomeSlotCount) */\n      swap1\n      swap3\n      mstore\n        /* \"CTHelpers.sol\":703:768  keccak256(abi.encodePacked(oracle, questionId, outcomeSlotCount)) */\n      dup1\n      mload\n      swap2\n      add\n      keccak256\n        /* \"ConditionalTokens.sol\":15586:15593  bytes32 */\n      0x00\n      swap1\n        /* \"ConditionalTokens.sol\":15612:15674  CTHelpers.getConditionId(oracle, questionId, outcomeSlotCount) */\n    tag_273:\n        /* \"ConditionalTokens.sol\":15605:15674  return CTHelpers.getConditionId(oracle, questionId, outcomeSlotCount) */\n      swap5\n        /* \"ConditionalTokens.sol\":15480:15681  function getConditionId(address oracle, bytes32 questionId, uint outcomeSlotCount) external pure returns (bytes32) {... */\n      swap4\n      pop\n      pop\n      pop\n      pop\n      jump\t// out\n        /* \"ConditionalTokens.sol\":14841:15054  function getCollectionId(bytes32 parentCollectionId, bytes32 conditionId, uint indexSet) external view returns (bytes32) {... */\n    tag_83:\n        /* \"ConditionalTokens.sol\":14953:14960  bytes32 */\n      0x00\n        /* \"ConditionalTokens.sol\":14979:15047  CTHelpers.getCollectionId(parentCollectionId, conditionId, indexSet) */\n      tag_273\n        /* \"ConditionalTokens.sol\":15005:15023  parentCollectionId */\n      dup5\n        /* \"ConditionalTokens.sol\":15025:15036  conditionId */\n      dup5\n        /* \"ConditionalTokens.sol\":15038:15046  indexSet */\n      dup5\n        /* \"ConditionalTokens.sol\":14979:15004  CTHelpers.getCollectionId */\n      tag_139\n        /* \"ConditionalTokens.sol\":14979:15047  CTHelpers.getCollectionId(parentCollectionId, conditionId, indexSet) */\n      jump\t// in\n        /* \"ConditionalTokens.sol\":6021:8100  function mergePositions(... */\n    tag_87:\n        /* \"ConditionalTokens.sol\":6250:6251  1 */\n      0x01\n        /* \"ConditionalTokens.sol\":6231:6251  partition.length > 1 */\n      dup3\n      gt\n        /* \"ConditionalTokens.sol\":6223:6288  require(partition.length > 1, \"got empty or singleton partition\") */\n      tag_278\n      jumpi\n      mload(0x40)\n      shl(0xe5, 0x461bcd)\n      dup2\n      mstore\n        /* \"#utility.yul\":17490:17492   */\n      0x20\n        /* \"ConditionalTokens.sol\":6223:6288  require(partition.length > 1, \"got empty or singleton partition\") */\n      0x04\n      dup3\n      add\n        /* \"#utility.yul\":17472:17493   */\n      dup2\n      swap1\n      mstore\n        /* \"#utility.yul\":17509:17527   */\n      0x24\n      dup3\n      add\n        /* \"#utility.yul\":17502:17532   */\n      mstore\n        /* \"#utility.yul\":17568:17602   */\n      0x676f7420656d707479206f722073696e676c65746f6e20706172746974696f6e\n        /* \"#utility.yul\":17548:17566   */\n      0x44\n      dup3\n      add\n        /* \"#utility.yul\":17541:17603   */\n      mstore\n        /* \"#utility.yul\":17620:17638   */\n      0x64\n      add\n        /* \"ConditionalTokens.sol\":6223:6288  require(partition.length > 1, \"got empty or singleton partition\") */\n      tag_120\n        /* \"#utility.yul\":17288:17644   */\n      jump\n        /* \"ConditionalTokens.sol\":6223:6288  require(partition.length > 1, \"got empty or singleton partition\") */\n    tag_278:\n        /* \"ConditionalTokens.sol\":6298:6319  uint outcomeSlotCount */\n      0x00\n        /* \"ConditionalTokens.sol\":6322:6351  payoutNumerators[conditionId] */\n      dup5\n      dup2\n      mstore\n        /* \"ConditionalTokens.sol\":6322:6338  payoutNumerators */\n      0x04\n        /* \"ConditionalTokens.sol\":6322:6351  payoutNumerators[conditionId] */\n      0x20\n      mstore\n      0x40\n      swap1\n      keccak256\n        /* \"ConditionalTokens.sol\":6322:6358  payoutNumerators[conditionId].length */\n      sload\n        /* \"ConditionalTokens.sol\":6376:6396  outcomeSlotCount > 0 */\n      dup1\n        /* \"ConditionalTokens.sol\":6368:6427  require(outcomeSlotCount > 0, \"condition not prepared yet\") */\n      tag_280\n      jumpi\n      mload(0x40)\n      shl(0xe5, 0x461bcd)\n      dup2\n      mstore\n        /* \"#utility.yul\":13094:13096   */\n      0x20\n        /* \"ConditionalTokens.sol\":6368:6427  require(outcomeSlotCount > 0, \"condition not prepared yet\") */\n      0x04\n      dup3\n      add\n        /* \"#utility.yul\":13076:13097   */\n      mstore\n        /* \"#utility.yul\":13133:13135   */\n      0x1a\n        /* \"#utility.yul\":13113:13131   */\n      0x24\n      dup3\n      add\n        /* \"#utility.yul\":13106:13136   */\n      mstore\n        /* \"#utility.yul\":13172:13200   */\n      0x636f6e646974696f6e206e6f7420707265706172656420796574000000000000\n        /* \"#utility.yul\":13152:13170   */\n      0x44\n      dup3\n      add\n        /* \"#utility.yul\":13145:13201   */\n      mstore\n        /* \"#utility.yul\":13218:13236   */\n      0x64\n      add\n        /* \"ConditionalTokens.sol\":6368:6427  require(outcomeSlotCount > 0, \"condition not prepared yet\") */\n      tag_120\n        /* \"#utility.yul\":12892:13242   */\n      jump\n        /* \"ConditionalTokens.sol\":6368:6427  require(outcomeSlotCount > 0, \"condition not prepared yet\") */\n    tag_280:\n        /* \"ConditionalTokens.sol\":6438:6455  uint fullIndexSet */\n      0x00\n        /* \"ConditionalTokens.sol\":6458:6485  (1 << outcomeSlotCount) - 1 */\n      tag_282\n        /* \"ConditionalTokens.sol\":6484:6485  1 */\n      0x01\n        /* \"ConditionalTokens.sol\":6459:6480  1 << outcomeSlotCount */\n      dup1\n      dup5\n      shl\n        /* \"ConditionalTokens.sol\":6458:6485  (1 << outcomeSlotCount) - 1 */\n      tag_126\n      jump\t// in\n    tag_282:\n        /* \"ConditionalTokens.sol\":6438:6485  uint fullIndexSet = (1 << outcomeSlotCount) - 1 */\n      swap1\n      pop\n      dup1\n        /* \"ConditionalTokens.sol\":6495:6512  uint freeIndexSet */\n      0x00\n        /* \"ConditionalTokens.sol\":6576:6585  partition */\n      dup6\n        /* \"ConditionalTokens.sol\":6565:6593  new uint[](partition.length) */\n      0xffffffffffffffff\n      dup2\n      gt\n      iszero\n      tag_284\n      jumpi\n      tag_284\n      tag_208\n      jump\t// in\n    tag_284:\n      mload(0x40)\n      swap1\n      dup1\n      dup3\n      mstore\n      dup1\n      0x20\n      mul\n      0x20\n      add\n      dup3\n      add\n      0x40\n      mstore\n      dup1\n      iszero\n      tag_285\n      jumpi\n      dup2\n      0x20\n      add\n      0x20\n      dup3\n      mul\n      dup1\n      calldatasize\n      dup4\n      calldatacopy\n      add\n      swap1\n      pop\n    tag_285:\n      pop\n        /* \"ConditionalTokens.sol\":6537:6593  uint[] memory positionIds = new uint[](partition.length) */\n      swap1\n      pop\n        /* \"ConditionalTokens.sol\":6603:6624  uint[] memory amounts */\n      0x00\n        /* \"ConditionalTokens.sol\":6638:6647  partition */\n      dup7\n        /* \"ConditionalTokens.sol\":6627:6655  new uint[](partition.length) */\n      0xffffffffffffffff\n      dup2\n      gt\n      iszero\n      tag_287\n      jumpi\n      tag_287\n      tag_208\n      jump\t// in\n    tag_287:\n      mload(0x40)\n      swap1\n      dup1\n      dup3\n      mstore\n      dup1\n      0x20\n      mul\n      0x20\n      add\n      dup3\n      add\n      0x40\n      mstore\n      dup1\n      iszero\n      tag_288\n      jumpi\n      dup2\n      0x20\n      add\n      0x20\n      dup3\n      mul\n      dup1\n      calldatasize\n      dup4\n      calldatacopy\n      add\n      swap1\n      pop\n    tag_288:\n      pop\n        /* \"ConditionalTokens.sol\":6603:6655  uint[] memory amounts = new uint[](partition.length) */\n      swap1\n      pop\n        /* \"ConditionalTokens.sol\":6670:6676  uint i */\n      0x00\n        /* \"ConditionalTokens.sol\":6665:7149  for (uint i = 0; i < partition.length; i++) {... */\n    tag_289:\n        /* \"ConditionalTokens.sol\":6682:6702  i < partition.length */\n      dup8\n      dup2\n      lt\n        /* \"ConditionalTokens.sol\":6665:7149  for (uint i = 0; i < partition.length; i++) {... */\n      iszero\n      tag_290\n      jumpi\n        /* \"ConditionalTokens.sol\":6723:6736  uint indexSet */\n      0x00\n        /* \"ConditionalTokens.sol\":6739:6748  partition */\n      dup10\n      dup10\n        /* \"ConditionalTokens.sol\":6749:6750  i */\n      dup4\n        /* \"ConditionalTokens.sol\":6739:6751  partition[i] */\n      dup2\n      dup2\n      lt\n      tag_293\n      jumpi\n      tag_293\n      tag_132\n      jump\t// in\n    tag_293:\n      swap1\n      pop\n      0x20\n      mul\n      add\n      calldataload\n        /* \"ConditionalTokens.sol\":6723:6751  uint indexSet = partition[i] */\n      swap1\n      pop\n        /* \"ConditionalTokens.sol\":6784:6785  0 */\n      0x00\n        /* \"ConditionalTokens.sol\":6773:6781  indexSet */\n      dup2\n        /* \"ConditionalTokens.sol\":6773:6785  indexSet > 0 */\n      gt\n        /* \"ConditionalTokens.sol\":6773:6812  indexSet > 0 && indexSet < fullIndexSet */\n      dup1\n      iszero\n      tag_294\n      jumpi\n      pop\n        /* \"ConditionalTokens.sol\":6800:6812  fullIndexSet */\n      dup6\n        /* \"ConditionalTokens.sol\":6789:6797  indexSet */\n      dup2\n        /* \"ConditionalTokens.sol\":6789:6812  indexSet < fullIndexSet */\n      lt\n        /* \"ConditionalTokens.sol\":6773:6812  indexSet > 0 && indexSet < fullIndexSet */\n    tag_294:\n        /* \"ConditionalTokens.sol\":6765:6840  require(indexSet > 0 && indexSet < fullIndexSet, \"got invalid index set 1\") */\n      tag_295\n      jumpi\n      mload(0x40)\n      shl(0xe5, 0x461bcd)\n      dup2\n      mstore\n        /* \"#utility.yul\":19860:19862   */\n      0x20\n        /* \"ConditionalTokens.sol\":6765:6840  require(indexSet > 0 && indexSet < fullIndexSet, \"got invalid index set 1\") */\n      0x04\n      dup3\n      add\n        /* \"#utility.yul\":19842:19863   */\n      mstore\n        /* \"#utility.yul\":19899:19901   */\n      0x17\n        /* \"#utility.yul\":19879:19897   */\n      0x24\n      dup3\n      add\n        /* \"#utility.yul\":19872:19902   */\n      mstore\n        /* \"#utility.yul\":19938:19963   */\n      0x676f7420696e76616c696420696e646578207365742031000000000000000000\n        /* \"#utility.yul\":19918:19936   */\n      0x44\n      dup3\n      add\n        /* \"#utility.yul\":19911:19964   */\n      mstore\n        /* \"#utility.yul\":19981:19999   */\n      0x64\n      add\n        /* \"ConditionalTokens.sol\":6765:6840  require(indexSet > 0 && indexSet < fullIndexSet, \"got invalid index set 1\") */\n      tag_120\n        /* \"#utility.yul\":19658:20005   */\n      jump\n        /* \"ConditionalTokens.sol\":6765:6840  require(indexSet > 0 && indexSet < fullIndexSet, \"got invalid index set 1\") */\n    tag_295:\n        /* \"ConditionalTokens.sol\":6891:6899  indexSet */\n      dup1\n        /* \"ConditionalTokens.sol\":6874:6886  freeIndexSet */\n      dup6\n        /* \"ConditionalTokens.sol\":6863:6871  indexSet */\n      dup3\n        /* \"ConditionalTokens.sol\":6863:6886  indexSet & freeIndexSet */\n      and\n        /* \"ConditionalTokens.sol\":6862:6899  (indexSet & freeIndexSet) == indexSet */\n      eq\n        /* \"ConditionalTokens.sol\":6854:6926  require((indexSet & freeIndexSet) == indexSet, \"partition not disjoint\") */\n      tag_298\n      jumpi\n      mload(0x40)\n      shl(0xe5, 0x461bcd)\n      dup2\n      mstore\n        /* \"#utility.yul\":18203:18205   */\n      0x20\n        /* \"ConditionalTokens.sol\":6854:6926  require((indexSet & freeIndexSet) == indexSet, \"partition not disjoint\") */\n      0x04\n      dup3\n      add\n        /* \"#utility.yul\":18185:18206   */\n      mstore\n        /* \"#utility.yul\":18242:18244   */\n      0x16\n        /* \"#utility.yul\":18222:18240   */\n      0x24\n      dup3\n      add\n        /* \"#utility.yul\":18215:18245   */\n      mstore\n        /* \"#utility.yul\":18281:18305   */\n      0x706172746974696f6e206e6f74206469736a6f696e7400000000000000000000\n        /* \"#utility.yul\":18261:18279   */\n      0x44\n      dup3\n      add\n        /* \"#utility.yul\":18254:18306   */\n      mstore\n        /* \"#utility.yul\":18323:18341   */\n      0x64\n      add\n        /* \"ConditionalTokens.sol\":6854:6926  require((indexSet & freeIndexSet) == indexSet, \"partition not disjoint\") */\n      tag_120\n        /* \"#utility.yul\":18001:18347   */\n      jump\n        /* \"ConditionalTokens.sol\":6854:6926  require((indexSet & freeIndexSet) == indexSet, \"partition not disjoint\") */\n    tag_298:\n        /* \"ConditionalTokens.sol\":6940:6964  freeIndexSet ^= indexSet */\n      swap4\n      dup5\n      xor\n      swap4\n        /* \"ConditionalTokens.sol\":6995:7105  CTHelpers.getPositionId(collateralToken, CTHelpers.getCollectionId(parentCollectionId, conditionId, indexSet)) */\n      tag_300\n        /* \"ConditionalTokens.sol\":7019:7034  collateralToken */\n      dup14\n        /* \"ConditionalTokens.sol\":7036:7104  CTHelpers.getCollectionId(parentCollectionId, conditionId, indexSet) */\n      tag_138\n        /* \"ConditionalTokens.sol\":7062:7080  parentCollectionId */\n      dup15\n        /* \"ConditionalTokens.sol\":7082:7093  conditionId */\n      dup15\n        /* \"ConditionalTokens.sol\":6956:6964  indexSet */\n      dup6\n        /* \"ConditionalTokens.sol\":7036:7061  CTHelpers.getCollectionId */\n      tag_139\n        /* \"ConditionalTokens.sol\":7036:7104  CTHelpers.getCollectionId(parentCollectionId, conditionId, indexSet) */\n      jump\t// in\n        /* \"ConditionalTokens.sol\":6995:7105  CTHelpers.getPositionId(collateralToken, CTHelpers.getCollectionId(parentCollectionId, conditionId, indexSet)) */\n    tag_300:\n        /* \"ConditionalTokens.sol\":6978:6989  positionIds */\n      dup5\n        /* \"ConditionalTokens.sol\":6990:6991  i */\n      dup4\n        /* \"ConditionalTokens.sol\":6978:6992  positionIds[i] */\n      dup2\n      mload\n      dup2\n      lt\n      tag_303\n      jumpi\n      tag_303\n      tag_132\n      jump\t// in\n    tag_303:\n      0x20\n      mul\n      0x20\n      add\n      add\n        /* \"ConditionalTokens.sol\":6978:7105  positionIds[i] = CTHelpers.getPositionId(collateralToken, CTHelpers.getCollectionId(parentCollectionId, conditionId, indexSet)) */\n      dup2\n      dup2\n      mstore\n      pop\n      pop\n        /* \"ConditionalTokens.sol\":7132:7138  amount */\n      dup8\n        /* \"ConditionalTokens.sol\":7119:7126  amounts */\n      dup4\n        /* \"ConditionalTokens.sol\":7127:7128  i */\n      dup4\n        /* \"ConditionalTokens.sol\":7119:7129  amounts[i] */\n      dup2\n      mload\n      dup2\n      lt\n      tag_305\n      jumpi\n      tag_305\n      tag_132\n      jump\t// in\n    tag_305:\n      0x20\n      swap1\n      dup2\n      mul\n      swap2\n      swap1\n      swap2\n      add\n      add\n        /* \"ConditionalTokens.sol\":7119:7138  amounts[i] = amount */\n      mstore\n      pop\n        /* \"ConditionalTokens.sol\":6704:6707  i++ */\n      0x01\n      add\n        /* \"ConditionalTokens.sol\":6665:7149  for (uint i = 0; i < partition.length; i++) {... */\n      jump(tag_289)\n    tag_290:\n      pop\n        /* \"ConditionalTokens.sol\":7158:7248  _burnBatch(... */\n      tag_306\n        /* \"ConditionalTokens.sol\":7182:7192  msg.sender */\n      caller\n        /* \"ConditionalTokens.sol\":7206:7217  positionIds */\n      dup4\n        /* \"ConditionalTokens.sol\":7231:7238  amounts */\n      dup4\n        /* \"ConditionalTokens.sol\":7158:7168  _burnBatch */\n      tag_307\n        /* \"ConditionalTokens.sol\":7158:7248  _burnBatch(... */\n      jump\t// in\n    tag_306:\n        /* \"ConditionalTokens.sol\":7263:7275  freeIndexSet */\n      dup3\n        /* \"ConditionalTokens.sol\":7279:7280  0 */\n      0x00\n        /* \"ConditionalTokens.sol\":7263:7280  freeIndexSet == 0 */\n      sub\n        /* \"ConditionalTokens.sol\":7259:7983  if (freeIndexSet == 0) {... */\n      tag_308\n      jumpi\n        /* \"ConditionalTokens.sol\":7300:7318  parentCollectionId */\n      dup10\n        /* \"ConditionalTokens.sol\":7296:7684  if (parentCollectionId == bytes32(0)) {... */\n      tag_309\n      jumpi\n        /* \"ConditionalTokens.sol\":7360:7404  collateralToken.transfer(msg.sender, amount) */\n      mload(0x40)\n      shl(0xe0, 0xa9059cbb)\n      dup2\n      mstore\n        /* \"ConditionalTokens.sol\":7385:7395  msg.sender */\n      caller\n        /* \"ConditionalTokens.sol\":7360:7404  collateralToken.transfer(msg.sender, amount) */\n      0x04\n      dup3\n      add\n        /* \"#utility.yul\":14730:14804   */\n      mstore\n        /* \"#utility.yul\":14820:14838   */\n      0x24\n      dup2\n      add\n        /* \"#utility.yul\":14813:14847   */\n      dup8\n      swap1\n      mstore\n      sub(shl(0xa0, 0x01), 0x01)\n        /* \"ConditionalTokens.sol\":7360:7384  collateralToken.transfer */\n      dup13\n      and\n      swap1\n      0xa9059cbb\n      swap1\n        /* \"#utility.yul\":14703:14721   */\n      0x44\n      add\n        /* \"ConditionalTokens.sol\":7360:7404  collateralToken.transfer(msg.sender, amount) */\n      0x20\n      mload(0x40)\n      dup1\n      dup4\n      sub\n      dup2\n      0x00\n      dup8\n      gas\n      call\n      iszero\n      dup1\n      iszero\n      tag_312\n      jumpi\n      returndatasize\n      0x00\n      dup1\n      returndatacopy\n      revert(0x00, returndatasize)\n    tag_312:\n      pop\n      pop\n      pop\n      pop\n      mload(0x40)\n      returndatasize\n      not(0x1f)\n      0x1f\n      dup3\n      add\n      and\n      dup3\n      add\n      dup1\n      0x40\n      mstore\n      pop\n      dup2\n      add\n      swap1\n      tag_313\n      swap2\n      swap1\n      tag_166\n      jump\t// in\n    tag_313:\n        /* \"ConditionalTokens.sol\":7352:7441  require(collateralToken.transfer(msg.sender, amount), \"could not send collateral tokens\") */\n      tag_314\n      jumpi\n      mload(0x40)\n      shl(0xe5, 0x461bcd)\n      dup2\n      mstore\n        /* \"#utility.yul\":20212:20214   */\n      0x20\n        /* \"ConditionalTokens.sol\":7352:7441  require(collateralToken.transfer(msg.sender, amount), \"could not send collateral tokens\") */\n      0x04\n      dup3\n      add\n        /* \"#utility.yul\":20194:20215   */\n      dup2\n      swap1\n      mstore\n        /* \"#utility.yul\":20231:20249   */\n      0x24\n      dup3\n      add\n        /* \"#utility.yul\":20224:20254   */\n      mstore\n        /* \"#utility.yul\":20290:20324   */\n      0x636f756c64206e6f742073656e6420636f6c6c61746572616c20746f6b656e73\n        /* \"#utility.yul\":20270:20288   */\n      0x44\n      dup3\n      add\n        /* \"#utility.yul\":20263:20325   */\n      mstore\n        /* \"#utility.yul\":20342:20360   */\n      0x64\n      add\n        /* \"ConditionalTokens.sol\":7352:7441  require(collateralToken.transfer(msg.sender, amount), \"could not send collateral tokens\") */\n      tag_120\n        /* \"#utility.yul\":20010:20366   */\n      jump\n        /* \"ConditionalTokens.sol\":7352:7441  require(collateralToken.transfer(msg.sender, amount), \"could not send collateral tokens\") */\n    tag_314:\n        /* \"ConditionalTokens.sol\":7259:7983  if (freeIndexSet == 0) {... */\n      jump(tag_321)\n        /* \"ConditionalTokens.sol\":7296:7684  if (parentCollectionId == bytes32(0)) {... */\n    tag_309:\n        /* \"CTHelpers.sol\":18386:18433  abi.encodePacked(collateralToken, collectionId) */\n      0x40\n      dup1\n      mload\n        /* \"#utility.yul\":25855:25857   */\n      0x60\n        /* \"#utility.yul\":25851:25866   */\n      dup14\n      swap1\n      shl\n      not(0xffffffffffffffffffffffff)\n        /* \"#utility.yul\":25847:25900   */\n      and\n        /* \"CTHelpers.sol\":18386:18433  abi.encodePacked(collateralToken, collectionId) */\n      0x20\n      dup1\n      dup4\n      add\n        /* \"#utility.yul\":25835:25901   */\n      swap2\n      swap1\n      swap2\n      mstore\n        /* \"#utility.yul\":25917:25929   */\n      0x34\n      dup1\n      dup4\n      add\n        /* \"#utility.yul\":25910:25938   */\n      dup15\n      swap1\n      mstore\n        /* \"CTHelpers.sol\":18386:18433  abi.encodePacked(collateralToken, collectionId) */\n      dup4\n      mload\n      dup1\n      dup5\n      sub\n      swap1\n      swap2\n      add\n      dup2\n      mstore\n        /* \"#utility.yul\":25954:25966   */\n      0x54\n      swap1\n      swap3\n      add\n        /* \"CTHelpers.sol\":18386:18433  abi.encodePacked(collateralToken, collectionId) */\n      swap1\n      swap3\n      mstore\n        /* \"CTHelpers.sol\":18376:18434  keccak256(abi.encodePacked(collateralToken, collectionId)) */\n      dup1\n      mload\n      swap2\n      add\n      keccak256\n        /* \"ConditionalTokens.sol\":7480:7669  _mint(... */\n      tag_314\n      swap1\n        /* \"ConditionalTokens.sol\":7507:7517  msg.sender */\n      caller\n      swap1\n        /* \"ConditionalTokens.sol\":7539:7599  CTHelpers.getPositionId(collateralToken, parentCollectionId) */\n    tag_319:\n        /* \"ConditionalTokens.sol\":7621:7627  amount */\n      dup9\n        /* \"ConditionalTokens.sol\":7480:7669  _mint(... */\n      mload(0x40)\n      dup1\n      0x20\n      add\n      0x40\n      mstore\n      dup1\n      0x00\n      dup2\n      mstore\n      pop\n        /* \"ConditionalTokens.sol\":7480:7485  _mint */\n      tag_173\n        /* \"ConditionalTokens.sol\":7480:7669  _mint(... */\n      jump\t// in\n        /* \"ConditionalTokens.sol\":7259:7983  if (freeIndexSet == 0) {... */\n    tag_308:\n        /* \"ConditionalTokens.sol\":7714:7972  _mint(... */\n      tag_321\n        /* \"ConditionalTokens.sol\":7737:7747  msg.sender */\n      caller\n        /* \"ConditionalTokens.sol\":7765:7914  CTHelpers.getPositionId(collateralToken,... */\n      tag_319\n        /* \"ConditionalTokens.sol\":7789:7804  collateralToken */\n      dup14\n        /* \"ConditionalTokens.sol\":7826:7913  CTHelpers.getCollectionId(parentCollectionId, conditionId, fullIndexSet ^ freeIndexSet) */\n      tag_138\n        /* \"ConditionalTokens.sol\":7852:7870  parentCollectionId */\n      dup15\n        /* \"ConditionalTokens.sol\":7872:7883  conditionId */\n      dup15\n        /* \"ConditionalTokens.sol\":7900:7912  freeIndexSet */\n      dup10\n        /* \"ConditionalTokens.sol\":7885:7897  fullIndexSet */\n      dup12\n        /* \"ConditionalTokens.sol\":7885:7912  fullIndexSet ^ freeIndexSet */\n      xor\n        /* \"ConditionalTokens.sol\":7826:7851  CTHelpers.getCollectionId */\n      tag_139\n        /* \"ConditionalTokens.sol\":7826:7913  CTHelpers.getCollectionId(parentCollectionId, conditionId, fullIndexSet ^ freeIndexSet) */\n      jump\t// in\n        /* \"ConditionalTokens.sol\":7714:7972  _mint(... */\n    tag_321:\n        /* \"ConditionalTokens.sol\":8062:8073  conditionId */\n      dup9\n        /* \"ConditionalTokens.sol\":8042:8060  parentCollectionId */\n      dup11\n        /* \"ConditionalTokens.sol\":8013:8023  msg.sender */\n      caller\n      sub(shl(0xa0, 0x01), 0x01)\n        /* \"ConditionalTokens.sol\":7998:8093  PositionsMerge(msg.sender, collateralToken, parentCollectionId, conditionId, partition, amount) */\n      and\n      0x6f13ca62553fcc2bcd2372180a43949c1e4cebba603901ede2f4e14f36b282ca\n        /* \"ConditionalTokens.sol\":8025:8040  collateralToken */\n      dup15\n        /* \"ConditionalTokens.sol\":8075:8084  partition */\n      dup13\n      dup13\n        /* \"ConditionalTokens.sol\":8086:8092  amount */\n      dup13\n        /* \"ConditionalTokens.sol\":7998:8093  PositionsMerge(msg.sender, collateralToken, parentCollectionId, conditionId, partition, amount) */\n      mload(0x40)\n      tag_270\n      swap5\n      swap4\n      swap3\n      swap2\n      swap1\n      tag_271\n      jump\t// in\n        /* \"@openzeppelin/contracts/token/ERC1155/ERC1155.sol\":3154:3298   */\n    tag_91:\n        /* \"@openzeppelin/contracts/token/ERC1155/ERC1155.sol\":3239:3291   */\n      tag_326\n        /* \"@openzeppelin/contracts/utils/Context.sol\":735:745   */\n      caller\n        /* \"@openzeppelin/contracts/token/ERC1155/ERC1155.sol\":3272:3280   */\n      dup4\n        /* \"@openzeppelin/contracts/token/ERC1155/ERC1155.sol\":3282:3290   */\n      dup4\n        /* \"@openzeppelin/contracts/token/ERC1155/ERC1155.sol\":3239:3257   */\n      tag_328\n        /* \"@openzeppelin/contracts/token/ERC1155/ERC1155.sol\":3239:3291   */\n      jump\t// in\n    tag_326:\n        /* \"@openzeppelin/contracts/token/ERC1155/ERC1155.sol\":3154:3298   */\n      pop\n      pop\n      jump\t// out\n        /* \"ConditionalTokens.sol\":4895:6015  function reportPayouts(bytes32 questionId, uint[] calldata payouts) external {... */\n    tag_95:\n        /* \"ConditionalTokens.sol\":5006:5013  payouts */\n      dup1\n        /* \"ConditionalTokens.sol\":5057:5058  1 */\n      0x01\n        /* \"ConditionalTokens.sol\":5038:5058  outcomeSlotCount > 1 */\n      dup2\n      gt\n        /* \"ConditionalTokens.sol\":5030:5105  require(outcomeSlotCount > 1, \"there should be more than one outcome slot\") */\n      tag_330\n      jumpi\n      mload(0x40)\n      shl(0xe5, 0x461bcd)\n      dup2\n      mstore\n        /* \"#utility.yul\":20573:20575   */\n      0x20\n        /* \"ConditionalTokens.sol\":5030:5105  require(outcomeSlotCount > 1, \"there should be more than one outcome slot\") */\n      0x04\n      dup3\n      add\n        /* \"#utility.yul\":20555:20576   */\n      mstore\n        /* \"#utility.yul\":20612:20614   */\n      0x2a\n        /* \"#utility.yul\":20592:20610   */\n      0x24\n      dup3\n      add\n        /* \"#utility.yul\":20585:20615   */\n      mstore\n        /* \"#utility.yul\":20651:20685   */\n      0x74686572652073686f756c64206265206d6f7265207468616e206f6e65206f75\n        /* \"#utility.yul\":20631:20649   */\n      0x44\n      dup3\n      add\n        /* \"#utility.yul\":20624:20686   */\n      mstore\n      shl(0xb2, 0x1d18dbdb59481cdb1bdd)\n        /* \"#utility.yul\":20702:20720   */\n      0x64\n      dup3\n      add\n        /* \"#utility.yul\":20695:20735   */\n      mstore\n        /* \"#utility.yul\":20752:20771   */\n      0x84\n      add\n        /* \"ConditionalTokens.sol\":5030:5105  require(outcomeSlotCount > 1, \"there should be more than one outcome slot\") */\n      tag_120\n        /* \"#utility.yul\":20371:20777   */\n      jump\n        /* \"ConditionalTokens.sol\":5030:5105  require(outcomeSlotCount > 1, \"there should be more than one outcome slot\") */\n    tag_330:\n        /* \"CTHelpers.sol\":713:767  abi.encodePacked(oracle, questionId, outcomeSlotCount) */\n      0x40\n      dup1\n      mload\n      not(0xffffffffffffffffffffffff)\n        /* \"ConditionalTokens.sol\":5255:5265  msg.sender */\n      caller\n        /* \"#utility.yul\":26413:26415   */\n      0x60\n        /* \"#utility.yul\":26409:26424   */\n      shl\n        /* \"#utility.yul\":26405:26458   */\n      and\n        /* \"CTHelpers.sol\":713:767  abi.encodePacked(oracle, questionId, outcomeSlotCount) */\n      0x20\n      dup1\n      dup4\n      add\n        /* \"#utility.yul\":26393:26459   */\n      swap2\n      swap1\n      swap2\n      mstore\n        /* \"#utility.yul\":26475:26487   */\n      0x34\n      dup3\n      add\n        /* \"#utility.yul\":26468:26496   */\n      dup8\n      swap1\n      mstore\n        /* \"#utility.yul\":26512:26524   */\n      0x54\n      dup1\n      dup4\n      add\n        /* \"#utility.yul\":26505:26533   */\n      dup6\n      swap1\n      mstore\n        /* \"CTHelpers.sol\":713:767  abi.encodePacked(oracle, questionId, outcomeSlotCount) */\n      dup4\n      mload\n      dup1\n      dup5\n      sub\n      swap1\n      swap2\n      add\n      dup2\n      mstore\n        /* \"#utility.yul\":26549:26561   */\n      0x74\n      swap1\n      swap3\n      add\n        /* \"CTHelpers.sol\":713:767  abi.encodePacked(oracle, questionId, outcomeSlotCount) */\n      dup4\n      mstore\n        /* \"CTHelpers.sol\":703:768  keccak256(abi.encodePacked(oracle, questionId, outcomeSlotCount)) */\n      dup2\n      mload\n      swap2\n      dup2\n      add\n      swap2\n      swap1\n      swap2\n      keccak256\n      0x00\n        /* \"ConditionalTokens.sol\":5314:5343  payoutNumerators[conditionId] */\n      dup2\n      dup2\n      mstore\n        /* \"ConditionalTokens.sol\":5314:5330  payoutNumerators */\n      0x04\n        /* \"ConditionalTokens.sol\":5314:5343  payoutNumerators[conditionId] */\n      swap1\n      swap3\n      mstore\n      swap2\n      swap1\n      keccak256\n        /* \"ConditionalTokens.sol\":5314:5350  payoutNumerators[conditionId].length */\n      sload\n        /* \"ConditionalTokens.sol\":5314:5370  payoutNumerators[conditionId].length == outcomeSlotCount */\n      dup3\n      eq\n        /* \"ConditionalTokens.sol\":5306:5406  require(payoutNumerators[conditionId].length == outcomeSlotCount, \"condition not prepared or found\") */\n      tag_334\n      jumpi\n      mload(0x40)\n      shl(0xe5, 0x461bcd)\n      dup2\n      mstore\n        /* \"#utility.yul\":20984:20986   */\n      0x20\n        /* \"ConditionalTokens.sol\":5306:5406  require(payoutNumerators[conditionId].length == outcomeSlotCount, \"condition not prepared or found\") */\n      0x04\n      dup3\n      add\n        /* \"#utility.yul\":20966:20987   */\n      mstore\n        /* \"#utility.yul\":21023:21025   */\n      0x1f\n        /* \"#utility.yul\":21003:21021   */\n      0x24\n      dup3\n      add\n        /* \"#utility.yul\":20996:21026   */\n      mstore\n        /* \"#utility.yul\":21062:21095   */\n      0x636f6e646974696f6e206e6f74207072657061726564206f7220666f756e6400\n        /* \"#utility.yul\":21042:21060   */\n      0x44\n      dup3\n      add\n        /* \"#utility.yul\":21035:21096   */\n      mstore\n        /* \"#utility.yul\":21113:21131   */\n      0x64\n      add\n        /* \"ConditionalTokens.sol\":5306:5406  require(payoutNumerators[conditionId].length == outcomeSlotCount, \"condition not prepared or found\") */\n      tag_120\n        /* \"#utility.yul\":20782:21137   */\n      jump\n        /* \"ConditionalTokens.sol\":5306:5406  require(payoutNumerators[conditionId].length == outcomeSlotCount, \"condition not prepared or found\") */\n    tag_334:\n        /* \"ConditionalTokens.sol\":5424:5454  payoutDenominator[conditionId] */\n      0x00\n      dup2\n      dup2\n      mstore\n        /* \"ConditionalTokens.sol\":5424:5441  payoutDenominator */\n      0x03\n        /* \"ConditionalTokens.sol\":5424:5454  payoutDenominator[conditionId] */\n      0x20\n      mstore\n      0x40\n      swap1\n      keccak256\n      sload\n        /* \"ConditionalTokens.sol\":5424:5459  payoutDenominator[conditionId] == 0 */\n      iszero\n        /* \"ConditionalTokens.sol\":5416:5494  require(payoutDenominator[conditionId] == 0, \"payout denominator already set\") */\n      tag_337\n      jumpi\n      mload(0x40)\n      shl(0xe5, 0x461bcd)\n      dup2\n      mstore\n        /* \"#utility.yul\":21344:21346   */\n      0x20\n        /* \"ConditionalTokens.sol\":5416:5494  require(payoutDenominator[conditionId] == 0, \"payout denominator already set\") */\n      0x04\n      dup3\n      add\n        /* \"#utility.yul\":21326:21347   */\n      mstore\n        /* \"#utility.yul\":21383:21385   */\n      0x1e\n        /* \"#utility.yul\":21363:21381   */\n      0x24\n      dup3\n      add\n        /* \"#utility.yul\":21356:21386   */\n      mstore\n        /* \"#utility.yul\":21422:21454   */\n      0x7061796f75742064656e6f6d696e61746f7220616c7265616479207365740000\n        /* \"#utility.yul\":21402:21420   */\n      0x44\n      dup3\n      add\n        /* \"#utility.yul\":21395:21455   */\n      mstore\n        /* \"#utility.yul\":21472:21490   */\n      0x64\n      add\n        /* \"ConditionalTokens.sol\":5416:5494  require(payoutDenominator[conditionId] == 0, \"payout denominator already set\") */\n      tag_120\n        /* \"#utility.yul\":21142:21496   */\n      jump\n        /* \"ConditionalTokens.sol\":5416:5494  require(payoutDenominator[conditionId] == 0, \"payout denominator already set\") */\n    tag_337:\n        /* \"ConditionalTokens.sol\":5505:5513  uint den */\n      0x00\n        /* \"ConditionalTokens.sol\":5532:5538  uint i */\n      dup1\n        /* \"ConditionalTokens.sol\":5527:5793  for (uint i = 0; i < outcomeSlotCount; i++) {... */\n    tag_340:\n        /* \"ConditionalTokens.sol\":5548:5564  outcomeSlotCount */\n      dup4\n        /* \"ConditionalTokens.sol\":5544:5545  i */\n      dup2\n        /* \"ConditionalTokens.sol\":5544:5564  i < outcomeSlotCount */\n      lt\n        /* \"ConditionalTokens.sol\":5527:5793  for (uint i = 0; i < outcomeSlotCount; i++) {... */\n      iszero\n      tag_341\n      jumpi\n        /* \"ConditionalTokens.sol\":5585:5593  uint num */\n      0x00\n        /* \"ConditionalTokens.sol\":5596:5603  payouts */\n      dup7\n      dup7\n        /* \"ConditionalTokens.sol\":5604:5605  i */\n      dup4\n        /* \"ConditionalTokens.sol\":5596:5606  payouts[i] */\n      dup2\n      dup2\n      lt\n      tag_344\n      jumpi\n      tag_344\n      tag_132\n      jump\t// in\n    tag_344:\n      swap1\n      pop\n      0x20\n      mul\n      add\n      calldataload\n        /* \"ConditionalTokens.sol\":5585:5606  uint num = payouts[i] */\n      swap1\n      pop\n        /* \"ConditionalTokens.sol\":5633:5636  num */\n      dup1\n        /* \"ConditionalTokens.sol\":5626:5629  den */\n      dup4\n        /* \"ConditionalTokens.sol\":5626:5637  den + (num) */\n      tag_345\n      swap2\n      swap1\n      tag_149\n      jump\t// in\n    tag_345:\n        /* \"ConditionalTokens.sol\":5660:5689  payoutNumerators[conditionId] */\n      0x00\n      dup6\n      dup2\n      mstore\n        /* \"ConditionalTokens.sol\":5660:5676  payoutNumerators */\n      0x04\n        /* \"ConditionalTokens.sol\":5660:5689  payoutNumerators[conditionId] */\n      0x20\n      mstore\n      0x40\n      swap1\n      keccak256\n        /* \"ConditionalTokens.sol\":5660:5692  payoutNumerators[conditionId][i] */\n      dup1\n      sload\n        /* \"ConditionalTokens.sol\":5620:5637  den = den + (num) */\n      swap2\n      swap5\n      pop\n        /* \"ConditionalTokens.sol\":5660:5689  payoutNumerators[conditionId] */\n      swap1\n        /* \"ConditionalTokens.sol\":5690:5691  i */\n      dup4\n      swap1\n        /* \"ConditionalTokens.sol\":5660:5692  payoutNumerators[conditionId][i] */\n      dup2\n      lt\n      tag_347\n      jumpi\n      tag_347\n      tag_132\n      jump\t// in\n    tag_347:\n      swap1\n      0x00\n      mstore\n      keccak256(0x00, 0x20)\n      add\n      sload\n        /* \"ConditionalTokens.sol\":5696:5697  0 */\n      0x00\n        /* \"ConditionalTokens.sol\":5660:5697  payoutNumerators[conditionId][i] == 0 */\n      eq\n        /* \"ConditionalTokens.sol\":5652:5730  require(payoutNumerators[conditionId][i] == 0, \"payout numerator already set\") */\n      tag_349\n      jumpi\n      mload(0x40)\n      shl(0xe5, 0x461bcd)\n      dup2\n      mstore\n        /* \"#utility.yul\":21703:21705   */\n      0x20\n        /* \"ConditionalTokens.sol\":5652:5730  require(payoutNumerators[conditionId][i] == 0, \"payout numerator already set\") */\n      0x04\n      dup3\n      add\n        /* \"#utility.yul\":21685:21706   */\n      mstore\n        /* \"#utility.yul\":21742:21744   */\n      0x1c\n        /* \"#utility.yul\":21722:21740   */\n      0x24\n      dup3\n      add\n        /* \"#utility.yul\":21715:21745   */\n      mstore\n        /* \"#utility.yul\":21781:21811   */\n      0x7061796f7574206e756d657261746f7220616c72656164792073657400000000\n        /* \"#utility.yul\":21761:21779   */\n      0x44\n      dup3\n      add\n        /* \"#utility.yul\":21754:21812   */\n      mstore\n        /* \"#utility.yul\":21829:21847   */\n      0x64\n      add\n        /* \"ConditionalTokens.sol\":5652:5730  require(payoutNumerators[conditionId][i] == 0, \"payout numerator already set\") */\n      tag_120\n        /* \"#utility.yul\":21501:21853   */\n      jump\n        /* \"ConditionalTokens.sol\":5652:5730  require(payoutNumerators[conditionId][i] == 0, \"payout numerator already set\") */\n    tag_349:\n        /* \"ConditionalTokens.sol\":5744:5773  payoutNumerators[conditionId] */\n      0x00\n      dup5\n      dup2\n      mstore\n        /* \"ConditionalTokens.sol\":5744:5760  payoutNumerators */\n      0x04\n        /* \"ConditionalTokens.sol\":5744:5773  payoutNumerators[conditionId] */\n      0x20\n      mstore\n      0x40\n      swap1\n      keccak256\n        /* \"ConditionalTokens.sol\":5744:5776  payoutNumerators[conditionId][i] */\n      dup1\n      sload\n        /* \"ConditionalTokens.sol\":5779:5782  num */\n      dup3\n      swap2\n        /* \"ConditionalTokens.sol\":5744:5773  payoutNumerators[conditionId] */\n      swap1\n        /* \"ConditionalTokens.sol\":5774:5775  i */\n      dup5\n      swap1\n        /* \"ConditionalTokens.sol\":5744:5776  payoutNumerators[conditionId][i] */\n      dup2\n      lt\n      tag_353\n      jumpi\n      tag_353\n      tag_132\n      jump\t// in\n    tag_353:\n      0x00\n      swap2\n      dup3\n      mstore\n      0x20\n      swap1\n      swap2\n      keccak256\n      add\n        /* \"ConditionalTokens.sol\":5744:5782  payoutNumerators[conditionId][i] = num */\n      sstore\n      pop\n        /* \"ConditionalTokens.sol\":5566:5569  i++ */\n      0x01\n      add\n        /* \"ConditionalTokens.sol\":5527:5793  for (uint i = 0; i < outcomeSlotCount; i++) {... */\n      jump(tag_340)\n    tag_341:\n      pop\n        /* \"ConditionalTokens.sol\":5816:5817  0 */\n      0x00\n        /* \"ConditionalTokens.sol\":5810:5813  den */\n      dup2\n        /* \"ConditionalTokens.sol\":5810:5817  den > 0 */\n      gt\n        /* \"ConditionalTokens.sol\":5802:5842  require(den > 0, \"payout is all zeroes\") */\n      tag_355\n      jumpi\n      mload(0x40)\n      shl(0xe5, 0x461bcd)\n      dup2\n      mstore\n        /* \"#utility.yul\":22060:22062   */\n      0x20\n        /* \"ConditionalTokens.sol\":5802:5842  require(den > 0, \"payout is all zeroes\") */\n      0x04\n      dup3\n      add\n        /* \"#utility.yul\":22042:22063   */\n      mstore\n        /* \"#utility.yul\":22099:22101   */\n      0x14\n        /* \"#utility.yul\":22079:22097   */\n      0x24\n      dup3\n      add\n        /* \"#utility.yul\":22072:22102   */\n      mstore\n        /* \"#utility.yul\":22138:22160   */\n      0x7061796f757420697320616c6c207a65726f6573000000000000000000000000\n        /* \"#utility.yul\":22118:22136   */\n      0x44\n      dup3\n      add\n        /* \"#utility.yul\":22111:22161   */\n      mstore\n        /* \"#utility.yul\":22178:22196   */\n      0x64\n      add\n        /* \"ConditionalTokens.sol\":5802:5842  require(den > 0, \"payout is all zeroes\") */\n      tag_120\n        /* \"#utility.yul\":21858:22202   */\n      jump\n        /* \"ConditionalTokens.sol\":5802:5842  require(den > 0, \"payout is all zeroes\") */\n    tag_355:\n        /* \"ConditionalTokens.sol\":5852:5882  payoutDenominator[conditionId] */\n      0x00\n      dup3\n      dup2\n      mstore\n        /* \"ConditionalTokens.sol\":5852:5869  payoutDenominator */\n      0x03\n        /* \"ConditionalTokens.sol\":5852:5882  payoutDenominator[conditionId] */\n      0x20\n      swap1\n      dup2\n      mstore\n      0x40\n      dup1\n      dup4\n      keccak256\n        /* \"ConditionalTokens.sol\":5852:5888  payoutDenominator[conditionId] = den */\n      dup5\n      swap1\n      sstore\n        /* \"ConditionalTokens.sol\":5978:5994  payoutNumerators */\n      0x04\n        /* \"ConditionalTokens.sol\":5978:6007  payoutNumerators[conditionId] */\n      swap1\n      swap2\n      mstore\n      swap1\n      dup2\n      swap1\n      keccak256\n        /* \"ConditionalTokens.sol\":5903:6008  ConditionResolution(conditionId, msg.sender, questionId, outcomeSlotCount, payoutNumerators[conditionId]) */\n      swap1\n      mload\n        /* \"ConditionalTokens.sol\":5948:5958  questionId */\n      dup8\n      swap2\n        /* \"ConditionalTokens.sol\":5936:5946  msg.sender */\n      caller\n      swap2\n        /* \"ConditionalTokens.sol\":5870:5881  conditionId */\n      dup6\n      swap2\n        /* \"ConditionalTokens.sol\":5903:6008  ConditionResolution(conditionId, msg.sender, questionId, outcomeSlotCount, payoutNumerators[conditionId]) */\n      0xb44d84d3289691f71497564b85d4233648d9dbae8cbdbb4329f301c3a0185894\n      swap2\n      tag_358\n      swap2\n        /* \"ConditionalTokens.sol\":5960:5976  outcomeSlotCount */\n      dup10\n      swap2\n        /* \"ConditionalTokens.sol\":5903:6008  ConditionResolution(conditionId, msg.sender, questionId, outcomeSlotCount, payoutNumerators[conditionId]) */\n      tag_359\n      jump\t// in\n    tag_358:\n      mload(0x40)\n      dup1\n      swap2\n      sub\n      swap1\n      log4\n        /* \"ConditionalTokens.sol\":4972:6015  {... */\n      pop\n      pop\n      pop\n        /* \"ConditionalTokens.sol\":4895:6015  function reportPayouts(bytes32 questionId, uint[] calldata payouts) external {... */\n      pop\n      pop\n      pop\n      jump\t// out\n        /* \"ConditionalTokens.sol\":3669:4350  function prepareCondition(address oracle, bytes32 questionId, uint outcomeSlotCount) external {... */\n    tag_103:\n        /* \"ConditionalTokens.sol\":3888:3891  256 */\n      0x0100\n        /* \"ConditionalTokens.sol\":3868:3884  outcomeSlotCount */\n      dup2\n        /* \"ConditionalTokens.sol\":3868:3891  outcomeSlotCount <= 256 */\n      gt\n      iszero\n        /* \"ConditionalTokens.sol\":3860:3918  require(outcomeSlotCount <= 256, \"too many outcome slots\") */\n      tag_362\n      jumpi\n      mload(0x40)\n      shl(0xe5, 0x461bcd)\n      dup2\n      mstore\n        /* \"#utility.yul\":23140:23142   */\n      0x20\n        /* \"ConditionalTokens.sol\":3860:3918  require(outcomeSlotCount <= 256, \"too many outcome slots\") */\n      0x04\n      dup3\n      add\n        /* \"#utility.yul\":23122:23143   */\n      mstore\n        /* \"#utility.yul\":23179:23181   */\n      0x16\n        /* \"#utility.yul\":23159:23177   */\n      0x24\n      dup3\n      add\n        /* \"#utility.yul\":23152:23182   */\n      mstore\n        /* \"#utility.yul\":23218:23242   */\n      0x746f6f206d616e79206f7574636f6d6520736c6f747300000000000000000000\n        /* \"#utility.yul\":23198:23216   */\n      0x44\n      dup3\n      add\n        /* \"#utility.yul\":23191:23243   */\n      mstore\n        /* \"#utility.yul\":23260:23278   */\n      0x64\n      add\n        /* \"ConditionalTokens.sol\":3860:3918  require(outcomeSlotCount <= 256, \"too many outcome slots\") */\n      tag_120\n        /* \"#utility.yul\":22938:23284   */\n      jump\n        /* \"ConditionalTokens.sol\":3860:3918  require(outcomeSlotCount <= 256, \"too many outcome slots\") */\n    tag_362:\n        /* \"ConditionalTokens.sol\":3955:3956  1 */\n      0x01\n        /* \"ConditionalTokens.sol\":3936:3952  outcomeSlotCount */\n      dup2\n        /* \"ConditionalTokens.sol\":3936:3956  outcomeSlotCount > 1 */\n      gt\n        /* \"ConditionalTokens.sol\":3928:4003  require(outcomeSlotCount > 1, \"there should be more than one outcome slot\") */\n      tag_365\n      jumpi\n      mload(0x40)\n      shl(0xe5, 0x461bcd)\n      dup2\n      mstore\n        /* \"#utility.yul\":20573:20575   */\n      0x20\n        /* \"ConditionalTokens.sol\":3928:4003  require(outcomeSlotCount > 1, \"there should be more than one outcome slot\") */\n      0x04\n      dup3\n      add\n        /* \"#utility.yul\":20555:20576   */\n      mstore\n        /* \"#utility.yul\":20612:20614   */\n      0x2a\n        /* \"#utility.yul\":20592:20610   */\n      0x24\n      dup3\n      add\n        /* \"#utility.yul\":20585:20615   */\n      mstore\n        /* \"#utility.yul\":20651:20685   */\n      0x74686572652073686f756c64206265206d6f7265207468616e206f6e65206f75\n        /* \"#utility.yul\":20631:20649   */\n      0x44\n      dup3\n      add\n        /* \"#utility.yul\":20624:20686   */\n      mstore\n      shl(0xb2, 0x1d18dbdb59481cdb1bdd)\n        /* \"#utility.yul\":20702:20720   */\n      0x64\n      dup3\n      add\n        /* \"#utility.yul\":20695:20735   */\n      mstore\n        /* \"#utility.yul\":20752:20771   */\n      0x84\n      add\n        /* \"ConditionalTokens.sol\":3928:4003  require(outcomeSlotCount > 1, \"there should be more than one outcome slot\") */\n      tag_120\n        /* \"#utility.yul\":20371:20777   */\n      jump\n        /* \"ConditionalTokens.sol\":3928:4003  require(outcomeSlotCount > 1, \"there should be more than one outcome slot\") */\n    tag_365:\n        /* \"CTHelpers.sol\":713:767  abi.encodePacked(oracle, questionId, outcomeSlotCount) */\n      0x40\n      dup1\n      mload\n      not(0xffffffffffffffffffffffff)\n        /* \"#utility.yul\":26413:26415   */\n      0x60\n        /* \"#utility.yul\":26409:26424   */\n      dup7\n      swap1\n      shl\n        /* \"#utility.yul\":26405:26458   */\n      and\n        /* \"CTHelpers.sol\":713:767  abi.encodePacked(oracle, questionId, outcomeSlotCount) */\n      0x20\n      dup1\n      dup4\n      add\n        /* \"#utility.yul\":26393:26459   */\n      swap2\n      swap1\n      swap2\n      mstore\n        /* \"#utility.yul\":26475:26487   */\n      0x34\n      dup3\n      add\n        /* \"#utility.yul\":26468:26496   */\n      dup6\n      swap1\n      mstore\n        /* \"#utility.yul\":26512:26524   */\n      0x54\n      dup1\n      dup4\n      add\n        /* \"#utility.yul\":26505:26533   */\n      dup6\n      swap1\n      mstore\n        /* \"CTHelpers.sol\":713:767  abi.encodePacked(oracle, questionId, outcomeSlotCount) */\n      dup4\n      mload\n      dup1\n      dup5\n      sub\n      swap1\n      swap2\n      add\n      dup2\n      mstore\n        /* \"#utility.yul\":26549:26561   */\n      0x74\n      swap1\n      swap3\n      add\n        /* \"CTHelpers.sol\":713:767  abi.encodePacked(oracle, questionId, outcomeSlotCount) */\n      dup4\n      mstore\n        /* \"CTHelpers.sol\":703:768  keccak256(abi.encodePacked(oracle, questionId, outcomeSlotCount)) */\n      dup2\n      mload\n      swap2\n      dup2\n      add\n      swap2\n      swap1\n      swap2\n      keccak256\n      0x00\n        /* \"ConditionalTokens.sol\":4115:4144  payoutNumerators[conditionId] */\n      dup2\n      dup2\n      mstore\n        /* \"ConditionalTokens.sol\":4115:4131  payoutNumerators */\n      0x04\n        /* \"ConditionalTokens.sol\":4115:4144  payoutNumerators[conditionId] */\n      swap1\n      swap3\n      mstore\n      swap2\n      swap1\n      keccak256\n        /* \"ConditionalTokens.sol\":4115:4151  payoutNumerators[conditionId].length */\n      sload\n        /* \"ConditionalTokens.sol\":4115:4156  payoutNumerators[conditionId].length == 0 */\n      iszero\n        /* \"ConditionalTokens.sol\":4107:4187  require(payoutNumerators[conditionId].length == 0, \"condition already prepared\") */\n      tag_368\n      jumpi\n      mload(0x40)\n      shl(0xe5, 0x461bcd)\n      dup2\n      mstore\n        /* \"#utility.yul\":23491:23493   */\n      0x20\n        /* \"ConditionalTokens.sol\":4107:4187  require(payoutNumerators[conditionId].length == 0, \"condition already prepared\") */\n      0x04\n      dup3\n      add\n        /* \"#utility.yul\":23473:23494   */\n      mstore\n        /* \"#utility.yul\":23530:23532   */\n      0x1a\n        /* \"#utility.yul\":23510:23528   */\n      0x24\n      dup3\n      add\n        /* \"#utility.yul\":23503:23533   */\n      mstore\n        /* \"#utility.yul\":23569:23597   */\n      0x636f6e646974696f6e20616c7265616479207072657061726564000000000000\n        /* \"#utility.yul\":23549:23567   */\n      0x44\n      dup3\n      add\n        /* \"#utility.yul\":23542:23598   */\n      mstore\n        /* \"#utility.yul\":23615:23633   */\n      0x64\n      add\n        /* \"ConditionalTokens.sol\":4107:4187  require(payoutNumerators[conditionId].length == 0, \"condition already prepared\") */\n      tag_120\n        /* \"#utility.yul\":23289:23639   */\n      jump\n        /* \"ConditionalTokens.sol\":4107:4187  require(payoutNumerators[conditionId].length == 0, \"condition already prepared\") */\n    tag_368:\n        /* \"ConditionalTokens.sol\":4240:4256  outcomeSlotCount */\n      dup2\n        /* \"ConditionalTokens.sol\":4229:4257  new uint[](outcomeSlotCount) */\n      0xffffffffffffffff\n      dup2\n      gt\n      iszero\n      tag_372\n      jumpi\n      tag_372\n      tag_208\n      jump\t// in\n    tag_372:\n      mload(0x40)\n      swap1\n      dup1\n      dup3\n      mstore\n      dup1\n      0x20\n      mul\n      0x20\n      add\n      dup3\n      add\n      0x40\n      mstore\n      dup1\n      iszero\n      tag_373\n      jumpi\n      dup2\n      0x20\n      add\n      0x20\n      dup3\n      mul\n      dup1\n      calldatasize\n      dup4\n      calldatacopy\n      add\n      swap1\n      pop\n    tag_373:\n      pop\n        /* \"ConditionalTokens.sol\":4197:4226  payoutNumerators[conditionId] */\n      0x00\n      dup3\n      dup2\n      mstore\n        /* \"ConditionalTokens.sol\":4197:4213  payoutNumerators */\n      0x04\n        /* \"ConditionalTokens.sol\":4197:4226  payoutNumerators[conditionId] */\n      0x20\n      swap1\n      dup2\n      mstore\n      0x40\n      swap1\n      swap2\n      keccak256\n        /* \"ConditionalTokens.sol\":4197:4257  payoutNumerators[conditionId] = new uint[](outcomeSlotCount) */\n      dup3\n      mload\n      tag_374\n      swap4\n        /* \"ConditionalTokens.sol\":4197:4226  payoutNumerators[conditionId] */\n      swap2\n      swap3\n        /* \"ConditionalTokens.sol\":4197:4257  payoutNumerators[conditionId] = new uint[](outcomeSlotCount) */\n      swap2\n      swap1\n      swap2\n      add\n      swap1\n      tag_375\n      jump\t// in\n    tag_374:\n      pop\n        /* \"ConditionalTokens.sol\":4314:4324  questionId */\n      dup3\n        /* \"ConditionalTokens.sol\":4306:4312  oracle */\n      dup5\n      sub(shl(0xa0, 0x01), 0x01)\n        /* \"ConditionalTokens.sol\":4272:4343  ConditionPreparation(conditionId, oracle, questionId, outcomeSlotCount) */\n      and\n        /* \"ConditionalTokens.sol\":4293:4304  conditionId */\n      dup3\n        /* \"ConditionalTokens.sol\":4272:4343  ConditionPreparation(conditionId, oracle, questionId, outcomeSlotCount) */\n      0xab3760c3bd2bb38b5bcf54dc79802ed67338b4cf29f3054ded67ed24661e4177\n        /* \"ConditionalTokens.sol\":4326:4342  outcomeSlotCount */\n      dup6\n        /* \"ConditionalTokens.sol\":4272:4343  ConditionPreparation(conditionId, oracle, questionId, outcomeSlotCount) */\n      mload(0x40)\n      tag_376\n      swap2\n        /* \"#utility.yul\":639:664   */\n      dup2\n      mstore\n        /* \"#utility.yul\":627:629   */\n      0x20\n        /* \"#utility.yul\":612:630   */\n      add\n      swap1\n        /* \"#utility.yul\":493:670   */\n      jump\n        /* \"ConditionalTokens.sol\":4272:4343  ConditionPreparation(conditionId, oracle, questionId, outcomeSlotCount) */\n    tag_376:\n      mload(0x40)\n      dup1\n      swap2\n      sub\n      swap1\n      log4\n        /* \"ConditionalTokens.sol\":3763:4350  {... */\n      pop\n        /* \"ConditionalTokens.sol\":3669:4350  function prepareCondition(address oracle, bytes32 questionId, uint outcomeSlotCount) external {... */\n      pop\n      pop\n      pop\n      jump\t// out\n        /* \"@openzeppelin/contracts/token/ERC1155/ERC1155.sol\":3589:3940   */\n    tag_116:\n        /* \"@openzeppelin/contracts/utils/Context.sol\":735:745   */\n      caller\n      sub(shl(0xa0, 0x01), 0x01)\n        /* \"@openzeppelin/contracts/token/ERC1155/ERC1155.sol\":3755:3769   */\n      dup7\n      and\n      dup2\n      eq\n      dup1\n      iszero\n      swap1\n        /* \"@openzeppelin/contracts/token/ERC1155/ERC1155.sol\":3755:3804   */\n      tag_380\n      jumpi\n      pop\n      sub(shl(0xa0, 0x01), 0x01)\n        /* \"@openzeppelin/contracts/token/ERC1155/ERC1155.sol\":3478:3505   */\n      dup1\n      dup8\n      and\n        /* \"@openzeppelin/contracts/token/ERC1155/ERC1155.sol\":3455:3459   */\n      0x00\n        /* \"@openzeppelin/contracts/token/ERC1155/ERC1155.sol\":3478:3505   */\n      swap1\n      dup2\n      mstore\n        /* \"@openzeppelin/contracts/token/ERC1155/ERC1155.sol\":3478:3496   */\n      0x01\n        /* \"@openzeppelin/contracts/token/ERC1155/ERC1155.sol\":3478:3505   */\n      0x20\n      swap1\n      dup2\n      mstore\n      0x40\n      dup1\n      dup4\n      keccak256\n        /* \"@openzeppelin/contracts/token/ERC1155/ERC1155.sol\":3478:3515   */\n      swap4\n      dup6\n      and\n      dup4\n      mstore\n      swap3\n      swap1\n      mstore\n      keccak256\n      sload\n      0xff\n      and\n        /* \"@openzeppelin/contracts/token/ERC1155/ERC1155.sol\":3773:3804   */\n      iszero\n        /* \"@openzeppelin/contracts/token/ERC1155/ERC1155.sol\":3755:3804   */\n    tag_380:\n        /* \"@openzeppelin/contracts/token/ERC1155/ERC1155.sol\":3751:3880   */\n      iszero\n      tag_382\n      jumpi\n        /* \"@openzeppelin/contracts/token/ERC1155/ERC1155.sol\":3827:3869   */\n      mload(0x40)\n      shl(0xe1, 0x711bec91)\n      dup2\n      mstore\n      sub(shl(0xa0, 0x01), 0x01)\n        /* \"#utility.yul\":16956:16971   */\n      dup1\n      dup4\n      and\n        /* \"@openzeppelin/contracts/token/ERC1155/ERC1155.sol\":3827:3869   */\n      0x04\n      dup4\n      add\n        /* \"#utility.yul\":16938:16972   */\n      mstore\n        /* \"#utility.yul\":17008:17023   */\n      dup8\n      and\n        /* \"#utility.yul\":16988:17006   */\n      0x24\n      dup3\n      add\n        /* \"#utility.yul\":16981:17024   */\n      mstore\n        /* \"#utility.yul\":16850:16868   */\n      0x44\n      add\n        /* \"@openzeppelin/contracts/token/ERC1155/ERC1155.sol\":3827:3869   */\n      tag_120\n        /* \"#utility.yul\":16703:17030   */\n      jump\n        /* \"@openzeppelin/contracts/token/ERC1155/ERC1155.sol\":3751:3880   */\n    tag_382:\n        /* \"@openzeppelin/contracts/token/ERC1155/ERC1155.sol\":3889:3933   */\n      tag_198\n        /* \"@openzeppelin/contracts/token/ERC1155/ERC1155.sol\":3907:3911   */\n      dup7\n        /* \"@openzeppelin/contracts/token/ERC1155/ERC1155.sol\":3913:3915   */\n      dup7\n        /* \"@openzeppelin/contracts/token/ERC1155/ERC1155.sol\":3917:3919   */\n      dup7\n        /* \"@openzeppelin/contracts/token/ERC1155/ERC1155.sol\":3921:3926   */\n      dup7\n        /* \"@openzeppelin/contracts/token/ERC1155/ERC1155.sol\":3928:3932   */\n      dup7\n        /* \"@openzeppelin/contracts/token/ERC1155/ERC1155.sol\":3889:3906   */\n      tag_385\n        /* \"@openzeppelin/contracts/token/ERC1155/ERC1155.sol\":3889:3933   */\n      jump\t// in\n        /* \"CTHelpers.sol\":16721:17942  function getCollectionId(bytes32 parentCollectionId, bytes32 conditionId, uint indexSet) internal view returns (bytes32) {... */\n    tag_139:\n        /* \"CTHelpers.sol\":16833:16840  bytes32 */\n      0x00\n        /* \"CTHelpers.sol\":16852:16859  uint x1 */\n      dup1\n        /* \"CTHelpers.sol\":16894:16905  conditionId */\n      dup4\n        /* \"CTHelpers.sol\":16907:16915  indexSet */\n      dup4\n        /* \"CTHelpers.sol\":16877:16916  abi.encodePacked(conditionId, indexSet) */\n      add(0x20, mload(0x40))\n      tag_387\n      swap3\n      swap2\n      swap1\n        /* \"#utility.yul\":23801:23820   */\n      swap2\n      dup3\n      mstore\n        /* \"#utility.yul\":23845:23847   */\n      0x20\n        /* \"#utility.yul\":23836:23848   */\n      dup3\n      add\n        /* \"#utility.yul\":23829:23857   */\n      mstore\n        /* \"#utility.yul\":23882:23884   */\n      0x40\n        /* \"#utility.yul\":23873:23885   */\n      add\n      swap1\n        /* \"#utility.yul\":23644:23891   */\n      jump\n        /* \"CTHelpers.sol\":16877:16916  abi.encodePacked(conditionId, indexSet) */\n    tag_387:\n      0x40\n      dup1\n      mload\n      not(0x1f)\n      dup2\n      dup5\n      sub\n      add\n      dup2\n      mstore\n      swap2\n      swap1\n      mstore\n        /* \"CTHelpers.sol\":16867:16917  keccak256(abi.encodePacked(conditionId, indexSet)) */\n      dup1\n      mload\n        /* \"CTHelpers.sol\":16877:16916  abi.encodePacked(conditionId, indexSet) */\n      0x20\n        /* \"CTHelpers.sol\":16867:16917  keccak256(abi.encodePacked(conditionId, indexSet)) */\n      swap1\n      swap2\n      add\n      keccak256\n      swap1\n      pop\n        /* \"CTHelpers.sol\":16945:16948  255 */\n      0xff\n        /* \"CTHelpers.sol\":16939:16948  x1 >> 255 */\n      dup2\n      swap1\n      shr\n        /* \"CTHelpers.sol\":16939:16953  x1 >> 255 != 0 */\n      iszero\n      iszero\n        /* \"CTHelpers.sol\":16862:16918  uint(keccak256(abi.encodePacked(conditionId, indexSet))) */\n      0x00\n      dup1\n        /* \"CTHelpers.sol\":16997:17170  do {... */\n    tag_389:\n      0x00\n      dup1\n      mload\n      0x20\n      data_3c9b2d4d36a3f2e0da59e7d32cb1a6dfeb0312ec6bad2e2d02e8219844d4fb30\n      dup4\n      codecopy\n      dup2\n      mload\n      swap2\n      mstore\n        /* \"CTHelpers.sol\":17030:17031  1 */\n      0x01\n        /* \"CTHelpers.sol\":17026:17028  x1 */\n      dup6\n        /* \"CTHelpers.sol\":17019:17035  addmod(x1, 1, P) */\n      addmod\n        /* \"CTHelpers.sol\":17014:17035  x1 = addmod(x1, 1, P) */\n      swap4\n      pop\n      0x00\n      dup1\n      mload\n      0x20\n      data_3c9b2d4d36a3f2e0da59e7d32cb1a6dfeb0312ec6bad2e2d02e8219844d4fb30\n      dup4\n      codecopy\n      dup2\n      mload\n      swap2\n      mstore\n        /* \"CTHelpers.sol\":900:901  3 */\n      0x03\n      0x00\n      dup1\n      mload\n      0x20\n      data_3c9b2d4d36a3f2e0da59e7d32cb1a6dfeb0312ec6bad2e2d02e8219844d4fb30\n      dup4\n      codecopy\n      dup2\n      mload\n      swap2\n      mstore\n        /* \"CTHelpers.sol\":799:876  21888242871839275222246405745257275088696311157297823662689037894645226208583 */\n      dup1\n        /* \"CTHelpers.sol\":17083:17085  x1 */\n      dup8\n        /* \"CTHelpers.sol\":17079:17081  x1 */\n      dup9\n        /* \"CTHelpers.sol\":17072:17089  mulmod(x1, x1, P) */\n      mulmod\n        /* \"CTHelpers.sol\":17068:17070  x1 */\n      dup8\n        /* \"CTHelpers.sol\":17061:17093  mulmod(x1, mulmod(x1, x1, P), P) */\n      mulmod\n        /* \"CTHelpers.sol\":17054:17100  addmod(mulmod(x1, mulmod(x1, x1, P), P), B, P) */\n      addmod\n        /* \"CTHelpers.sol\":17049:17100  yy = addmod(mulmod(x1, mulmod(x1, x1, P), P), B, P) */\n      swap1\n      pop\n        /* \"CTHelpers.sol\":17119:17127  sqrt(yy) */\n      tag_401\n        /* \"CTHelpers.sol\":17124:17126  yy */\n      dup2\n        /* \"CTHelpers.sol\":17119:17123  sqrt */\n      tag_402\n        /* \"CTHelpers.sol\":17119:17127  sqrt(yy) */\n      jump\t// in\n    tag_401:\n        /* \"CTHelpers.sol\":17114:17127  y1 = sqrt(yy) */\n      swap2\n      pop\n        /* \"CTHelpers.sol\":17166:17168  yy */\n      dup1\n      0x00\n      dup1\n      mload\n      0x20\n      data_3c9b2d4d36a3f2e0da59e7d32cb1a6dfeb0312ec6bad2e2d02e8219844d4fb30\n      dup4\n      codecopy\n      dup2\n      mload\n      swap2\n      mstore\n        /* \"CTHelpers.sol\":17156:17158  y1 */\n      dup4\n        /* \"CTHelpers.sol\":17152:17154  y1 */\n      dup5\n        /* \"CTHelpers.sol\":17145:17162  mulmod(y1, y1, P) */\n      mulmod\n        /* \"CTHelpers.sol\":17145:17168  mulmod(y1, y1, P) != yy */\n      sub\n        /* \"CTHelpers.sol\":16997:17170  do {... */\n      tag_389\n      jumpi\n        /* \"CTHelpers.sol\":17182:17185  odd */\n      dup3\n        /* \"CTHelpers.sol\":17182:17200  odd && y1 % 2 == 0 */\n      dup1\n      iszero\n      tag_405\n      jumpi\n      pop\n        /* \"CTHelpers.sol\":17189:17195  y1 % 2 */\n      tag_406\n        /* \"CTHelpers.sol\":17194:17195  2 */\n      0x02\n        /* \"CTHelpers.sol\":17189:17191  y1 */\n      dup4\n        /* \"CTHelpers.sol\":17189:17195  y1 % 2 */\n      tag_407\n      jump\t// in\n    tag_406:\n        /* \"CTHelpers.sol\":17189:17200  y1 % 2 == 0 */\n      iszero\n        /* \"CTHelpers.sol\":17182:17200  odd && y1 % 2 == 0 */\n    tag_405:\n        /* \"CTHelpers.sol\":17182:17223  odd && y1 % 2 == 0 || !odd && y1 % 2 == 1 */\n      dup1\n      tag_409\n      jumpi\n      pop\n        /* \"CTHelpers.sol\":17205:17208  odd */\n      dup3\n        /* \"CTHelpers.sol\":17204:17208  !odd */\n      iszero\n        /* \"CTHelpers.sol\":17204:17223  !odd && y1 % 2 == 1 */\n      dup1\n      iszero\n      tag_409\n      jumpi\n      pop\n        /* \"CTHelpers.sol\":17212:17218  y1 % 2 */\n      tag_410\n        /* \"CTHelpers.sol\":17217:17218  2 */\n      0x02\n        /* \"CTHelpers.sol\":17212:17214  y1 */\n      dup4\n        /* \"CTHelpers.sol\":17212:17218  y1 % 2 */\n      tag_407\n      jump\t// in\n    tag_410:\n        /* \"CTHelpers.sol\":17222:17223  1 */\n      0x01\n        /* \"CTHelpers.sol\":17212:17223  y1 % 2 == 1 */\n      eq\n        /* \"CTHelpers.sol\":17204:17223  !odd && y1 % 2 == 1 */\n    tag_409:\n        /* \"CTHelpers.sol\":17179:17248  if(odd && y1 % 2 == 0 || !odd && y1 % 2 == 1)... */\n      iszero\n      tag_411\n      jumpi\n        /* \"CTHelpers.sol\":17242:17248  P - y1 */\n      tag_412\n        /* \"CTHelpers.sol\":17246:17248  y1 */\n      dup3\n      0x00\n      dup1\n      mload\n      0x20\n      data_3c9b2d4d36a3f2e0da59e7d32cb1a6dfeb0312ec6bad2e2d02e8219844d4fb30\n      dup4\n      codecopy\n      dup2\n      mload\n      swap2\n      mstore\n        /* \"CTHelpers.sol\":17242:17248  P - y1 */\n      tag_126\n      jump\t// in\n    tag_412:\n        /* \"CTHelpers.sol\":17237:17248  y1 = P - y1 */\n      swap2\n      pop\n        /* \"CTHelpers.sol\":17179:17248  if(odd && y1 % 2 == 0 || !odd && y1 % 2 == 1)... */\n    tag_411:\n        /* \"CTHelpers.sol\":17274:17292  parentCollectionId */\n      dup8\n        /* \"CTHelpers.sol\":17306:17313  x2 != 0 */\n      dup1\n      iszero\n        /* \"CTHelpers.sol\":17303:17854  if(x2 != 0) {... */\n      tag_413\n      jumpi\n        /* \"CTHelpers.sol\":17341:17344  254 */\n      0xfe\n        /* \"CTHelpers.sol\":17335:17344  x2 >> 254 */\n      dup2\n      swap1\n      shr\n        /* \"CTHelpers.sol\":17335:17349  x2 >> 254 != 0 */\n      iszero\n      iszero\n      swap4\n      pop\n        /* \"CTHelpers.sol\":17368:17382  (x2 << 2) >> 2 */\n      0x3fffffffffffffffffffffffffffffffffffffffffffffffffffffffffffffff\n      and\n      0x00\n      dup1\n      mload\n      0x20\n      data_3c9b2d4d36a3f2e0da59e7d32cb1a6dfeb0312ec6bad2e2d02e8219844d4fb30\n      dup4\n      codecopy\n      dup2\n      mload\n      swap2\n      mstore\n        /* \"CTHelpers.sol\":900:901  3 */\n      0x03\n      0x00\n      dup1\n      mload\n      0x20\n      data_3c9b2d4d36a3f2e0da59e7d32cb1a6dfeb0312ec6bad2e2d02e8219844d4fb30\n      dup4\n      codecopy\n      dup2\n      mload\n      swap2\n      mstore\n        /* \"CTHelpers.sol\":799:876  21888242871839275222246405745257275088696311157297823662689037894645226208583 */\n      dup1\n        /* \"CTHelpers.sol\":17430:17432  x2 */\n      dup5\n        /* \"CTHelpers.sol\":17426:17428  x2 */\n      dup6\n        /* \"CTHelpers.sol\":17419:17436  mulmod(x2, x2, P) */\n      mulmod\n        /* \"CTHelpers.sol\":17415:17417  x2 */\n      dup5\n        /* \"CTHelpers.sol\":17408:17440  mulmod(x2, mulmod(x2, x2, P), P) */\n      mulmod\n        /* \"CTHelpers.sol\":17401:17447  addmod(mulmod(x2, mulmod(x2, x2, P), P), B, P) */\n      addmod\n        /* \"CTHelpers.sol\":17396:17447  yy = addmod(mulmod(x2, mulmod(x2, x2, P), P), B, P) */\n      swap2\n      pop\n        /* \"CTHelpers.sol\":17461:17468  uint y2 */\n      0x00\n        /* \"CTHelpers.sol\":17471:17479  sqrt(yy) */\n      tag_420\n        /* \"CTHelpers.sol\":17476:17478  yy */\n      dup4\n        /* \"CTHelpers.sol\":17471:17475  sqrt */\n      tag_402\n        /* \"CTHelpers.sol\":17471:17479  sqrt(yy) */\n      jump\t// in\n    tag_420:\n        /* \"CTHelpers.sol\":17461:17479  uint y2 = sqrt(yy) */\n      swap1\n      pop\n        /* \"CTHelpers.sol\":17496:17499  odd */\n      dup5\n        /* \"CTHelpers.sol\":17496:17514  odd && y2 % 2 == 0 */\n      dup1\n      iszero\n      tag_421\n      jumpi\n      pop\n        /* \"CTHelpers.sol\":17503:17509  y2 % 2 */\n      tag_422\n        /* \"CTHelpers.sol\":17508:17509  2 */\n      0x02\n        /* \"CTHelpers.sol\":17503:17505  y2 */\n      dup3\n        /* \"CTHelpers.sol\":17503:17509  y2 % 2 */\n      tag_407\n      jump\t// in\n    tag_422:\n        /* \"CTHelpers.sol\":17503:17514  y2 % 2 == 0 */\n      iszero\n        /* \"CTHelpers.sol\":17496:17514  odd && y2 % 2 == 0 */\n    tag_421:\n        /* \"CTHelpers.sol\":17496:17537  odd && y2 % 2 == 0 || !odd && y2 % 2 == 1 */\n      dup1\n      tag_424\n      jumpi\n      pop\n        /* \"CTHelpers.sol\":17519:17522  odd */\n      dup5\n        /* \"CTHelpers.sol\":17518:17522  !odd */\n      iszero\n        /* \"CTHelpers.sol\":17518:17537  !odd && y2 % 2 == 1 */\n      dup1\n      iszero\n      tag_424\n      jumpi\n      pop\n        /* \"CTHelpers.sol\":17526:17532  y2 % 2 */\n      tag_425\n        /* \"CTHelpers.sol\":17531:17532  2 */\n      0x02\n        /* \"CTHelpers.sol\":17526:17528  y2 */\n      dup3\n        /* \"CTHelpers.sol\":17526:17532  y2 % 2 */\n      tag_407\n      jump\t// in\n    tag_425:\n        /* \"CTHelpers.sol\":17536:17537  1 */\n      0x01\n        /* \"CTHelpers.sol\":17526:17537  y2 % 2 == 1 */\n      eq\n        /* \"CTHelpers.sol\":17518:17537  !odd && y2 % 2 == 1 */\n    tag_424:\n        /* \"CTHelpers.sol\":17493:17566  if(odd && y2 % 2 == 0 || !odd && y2 % 2 == 1)... */\n      iszero\n      tag_426\n      jumpi\n        /* \"CTHelpers.sol\":17560:17566  P - y2 */\n      tag_427\n        /* \"CTHelpers.sol\":17564:17566  y2 */\n      dup2\n      0x00\n      dup1\n      mload\n      0x20\n      data_3c9b2d4d36a3f2e0da59e7d32cb1a6dfeb0312ec6bad2e2d02e8219844d4fb30\n      dup4\n      codecopy\n      dup2\n      mload\n      swap2\n      mstore\n        /* \"CTHelpers.sol\":17560:17566  P - y2 */\n      tag_126\n      jump\t// in\n    tag_427:\n        /* \"CTHelpers.sol\":17555:17566  y2 = P - y2 */\n      swap1\n      pop\n        /* \"CTHelpers.sol\":17493:17566  if(odd && y2 % 2 == 0 || !odd && y2 % 2 == 1)... */\n    tag_426:\n        /* \"CTHelpers.sol\":17609:17611  yy */\n      dup3\n      0x00\n      dup1\n      mload\n      0x20\n      data_3c9b2d4d36a3f2e0da59e7d32cb1a6dfeb0312ec6bad2e2d02e8219844d4fb30\n      dup4\n      codecopy\n      dup2\n      mload\n      swap2\n      mstore\n        /* \"CTHelpers.sol\":17599:17601  y2 */\n      dup3\n        /* \"CTHelpers.sol\":17595:17597  y2 */\n      dup4\n        /* \"CTHelpers.sol\":17588:17605  mulmod(y2, y2, P) */\n      mulmod\n        /* \"CTHelpers.sol\":17588:17611  mulmod(y2, y2, P) == yy */\n      eq\n        /* \"CTHelpers.sol\":17580:17644  require(mulmod(y2, y2, P) == yy, \"invalid parent collection ID\") */\n      tag_430\n      jumpi\n      mload(0x40)\n      shl(0xe5, 0x461bcd)\n      dup2\n      mstore\n        /* \"#utility.yul\":24215:24217   */\n      0x20\n        /* \"CTHelpers.sol\":17580:17644  require(mulmod(y2, y2, P) == yy, \"invalid parent collection ID\") */\n      0x04\n      dup3\n      add\n        /* \"#utility.yul\":24197:24218   */\n      mstore\n        /* \"#utility.yul\":24254:24256   */\n      0x1c\n        /* \"#utility.yul\":24234:24252   */\n      0x24\n      dup3\n      add\n        /* \"#utility.yul\":24227:24257   */\n      mstore\n        /* \"#utility.yul\":24293:24323   */\n      0x696e76616c696420706172656e7420636f6c6c656374696f6e20494400000000\n        /* \"#utility.yul\":24273:24291   */\n      0x44\n      dup3\n      add\n        /* \"#utility.yul\":24266:24324   */\n      mstore\n        /* \"#utility.yul\":24341:24359   */\n      0x64\n      add\n        /* \"CTHelpers.sol\":17580:17644  require(mulmod(y2, y2, P) == yy, \"invalid parent collection ID\") */\n      tag_120\n        /* \"#utility.yul\":24013:24365   */\n      jump\n        /* \"CTHelpers.sol\":17580:17644  require(mulmod(y2, y2, P) == yy, \"invalid parent collection ID\") */\n    tag_430:\n        /* \"CTHelpers.sol\":17716:17742  abi.encode(x1, y1, x2, y2) */\n      0x40\n      dup1\n      mload\n      0x20\n      dup2\n      add\n        /* \"#utility.yul\":24601:24626   */\n      dup9\n      swap1\n      mstore\n        /* \"#utility.yul\":24642:24660   */\n      swap1\n      dup2\n      add\n        /* \"#utility.yul\":24635:24669   */\n      dup6\n      swap1\n      mstore\n        /* \"#utility.yul\":24685:24703   */\n      0x60\n      dup2\n      add\n        /* \"#utility.yul\":24678:24712   */\n      dup4\n      swap1\n      mstore\n        /* \"#utility.yul\":24728:24746   */\n      0x80\n      dup2\n      add\n        /* \"#utility.yul\":24721:24755   */\n      dup3\n      swap1\n      mstore\n        /* \"CTHelpers.sol\":17660:17672  bool success */\n      0x00\n      swap1\n      dup2\n      swap1\n        /* \"CTHelpers.sol\":17702:17703  6 */\n      0x06\n      swap1\n        /* \"#utility.yul\":24573:24592   */\n      0xa0\n      add\n        /* \"CTHelpers.sol\":17716:17742  abi.encode(x1, y1, x2, y2) */\n      0x40\n      dup1\n      mload\n      not(0x1f)\n      dup2\n      dup5\n      sub\n      add\n      dup2\n      mstore\n      swap1\n      dup3\n      swap1\n      mstore\n        /* \"CTHelpers.sol\":17694:17743  address(6).staticcall(abi.encode(x1, y1, x2, y2)) */\n      tag_435\n      swap2\n      tag_436\n      jump\t// in\n    tag_435:\n      0x00\n      mload(0x40)\n      dup1\n      dup4\n      sub\n      dup2\n      dup6\n      gas\n      staticcall\n      swap2\n      pop\n      pop\n      returndatasize\n      dup1\n      0x00\n      dup2\n      eq\n      tag_439\n      jumpi\n      mload(0x40)\n      swap2\n      pop\n      and(add(returndatasize, 0x3f), not(0x1f))\n      dup3\n      add\n      0x40\n      mstore\n      returndatasize\n      dup3\n      mstore\n      returndatasize\n      0x00\n      0x20\n      dup5\n      add\n      returndatacopy\n      jump(tag_438)\n    tag_439:\n      0x60\n      swap2\n      pop\n    tag_438:\n      pop\n        /* \"CTHelpers.sol\":17659:17743  (bool success, bytes memory ret) = address(6).staticcall(abi.encode(x1, y1, x2, y2)) */\n      swap2\n      pop\n      swap2\n      pop\n        /* \"CTHelpers.sol\":17765:17772  success */\n      dup2\n        /* \"CTHelpers.sol\":17757:17789  require(success, \"ecadd failed\") */\n      tag_440\n      jumpi\n      mload(0x40)\n      shl(0xe5, 0x461bcd)\n      dup2\n      mstore\n        /* \"#utility.yul\":25274:25276   */\n      0x20\n        /* \"CTHelpers.sol\":17757:17789  require(success, \"ecadd failed\") */\n      0x04\n      dup3\n      add\n        /* \"#utility.yul\":25256:25277   */\n      mstore\n        /* \"#utility.yul\":25313:25315   */\n      0x0c\n        /* \"#utility.yul\":25293:25311   */\n      0x24\n      dup3\n      add\n        /* \"#utility.yul\":25286:25316   */\n      mstore\n        /* \"#utility.yul\":25352:25366   */\n      0x6563616464206661696c65640000000000000000000000000000000000000000\n        /* \"#utility.yul\":25332:25350   */\n      0x44\n      dup3\n      add\n        /* \"#utility.yul\":25325:25367   */\n      mstore\n        /* \"#utility.yul\":25384:25402   */\n      0x64\n      add\n        /* \"CTHelpers.sol\":17757:17789  require(success, \"ecadd failed\") */\n      tag_120\n        /* \"#utility.yul\":25072:25408   */\n      jump\n        /* \"CTHelpers.sol\":17757:17789  require(success, \"ecadd failed\") */\n    tag_440:\n        /* \"CTHelpers.sol\":17825:17828  ret */\n      dup1\n        /* \"CTHelpers.sol\":17814:17843  abi.decode(ret, (uint, uint)) */\n      dup1\n      0x20\n      add\n      swap1\n      mload\n      dup2\n      add\n      swap1\n      tag_443\n      swap2\n      swap1\n      tag_444\n      jump\t// in\n    tag_443:\n        /* \"CTHelpers.sol\":17803:17843  (x1, y1) = abi.decode(ret, (uint, uint)) */\n      swap1\n      swap9\n      pop\n      swap6\n      pop\n      pop\n      pop\n      pop\n        /* \"CTHelpers.sol\":17303:17854  if(x2 != 0) {... */\n    tag_413:\n        /* \"CTHelpers.sol\":17867:17873  y1 % 2 */\n      tag_445\n        /* \"CTHelpers.sol\":17872:17873  2 */\n      0x02\n        /* \"CTHelpers.sol\":17867:17869  y1 */\n      dup5\n        /* \"CTHelpers.sol\":17867:17873  y1 % 2 */\n      tag_407\n      jump\t// in\n    tag_445:\n        /* \"CTHelpers.sol\":17877:17878  1 */\n      0x01\n        /* \"CTHelpers.sol\":17867:17878  y1 % 2 == 1 */\n      sub\n        /* \"CTHelpers.sol\":17864:17906  if(y1 % 2 == 1)... */\n      tag_446\n      jumpi\n      shl(0xfe, 0x01)\n        /* \"CTHelpers.sol\":17892:17906  x1 ^= 1 << 254 */\n      dup6\n      xor\n      swap5\n      pop\n        /* \"CTHelpers.sol\":17864:17906  if(y1 % 2 == 1)... */\n    tag_446:\n      pop\n        /* \"CTHelpers.sol\":17932:17934  x1 */\n      swap3\n      swap8\n        /* \"CTHelpers.sol\":16721:17942  function getCollectionId(bytes32 parentCollectionId, bytes32 conditionId, uint indexSet) internal view returns (bytes32) {... */\n      swap7\n      pop\n      pop\n      pop\n      pop\n      pop\n      pop\n      pop\n      jump\t// out\n        /* \"@openzeppelin/contracts/token/ERC1155/ERC1155.sol\":12107:12436   */\n    tag_158:\n      sub(shl(0xa0, 0x01), 0x01)\n        /* \"@openzeppelin/contracts/token/ERC1155/ERC1155.sol\":12186:12204   */\n      dup4\n      and\n        /* \"@openzeppelin/contracts/token/ERC1155/ERC1155.sol\":12182:12270   */\n      tag_451\n      jumpi\n        /* \"@openzeppelin/contracts/token/ERC1155/ERC1155.sol\":12227:12259   */\n      mload(0x40)\n      shl(0xe2, 0x6a0d45)\n      dup2\n      mstore\n        /* \"@openzeppelin/contracts/token/ERC1155/ERC1155.sol\":12256:12257   */\n      0x00\n        /* \"@openzeppelin/contracts/token/ERC1155/ERC1155.sol\":12227:12259   */\n      0x04\n      dup3\n      add\n        /* \"#utility.yul\":26123:26197   */\n      mstore\n        /* \"#utility.yul\":26096:26114   */\n      0x24\n      add\n        /* \"@openzeppelin/contracts/token/ERC1155/ERC1155.sol\":12227:12259   */\n      tag_120\n        /* \"#utility.yul\":25977:26203   */\n      jump\n        /* \"@openzeppelin/contracts/token/ERC1155/ERC1155.sol\":12182:12270   */\n    tag_451:\n        /* \"@openzeppelin/contracts/token/ERC1155/ERC1155.sol\":13974:13978   */\n      0x40\n        /* \"@openzeppelin/contracts/token/ERC1155/ERC1155.sol\":13968:13979   */\n      dup1\n      mload\n        /* \"@openzeppelin/contracts/token/ERC1155/ERC1155.sol\":14044:14045   */\n      0x01\n        /* \"@openzeppelin/contracts/token/ERC1155/ERC1155.sol\":14029:14046   */\n      dup1\n      dup3\n      mstore\n        /* \"@openzeppelin/contracts/token/ERC1155/ERC1155.sol\":14175:14179   */\n      0x20\n        /* \"@openzeppelin/contracts/token/ERC1155/ERC1155.sol\":14163:14180   */\n      dup3\n      add\n        /* \"@openzeppelin/contracts/token/ERC1155/ERC1155.sol\":14156:14191   */\n      dup6\n      swap1\n      mstore\n        /* \"@openzeppelin/contracts/token/ERC1155/ERC1155.sol\":14292:14309   */\n      dup2\n      dup4\n      add\n        /* \"@openzeppelin/contracts/token/ERC1155/ERC1155.sol\":14322:14339   */\n      swap1\n      dup2\n      mstore\n        /* \"@openzeppelin/contracts/token/ERC1155/ERC1155.sol\":13815:13838   */\n      0x60\n        /* \"@openzeppelin/contracts/token/ERC1155/ERC1155.sol\":14359:14376   */\n      dup3\n      add\n        /* \"@openzeppelin/contracts/token/ERC1155/ERC1155.sol\":14352:14387   */\n      dup5\n      swap1\n      mstore\n        /* \"@openzeppelin/contracts/token/ERC1155/ERC1155.sol\":12368:12429   */\n      0xa0\n      dup3\n      add\n      swap1\n      swap3\n      mstore\n      0x00\n        /* \"@openzeppelin/contracts/token/ERC1155/ERC1155.sol\":14495:14512   */\n      0x80\n      dup3\n      add\n        /* \"@openzeppelin/contracts/token/ERC1155/ERC1155.sol\":12368:12429   */\n      dup2\n      dup2\n      mstore\n        /* \"@openzeppelin/contracts/token/ERC1155/ERC1155.sol\":13968:13979   */\n      swap2\n      swap3\n        /* \"@openzeppelin/contracts/token/ERC1155/ERC1155.sol\":14292:14309   */\n      swap2\n        /* \"@openzeppelin/contracts/token/ERC1155/ERC1155.sol\":12368:12429   */\n      tag_456\n      swap2\n        /* \"@openzeppelin/contracts/token/ERC1155/ERC1155.sol\":12395:12399   */\n      dup8\n      swap2\n        /* \"@openzeppelin/contracts/token/ERC1155/ERC1155.sol\":13968:13979   */\n      dup6\n      swap1\n        /* \"@openzeppelin/contracts/token/ERC1155/ERC1155.sol\":14292:14309   */\n      dup6\n      swap1\n        /* \"@openzeppelin/contracts/token/ERC1155/ERC1155.sol\":12368:12394   */\n      tag_457\n        /* \"@openzeppelin/contracts/token/ERC1155/ERC1155.sol\":12368:12429   */\n      jump\t// in\n    tag_456:\n        /* \"@openzeppelin/contracts/token/ERC1155/ERC1155.sol\":12172:12436   */\n      pop\n      pop\n        /* \"@openzeppelin/contracts/token/ERC1155/ERC1155.sol\":12107:12436   */\n      pop\n      pop\n      pop\n      jump\t// out\n        /* \"@openzeppelin/contracts/token/ERC1155/ERC1155.sol\":10754:11100   */\n    tag_173:\n      sub(shl(0xa0, 0x01), 0x01)\n        /* \"@openzeppelin/contracts/token/ERC1155/ERC1155.sol\":10850:10866   */\n      dup5\n      and\n        /* \"@openzeppelin/contracts/token/ERC1155/ERC1155.sol\":10846:10934   */\n      tag_459\n      jumpi\n        /* \"@openzeppelin/contracts/token/ERC1155/ERC1155.sol\":10889:10923   */\n      mload(0x40)\n      shl(0xe1, 0x2bfa23e7)\n      dup2\n      mstore\n        /* \"@openzeppelin/contracts/token/ERC1155/ERC1155.sol\":10920:10921   */\n      0x00\n        /* \"@openzeppelin/contracts/token/ERC1155/ERC1155.sol\":10889:10923   */\n      0x04\n      dup3\n      add\n        /* \"#utility.yul\":26123:26197   */\n      mstore\n        /* \"#utility.yul\":26096:26114   */\n      0x24\n      add\n        /* \"@openzeppelin/contracts/token/ERC1155/ERC1155.sol\":10889:10923   */\n      tag_120\n        /* \"#utility.yul\":25977:26203   */\n      jump\n        /* \"@openzeppelin/contracts/token/ERC1155/ERC1155.sol\":10846:10934   */\n    tag_459:\n        /* \"@openzeppelin/contracts/token/ERC1155/ERC1155.sol\":13974:13978   */\n      0x40\n        /* \"@openzeppelin/contracts/token/ERC1155/ERC1155.sol\":13968:13979   */\n      dup1\n      mload\n        /* \"@openzeppelin/contracts/token/ERC1155/ERC1155.sol\":14044:14045   */\n      0x01\n        /* \"@openzeppelin/contracts/token/ERC1155/ERC1155.sol\":14029:14046   */\n      dup1\n      dup3\n      mstore\n        /* \"@openzeppelin/contracts/token/ERC1155/ERC1155.sol\":14175:14179   */\n      0x20\n        /* \"@openzeppelin/contracts/token/ERC1155/ERC1155.sol\":14163:14180   */\n      dup3\n      add\n        /* \"@openzeppelin/contracts/token/ERC1155/ERC1155.sol\":14156:14191   */\n      dup7\n      swap1\n      mstore\n        /* \"@openzeppelin/contracts/token/ERC1155/ERC1155.sol\":14292:14309   */\n      dup2\n      dup4\n      add\n        /* \"@openzeppelin/contracts/token/ERC1155/ERC1155.sol\":14322:14339   */\n      swap1\n      dup2\n      mstore\n        /* \"@openzeppelin/contracts/token/ERC1155/ERC1155.sol\":13815:13838   */\n      0x60\n        /* \"@openzeppelin/contracts/token/ERC1155/ERC1155.sol\":14359:14376   */\n      dup3\n      add\n        /* \"@openzeppelin/contracts/token/ERC1155/ERC1155.sol\":14352:14387   */\n      dup6\n      swap1\n      mstore\n        /* \"@openzeppelin/contracts/token/ERC1155/ERC1155.sol\":14495:14512   */\n      0x80\n      dup3\n      add\n        /* \"@openzeppelin/contracts/token/ERC1155/ERC1155.sol\":14482:14513   */\n      swap1\n      swap3\n      mstore\n        /* \"@openzeppelin/contracts/token/ERC1155/ERC1155.sol\":13968:13979   */\n      swap1\n        /* \"@openzeppelin/contracts/token/ERC1155/ERC1155.sol\":11032:11093   */\n      tag_198\n      0x00\n        /* \"@openzeppelin/contracts/token/ERC1155/ERC1155.sol\":11071:11073   */\n      dup8\n        /* \"@openzeppelin/contracts/token/ERC1155/ERC1155.sol\":13968:13979   */\n      dup5\n        /* \"@openzeppelin/contracts/token/ERC1155/ERC1155.sol\":14292:14309   */\n      dup5\n        /* \"@openzeppelin/contracts/token/ERC1155/ERC1155.sol\":11088:11092   */\n      dup8\n        /* \"@openzeppelin/contracts/token/ERC1155/ERC1155.sol\":11032:11058   */\n      tag_457\n        /* \"@openzeppelin/contracts/token/ERC1155/ERC1155.sol\":11032:11093   */\n      jump\t// in\n        /* \"@openzeppelin/contracts/token/ERC1155/ERC1155.sol\":9023:9468   */\n    tag_199:\n      sub(shl(0xa0, 0x01), 0x01)\n        /* \"@openzeppelin/contracts/token/ERC1155/ERC1155.sol\":9216:9232   */\n      dup5\n      and\n        /* \"@openzeppelin/contracts/token/ERC1155/ERC1155.sol\":9212:9300   */\n      tag_466\n      jumpi\n        /* \"@openzeppelin/contracts/token/ERC1155/ERC1155.sol\":9255:9289   */\n      mload(0x40)\n      shl(0xe1, 0x2bfa23e7)\n      dup2\n      mstore\n        /* \"@openzeppelin/contracts/token/ERC1155/ERC1155.sol\":9286:9287   */\n      0x00\n        /* \"@openzeppelin/contracts/token/ERC1155/ERC1155.sol\":9255:9289   */\n      0x04\n      dup3\n      add\n        /* \"#utility.yul\":26123:26197   */\n      mstore\n        /* \"#utility.yul\":26096:26114   */\n      0x24\n      add\n        /* \"@openzeppelin/contracts/token/ERC1155/ERC1155.sol\":9255:9289   */\n      tag_120\n        /* \"#utility.yul\":25977:26203   */\n      jump\n        /* \"@openzeppelin/contracts/token/ERC1155/ERC1155.sol\":9212:9300   */\n    tag_466:\n      sub(shl(0xa0, 0x01), 0x01)\n        /* \"@openzeppelin/contracts/token/ERC1155/ERC1155.sol\":9313:9331   */\n      dup6\n      and\n        /* \"@openzeppelin/contracts/token/ERC1155/ERC1155.sol\":9309:9397   */\n      tag_468\n      jumpi\n        /* \"@openzeppelin/contracts/token/ERC1155/ERC1155.sol\":9354:9386   */\n      mload(0x40)\n      shl(0xe2, 0x6a0d45)\n      dup2\n      mstore\n        /* \"@openzeppelin/contracts/token/ERC1155/ERC1155.sol\":9383:9384   */\n      0x00\n        /* \"@openzeppelin/contracts/token/ERC1155/ERC1155.sol\":9354:9386   */\n      0x04\n      dup3\n      add\n        /* \"#utility.yul\":26123:26197   */\n      mstore\n        /* \"#utility.yul\":26096:26114   */\n      0x24\n      add\n        /* \"@openzeppelin/contracts/token/ERC1155/ERC1155.sol\":9354:9386   */\n      tag_120\n        /* \"#utility.yul\":25977:26203   */\n      jump\n        /* \"@openzeppelin/contracts/token/ERC1155/ERC1155.sol\":9309:9397   */\n    tag_468:\n        /* \"@openzeppelin/contracts/token/ERC1155/ERC1155.sol\":9406:9461   */\n      tag_456\n        /* \"@openzeppelin/contracts/token/ERC1155/ERC1155.sol\":9433:9437   */\n      dup6\n        /* \"@openzeppelin/contracts/token/ERC1155/ERC1155.sol\":9439:9441   */\n      dup6\n        /* \"@openzeppelin/contracts/token/ERC1155/ERC1155.sol\":9443:9446   */\n      dup6\n        /* \"@openzeppelin/contracts/token/ERC1155/ERC1155.sol\":9448:9454   */\n      dup6\n        /* \"@openzeppelin/contracts/token/ERC1155/ERC1155.sol\":9456:9460   */\n      dup6\n        /* \"@openzeppelin/contracts/token/ERC1155/ERC1155.sol\":9406:9432   */\n      tag_457\n        /* \"@openzeppelin/contracts/token/ERC1155/ERC1155.sol\":9406:9461   */\n      jump\t// in\n        /* \"@openzeppelin/contracts/token/ERC1155/ERC1155.sol\":11531:11813   */\n    tag_269:\n      sub(shl(0xa0, 0x01), 0x01)\n        /* \"@openzeppelin/contracts/token/ERC1155/ERC1155.sol\":11652:11668   */\n      dup5\n      and\n        /* \"@openzeppelin/contracts/token/ERC1155/ERC1155.sol\":11648:11736   */\n      tag_474\n      jumpi\n        /* \"@openzeppelin/contracts/token/ERC1155/ERC1155.sol\":11691:11725   */\n      mload(0x40)\n      shl(0xe1, 0x2bfa23e7)\n      dup2\n      mstore\n        /* \"@openzeppelin/contracts/token/ERC1155/ERC1155.sol\":11722:11723   */\n      0x00\n        /* \"@openzeppelin/contracts/token/ERC1155/ERC1155.sol\":11691:11725   */\n      0x04\n      dup3\n      add\n        /* \"#utility.yul\":26123:26197   */\n      mstore\n        /* \"#utility.yul\":26096:26114   */\n      0x24\n      add\n        /* \"@openzeppelin/contracts/token/ERC1155/ERC1155.sol\":11691:11725   */\n      tag_120\n        /* \"#utility.yul\":25977:26203   */\n      jump\n        /* \"@openzeppelin/contracts/token/ERC1155/ERC1155.sol\":11648:11736   */\n    tag_474:\n        /* \"@openzeppelin/contracts/token/ERC1155/ERC1155.sol\":11745:11806   */\n      tag_476\n        /* \"@openzeppelin/contracts/token/ERC1155/ERC1155.sol\":11780:11781   */\n      0x00\n        /* \"@openzeppelin/contracts/token/ERC1155/ERC1155.sol\":11784:11786   */\n      dup6\n        /* \"@openzeppelin/contracts/token/ERC1155/ERC1155.sol\":11788:11791   */\n      dup6\n        /* \"@openzeppelin/contracts/token/ERC1155/ERC1155.sol\":11793:11799   */\n      dup6\n        /* \"@openzeppelin/contracts/token/ERC1155/ERC1155.sol\":11801:11805   */\n      dup6\n        /* \"@openzeppelin/contracts/token/ERC1155/ERC1155.sol\":11745:11771   */\n      tag_457\n        /* \"@openzeppelin/contracts/token/ERC1155/ERC1155.sol\":11745:11806   */\n      jump\t// in\n    tag_476:\n        /* \"@openzeppelin/contracts/token/ERC1155/ERC1155.sol\":11531:11813   */\n      pop\n      pop\n      pop\n      pop\n      jump\t// out\n        /* \"@openzeppelin/contracts/token/ERC1155/ERC1155.sol\":12792:13057   */\n    tag_307:\n      sub(shl(0xa0, 0x01), 0x01)\n        /* \"@openzeppelin/contracts/token/ERC1155/ERC1155.sol\":12896:12914   */\n      dup4\n      and\n        /* \"@openzeppelin/contracts/token/ERC1155/ERC1155.sol\":12892:12980   */\n      tag_481\n      jumpi\n        /* \"@openzeppelin/contracts/token/ERC1155/ERC1155.sol\":12937:12969   */\n      mload(0x40)\n      shl(0xe2, 0x6a0d45)\n      dup2\n      mstore\n        /* \"@openzeppelin/contracts/token/ERC1155/ERC1155.sol\":12966:12967   */\n      0x00\n        /* \"@openzeppelin/contracts/token/ERC1155/ERC1155.sol\":12937:12969   */\n      0x04\n      dup3\n      add\n        /* \"#utility.yul\":26123:26197   */\n      mstore\n        /* \"#utility.yul\":26096:26114   */\n      0x24\n      add\n        /* \"@openzeppelin/contracts/token/ERC1155/ERC1155.sol\":12937:12969   */\n      tag_120\n        /* \"#utility.yul\":25977:26203   */\n      jump\n        /* \"@openzeppelin/contracts/token/ERC1155/ERC1155.sol\":12892:12980   */\n    tag_481:\n        /* \"@openzeppelin/contracts/token/ERC1155/ERC1155.sol\":12989:13050   */\n      tag_483\n        /* \"@openzeppelin/contracts/token/ERC1155/ERC1155.sol\":13016:13020   */\n      dup4\n        /* \"@openzeppelin/contracts/token/ERC1155/ERC1155.sol\":13030:13031   */\n      0x00\n        /* \"@openzeppelin/contracts/token/ERC1155/ERC1155.sol\":13034:13037   */\n      dup5\n        /* \"@openzeppelin/contracts/token/ERC1155/ERC1155.sol\":13039:13045   */\n      dup5\n        /* \"@openzeppelin/contracts/token/ERC1155/ERC1155.sol\":12989:13050   */\n      mload(0x40)\n      dup1\n      0x20\n      add\n      0x40\n      mstore\n      dup1\n      0x00\n      dup2\n      mstore\n      pop\n        /* \"@openzeppelin/contracts/token/ERC1155/ERC1155.sol\":12989:13015   */\n      tag_457\n        /* \"@openzeppelin/contracts/token/ERC1155/ERC1155.sol\":12989:13050   */\n      jump\t// in\n    tag_483:\n        /* \"@openzeppelin/contracts/token/ERC1155/ERC1155.sol\":12792:13057   */\n      pop\n      pop\n      pop\n      jump\t// out\n        /* \"@openzeppelin/contracts/token/ERC1155/ERC1155.sol\":13276:13591   */\n    tag_328:\n      sub(shl(0xa0, 0x01), 0x01)\n        /* \"@openzeppelin/contracts/token/ERC1155/ERC1155.sol\":13383:13405   */\n      dup3\n      and\n        /* \"@openzeppelin/contracts/token/ERC1155/ERC1155.sol\":13379:13473   */\n      tag_485\n      jumpi\n        /* \"@openzeppelin/contracts/token/ERC1155/ERC1155.sol\":13428:13462   */\n      mload(0x40)\n      shl(0xe8, 0xced3e1)\n      dup2\n      mstore\n        /* \"@openzeppelin/contracts/token/ERC1155/ERC1155.sol\":13459:13460   */\n      0x00\n        /* \"@openzeppelin/contracts/token/ERC1155/ERC1155.sol\":13428:13462   */\n      0x04\n      dup3\n      add\n        /* \"#utility.yul\":26123:26197   */\n      mstore\n        /* \"#utility.yul\":26096:26114   */\n      0x24\n      add\n        /* \"@openzeppelin/contracts/token/ERC1155/ERC1155.sol\":13428:13462   */\n      tag_120\n        /* \"#utility.yul\":25977:26203   */\n      jump\n        /* \"@openzeppelin/contracts/token/ERC1155/ERC1155.sol\":13379:13473   */\n    tag_485:\n      sub(shl(0xa0, 0x01), 0x01)\n        /* \"@openzeppelin/contracts/token/ERC1155/ERC1155.sol\":13482:13507   */\n      dup4\n      dup2\n      and\n      0x00\n      dup2\n      dup2\n      mstore\n        /* \"@openzeppelin/contracts/token/ERC1155/ERC1155.sol\":13482:13500   */\n      0x01\n        /* \"@openzeppelin/contracts/token/ERC1155/ERC1155.sol\":13482:13507   */\n      0x20\n      swap1\n      dup2\n      mstore\n      0x40\n      dup1\n      dup4\n      keccak256\n        /* \"@openzeppelin/contracts/token/ERC1155/ERC1155.sol\":13482:13517   */\n      swap5\n      dup8\n      and\n      dup1\n      dup5\n      mstore\n      swap5\n      dup3\n      mstore\n      swap2\n      dup3\n      swap1\n      keccak256\n        /* \"@openzeppelin/contracts/token/ERC1155/ERC1155.sol\":13482:13528   */\n      dup1\n      sload\n      not(0xff)\n      and\n      dup7\n      iszero\n      iszero\n      swap1\n      dup2\n      or\n      swap1\n      swap2\n      sstore\n        /* \"@openzeppelin/contracts/token/ERC1155/ERC1155.sol\":13543:13584   */\n      swap2\n      mload\n        /* \"#utility.yul\":2302:2343   */\n      swap2\n      dup3\n      mstore\n        /* \"@openzeppelin/contracts/token/ERC1155/ERC1155.sol\":13543:13584   */\n      0x17307eab39ab6107e8899845ad3d59bd9653f200f220920489ca2b5937696c31\n      swap2\n        /* \"#utility.yul\":2275:2293   */\n      add\n        /* \"@openzeppelin/contracts/token/ERC1155/ERC1155.sol\":13543:13584   */\n      mload(0x40)\n      dup1\n      swap2\n      sub\n      swap1\n      log3\n        /* \"@openzeppelin/contracts/token/ERC1155/ERC1155.sol\":13276:13591   */\n      pop\n      pop\n      pop\n      jump\t// out\n        /* \"@openzeppelin/contracts/token/ERC1155/ERC1155.sol\":8159:8622   */\n    tag_385:\n      sub(shl(0xa0, 0x01), 0x01)\n        /* \"@openzeppelin/contracts/token/ERC1155/ERC1155.sol\":8281:8297   */\n      dup5\n      and\n        /* \"@openzeppelin/contracts/token/ERC1155/ERC1155.sol\":8277:8365   */\n      tag_489\n      jumpi\n        /* \"@openzeppelin/contracts/token/ERC1155/ERC1155.sol\":8320:8354   */\n      mload(0x40)\n      shl(0xe1, 0x2bfa23e7)\n      dup2\n      mstore\n        /* \"@openzeppelin/contracts/token/ERC1155/ERC1155.sol\":8351:8352   */\n      0x00\n        /* \"@openzeppelin/contracts/token/ERC1155/ERC1155.sol\":8320:8354   */\n      0x04\n      dup3\n      add\n        /* \"#utility.yul\":26123:26197   */\n      mstore\n        /* \"#utility.yul\":26096:26114   */\n      0x24\n      add\n        /* \"@openzeppelin/contracts/token/ERC1155/ERC1155.sol\":8320:8354   */\n      tag_120\n        /* \"#utility.yul\":25977:26203   */\n      jump\n        /* \"@openzeppelin/contracts/token/ERC1155/ERC1155.sol\":8277:8365   */\n    tag_489:\n      sub(shl(0xa0, 0x01), 0x01)\n        /* \"@openzeppelin/contracts/token/ERC1155/ERC1155.sol\":8378:8396   */\n      dup6\n      and\n        /* \"@openzeppelin/contracts/token/ERC1155/ERC1155.sol\":8374:8462   */\n      tag_491\n      jumpi\n        /* \"@openzeppelin/contracts/token/ERC1155/ERC1155.sol\":8419:8451   */\n      mload(0x40)\n      shl(0xe2, 0x6a0d45)\n      dup2\n      mstore\n        /* \"@openzeppelin/contracts/token/ERC1155/ERC1155.sol\":8448:8449   */\n      0x00\n        /* \"@openzeppelin/contracts/token/ERC1155/ERC1155.sol\":8419:8451   */\n      0x04\n      dup3\n      add\n        /* \"#utility.yul\":26123:26197   */\n      mstore\n        /* \"#utility.yul\":26096:26114   */\n      0x24\n      add\n        /* \"@openzeppelin/contracts/token/ERC1155/ERC1155.sol\":8419:8451   */\n      tag_120\n        /* \"#utility.yul\":25977:26203   */\n      jump\n        /* \"@openzeppelin/contracts/token/ERC1155/ERC1155.sol\":8374:8462   */\n    tag_491:\n        /* \"@openzeppelin/contracts/token/ERC1155/ERC1155.sol\":13974:13978   */\n      0x40\n        /* \"@openzeppelin/contracts/token/ERC1155/ERC1155.sol\":13968:13979   */\n      dup1\n      mload\n        /* \"@openzeppelin/contracts/token/ERC1155/ERC1155.sol\":14044:14045   */\n      0x01\n        /* \"@openzeppelin/contracts/token/ERC1155/ERC1155.sol\":14029:14046   */\n      dup1\n      dup3\n      mstore\n        /* \"@openzeppelin/contracts/token/ERC1155/ERC1155.sol\":14175:14179   */\n      0x20\n        /* \"@openzeppelin/contracts/token/ERC1155/ERC1155.sol\":14163:14180   */\n      dup3\n      add\n        /* \"@openzeppelin/contracts/token/ERC1155/ERC1155.sol\":14156:14191   */\n      dup7\n      swap1\n      mstore\n        /* \"@openzeppelin/contracts/token/ERC1155/ERC1155.sol\":14292:14309   */\n      dup2\n      dup4\n      add\n        /* \"@openzeppelin/contracts/token/ERC1155/ERC1155.sol\":14322:14339   */\n      swap1\n      dup2\n      mstore\n        /* \"@openzeppelin/contracts/token/ERC1155/ERC1155.sol\":13815:13838   */\n      0x60\n        /* \"@openzeppelin/contracts/token/ERC1155/ERC1155.sol\":14359:14376   */\n      dup3\n      add\n        /* \"@openzeppelin/contracts/token/ERC1155/ERC1155.sol\":14352:14387   */\n      dup6\n      swap1\n      mstore\n        /* \"@openzeppelin/contracts/token/ERC1155/ERC1155.sol\":14495:14512   */\n      0x80\n      dup3\n      add\n        /* \"@openzeppelin/contracts/token/ERC1155/ERC1155.sol\":14482:14513   */\n      swap1\n      swap3\n      mstore\n        /* \"@openzeppelin/contracts/token/ERC1155/ERC1155.sol\":13968:13979   */\n      swap1\n        /* \"@openzeppelin/contracts/token/ERC1155/ERC1155.sol\":8560:8615   */\n      tag_494\n        /* \"@openzeppelin/contracts/token/ERC1155/ERC1155.sol\":8587:8591   */\n      dup8\n        /* \"@openzeppelin/contracts/token/ERC1155/ERC1155.sol\":8593:8595   */\n      dup8\n        /* \"@openzeppelin/contracts/token/ERC1155/ERC1155.sol\":13968:13979   */\n      dup5\n        /* \"@openzeppelin/contracts/token/ERC1155/ERC1155.sol\":14292:14309   */\n      dup5\n        /* \"@openzeppelin/contracts/token/ERC1155/ERC1155.sol\":8610:8614   */\n      dup8\n        /* \"@openzeppelin/contracts/token/ERC1155/ERC1155.sol\":8560:8586   */\n      tag_457\n        /* \"@openzeppelin/contracts/token/ERC1155/ERC1155.sol\":8560:8615   */\n      jump\t// in\n    tag_494:\n        /* \"@openzeppelin/contracts/token/ERC1155/ERC1155.sol\":8267:8622   */\n      pop\n      pop\n        /* \"@openzeppelin/contracts/token/ERC1155/ERC1155.sol\":8159:8622   */\n      pop\n      pop\n      pop\n      pop\n      pop\n      jump\t// out\n        /* \"CTHelpers.sol\":908:16276  function sqrt(uint x) private pure returns (uint y) {... */\n    tag_402:\n        /* \"CTHelpers.sol\":952:958  uint y */\n      0x00\n      0x00\n      dup1\n      mload\n      0x20\n      data_3c9b2d4d36a3f2e0da59e7d32cb1a6dfeb0312ec6bad2e2d02e8219844d4fb30\n      dup4\n      codecopy\n      dup2\n      mload\n      swap2\n      mstore\n        /* \"CTHelpers.sol\":799:876  21888242871839275222246405745257275088696311157297823662689037894645226208583 */\n      dup1\n        /* \"CTHelpers.sol\":3989:3990  x */\n      dup4\n      dup1\n        /* \"CTHelpers.sol\":3979:3994  mulmod(x, x, p) */\n      mulmod\n        /* \"CTHelpers.sol\":3974:3994  y := mulmod(x, x, p) */\n      swap2\n      pop\n        /* \"CTHelpers.sol\":4047:4048  p */\n      dup1\n        /* \"CTHelpers.sol\":4044:4045  y */\n      dup3\n        /* \"CTHelpers.sol\":4041:4042  y */\n      dup4\n        /* \"CTHelpers.sol\":4034:4049  mulmod(y, y, p) */\n      mulmod\n        /* \"CTHelpers.sol\":4084:4085  p */\n      dup2\n        /* \"CTHelpers.sol\":4081:4082  z */\n      dup2\n        /* \"CTHelpers.sol\":4078:4079  z */\n      dup3\n        /* \"CTHelpers.sol\":4071:4086  mulmod(z, z, p) */\n      mulmod\n        /* \"CTHelpers.sol\":4066:4086  z := mulmod(z, z, p) */\n      swap1\n      pop\n        /* \"CTHelpers.sol\":4121:4122  p */\n      dup2\n        /* \"CTHelpers.sol\":4118:4119  z */\n      dup2\n        /* \"CTHelpers.sol\":4115:4116  y */\n      dup5\n        /* \"CTHelpers.sol\":4108:4123  mulmod(y, z, p) */\n      mulmod\n        /* \"CTHelpers.sol\":4103:4123  y := mulmod(y, z, p) */\n      swap3\n      pop\n        /* \"CTHelpers.sol\":4158:4159  p */\n      dup2\n        /* \"CTHelpers.sol\":4155:4156  y */\n      dup4\n        /* \"CTHelpers.sol\":4152:4153  x */\n      dup6\n        /* \"CTHelpers.sol\":4145:4160  mulmod(x, y, p) */\n      mulmod\n        /* \"CTHelpers.sol\":4140:4160  x := mulmod(x, y, p) */\n      swap4\n      pop\n        /* \"CTHelpers.sol\":4195:4196  p */\n      dup2\n        /* \"CTHelpers.sol\":4192:4193  x */\n      dup5\n        /* \"CTHelpers.sol\":4189:4190  y */\n      dup5\n        /* \"CTHelpers.sol\":4182:4197  mulmod(y, x, p) */\n      mulmod\n        /* \"CTHelpers.sol\":4177:4197  y := mulmod(y, x, p) */\n      swap3\n      pop\n        /* \"CTHelpers.sol\":4232:4233  p */\n      dup2\n        /* \"CTHelpers.sol\":4229:4230  y */\n      dup4\n        /* \"CTHelpers.sol\":4226:4227  y */\n      dup5\n        /* \"CTHelpers.sol\":4219:4234  mulmod(y, y, p) */\n      mulmod\n        /* \"CTHelpers.sol\":4214:4234  z := mulmod(y, y, p) */\n      swap1\n      pop\n        /* \"CTHelpers.sol\":4295:4296  p */\n      dup2\n        /* \"CTHelpers.sol\":4292:4293  z */\n      dup2\n        /* \"CTHelpers.sol\":4289:4290  z */\n      dup3\n        /* \"CTHelpers.sol\":4282:4297  mulmod(z, z, p) */\n      mulmod\n        /* \"CTHelpers.sol\":4336:4337  p */\n      dup3\n        /* \"CTHelpers.sol\":4333:4334  t */\n      dup2\n        /* \"CTHelpers.sol\":4330:4331  z */\n      dup4\n        /* \"CTHelpers.sol\":4323:4338  mulmod(z, t, p) */\n      mulmod\n        /* \"CTHelpers.sol\":4318:4338  t := mulmod(z, t, p) */\n      swap1\n      pop\n        /* \"CTHelpers.sol\":4377:4378  p */\n      dup3\n        /* \"CTHelpers.sol\":4374:4375  t */\n      dup2\n        /* \"CTHelpers.sol\":4371:4372  t */\n      dup3\n        /* \"CTHelpers.sol\":4364:4379  mulmod(t, t, p) */\n      mulmod\n        /* \"CTHelpers.sol\":4359:4379  t := mulmod(t, t, p) */\n      swap1\n      pop\n        /* \"CTHelpers.sol\":4418:4419  p */\n      dup3\n        /* \"CTHelpers.sol\":4415:4416  t */\n      dup2\n        /* \"CTHelpers.sol\":4412:4413  t */\n      dup3\n        /* \"CTHelpers.sol\":4405:4420  mulmod(t, t, p) */\n      mulmod\n        /* \"CTHelpers.sol\":4400:4420  t := mulmod(t, t, p) */\n      swap1\n      pop\n        /* \"CTHelpers.sol\":4459:4460  p */\n      dup3\n        /* \"CTHelpers.sol\":4456:4457  t */\n      dup2\n        /* \"CTHelpers.sol\":4453:4454  z */\n      dup4\n        /* \"CTHelpers.sol\":4446:4461  mulmod(z, t, p) */\n      mulmod\n        /* \"CTHelpers.sol\":4441:4461  z := mulmod(z, t, p) */\n      swap2\n      pop\n        /* \"CTHelpers.sol\":4500:4501  p */\n      dup3\n        /* \"CTHelpers.sol\":4497:4498  z */\n      dup3\n        /* \"CTHelpers.sol\":4494:4495  x */\n      dup7\n        /* \"CTHelpers.sol\":4487:4502  mulmod(x, z, p) */\n      mulmod\n        /* \"CTHelpers.sol\":4482:4502  x := mulmod(x, z, p) */\n      swap5\n      pop\n        /* \"CTHelpers.sol\":4541:4542  p */\n      dup3\n        /* \"CTHelpers.sol\":4538:4539  x */\n      dup6\n        /* \"CTHelpers.sol\":4535:4536  x */\n      dup7\n        /* \"CTHelpers.sol\":4528:4543  mulmod(x, x, p) */\n      mulmod\n        /* \"CTHelpers.sol\":4523:4543  z := mulmod(x, x, p) */\n      swap2\n      pop\n        /* \"CTHelpers.sol\":4582:4583  p */\n      dup3\n        /* \"CTHelpers.sol\":4579:4580  z */\n      dup3\n        /* \"CTHelpers.sol\":4576:4577  z */\n      dup4\n        /* \"CTHelpers.sol\":4569:4584  mulmod(z, z, p) */\n      mulmod\n        /* \"CTHelpers.sol\":4564:4584  z := mulmod(z, z, p) */\n      swap2\n      pop\n        /* \"CTHelpers.sol\":4623:4624  p */\n      dup3\n        /* \"CTHelpers.sol\":4620:4621  z */\n      dup3\n        /* \"CTHelpers.sol\":4617:4618  y */\n      dup6\n        /* \"CTHelpers.sol\":4610:4625  mulmod(y, z, p) */\n      mulmod\n        /* \"CTHelpers.sol\":4605:4625  y := mulmod(y, z, p) */\n      swap4\n      pop\n        /* \"CTHelpers.sol\":4664:4665  p */\n      dup3\n        /* \"CTHelpers.sol\":4661:4662  y */\n      dup5\n        /* \"CTHelpers.sol\":4658:4659  y */\n      dup6\n        /* \"CTHelpers.sol\":4651:4666  mulmod(y, y, p) */\n      mulmod\n        /* \"CTHelpers.sol\":4646:4666  z := mulmod(y, y, p) */\n      swap2\n      pop\n        /* \"CTHelpers.sol\":4705:4706  p */\n      dup3\n        /* \"CTHelpers.sol\":4702:4703  z */\n      dup3\n        /* \"CTHelpers.sol\":4699:4700  z */\n      dup4\n        /* \"CTHelpers.sol\":4692:4707  mulmod(z, z, p) */\n      mulmod\n        /* \"CTHelpers.sol\":4687:4707  z := mulmod(z, z, p) */\n      swap2\n      pop\n        /* \"CTHelpers.sol\":4746:4747  p */\n      dup3\n        /* \"CTHelpers.sol\":4743:4744  z */\n      dup3\n        /* \"CTHelpers.sol\":4740:4741  z */\n      dup4\n        /* \"CTHelpers.sol\":4733:4748  mulmod(z, z, p) */\n      mulmod\n        /* \"CTHelpers.sol\":4728:4748  z := mulmod(z, z, p) */\n      swap2\n      pop\n        /* \"CTHelpers.sol\":4787:4788  p */\n      dup3\n        /* \"CTHelpers.sol\":4784:4785  z */\n      dup3\n        /* \"CTHelpers.sol\":4781:4782  y */\n      dup6\n        /* \"CTHelpers.sol\":4774:4789  mulmod(y, z, p) */\n      mulmod\n        /* \"CTHelpers.sol\":4769:4789  z := mulmod(y, z, p) */\n      swap2\n      pop\n        /* \"CTHelpers.sol\":4828:4829  p */\n      dup3\n        /* \"CTHelpers.sol\":4825:4826  z */\n      dup3\n        /* \"CTHelpers.sol\":4822:4823  x */\n      dup7\n        /* \"CTHelpers.sol\":4815:4830  mulmod(x, z, p) */\n      mulmod\n        /* \"CTHelpers.sol\":4810:4830  x := mulmod(x, z, p) */\n      swap5\n      pop\n        /* \"CTHelpers.sol\":4869:4870  p */\n      dup3\n        /* \"CTHelpers.sol\":4866:4867  x */\n      dup6\n        /* \"CTHelpers.sol\":4863:4864  x */\n      dup7\n        /* \"CTHelpers.sol\":4856:4871  mulmod(x, x, p) */\n      mulmod\n        /* \"CTHelpers.sol\":4851:4871  z := mulmod(x, x, p) */\n      swap2\n      pop\n        /* \"CTHelpers.sol\":4910:4911  p */\n      dup3\n        /* \"CTHelpers.sol\":4907:4908  z */\n      dup3\n        /* \"CTHelpers.sol\":4904:4905  z */\n      dup4\n        /* \"CTHelpers.sol\":4897:4912  mulmod(z, z, p) */\n      mulmod\n        /* \"CTHelpers.sol\":4892:4912  z := mulmod(z, z, p) */\n      swap2\n      pop\n        /* \"CTHelpers.sol\":4951:4952  p */\n      dup3\n        /* \"CTHelpers.sol\":4948:4949  z */\n      dup3\n        /* \"CTHelpers.sol\":4945:4946  z */\n      dup4\n        /* \"CTHelpers.sol\":4938:4953  mulmod(z, z, p) */\n      mulmod\n        /* \"CTHelpers.sol\":4933:4953  z := mulmod(z, z, p) */\n      swap2\n      pop\n        /* \"CTHelpers.sol\":4992:4993  p */\n      dup3\n        /* \"CTHelpers.sol\":4989:4990  z */\n      dup3\n        /* \"CTHelpers.sol\":4986:4987  x */\n      dup7\n        /* \"CTHelpers.sol\":4979:4994  mulmod(x, z, p) */\n      mulmod\n        /* \"CTHelpers.sol\":4974:4994  z := mulmod(x, z, p) */\n      swap2\n      pop\n        /* \"CTHelpers.sol\":5033:5034  p */\n      dup3\n        /* \"CTHelpers.sol\":5030:5031  z */\n      dup3\n        /* \"CTHelpers.sol\":5027:5028  y */\n      dup6\n        /* \"CTHelpers.sol\":5020:5035  mulmod(y, z, p) */\n      mulmod\n        /* \"CTHelpers.sol\":5015:5035  y := mulmod(y, z, p) */\n      swap4\n      pop\n        /* \"CTHelpers.sol\":5074:5075  p */\n      dup3\n        /* \"CTHelpers.sol\":5071:5072  y */\n      dup5\n        /* \"CTHelpers.sol\":5068:5069  x */\n      dup7\n        /* \"CTHelpers.sol\":5061:5076  mulmod(x, y, p) */\n      mulmod\n        /* \"CTHelpers.sol\":5056:5076  x := mulmod(x, y, p) */\n      swap5\n      pop\n        /* \"CTHelpers.sol\":5115:5116  p */\n      dup3\n        /* \"CTHelpers.sol\":5112:5113  x */\n      dup6\n        /* \"CTHelpers.sol\":5109:5110  x */\n      dup7\n        /* \"CTHelpers.sol\":5102:5117  mulmod(x, x, p) */\n      mulmod\n        /* \"CTHelpers.sol\":5097:5117  z := mulmod(x, x, p) */\n      swap2\n      pop\n        /* \"CTHelpers.sol\":5156:5157  p */\n      dup3\n        /* \"CTHelpers.sol\":5153:5154  z */\n      dup3\n        /* \"CTHelpers.sol\":5150:5151  z */\n      dup4\n        /* \"CTHelpers.sol\":5143:5158  mulmod(z, z, p) */\n      mulmod\n        /* \"CTHelpers.sol\":5138:5158  z := mulmod(z, z, p) */\n      swap2\n      pop\n        /* \"CTHelpers.sol\":5197:5198  p */\n      dup3\n        /* \"CTHelpers.sol\":5194:5195  z */\n      dup3\n        /* \"CTHelpers.sol\":5191:5192  y */\n      dup6\n        /* \"CTHelpers.sol\":5184:5199  mulmod(y, z, p) */\n      mulmod\n        /* \"CTHelpers.sol\":5179:5199  y := mulmod(y, z, p) */\n      swap4\n      pop\n        /* \"CTHelpers.sol\":5238:5239  p */\n      dup3\n        /* \"CTHelpers.sol\":5235:5236  y */\n      dup5\n        /* \"CTHelpers.sol\":5232:5233  y */\n      dup6\n        /* \"CTHelpers.sol\":5225:5240  mulmod(y, y, p) */\n      mulmod\n        /* \"CTHelpers.sol\":5220:5240  z := mulmod(y, y, p) */\n      swap2\n      pop\n        /* \"CTHelpers.sol\":5279:5280  p */\n      dup3\n        /* \"CTHelpers.sol\":5276:5277  z */\n      dup3\n        /* \"CTHelpers.sol\":5273:5274  z */\n      dup4\n        /* \"CTHelpers.sol\":5266:5281  mulmod(z, z, p) */\n      mulmod\n        /* \"CTHelpers.sol\":5261:5281  t := mulmod(z, z, p) */\n      swap1\n      pop\n        /* \"CTHelpers.sol\":5320:5321  p */\n      dup3\n        /* \"CTHelpers.sol\":5317:5318  t */\n      dup2\n        /* \"CTHelpers.sol\":5314:5315  t */\n      dup3\n        /* \"CTHelpers.sol\":5307:5322  mulmod(t, t, p) */\n      mulmod\n        /* \"CTHelpers.sol\":5302:5322  t := mulmod(t, t, p) */\n      swap1\n      pop\n        /* \"CTHelpers.sol\":5361:5362  p */\n      dup3\n        /* \"CTHelpers.sol\":5358:5359  t */\n      dup2\n        /* \"CTHelpers.sol\":5355:5356  t */\n      dup3\n        /* \"CTHelpers.sol\":5348:5363  mulmod(t, t, p) */\n      mulmod\n        /* \"CTHelpers.sol\":5343:5363  t := mulmod(t, t, p) */\n      swap1\n      pop\n        /* \"CTHelpers.sol\":5402:5403  p */\n      dup3\n        /* \"CTHelpers.sol\":5399:5400  t */\n      dup2\n        /* \"CTHelpers.sol\":5396:5397  z */\n      dup4\n        /* \"CTHelpers.sol\":5389:5404  mulmod(z, t, p) */\n      mulmod\n        /* \"CTHelpers.sol\":5384:5404  z := mulmod(z, t, p) */\n      swap2\n      pop\n        /* \"CTHelpers.sol\":5443:5444  p */\n      dup3\n        /* \"CTHelpers.sol\":5440:5441  z */\n      dup3\n        /* \"CTHelpers.sol\":5437:5438  x */\n      dup7\n        /* \"CTHelpers.sol\":5430:5445  mulmod(x, z, p) */\n      mulmod\n        /* \"CTHelpers.sol\":5425:5445  x := mulmod(x, z, p) */\n      swap5\n      pop\n        /* \"CTHelpers.sol\":5484:5485  p */\n      dup3\n        /* \"CTHelpers.sol\":5481:5482  x */\n      dup6\n        /* \"CTHelpers.sol\":5478:5479  y */\n      dup6\n        /* \"CTHelpers.sol\":5471:5486  mulmod(y, x, p) */\n      mulmod\n        /* \"CTHelpers.sol\":5466:5486  y := mulmod(y, x, p) */\n      swap4\n      pop\n        /* \"CTHelpers.sol\":5525:5526  p */\n      dup3\n        /* \"CTHelpers.sol\":5522:5523  y */\n      dup5\n        /* \"CTHelpers.sol\":5519:5520  y */\n      dup6\n        /* \"CTHelpers.sol\":5512:5527  mulmod(y, y, p) */\n      mulmod\n        /* \"CTHelpers.sol\":5507:5527  z := mulmod(y, y, p) */\n      swap2\n      pop\n        /* \"CTHelpers.sol\":5566:5567  p */\n      dup3\n        /* \"CTHelpers.sol\":5563:5564  z */\n      dup3\n        /* \"CTHelpers.sol\":5560:5561  z */\n      dup4\n        /* \"CTHelpers.sol\":5553:5568  mulmod(z, z, p) */\n      mulmod\n        /* \"CTHelpers.sol\":5548:5568  z := mulmod(z, z, p) */\n      swap2\n      pop\n        /* \"CTHelpers.sol\":5607:5608  p */\n      dup3\n        /* \"CTHelpers.sol\":5604:5605  z */\n      dup3\n        /* \"CTHelpers.sol\":5601:5602  z */\n      dup4\n        /* \"CTHelpers.sol\":5594:5609  mulmod(z, z, p) */\n      mulmod\n        /* \"CTHelpers.sol\":5589:5609  z := mulmod(z, z, p) */\n      swap2\n      pop\n        /* \"CTHelpers.sol\":5648:5649  p */\n      dup3\n        /* \"CTHelpers.sol\":5645:5646  z */\n      dup3\n        /* \"CTHelpers.sol\":5642:5643  x */\n      dup7\n        /* \"CTHelpers.sol\":5635:5650  mulmod(x, z, p) */\n      mulmod\n        /* \"CTHelpers.sol\":5630:5650  x := mulmod(x, z, p) */\n      swap5\n      pop\n        /* \"CTHelpers.sol\":5689:5690  p */\n      dup3\n        /* \"CTHelpers.sol\":5686:5687  x */\n      dup6\n        /* \"CTHelpers.sol\":5683:5684  x */\n      dup7\n        /* \"CTHelpers.sol\":5676:5691  mulmod(x, x, p) */\n      mulmod\n        /* \"CTHelpers.sol\":5671:5691  z := mulmod(x, x, p) */\n      swap2\n      pop\n        /* \"CTHelpers.sol\":5730:5731  p */\n      dup3\n        /* \"CTHelpers.sol\":5727:5728  z */\n      dup3\n        /* \"CTHelpers.sol\":5724:5725  z */\n      dup4\n        /* \"CTHelpers.sol\":5717:5732  mulmod(z, z, p) */\n      mulmod\n        /* \"CTHelpers.sol\":5712:5732  z := mulmod(z, z, p) */\n      swap2\n      pop\n        /* \"CTHelpers.sol\":5771:5772  p */\n      dup3\n        /* \"CTHelpers.sol\":5768:5769  z */\n      dup3\n        /* \"CTHelpers.sol\":5765:5766  x */\n      dup7\n        /* \"CTHelpers.sol\":5758:5773  mulmod(x, z, p) */\n      mulmod\n        /* \"CTHelpers.sol\":5753:5773  z := mulmod(x, z, p) */\n      swap2\n      pop\n        /* \"CTHelpers.sol\":5812:5813  p */\n      dup3\n        /* \"CTHelpers.sol\":5809:5810  z */\n      dup3\n        /* \"CTHelpers.sol\":5806:5807  z */\n      dup4\n        /* \"CTHelpers.sol\":5799:5814  mulmod(z, z, p) */\n      mulmod\n        /* \"CTHelpers.sol\":5794:5814  z := mulmod(z, z, p) */\n      swap2\n      pop\n        /* \"CTHelpers.sol\":5853:5854  p */\n      dup3\n        /* \"CTHelpers.sol\":5850:5851  z */\n      dup3\n        /* \"CTHelpers.sol\":5847:5848  z */\n      dup4\n        /* \"CTHelpers.sol\":5840:5855  mulmod(z, z, p) */\n      mulmod\n        /* \"CTHelpers.sol\":5835:5855  z := mulmod(z, z, p) */\n      swap2\n      pop\n        /* \"CTHelpers.sol\":5894:5895  p */\n      dup3\n        /* \"CTHelpers.sol\":5891:5892  z */\n      dup3\n        /* \"CTHelpers.sol\":5888:5889  x */\n      dup7\n        /* \"CTHelpers.sol\":5881:5896  mulmod(x, z, p) */\n      mulmod\n        /* \"CTHelpers.sol\":5876:5896  z := mulmod(x, z, p) */\n      swap2\n      pop\n        /* \"CTHelpers.sol\":5935:5936  p */\n      dup3\n        /* \"CTHelpers.sol\":5932:5933  z */\n      dup3\n        /* \"CTHelpers.sol\":5929:5930  y */\n      dup6\n        /* \"CTHelpers.sol\":5922:5937  mulmod(y, z, p) */\n      mulmod\n        /* \"CTHelpers.sol\":5917:5937  y := mulmod(y, z, p) */\n      swap4\n      pop\n        /* \"CTHelpers.sol\":5976:5977  p */\n      dup3\n        /* \"CTHelpers.sol\":5973:5974  y */\n      dup5\n        /* \"CTHelpers.sol\":5970:5971  y */\n      dup6\n        /* \"CTHelpers.sol\":5963:5978  mulmod(y, y, p) */\n      mulmod\n        /* \"CTHelpers.sol\":5958:5978  z := mulmod(y, y, p) */\n      swap2\n      pop\n        /* \"CTHelpers.sol\":6017:6018  p */\n      dup3\n        /* \"CTHelpers.sol\":6014:6015  z */\n      dup3\n        /* \"CTHelpers.sol\":6011:6012  z */\n      dup4\n        /* \"CTHelpers.sol\":6004:6019  mulmod(z, z, p) */\n      mulmod\n        /* \"CTHelpers.sol\":5999:6019  t := mulmod(z, z, p) */\n      swap1\n      pop\n        /* \"CTHelpers.sol\":6058:6059  p */\n      dup3\n        /* \"CTHelpers.sol\":6055:6056  t */\n      dup2\n        /* \"CTHelpers.sol\":6052:6053  t */\n      dup3\n        /* \"CTHelpers.sol\":6045:6060  mulmod(t, t, p) */\n      mulmod\n        /* \"CTHelpers.sol\":6040:6060  t := mulmod(t, t, p) */\n      swap1\n      pop\n        /* \"CTHelpers.sol\":6099:6100  p */\n      dup3\n        /* \"CTHelpers.sol\":6096:6097  t */\n      dup2\n        /* \"CTHelpers.sol\":6093:6094  z */\n      dup4\n        /* \"CTHelpers.sol\":6086:6101  mulmod(z, t, p) */\n      mulmod\n        /* \"CTHelpers.sol\":6081:6101  t := mulmod(z, t, p) */\n      swap1\n      pop\n        /* \"CTHelpers.sol\":6140:6141  p */\n      dup3\n        /* \"CTHelpers.sol\":6137:6138  t */\n      dup2\n        /* \"CTHelpers.sol\":6134:6135  y */\n      dup6\n        /* \"CTHelpers.sol\":6127:6142  mulmod(y, t, p) */\n      mulmod\n        /* \"CTHelpers.sol\":6122:6142  t := mulmod(y, t, p) */\n      swap1\n      pop\n        /* \"CTHelpers.sol\":6181:6182  p */\n      dup3\n        /* \"CTHelpers.sol\":6178:6179  t */\n      dup2\n        /* \"CTHelpers.sol\":6175:6176  t */\n      dup3\n        /* \"CTHelpers.sol\":6168:6183  mulmod(t, t, p) */\n      mulmod\n        /* \"CTHelpers.sol\":6163:6183  t := mulmod(t, t, p) */\n      swap1\n      pop\n        /* \"CTHelpers.sol\":6222:6223  p */\n      dup3\n        /* \"CTHelpers.sol\":6219:6220  t */\n      dup2\n        /* \"CTHelpers.sol\":6216:6217  t */\n      dup3\n        /* \"CTHelpers.sol\":6209:6224  mulmod(t, t, p) */\n      mulmod\n        /* \"CTHelpers.sol\":6204:6224  t := mulmod(t, t, p) */\n      swap1\n      pop\n        /* \"CTHelpers.sol\":6263:6264  p */\n      dup3\n        /* \"CTHelpers.sol\":6260:6261  t */\n      dup2\n        /* \"CTHelpers.sol\":6257:6258  t */\n      dup3\n        /* \"CTHelpers.sol\":6250:6265  mulmod(t, t, p) */\n      mulmod\n        /* \"CTHelpers.sol\":6245:6265  t := mulmod(t, t, p) */\n      swap1\n      pop\n        /* \"CTHelpers.sol\":6304:6305  p */\n      dup3\n        /* \"CTHelpers.sol\":6301:6302  t */\n      dup2\n        /* \"CTHelpers.sol\":6298:6299  t */\n      dup3\n        /* \"CTHelpers.sol\":6291:6306  mulmod(t, t, p) */\n      mulmod\n        /* \"CTHelpers.sol\":6286:6306  t := mulmod(t, t, p) */\n      swap1\n      pop\n        /* \"CTHelpers.sol\":6345:6346  p */\n      dup3\n        /* \"CTHelpers.sol\":6342:6343  t */\n      dup2\n        /* \"CTHelpers.sol\":6339:6340  z */\n      dup4\n        /* \"CTHelpers.sol\":6332:6347  mulmod(z, t, p) */\n      mulmod\n        /* \"CTHelpers.sol\":6327:6347  z := mulmod(z, t, p) */\n      swap2\n      pop\n        /* \"CTHelpers.sol\":6386:6387  p */\n      dup3\n        /* \"CTHelpers.sol\":6383:6384  z */\n      dup3\n        /* \"CTHelpers.sol\":6380:6381  x */\n      dup7\n        /* \"CTHelpers.sol\":6373:6388  mulmod(x, z, p) */\n      mulmod\n        /* \"CTHelpers.sol\":6368:6388  x := mulmod(x, z, p) */\n      swap5\n      pop\n        /* \"CTHelpers.sol\":6427:6428  p */\n      dup3\n        /* \"CTHelpers.sol\":6424:6425  x */\n      dup6\n        /* \"CTHelpers.sol\":6421:6422  x */\n      dup7\n        /* \"CTHelpers.sol\":6414:6429  mulmod(x, x, p) */\n      mulmod\n        /* \"CTHelpers.sol\":6409:6429  z := mulmod(x, x, p) */\n      swap2\n      pop\n        /* \"CTHelpers.sol\":6468:6469  p */\n      dup3\n        /* \"CTHelpers.sol\":6465:6466  z */\n      dup3\n        /* \"CTHelpers.sol\":6462:6463  x */\n      dup7\n        /* \"CTHelpers.sol\":6455:6470  mulmod(x, z, p) */\n      mulmod\n        /* \"CTHelpers.sol\":6450:6470  z := mulmod(x, z, p) */\n      swap2\n      pop\n        /* \"CTHelpers.sol\":6509:6510  p */\n      dup3\n        /* \"CTHelpers.sol\":6506:6507  z */\n      dup3\n        /* \"CTHelpers.sol\":6503:6504  y */\n      dup6\n        /* \"CTHelpers.sol\":6496:6511  mulmod(y, z, p) */\n      mulmod\n        /* \"CTHelpers.sol\":6491:6511  y := mulmod(y, z, p) */\n      swap4\n      pop\n        /* \"CTHelpers.sol\":6550:6551  p */\n      dup3\n        /* \"CTHelpers.sol\":6547:6548  y */\n      dup5\n        /* \"CTHelpers.sol\":6544:6545  y */\n      dup6\n        /* \"CTHelpers.sol\":6537:6552  mulmod(y, y, p) */\n      mulmod\n        /* \"CTHelpers.sol\":6532:6552  z := mulmod(y, y, p) */\n      swap2\n      pop\n        /* \"CTHelpers.sol\":6591:6592  p */\n      dup3\n        /* \"CTHelpers.sol\":6588:6589  z */\n      dup3\n        /* \"CTHelpers.sol\":6585:6586  y */\n      dup6\n        /* \"CTHelpers.sol\":6578:6593  mulmod(y, z, p) */\n      mulmod\n        /* \"CTHelpers.sol\":6573:6593  z := mulmod(y, z, p) */\n      swap2\n      pop\n        /* \"CTHelpers.sol\":6632:6633  p */\n      dup3\n        /* \"CTHelpers.sol\":6629:6630  z */\n      dup3\n        /* \"CTHelpers.sol\":6626:6627  z */\n      dup4\n        /* \"CTHelpers.sol\":6619:6634  mulmod(z, z, p) */\n      mulmod\n        /* \"CTHelpers.sol\":6614:6634  z := mulmod(z, z, p) */\n      swap2\n      pop\n        /* \"CTHelpers.sol\":6673:6674  p */\n      dup3\n        /* \"CTHelpers.sol\":6670:6671  z */\n      dup3\n        /* \"CTHelpers.sol\":6667:6668  z */\n      dup4\n        /* \"CTHelpers.sol\":6660:6675  mulmod(z, z, p) */\n      mulmod\n        /* \"CTHelpers.sol\":6655:6675  t := mulmod(z, z, p) */\n      swap1\n      pop\n        /* \"CTHelpers.sol\":6714:6715  p */\n      dup3\n        /* \"CTHelpers.sol\":6711:6712  t */\n      dup2\n        /* \"CTHelpers.sol\":6708:6709  z */\n      dup4\n        /* \"CTHelpers.sol\":6701:6716  mulmod(z, t, p) */\n      mulmod\n        /* \"CTHelpers.sol\":6696:6716  t := mulmod(z, t, p) */\n      swap1\n      pop\n        /* \"CTHelpers.sol\":6785:6786  p */\n      dup3\n        /* \"CTHelpers.sol\":6782:6783  t */\n      dup2\n        /* \"CTHelpers.sol\":6779:6780  t */\n      dup3\n        /* \"CTHelpers.sol\":6772:6787  mulmod(t, t, p) */\n      mulmod\n        /* \"CTHelpers.sol\":6830:6831  p */\n      dup4\n        /* \"CTHelpers.sol\":6827:6828  w */\n      dup2\n        /* \"CTHelpers.sol\":6824:6825  w */\n      dup3\n        /* \"CTHelpers.sol\":6817:6832  mulmod(w, w, p) */\n      mulmod\n        /* \"CTHelpers.sol\":6812:6832  w := mulmod(w, w, p) */\n      swap1\n      pop\n        /* \"CTHelpers.sol\":6875:6876  p */\n      dup4\n        /* \"CTHelpers.sol\":6872:6873  w */\n      dup2\n        /* \"CTHelpers.sol\":6869:6870  w */\n      dup3\n        /* \"CTHelpers.sol\":6862:6877  mulmod(w, w, p) */\n      mulmod\n        /* \"CTHelpers.sol\":6857:6877  w := mulmod(w, w, p) */\n      swap1\n      pop\n        /* \"CTHelpers.sol\":6920:6921  p */\n      dup4\n        /* \"CTHelpers.sol\":6917:6918  w */\n      dup2\n        /* \"CTHelpers.sol\":6914:6915  w */\n      dup3\n        /* \"CTHelpers.sol\":6907:6922  mulmod(w, w, p) */\n      mulmod\n        /* \"CTHelpers.sol\":6902:6922  w := mulmod(w, w, p) */\n      swap1\n      pop\n        /* \"CTHelpers.sol\":6965:6966  p */\n      dup4\n        /* \"CTHelpers.sol\":6962:6963  w */\n      dup2\n        /* \"CTHelpers.sol\":6959:6960  w */\n      dup3\n        /* \"CTHelpers.sol\":6952:6967  mulmod(w, w, p) */\n      mulmod\n        /* \"CTHelpers.sol\":6947:6967  w := mulmod(w, w, p) */\n      swap1\n      pop\n        /* \"CTHelpers.sol\":7010:7011  p */\n      dup4\n        /* \"CTHelpers.sol\":7007:7008  w */\n      dup2\n        /* \"CTHelpers.sol\":7004:7005  t */\n      dup4\n        /* \"CTHelpers.sol\":6997:7012  mulmod(t, w, p) */\n      mulmod\n        /* \"CTHelpers.sol\":6992:7012  t := mulmod(t, w, p) */\n      swap2\n      pop\n      pop\n        /* \"CTHelpers.sol\":7073:7074  p */\n      dup3\n        /* \"CTHelpers.sol\":7070:7071  t */\n      dup2\n        /* \"CTHelpers.sol\":7067:7068  z */\n      dup4\n        /* \"CTHelpers.sol\":7060:7075  mulmod(z, t, p) */\n      mulmod\n        /* \"CTHelpers.sol\":7055:7075  z := mulmod(z, t, p) */\n      swap2\n      pop\n        /* \"CTHelpers.sol\":7114:7115  p */\n      dup3\n        /* \"CTHelpers.sol\":7111:7112  z */\n      dup3\n        /* \"CTHelpers.sol\":7108:7109  x */\n      dup7\n        /* \"CTHelpers.sol\":7101:7116  mulmod(x, z, p) */\n      mulmod\n        /* \"CTHelpers.sol\":7096:7116  x := mulmod(x, z, p) */\n      swap5\n      pop\n        /* \"CTHelpers.sol\":7155:7156  p */\n      dup3\n        /* \"CTHelpers.sol\":7152:7153  x */\n      dup6\n        /* \"CTHelpers.sol\":7149:7150  y */\n      dup6\n        /* \"CTHelpers.sol\":7142:7157  mulmod(y, x, p) */\n      mulmod\n        /* \"CTHelpers.sol\":7137:7157  y := mulmod(y, x, p) */\n      swap4\n      pop\n        /* \"CTHelpers.sol\":7196:7197  p */\n      dup3\n        /* \"CTHelpers.sol\":7193:7194  y */\n      dup5\n        /* \"CTHelpers.sol\":7190:7191  y */\n      dup6\n        /* \"CTHelpers.sol\":7183:7198  mulmod(y, y, p) */\n      mulmod\n        /* \"CTHelpers.sol\":7178:7198  z := mulmod(y, y, p) */\n      swap2\n      pop\n        /* \"CTHelpers.sol\":7237:7238  p */\n      dup3\n        /* \"CTHelpers.sol\":7234:7235  z */\n      dup3\n        /* \"CTHelpers.sol\":7231:7232  x */\n      dup7\n        /* \"CTHelpers.sol\":7224:7239  mulmod(x, z, p) */\n      mulmod\n        /* \"CTHelpers.sol\":7219:7239  x := mulmod(x, z, p) */\n      swap5\n      pop\n        /* \"CTHelpers.sol\":7278:7279  p */\n      dup3\n        /* \"CTHelpers.sol\":7275:7276  x */\n      dup6\n        /* \"CTHelpers.sol\":7272:7273  y */\n      dup6\n        /* \"CTHelpers.sol\":7265:7280  mulmod(y, x, p) */\n      mulmod\n        /* \"CTHelpers.sol\":7260:7280  y := mulmod(y, x, p) */\n      swap4\n      pop\n        /* \"CTHelpers.sol\":7319:7320  p */\n      dup3\n        /* \"CTHelpers.sol\":7316:7317  y */\n      dup5\n        /* \"CTHelpers.sol\":7313:7314  x */\n      dup7\n        /* \"CTHelpers.sol\":7306:7321  mulmod(x, y, p) */\n      mulmod\n        /* \"CTHelpers.sol\":7301:7321  x := mulmod(x, y, p) */\n      swap5\n      pop\n        /* \"CTHelpers.sol\":7360:7361  p */\n      dup3\n        /* \"CTHelpers.sol\":7357:7358  x */\n      dup6\n        /* \"CTHelpers.sol\":7354:7355  y */\n      dup6\n        /* \"CTHelpers.sol\":7347:7362  mulmod(y, x, p) */\n      mulmod\n        /* \"CTHelpers.sol\":7342:7362  y := mulmod(y, x, p) */\n      swap4\n      pop\n        /* \"CTHelpers.sol\":7401:7402  p */\n      dup3\n        /* \"CTHelpers.sol\":7398:7399  y */\n      dup5\n        /* \"CTHelpers.sol\":7395:7396  x */\n      dup7\n        /* \"CTHelpers.sol\":7388:7403  mulmod(x, y, p) */\n      mulmod\n        /* \"CTHelpers.sol\":7383:7403  x := mulmod(x, y, p) */\n      swap5\n      pop\n        /* \"CTHelpers.sol\":7442:7443  p */\n      dup3\n        /* \"CTHelpers.sol\":7439:7440  x */\n      dup6\n        /* \"CTHelpers.sol\":7436:7437  x */\n      dup7\n        /* \"CTHelpers.sol\":7429:7444  mulmod(x, x, p) */\n      mulmod\n        /* \"CTHelpers.sol\":7424:7444  z := mulmod(x, x, p) */\n      swap2\n      pop\n        /* \"CTHelpers.sol\":7483:7484  p */\n      dup3\n        /* \"CTHelpers.sol\":7480:7481  z */\n      dup3\n        /* \"CTHelpers.sol\":7477:7478  x */\n      dup7\n        /* \"CTHelpers.sol\":7470:7485  mulmod(x, z, p) */\n      mulmod\n        /* \"CTHelpers.sol\":7465:7485  z := mulmod(x, z, p) */\n      swap2\n      pop\n        /* \"CTHelpers.sol\":7524:7525  p */\n      dup3\n        /* \"CTHelpers.sol\":7521:7522  z */\n      dup3\n        /* \"CTHelpers.sol\":7518:7519  z */\n      dup4\n        /* \"CTHelpers.sol\":7511:7526  mulmod(z, z, p) */\n      mulmod\n        /* \"CTHelpers.sol\":7506:7526  z := mulmod(z, z, p) */\n      swap2\n      pop\n        /* \"CTHelpers.sol\":7565:7566  p */\n      dup3\n        /* \"CTHelpers.sol\":7562:7563  z */\n      dup3\n        /* \"CTHelpers.sol\":7559:7560  y */\n      dup6\n        /* \"CTHelpers.sol\":7552:7567  mulmod(y, z, p) */\n      mulmod\n        /* \"CTHelpers.sol\":7547:7567  y := mulmod(y, z, p) */\n      swap4\n      pop\n        /* \"CTHelpers.sol\":7606:7607  p */\n      dup3\n        /* \"CTHelpers.sol\":7603:7604  y */\n      dup5\n        /* \"CTHelpers.sol\":7600:7601  y */\n      dup6\n        /* \"CTHelpers.sol\":7593:7608  mulmod(y, y, p) */\n      mulmod\n        /* \"CTHelpers.sol\":7588:7608  z := mulmod(y, y, p) */\n      swap2\n      pop\n        /* \"CTHelpers.sol\":7647:7648  p */\n      dup3\n        /* \"CTHelpers.sol\":7644:7645  z */\n      dup3\n        /* \"CTHelpers.sol\":7641:7642  z */\n      dup4\n        /* \"CTHelpers.sol\":7634:7649  mulmod(z, z, p) */\n      mulmod\n        /* \"CTHelpers.sol\":7629:7649  z := mulmod(z, z, p) */\n      swap2\n      pop\n        /* \"CTHelpers.sol\":7688:7689  p */\n      dup3\n        /* \"CTHelpers.sol\":7685:7686  z */\n      dup3\n        /* \"CTHelpers.sol\":7682:7683  x */\n      dup7\n        /* \"CTHelpers.sol\":7675:7690  mulmod(x, z, p) */\n      mulmod\n        /* \"CTHelpers.sol\":7670:7690  x := mulmod(x, z, p) */\n      swap5\n      pop\n        /* \"CTHelpers.sol\":7729:7730  p */\n      dup3\n        /* \"CTHelpers.sol\":7726:7727  x */\n      dup6\n        /* \"CTHelpers.sol\":7723:7724  y */\n      dup6\n        /* \"CTHelpers.sol\":7716:7731  mulmod(y, x, p) */\n      mulmod\n        /* \"CTHelpers.sol\":7711:7731  y := mulmod(y, x, p) */\n      swap4\n      pop\n        /* \"CTHelpers.sol\":7770:7771  p */\n      dup3\n        /* \"CTHelpers.sol\":7767:7768  y */\n      dup5\n        /* \"CTHelpers.sol\":7764:7765  y */\n      dup6\n        /* \"CTHelpers.sol\":7757:7772  mulmod(y, y, p) */\n      mulmod\n        /* \"CTHelpers.sol\":7752:7772  z := mulmod(y, y, p) */\n      swap2\n      pop\n        /* \"CTHelpers.sol\":7811:7812  p */\n      dup3\n        /* \"CTHelpers.sol\":7808:7809  z */\n      dup3\n        /* \"CTHelpers.sol\":7805:7806  y */\n      dup6\n        /* \"CTHelpers.sol\":7798:7813  mulmod(y, z, p) */\n      mulmod\n        /* \"CTHelpers.sol\":7793:7813  z := mulmod(y, z, p) */\n      swap2\n      pop\n        /* \"CTHelpers.sol\":7852:7853  p */\n      dup3\n        /* \"CTHelpers.sol\":7849:7850  z */\n      dup3\n        /* \"CTHelpers.sol\":7846:7847  x */\n      dup7\n        /* \"CTHelpers.sol\":7839:7854  mulmod(x, z, p) */\n      mulmod\n        /* \"CTHelpers.sol\":7834:7854  x := mulmod(x, z, p) */\n      swap5\n      pop\n        /* \"CTHelpers.sol\":7893:7894  p */\n      dup3\n        /* \"CTHelpers.sol\":7890:7891  x */\n      dup6\n        /* \"CTHelpers.sol\":7887:7888  y */\n      dup6\n        /* \"CTHelpers.sol\":7880:7895  mulmod(y, x, p) */\n      mulmod\n        /* \"CTHelpers.sol\":7875:7895  y := mulmod(y, x, p) */\n      swap4\n      pop\n        /* \"CTHelpers.sol\":7934:7935  p */\n      dup3\n        /* \"CTHelpers.sol\":7931:7932  y */\n      dup5\n        /* \"CTHelpers.sol\":7928:7929  x */\n      dup7\n        /* \"CTHelpers.sol\":7921:7936  mulmod(x, y, p) */\n      mulmod\n        /* \"CTHelpers.sol\":7916:7936  x := mulmod(x, y, p) */\n      swap5\n      pop\n        /* \"CTHelpers.sol\":7975:7976  p */\n      dup3\n        /* \"CTHelpers.sol\":7972:7973  x */\n      dup6\n        /* \"CTHelpers.sol\":7969:7970  y */\n      dup6\n        /* \"CTHelpers.sol\":7962:7977  mulmod(y, x, p) */\n      mulmod\n        /* \"CTHelpers.sol\":7957:7977  y := mulmod(y, x, p) */\n      swap4\n      pop\n        /* \"CTHelpers.sol\":8016:8017  p */\n      dup3\n        /* \"CTHelpers.sol\":8013:8014  y */\n      dup5\n        /* \"CTHelpers.sol\":8010:8011  y */\n      dup6\n        /* \"CTHelpers.sol\":8003:8018  mulmod(y, y, p) */\n      mulmod\n        /* \"CTHelpers.sol\":7998:8018  z := mulmod(y, y, p) */\n      swap2\n      pop\n        /* \"CTHelpers.sol\":8057:8058  p */\n      dup3\n        /* \"CTHelpers.sol\":8054:8055  z */\n      dup3\n        /* \"CTHelpers.sol\":8051:8052  z */\n      dup4\n        /* \"CTHelpers.sol\":8044:8059  mulmod(z, z, p) */\n      mulmod\n        /* \"CTHelpers.sol\":8039:8059  z := mulmod(z, z, p) */\n      swap2\n      pop\n        /* \"CTHelpers.sol\":8098:8099  p */\n      dup3\n        /* \"CTHelpers.sol\":8095:8096  z */\n      dup3\n        /* \"CTHelpers.sol\":8092:8093  y */\n      dup6\n        /* \"CTHelpers.sol\":8085:8100  mulmod(y, z, p) */\n      mulmod\n        /* \"CTHelpers.sol\":8080:8100  z := mulmod(y, z, p) */\n      swap2\n      pop\n        /* \"CTHelpers.sol\":8139:8140  p */\n      dup3\n        /* \"CTHelpers.sol\":8136:8137  z */\n      dup3\n        /* \"CTHelpers.sol\":8133:8134  x */\n      dup7\n        /* \"CTHelpers.sol\":8126:8141  mulmod(x, z, p) */\n      mulmod\n        /* \"CTHelpers.sol\":8121:8141  x := mulmod(x, z, p) */\n      swap5\n      pop\n        /* \"CTHelpers.sol\":8180:8181  p */\n      dup3\n        /* \"CTHelpers.sol\":8177:8178  x */\n      dup6\n        /* \"CTHelpers.sol\":8174:8175  x */\n      dup7\n        /* \"CTHelpers.sol\":8167:8182  mulmod(x, x, p) */\n      mulmod\n        /* \"CTHelpers.sol\":8162:8182  z := mulmod(x, x, p) */\n      swap2\n      pop\n        /* \"CTHelpers.sol\":8221:8222  p */\n      dup3\n        /* \"CTHelpers.sol\":8218:8219  z */\n      dup3\n        /* \"CTHelpers.sol\":8215:8216  x */\n      dup7\n        /* \"CTHelpers.sol\":8208:8223  mulmod(x, z, p) */\n      mulmod\n        /* \"CTHelpers.sol\":8203:8223  z := mulmod(x, z, p) */\n      swap2\n      pop\n        /* \"CTHelpers.sol\":8262:8263  p */\n      dup3\n        /* \"CTHelpers.sol\":8259:8260  z */\n      dup3\n        /* \"CTHelpers.sol\":8256:8257  y */\n      dup6\n        /* \"CTHelpers.sol\":8249:8264  mulmod(y, z, p) */\n      mulmod\n        /* \"CTHelpers.sol\":8244:8264  y := mulmod(y, z, p) */\n      swap4\n      pop\n        /* \"CTHelpers.sol\":8303:8304  p */\n      dup3\n        /* \"CTHelpers.sol\":8300:8301  y */\n      dup5\n        /* \"CTHelpers.sol\":8297:8298  x */\n      dup7\n        /* \"CTHelpers.sol\":8290:8305  mulmod(x, y, p) */\n      mulmod\n        /* \"CTHelpers.sol\":8285:8305  x := mulmod(x, y, p) */\n      swap5\n      pop\n        /* \"CTHelpers.sol\":8344:8345  p */\n      dup3\n        /* \"CTHelpers.sol\":8341:8342  x */\n      dup6\n        /* \"CTHelpers.sol\":8338:8339  y */\n      dup6\n        /* \"CTHelpers.sol\":8331:8346  mulmod(y, x, p) */\n      mulmod\n        /* \"CTHelpers.sol\":8326:8346  y := mulmod(y, x, p) */\n      swap4\n      pop\n        /* \"CTHelpers.sol\":8385:8386  p */\n      dup3\n        /* \"CTHelpers.sol\":8382:8383  y */\n      dup5\n        /* \"CTHelpers.sol\":8379:8380  x */\n      dup7\n        /* \"CTHelpers.sol\":8372:8387  mulmod(x, y, p) */\n      mulmod\n        /* \"CTHelpers.sol\":8367:8387  x := mulmod(x, y, p) */\n      swap5\n      pop\n        /* \"CTHelpers.sol\":8426:8427  p */\n      dup3\n        /* \"CTHelpers.sol\":8423:8424  x */\n      dup6\n        /* \"CTHelpers.sol\":8420:8421  y */\n      dup6\n        /* \"CTHelpers.sol\":8413:8428  mulmod(y, x, p) */\n      mulmod\n        /* \"CTHelpers.sol\":8408:8428  y := mulmod(y, x, p) */\n      swap4\n      pop\n        /* \"CTHelpers.sol\":8467:8468  p */\n      dup3\n        /* \"CTHelpers.sol\":8464:8465  y */\n      dup5\n        /* \"CTHelpers.sol\":8461:8462  y */\n      dup6\n        /* \"CTHelpers.sol\":8454:8469  mulmod(y, y, p) */\n      mulmod\n        /* \"CTHelpers.sol\":8449:8469  z := mulmod(y, y, p) */\n      swap2\n      pop\n        /* \"CTHelpers.sol\":8508:8509  p */\n      dup3\n        /* \"CTHelpers.sol\":8505:8506  z */\n      dup3\n        /* \"CTHelpers.sol\":8502:8503  y */\n      dup6\n        /* \"CTHelpers.sol\":8495:8510  mulmod(y, z, p) */\n      mulmod\n        /* \"CTHelpers.sol\":8490:8510  z := mulmod(y, z, p) */\n      swap2\n      pop\n        /* \"CTHelpers.sol\":8549:8550  p */\n      dup3\n        /* \"CTHelpers.sol\":8546:8547  z */\n      dup3\n        /* \"CTHelpers.sol\":8543:8544  z */\n      dup4\n        /* \"CTHelpers.sol\":8536:8551  mulmod(z, z, p) */\n      mulmod\n        /* \"CTHelpers.sol\":8531:8551  z := mulmod(z, z, p) */\n      swap2\n      pop\n        /* \"CTHelpers.sol\":8590:8591  p */\n      dup3\n        /* \"CTHelpers.sol\":8587:8588  z */\n      dup3\n        /* \"CTHelpers.sol\":8584:8585  x */\n      dup7\n        /* \"CTHelpers.sol\":8577:8592  mulmod(x, z, p) */\n      mulmod\n        /* \"CTHelpers.sol\":8572:8592  x := mulmod(x, z, p) */\n      swap5\n      pop\n        /* \"CTHelpers.sol\":8631:8632  p */\n      dup3\n        /* \"CTHelpers.sol\":8628:8629  x */\n      dup6\n        /* \"CTHelpers.sol\":8625:8626  y */\n      dup6\n        /* \"CTHelpers.sol\":8618:8633  mulmod(y, x, p) */\n      mulmod\n        /* \"CTHelpers.sol\":8613:8633  y := mulmod(y, x, p) */\n      swap4\n      pop\n        /* \"CTHelpers.sol\":8672:8673  p */\n      dup3\n        /* \"CTHelpers.sol\":8669:8670  y */\n      dup5\n        /* \"CTHelpers.sol\":8666:8667  y */\n      dup6\n        /* \"CTHelpers.sol\":8659:8674  mulmod(y, y, p) */\n      mulmod\n        /* \"CTHelpers.sol\":8654:8674  z := mulmod(y, y, p) */\n      swap2\n      pop\n        /* \"CTHelpers.sol\":8713:8714  p */\n      dup3\n        /* \"CTHelpers.sol\":8710:8711  z */\n      dup3\n        /* \"CTHelpers.sol\":8707:8708  y */\n      dup6\n        /* \"CTHelpers.sol\":8700:8715  mulmod(y, z, p) */\n      mulmod\n        /* \"CTHelpers.sol\":8695:8715  z := mulmod(y, z, p) */\n      swap2\n      pop\n        /* \"CTHelpers.sol\":8754:8755  p */\n      dup3\n        /* \"CTHelpers.sol\":8751:8752  z */\n      dup3\n        /* \"CTHelpers.sol\":8748:8749  z */\n      dup4\n        /* \"CTHelpers.sol\":8741:8756  mulmod(z, z, p) */\n      mulmod\n        /* \"CTHelpers.sol\":8736:8756  z := mulmod(z, z, p) */\n      swap2\n      pop\n        /* \"CTHelpers.sol\":8795:8796  p */\n      dup3\n        /* \"CTHelpers.sol\":8792:8793  z */\n      dup3\n        /* \"CTHelpers.sol\":8789:8790  x */\n      dup7\n        /* \"CTHelpers.sol\":8782:8797  mulmod(x, z, p) */\n      mulmod\n        /* \"CTHelpers.sol\":8777:8797  x := mulmod(x, z, p) */\n      swap5\n      pop\n        /* \"CTHelpers.sol\":8836:8837  p */\n      dup3\n        /* \"CTHelpers.sol\":8833:8834  x */\n      dup6\n        /* \"CTHelpers.sol\":8830:8831  x */\n      dup7\n        /* \"CTHelpers.sol\":8823:8838  mulmod(x, x, p) */\n      mulmod\n        /* \"CTHelpers.sol\":8818:8838  z := mulmod(x, x, p) */\n      swap2\n      pop\n        /* \"CTHelpers.sol\":8877:8878  p */\n      dup3\n        /* \"CTHelpers.sol\":8874:8875  z */\n      dup3\n        /* \"CTHelpers.sol\":8871:8872  z */\n      dup4\n        /* \"CTHelpers.sol\":8864:8879  mulmod(z, z, p) */\n      mulmod\n        /* \"CTHelpers.sol\":8859:8879  t := mulmod(z, z, p) */\n      swap1\n      pop\n        /* \"CTHelpers.sol\":8918:8919  p */\n      dup3\n        /* \"CTHelpers.sol\":8915:8916  t */\n      dup2\n        /* \"CTHelpers.sol\":8912:8913  t */\n      dup3\n        /* \"CTHelpers.sol\":8905:8920  mulmod(t, t, p) */\n      mulmod\n        /* \"CTHelpers.sol\":8900:8920  t := mulmod(t, t, p) */\n      swap1\n      pop\n        /* \"CTHelpers.sol\":8959:8960  p */\n      dup3\n        /* \"CTHelpers.sol\":8956:8957  t */\n      dup2\n        /* \"CTHelpers.sol\":8953:8954  z */\n      dup4\n        /* \"CTHelpers.sol\":8946:8961  mulmod(z, t, p) */\n      mulmod\n        /* \"CTHelpers.sol\":8941:8961  t := mulmod(z, t, p) */\n      swap1\n      pop\n        /* \"CTHelpers.sol\":9000:9001  p */\n      dup3\n        /* \"CTHelpers.sol\":8997:8998  t */\n      dup2\n        /* \"CTHelpers.sol\":8994:8995  x */\n      dup7\n        /* \"CTHelpers.sol\":8987:9002  mulmod(x, t, p) */\n      mulmod\n        /* \"CTHelpers.sol\":8982:9002  t := mulmod(x, t, p) */\n      swap1\n      pop\n        /* \"CTHelpers.sol\":9041:9042  p */\n      dup3\n        /* \"CTHelpers.sol\":9038:9039  t */\n      dup2\n        /* \"CTHelpers.sol\":9035:9036  t */\n      dup3\n        /* \"CTHelpers.sol\":9028:9043  mulmod(t, t, p) */\n      mulmod\n        /* \"CTHelpers.sol\":9023:9043  t := mulmod(t, t, p) */\n      swap1\n      pop\n        /* \"CTHelpers.sol\":9082:9083  p */\n      dup3\n        /* \"CTHelpers.sol\":9079:9080  t */\n      dup2\n        /* \"CTHelpers.sol\":9076:9077  t */\n      dup3\n        /* \"CTHelpers.sol\":9069:9084  mulmod(t, t, p) */\n      mulmod\n        /* \"CTHelpers.sol\":9064:9084  t := mulmod(t, t, p) */\n      swap1\n      pop\n        /* \"CTHelpers.sol\":9123:9124  p */\n      dup3\n        /* \"CTHelpers.sol\":9120:9121  t */\n      dup2\n        /* \"CTHelpers.sol\":9117:9118  t */\n      dup3\n        /* \"CTHelpers.sol\":9110:9125  mulmod(t, t, p) */\n      mulmod\n        /* \"CTHelpers.sol\":9105:9125  t := mulmod(t, t, p) */\n      swap1\n      pop\n        /* \"CTHelpers.sol\":9164:9165  p */\n      dup3\n        /* \"CTHelpers.sol\":9161:9162  t */\n      dup2\n        /* \"CTHelpers.sol\":9158:9159  t */\n      dup3\n        /* \"CTHelpers.sol\":9151:9166  mulmod(t, t, p) */\n      mulmod\n        /* \"CTHelpers.sol\":9146:9166  t := mulmod(t, t, p) */\n      swap1\n      pop\n        /* \"CTHelpers.sol\":9205:9206  p */\n      dup3\n        /* \"CTHelpers.sol\":9202:9203  t */\n      dup2\n        /* \"CTHelpers.sol\":9199:9200  z */\n      dup4\n        /* \"CTHelpers.sol\":9192:9207  mulmod(z, t, p) */\n      mulmod\n        /* \"CTHelpers.sol\":9187:9207  z := mulmod(z, t, p) */\n      swap2\n      pop\n        /* \"CTHelpers.sol\":9246:9247  p */\n      dup3\n        /* \"CTHelpers.sol\":9243:9244  z */\n      dup3\n        /* \"CTHelpers.sol\":9240:9241  y */\n      dup6\n        /* \"CTHelpers.sol\":9233:9248  mulmod(y, z, p) */\n      mulmod\n        /* \"CTHelpers.sol\":9228:9248  y := mulmod(y, z, p) */\n      swap4\n      pop\n        /* \"CTHelpers.sol\":9287:9288  p */\n      dup3\n        /* \"CTHelpers.sol\":9284:9285  y */\n      dup5\n        /* \"CTHelpers.sol\":9281:9282  x */\n      dup7\n        /* \"CTHelpers.sol\":9274:9289  mulmod(x, y, p) */\n      mulmod\n        /* \"CTHelpers.sol\":9269:9289  x := mulmod(x, y, p) */\n      swap5\n      pop\n        /* \"CTHelpers.sol\":9328:9329  p */\n      dup3\n        /* \"CTHelpers.sol\":9325:9326  x */\n      dup6\n        /* \"CTHelpers.sol\":9322:9323  y */\n      dup6\n        /* \"CTHelpers.sol\":9315:9330  mulmod(y, x, p) */\n      mulmod\n        /* \"CTHelpers.sol\":9310:9330  y := mulmod(y, x, p) */\n      swap4\n      pop\n        /* \"CTHelpers.sol\":9369:9370  p */\n      dup3\n        /* \"CTHelpers.sol\":9366:9367  y */\n      dup5\n        /* \"CTHelpers.sol\":9363:9364  x */\n      dup7\n        /* \"CTHelpers.sol\":9356:9371  mulmod(x, y, p) */\n      mulmod\n        /* \"CTHelpers.sol\":9351:9371  x := mulmod(x, y, p) */\n      swap5\n      pop\n        /* \"CTHelpers.sol\":9410:9411  p */\n      dup3\n        /* \"CTHelpers.sol\":9407:9408  x */\n      dup6\n        /* \"CTHelpers.sol\":9404:9405  x */\n      dup7\n        /* \"CTHelpers.sol\":9397:9412  mulmod(x, x, p) */\n      mulmod\n        /* \"CTHelpers.sol\":9392:9412  z := mulmod(x, x, p) */\n      swap2\n      pop\n        /* \"CTHelpers.sol\":9451:9452  p */\n      dup3\n        /* \"CTHelpers.sol\":9448:9449  z */\n      dup3\n        /* \"CTHelpers.sol\":9445:9446  x */\n      dup7\n        /* \"CTHelpers.sol\":9438:9453  mulmod(x, z, p) */\n      mulmod\n        /* \"CTHelpers.sol\":9433:9453  z := mulmod(x, z, p) */\n      swap2\n      pop\n        /* \"CTHelpers.sol\":9492:9493  p */\n      dup3\n        /* \"CTHelpers.sol\":9489:9490  z */\n      dup3\n        /* \"CTHelpers.sol\":9486:9487  z */\n      dup4\n        /* \"CTHelpers.sol\":9479:9494  mulmod(z, z, p) */\n      mulmod\n        /* \"CTHelpers.sol\":9474:9494  z := mulmod(z, z, p) */\n      swap2\n      pop\n        /* \"CTHelpers.sol\":9533:9534  p */\n      dup3\n        /* \"CTHelpers.sol\":9530:9531  z */\n      dup3\n        /* \"CTHelpers.sol\":9527:9528  z */\n      dup4\n        /* \"CTHelpers.sol\":9520:9535  mulmod(z, z, p) */\n      mulmod\n        /* \"CTHelpers.sol\":9515:9535  z := mulmod(z, z, p) */\n      swap2\n      pop\n        /* \"CTHelpers.sol\":9574:9575  p */\n      dup3\n        /* \"CTHelpers.sol\":9571:9572  z */\n      dup3\n        /* \"CTHelpers.sol\":9568:9569  z */\n      dup4\n        /* \"CTHelpers.sol\":9561:9576  mulmod(z, z, p) */\n      mulmod\n        /* \"CTHelpers.sol\":9556:9576  z := mulmod(z, z, p) */\n      swap2\n      pop\n        /* \"CTHelpers.sol\":9615:9616  p */\n      dup3\n        /* \"CTHelpers.sol\":9612:9613  z */\n      dup3\n        /* \"CTHelpers.sol\":9609:9610  x */\n      dup7\n        /* \"CTHelpers.sol\":9602:9617  mulmod(x, z, p) */\n      mulmod\n        /* \"CTHelpers.sol\":9597:9617  z := mulmod(x, z, p) */\n      swap2\n      pop\n        /* \"CTHelpers.sol\":9656:9657  p */\n      dup3\n        /* \"CTHelpers.sol\":9653:9654  z */\n      dup3\n        /* \"CTHelpers.sol\":9650:9651  y */\n      dup6\n        /* \"CTHelpers.sol\":9643:9658  mulmod(y, z, p) */\n      mulmod\n        /* \"CTHelpers.sol\":9638:9658  y := mulmod(y, z, p) */\n      swap4\n      pop\n        /* \"CTHelpers.sol\":9697:9698  p */\n      dup3\n        /* \"CTHelpers.sol\":9694:9695  y */\n      dup5\n        /* \"CTHelpers.sol\":9691:9692  y */\n      dup6\n        /* \"CTHelpers.sol\":9684:9699  mulmod(y, y, p) */\n      mulmod\n        /* \"CTHelpers.sol\":9679:9699  z := mulmod(y, y, p) */\n      swap2\n      pop\n        /* \"CTHelpers.sol\":9738:9739  p */\n      dup3\n        /* \"CTHelpers.sol\":9735:9736  z */\n      dup3\n        /* \"CTHelpers.sol\":9732:9733  y */\n      dup6\n        /* \"CTHelpers.sol\":9725:9740  mulmod(y, z, p) */\n      mulmod\n        /* \"CTHelpers.sol\":9720:9740  z := mulmod(y, z, p) */\n      swap2\n      pop\n        /* \"CTHelpers.sol\":9779:9780  p */\n      dup3\n        /* \"CTHelpers.sol\":9776:9777  z */\n      dup3\n        /* \"CTHelpers.sol\":9773:9774  z */\n      dup4\n        /* \"CTHelpers.sol\":9766:9781  mulmod(z, z, p) */\n      mulmod\n        /* \"CTHelpers.sol\":9761:9781  z := mulmod(z, z, p) */\n      swap2\n      pop\n        /* \"CTHelpers.sol\":9820:9821  p */\n      dup3\n        /* \"CTHelpers.sol\":9817:9818  z */\n      dup3\n        /* \"CTHelpers.sol\":9814:9815  x */\n      dup7\n        /* \"CTHelpers.sol\":9807:9822  mulmod(x, z, p) */\n      mulmod\n        /* \"CTHelpers.sol\":9802:9822  x := mulmod(x, z, p) */\n      swap5\n      pop\n        /* \"CTHelpers.sol\":9861:9862  p */\n      dup3\n        /* \"CTHelpers.sol\":9858:9859  x */\n      dup6\n        /* \"CTHelpers.sol\":9855:9856  x */\n      dup7\n        /* \"CTHelpers.sol\":9848:9863  mulmod(x, x, p) */\n      mulmod\n        /* \"CTHelpers.sol\":9843:9863  z := mulmod(x, x, p) */\n      swap2\n      pop\n        /* \"CTHelpers.sol\":9902:9903  p */\n      dup3\n        /* \"CTHelpers.sol\":9899:9900  z */\n      dup3\n        /* \"CTHelpers.sol\":9896:9897  x */\n      dup7\n        /* \"CTHelpers.sol\":9889:9904  mulmod(x, z, p) */\n      mulmod\n        /* \"CTHelpers.sol\":9884:9904  z := mulmod(x, z, p) */\n      swap2\n      pop\n        /* \"CTHelpers.sol\":9943:9944  p */\n      dup3\n        /* \"CTHelpers.sol\":9940:9941  z */\n      dup3\n        /* \"CTHelpers.sol\":9937:9938  y */\n      dup6\n        /* \"CTHelpers.sol\":9930:9945  mulmod(y, z, p) */\n      mulmod\n        /* \"CTHelpers.sol\":9925:9945  y := mulmod(y, z, p) */\n      swap4\n      pop\n        /* \"CTHelpers.sol\":9984:9985  p */\n      dup3\n        /* \"CTHelpers.sol\":9981:9982  y */\n      dup5\n        /* \"CTHelpers.sol\":9978:9979  x */\n      dup7\n        /* \"CTHelpers.sol\":9971:9986  mulmod(x, y, p) */\n      mulmod\n        /* \"CTHelpers.sol\":9966:9986  x := mulmod(x, y, p) */\n      swap5\n      pop\n        /* \"CTHelpers.sol\":10025:10026  p */\n      dup3\n        /* \"CTHelpers.sol\":10022:10023  x */\n      dup6\n        /* \"CTHelpers.sol\":10019:10020  x */\n      dup7\n        /* \"CTHelpers.sol\":10012:10027  mulmod(x, x, p) */\n      mulmod\n        /* \"CTHelpers.sol\":10007:10027  z := mulmod(x, x, p) */\n      swap2\n      pop\n        /* \"CTHelpers.sol\":10066:10067  p */\n      dup3\n        /* \"CTHelpers.sol\":10063:10064  z */\n      dup3\n        /* \"CTHelpers.sol\":10060:10061  z */\n      dup4\n        /* \"CTHelpers.sol\":10053:10068  mulmod(z, z, p) */\n      mulmod\n        /* \"CTHelpers.sol\":10048:10068  z := mulmod(z, z, p) */\n      swap2\n      pop\n        /* \"CTHelpers.sol\":10107:10108  p */\n      dup3\n        /* \"CTHelpers.sol\":10104:10105  z */\n      dup3\n        /* \"CTHelpers.sol\":10101:10102  y */\n      dup6\n        /* \"CTHelpers.sol\":10094:10109  mulmod(y, z, p) */\n      mulmod\n        /* \"CTHelpers.sol\":10089:10109  y := mulmod(y, z, p) */\n      swap4\n      pop\n        /* \"CTHelpers.sol\":10148:10149  p */\n      dup3\n        /* \"CTHelpers.sol\":10145:10146  y */\n      dup5\n        /* \"CTHelpers.sol\":10142:10143  x */\n      dup7\n        /* \"CTHelpers.sol\":10135:10150  mulmod(x, y, p) */\n      mulmod\n        /* \"CTHelpers.sol\":10130:10150  x := mulmod(x, y, p) */\n      swap5\n      pop\n        /* \"CTHelpers.sol\":10189:10190  p */\n      dup3\n        /* \"CTHelpers.sol\":10186:10187  x */\n      dup6\n        /* \"CTHelpers.sol\":10183:10184  x */\n      dup7\n        /* \"CTHelpers.sol\":10176:10191  mulmod(x, x, p) */\n      mulmod\n        /* \"CTHelpers.sol\":10171:10191  z := mulmod(x, x, p) */\n      swap2\n      pop\n        /* \"CTHelpers.sol\":10230:10231  p */\n      dup3\n        /* \"CTHelpers.sol\":10227:10228  z */\n      dup3\n        /* \"CTHelpers.sol\":10224:10225  y */\n      dup6\n        /* \"CTHelpers.sol\":10217:10232  mulmod(y, z, p) */\n      mulmod\n        /* \"CTHelpers.sol\":10212:10232  y := mulmod(y, z, p) */\n      swap4\n      pop\n        /* \"CTHelpers.sol\":10271:10272  p */\n      dup3\n        /* \"CTHelpers.sol\":10268:10269  y */\n      dup5\n        /* \"CTHelpers.sol\":10265:10266  x */\n      dup7\n        /* \"CTHelpers.sol\":10258:10273  mulmod(x, y, p) */\n      mulmod\n        /* \"CTHelpers.sol\":10253:10273  x := mulmod(x, y, p) */\n      swap5\n      pop\n        /* \"CTHelpers.sol\":10312:10313  p */\n      dup3\n        /* \"CTHelpers.sol\":10309:10310  x */\n      dup6\n        /* \"CTHelpers.sol\":10306:10307  y */\n      dup6\n        /* \"CTHelpers.sol\":10299:10314  mulmod(y, x, p) */\n      mulmod\n        /* \"CTHelpers.sol\":10294:10314  y := mulmod(y, x, p) */\n      swap4\n      pop\n        /* \"CTHelpers.sol\":10353:10354  p */\n      dup3\n        /* \"CTHelpers.sol\":10350:10351  y */\n      dup5\n        /* \"CTHelpers.sol\":10347:10348  y */\n      dup6\n        /* \"CTHelpers.sol\":10340:10355  mulmod(y, y, p) */\n      mulmod\n        /* \"CTHelpers.sol\":10335:10355  z := mulmod(y, y, p) */\n      swap2\n      pop\n        /* \"CTHelpers.sol\":10394:10395  p */\n      dup3\n        /* \"CTHelpers.sol\":10391:10392  z */\n      dup3\n        /* \"CTHelpers.sol\":10388:10389  y */\n      dup6\n        /* \"CTHelpers.sol\":10381:10396  mulmod(y, z, p) */\n      mulmod\n        /* \"CTHelpers.sol\":10376:10396  z := mulmod(y, z, p) */\n      swap2\n      pop\n        /* \"CTHelpers.sol\":10435:10436  p */\n      dup3\n        /* \"CTHelpers.sol\":10432:10433  z */\n      dup3\n        /* \"CTHelpers.sol\":10429:10430  x */\n      dup7\n        /* \"CTHelpers.sol\":10422:10437  mulmod(x, z, p) */\n      mulmod\n        /* \"CTHelpers.sol\":10417:10437  x := mulmod(x, z, p) */\n      swap5\n      pop\n        /* \"CTHelpers.sol\":10476:10477  p */\n      dup3\n        /* \"CTHelpers.sol\":10473:10474  x */\n      dup6\n        /* \"CTHelpers.sol\":10470:10471  y */\n      dup6\n        /* \"CTHelpers.sol\":10463:10478  mulmod(y, x, p) */\n      mulmod\n        /* \"CTHelpers.sol\":10458:10478  y := mulmod(y, x, p) */\n      swap4\n      pop\n        /* \"CTHelpers.sol\":10517:10518  p */\n      dup3\n        /* \"CTHelpers.sol\":10514:10515  y */\n      dup5\n        /* \"CTHelpers.sol\":10511:10512  y */\n      dup6\n        /* \"CTHelpers.sol\":10504:10519  mulmod(y, y, p) */\n      mulmod\n        /* \"CTHelpers.sol\":10499:10519  z := mulmod(y, y, p) */\n      swap2\n      pop\n        /* \"CTHelpers.sol\":10558:10559  p */\n      dup3\n        /* \"CTHelpers.sol\":10555:10556  z */\n      dup3\n        /* \"CTHelpers.sol\":10552:10553  y */\n      dup6\n        /* \"CTHelpers.sol\":10545:10560  mulmod(y, z, p) */\n      mulmod\n        /* \"CTHelpers.sol\":10540:10560  z := mulmod(y, z, p) */\n      swap2\n      pop\n        /* \"CTHelpers.sol\":10599:10600  p */\n      dup3\n        /* \"CTHelpers.sol\":10596:10597  z */\n      dup3\n        /* \"CTHelpers.sol\":10593:10594  z */\n      dup4\n        /* \"CTHelpers.sol\":10586:10601  mulmod(z, z, p) */\n      mulmod\n        /* \"CTHelpers.sol\":10581:10601  z := mulmod(z, z, p) */\n      swap2\n      pop\n        /* \"CTHelpers.sol\":10640:10641  p */\n      dup3\n        /* \"CTHelpers.sol\":10637:10638  z */\n      dup3\n        /* \"CTHelpers.sol\":10634:10635  z */\n      dup4\n        /* \"CTHelpers.sol\":10627:10642  mulmod(z, z, p) */\n      mulmod\n        /* \"CTHelpers.sol\":10622:10642  z := mulmod(z, z, p) */\n      swap2\n      pop\n        /* \"CTHelpers.sol\":10681:10682  p */\n      dup3\n        /* \"CTHelpers.sol\":10678:10679  z */\n      dup3\n        /* \"CTHelpers.sol\":10675:10676  x */\n      dup7\n        /* \"CTHelpers.sol\":10668:10683  mulmod(x, z, p) */\n      mulmod\n        /* \"CTHelpers.sol\":10663:10683  x := mulmod(x, z, p) */\n      swap5\n      pop\n        /* \"CTHelpers.sol\":10722:10723  p */\n      dup3\n        /* \"CTHelpers.sol\":10719:10720  x */\n      dup6\n        /* \"CTHelpers.sol\":10716:10717  x */\n      dup7\n        /* \"CTHelpers.sol\":10709:10724  mulmod(x, x, p) */\n      mulmod\n        /* \"CTHelpers.sol\":10704:10724  z := mulmod(x, x, p) */\n      swap2\n      pop\n        /* \"CTHelpers.sol\":10763:10764  p */\n      dup3\n        /* \"CTHelpers.sol\":10760:10761  z */\n      dup3\n        /* \"CTHelpers.sol\":10757:10758  z */\n      dup4\n        /* \"CTHelpers.sol\":10750:10765  mulmod(z, z, p) */\n      mulmod\n        /* \"CTHelpers.sol\":10745:10765  z := mulmod(z, z, p) */\n      swap2\n      pop\n        /* \"CTHelpers.sol\":10804:10805  p */\n      dup3\n        /* \"CTHelpers.sol\":10801:10802  z */\n      dup3\n        /* \"CTHelpers.sol\":10798:10799  z */\n      dup4\n        /* \"CTHelpers.sol\":10791:10806  mulmod(z, z, p) */\n      mulmod\n        /* \"CTHelpers.sol\":10786:10806  z := mulmod(z, z, p) */\n      swap2\n      pop\n        /* \"CTHelpers.sol\":10845:10846  p */\n      dup3\n        /* \"CTHelpers.sol\":10842:10843  z */\n      dup3\n        /* \"CTHelpers.sol\":10839:10840  x */\n      dup7\n        /* \"CTHelpers.sol\":10832:10847  mulmod(x, z, p) */\n      mulmod\n        /* \"CTHelpers.sol\":10827:10847  z := mulmod(x, z, p) */\n      swap2\n      pop\n        /* \"CTHelpers.sol\":10886:10887  p */\n      dup3\n        /* \"CTHelpers.sol\":10883:10884  z */\n      dup3\n        /* \"CTHelpers.sol\":10880:10881  y */\n      dup6\n        /* \"CTHelpers.sol\":10873:10888  mulmod(y, z, p) */\n      mulmod\n        /* \"CTHelpers.sol\":10868:10888  y := mulmod(y, z, p) */\n      swap4\n      pop\n        /* \"CTHelpers.sol\":10927:10928  p */\n      dup3\n        /* \"CTHelpers.sol\":10924:10925  y */\n      dup5\n        /* \"CTHelpers.sol\":10921:10922  x */\n      dup7\n        /* \"CTHelpers.sol\":10914:10929  mulmod(x, y, p) */\n      mulmod\n        /* \"CTHelpers.sol\":10909:10929  x := mulmod(x, y, p) */\n      swap5\n      pop\n        /* \"CTHelpers.sol\":10968:10969  p */\n      dup3\n        /* \"CTHelpers.sol\":10965:10966  x */\n      dup6\n        /* \"CTHelpers.sol\":10962:10963  x */\n      dup7\n        /* \"CTHelpers.sol\":10955:10970  mulmod(x, x, p) */\n      mulmod\n        /* \"CTHelpers.sol\":10950:10970  z := mulmod(x, x, p) */\n      swap2\n      pop\n        /* \"CTHelpers.sol\":11009:11010  p */\n      dup3\n        /* \"CTHelpers.sol\":11006:11007  z */\n      dup3\n        /* \"CTHelpers.sol\":11003:11004  x */\n      dup7\n        /* \"CTHelpers.sol\":10996:11011  mulmod(x, z, p) */\n      mulmod\n        /* \"CTHelpers.sol\":10991:11011  t := mulmod(x, z, p) */\n      swap1\n      pop\n        /* \"CTHelpers.sol\":11050:11051  p */\n      dup3\n        /* \"CTHelpers.sol\":11047:11048  t */\n      dup2\n        /* \"CTHelpers.sol\":11044:11045  t */\n      dup3\n        /* \"CTHelpers.sol\":11037:11052  mulmod(t, t, p) */\n      mulmod\n        /* \"CTHelpers.sol\":11032:11052  t := mulmod(t, t, p) */\n      swap1\n      pop\n        /* \"CTHelpers.sol\":11091:11092  p */\n      dup3\n        /* \"CTHelpers.sol\":11088:11089  t */\n      dup2\n        /* \"CTHelpers.sol\":11085:11086  t */\n      dup3\n        /* \"CTHelpers.sol\":11078:11093  mulmod(t, t, p) */\n      mulmod\n        /* \"CTHelpers.sol\":11073:11093  t := mulmod(t, t, p) */\n      swap1\n      pop\n        /* \"CTHelpers.sol\":11132:11133  p */\n      dup3\n        /* \"CTHelpers.sol\":11129:11130  t */\n      dup2\n        /* \"CTHelpers.sol\":11126:11127  z */\n      dup4\n        /* \"CTHelpers.sol\":11119:11134  mulmod(z, t, p) */\n      mulmod\n        /* \"CTHelpers.sol\":11114:11134  z := mulmod(z, t, p) */\n      swap2\n      pop\n        /* \"CTHelpers.sol\":11173:11174  p */\n      dup3\n        /* \"CTHelpers.sol\":11170:11171  z */\n      dup3\n        /* \"CTHelpers.sol\":11167:11168  y */\n      dup6\n        /* \"CTHelpers.sol\":11160:11175  mulmod(y, z, p) */\n      mulmod\n        /* \"CTHelpers.sol\":11155:11175  y := mulmod(y, z, p) */\n      swap4\n      pop\n        /* \"CTHelpers.sol\":11214:11215  p */\n      dup3\n        /* \"CTHelpers.sol\":11211:11212  y */\n      dup5\n        /* \"CTHelpers.sol\":11208:11209  y */\n      dup6\n        /* \"CTHelpers.sol\":11201:11216  mulmod(y, y, p) */\n      mulmod\n        /* \"CTHelpers.sol\":11196:11216  z := mulmod(y, y, p) */\n      swap2\n      pop\n        /* \"CTHelpers.sol\":11255:11256  p */\n      dup3\n        /* \"CTHelpers.sol\":11252:11253  z */\n      dup3\n        /* \"CTHelpers.sol\":11249:11250  x */\n      dup7\n        /* \"CTHelpers.sol\":11242:11257  mulmod(x, z, p) */\n      mulmod\n        /* \"CTHelpers.sol\":11237:11257  x := mulmod(x, z, p) */\n      swap5\n      pop\n        /* \"CTHelpers.sol\":11296:11297  p */\n      dup3\n        /* \"CTHelpers.sol\":11293:11294  x */\n      dup6\n        /* \"CTHelpers.sol\":11290:11291  y */\n      dup6\n        /* \"CTHelpers.sol\":11283:11298  mulmod(y, x, p) */\n      mulmod\n        /* \"CTHelpers.sol\":11278:11298  y := mulmod(y, x, p) */\n      swap4\n      pop\n        /* \"CTHelpers.sol\":11337:11338  p */\n      dup3\n        /* \"CTHelpers.sol\":11334:11335  y */\n      dup5\n        /* \"CTHelpers.sol\":11331:11332  x */\n      dup7\n        /* \"CTHelpers.sol\":11324:11339  mulmod(x, y, p) */\n      mulmod\n        /* \"CTHelpers.sol\":11319:11339  x := mulmod(x, y, p) */\n      swap5\n      pop\n        /* \"CTHelpers.sol\":11378:11379  p */\n      dup3\n        /* \"CTHelpers.sol\":11375:11376  x */\n      dup6\n        /* \"CTHelpers.sol\":11372:11373  y */\n      dup6\n        /* \"CTHelpers.sol\":11365:11380  mulmod(y, x, p) */\n      mulmod\n        /* \"CTHelpers.sol\":11360:11380  y := mulmod(y, x, p) */\n      swap4\n      pop\n        /* \"CTHelpers.sol\":11419:11420  p */\n      dup3\n        /* \"CTHelpers.sol\":11416:11417  y */\n      dup5\n        /* \"CTHelpers.sol\":11413:11414  x */\n      dup7\n        /* \"CTHelpers.sol\":11406:11421  mulmod(x, y, p) */\n      mulmod\n        /* \"CTHelpers.sol\":11401:11421  x := mulmod(x, y, p) */\n      swap5\n      pop\n        /* \"CTHelpers.sol\":11460:11461  p */\n      dup3\n        /* \"CTHelpers.sol\":11457:11458  x */\n      dup6\n        /* \"CTHelpers.sol\":11454:11455  y */\n      dup6\n        /* \"CTHelpers.sol\":11447:11462  mulmod(y, x, p) */\n      mulmod\n        /* \"CTHelpers.sol\":11442:11462  y := mulmod(y, x, p) */\n      swap4\n      pop\n        /* \"CTHelpers.sol\":11501:11502  p */\n      dup3\n        /* \"CTHelpers.sol\":11498:11499  y */\n      dup5\n        /* \"CTHelpers.sol\":11495:11496  y */\n      dup6\n        /* \"CTHelpers.sol\":11488:11503  mulmod(y, y, p) */\n      mulmod\n        /* \"CTHelpers.sol\":11483:11503  z := mulmod(y, y, p) */\n      swap2\n      pop\n        /* \"CTHelpers.sol\":11542:11543  p */\n      dup3\n        /* \"CTHelpers.sol\":11539:11540  z */\n      dup3\n        /* \"CTHelpers.sol\":11536:11537  y */\n      dup6\n        /* \"CTHelpers.sol\":11529:11544  mulmod(y, z, p) */\n      mulmod\n        /* \"CTHelpers.sol\":11524:11544  t := mulmod(y, z, p) */\n      swap1\n      pop\n        /* \"CTHelpers.sol\":11583:11584  p */\n      dup3\n        /* \"CTHelpers.sol\":11580:11581  t */\n      dup2\n        /* \"CTHelpers.sol\":11577:11578  y */\n      dup6\n        /* \"CTHelpers.sol\":11570:11585  mulmod(y, t, p) */\n      mulmod\n        /* \"CTHelpers.sol\":11565:11585  z := mulmod(y, t, p) */\n      swap2\n      pop\n        /* \"CTHelpers.sol\":11624:11625  p */\n      dup3\n        /* \"CTHelpers.sol\":11621:11622  z */\n      dup3\n        /* \"CTHelpers.sol\":11618:11619  z */\n      dup4\n        /* \"CTHelpers.sol\":11611:11626  mulmod(z, z, p) */\n      mulmod\n        /* \"CTHelpers.sol\":11606:11626  z := mulmod(z, z, p) */\n      swap2\n      pop\n        /* \"CTHelpers.sol\":11665:11666  p */\n      dup3\n        /* \"CTHelpers.sol\":11662:11663  z */\n      dup3\n        /* \"CTHelpers.sol\":11659:11660  z */\n      dup4\n        /* \"CTHelpers.sol\":11652:11667  mulmod(z, z, p) */\n      mulmod\n        /* \"CTHelpers.sol\":11647:11667  z := mulmod(z, z, p) */\n      swap2\n      pop\n        /* \"CTHelpers.sol\":11706:11707  p */\n      dup3\n        /* \"CTHelpers.sol\":11703:11704  z */\n      dup3\n        /* \"CTHelpers.sol\":11700:11701  t */\n      dup3\n        /* \"CTHelpers.sol\":11693:11708  mulmod(t, z, p) */\n      mulmod\n        /* \"CTHelpers.sol\":11688:11708  z := mulmod(t, z, p) */\n      swap2\n      pop\n      pop\n        /* \"CTHelpers.sol\":11761:11762  p */\n      dup2\n        /* \"CTHelpers.sol\":11758:11759  z */\n      dup2\n        /* \"CTHelpers.sol\":11755:11756  x */\n      dup6\n        /* \"CTHelpers.sol\":11748:11763  mulmod(x, z, p) */\n      mulmod\n        /* \"CTHelpers.sol\":11743:11763  x := mulmod(x, z, p) */\n      swap4\n      pop\n        /* \"CTHelpers.sol\":11798:11799  p */\n      dup2\n        /* \"CTHelpers.sol\":11795:11796  x */\n      dup5\n        /* \"CTHelpers.sol\":11792:11793  y */\n      dup5\n        /* \"CTHelpers.sol\":11785:11800  mulmod(y, x, p) */\n      mulmod\n        /* \"CTHelpers.sol\":11780:11800  y := mulmod(y, x, p) */\n      swap3\n      pop\n        /* \"CTHelpers.sol\":11835:11836  p */\n      dup2\n        /* \"CTHelpers.sol\":11832:11833  y */\n      dup4\n        /* \"CTHelpers.sol\":11829:11830  x */\n      dup6\n        /* \"CTHelpers.sol\":11822:11837  mulmod(x, y, p) */\n      mulmod\n        /* \"CTHelpers.sol\":11817:11837  x := mulmod(x, y, p) */\n      swap4\n      pop\n        /* \"CTHelpers.sol\":11872:11873  p */\n      dup2\n        /* \"CTHelpers.sol\":11869:11870  x */\n      dup5\n        /* \"CTHelpers.sol\":11866:11867  y */\n      dup5\n        /* \"CTHelpers.sol\":11859:11874  mulmod(y, x, p) */\n      mulmod\n        /* \"CTHelpers.sol\":11854:11874  y := mulmod(y, x, p) */\n      swap3\n      pop\n        /* \"CTHelpers.sol\":11909:11910  p */\n      dup2\n        /* \"CTHelpers.sol\":11906:11907  y */\n      dup4\n        /* \"CTHelpers.sol\":11903:11904  x */\n      dup6\n        /* \"CTHelpers.sol\":11896:11911  mulmod(x, y, p) */\n      mulmod\n        /* \"CTHelpers.sol\":11891:11911  x := mulmod(x, y, p) */\n      swap4\n      pop\n        /* \"CTHelpers.sol\":11946:11947  p */\n      dup2\n        /* \"CTHelpers.sol\":11943:11944  x */\n      dup5\n        /* \"CTHelpers.sol\":11940:11941  x */\n      dup6\n        /* \"CTHelpers.sol\":11933:11948  mulmod(x, x, p) */\n      mulmod\n        /* \"CTHelpers.sol\":11928:11948  z := mulmod(x, x, p) */\n      swap1\n      pop\n        /* \"CTHelpers.sol\":11983:11984  p */\n      dup2\n        /* \"CTHelpers.sol\":11980:11981  z */\n      dup2\n        /* \"CTHelpers.sol\":11977:11978  x */\n      dup6\n        /* \"CTHelpers.sol\":11970:11985  mulmod(x, z, p) */\n      mulmod\n        /* \"CTHelpers.sol\":11965:11985  z := mulmod(x, z, p) */\n      swap1\n      pop\n        /* \"CTHelpers.sol\":12020:12021  p */\n      dup2\n        /* \"CTHelpers.sol\":12017:12018  z */\n      dup2\n        /* \"CTHelpers.sol\":12014:12015  y */\n      dup5\n        /* \"CTHelpers.sol\":12007:12022  mulmod(y, z, p) */\n      mulmod\n        /* \"CTHelpers.sol\":12002:12022  y := mulmod(y, z, p) */\n      swap3\n      pop\n      pop\n        /* \"CTHelpers.sol\":12067:12068  p */\n      dup1\n        /* \"CTHelpers.sol\":12064:12065  y */\n      dup3\n        /* \"CTHelpers.sol\":12061:12062  x */\n      dup5\n        /* \"CTHelpers.sol\":12054:12069  mulmod(x, y, p) */\n      mulmod\n        /* \"CTHelpers.sol\":12049:12069  x := mulmod(x, y, p) */\n      swap3\n      pop\n        /* \"CTHelpers.sol\":12100:12101  p */\n      dup1\n        /* \"CTHelpers.sol\":12097:12098  x */\n      dup4\n        /* \"CTHelpers.sol\":12094:12095  x */\n      dup5\n        /* \"CTHelpers.sol\":12087:12102  mulmod(x, x, p) */\n      mulmod\n        /* \"CTHelpers.sol\":12082:12102  x := mulmod(x, x, p) */\n      swap3\n      pop\n        /* \"CTHelpers.sol\":12133:12134  p */\n      dup1\n        /* \"CTHelpers.sol\":12130:12131  x */\n      dup4\n        /* \"CTHelpers.sol\":12127:12128  x */\n      dup5\n        /* \"CTHelpers.sol\":12120:12135  mulmod(x, x, p) */\n      mulmod\n        /* \"CTHelpers.sol\":12115:12135  x := mulmod(x, x, p) */\n      swap3\n      pop\n        /* \"CTHelpers.sol\":12166:12167  p */\n      dup1\n        /* \"CTHelpers.sol\":12163:12164  x */\n      dup4\n        /* \"CTHelpers.sol\":12160:12161  x */\n      dup5\n        /* \"CTHelpers.sol\":12153:12168  mulmod(x, x, p) */\n      mulmod\n        /* \"CTHelpers.sol\":12148:12168  x := mulmod(x, x, p) */\n      swap3\n      pop\n        /* \"CTHelpers.sol\":12199:12200  p */\n      dup1\n        /* \"CTHelpers.sol\":12196:12197  x */\n      dup4\n        /* \"CTHelpers.sol\":12193:12194  x */\n      dup5\n        /* \"CTHelpers.sol\":12186:12201  mulmod(x, x, p) */\n      mulmod\n        /* \"CTHelpers.sol\":12181:12201  x := mulmod(x, x, p) */\n      swap3\n      pop\n        /* \"CTHelpers.sol\":12232:12233  p */\n      dup1\n        /* \"CTHelpers.sol\":12229:12230  x */\n      dup4\n        /* \"CTHelpers.sol\":12226:12227  x */\n      dup5\n        /* \"CTHelpers.sol\":12219:12234  mulmod(x, x, p) */\n      mulmod\n        /* \"CTHelpers.sol\":12214:12234  x := mulmod(x, x, p) */\n      swap3\n      pop\n        /* \"CTHelpers.sol\":12265:12266  p */\n      dup1\n        /* \"CTHelpers.sol\":12262:12263  x */\n      dup4\n        /* \"CTHelpers.sol\":12259:12260  x */\n      dup5\n        /* \"CTHelpers.sol\":12252:12267  mulmod(x, x, p) */\n      mulmod\n        /* \"CTHelpers.sol\":12247:12267  x := mulmod(x, x, p) */\n      swap3\n      pop\n        /* \"CTHelpers.sol\":12298:12299  p */\n      dup1\n        /* \"CTHelpers.sol\":12295:12296  x */\n      dup4\n        /* \"CTHelpers.sol\":12292:12293  x */\n      dup5\n        /* \"CTHelpers.sol\":12285:12300  mulmod(x, x, p) */\n      mulmod\n        /* \"CTHelpers.sol\":12280:12300  x := mulmod(x, x, p) */\n      swap3\n      pop\n        /* \"CTHelpers.sol\":12331:12332  p */\n      dup1\n        /* \"CTHelpers.sol\":12328:12329  x */\n      dup4\n        /* \"CTHelpers.sol\":12325:12326  x */\n      dup5\n        /* \"CTHelpers.sol\":12318:12333  mulmod(x, x, p) */\n      mulmod\n        /* \"CTHelpers.sol\":12313:12333  x := mulmod(x, x, p) */\n      swap3\n      pop\n        /* \"CTHelpers.sol\":12364:12365  p */\n      dup1\n        /* \"CTHelpers.sol\":12361:12362  x */\n      dup4\n        /* \"CTHelpers.sol\":12358:12359  x */\n      dup5\n        /* \"CTHelpers.sol\":12351:12366  mulmod(x, x, p) */\n      mulmod\n        /* \"CTHelpers.sol\":12346:12366  x := mulmod(x, x, p) */\n      swap3\n      pop\n        /* \"CTHelpers.sol\":12397:12398  p */\n      dup1\n        /* \"CTHelpers.sol\":12394:12395  x */\n      dup4\n        /* \"CTHelpers.sol\":12391:12392  x */\n      dup5\n        /* \"CTHelpers.sol\":12384:12399  mulmod(x, x, p) */\n      mulmod\n        /* \"CTHelpers.sol\":12379:12399  x := mulmod(x, x, p) */\n      swap3\n      pop\n        /* \"CTHelpers.sol\":12430:12431  p */\n      dup1\n        /* \"CTHelpers.sol\":12427:12428  x */\n      dup4\n        /* \"CTHelpers.sol\":12424:12425  x */\n      dup5\n        /* \"CTHelpers.sol\":12417:12432  mulmod(x, x, p) */\n      mulmod\n        /* \"CTHelpers.sol\":12412:12432  x := mulmod(x, x, p) */\n      swap3\n      pop\n        /* \"CTHelpers.sol\":12463:12464  p */\n      dup1\n        /* \"CTHelpers.sol\":12460:12461  x */\n      dup4\n        /* \"CTHelpers.sol\":12457:12458  x */\n      dup5\n        /* \"CTHelpers.sol\":12450:12465  mulmod(x, x, p) */\n      mulmod\n        /* \"CTHelpers.sol\":12445:12465  x := mulmod(x, x, p) */\n      swap3\n      pop\n        /* \"CTHelpers.sol\":12496:12497  p */\n      dup1\n        /* \"CTHelpers.sol\":12493:12494  x */\n      dup4\n        /* \"CTHelpers.sol\":12490:12491  x */\n      dup5\n        /* \"CTHelpers.sol\":12483:12498  mulmod(x, x, p) */\n      mulmod\n        /* \"CTHelpers.sol\":12478:12498  x := mulmod(x, x, p) */\n      swap3\n      pop\n        /* \"CTHelpers.sol\":12529:12530  p */\n      dup1\n        /* \"CTHelpers.sol\":12526:12527  x */\n      dup4\n        /* \"CTHelpers.sol\":12523:12524  x */\n      dup5\n        /* \"CTHelpers.sol\":12516:12531  mulmod(x, x, p) */\n      mulmod\n        /* \"CTHelpers.sol\":12511:12531  x := mulmod(x, x, p) */\n      swap3\n      pop\n        /* \"CTHelpers.sol\":12562:12563  p */\n      dup1\n        /* \"CTHelpers.sol\":12559:12560  x */\n      dup4\n        /* \"CTHelpers.sol\":12556:12557  x */\n      dup5\n        /* \"CTHelpers.sol\":12549:12564  mulmod(x, x, p) */\n      mulmod\n        /* \"CTHelpers.sol\":12544:12564  x := mulmod(x, x, p) */\n      swap3\n      pop\n        /* \"CTHelpers.sol\":12595:12596  p */\n      dup1\n        /* \"CTHelpers.sol\":12592:12593  x */\n      dup4\n        /* \"CTHelpers.sol\":12589:12590  x */\n      dup5\n        /* \"CTHelpers.sol\":12582:12597  mulmod(x, x, p) */\n      mulmod\n        /* \"CTHelpers.sol\":12577:12597  x := mulmod(x, x, p) */\n      swap3\n      pop\n        /* \"CTHelpers.sol\":12628:12629  p */\n      dup1\n        /* \"CTHelpers.sol\":12625:12626  x */\n      dup4\n        /* \"CTHelpers.sol\":12622:12623  x */\n      dup5\n        /* \"CTHelpers.sol\":12615:12630  mulmod(x, x, p) */\n      mulmod\n        /* \"CTHelpers.sol\":12610:12630  x := mulmod(x, x, p) */\n      swap3\n      pop\n        /* \"CTHelpers.sol\":12661:12662  p */\n      dup1\n        /* \"CTHelpers.sol\":12658:12659  x */\n      dup4\n        /* \"CTHelpers.sol\":12655:12656  x */\n      dup5\n        /* \"CTHelpers.sol\":12648:12663  mulmod(x, x, p) */\n      mulmod\n        /* \"CTHelpers.sol\":12643:12663  x := mulmod(x, x, p) */\n      swap3\n      pop\n        /* \"CTHelpers.sol\":12694:12695  p */\n      dup1\n        /* \"CTHelpers.sol\":12691:12692  x */\n      dup4\n        /* \"CTHelpers.sol\":12688:12689  x */\n      dup5\n        /* \"CTHelpers.sol\":12681:12696  mulmod(x, x, p) */\n      mulmod\n        /* \"CTHelpers.sol\":12676:12696  x := mulmod(x, x, p) */\n      swap3\n      pop\n        /* \"CTHelpers.sol\":12727:12728  p */\n      dup1\n        /* \"CTHelpers.sol\":12724:12725  x */\n      dup4\n        /* \"CTHelpers.sol\":12721:12722  x */\n      dup5\n        /* \"CTHelpers.sol\":12714:12729  mulmod(x, x, p) */\n      mulmod\n        /* \"CTHelpers.sol\":12709:12729  x := mulmod(x, x, p) */\n      swap3\n      pop\n        /* \"CTHelpers.sol\":12760:12761  p */\n      dup1\n        /* \"CTHelpers.sol\":12757:12758  x */\n      dup4\n        /* \"CTHelpers.sol\":12754:12755  x */\n      dup5\n        /* \"CTHelpers.sol\":12747:12762  mulmod(x, x, p) */\n      mulmod\n        /* \"CTHelpers.sol\":12742:12762  x := mulmod(x, x, p) */\n      swap3\n      pop\n        /* \"CTHelpers.sol\":12793:12794  p */\n      dup1\n        /* \"CTHelpers.sol\":12790:12791  x */\n      dup4\n        /* \"CTHelpers.sol\":12787:12788  x */\n      dup5\n        /* \"CTHelpers.sol\":12780:12795  mulmod(x, x, p) */\n      mulmod\n        /* \"CTHelpers.sol\":12775:12795  x := mulmod(x, x, p) */\n      swap3\n      pop\n        /* \"CTHelpers.sol\":12826:12827  p */\n      dup1\n        /* \"CTHelpers.sol\":12823:12824  x */\n      dup4\n        /* \"CTHelpers.sol\":12820:12821  x */\n      dup5\n        /* \"CTHelpers.sol\":12813:12828  mulmod(x, x, p) */\n      mulmod\n        /* \"CTHelpers.sol\":12808:12828  x := mulmod(x, x, p) */\n      swap3\n      pop\n        /* \"CTHelpers.sol\":12859:12860  p */\n      dup1\n        /* \"CTHelpers.sol\":12856:12857  x */\n      dup4\n        /* \"CTHelpers.sol\":12853:12854  x */\n      dup5\n        /* \"CTHelpers.sol\":12846:12861  mulmod(x, x, p) */\n      mulmod\n        /* \"CTHelpers.sol\":12841:12861  x := mulmod(x, x, p) */\n      swap3\n      pop\n        /* \"CTHelpers.sol\":12892:12893  p */\n      dup1\n        /* \"CTHelpers.sol\":12889:12890  x */\n      dup4\n        /* \"CTHelpers.sol\":12886:12887  x */\n      dup5\n        /* \"CTHelpers.sol\":12879:12894  mulmod(x, x, p) */\n      mulmod\n        /* \"CTHelpers.sol\":12874:12894  x := mulmod(x, x, p) */\n      swap3\n      pop\n        /* \"CTHelpers.sol\":12925:12926  p */\n      dup1\n        /* \"CTHelpers.sol\":12922:12923  x */\n      dup4\n        /* \"CTHelpers.sol\":12919:12920  x */\n      dup5\n        /* \"CTHelpers.sol\":12912:12927  mulmod(x, x, p) */\n      mulmod\n        /* \"CTHelpers.sol\":12907:12927  x := mulmod(x, x, p) */\n      swap3\n      pop\n        /* \"CTHelpers.sol\":12958:12959  p */\n      dup1\n        /* \"CTHelpers.sol\":12955:12956  x */\n      dup4\n        /* \"CTHelpers.sol\":12952:12953  x */\n      dup5\n        /* \"CTHelpers.sol\":12945:12960  mulmod(x, x, p) */\n      mulmod\n        /* \"CTHelpers.sol\":12940:12960  x := mulmod(x, x, p) */\n      swap3\n      pop\n        /* \"CTHelpers.sol\":12991:12992  p */\n      dup1\n        /* \"CTHelpers.sol\":12988:12989  x */\n      dup4\n        /* \"CTHelpers.sol\":12985:12986  x */\n      dup5\n        /* \"CTHelpers.sol\":12978:12993  mulmod(x, x, p) */\n      mulmod\n        /* \"CTHelpers.sol\":12973:12993  x := mulmod(x, x, p) */\n      swap3\n      pop\n        /* \"CTHelpers.sol\":13024:13025  p */\n      dup1\n        /* \"CTHelpers.sol\":13021:13022  x */\n      dup4\n        /* \"CTHelpers.sol\":13018:13019  x */\n      dup5\n        /* \"CTHelpers.sol\":13011:13026  mulmod(x, x, p) */\n      mulmod\n        /* \"CTHelpers.sol\":13006:13026  x := mulmod(x, x, p) */\n      swap3\n      pop\n        /* \"CTHelpers.sol\":13057:13058  p */\n      dup1\n        /* \"CTHelpers.sol\":13054:13055  x */\n      dup4\n        /* \"CTHelpers.sol\":13051:13052  x */\n      dup5\n        /* \"CTHelpers.sol\":13044:13059  mulmod(x, x, p) */\n      mulmod\n        /* \"CTHelpers.sol\":13039:13059  x := mulmod(x, x, p) */\n      swap3\n      pop\n        /* \"CTHelpers.sol\":13090:13091  p */\n      dup1\n        /* \"CTHelpers.sol\":13087:13088  x */\n      dup4\n        /* \"CTHelpers.sol\":13084:13085  x */\n      dup5\n        /* \"CTHelpers.sol\":13077:13092  mulmod(x, x, p) */\n      mulmod\n        /* \"CTHelpers.sol\":13072:13092  x := mulmod(x, x, p) */\n      swap3\n      pop\n        /* \"CTHelpers.sol\":13123:13124  p */\n      dup1\n        /* \"CTHelpers.sol\":13120:13121  x */\n      dup4\n        /* \"CTHelpers.sol\":13117:13118  x */\n      dup5\n        /* \"CTHelpers.sol\":13110:13125  mulmod(x, x, p) */\n      mulmod\n        /* \"CTHelpers.sol\":13105:13125  x := mulmod(x, x, p) */\n      swap3\n      pop\n        /* \"CTHelpers.sol\":13156:13157  p */\n      dup1\n        /* \"CTHelpers.sol\":13153:13154  x */\n      dup4\n        /* \"CTHelpers.sol\":13150:13151  x */\n      dup5\n        /* \"CTHelpers.sol\":13143:13158  mulmod(x, x, p) */\n      mulmod\n        /* \"CTHelpers.sol\":13138:13158  x := mulmod(x, x, p) */\n      swap3\n      pop\n        /* \"CTHelpers.sol\":13189:13190  p */\n      dup1\n        /* \"CTHelpers.sol\":13186:13187  x */\n      dup4\n        /* \"CTHelpers.sol\":13183:13184  x */\n      dup5\n        /* \"CTHelpers.sol\":13176:13191  mulmod(x, x, p) */\n      mulmod\n        /* \"CTHelpers.sol\":13171:13191  x := mulmod(x, x, p) */\n      swap3\n      pop\n        /* \"CTHelpers.sol\":13222:13223  p */\n      dup1\n        /* \"CTHelpers.sol\":13219:13220  x */\n      dup4\n        /* \"CTHelpers.sol\":13216:13217  x */\n      dup5\n        /* \"CTHelpers.sol\":13209:13224  mulmod(x, x, p) */\n      mulmod\n        /* \"CTHelpers.sol\":13204:13224  x := mulmod(x, x, p) */\n      swap3\n      pop\n        /* \"CTHelpers.sol\":13255:13256  p */\n      dup1\n        /* \"CTHelpers.sol\":13252:13253  x */\n      dup4\n        /* \"CTHelpers.sol\":13249:13250  x */\n      dup5\n        /* \"CTHelpers.sol\":13242:13257  mulmod(x, x, p) */\n      mulmod\n        /* \"CTHelpers.sol\":13237:13257  x := mulmod(x, x, p) */\n      swap3\n      pop\n        /* \"CTHelpers.sol\":13288:13289  p */\n      dup1\n        /* \"CTHelpers.sol\":13285:13286  x */\n      dup4\n        /* \"CTHelpers.sol\":13282:13283  x */\n      dup5\n        /* \"CTHelpers.sol\":13275:13290  mulmod(x, x, p) */\n      mulmod\n        /* \"CTHelpers.sol\":13270:13290  x := mulmod(x, x, p) */\n      swap3\n      pop\n        /* \"CTHelpers.sol\":13321:13322  p */\n      dup1\n        /* \"CTHelpers.sol\":13318:13319  x */\n      dup4\n        /* \"CTHelpers.sol\":13315:13316  x */\n      dup5\n        /* \"CTHelpers.sol\":13308:13323  mulmod(x, x, p) */\n      mulmod\n        /* \"CTHelpers.sol\":13303:13323  x := mulmod(x, x, p) */\n      swap3\n      pop\n        /* \"CTHelpers.sol\":13354:13355  p */\n      dup1\n        /* \"CTHelpers.sol\":13351:13352  x */\n      dup4\n        /* \"CTHelpers.sol\":13348:13349  x */\n      dup5\n        /* \"CTHelpers.sol\":13341:13356  mulmod(x, x, p) */\n      mulmod\n        /* \"CTHelpers.sol\":13336:13356  x := mulmod(x, x, p) */\n      swap3\n      pop\n        /* \"CTHelpers.sol\":13387:13388  p */\n      dup1\n        /* \"CTHelpers.sol\":13384:13385  x */\n      dup4\n        /* \"CTHelpers.sol\":13381:13382  x */\n      dup5\n        /* \"CTHelpers.sol\":13374:13389  mulmod(x, x, p) */\n      mulmod\n        /* \"CTHelpers.sol\":13369:13389  x := mulmod(x, x, p) */\n      swap3\n      pop\n        /* \"CTHelpers.sol\":13420:13421  p */\n      dup1\n        /* \"CTHelpers.sol\":13417:13418  x */\n      dup4\n        /* \"CTHelpers.sol\":13414:13415  x */\n      dup5\n        /* \"CTHelpers.sol\":13407:13422  mulmod(x, x, p) */\n      mulmod\n        /* \"CTHelpers.sol\":13402:13422  x := mulmod(x, x, p) */\n      swap3\n      pop\n        /* \"CTHelpers.sol\":13453:13454  p */\n      dup1\n        /* \"CTHelpers.sol\":13450:13451  x */\n      dup4\n        /* \"CTHelpers.sol\":13447:13448  x */\n      dup5\n        /* \"CTHelpers.sol\":13440:13455  mulmod(x, x, p) */\n      mulmod\n        /* \"CTHelpers.sol\":13435:13455  x := mulmod(x, x, p) */\n      swap3\n      pop\n        /* \"CTHelpers.sol\":13486:13487  p */\n      dup1\n        /* \"CTHelpers.sol\":13483:13484  x */\n      dup4\n        /* \"CTHelpers.sol\":13480:13481  x */\n      dup5\n        /* \"CTHelpers.sol\":13473:13488  mulmod(x, x, p) */\n      mulmod\n        /* \"CTHelpers.sol\":13468:13488  x := mulmod(x, x, p) */\n      swap3\n      pop\n        /* \"CTHelpers.sol\":13519:13520  p */\n      dup1\n        /* \"CTHelpers.sol\":13516:13517  x */\n      dup4\n        /* \"CTHelpers.sol\":13513:13514  x */\n      dup5\n        /* \"CTHelpers.sol\":13506:13521  mulmod(x, x, p) */\n      mulmod\n        /* \"CTHelpers.sol\":13501:13521  x := mulmod(x, x, p) */\n      swap3\n      pop\n        /* \"CTHelpers.sol\":13552:13553  p */\n      dup1\n        /* \"CTHelpers.sol\":13549:13550  x */\n      dup4\n        /* \"CTHelpers.sol\":13546:13547  x */\n      dup5\n        /* \"CTHelpers.sol\":13539:13554  mulmod(x, x, p) */\n      mulmod\n        /* \"CTHelpers.sol\":13534:13554  x := mulmod(x, x, p) */\n      swap3\n      pop\n        /* \"CTHelpers.sol\":13585:13586  p */\n      dup1\n        /* \"CTHelpers.sol\":13582:13583  x */\n      dup4\n        /* \"CTHelpers.sol\":13579:13580  x */\n      dup5\n        /* \"CTHelpers.sol\":13572:13587  mulmod(x, x, p) */\n      mulmod\n        /* \"CTHelpers.sol\":13567:13587  x := mulmod(x, x, p) */\n      swap3\n      pop\n        /* \"CTHelpers.sol\":13618:13619  p */\n      dup1\n        /* \"CTHelpers.sol\":13615:13616  x */\n      dup4\n        /* \"CTHelpers.sol\":13612:13613  x */\n      dup5\n        /* \"CTHelpers.sol\":13605:13620  mulmod(x, x, p) */\n      mulmod\n        /* \"CTHelpers.sol\":13600:13620  x := mulmod(x, x, p) */\n      swap3\n      pop\n        /* \"CTHelpers.sol\":13651:13652  p */\n      dup1\n        /* \"CTHelpers.sol\":13648:13649  x */\n      dup4\n        /* \"CTHelpers.sol\":13645:13646  x */\n      dup5\n        /* \"CTHelpers.sol\":13638:13653  mulmod(x, x, p) */\n      mulmod\n        /* \"CTHelpers.sol\":13633:13653  x := mulmod(x, x, p) */\n      swap3\n      pop\n        /* \"CTHelpers.sol\":13684:13685  p */\n      dup1\n        /* \"CTHelpers.sol\":13681:13682  x */\n      dup4\n        /* \"CTHelpers.sol\":13678:13679  x */\n      dup5\n        /* \"CTHelpers.sol\":13671:13686  mulmod(x, x, p) */\n      mulmod\n        /* \"CTHelpers.sol\":13666:13686  x := mulmod(x, x, p) */\n      swap3\n      pop\n        /* \"CTHelpers.sol\":13717:13718  p */\n      dup1\n        /* \"CTHelpers.sol\":13714:13715  x */\n      dup4\n        /* \"CTHelpers.sol\":13711:13712  x */\n      dup5\n        /* \"CTHelpers.sol\":13704:13719  mulmod(x, x, p) */\n      mulmod\n        /* \"CTHelpers.sol\":13699:13719  x := mulmod(x, x, p) */\n      swap3\n      pop\n        /* \"CTHelpers.sol\":13750:13751  p */\n      dup1\n        /* \"CTHelpers.sol\":13747:13748  x */\n      dup4\n        /* \"CTHelpers.sol\":13744:13745  x */\n      dup5\n        /* \"CTHelpers.sol\":13737:13752  mulmod(x, x, p) */\n      mulmod\n        /* \"CTHelpers.sol\":13732:13752  x := mulmod(x, x, p) */\n      swap3\n      pop\n        /* \"CTHelpers.sol\":13783:13784  p */\n      dup1\n        /* \"CTHelpers.sol\":13780:13781  x */\n      dup4\n        /* \"CTHelpers.sol\":13777:13778  x */\n      dup5\n        /* \"CTHelpers.sol\":13770:13785  mulmod(x, x, p) */\n      mulmod\n        /* \"CTHelpers.sol\":13765:13785  x := mulmod(x, x, p) */\n      swap3\n      pop\n        /* \"CTHelpers.sol\":13816:13817  p */\n      dup1\n        /* \"CTHelpers.sol\":13813:13814  x */\n      dup4\n        /* \"CTHelpers.sol\":13810:13811  x */\n      dup5\n        /* \"CTHelpers.sol\":13803:13818  mulmod(x, x, p) */\n      mulmod\n        /* \"CTHelpers.sol\":13798:13818  x := mulmod(x, x, p) */\n      swap3\n      pop\n        /* \"CTHelpers.sol\":13849:13850  p */\n      dup1\n        /* \"CTHelpers.sol\":13846:13847  x */\n      dup4\n        /* \"CTHelpers.sol\":13843:13844  x */\n      dup5\n        /* \"CTHelpers.sol\":13836:13851  mulmod(x, x, p) */\n      mulmod\n        /* \"CTHelpers.sol\":13831:13851  x := mulmod(x, x, p) */\n      swap3\n      pop\n        /* \"CTHelpers.sol\":13882:13883  p */\n      dup1\n        /* \"CTHelpers.sol\":13879:13880  x */\n      dup4\n        /* \"CTHelpers.sol\":13876:13877  x */\n      dup5\n        /* \"CTHelpers.sol\":13869:13884  mulmod(x, x, p) */\n      mulmod\n        /* \"CTHelpers.sol\":13864:13884  x := mulmod(x, x, p) */\n      swap3\n      pop\n        /* \"CTHelpers.sol\":13915:13916  p */\n      dup1\n        /* \"CTHelpers.sol\":13912:13913  x */\n      dup4\n        /* \"CTHelpers.sol\":13909:13910  x */\n      dup5\n        /* \"CTHelpers.sol\":13902:13917  mulmod(x, x, p) */\n      mulmod\n        /* \"CTHelpers.sol\":13897:13917  x := mulmod(x, x, p) */\n      swap3\n      pop\n        /* \"CTHelpers.sol\":13948:13949  p */\n      dup1\n        /* \"CTHelpers.sol\":13945:13946  x */\n      dup4\n        /* \"CTHelpers.sol\":13942:13943  x */\n      dup5\n        /* \"CTHelpers.sol\":13935:13950  mulmod(x, x, p) */\n      mulmod\n        /* \"CTHelpers.sol\":13930:13950  x := mulmod(x, x, p) */\n      swap3\n      pop\n        /* \"CTHelpers.sol\":13981:13982  p */\n      dup1\n        /* \"CTHelpers.sol\":13978:13979  x */\n      dup4\n        /* \"CTHelpers.sol\":13975:13976  x */\n      dup5\n        /* \"CTHelpers.sol\":13968:13983  mulmod(x, x, p) */\n      mulmod\n        /* \"CTHelpers.sol\":13963:13983  x := mulmod(x, x, p) */\n      swap3\n      pop\n        /* \"CTHelpers.sol\":14014:14015  p */\n      dup1\n        /* \"CTHelpers.sol\":14011:14012  x */\n      dup4\n        /* \"CTHelpers.sol\":14008:14009  x */\n      dup5\n        /* \"CTHelpers.sol\":14001:14016  mulmod(x, x, p) */\n      mulmod\n        /* \"CTHelpers.sol\":13996:14016  x := mulmod(x, x, p) */\n      swap3\n      pop\n        /* \"CTHelpers.sol\":14047:14048  p */\n      dup1\n        /* \"CTHelpers.sol\":14044:14045  x */\n      dup4\n        /* \"CTHelpers.sol\":14041:14042  x */\n      dup5\n        /* \"CTHelpers.sol\":14034:14049  mulmod(x, x, p) */\n      mulmod\n        /* \"CTHelpers.sol\":14029:14049  x := mulmod(x, x, p) */\n      swap3\n      pop\n        /* \"CTHelpers.sol\":14080:14081  p */\n      dup1\n        /* \"CTHelpers.sol\":14077:14078  x */\n      dup4\n        /* \"CTHelpers.sol\":14074:14075  x */\n      dup5\n        /* \"CTHelpers.sol\":14067:14082  mulmod(x, x, p) */\n      mulmod\n        /* \"CTHelpers.sol\":14062:14082  x := mulmod(x, x, p) */\n      swap3\n      pop\n        /* \"CTHelpers.sol\":14113:14114  p */\n      dup1\n        /* \"CTHelpers.sol\":14110:14111  x */\n      dup4\n        /* \"CTHelpers.sol\":14107:14108  x */\n      dup5\n        /* \"CTHelpers.sol\":14100:14115  mulmod(x, x, p) */\n      mulmod\n        /* \"CTHelpers.sol\":14095:14115  x := mulmod(x, x, p) */\n      swap3\n      pop\n        /* \"CTHelpers.sol\":14146:14147  p */\n      dup1\n        /* \"CTHelpers.sol\":14143:14144  x */\n      dup4\n        /* \"CTHelpers.sol\":14140:14141  x */\n      dup5\n        /* \"CTHelpers.sol\":14133:14148  mulmod(x, x, p) */\n      mulmod\n        /* \"CTHelpers.sol\":14128:14148  x := mulmod(x, x, p) */\n      swap3\n      pop\n        /* \"CTHelpers.sol\":14179:14180  p */\n      dup1\n        /* \"CTHelpers.sol\":14176:14177  x */\n      dup4\n        /* \"CTHelpers.sol\":14173:14174  x */\n      dup5\n        /* \"CTHelpers.sol\":14166:14181  mulmod(x, x, p) */\n      mulmod\n        /* \"CTHelpers.sol\":14161:14181  x := mulmod(x, x, p) */\n      swap3\n      pop\n        /* \"CTHelpers.sol\":14212:14213  p */\n      dup1\n        /* \"CTHelpers.sol\":14209:14210  x */\n      dup4\n        /* \"CTHelpers.sol\":14206:14207  x */\n      dup5\n        /* \"CTHelpers.sol\":14199:14214  mulmod(x, x, p) */\n      mulmod\n        /* \"CTHelpers.sol\":14194:14214  x := mulmod(x, x, p) */\n      swap3\n      pop\n        /* \"CTHelpers.sol\":14245:14246  p */\n      dup1\n        /* \"CTHelpers.sol\":14242:14243  x */\n      dup4\n        /* \"CTHelpers.sol\":14239:14240  x */\n      dup5\n        /* \"CTHelpers.sol\":14232:14247  mulmod(x, x, p) */\n      mulmod\n        /* \"CTHelpers.sol\":14227:14247  x := mulmod(x, x, p) */\n      swap3\n      pop\n        /* \"CTHelpers.sol\":14278:14279  p */\n      dup1\n        /* \"CTHelpers.sol\":14275:14276  x */\n      dup4\n        /* \"CTHelpers.sol\":14272:14273  x */\n      dup5\n        /* \"CTHelpers.sol\":14265:14280  mulmod(x, x, p) */\n      mulmod\n        /* \"CTHelpers.sol\":14260:14280  x := mulmod(x, x, p) */\n      swap3\n      pop\n        /* \"CTHelpers.sol\":14311:14312  p */\n      dup1\n        /* \"CTHelpers.sol\":14308:14309  x */\n      dup4\n        /* \"CTHelpers.sol\":14305:14306  x */\n      dup5\n        /* \"CTHelpers.sol\":14298:14313  mulmod(x, x, p) */\n      mulmod\n        /* \"CTHelpers.sol\":14293:14313  x := mulmod(x, x, p) */\n      swap3\n      pop\n        /* \"CTHelpers.sol\":14344:14345  p */\n      dup1\n        /* \"CTHelpers.sol\":14341:14342  x */\n      dup4\n        /* \"CTHelpers.sol\":14338:14339  x */\n      dup5\n        /* \"CTHelpers.sol\":14331:14346  mulmod(x, x, p) */\n      mulmod\n        /* \"CTHelpers.sol\":14326:14346  x := mulmod(x, x, p) */\n      swap3\n      pop\n        /* \"CTHelpers.sol\":14377:14378  p */\n      dup1\n        /* \"CTHelpers.sol\":14374:14375  x */\n      dup4\n        /* \"CTHelpers.sol\":14371:14372  x */\n      dup5\n        /* \"CTHelpers.sol\":14364:14379  mulmod(x, x, p) */\n      mulmod\n        /* \"CTHelpers.sol\":14359:14379  x := mulmod(x, x, p) */\n      swap3\n      pop\n        /* \"CTHelpers.sol\":14410:14411  p */\n      dup1\n        /* \"CTHelpers.sol\":14407:14408  x */\n      dup4\n        /* \"CTHelpers.sol\":14404:14405  x */\n      dup5\n        /* \"CTHelpers.sol\":14397:14412  mulmod(x, x, p) */\n      mulmod\n        /* \"CTHelpers.sol\":14392:14412  x := mulmod(x, x, p) */\n      swap3\n      pop\n        /* \"CTHelpers.sol\":14443:14444  p */\n      dup1\n        /* \"CTHelpers.sol\":14440:14441  x */\n      dup4\n        /* \"CTHelpers.sol\":14437:14438  x */\n      dup5\n        /* \"CTHelpers.sol\":14430:14445  mulmod(x, x, p) */\n      mulmod\n        /* \"CTHelpers.sol\":14425:14445  x := mulmod(x, x, p) */\n      swap3\n      pop\n        /* \"CTHelpers.sol\":14476:14477  p */\n      dup1\n        /* \"CTHelpers.sol\":14473:14474  x */\n      dup4\n        /* \"CTHelpers.sol\":14470:14471  x */\n      dup5\n        /* \"CTHelpers.sol\":14463:14478  mulmod(x, x, p) */\n      mulmod\n        /* \"CTHelpers.sol\":14458:14478  x := mulmod(x, x, p) */\n      swap3\n      pop\n        /* \"CTHelpers.sol\":14509:14510  p */\n      dup1\n        /* \"CTHelpers.sol\":14506:14507  x */\n      dup4\n        /* \"CTHelpers.sol\":14503:14504  x */\n      dup5\n        /* \"CTHelpers.sol\":14496:14511  mulmod(x, x, p) */\n      mulmod\n        /* \"CTHelpers.sol\":14491:14511  x := mulmod(x, x, p) */\n      swap3\n      pop\n        /* \"CTHelpers.sol\":14542:14543  p */\n      dup1\n        /* \"CTHelpers.sol\":14539:14540  x */\n      dup4\n        /* \"CTHelpers.sol\":14536:14537  x */\n      dup5\n        /* \"CTHelpers.sol\":14529:14544  mulmod(x, x, p) */\n      mulmod\n        /* \"CTHelpers.sol\":14524:14544  x := mulmod(x, x, p) */\n      swap3\n      pop\n        /* \"CTHelpers.sol\":14575:14576  p */\n      dup1\n        /* \"CTHelpers.sol\":14572:14573  x */\n      dup4\n        /* \"CTHelpers.sol\":14569:14570  x */\n      dup5\n        /* \"CTHelpers.sol\":14562:14577  mulmod(x, x, p) */\n      mulmod\n        /* \"CTHelpers.sol\":14557:14577  x := mulmod(x, x, p) */\n      swap3\n      pop\n        /* \"CTHelpers.sol\":14608:14609  p */\n      dup1\n        /* \"CTHelpers.sol\":14605:14606  x */\n      dup4\n        /* \"CTHelpers.sol\":14602:14603  x */\n      dup5\n        /* \"CTHelpers.sol\":14595:14610  mulmod(x, x, p) */\n      mulmod\n        /* \"CTHelpers.sol\":14590:14610  x := mulmod(x, x, p) */\n      swap3\n      pop\n        /* \"CTHelpers.sol\":14641:14642  p */\n      dup1\n        /* \"CTHelpers.sol\":14638:14639  x */\n      dup4\n        /* \"CTHelpers.sol\":14635:14636  x */\n      dup5\n        /* \"CTHelpers.sol\":14628:14643  mulmod(x, x, p) */\n      mulmod\n        /* \"CTHelpers.sol\":14623:14643  x := mulmod(x, x, p) */\n      swap3\n      pop\n        /* \"CTHelpers.sol\":14674:14675  p */\n      dup1\n        /* \"CTHelpers.sol\":14671:14672  x */\n      dup4\n        /* \"CTHelpers.sol\":14668:14669  x */\n      dup5\n        /* \"CTHelpers.sol\":14661:14676  mulmod(x, x, p) */\n      mulmod\n        /* \"CTHelpers.sol\":14656:14676  x := mulmod(x, x, p) */\n      swap3\n      pop\n        /* \"CTHelpers.sol\":14707:14708  p */\n      dup1\n        /* \"CTHelpers.sol\":14704:14705  x */\n      dup4\n        /* \"CTHelpers.sol\":14701:14702  x */\n      dup5\n        /* \"CTHelpers.sol\":14694:14709  mulmod(x, x, p) */\n      mulmod\n        /* \"CTHelpers.sol\":14689:14709  x := mulmod(x, x, p) */\n      swap3\n      pop\n        /* \"CTHelpers.sol\":14740:14741  p */\n      dup1\n        /* \"CTHelpers.sol\":14737:14738  x */\n      dup4\n        /* \"CTHelpers.sol\":14734:14735  x */\n      dup5\n        /* \"CTHelpers.sol\":14727:14742  mulmod(x, x, p) */\n      mulmod\n        /* \"CTHelpers.sol\":14722:14742  x := mulmod(x, x, p) */\n      swap3\n      pop\n        /* \"CTHelpers.sol\":14773:14774  p */\n      dup1\n        /* \"CTHelpers.sol\":14770:14771  x */\n      dup4\n        /* \"CTHelpers.sol\":14767:14768  x */\n      dup5\n        /* \"CTHelpers.sol\":14760:14775  mulmod(x, x, p) */\n      mulmod\n        /* \"CTHelpers.sol\":14755:14775  x := mulmod(x, x, p) */\n      swap3\n      pop\n        /* \"CTHelpers.sol\":14806:14807  p */\n      dup1\n        /* \"CTHelpers.sol\":14803:14804  x */\n      dup4\n        /* \"CTHelpers.sol\":14800:14801  x */\n      dup5\n        /* \"CTHelpers.sol\":14793:14808  mulmod(x, x, p) */\n      mulmod\n        /* \"CTHelpers.sol\":14788:14808  x := mulmod(x, x, p) */\n      swap3\n      pop\n        /* \"CTHelpers.sol\":14839:14840  p */\n      dup1\n        /* \"CTHelpers.sol\":14836:14837  x */\n      dup4\n        /* \"CTHelpers.sol\":14833:14834  x */\n      dup5\n        /* \"CTHelpers.sol\":14826:14841  mulmod(x, x, p) */\n      mulmod\n        /* \"CTHelpers.sol\":14821:14841  x := mulmod(x, x, p) */\n      swap3\n      pop\n        /* \"CTHelpers.sol\":14872:14873  p */\n      dup1\n        /* \"CTHelpers.sol\":14869:14870  x */\n      dup4\n        /* \"CTHelpers.sol\":14866:14867  x */\n      dup5\n        /* \"CTHelpers.sol\":14859:14874  mulmod(x, x, p) */\n      mulmod\n        /* \"CTHelpers.sol\":14854:14874  x := mulmod(x, x, p) */\n      swap3\n      pop\n        /* \"CTHelpers.sol\":14905:14906  p */\n      dup1\n        /* \"CTHelpers.sol\":14902:14903  x */\n      dup4\n        /* \"CTHelpers.sol\":14899:14900  x */\n      dup5\n        /* \"CTHelpers.sol\":14892:14907  mulmod(x, x, p) */\n      mulmod\n        /* \"CTHelpers.sol\":14887:14907  x := mulmod(x, x, p) */\n      swap3\n      pop\n        /* \"CTHelpers.sol\":14938:14939  p */\n      dup1\n        /* \"CTHelpers.sol\":14935:14936  x */\n      dup4\n        /* \"CTHelpers.sol\":14932:14933  x */\n      dup5\n        /* \"CTHelpers.sol\":14925:14940  mulmod(x, x, p) */\n      mulmod\n        /* \"CTHelpers.sol\":14920:14940  x := mulmod(x, x, p) */\n      swap3\n      pop\n        /* \"CTHelpers.sol\":14971:14972  p */\n      dup1\n        /* \"CTHelpers.sol\":14968:14969  x */\n      dup4\n        /* \"CTHelpers.sol\":14965:14966  x */\n      dup5\n        /* \"CTHelpers.sol\":14958:14973  mulmod(x, x, p) */\n      mulmod\n        /* \"CTHelpers.sol\":14953:14973  x := mulmod(x, x, p) */\n      swap3\n      pop\n        /* \"CTHelpers.sol\":15004:15005  p */\n      dup1\n        /* \"CTHelpers.sol\":15001:15002  x */\n      dup4\n        /* \"CTHelpers.sol\":14998:14999  x */\n      dup5\n        /* \"CTHelpers.sol\":14991:15006  mulmod(x, x, p) */\n      mulmod\n        /* \"CTHelpers.sol\":14986:15006  x := mulmod(x, x, p) */\n      swap3\n      pop\n        /* \"CTHelpers.sol\":15037:15038  p */\n      dup1\n        /* \"CTHelpers.sol\":15034:15035  x */\n      dup4\n        /* \"CTHelpers.sol\":15031:15032  x */\n      dup5\n        /* \"CTHelpers.sol\":15024:15039  mulmod(x, x, p) */\n      mulmod\n        /* \"CTHelpers.sol\":15019:15039  x := mulmod(x, x, p) */\n      swap3\n      pop\n        /* \"CTHelpers.sol\":15070:15071  p */\n      dup1\n        /* \"CTHelpers.sol\":15067:15068  x */\n      dup4\n        /* \"CTHelpers.sol\":15064:15065  x */\n      dup5\n        /* \"CTHelpers.sol\":15057:15072  mulmod(x, x, p) */\n      mulmod\n        /* \"CTHelpers.sol\":15052:15072  x := mulmod(x, x, p) */\n      swap3\n      pop\n        /* \"CTHelpers.sol\":15103:15104  p */\n      dup1\n        /* \"CTHelpers.sol\":15100:15101  x */\n      dup4\n        /* \"CTHelpers.sol\":15097:15098  x */\n      dup5\n        /* \"CTHelpers.sol\":15090:15105  mulmod(x, x, p) */\n      mulmod\n        /* \"CTHelpers.sol\":15085:15105  x := mulmod(x, x, p) */\n      swap3\n      pop\n        /* \"CTHelpers.sol\":15136:15137  p */\n      dup1\n        /* \"CTHelpers.sol\":15133:15134  x */\n      dup4\n        /* \"CTHelpers.sol\":15130:15131  x */\n      dup5\n        /* \"CTHelpers.sol\":15123:15138  mulmod(x, x, p) */\n      mulmod\n        /* \"CTHelpers.sol\":15118:15138  x := mulmod(x, x, p) */\n      swap3\n      pop\n        /* \"CTHelpers.sol\":15169:15170  p */\n      dup1\n        /* \"CTHelpers.sol\":15166:15167  x */\n      dup4\n        /* \"CTHelpers.sol\":15163:15164  x */\n      dup5\n        /* \"CTHelpers.sol\":15156:15171  mulmod(x, x, p) */\n      mulmod\n        /* \"CTHelpers.sol\":15151:15171  x := mulmod(x, x, p) */\n      swap3\n      pop\n        /* \"CTHelpers.sol\":15202:15203  p */\n      dup1\n        /* \"CTHelpers.sol\":15199:15200  x */\n      dup4\n        /* \"CTHelpers.sol\":15196:15197  x */\n      dup5\n        /* \"CTHelpers.sol\":15189:15204  mulmod(x, x, p) */\n      mulmod\n        /* \"CTHelpers.sol\":15184:15204  x := mulmod(x, x, p) */\n      swap3\n      pop\n        /* \"CTHelpers.sol\":15235:15236  p */\n      dup1\n        /* \"CTHelpers.sol\":15232:15233  x */\n      dup4\n        /* \"CTHelpers.sol\":15229:15230  x */\n      dup5\n        /* \"CTHelpers.sol\":15222:15237  mulmod(x, x, p) */\n      mulmod\n        /* \"CTHelpers.sol\":15217:15237  x := mulmod(x, x, p) */\n      swap3\n      pop\n        /* \"CTHelpers.sol\":15268:15269  p */\n      dup1\n        /* \"CTHelpers.sol\":15265:15266  x */\n      dup4\n        /* \"CTHelpers.sol\":15262:15263  x */\n      dup5\n        /* \"CTHelpers.sol\":15255:15270  mulmod(x, x, p) */\n      mulmod\n        /* \"CTHelpers.sol\":15250:15270  x := mulmod(x, x, p) */\n      swap3\n      pop\n        /* \"CTHelpers.sol\":15301:15302  p */\n      dup1\n        /* \"CTHelpers.sol\":15298:15299  x */\n      dup4\n        /* \"CTHelpers.sol\":15295:15296  x */\n      dup5\n        /* \"CTHelpers.sol\":15288:15303  mulmod(x, x, p) */\n      mulmod\n        /* \"CTHelpers.sol\":15283:15303  x := mulmod(x, x, p) */\n      swap3\n      pop\n        /* \"CTHelpers.sol\":15334:15335  p */\n      dup1\n        /* \"CTHelpers.sol\":15331:15332  x */\n      dup4\n        /* \"CTHelpers.sol\":15328:15329  x */\n      dup5\n        /* \"CTHelpers.sol\":15321:15336  mulmod(x, x, p) */\n      mulmod\n        /* \"CTHelpers.sol\":15316:15336  x := mulmod(x, x, p) */\n      swap3\n      pop\n        /* \"CTHelpers.sol\":15367:15368  p */\n      dup1\n        /* \"CTHelpers.sol\":15364:15365  x */\n      dup4\n        /* \"CTHelpers.sol\":15361:15362  x */\n      dup5\n        /* \"CTHelpers.sol\":15354:15369  mulmod(x, x, p) */\n      mulmod\n        /* \"CTHelpers.sol\":15349:15369  x := mulmod(x, x, p) */\n      swap3\n      pop\n        /* \"CTHelpers.sol\":15400:15401  p */\n      dup1\n        /* \"CTHelpers.sol\":15397:15398  x */\n      dup4\n        /* \"CTHelpers.sol\":15394:15395  x */\n      dup5\n        /* \"CTHelpers.sol\":15387:15402  mulmod(x, x, p) */\n      mulmod\n        /* \"CTHelpers.sol\":15382:15402  x := mulmod(x, x, p) */\n      swap3\n      pop\n        /* \"CTHelpers.sol\":15433:15434  p */\n      dup1\n        /* \"CTHelpers.sol\":15430:15431  x */\n      dup4\n        /* \"CTHelpers.sol\":15427:15428  x */\n      dup5\n        /* \"CTHelpers.sol\":15420:15435  mulmod(x, x, p) */\n      mulmod\n        /* \"CTHelpers.sol\":15415:15435  x := mulmod(x, x, p) */\n      swap3\n      pop\n        /* \"CTHelpers.sol\":15466:15467  p */\n      dup1\n        /* \"CTHelpers.sol\":15463:15464  x */\n      dup4\n        /* \"CTHelpers.sol\":15460:15461  x */\n      dup5\n        /* \"CTHelpers.sol\":15453:15468  mulmod(x, x, p) */\n      mulmod\n        /* \"CTHelpers.sol\":15448:15468  x := mulmod(x, x, p) */\n      swap3\n      pop\n        /* \"CTHelpers.sol\":15499:15500  p */\n      dup1\n        /* \"CTHelpers.sol\":15496:15497  x */\n      dup4\n        /* \"CTHelpers.sol\":15493:15494  x */\n      dup5\n        /* \"CTHelpers.sol\":15486:15501  mulmod(x, x, p) */\n      mulmod\n        /* \"CTHelpers.sol\":15481:15501  x := mulmod(x, x, p) */\n      swap3\n      pop\n        /* \"CTHelpers.sol\":15532:15533  p */\n      dup1\n        /* \"CTHelpers.sol\":15529:15530  x */\n      dup4\n        /* \"CTHelpers.sol\":15526:15527  x */\n      dup5\n        /* \"CTHelpers.sol\":15519:15534  mulmod(x, x, p) */\n      mulmod\n        /* \"CTHelpers.sol\":15514:15534  x := mulmod(x, x, p) */\n      swap3\n      pop\n        /* \"CTHelpers.sol\":15565:15566  p */\n      dup1\n        /* \"CTHelpers.sol\":15562:15563  x */\n      dup4\n        /* \"CTHelpers.sol\":15559:15560  x */\n      dup5\n        /* \"CTHelpers.sol\":15552:15567  mulmod(x, x, p) */\n      mulmod\n        /* \"CTHelpers.sol\":15547:15567  x := mulmod(x, x, p) */\n      swap3\n      pop\n        /* \"CTHelpers.sol\":15598:15599  p */\n      dup1\n        /* \"CTHelpers.sol\":15595:15596  x */\n      dup4\n        /* \"CTHelpers.sol\":15592:15593  x */\n      dup5\n        /* \"CTHelpers.sol\":15585:15600  mulmod(x, x, p) */\n      mulmod\n        /* \"CTHelpers.sol\":15580:15600  x := mulmod(x, x, p) */\n      swap3\n      pop\n        /* \"CTHelpers.sol\":15631:15632  p */\n      dup1\n        /* \"CTHelpers.sol\":15628:15629  x */\n      dup4\n        /* \"CTHelpers.sol\":15625:15626  x */\n      dup5\n        /* \"CTHelpers.sol\":15618:15633  mulmod(x, x, p) */\n      mulmod\n        /* \"CTHelpers.sol\":15613:15633  x := mulmod(x, x, p) */\n      swap3\n      pop\n        /* \"CTHelpers.sol\":15664:15665  p */\n      dup1\n        /* \"CTHelpers.sol\":15661:15662  x */\n      dup4\n        /* \"CTHelpers.sol\":15658:15659  x */\n      dup5\n        /* \"CTHelpers.sol\":15651:15666  mulmod(x, x, p) */\n      mulmod\n        /* \"CTHelpers.sol\":15646:15666  x := mulmod(x, x, p) */\n      swap3\n      pop\n        /* \"CTHelpers.sol\":15697:15698  p */\n      dup1\n        /* \"CTHelpers.sol\":15694:15695  x */\n      dup4\n        /* \"CTHelpers.sol\":15691:15692  x */\n      dup5\n        /* \"CTHelpers.sol\":15684:15699  mulmod(x, x, p) */\n      mulmod\n        /* \"CTHelpers.sol\":15679:15699  x := mulmod(x, x, p) */\n      swap3\n      pop\n        /* \"CTHelpers.sol\":15730:15731  p */\n      dup1\n        /* \"CTHelpers.sol\":15727:15728  x */\n      dup4\n        /* \"CTHelpers.sol\":15724:15725  x */\n      dup5\n        /* \"CTHelpers.sol\":15717:15732  mulmod(x, x, p) */\n      mulmod\n        /* \"CTHelpers.sol\":15712:15732  x := mulmod(x, x, p) */\n      swap3\n      pop\n        /* \"CTHelpers.sol\":15763:15764  p */\n      dup1\n        /* \"CTHelpers.sol\":15760:15761  x */\n      dup4\n        /* \"CTHelpers.sol\":15757:15758  x */\n      dup5\n        /* \"CTHelpers.sol\":15750:15765  mulmod(x, x, p) */\n      mulmod\n        /* \"CTHelpers.sol\":15745:15765  x := mulmod(x, x, p) */\n      swap3\n      pop\n        /* \"CTHelpers.sol\":15796:15797  p */\n      dup1\n        /* \"CTHelpers.sol\":15793:15794  x */\n      dup4\n        /* \"CTHelpers.sol\":15790:15791  x */\n      dup5\n        /* \"CTHelpers.sol\":15783:15798  mulmod(x, x, p) */\n      mulmod\n        /* \"CTHelpers.sol\":15778:15798  x := mulmod(x, x, p) */\n      swap3\n      pop\n        /* \"CTHelpers.sol\":15829:15830  p */\n      dup1\n        /* \"CTHelpers.sol\":15826:15827  x */\n      dup4\n        /* \"CTHelpers.sol\":15823:15824  x */\n      dup5\n        /* \"CTHelpers.sol\":15816:15831  mulmod(x, x, p) */\n      mulmod\n        /* \"CTHelpers.sol\":15811:15831  x := mulmod(x, x, p) */\n      swap3\n      pop\n        /* \"CTHelpers.sol\":15862:15863  p */\n      dup1\n        /* \"CTHelpers.sol\":15859:15860  x */\n      dup4\n        /* \"CTHelpers.sol\":15856:15857  x */\n      dup5\n        /* \"CTHelpers.sol\":15849:15864  mulmod(x, x, p) */\n      mulmod\n        /* \"CTHelpers.sol\":15844:15864  x := mulmod(x, x, p) */\n      swap3\n      pop\n        /* \"CTHelpers.sol\":15895:15896  p */\n      dup1\n        /* \"CTHelpers.sol\":15892:15893  x */\n      dup4\n        /* \"CTHelpers.sol\":15889:15890  x */\n      dup5\n        /* \"CTHelpers.sol\":15882:15897  mulmod(x, x, p) */\n      mulmod\n        /* \"CTHelpers.sol\":15877:15897  x := mulmod(x, x, p) */\n      swap3\n      pop\n        /* \"CTHelpers.sol\":15928:15929  p */\n      dup1\n        /* \"CTHelpers.sol\":15925:15926  x */\n      dup4\n        /* \"CTHelpers.sol\":15922:15923  x */\n      dup5\n        /* \"CTHelpers.sol\":15915:15930  mulmod(x, x, p) */\n      mulmod\n        /* \"CTHelpers.sol\":15910:15930  x := mulmod(x, x, p) */\n      swap3\n      pop\n        /* \"CTHelpers.sol\":15961:15962  p */\n      dup1\n        /* \"CTHelpers.sol\":15958:15959  x */\n      dup4\n        /* \"CTHelpers.sol\":15955:15956  x */\n      dup5\n        /* \"CTHelpers.sol\":15948:15963  mulmod(x, x, p) */\n      mulmod\n        /* \"CTHelpers.sol\":15943:15963  x := mulmod(x, x, p) */\n      swap3\n      pop\n        /* \"CTHelpers.sol\":15994:15995  p */\n      dup1\n        /* \"CTHelpers.sol\":15991:15992  x */\n      dup4\n        /* \"CTHelpers.sol\":15988:15989  x */\n      dup5\n        /* \"CTHelpers.sol\":15981:15996  mulmod(x, x, p) */\n      mulmod\n        /* \"CTHelpers.sol\":15976:15996  x := mulmod(x, x, p) */\n      swap3\n      pop\n        /* \"CTHelpers.sol\":16027:16028  p */\n      dup1\n        /* \"CTHelpers.sol\":16024:16025  x */\n      dup4\n        /* \"CTHelpers.sol\":16021:16022  x */\n      dup5\n        /* \"CTHelpers.sol\":16014:16029  mulmod(x, x, p) */\n      mulmod\n        /* \"CTHelpers.sol\":16009:16029  x := mulmod(x, x, p) */\n      swap3\n      pop\n        /* \"CTHelpers.sol\":16060:16061  p */\n      dup1\n        /* \"CTHelpers.sol\":16057:16058  x */\n      dup4\n        /* \"CTHelpers.sol\":16054:16055  x */\n      dup5\n        /* \"CTHelpers.sol\":16047:16062  mulmod(x, x, p) */\n      mulmod\n        /* \"CTHelpers.sol\":16042:16062  x := mulmod(x, x, p) */\n      swap3\n      pop\n        /* \"CTHelpers.sol\":16093:16094  p */\n      dup1\n        /* \"CTHelpers.sol\":16090:16091  x */\n      dup4\n        /* \"CTHelpers.sol\":16087:16088  x */\n      dup5\n        /* \"CTHelpers.sol\":16080:16095  mulmod(x, x, p) */\n      mulmod\n        /* \"CTHelpers.sol\":16075:16095  x := mulmod(x, x, p) */\n      swap3\n      pop\n        /* \"CTHelpers.sol\":16126:16127  p */\n      dup1\n        /* \"CTHelpers.sol\":16123:16124  x */\n      dup4\n        /* \"CTHelpers.sol\":16120:16121  x */\n      dup5\n        /* \"CTHelpers.sol\":16113:16128  mulmod(x, x, p) */\n      mulmod\n        /* \"CTHelpers.sol\":16108:16128  x := mulmod(x, x, p) */\n      swap3\n      pop\n        /* \"CTHelpers.sol\":16159:16160  p */\n      dup1\n        /* \"CTHelpers.sol\":16156:16157  x */\n      dup4\n        /* \"CTHelpers.sol\":16153:16154  x */\n      dup5\n        /* \"CTHelpers.sol\":16146:16161  mulmod(x, x, p) */\n      mulmod\n        /* \"CTHelpers.sol\":16141:16161  x := mulmod(x, x, p) */\n      swap3\n      pop\n        /* \"CTHelpers.sol\":16192:16193  p */\n      dup1\n        /* \"CTHelpers.sol\":16189:16190  x */\n      dup4\n        /* \"CTHelpers.sol\":16186:16187  x */\n      dup5\n        /* \"CTHelpers.sol\":16179:16194  mulmod(x, x, p) */\n      mulmod\n        /* \"CTHelpers.sol\":16174:16194  x := mulmod(x, x, p) */\n      swap3\n      pop\n        /* \"CTHelpers.sol\":16225:16226  p */\n      dup1\n        /* \"CTHelpers.sol\":16222:16223  x */\n      dup4\n        /* \"CTHelpers.sol\":16219:16220  x */\n      dup5\n        /* \"CTHelpers.sol\":16212:16227  mulmod(x, x, p) */\n      mulmod\n        /* \"CTHelpers.sol\":16207:16227  x := mulmod(x, x, p) */\n      swap3\n      pop\n        /* \"CTHelpers.sol\":16258:16259  p */\n      dup1\n        /* \"CTHelpers.sol\":16255:16256  x */\n      dup4\n        /* \"CTHelpers.sol\":16252:16253  y */\n      dup4\n        /* \"CTHelpers.sol\":16245:16260  mulmod(y, x, p) */\n      mulmod\n        /* \"CTHelpers.sol\":16240:16260  y := mulmod(y, x, p) */\n      swap4\n        /* \"CTHelpers.sol\":908:16276  function sqrt(uint x) private pure returns (uint y) {... */\n      swap3\n      pop\n      pop\n      pop\n      jump\t// out\n        /* \"@openzeppelin/contracts/token/ERC1155/ERC1155.sol\":7002:7702   */\n    tag_457:\n        /* \"@openzeppelin/contracts/token/ERC1155/ERC1155.sol\":7203:7233   */\n      tag_498\n        /* \"@openzeppelin/contracts/token/ERC1155/ERC1155.sol\":7211:7215   */\n      dup6\n        /* \"@openzeppelin/contracts/token/ERC1155/ERC1155.sol\":7217:7219   */\n      dup6\n        /* \"@openzeppelin/contracts/token/ERC1155/ERC1155.sol\":7221:7224   */\n      dup6\n        /* \"@openzeppelin/contracts/token/ERC1155/ERC1155.sol\":7226:7232   */\n      dup6\n        /* \"@openzeppelin/contracts/token/ERC1155/ERC1155.sol\":7203:7210   */\n      tag_499\n        /* \"@openzeppelin/contracts/token/ERC1155/ERC1155.sol\":7203:7233   */\n      jump\t// in\n    tag_498:\n      sub(shl(0xa0, 0x01), 0x01)\n        /* \"@openzeppelin/contracts/token/ERC1155/ERC1155.sol\":7247:7263   */\n      dup5\n      and\n      iszero\n        /* \"@openzeppelin/contracts/token/ERC1155/ERC1155.sol\":7243:7696   */\n      tag_456\n      jumpi\n        /* \"@openzeppelin/contracts/token/ERC1155/ERC1155.sol\":7328:7338   */\n      dup3\n      mload\n        /* \"@openzeppelin/contracts/utils/Context.sol\":735:745   */\n      caller\n      swap1\n        /* \"@openzeppelin/contracts/token/ERC1155/ERC1155.sol\":7342:7343   */\n      0x01\n        /* \"@openzeppelin/contracts/token/ERC1155/ERC1155.sol\":7328:7343   */\n      sub\n        /* \"@openzeppelin/contracts/token/ERC1155/ERC1155.sol\":7324:7686   */\n      tag_502\n      jumpi\n        /* \"@openzeppelin/contracts/utils/Arrays.sol\":16302:16306   */\n      0x20\n        /* \"@openzeppelin/contracts/utils/Arrays.sol\":16273:16308   */\n      dup5\n      dup2\n      add\n        /* \"@openzeppelin/contracts/utils/Arrays.sol\":16267:16309   */\n      mload\n        /* \"@openzeppelin/contracts/utils/Arrays.sol\":16273:16308   */\n      swap1\n      dup5\n      add\n        /* \"@openzeppelin/contracts/utils/Arrays.sol\":16267:16309   */\n      mload\n        /* \"@openzeppelin/contracts/token/ERC1155/ERC1155.sol\":7481:7553   */\n      tag_505\n        /* \"@openzeppelin/contracts/token/ERC1155/ERC1155.sol\":7517:7525   */\n      dup4\n        /* \"@openzeppelin/contracts/token/ERC1155/ERC1155.sol\":7527:7531   */\n      dup10\n        /* \"@openzeppelin/contracts/token/ERC1155/ERC1155.sol\":7533:7535   */\n      dup10\n        /* \"@openzeppelin/contracts/utils/Arrays.sol\":16267:16309   */\n      dup6\n      dup6\n        /* \"@openzeppelin/contracts/token/ERC1155/ERC1155.sol\":7548:7552   */\n      dup10\n        /* \"@openzeppelin/contracts/token/ERC1155/ERC1155.sol\":7481:7516   */\n      tag_506\n        /* \"@openzeppelin/contracts/token/ERC1155/ERC1155.sol\":7481:7553   */\n      jump\t// in\n    tag_505:\n        /* \"@openzeppelin/contracts/token/ERC1155/ERC1155.sol\":7345:7568   */\n      pop\n      pop\n        /* \"@openzeppelin/contracts/token/ERC1155/ERC1155.sol\":7324:7686   */\n      jump(tag_198)\n    tag_502:\n        /* \"@openzeppelin/contracts/token/ERC1155/ERC1155.sol\":7592:7671   */\n      tag_198\n        /* \"@openzeppelin/contracts/token/ERC1155/ERC1155.sol\":7633:7641   */\n      dup2\n        /* \"@openzeppelin/contracts/token/ERC1155/ERC1155.sol\":7643:7647   */\n      dup8\n        /* \"@openzeppelin/contracts/token/ERC1155/ERC1155.sol\":7649:7651   */\n      dup8\n        /* \"@openzeppelin/contracts/token/ERC1155/ERC1155.sol\":7653:7656   */\n      dup8\n        /* \"@openzeppelin/contracts/token/ERC1155/ERC1155.sol\":7658:7664   */\n      dup8\n        /* \"@openzeppelin/contracts/token/ERC1155/ERC1155.sol\":7666:7670   */\n      dup8\n        /* \"@openzeppelin/contracts/token/ERC1155/ERC1155.sol\":7592:7632   */\n      tag_509\n        /* \"@openzeppelin/contracts/token/ERC1155/ERC1155.sol\":7592:7671   */\n      jump\t// in\n        /* \"@openzeppelin/contracts/token/ERC1155/ERC1155.sol\":5142:6423   */\n    tag_499:\n        /* \"@openzeppelin/contracts/token/ERC1155/ERC1155.sol\":5277:5283   */\n      dup1\n        /* \"@openzeppelin/contracts/token/ERC1155/ERC1155.sol\":5277:5290   */\n      mload\n        /* \"@openzeppelin/contracts/token/ERC1155/ERC1155.sol\":5263:5266   */\n      dup3\n        /* \"@openzeppelin/contracts/token/ERC1155/ERC1155.sol\":5263:5273   */\n      mload\n        /* \"@openzeppelin/contracts/token/ERC1155/ERC1155.sol\":5263:5290   */\n      eq\n        /* \"@openzeppelin/contracts/token/ERC1155/ERC1155.sol\":5259:5376   */\n      tag_511\n      jumpi\n        /* \"@openzeppelin/contracts/token/ERC1155/ERC1155.sol\":5339:5349   */\n      dup2\n      mload\n        /* \"@openzeppelin/contracts/token/ERC1155/ERC1155.sol\":5351:5364   */\n      dup2\n      mload\n        /* \"@openzeppelin/contracts/token/ERC1155/ERC1155.sol\":5313:5365   */\n      mload(0x40)\n      shl(0xe0, 0x5b059991)\n      dup2\n      mstore\n      0x04\n      dup2\n      add\n        /* \"#utility.yul\":17209:17234   */\n      swap3\n      swap1\n      swap3\n      mstore\n        /* \"#utility.yul\":17250:17268   */\n      0x24\n      dup3\n      add\n        /* \"#utility.yul\":17243:17277   */\n      mstore\n        /* \"#utility.yul\":17182:17200   */\n      0x44\n      add\n        /* \"@openzeppelin/contracts/token/ERC1155/ERC1155.sol\":5313:5365   */\n      tag_120\n        /* \"#utility.yul\":17035:17283   */\n      jump\n        /* \"@openzeppelin/contracts/token/ERC1155/ERC1155.sol\":5259:5376   */\n    tag_511:\n        /* \"@openzeppelin/contracts/utils/Context.sol\":735:745   */\n      caller\n        /* \"@openzeppelin/contracts/token/ERC1155/ERC1155.sol\":5386:5402   */\n      0x00\n        /* \"@openzeppelin/contracts/token/ERC1155/ERC1155.sol\":5428:6119   */\n    tag_514:\n        /* \"@openzeppelin/contracts/token/ERC1155/ERC1155.sol\":5452:5455   */\n      dup4\n        /* \"@openzeppelin/contracts/token/ERC1155/ERC1155.sol\":5452:5462   */\n      mload\n        /* \"@openzeppelin/contracts/token/ERC1155/ERC1155.sol\":5448:5449   */\n      dup2\n        /* \"@openzeppelin/contracts/token/ERC1155/ERC1155.sol\":5448:5462   */\n      lt\n        /* \"@openzeppelin/contracts/token/ERC1155/ERC1155.sol\":5428:6119   */\n      iszero\n      tag_515\n      jumpi\n        /* \"@openzeppelin/contracts/utils/Arrays.sol\":16302:16306   */\n      0x20\n        /* \"@openzeppelin/contracts/utils/Arrays.sol\":16293:16307   */\n      dup2\n      dup2\n      mul\n        /* \"@openzeppelin/contracts/utils/Arrays.sol\":16273:16308   */\n      dup6\n      dup2\n      add\n      dup3\n      add\n        /* \"@openzeppelin/contracts/utils/Arrays.sol\":16267:16309   */\n      mload\n        /* \"@openzeppelin/contracts/utils/Arrays.sol\":16273:16308   */\n      swap1\n      dup6\n      add\n      swap1\n      swap2\n      add\n        /* \"@openzeppelin/contracts/utils/Arrays.sol\":16267:16309   */\n      mload\n      sub(shl(0xa0, 0x01), 0x01)\n        /* \"@openzeppelin/contracts/token/ERC1155/ERC1155.sol\":5598:5616   */\n      dup9\n      and\n      iszero\n        /* \"@openzeppelin/contracts/token/ERC1155/ERC1155.sol\":5594:6014   */\n      tag_519\n      jumpi\n        /* \"@openzeppelin/contracts/token/ERC1155/ERC1155.sol\":5636:5655   */\n      0x00\n        /* \"@openzeppelin/contracts/token/ERC1155/ERC1155.sol\":5658:5671   */\n      dup3\n      dup2\n      mstore\n      0x20\n      dup2\n      dup2\n      mstore\n      0x40\n      dup1\n      dup4\n      keccak256\n      sub(shl(0xa0, 0x01), 0x01)\n        /* \"@openzeppelin/contracts/token/ERC1155/ERC1155.sol\":5658:5677   */\n      dup13\n      and\n      dup5\n      mstore\n      swap1\n      swap2\n      mstore\n      swap1\n      keccak256\n      sload\n        /* \"@openzeppelin/contracts/token/ERC1155/ERC1155.sol\":5699:5718   */\n      dup2\n      dup2\n      lt\n        /* \"@openzeppelin/contracts/token/ERC1155/ERC1155.sol\":5695:5824   */\n      iszero\n      tag_520\n      jumpi\n        /* \"@openzeppelin/contracts/token/ERC1155/ERC1155.sol\":5749:5805   */\n      mload(0x40)\n      shl(0xe0, 0x03dee4c5)\n      dup2\n      mstore\n      sub(shl(0xa0, 0x01), 0x01)\n        /* \"#utility.yul\":26821:26876   */\n      dup11\n      and\n        /* \"@openzeppelin/contracts/token/ERC1155/ERC1155.sol\":5749:5805   */\n      0x04\n      dup3\n      add\n        /* \"#utility.yul\":26803:26877   */\n      mstore\n        /* \"#utility.yul\":26893:26911   */\n      0x24\n      dup2\n      add\n        /* \"#utility.yul\":26886:26920   */\n      dup3\n      swap1\n      mstore\n        /* \"#utility.yul\":26936:26954   */\n      0x44\n      dup2\n      add\n        /* \"#utility.yul\":26929:26963   */\n      dup4\n      swap1\n      mstore\n        /* \"#utility.yul\":26979:26997   */\n      0x64\n      dup2\n      add\n        /* \"#utility.yul\":26972:27006   */\n      dup5\n      swap1\n      mstore\n        /* \"#utility.yul\":26775:26794   */\n      0x84\n      add\n        /* \"@openzeppelin/contracts/token/ERC1155/ERC1155.sol\":5749:5805   */\n      tag_120\n        /* \"#utility.yul\":26572:27012   */\n      jump\n        /* \"@openzeppelin/contracts/token/ERC1155/ERC1155.sol\":5695:5824   */\n    tag_520:\n        /* \"@openzeppelin/contracts/token/ERC1155/ERC1155.sol\":5940:5949   */\n      0x00\n        /* \"@openzeppelin/contracts/token/ERC1155/ERC1155.sol\":5940:5953   */\n      dup4\n      dup2\n      mstore\n      0x20\n      dup2\n      dup2\n      mstore\n      0x40\n      dup1\n      dup4\n      keccak256\n      sub(shl(0xa0, 0x01), 0x01)\n        /* \"@openzeppelin/contracts/token/ERC1155/ERC1155.sol\":5940:5959   */\n      dup14\n      and\n      dup5\n      mstore\n      swap1\n      swap2\n      mstore\n      swap1\n      keccak256\n        /* \"@openzeppelin/contracts/token/ERC1155/ERC1155.sol\":5962:5981   */\n      swap1\n      dup3\n      swap1\n      sub\n        /* \"@openzeppelin/contracts/token/ERC1155/ERC1155.sol\":5940:5981   */\n      swap1\n      sstore\n        /* \"@openzeppelin/contracts/token/ERC1155/ERC1155.sol\":5594:6014   */\n    tag_519:\n      sub(shl(0xa0, 0x01), 0x01)\n        /* \"@openzeppelin/contracts/token/ERC1155/ERC1155.sol\":6032:6048   */\n      dup8\n      and\n      iszero\n        /* \"@openzeppelin/contracts/token/ERC1155/ERC1155.sol\":6028:6109   */\n      tag_523\n      jumpi\n        /* \"@openzeppelin/contracts/token/ERC1155/ERC1155.sol\":6068:6077   */\n      0x00\n        /* \"@openzeppelin/contracts/token/ERC1155/ERC1155.sol\":6068:6081   */\n      dup3\n      dup2\n      mstore\n      0x20\n      dup2\n      dup2\n      mstore\n      0x40\n      dup1\n      dup4\n      keccak256\n      sub(shl(0xa0, 0x01), 0x01)\n        /* \"@openzeppelin/contracts/token/ERC1155/ERC1155.sol\":6068:6085   */\n      dup12\n      and\n      dup5\n      mstore\n      swap1\n      swap2\n      mstore\n      dup2\n      keccak256\n        /* \"@openzeppelin/contracts/token/ERC1155/ERC1155.sol\":6068:6094   */\n      dup1\n      sload\n        /* \"@openzeppelin/contracts/token/ERC1155/ERC1155.sol\":6089:6094   */\n      dup4\n      swap3\n        /* \"@openzeppelin/contracts/token/ERC1155/ERC1155.sol\":6068:6077   */\n      swap1\n        /* \"@openzeppelin/contracts/token/ERC1155/ERC1155.sol\":6068:6094   */\n      tag_524\n      swap1\n        /* \"@openzeppelin/contracts/token/ERC1155/ERC1155.sol\":6089:6094   */\n      dup5\n      swap1\n        /* \"@openzeppelin/contracts/token/ERC1155/ERC1155.sol\":6068:6094   */\n      tag_149\n      jump\t// in\n    tag_524:\n      swap1\n      swap2\n      sstore\n      pop\n      pop\n        /* \"@openzeppelin/contracts/token/ERC1155/ERC1155.sol\":6028:6109   */\n    tag_523:\n      pop\n      pop\n        /* \"@openzeppelin/contracts/token/ERC1155/ERC1155.sol\":5464:5467   */\n      0x01\n      add\n        /* \"@openzeppelin/contracts/token/ERC1155/ERC1155.sol\":5428:6119   */\n      jump(tag_514)\n    tag_515:\n      pop\n        /* \"@openzeppelin/contracts/token/ERC1155/ERC1155.sol\":6133:6136   */\n      dup3\n        /* \"@openzeppelin/contracts/token/ERC1155/ERC1155.sol\":6133:6143   */\n      mload\n        /* \"@openzeppelin/contracts/token/ERC1155/ERC1155.sol\":6147:6148   */\n      0x01\n        /* \"@openzeppelin/contracts/token/ERC1155/ERC1155.sol\":6133:6148   */\n      sub\n        /* \"@openzeppelin/contracts/token/ERC1155/ERC1155.sol\":6129:6417   */\n      tag_525\n      jumpi\n        /* \"@openzeppelin/contracts/utils/Arrays.sol\":16302:16306   */\n      0x20\n        /* \"@openzeppelin/contracts/utils/Arrays.sol\":16273:16308   */\n      dup4\n      add\n        /* \"@openzeppelin/contracts/utils/Arrays.sol\":16267:16309   */\n      mload\n        /* \"@openzeppelin/contracts/token/ERC1155/ERC1155.sol\":6164:6174   */\n      0x00\n      swap1\n        /* \"@openzeppelin/contracts/utils/Arrays.sol\":16302:16306   */\n      0x20\n        /* \"@openzeppelin/contracts/utils/Arrays.sol\":16273:16308   */\n      dup5\n      add\n        /* \"@openzeppelin/contracts/utils/Arrays.sol\":16267:16309   */\n      mload\n        /* \"@openzeppelin/contracts/token/ERC1155/ERC1155.sol\":6164:6202   */\n      swap1\n      swap2\n      pop\n        /* \"@openzeppelin/contracts/token/ERC1155/ERC1155.sol\":6310:6312   */\n      dup6\n      sub(shl(0xa0, 0x01), 0x01)\n        /* \"@openzeppelin/contracts/token/ERC1155/ERC1155.sol\":6279:6324   */\n      and\n        /* \"@openzeppelin/contracts/token/ERC1155/ERC1155.sol\":6304:6308   */\n      dup8\n      sub(shl(0xa0, 0x01), 0x01)\n        /* \"@openzeppelin/contracts/token/ERC1155/ERC1155.sol\":6279:6324   */\n      and\n        /* \"@openzeppelin/contracts/token/ERC1155/ERC1155.sol\":6294:6302   */\n      dup5\n      sub(shl(0xa0, 0x01), 0x01)\n        /* \"@openzeppelin/contracts/token/ERC1155/ERC1155.sol\":6279:6324   */\n      and\n      0xc3d58168c5ae7397731d063d5bbf3d657854427343f4c083240f7aacaa2d0f62\n        /* \"@openzeppelin/contracts/token/ERC1155/ERC1155.sol\":6314:6316   */\n      dup6\n        /* \"@openzeppelin/contracts/token/ERC1155/ERC1155.sol\":6318:6323   */\n      dup6\n        /* \"@openzeppelin/contracts/token/ERC1155/ERC1155.sol\":6279:6324   */\n      mload(0x40)\n      tag_528\n      swap3\n      swap2\n      swap1\n        /* \"#utility.yul\":17209:17234   */\n      swap2\n      dup3\n      mstore\n        /* \"#utility.yul\":17265:17267   */\n      0x20\n        /* \"#utility.yul\":17250:17268   */\n      dup3\n      add\n        /* \"#utility.yul\":17243:17277   */\n      mstore\n        /* \"#utility.yul\":17197:17199   */\n      0x40\n        /* \"#utility.yul\":17182:17200   */\n      add\n      swap1\n        /* \"#utility.yul\":17035:17283   */\n      jump\n        /* \"@openzeppelin/contracts/token/ERC1155/ERC1155.sol\":6279:6324   */\n    tag_528:\n      mload(0x40)\n      dup1\n      swap2\n      sub\n      swap1\n      log4\n        /* \"@openzeppelin/contracts/token/ERC1155/ERC1155.sol\":6150:6335   */\n      pop\n      pop\n        /* \"@openzeppelin/contracts/token/ERC1155/ERC1155.sol\":6129:6417   */\n      jump(tag_456)\n    tag_525:\n        /* \"@openzeppelin/contracts/token/ERC1155/ERC1155.sol\":6390:6392   */\n      dup4\n      sub(shl(0xa0, 0x01), 0x01)\n        /* \"@openzeppelin/contracts/token/ERC1155/ERC1155.sol\":6360:6406   */\n      and\n        /* \"@openzeppelin/contracts/token/ERC1155/ERC1155.sol\":6384:6388   */\n      dup6\n      sub(shl(0xa0, 0x01), 0x01)\n        /* \"@openzeppelin/contracts/token/ERC1155/ERC1155.sol\":6360:6406   */\n      and\n        /* \"@openzeppelin/contracts/token/ERC1155/ERC1155.sol\":6374:6382   */\n      dup3\n      sub(shl(0xa0, 0x01), 0x01)\n        /* \"@openzeppelin/contracts/token/ERC1155/ERC1155.sol\":6360:6406   */\n      and\n      0x4a39dc06d4c0dbc64b70af90fd698a233a518aa5d07e595d983b8c0526c8f7fb\n        /* \"@openzeppelin/contracts/token/ERC1155/ERC1155.sol\":6394:6397   */\n      dup7\n        /* \"@openzeppelin/contracts/token/ERC1155/ERC1155.sol\":6399:6405   */\n      dup7\n        /* \"@openzeppelin/contracts/token/ERC1155/ERC1155.sol\":6360:6406   */\n      mload(0x40)\n      tag_530\n      swap3\n      swap2\n      swap1\n      tag_531\n      jump\t// in\n    tag_530:\n      mload(0x40)\n      dup1\n      swap2\n      sub\n      swap1\n      log4\n        /* \"@openzeppelin/contracts/token/ERC1155/ERC1155.sol\":5249:6423   */\n      pop\n        /* \"@openzeppelin/contracts/token/ERC1155/ERC1155.sol\":5142:6423   */\n      pop\n      pop\n      pop\n      pop\n      jump\t// out\n        /* \"@openzeppelin/contracts/token/ERC1155/utils/ERC1155Utils.sol\":1006:1965   */\n    tag_506:\n      sub(shl(0xa0, 0x01), 0x01)\n        /* \"@openzeppelin/contracts/token/ERC1155/utils/ERC1155Utils.sol\":1205:1219   */\n      dup5\n      and\n      extcodesize\n        /* \"@openzeppelin/contracts/token/ERC1155/utils/ERC1155Utils.sol\":1205:1223   */\n      iszero\n        /* \"@openzeppelin/contracts/token/ERC1155/utils/ERC1155Utils.sol\":1201:1959   */\n      tag_198\n      jumpi\n        /* \"@openzeppelin/contracts/token/ERC1155/utils/ERC1155Utils.sol\":1243:1314   */\n      mload(0x40)\n      shl(0xe0, 0xf23a6e61)\n      dup2\n      mstore\n      sub(shl(0xa0, 0x01), 0x01)\n        /* \"@openzeppelin/contracts/token/ERC1155/utils/ERC1155Utils.sol\":1243:1281   */\n      dup6\n      and\n      swap1\n      0xf23a6e61\n      swap1\n        /* \"@openzeppelin/contracts/token/ERC1155/utils/ERC1155Utils.sol\":1243:1314   */\n      tag_534\n      swap1\n        /* \"@openzeppelin/contracts/token/ERC1155/utils/ERC1155Utils.sol\":1282:1290   */\n      dup10\n      swap1\n        /* \"@openzeppelin/contracts/token/ERC1155/utils/ERC1155Utils.sol\":1292:1296   */\n      dup10\n      swap1\n        /* \"@openzeppelin/contracts/token/ERC1155/utils/ERC1155Utils.sol\":1298:1300   */\n      dup9\n      swap1\n        /* \"@openzeppelin/contracts/token/ERC1155/utils/ERC1155Utils.sol\":1302:1307   */\n      dup9\n      swap1\n        /* \"@openzeppelin/contracts/token/ERC1155/utils/ERC1155Utils.sol\":1309:1313   */\n      dup9\n      swap1\n        /* \"@openzeppelin/contracts/token/ERC1155/utils/ERC1155Utils.sol\":1243:1314   */\n      0x04\n      add\n      tag_535\n      jump\t// in\n    tag_534:\n      0x20\n      mload(0x40)\n      dup1\n      dup4\n      sub\n      dup2\n      0x00\n      dup8\n      gas\n      call\n      swap3\n      pop\n      pop\n      pop\n      dup1\n      iszero\n      tag_536\n      jumpi\n      pop\n      0x40\n      dup1\n      mload\n      0x1f\n      returndatasize\n      swap1\n      dup2\n      add\n      not(0x1f)\n      and\n      dup3\n      add\n      swap1\n      swap3\n      mstore\n      tag_537\n      swap2\n      dup2\n      add\n      swap1\n      tag_538\n      jump\t// in\n    tag_537:\n      0x01\n    tag_536:\n        /* \"@openzeppelin/contracts/token/ERC1155/utils/ERC1155Utils.sol\":1239:1949   */\n      tag_539\n      jumpi\n      returndatasize\n      dup1\n      dup1\n      iszero\n      tag_544\n      jumpi\n      mload(0x40)\n      swap2\n      pop\n      and(add(returndatasize, 0x3f), not(0x1f))\n      dup3\n      add\n      0x40\n      mstore\n      returndatasize\n      dup3\n      mstore\n      returndatasize\n      0x00\n      0x20\n      dup5\n      add\n      returndatacopy\n      jump(tag_543)\n    tag_544:\n      0x60\n      swap2\n      pop\n    tag_543:\n      pop\n        /* \"@openzeppelin/contracts/token/ERC1155/utils/ERC1155Utils.sol\":1613:1619   */\n      dup1\n        /* \"@openzeppelin/contracts/token/ERC1155/utils/ERC1155Utils.sol\":1613:1626   */\n      mload\n        /* \"@openzeppelin/contracts/token/ERC1155/utils/ERC1155Utils.sol\":1630:1631   */\n      0x00\n        /* \"@openzeppelin/contracts/token/ERC1155/utils/ERC1155Utils.sol\":1613:1631   */\n      sub\n        /* \"@openzeppelin/contracts/token/ERC1155/utils/ERC1155Utils.sol\":1609:1935   */\n      tag_545\n      jumpi\n        /* \"@openzeppelin/contracts/token/ERC1155/utils/ERC1155Utils.sol\":1718:1759   */\n      mload(0x40)\n      shl(0xe1, 0x2bfa23e7)\n      dup2\n      mstore\n      sub(shl(0xa0, 0x01), 0x01)\n        /* \"#utility.yul\":26141:26196   */\n      dup7\n      and\n        /* \"@openzeppelin/contracts/token/ERC1155/utils/ERC1155Utils.sol\":1718:1759   */\n      0x04\n      dup3\n      add\n        /* \"#utility.yul\":26123:26197   */\n      mstore\n        /* \"#utility.yul\":26096:26114   */\n      0x24\n      add\n        /* \"@openzeppelin/contracts/token/ERC1155/utils/ERC1155Utils.sol\":1718:1759   */\n      tag_120\n        /* \"#utility.yul\":25977:26203   */\n      jump\n        /* \"@openzeppelin/contracts/token/ERC1155/utils/ERC1155Utils.sol\":1609:1935   */\n    tag_545:\n        /* \"@openzeppelin/contracts/token/ERC1155/utils/ERC1155Utils.sol\":1887:1893   */\n      dup1\n        /* \"@openzeppelin/contracts/token/ERC1155/utils/ERC1155Utils.sol\":1881:1894   */\n      mload\n        /* \"@openzeppelin/contracts/token/ERC1155/utils/ERC1155Utils.sol\":1872:1878   */\n      dup2\n        /* \"@openzeppelin/contracts/token/ERC1155/utils/ERC1155Utils.sol\":1868:1870   */\n      0x20\n        /* \"@openzeppelin/contracts/token/ERC1155/utils/ERC1155Utils.sol\":1864:1879   */\n      add\n        /* \"@openzeppelin/contracts/token/ERC1155/utils/ERC1155Utils.sol\":1857:1895   */\n      revert\n        /* \"@openzeppelin/contracts/token/ERC1155/utils/ERC1155Utils.sol\":1239:1949   */\n    tag_539:\n      not(sub(shl(0xe0, 0x01), 0x01))\n        /* \"@openzeppelin/contracts/token/ERC1155/utils/ERC1155Utils.sol\":1363:1418   */\n      dup2\n      and\n      shl(0xe0, 0xf23a6e61)\n      eq\n        /* \"@openzeppelin/contracts/token/ERC1155/utils/ERC1155Utils.sol\":1359:1548   */\n      tag_494\n      jumpi\n        /* \"@openzeppelin/contracts/token/ERC1155/utils/ERC1155Utils.sol\":1488:1529   */\n      mload(0x40)\n      shl(0xe1, 0x2bfa23e7)\n      dup2\n      mstore\n      sub(shl(0xa0, 0x01), 0x01)\n        /* \"#utility.yul\":26141:26196   */\n      dup7\n      and\n        /* \"@openzeppelin/contracts/token/ERC1155/utils/ERC1155Utils.sol\":1488:1529   */\n      0x04\n      dup3\n      add\n        /* \"#utility.yul\":26123:26197   */\n      mstore\n        /* \"#utility.yul\":26096:26114   */\n      0x24\n      add\n        /* \"@openzeppelin/contracts/token/ERC1155/utils/ERC1155Utils.sol\":1488:1529   */\n      tag_120\n        /* \"#utility.yul\":25977:26203   */\n      jump\n        /* \"@openzeppelin/contracts/token/ERC1155/utils/ERC1155Utils.sol\":2521:3547   */\n    tag_509:\n      sub(shl(0xa0, 0x01), 0x01)\n        /* \"@openzeppelin/contracts/token/ERC1155/utils/ERC1155Utils.sol\":2745:2759   */\n      dup5\n      and\n      extcodesize\n        /* \"@openzeppelin/contracts/token/ERC1155/utils/ERC1155Utils.sol\":2745:2763   */\n      iszero\n        /* \"@openzeppelin/contracts/token/ERC1155/utils/ERC1155Utils.sol\":2741:3541   */\n      tag_198\n      jumpi\n        /* \"@openzeppelin/contracts/token/ERC1155/utils/ERC1155Utils.sol\":2783:2861   */\n      mload(0x40)\n      shl(0xe0, 0xbc197c81)\n      dup2\n      mstore\n      sub(shl(0xa0, 0x01), 0x01)\n        /* \"@openzeppelin/contracts/token/ERC1155/utils/ERC1155Utils.sol\":2783:2826   */\n      dup6\n      and\n      swap1\n      0xbc197c81\n      swap1\n        /* \"@openzeppelin/contracts/token/ERC1155/utils/ERC1155Utils.sol\":2783:2861   */\n      tag_553\n      swap1\n        /* \"@openzeppelin/contracts/token/ERC1155/utils/ERC1155Utils.sol\":2827:2835   */\n      dup10\n      swap1\n        /* \"@openzeppelin/contracts/token/ERC1155/utils/ERC1155Utils.sol\":2837:2841   */\n      dup10\n      swap1\n        /* \"@openzeppelin/contracts/token/ERC1155/utils/ERC1155Utils.sol\":2843:2846   */\n      dup9\n      swap1\n        /* \"@openzeppelin/contracts/token/ERC1155/utils/ERC1155Utils.sol\":2848:2854   */\n      dup9\n      swap1\n        /* \"@openzeppelin/contracts/token/ERC1155/utils/ERC1155Utils.sol\":2856:2860   */\n      dup9\n      swap1\n        /* \"@openzeppelin/contracts/token/ERC1155/utils/ERC1155Utils.sol\":2783:2861   */\n      0x04\n      add\n      tag_554\n      jump\t// in\n    tag_553:\n      0x20\n      mload(0x40)\n      dup1\n      dup4\n      sub\n      dup2\n      0x00\n      dup8\n      gas\n      call\n      swap3\n      pop\n      pop\n      pop\n      dup1\n      iszero\n      tag_555\n      jumpi\n      pop\n      0x40\n      dup1\n      mload\n      0x1f\n      returndatasize\n      swap1\n      dup2\n      add\n      not(0x1f)\n      and\n      dup3\n      add\n      swap1\n      swap3\n      mstore\n      tag_556\n      swap2\n      dup2\n      add\n      swap1\n      tag_538\n      jump\t// in\n    tag_556:\n      0x01\n    tag_555:\n        /* \"@openzeppelin/contracts/token/ERC1155/utils/ERC1155Utils.sol\":2779:3531   */\n      tag_557\n      jumpi\n      returndatasize\n      dup1\n      dup1\n      iszero\n      tag_544\n      jumpi\n      mload(0x40)\n      swap2\n      pop\n      and(add(returndatasize, 0x3f), not(0x1f))\n      dup3\n      add\n      0x40\n      mstore\n      returndatasize\n      dup3\n      mstore\n      returndatasize\n      0x00\n      0x20\n      dup5\n      add\n      returndatacopy\n      jump(tag_543)\n    tag_557:\n      not(sub(shl(0xe0, 0x01), 0x01))\n        /* \"@openzeppelin/contracts/token/ERC1155/utils/ERC1155Utils.sol\":2940:3000   */\n      dup2\n      and\n      shl(0xe0, 0xbc197c81)\n      eq\n        /* \"@openzeppelin/contracts/token/ERC1155/utils/ERC1155Utils.sol\":2936:3130   */\n      tag_494\n      jumpi\n        /* \"@openzeppelin/contracts/token/ERC1155/utils/ERC1155Utils.sol\":3070:3111   */\n      mload(0x40)\n      shl(0xe1, 0x2bfa23e7)\n      dup2\n      mstore\n      sub(shl(0xa0, 0x01), 0x01)\n        /* \"#utility.yul\":26141:26196   */\n      dup7\n      and\n        /* \"@openzeppelin/contracts/token/ERC1155/utils/ERC1155Utils.sol\":3070:3111   */\n      0x04\n      dup3\n      add\n        /* \"#utility.yul\":26123:26197   */\n      mstore\n        /* \"#utility.yul\":26096:26114   */\n      0x24\n      add\n        /* \"@openzeppelin/contracts/token/ERC1155/utils/ERC1155Utils.sol\":3070:3111   */\n      tag_120\n        /* \"#utility.yul\":25977:26203   */\n      jump\n    tag_375:\n      dup3\n      dup1\n      sload\n      dup3\n      dup3\n      sstore\n      swap1\n      0x00\n      mstore\n      keccak256(0x00, 0x20)\n      swap1\n      dup2\n      add\n      swap3\n      dup3\n      iszero\n      tag_571\n      jumpi\n      swap2\n      0x20\n      mul\n      dup3\n      add\n    tag_570:\n      dup3\n      dup2\n      gt\n      iszero\n      tag_571\n      jumpi\n      dup3\n      mload\n      dup3\n      sstore\n      swap2\n      0x20\n      add\n      swap2\n      swap1\n      0x01\n      add\n      swap1\n      jump(tag_570)\n    tag_571:\n      pop\n      tag_572\n      swap3\n      swap2\n      pop\n      tag_573\n      jump\t// in\n    tag_572:\n      pop\n      swap1\n      jump\t// out\n    tag_573:\n    tag_574:\n      dup1\n      dup3\n      gt\n      iszero\n      tag_572\n      jumpi\n      0x00\n      dup2\n      sstore\n      0x01\n      add\n      jump(tag_574)\n        /* \"#utility.yul\":14:168   */\n    tag_576:\n      sub(shl(0xa0, 0x01), 0x01)\n        /* \"#utility.yul\":93:98   */\n      dup2\n        /* \"#utility.yul\":89:143   */\n      and\n        /* \"#utility.yul\":82:87   */\n      dup2\n        /* \"#utility.yul\":79:144   */\n      eq\n        /* \"#utility.yul\":69:162   */\n      tag_590\n      jumpi\n        /* \"#utility.yul\":158:159   */\n      0x00\n        /* \"#utility.yul\":155:156   */\n      dup1\n        /* \"#utility.yul\":148:160   */\n      revert\n        /* \"#utility.yul\":69:162   */\n    tag_590:\n        /* \"#utility.yul\":14:168   */\n      pop\n      jump\t// out\n        /* \"#utility.yul\":173:488   */\n    tag_30:\n        /* \"#utility.yul\":241:247   */\n      0x00\n        /* \"#utility.yul\":249:255   */\n      dup1\n        /* \"#utility.yul\":302:304   */\n      0x40\n        /* \"#utility.yul\":290:299   */\n      dup4\n        /* \"#utility.yul\":281:288   */\n      dup6\n        /* \"#utility.yul\":277:300   */\n      sub\n        /* \"#utility.yul\":273:305   */\n      slt\n        /* \"#utility.yul\":270:322   */\n      iszero\n      tag_592\n      jumpi\n        /* \"#utility.yul\":318:319   */\n      0x00\n        /* \"#utility.yul\":315:316   */\n      dup1\n        /* \"#utility.yul\":308:320   */\n      revert\n        /* \"#utility.yul\":270:322   */\n    tag_592:\n        /* \"#utility.yul\":357:366   */\n      dup3\n        /* \"#utility.yul\":344:367   */\n      calldataload\n        /* \"#utility.yul\":376:407   */\n      tag_593\n        /* \"#utility.yul\":401:406   */\n      dup2\n        /* \"#utility.yul\":376:407   */\n      tag_576\n      jump\t// in\n    tag_593:\n        /* \"#utility.yul\":426:431   */\n      swap5\n        /* \"#utility.yul\":478:480   */\n      0x20\n        /* \"#utility.yul\":463:481   */\n      swap4\n      swap1\n      swap4\n      add\n        /* \"#utility.yul\":450:482   */\n      calldataload\n      swap4\n      pop\n      pop\n      pop\n        /* \"#utility.yul\":173:488   */\n      jump\t// out\n        /* \"#utility.yul\":675:1042   */\n    tag_577:\n        /* \"#utility.yul\":738:746   */\n      0x00\n        /* \"#utility.yul\":748:754   */\n      dup1\n        /* \"#utility.yul\":802:805   */\n      dup4\n        /* \"#utility.yul\":795:799   */\n      0x1f\n        /* \"#utility.yul\":787:793   */\n      dup5\n        /* \"#utility.yul\":783:800   */\n      add\n        /* \"#utility.yul\":779:806   */\n      slt\n        /* \"#utility.yul\":769:824   */\n      tag_596\n      jumpi\n        /* \"#utility.yul\":820:821   */\n      0x00\n        /* \"#utility.yul\":817:818   */\n      dup1\n        /* \"#utility.yul\":810:822   */\n      revert\n        /* \"#utility.yul\":769:824   */\n    tag_596:\n      pop\n        /* \"#utility.yul\":843:863   */\n      dup2\n      calldataload\n        /* \"#utility.yul\":886:904   */\n      0xffffffffffffffff\n        /* \"#utility.yul\":875:905   */\n      dup2\n      gt\n        /* \"#utility.yul\":872:922   */\n      iszero\n      tag_597\n      jumpi\n        /* \"#utility.yul\":918:919   */\n      0x00\n        /* \"#utility.yul\":915:916   */\n      dup1\n        /* \"#utility.yul\":908:920   */\n      revert\n        /* \"#utility.yul\":872:922   */\n    tag_597:\n        /* \"#utility.yul\":955:959   */\n      0x20\n        /* \"#utility.yul\":947:953   */\n      dup4\n        /* \"#utility.yul\":943:960   */\n      add\n        /* \"#utility.yul\":931:960   */\n      swap2\n      pop\n        /* \"#utility.yul\":1015:1018   */\n      dup4\n        /* \"#utility.yul\":1008:1012   */\n      0x20\n        /* \"#utility.yul\":998:1004   */\n      dup3\n        /* \"#utility.yul\":995:996   */\n      0x05\n        /* \"#utility.yul\":991:1005   */\n      shl\n        /* \"#utility.yul\":983:989   */\n      dup6\n        /* \"#utility.yul\":979:1006   */\n      add\n        /* \"#utility.yul\":975:1013   */\n      add\n        /* \"#utility.yul\":972:1019   */\n      gt\n        /* \"#utility.yul\":969:1036   */\n      iszero\n      tag_598\n      jumpi\n        /* \"#utility.yul\":1032:1033   */\n      0x00\n        /* \"#utility.yul\":1029:1030   */\n      dup1\n        /* \"#utility.yul\":1022:1034   */\n      revert\n        /* \"#utility.yul\":969:1036   */\n    tag_598:\n        /* \"#utility.yul\":675:1042   */\n      swap3\n      pop\n      swap3\n      swap1\n      pop\n      jump\t// out\n        /* \"#utility.yul\":1047:1771   */\n    tag_36:\n        /* \"#utility.yul\":1175:1181   */\n      0x00\n        /* \"#utility.yul\":1183:1189   */\n      dup1\n        /* \"#utility.yul\":1191:1197   */\n      0x00\n        /* \"#utility.yul\":1199:1205   */\n      dup1\n        /* \"#utility.yul\":1207:1213   */\n      0x00\n        /* \"#utility.yul\":1260:1263   */\n      0x80\n        /* \"#utility.yul\":1248:1257   */\n      dup7\n        /* \"#utility.yul\":1239:1246   */\n      dup9\n        /* \"#utility.yul\":1235:1258   */\n      sub\n        /* \"#utility.yul\":1231:1264   */\n      slt\n        /* \"#utility.yul\":1228:1281   */\n      iszero\n      tag_600\n      jumpi\n        /* \"#utility.yul\":1277:1278   */\n      0x00\n        /* \"#utility.yul\":1274:1275   */\n      dup1\n        /* \"#utility.yul\":1267:1279   */\n      revert\n        /* \"#utility.yul\":1228:1281   */\n    tag_600:\n        /* \"#utility.yul\":1316:1325   */\n      dup6\n        /* \"#utility.yul\":1303:1326   */\n      calldataload\n        /* \"#utility.yul\":1335:1366   */\n      tag_601\n        /* \"#utility.yul\":1360:1365   */\n      dup2\n        /* \"#utility.yul\":1335:1366   */\n      tag_576\n      jump\t// in\n    tag_601:\n        /* \"#utility.yul\":1385:1390   */\n      swap5\n      pop\n        /* \"#utility.yul\":1437:1439   */\n      0x20\n        /* \"#utility.yul\":1422:1440   */\n      dup7\n      add\n        /* \"#utility.yul\":1409:1441   */\n      calldataload\n      swap4\n      pop\n        /* \"#utility.yul\":1488:1490   */\n      0x40\n        /* \"#utility.yul\":1473:1491   */\n      dup7\n      add\n        /* \"#utility.yul\":1460:1492   */\n      calldataload\n      swap3\n      pop\n        /* \"#utility.yul\":1543:1545   */\n      0x60\n        /* \"#utility.yul\":1528:1546   */\n      dup7\n      add\n        /* \"#utility.yul\":1515:1547   */\n      calldataload\n        /* \"#utility.yul\":1570:1588   */\n      0xffffffffffffffff\n        /* \"#utility.yul\":1559:1589   */\n      dup2\n      gt\n        /* \"#utility.yul\":1556:1606   */\n      iszero\n      tag_602\n      jumpi\n        /* \"#utility.yul\":1602:1603   */\n      0x00\n        /* \"#utility.yul\":1599:1600   */\n      dup1\n        /* \"#utility.yul\":1592:1604   */\n      revert\n        /* \"#utility.yul\":1556:1606   */\n    tag_602:\n        /* \"#utility.yul\":1641:1711   */\n      tag_603\n        /* \"#utility.yul\":1703:1710   */\n      dup9\n        /* \"#utility.yul\":1694:1700   */\n      dup3\n        /* \"#utility.yul\":1683:1692   */\n      dup10\n        /* \"#utility.yul\":1679:1701   */\n      add\n        /* \"#utility.yul\":1641:1711   */\n      tag_577\n      jump\t// in\n    tag_603:\n        /* \"#utility.yul\":1047:1771   */\n      swap7\n      swap10\n      swap6\n      swap9\n      pop\n      swap4\n      swap7\n      pop\n        /* \"#utility.yul\":1730:1738   */\n      swap3\n      swap5\n        /* \"#utility.yul\":1615:1711   */\n      swap4\n        /* \"#utility.yul\":1047:1771   */\n      swap3\n      pop\n      pop\n      pop\n      jump\t// out\n        /* \"#utility.yul\":1776:1907   */\n    tag_578:\n      not(sub(shl(0xe0, 0x01), 0x01))\n        /* \"#utility.yul\":1850:1882   */\n      dup2\n      and\n        /* \"#utility.yul\":1840:1883   */\n      dup2\n      eq\n        /* \"#utility.yul\":1830:1901   */\n      tag_590\n      jumpi\n        /* \"#utility.yul\":1897:1898   */\n      0x00\n        /* \"#utility.yul\":1894:1895   */\n      dup1\n        /* \"#utility.yul\":1887:1899   */\n      revert\n        /* \"#utility.yul\":1912:2157   */\n    tag_40:\n        /* \"#utility.yul\":1970:1976   */\n      0x00\n        /* \"#utility.yul\":2023:2025   */\n      0x20\n        /* \"#utility.yul\":2011:2020   */\n      dup3\n        /* \"#utility.yul\":2002:2009   */\n      dup5\n        /* \"#utility.yul\":1998:2021   */\n      sub\n        /* \"#utility.yul\":1994:2026   */\n      slt\n        /* \"#utility.yul\":1991:2043   */\n      iszero\n      tag_607\n      jumpi\n        /* \"#utility.yul\":2039:2040   */\n      0x00\n        /* \"#utility.yul\":2036:2037   */\n      dup1\n        /* \"#utility.yul\":2029:2041   */\n      revert\n        /* \"#utility.yul\":1991:2043   */\n    tag_607:\n        /* \"#utility.yul\":2078:2087   */\n      dup2\n        /* \"#utility.yul\":2065:2088   */\n      calldataload\n        /* \"#utility.yul\":2097:2127   */\n      tag_201\n        /* \"#utility.yul\":2121:2126   */\n      dup2\n        /* \"#utility.yul\":2097:2127   */\n      tag_578\n      jump\t// in\n        /* \"#utility.yul\":2354:2602   */\n    tag_46:\n        /* \"#utility.yul\":2422:2428   */\n      0x00\n        /* \"#utility.yul\":2430:2436   */\n      dup1\n        /* \"#utility.yul\":2483:2485   */\n      0x40\n        /* \"#utility.yul\":2471:2480   */\n      dup4\n        /* \"#utility.yul\":2462:2469   */\n      dup6\n        /* \"#utility.yul\":2458:2481   */\n      sub\n        /* \"#utility.yul\":2454:2486   */\n      slt\n        /* \"#utility.yul\":2451:2503   */\n      iszero\n      tag_611\n      jumpi\n        /* \"#utility.yul\":2499:2500   */\n      0x00\n        /* \"#utility.yul\":2496:2497   */\n      dup1\n        /* \"#utility.yul\":2489:2501   */\n      revert\n        /* \"#utility.yul\":2451:2503   */\n    tag_611:\n      pop\n      pop\n        /* \"#utility.yul\":2522:2545   */\n      dup1\n      calldataload\n      swap3\n        /* \"#utility.yul\":2592:2594   */\n      0x20\n        /* \"#utility.yul\":2577:2595   */\n      swap1\n      swap2\n      add\n        /* \"#utility.yul\":2564:2596   */\n      calldataload\n      swap2\n      pop\n        /* \"#utility.yul\":2354:2602   */\n      jump\t// out\n        /* \"#utility.yul\":2607:2787   */\n    tag_51:\n        /* \"#utility.yul\":2666:2672   */\n      0x00\n        /* \"#utility.yul\":2719:2721   */\n      0x20\n        /* \"#utility.yul\":2707:2716   */\n      dup3\n        /* \"#utility.yul\":2698:2705   */\n      dup5\n        /* \"#utility.yul\":2694:2717   */\n      sub\n        /* \"#utility.yul\":2690:2722   */\n      slt\n        /* \"#utility.yul\":2687:2739   */\n      iszero\n      tag_613\n      jumpi\n        /* \"#utility.yul\":2735:2736   */\n      0x00\n        /* \"#utility.yul\":2732:2733   */\n      dup1\n        /* \"#utility.yul\":2725:2737   */\n      revert\n        /* \"#utility.yul\":2687:2739   */\n    tag_613:\n      pop\n        /* \"#utility.yul\":2758:2781   */\n      calldataload\n      swap2\n        /* \"#utility.yul\":2607:2787   */\n      swap1\n      pop\n      jump\t// out\n        /* \"#utility.yul\":2792:3081   */\n    tag_579:\n        /* \"#utility.yul\":2834:2837   */\n      0x00\n        /* \"#utility.yul\":2872:2877   */\n      dup2\n        /* \"#utility.yul\":2866:2878   */\n      mload\n        /* \"#utility.yul\":2899:2905   */\n      dup1\n        /* \"#utility.yul\":2894:2897   */\n      dup5\n        /* \"#utility.yul\":2887:2906   */\n      mstore\n        /* \"#utility.yul\":2955:2961   */\n      dup1\n        /* \"#utility.yul\":2948:2952   */\n      0x20\n        /* \"#utility.yul\":2941:2946   */\n      dup5\n        /* \"#utility.yul\":2937:2953   */\n      add\n        /* \"#utility.yul\":2930:2934   */\n      0x20\n        /* \"#utility.yul\":2925:2928   */\n      dup7\n        /* \"#utility.yul\":2921:2935   */\n      add\n        /* \"#utility.yul\":2915:2962   */\n      mcopy\n        /* \"#utility.yul\":3007:3008   */\n      0x00\n        /* \"#utility.yul\":3000:3004   */\n      0x20\n        /* \"#utility.yul\":2991:2997   */\n      dup3\n        /* \"#utility.yul\":2986:2989   */\n      dup7\n        /* \"#utility.yul\":2982:2998   */\n      add\n        /* \"#utility.yul\":2978:3005   */\n      add\n        /* \"#utility.yul\":2971:3009   */\n      mstore\n        /* \"#utility.yul\":3070:3074   */\n      0x20\n        /* \"#utility.yul\":3063:3065   */\n      0x1f\n        /* \"#utility.yul\":3059:3066   */\n      not\n        /* \"#utility.yul\":3054:3056   */\n      0x1f\n        /* \"#utility.yul\":3046:3052   */\n      dup4\n        /* \"#utility.yul\":3042:3057   */\n      add\n        /* \"#utility.yul\":3038:3067   */\n      and\n        /* \"#utility.yul\":3033:3036   */\n      dup6\n        /* \"#utility.yul\":3029:3068   */\n      add\n        /* \"#utility.yul\":3025:3075   */\n      add\n        /* \"#utility.yul\":3018:3075   */\n      swap2\n      pop\n      pop\n        /* \"#utility.yul\":2792:3081   */\n      swap3\n      swap2\n      pop\n      pop\n      jump\t// out\n        /* \"#utility.yul\":3086:3306   */\n    tag_54:\n        /* \"#utility.yul\":3235:3237   */\n      0x20\n        /* \"#utility.yul\":3224:3233   */\n      dup2\n        /* \"#utility.yul\":3217:3238   */\n      mstore\n        /* \"#utility.yul\":3198:3202   */\n      0x00\n        /* \"#utility.yul\":3255:3300   */\n      tag_201\n        /* \"#utility.yul\":3296:3298   */\n      0x20\n        /* \"#utility.yul\":3285:3294   */\n      dup4\n        /* \"#utility.yul\":3281:3299   */\n      add\n        /* \"#utility.yul\":3273:3279   */\n      dup5\n        /* \"#utility.yul\":3255:3300   */\n      tag_579\n      jump\t// in\n        /* \"#utility.yul\":3311:3438   */\n    tag_208:\n        /* \"#utility.yul\":3372:3382   */\n      0x4e487b71\n        /* \"#utility.yul\":3367:3370   */\n      0xe0\n        /* \"#utility.yul\":3363:3383   */\n      shl\n        /* \"#utility.yul\":3360:3361   */\n      0x00\n        /* \"#utility.yul\":3353:3384   */\n      mstore\n        /* \"#utility.yul\":3403:3407   */\n      0x41\n        /* \"#utility.yul\":3400:3401   */\n      0x04\n        /* \"#utility.yul\":3393:3408   */\n      mstore\n        /* \"#utility.yul\":3427:3431   */\n      0x24\n        /* \"#utility.yul\":3424:3425   */\n      0x00\n        /* \"#utility.yul\":3417:3432   */\n      revert\n        /* \"#utility.yul\":3443:3718   */\n    tag_580:\n        /* \"#utility.yul\":3514:3516   */\n      0x40\n        /* \"#utility.yul\":3508:3517   */\n      mload\n        /* \"#utility.yul\":3579:3581   */\n      0x1f\n        /* \"#utility.yul\":3560:3573   */\n      dup3\n      add\n      not(0x1f)\n        /* \"#utility.yul\":3556:3583   */\n      and\n        /* \"#utility.yul\":3544:3584   */\n      dup2\n      add\n        /* \"#utility.yul\":3614:3632   */\n      0xffffffffffffffff\n        /* \"#utility.yul\":3599:3633   */\n      dup2\n      gt\n        /* \"#utility.yul\":3635:3657   */\n      dup3\n      dup3\n      lt\n        /* \"#utility.yul\":3596:3658   */\n      or\n        /* \"#utility.yul\":3593:3681   */\n      iszero\n      tag_620\n      jumpi\n        /* \"#utility.yul\":3661:3679   */\n      tag_620\n      tag_208\n      jump\t// in\n    tag_620:\n        /* \"#utility.yul\":3697:3699   */\n      0x40\n        /* \"#utility.yul\":3690:3712   */\n      mstore\n        /* \"#utility.yul\":3443:3718   */\n      swap2\n      swap1\n      pop\n      jump\t// out\n        /* \"#utility.yul\":3723:3906   */\n    tag_581:\n        /* \"#utility.yul\":3783:3787   */\n      0x00\n        /* \"#utility.yul\":3816:3834   */\n      0xffffffffffffffff\n        /* \"#utility.yul\":3808:3814   */\n      dup3\n        /* \"#utility.yul\":3805:3835   */\n      gt\n        /* \"#utility.yul\":3802:3858   */\n      iszero\n      tag_623\n      jumpi\n        /* \"#utility.yul\":3838:3856   */\n      tag_623\n      tag_208\n      jump\t// in\n    tag_623:\n      pop\n        /* \"#utility.yul\":3883:3884   */\n      0x05\n        /* \"#utility.yul\":3879:3893   */\n      shl\n        /* \"#utility.yul\":3895:3899   */\n      0x20\n        /* \"#utility.yul\":3875:3900   */\n      add\n      swap1\n        /* \"#utility.yul\":3723:3906   */\n      jump\t// out\n        /* \"#utility.yul\":3911:4579   */\n    tag_582:\n        /* \"#utility.yul\":3965:3970   */\n      0x00\n        /* \"#utility.yul\":4018:4021   */\n      dup3\n        /* \"#utility.yul\":4011:4015   */\n      0x1f\n        /* \"#utility.yul\":4003:4009   */\n      dup4\n        /* \"#utility.yul\":3999:4016   */\n      add\n        /* \"#utility.yul\":3995:4022   */\n      slt\n        /* \"#utility.yul\":3985:4040   */\n      tag_625\n      jumpi\n        /* \"#utility.yul\":4036:4037   */\n      0x00\n        /* \"#utility.yul\":4033:4034   */\n      dup1\n        /* \"#utility.yul\":4026:4038   */\n      revert\n        /* \"#utility.yul\":3985:4040   */\n    tag_625:\n        /* \"#utility.yul\":4072:4078   */\n      dup2\n        /* \"#utility.yul\":4059:4079   */\n      calldataload\n        /* \"#utility.yul\":4098:4102   */\n      0x20\n        /* \"#utility.yul\":4122:4182   */\n      tag_626\n        /* \"#utility.yul\":4138:4181   */\n      tag_627\n        /* \"#utility.yul\":4178:4180   */\n      dup4\n        /* \"#utility.yul\":4138:4181   */\n      tag_581\n      jump\t// in\n    tag_627:\n        /* \"#utility.yul\":4122:4182   */\n      tag_580\n      jump\t// in\n    tag_626:\n        /* \"#utility.yul\":4204:4207   */\n      dup1\n        /* \"#utility.yul\":4228:4230   */\n      dup4\n        /* \"#utility.yul\":4223:4226   */\n      dup3\n        /* \"#utility.yul\":4216:4231   */\n      mstore\n        /* \"#utility.yul\":4256:4260   */\n      0x20\n        /* \"#utility.yul\":4251:4254   */\n      dup3\n        /* \"#utility.yul\":4247:4261   */\n      add\n        /* \"#utility.yul\":4240:4261   */\n      swap2\n      pop\n        /* \"#utility.yul\":4313:4317   */\n      0x20\n        /* \"#utility.yul\":4307:4309   */\n      dup5\n        /* \"#utility.yul\":4304:4305   */\n      0x05\n        /* \"#utility.yul\":4300:4310   */\n      shl\n        /* \"#utility.yul\":4292:4298   */\n      dup8\n        /* \"#utility.yul\":4288:4311   */\n      add\n        /* \"#utility.yul\":4284:4318   */\n      add\n        /* \"#utility.yul\":4270:4318   */\n      swap4\n      pop\n        /* \"#utility.yul\":4341:4344   */\n      dup7\n        /* \"#utility.yul\":4333:4339   */\n      dup5\n        /* \"#utility.yul\":4330:4345   */\n      gt\n        /* \"#utility.yul\":4327:4362   */\n      iszero\n      tag_628\n      jumpi\n        /* \"#utility.yul\":4358:4359   */\n      0x00\n        /* \"#utility.yul\":4355:4356   */\n      dup1\n        /* \"#utility.yul\":4348:4360   */\n      revert\n        /* \"#utility.yul\":4327:4362   */\n    tag_628:\n        /* \"#utility.yul\":4394:4398   */\n      0x20\n        /* \"#utility.yul\":4386:4392   */\n      dup7\n        /* \"#utility.yul\":4382:4399   */\n      add\n        /* \"#utility.yul\":4408:4550   */\n    tag_629:\n        /* \"#utility.yul\":4424:4430   */\n      dup5\n        /* \"#utility.yul\":4419:4422   */\n      dup2\n        /* \"#utility.yul\":4416:4431   */\n      lt\n        /* \"#utility.yul\":4408:4550   */\n      iszero\n      tag_631\n      jumpi\n        /* \"#utility.yul\":4490:4507   */\n      dup1\n      calldataload\n        /* \"#utility.yul\":4478:4508   */\n      dup4\n      mstore\n        /* \"#utility.yul\":4528:4540   */\n      swap2\n      dup4\n      add\n      swap2\n        /* \"#utility.yul\":4441:4453   */\n      dup4\n      add\n        /* \"#utility.yul\":4408:4550   */\n      jump(tag_629)\n    tag_631:\n      pop\n        /* \"#utility.yul\":4568:4573   */\n      swap7\n        /* \"#utility.yul\":3911:4579   */\n      swap6\n      pop\n      pop\n      pop\n      pop\n      pop\n      pop\n      jump\t// out\n        /* \"#utility.yul\":4584:5114   */\n    tag_583:\n        /* \"#utility.yul\":4626:4631   */\n      0x00\n        /* \"#utility.yul\":4679:4682   */\n      dup3\n        /* \"#utility.yul\":4672:4676   */\n      0x1f\n        /* \"#utility.yul\":4664:4670   */\n      dup4\n        /* \"#utility.yul\":4660:4677   */\n      add\n        /* \"#utility.yul\":4656:4683   */\n      slt\n        /* \"#utility.yul\":4646:4701   */\n      tag_633\n      jumpi\n        /* \"#utility.yul\":4697:4698   */\n      0x00\n        /* \"#utility.yul\":4694:4695   */\n      dup1\n        /* \"#utility.yul\":4687:4699   */\n      revert\n        /* \"#utility.yul\":4646:4701   */\n    tag_633:\n        /* \"#utility.yul\":4733:4739   */\n      dup2\n        /* \"#utility.yul\":4720:4740   */\n      calldataload\n        /* \"#utility.yul\":4759:4777   */\n      0xffffffffffffffff\n        /* \"#utility.yul\":4755:4757   */\n      dup2\n        /* \"#utility.yul\":4752:4778   */\n      gt\n        /* \"#utility.yul\":4749:4801   */\n      iszero\n      tag_635\n      jumpi\n        /* \"#utility.yul\":4781:4799   */\n      tag_635\n      tag_208\n      jump\t// in\n    tag_635:\n        /* \"#utility.yul\":4825:4880   */\n      tag_636\n        /* \"#utility.yul\":4868:4870   */\n      0x1f\n        /* \"#utility.yul\":4849:4862   */\n      dup3\n      add\n      not(0x1f)\n        /* \"#utility.yul\":4845:4872   */\n      and\n        /* \"#utility.yul\":4874:4878   */\n      0x20\n        /* \"#utility.yul\":4841:4879   */\n      add\n        /* \"#utility.yul\":4825:4880   */\n      tag_580\n      jump\t// in\n    tag_636:\n        /* \"#utility.yul\":4905:4907   */\n      dup2\n        /* \"#utility.yul\":4896:4903   */\n      dup2\n        /* \"#utility.yul\":4889:4908   */\n      mstore\n        /* \"#utility.yul\":4951:4954   */\n      dup5\n        /* \"#utility.yul\":4944:4948   */\n      0x20\n        /* \"#utility.yul\":4939:4941   */\n      dup4\n        /* \"#utility.yul\":4931:4937   */\n      dup7\n        /* \"#utility.yul\":4927:4942   */\n      add\n        /* \"#utility.yul\":4923:4949   */\n      add\n        /* \"#utility.yul\":4920:4955   */\n      gt\n        /* \"#utility.yul\":4917:4972   */\n      iszero\n      tag_637\n      jumpi\n        /* \"#utility.yul\":4968:4969   */\n      0x00\n        /* \"#utility.yul\":4965:4966   */\n      dup1\n        /* \"#utility.yul\":4958:4970   */\n      revert\n        /* \"#utility.yul\":4917:4972   */\n    tag_637:\n        /* \"#utility.yul\":5033:5035   */\n      dup2\n        /* \"#utility.yul\":5026:5030   */\n      0x20\n        /* \"#utility.yul\":5018:5024   */\n      dup6\n        /* \"#utility.yul\":5014:5031   */\n      add\n        /* \"#utility.yul\":5007:5011   */\n      0x20\n        /* \"#utility.yul\":4998:5005   */\n      dup4\n        /* \"#utility.yul\":4994:5012   */\n      add\n        /* \"#utility.yul\":4981:5036   */\n      calldatacopy\n        /* \"#utility.yul\":5081:5082   */\n      0x00\n        /* \"#utility.yul\":5056:5072   */\n      swap2\n      dup2\n      add\n        /* \"#utility.yul\":5074:5078   */\n      0x20\n        /* \"#utility.yul\":5052:5079   */\n      add\n        /* \"#utility.yul\":5045:5083   */\n      swap2\n      swap1\n      swap2\n      mstore\n        /* \"#utility.yul\":5060:5067   */\n      swap4\n        /* \"#utility.yul\":4584:5114   */\n      swap3\n      pop\n      pop\n      pop\n      jump\t// out\n        /* \"#utility.yul\":5119:6190   */\n    tag_57:\n        /* \"#utility.yul\":5273:5279   */\n      0x00\n        /* \"#utility.yul\":5281:5287   */\n      dup1\n        /* \"#utility.yul\":5289:5295   */\n      0x00\n        /* \"#utility.yul\":5297:5303   */\n      dup1\n        /* \"#utility.yul\":5305:5311   */\n      0x00\n        /* \"#utility.yul\":5358:5361   */\n      0xa0\n        /* \"#utility.yul\":5346:5355   */\n      dup7\n        /* \"#utility.yul\":5337:5344   */\n      dup9\n        /* \"#utility.yul\":5333:5356   */\n      sub\n        /* \"#utility.yul\":5329:5362   */\n      slt\n        /* \"#utility.yul\":5326:5379   */\n      iszero\n      tag_639\n      jumpi\n        /* \"#utility.yul\":5375:5376   */\n      0x00\n        /* \"#utility.yul\":5372:5373   */\n      dup1\n        /* \"#utility.yul\":5365:5377   */\n      revert\n        /* \"#utility.yul\":5326:5379   */\n    tag_639:\n        /* \"#utility.yul\":5414:5423   */\n      dup6\n        /* \"#utility.yul\":5401:5424   */\n      calldataload\n        /* \"#utility.yul\":5433:5464   */\n      tag_640\n        /* \"#utility.yul\":5458:5463   */\n      dup2\n        /* \"#utility.yul\":5433:5464   */\n      tag_576\n      jump\t// in\n    tag_640:\n        /* \"#utility.yul\":5483:5488   */\n      swap5\n      pop\n        /* \"#utility.yul\":5540:5542   */\n      0x20\n        /* \"#utility.yul\":5525:5543   */\n      dup7\n      add\n        /* \"#utility.yul\":5512:5544   */\n      calldataload\n        /* \"#utility.yul\":5553:5586   */\n      tag_641\n        /* \"#utility.yul\":5512:5544   */\n      dup2\n        /* \"#utility.yul\":5553:5586   */\n      tag_576\n      jump\t// in\n    tag_641:\n        /* \"#utility.yul\":5605:5612   */\n      swap4\n      pop\n        /* \"#utility.yul\":5663:5665   */\n      0x40\n        /* \"#utility.yul\":5648:5666   */\n      dup7\n      add\n        /* \"#utility.yul\":5635:5667   */\n      calldataload\n        /* \"#utility.yul\":5686:5704   */\n      0xffffffffffffffff\n        /* \"#utility.yul\":5716:5730   */\n      dup1\n      dup3\n      gt\n        /* \"#utility.yul\":5713:5747   */\n      iszero\n      tag_642\n      jumpi\n        /* \"#utility.yul\":5743:5744   */\n      0x00\n        /* \"#utility.yul\":5740:5741   */\n      dup1\n        /* \"#utility.yul\":5733:5745   */\n      revert\n        /* \"#utility.yul\":5713:5747   */\n    tag_642:\n        /* \"#utility.yul\":5766:5827   */\n      tag_643\n        /* \"#utility.yul\":5819:5826   */\n      dup10\n        /* \"#utility.yul\":5810:5816   */\n      dup4\n        /* \"#utility.yul\":5799:5808   */\n      dup11\n        /* \"#utility.yul\":5795:5817   */\n      add\n        /* \"#utility.yul\":5766:5827   */\n      tag_582\n      jump\t// in\n    tag_643:\n        /* \"#utility.yul\":5756:5827   */\n      swap5\n      pop\n        /* \"#utility.yul\":5880:5882   */\n      0x60\n        /* \"#utility.yul\":5869:5878   */\n      dup9\n        /* \"#utility.yul\":5865:5883   */\n      add\n        /* \"#utility.yul\":5852:5884   */\n      calldataload\n        /* \"#utility.yul\":5836:5884   */\n      swap2\n      pop\n        /* \"#utility.yul\":5909:5911   */\n      dup1\n        /* \"#utility.yul\":5899:5907   */\n      dup3\n        /* \"#utility.yul\":5896:5912   */\n      gt\n        /* \"#utility.yul\":5893:5929   */\n      iszero\n      tag_644\n      jumpi\n        /* \"#utility.yul\":5925:5926   */\n      0x00\n        /* \"#utility.yul\":5922:5923   */\n      dup1\n        /* \"#utility.yul\":5915:5927   */\n      revert\n        /* \"#utility.yul\":5893:5929   */\n    tag_644:\n        /* \"#utility.yul\":5948:6011   */\n      tag_645\n        /* \"#utility.yul\":6003:6010   */\n      dup10\n        /* \"#utility.yul\":5992:6000   */\n      dup4\n        /* \"#utility.yul\":5981:5990   */\n      dup11\n        /* \"#utility.yul\":5977:6001   */\n      add\n        /* \"#utility.yul\":5948:6011   */\n      tag_582\n      jump\t// in\n    tag_645:\n        /* \"#utility.yul\":5938:6011   */\n      swap4\n      pop\n        /* \"#utility.yul\":6064:6067   */\n      0x80\n        /* \"#utility.yul\":6053:6062   */\n      dup9\n        /* \"#utility.yul\":6049:6068   */\n      add\n        /* \"#utility.yul\":6036:6069   */\n      calldataload\n        /* \"#utility.yul\":6020:6069   */\n      swap2\n      pop\n        /* \"#utility.yul\":6094:6096   */\n      dup1\n        /* \"#utility.yul\":6084:6092   */\n      dup3\n        /* \"#utility.yul\":6081:6097   */\n      gt\n        /* \"#utility.yul\":6078:6114   */\n      iszero\n      tag_646\n      jumpi\n        /* \"#utility.yul\":6110:6111   */\n      0x00\n        /* \"#utility.yul\":6107:6108   */\n      dup1\n        /* \"#utility.yul\":6100:6112   */\n      revert\n        /* \"#utility.yul\":6078:6114   */\n    tag_646:\n      pop\n        /* \"#utility.yul\":6133:6184   */\n      tag_647\n        /* \"#utility.yul\":6176:6183   */\n      dup9\n        /* \"#utility.yul\":6165:6173   */\n      dup3\n        /* \"#utility.yul\":6154:6163   */\n      dup10\n        /* \"#utility.yul\":6150:6174   */\n      add\n        /* \"#utility.yul\":6133:6184   */\n      tag_583\n      jump\t// in\n    tag_647:\n        /* \"#utility.yul\":6123:6184   */\n      swap2\n      pop\n      pop\n        /* \"#utility.yul\":5119:6190   */\n      swap3\n      swap6\n      pop\n      swap3\n      swap6\n      swap1\n      swap4\n      pop\n      jump\t// out\n        /* \"#utility.yul\":6530:7745   */\n    tag_66:\n        /* \"#utility.yul\":6648:6654   */\n      0x00\n        /* \"#utility.yul\":6656:6662   */\n      dup1\n        /* \"#utility.yul\":6709:6711   */\n      0x40\n        /* \"#utility.yul\":6697:6706   */\n      dup4\n        /* \"#utility.yul\":6688:6695   */\n      dup6\n        /* \"#utility.yul\":6684:6707   */\n      sub\n        /* \"#utility.yul\":6680:6712   */\n      slt\n        /* \"#utility.yul\":6677:6729   */\n      iszero\n      tag_652\n      jumpi\n        /* \"#utility.yul\":6725:6726   */\n      0x00\n        /* \"#utility.yul\":6722:6723   */\n      dup1\n        /* \"#utility.yul\":6715:6727   */\n      revert\n        /* \"#utility.yul\":6677:6729   */\n    tag_652:\n        /* \"#utility.yul\":6765:6774   */\n      dup3\n        /* \"#utility.yul\":6752:6775   */\n      calldataload\n        /* \"#utility.yul\":6794:6812   */\n      0xffffffffffffffff\n        /* \"#utility.yul\":6835:6837   */\n      dup1\n        /* \"#utility.yul\":6827:6833   */\n      dup3\n        /* \"#utility.yul\":6824:6838   */\n      gt\n        /* \"#utility.yul\":6821:6855   */\n      iszero\n      tag_653\n      jumpi\n        /* \"#utility.yul\":6851:6852   */\n      0x00\n        /* \"#utility.yul\":6848:6849   */\n      dup1\n        /* \"#utility.yul\":6841:6853   */\n      revert\n        /* \"#utility.yul\":6821:6855   */\n    tag_653:\n        /* \"#utility.yul\":6889:6895   */\n      dup2\n        /* \"#utility.yul\":6878:6887   */\n      dup6\n        /* \"#utility.yul\":6874:6896   */\n      add\n        /* \"#utility.yul\":6864:6896   */\n      swap2\n      pop\n        /* \"#utility.yul\":6934:6941   */\n      dup6\n        /* \"#utility.yul\":6927:6931   */\n      0x1f\n        /* \"#utility.yul\":6923:6925   */\n      dup4\n        /* \"#utility.yul\":6919:6932   */\n      add\n        /* \"#utility.yul\":6915:6942   */\n      slt\n        /* \"#utility.yul\":6905:6960   */\n      tag_654\n      jumpi\n        /* \"#utility.yul\":6956:6957   */\n      0x00\n        /* \"#utility.yul\":6953:6954   */\n      dup1\n        /* \"#utility.yul\":6946:6958   */\n      revert\n        /* \"#utility.yul\":6905:6960   */\n    tag_654:\n        /* \"#utility.yul\":6992:6994   */\n      dup2\n        /* \"#utility.yul\":6979:6995   */\n      calldataload\n        /* \"#utility.yul\":7014:7018   */\n      0x20\n        /* \"#utility.yul\":7038:7098   */\n      tag_655\n        /* \"#utility.yul\":7054:7097   */\n      tag_627\n        /* \"#utility.yul\":7094:7096   */\n      dup4\n        /* \"#utility.yul\":7054:7097   */\n      tag_581\n      jump\t// in\n        /* \"#utility.yul\":7038:7098   */\n    tag_655:\n        /* \"#utility.yul\":7132:7147   */\n      dup3\n      dup2\n      mstore\n        /* \"#utility.yul\":7214:7215   */\n      0x05\n        /* \"#utility.yul\":7210:7220   */\n      swap3\n      swap1\n      swap3\n      shl\n        /* \"#utility.yul\":7202:7221   */\n      dup5\n      add\n        /* \"#utility.yul\":7198:7226   */\n      dup2\n      add\n      swap2\n        /* \"#utility.yul\":7163:7175   */\n      dup2\n      dup2\n      add\n      swap1\n        /* \"#utility.yul\":7238:7257   */\n      dup10\n      dup5\n      gt\n        /* \"#utility.yul\":7235:7274   */\n      iszero\n      tag_657\n      jumpi\n        /* \"#utility.yul\":7270:7271   */\n      0x00\n        /* \"#utility.yul\":7267:7268   */\n      dup1\n        /* \"#utility.yul\":7260:7272   */\n      revert\n        /* \"#utility.yul\":7235:7274   */\n    tag_657:\n        /* \"#utility.yul\":7294:7305   */\n      swap5\n      dup3\n      add\n      swap5\n        /* \"#utility.yul\":7314:7531   */\n    tag_658:\n        /* \"#utility.yul\":7330:7336   */\n      dup4\n        /* \"#utility.yul\":7325:7328   */\n      dup7\n        /* \"#utility.yul\":7322:7337   */\n      lt\n        /* \"#utility.yul\":7314:7531   */\n      iszero\n      tag_660\n      jumpi\n        /* \"#utility.yul\":7410:7413   */\n      dup6\n        /* \"#utility.yul\":7397:7414   */\n      calldataload\n        /* \"#utility.yul\":7427:7458   */\n      tag_661\n        /* \"#utility.yul\":7452:7457   */\n      dup2\n        /* \"#utility.yul\":7427:7458   */\n      tag_576\n      jump\t// in\n    tag_661:\n        /* \"#utility.yul\":7471:7489   */\n      dup3\n      mstore\n        /* \"#utility.yul\":7347:7359   */\n      swap5\n      dup3\n      add\n      swap5\n        /* \"#utility.yul\":7509:7521   */\n      swap1\n      dup3\n      add\n      swap1\n        /* \"#utility.yul\":7314:7531   */\n      jump(tag_658)\n    tag_660:\n        /* \"#utility.yul\":7550:7555   */\n      swap7\n      pop\n      pop\n        /* \"#utility.yul\":7593:7611   */\n      dup7\n      add\n        /* \"#utility.yul\":7580:7612   */\n      calldataload\n      swap3\n      pop\n      pop\n        /* \"#utility.yul\":7624:7640   */\n      dup1\n      dup3\n      gt\n        /* \"#utility.yul\":7621:7657   */\n      iszero\n      tag_662\n      jumpi\n        /* \"#utility.yul\":7653:7654   */\n      0x00\n        /* \"#utility.yul\":7650:7651   */\n      dup1\n        /* \"#utility.yul\":7643:7655   */\n      revert\n        /* \"#utility.yul\":7621:7657   */\n    tag_662:\n      pop\n        /* \"#utility.yul\":7676:7739   */\n      tag_663\n        /* \"#utility.yul\":7731:7738   */\n      dup6\n        /* \"#utility.yul\":7720:7728   */\n      dup3\n        /* \"#utility.yul\":7709:7718   */\n      dup7\n        /* \"#utility.yul\":7705:7729   */\n      add\n        /* \"#utility.yul\":7676:7739   */\n      tag_582\n      jump\t// in\n    tag_663:\n        /* \"#utility.yul\":7666:7739   */\n      swap2\n      pop\n      pop\n        /* \"#utility.yul\":6530:7745   */\n      swap3\n      pop\n      swap3\n      swap1\n      pop\n      jump\t// out\n        /* \"#utility.yul\":7750:8189   */\n    tag_584:\n        /* \"#utility.yul\":7803:7806   */\n      0x00\n        /* \"#utility.yul\":7841:7846   */\n      dup2\n        /* \"#utility.yul\":7835:7847   */\n      mload\n        /* \"#utility.yul\":7868:7874   */\n      dup1\n        /* \"#utility.yul\":7863:7866   */\n      dup5\n        /* \"#utility.yul\":7856:7875   */\n      mstore\n        /* \"#utility.yul\":7894:7898   */\n      0x20\n        /* \"#utility.yul\":7923:7927   */\n      dup1\n        /* \"#utility.yul\":7918:7921   */\n      dup6\n        /* \"#utility.yul\":7914:7928   */\n      add\n        /* \"#utility.yul\":7907:7928   */\n      swap5\n      pop\n        /* \"#utility.yul\":7962:7966   */\n      0x20\n        /* \"#utility.yul\":7955:7960   */\n      dup5\n        /* \"#utility.yul\":7951:7967   */\n      add\n        /* \"#utility.yul\":7985:7986   */\n      0x00\n        /* \"#utility.yul\":7995:8164   */\n    tag_665:\n        /* \"#utility.yul\":8009:8015   */\n      dup4\n        /* \"#utility.yul\":8006:8007   */\n      dup2\n        /* \"#utility.yul\":8003:8016   */\n      lt\n        /* \"#utility.yul\":7995:8164   */\n      iszero\n      tag_667\n      jumpi\n        /* \"#utility.yul\":8070:8083   */\n      dup2\n      mload\n        /* \"#utility.yul\":8058:8084   */\n      dup8\n      mstore\n        /* \"#utility.yul\":8104:8116   */\n      swap6\n      dup3\n      add\n      swap6\n        /* \"#utility.yul\":8139:8154   */\n      swap1\n      dup3\n      add\n      swap1\n        /* \"#utility.yul\":8031:8032   */\n      0x01\n        /* \"#utility.yul\":8024:8033   */\n      add\n        /* \"#utility.yul\":7995:8164   */\n      jump(tag_665)\n    tag_667:\n      pop\n        /* \"#utility.yul\":8180:8183   */\n      swap5\n      swap6\n        /* \"#utility.yul\":7750:8189   */\n      swap5\n      pop\n      pop\n      pop\n      pop\n      pop\n      jump\t// out\n        /* \"#utility.yul\":8194:8455   */\n    tag_69:\n        /* \"#utility.yul\":8373:8375   */\n      0x20\n        /* \"#utility.yul\":8362:8371   */\n      dup2\n        /* \"#utility.yul\":8355:8376   */\n      mstore\n        /* \"#utility.yul\":8336:8340   */\n      0x00\n        /* \"#utility.yul\":8393:8449   */\n      tag_201\n        /* \"#utility.yul\":8445:8447   */\n      0x20\n        /* \"#utility.yul\":8434:8443   */\n      dup4\n        /* \"#utility.yul\":8430:8448   */\n      add\n        /* \"#utility.yul\":8422:8428   */\n      dup5\n        /* \"#utility.yul\":8393:8449   */\n      tag_584\n      jump\t// in\n        /* \"#utility.yul\":8460:9253   */\n    tag_72:\n        /* \"#utility.yul\":8597:8603   */\n      0x00\n        /* \"#utility.yul\":8605:8611   */\n      dup1\n        /* \"#utility.yul\":8613:8619   */\n      0x00\n        /* \"#utility.yul\":8621:8627   */\n      dup1\n        /* \"#utility.yul\":8629:8635   */\n      0x00\n        /* \"#utility.yul\":8637:8643   */\n      dup1\n        /* \"#utility.yul\":8690:8693   */\n      0xa0\n        /* \"#utility.yul\":8678:8687   */\n      dup8\n        /* \"#utility.yul\":8669:8676   */\n      dup10\n        /* \"#utility.yul\":8665:8688   */\n      sub\n        /* \"#utility.yul\":8661:8694   */\n      slt\n        /* \"#utility.yul\":8658:8711   */\n      iszero\n      tag_671\n      jumpi\n        /* \"#utility.yul\":8707:8708   */\n      0x00\n        /* \"#utility.yul\":8704:8705   */\n      dup1\n        /* \"#utility.yul\":8697:8709   */\n      revert\n        /* \"#utility.yul\":8658:8711   */\n    tag_671:\n        /* \"#utility.yul\":8746:8755   */\n      dup7\n        /* \"#utility.yul\":8733:8756   */\n      calldataload\n        /* \"#utility.yul\":8765:8796   */\n      tag_672\n        /* \"#utility.yul\":8790:8795   */\n      dup2\n        /* \"#utility.yul\":8765:8796   */\n      tag_576\n      jump\t// in\n    tag_672:\n        /* \"#utility.yul\":8815:8820   */\n      swap6\n      pop\n        /* \"#utility.yul\":8867:8869   */\n      0x20\n        /* \"#utility.yul\":8852:8870   */\n      dup8\n      add\n        /* \"#utility.yul\":8839:8871   */\n      calldataload\n      swap5\n      pop\n        /* \"#utility.yul\":8918:8920   */\n      0x40\n        /* \"#utility.yul\":8903:8921   */\n      dup8\n      add\n        /* \"#utility.yul\":8890:8922   */\n      calldataload\n      swap4\n      pop\n        /* \"#utility.yul\":8973:8975   */\n      0x60\n        /* \"#utility.yul\":8958:8976   */\n      dup8\n      add\n        /* \"#utility.yul\":8945:8977   */\n      calldataload\n        /* \"#utility.yul\":9000:9018   */\n      0xffffffffffffffff\n        /* \"#utility.yul\":8989:9019   */\n      dup2\n      gt\n        /* \"#utility.yul\":8986:9036   */\n      iszero\n      tag_673\n      jumpi\n        /* \"#utility.yul\":9032:9033   */\n      0x00\n        /* \"#utility.yul\":9029:9030   */\n      dup1\n        /* \"#utility.yul\":9022:9034   */\n      revert\n        /* \"#utility.yul\":8986:9036   */\n    tag_673:\n        /* \"#utility.yul\":9071:9141   */\n      tag_674\n        /* \"#utility.yul\":9133:9140   */\n      dup10\n        /* \"#utility.yul\":9124:9130   */\n      dup3\n        /* \"#utility.yul\":9113:9122   */\n      dup11\n        /* \"#utility.yul\":9109:9131   */\n      add\n        /* \"#utility.yul\":9071:9141   */\n      tag_577\n      jump\t// in\n    tag_674:\n        /* \"#utility.yul\":8460:9253   */\n      swap8\n      swap11\n      swap7\n      swap10\n      pop\n      swap5\n      swap8\n      swap5\n      swap7\n      swap6\n        /* \"#utility.yul\":9242:9245   */\n      0x80\n        /* \"#utility.yul\":9227:9246   */\n      swap1\n      swap6\n      add\n        /* \"#utility.yul\":9214:9247   */\n      calldataload\n      swap5\n        /* \"#utility.yul\":8460:9253   */\n      swap4\n      pop\n      pop\n      pop\n      pop\n      jump\t// out\n        /* \"#utility.yul\":9258:9641   */\n    tag_76:\n        /* \"#utility.yul\":9335:9341   */\n      0x00\n        /* \"#utility.yul\":9343:9349   */\n      dup1\n        /* \"#utility.yul\":9351:9357   */\n      0x00\n        /* \"#utility.yul\":9404:9406   */\n      0x60\n        /* \"#utility.yul\":9392:9401   */\n      dup5\n        /* \"#utility.yul\":9383:9390   */\n      dup7\n        /* \"#utility.yul\":9379:9402   */\n      sub\n        /* \"#utility.yul\":9375:9407   */\n      slt\n        /* \"#utility.yul\":9372:9424   */\n      iszero\n      tag_676\n      jumpi\n        /* \"#utility.yul\":9420:9421   */\n      0x00\n        /* \"#utility.yul\":9417:9418   */\n      dup1\n        /* \"#utility.yul\":9410:9422   */\n      revert\n        /* \"#utility.yul\":9372:9424   */\n    tag_676:\n        /* \"#utility.yul\":9459:9468   */\n      dup4\n        /* \"#utility.yul\":9446:9469   */\n      calldataload\n        /* \"#utility.yul\":9478:9509   */\n      tag_677\n        /* \"#utility.yul\":9503:9508   */\n      dup2\n        /* \"#utility.yul\":9478:9509   */\n      tag_576\n      jump\t// in\n    tag_677:\n        /* \"#utility.yul\":9528:9533   */\n      swap6\n        /* \"#utility.yul\":9580:9582   */\n      0x20\n        /* \"#utility.yul\":9565:9583   */\n      dup6\n      add\n        /* \"#utility.yul\":9552:9584   */\n      calldataload\n      swap6\n      pop\n        /* \"#utility.yul\":9631:9633   */\n      0x40\n        /* \"#utility.yul\":9616:9634   */\n      swap1\n      swap5\n      add\n        /* \"#utility.yul\":9603:9635   */\n      calldataload\n      swap4\n        /* \"#utility.yul\":9258:9641   */\n      swap3\n      pop\n      pop\n      pop\n      jump\t// out\n        /* \"#utility.yul\":9828:10144   */\n    tag_82:\n        /* \"#utility.yul\":9905:9911   */\n      0x00\n        /* \"#utility.yul\":9913:9919   */\n      dup1\n        /* \"#utility.yul\":9921:9927   */\n      0x00\n        /* \"#utility.yul\":9974:9976   */\n      0x60\n        /* \"#utility.yul\":9962:9971   */\n      dup5\n        /* \"#utility.yul\":9953:9960   */\n      dup7\n        /* \"#utility.yul\":9949:9972   */\n      sub\n        /* \"#utility.yul\":9945:9977   */\n      slt\n        /* \"#utility.yul\":9942:9994   */\n      iszero\n      tag_680\n      jumpi\n        /* \"#utility.yul\":9990:9991   */\n      0x00\n        /* \"#utility.yul\":9987:9988   */\n      dup1\n        /* \"#utility.yul\":9980:9992   */\n      revert\n        /* \"#utility.yul\":9942:9994   */\n    tag_680:\n      pop\n      pop\n        /* \"#utility.yul\":10013:10036   */\n      dup2\n      calldataload\n      swap4\n        /* \"#utility.yul\":10083:10085   */\n      0x20\n        /* \"#utility.yul\":10068:10086   */\n      dup4\n      add\n        /* \"#utility.yul\":10055:10087   */\n      calldataload\n      swap4\n      pop\n        /* \"#utility.yul\":10134:10136   */\n      0x40\n        /* \"#utility.yul\":10119:10137   */\n      swap1\n      swap3\n      add\n        /* \"#utility.yul\":10106:10138   */\n      calldataload\n      swap2\n        /* \"#utility.yul\":9828:10144   */\n      swap1\n      pop\n      jump\t// out\n        /* \"#utility.yul\":10149:10267   */\n    tag_585:\n        /* \"#utility.yul\":10235:10240   */\n      dup1\n        /* \"#utility.yul\":10228:10241   */\n      iszero\n        /* \"#utility.yul\":10221:10242   */\n      iszero\n        /* \"#utility.yul\":10214:10219   */\n      dup2\n        /* \"#utility.yul\":10211:10243   */\n      eq\n        /* \"#utility.yul\":10201:10261   */\n      tag_590\n      jumpi\n        /* \"#utility.yul\":10257:10258   */\n      0x00\n        /* \"#utility.yul\":10254:10255   */\n      dup1\n        /* \"#utility.yul\":10247:10259   */\n      revert\n        /* \"#utility.yul\":10272:10654   */\n    tag_90:\n        /* \"#utility.yul\":10337:10343   */\n      0x00\n        /* \"#utility.yul\":10345:10351   */\n      dup1\n        /* \"#utility.yul\":10398:10400   */\n      0x40\n        /* \"#utility.yul\":10386:10395   */\n      dup4\n        /* \"#utility.yul\":10377:10384   */\n      dup6\n        /* \"#utility.yul\":10373:10396   */\n      sub\n        /* \"#utility.yul\":10369:10401   */\n      slt\n        /* \"#utility.yul\":10366:10418   */\n      iszero\n      tag_684\n      jumpi\n        /* \"#utility.yul\":10414:10415   */\n      0x00\n        /* \"#utility.yul\":10411:10412   */\n      dup1\n        /* \"#utility.yul\":10404:10416   */\n      revert\n        /* \"#utility.yul\":10366:10418   */\n    tag_684:\n        /* \"#utility.yul\":10453:10462   */\n      dup3\n        /* \"#utility.yul\":10440:10463   */\n      calldataload\n        /* \"#utility.yul\":10472:10503   */\n      tag_685\n        /* \"#utility.yul\":10497:10502   */\n      dup2\n        /* \"#utility.yul\":10472:10503   */\n      tag_576\n      jump\t// in\n    tag_685:\n        /* \"#utility.yul\":10522:10527   */\n      swap2\n      pop\n        /* \"#utility.yul\":10579:10581   */\n      0x20\n        /* \"#utility.yul\":10564:10582   */\n      dup4\n      add\n        /* \"#utility.yul\":10551:10583   */\n      calldataload\n        /* \"#utility.yul\":10592:10622   */\n      tag_686\n        /* \"#utility.yul\":10551:10583   */\n      dup2\n        /* \"#utility.yul\":10592:10622   */\n      tag_585\n      jump\t// in\n    tag_686:\n        /* \"#utility.yul\":10641:10648   */\n      dup1\n        /* \"#utility.yul\":10631:10648   */\n      swap2\n      pop\n      pop\n        /* \"#utility.yul\":10272:10654   */\n      swap3\n      pop\n      swap3\n      swap1\n      pop\n      jump\t// out\n        /* \"#utility.yul\":10659:11164   */\n    tag_94:\n        /* \"#utility.yul\":10754:10760   */\n      0x00\n        /* \"#utility.yul\":10762:10768   */\n      dup1\n        /* \"#utility.yul\":10770:10776   */\n      0x00\n        /* \"#utility.yul\":10823:10825   */\n      0x40\n        /* \"#utility.yul\":10811:10820   */\n      dup5\n        /* \"#utility.yul\":10802:10809   */\n      dup7\n        /* \"#utility.yul\":10798:10821   */\n      sub\n        /* \"#utility.yul\":10794:10826   */\n      slt\n        /* \"#utility.yul\":10791:10843   */\n      iszero\n      tag_688\n      jumpi\n        /* \"#utility.yul\":10839:10840   */\n      0x00\n        /* \"#utility.yul\":10836:10837   */\n      dup1\n        /* \"#utility.yul\":10829:10841   */\n      revert\n        /* \"#utility.yul\":10791:10843   */\n    tag_688:\n        /* \"#utility.yul\":10875:10884   */\n      dup4\n        /* \"#utility.yul\":10862:10885   */\n      calldataload\n        /* \"#utility.yul\":10852:10885   */\n      swap3\n      pop\n        /* \"#utility.yul\":10936:10938   */\n      0x20\n        /* \"#utility.yul\":10925:10934   */\n      dup5\n        /* \"#utility.yul\":10921:10939   */\n      add\n        /* \"#utility.yul\":10908:10940   */\n      calldataload\n        /* \"#utility.yul\":10963:10981   */\n      0xffffffffffffffff\n        /* \"#utility.yul\":10955:10961   */\n      dup2\n        /* \"#utility.yul\":10952:10982   */\n      gt\n        /* \"#utility.yul\":10949:10999   */\n      iszero\n      tag_689\n      jumpi\n        /* \"#utility.yul\":10995:10996   */\n      0x00\n        /* \"#utility.yul\":10992:10993   */\n      dup1\n        /* \"#utility.yul\":10985:10997   */\n      revert\n        /* \"#utility.yul\":10949:10999   */\n    tag_689:\n        /* \"#utility.yul\":11034:11104   */\n      tag_690\n        /* \"#utility.yul\":11096:11103   */\n      dup7\n        /* \"#utility.yul\":11087:11093   */\n      dup3\n        /* \"#utility.yul\":11076:11085   */\n      dup8\n        /* \"#utility.yul\":11072:11094   */\n      add\n        /* \"#utility.yul\":11034:11104   */\n      tag_577\n      jump\t// in\n    tag_690:\n        /* \"#utility.yul\":10659:11164   */\n      swap5\n      swap8\n        /* \"#utility.yul\":11123:11131   */\n      swap1\n      swap7\n      pop\n        /* \"#utility.yul\":11008:11104   */\n      swap4\n      swap5\n      pop\n      pop\n      pop\n      pop\n        /* \"#utility.yul\":10659:11164   */\n      jump\t// out\n        /* \"#utility.yul\":11354:11742   */\n    tag_110:\n        /* \"#utility.yul\":11422:11428   */\n      0x00\n        /* \"#utility.yul\":11430:11436   */\n      dup1\n        /* \"#utility.yul\":11483:11485   */\n      0x40\n        /* \"#utility.yul\":11471:11480   */\n      dup4\n        /* \"#utility.yul\":11462:11469   */\n      dup6\n        /* \"#utility.yul\":11458:11481   */\n      sub\n        /* \"#utility.yul\":11454:11486   */\n      slt\n        /* \"#utility.yul\":11451:11503   */\n      iszero\n      tag_694\n      jumpi\n        /* \"#utility.yul\":11499:11500   */\n      0x00\n        /* \"#utility.yul\":11496:11497   */\n      dup1\n        /* \"#utility.yul\":11489:11501   */\n      revert\n        /* \"#utility.yul\":11451:11503   */\n    tag_694:\n        /* \"#utility.yul\":11538:11547   */\n      dup3\n        /* \"#utility.yul\":11525:11548   */\n      calldataload\n        /* \"#utility.yul\":11557:11588   */\n      tag_695\n        /* \"#utility.yul\":11582:11587   */\n      dup2\n        /* \"#utility.yul\":11557:11588   */\n      tag_576\n      jump\t// in\n    tag_695:\n        /* \"#utility.yul\":11607:11612   */\n      swap2\n      pop\n        /* \"#utility.yul\":11664:11666   */\n      0x20\n        /* \"#utility.yul\":11649:11667   */\n      dup4\n      add\n        /* \"#utility.yul\":11636:11668   */\n      calldataload\n        /* \"#utility.yul\":11677:11710   */\n      tag_686\n        /* \"#utility.yul\":11636:11668   */\n      dup2\n        /* \"#utility.yul\":11677:11710   */\n      tag_576\n      jump\t// in\n        /* \"#utility.yul\":11747:12481   */\n    tag_115:\n        /* \"#utility.yul\":11851:11857   */\n      0x00\n        /* \"#utility.yul\":11859:11865   */\n      dup1\n        /* \"#utility.yul\":11867:11873   */\n      0x00\n        /* \"#utility.yul\":11875:11881   */\n      dup1\n        /* \"#utility.yul\":11883:11889   */\n      0x00\n        /* \"#utility.yul\":11936:11939   */\n      0xa0\n        /* \"#utility.yul\":11924:11933   */\n      dup7\n        /* \"#utility.yul\":11915:11922   */\n      dup9\n        /* \"#utility.yul\":11911:11934   */\n      sub\n        /* \"#utility.yul\":11907:11940   */\n      slt\n        /* \"#utility.yul\":11904:11957   */\n      iszero\n      tag_698\n      jumpi\n        /* \"#utility.yul\":11953:11954   */\n      0x00\n        /* \"#utility.yul\":11950:11951   */\n      dup1\n        /* \"#utility.yul\":11943:11955   */\n      revert\n        /* \"#utility.yul\":11904:11957   */\n    tag_698:\n        /* \"#utility.yul\":11992:12001   */\n      dup6\n        /* \"#utility.yul\":11979:12002   */\n      calldataload\n        /* \"#utility.yul\":12011:12042   */\n      tag_699\n        /* \"#utility.yul\":12036:12041   */\n      dup2\n        /* \"#utility.yul\":12011:12042   */\n      tag_576\n      jump\t// in\n    tag_699:\n        /* \"#utility.yul\":12061:12066   */\n      swap5\n      pop\n        /* \"#utility.yul\":12118:12120   */\n      0x20\n        /* \"#utility.yul\":12103:12121   */\n      dup7\n      add\n        /* \"#utility.yul\":12090:12122   */\n      calldataload\n        /* \"#utility.yul\":12131:12164   */\n      tag_700\n        /* \"#utility.yul\":12090:12122   */\n      dup2\n        /* \"#utility.yul\":12131:12164   */\n      tag_576\n      jump\t// in\n    tag_700:\n        /* \"#utility.yul\":12183:12190   */\n      swap4\n      pop\n        /* \"#utility.yul\":12237:12239   */\n      0x40\n        /* \"#utility.yul\":12222:12240   */\n      dup7\n      add\n        /* \"#utility.yul\":12209:12241   */\n      calldataload\n      swap3\n      pop\n        /* \"#utility.yul\":12288:12290   */\n      0x60\n        /* \"#utility.yul\":12273:12291   */\n      dup7\n      add\n        /* \"#utility.yul\":12260:12292   */\n      calldataload\n      swap2\n      pop\n        /* \"#utility.yul\":12343:12346   */\n      0x80\n        /* \"#utility.yul\":12328:12347   */\n      dup7\n      add\n        /* \"#utility.yul\":12315:12348   */\n      calldataload\n        /* \"#utility.yul\":12371:12389   */\n      0xffffffffffffffff\n        /* \"#utility.yul\":12360:12390   */\n      dup2\n      gt\n        /* \"#utility.yul\":12357:12407   */\n      iszero\n      tag_701\n      jumpi\n        /* \"#utility.yul\":12403:12404   */\n      0x00\n        /* \"#utility.yul\":12400:12401   */\n      dup1\n        /* \"#utility.yul\":12393:12405   */\n      revert\n        /* \"#utility.yul\":12357:12407   */\n    tag_701:\n        /* \"#utility.yul\":12426:12475   */\n      tag_647\n        /* \"#utility.yul\":12467:12474   */\n      dup9\n        /* \"#utility.yul\":12458:12464   */\n      dup3\n        /* \"#utility.yul\":12447:12456   */\n      dup10\n        /* \"#utility.yul\":12443:12465   */\n      add\n        /* \"#utility.yul\":12426:12475   */\n      tag_583\n      jump\t// in\n        /* \"#utility.yul\":13247:13374   */\n    tag_586:\n        /* \"#utility.yul\":13308:13318   */\n      0x4e487b71\n        /* \"#utility.yul\":13303:13306   */\n      0xe0\n        /* \"#utility.yul\":13299:13319   */\n      shl\n        /* \"#utility.yul\":13296:13297   */\n      0x00\n        /* \"#utility.yul\":13289:13320   */\n      mstore\n        /* \"#utility.yul\":13339:13343   */\n      0x11\n        /* \"#utility.yul\":13336:13337   */\n      0x04\n        /* \"#utility.yul\":13329:13344   */\n      mstore\n        /* \"#utility.yul\":13363:13367   */\n      0x24\n        /* \"#utility.yul\":13360:13361   */\n      0x00\n        /* \"#utility.yul\":13353:13368   */\n      revert\n        /* \"#utility.yul\":13379:13507   */\n    tag_126:\n        /* \"#utility.yul\":13446:13455   */\n      dup2\n      dup2\n      sub\n        /* \"#utility.yul\":13467:13478   */\n      dup2\n      dup2\n      gt\n        /* \"#utility.yul\":13464:13501   */\n      iszero\n      tag_117\n      jumpi\n        /* \"#utility.yul\":13481:13499   */\n      tag_117\n      tag_586\n      jump\t// in\n        /* \"#utility.yul\":13512:13639   */\n    tag_132:\n        /* \"#utility.yul\":13573:13583   */\n      0x4e487b71\n        /* \"#utility.yul\":13568:13571   */\n      0xe0\n        /* \"#utility.yul\":13564:13584   */\n      shl\n        /* \"#utility.yul\":13561:13562   */\n      0x00\n        /* \"#utility.yul\":13554:13585   */\n      mstore\n        /* \"#utility.yul\":13604:13608   */\n      0x32\n        /* \"#utility.yul\":13601:13602   */\n      0x04\n        /* \"#utility.yul\":13594:13609   */\n      mstore\n        /* \"#utility.yul\":13628:13632   */\n      0x24\n        /* \"#utility.yul\":13625:13626   */\n      0x00\n        /* \"#utility.yul\":13618:13633   */\n      revert\n        /* \"#utility.yul\":13996:14121   */\n    tag_149:\n        /* \"#utility.yul\":14061:14070   */\n      dup1\n      dup3\n      add\n        /* \"#utility.yul\":14082:14092   */\n      dup1\n      dup3\n      gt\n        /* \"#utility.yul\":14079:14115   */\n      iszero\n      tag_117\n      jumpi\n        /* \"#utility.yul\":14095:14113   */\n      tag_117\n      tag_586\n      jump\t// in\n        /* \"#utility.yul\":14126:14253   */\n    tag_394:\n        /* \"#utility.yul\":14187:14197   */\n      0x4e487b71\n        /* \"#utility.yul\":14182:14185   */\n      0xe0\n        /* \"#utility.yul\":14178:14198   */\n      shl\n        /* \"#utility.yul\":14175:14176   */\n      0x00\n        /* \"#utility.yul\":14168:14199   */\n      mstore\n        /* \"#utility.yul\":14218:14222   */\n      0x12\n        /* \"#utility.yul\":14215:14216   */\n      0x04\n        /* \"#utility.yul\":14208:14223   */\n      mstore\n        /* \"#utility.yul\":14242:14246   */\n      0x24\n        /* \"#utility.yul\":14239:14240   */\n      0x00\n        /* \"#utility.yul\":14232:14247   */\n      revert\n        /* \"#utility.yul\":14258:14378   */\n    tag_153:\n        /* \"#utility.yul\":14298:14299   */\n      0x00\n        /* \"#utility.yul\":14324:14325   */\n      dup3\n        /* \"#utility.yul\":14314:14349   */\n      tag_717\n      jumpi\n        /* \"#utility.yul\":14329:14347   */\n      tag_717\n      tag_394\n      jump\t// in\n    tag_717:\n      pop\n        /* \"#utility.yul\":14363:14372   */\n      div\n      swap1\n        /* \"#utility.yul\":14258:14378   */\n      jump\t// out\n        /* \"#utility.yul\":14383:14551   */\n    tag_155:\n        /* \"#utility.yul\":14456:14465   */\n      dup1\n      dup3\n      mul\n        /* \"#utility.yul\":14487:14496   */\n      dup2\n      iszero\n        /* \"#utility.yul\":14504:14519   */\n      dup3\n      dup3\n      div\n        /* \"#utility.yul\":14498:14520   */\n      dup5\n      eq\n        /* \"#utility.yul\":14484:14521   */\n      or\n        /* \"#utility.yul\":14474:14545   */\n      tag_117\n      jumpi\n        /* \"#utility.yul\":14525:14543   */\n      tag_117\n      tag_586\n      jump\t// in\n        /* \"#utility.yul\":14858:15103   */\n    tag_166:\n        /* \"#utility.yul\":14925:14931   */\n      0x00\n        /* \"#utility.yul\":14978:14980   */\n      0x20\n        /* \"#utility.yul\":14966:14975   */\n      dup3\n        /* \"#utility.yul\":14957:14964   */\n      dup5\n        /* \"#utility.yul\":14953:14976   */\n      sub\n        /* \"#utility.yul\":14949:14981   */\n      slt\n        /* \"#utility.yul\":14946:14998   */\n      iszero\n      tag_723\n      jumpi\n        /* \"#utility.yul\":14994:14995   */\n      0x00\n        /* \"#utility.yul\":14991:14992   */\n      dup1\n        /* \"#utility.yul\":14984:14996   */\n      revert\n        /* \"#utility.yul\":14946:14998   */\n    tag_723:\n        /* \"#utility.yul\":15026:15035   */\n      dup2\n        /* \"#utility.yul\":15020:15036   */\n      mload\n        /* \"#utility.yul\":15045:15073   */\n      tag_201\n        /* \"#utility.yul\":15067:15072   */\n      dup2\n        /* \"#utility.yul\":15045:15073   */\n      tag_585\n      jump\t// in\n        /* \"#utility.yul\":15520:15878   */\n    tag_587:\n        /* \"#utility.yul\":15620:15626   */\n      dup2\n        /* \"#utility.yul\":15615:15618   */\n      dup4\n        /* \"#utility.yul\":15608:15627   */\n      mstore\n        /* \"#utility.yul\":15590:15593   */\n      0x00\n        /* \"#utility.yul\":15650:15716   */\n      0x07ffffffffffffffffffffffffffffffffffffffffffffffffffffffffffffff\n        /* \"#utility.yul\":15642:15648   */\n      dup4\n        /* \"#utility.yul\":15639:15717   */\n      gt\n        /* \"#utility.yul\":15636:15734   */\n      iszero\n      tag_727\n      jumpi\n        /* \"#utility.yul\":15730:15731   */\n      0x00\n        /* \"#utility.yul\":15727:15728   */\n      dup1\n        /* \"#utility.yul\":15720:15732   */\n      revert\n        /* \"#utility.yul\":15636:15734   */\n    tag_727:\n        /* \"#utility.yul\":15766:15772   */\n      dup3\n        /* \"#utility.yul\":15763:15764   */\n      0x05\n        /* \"#utility.yul\":15759:15773   */\n      shl\n        /* \"#utility.yul\":15818:15826   */\n      dup1\n        /* \"#utility.yul\":15811:15816   */\n      dup4\n        /* \"#utility.yul\":15804:15808   */\n      0x20\n        /* \"#utility.yul\":15799:15802   */\n      dup8\n        /* \"#utility.yul\":15795:15809   */\n      add\n        /* \"#utility.yul\":15782:15827   */\n      calldatacopy\n        /* \"#utility.yul\":15847:15865   */\n      swap4\n      swap1\n      swap4\n      add\n        /* \"#utility.yul\":15867:15871   */\n      0x20\n        /* \"#utility.yul\":15843:15872   */\n      add\n      swap4\n        /* \"#utility.yul\":15520:15878   */\n      swap3\n      pop\n      pop\n      pop\n      jump\t// out\n        /* \"#utility.yul\":15883:16313   */\n    tag_175:\n        /* \"#utility.yul\":16128:16134   */\n      dup5\n        /* \"#utility.yul\":16117:16126   */\n      dup2\n        /* \"#utility.yul\":16110:16135   */\n      mstore\n        /* \"#utility.yul\":16171:16173   */\n      0x60\n        /* \"#utility.yul\":16166:16168   */\n      0x20\n        /* \"#utility.yul\":16155:16164   */\n      dup3\n        /* \"#utility.yul\":16151:16169   */\n      add\n        /* \"#utility.yul\":16144:16174   */\n      mstore\n        /* \"#utility.yul\":16091:16095   */\n      0x00\n        /* \"#utility.yul\":16191:16264   */\n      tag_729\n        /* \"#utility.yul\":16260:16262   */\n      0x60\n        /* \"#utility.yul\":16249:16258   */\n      dup4\n        /* \"#utility.yul\":16245:16263   */\n      add\n        /* \"#utility.yul\":16237:16243   */\n      dup6\n        /* \"#utility.yul\":16229:16235   */\n      dup8\n        /* \"#utility.yul\":16191:16264   */\n      tag_587\n      jump\t// in\n    tag_729:\n        /* \"#utility.yul\":16183:16264   */\n      swap1\n      pop\n        /* \"#utility.yul\":16300:16306   */\n      dup3\n        /* \"#utility.yul\":16295:16297   */\n      0x40\n        /* \"#utility.yul\":16284:16293   */\n      dup4\n        /* \"#utility.yul\":16280:16298   */\n      add\n        /* \"#utility.yul\":16273:16307   */\n      mstore\n        /* \"#utility.yul\":15883:16313   */\n      swap6\n      swap5\n      pop\n      pop\n      pop\n      pop\n      pop\n      jump\t// out\n        /* \"#utility.yul\":16318:16698   */\n    tag_185:\n        /* \"#utility.yul\":16397:16398   */\n      0x01\n        /* \"#utility.yul\":16393:16405   */\n      dup2\n      dup2\n      shr\n      swap1\n        /* \"#utility.yul\":16440:16452   */\n      dup3\n      and\n      dup1\n        /* \"#utility.yul\":16461:16522   */\n      tag_731\n      jumpi\n        /* \"#utility.yul\":16515:16519   */\n      0x7f\n        /* \"#utility.yul\":16507:16513   */\n      dup3\n        /* \"#utility.yul\":16503:16520   */\n      and\n        /* \"#utility.yul\":16493:16520   */\n      swap2\n      pop\n        /* \"#utility.yul\":16461:16522   */\n    tag_731:\n        /* \"#utility.yul\":16568:16570   */\n      0x20\n        /* \"#utility.yul\":16560:16566   */\n      dup3\n        /* \"#utility.yul\":16557:16571   */\n      lt\n        /* \"#utility.yul\":16537:16555   */\n      dup2\n        /* \"#utility.yul\":16534:16572   */\n      sub\n        /* \"#utility.yul\":16531:16692   */\n      tag_732\n      jumpi\n        /* \"#utility.yul\":16614:16624   */\n      0x4e487b71\n        /* \"#utility.yul\":16609:16612   */\n      0xe0\n        /* \"#utility.yul\":16605:16625   */\n      shl\n        /* \"#utility.yul\":16602:16603   */\n      0x00\n        /* \"#utility.yul\":16595:16626   */\n      mstore\n        /* \"#utility.yul\":16649:16653   */\n      0x22\n        /* \"#utility.yul\":16646:16647   */\n      0x04\n        /* \"#utility.yul\":16639:16654   */\n      mstore\n        /* \"#utility.yul\":16677:16681   */\n      0x24\n        /* \"#utility.yul\":16674:16675   */\n      0x00\n        /* \"#utility.yul\":16667:16682   */\n      revert\n        /* \"#utility.yul\":16531:16692   */\n    tag_732:\n      pop\n        /* \"#utility.yul\":16318:16698   */\n      swap2\n      swap1\n      pop\n      jump\t// out\n        /* \"#utility.yul\":19159:19653   */\n    tag_271:\n      sub(shl(0xa0, 0x01), 0x01)\n        /* \"#utility.yul\":19423:19429   */\n      dup6\n        /* \"#utility.yul\":19419:19474   */\n      and\n        /* \"#utility.yul\":19408:19417   */\n      dup2\n        /* \"#utility.yul\":19401:19475   */\n      mstore\n        /* \"#utility.yul\":19511:19513   */\n      0x60\n        /* \"#utility.yul\":19506:19508   */\n      0x20\n        /* \"#utility.yul\":19495:19504   */\n      dup3\n        /* \"#utility.yul\":19491:19509   */\n      add\n        /* \"#utility.yul\":19484:19514   */\n      mstore\n        /* \"#utility.yul\":19382:19386   */\n      0x00\n        /* \"#utility.yul\":19531:19604   */\n      tag_729\n        /* \"#utility.yul\":19600:19602   */\n      0x60\n        /* \"#utility.yul\":19589:19598   */\n      dup4\n        /* \"#utility.yul\":19585:19603   */\n      add\n        /* \"#utility.yul\":19577:19583   */\n      dup6\n        /* \"#utility.yul\":19569:19575   */\n      dup8\n        /* \"#utility.yul\":19531:19604   */\n      tag_587\n      jump\t// in\n        /* \"#utility.yul\":22207:22933   */\n    tag_359:\n        /* \"#utility.yul\":22374:22378   */\n      0x00\n        /* \"#utility.yul\":22422:22424   */\n      0x40\n        /* \"#utility.yul\":22411:22420   */\n      dup3\n        /* \"#utility.yul\":22407:22425   */\n      add\n        /* \"#utility.yul\":22452:22458   */\n      dup5\n        /* \"#utility.yul\":22441:22450   */\n      dup4\n        /* \"#utility.yul\":22434:22459   */\n      mstore\n        /* \"#utility.yul\":22478:22480   */\n      0x20\n        /* \"#utility.yul\":22516:22518   */\n      0x40\n        /* \"#utility.yul\":22511:22513   */\n      0x20\n        /* \"#utility.yul\":22500:22509   */\n      dup6\n        /* \"#utility.yul\":22496:22514   */\n      add\n        /* \"#utility.yul\":22489:22519   */\n      mstore\n        /* \"#utility.yul\":22539:22545   */\n      dup2\n        /* \"#utility.yul\":22574:22580   */\n      dup6\n        /* \"#utility.yul\":22568:22581   */\n      sload\n        /* \"#utility.yul\":22605:22611   */\n      dup1\n        /* \"#utility.yul\":22597:22603   */\n      dup5\n        /* \"#utility.yul\":22590:22612   */\n      mstore\n        /* \"#utility.yul\":22643:22645   */\n      0x60\n        /* \"#utility.yul\":22632:22641   */\n      dup7\n        /* \"#utility.yul\":22628:22646   */\n      add\n        /* \"#utility.yul\":22621:22646   */\n      swap2\n      pop\n        /* \"#utility.yul\":22665:22671   */\n      dup7\n        /* \"#utility.yul\":22662:22663   */\n      0x00\n        /* \"#utility.yul\":22655:22672   */\n      mstore\n        /* \"#utility.yul\":22708:22710   */\n      0x20\n        /* \"#utility.yul\":22705:22706   */\n      0x00\n        /* \"#utility.yul\":22695:22711   */\n      keccak256\n        /* \"#utility.yul\":22681:22711   */\n      swap4\n      pop\n        /* \"#utility.yul\":22729:22730   */\n      0x00\n        /* \"#utility.yul\":22739:22907   */\n    tag_750:\n        /* \"#utility.yul\":22753:22759   */\n      dup2\n        /* \"#utility.yul\":22750:22751   */\n      dup2\n        /* \"#utility.yul\":22747:22760   */\n      lt\n        /* \"#utility.yul\":22739:22907   */\n      iszero\n      tag_752\n      jumpi\n        /* \"#utility.yul\":22814:22827   */\n      dup5\n      sload\n        /* \"#utility.yul\":22802:22828   */\n      dup4\n      mstore\n        /* \"#utility.yul\":22895:22896   */\n      0x01\n        /* \"#utility.yul\":22883:22897   */\n      swap5\n      dup6\n      add\n      swap5\n        /* \"#utility.yul\":22848:22860   */\n      swap3\n      dup5\n      add\n      swap3\n        /* \"#utility.yul\":22768:22777   */\n      add\n        /* \"#utility.yul\":22739:22907   */\n      jump(tag_750)\n    tag_752:\n      pop\n        /* \"#utility.yul\":22924:22927   */\n      swap1\n      swap8\n        /* \"#utility.yul\":22207:22933   */\n      swap7\n      pop\n      pop\n      pop\n      pop\n      pop\n      pop\n      pop\n      jump\t// out\n        /* \"#utility.yul\":23896:24008   */\n    tag_407:\n        /* \"#utility.yul\":23928:23929   */\n      0x00\n        /* \"#utility.yul\":23954:23955   */\n      dup3\n        /* \"#utility.yul\":23944:23979   */\n      tag_758\n      jumpi\n        /* \"#utility.yul\":23959:23977   */\n      tag_758\n      tag_394\n      jump\t// in\n    tag_758:\n      pop\n        /* \"#utility.yul\":23993:24002   */\n      mod\n      swap1\n        /* \"#utility.yul\":23896:24008   */\n      jump\t// out\n        /* \"#utility.yul\":24766:25067   */\n    tag_436:\n        /* \"#utility.yul\":24895:24898   */\n      0x00\n        /* \"#utility.yul\":24933:24939   */\n      dup3\n        /* \"#utility.yul\":24927:24940   */\n      mload\n        /* \"#utility.yul\":24979:24985   */\n      dup1\n        /* \"#utility.yul\":24972:24976   */\n      0x20\n        /* \"#utility.yul\":24964:24970   */\n      dup6\n        /* \"#utility.yul\":24960:24977   */\n      add\n        /* \"#utility.yul\":24955:24958   */\n      dup5\n        /* \"#utility.yul\":24949:24986   */\n      mcopy\n        /* \"#utility.yul\":25041:25042   */\n      0x00\n        /* \"#utility.yul\":25005:25021   */\n      swap3\n      add\n        /* \"#utility.yul\":25030:25043   */\n      swap2\n      dup3\n      mstore\n      pop\n        /* \"#utility.yul\":25005:25021   */\n      swap2\n        /* \"#utility.yul\":24766:25067   */\n      swap1\n      pop\n      jump\t// out\n        /* \"#utility.yul\":25413:25658   */\n    tag_444:\n        /* \"#utility.yul\":25492:25498   */\n      0x00\n        /* \"#utility.yul\":25500:25506   */\n      dup1\n        /* \"#utility.yul\":25553:25555   */\n      0x40\n        /* \"#utility.yul\":25541:25550   */\n      dup4\n        /* \"#utility.yul\":25532:25539   */\n      dup6\n        /* \"#utility.yul\":25528:25551   */\n      sub\n        /* \"#utility.yul\":25524:25556   */\n      slt\n        /* \"#utility.yul\":25521:25573   */\n      iszero\n      tag_764\n      jumpi\n        /* \"#utility.yul\":25569:25570   */\n      0x00\n        /* \"#utility.yul\":25566:25567   */\n      dup1\n        /* \"#utility.yul\":25559:25571   */\n      revert\n        /* \"#utility.yul\":25521:25573   */\n    tag_764:\n      pop\n      pop\n        /* \"#utility.yul\":25592:25608   */\n      dup1\n      mload\n        /* \"#utility.yul\":25648:25650   */\n      0x20\n        /* \"#utility.yul\":25633:25651   */\n      swap1\n      swap2\n      add\n        /* \"#utility.yul\":25627:25652   */\n      mload\n        /* \"#utility.yul\":25592:25608   */\n      swap1\n      swap3\n        /* \"#utility.yul\":25627:25652   */\n      swap1\n      swap2\n      pop\n        /* \"#utility.yul\":25413:25658   */\n      jump\t// out\n        /* \"#utility.yul\":27017:27482   */\n    tag_531:\n        /* \"#utility.yul\":27274:27276   */\n      0x40\n        /* \"#utility.yul\":27263:27272   */\n      dup2\n        /* \"#utility.yul\":27256:27277   */\n      mstore\n        /* \"#utility.yul\":27237:27241   */\n      0x00\n        /* \"#utility.yul\":27300:27356   */\n      tag_770\n        /* \"#utility.yul\":27352:27354   */\n      0x40\n        /* \"#utility.yul\":27341:27350   */\n      dup4\n        /* \"#utility.yul\":27337:27355   */\n      add\n        /* \"#utility.yul\":27329:27335   */\n      dup6\n        /* \"#utility.yul\":27300:27356   */\n      tag_584\n      jump\t// in\n    tag_770:\n        /* \"#utility.yul\":27404:27413   */\n      dup3\n        /* \"#utility.yul\":27396:27402   */\n      dup2\n        /* \"#utility.yul\":27392:27414   */\n      sub\n        /* \"#utility.yul\":27387:27389   */\n      0x20\n        /* \"#utility.yul\":27376:27385   */\n      dup5\n        /* \"#utility.yul\":27372:27390   */\n      add\n        /* \"#utility.yul\":27365:27415   */\n      mstore\n        /* \"#utility.yul\":27432:27476   */\n      tag_771\n        /* \"#utility.yul\":27469:27475   */\n      dup2\n        /* \"#utility.yul\":27461:27467   */\n      dup6\n        /* \"#utility.yul\":27432:27476   */\n      tag_584\n      jump\t// in\n    tag_771:\n        /* \"#utility.yul\":27424:27476   */\n      swap6\n        /* \"#utility.yul\":27017:27482   */\n      swap5\n      pop\n      pop\n      pop\n      pop\n      pop\n      jump\t// out\n        /* \"#utility.yul\":27487:28071   */\n    tag_535:\n        /* \"#utility.yul\":27709:27713   */\n      0x00\n      sub(shl(0xa0, 0x01), 0x01)\n        /* \"#utility.yul\":27819:27821   */\n      dup1\n        /* \"#utility.yul\":27811:27817   */\n      dup9\n        /* \"#utility.yul\":27807:27822   */\n      and\n        /* \"#utility.yul\":27796:27805   */\n      dup4\n        /* \"#utility.yul\":27789:27823   */\n      mstore\n        /* \"#utility.yul\":27871:27873   */\n      dup1\n        /* \"#utility.yul\":27863:27869   */\n      dup8\n        /* \"#utility.yul\":27859:27874   */\n      and\n        /* \"#utility.yul\":27854:27856   */\n      0x20\n        /* \"#utility.yul\":27843:27852   */\n      dup5\n        /* \"#utility.yul\":27839:27857   */\n      add\n        /* \"#utility.yul\":27832:27875   */\n      mstore\n      pop\n        /* \"#utility.yul\":27911:27917   */\n      dup5\n        /* \"#utility.yul\":27906:27908   */\n      0x40\n        /* \"#utility.yul\":27895:27904   */\n      dup4\n        /* \"#utility.yul\":27891:27909   */\n      add\n        /* \"#utility.yul\":27884:27918   */\n      mstore\n        /* \"#utility.yul\":27954:27960   */\n      dup4\n        /* \"#utility.yul\":27949:27951   */\n      0x60\n        /* \"#utility.yul\":27938:27947   */\n      dup4\n        /* \"#utility.yul\":27934:27952   */\n      add\n        /* \"#utility.yul\":27927:27961   */\n      mstore\n        /* \"#utility.yul\":27998:28001   */\n      0xa0\n        /* \"#utility.yul\":27992:27995   */\n      0x80\n        /* \"#utility.yul\":27981:27990   */\n      dup4\n        /* \"#utility.yul\":27977:27996   */\n      add\n        /* \"#utility.yul\":27970:28002   */\n      mstore\n        /* \"#utility.yul\":28019:28065   */\n      tag_773\n        /* \"#utility.yul\":28060:28063   */\n      0xa0\n        /* \"#utility.yul\":28049:28058   */\n      dup4\n        /* \"#utility.yul\":28045:28064   */\n      add\n        /* \"#utility.yul\":28037:28043   */\n      dup5\n        /* \"#utility.yul\":28019:28065   */\n      tag_579\n      jump\t// in\n    tag_773:\n        /* \"#utility.yul\":28011:28065   */\n      swap8\n        /* \"#utility.yul\":27487:28071   */\n      swap7\n      pop\n      pop\n      pop\n      pop\n      pop\n      pop\n      pop\n      jump\t// out\n        /* \"#utility.yul\":28076:28325   */\n    tag_538:\n        /* \"#utility.yul\":28145:28151   */\n      0x00\n        /* \"#utility.yul\":28198:28200   */\n      0x20\n        /* \"#utility.yul\":28186:28195   */\n      dup3\n        /* \"#utility.yul\":28177:28184   */\n      dup5\n        /* \"#utility.yul\":28173:28196   */\n      sub\n        /* \"#utility.yul\":28169:28201   */\n      slt\n        /* \"#utility.yul\":28166:28218   */\n      iszero\n      tag_775\n      jumpi\n        /* \"#utility.yul\":28214:28215   */\n      0x00\n        /* \"#utility.yul\":28211:28212   */\n      dup1\n        /* \"#utility.yul\":28204:28216   */\n      revert\n        /* \"#utility.yul\":28166:28218   */\n    tag_775:\n        /* \"#utility.yul\":28246:28255   */\n      dup2\n        /* \"#utility.yul\":28240:28256   */\n      mload\n        /* \"#utility.yul\":28265:28295   */\n      tag_201\n        /* \"#utility.yul\":28289:28294   */\n      dup2\n        /* \"#utility.yul\":28265:28295   */\n      tag_578\n      jump\t// in\n        /* \"#utility.yul\":28330:29180   */\n    tag_554:\n        /* \"#utility.yul\":28652:28656   */\n      0x00\n      sub(shl(0xa0, 0x01), 0x01)\n        /* \"#utility.yul\":28762:28764   */\n      dup1\n        /* \"#utility.yul\":28754:28760   */\n      dup9\n        /* \"#utility.yul\":28750:28765   */\n      and\n        /* \"#utility.yul\":28739:28748   */\n      dup4\n        /* \"#utility.yul\":28732:28766   */\n      mstore\n        /* \"#utility.yul\":28814:28816   */\n      dup1\n        /* \"#utility.yul\":28806:28812   */\n      dup8\n        /* \"#utility.yul\":28802:28817   */\n      and\n        /* \"#utility.yul\":28797:28799   */\n      0x20\n        /* \"#utility.yul\":28786:28795   */\n      dup5\n        /* \"#utility.yul\":28782:28800   */\n      add\n        /* \"#utility.yul\":28775:28818   */\n      mstore\n      pop\n        /* \"#utility.yul\":28854:28857   */\n      0xa0\n        /* \"#utility.yul\":28849:28851   */\n      0x40\n        /* \"#utility.yul\":28838:28847   */\n      dup4\n        /* \"#utility.yul\":28834:28852   */\n      add\n        /* \"#utility.yul\":28827:28858   */\n      mstore\n        /* \"#utility.yul\":28881:28938   */\n      tag_778\n        /* \"#utility.yul\":28933:28936   */\n      0xa0\n        /* \"#utility.yul\":28922:28931   */\n      dup4\n        /* \"#utility.yul\":28918:28937   */\n      add\n        /* \"#utility.yul\":28910:28916   */\n      dup7\n        /* \"#utility.yul\":28881:28938   */\n      tag_584\n      jump\t// in\n    tag_778:\n        /* \"#utility.yul\":28986:28995   */\n      dup3\n        /* \"#utility.yul\":28978:28984   */\n      dup2\n        /* \"#utility.yul\":28974:28996   */\n      sub\n        /* \"#utility.yul\":28969:28971   */\n      0x60\n        /* \"#utility.yul\":28958:28967   */\n      dup5\n        /* \"#utility.yul\":28954:28972   */\n      add\n        /* \"#utility.yul\":28947:28997   */\n      mstore\n        /* \"#utility.yul\":29020:29064   */\n      tag_779\n        /* \"#utility.yul\":29057:29063   */\n      dup2\n        /* \"#utility.yul\":29049:29055   */\n      dup7\n        /* \"#utility.yul\":29020:29064   */\n      tag_584\n      jump\t// in\n    tag_779:\n        /* \"#utility.yul\":29006:29064   */\n      swap1\n      pop\n        /* \"#utility.yul\":29113:29122   */\n      dup3\n        /* \"#utility.yul\":29105:29111   */\n      dup2\n        /* \"#utility.yul\":29101:29123   */\n      sub\n        /* \"#utility.yul\":29095:29098   */\n      0x80\n        /* \"#utility.yul\":29084:29093   */\n      dup5\n        /* \"#utility.yul\":29080:29099   */\n      add\n        /* \"#utility.yul\":29073:29124   */\n      mstore\n        /* \"#utility.yul\":29141:29174   */\n      tag_780\n        /* \"#utility.yul\":29167:29173   */\n      dup2\n        /* \"#utility.yul\":29159:29165   */\n      dup6\n        /* \"#utility.yul\":29141:29174   */\n      tag_579\n      jump\t// in\n    tag_780:\n        /* \"#utility.yul\":29133:29174   */\n      swap9\n        /* \"#utility.yul\":28330:29180   */\n      swap8\n      pop\n      pop\n      pop\n      pop\n      pop\n      pop\n      pop\n      pop\n      jump\t// out\n    stop\n    data_3c9b2d4d36a3f2e0da59e7d32cb1a6dfeb0312ec6bad2e2d02e8219844d4fb30 30644e72e131a029b85045b68181585d97816a916871ca8d3c208c16d87cfd47\n\n    auxdata: 0xa2646970667358221220a77f99e1becc2868d54b0cd9aa21d2c68af7bc133a27d2240fa07379e0e8b28e64736f6c63430008190033\n}\n",
    "bytecode": {
      "linkReferences": {},
      "object": "608060405234801561000f575f80fd5b5060408051602081019091525f81526100278161002d565b50610194565b600261003982826100d5565b5050565b634e487b7160e01b5f52604160045260245ffd5b600181811c9082168061006557607f821691505b60208210810361008357634e487b7160e01b5f52602260045260245ffd5b50919050565b601f8211156100d057805f5260205f20601f840160051c810160208510156100ae5750805b601f840160051c820191505b818110156100cd575f81556001016100ba565b50505b505050565b81516001600160401b038111156100ee576100ee61003d565b610102816100fc8454610051565b84610089565b602080601f831160018114610135575f841561011e5750858301515b5f19600386901b1c1916600185901b17855561018c565b5f85815260208120601f198616915b8281101561016357888601518255948401946001909101908401610144565b508582101561018057878501515f19600388901b60f8161c191681555b505060018460011b0185555b505050505050565b613426806101a15f395ff3fe608060405234801561000f575f80fd5b5060043610610148575f3560e01c8063852c6ae2116100c7578063d42dc0c21161007d578063dd34de6711610063578063dd34de67146102c7578063e985e9c5146102e6578063f242432a14610321575f80fd5b8063d42dc0c214610295578063d96ee754146102b4575f80fd5b80639e7212ad116100ad5780639e7212ad1461025c578063a22cb4651461026f578063c49298ac14610282575f80fd5b8063852c6ae214610236578063856296f714610249575f80fd5b80630e89341c1161011c57806339dd75301161010257806339dd7530146101f05780634e1273f41461020357806372ce427514610223575f80fd5b80630e89341c146101bd5780632eb2c2d6146101dd575f80fd5b8062fdd58e1461014c57806301b7037c1461017257806301ffc9a7146101875780630504c814146101aa575b5f80fd5b61015f61015a366004612a88565b610334565b6040519081526020015b60405180910390f35b610185610180366004612afa565b61035b565b005b61019a610195366004612b74565b610772565b6040519015158152602001610169565b61015f6101b8366004612b8f565b6107c1565b6101d06101cb366004612baf565b6107ec565b6040516101699190612bf4565b6101856101eb366004612d46565b61087e565b61015f6101fe366004612a88565b610903565b610216610211366004612ded565b61094d565b6040516101699190612ee3565b610185610231366004612ef5565b610a18565b61015f610244366004612f62565b610e39565b61015f610257366004612f94565b610e8b565b61018561026a366004612ef5565b610e97565b61018561027d366004612fca565b611291565b610185610290366004613001565b6112a0565b61015f6102a3366004612baf565b5f9081526004602052604090205490565b6101856102c2366004612f62565b611597565b61015f6102d5366004612baf565b60036020525f908152604090205481565b61019a6102f4366004613049565b6001600160a01b039182165f90815260016020908152604080832093909416825291909152205460ff1690565b61018561032f366004613075565b6117a1565b5f818152602081815260408083206001600160a01b03861684529091529020545b92915050565b5f83815260036020526040902054806103e15760405162461bcd60e51b815260206004820152602560248201527f726573756c7420666f7220636f6e646974696f6e206e6f74207265636569766560448201527f642079657400000000000000000000000000000000000000000000000000000060648201526084015b60405180910390fd5b5f848152600460205260409020548061043c5760405162461bcd60e51b815260206004820152601a60248201527f636f6e646974696f6e206e6f742070726570617265642079657400000000000060448201526064016103d8565b5f8061044b600180851b6130ed565b90505f5b858110156105c9575f87878381811061046a5761046a613100565b9050602002013590505f8111801561048157508281105b6104cd5760405162461bcd60e51b815260206004820152601760248201527f676f7420696e76616c696420696e64657820736574203300000000000000000060448201526064016103d8565b5f6105248c6104dd8d8d8661181e565b6040516bffffffffffffffffffffffff19606084901b166020820152603481018290525f9060540160408051601f1981840301815291905280516020909101209392505050565b90505f805b8781101561057a576001811b841615610572575f8c815260046020526040902080548290811061055b5761055b613100565b905f5260205f2001548261056f9190613114565b91505b600101610529565b505f6105863384610334565b905080156105b957610598898361313b565b6105a2908261314e565b6105ac9088613114565b96506105b9338483611b3d565b50506001909201915061044f9050565b50811561071557876106ba5760405163a9059cbb60e01b8152336004820152602481018390526001600160a01b038a169063a9059cbb906044016020604051808303815f875af115801561061f573d5f803e3d5ffd5b505050506040513d601f19601f820116820180604052508101906106439190613165565b6106b55760405162461bcd60e51b815260206004820152602b60248201527f636f756c64206e6f74207472616e73666572207061796f757420746f206d657360448201527f736167652073656e64657200000000000000000000000000000000000000000060648201526084016103d8565b610715565b6040805160608b901b6bffffffffffffffffffffffff191660208083019190915260348083018c905283518084039091018152605490920190925280519101206107159033908460405180602001604052805f815250611baa565b87896001600160a01b0316336001600160a01b03167f2682012a4a4f1973119f1c9b90745d1bd91fa2bab387344f044cb3586864d18d8a8a8a8860405161075f94939291906131c9565b60405180910390a4505050505050505050565b5f6001600160e01b03198216636cdb3d1360e11b14806107a257506001600160e01b031982166303a24d0760e21b145b8061035557506301ffc9a760e01b6001600160e01b0319831614610355565b6004602052815f5260405f2081815481106107da575f80fd5b905f5260205f20015f91509150505481565b6060600280546107fb906131f3565b80601f0160208091040260200160405190810160405280929190818152602001828054610827906131f3565b80156108725780601f1061084957610100808354040283529160200191610872565b820191905f5260205f20905b81548152906001019060200180831161085557829003601f168201915b50505050509050919050565b336001600160a01b03861681148015906108bd57506001600160a01b038087165f9081526001602090815260408083209385168352929052205460ff16155b156108ee5760405163711bec9160e11b81526001600160a01b038083166004830152871660248201526044016103d8565b6108fb8686868686611c05565b505050505050565b60408051606084901b6bffffffffffffffffffffffff1916602080830191909152603480830185905283518084039091018152605490920190925280519101205f905b9392505050565b6060815183511461097e5781518351604051635b05999160e01b8152600481019290925260248201526044016103d8565b5f835167ffffffffffffffff81111561099957610999612c06565b6040519080825280602002602001820160405280156109c2578160200160208202803683370190505b5090505f5b8451811015610a10576020808202860101516109eb90602080840287010151610334565b8282815181106109fd576109fd613100565b60209081029190910101526001016109c7565b509392505050565b60018211610a685760405162461bcd60e51b815260206004820181905260248201527f676f7420656d707479206f722073696e676c65746f6e20706172746974696f6e60448201526064016103d8565b5f8481526004602052604090205480610ac35760405162461bcd60e51b815260206004820152601a60248201527f636f6e646974696f6e206e6f742070726570617265642079657400000000000060448201526064016103d8565b5f610ad1600180841b6130ed565b9050805f8567ffffffffffffffff811115610aee57610aee612c06565b604051908082528060200260200182016040528015610b17578160200160208202803683370190505b5090505f8667ffffffffffffffff811115610b3457610b34612c06565b604051908082528060200260200182016040528015610b5d578160200160208202803683370190505b5090505f5b87811015610c89575f898983818110610b7d57610b7d613100565b9050602002013590505f81118015610b9457508581105b610be05760405162461bcd60e51b815260206004820152601760248201527f676f7420696e76616c696420696e64657820736574203200000000000000000060448201526064016103d8565b8085821614610c315760405162461bcd60e51b815260206004820152601660248201527f706172746974696f6e206e6f74206469736a6f696e740000000000000000000060448201526064016103d8565b93841893610c448d6104dd8e8e8561181e565b848381518110610c5657610c56613100565b60200260200101818152505087838381518110610c7557610c75613100565b602090810291909101015250600101610b62565b50825f03610db45789610d67576040516323b872dd60e01b8152336004820152306024820152604481018790526001600160a01b038c16906323b872dd906064016020604051808303815f875af1158015610ce6573d5f803e3d5ffd5b505050506040513d601f19601f82011682018060405250810190610d0a9190613165565b610d625760405162461bcd60e51b815260206004820152602360248201527f636f756c64206e6f74207265636569766520636f6c6c61746572616c20746f6b604482015262656e7360e81b60648201526084016103d8565b610dc9565b6040805160608d901b6bffffffffffffffffffffffff191660208083019190915260348083018e90528351808403909101815260549092019092528051910120610d629033905b88611b3d565b610dc933610dae8d6104dd8e8e898b1861181e565b610de333838360405180602001604052805f815250611c63565b888a336001600160a01b03167f2e6bb91f8cbcda0c93623c54d0403a43514fabc40084ec96b6d5379a747862988e8c8c8c604051610e24949392919061322b565b60405180910390a45050505050505050505050565b60408051606085901b6bffffffffffffffffffffffff191660208083019190915260348201859052605480830185905283518084039091018152607490920190925280519101205f905b949350505050565b5f610e8384848461181e565b60018211610ee75760405162461bcd60e51b815260206004820181905260248201527f676f7420656d707479206f722073696e676c65746f6e20706172746974696f6e60448201526064016103d8565b5f8481526004602052604090205480610f425760405162461bcd60e51b815260206004820152601a60248201527f636f6e646974696f6e206e6f742070726570617265642079657400000000000060448201526064016103d8565b5f610f50600180841b6130ed565b9050805f8567ffffffffffffffff811115610f6d57610f6d612c06565b604051908082528060200260200182016040528015610f96578160200160208202803683370190505b5090505f8667ffffffffffffffff811115610fb357610fb3612c06565b604051908082528060200260200182016040528015610fdc578160200160208202803683370190505b5090505f5b87811015611108575f898983818110610ffc57610ffc613100565b9050602002013590505f8111801561101357508581105b61105f5760405162461bcd60e51b815260206004820152601760248201527f676f7420696e76616c696420696e64657820736574203100000000000000000060448201526064016103d8565b80858216146110b05760405162461bcd60e51b815260206004820152601660248201527f706172746974696f6e206e6f74206469736a6f696e740000000000000000000060448201526064016103d8565b938418936110c38d6104dd8e8e8561181e565b8483815181106110d5576110d5613100565b602002602001018181525050878383815181106110f4576110f4613100565b602090810291909101015250600101610fe1565b50611114338383611c9f565b825f0361123b57896111df5760405163a9059cbb60e01b8152336004820152602481018790526001600160a01b038c169063a9059cbb906044016020604051808303815f875af115801561116a573d5f803e3d5ffd5b505050506040513d601f19601f8201168201806040525081019061118e9190613165565b6111da5760405162461bcd60e51b815260206004820181905260248201527f636f756c64206e6f742073656e6420636f6c6c61746572616c20746f6b656e7360448201526064016103d8565b611250565b6040805160608d901b6bffffffffffffffffffffffff191660208083019190915260348083018e905283518084039091018152605490920190925280519101206111da9033905b8860405180602001604052805f815250611baa565b611250336112268d6104dd8e8e898b1861181e565b888a336001600160a01b03167f6f13ca62553fcc2bcd2372180a43949c1e4cebba603901ede2f4e14f36b282ca8e8c8c8c604051610e24949392919061322b565b61129c338383611ce7565b5050565b80600181116113045760405162461bcd60e51b815260206004820152602a60248201527f74686572652073686f756c64206265206d6f7265207468616e206f6e65206f756044820152691d18dbdb59481cdb1bdd60b21b60648201526084016103d8565b604080516bffffffffffffffffffffffff193360601b1660208083019190915260348201879052605480830185905283518084039091018152607490920183528151918101919091205f81815260049092529190205482146113a85760405162461bcd60e51b815260206004820152601f60248201527f636f6e646974696f6e206e6f74207072657061726564206f7220666f756e640060448201526064016103d8565b5f81815260036020526040902054156114035760405162461bcd60e51b815260206004820152601e60248201527f7061796f75742064656e6f6d696e61746f7220616c726561647920736574000060448201526064016103d8565b5f805b838110156114e6575f86868381811061142157611421613100565b90506020020135905080836114369190613114565b5f8581526004602052604090208054919450908390811061145957611459613100565b905f5260205f2001545f146114b05760405162461bcd60e51b815260206004820152601c60248201527f7061796f7574206e756d657261746f7220616c7265616479207365740000000060448201526064016103d8565b5f8481526004602052604090208054829190849081106114d2576114d2613100565b5f9182526020909120015550600101611406565b505f81116115365760405162461bcd60e51b815260206004820152601460248201527f7061796f757420697320616c6c207a65726f657300000000000000000000000060448201526064016103d8565b5f82815260036020908152604080832084905560049091529081902090518791339185917fb44d84d3289691f71497564b85d4233648d9dbae8cbdbb4329f301c3a01858949161158791899161324d565b60405180910390a4505050505050565b6101008111156115e95760405162461bcd60e51b815260206004820152601660248201527f746f6f206d616e79206f7574636f6d6520736c6f74730000000000000000000060448201526064016103d8565b6001811161164c5760405162461bcd60e51b815260206004820152602a60248201527f74686572652073686f756c64206265206d6f7265207468616e206f6e65206f756044820152691d18dbdb59481cdb1bdd60b21b60648201526084016103d8565b604080516bffffffffffffffffffffffff19606086901b1660208083019190915260348201859052605480830185905283518084039091018152607490920183528151918101919091205f818152600490925291902054156116f05760405162461bcd60e51b815260206004820152601a60248201527f636f6e646974696f6e20616c726561647920707265706172656400000000000060448201526064016103d8565b8167ffffffffffffffff81111561170957611709612c06565b604051908082528060200260200182016040528015611732578160200160208202803683370190505b505f82815260046020908152604090912082516117559391929190910190612a14565b5082846001600160a01b0316827fab3760c3bd2bb38b5bcf54dc79802ed67338b4cf29f3054ded67ed24661e41778560405161179391815260200190565b60405180910390a450505050565b336001600160a01b03861681148015906117e057506001600160a01b038087165f9081526001602090815260408083209385168352929052205460ff16155b156118115760405163711bec9160e11b81526001600160a01b038083166004830152871660248201526044016103d8565b6108fb8686868686611d7b565b5f80838360405160200161183c929190918252602082015260400190565b60408051601f198184030181529190528051602090910120905060ff81901c15155f805b5f805160206133d18339815191526001850893505f805160206133d183398151915260035f805160206133d18339815191528087880987090890506118a481611e07565b9150805f805160206133d183398151915283840903611860578280156118d257506118d060028361329e565b155b806118f05750821580156118f057506118ec60028361329e565b6001145b1561190f5761190c825f805160206133d18339815191526130ed565b91505b878015611b145760fe81901c151593507f3fffffffffffffffffffffffffffffffffffffffffffffffffffffffffffffff165f805160206133d183398151915260035f805160206133d18339815191528084850984090891505f61197283611e07565b9050848015611989575061198760028261329e565b155b806119a75750841580156119a757506119a360028261329e565b6001145b156119c6576119c3815f805160206133d18339815191526130ed565b90505b825f805160206133d183398151915282830914611a255760405162461bcd60e51b815260206004820152601c60248201527f696e76616c696420706172656e7420636f6c6c656374696f6e2049440000000060448201526064016103d8565b604080516020810188905290810185905260608101839052608081018290525f90819060069060a00160408051601f1981840301815290829052611a68916132b1565b5f60405180830381855afa9150503d805f8114611aa0576040519150601f19603f3d011682016040523d82523d5f602084013e611aa5565b606091505b509150915081611af75760405162461bcd60e51b815260206004820152600c60248201527f6563616464206661696c6564000000000000000000000000000000000000000060448201526064016103d8565b80806020019051810190611b0b91906132c7565b90985095505050505b611b1f60028461329e565b600103611b3057600160fe1b851894505b5092979650505050505050565b6001600160a01b038316611b6557604051626a0d4560e21b81525f60048201526024016103d8565b604080516001808252602082018590528183019081526060820184905260a082019092525f60808201818152919291611ba3918791859085906125aa565b5050505050565b6001600160a01b038416611bd357604051632bfa23e760e11b81525f60048201526024016103d8565b604080516001808252602082018690528183019081526060820185905260808201909252906108fb5f878484876125aa565b6001600160a01b038416611c2e57604051632bfa23e760e11b81525f60048201526024016103d8565b6001600160a01b038516611c5657604051626a0d4560e21b81525f60048201526024016103d8565b611ba385858585856125aa565b6001600160a01b038416611c8c57604051632bfa23e760e11b81525f60048201526024016103d8565b611c995f858585856125aa565b50505050565b6001600160a01b038316611cc757604051626a0d4560e21b81525f60048201526024016103d8565b611ce2835f848460405180602001604052805f8152506125aa565b505050565b6001600160a01b038216611d0f5760405162ced3e160e81b81525f60048201526024016103d8565b6001600160a01b038381165f81815260016020908152604080832094871680845294825291829020805460ff191686151590811790915591519182527f17307eab39ab6107e8899845ad3d59bd9653f200f220920489ca2b5937696c31910160405180910390a3505050565b6001600160a01b038416611da457604051632bfa23e760e11b81525f60048201526024016103d8565b6001600160a01b038516611dcc57604051626a0d4560e21b81525f60048201526024016103d8565b60408051600180825260208201869052818301908152606082018590526080820190925290611dfe87878484876125aa565b50505050505050565b5f5f805160206133d1833981519152808380099150808283098181820990508181840992508183850993508184840992508183840990508181820982818309905082818209905082818209905082818309915082828609945082858609915082828309915082828509935082848509915082828309915082828309915082828509915082828609945082858609915082828309915082828309915082828609915082828509935082848609945082858609915082828309915082828509935082848509915082828309905082818209905082818209905082818309915082828609945082858509935082848509915082828309915082828309915082828609945082858609915082828309915082828609915082828309915082828309915082828609915082828509935082848509915082828309905082818209905082818309905082818509905082818209905082818209905082818209905082818209905082818309915082828609945082858609915082828609915082828509935082848509915082828509915082828309915082828309905082818309905082818209838182099050838182099050838182099050838182099050838183099150508281830991508282860994508285850993508284850991508282860994508285850993508284860994508285850993508284860994508285860991508282860991508282830991508282850993508284850991508282830991508282860994508285850993508284850991508282850991508282860994508285850993508284860994508285850993508284850991508282830991508282850991508282860994508285860991508282860991508282850993508284860994508285850993508284860994508285850993508284850991508282850991508282830991508282860994508285850993508284850991508282850991508282830991508282860994508285860991508282830990508281820990508281830990508281860990508281820990508281820990508281820990508281820990508281830991508282850993508284860994508285850993508284860994508285860991508282860991508282830991508282830991508282830991508282860991508282850993508284850991508282850991508282830991508282860994508285860991508282860991508282850993508284860994508285860991508282830991508282850993508284860994508285860991508282850993508284860994508285850993508284850991508282850991508282860994508285850993508284850991508282850991508282830991508282830991508282860994508285860991508282830991508282830991508282860991508282850993508284860994508285860991508282860990508281820990508281820990508281830991508282850993508284850991508282860994508285850993508284860994508285850993508284860994508285850993508284850991508282850990508281850991508282830991508282830991508282820991505081818509935081848409925081838509935081848409925081838509935081848509905081818509905081818409925050808284099250808384099250808384099250808384099250808384099250808384099250808384099250808384099250808384099250808384099250808384099250808384099250808384099250808384099250808384099250808384099250808384099250808384099250808384099250808384099250808384099250808384099250808384099250808384099250808384099250808384099250808384099250808384099250808384099250808384099250808384099250808384099250808384099250808384099250808384099250808384099250808384099250808384099250808384099250808384099250808384099250808384099250808384099250808384099250808384099250808384099250808384099250808384099250808384099250808384099250808384099250808384099250808384099250808384099250808384099250808384099250808384099250808384099250808384099250808384099250808384099250808384099250808384099250808384099250808384099250808384099250808384099250808384099250808384099250808384099250808384099250808384099250808384099250808384099250808384099250808384099250808384099250808384099250808384099250808384099250808384099250808384099250808384099250808384099250808384099250808384099250808384099250808384099250808384099250808384099250808384099250808384099250808384099250808384099250808384099250808384099250808384099250808384099250808384099250808384099250808384099250808384099250808384099250808384099250808384099250808384099250808384099250808384099250808384099250808384099250808384099250808384099250808384099250808384099250808384099250808384099250808384099250808384099250808384099250808384099250808384099250808384099250808384099250808384099250808384099250808384099250808384099250808383099392505050565b6125b6858585856125fd565b6001600160a01b03841615611ba357825133906001036125ef57602084810151908401516125e883898985858961280c565b50506108fb565b6108fb81878787878761292d565b805182511461262c5781518151604051635b05999160e01b8152600481019290925260248201526044016103d8565b335f5b835181101561272e576020818102858101820151908501909101516001600160a01b038816156126e0575f828152602081815260408083206001600160a01b038c168452909152902054818110156126ba576040516303dee4c560e01b81526001600160a01b038a1660048201526024810182905260448101839052606481018490526084016103d8565b5f838152602081815260408083206001600160a01b038d16845290915290209082900390555b6001600160a01b03871615612724575f828152602081815260408083206001600160a01b038b1684529091528120805483929061271e908490613114565b90915550505b505060010161262f565b5082516001036127ae5760208301515f906020840151909150856001600160a01b0316876001600160a01b0316846001600160a01b03167fc3d58168c5ae7397731d063d5bbf3d657854427343f4c083240f7aacaa2d0f62858560405161279f929190918252602082015260400190565b60405180910390a45050611ba3565b836001600160a01b0316856001600160a01b0316826001600160a01b03167f4a39dc06d4c0dbc64b70af90fd698a233a518aa5d07e595d983b8c0526c8f7fb86866040516127fd9291906132e9565b60405180910390a45050505050565b6001600160a01b0384163b156108fb5760405163f23a6e6160e01b81526001600160a01b0385169063f23a6e61906128509089908990889088908890600401613316565b6020604051808303815f875af192505050801561288a575060408051601f3d908101601f1916820190925261288791810190613358565b60015b6128f1573d8080156128b7576040519150601f19603f3d011682016040523d82523d5f602084013e6128bc565b606091505b5080515f036128e957604051632bfa23e760e11b81526001600160a01b03861660048201526024016103d8565b805181602001fd5b6001600160e01b0319811663f23a6e6160e01b14611dfe57604051632bfa23e760e11b81526001600160a01b03861660048201526024016103d8565b6001600160a01b0384163b156108fb5760405163bc197c8160e01b81526001600160a01b0385169063bc197c81906129719089908990889088908890600401613373565b6020604051808303815f875af19250505080156129ab575060408051601f3d908101601f191682019092526129a891810190613358565b60015b6129d8573d8080156128b7576040519150601f19603f3d011682016040523d82523d5f602084013e6128bc565b6001600160e01b0319811663bc197c8160e01b14611dfe57604051632bfa23e760e11b81526001600160a01b03861660048201526024016103d8565b828054828255905f5260205f20908101928215612a4d579160200282015b82811115612a4d578251825591602001919060010190612a32565b50612a59929150612a5d565b5090565b5b80821115612a59575f8155600101612a5e565b6001600160a01b0381168114612a85575f80fd5b50565b5f8060408385031215612a99575f80fd5b8235612aa481612a71565b946020939093013593505050565b5f8083601f840112612ac2575f80fd5b50813567ffffffffffffffff811115612ad9575f80fd5b6020830191508360208260051b8501011115612af3575f80fd5b9250929050565b5f805f805f60808688031215612b0e575f80fd5b8535612b1981612a71565b94506020860135935060408601359250606086013567ffffffffffffffff811115612b42575f80fd5b612b4e88828901612ab2565b969995985093965092949392505050565b6001600160e01b031981168114612a85575f80fd5b5f60208284031215612b84575f80fd5b813561094681612b5f565b5f8060408385031215612ba0575f80fd5b50508035926020909101359150565b5f60208284031215612bbf575f80fd5b5035919050565b5f81518084528060208401602086015e5f602082860101526020601f19601f83011685010191505092915050565b602081525f6109466020830184612bc6565b634e487b7160e01b5f52604160045260245ffd5b604051601f8201601f1916810167ffffffffffffffff81118282101715612c4357612c43612c06565b604052919050565b5f67ffffffffffffffff821115612c6457612c64612c06565b5060051b60200190565b5f82601f830112612c7d575f80fd5b81356020612c92612c8d83612c4b565b612c1a565b8083825260208201915060208460051b870101935086841115612cb3575f80fd5b602086015b84811015612ccf5780358352918301918301612cb8565b509695505050505050565b5f82601f830112612ce9575f80fd5b813567ffffffffffffffff811115612d0357612d03612c06565b612d16601f8201601f1916602001612c1a565b818152846020838601011115612d2a575f80fd5b816020850160208301375f918101602001919091529392505050565b5f805f805f60a08688031215612d5a575f80fd5b8535612d6581612a71565b94506020860135612d7581612a71565b9350604086013567ffffffffffffffff80821115612d91575f80fd5b612d9d89838a01612c6e565b94506060880135915080821115612db2575f80fd5b612dbe89838a01612c6e565b93506080880135915080821115612dd3575f80fd5b50612de088828901612cda565b9150509295509295909350565b5f8060408385031215612dfe575f80fd5b823567ffffffffffffffff80821115612e15575f80fd5b818501915085601f830112612e28575f80fd5b81356020612e38612c8d83612c4b565b82815260059290921b84018101918181019089841115612e56575f80fd5b948201945b83861015612e7d578535612e6e81612a71565b82529482019490820190612e5b565b96505086013592505080821115612e92575f80fd5b50612e9f85828601612c6e565b9150509250929050565b5f815180845260208085019450602084015f5b83811015612ed857815187529582019590820190600101612ebc565b509495945050505050565b602081525f6109466020830184612ea9565b5f805f805f8060a08789031215612f0a575f80fd5b8635612f1581612a71565b95506020870135945060408701359350606087013567ffffffffffffffff811115612f3e575f80fd5b612f4a89828a01612ab2565b979a9699509497949695608090950135949350505050565b5f805f60608486031215612f74575f80fd5b8335612f7f81612a71565b95602085013595506040909401359392505050565b5f805f60608486031215612fa6575f80fd5b505081359360208301359350604090920135919050565b8015158114612a85575f80fd5b5f8060408385031215612fdb575f80fd5b8235612fe681612a71565b91506020830135612ff681612fbd565b809150509250929050565b5f805f60408486031215613013575f80fd5b83359250602084013567ffffffffffffffff811115613030575f80fd5b61303c86828701612ab2565b9497909650939450505050565b5f806040838503121561305a575f80fd5b823561306581612a71565b91506020830135612ff681612a71565b5f805f805f60a08688031215613089575f80fd5b853561309481612a71565b945060208601356130a481612a71565b93506040860135925060608601359150608086013567ffffffffffffffff8111156130cd575f80fd5b612de088828901612cda565b634e487b7160e01b5f52601160045260245ffd5b81810381811115610355576103556130d9565b634e487b7160e01b5f52603260045260245ffd5b80820180821115610355576103556130d9565b634e487b7160e01b5f52601260045260245ffd5b5f8261314957613149613127565b500490565b8082028115828204841417610355576103556130d9565b5f60208284031215613175575f80fd5b815161094681612fbd565b8183525f7f07ffffffffffffffffffffffffffffffffffffffffffffffffffffffffffffff8311156131b0575f80fd5b8260051b80836020870137939093016020019392505050565b848152606060208201525f6131e2606083018587613180565b905082604083015295945050505050565b600181811c9082168061320757607f821691505b60208210810361322557634e487b7160e01b5f52602260045260245ffd5b50919050565b6001600160a01b0385168152606060208201525f6131e2606083018587613180565b5f60408201848352602060406020850152818554808452606086019150865f5260205f2093505f5b8181101561329157845483526001948501949284019201613275565b5090979650505050505050565b5f826132ac576132ac613127565b500690565b5f82518060208501845e5f920191825250919050565b5f80604083850312156132d8575f80fd5b505080516020909101519092909150565b604081525f6132fb6040830185612ea9565b828103602084015261330d8185612ea9565b95945050505050565b5f6001600160a01b03808816835280871660208401525084604083015283606083015260a0608083015261334d60a0830184612bc6565b979650505050505050565b5f60208284031215613368575f80fd5b815161094681612b5f565b5f6001600160a01b03808816835280871660208401525060a0604083015261339e60a0830186612ea9565b82810360608401526133b08186612ea9565b905082810360808401526133c48185612bc6565b9897505050505050505056fe30644e72e131a029b85045b68181585d97816a916871ca8d3c208c16d87cfd47a2646970667358221220a77f99e1becc2868d54b0cd9aa21d2c68af7bc133a27d2240fa07379e0e8b28e64736f6c63430008190033",
      "opcodes": "PUSH1 0x80 PUSH1 0x40 MSTORE CALLVALUE DUP1 ISZERO PUSH2 0xF JUMPI PUSH0 DUP1 REVERT JUMPDEST POP PUSH1 0x40 DUP1 MLOAD PUSH1 0x20 DUP2 ADD SWAP1 SWAP2 MSTORE PUSH0 DUP2 MSTORE PUSH2 0x27 DUP2 PUSH2 0x2D JUMP JUMPDEST POP PUSH2 0x194 JUMP JUMPDEST PUSH1 0x2 PUSH2 0x39 DUP3 DUP3 PUSH2 0xD5 JUMP JUMPDEST POP POP JUMP JUMPDEST PUSH4 0x4E487B71 PUSH1 0xE0 SHL PUSH0 MSTORE PUSH1 0x41 PUSH1 0x4 MSTORE PUSH1 0x24 PUSH0 REVERT JUMPDEST PUSH1 0x1 DUP2 DUP2 SHR SWAP1 DUP3 AND DUP1 PUSH2 0x65 JUMPI PUSH1 0x7F DUP3 AND SWAP2 POP JUMPDEST PUSH1 0x20 DUP3 LT DUP2 SUB PUSH2 0x83 JUMPI PUSH4 0x4E487B71 PUSH1 0xE0 SHL PUSH0 MSTORE PUSH1 0x22 PUSH1 0x4 MSTORE PUSH1 0x24 PUSH0 REVERT JUMPDEST POP SWAP2 SWAP1 POP JUMP JUMPDEST PUSH1 0x1F DUP3 GT ISZERO PUSH2 0xD0 JUMPI DUP1 PUSH0 MSTORE PUSH1 0x20 PUSH0 KECCAK256 PUSH1 0x1F DUP5 ADD PUSH1 0x5 SHR DUP2 ADD PUSH1 0x20 DUP6 LT ISZERO PUSH2 0xAE JUMPI POP DUP1 JUMPDEST PUSH1 0x1F DUP5 ADD PUSH1 0x5 SHR DUP3 ADD SWAP2 POP JUMPDEST DUP2 DUP2 LT ISZERO PUSH2 0xCD JUMPI PUSH0 DUP2 SSTORE PUSH1 0x1 ADD PUSH2 0xBA JUMP JUMPDEST POP POP JUMPDEST POP POP POP JUMP JUMPDEST DUP2 MLOAD PUSH1 0x1 PUSH1 0x1 PUSH1 0x40 SHL SUB DUP2 GT ISZERO PUSH2 0xEE JUMPI PUSH2 0xEE PUSH2 0x3D JUMP JUMPDEST PUSH2 0x102 DUP2 PUSH2 0xFC DUP5 SLOAD PUSH2 0x51 JUMP JUMPDEST DUP5 PUSH2 0x89 JUMP JUMPDEST PUSH1 0x20 DUP1 PUSH1 0x1F DUP4 GT PUSH1 0x1 DUP2 EQ PUSH2 0x135 JUMPI PUSH0 DUP5 ISZERO PUSH2 0x11E JUMPI POP DUP6 DUP4 ADD MLOAD JUMPDEST PUSH0 NOT PUSH1 0x3 DUP7 SWAP1 SHL SHR NOT AND PUSH1 0x1 DUP6 SWAP1 SHL OR DUP6 SSTORE PUSH2 0x18C JUMP JUMPDEST PUSH0 DUP6 DUP2 MSTORE PUSH1 0x20 DUP2 KECCAK256 PUSH1 0x1F NOT DUP7 AND SWAP2 JUMPDEST DUP3 DUP2 LT ISZERO PUSH2 0x163 JUMPI DUP9 DUP7 ADD MLOAD DUP3 SSTORE SWAP5 DUP5 ADD SWAP5 PUSH1 0x1 SWAP1 SWAP2 ADD SWAP1 DUP5 ADD PUSH2 0x144 JUMP JUMPDEST POP DUP6 DUP3 LT ISZERO PUSH2 0x180 JUMPI DUP8 DUP6 ADD MLOAD PUSH0 NOT PUSH1 0x3 DUP9 SWAP1 SHL PUSH1 0xF8 AND SHR NOT AND DUP2 SSTORE JUMPDEST POP POP PUSH1 0x1 DUP5 PUSH1 0x1 SHL ADD DUP6 SSTORE JUMPDEST POP POP POP POP POP POP JUMP JUMPDEST PUSH2 0x3426 DUP1 PUSH2 0x1A1 PUSH0 CODECOPY PUSH0 RETURN INVALID PUSH1 0x80 PUSH1 0x40 MSTORE CALLVALUE DUP1 ISZERO PUSH2 0xF JUMPI PUSH0 DUP1 REVERT JUMPDEST POP PUSH1 0x4 CALLDATASIZE LT PUSH2 0x148 JUMPI PUSH0 CALLDATALOAD PUSH1 0xE0 SHR DUP1 PUSH4 0x852C6AE2 GT PUSH2 0xC7 JUMPI DUP1 PUSH4 0xD42DC0C2 GT PUSH2 0x7D JUMPI DUP1 PUSH4 0xDD34DE67 GT PUSH2 0x63 JUMPI DUP1 PUSH4 0xDD34DE67 EQ PUSH2 0x2C7 JUMPI DUP1 PUSH4 0xE985E9C5 EQ PUSH2 0x2E6 JUMPI DUP1 PUSH4 0xF242432A EQ PUSH2 0x321 JUMPI PUSH0 DUP1 REVERT JUMPDEST DUP1 PUSH4 0xD42DC0C2 EQ PUSH2 0x295 JUMPI DUP1 PUSH4 0xD96EE754 EQ PUSH2 0x2B4 JUMPI PUSH0 DUP1 REVERT JUMPDEST DUP1 PUSH4 0x9E7212AD GT PUSH2 0xAD JUMPI DUP1 PUSH4 0x9E7212AD EQ PUSH2 0x25C JUMPI DUP1 PUSH4 0xA22CB465 EQ PUSH2 0x26F JUMPI DUP1 PUSH4 0xC49298AC EQ PUSH2 0x282 JUMPI PUSH0 DUP1 REVERT JUMPDEST DUP1 PUSH4 0x852C6AE2 EQ PUSH2 0x236 JUMPI DUP1 PUSH4 0x856296F7 EQ PUSH2 0x249 JUMPI PUSH0 DUP1 REVERT JUMPDEST DUP1 PUSH4 0xE89341C GT PUSH2 0x11C JUMPI DUP1 PUSH4 0x39DD7530 GT PUSH2 0x102 JUMPI DUP1 PUSH4 0x39DD7530 EQ PUSH2 0x1F0 JUMPI DUP1 PUSH4 0x4E1273F4 EQ PUSH2 0x203 JUMPI DUP1 PUSH4 0x72CE4275 EQ PUSH2 0x223 JUMPI PUSH0 DUP1 REVERT JUMPDEST DUP1 PUSH4 0xE89341C EQ PUSH2 0x1BD JUMPI DUP1 PUSH4 0x2EB2C2D6 EQ PUSH2 0x1DD JUMPI PUSH0 DUP1 REVERT JUMPDEST DUP1 PUSH3 0xFDD58E EQ PUSH2 0x14C JUMPI DUP1 PUSH4 0x1B7037C EQ PUSH2 0x172 JUMPI DUP1 PUSH4 0x1FFC9A7 EQ PUSH2 0x187 JUMPI DUP1 PUSH4 0x504C814 EQ PUSH2 0x1AA JUMPI JUMPDEST PUSH0 DUP1 REVERT JUMPDEST PUSH2 0x15F PUSH2 0x15A CALLDATASIZE PUSH1 0x4 PUSH2 0x2A88 JUMP JUMPDEST PUSH2 0x334 JUMP JUMPDEST PUSH1 0x40 MLOAD SWAP1 DUP2 MSTORE PUSH1 0x20 ADD JUMPDEST PUSH1 0x40 MLOAD DUP1 SWAP2 SUB SWAP1 RETURN JUMPDEST PUSH2 0x185 PUSH2 0x180 CALLDATASIZE PUSH1 0x4 PUSH2 0x2AFA JUMP JUMPDEST PUSH2 0x35B JUMP JUMPDEST STOP JUMPDEST PUSH2 0x19A PUSH2 0x195 CALLDATASIZE PUSH1 0x4 PUSH2 0x2B74 JUMP JUMPDEST PUSH2 0x772 JUMP JUMPDEST PUSH1 0x40 MLOAD SWAP1 ISZERO ISZERO DUP2 MSTORE PUSH1 0x20 ADD PUSH2 0x169 JUMP JUMPDEST PUSH2 0x15F PUSH2 0x1B8 CALLDATASIZE PUSH1 0x4 PUSH2 0x2B8F JUMP JUMPDEST PUSH2 0x7C1 JUMP JUMPDEST PUSH2 0x1D0 PUSH2 0x1CB CALLDATASIZE PUSH1 0x4 PUSH2 0x2BAF JUMP JUMPDEST PUSH2 0x7EC JUMP JUMPDEST PUSH1 0x40 MLOAD PUSH2 0x169 SWAP2 SWAP1 PUSH2 0x2BF4 JUMP JUMPDEST PUSH2 0x185 PUSH2 0x1EB CALLDATASIZE PUSH1 0x4 PUSH2 0x2D46 JUMP JUMPDEST PUSH2 0x87E JUMP JUMPDEST PUSH2 0x15F PUSH2 0x1FE CALLDATASIZE PUSH1 0x4 PUSH2 0x2A88 JUMP JUMPDEST PUSH2 0x903 JUMP JUMPDEST PUSH2 0x216 PUSH2 0x211 CALLDATASIZE PUSH1 0x4 PUSH2 0x2DED JUMP JUMPDEST PUSH2 0x94D JUMP JUMPDEST PUSH1 0x40 MLOAD PUSH2 0x169 SWAP2 SWAP1 PUSH2 0x2EE3 JUMP JUMPDEST PUSH2 0x185 PUSH2 0x231 CALLDATASIZE PUSH1 0x4 PUSH2 0x2EF5 JUMP JUMPDEST PUSH2 0xA18 JUMP JUMPDEST PUSH2 0x15F PUSH2 0x244 CALLDATASIZE PUSH1 0x4 PUSH2 0x2F62 JUMP JUMPDEST PUSH2 0xE39 JUMP JUMPDEST PUSH2 0x15F PUSH2 0x257 CALLDATASIZE PUSH1 0x4 PUSH2 0x2F94 JUMP JUMPDEST PUSH2 0xE8B JUMP JUMPDEST PUSH2 0x185 PUSH2 0x26A CALLDATASIZE PUSH1 0x4 PUSH2 0x2EF5 JUMP JUMPDEST PUSH2 0xE97 JUMP JUMPDEST PUSH2 0x185 PUSH2 0x27D CALLDATASIZE PUSH1 0x4 PUSH2 0x2FCA JUMP JUMPDEST PUSH2 0x1291 JUMP JUMPDEST PUSH2 0x185 PUSH2 0x290 CALLDATASIZE PUSH1 0x4 PUSH2 0x3001 JUMP JUMPDEST PUSH2 0x12A0 JUMP JUMPDEST PUSH2 0x15F PUSH2 0x2A3 CALLDATASIZE PUSH1 0x4 PUSH2 0x2BAF JUMP JUMPDEST PUSH0 SWAP1 DUP2 MSTORE PUSH1 0x4 PUSH1 0x20 MSTORE PUSH1 0x40 SWAP1 KECCAK256 SLOAD SWAP1 JUMP JUMPDEST PUSH2 0x185 PUSH2 0x2C2 CALLDATASIZE PUSH1 0x4 PUSH2 0x2F62 JUMP JUMPDEST PUSH2 0x1597 JUMP JUMPDEST PUSH2 0x15F PUSH2 0x2D5 CALLDATASIZE PUSH1 0x4 PUSH2 0x2BAF JUMP JUMPDEST PUSH1 0x3 PUSH1 0x20 MSTORE PUSH0 SWAP1 DUP2 MSTORE PUSH1 0x40 SWAP1 KECCAK256 SLOAD DUP2 JUMP JUMPDEST PUSH2 0x19A PUSH2 0x2F4 CALLDATASIZE PUSH1 0x4 PUSH2 0x3049 JUMP JUMPDEST PUSH1 0x1 PUSH1 0x1 PUSH1 0xA0 SHL SUB SWAP2 DUP3 AND PUSH0 SWAP1 DUP2 MSTORE PUSH1 0x1 PUSH1 0x20 SWAP1 DUP2 MSTORE PUSH1 0x40 DUP1 DUP4 KECCAK256 SWAP4 SWAP1 SWAP5 AND DUP3 MSTORE SWAP2 SWAP1 SWAP2 MSTORE KECCAK256 SLOAD PUSH1 0xFF AND SWAP1 JUMP JUMPDEST PUSH2 0x185 PUSH2 0x32F CALLDATASIZE PUSH1 0x4 PUSH2 0x3075 JUMP JUMPDEST PUSH2 0x17A1 JUMP JUMPDEST PUSH0 DUP2 DUP2 MSTORE PUSH1 0x20 DUP2 DUP2 MSTORE PUSH1 0x40 DUP1 DUP4 KECCAK256 PUSH1 0x1 PUSH1 0x1 PUSH1 0xA0 SHL SUB DUP7 AND DUP5 MSTORE SWAP1 SWAP2 MSTORE SWAP1 KECCAK256 SLOAD JUMPDEST SWAP3 SWAP2 POP POP JUMP JUMPDEST PUSH0 DUP4 DUP2 MSTORE PUSH1 0x3 PUSH1 0x20 MSTORE PUSH1 0x40 SWAP1 KECCAK256 SLOAD DUP1 PUSH2 0x3E1 JUMPI PUSH1 0x40 MLOAD PUSH3 0x461BCD PUSH1 0xE5 SHL DUP2 MSTORE PUSH1 0x20 PUSH1 0x4 DUP3 ADD MSTORE PUSH1 0x25 PUSH1 0x24 DUP3 ADD MSTORE PUSH32 0x726573756C7420666F7220636F6E646974696F6E206E6F742072656365697665 PUSH1 0x44 DUP3 ADD MSTORE PUSH32 0x6420796574000000000000000000000000000000000000000000000000000000 PUSH1 0x64 DUP3 ADD MSTORE PUSH1 0x84 ADD JUMPDEST PUSH1 0x40 MLOAD DUP1 SWAP2 SUB SWAP1 REVERT JUMPDEST PUSH0 DUP5 DUP2 MSTORE PUSH1 0x4 PUSH1 0x20 MSTORE PUSH1 0x40 SWAP1 KECCAK256 SLOAD DUP1 PUSH2 0x43C JUMPI PUSH1 0x40 MLOAD PUSH3 0x461BCD PUSH1 0xE5 SHL DUP2 MSTORE PUSH1 0x20 PUSH1 0x4 DUP3 ADD MSTORE PUSH1 0x1A PUSH1 0x24 DUP3 ADD MSTORE PUSH32 0x636F6E646974696F6E206E6F7420707265706172656420796574000000000000 PUSH1 0x44 DUP3 ADD MSTORE PUSH1 0x64 ADD PUSH2 0x3D8 JUMP JUMPDEST PUSH0 DUP1 PUSH2 0x44B PUSH1 0x1 DUP1 DUP6 SHL PUSH2 0x30ED JUMP JUMPDEST SWAP1 POP PUSH0 JUMPDEST DUP6 DUP2 LT ISZERO PUSH2 0x5C9 JUMPI PUSH0 DUP8 DUP8 DUP4 DUP2 DUP2 LT PUSH2 0x46A JUMPI PUSH2 0x46A PUSH2 0x3100 JUMP JUMPDEST SWAP1 POP PUSH1 0x20 MUL ADD CALLDATALOAD SWAP1 POP PUSH0 DUP2 GT DUP1 ISZERO PUSH2 0x481 JUMPI POP DUP3 DUP2 LT JUMPDEST PUSH2 0x4CD JUMPI PUSH1 0x40 MLOAD PUSH3 0x461BCD PUSH1 0xE5 SHL DUP2 MSTORE PUSH1 0x20 PUSH1 0x4 DUP3 ADD MSTORE PUSH1 0x17 PUSH1 0x24 DUP3 ADD MSTORE PUSH32 0x676F7420696E76616C696420696E646578207365742033000000000000000000 PUSH1 0x44 DUP3 ADD MSTORE PUSH1 0x64 ADD PUSH2 0x3D8 JUMP JUMPDEST PUSH0 PUSH2 0x524 DUP13 PUSH2 0x4DD DUP14 DUP14 DUP7 PUSH2 0x181E JUMP JUMPDEST PUSH1 0x40 MLOAD PUSH12 0xFFFFFFFFFFFFFFFFFFFFFFFF NOT PUSH1 0x60 DUP5 SWAP1 SHL AND PUSH1 0x20 DUP3 ADD MSTORE PUSH1 0x34 DUP2 ADD DUP3 SWAP1 MSTORE PUSH0 SWAP1 PUSH1 0x54 ADD PUSH1 0x40 DUP1 MLOAD PUSH1 0x1F NOT DUP2 DUP5 SUB ADD DUP2 MSTORE SWAP2 SWAP1 MSTORE DUP1 MLOAD PUSH1 0x20 SWAP1 SWAP2 ADD KECCAK256 SWAP4 SWAP3 POP POP POP JUMP JUMPDEST SWAP1 POP PUSH0 DUP1 JUMPDEST DUP8 DUP2 LT ISZERO PUSH2 0x57A JUMPI PUSH1 0x1 DUP2 SHL DUP5 AND ISZERO PUSH2 0x572 JUMPI PUSH0 DUP13 DUP2 MSTORE PUSH1 0x4 PUSH1 0x20 MSTORE PUSH1 0x40 SWAP1 KECCAK256 DUP1 SLOAD DUP3 SWAP1 DUP2 LT PUSH2 0x55B JUMPI PUSH2 0x55B PUSH2 0x3100 JUMP JUMPDEST SWAP1 PUSH0 MSTORE PUSH1 0x20 PUSH0 KECCAK256 ADD SLOAD DUP3 PUSH2 0x56F SWAP2 SWAP1 PUSH2 0x3114 JUMP JUMPDEST SWAP2 POP JUMPDEST PUSH1 0x1 ADD PUSH2 0x529 JUMP JUMPDEST POP PUSH0 PUSH2 0x586 CALLER DUP5 PUSH2 0x334 JUMP JUMPDEST SWAP1 POP DUP1 ISZERO PUSH2 0x5B9 JUMPI PUSH2 0x598 DUP10 DUP4 PUSH2 0x313B JUMP JUMPDEST PUSH2 0x5A2 SWAP1 DUP3 PUSH2 0x314E JUMP JUMPDEST PUSH2 0x5AC SWAP1 DUP9 PUSH2 0x3114 JUMP JUMPDEST SWAP7 POP PUSH2 0x5B9 CALLER DUP5 DUP4 PUSH2 0x1B3D JUMP JUMPDEST POP POP PUSH1 0x1 SWAP1 SWAP3 ADD SWAP2 POP PUSH2 0x44F SWAP1 POP JUMP JUMPDEST POP DUP2 ISZERO PUSH2 0x715 JUMPI DUP8 PUSH2 0x6BA JUMPI PUSH1 0x40 MLOAD PUSH4 0xA9059CBB PUSH1 0xE0 SHL DUP2 MSTORE CALLER PUSH1 0x4 DUP3 ADD MSTORE PUSH1 0x24 DUP2 ADD DUP4 SWAP1 MSTORE PUSH1 0x1 PUSH1 0x1 PUSH1 0xA0 SHL SUB DUP11 AND SWAP1 PUSH4 0xA9059CBB SWAP1 PUSH1 0x44 ADD PUSH1 0x20 PUSH1 0x40 MLOAD DUP1 DUP4 SUB DUP2 PUSH0 DUP8 GAS CALL ISZERO DUP1 ISZERO PUSH2 0x61F JUMPI RETURNDATASIZE PUSH0 DUP1 RETURNDATACOPY RETURNDATASIZE PUSH0 REVERT JUMPDEST POP POP POP POP PUSH1 0x40 MLOAD RETURNDATASIZE PUSH1 0x1F NOT PUSH1 0x1F DUP3 ADD AND DUP3 ADD DUP1 PUSH1 0x40 MSTORE POP DUP2 ADD SWAP1 PUSH2 0x643 SWAP2 SWAP1 PUSH2 0x3165 JUMP JUMPDEST PUSH2 0x6B5 JUMPI PUSH1 0x40 MLOAD PUSH3 0x461BCD PUSH1 0xE5 SHL DUP2 MSTORE PUSH1 0x20 PUSH1 0x4 DUP3 ADD MSTORE PUSH1 0x2B PUSH1 0x24 DUP3 ADD MSTORE PUSH32 0x636F756C64206E6F74207472616E73666572207061796F757420746F206D6573 PUSH1 0x44 DUP3 ADD MSTORE PUSH32 0x736167652073656E646572000000000000000000000000000000000000000000 PUSH1 0x64 DUP3 ADD MSTORE PUSH1 0x84 ADD PUSH2 0x3D8 JUMP JUMPDEST PUSH2 0x715 JUMP JUMPDEST PUSH1 0x40 DUP1 MLOAD PUSH1 0x60 DUP12 SWAP1 SHL PUSH12 0xFFFFFFFFFFFFFFFFFFFFFFFF NOT AND PUSH1 0x20 DUP1 DUP4 ADD SWAP2 SWAP1 SWAP2 MSTORE PUSH1 0x34 DUP1 DUP4 ADD DUP13 SWAP1 MSTORE DUP4 MLOAD DUP1 DUP5 SUB SWAP1 SWAP2 ADD DUP2 MSTORE PUSH1 0x54 SWAP1 SWAP3 ADD SWAP1 SWAP3 MSTORE DUP1 MLOAD SWAP2 ADD KECCAK256 PUSH2 0x715 SWAP1 CALLER SWAP1 DUP5 PUSH1 0x40 MLOAD DUP1 PUSH1 0x20 ADD PUSH1 0x40 MSTORE DUP1 PUSH0 DUP2 MSTORE POP PUSH2 0x1BAA JUMP JUMPDEST DUP8 DUP10 PUSH1 0x1 PUSH1 0x1 PUSH1 0xA0 SHL SUB AND CALLER PUSH1 0x1 PUSH1 0x1 PUSH1 0xA0 SHL SUB AND PUSH32 0x2682012A4A4F1973119F1C9B90745D1BD91FA2BAB387344F044CB3586864D18D DUP11 DUP11 DUP11 DUP9 PUSH1 0x40 MLOAD PUSH2 0x75F SWAP5 SWAP4 SWAP3 SWAP2 SWAP1 PUSH2 0x31C9 JUMP JUMPDEST PUSH1 0x40 MLOAD DUP1 SWAP2 SUB SWAP1 LOG4 POP POP POP POP POP POP POP POP POP JUMP JUMPDEST PUSH0 PUSH1 0x1 PUSH1 0x1 PUSH1 0xE0 SHL SUB NOT DUP3 AND PUSH4 0x6CDB3D13 PUSH1 0xE1 SHL EQ DUP1 PUSH2 0x7A2 JUMPI POP PUSH1 0x1 PUSH1 0x1 PUSH1 0xE0 SHL SUB NOT DUP3 AND PUSH4 0x3A24D07 PUSH1 0xE2 SHL EQ JUMPDEST DUP1 PUSH2 0x355 JUMPI POP PUSH4 0x1FFC9A7 PUSH1 0xE0 SHL PUSH1 0x1 PUSH1 0x1 PUSH1 0xE0 SHL SUB NOT DUP4 AND EQ PUSH2 0x355 JUMP JUMPDEST PUSH1 0x4 PUSH1 0x20 MSTORE DUP2 PUSH0 MSTORE PUSH1 0x40 PUSH0 KECCAK256 DUP2 DUP2 SLOAD DUP2 LT PUSH2 0x7DA JUMPI PUSH0 DUP1 REVERT JUMPDEST SWAP1 PUSH0 MSTORE PUSH1 0x20 PUSH0 KECCAK256 ADD PUSH0 SWAP2 POP SWAP2 POP POP SLOAD DUP2 JUMP JUMPDEST PUSH1 0x60 PUSH1 0x2 DUP1 SLOAD PUSH2 0x7FB SWAP1 PUSH2 0x31F3 JUMP JUMPDEST DUP1 PUSH1 0x1F ADD PUSH1 0x20 DUP1 SWAP2 DIV MUL PUSH1 0x20 ADD PUSH1 0x40 MLOAD SWAP1 DUP2 ADD PUSH1 0x40 MSTORE DUP1 SWAP3 SWAP2 SWAP1 DUP2 DUP2 MSTORE PUSH1 0x20 ADD DUP3 DUP1 SLOAD PUSH2 0x827 SWAP1 PUSH2 0x31F3 JUMP JUMPDEST DUP1 ISZERO PUSH2 0x872 JUMPI DUP1 PUSH1 0x1F LT PUSH2 0x849 JUMPI PUSH2 0x100 DUP1 DUP4 SLOAD DIV MUL DUP4 MSTORE SWAP2 PUSH1 0x20 ADD SWAP2 PUSH2 0x872 JUMP JUMPDEST DUP3 ADD SWAP2 SWAP1 PUSH0 MSTORE PUSH1 0x20 PUSH0 KECCAK256 SWAP1 JUMPDEST DUP2 SLOAD DUP2 MSTORE SWAP1 PUSH1 0x1 ADD SWAP1 PUSH1 0x20 ADD DUP1 DUP4 GT PUSH2 0x855 JUMPI DUP3 SWAP1 SUB PUSH1 0x1F AND DUP3 ADD SWAP2 JUMPDEST POP POP POP POP POP SWAP1 POP SWAP2 SWAP1 POP JUMP JUMPDEST CALLER PUSH1 0x1 PUSH1 0x1 PUSH1 0xA0 SHL SUB DUP7 AND DUP2 EQ DUP1 ISZERO SWAP1 PUSH2 0x8BD JUMPI POP PUSH1 0x1 PUSH1 0x1 PUSH1 0xA0 SHL SUB DUP1 DUP8 AND PUSH0 SWAP1 DUP2 MSTORE PUSH1 0x1 PUSH1 0x20 SWAP1 DUP2 MSTORE PUSH1 0x40 DUP1 DUP4 KECCAK256 SWAP4 DUP6 AND DUP4 MSTORE SWAP3 SWAP1 MSTORE KECCAK256 SLOAD PUSH1 0xFF AND ISZERO JUMPDEST ISZERO PUSH2 0x8EE JUMPI PUSH1 0x40 MLOAD PUSH4 0x711BEC91 PUSH1 0xE1 SHL DUP2 MSTORE PUSH1 0x1 PUSH1 0x1 PUSH1 0xA0 SHL SUB DUP1 DUP4 AND PUSH1 0x4 DUP4 ADD MSTORE DUP8 AND PUSH1 0x24 DUP3 ADD MSTORE PUSH1 0x44 ADD PUSH2 0x3D8 JUMP JUMPDEST PUSH2 0x8FB DUP7 DUP7 DUP7 DUP7 DUP7 PUSH2 0x1C05 JUMP JUMPDEST POP POP POP POP POP POP JUMP JUMPDEST PUSH1 0x40 DUP1 MLOAD PUSH1 0x60 DUP5 SWAP1 SHL PUSH12 0xFFFFFFFFFFFFFFFFFFFFFFFF NOT AND PUSH1 0x20 DUP1 DUP4 ADD SWAP2 SWAP1 SWAP2 MSTORE PUSH1 0x34 DUP1 DUP4 ADD DUP6 SWAP1 MSTORE DUP4 MLOAD DUP1 DUP5 SUB SWAP1 SWAP2 ADD DUP2 MSTORE PUSH1 0x54 SWAP1 SWAP3 ADD SWAP1 SWAP3 MSTORE DUP1 MLOAD SWAP2 ADD KECCAK256 PUSH0 SWAP1 JUMPDEST SWAP4 SWAP3 POP POP POP JUMP JUMPDEST PUSH1 0x60 DUP2 MLOAD DUP4 MLOAD EQ PUSH2 0x97E JUMPI DUP2 MLOAD DUP4 MLOAD PUSH1 0x40 MLOAD PUSH4 0x5B059991 PUSH1 0xE0 SHL DUP2 MSTORE PUSH1 0x4 DUP2 ADD SWAP3 SWAP1 SWAP3 MSTORE PUSH1 0x24 DUP3 ADD MSTORE PUSH1 0x44 ADD PUSH2 0x3D8 JUMP JUMPDEST PUSH0 DUP4 MLOAD PUSH8 0xFFFFFFFFFFFFFFFF DUP2 GT ISZERO PUSH2 0x999 JUMPI PUSH2 0x999 PUSH2 0x2C06 JUMP JUMPDEST PUSH1 0x40 MLOAD SWAP1 DUP1 DUP3 MSTORE DUP1 PUSH1 0x20 MUL PUSH1 0x20 ADD DUP3 ADD PUSH1 0x40 MSTORE DUP1 ISZERO PUSH2 0x9C2 JUMPI DUP2 PUSH1 0x20 ADD PUSH1 0x20 DUP3 MUL DUP1 CALLDATASIZE DUP4 CALLDATACOPY ADD SWAP1 POP JUMPDEST POP SWAP1 POP PUSH0 JUMPDEST DUP5 MLOAD DUP2 LT ISZERO PUSH2 0xA10 JUMPI PUSH1 0x20 DUP1 DUP3 MUL DUP7 ADD ADD MLOAD PUSH2 0x9EB SWAP1 PUSH1 0x20 DUP1 DUP5 MUL DUP8 ADD ADD MLOAD PUSH2 0x334 JUMP JUMPDEST DUP3 DUP3 DUP2 MLOAD DUP2 LT PUSH2 0x9FD JUMPI PUSH2 0x9FD PUSH2 0x3100 JUMP JUMPDEST PUSH1 0x20 SWAP1 DUP2 MUL SWAP2 SWAP1 SWAP2 ADD ADD MSTORE PUSH1 0x1 ADD PUSH2 0x9C7 JUMP JUMPDEST POP SWAP4 SWAP3 POP POP POP JUMP JUMPDEST PUSH1 0x1 DUP3 GT PUSH2 0xA68 JUMPI PUSH1 0x40 MLOAD PUSH3 0x461BCD PUSH1 0xE5 SHL DUP2 MSTORE PUSH1 0x20 PUSH1 0x4 DUP3 ADD DUP2 SWAP1 MSTORE PUSH1 0x24 DUP3 ADD MSTORE PUSH32 0x676F7420656D707479206F722073696E676C65746F6E20706172746974696F6E PUSH1 0x44 DUP3 ADD MSTORE PUSH1 0x64 ADD PUSH2 0x3D8 JUMP JUMPDEST PUSH0 DUP5 DUP2 MSTORE PUSH1 0x4 PUSH1 0x20 MSTORE PUSH1 0x40 SWAP1 KECCAK256 SLOAD DUP1 PUSH2 0xAC3 JUMPI PUSH1 0x40 MLOAD PUSH3 0x461BCD PUSH1 0xE5 SHL DUP2 MSTORE PUSH1 0x20 PUSH1 0x4 DUP3 ADD MSTORE PUSH1 0x1A PUSH1 0x24 DUP3 ADD MSTORE PUSH32 0x636F6E646974696F6E206E6F7420707265706172656420796574000000000000 PUSH1 0x44 DUP3 ADD MSTORE PUSH1 0x64 ADD PUSH2 0x3D8 JUMP JUMPDEST PUSH0 PUSH2 0xAD1 PUSH1 0x1 DUP1 DUP5 SHL PUSH2 0x30ED JUMP JUMPDEST SWAP1 POP DUP1 PUSH0 DUP6 PUSH8 0xFFFFFFFFFFFFFFFF DUP2 GT ISZERO PUSH2 0xAEE JUMPI PUSH2 0xAEE PUSH2 0x2C06 JUMP JUMPDEST PUSH1 0x40 MLOAD SWAP1 DUP1 DUP3 MSTORE DUP1 PUSH1 0x20 MUL PUSH1 0x20 ADD DUP3 ADD PUSH1 0x40 MSTORE DUP1 ISZERO PUSH2 0xB17 JUMPI DUP2 PUSH1 0x20 ADD PUSH1 0x20 DUP3 MUL DUP1 CALLDATASIZE DUP4 CALLDATACOPY ADD SWAP1 POP JUMPDEST POP SWAP1 POP PUSH0 DUP7 PUSH8 0xFFFFFFFFFFFFFFFF DUP2 GT ISZERO PUSH2 0xB34 JUMPI PUSH2 0xB34 PUSH2 0x2C06 JUMP JUMPDEST PUSH1 0x40 MLOAD SWAP1 DUP1 DUP3 MSTORE DUP1 PUSH1 0x20 MUL PUSH1 0x20 ADD DUP3 ADD PUSH1 0x40 MSTORE DUP1 ISZERO PUSH2 0xB5D JUMPI DUP2 PUSH1 0x20 ADD PUSH1 0x20 DUP3 MUL DUP1 CALLDATASIZE DUP4 CALLDATACOPY ADD SWAP1 POP JUMPDEST POP SWAP1 POP PUSH0 JUMPDEST DUP8 DUP2 LT ISZERO PUSH2 0xC89 JUMPI PUSH0 DUP10 DUP10 DUP4 DUP2 DUP2 LT PUSH2 0xB7D JUMPI PUSH2 0xB7D PUSH2 0x3100 JUMP JUMPDEST SWAP1 POP PUSH1 0x20 MUL ADD CALLDATALOAD SWAP1 POP PUSH0 DUP2 GT DUP1 ISZERO PUSH2 0xB94 JUMPI POP DUP6 DUP2 LT JUMPDEST PUSH2 0xBE0 JUMPI PUSH1 0x40 MLOAD PUSH3 0x461BCD PUSH1 0xE5 SHL DUP2 MSTORE PUSH1 0x20 PUSH1 0x4 DUP3 ADD MSTORE PUSH1 0x17 PUSH1 0x24 DUP3 ADD MSTORE PUSH32 0x676F7420696E76616C696420696E646578207365742032000000000000000000 PUSH1 0x44 DUP3 ADD MSTORE PUSH1 0x64 ADD PUSH2 0x3D8 JUMP JUMPDEST DUP1 DUP6 DUP3 AND EQ PUSH2 0xC31 JUMPI PUSH1 0x40 MLOAD PUSH3 0x461BCD PUSH1 0xE5 SHL DUP2 MSTORE PUSH1 0x20 PUSH1 0x4 DUP3 ADD MSTORE PUSH1 0x16 PUSH1 0x24 DUP3 ADD MSTORE PUSH32 0x706172746974696F6E206E6F74206469736A6F696E7400000000000000000000 PUSH1 0x44 DUP3 ADD MSTORE PUSH1 0x64 ADD PUSH2 0x3D8 JUMP JUMPDEST SWAP4 DUP5 XOR SWAP4 PUSH2 0xC44 DUP14 PUSH2 0x4DD DUP15 DUP15 DUP6 PUSH2 0x181E JUMP JUMPDEST DUP5 DUP4 DUP2 MLOAD DUP2 LT PUSH2 0xC56 JUMPI PUSH2 0xC56 PUSH2 0x3100 JUMP JUMPDEST PUSH1 0x20 MUL PUSH1 0x20 ADD ADD DUP2 DUP2 MSTORE POP POP DUP8 DUP4 DUP4 DUP2 MLOAD DUP2 LT PUSH2 0xC75 JUMPI PUSH2 0xC75 PUSH2 0x3100 JUMP JUMPDEST PUSH1 0x20 SWAP1 DUP2 MUL SWAP2 SWAP1 SWAP2 ADD ADD MSTORE POP PUSH1 0x1 ADD PUSH2 0xB62 JUMP JUMPDEST POP DUP3 PUSH0 SUB PUSH2 0xDB4 JUMPI DUP10 PUSH2 0xD67 JUMPI PUSH1 0x40 MLOAD PUSH4 0x23B872DD PUSH1 0xE0 SHL DUP2 MSTORE CALLER PUSH1 0x4 DUP3 ADD MSTORE ADDRESS PUSH1 0x24 DUP3 ADD MSTORE PUSH1 0x44 DUP2 ADD DUP8 SWAP1 MSTORE PUSH1 0x1 PUSH1 0x1 PUSH1 0xA0 SHL SUB DUP13 AND SWAP1 PUSH4 0x23B872DD SWAP1 PUSH1 0x64 ADD PUSH1 0x20 PUSH1 0x40 MLOAD DUP1 DUP4 SUB DUP2 PUSH0 DUP8 GAS CALL ISZERO DUP1 ISZERO PUSH2 0xCE6 JUMPI RETURNDATASIZE PUSH0 DUP1 RETURNDATACOPY RETURNDATASIZE PUSH0 REVERT JUMPDEST POP POP POP POP PUSH1 0x40 MLOAD RETURNDATASIZE PUSH1 0x1F NOT PUSH1 0x1F DUP3 ADD AND DUP3 ADD DUP1 PUSH1 0x40 MSTORE POP DUP2 ADD SWAP1 PUSH2 0xD0A SWAP2 SWAP1 PUSH2 0x3165 JUMP JUMPDEST PUSH2 0xD62 JUMPI PUSH1 0x40 MLOAD PUSH3 0x461BCD PUSH1 0xE5 SHL DUP2 MSTORE PUSH1 0x20 PUSH1 0x4 DUP3 ADD MSTORE PUSH1 0x23 PUSH1 0x24 DUP3 ADD MSTORE PUSH32 0x636F756C64206E6F74207265636569766520636F6C6C61746572616C20746F6B PUSH1 0x44 DUP3 ADD MSTORE PUSH3 0x656E73 PUSH1 0xE8 SHL PUSH1 0x64 DUP3 ADD MSTORE PUSH1 0x84 ADD PUSH2 0x3D8 JUMP JUMPDEST PUSH2 0xDC9 JUMP JUMPDEST PUSH1 0x40 DUP1 MLOAD PUSH1 0x60 DUP14 SWAP1 SHL PUSH12 0xFFFFFFFFFFFFFFFFFFFFFFFF NOT AND PUSH1 0x20 DUP1 DUP4 ADD SWAP2 SWAP1 SWAP2 MSTORE PUSH1 0x34 DUP1 DUP4 ADD DUP15 SWAP1 MSTORE DUP4 MLOAD DUP1 DUP5 SUB SWAP1 SWAP2 ADD DUP2 MSTORE PUSH1 0x54 SWAP1 SWAP3 ADD SWAP1 SWAP3 MSTORE DUP1 MLOAD SWAP2 ADD KECCAK256 PUSH2 0xD62 SWAP1 CALLER SWAP1 JUMPDEST DUP9 PUSH2 0x1B3D JUMP JUMPDEST PUSH2 0xDC9 CALLER PUSH2 0xDAE DUP14 PUSH2 0x4DD DUP15 DUP15 DUP10 DUP12 XOR PUSH2 0x181E JUMP JUMPDEST PUSH2 0xDE3 CALLER DUP4 DUP4 PUSH1 0x40 MLOAD DUP1 PUSH1 0x20 ADD PUSH1 0x40 MSTORE DUP1 PUSH0 DUP2 MSTORE POP PUSH2 0x1C63 JUMP JUMPDEST DUP9 DUP11 CALLER PUSH1 0x1 PUSH1 0x1 PUSH1 0xA0 SHL SUB AND PUSH32 0x2E6BB91F8CBCDA0C93623C54D0403A43514FABC40084EC96B6D5379A74786298 DUP15 DUP13 DUP13 DUP13 PUSH1 0x40 MLOAD PUSH2 0xE24 SWAP5 SWAP4 SWAP3 SWAP2 SWAP1 PUSH2 0x322B JUMP JUMPDEST PUSH1 0x40 MLOAD DUP1 SWAP2 SUB SWAP1 LOG4 POP POP POP POP POP POP POP POP POP POP POP JUMP JUMPDEST PUSH1 0x40 DUP1 MLOAD PUSH1 0x60 DUP6 SWAP1 SHL PUSH12 0xFFFFFFFFFFFFFFFFFFFFFFFF NOT AND PUSH1 0x20 DUP1 DUP4 ADD SWAP2 SWAP1 SWAP2 MSTORE PUSH1 0x34 DUP3 ADD DUP6 SWAP1 MSTORE PUSH1 0x54 DUP1 DUP4 ADD DUP6 SWAP1 MSTORE DUP4 MLOAD DUP1 DUP5 SUB SWAP1 SWAP2 ADD DUP2 MSTORE PUSH1 0x74 SWAP1 SWAP3 ADD SWAP1 SWAP3 MSTORE DUP1 MLOAD SWAP2 ADD KECCAK256 PUSH0 SWAP1 JUMPDEST SWAP5 SWAP4 POP POP POP POP JUMP JUMPDEST PUSH0 PUSH2 0xE83 DUP5 DUP5 DUP5 PUSH2 0x181E JUMP JUMPDEST PUSH1 0x1 DUP3 GT PUSH2 0xEE7 JUMPI PUSH1 0x40 MLOAD PUSH3 0x461BCD PUSH1 0xE5 SHL DUP2 MSTORE PUSH1 0x20 PUSH1 0x4 DUP3 ADD DUP2 SWAP1 MSTORE PUSH1 0x24 DUP3 ADD MSTORE PUSH32 0x676F7420656D707479206F722073696E676C65746F6E20706172746974696F6E PUSH1 0x44 DUP3 ADD MSTORE PUSH1 0x64 ADD PUSH2 0x3D8 JUMP JUMPDEST PUSH0 DUP5 DUP2 MSTORE PUSH1 0x4 PUSH1 0x20 MSTORE PUSH1 0x40 SWAP1 KECCAK256 SLOAD DUP1 PUSH2 0xF42 JUMPI PUSH1 0x40 MLOAD PUSH3 0x461BCD PUSH1 0xE5 SHL DUP2 MSTORE PUSH1 0x20 PUSH1 0x4 DUP3 ADD MSTORE PUSH1 0x1A PUSH1 0x24 DUP3 ADD MSTORE PUSH32 0x636F6E646974696F6E206E6F7420707265706172656420796574000000000000 PUSH1 0x44 DUP3 ADD MSTORE PUSH1 0x64 ADD PUSH2 0x3D8 JUMP JUMPDEST PUSH0 PUSH2 0xF50 PUSH1 0x1 DUP1 DUP5 SHL PUSH2 0x30ED JUMP JUMPDEST SWAP1 POP DUP1 PUSH0 DUP6 PUSH8 0xFFFFFFFFFFFFFFFF DUP2 GT ISZERO PUSH2 0xF6D JUMPI PUSH2 0xF6D PUSH2 0x2C06 JUMP JUMPDEST PUSH1 0x40 MLOAD SWAP1 DUP1 DUP3 MSTORE DUP1 PUSH1 0x20 MUL PUSH1 0x20 ADD DUP3 ADD PUSH1 0x40 MSTORE DUP1 ISZERO PUSH2 0xF96 JUMPI DUP2 PUSH1 0x20 ADD PUSH1 0x20 DUP3 MUL DUP1 CALLDATASIZE DUP4 CALLDATACOPY ADD SWAP1 POP JUMPDEST POP SWAP1 POP PUSH0 DUP7 PUSH8 0xFFFFFFFFFFFFFFFF DUP2 GT ISZERO PUSH2 0xFB3 JUMPI PUSH2 0xFB3 PUSH2 0x2C06 JUMP JUMPDEST PUSH1 0x40 MLOAD SWAP1 DUP1 DUP3 MSTORE DUP1 PUSH1 0x20 MUL PUSH1 0x20 ADD DUP3 ADD PUSH1 0x40 MSTORE DUP1 ISZERO PUSH2 0xFDC JUMPI DUP2 PUSH1 0x20 ADD PUSH1 0x20 DUP3 MUL DUP1 CALLDATASIZE DUP4 CALLDATACOPY ADD SWAP1 POP JUMPDEST POP SWAP1 POP PUSH0 JUMPDEST DUP8 DUP2 LT ISZERO PUSH2 0x1108 JUMPI PUSH0 DUP10 DUP10 DUP4 DUP2 DUP2 LT PUSH2 0xFFC JUMPI PUSH2 0xFFC PUSH2 0x3100 JUMP JUMPDEST SWAP1 POP PUSH1 0x20 MUL ADD CALLDATALOAD SWAP1 POP PUSH0 DUP2 GT DUP1 ISZERO PUSH2 0x1013 JUMPI POP DUP6 DUP2 LT JUMPDEST PUSH2 0x105F JUMPI PUSH1 0x40 MLOAD PUSH3 0x461BCD PUSH1 0xE5 SHL DUP2 MSTORE PUSH1 0x20 PUSH1 0x4 DUP3 ADD MSTORE PUSH1 0x17 PUSH1 0x24 DUP3 ADD MSTORE PUSH32 0x676F7420696E76616C696420696E646578207365742031000000000000000000 PUSH1 0x44 DUP3 ADD MSTORE PUSH1 0x64 ADD PUSH2 0x3D8 JUMP JUMPDEST DUP1 DUP6 DUP3 AND EQ PUSH2 0x10B0 JUMPI PUSH1 0x40 MLOAD PUSH3 0x461BCD PUSH1 0xE5 SHL DUP2 MSTORE PUSH1 0x20 PUSH1 0x4 DUP3 ADD MSTORE PUSH1 0x16 PUSH1 0x24 DUP3 ADD MSTORE PUSH32 0x706172746974696F6E206E6F74206469736A6F696E7400000000000000000000 PUSH1 0x44 DUP3 ADD MSTORE PUSH1 0x64 ADD PUSH2 0x3D8 JUMP JUMPDEST SWAP4 DUP5 XOR SWAP4 PUSH2 0x10C3 DUP14 PUSH2 0x4DD DUP15 DUP15 DUP6 PUSH2 0x181E JUMP JUMPDEST DUP5 DUP4 DUP2 MLOAD DUP2 LT PUSH2 0x10D5 JUMPI PUSH2 0x10D5 PUSH2 0x3100 JUMP JUMPDEST PUSH1 0x20 MUL PUSH1 0x20 ADD ADD DUP2 DUP2 MSTORE POP POP DUP8 DUP4 DUP4 DUP2 MLOAD DUP2 LT PUSH2 0x10F4 JUMPI PUSH2 0x10F4 PUSH2 0x3100 JUMP JUMPDEST PUSH1 0x20 SWAP1 DUP2 MUL SWAP2 SWAP1 SWAP2 ADD ADD MSTORE POP PUSH1 0x1 ADD PUSH2 0xFE1 JUMP JUMPDEST POP PUSH2 0x1114 CALLER DUP4 DUP4 PUSH2 0x1C9F JUMP JUMPDEST DUP3 PUSH0 SUB PUSH2 0x123B JUMPI DUP10 PUSH2 0x11DF JUMPI PUSH1 0x40 MLOAD PUSH4 0xA9059CBB PUSH1 0xE0 SHL DUP2 MSTORE CALLER PUSH1 0x4 DUP3 ADD MSTORE PUSH1 0x24 DUP2 ADD DUP8 SWAP1 MSTORE PUSH1 0x1 PUSH1 0x1 PUSH1 0xA0 SHL SUB DUP13 AND SWAP1 PUSH4 0xA9059CBB SWAP1 PUSH1 0x44 ADD PUSH1 0x20 PUSH1 0x40 MLOAD DUP1 DUP4 SUB DUP2 PUSH0 DUP8 GAS CALL ISZERO DUP1 ISZERO PUSH2 0x116A JUMPI RETURNDATASIZE PUSH0 DUP1 RETURNDATACOPY RETURNDATASIZE PUSH0 REVERT JUMPDEST POP POP POP POP PUSH1 0x40 MLOAD RETURNDATASIZE PUSH1 0x1F NOT PUSH1 0x1F DUP3 ADD AND DUP3 ADD DUP1 PUSH1 0x40 MSTORE POP DUP2 ADD SWAP1 PUSH2 0x118E SWAP2 SWAP1 PUSH2 0x3165 JUMP JUMPDEST PUSH2 0x11DA JUMPI PUSH1 0x40 MLOAD PUSH3 0x461BCD PUSH1 0xE5 SHL DUP2 MSTORE PUSH1 0x20 PUSH1 0x4 DUP3 ADD DUP2 SWAP1 MSTORE PUSH1 0x24 DUP3 ADD MSTORE PUSH32 0x636F756C64206E6F742073656E6420636F6C6C61746572616C20746F6B656E73 PUSH1 0x44 DUP3 ADD MSTORE PUSH1 0x64 ADD PUSH2 0x3D8 JUMP JUMPDEST PUSH2 0x1250 JUMP JUMPDEST PUSH1 0x40 DUP1 MLOAD PUSH1 0x60 DUP14 SWAP1 SHL PUSH12 0xFFFFFFFFFFFFFFFFFFFFFFFF NOT AND PUSH1 0x20 DUP1 DUP4 ADD SWAP2 SWAP1 SWAP2 MSTORE PUSH1 0x34 DUP1 DUP4 ADD DUP15 SWAP1 MSTORE DUP4 MLOAD DUP1 DUP5 SUB SWAP1 SWAP2 ADD DUP2 MSTORE PUSH1 0x54 SWAP1 SWAP3 ADD SWAP1 SWAP3 MSTORE DUP1 MLOAD SWAP2 ADD KECCAK256 PUSH2 0x11DA SWAP1 CALLER SWAP1 JUMPDEST DUP9 PUSH1 0x40 MLOAD DUP1 PUSH1 0x20 ADD PUSH1 0x40 MSTORE DUP1 PUSH0 DUP2 MSTORE POP PUSH2 0x1BAA JUMP JUMPDEST PUSH2 0x1250 CALLER PUSH2 0x1226 DUP14 PUSH2 0x4DD DUP15 DUP15 DUP10 DUP12 XOR PUSH2 0x181E JUMP JUMPDEST DUP9 DUP11 CALLER PUSH1 0x1 PUSH1 0x1 PUSH1 0xA0 SHL SUB AND PUSH32 0x6F13CA62553FCC2BCD2372180A43949C1E4CEBBA603901EDE2F4E14F36B282CA DUP15 DUP13 DUP13 DUP13 PUSH1 0x40 MLOAD PUSH2 0xE24 SWAP5 SWAP4 SWAP3 SWAP2 SWAP1 PUSH2 0x322B JUMP JUMPDEST PUSH2 0x129C CALLER DUP4 DUP4 PUSH2 0x1CE7 JUMP JUMPDEST POP POP JUMP JUMPDEST DUP1 PUSH1 0x1 DUP2 GT PUSH2 0x1304 JUMPI PUSH1 0x40 MLOAD PUSH3 0x461BCD PUSH1 0xE5 SHL DUP2 MSTORE PUSH1 0x20 PUSH1 0x4 DUP3 ADD MSTORE PUSH1 0x2A PUSH1 0x24 DUP3 ADD MSTORE PUSH32 0x74686572652073686F756C64206265206D6F7265207468616E206F6E65206F75 PUSH1 0x44 DUP3 ADD MSTORE PUSH10 0x1D18DBDB59481CDB1BDD PUSH1 0xB2 SHL PUSH1 0x64 DUP3 ADD MSTORE PUSH1 0x84 ADD PUSH2 0x3D8 JUMP JUMPDEST PUSH1 0x40 DUP1 MLOAD PUSH12 0xFFFFFFFFFFFFFFFFFFFFFFFF NOT CALLER PUSH1 0x60 SHL AND PUSH1 0x20 DUP1 DUP4 ADD SWAP2 SWAP1 SWAP2 MSTORE PUSH1 0x34 DUP3 ADD DUP8 SWAP1 MSTORE PUSH1 0x54 DUP1 DUP4 ADD DUP6 SWAP1 MSTORE DUP4 MLOAD DUP1 DUP5 SUB SWAP1 SWAP2 ADD DUP2 MSTORE PUSH1 0x74 SWAP1 SWAP3 ADD DUP4 MSTORE DUP2 MLOAD SWAP2 DUP2 ADD SWAP2 SWAP1 SWAP2 KECCAK256 PUSH0 DUP2 DUP2 MSTORE PUSH1 0x4 SWAP1 SWAP3 MSTORE SWAP2 SWAP1 KECCAK256 SLOAD DUP3 EQ PUSH2 0x13A8 JUMPI PUSH1 0x40 MLOAD PUSH3 0x461BCD PUSH1 0xE5 SHL DUP2 MSTORE PUSH1 0x20 PUSH1 0x4 DUP3 ADD MSTORE PUSH1 0x1F PUSH1 0x24 DUP3 ADD MSTORE PUSH32 0x636F6E646974696F6E206E6F74207072657061726564206F7220666F756E6400 PUSH1 0x44 DUP3 ADD MSTORE PUSH1 0x64 ADD PUSH2 0x3D8 JUMP JUMPDEST PUSH0 DUP2 DUP2 MSTORE PUSH1 0x3 PUSH1 0x20 MSTORE PUSH1 0x40 SWAP1 KECCAK256 SLOAD ISZERO PUSH2 0x1403 JUMPI PUSH1 0x40 MLOAD PUSH3 0x461BCD PUSH1 0xE5 SHL DUP2 MSTORE PUSH1 0x20 PUSH1 0x4 DUP3 ADD MSTORE PUSH1 0x1E PUSH1 0x24 DUP3 ADD MSTORE PUSH32 0x7061796F75742064656E6F6D696E61746F7220616C7265616479207365740000 PUSH1 0x44 DUP3 ADD MSTORE PUSH1 0x64 ADD PUSH2 0x3D8 JUMP JUMPDEST PUSH0 DUP1 JUMPDEST DUP4 DUP2 LT ISZERO PUSH2 0x14E6 JUMPI PUSH0 DUP7 DUP7 DUP4 DUP2 DUP2 LT PUSH2 0x1421 JUMPI PUSH2 0x1421 PUSH2 0x3100 JUMP JUMPDEST SWAP1 POP PUSH1 0x20 MUL ADD CALLDATALOAD SWAP1 POP DUP1 DUP4 PUSH2 0x1436 SWAP2 SWAP1 PUSH2 0x3114 JUMP JUMPDEST PUSH0 DUP6 DUP2 MSTORE PUSH1 0x4 PUSH1 0x20 MSTORE PUSH1 0x40 SWAP1 KECCAK256 DUP1 SLOAD SWAP2 SWAP5 POP SWAP1 DUP4 SWAP1 DUP2 LT PUSH2 0x1459 JUMPI PUSH2 0x1459 PUSH2 0x3100 JUMP JUMPDEST SWAP1 PUSH0 MSTORE PUSH1 0x20 PUSH0 KECCAK256 ADD SLOAD PUSH0 EQ PUSH2 0x14B0 JUMPI PUSH1 0x40 MLOAD PUSH3 0x461BCD PUSH1 0xE5 SHL DUP2 MSTORE PUSH1 0x20 PUSH1 0x4 DUP3 ADD MSTORE PUSH1 0x1C PUSH1 0x24 DUP3 ADD MSTORE PUSH32 0x7061796F7574206E756D657261746F7220616C72656164792073657400000000 PUSH1 0x44 DUP3 ADD MSTORE PUSH1 0x64 ADD PUSH2 0x3D8 JUMP JUMPDEST PUSH0 DUP5 DUP2 MSTORE PUSH1 0x4 PUSH1 0x20 MSTORE PUSH1 0x40 SWAP1 KECCAK256 DUP1 SLOAD DUP3 SWAP2 SWAP1 DUP5 SWAP1 DUP2 LT PUSH2 0x14D2 JUMPI PUSH2 0x14D2 PUSH2 0x3100 JUMP JUMPDEST PUSH0 SWAP2 DUP3 MSTORE PUSH1 0x20 SWAP1 SWAP2 KECCAK256 ADD SSTORE POP PUSH1 0x1 ADD PUSH2 0x1406 JUMP JUMPDEST POP PUSH0 DUP2 GT PUSH2 0x1536 JUMPI PUSH1 0x40 MLOAD PUSH3 0x461BCD PUSH1 0xE5 SHL DUP2 MSTORE PUSH1 0x20 PUSH1 0x4 DUP3 ADD MSTORE PUSH1 0x14 PUSH1 0x24 DUP3 ADD MSTORE PUSH32 0x7061796F757420697320616C6C207A65726F6573000000000000000000000000 PUSH1 0x44 DUP3 ADD MSTORE PUSH1 0x64 ADD PUSH2 0x3D8 JUMP JUMPDEST PUSH0 DUP3 DUP2 MSTORE PUSH1 0x3 PUSH1 0x20 SWAP1 DUP2 MSTORE PUSH1 0x40 DUP1 DUP4 KECCAK256 DUP5 SWAP1 SSTORE PUSH1 0x4 SWAP1 SWAP2 MSTORE SWAP1 DUP2 SWAP1 KECCAK256 SWAP1 MLOAD DUP8 SWAP2 CALLER SWAP2 DUP6 SWAP2 PUSH32 0xB44D84D3289691F71497564B85D4233648D9DBAE8CBDBB4329F301C3A0185894 SWAP2 PUSH2 0x1587 SWAP2 DUP10 SWAP2 PUSH2 0x324D JUMP JUMPDEST PUSH1 0x40 MLOAD DUP1 SWAP2 SUB SWAP1 LOG4 POP POP POP POP POP POP JUMP JUMPDEST PUSH2 0x100 DUP2 GT ISZERO PUSH2 0x15E9 JUMPI PUSH1 0x40 MLOAD PUSH3 0x461BCD PUSH1 0xE5 SHL DUP2 MSTORE PUSH1 0x20 PUSH1 0x4 DUP3 ADD MSTORE PUSH1 0x16 PUSH1 0x24 DUP3 ADD MSTORE PUSH32 0x746F6F206D616E79206F7574636F6D6520736C6F747300000000000000000000 PUSH1 0x44 DUP3 ADD MSTORE PUSH1 0x64 ADD PUSH2 0x3D8 JUMP JUMPDEST PUSH1 0x1 DUP2 GT PUSH2 0x164C JUMPI PUSH1 0x40 MLOAD PUSH3 0x461BCD PUSH1 0xE5 SHL DUP2 MSTORE PUSH1 0x20 PUSH1 0x4 DUP3 ADD MSTORE PUSH1 0x2A PUSH1 0x24 DUP3 ADD MSTORE PUSH32 0x74686572652073686F756C64206265206D6F7265207468616E206F6E65206F75 PUSH1 0x44 DUP3 ADD MSTORE PUSH10 0x1D18DBDB59481CDB1BDD PUSH1 0xB2 SHL PUSH1 0x64 DUP3 ADD MSTORE PUSH1 0x84 ADD PUSH2 0x3D8 JUMP JUMPDEST PUSH1 0x40 DUP1 MLOAD PUSH12 0xFFFFFFFFFFFFFFFFFFFFFFFF NOT PUSH1 0x60 DUP7 SWAP1 SHL AND PUSH1 0x20 DUP1 DUP4 ADD SWAP2 SWAP1 SWAP2 MSTORE PUSH1 0x34 DUP3 ADD DUP6 SWAP1 MSTORE PUSH1 0x54 DUP1 DUP4 ADD DUP6 SWAP1 MSTORE DUP4 MLOAD DUP1 DUP5 SUB SWAP1 SWAP2 ADD DUP2 MSTORE PUSH1 0x74 SWAP1 SWAP3 ADD DUP4 MSTORE DUP2 MLOAD SWAP2 DUP2 ADD SWAP2 SWAP1 SWAP2 KECCAK256 PUSH0 DUP2 DUP2 MSTORE PUSH1 0x4 SWAP1 SWAP3 MSTORE SWAP2 SWAP1 KECCAK256 SLOAD ISZERO PUSH2 0x16F0 JUMPI PUSH1 0x40 MLOAD PUSH3 0x461BCD PUSH1 0xE5 SHL DUP2 MSTORE PUSH1 0x20 PUSH1 0x4 DUP3 ADD MSTORE PUSH1 0x1A PUSH1 0x24 DUP3 ADD MSTORE PUSH32 0x636F6E646974696F6E20616C7265616479207072657061726564000000000000 PUSH1 0x44 DUP3 ADD MSTORE PUSH1 0x64 ADD PUSH2 0x3D8 JUMP JUMPDEST DUP2 PUSH8 0xFFFFFFFFFFFFFFFF DUP2 GT ISZERO PUSH2 0x1709 JUMPI PUSH2 0x1709 PUSH2 0x2C06 JUMP JUMPDEST PUSH1 0x40 MLOAD SWAP1 DUP1 DUP3 MSTORE DUP1 PUSH1 0x20 MUL PUSH1 0x20 ADD DUP3 ADD PUSH1 0x40 MSTORE DUP1 ISZERO PUSH2 0x1732 JUMPI DUP2 PUSH1 0x20 ADD PUSH1 0x20 DUP3 MUL DUP1 CALLDATASIZE DUP4 CALLDATACOPY ADD SWAP1 POP JUMPDEST POP PUSH0 DUP3 DUP2 MSTORE PUSH1 0x4 PUSH1 0x20 SWAP1 DUP2 MSTORE PUSH1 0x40 SWAP1 SWAP2 KECCAK256 DUP3 MLOAD PUSH2 0x1755 SWAP4 SWAP2 SWAP3 SWAP2 SWAP1 SWAP2 ADD SWAP1 PUSH2 0x2A14 JUMP JUMPDEST POP DUP3 DUP5 PUSH1 0x1 PUSH1 0x1 PUSH1 0xA0 SHL SUB AND DUP3 PUSH32 0xAB3760C3BD2BB38B5BCF54DC79802ED67338B4CF29F3054DED67ED24661E4177 DUP6 PUSH1 0x40 MLOAD PUSH2 0x1793 SWAP2 DUP2 MSTORE PUSH1 0x20 ADD SWAP1 JUMP JUMPDEST PUSH1 0x40 MLOAD DUP1 SWAP2 SUB SWAP1 LOG4 POP POP POP POP JUMP JUMPDEST CALLER PUSH1 0x1 PUSH1 0x1 PUSH1 0xA0 SHL SUB DUP7 AND DUP2 EQ DUP1 ISZERO SWAP1 PUSH2 0x17E0 JUMPI POP PUSH1 0x1 PUSH1 0x1 PUSH1 0xA0 SHL SUB DUP1 DUP8 AND PUSH0 SWAP1 DUP2 MSTORE PUSH1 0x1 PUSH1 0x20 SWAP1 DUP2 MSTORE PUSH1 0x40 DUP1 DUP4 KECCAK256 SWAP4 DUP6 AND DUP4 MSTORE SWAP3 SWAP1 MSTORE KECCAK256 SLOAD PUSH1 0xFF AND ISZERO JUMPDEST ISZERO PUSH2 0x1811 JUMPI PUSH1 0x40 MLOAD PUSH4 0x711BEC91 PUSH1 0xE1 SHL DUP2 MSTORE PUSH1 0x1 PUSH1 0x1 PUSH1 0xA0 SHL SUB DUP1 DUP4 AND PUSH1 0x4 DUP4 ADD MSTORE DUP8 AND PUSH1 0x24 DUP3 ADD MSTORE PUSH1 0x44 ADD PUSH2 0x3D8 JUMP JUMPDEST PUSH2 0x8FB DUP7 DUP7 DUP7 DUP7 DUP7 PUSH2 0x1D7B JUMP JUMPDEST PUSH0 DUP1 DUP4 DUP4 PUSH1 0x40 MLOAD PUSH1 0x20 ADD PUSH2 0x183C SWAP3 SWAP2 SWAP1 SWAP2 DUP3 MSTORE PUSH1 0x20 DUP3 ADD MSTORE PUSH1 0x40 ADD SWAP1 JUMP JUMPDEST PUSH1 0x40 DUP1 MLOAD PUSH1 0x1F NOT DUP2 DUP5 SUB ADD DUP2 MSTORE SWAP2 SWAP1 MSTORE DUP1 MLOAD PUSH1 0x20 SWAP1 SWAP2 ADD KECCAK256 SWAP1 POP PUSH1 0xFF DUP2 SWAP1 SHR ISZERO ISZERO PUSH0 DUP1 JUMPDEST PUSH0 DUP1 MLOAD PUSH1 0x20 PUSH2 0x33D1 DUP4 CODECOPY DUP2 MLOAD SWAP2 MSTORE PUSH1 0x1 DUP6 ADDMOD SWAP4 POP PUSH0 DUP1 MLOAD PUSH1 0x20 PUSH2 0x33D1 DUP4 CODECOPY DUP2 MLOAD SWAP2 MSTORE PUSH1 0x3 PUSH0 DUP1 MLOAD PUSH1 0x20 PUSH2 0x33D1 DUP4 CODECOPY DUP2 MLOAD SWAP2 MSTORE DUP1 DUP8 DUP9 MULMOD DUP8 MULMOD ADDMOD SWAP1 POP PUSH2 0x18A4 DUP2 PUSH2 0x1E07 JUMP JUMPDEST SWAP2 POP DUP1 PUSH0 DUP1 MLOAD PUSH1 0x20 PUSH2 0x33D1 DUP4 CODECOPY DUP2 MLOAD SWAP2 MSTORE DUP4 DUP5 MULMOD SUB PUSH2 0x1860 JUMPI DUP3 DUP1 ISZERO PUSH2 0x18D2 JUMPI POP PUSH2 0x18D0 PUSH1 0x2 DUP4 PUSH2 0x329E JUMP JUMPDEST ISZERO JUMPDEST DUP1 PUSH2 0x18F0 JUMPI POP DUP3 ISZERO DUP1 ISZERO PUSH2 0x18F0 JUMPI POP PUSH2 0x18EC PUSH1 0x2 DUP4 PUSH2 0x329E JUMP JUMPDEST PUSH1 0x1 EQ JUMPDEST ISZERO PUSH2 0x190F JUMPI PUSH2 0x190C DUP3 PUSH0 DUP1 MLOAD PUSH1 0x20 PUSH2 0x33D1 DUP4 CODECOPY DUP2 MLOAD SWAP2 MSTORE PUSH2 0x30ED JUMP JUMPDEST SWAP2 POP JUMPDEST DUP8 DUP1 ISZERO PUSH2 0x1B14 JUMPI PUSH1 0xFE DUP2 SWAP1 SHR ISZERO ISZERO SWAP4 POP PUSH32 0x3FFFFFFFFFFFFFFFFFFFFFFFFFFFFFFFFFFFFFFFFFFFFFFFFFFFFFFFFFFFFFFF AND PUSH0 DUP1 MLOAD PUSH1 0x20 PUSH2 0x33D1 DUP4 CODECOPY DUP2 MLOAD SWAP2 MSTORE PUSH1 0x3 PUSH0 DUP1 MLOAD PUSH1 0x20 PUSH2 0x33D1 DUP4 CODECOPY DUP2 MLOAD SWAP2 MSTORE DUP1 DUP5 DUP6 MULMOD DUP5 MULMOD ADDMOD SWAP2 POP PUSH0 PUSH2 0x1972 DUP4 PUSH2 0x1E07 JUMP JUMPDEST SWAP1 POP DUP5 DUP1 ISZERO PUSH2 0x1989 JUMPI POP PUSH2 0x1987 PUSH1 0x2 DUP3 PUSH2 0x329E JUMP JUMPDEST ISZERO JUMPDEST DUP1 PUSH2 0x19A7 JUMPI POP DUP5 ISZERO DUP1 ISZERO PUSH2 0x19A7 JUMPI POP PUSH2 0x19A3 PUSH1 0x2 DUP3 PUSH2 0x329E JUMP JUMPDEST PUSH1 0x1 EQ JUMPDEST ISZERO PUSH2 0x19C6 JUMPI PUSH2 0x19C3 DUP2 PUSH0 DUP1 MLOAD PUSH1 0x20 PUSH2 0x33D1 DUP4 CODECOPY DUP2 MLOAD SWAP2 MSTORE PUSH2 0x30ED JUMP JUMPDEST SWAP1 POP JUMPDEST DUP3 PUSH0 DUP1 MLOAD PUSH1 0x20 PUSH2 0x33D1 DUP4 CODECOPY DUP2 MLOAD SWAP2 MSTORE DUP3 DUP4 MULMOD EQ PUSH2 0x1A25 JUMPI PUSH1 0x40 MLOAD PUSH3 0x461BCD PUSH1 0xE5 SHL DUP2 MSTORE PUSH1 0x20 PUSH1 0x4 DUP3 ADD MSTORE PUSH1 0x1C PUSH1 0x24 DUP3 ADD MSTORE PUSH32 0x696E76616C696420706172656E7420636F6C6C656374696F6E20494400000000 PUSH1 0x44 DUP3 ADD MSTORE PUSH1 0x64 ADD PUSH2 0x3D8 JUMP JUMPDEST PUSH1 0x40 DUP1 MLOAD PUSH1 0x20 DUP2 ADD DUP9 SWAP1 MSTORE SWAP1 DUP2 ADD DUP6 SWAP1 MSTORE PUSH1 0x60 DUP2 ADD DUP4 SWAP1 MSTORE PUSH1 0x80 DUP2 ADD DUP3 SWAP1 MSTORE PUSH0 SWAP1 DUP2 SWAP1 PUSH1 0x6 SWAP1 PUSH1 0xA0 ADD PUSH1 0x40 DUP1 MLOAD PUSH1 0x1F NOT DUP2 DUP5 SUB ADD DUP2 MSTORE SWAP1 DUP3 SWAP1 MSTORE PUSH2 0x1A68 SWAP2 PUSH2 0x32B1 JUMP JUMPDEST PUSH0 PUSH1 0x40 MLOAD DUP1 DUP4 SUB DUP2 DUP6 GAS STATICCALL SWAP2 POP POP RETURNDATASIZE DUP1 PUSH0 DUP2 EQ PUSH2 0x1AA0 JUMPI PUSH1 0x40 MLOAD SWAP2 POP PUSH1 0x1F NOT PUSH1 0x3F RETURNDATASIZE ADD AND DUP3 ADD PUSH1 0x40 MSTORE RETURNDATASIZE DUP3 MSTORE RETURNDATASIZE PUSH0 PUSH1 0x20 DUP5 ADD RETURNDATACOPY PUSH2 0x1AA5 JUMP JUMPDEST PUSH1 0x60 SWAP2 POP JUMPDEST POP SWAP2 POP SWAP2 POP DUP2 PUSH2 0x1AF7 JUMPI PUSH1 0x40 MLOAD PUSH3 0x461BCD PUSH1 0xE5 SHL DUP2 MSTORE PUSH1 0x20 PUSH1 0x4 DUP3 ADD MSTORE PUSH1 0xC PUSH1 0x24 DUP3 ADD MSTORE PUSH32 0x6563616464206661696C65640000000000000000000000000000000000000000 PUSH1 0x44 DUP3 ADD MSTORE PUSH1 0x64 ADD PUSH2 0x3D8 JUMP JUMPDEST DUP1 DUP1 PUSH1 0x20 ADD SWAP1 MLOAD DUP2 ADD SWAP1 PUSH2 0x1B0B SWAP2 SWAP1 PUSH2 0x32C7 JUMP JUMPDEST SWAP1 SWAP9 POP SWAP6 POP POP POP POP JUMPDEST PUSH2 0x1B1F PUSH1 0x2 DUP5 PUSH2 0x329E JUMP JUMPDEST PUSH1 0x1 SUB PUSH2 0x1B30 JUMPI PUSH1 0x1 PUSH1 0xFE SHL DUP6 XOR SWAP5 POP JUMPDEST POP SWAP3 SWAP8 SWAP7 POP POP POP POP POP POP POP JUMP JUMPDEST PUSH1 0x1 PUSH1 0x1 PUSH1 0xA0 SHL SUB DUP4 AND PUSH2 0x1B65 JUMPI PUSH1 0x40 MLOAD PUSH3 0x6A0D45 PUSH1 0xE2 SHL DUP2 MSTORE PUSH0 PUSH1 0x4 DUP3 ADD MSTORE PUSH1 0x24 ADD PUSH2 0x3D8 JUMP JUMPDEST PUSH1 0x40 DUP1 MLOAD PUSH1 0x1 DUP1 DUP3 MSTORE PUSH1 0x20 DUP3 ADD DUP6 SWAP1 MSTORE DUP2 DUP4 ADD SWAP1 DUP2 MSTORE PUSH1 0x60 DUP3 ADD DUP5 SWAP1 MSTORE PUSH1 0xA0 DUP3 ADD SWAP1 SWAP3 MSTORE PUSH0 PUSH1 0x80 DUP3 ADD DUP2 DUP2 MSTORE SWAP2 SWAP3 SWAP2 PUSH2 0x1BA3 SWAP2 DUP8 SWAP2 DUP6 SWAP1 DUP6 SWAP1 PUSH2 0x25AA JUMP JUMPDEST POP POP POP POP POP JUMP JUMPDEST PUSH1 0x1 PUSH1 0x1 PUSH1 0xA0 SHL SUB DUP5 AND PUSH2 0x1BD3 JUMPI PUSH1 0x40 MLOAD PUSH4 0x2BFA23E7 PUSH1 0xE1 SHL DUP2 MSTORE PUSH0 PUSH1 0x4 DUP3 ADD MSTORE PUSH1 0x24 ADD PUSH2 0x3D8 JUMP JUMPDEST PUSH1 0x40 DUP1 MLOAD PUSH1 0x1 DUP1 DUP3 MSTORE PUSH1 0x20 DUP3 ADD DUP7 SWAP1 MSTORE DUP2 DUP4 ADD SWAP1 DUP2 MSTORE PUSH1 0x60 DUP3 ADD DUP6 SWAP1 MSTORE PUSH1 0x80 DUP3 ADD SWAP1 SWAP3 MSTORE SWAP1 PUSH2 0x8FB PUSH0 DUP8 DUP5 DUP5 DUP8 PUSH2 0x25AA JUMP JUMPDEST PUSH1 0x1 PUSH1 0x1 PUSH1 0xA0 SHL SUB DUP5 AND PUSH2 0x1C2E JUMPI PUSH1 0x40 MLOAD PUSH4 0x2BFA23E7 PUSH1 0xE1 SHL DUP2 MSTORE PUSH0 PUSH1 0x4 DUP3 ADD MSTORE PUSH1 0x24 ADD PUSH2 0x3D8 JUMP JUMPDEST PUSH1 0x1 PUSH1 0x1 PUSH1 0xA0 SHL SUB DUP6 AND PUSH2 0x1C56 JUMPI PUSH1 0x40 MLOAD PUSH3 0x6A0D45 PUSH1 0xE2 SHL DUP2 MSTORE PUSH0 PUSH1 0x4 DUP3 ADD MSTORE PUSH1 0x24 ADD PUSH2 0x3D8 JUMP JUMPDEST PUSH2 0x1BA3 DUP6 DUP6 DUP6 DUP6 DUP6 PUSH2 0x25AA JUMP JUMPDEST PUSH1 0x1 PUSH1 0x1 PUSH1 0xA0 SHL SUB DUP5 AND PUSH2 0x1C8C JUMPI PUSH1 0x40 MLOAD PUSH4 0x2BFA23E7 PUSH1 0xE1 SHL DUP2 MSTORE PUSH0 PUSH1 0x4 DUP3 ADD MSTORE PUSH1 0x24 ADD PUSH2 0x3D8 JUMP JUMPDEST PUSH2 0x1C99 PUSH0 DUP6 DUP6 DUP6 DUP6 PUSH2 0x25AA JUMP JUMPDEST POP POP POP POP JUMP JUMPDEST PUSH1 0x1 PUSH1 0x1 PUSH1 0xA0 SHL SUB DUP4 AND PUSH2 0x1CC7 JUMPI PUSH1 0x40 MLOAD PUSH3 0x6A0D45 PUSH1 0xE2 SHL DUP2 MSTORE PUSH0 PUSH1 0x4 DUP3 ADD MSTORE PUSH1 0x24 ADD PUSH2 0x3D8 JUMP JUMPDEST PUSH2 0x1CE2 DUP4 PUSH0 DUP5 DUP5 PUSH1 0x40 MLOAD DUP1 PUSH1 0x20 ADD PUSH1 0x40 MSTORE DUP1 PUSH0 DUP2 MSTORE POP PUSH2 0x25AA JUMP JUMPDEST POP POP POP JUMP JUMPDEST PUSH1 0x1 PUSH1 0x1 PUSH1 0xA0 SHL SUB DUP3 AND PUSH2 0x1D0F JUMPI PUSH1 0x40 MLOAD PUSH3 0xCED3E1 PUSH1 0xE8 SHL DUP2 MSTORE PUSH0 PUSH1 0x4 DUP3 ADD MSTORE PUSH1 0x24 ADD PUSH2 0x3D8 JUMP JUMPDEST PUSH1 0x1 PUSH1 0x1 PUSH1 0xA0 SHL SUB DUP4 DUP2 AND PUSH0 DUP2 DUP2 MSTORE PUSH1 0x1 PUSH1 0x20 SWAP1 DUP2 MSTORE PUSH1 0x40 DUP1 DUP4 KECCAK256 SWAP5 DUP8 AND DUP1 DUP5 MSTORE SWAP5 DUP3 MSTORE SWAP2 DUP3 SWAP1 KECCAK256 DUP1 SLOAD PUSH1 0xFF NOT AND DUP7 ISZERO ISZERO SWAP1 DUP2 OR SWAP1 SWAP2 SSTORE SWAP2 MLOAD SWAP2 DUP3 MSTORE PUSH32 0x17307EAB39AB6107E8899845AD3D59BD9653F200F220920489CA2B5937696C31 SWAP2 ADD PUSH1 0x40 MLOAD DUP1 SWAP2 SUB SWAP1 LOG3 POP POP POP JUMP JUMPDEST PUSH1 0x1 PUSH1 0x1 PUSH1 0xA0 SHL SUB DUP5 AND PUSH2 0x1DA4 JUMPI PUSH1 0x40 MLOAD PUSH4 0x2BFA23E7 PUSH1 0xE1 SHL DUP2 MSTORE PUSH0 PUSH1 0x4 DUP3 ADD MSTORE PUSH1 0x24 ADD PUSH2 0x3D8 JUMP JUMPDEST PUSH1 0x1 PUSH1 0x1 PUSH1 0xA0 SHL SUB DUP6 AND PUSH2 0x1DCC JUMPI PUSH1 0x40 MLOAD PUSH3 0x6A0D45 PUSH1 0xE2 SHL DUP2 MSTORE PUSH0 PUSH1 0x4 DUP3 ADD MSTORE PUSH1 0x24 ADD PUSH2 0x3D8 JUMP JUMPDEST PUSH1 0x40 DUP1 MLOAD PUSH1 0x1 DUP1 DUP3 MSTORE PUSH1 0x20 DUP3 ADD DUP7 SWAP1 MSTORE DUP2 DUP4 ADD SWAP1 DUP2 MSTORE PUSH1 0x60 DUP3 ADD DUP6 SWAP1 MSTORE PUSH1 0x80 DUP3 ADD SWAP1 SWAP3 MSTORE SWAP1 PUSH2 0x1DFE DUP8 DUP8 DUP5 DUP5 DUP8 PUSH2 0x25AA JUMP JUMPDEST POP POP POP POP POP POP POP JUMP JUMPDEST PUSH0 PUSH0 DUP1 MLOAD PUSH1 0x20 PUSH2 0x33D1 DUP4 CODECOPY DUP2 MLOAD SWAP2 MSTORE DUP1 DUP4 DUP1 MULMOD SWAP2 POP DUP1 DUP3 DUP4 MULMOD DUP2 DUP2 DUP3 MULMOD SWAP1 POP DUP2 DUP2 DUP5 MULMOD SWAP3 POP DUP2 DUP4 DUP6 MULMOD SWAP4 POP DUP2 DUP5 DUP5 MULMOD SWAP3 POP DUP2 DUP4 DUP5 MULMOD SWAP1 POP DUP2 DUP2 DUP3 MULMOD DUP3 DUP2 DUP4 MULMOD SWAP1 POP DUP3 DUP2 DUP3 MULMOD SWAP1 POP DUP3 DUP2 DUP3 MULMOD SWAP1 POP DUP3 DUP2 DUP4 MULMOD SWAP2 POP DUP3 DUP3 DUP7 MULMOD SWAP5 POP DUP3 DUP6 DUP7 MULMOD SWAP2 POP DUP3 DUP3 DUP4 MULMOD SWAP2 POP DUP3 DUP3 DUP6 MULMOD SWAP4 POP DUP3 DUP5 DUP6 MULMOD SWAP2 POP DUP3 DUP3 DUP4 MULMOD SWAP2 POP DUP3 DUP3 DUP4 MULMOD SWAP2 POP DUP3 DUP3 DUP6 MULMOD SWAP2 POP DUP3 DUP3 DUP7 MULMOD SWAP5 POP DUP3 DUP6 DUP7 MULMOD SWAP2 POP DUP3 DUP3 DUP4 MULMOD SWAP2 POP DUP3 DUP3 DUP4 MULMOD SWAP2 POP DUP3 DUP3 DUP7 MULMOD SWAP2 POP DUP3 DUP3 DUP6 MULMOD SWAP4 POP DUP3 DUP5 DUP7 MULMOD SWAP5 POP DUP3 DUP6 DUP7 MULMOD SWAP2 POP DUP3 DUP3 DUP4 MULMOD SWAP2 POP DUP3 DUP3 DUP6 MULMOD SWAP4 POP DUP3 DUP5 DUP6 MULMOD SWAP2 POP DUP3 DUP3 DUP4 MULMOD SWAP1 POP DUP3 DUP2 DUP3 MULMOD SWAP1 POP DUP3 DUP2 DUP3 MULMOD SWAP1 POP DUP3 DUP2 DUP4 MULMOD SWAP2 POP DUP3 DUP3 DUP7 MULMOD SWAP5 POP DUP3 DUP6 DUP6 MULMOD SWAP4 POP DUP3 DUP5 DUP6 MULMOD SWAP2 POP DUP3 DUP3 DUP4 MULMOD SWAP2 POP DUP3 DUP3 DUP4 MULMOD SWAP2 POP DUP3 DUP3 DUP7 MULMOD SWAP5 POP DUP3 DUP6 DUP7 MULMOD SWAP2 POP DUP3 DUP3 DUP4 MULMOD SWAP2 POP DUP3 DUP3 DUP7 MULMOD SWAP2 POP DUP3 DUP3 DUP4 MULMOD SWAP2 POP DUP3 DUP3 DUP4 MULMOD SWAP2 POP DUP3 DUP3 DUP7 MULMOD SWAP2 POP DUP3 DUP3 DUP6 MULMOD SWAP4 POP DUP3 DUP5 DUP6 MULMOD SWAP2 POP DUP3 DUP3 DUP4 MULMOD SWAP1 POP DUP3 DUP2 DUP3 MULMOD SWAP1 POP DUP3 DUP2 DUP4 MULMOD SWAP1 POP DUP3 DUP2 DUP6 MULMOD SWAP1 POP DUP3 DUP2 DUP3 MULMOD SWAP1 POP DUP3 DUP2 DUP3 MULMOD SWAP1 POP DUP3 DUP2 DUP3 MULMOD SWAP1 POP DUP3 DUP2 DUP3 MULMOD SWAP1 POP DUP3 DUP2 DUP4 MULMOD SWAP2 POP DUP3 DUP3 DUP7 MULMOD SWAP5 POP DUP3 DUP6 DUP7 MULMOD SWAP2 POP DUP3 DUP3 DUP7 MULMOD SWAP2 POP DUP3 DUP3 DUP6 MULMOD SWAP4 POP DUP3 DUP5 DUP6 MULMOD SWAP2 POP DUP3 DUP3 DUP6 MULMOD SWAP2 POP DUP3 DUP3 DUP4 MULMOD SWAP2 POP DUP3 DUP3 DUP4 MULMOD SWAP1 POP DUP3 DUP2 DUP4 MULMOD SWAP1 POP DUP3 DUP2 DUP3 MULMOD DUP4 DUP2 DUP3 MULMOD SWAP1 POP DUP4 DUP2 DUP3 MULMOD SWAP1 POP DUP4 DUP2 DUP3 MULMOD SWAP1 POP DUP4 DUP2 DUP3 MULMOD SWAP1 POP DUP4 DUP2 DUP4 MULMOD SWAP2 POP POP DUP3 DUP2 DUP4 MULMOD SWAP2 POP DUP3 DUP3 DUP7 MULMOD SWAP5 POP DUP3 DUP6 DUP6 MULMOD SWAP4 POP DUP3 DUP5 DUP6 MULMOD SWAP2 POP DUP3 DUP3 DUP7 MULMOD SWAP5 POP DUP3 DUP6 DUP6 MULMOD SWAP4 POP DUP3 DUP5 DUP7 MULMOD SWAP5 POP DUP3 DUP6 DUP6 MULMOD SWAP4 POP DUP3 DUP5 DUP7 MULMOD SWAP5 POP DUP3 DUP6 DUP7 MULMOD SWAP2 POP DUP3 DUP3 DUP7 MULMOD SWAP2 POP DUP3 DUP3 DUP4 MULMOD SWAP2 POP DUP3 DUP3 DUP6 MULMOD SWAP4 POP DUP3 DUP5 DUP6 MULMOD SWAP2 POP DUP3 DUP3 DUP4 MULMOD SWAP2 POP DUP3 DUP3 DUP7 MULMOD SWAP5 POP DUP3 DUP6 DUP6 MULMOD SWAP4 POP DUP3 DUP5 DUP6 MULMOD SWAP2 POP DUP3 DUP3 DUP6 MULMOD SWAP2 POP DUP3 DUP3 DUP7 MULMOD SWAP5 POP DUP3 DUP6 DUP6 MULMOD SWAP4 POP DUP3 DUP5 DUP7 MULMOD SWAP5 POP DUP3 DUP6 DUP6 MULMOD SWAP4 POP DUP3 DUP5 DUP6 MULMOD SWAP2 POP DUP3 DUP3 DUP4 MULMOD SWAP2 POP DUP3 DUP3 DUP6 MULMOD SWAP2 POP DUP3 DUP3 DUP7 MULMOD SWAP5 POP DUP3 DUP6 DUP7 MULMOD SWAP2 POP DUP3 DUP3 DUP7 MULMOD SWAP2 POP DUP3 DUP3 DUP6 MULMOD SWAP4 POP DUP3 DUP5 DUP7 MULMOD SWAP5 POP DUP3 DUP6 DUP6 MULMOD SWAP4 POP DUP3 DUP5 DUP7 MULMOD SWAP5 POP DUP3 DUP6 DUP6 MULMOD SWAP4 POP DUP3 DUP5 DUP6 MULMOD SWAP2 POP DUP3 DUP3 DUP6 MULMOD SWAP2 POP DUP3 DUP3 DUP4 MULMOD SWAP2 POP DUP3 DUP3 DUP7 MULMOD SWAP5 POP DUP3 DUP6 DUP6 MULMOD SWAP4 POP DUP3 DUP5 DUP6 MULMOD SWAP2 POP DUP3 DUP3 DUP6 MULMOD SWAP2 POP DUP3 DUP3 DUP4 MULMOD SWAP2 POP DUP3 DUP3 DUP7 MULMOD SWAP5 POP DUP3 DUP6 DUP7 MULMOD SWAP2 POP DUP3 DUP3 DUP4 MULMOD SWAP1 POP DUP3 DUP2 DUP3 MULMOD SWAP1 POP DUP3 DUP2 DUP4 MULMOD SWAP1 POP DUP3 DUP2 DUP7 MULMOD SWAP1 POP DUP3 DUP2 DUP3 MULMOD SWAP1 POP DUP3 DUP2 DUP3 MULMOD SWAP1 POP DUP3 DUP2 DUP3 MULMOD SWAP1 POP DUP3 DUP2 DUP3 MULMOD SWAP1 POP DUP3 DUP2 DUP4 MULMOD SWAP2 POP DUP3 DUP3 DUP6 MULMOD SWAP4 POP DUP3 DUP5 DUP7 MULMOD SWAP5 POP DUP3 DUP6 DUP6 MULMOD SWAP4 POP DUP3 DUP5 DUP7 MULMOD SWAP5 POP DUP3 DUP6 DUP7 MULMOD SWAP2 POP DUP3 DUP3 DUP7 MULMOD SWAP2 POP DUP3 DUP3 DUP4 MULMOD SWAP2 POP DUP3 DUP3 DUP4 MULMOD SWAP2 POP DUP3 DUP3 DUP4 MULMOD SWAP2 POP DUP3 DUP3 DUP7 MULMOD SWAP2 POP DUP3 DUP3 DUP6 MULMOD SWAP4 POP DUP3 DUP5 DUP6 MULMOD SWAP2 POP DUP3 DUP3 DUP6 MULMOD SWAP2 POP DUP3 DUP3 DUP4 MULMOD SWAP2 POP DUP3 DUP3 DUP7 MULMOD SWAP5 POP DUP3 DUP6 DUP7 MULMOD SWAP2 POP DUP3 DUP3 DUP7 MULMOD SWAP2 POP DUP3 DUP3 DUP6 MULMOD SWAP4 POP DUP3 DUP5 DUP7 MULMOD SWAP5 POP DUP3 DUP6 DUP7 MULMOD SWAP2 POP DUP3 DUP3 DUP4 MULMOD SWAP2 POP DUP3 DUP3 DUP6 MULMOD SWAP4 POP DUP3 DUP5 DUP7 MULMOD SWAP5 POP DUP3 DUP6 DUP7 MULMOD SWAP2 POP DUP3 DUP3 DUP6 MULMOD SWAP4 POP DUP3 DUP5 DUP7 MULMOD SWAP5 POP DUP3 DUP6 DUP6 MULMOD SWAP4 POP DUP3 DUP5 DUP6 MULMOD SWAP2 POP DUP3 DUP3 DUP6 MULMOD SWAP2 POP DUP3 DUP3 DUP7 MULMOD SWAP5 POP DUP3 DUP6 DUP6 MULMOD SWAP4 POP DUP3 DUP5 DUP6 MULMOD SWAP2 POP DUP3 DUP3 DUP6 MULMOD SWAP2 POP DUP3 DUP3 DUP4 MULMOD SWAP2 POP DUP3 DUP3 DUP4 MULMOD SWAP2 POP DUP3 DUP3 DUP7 MULMOD SWAP5 POP DUP3 DUP6 DUP7 MULMOD SWAP2 POP DUP3 DUP3 DUP4 MULMOD SWAP2 POP DUP3 DUP3 DUP4 MULMOD SWAP2 POP DUP3 DUP3 DUP7 MULMOD SWAP2 POP DUP3 DUP3 DUP6 MULMOD SWAP4 POP DUP3 DUP5 DUP7 MULMOD SWAP5 POP DUP3 DUP6 DUP7 MULMOD SWAP2 POP DUP3 DUP3 DUP7 MULMOD SWAP1 POP DUP3 DUP2 DUP3 MULMOD SWAP1 POP DUP3 DUP2 DUP3 MULMOD SWAP1 POP DUP3 DUP2 DUP4 MULMOD SWAP2 POP DUP3 DUP3 DUP6 MULMOD SWAP4 POP DUP3 DUP5 DUP6 MULMOD SWAP2 POP DUP3 DUP3 DUP7 MULMOD SWAP5 POP DUP3 DUP6 DUP6 MULMOD SWAP4 POP DUP3 DUP5 DUP7 MULMOD SWAP5 POP DUP3 DUP6 DUP6 MULMOD SWAP4 POP DUP3 DUP5 DUP7 MULMOD SWAP5 POP DUP3 DUP6 DUP6 MULMOD SWAP4 POP DUP3 DUP5 DUP6 MULMOD SWAP2 POP DUP3 DUP3 DUP6 MULMOD SWAP1 POP DUP3 DUP2 DUP6 MULMOD SWAP2 POP DUP3 DUP3 DUP4 MULMOD SWAP2 POP DUP3 DUP3 DUP4 MULMOD SWAP2 POP DUP3 DUP3 DUP3 MULMOD SWAP2 POP POP DUP2 DUP2 DUP6 MULMOD SWAP4 POP DUP2 DUP5 DUP5 MULMOD SWAP3 POP DUP2 DUP4 DUP6 MULMOD SWAP4 POP DUP2 DUP5 DUP5 MULMOD SWAP3 POP DUP2 DUP4 DUP6 MULMOD SWAP4 POP DUP2 DUP5 DUP6 MULMOD SWAP1 POP DUP2 DUP2 DUP6 MULMOD SWAP1 POP DUP2 DUP2 DUP5 MULMOD SWAP3 POP POP DUP1 DUP3 DUP5 MULMOD SWAP3 POP DUP1 DUP4 DUP5 MULMOD SWAP3 POP DUP1 DUP4 DUP5 MULMOD SWAP3 POP DUP1 DUP4 DUP5 MULMOD SWAP3 POP DUP1 DUP4 DUP5 MULMOD SWAP3 POP DUP1 DUP4 DUP5 MULMOD SWAP3 POP DUP1 DUP4 DUP5 MULMOD SWAP3 POP DUP1 DUP4 DUP5 MULMOD SWAP3 POP DUP1 DUP4 DUP5 MULMOD SWAP3 POP DUP1 DUP4 DUP5 MULMOD SWAP3 POP DUP1 DUP4 DUP5 MULMOD SWAP3 POP DUP1 DUP4 DUP5 MULMOD SWAP3 POP DUP1 DUP4 DUP5 MULMOD SWAP3 POP DUP1 DUP4 DUP5 MULMOD SWAP3 POP DUP1 DUP4 DUP5 MULMOD SWAP3 POP DUP1 DUP4 DUP5 MULMOD SWAP3 POP DUP1 DUP4 DUP5 MULMOD SWAP3 POP DUP1 DUP4 DUP5 MULMOD SWAP3 POP DUP1 DUP4 DUP5 MULMOD SWAP3 POP DUP1 DUP4 DUP5 MULMOD SWAP3 POP DUP1 DUP4 DUP5 MULMOD SWAP3 POP DUP1 DUP4 DUP5 MULMOD SWAP3 POP DUP1 DUP4 DUP5 MULMOD SWAP3 POP DUP1 DUP4 DUP5 MULMOD SWAP3 POP DUP1 DUP4 DUP5 MULMOD SWAP3 POP DUP1 DUP4 DUP5 MULMOD SWAP3 POP DUP1 DUP4 DUP5 MULMOD SWAP3 POP DUP1 DUP4 DUP5 MULMOD SWAP3 POP DUP1 DUP4 DUP5 MULMOD SWAP3 POP DUP1 DUP4 DUP5 MULMOD SWAP3 POP DUP1 DUP4 DUP5 MULMOD SWAP3 POP DUP1 DUP4 DUP5 MULMOD SWAP3 POP DUP1 DUP4 DUP5 MULMOD SWAP3 POP DUP1 DUP4 DUP5 MULMOD SWAP3 POP DUP1 DUP4 DUP5 MULMOD SWAP3 POP DUP1 DUP4 DUP5 MULMOD SWAP3 POP DUP1 DUP4 DUP5 MULMOD SWAP3 POP DUP1 DUP4 DUP5 MULMOD SWAP3 POP DUP1 DUP4 DUP5 MULMOD SWAP3 POP DUP1 DUP4 DUP5 MULMOD SWAP3 POP DUP1 DUP4 DUP5 MULMOD SWAP3 POP DUP1 DUP4 DUP5 MULMOD SWAP3 POP DUP1 DUP4 DUP5 MULMOD SWAP3 POP DUP1 DUP4 DUP5 MULMOD SWAP3 POP DUP1 DUP4 DUP5 MULMOD SWAP3 POP DUP1 DUP4 DUP5 MULMOD SWAP3 POP DUP1 DUP4 DUP5 MULMOD SWAP3 POP DUP1 DUP4 DUP5 MULMOD SWAP3 POP DUP1 DUP4 DUP5 MULMOD SWAP3 POP DUP1 DUP4 DUP5 MULMOD SWAP3 POP DUP1 DUP4 DUP5 MULMOD SWAP3 POP DUP1 DUP4 DUP5 MULMOD SWAP3 POP DUP1 DUP4 DUP5 MULMOD SWAP3 POP DUP1 DUP4 DUP5 MULMOD SWAP3 POP DUP1 DUP4 DUP5 MULMOD SWAP3 POP DUP1 DUP4 DUP5 MULMOD SWAP3 POP DUP1 DUP4 DUP5 MULMOD SWAP3 POP DUP1 DUP4 DUP5 MULMOD SWAP3 POP DUP1 DUP4 DUP5 MULMOD SWAP3 POP DUP1 DUP4 DUP5 MULMOD SWAP3 POP DUP1 DUP4 DUP5 MULMOD SWAP3 POP DUP1 DUP4 DUP5 MULMOD SWAP3 POP DUP1 DUP4 DUP5 MULMOD SWAP3 POP DUP1 DUP4 DUP5 MULMOD SWAP3 POP DUP1 DUP4 DUP5 MULMOD SWAP3 POP DUP1 DUP4 DUP5 MULMOD SWAP3 POP DUP1 DUP4 DUP5 MULMOD SWAP3 POP DUP1 DUP4 DUP5 MULMOD SWAP3 POP DUP1 DUP4 DUP5 MULMOD SWAP3 POP DUP1 DUP4 DUP5 MULMOD SWAP3 POP DUP1 DUP4 DUP5 MULMOD SWAP3 POP DUP1 DUP4 DUP5 MULMOD SWAP3 POP DUP1 DUP4 DUP5 MULMOD SWAP3 POP DUP1 DUP4 DUP5 MULMOD SWAP3 POP DUP1 DUP4 DUP5 MULMOD SWAP3 POP DUP1 DUP4 DUP5 MULMOD SWAP3 POP DUP1 DUP4 DUP5 MULMOD SWAP3 POP DUP1 DUP4 DUP5 MULMOD SWAP3 POP DUP1 DUP4 DUP5 MULMOD SWAP3 POP DUP1 DUP4 DUP5 MULMOD SWAP3 POP DUP1 DUP4 DUP5 MULMOD SWAP3 POP DUP1 DUP4 DUP5 MULMOD SWAP3 POP DUP1 DUP4 DUP5 MULMOD SWAP3 POP DUP1 DUP4 DUP5 MULMOD SWAP3 POP DUP1 DUP4 DUP5 MULMOD SWAP3 POP DUP1 DUP4 DUP5 MULMOD SWAP3 POP DUP1 DUP4 DUP5 MULMOD SWAP3 POP DUP1 DUP4 DUP5 MULMOD SWAP3 POP DUP1 DUP4 DUP5 MULMOD SWAP3 POP DUP1 DUP4 DUP5 MULMOD SWAP3 POP DUP1 DUP4 DUP5 MULMOD SWAP3 POP DUP1 DUP4 DUP5 MULMOD SWAP3 POP DUP1 DUP4 DUP5 MULMOD SWAP3 POP DUP1 DUP4 DUP5 MULMOD SWAP3 POP DUP1 DUP4 DUP5 MULMOD SWAP3 POP DUP1 DUP4 DUP5 MULMOD SWAP3 POP DUP1 DUP4 DUP5 MULMOD SWAP3 POP DUP1 DUP4 DUP5 MULMOD SWAP3 POP DUP1 DUP4 DUP5 MULMOD SWAP3 POP DUP1 DUP4 DUP5 MULMOD SWAP3 POP DUP1 DUP4 DUP5 MULMOD SWAP3 POP DUP1 DUP4 DUP5 MULMOD SWAP3 POP DUP1 DUP4 DUP5 MULMOD SWAP3 POP DUP1 DUP4 DUP5 MULMOD SWAP3 POP DUP1 DUP4 DUP5 MULMOD SWAP3 POP DUP1 DUP4 DUP5 MULMOD SWAP3 POP DUP1 DUP4 DUP5 MULMOD SWAP3 POP DUP1 DUP4 DUP5 MULMOD SWAP3 POP DUP1 DUP4 DUP5 MULMOD SWAP3 POP DUP1 DUP4 DUP5 MULMOD SWAP3 POP DUP1 DUP4 DUP5 MULMOD SWAP3 POP DUP1 DUP4 DUP5 MULMOD SWAP3 POP DUP1 DUP4 DUP5 MULMOD SWAP3 POP DUP1 DUP4 DUP5 MULMOD SWAP3 POP DUP1 DUP4 DUP5 MULMOD SWAP3 POP DUP1 DUP4 DUP5 MULMOD SWAP3 POP DUP1 DUP4 DUP5 MULMOD SWAP3 POP DUP1 DUP4 DUP5 MULMOD SWAP3 POP DUP1 DUP4 DUP5 MULMOD SWAP3 POP DUP1 DUP4 DUP5 MULMOD SWAP3 POP DUP1 DUP4 DUP5 MULMOD SWAP3 POP DUP1 DUP4 DUP5 MULMOD SWAP3 POP DUP1 DUP4 DUP5 MULMOD SWAP3 POP DUP1 DUP4 DUP5 MULMOD SWAP3 POP DUP1 DUP4 DUP5 MULMOD SWAP3 POP DUP1 DUP4 DUP5 MULMOD SWAP3 POP DUP1 DUP4 DUP5 MULMOD SWAP3 POP DUP1 DUP4 DUP4 MULMOD SWAP4 SWAP3 POP POP POP JUMP JUMPDEST PUSH2 0x25B6 DUP6 DUP6 DUP6 DUP6 PUSH2 0x25FD JUMP JUMPDEST PUSH1 0x1 PUSH1 0x1 PUSH1 0xA0 SHL SUB DUP5 AND ISZERO PUSH2 0x1BA3 JUMPI DUP3 MLOAD CALLER SWAP1 PUSH1 0x1 SUB PUSH2 0x25EF JUMPI PUSH1 0x20 DUP5 DUP2 ADD MLOAD SWAP1 DUP5 ADD MLOAD PUSH2 0x25E8 DUP4 DUP10 DUP10 DUP6 DUP6 DUP10 PUSH2 0x280C JUMP JUMPDEST POP POP PUSH2 0x8FB JUMP JUMPDEST PUSH2 0x8FB DUP2 DUP8 DUP8 DUP8 DUP8 DUP8 PUSH2 0x292D JUMP JUMPDEST DUP1 MLOAD DUP3 MLOAD EQ PUSH2 0x262C JUMPI DUP2 MLOAD DUP2 MLOAD PUSH1 0x40 MLOAD PUSH4 0x5B059991 PUSH1 0xE0 SHL DUP2 MSTORE PUSH1 0x4 DUP2 ADD SWAP3 SWAP1 SWAP3 MSTORE PUSH1 0x24 DUP3 ADD MSTORE PUSH1 0x44 ADD PUSH2 0x3D8 JUMP JUMPDEST CALLER PUSH0 JUMPDEST DUP4 MLOAD DUP2 LT ISZERO PUSH2 0x272E JUMPI PUSH1 0x20 DUP2 DUP2 MUL DUP6 DUP2 ADD DUP3 ADD MLOAD SWAP1 DUP6 ADD SWAP1 SWAP2 ADD MLOAD PUSH1 0x1 PUSH1 0x1 PUSH1 0xA0 SHL SUB DUP9 AND ISZERO PUSH2 0x26E0 JUMPI PUSH0 DUP3 DUP2 MSTORE PUSH1 0x20 DUP2 DUP2 MSTORE PUSH1 0x40 DUP1 DUP4 KECCAK256 PUSH1 0x1 PUSH1 0x1 PUSH1 0xA0 SHL SUB DUP13 AND DUP5 MSTORE SWAP1 SWAP2 MSTORE SWAP1 KECCAK256 SLOAD DUP2 DUP2 LT ISZERO PUSH2 0x26BA JUMPI PUSH1 0x40 MLOAD PUSH4 0x3DEE4C5 PUSH1 0xE0 SHL DUP2 MSTORE PUSH1 0x1 PUSH1 0x1 PUSH1 0xA0 SHL SUB DUP11 AND PUSH1 0x4 DUP3 ADD MSTORE PUSH1 0x24 DUP2 ADD DUP3 SWAP1 MSTORE PUSH1 0x44 DUP2 ADD DUP4 SWAP1 MSTORE PUSH1 0x64 DUP2 ADD DUP5 SWAP1 MSTORE PUSH1 0x84 ADD PUSH2 0x3D8 JUMP JUMPDEST PUSH0 DUP4 DUP2 MSTORE PUSH1 0x20 DUP2 DUP2 MSTORE PUSH1 0x40 DUP1 DUP4 KECCAK256 PUSH1 0x1 PUSH1 0x1 PUSH1 0xA0 SHL SUB DUP14 AND DUP5 MSTORE SWAP1 SWAP2 MSTORE SWAP1 KECCAK256 SWAP1 DUP3 SWAP1 SUB SWAP1 SSTORE JUMPDEST PUSH1 0x1 PUSH1 0x1 PUSH1 0xA0 SHL SUB DUP8 AND ISZERO PUSH2 0x2724 JUMPI PUSH0 DUP3 DUP2 MSTORE PUSH1 0x20 DUP2 DUP2 MSTORE PUSH1 0x40 DUP1 DUP4 KECCAK256 PUSH1 0x1 PUSH1 0x1 PUSH1 0xA0 SHL SUB DUP12 AND DUP5 MSTORE SWAP1 SWAP2 MSTORE DUP2 KECCAK256 DUP1 SLOAD DUP4 SWAP3 SWAP1 PUSH2 0x271E SWAP1 DUP5 SWAP1 PUSH2 0x3114 JUMP JUMPDEST SWAP1 SWAP2 SSTORE POP POP JUMPDEST POP POP PUSH1 0x1 ADD PUSH2 0x262F JUMP JUMPDEST POP DUP3 MLOAD PUSH1 0x1 SUB PUSH2 0x27AE JUMPI PUSH1 0x20 DUP4 ADD MLOAD PUSH0 SWAP1 PUSH1 0x20 DUP5 ADD MLOAD SWAP1 SWAP2 POP DUP6 PUSH1 0x1 PUSH1 0x1 PUSH1 0xA0 SHL SUB AND DUP8 PUSH1 0x1 PUSH1 0x1 PUSH1 0xA0 SHL SUB AND DUP5 PUSH1 0x1 PUSH1 0x1 PUSH1 0xA0 SHL SUB AND PUSH32 0xC3D58168C5AE7397731D063D5BBF3D657854427343F4C083240F7AACAA2D0F62 DUP6 DUP6 PUSH1 0x40 MLOAD PUSH2 0x279F SWAP3 SWAP2 SWAP1 SWAP2 DUP3 MSTORE PUSH1 0x20 DUP3 ADD MSTORE PUSH1 0x40 ADD SWAP1 JUMP JUMPDEST PUSH1 0x40 MLOAD DUP1 SWAP2 SUB SWAP1 LOG4 POP POP PUSH2 0x1BA3 JUMP JUMPDEST DUP4 PUSH1 0x1 PUSH1 0x1 PUSH1 0xA0 SHL SUB AND DUP6 PUSH1 0x1 PUSH1 0x1 PUSH1 0xA0 SHL SUB AND DUP3 PUSH1 0x1 PUSH1 0x1 PUSH1 0xA0 SHL SUB AND PUSH32 0x4A39DC06D4C0DBC64B70AF90FD698A233A518AA5D07E595D983B8C0526C8F7FB DUP7 DUP7 PUSH1 0x40 MLOAD PUSH2 0x27FD SWAP3 SWAP2 SWAP1 PUSH2 0x32E9 JUMP JUMPDEST PUSH1 0x40 MLOAD DUP1 SWAP2 SUB SWAP1 LOG4 POP POP POP POP POP JUMP JUMPDEST PUSH1 0x1 PUSH1 0x1 PUSH1 0xA0 SHL SUB DUP5 AND EXTCODESIZE ISZERO PUSH2 0x8FB JUMPI PUSH1 0x40 MLOAD PUSH4 0xF23A6E61 PUSH1 0xE0 SHL DUP2 MSTORE PUSH1 0x1 PUSH1 0x1 PUSH1 0xA0 SHL SUB DUP6 AND SWAP1 PUSH4 0xF23A6E61 SWAP1 PUSH2 0x2850 SWAP1 DUP10 SWAP1 DUP10 SWAP1 DUP9 SWAP1 DUP9 SWAP1 DUP9 SWAP1 PUSH1 0x4 ADD PUSH2 0x3316 JUMP JUMPDEST PUSH1 0x20 PUSH1 0x40 MLOAD DUP1 DUP4 SUB DUP2 PUSH0 DUP8 GAS CALL SWAP3 POP POP POP DUP1 ISZERO PUSH2 0x288A JUMPI POP PUSH1 0x40 DUP1 MLOAD PUSH1 0x1F RETURNDATASIZE SWAP1 DUP2 ADD PUSH1 0x1F NOT AND DUP3 ADD SWAP1 SWAP3 MSTORE PUSH2 0x2887 SWAP2 DUP2 ADD SWAP1 PUSH2 0x3358 JUMP JUMPDEST PUSH1 0x1 JUMPDEST PUSH2 0x28F1 JUMPI RETURNDATASIZE DUP1 DUP1 ISZERO PUSH2 0x28B7 JUMPI PUSH1 0x40 MLOAD SWAP2 POP PUSH1 0x1F NOT PUSH1 0x3F RETURNDATASIZE ADD AND DUP3 ADD PUSH1 0x40 MSTORE RETURNDATASIZE DUP3 MSTORE RETURNDATASIZE PUSH0 PUSH1 0x20 DUP5 ADD RETURNDATACOPY PUSH2 0x28BC JUMP JUMPDEST PUSH1 0x60 SWAP2 POP JUMPDEST POP DUP1 MLOAD PUSH0 SUB PUSH2 0x28E9 JUMPI PUSH1 0x40 MLOAD PUSH4 0x2BFA23E7 PUSH1 0xE1 SHL DUP2 MSTORE PUSH1 0x1 PUSH1 0x1 PUSH1 0xA0 SHL SUB DUP7 AND PUSH1 0x4 DUP3 ADD MSTORE PUSH1 0x24 ADD PUSH2 0x3D8 JUMP JUMPDEST DUP1 MLOAD DUP2 PUSH1 0x20 ADD REVERT JUMPDEST PUSH1 0x1 PUSH1 0x1 PUSH1 0xE0 SHL SUB NOT DUP2 AND PUSH4 0xF23A6E61 PUSH1 0xE0 SHL EQ PUSH2 0x1DFE JUMPI PUSH1 0x40 MLOAD PUSH4 0x2BFA23E7 PUSH1 0xE1 SHL DUP2 MSTORE PUSH1 0x1 PUSH1 0x1 PUSH1 0xA0 SHL SUB DUP7 AND PUSH1 0x4 DUP3 ADD MSTORE PUSH1 0x24 ADD PUSH2 0x3D8 JUMP JUMPDEST PUSH1 0x1 PUSH1 0x1 PUSH1 0xA0 SHL SUB DUP5 AND EXTCODESIZE ISZERO PUSH2 0x8FB JUMPI PUSH1 0x40 MLOAD PUSH4 0xBC197C81 PUSH1 0xE0 SHL DUP2 MSTORE PUSH1 0x1 PUSH1 0x1 PUSH1 0xA0 SHL SUB DUP6 AND SWAP1 PUSH4 0xBC197C81 SWAP1 PUSH2 0x2971 SWAP1 DUP10 SWAP1 DUP10 SWAP1 DUP9 SWAP1 DUP9 SWAP1 DUP9 SWAP1 PUSH1 0x4 ADD PUSH2 0x3373 JUMP JUMPDEST PUSH1 0x20 PUSH1 0x40 MLOAD DUP1 DUP4 SUB DUP2 PUSH0 DUP8 GAS CALL SWAP3 POP POP POP DUP1 ISZERO PUSH2 0x29AB JUMPI POP PUSH1 0x40 DUP1 MLOAD PUSH1 0x1F RETURNDATASIZE SWAP1 DUP2 ADD PUSH1 0x1F NOT AND DUP3 ADD SWAP1 SWAP3 MSTORE PUSH2 0x29A8 SWAP2 DUP2 ADD SWAP1 PUSH2 0x3358 JUMP JUMPDEST PUSH1 0x1 JUMPDEST PUSH2 0x29D8 JUMPI RETURNDATASIZE DUP1 DUP1 ISZERO PUSH2 0x28B7 JUMPI PUSH1 0x40 MLOAD SWAP2 POP PUSH1 0x1F NOT PUSH1 0x3F RETURNDATASIZE ADD AND DUP3 ADD PUSH1 0x40 MSTORE RETURNDATASIZE DUP3 MSTORE RETURNDATASIZE PUSH0 PUSH1 0x20 DUP5 ADD RETURNDATACOPY PUSH2 0x28BC JUMP JUMPDEST PUSH1 0x1 PUSH1 0x1 PUSH1 0xE0 SHL SUB NOT DUP2 AND PUSH4 0xBC197C81 PUSH1 0xE0 SHL EQ PUSH2 0x1DFE JUMPI PUSH1 0x40 MLOAD PUSH4 0x2BFA23E7 PUSH1 0xE1 SHL DUP2 MSTORE PUSH1 0x1 PUSH1 0x1 PUSH1 0xA0 SHL SUB DUP7 AND PUSH1 0x4 DUP3 ADD MSTORE PUSH1 0x24 ADD PUSH2 0x3D8 JUMP JUMPDEST DUP3 DUP1 SLOAD DUP3 DUP3 SSTORE SWAP1 PUSH0 MSTORE PUSH1 0x20 PUSH0 KECCAK256 SWAP1 DUP2 ADD SWAP3 DUP3 ISZERO PUSH2 0x2A4D JUMPI SWAP2 PUSH1 0x20 MUL DUP3 ADD JUMPDEST DUP3 DUP2 GT ISZERO PUSH2 0x2A4D JUMPI DUP3 MLOAD DUP3 SSTORE SWAP2 PUSH1 0x20 ADD SWAP2 SWAP1 PUSH1 0x1 ADD SWAP1 PUSH2 0x2A32 JUMP JUMPDEST POP PUSH2 0x2A59 SWAP3 SWAP2 POP PUSH2 0x2A5D JUMP JUMPDEST POP SWAP1 JUMP JUMPDEST JUMPDEST DUP1 DUP3 GT ISZERO PUSH2 0x2A59 JUMPI PUSH0 DUP2 SSTORE PUSH1 0x1 ADD PUSH2 0x2A5E JUMP JUMPDEST PUSH1 0x1 PUSH1 0x1 PUSH1 0xA0 SHL SUB DUP2 AND DUP2 EQ PUSH2 0x2A85 JUMPI PUSH0 DUP1 REVERT JUMPDEST POP JUMP JUMPDEST PUSH0 DUP1 PUSH1 0x40 DUP4 DUP6 SUB SLT ISZERO PUSH2 0x2A99 JUMPI PUSH0 DUP1 REVERT JUMPDEST DUP3 CALLDATALOAD PUSH2 0x2AA4 DUP2 PUSH2 0x2A71 JUMP JUMPDEST SWAP5 PUSH1 0x20 SWAP4 SWAP1 SWAP4 ADD CALLDATALOAD SWAP4 POP POP POP JUMP JUMPDEST PUSH0 DUP1 DUP4 PUSH1 0x1F DUP5 ADD SLT PUSH2 0x2AC2 JUMPI PUSH0 DUP1 REVERT JUMPDEST POP DUP2 CALLDATALOAD PUSH8 0xFFFFFFFFFFFFFFFF DUP2 GT ISZERO PUSH2 0x2AD9 JUMPI PUSH0 DUP1 REVERT JUMPDEST PUSH1 0x20 DUP4 ADD SWAP2 POP DUP4 PUSH1 0x20 DUP3 PUSH1 0x5 SHL DUP6 ADD ADD GT ISZERO PUSH2 0x2AF3 JUMPI PUSH0 DUP1 REVERT JUMPDEST SWAP3 POP SWAP3 SWAP1 POP JUMP JUMPDEST PUSH0 DUP1 PUSH0 DUP1 PUSH0 PUSH1 0x80 DUP7 DUP9 SUB SLT ISZERO PUSH2 0x2B0E JUMPI PUSH0 DUP1 REVERT JUMPDEST DUP6 CALLDATALOAD PUSH2 0x2B19 DUP2 PUSH2 0x2A71 JUMP JUMPDEST SWAP5 POP PUSH1 0x20 DUP7 ADD CALLDATALOAD SWAP4 POP PUSH1 0x40 DUP7 ADD CALLDATALOAD SWAP3 POP PUSH1 0x60 DUP7 ADD CALLDATALOAD PUSH8 0xFFFFFFFFFFFFFFFF DUP2 GT ISZERO PUSH2 0x2B42 JUMPI PUSH0 DUP1 REVERT JUMPDEST PUSH2 0x2B4E DUP9 DUP3 DUP10 ADD PUSH2 0x2AB2 JUMP JUMPDEST SWAP7 SWAP10 SWAP6 SWAP9 POP SWAP4 SWAP7 POP SWAP3 SWAP5 SWAP4 SWAP3 POP POP POP JUMP JUMPDEST PUSH1 0x1 PUSH1 0x1 PUSH1 0xE0 SHL SUB NOT DUP2 AND DUP2 EQ PUSH2 0x2A85 JUMPI PUSH0 DUP1 REVERT JUMPDEST PUSH0 PUSH1 0x20 DUP3 DUP5 SUB SLT ISZERO PUSH2 0x2B84 JUMPI PUSH0 DUP1 REVERT JUMPDEST DUP2 CALLDATALOAD PUSH2 0x946 DUP2 PUSH2 0x2B5F JUMP JUMPDEST PUSH0 DUP1 PUSH1 0x40 DUP4 DUP6 SUB SLT ISZERO PUSH2 0x2BA0 JUMPI PUSH0 DUP1 REVERT JUMPDEST POP POP DUP1 CALLDATALOAD SWAP3 PUSH1 0x20 SWAP1 SWAP2 ADD CALLDATALOAD SWAP2 POP JUMP JUMPDEST PUSH0 PUSH1 0x20 DUP3 DUP5 SUB SLT ISZERO PUSH2 0x2BBF JUMPI PUSH0 DUP1 REVERT JUMPDEST POP CALLDATALOAD SWAP2 SWAP1 POP JUMP JUMPDEST PUSH0 DUP2 MLOAD DUP1 DUP5 MSTORE DUP1 PUSH1 0x20 DUP5 ADD PUSH1 0x20 DUP7 ADD MCOPY PUSH0 PUSH1 0x20 DUP3 DUP7 ADD ADD MSTORE PUSH1 0x20 PUSH1 0x1F NOT PUSH1 0x1F DUP4 ADD AND DUP6 ADD ADD SWAP2 POP POP SWAP3 SWAP2 POP POP JUMP JUMPDEST PUSH1 0x20 DUP2 MSTORE PUSH0 PUSH2 0x946 PUSH1 0x20 DUP4 ADD DUP5 PUSH2 0x2BC6 JUMP JUMPDEST PUSH4 0x4E487B71 PUSH1 0xE0 SHL PUSH0 MSTORE PUSH1 0x41 PUSH1 0x4 MSTORE PUSH1 0x24 PUSH0 REVERT JUMPDEST PUSH1 0x40 MLOAD PUSH1 0x1F DUP3 ADD PUSH1 0x1F NOT AND DUP2 ADD PUSH8 0xFFFFFFFFFFFFFFFF DUP2 GT DUP3 DUP3 LT OR ISZERO PUSH2 0x2C43 JUMPI PUSH2 0x2C43 PUSH2 0x2C06 JUMP JUMPDEST PUSH1 0x40 MSTORE SWAP2 SWAP1 POP JUMP JUMPDEST PUSH0 PUSH8 0xFFFFFFFFFFFFFFFF DUP3 GT ISZERO PUSH2 0x2C64 JUMPI PUSH2 0x2C64 PUSH2 0x2C06 JUMP JUMPDEST POP PUSH1 0x5 SHL PUSH1 0x20 ADD SWAP1 JUMP JUMPDEST PUSH0 DUP3 PUSH1 0x1F DUP4 ADD SLT PUSH2 0x2C7D JUMPI PUSH0 DUP1 REVERT JUMPDEST DUP2 CALLDATALOAD PUSH1 0x20 PUSH2 0x2C92 PUSH2 0x2C8D DUP4 PUSH2 0x2C4B JUMP JUMPDEST PUSH2 0x2C1A JUMP JUMPDEST DUP1 DUP4 DUP3 MSTORE PUSH1 0x20 DUP3 ADD SWAP2 POP PUSH1 0x20 DUP5 PUSH1 0x5 SHL DUP8 ADD ADD SWAP4 POP DUP7 DUP5 GT ISZERO PUSH2 0x2CB3 JUMPI PUSH0 DUP1 REVERT JUMPDEST PUSH1 0x20 DUP7 ADD JUMPDEST DUP5 DUP2 LT ISZERO PUSH2 0x2CCF JUMPI DUP1 CALLDATALOAD DUP4 MSTORE SWAP2 DUP4 ADD SWAP2 DUP4 ADD PUSH2 0x2CB8 JUMP JUMPDEST POP SWAP7 SWAP6 POP POP POP POP POP POP JUMP JUMPDEST PUSH0 DUP3 PUSH1 0x1F DUP4 ADD SLT PUSH2 0x2CE9 JUMPI PUSH0 DUP1 REVERT JUMPDEST DUP2 CALLDATALOAD PUSH8 0xFFFFFFFFFFFFFFFF DUP2 GT ISZERO PUSH2 0x2D03 JUMPI PUSH2 0x2D03 PUSH2 0x2C06 JUMP JUMPDEST PUSH2 0x2D16 PUSH1 0x1F DUP3 ADD PUSH1 0x1F NOT AND PUSH1 0x20 ADD PUSH2 0x2C1A JUMP JUMPDEST DUP2 DUP2 MSTORE DUP5 PUSH1 0x20 DUP4 DUP7 ADD ADD GT ISZERO PUSH2 0x2D2A JUMPI PUSH0 DUP1 REVERT JUMPDEST DUP2 PUSH1 0x20 DUP6 ADD PUSH1 0x20 DUP4 ADD CALLDATACOPY PUSH0 SWAP2 DUP2 ADD PUSH1 0x20 ADD SWAP2 SWAP1 SWAP2 MSTORE SWAP4 SWAP3 POP POP POP JUMP JUMPDEST PUSH0 DUP1 PUSH0 DUP1 PUSH0 PUSH1 0xA0 DUP7 DUP9 SUB SLT ISZERO PUSH2 0x2D5A JUMPI PUSH0 DUP1 REVERT JUMPDEST DUP6 CALLDATALOAD PUSH2 0x2D65 DUP2 PUSH2 0x2A71 JUMP JUMPDEST SWAP5 POP PUSH1 0x20 DUP7 ADD CALLDATALOAD PUSH2 0x2D75 DUP2 PUSH2 0x2A71 JUMP JUMPDEST SWAP4 POP PUSH1 0x40 DUP7 ADD CALLDATALOAD PUSH8 0xFFFFFFFFFFFFFFFF DUP1 DUP3 GT ISZERO PUSH2 0x2D91 JUMPI PUSH0 DUP1 REVERT JUMPDEST PUSH2 0x2D9D DUP10 DUP4 DUP11 ADD PUSH2 0x2C6E JUMP JUMPDEST SWAP5 POP PUSH1 0x60 DUP9 ADD CALLDATALOAD SWAP2 POP DUP1 DUP3 GT ISZERO PUSH2 0x2DB2 JUMPI PUSH0 DUP1 REVERT JUMPDEST PUSH2 0x2DBE DUP10 DUP4 DUP11 ADD PUSH2 0x2C6E JUMP JUMPDEST SWAP4 POP PUSH1 0x80 DUP9 ADD CALLDATALOAD SWAP2 POP DUP1 DUP3 GT ISZERO PUSH2 0x2DD3 JUMPI PUSH0 DUP1 REVERT JUMPDEST POP PUSH2 0x2DE0 DUP9 DUP3 DUP10 ADD PUSH2 0x2CDA JUMP JUMPDEST SWAP2 POP POP SWAP3 SWAP6 POP SWAP3 SWAP6 SWAP1 SWAP4 POP JUMP JUMPDEST PUSH0 DUP1 PUSH1 0x40 DUP4 DUP6 SUB SLT ISZERO PUSH2 0x2DFE JUMPI PUSH0 DUP1 REVERT JUMPDEST DUP3 CALLDATALOAD PUSH8 0xFFFFFFFFFFFFFFFF DUP1 DUP3 GT ISZERO PUSH2 0x2E15 JUMPI PUSH0 DUP1 REVERT JUMPDEST DUP2 DUP6 ADD SWAP2 POP DUP6 PUSH1 0x1F DUP4 ADD SLT PUSH2 0x2E28 JUMPI PUSH0 DUP1 REVERT JUMPDEST DUP2 CALLDATALOAD PUSH1 0x20 PUSH2 0x2E38 PUSH2 0x2C8D DUP4 PUSH2 0x2C4B JUMP JUMPDEST DUP3 DUP2 MSTORE PUSH1 0x5 SWAP3 SWAP1 SWAP3 SHL DUP5 ADD DUP2 ADD SWAP2 DUP2 DUP2 ADD SWAP1 DUP10 DUP5 GT ISZERO PUSH2 0x2E56 JUMPI PUSH0 DUP1 REVERT JUMPDEST SWAP5 DUP3 ADD SWAP5 JUMPDEST DUP4 DUP7 LT ISZERO PUSH2 0x2E7D JUMPI DUP6 CALLDATALOAD PUSH2 0x2E6E DUP2 PUSH2 0x2A71 JUMP JUMPDEST DUP3 MSTORE SWAP5 DUP3 ADD SWAP5 SWAP1 DUP3 ADD SWAP1 PUSH2 0x2E5B JUMP JUMPDEST SWAP7 POP POP DUP7 ADD CALLDATALOAD SWAP3 POP POP DUP1 DUP3 GT ISZERO PUSH2 0x2E92 JUMPI PUSH0 DUP1 REVERT JUMPDEST POP PUSH2 0x2E9F DUP6 DUP3 DUP7 ADD PUSH2 0x2C6E JUMP JUMPDEST SWAP2 POP POP SWAP3 POP SWAP3 SWAP1 POP JUMP JUMPDEST PUSH0 DUP2 MLOAD DUP1 DUP5 MSTORE PUSH1 0x20 DUP1 DUP6 ADD SWAP5 POP PUSH1 0x20 DUP5 ADD PUSH0 JUMPDEST DUP4 DUP2 LT ISZERO PUSH2 0x2ED8 JUMPI DUP2 MLOAD DUP8 MSTORE SWAP6 DUP3 ADD SWAP6 SWAP1 DUP3 ADD SWAP1 PUSH1 0x1 ADD PUSH2 0x2EBC JUMP JUMPDEST POP SWAP5 SWAP6 SWAP5 POP POP POP POP POP JUMP JUMPDEST PUSH1 0x20 DUP2 MSTORE PUSH0 PUSH2 0x946 PUSH1 0x20 DUP4 ADD DUP5 PUSH2 0x2EA9 JUMP JUMPDEST PUSH0 DUP1 PUSH0 DUP1 PUSH0 DUP1 PUSH1 0xA0 DUP8 DUP10 SUB SLT ISZERO PUSH2 0x2F0A JUMPI PUSH0 DUP1 REVERT JUMPDEST DUP7 CALLDATALOAD PUSH2 0x2F15 DUP2 PUSH2 0x2A71 JUMP JUMPDEST SWAP6 POP PUSH1 0x20 DUP8 ADD CALLDATALOAD SWAP5 POP PUSH1 0x40 DUP8 ADD CALLDATALOAD SWAP4 POP PUSH1 0x60 DUP8 ADD CALLDATALOAD PUSH8 0xFFFFFFFFFFFFFFFF DUP2 GT ISZERO PUSH2 0x2F3E JUMPI PUSH0 DUP1 REVERT JUMPDEST PUSH2 0x2F4A DUP10 DUP3 DUP11 ADD PUSH2 0x2AB2 JUMP JUMPDEST SWAP8 SWAP11 SWAP7 SWAP10 POP SWAP5 SWAP8 SWAP5 SWAP7 SWAP6 PUSH1 0x80 SWAP1 SWAP6 ADD CALLDATALOAD SWAP5 SWAP4 POP POP POP POP JUMP JUMPDEST PUSH0 DUP1 PUSH0 PUSH1 0x60 DUP5 DUP7 SUB SLT ISZERO PUSH2 0x2F74 JUMPI PUSH0 DUP1 REVERT JUMPDEST DUP4 CALLDATALOAD PUSH2 0x2F7F DUP2 PUSH2 0x2A71 JUMP JUMPDEST SWAP6 PUSH1 0x20 DUP6 ADD CALLDATALOAD SWAP6 POP PUSH1 0x40 SWAP1 SWAP5 ADD CALLDATALOAD SWAP4 SWAP3 POP POP POP JUMP JUMPDEST PUSH0 DUP1 PUSH0 PUSH1 0x60 DUP5 DUP7 SUB SLT ISZERO PUSH2 0x2FA6 JUMPI PUSH0 DUP1 REVERT JUMPDEST POP POP DUP2 CALLDATALOAD SWAP4 PUSH1 0x20 DUP4 ADD CALLDATALOAD SWAP4 POP PUSH1 0x40 SWAP1 SWAP3 ADD CALLDATALOAD SWAP2 SWAP1 POP JUMP JUMPDEST DUP1 ISZERO ISZERO DUP2 EQ PUSH2 0x2A85 JUMPI PUSH0 DUP1 REVERT JUMPDEST PUSH0 DUP1 PUSH1 0x40 DUP4 DUP6 SUB SLT ISZERO PUSH2 0x2FDB JUMPI PUSH0 DUP1 REVERT JUMPDEST DUP3 CALLDATALOAD PUSH2 0x2FE6 DUP2 PUSH2 0x2A71 JUMP JUMPDEST SWAP2 POP PUSH1 0x20 DUP4 ADD CALLDATALOAD PUSH2 0x2FF6 DUP2 PUSH2 0x2FBD JUMP JUMPDEST DUP1 SWAP2 POP POP SWAP3 POP SWAP3 SWAP1 POP JUMP JUMPDEST PUSH0 DUP1 PUSH0 PUSH1 0x40 DUP5 DUP7 SUB SLT ISZERO PUSH2 0x3013 JUMPI PUSH0 DUP1 REVERT JUMPDEST DUP4 CALLDATALOAD SWAP3 POP PUSH1 0x20 DUP5 ADD CALLDATALOAD PUSH8 0xFFFFFFFFFFFFFFFF DUP2 GT ISZERO PUSH2 0x3030 JUMPI PUSH0 DUP1 REVERT JUMPDEST PUSH2 0x303C DUP7 DUP3 DUP8 ADD PUSH2 0x2AB2 JUMP JUMPDEST SWAP5 SWAP8 SWAP1 SWAP7 POP SWAP4 SWAP5 POP POP POP POP JUMP JUMPDEST PUSH0 DUP1 PUSH1 0x40 DUP4 DUP6 SUB SLT ISZERO PUSH2 0x305A JUMPI PUSH0 DUP1 REVERT JUMPDEST DUP3 CALLDATALOAD PUSH2 0x3065 DUP2 PUSH2 0x2A71 JUMP JUMPDEST SWAP2 POP PUSH1 0x20 DUP4 ADD CALLDATALOAD PUSH2 0x2FF6 DUP2 PUSH2 0x2A71 JUMP JUMPDEST PUSH0 DUP1 PUSH0 DUP1 PUSH0 PUSH1 0xA0 DUP7 DUP9 SUB SLT ISZERO PUSH2 0x3089 JUMPI PUSH0 DUP1 REVERT JUMPDEST DUP6 CALLDATALOAD PUSH2 0x3094 DUP2 PUSH2 0x2A71 JUMP JUMPDEST SWAP5 POP PUSH1 0x20 DUP7 ADD CALLDATALOAD PUSH2 0x30A4 DUP2 PUSH2 0x2A71 JUMP JUMPDEST SWAP4 POP PUSH1 0x40 DUP7 ADD CALLDATALOAD SWAP3 POP PUSH1 0x60 DUP7 ADD CALLDATALOAD SWAP2 POP PUSH1 0x80 DUP7 ADD CALLDATALOAD PUSH8 0xFFFFFFFFFFFFFFFF DUP2 GT ISZERO PUSH2 0x30CD JUMPI PUSH0 DUP1 REVERT JUMPDEST PUSH2 0x2DE0 DUP9 DUP3 DUP10 ADD PUSH2 0x2CDA JUMP JUMPDEST PUSH4 0x4E487B71 PUSH1 0xE0 SHL PUSH0 MSTORE PUSH1 0x11 PUSH1 0x4 MSTORE PUSH1 0x24 PUSH0 REVERT JUMPDEST DUP2 DUP2 SUB DUP2 DUP2 GT ISZERO PUSH2 0x355 JUMPI PUSH2 0x355 PUSH2 0x30D9 JUMP JUMPDEST PUSH4 0x4E487B71 PUSH1 0xE0 SHL PUSH0 MSTORE PUSH1 0x32 PUSH1 0x4 MSTORE PUSH1 0x24 PUSH0 REVERT JUMPDEST DUP1 DUP3 ADD DUP1 DUP3 GT ISZERO PUSH2 0x355 JUMPI PUSH2 0x355 PUSH2 0x30D9 JUMP JUMPDEST PUSH4 0x4E487B71 PUSH1 0xE0 SHL PUSH0 MSTORE PUSH1 0x12 PUSH1 0x4 MSTORE PUSH1 0x24 PUSH0 REVERT JUMPDEST PUSH0 DUP3 PUSH2 0x3149 JUMPI PUSH2 0x3149 PUSH2 0x3127 JUMP JUMPDEST POP DIV SWAP1 JUMP JUMPDEST DUP1 DUP3 MUL DUP2 ISZERO DUP3 DUP3 DIV DUP5 EQ OR PUSH2 0x355 JUMPI PUSH2 0x355 PUSH2 0x30D9 JUMP JUMPDEST PUSH0 PUSH1 0x20 DUP3 DUP5 SUB SLT ISZERO PUSH2 0x3175 JUMPI PUSH0 DUP1 REVERT JUMPDEST DUP2 MLOAD PUSH2 0x946 DUP2 PUSH2 0x2FBD JUMP JUMPDEST DUP2 DUP4 MSTORE PUSH0 PUSH32 0x7FFFFFFFFFFFFFFFFFFFFFFFFFFFFFFFFFFFFFFFFFFFFFFFFFFFFFFFFFFFFFF DUP4 GT ISZERO PUSH2 0x31B0 JUMPI PUSH0 DUP1 REVERT JUMPDEST DUP3 PUSH1 0x5 SHL DUP1 DUP4 PUSH1 0x20 DUP8 ADD CALLDATACOPY SWAP4 SWAP1 SWAP4 ADD PUSH1 0x20 ADD SWAP4 SWAP3 POP POP POP JUMP JUMPDEST DUP5 DUP2 MSTORE PUSH1 0x60 PUSH1 0x20 DUP3 ADD MSTORE PUSH0 PUSH2 0x31E2 PUSH1 0x60 DUP4 ADD DUP6 DUP8 PUSH2 0x3180 JUMP JUMPDEST SWAP1 POP DUP3 PUSH1 0x40 DUP4 ADD MSTORE SWAP6 SWAP5 POP POP POP POP POP JUMP JUMPDEST PUSH1 0x1 DUP2 DUP2 SHR SWAP1 DUP3 AND DUP1 PUSH2 0x3207 JUMPI PUSH1 0x7F DUP3 AND SWAP2 POP JUMPDEST PUSH1 0x20 DUP3 LT DUP2 SUB PUSH2 0x3225 JUMPI PUSH4 0x4E487B71 PUSH1 0xE0 SHL PUSH0 MSTORE PUSH1 0x22 PUSH1 0x4 MSTORE PUSH1 0x24 PUSH0 REVERT JUMPDEST POP SWAP2 SWAP1 POP JUMP JUMPDEST PUSH1 0x1 PUSH1 0x1 PUSH1 0xA0 SHL SUB DUP6 AND DUP2 MSTORE PUSH1 0x60 PUSH1 0x20 DUP3 ADD MSTORE PUSH0 PUSH2 0x31E2 PUSH1 0x60 DUP4 ADD DUP6 DUP8 PUSH2 0x3180 JUMP JUMPDEST PUSH0 PUSH1 0x40 DUP3 ADD DUP5 DUP4 MSTORE PUSH1 0x20 PUSH1 0x40 PUSH1 0x20 DUP6 ADD MSTORE DUP2 DUP6 SLOAD DUP1 DUP5 MSTORE PUSH1 0x60 DUP7 ADD SWAP2 POP DUP7 PUSH0 MSTORE PUSH1 0x20 PUSH0 KECCAK256 SWAP4 POP PUSH0 JUMPDEST DUP2 DUP2 LT ISZERO PUSH2 0x3291 JUMPI DUP5 SLOAD DUP4 MSTORE PUSH1 0x1 SWAP5 DUP6 ADD SWAP5 SWAP3 DUP5 ADD SWAP3 ADD PUSH2 0x3275 JUMP JUMPDEST POP SWAP1 SWAP8 SWAP7 POP POP POP POP POP POP POP JUMP JUMPDEST PUSH0 DUP3 PUSH2 0x32AC JUMPI PUSH2 0x32AC PUSH2 0x3127 JUMP JUMPDEST POP MOD SWAP1 JUMP JUMPDEST PUSH0 DUP3 MLOAD DUP1 PUSH1 0x20 DUP6 ADD DUP5 MCOPY PUSH0 SWAP3 ADD SWAP2 DUP3 MSTORE POP SWAP2 SWAP1 POP JUMP JUMPDEST PUSH0 DUP1 PUSH1 0x40 DUP4 DUP6 SUB SLT ISZERO PUSH2 0x32D8 JUMPI PUSH0 DUP1 REVERT JUMPDEST POP POP DUP1 MLOAD PUSH1 0x20 SWAP1 SWAP2 ADD MLOAD SWAP1 SWAP3 SWAP1 SWAP2 POP JUMP JUMPDEST PUSH1 0x40 DUP2 MSTORE PUSH0 PUSH2 0x32FB PUSH1 0x40 DUP4 ADD DUP6 PUSH2 0x2EA9 JUMP JUMPDEST DUP3 DUP2 SUB PUSH1 0x20 DUP5 ADD MSTORE PUSH2 0x330D DUP2 DUP6 PUSH2 0x2EA9 JUMP JUMPDEST SWAP6 SWAP5 POP POP POP POP POP JUMP JUMPDEST PUSH0 PUSH1 0x1 PUSH1 0x1 PUSH1 0xA0 SHL SUB DUP1 DUP9 AND DUP4 MSTORE DUP1 DUP8 AND PUSH1 0x20 DUP5 ADD MSTORE POP DUP5 PUSH1 0x40 DUP4 ADD MSTORE DUP4 PUSH1 0x60 DUP4 ADD MSTORE PUSH1 0xA0 PUSH1 0x80 DUP4 ADD MSTORE PUSH2 0x334D PUSH1 0xA0 DUP4 ADD DUP5 PUSH2 0x2BC6 JUMP JUMPDEST SWAP8 SWAP7 POP POP POP POP POP POP POP JUMP JUMPDEST PUSH0 PUSH1 0x20 DUP3 DUP5 SUB SLT ISZERO PUSH2 0x3368 JUMPI PUSH0 DUP1 REVERT JUMPDEST DUP2 MLOAD PUSH2 0x946 DUP2 PUSH2 0x2B5F JUMP JUMPDEST PUSH0 PUSH1 0x1 PUSH1 0x1 PUSH1 0xA0 SHL SUB DUP1 DUP9 AND DUP4 MSTORE DUP1 DUP8 AND PUSH1 0x20 DUP5 ADD MSTORE POP PUSH1 0xA0 PUSH1 0x40 DUP4 ADD MSTORE PUSH2 0x339E PUSH1 0xA0 DUP4 ADD DUP7 PUSH2 0x2EA9 JUMP JUMPDEST DUP3 DUP2 SUB PUSH1 0x60 DUP5 ADD MSTORE PUSH2 0x33B0 DUP2 DUP7 PUSH2 0x2EA9 JUMP JUMPDEST SWAP1 POP DUP3 DUP2 SUB PUSH1 0x80 DUP5 ADD MSTORE PUSH2 0x33C4 DUP2 DUP6 PUSH2 0x2BC6 JUMP JUMPDEST SWAP9 SWAP8 POP POP POP POP POP POP POP POP JUMP INVALID ADDRESS PUSH5 0x4E72E131A0 0x29 0xB8 POP GASLIMIT 0xB6 DUP2 DUP2 PC TSTORE SWAP8 DUP2 PUSH11 0x916871CA8D3C208C16D87C REVERT SELFBALANCE LOG2 PUSH5 0x6970667358 0x22 SLT KECCAK256 0xA7 PUSH32 0x99E1BECC2868D54B0CD9AA21D2C68AF7BC133A27D2240FA07379E0E8B28E6473 PUSH16 0x6C634300081900330000000000000000 "
    },
    "gasEstimates": {
      "creation": {
        "codeDepositCost": "2670000",
        "executionCost": "infinite",
        "totalCost": "infinite"
      },
      "external": {
        "balanceOf(address,uint256)": "2651",
        "balanceOfBatch(address[],uint256[])": "infinite",
        "getCollectionId(bytes32,bytes32,uint256)": "infinite",
        "getConditionId(address,bytes32,uint256)": "662",
        "getOutcomeSlotCount(bytes32)": "2469",
        "getPositionId(address,bytes32)": "613",
        "isApprovedForAll(address,address)": "infinite",
        "mergePositions(address,bytes32,bytes32,uint256[],uint256)": "infinite",
        "payoutDenominator(bytes32)": "2468",
        "payoutNumerators(bytes32,uint256)": "4737",
        "prepareCondition(address,bytes32,uint256)": "infinite",
        "redeemPositions(address,bytes32,bytes32,uint256[])": "infinite",
        "reportPayouts(bytes32,uint256[])": "infinite",
        "safeBatchTransferFrom(address,address,uint256[],uint256[],bytes)": "infinite",
        "safeTransferFrom(address,address,uint256,uint256,bytes)": "infinite",
        "setApprovalForAll(address,bool)": "infinite",
        "splitPosition(address,bytes32,bytes32,uint256[],uint256)": "infinite",
        "supportsInterface(bytes4)": "597",
        "uri(uint256)": "infinite"
      },
      "internal": {
        "__dummyChange()": "infinite"
      }
    },
    "methodIdentifiers": {
      "balanceOf(address,uint256)": "00fdd58e",
      "balanceOfBatch(address[],uint256[])": "4e1273f4",
      "getCollectionId(bytes32,bytes32,uint256)": "856296f7",
      "getConditionId(address,bytes32,uint256)": "852c6ae2",
      "getOutcomeSlotCount(bytes32)": "d42dc0c2",
      "getPositionId(address,bytes32)": "39dd7530",
      "isApprovedForAll(address,address)": "e985e9c5",
      "mergePositions(address,bytes32,bytes32,uint256[],uint256)": "9e7212ad",
      "payoutDenominator(bytes32)": "dd34de67",
      "payoutNumerators(bytes32,uint256)": "0504c814",
      "prepareCondition(address,bytes32,uint256)": "d96ee754",
      "redeemPositions(address,bytes32,bytes32,uint256[])": "01b7037c",
      "reportPayouts(bytes32,uint256[])": "c49298ac",
      "safeBatchTransferFrom(address,address,uint256[],uint256[],bytes)": "2eb2c2d6",
      "safeTransferFrom(address,address,uint256,uint256,bytes)": "f242432a",
      "setApprovalForAll(address,bool)": "a22cb465",
      "splitPosition(address,bytes32,bytes32,uint256[],uint256)": "72ce4275",
      "supportsInterface(bytes4)": "01ffc9a7",
      "uri(uint256)": "0e89341c"
    }
  },
  "storageLayout": {
    "storage": [
      {
        "astId": 5997,
        "contract": "ConditionalTokens.sol:ConditionalTokens",
        "label": "_balances",
        "offset": 0,
        "slot": "0",
        "type": "t_mapping(t_uint256,t_mapping(t_address,t_uint256))"
      },
      {
        "astId": 6003,
        "contract": "ConditionalTokens.sol:ConditionalTokens",
        "label": "_operatorApprovals",
        "offset": 0,
        "slot": "1",
        "type": "t_mapping(t_address,t_mapping(t_address,t_bool))"
      },
      {
        "astId": 6005,
        "contract": "ConditionalTokens.sol:ConditionalTokens",
        "label": "_uri",
        "offset": 0,
        "slot": "2",
        "type": "t_string_storage"
      },
      {
        "astId": 3215,
        "contract": "ConditionalTokens.sol:ConditionalTokens",
        "label": "payoutDenominator",
        "offset": 0,
        "slot": "3",
        "type": "t_mapping(t_bytes32,t_uint256)"
      },
      {
        "astId": 3221,
        "contract": "ConditionalTokens.sol:ConditionalTokens",
        "label": "payoutNumerators",
        "offset": 0,
        "slot": "4",
        "type": "t_mapping(t_bytes32,t_array(t_uint256)dyn_storage)"
      },
      {
        "astId": 3223,
        "contract": "ConditionalTokens.sol:ConditionalTokens",
        "label": "tummy",
        "offset": 0,
        "slot": "5",
        "type": "t_uint256"
      },
      {
        "astId": 3232,
        "contract": "ConditionalTokens.sol:ConditionalTokens",
        "label": "unusedVar",
        "offset": 0,
        "slot": "6",
        "type": "t_uint256"
      }
    ],
    "types": {
      "t_address": {
        "encoding": "inplace",
        "label": "address",
        "numberOfBytes": "20"
      },
      "t_array(t_uint256)dyn_storage": {
        "base": "t_uint256",
        "encoding": "dynamic_array",
        "label": "uint256[]",
        "numberOfBytes": "32"
      },
      "t_bool": {
        "encoding": "inplace",
        "label": "bool",
        "numberOfBytes": "1"
      },
      "t_bytes32": {
        "encoding": "inplace",
        "label": "bytes32",
        "numberOfBytes": "32"
      },
      "t_mapping(t_address,t_bool)": {
        "encoding": "mapping",
        "key": "t_address",
        "label": "mapping(address => bool)",
        "numberOfBytes": "32",
        "value": "t_bool"
      },
      "t_mapping(t_address,t_mapping(t_address,t_bool))": {
        "encoding": "mapping",
        "key": "t_address",
        "label": "mapping(address => mapping(address => bool))",
        "numberOfBytes": "32",
        "value": "t_mapping(t_address,t_bool)"
      },
      "t_mapping(t_address,t_uint256)": {
        "encoding": "mapping",
        "key": "t_address",
        "label": "mapping(address => uint256)",
        "numberOfBytes": "32",
        "value": "t_uint256"
      },
      "t_mapping(t_bytes32,t_array(t_uint256)dyn_storage)": {
        "encoding": "mapping",
        "key": "t_bytes32",
        "label": "mapping(bytes32 => uint256[])",
        "numberOfBytes": "32",
        "value": "t_array(t_uint256)dyn_storage"
      },
      "t_mapping(t_bytes32,t_uint256)": {
        "encoding": "mapping",
        "key": "t_bytes32",
        "label": "mapping(bytes32 => uint256)",
        "numberOfBytes": "32",
        "value": "t_uint256"
      },
      "t_mapping(t_uint256,t_mapping(t_address,t_uint256))": {
        "encoding": "mapping",
        "key": "t_uint256",
        "label": "mapping(uint256 => mapping(address => uint256))",
        "numberOfBytes": "32",
        "value": "t_mapping(t_address,t_uint256)"
      },
      "t_string_storage": {
        "encoding": "bytes",
        "label": "string",
        "numberOfBytes": "32"
      },
      "t_uint256": {
        "encoding": "inplace",
        "label": "uint256",
        "numberOfBytes": "32"
      }
    }
  },
  "userdoc": {
    "kind": "user",
    "methods": {
      "payoutDenominator(bytes32)": {
        "notice": "Denominator is also used for checking if the condition has been resolved. If the denominator is non-zero, then the condition has been resolved."
      },
      "payoutNumerators(bytes32,uint256)": {
        "notice": "Mapping key is an condition ID. Value represents numerators of the payout vector associated with the condition. This array is initialized with a length equal to the outcome slot count. E.g. Condition with 3 outcomes [A, B, C] and two of those correct [0.5, 0.5, 0]. In Ethereum there are no decimal values, so here, 0.5 is represented by fractions like 1/2 == 0.5. That's why we need numerator and denominator values. Payout numerators are also used as a check of initialization. If the numerators array is empty (has length zero), the condition was not created/prepared. See getOutcomeSlotCount."
      }
    },
    "version": 1
  }
}