{
  "_format": "hh-sol-artifact-1",
  "contractName": "LsLMSR",
  "sourceName": "contracts/NoBOverround.sol",
  "abi": [
    {
      "inputs": [
        {
          "internalType": "address",
          "name": "_ct",
          "type": "address"
        },
        {
          "internalType": "address",
          "name": "_token",
          "type": "address"
        },
        {
          "internalType": "address",
          "name": "initialOwner",
          "type": "address"
        }
      ],
      "stateMutability": "nonpayable",
      "type": "constructor"
    },
    {
      "inputs": [
        {
          "internalType": "address",
          "name": "owner",
          "type": "address"
        }
      ],
      "name": "OwnableInvalidOwner",
      "type": "error"
    },
    {
      "inputs": [
        {
          "internalType": "address",
          "name": "account",
          "type": "address"
        }
      ],
      "name": "OwnableUnauthorizedAccount",
      "type": "error"
    },
    {
      "inputs": [
        {
          "internalType": "address",
          "name": "token",
          "type": "address"
        }
      ],
      "name": "SafeERC20FailedOperation",
      "type": "error"
    },
    {
      "anonymous": false,
      "inputs": [
        {
          "indexed": false,
          "internalType": "uint256",
          "name": "tokenCost",
          "type": "uint256"
        },
        {
          "indexed": false,
          "internalType": "int128",
          "name": "price_",
          "type": "int128"
        }
      ],
      "name": "BuyTokenCost",
      "type": "event"
    },
    {
      "anonymous": false,
      "inputs": [
        {
          "indexed": false,
          "internalType": "uint256",
          "name": "balance",
          "type": "uint256"
        }
      ],
      "name": "DebugBalanceAfter",
      "type": "event"
    },
    {
      "anonymous": false,
      "inputs": [
        {
          "indexed": false,
          "internalType": "uint256",
          "name": "balance",
          "type": "uint256"
        }
      ],
      "name": "DebugBalanceBefore",
      "type": "event"
    },
    {
      "anonymous": false,
      "inputs": [
        {
          "indexed": false,
          "internalType": "uint256",
          "name": "userPayment",
          "type": "uint256"
        },
        {
          "indexed": false,
          "internalType": "uint256",
          "name": "outcomeTokens",
          "type": "uint256"
        },
        {
          "indexed": false,
          "internalType": "uint256",
          "name": "contractBalance",
          "type": "uint256"
        },
        {
          "indexed": false,
          "internalType": "uint256",
          "name": "requiredCollateral",
          "type": "uint256"
        }
      ],
      "name": "DebugCollateralization",
      "type": "event"
    },
    {
      "anonymous": false,
      "inputs": [
        {
          "indexed": false,
          "internalType": "uint256",
          "name": "outcomeTokens",
          "type": "uint256"
        },
        {
          "indexed": false,
          "internalType": "uint256",
          "name": "balanceBefore",
          "type": "uint256"
        },
        {
          "indexed": false,
          "internalType": "uint256",
          "name": "balanceAfter",
          "type": "uint256"
        },
        {
          "indexed": false,
          "internalType": "int128",
          "name": "refund",
          "type": "int128"
        }
      ],
      "name": "DebugMergePositions",
      "type": "event"
    },
    {
      "anonymous": false,
      "inputs": [
        {
          "indexed": false,
          "internalType": "uint256",
          "name": "outcome",
          "type": "uint256"
        },
        {
          "indexed": false,
          "internalType": "uint256",
          "name": "contractBalance",
          "type": "uint256"
        },
        {
          "indexed": false,
          "internalType": "uint256",
          "name": "neededTokens",
          "type": "uint256"
        },
        {
          "indexed": false,
          "internalType": "bool",
          "name": "willMint",
          "type": "bool"
        }
      ],
      "name": "DebugMinting",
      "type": "event"
    },
    {
      "anonymous": false,
      "inputs": [
        {
          "indexed": false,
          "internalType": "uint256",
          "name": "userBalance",
          "type": "uint256"
        },
        {
          "indexed": false,
          "internalType": "uint256",
          "name": "requestedAmount",
          "type": "uint256"
        },
        {
          "indexed": false,
          "internalType": "uint256",
          "name": "outcomeTokens",
          "type": "uint256"
        },
        {
          "indexed": false,
          "internalType": "int128",
          "name": "refund",
          "type": "int128"
        }
      ],
      "name": "DebugSellAttempt",
      "type": "event"
    },
    {
      "anonymous": false,
      "inputs": [
        {
          "indexed": true,
          "internalType": "address",
          "name": "to",
          "type": "address"
        },
        {
          "indexed": false,
          "internalType": "uint256",
          "name": "amount",
          "type": "uint256"
        }
      ],
      "name": "FeesWithdrawn",
      "type": "event"
    },
    {
      "anonymous": false,
      "inputs": [
        {
          "indexed": true,
          "internalType": "address",
          "name": "user",
          "type": "address"
        },
        {
          "indexed": false,
          "internalType": "uint256",
          "name": "amount",
          "type": "uint256"
        }
      ],
      "name": "LiquidityAdded",
      "type": "event"
    },
    {
      "anonymous": false,
      "inputs": [
        {
          "indexed": false,
          "internalType": "uint256",
          "name": "newB",
          "type": "uint256"
        },
        {
          "indexed": false,
          "internalType": "uint256",
          "name": "additionalCapital",
          "type": "uint256"
        }
      ],
      "name": "LiquidityParameterUpdated",
      "type": "event"
    },
    {
      "anonymous": false,
      "inputs": [
        {
          "indexed": false,
          "internalType": "uint256",
          "name": "newOverround",
          "type": "uint256"
        }
      ],
      "name": "OverroundUpdated",
      "type": "event"
    },
    {
      "anonymous": false,
      "inputs": [
        {
          "indexed": true,
          "internalType": "address",
          "name": "previousOwner",
          "type": "address"
        },
        {
          "indexed": true,
          "internalType": "address",
          "name": "newOwner",
          "type": "address"
        }
      ],
      "name": "OwnershipTransferred",
      "type": "event"
    },
    {
      "anonymous": false,
      "inputs": [
        {
          "indexed": false,
          "internalType": "string",
          "name": "context",
          "type": "string"
        },
        {
          "indexed": false,
          "internalType": "string",
          "name": "reason",
          "type": "string"
        }
      ],
      "name": "SplitPositionError",
      "type": "event"
    },
    {
      "inputs": [],
      "name": "accumulatedOverround",
      "outputs": [
        {
          "internalType": "uint256",
          "name": "",
          "type": "uint256"
        }
      ],
      "stateMutability": "view",
      "type": "function"
    },
    {
      "inputs": [
        {
          "internalType": "uint256",
          "name": "_amount",
          "type": "uint256"
        }
      ],
      "name": "addLiquidity",
      "outputs": [],
      "stateMutability": "nonpayable",
      "type": "function"
    },
    {
      "inputs": [
        {
          "internalType": "uint256",
          "name": "_outcome",
          "type": "uint256"
        },
        {
          "internalType": "uint256",
          "name": "_betAmount",
          "type": "uint256"
        }
      ],
      "name": "buy",
      "outputs": [
        {
          "internalType": "uint256",
          "name": "sharesReceived",
          "type": "uint256"
        }
      ],
      "stateMutability": "nonpayable",
      "type": "function"
    },
    {
      "inputs": [
        {
          "internalType": "uint256",
          "name": "_newBInput",
          "type": "uint256"
        }
      ],
      "name": "calculateRequiredCapitalForNewB",
      "outputs": [
        {
          "internalType": "uint256",
          "name": "requiredCapital",
          "type": "uint256"
        }
      ],
      "stateMutability": "view",
      "type": "function"
    },
    {
      "inputs": [
        {
          "internalType": "uint256",
          "name": "_outcome",
          "type": "uint256"
        },
        {
          "internalType": "uint256",
          "name": "_amount",
          "type": "uint256"
        }
      ],
      "name": "calculateSellRefund",
      "outputs": [
        {
          "internalType": "uint256",
          "name": "refund",
          "type": "uint256"
        }
      ],
      "stateMutability": "view",
      "type": "function"
    },
    {
      "inputs": [
        {
          "internalType": "uint256",
          "name": "_outcome",
          "type": "uint256"
        },
        {
          "internalType": "uint256",
          "name": "_betAmount",
          "type": "uint256"
        }
      ],
      "name": "calculateSharesFromBetAmount",
      "outputs": [
        {
          "internalType": "uint256",
          "name": "shares",
          "type": "uint256"
        }
      ],
      "stateMutability": "view",
      "type": "function"
    },
    {
      "inputs": [],
      "name": "condition",
      "outputs": [
        {
          "internalType": "bytes32",
          "name": "",
          "type": "bytes32"
        }
      ],
      "stateMutability": "view",
      "type": "function"
    },
    {
      "inputs": [],
      "name": "cost",
      "outputs": [
        {
          "internalType": "int128",
          "name": "",
          "type": "int128"
        }
      ],
      "stateMutability": "view",
      "type": "function"
    },
    {
      "inputs": [
        {
          "internalType": "uint256",
          "name": "_outcome",
          "type": "uint256"
        },
        {
          "internalType": "int128",
          "name": "_amount",
          "type": "int128"
        }
      ],
      "name": "cost_after_buy",
      "outputs": [
        {
          "internalType": "int128",
          "name": "",
          "type": "int128"
        }
      ],
      "stateMutability": "view",
      "type": "function"
    },
    {
      "inputs": [],
      "name": "debugFees",
      "outputs": [
        {
          "internalType": "uint256",
          "name": "contractBalance",
          "type": "uint256"
        },
        {
          "internalType": "uint256",
          "name": "theoreticalCost",
          "type": "uint256"
        },
        {
          "internalType": "uint256",
          "name": "accumulatedOverroundFees",
          "type": "uint256"
        },
        {
          "internalType": "uint256",
          "name": "availableOverround",
          "type": "uint256"
        }
      ],
      "stateMutability": "view",
      "type": "function"
    },
    {
      "inputs": [
        {
          "internalType": "address",
          "name": "user",
          "type": "address"
        },
        {
          "internalType": "uint256[]",
          "name": "indexSets",
          "type": "uint256[]"
        }
      ],
      "name": "debugRedeemPositions",
      "outputs": [
        {
          "internalType": "uint256",
          "name": "totalPayout",
          "type": "uint256"
        },
        {
          "internalType": "uint256[]",
          "name": "userBalances",
          "type": "uint256[]"
        },
        {
          "internalType": "uint256[]",
          "name": "payoutNumerators",
          "type": "uint256[]"
        },
        {
          "internalType": "uint256",
          "name": "payoutDenominator",
          "type": "uint256"
        },
        {
          "internalType": "uint256",
          "name": "outcomeSlotCount",
          "type": "uint256"
        }
      ],
      "stateMutability": "view",
      "type": "function"
    },
    {
      "inputs": [
        {
          "internalType": "address",
          "name": "user",
          "type": "address"
        }
      ],
      "name": "debugRedemption",
      "outputs": [
        {
          "internalType": "uint256",
          "name": "payoutDenominator",
          "type": "uint256"
        },
        {
          "internalType": "uint256[]",
          "name": "payoutNumerators",
          "type": "uint256[]"
        },
        {
          "internalType": "uint256[]",
          "name": "userBalances",
          "type": "uint256[]"
        },
        {
          "internalType": "uint256[]",
          "name": "expectedPayouts",
          "type": "uint256[]"
        }
      ],
      "stateMutability": "view",
      "type": "function"
    },
    {
      "inputs": [],
      "name": "dummyVar",
      "outputs": [
        {
          "internalType": "uint256",
          "name": "",
          "type": "uint256"
        }
      ],
      "stateMutability": "view",
      "type": "function"
    },
    {
      "inputs": [
        {
          "internalType": "bytes32",
          "name": "_questionId",
          "type": "bytes32"
        }
      ],
      "name": "freezeMarket",
      "outputs": [],
      "stateMutability": "nonpayable",
      "type": "function"
    },
    {
      "inputs": [
        {
          "internalType": "string",
          "name": "uniqueString",
          "type": "string"
        }
      ],
      "name": "generateQuestionId",
      "outputs": [
        {
          "internalType": "bytes32",
          "name": "",
          "type": "bytes32"
        }
      ],
      "stateMutability": "pure",
      "type": "function"
    },
    {
      "inputs": [],
      "name": "getAccumulatedFees",
      "outputs": [
        {
          "internalType": "uint256",
          "name": "",
          "type": "uint256"
        }
      ],
      "stateMutability": "view",
      "type": "function"
    },
    {
      "inputs": [],
      "name": "getContractBalances",
      "outputs": [
        {
          "internalType": "uint256[]",
          "name": "contractBalances",
          "type": "uint256[]"
        }
      ],
      "stateMutability": "view",
      "type": "function"
    },
    {
      "inputs": [],
      "name": "getContractSurplus",
      "outputs": [
        {
          "internalType": "uint256",
          "name": "",
          "type": "uint256"
        }
      ],
      "stateMutability": "view",
      "type": "function"
    },
    {
      "inputs": [],
      "name": "getLiquidityParameter",
      "outputs": [
        {
          "internalType": "int128",
          "name": "",
          "type": "int128"
        }
      ],
      "stateMutability": "view",
      "type": "function"
    },
    {
      "inputs": [
        {
          "internalType": "uint256",
          "name": "_outcome",
          "type": "uint256"
        }
      ],
      "name": "getOutcomeSharesPurchased",
      "outputs": [
        {
          "internalType": "int128",
          "name": "",
          "type": "int128"
        }
      ],
      "stateMutability": "view",
      "type": "function"
    },
    {
      "inputs": [
        {
          "internalType": "uint256",
          "name": "_outcome",
          "type": "uint256"
        }
      ],
      "name": "getPositionAndDustPositions",
      "outputs": [
        {
          "internalType": "uint256[]",
          "name": "",
          "type": "uint256[]"
        }
      ],
      "stateMutability": "view",
      "type": "function"
    },
    {
      "inputs": [],
      "name": "getPositionIds",
      "outputs": [
        {
          "internalType": "uint256",
          "name": "positionId0",
          "type": "uint256"
        },
        {
          "internalType": "uint256",
          "name": "positionId1",
          "type": "uint256"
        }
      ],
      "stateMutability": "view",
      "type": "function"
    },
    {
      "inputs": [
        {
          "internalType": "uint256",
          "name": "_outcome",
          "type": "uint256"
        }
      ],
      "name": "getPositionInfo",
      "outputs": [
        {
          "internalType": "uint256",
          "name": "positionId",
          "type": "uint256"
        },
        {
          "internalType": "uint256",
          "name": "balance",
          "type": "uint256"
        }
      ],
      "stateMutability": "view",
      "type": "function"
    },
    {
      "inputs": [],
      "name": "getRedeemParameters",
      "outputs": [
        {
          "internalType": "address",
          "name": "collateralToken",
          "type": "address"
        },
        {
          "internalType": "bytes32",
          "name": "parentCollectionId",
          "type": "bytes32"
        },
        {
          "internalType": "bytes32",
          "name": "conditionId",
          "type": "bytes32"
        },
        {
          "internalType": "uint256[]",
          "name": "indexSets",
          "type": "uint256[]"
        }
      ],
      "stateMutability": "view",
      "type": "function"
    },
    {
      "inputs": [
        {
          "internalType": "address",
          "name": "_token",
          "type": "address"
        },
        {
          "internalType": "uint256",
          "name": "_amount",
          "type": "uint256"
        }
      ],
      "name": "getTokenEth",
      "outputs": [
        {
          "internalType": "int128",
          "name": "",
          "type": "int128"
        }
      ],
      "stateMutability": "view",
      "type": "function"
    },
    {
      "inputs": [
        {
          "internalType": "address",
          "name": "_token",
          "type": "address"
        },
        {
          "internalType": "int128",
          "name": "_amount",
          "type": "int128"
        }
      ],
      "name": "getTokenWei",
      "outputs": [
        {
          "internalType": "uint256",
          "name": "",
          "type": "uint256"
        }
      ],
      "stateMutability": "view",
      "type": "function"
    },
    {
      "inputs": [
        {
          "internalType": "address",
          "name": "_token",
          "type": "address"
        },
        {
          "internalType": "int128",
          "name": "_amount",
          "type": "int128"
        }
      ],
      "name": "getTokenWeiDown",
      "outputs": [
        {
          "internalType": "uint256",
          "name": "",
          "type": "uint256"
        }
      ],
      "stateMutability": "view",
      "type": "function"
    },
    {
      "inputs": [
        {
          "internalType": "address",
          "name": "_token",
          "type": "address"
        },
        {
          "internalType": "int128",
          "name": "_amount",
          "type": "int128"
        }
      ],
      "name": "getTokenWeiUp",
      "outputs": [
        {
          "internalType": "uint256",
          "name": "",
          "type": "uint256"
        }
      ],
      "stateMutability": "view",
      "type": "function"
    },
    {
      "inputs": [],
      "name": "initial_subsidy",
      "outputs": [
        {
          "internalType": "int128",
          "name": "",
          "type": "int128"
        }
      ],
      "stateMutability": "view",
      "type": "function"
    },
    {
      "inputs": [],
      "name": "numOutcomes",
      "outputs": [
        {
          "internalType": "uint256",
          "name": "",
          "type": "uint256"
        }
      ],
      "stateMutability": "view",
      "type": "function"
    },
    {
      "inputs": [
        {
          "internalType": "uint256",
          "name": "_outcome",
          "type": "uint256"
        }
      ],
      "name": "odds",
      "outputs": [
        {
          "internalType": "int128",
          "name": "",
          "type": "int128"
        }
      ],
      "stateMutability": "view",
      "type": "function"
    },
    {
      "inputs": [
        {
          "internalType": "address",
          "name": "",
          "type": "address"
        },
        {
          "internalType": "address",
          "name": "",
          "type": "address"
        },
        {
          "internalType": "uint256[]",
          "name": "",
          "type": "uint256[]"
        },
        {
          "internalType": "uint256[]",
          "name": "",
          "type": "uint256[]"
        },
        {
          "internalType": "bytes",
          "name": "",
          "type": "bytes"
        }
      ],
      "name": "onERC1155BatchReceived",
      "outputs": [
        {
          "internalType": "bytes4",
          "name": "",
          "type": "bytes4"
        }
      ],
      "stateMutability": "pure",
      "type": "function"
    },
    {
      "inputs": [
        {
          "internalType": "address",
          "name": "",
          "type": "address"
        },
        {
          "internalType": "address",
          "name": "",
          "type": "address"
        },
        {
          "internalType": "uint256",
          "name": "",
          "type": "uint256"
        },
        {
          "internalType": "uint256",
          "name": "",
          "type": "uint256"
        },
        {
          "internalType": "bytes",
          "name": "",
          "type": "bytes"
        }
      ],
      "name": "onERC1155Received",
      "outputs": [
        {
          "internalType": "bytes4",
          "name": "",
          "type": "bytes4"
        }
      ],
      "stateMutability": "pure",
      "type": "function"
    },
    {
      "inputs": [],
      "name": "overround",
      "outputs": [
        {
          "internalType": "int128",
          "name": "",
          "type": "int128"
        }
      ],
      "stateMutability": "view",
      "type": "function"
    },
    {
      "inputs": [],
      "name": "owner",
      "outputs": [
        {
          "internalType": "address",
          "name": "",
          "type": "address"
        }
      ],
      "stateMutability": "view",
      "type": "function"
    },
    {
      "inputs": [
        {
          "internalType": "uint256",
          "name": "_outcome",
          "type": "uint256"
        },
        {
          "internalType": "int128",
          "name": "_amount",
          "type": "int128"
        }
      ],
      "name": "price",
      "outputs": [
        {
          "internalType": "int128",
          "name": "",
          "type": "int128"
        }
      ],
      "stateMutability": "view",
      "type": "function"
    },
    {
      "inputs": [
        {
          "internalType": "uint256[]",
          "name": "indexSets",
          "type": "uint256[]"
        }
      ],
      "name": "redeemContractShares",
      "outputs": [],
      "stateMutability": "nonpayable",
      "type": "function"
    },
    {
      "inputs": [],
      "name": "renounceOwnership",
      "outputs": [],
      "stateMutability": "nonpayable",
      "type": "function"
    },
    {
      "inputs": [
        {
          "internalType": "bytes32",
          "name": "_questionId",
          "type": "bytes32"
        },
        {
          "internalType": "uint256",
          "name": "_winningOutcome",
          "type": "uint256"
        }
      ],
      "name": "reportFullPayouts",
      "outputs": [],
      "stateMutability": "nonpayable",
      "type": "function"
    },
    {
      "inputs": [
        {
          "internalType": "uint256",
          "name": "_outcome",
          "type": "uint256"
        },
        {
          "internalType": "int128",
          "name": "_amount",
          "type": "int128"
        }
      ],
      "name": "sell",
      "outputs": [
        {
          "internalType": "int128",
          "name": "refund",
          "type": "int128"
        }
      ],
      "stateMutability": "nonpayable",
      "type": "function"
    },
    {
      "inputs": [
        {
          "internalType": "uint256",
          "name": "_outcome",
          "type": "uint256"
        },
        {
          "internalType": "int128",
          "name": "_amount",
          "type": "int128"
        }
      ],
      "name": "sellingPrice",
      "outputs": [
        {
          "internalType": "int128",
          "name": "",
          "type": "int128"
        }
      ],
      "stateMutability": "view",
      "type": "function"
    },
    {
      "inputs": [
        {
          "internalType": "uint256",
          "name": "_newBInput",
          "type": "uint256"
        },
        {
          "internalType": "uint256",
          "name": "_additionalCapital",
          "type": "uint256"
        }
      ],
      "name": "setLiquidityParameter",
      "outputs": [],
      "stateMutability": "nonpayable",
      "type": "function"
    },
    {
      "inputs": [
        {
          "internalType": "uint256",
          "name": "_newOverround",
          "type": "uint256"
        }
      ],
      "name": "setOverround",
      "outputs": [],
      "stateMutability": "nonpayable",
      "type": "function"
    },
    {
      "inputs": [
        {
          "internalType": "bytes32",
          "name": "_questionId",
          "type": "bytes32"
        },
        {
          "internalType": "uint256",
          "name": "_numOutcomes",
          "type": "uint256"
        },
        {
          "internalType": "uint256",
          "name": "bInput",
          "type": "uint256"
        },
        {
          "internalType": "uint256",
          "name": "_initialSubsidy",
          "type": "uint256"
        },
        {
          "internalType": "uint256",
          "name": "_overround",
          "type": "uint256"
        }
      ],
      "name": "setup",
      "outputs": [],
      "stateMutability": "nonpayable",
      "type": "function"
    },
    {
      "inputs": [
        {
          "internalType": "bytes4",
          "name": "interfaceId",
          "type": "bytes4"
        }
      ],
      "name": "supportsInterface",
      "outputs": [
        {
          "internalType": "bool",
          "name": "",
          "type": "bool"
        }
      ],
      "stateMutability": "view",
      "type": "function"
    },
    {
      "inputs": [],
      "name": "token",
      "outputs": [
        {
          "internalType": "address",
          "name": "",
          "type": "address"
        }
      ],
      "stateMutability": "view",
      "type": "function"
    },
    {
      "inputs": [
        {
          "internalType": "address",
          "name": "newOwner",
          "type": "address"
        }
      ],
      "name": "transferOwnership",
      "outputs": [],
      "stateMutability": "nonpayable",
      "type": "function"
    },
    {
      "inputs": [],
      "name": "withdraw",
      "outputs": [],
      "stateMutability": "nonpayable",
      "type": "function"
    },
    {
      "inputs": [
        {
          "internalType": "uint256",
          "name": "_amount",
          "type": "uint256"
        }
      ],
      "name": "withdrawCollectedOverround",
      "outputs": [],
      "stateMutability": "nonpayable",
      "type": "function"
    }
  ],
  "bytecode": "0x60803461011057601f61550d38819003918201601f19168301916001600160401b0383118484101761011557808492606094604052833981010312610110576100478161012b565b906100546020820161012b565b906001600160a01b039061006a9060400161012b565b169182156100fa57600080546001600160a01b031981168517825560405194916001600160a01b03909116907f8be0079c531659141344cd1fd0a4f28419497f9722a3daafe3b4186f6b6457e09080a3602a600a55600880546001600160a01b039283166001600160a01b031991821617909155600980549390921692169190911790556153cd90816101408239f35b631e4fbdf760e01b600052600060045260246000fd5b600080fd5b634e487b7160e01b600052604160045260246000fd5b51906001600160a01b03821682036101105756fe608080604052600436101561001357600080fd5b600090813560e01c90816301ffc9a71461313e5750806305445405146131115780630794cb8c146130f757806310f8625a146130cf57806313faede6146130b457806334aa4e6114612e8b5780633913190614612ccf5780633ccfd60b14612acc57806340088ee114611fbe57806346156ea014612a36578063491a9699146123295780634c395cc41461297d578063519f5099146127ee57806351c6590a146126ec57806352fdfecc146126825780635ad417a0146123475780635df45a37146123295780636142a8a1146122dd5780636e946fd61461217d578063715018a61461211757806375a1a3791461209b5780638062dd931461207c5780638364dfef1461205b5780638767d64e1461203d5780638ac407921461201f5780638d0a6cff14611feb5780638d36627b14611fbe5780638da5cb5b14611f98578063a0ea9b7a14611c60578063ae92a93d146115c6578063af15930e14611499578063b674e3a614611320578063bb6f593e146112dc578063bc197c8114611240578063c503133114611222578063c7a19d8514610ff4578063cd6bd6db14610fd0578063cf6ec24714610e6f578063d09ac2e214610cfa578063d6febde8146106e0578063d8fdb386146106bf578063df7bd8fc1461067e578063e1fc2305146105bc578063eaacc82e1461053a578063f23a6e61146104de578063f2fde38b1461044b578063fc0c546a14610424578063fdbfa85d146104015763ffd2a7d31461023c57600080fd5b3461038457806003193601126103845760015461025881613964565b90826001600160a01b0360085416906007546001600160a01b0360095416915b84811061029957604051602080825281906102959082018961320d565b0390f35b60405163856296f760e01b81528760048201528260248201526001821b6044820152602081606481885afa90811561038e5788916103cd575b5060405163039dd75360e41b81526001600160a01b03851660048201526024810191909152602081604481885afa90811561038e578891610399575b50604051627eeac760e11b8152306004820152602481019190915290602082604481885afa801561038e578890610355575b6001925061034e82896139a3565b5201610278565b509060203d8111610387575b61036b81836131d5565b6020826000928101031261038457509060019151610340565b80fd5b503d610361565b6040513d8a823e3d90fd5b905060203d81116103c6575b6103af81836131d5565b60208260009281010312610384575051602061030e565b503d6103a5565b905060203d81116103fa575b6103e381836131d5565b6020826000928101031261038457505160206102d2565b503d6103d9565b5034610384578060031936011261038457602061041c614000565b604051908152f35b503461038457806003193601126103845760206001600160a01b0360095416604051908152f35b5034610384576020366003190112610384576001600160a01b0361046d613183565b610475614588565b1680156104ca576001600160a01b0382548273ffffffffffffffffffffffffffffffffffffffff198216178455167f8be0079c531659141344cd1fd0a4f28419497f9722a3daafe3b4186f6b6457e08380a380f35b631e4fbdf760e01b82526004829052602482fd5b50346103845760a0366003190112610384576104f8613183565b50610501613199565b5060843567ffffffffffffffff811161053657610522903690600401613272565b505060405163f23a6e6160e01b8152602090f35b5080fd5b50346103845760203660031901126103845761041c602091600435610560811515613e75565b6105b76105ac6105a061057f6001600160a01b0360095416948561367e565b610592600354600f0b82600f0b13613ec1565b61059a614216565b906140ee565b60045460801d906141e9565b9283600f0b13613f19565b613329565b50346103845780600319360112610384576001600160a01b03600954166040516370a0823160e01b8152306004820152602081602481855afa9283156106725792610637575b60808361061484600354841d906139ce565b60065461061f614000565b91604051938452602084015260408301526060820152f35b91506020823d60201161066a575b81610652602093836131d5565b8101031261066557905190610614610602565b600080fd5b3d9150610645565b604051903d90823e3d90fd5b50346103845760403660031901126103845760206106b46106a86106a06131af565b600435613b9f565b60035460801d90613a47565b60405190600f0b8152f35b50346103845780600319360112610384576020600554600f0b604051908152f35b5034610384576106ef366131bf565b600954600160ff8260a01c16151503610c535761070f600154841061358f565b61071a8215156135db565b6001600160a01b0360085416602060075460246040518094819363dd34de6760e01b835260048301525afa8015610b1a578590610cc6575b61075d91501561388e565b6040516323b872dd60e01b815233600482015230602482015260448101839052906020908290606490829088906001600160a01b03165af1908115610cbb578491610c9c575b5015610c5757600554600f0b838112610c53576127100260401c612710036127108111610c3f576127106107da6107e29284613d34565b048092613c6b565b600654908101809111610c3f576006556107fc90826133ec565b908115610bd45782610819836001600160a01b036009541661367e565b6108606108388261082986613627565b90549060031b1c600f0b614128565b61084185613627565b9091906001600160801b0383549160031b928116831b921b1916179055565b6004546108708282600f0b614128565b6001600160801b0316906001600160801b03191617600455610890613835565b6001600160801b036003549181199060801b169116176003556108bf6001600160a01b03600954169182613329565b906001600160a01b0360085416936007546040519063856296f760e01b825285600483015260248201526001821b6044820152602081606481895afa908115610b1a578591610b9c575b5060405163039dd75360e41b81526001600160a01b0384166004820152602481019190915294602086604481845afa958615610b1a578596610b65575b50604051627eeac760e11b815230600482015260248101879052602081604481855afa908115610b5a578691610b25575b50848110610a13575b505050506001600160a01b0360085416803b15610a0f57604051637921219560e11b81523060048201523360248201526044810194909452606484019190915260a06084840152600060a4840152829060c490829084905af18015610a04576109ef575b602082604051908152f35b6109fa8380926131d5565b61053657816109e4565b6040513d85823e3d90fd5b8280fd5b610a5a91610a2360209287613c6b565b60405163095ea7b360e01b81526001600160a01b039092166004830152602482018190529490928391908290899082906044820190565b03925af18015610b1a57610aed575b506001600160a01b0360085416906001600160a01b036009541691610a9060075492613c87565b91813b15610ae957868094610abb604051978896879586946372ce427560e01b865260048601613e01565b03925af1908115610a04578391610ad4575b8080610980565b81610ade916131d5565b610536578138610acd565b8680fd5b610b0e9060203d602011610b13575b610b0681836131d5565b810190613fe8565b610a69565b503d610afc565b6040513d87823e3d90fd5b9550506020853d602011610b52575b81610b41602093836131d5565b810103126106655787945138610977565b3d9150610b34565b6040513d88823e3d90fd5b945094506020843d602011610b94575b81610b82602093836131d5565b81010312610665578693519438610946565b3d9150610b75565b9450506020843d602011610bcc575b81610bb8602093836131d5565b810103126106655792518693906020610909565b3d9150610bab565b60405162461bcd60e51b815260206004820152602660248201527f42657420616d6f756e7420746f6f20736d616c6c20746f2062757920616e792060448201527f73686172657300000000000000000000000000000000000000000000000000006064820152608490fd5b634e487b7160e01b84526011600452602484fd5b8380fd5b60405162461bcd60e51b815260206004820152601960248201527f4572726f72207472616e7366657272696e6720746f6b656e73000000000000006044820152606490fd5b610cb5915060203d602011610b1357610b0681836131d5565b386107a3565b6040513d86823e3d90fd5b506020813d602011610cf2575b81610ce0602093836131d5565b810103126106655761075d9051610752565b3d9150610cd3565b503461038457604036600319011261038457610d14613183565b60243567ffffffffffffffff8111610a0f57918091610d8f6001600160a01b03610d4381963690600401613241565b929093610d4e613a75565b5099919390968260085416966040519b8c998a988998636faa877560e11b8a521660048901526024880152604487015260a0606487015260a4860191613e38565b9116608483015203915afa90811561067257809181938290838093610dee575b5050610ddf90610dd1604051968796875260a0602088015260a087019061320d565b90858203604087015261320d565b91606084015260808301520390f35b945094505050503d8082843e610e0481846131d5565b820160a08382031261053657825190602084015167ffffffffffffffff8111610c535781610e33918601613f8b565b9260408501519067ffffffffffffffff8211610384575090610e56918501613f8b565b60608401516080909401519293919290610ddf38610daf565b503461038457610e7e366131bf565b90610e87614588565b610e92811515613e75565b6001600160a01b036009541690610ea9818361367e565b92610ebd600354600f0b85600f0b13613ec1565b610ee8610ed46105a0610ece614216565b876140ee565b610ee28782600f0b13613f19565b84613329565b8110610f65577f6e515712d7c1b079931bc2e5abaaa2232d0bbaec22a28a19a2500a3790dbba9493610f2082604095309033906145f9565b6001600160801b031960035416816001600160801b0316176003556001600160801b038019610f4d613835565b60801b1691161760035582519182526020820152a180f35b60405162461bcd60e51b815260206004820152602860248201527f496e73756666696369656e74206164646974696f6e616c206361706974616c2060448201527f70726f76696465640000000000000000000000000000000000000000000000006064820152608490fd5b5034610384578060031936011261038457602060045460801d60405190600f0b8152f35b503461038457602036600319011261038457600435611011614588565b60065480156111d157811561118c57811161113b576001600160a01b03600954166040516370a0823160e01b8152306004820152602081602481855afa8015610cbb5783918591611106575b50106110c15781611079916001600160a01b03855416906145b1565b61108581600654613c6b565b6006557fc0819c13be868895eb93e40eaceb96de976442fa1d404e5c55f14bb65a8c489a60206001600160a01b0384541692604051908152a280f35b60405162461bcd60e51b815260206004820152601d60248201527f496e73756666696369656e7420636f6e74726163742062616c616e63650000006044820152606490fd5b9150506020813d602011611133575b81611122602093836131d5565b81010312610665578290513861105d565b3d9150611115565b60405162461bcd60e51b8152602060048201526024808201527f416d6f756e74206578636565647320616363756d756c61746564206f766572726044820152631bdd5b9960e21b6064820152608490fd5b60405162461bcd60e51b815260206004820152601d60248201527f416d6f756e74206d7573742062652067726561746572207468616e20300000006044820152606490fd5b60405162461bcd60e51b8152602060048201526024808201527f4e6f20616363756d756c61746564206f766572726f756e6420746f20776974686044820152636472617760e01b6064820152608490fd5b50346103845780600319360112610384576020600754604051908152f35b50346103845760a03660031901126103845761125a613183565b50611263613199565b5060443567ffffffffffffffff811161053657611284903690600401613241565b505060643567ffffffffffffffff8111610536576112a6903690600401613241565b505060843567ffffffffffffffff8111610536576112c8903690600401613272565b505060405163bc197c8160e01b8152602090f35b50346103845760203660031901126103845760206106b461130b600435611306600154821061358f565b613627565b905460045460801d9160031b1c600f0b6141e9565b50346103845760203660031901126103845760043567ffffffffffffffff811161053657611352903690600401613241565b61135a614588565b6001600160a01b0360085416906007546040519063dd34de6760e01b82526004820152602081602481865afa908115610b1a578591611467575b50156114225783926113a4613a75565b509491939092823b15610ae95786946113f586926001600160a01b0394604051998a9889978896626dc0df60e21b885216600487015260248601526044850152608060648501526084840191613e38565b03925af18015611417576114065750f35b81611410916131d5565b6103845780f35b6040513d84823e3d90fd5b60405162461bcd60e51b815260206004820152601760248201527f4d61726b6574206e6f74207265736f6c766564207965740000000000000000006044820152606490fd5b90506020813d602011611491575b81611482602093836131d5565b81010312610665575138611394565b3d9150611475565b5034610384576020366003190112610384576004356114b6614588565b8015611582576101f48111611517576020816114f27fc72a5fc4167712e80c27709c07050997005ab38ce81f34cfd36a3ca8a97de45d93614432565b6001600160801b031960055416906001600160801b031617600555604051908152a180f35b60405162461bcd60e51b815260206004820152602560248201527f4f766572726f756e642063616e6e6f742065786365656420352520283530302060448201527f62697073290000000000000000000000000000000000000000000000000000006064820152608490fd5b606460405162461bcd60e51b815260206004820152602060248201527f4f766572726f756e64206d7573742062652067726561746572207468616e20306044820152fd5b5034610384576040366003190112610384576004356115e36131af565b9060095490600160ff8360a01c16151503610c535760015461160681831061358f565b83600f0b93611616868613613abc565b6001600160a01b03600854166007549560405163dd34de6760e01b8152876004820152602081602481865afa8015611c55578990611c21575b61165a91501561388e565b61166385613627565b90549060031b1c600f0b12611bdc576001600160a01b039561169c8894600454600f0b60035460801d908689611697613b08565b61463b565b959198909716926116ad85856139ce565b936040519363856296f760e01b855283600486015260248501526001881b6044850152602084606481855afa938415610a04578394611ba3575b5060405163039dd75360e41b81526001600160a01b039190911660048201526024810193909352602083604481845afa928315611417578293611b6c575b50803b1561053657604051637921219560e11b815233600482015230602482015260448101939093526064830184905260a06084840152600060a48401528190839060c490829084905af19182611b53575b50506118aa57868060033d1161189a575b6308c379a01461179e57604051903d90823e3d90fd5b6117a6613d67565b806117b15750610672565b611896907fbd1dcaeca35ae4a65142e160b7e80d67e7d37f2145f209d9c29b7e4daf85ba3760405160408152601760408201527f736166655472616e7366657246726f6d206661696c65640000000000000000006060820152608060208201528061181f6080820185613ddc565b0390a1611876603960405180937f736166655472616e7366657246726f6d206661696c65643a200000000000000060208301526118658151809260208686019101613a24565b81010301601f1981018352826131d5565b60405162461bcd60e51b8152602060048201529182916024830190613ddc565b0390fd5b50600481803e805160e01c611788565b95939094956118b884613c87565b909385926001600160a01b0360085416986001600160a01b036009541695600754955b8551811015611a64578b60206118f183896139a3565b5160648d604051948593849263856296f760e01b845260048401528d602484015260448301525afa9081156119ed578d908c92611a2e575b5060405163039dd75360e41b81526001600160a01b038b1660048201526024810192909252602090829060449082905afa9081156119ed578d908c926119f8575b50604051627eeac760e11b81523060048201526024810192909252602090829060449082905afa9081156119ed578b916119ba575b508981106119b1575b506001016118db565b985060016119a8565b905060203d81116119e6575b6119d081836131d5565b602082600092810103126103845750513861199f565b503d6119c6565b6040513d8d823e3d90fd5b91505060203d8111611a27575b611a0f81836131d5565b602082600092810103126103845750518c602061196a565b503d611a05565b91505060203d8111611a5d575b611a4581836131d5565b602082600092810103126103845750518c6020611929565b503d611a3b565b50898989878e8a8c84611af5575b60208a8a8a611aa08f610841611a9a8e611a8b84613627565b90549060031b1c600f0b6141e9565b91613627565b6001600160801b031960045416906001600160801b0316176004556001600160801b036003549181199060801b169116176003556106b46001600160a01b0360095416611aed83826139ce565b9033906145b1565b823b15611b4f57908580949392611b2260405197889687958694639e7212ad60e01b865260048601613e01565b03925af1801561141757611b3a575b80808080611a72565b611b458280926131d5565b6103845780611b31565b8580fd5b81611b5d916131d5565b611b68578738611777565b8780fd5b915091506020813d602011611b9b575b81611b89602093836131d5565b81010312610665578890519138611725565b3d9150611b7c565b935091506020833d602011611bd4575b81611bc0602093836131d5565b8101031261066557915191899160206116e7565b3d9150611bb3565b60405162461bcd60e51b815260206004820152601960248201527f4e6f7420656e6f7567682073686172657320746f2073656c6c000000000000006044820152606490fd5b506020813d602011611c4d575b81611c3b602093836131d5565b810103126106655761165a905161164f565b3d9150611c2e565b6040513d8b823e3d90fd5b503461038457602036600319011261038457611c7a613183565b906001600160a01b036008541691600754906040519263dd34de6760e01b8452826004850152602084602481885afa938415611f8b578194611f57575b5060015490611cc582613964565b95611ccf83613964565b93611cd984613964565b95836001600160a01b0360095416905b868110611d24578a8a6102958b611d168c610dd1604051968796875260806020880152608087019061320d565b90838203606085015261320d565b604051630141320560e21b8152836004820152816024820152602081604481895afa908115611eb1578791611f24575b50611d5f828d6139a3565b5260405163856296f760e01b81528660048201528360248201526001821b6044820152602081606481895afa908115611eb1578791611ef0575b5060405163039dd75360e41b81526001600160a01b03841660048201526024810191909152602081604481895afa908115611eb1578791611ebc575b50604051627eeac760e11b81526001600160a01b03861660048201526024810191909152602081604481895afa908115611eb1578b8d93928b928a91611e72575b506001948491611e2683866139a3565b5282611e37575b5050505001611ce9565b611e5282611e4b611e5994611e5e976139a3565b51926139a3565b5190613d34565b613d47565b611e68828c6139a3565b52888b828e611e2d565b93945050505060203d8111611eaa575b611e8c81836131d5565b602082600092810103126103845750518b919089908c906001611e16565b503d611e82565b6040513d89823e3d90fd5b905060203d8111611ee9575b611ed281836131d5565b602082600092810103126103845750516020611dd5565b503d611ec8565b905060203d8111611f1d575b611f0681836131d5565b602082600092810103126103845750516020611d99565b503d611efc565b905060203d8111611f50575b611f3a81836131d5565b6020826000928101031261038457505138611d54565b503d611f30565b9093506020813d602011611f83575b81611f73602093836131d5565b8101031261066557519238611cb7565b3d9150611f66565b50604051903d90823e3d90fd5b50346103845780600319360112610384576001600160a01b036020915416604051908152f35b503461038457604036600319011261038457602061041c611fdd613183565b611fe56131af565b906139ce565b50346103845760203660031901126103845761029561200b600435613c87565b60405191829160208352602083019061320d565b50346103845780600319360112610384576020600a54604051908152f35b50346103845780600319360112610384576020600154604051908152f35b50346103845780600319360112610384576020600354600f0b604051908152f35b50346103845760403660031901126103845760206106b46106a06131af565b5034610384576120aa366131bf565b919060095491600160ff8460a01c1615150361038457602061041c8561210e86866120f86001600160a01b03600154936120e585851061358f565b6120f0871515613abc565b16948561367e565b600454600f0b9060035460801d92611697613b08565b509190506139ce565b5034610384578060031936011261038457612130614588565b806001600160a01b03815473ffffffffffffffffffffffffffffffffffffffff1981168355167f8be0079c531659141344cd1fd0a4f28419497f9722a3daafe3b4186f6b6457e08280a380f35b5034610384576040366003190112610384576024359061219b614588565b6001600160a01b03600854166007546040519063dd34de6760e01b82526004820152602081602481855afa8015610a045783906122a9575b6121de91501561388e565b6001549081841015612264576121f382613964565b91835b818110612234575050829350803b15612230576113f58392918392604051948580948193633124a62b60e21b8352600435600484016139b7565b5050fd5b600190868103612253576103e861224b82876139a3565b525b016121f6565b8561225e82876139a3565b5261224d565b60405162461bcd60e51b815260206004820152600f60248201527f496e76616c6964206f7574636f6d6500000000000000000000000000000000006044820152606490fd5b506020813d6020116122d5575b816122c3602093836131d5565b81010312610665576121de90516121d3565b3d91506122b6565b50346103845780600319360112610384576001600160a01b03610295612301613a75565b916040949394519586951685526020850152604084015260806060840152608083019061320d565b50346103845780600319360112610384576020600654604051908152f35b50346103845760a03660031901126103845760243560843560643560043561236d614588565b60ff60095460a01c1661263d5782156125f8576001600160a01b0360085416803b15611b4f5760405163365bb9d560e21b8152306004820152602481018390526044810186905290869081908390606490829084905af1918215611f8b5786926125db575b5050600854604051634296357160e11b815230600482015260248101939093526044830191909152602090829060649082906001600160a01b03165afa908115610b1a5785916125a9575b5060075582600155612483612431846141d1565b91612472816001600160a01b036009541661244e6044358261367e565b6001600160801b031960035416906001600160801b031617600355309033906145f9565b6001600160a01b036009541661367e565b6001600160801b036004549181199060801b16911617600455835b83811061255657506125389250740100000000000000000000000000000000000000007fffffffffffffffffffffff00ffffffffffffffffffffffffffffffffffffffff60095416176009556124fa600454918260801d6140ee565b6001600160801b0316906001600160801b0319161760045561251a613835565b6001600160801b036003549181199060801b16911617600355614432565b6001600160801b031960055416906001600160801b03161760055580f35b60025468010000000000000000811015612595579061257c826001809401600255613627565b6001600160801b0382549160031b1b191690550161249e565b634e487b7160e01b86526041600452602486fd5b90506020813d6020116125d3575b816125c4602093836131d5565b8101031261066557513861241d565b3d91506125b7565b819250906125e8916131d5565b6125f4578385386123d2565b8480fd5b60405162461bcd60e51b815260206004820152601760248201527f43616e6e6f7420686176652030206f766572726f756e640000000000000000006044820152606490fd5b60405162461bcd60e51b815260206004820152600c60248201527f416c726561647920696e697400000000000000000000000000000000000000006044820152606490fd5b50346103845760403660031901126103845761269c6131af565b60035460801d90600f0b6f7fffffffffffffffffffffffffffffff1981146126d857906126d26106b49260209403600435613b9f565b90613a47565b634e487b7160e01b83526011600452602483fd5b503461038457602036600319011261038457600435612709614588565b612722816001600160a01b0360095416309033906145f9565b612737816001600160a01b036009541661367e565b91805b600154811015612766578061276061275786610829600195613627565b61084183613627565b0161273a565b509161278661277d6004549261059a6001546141d1565b82600f0b614128565b6001600160801b0316906001600160801b031916176004556127a6613835565b6001600160801b036003549181199060801b169116176003556040519081527fc17cea59c2955cb181b03393209566960365771dbba9dc3d510180e7cb31208860203392a280f35b503461038457602036600319011261038457600435612810600154821061358f565b6001600160a01b0360085416916001600754926040519363856296f760e01b855283600486015260248501521b6044830152602082606481865afa918215611f8b578192612948575b5060095460405163039dd75360e41b81526001600160a01b0390911660048201526024810192909252602082604481865afa918215611f8b578192612914575b50604051627eeac760e11b8152306004820152602481018390529260209084908180604481015b03915afa90811561067257906128e1575b6040809350519182526020820152f35b506020823d60201161290c575b816128fb602093836131d5565b8101031261066557604091516128d1565b3d91506128ee565b9091506020813d602011612940575b81612930602093836131d5565b8101031261066557519038612899565b3d9150612923565b91506020823d602011612975575b81612963602093836131d5565b81010312610665579051906020612859565b3d9150612956565b50346103845760203660031901126103845760043567ffffffffffffffff8111610536573660238201121561053657806004013567ffffffffffffffff8111612a2257604051906129d8601f8201601f1916602001836131d5565b808252602082019236602483830101116125f45781602095926024879301863783010152612a1783604051809361186583830196879251928391613a24565b519020604051908152f35b634e487b7160e01b83526041600452602483fd5b503461038457602036600319011261038457600154612a5c60043561130683821061358f565b90549060031b1c600f0b612a7e612a79600354600f0b809361414d565b614184565b9183915b818310612a955760206106b4868661414d565b909193612ac3600191612abd612a7985612aae8a613627565b90549060031b1c600f0b61414d565b90614128565b94019190612a82565b503461038457806003193601126103845760095490600160ff8360a01c1615150361038457612af9614588565b6001600160a01b0360085416916007549060405163dd34de6760e01b8152826004820152602081602481885afa908115610cbb578491612c9d575b5015612c585760015491612b4783613964565b92845b818110612c415750508484953b156125f4576001600160a01b03858094612b9f60405197889687958694626dc0df60e21b8652166004850152846024850152604484015260806064840152608483019061320d565b03925af1801561141757612c2c575b50506009546040516370a0823160e01b8152306004820152906001600160a01b0316602082602481845afa908115610a04578391612bf6575b612bf3925033906145b1565b80f35b90506020823d602011612c24575b81612c11602093836131d5565b8101031261066557612bf3915190612be7565b3d9150612c04565b81612c36916131d5565b610384578038612bae565b80600180921b612c5182886139a3565b5201612b4a565b60405162461bcd60e51b815260206004820152601b60248201527f4d61726b6574206e6565647320746f206265207265736f6c76656400000000006044820152606490fd5b90506020813d602011612cc7575b81612cb8602093836131d5565b81010312610665575138612b34565b3d9150612cab565b5034610384578060031936011261038457612cee6002600154146138da565b6001600160a01b036008541690600754906040519163856296f760e01b835281600484015280602484015260016044840152602083606481875afa8015611417578290612e57575b60095460405163039dd75360e41b81526001600160a01b03909116600482018190526024820192909252935060208480604481015b0381885afa938415610a04578394612e23575b506040519163856296f760e01b8352836004840152602483015260026044830152602082606481885afa918215610a04578392612ded575b5060405163039dd75360e41b81526001600160a01b03909116600482015260248101919091529260209084908180604481016128c0565b91506020823d602011612e1b575b81612e08602093836131d5565b81010312610665579051906128c0612db6565b3d9150612dfb565b9093506020813d602011612e4f575b81612e3f602093836131d5565b8101031261066557519238612d7e565b3d9150612e32565b506020833d602011612e83575b81612e71602093836131d5565b8101031261066557612d6b9251612d36565b3d9150612e64565b503461038457602036600319011261038457612ea5614588565b6001600160a01b03600854166007546040519063dd34de6760e01b82526004820152602081602481855afa8015610a04578390613080575b612ee891501561388e565b612ef66002600154146138da565b60015491612f0583151561358f565b612f0e81613627565b90549060031b1c600f0b92612f2c612a79600354600f0b809661414d565b829183905b80821061306057505090612f449161414d565b600154612f538160011061358f565b612f5d6001613627565b90549060031b1c600f0b612f7a612a79600354600f0b809361414d565b90849285915b81831061303e57505050612f9a612fa692612fa09261414d565b92614097565b91614097565b9260405191612fb66060846131d5565b600283526040366020850137612fcb83613996565b5281516001101561302a5782936040830152803b156122305761300b8392918392604051958680948193633124a62b60e21b8352600435600484016139b7565b03925af18015611f8b5761301c5780f35b613025916131d5565b818180f35b634e487b7160e01b83526032600452602483fd5b909193613057600191612abd612a7985612aae8a613627565b94019190612f80565b9092613078600191612abd612a798a612aae89613627565b930190612f31565b506020813d6020116130ac575b8161309a602093836131d5565b81010312610a0f57612ee89051612edd565b3d915061308d565b503461038457806003193601126103845760206106b4613835565b50346103845760403660031901126103845760206106b46130ee613183565b6024359061367e565b503461038457602061041c61310b366131bf565b906133ec565b503461038457604036600319011261038457602061041c613130613183565b6131386131af565b90613329565b905034610536576020366003190112610536576004357fffffffff00000000000000000000000000000000000000000000000000000000811603610536576020918152f35b600435906001600160a01b038216820361066557565b602435906001600160a01b038216820361066557565b6024359081600f0b820361066557565b6040906003190112610665576004359060243590565b90601f8019910116810190811067ffffffffffffffff8211176131f757604052565b634e487b7160e01b600052604160045260246000fd5b906020808351928381520192019060005b81811061322b5750505090565b825184526020938401939092019160010161321e565b9181601f840112156106655782359167ffffffffffffffff8311610665576020808501948460051b01011161066557565b9181601f840112156106655782359167ffffffffffffffff8311610665576020838186019501011161066557565b90816020910312610665575160ff811681036106655790565b604d81116132c757600a0a90565b634e487b7160e01b600052601160045260246000fd5b156132e457565b60405162461bcd60e51b815260206004820152601b60248201527f416d6f756e74206d757374206265206e6f6e2d6e6567617469766500000000006044820152606490fd5b60206001600160a01b039160046040518094819363313ce56760e01b8352165afa80156133e05761339761337360ff67ffffffffffffffff9360009586916133b1575b50166132b9565b936133838482600f0b12156132dd565b61338d85826140ac565b94600f0b906140ee565b16600f0b136133a35790565b600181018091116132c75790565b6133d3915060203d6020116133d9575b6133cb81836131d5565b8101906132a0565b3861336c565b503d6133c1565b6040513d6000823e3d90fd5b60095490600160ff8360a01c161515036106655761342d6001600160a01b036001549361341a85851061358f565b6134258615156135db565b16938461367e565b91613450612a79613445600354958660801d90614128565b94600f0b809561414d565b60009160005b81811061356057505090613469916141e9565b91600083600f0b13156134f557611a9a6134899161059a61349995614318565b90549060031b1c600f0b906141e9565b600081600f0b126134b0576134ad916139ce565b90565b60405162461bcd60e51b815260206004820152601960248201527f496e76616c69642073686172652063616c63756c6174696f6e000000000000006044820152606490fd5b60405162461bcd60e51b815260206004820152602d60248201527f42657420616d6f756e7420746f6f206c6172676520666f722063757272656e7460448201527f206d61726b6574207374617465000000000000000000000000000000000000006064820152608490fd5b848103613570575b600101613456565b92613587600191612abd612a7989612aae89613627565b939050613568565b1561359657565b60405162461bcd60e51b815260206004820152601560248201527f496e76616c6964206f7574636f6d6520696e64657800000000000000000000006044820152606490fd5b156135e257565b60405162461bcd60e51b815260206004820152601b60248201527f42657420616d6f756e74206d75737420626520706f73697469766500000000006044820152606490fd5b90600254821015613668576002600052600182901c7f405787fa12a823e0f2b7631cc41b3ba8828b3321ca811111fa75cd3aa3bb5ace019160041b60101690565b634e487b7160e01b600052603260045260246000fd5b60206001600160a01b039160046040518094819363313ce56760e01b8352165afa9081156133e0576136bb9160ff916000916133b15750166132b9565b6000918115610a0f576001600160c01b03811161370c57906136df9160401b613d47565b6001600160801b038111610536576001600160801b03169060016001607f1b0382116103845750600f0b90565b60c09181831c8093640100000000821015613828575b6002826201000061377494101561381c575b610100811015613810575b6010811015613804575b60048110156137f9575b10156137f1575b600019830160be1982011c6001019060ff0384901b613d47565b926001600160801b0384116125f4578160801c8402906001600160801b038316850290809460401b908282106137e5575b5003928160801b918285106137da575b60801c036137cf576137c79203613d47565b905b016136df565b5050506001906137c9565b9060001901906137b5565b600019019450386137a5565b60010161375a565b91810191811c613753565b6004928301921c613749565b6008928301921c61373f565b6010928301921c613734565b505060e082811c90613722565b600160ff60095460a01c1615150361066557600090600060015490600354600f0b915b80821061386e57505061059a6134ad9293614318565b9093613886600191612abd612a7986612aae8a613627565b940190613858565b1561389557565b60405162461bcd60e51b815260206004820152601760248201527f4d61726b657420616c7265616479207265736f6c7665640000000000000000006044820152606490fd5b156138e157565b60405162461bcd60e51b815260206004820152602b60248201527f546869732066756e6374696f6e206f6e6c7920776f726b7320666f722062696e60448201527f617279206d61726b6574730000000000000000000000000000000000000000006064820152608490fd5b67ffffffffffffffff81116131f75760051b60200190565b9061396e8261394c565b61397b60405191826131d5565b828152809261398c601f199161394c565b0190602036910137565b8051156136685760200190565b80518210156136685760209160051b010190565b6040906134ad93928152816020820152019061320d565b9060206001600160a01b039260046040518095819363313ce56760e01b8352165afa80156133e05760ff613a0e916134ad946000916133b15750166132b9565b90613a1f600082600f0b12156132dd565b6140ac565b60005b838110613a375750506000910152565b8181015183820152602001613a27565b600f91820b910b03906f7fffffffffffffffffffffffffffffff19821260016001607f1b038313176132c757565b6001600160a01b0360095416906000906007549060015490613a9682613964565b9160005b818110613aa5575050565b80600180921b613ab582876139a3565b5201613a9a565b15613ac357565b60405162461bcd60e51b815260206004820152601760248201527f416d6f756e74206d75737420626520706f7369746976650000000000000000006044820152606490fd5b60405190600254808352826020810160026000526020600020926000905b806001830110613b7357613b4c945491818110613b5f575b10613b4e575b5003836131d5565b565b60801d600f0b815260200138613b44565b92602060019184600f0b8152019301613b3e565b9160029193506040600191865480600f0b825260801d600f0b6020820152019401920185929391613b26565b919091600092613bb0600254613964565b90600354600f0b92600091600154925b838110613c11575050506000905b808210613be55750505061059a6134ad9293614318565b909194613c08600191612abd612a7987613bff888c6139a3565b51600f0b61414d565b95920190613bce565b93969360019081811b841615613c4857613c2e8361082983613627565b613c38828b6139a3565b90600f0b90525b01969396613bc0565b613c5181613627565b90549060031b1c600f0b613c65828b6139a3565b52613c3f565b919082039182116132c757565b60001981146132c75760010190565b6001546001811b9160001983019283116132c7576001901b91821891600083805b613d145750600181018091116132c757613cc190613964565b92600191613cce85613996565b5260005b838110613ce0575050505090565b6001811b808316613cf5575b50600101613cd2565b83613d0d91613d0760019496896139a3565b52613c78565b9290613cec565b9060001982018281116132c757613d2e9216918291613c78565b91613ca8565b818102929181159184041417156132c757565b8115613d51570490565b634e487b7160e01b600052601260045260246000fd5b600060443d106134ad576040513d600319016004823e8051913d602484011167ffffffffffffffff841117613dd6578282019283519167ffffffffffffffff8311613dce573d84016003190185840160200111613dce57506134ad929101602001906131d5565b949350505050565b92915050565b90602091613df581518092818552858086019101613a24565b601f01601f1916010190565b9493926080926001600160a01b03613e339316875260006020880152604087015260a0606087015260a086019061320d565b930152565b90918281527f07ffffffffffffffffffffffffffffffffffffffffffffffffffffffffffffff83116106655760209260051b809284830137010190565b15613e7c57565b60405162461bcd60e51b815260206004820152601c60248201527f4e65772062206d7573742062652067726561746572207468616e2030000000006044820152606490fd5b15613ec857565b60405162461bcd60e51b8152602060048201526024808201527f4e65772062206d7573742062652067726561746572207468616e206375727265604482015263373a103160e11b6064820152608490fd5b15613f2057565b60405162461bcd60e51b815260206004820152603260248201527f4e65772062206d7573742062652067726561746572207468616e20696e69746960448201527f616c2073756273696479202f206c6e28322900000000000000000000000000006064820152608490fd5b9080601f83011215610665578151613fa28161394c565b92613fb060405194856131d5565b81845260208085019260051b82010192831161066557602001905b828210613fd85750505090565b8151815260209182019101613fcb565b90816020910312610665575180151581036106655790565b6009546040516370a0823160e01b8152306004820152906001600160a01b0316602082602481845afa9182156133e057600092614061575b506140499060035460801d906139ce565b8082111561405a576134ad91613c6b565b5050600090565b90916020823d60201161408f575b8161407c602093836131d5565b8101031261038457505190614049614038565b3d915061406f565b600f0b60008112610665576103e80260401c90565b811561405a57600f0b60008112610665576001600160801b038216810260401c9160801c026001600160c01b0381116106655760401b81198111610665570190565b90600f0b90600f0b0260401d60016001607f1b031981121580614117575b1561066557600f0b90565b5060016001607f1b0381131561410c565b90600f0b90600f0b0160016001607f1b031981121580614117571561066557600f0b90565b90600f0b9081156106655760401b60170b056f7fffffffffffffffffffffffffffffff1981121580614117571561066557600f0b90565b600f0b6840000000000000000081121561066557683fffffffffffffffff1981126141cb57700171547652b82fe1777d0ffda0d23a7d126134ad910260801d600f0b61470a565b50600090565b677fffffffffffffff81116106655760401b600f0b90565b600f91820b910b036f7fffffffffffffffffffffffffffffff1981121580614117571561066557600f0b90565b6040600068020000000000000000821d64010000000081121561430c575b80620100006002921215614300575b6101008112156142f4575b60108112156142e8575b60048112156142dd575b12156142d3575b9068020000000000000000603f19820160401b91607f031b91678000000000000000925b8184136142b35750506fb17217f7d1cf79abc9e3b39803f2f6af9150600f0b0260801d90565b8092919202908160ff1c9182607f011c918402019260011d92919061428d565b9060010190614269565b92810192811d614262565b6004938401931d614258565b6008938401931d61424e565b6010938401931d614243565b6060925060201d614234565b600f0b600081131561066557600080918068010000000000000000821215614425575b806401000000006002921215614419575b6201000081121561440d575b610100811215614401575b60108112156143f5575b60048112156143ea575b12156143e0575b67800000000000000092603f19810160401b9291607f919091031b5b8184136143c05750506fb17217f7d1cf79abc9e3b39803f2f6af9150600f0b0260801d90565b8092919202908160ff1c9182607f011c918402019260011d92919061439a565b916001019161437e565b93810193811d614377565b6004948501941d61436d565b6008948501941d614363565b6010948501941d614358565b6020948501941d61434c565b506040925080831d61433b565b6000906001600160c01b038111614491578161447d576127109060401b046001600160801b038111610536576001600160801b03169060016001607f1b0382116103845750600f0b90565b634e487b7160e01b82526012600452602482fd5b9060c09180831c809364010000000082101561457b575b600282620100006144f794101561456f575b610100811015614563575b6010811015614557575b600481101561454c575b1015614544575b82600161270f60be1984011c019160ff031b613d47565b916001600160801b03831161038457612710830291849060401b94838610614538575b5061452d579261271091900304016136df565b9250506001906137c9565b6000190190503861451a565b6001016144e0565b91810191811c6144d9565b6004928301921c6144cf565b6008928301921c6144c5565b6010928301921c6144ba565b505060e081811c906144a8565b6001600160a01b0360005416330361459c57565b63118cdaa760e01b6000523360045260246000fd5b60405163a9059cbb60e01b60208201526001600160a01b0390921660248301526044820192909252613b4c916145f482606481015b03601f1981018452836131d5565b61533f565b6040516323b872dd60e01b60208201526001600160a01b0392831660248201529290911660448301526064820192909252613b4c916145f482608481016145e6565b9593949291909161464b84613964565b9260005b8581106146e2575083949596975061468161467a846146718461468c986139a3565b51600f0b6141e9565b91866139a3565b90600f0b90526141e9565b91600354600f0b916000916000915b8183106146bf575050506146bc9161059a6146b592614318565b80946141e9565b91565b9091926146d9600191612abd612a7988613bff89886139a3565b9301919061469b565b806146f26001928b9897986139a3565b51600f0b61470082896139a3565b520194939461464f565b80600f0b6840000000000000000081121561066557683fffffffffffffffff19811261405a576f800000000000000000000000000000009160006780000000000000008216600f0b13615327575b60006740000000000000008216600f0b1361530a575b60006720000000000000008216600f0b136152ed575b60006710000000000000008216600f0b136152d0575b60006708000000000000008216600f0b136152b3575b60006704000000000000008216600f0b13615296575b60006702000000000000008216600f0b13615279575b60006701000000000000008216600f0b1361525c575b600066800000000000008216600f0b1361523f575b600066400000000000008216600f0b13615222575b600066200000000000008216600f0b13615205575b600066100000000000008216600f0b136151e8575b600066080000000000008216600f0b136151cb575b600066040000000000008216600f0b136151ae575b600066020000000000008216600f0b13615191575b600066010000000000008216600f0b13615174575b6000658000000000008216600f0b13615157575b6000654000000000008216600f0b1361513a575b6000652000000000008216600f0b1361511d575b6000651000000000008216600f0b13615100575b6000650800000000008216600f0b136150e3575b6000650400000000008216600f0b136150c6575b6000650200000000008216600f0b136150a9575b6000650100000000008216600f0b1361508c575b60006480000000008216600f0b1361506f575b60006440000000008216600f0b13615052575b60006420000000008216600f0b13615035575b60006410000000008216600f0b13615018575b60006408000000008216600f0b13614ffb575b60006404000000008216600f0b13614fde575b60006402000000008216600f0b13614fc1575b60006401000000008216600f0b13614fa4575b600063800000008216600f0b13614f87575b600063400000008216600f0b13614f6a575b600063200000008216600f0b13614f4d575b600063100000008216600f0b13614f30575b600063080000008216600f0b13614f13575b600063040000008216600f0b13614ef6575b600063020000008216600f0b13614ed9575b600063010000008216600f0b13614ebc575b6000628000008216600f0b13614e9f575b6000624000008216600f0b13614e82575b6000622000008216600f0b13614e65575b6000621000008216600f0b13614e48575b6000620800008216600f0b13614e2b575b6000620400008216600f0b13614e0e575b6000620200008216600f0b13614df1575b6000620100008216600f0b13614dd4575b60006180008216600f0b13614db7575b60006140008216600f0b13614d9a575b60006120008216600f0b13614d7d575b60006110008216600f0b13614d60575b60006108008216600f0b13614d43575b60006104008216600f0b13614d26575b60006102008216600f0b13614d09575b60006101008216600f0b13614cec575b600060808216600f0b13614ccf575b600060408216600f0b13614cb2575b600060208216600f0b13614c95575b600060108216600f0b13614c78575b600060088216600f0b13614c5b575b600060048216600f0b13614c3e575b600060028216600f0b13614c20575b600160009116600f0b13614c03575b60401d600f0b603f03600f0b1c60016001607f1b03811161066557600f0b90565b9070010000000000000000b17217f7d1cf79ab0260801c90614be2565b7001000000000000000162e42fefa39ef35890920260801c91614bd3565b9170010000000000000002c5c85fdf473de6b20260801c91614bc4565b91700100000000000000058b90bfbe8e7bcd6d0260801c91614bb5565b917001000000000000000b17217f7d1cf79afa0260801c91614ba6565b91700100000000000000162e42fefa39ef366f0260801c91614b97565b917001000000000000002c5c85fdf473de6eca0260801c91614b88565b9170010000000000000058b90bfbe8e7bce5440260801c91614b79565b91700100000000000000b17217f7d1cf79e9490260801c91614b6a565b9170010000000000000162e42fefa39ef44d910260801c91614b5a565b91700100000000000002c5c85fdf473dea871f0260801c91614b4a565b917001000000000000058b90bfbe8e7bdcbe2e0260801c91614b3a565b9170010000000000000b17217f7d1cf7d83c1a0260801c91614b2a565b917001000000000000162e42fefa39f02b772c0260801c91614b1a565b9170010000000000002c5c85fdf473e242ea380260801c91614b0a565b91700100000000000058b90bfbe8e7cc35c3f00260801c91614afa565b917001000000000000b17217f7d1cfb72b45e10260801c91614aea565b91700100000000000162e42fefa39fe95583c20260801c91614ad9565b917001000000000002c5c85fdf4741bea6e77e0260801c91614ac8565b9170010000000000058b90bfbe8e8b2d3d4ede0260801c91614ab7565b91700100000000000b17217f7d1d351a389d400260801c91614aa6565b9170010000000000162e42fefa3ae53369388c0260801c91614a95565b91700100000000002c5c85fdf477b662b269450260801c91614a84565b917001000000000058b90bfbe8f71cb4e4b33d0260801c91614a73565b9170010000000000b17217f7d20cf927c8e94c0260801c91614a62565b917001000000000162e42fefa494f1478fde050260801c91614a50565b9170010000000002c5c85fdf4b15de6f17eb0d0260801c91614a3e565b91700100000000058b90bfbe9ddbac5e109cce0260801c91614a2c565b917001000000000b17217f7d5a7716bba4a9ae0260801c91614a1a565b91700100000000162e42fefb2fed257559bdaa0260801c91614a08565b917001000000002c5c85fdf84bd62ae30a74cc0260801c916149f6565b9170010000000058b90bfbf8479bd5a81b51ad0260801c916149e4565b91700100000000b17217f80f4ef5aadda455540260801c916149d2565b9170010000000162e42ff0999ce3541b9fffcf0260801c916149bf565b91700100000002c5c85fe31f35a6a30da1be500260801c916149ac565b917001000000058b90bfcdee5acd3c1cedc8230260801c91614999565b9170010000000b17217fba9c739aa5819f44f90260801c91614986565b917001000000162e42fff037df38aa2b219f060260801c91614973565b9170010000002c5c8601cc6b9e94213c72737a0260801c91614960565b91700100000058b90c0b48c6be5df846c5b2ef0260801c9161494d565b917001000000b1721835514b86e6d96efd1bfe0260801c9161493a565b91700100000162e430e5a18f6119e3c02282a50260801c91614926565b917001000002c5c863b73f016468f6bac5ca2b0260801c91614912565b9170010000058b90cf1e6d97f9ca14dbcc16280260801c916148fe565b91700100000b1721bcfc99d9f890ea069117630260801c916148ea565b9170010000162e43f4f831060e02d839a9d16d0260801c916148d6565b91700100002c5c89d5ec6ca4d7c8acc017b7c90260801c916148c2565b917001000058b91b5bc9ae2eed81e9b7d4cfab0260801c916148ae565b9170010000b17255775c040618bf4a4ade83fc0260801c9161489a565b917001000162e525ee054754457d59952920260260801c91614885565b9170010002c5cc37da9491d0985c348c68e7b30260801c91614870565b91700100058ba01fb9f96d6cacd4b180917c3d0260801c9161485b565b917001000b175effdc76ba38e31671ca9397250260801c91614846565b91700100162f3904051fa128bca9c55c31e5df0260801c91614831565b917001002c605e2e8cec506d21bfc89a23a00f0260801c9161481c565b9170010058c86da1c09ea1ff19d294cf2f679b0260801c91614807565b91700100b1afa5abcbed6129ab13ec11dc95430260801c916147f2565b9170010163da9fb33356d84a66ae336dcdfa3f0260801c916147dc565b91700102c9a3e778060ee6f7caca4f7a29bde80260801c916147c6565b917001059b0d31585743ae7c548eb68ca417fd0260801c916147b0565b9170010b5586cf9890f6298b92b71842a983630260801c9161479a565b917001172b83c7d517adcdf7c8c50eb14a791f0260801c91614784565b917001306fe0a31b7152de8d5a46305c85edec0260801c9161476e565b6fb504f333f9de6484597d89b3754abe9f9250614758565b906000602091828151910182855af1156133e0576000513d61538e57506001600160a01b0381163b155b6153705750565b6001600160a01b0390635274afe760e01b6000521660045260246000fd5b6001141561536956fea2646970667358221220dee2be6e8ca6a7023dc90e22f9e55497d783bc7a09b8b0927e55ad3dc3fb836c64736f6c634300081e0033",
  "linkReferences": {},
  "deployedLinkReferences": {}
}